{
	"contracts/manager/Candel/CandleManager.sol": {
		"CandleManager": {
			"abi": [
				{
					"inputs": [],
					"stateMutability": "nonpayable",
					"type": "constructor"
				},
				{
					"inputs": [
						{
							"components": [
								{
									"internalType": "uint64",
									"name": "openTime",
									"type": "uint64"
								},
								{
									"internalType": "string",
									"name": "openPrice",
									"type": "string"
								},
								{
									"internalType": "string",
									"name": "highPrice",
									"type": "string"
								},
								{
									"internalType": "string",
									"name": "lowPrice",
									"type": "string"
								},
								{
									"internalType": "string",
									"name": "closePrice",
									"type": "string"
								},
								{
									"internalType": "string",
									"name": "volume",
									"type": "string"
								},
								{
									"internalType": "uint64",
									"name": "closeTime",
									"type": "uint64"
								},
								{
									"internalType": "string",
									"name": "quoteAssetVolume",
									"type": "string"
								},
								{
									"internalType": "uint32",
									"name": "numberOfTrades",
									"type": "uint32"
								},
								{
									"internalType": "string",
									"name": "takerBuyBaseVolume",
									"type": "string"
								},
								{
									"internalType": "string",
									"name": "takerBuyQuoteVolume",
									"type": "string"
								},
								{
									"internalType": "string",
									"name": "unused",
									"type": "string"
								}
							],
							"internalType": "struct CandleRecord",
							"name": "candle",
							"type": "tuple"
						}
					],
					"name": "addCandle",
					"outputs": [],
					"stateMutability": "nonpayable",
					"type": "function"
				},
				{
					"inputs": [],
					"name": "candleCount",
					"outputs": [
						{
							"internalType": "uint256",
							"name": "",
							"type": "uint256"
						}
					],
					"stateMutability": "view",
					"type": "function"
				},
				{
					"inputs": [],
					"name": "factory",
					"outputs": [
						{
							"internalType": "address",
							"name": "",
							"type": "address"
						}
					],
					"stateMutability": "view",
					"type": "function"
				},
				{
					"inputs": [],
					"name": "getAllCandles",
					"outputs": [
						{
							"components": [
								{
									"internalType": "uint64",
									"name": "openTime",
									"type": "uint64"
								},
								{
									"internalType": "string",
									"name": "openPrice",
									"type": "string"
								},
								{
									"internalType": "string",
									"name": "highPrice",
									"type": "string"
								},
								{
									"internalType": "string",
									"name": "lowPrice",
									"type": "string"
								},
								{
									"internalType": "string",
									"name": "closePrice",
									"type": "string"
								},
								{
									"internalType": "string",
									"name": "volume",
									"type": "string"
								},
								{
									"internalType": "uint64",
									"name": "closeTime",
									"type": "uint64"
								},
								{
									"internalType": "string",
									"name": "quoteAssetVolume",
									"type": "string"
								},
								{
									"internalType": "uint32",
									"name": "numberOfTrades",
									"type": "uint32"
								},
								{
									"internalType": "string",
									"name": "takerBuyBaseVolume",
									"type": "string"
								},
								{
									"internalType": "string",
									"name": "takerBuyQuoteVolume",
									"type": "string"
								},
								{
									"internalType": "string",
									"name": "unused",
									"type": "string"
								}
							],
							"internalType": "struct CandleRecord[]",
							"name": "",
							"type": "tuple[]"
						}
					],
					"stateMutability": "view",
					"type": "function"
				},
				{
					"inputs": [],
					"name": "getCandles",
					"outputs": [
						{
							"components": [
								{
									"internalType": "uint64",
									"name": "openTime",
									"type": "uint64"
								},
								{
									"internalType": "string",
									"name": "openPrice",
									"type": "string"
								},
								{
									"internalType": "string",
									"name": "highPrice",
									"type": "string"
								},
								{
									"internalType": "string",
									"name": "lowPrice",
									"type": "string"
								},
								{
									"internalType": "string",
									"name": "closePrice",
									"type": "string"
								},
								{
									"internalType": "string",
									"name": "volume",
									"type": "string"
								},
								{
									"internalType": "uint64",
									"name": "closeTime",
									"type": "uint64"
								},
								{
									"internalType": "string",
									"name": "quoteAssetVolume",
									"type": "string"
								},
								{
									"internalType": "uint32",
									"name": "numberOfTrades",
									"type": "uint32"
								},
								{
									"internalType": "string",
									"name": "takerBuyBaseVolume",
									"type": "string"
								},
								{
									"internalType": "string",
									"name": "takerBuyQuoteVolume",
									"type": "string"
								},
								{
									"internalType": "string",
									"name": "unused",
									"type": "string"
								}
							],
							"internalType": "struct CandleRecord[]",
							"name": "",
							"type": "tuple[]"
						}
					],
					"stateMutability": "view",
					"type": "function"
				}
			],
			"devdoc": {
				"kind": "dev",
				"methods": {},
				"version": 1
			},
			"evm": {
				"assembly": "    /* \"contracts/manager/Candel/CandleManager.sol\":102:958  contract CandleManager is ICandleManager {... */\n  mstore(0x40, 0x80)\n    /* \"contracts/manager/Candel/CandleManager.sol\":427:478  constructor() {... */\n  callvalue\n  dup1\n  iszero\n  tag_1\n  jumpi\n  revert(0x00, 0x00)\ntag_1:\n  pop\n    /* \"contracts/manager/Candel/CandleManager.sol\":461:471  msg.sender */\n  caller\n    /* \"contracts/manager/Candel/CandleManager.sol\":451:458  factory */\n  0x01\n  0x00\n    /* \"contracts/manager/Candel/CandleManager.sol\":451:471  factory = msg.sender */\n  0x0100\n  exp\n  dup2\n  sload\n  dup2\n  0xffffffffffffffffffffffffffffffffffffffff\n  mul\n  not\n  and\n  swap1\n  dup4\n  0xffffffffffffffffffffffffffffffffffffffff\n  and\n  mul\n  or\n  swap1\n  sstore\n  pop\n    /* \"contracts/manager/Candel/CandleManager.sol\":102:958  contract CandleManager is ICandleManager {... */\n  dataSize(sub_0)\n  dup1\n  dataOffset(sub_0)\n  0x00\n  codecopy\n  0x00\n  return\nstop\n\nsub_0: assembly {\n        /* \"contracts/manager/Candel/CandleManager.sol\":102:958  contract CandleManager is ICandleManager {... */\n      mstore(0x40, 0x80)\n      callvalue\n      dup1\n      iszero\n      tag_1\n      jumpi\n      revert(0x00, 0x00)\n    tag_1:\n      pop\n      jumpi(tag_2, lt(calldatasize, 0x04))\n      shr(0xe0, calldataload(0x00))\n      dup1\n      0xa6478d97\n      eq\n      tag_3\n      jumpi\n      dup1\n      0xa8f9b0af\n      eq\n      tag_4\n      jumpi\n      dup1\n      0xc45a0155\n      eq\n      tag_5\n      jumpi\n      dup1\n      0xea6c8353\n      eq\n      tag_6\n      jumpi\n      dup1\n      0xfb34b3a9\n      eq\n      tag_7\n      jumpi\n    tag_2:\n      revert(0x00, 0x00)\n        /* \"contracts/manager/Candel/CandleManager.sol\":863:956  function candleCount() external view returns (uint256) {... */\n    tag_3:\n      tag_8\n      tag_9\n      jump\t// in\n    tag_8:\n      mload(0x40)\n      tag_10\n      swap2\n      swap1\n      tag_11\n      jump\t// in\n    tag_10:\n      mload(0x40)\n      dup1\n      swap2\n      sub\n      swap1\n      return\n        /* \"contracts/manager/Candel/CandleManager.sol\":484:599  function addCandle(CandleRecord memory candle) external override  onlyFactory {... */\n    tag_4:\n      tag_12\n      0x04\n      dup1\n      calldatasize\n      sub\n      dup2\n      add\n      swap1\n      tag_13\n      swap2\n      swap1\n      tag_14\n      jump\t// in\n    tag_13:\n      tag_15\n      jump\t// in\n    tag_12:\n      stop\n        /* \"contracts/manager/Candel/CandleManager.sol\":296:318  address public factory */\n    tag_5:\n      tag_16\n      tag_17\n      jump\t// in\n    tag_16:\n      mload(0x40)\n      tag_18\n      swap2\n      swap1\n      tag_19\n      jump\t// in\n    tag_18:\n      mload(0x40)\n      dup1\n      swap2\n      sub\n      swap1\n      return\n        /* \"contracts/manager/Candel/CandleManager.sol\":605:728  function getCandles () external override onlyFactory view returns  (CandleRecord [] memory ){... */\n    tag_6:\n      tag_20\n      tag_21\n      jump\t// in\n    tag_20:\n      mload(0x40)\n      tag_22\n      swap2\n      swap1\n      tag_23\n      jump\t// in\n    tag_22:\n      mload(0x40)\n      dup1\n      swap2\n      sub\n      swap1\n      return\n        /* \"contracts/manager/Candel/CandleManager.sol\":733:858  function getAllCandles() external override   view onlyFactory returns (CandleRecord[] memory) {... */\n    tag_7:\n      tag_24\n      tag_25\n      jump\t// in\n    tag_24:\n      mload(0x40)\n      tag_26\n      swap2\n      swap1\n      tag_23\n      jump\t// in\n    tag_26:\n      mload(0x40)\n      dup1\n      swap2\n      sub\n      swap1\n      return\n        /* \"contracts/manager/Candel/CandleManager.sol\":863:956  function candleCount() external view returns (uint256) {... */\n    tag_9:\n        /* \"contracts/manager/Candel/CandleManager.sol\":909:916  uint256 */\n      0x00\n        /* \"contracts/manager/Candel/CandleManager.sol\":935:942  candles */\n      0x00\n        /* \"contracts/manager/Candel/CandleManager.sol\":935:949  candles.length */\n      dup1\n      sload\n      swap1\n      pop\n        /* \"contracts/manager/Candel/CandleManager.sol\":928:949  return candles.length */\n      swap1\n      pop\n        /* \"contracts/manager/Candel/CandleManager.sol\":863:956  function candleCount() external view returns (uint256) {... */\n      swap1\n      jump\t// out\n        /* \"contracts/manager/Candel/CandleManager.sol\":484:599  function addCandle(CandleRecord memory candle) external override  onlyFactory {... */\n    tag_15:\n        /* \"contracts/manager/Candel/CandleManager.sol\":380:387  factory */\n      0x01\n      0x00\n      swap1\n      sload\n      swap1\n      0x0100\n      exp\n      swap1\n      div\n      0xffffffffffffffffffffffffffffffffffffffff\n      and\n        /* \"contracts/manager/Candel/CandleManager.sol\":366:387  msg.sender == factory */\n      0xffffffffffffffffffffffffffffffffffffffff\n      and\n        /* \"contracts/manager/Candel/CandleManager.sol\":366:376  msg.sender */\n      caller\n        /* \"contracts/manager/Candel/CandleManager.sol\":366:387  msg.sender == factory */\n      0xffffffffffffffffffffffffffffffffffffffff\n      and\n      eq\n        /* \"contracts/manager/Candel/CandleManager.sol\":358:403  require(msg.sender == factory, \"Not factory\") */\n      tag_29\n      jumpi\n      mload(0x40)\n      0x08c379a000000000000000000000000000000000000000000000000000000000\n      dup2\n      mstore\n      0x04\n      add\n      tag_30\n      swap1\n      tag_31\n      jump\t// in\n    tag_30:\n      mload(0x40)\n      dup1\n      swap2\n      sub\n      swap1\n      revert\n    tag_29:\n        /* \"contracts/manager/Candel/CandleManager.sol\":572:579  candles */\n      0x00\n        /* \"contracts/manager/Candel/CandleManager.sol\":585:591  candle */\n      dup2\n        /* \"contracts/manager/Candel/CandleManager.sol\":572:592  candles.push(candle) */\n      swap1\n      dup1\n      0x01\n      dup2\n      sload\n      add\n      dup1\n      dup3\n      sstore\n      dup1\n      swap2\n      pop\n      pop\n      0x01\n      swap1\n      sub\n      swap1\n      0x00\n      mstore\n      keccak256(0x00, 0x20)\n      swap1\n      0x0c\n      mul\n      add\n      0x00\n      swap1\n      swap2\n      swap1\n      swap2\n      swap1\n      swap2\n      pop\n      0x00\n      dup3\n      add\n      mload\n      dup2\n      0x00\n      add\n      exp(0x0100, 0x00)\n      dup2\n      sload\n      dup2\n      0xffffffffffffffff\n      mul\n      not\n      and\n      swap1\n      dup4\n      0xffffffffffffffff\n      and\n      mul\n      or\n      swap1\n      sstore\n      pop\n      0x20\n      dup3\n      add\n      mload\n      dup2\n      0x01\n      add\n      swap1\n      dup2\n      tag_34\n      swap2\n      swap1\n      tag_35\n      jump\t// in\n    tag_34:\n      pop\n      0x40\n      dup3\n      add\n      mload\n      dup2\n      0x02\n      add\n      swap1\n      dup2\n      tag_36\n      swap2\n      swap1\n      tag_35\n      jump\t// in\n    tag_36:\n      pop\n      0x60\n      dup3\n      add\n      mload\n      dup2\n      0x03\n      add\n      swap1\n      dup2\n      tag_37\n      swap2\n      swap1\n      tag_35\n      jump\t// in\n    tag_37:\n      pop\n      0x80\n      dup3\n      add\n      mload\n      dup2\n      0x04\n      add\n      swap1\n      dup2\n      tag_38\n      swap2\n      swap1\n      tag_35\n      jump\t// in\n    tag_38:\n      pop\n      0xa0\n      dup3\n      add\n      mload\n      dup2\n      0x05\n      add\n      swap1\n      dup2\n      tag_39\n      swap2\n      swap1\n      tag_35\n      jump\t// in\n    tag_39:\n      pop\n      0xc0\n      dup3\n      add\n      mload\n      dup2\n      0x06\n      add\n      exp(0x0100, 0x00)\n      dup2\n      sload\n      dup2\n      0xffffffffffffffff\n      mul\n      not\n      and\n      swap1\n      dup4\n      0xffffffffffffffff\n      and\n      mul\n      or\n      swap1\n      sstore\n      pop\n      0xe0\n      dup3\n      add\n      mload\n      dup2\n      0x07\n      add\n      swap1\n      dup2\n      tag_40\n      swap2\n      swap1\n      tag_35\n      jump\t// in\n    tag_40:\n      pop\n      0x0100\n      dup3\n      add\n      mload\n      dup2\n      0x08\n      add\n      exp(0x0100, 0x00)\n      dup2\n      sload\n      dup2\n      0xffffffff\n      mul\n      not\n      and\n      swap1\n      dup4\n      0xffffffff\n      and\n      mul\n      or\n      swap1\n      sstore\n      pop\n      0x0120\n      dup3\n      add\n      mload\n      dup2\n      0x09\n      add\n      swap1\n      dup2\n      tag_41\n      swap2\n      swap1\n      tag_35\n      jump\t// in\n    tag_41:\n      pop\n      0x0140\n      dup3\n      add\n      mload\n      dup2\n      0x0a\n      add\n      swap1\n      dup2\n      tag_42\n      swap2\n      swap1\n      tag_35\n      jump\t// in\n    tag_42:\n      pop\n      0x0160\n      dup3\n      add\n      mload\n      dup2\n      0x0b\n      add\n      swap1\n      dup2\n      tag_43\n      swap2\n      swap1\n      tag_35\n      jump\t// in\n    tag_43:\n      pop\n      pop\n      pop\n        /* \"contracts/manager/Candel/CandleManager.sol\":484:599  function addCandle(CandleRecord memory candle) external override  onlyFactory {... */\n      pop\n      jump\t// out\n        /* \"contracts/manager/Candel/CandleManager.sol\":296:318  address public factory */\n    tag_17:\n      0x01\n      0x00\n      swap1\n      sload\n      swap1\n      0x0100\n      exp\n      swap1\n      div\n      0xffffffffffffffffffffffffffffffffffffffff\n      and\n      dup2\n      jump\t// out\n        /* \"contracts/manager/Candel/CandleManager.sol\":605:728  function getCandles () external override onlyFactory view returns  (CandleRecord [] memory ){... */\n    tag_21:\n        /* \"contracts/manager/Candel/CandleManager.sol\":673:695  CandleRecord [] memory */\n      0x60\n        /* \"contracts/manager/Candel/CandleManager.sol\":380:387  factory */\n      0x01\n      0x00\n      swap1\n      sload\n      swap1\n      0x0100\n      exp\n      swap1\n      div\n      0xffffffffffffffffffffffffffffffffffffffff\n      and\n        /* \"contracts/manager/Candel/CandleManager.sol\":366:387  msg.sender == factory */\n      0xffffffffffffffffffffffffffffffffffffffff\n      and\n        /* \"contracts/manager/Candel/CandleManager.sol\":366:376  msg.sender */\n      caller\n        /* \"contracts/manager/Candel/CandleManager.sol\":366:387  msg.sender == factory */\n      0xffffffffffffffffffffffffffffffffffffffff\n      and\n      eq\n        /* \"contracts/manager/Candel/CandleManager.sol\":358:403  require(msg.sender == factory, \"Not factory\") */\n      tag_45\n      jumpi\n      mload(0x40)\n      0x08c379a000000000000000000000000000000000000000000000000000000000\n      dup2\n      mstore\n      0x04\n      add\n      tag_46\n      swap1\n      tag_31\n      jump\t// in\n    tag_46:\n      mload(0x40)\n      dup1\n      swap2\n      sub\n      swap1\n      revert\n    tag_45:\n        /* \"contracts/manager/Candel/CandleManager.sol\":714:721  candles */\n      0x00\n        /* \"contracts/manager/Candel/CandleManager.sol\":707:721  return candles */\n      dup1\n      sload\n      dup1\n      0x20\n      mul\n      0x20\n      add\n      mload(0x40)\n      swap1\n      dup2\n      add\n      0x40\n      mstore\n      dup1\n      swap3\n      swap2\n      swap1\n      dup2\n      dup2\n      mstore\n      0x20\n      add\n      0x00\n      swap1\n    tag_48:\n      dup3\n      dup3\n      lt\n      iszero\n      tag_49\n      jumpi\n      dup4\n      dup3\n      swap1\n      0x00\n      mstore\n      keccak256(0x00, 0x20)\n      swap1\n      0x0c\n      mul\n      add\n      mload(0x40)\n      dup1\n      0x0180\n      add\n      0x40\n      mstore\n      swap1\n      dup2\n      0x00\n      dup3\n      add\n      0x00\n      swap1\n      sload\n      swap1\n      0x0100\n      exp\n      swap1\n      div\n      0xffffffffffffffff\n      and\n      0xffffffffffffffff\n      and\n      0xffffffffffffffff\n      and\n      dup2\n      mstore\n      0x20\n      add\n      0x01\n      dup3\n      add\n      dup1\n      sload\n      tag_51\n      swap1\n      tag_52\n      jump\t// in\n    tag_51:\n      dup1\n      0x1f\n      add\n      0x20\n      dup1\n      swap2\n      div\n      mul\n      0x20\n      add\n      mload(0x40)\n      swap1\n      dup2\n      add\n      0x40\n      mstore\n      dup1\n      swap3\n      swap2\n      swap1\n      dup2\n      dup2\n      mstore\n      0x20\n      add\n      dup3\n      dup1\n      sload\n      tag_53\n      swap1\n      tag_52\n      jump\t// in\n    tag_53:\n      dup1\n      iszero\n      tag_54\n      jumpi\n      dup1\n      0x1f\n      lt\n      tag_55\n      jumpi\n      0x0100\n      dup1\n      dup4\n      sload\n      div\n      mul\n      dup4\n      mstore\n      swap2\n      0x20\n      add\n      swap2\n      jump(tag_54)\n    tag_55:\n      dup3\n      add\n      swap2\n      swap1\n      0x00\n      mstore\n      keccak256(0x00, 0x20)\n      swap1\n    tag_56:\n      dup2\n      sload\n      dup2\n      mstore\n      swap1\n      0x01\n      add\n      swap1\n      0x20\n      add\n      dup1\n      dup4\n      gt\n      tag_56\n      jumpi\n      dup3\n      swap1\n      sub\n      0x1f\n      and\n      dup3\n      add\n      swap2\n    tag_54:\n      pop\n      pop\n      pop\n      pop\n      pop\n      dup2\n      mstore\n      0x20\n      add\n      0x02\n      dup3\n      add\n      dup1\n      sload\n      tag_57\n      swap1\n      tag_52\n      jump\t// in\n    tag_57:\n      dup1\n      0x1f\n      add\n      0x20\n      dup1\n      swap2\n      div\n      mul\n      0x20\n      add\n      mload(0x40)\n      swap1\n      dup2\n      add\n      0x40\n      mstore\n      dup1\n      swap3\n      swap2\n      swap1\n      dup2\n      dup2\n      mstore\n      0x20\n      add\n      dup3\n      dup1\n      sload\n      tag_58\n      swap1\n      tag_52\n      jump\t// in\n    tag_58:\n      dup1\n      iszero\n      tag_59\n      jumpi\n      dup1\n      0x1f\n      lt\n      tag_60\n      jumpi\n      0x0100\n      dup1\n      dup4\n      sload\n      div\n      mul\n      dup4\n      mstore\n      swap2\n      0x20\n      add\n      swap2\n      jump(tag_59)\n    tag_60:\n      dup3\n      add\n      swap2\n      swap1\n      0x00\n      mstore\n      keccak256(0x00, 0x20)\n      swap1\n    tag_61:\n      dup2\n      sload\n      dup2\n      mstore\n      swap1\n      0x01\n      add\n      swap1\n      0x20\n      add\n      dup1\n      dup4\n      gt\n      tag_61\n      jumpi\n      dup3\n      swap1\n      sub\n      0x1f\n      and\n      dup3\n      add\n      swap2\n    tag_59:\n      pop\n      pop\n      pop\n      pop\n      pop\n      dup2\n      mstore\n      0x20\n      add\n      0x03\n      dup3\n      add\n      dup1\n      sload\n      tag_62\n      swap1\n      tag_52\n      jump\t// in\n    tag_62:\n      dup1\n      0x1f\n      add\n      0x20\n      dup1\n      swap2\n      div\n      mul\n      0x20\n      add\n      mload(0x40)\n      swap1\n      dup2\n      add\n      0x40\n      mstore\n      dup1\n      swap3\n      swap2\n      swap1\n      dup2\n      dup2\n      mstore\n      0x20\n      add\n      dup3\n      dup1\n      sload\n      tag_63\n      swap1\n      tag_52\n      jump\t// in\n    tag_63:\n      dup1\n      iszero\n      tag_64\n      jumpi\n      dup1\n      0x1f\n      lt\n      tag_65\n      jumpi\n      0x0100\n      dup1\n      dup4\n      sload\n      div\n      mul\n      dup4\n      mstore\n      swap2\n      0x20\n      add\n      swap2\n      jump(tag_64)\n    tag_65:\n      dup3\n      add\n      swap2\n      swap1\n      0x00\n      mstore\n      keccak256(0x00, 0x20)\n      swap1\n    tag_66:\n      dup2\n      sload\n      dup2\n      mstore\n      swap1\n      0x01\n      add\n      swap1\n      0x20\n      add\n      dup1\n      dup4\n      gt\n      tag_66\n      jumpi\n      dup3\n      swap1\n      sub\n      0x1f\n      and\n      dup3\n      add\n      swap2\n    tag_64:\n      pop\n      pop\n      pop\n      pop\n      pop\n      dup2\n      mstore\n      0x20\n      add\n      0x04\n      dup3\n      add\n      dup1\n      sload\n      tag_67\n      swap1\n      tag_52\n      jump\t// in\n    tag_67:\n      dup1\n      0x1f\n      add\n      0x20\n      dup1\n      swap2\n      div\n      mul\n      0x20\n      add\n      mload(0x40)\n      swap1\n      dup2\n      add\n      0x40\n      mstore\n      dup1\n      swap3\n      swap2\n      swap1\n      dup2\n      dup2\n      mstore\n      0x20\n      add\n      dup3\n      dup1\n      sload\n      tag_68\n      swap1\n      tag_52\n      jump\t// in\n    tag_68:\n      dup1\n      iszero\n      tag_69\n      jumpi\n      dup1\n      0x1f\n      lt\n      tag_70\n      jumpi\n      0x0100\n      dup1\n      dup4\n      sload\n      div\n      mul\n      dup4\n      mstore\n      swap2\n      0x20\n      add\n      swap2\n      jump(tag_69)\n    tag_70:\n      dup3\n      add\n      swap2\n      swap1\n      0x00\n      mstore\n      keccak256(0x00, 0x20)\n      swap1\n    tag_71:\n      dup2\n      sload\n      dup2\n      mstore\n      swap1\n      0x01\n      add\n      swap1\n      0x20\n      add\n      dup1\n      dup4\n      gt\n      tag_71\n      jumpi\n      dup3\n      swap1\n      sub\n      0x1f\n      and\n      dup3\n      add\n      swap2\n    tag_69:\n      pop\n      pop\n      pop\n      pop\n      pop\n      dup2\n      mstore\n      0x20\n      add\n      0x05\n      dup3\n      add\n      dup1\n      sload\n      tag_72\n      swap1\n      tag_52\n      jump\t// in\n    tag_72:\n      dup1\n      0x1f\n      add\n      0x20\n      dup1\n      swap2\n      div\n      mul\n      0x20\n      add\n      mload(0x40)\n      swap1\n      dup2\n      add\n      0x40\n      mstore\n      dup1\n      swap3\n      swap2\n      swap1\n      dup2\n      dup2\n      mstore\n      0x20\n      add\n      dup3\n      dup1\n      sload\n      tag_73\n      swap1\n      tag_52\n      jump\t// in\n    tag_73:\n      dup1\n      iszero\n      tag_74\n      jumpi\n      dup1\n      0x1f\n      lt\n      tag_75\n      jumpi\n      0x0100\n      dup1\n      dup4\n      sload\n      div\n      mul\n      dup4\n      mstore\n      swap2\n      0x20\n      add\n      swap2\n      jump(tag_74)\n    tag_75:\n      dup3\n      add\n      swap2\n      swap1\n      0x00\n      mstore\n      keccak256(0x00, 0x20)\n      swap1\n    tag_76:\n      dup2\n      sload\n      dup2\n      mstore\n      swap1\n      0x01\n      add\n      swap1\n      0x20\n      add\n      dup1\n      dup4\n      gt\n      tag_76\n      jumpi\n      dup3\n      swap1\n      sub\n      0x1f\n      and\n      dup3\n      add\n      swap2\n    tag_74:\n      pop\n      pop\n      pop\n      pop\n      pop\n      dup2\n      mstore\n      0x20\n      add\n      0x06\n      dup3\n      add\n      0x00\n      swap1\n      sload\n      swap1\n      0x0100\n      exp\n      swap1\n      div\n      0xffffffffffffffff\n      and\n      0xffffffffffffffff\n      and\n      0xffffffffffffffff\n      and\n      dup2\n      mstore\n      0x20\n      add\n      0x07\n      dup3\n      add\n      dup1\n      sload\n      tag_77\n      swap1\n      tag_52\n      jump\t// in\n    tag_77:\n      dup1\n      0x1f\n      add\n      0x20\n      dup1\n      swap2\n      div\n      mul\n      0x20\n      add\n      mload(0x40)\n      swap1\n      dup2\n      add\n      0x40\n      mstore\n      dup1\n      swap3\n      swap2\n      swap1\n      dup2\n      dup2\n      mstore\n      0x20\n      add\n      dup3\n      dup1\n      sload\n      tag_78\n      swap1\n      tag_52\n      jump\t// in\n    tag_78:\n      dup1\n      iszero\n      tag_79\n      jumpi\n      dup1\n      0x1f\n      lt\n      tag_80\n      jumpi\n      0x0100\n      dup1\n      dup4\n      sload\n      div\n      mul\n      dup4\n      mstore\n      swap2\n      0x20\n      add\n      swap2\n      jump(tag_79)\n    tag_80:\n      dup3\n      add\n      swap2\n      swap1\n      0x00\n      mstore\n      keccak256(0x00, 0x20)\n      swap1\n    tag_81:\n      dup2\n      sload\n      dup2\n      mstore\n      swap1\n      0x01\n      add\n      swap1\n      0x20\n      add\n      dup1\n      dup4\n      gt\n      tag_81\n      jumpi\n      dup3\n      swap1\n      sub\n      0x1f\n      and\n      dup3\n      add\n      swap2\n    tag_79:\n      pop\n      pop\n      pop\n      pop\n      pop\n      dup2\n      mstore\n      0x20\n      add\n      0x08\n      dup3\n      add\n      0x00\n      swap1\n      sload\n      swap1\n      0x0100\n      exp\n      swap1\n      div\n      0xffffffff\n      and\n      0xffffffff\n      and\n      0xffffffff\n      and\n      dup2\n      mstore\n      0x20\n      add\n      0x09\n      dup3\n      add\n      dup1\n      sload\n      tag_82\n      swap1\n      tag_52\n      jump\t// in\n    tag_82:\n      dup1\n      0x1f\n      add\n      0x20\n      dup1\n      swap2\n      div\n      mul\n      0x20\n      add\n      mload(0x40)\n      swap1\n      dup2\n      add\n      0x40\n      mstore\n      dup1\n      swap3\n      swap2\n      swap1\n      dup2\n      dup2\n      mstore\n      0x20\n      add\n      dup3\n      dup1\n      sload\n      tag_83\n      swap1\n      tag_52\n      jump\t// in\n    tag_83:\n      dup1\n      iszero\n      tag_84\n      jumpi\n      dup1\n      0x1f\n      lt\n      tag_85\n      jumpi\n      0x0100\n      dup1\n      dup4\n      sload\n      div\n      mul\n      dup4\n      mstore\n      swap2\n      0x20\n      add\n      swap2\n      jump(tag_84)\n    tag_85:\n      dup3\n      add\n      swap2\n      swap1\n      0x00\n      mstore\n      keccak256(0x00, 0x20)\n      swap1\n    tag_86:\n      dup2\n      sload\n      dup2\n      mstore\n      swap1\n      0x01\n      add\n      swap1\n      0x20\n      add\n      dup1\n      dup4\n      gt\n      tag_86\n      jumpi\n      dup3\n      swap1\n      sub\n      0x1f\n      and\n      dup3\n      add\n      swap2\n    tag_84:\n      pop\n      pop\n      pop\n      pop\n      pop\n      dup2\n      mstore\n      0x20\n      add\n      0x0a\n      dup3\n      add\n      dup1\n      sload\n      tag_87\n      swap1\n      tag_52\n      jump\t// in\n    tag_87:\n      dup1\n      0x1f\n      add\n      0x20\n      dup1\n      swap2\n      div\n      mul\n      0x20\n      add\n      mload(0x40)\n      swap1\n      dup2\n      add\n      0x40\n      mstore\n      dup1\n      swap3\n      swap2\n      swap1\n      dup2\n      dup2\n      mstore\n      0x20\n      add\n      dup3\n      dup1\n      sload\n      tag_88\n      swap1\n      tag_52\n      jump\t// in\n    tag_88:\n      dup1\n      iszero\n      tag_89\n      jumpi\n      dup1\n      0x1f\n      lt\n      tag_90\n      jumpi\n      0x0100\n      dup1\n      dup4\n      sload\n      div\n      mul\n      dup4\n      mstore\n      swap2\n      0x20\n      add\n      swap2\n      jump(tag_89)\n    tag_90:\n      dup3\n      add\n      swap2\n      swap1\n      0x00\n      mstore\n      keccak256(0x00, 0x20)\n      swap1\n    tag_91:\n      dup2\n      sload\n      dup2\n      mstore\n      swap1\n      0x01\n      add\n      swap1\n      0x20\n      add\n      dup1\n      dup4\n      gt\n      tag_91\n      jumpi\n      dup3\n      swap1\n      sub\n      0x1f\n      and\n      dup3\n      add\n      swap2\n    tag_89:\n      pop\n      pop\n      pop\n      pop\n      pop\n      dup2\n      mstore\n      0x20\n      add\n      0x0b\n      dup3\n      add\n      dup1\n      sload\n      tag_92\n      swap1\n      tag_52\n      jump\t// in\n    tag_92:\n      dup1\n      0x1f\n      add\n      0x20\n      dup1\n      swap2\n      div\n      mul\n      0x20\n      add\n      mload(0x40)\n      swap1\n      dup2\n      add\n      0x40\n      mstore\n      dup1\n      swap3\n      swap2\n      swap1\n      dup2\n      dup2\n      mstore\n      0x20\n      add\n      dup3\n      dup1\n      sload\n      tag_93\n      swap1\n      tag_52\n      jump\t// in\n    tag_93:\n      dup1\n      iszero\n      tag_94\n      jumpi\n      dup1\n      0x1f\n      lt\n      tag_95\n      jumpi\n      0x0100\n      dup1\n      dup4\n      sload\n      div\n      mul\n      dup4\n      mstore\n      swap2\n      0x20\n      add\n      swap2\n      jump(tag_94)\n    tag_95:\n      dup3\n      add\n      swap2\n      swap1\n      0x00\n      mstore\n      keccak256(0x00, 0x20)\n      swap1\n    tag_96:\n      dup2\n      sload\n      dup2\n      mstore\n      swap1\n      0x01\n      add\n      swap1\n      0x20\n      add\n      dup1\n      dup4\n      gt\n      tag_96\n      jumpi\n      dup3\n      swap1\n      sub\n      0x1f\n      and\n      dup3\n      add\n      swap2\n    tag_94:\n      pop\n      pop\n      pop\n      pop\n      pop\n      dup2\n      mstore\n      pop\n      pop\n      dup2\n      mstore\n      0x20\n      add\n      swap1\n      0x01\n      add\n      swap1\n      jump(tag_48)\n    tag_49:\n      pop\n      pop\n      pop\n      pop\n      swap1\n      pop\n        /* \"contracts/manager/Candel/CandleManager.sol\":605:728  function getCandles () external override onlyFactory view returns  (CandleRecord [] memory ){... */\n      swap1\n      jump\t// out\n        /* \"contracts/manager/Candel/CandleManager.sol\":733:858  function getAllCandles() external override   view onlyFactory returns (CandleRecord[] memory) {... */\n    tag_25:\n        /* \"contracts/manager/Candel/CandleManager.sol\":804:825  CandleRecord[] memory */\n      0x60\n        /* \"contracts/manager/Candel/CandleManager.sol\":380:387  factory */\n      0x01\n      0x00\n      swap1\n      sload\n      swap1\n      0x0100\n      exp\n      swap1\n      div\n      0xffffffffffffffffffffffffffffffffffffffff\n      and\n        /* \"contracts/manager/Candel/CandleManager.sol\":366:387  msg.sender == factory */\n      0xffffffffffffffffffffffffffffffffffffffff\n      and\n        /* \"contracts/manager/Candel/CandleManager.sol\":366:376  msg.sender */\n      caller\n        /* \"contracts/manager/Candel/CandleManager.sol\":366:387  msg.sender == factory */\n      0xffffffffffffffffffffffffffffffffffffffff\n      and\n      eq\n        /* \"contracts/manager/Candel/CandleManager.sol\":358:403  require(msg.sender == factory, \"Not factory\") */\n      tag_98\n      jumpi\n      mload(0x40)\n      0x08c379a000000000000000000000000000000000000000000000000000000000\n      dup2\n      mstore\n      0x04\n      add\n      tag_99\n      swap1\n      tag_31\n      jump\t// in\n    tag_99:\n      mload(0x40)\n      dup1\n      swap2\n      sub\n      swap1\n      revert\n    tag_98:\n        /* \"contracts/manager/Candel/CandleManager.sol\":844:851  candles */\n      0x00\n        /* \"contracts/manager/Candel/CandleManager.sol\":837:851  return candles */\n      dup1\n      sload\n      dup1\n      0x20\n      mul\n      0x20\n      add\n      mload(0x40)\n      swap1\n      dup2\n      add\n      0x40\n      mstore\n      dup1\n      swap3\n      swap2\n      swap1\n      dup2\n      dup2\n      mstore\n      0x20\n      add\n      0x00\n      swap1\n    tag_101:\n      dup3\n      dup3\n      lt\n      iszero\n      tag_102\n      jumpi\n      dup4\n      dup3\n      swap1\n      0x00\n      mstore\n      keccak256(0x00, 0x20)\n      swap1\n      0x0c\n      mul\n      add\n      mload(0x40)\n      dup1\n      0x0180\n      add\n      0x40\n      mstore\n      swap1\n      dup2\n      0x00\n      dup3\n      add\n      0x00\n      swap1\n      sload\n      swap1\n      0x0100\n      exp\n      swap1\n      div\n      0xffffffffffffffff\n      and\n      0xffffffffffffffff\n      and\n      0xffffffffffffffff\n      and\n      dup2\n      mstore\n      0x20\n      add\n      0x01\n      dup3\n      add\n      dup1\n      sload\n      tag_104\n      swap1\n      tag_52\n      jump\t// in\n    tag_104:\n      dup1\n      0x1f\n      add\n      0x20\n      dup1\n      swap2\n      div\n      mul\n      0x20\n      add\n      mload(0x40)\n      swap1\n      dup2\n      add\n      0x40\n      mstore\n      dup1\n      swap3\n      swap2\n      swap1\n      dup2\n      dup2\n      mstore\n      0x20\n      add\n      dup3\n      dup1\n      sload\n      tag_105\n      swap1\n      tag_52\n      jump\t// in\n    tag_105:\n      dup1\n      iszero\n      tag_106\n      jumpi\n      dup1\n      0x1f\n      lt\n      tag_107\n      jumpi\n      0x0100\n      dup1\n      dup4\n      sload\n      div\n      mul\n      dup4\n      mstore\n      swap2\n      0x20\n      add\n      swap2\n      jump(tag_106)\n    tag_107:\n      dup3\n      add\n      swap2\n      swap1\n      0x00\n      mstore\n      keccak256(0x00, 0x20)\n      swap1\n    tag_108:\n      dup2\n      sload\n      dup2\n      mstore\n      swap1\n      0x01\n      add\n      swap1\n      0x20\n      add\n      dup1\n      dup4\n      gt\n      tag_108\n      jumpi\n      dup3\n      swap1\n      sub\n      0x1f\n      and\n      dup3\n      add\n      swap2\n    tag_106:\n      pop\n      pop\n      pop\n      pop\n      pop\n      dup2\n      mstore\n      0x20\n      add\n      0x02\n      dup3\n      add\n      dup1\n      sload\n      tag_109\n      swap1\n      tag_52\n      jump\t// in\n    tag_109:\n      dup1\n      0x1f\n      add\n      0x20\n      dup1\n      swap2\n      div\n      mul\n      0x20\n      add\n      mload(0x40)\n      swap1\n      dup2\n      add\n      0x40\n      mstore\n      dup1\n      swap3\n      swap2\n      swap1\n      dup2\n      dup2\n      mstore\n      0x20\n      add\n      dup3\n      dup1\n      sload\n      tag_110\n      swap1\n      tag_52\n      jump\t// in\n    tag_110:\n      dup1\n      iszero\n      tag_111\n      jumpi\n      dup1\n      0x1f\n      lt\n      tag_112\n      jumpi\n      0x0100\n      dup1\n      dup4\n      sload\n      div\n      mul\n      dup4\n      mstore\n      swap2\n      0x20\n      add\n      swap2\n      jump(tag_111)\n    tag_112:\n      dup3\n      add\n      swap2\n      swap1\n      0x00\n      mstore\n      keccak256(0x00, 0x20)\n      swap1\n    tag_113:\n      dup2\n      sload\n      dup2\n      mstore\n      swap1\n      0x01\n      add\n      swap1\n      0x20\n      add\n      dup1\n      dup4\n      gt\n      tag_113\n      jumpi\n      dup3\n      swap1\n      sub\n      0x1f\n      and\n      dup3\n      add\n      swap2\n    tag_111:\n      pop\n      pop\n      pop\n      pop\n      pop\n      dup2\n      mstore\n      0x20\n      add\n      0x03\n      dup3\n      add\n      dup1\n      sload\n      tag_114\n      swap1\n      tag_52\n      jump\t// in\n    tag_114:\n      dup1\n      0x1f\n      add\n      0x20\n      dup1\n      swap2\n      div\n      mul\n      0x20\n      add\n      mload(0x40)\n      swap1\n      dup2\n      add\n      0x40\n      mstore\n      dup1\n      swap3\n      swap2\n      swap1\n      dup2\n      dup2\n      mstore\n      0x20\n      add\n      dup3\n      dup1\n      sload\n      tag_115\n      swap1\n      tag_52\n      jump\t// in\n    tag_115:\n      dup1\n      iszero\n      tag_116\n      jumpi\n      dup1\n      0x1f\n      lt\n      tag_117\n      jumpi\n      0x0100\n      dup1\n      dup4\n      sload\n      div\n      mul\n      dup4\n      mstore\n      swap2\n      0x20\n      add\n      swap2\n      jump(tag_116)\n    tag_117:\n      dup3\n      add\n      swap2\n      swap1\n      0x00\n      mstore\n      keccak256(0x00, 0x20)\n      swap1\n    tag_118:\n      dup2\n      sload\n      dup2\n      mstore\n      swap1\n      0x01\n      add\n      swap1\n      0x20\n      add\n      dup1\n      dup4\n      gt\n      tag_118\n      jumpi\n      dup3\n      swap1\n      sub\n      0x1f\n      and\n      dup3\n      add\n      swap2\n    tag_116:\n      pop\n      pop\n      pop\n      pop\n      pop\n      dup2\n      mstore\n      0x20\n      add\n      0x04\n      dup3\n      add\n      dup1\n      sload\n      tag_119\n      swap1\n      tag_52\n      jump\t// in\n    tag_119:\n      dup1\n      0x1f\n      add\n      0x20\n      dup1\n      swap2\n      div\n      mul\n      0x20\n      add\n      mload(0x40)\n      swap1\n      dup2\n      add\n      0x40\n      mstore\n      dup1\n      swap3\n      swap2\n      swap1\n      dup2\n      dup2\n      mstore\n      0x20\n      add\n      dup3\n      dup1\n      sload\n      tag_120\n      swap1\n      tag_52\n      jump\t// in\n    tag_120:\n      dup1\n      iszero\n      tag_121\n      jumpi\n      dup1\n      0x1f\n      lt\n      tag_122\n      jumpi\n      0x0100\n      dup1\n      dup4\n      sload\n      div\n      mul\n      dup4\n      mstore\n      swap2\n      0x20\n      add\n      swap2\n      jump(tag_121)\n    tag_122:\n      dup3\n      add\n      swap2\n      swap1\n      0x00\n      mstore\n      keccak256(0x00, 0x20)\n      swap1\n    tag_123:\n      dup2\n      sload\n      dup2\n      mstore\n      swap1\n      0x01\n      add\n      swap1\n      0x20\n      add\n      dup1\n      dup4\n      gt\n      tag_123\n      jumpi\n      dup3\n      swap1\n      sub\n      0x1f\n      and\n      dup3\n      add\n      swap2\n    tag_121:\n      pop\n      pop\n      pop\n      pop\n      pop\n      dup2\n      mstore\n      0x20\n      add\n      0x05\n      dup3\n      add\n      dup1\n      sload\n      tag_124\n      swap1\n      tag_52\n      jump\t// in\n    tag_124:\n      dup1\n      0x1f\n      add\n      0x20\n      dup1\n      swap2\n      div\n      mul\n      0x20\n      add\n      mload(0x40)\n      swap1\n      dup2\n      add\n      0x40\n      mstore\n      dup1\n      swap3\n      swap2\n      swap1\n      dup2\n      dup2\n      mstore\n      0x20\n      add\n      dup3\n      dup1\n      sload\n      tag_125\n      swap1\n      tag_52\n      jump\t// in\n    tag_125:\n      dup1\n      iszero\n      tag_126\n      jumpi\n      dup1\n      0x1f\n      lt\n      tag_127\n      jumpi\n      0x0100\n      dup1\n      dup4\n      sload\n      div\n      mul\n      dup4\n      mstore\n      swap2\n      0x20\n      add\n      swap2\n      jump(tag_126)\n    tag_127:\n      dup3\n      add\n      swap2\n      swap1\n      0x00\n      mstore\n      keccak256(0x00, 0x20)\n      swap1\n    tag_128:\n      dup2\n      sload\n      dup2\n      mstore\n      swap1\n      0x01\n      add\n      swap1\n      0x20\n      add\n      dup1\n      dup4\n      gt\n      tag_128\n      jumpi\n      dup3\n      swap1\n      sub\n      0x1f\n      and\n      dup3\n      add\n      swap2\n    tag_126:\n      pop\n      pop\n      pop\n      pop\n      pop\n      dup2\n      mstore\n      0x20\n      add\n      0x06\n      dup3\n      add\n      0x00\n      swap1\n      sload\n      swap1\n      0x0100\n      exp\n      swap1\n      div\n      0xffffffffffffffff\n      and\n      0xffffffffffffffff\n      and\n      0xffffffffffffffff\n      and\n      dup2\n      mstore\n      0x20\n      add\n      0x07\n      dup3\n      add\n      dup1\n      sload\n      tag_129\n      swap1\n      tag_52\n      jump\t// in\n    tag_129:\n      dup1\n      0x1f\n      add\n      0x20\n      dup1\n      swap2\n      div\n      mul\n      0x20\n      add\n      mload(0x40)\n      swap1\n      dup2\n      add\n      0x40\n      mstore\n      dup1\n      swap3\n      swap2\n      swap1\n      dup2\n      dup2\n      mstore\n      0x20\n      add\n      dup3\n      dup1\n      sload\n      tag_130\n      swap1\n      tag_52\n      jump\t// in\n    tag_130:\n      dup1\n      iszero\n      tag_131\n      jumpi\n      dup1\n      0x1f\n      lt\n      tag_132\n      jumpi\n      0x0100\n      dup1\n      dup4\n      sload\n      div\n      mul\n      dup4\n      mstore\n      swap2\n      0x20\n      add\n      swap2\n      jump(tag_131)\n    tag_132:\n      dup3\n      add\n      swap2\n      swap1\n      0x00\n      mstore\n      keccak256(0x00, 0x20)\n      swap1\n    tag_133:\n      dup2\n      sload\n      dup2\n      mstore\n      swap1\n      0x01\n      add\n      swap1\n      0x20\n      add\n      dup1\n      dup4\n      gt\n      tag_133\n      jumpi\n      dup3\n      swap1\n      sub\n      0x1f\n      and\n      dup3\n      add\n      swap2\n    tag_131:\n      pop\n      pop\n      pop\n      pop\n      pop\n      dup2\n      mstore\n      0x20\n      add\n      0x08\n      dup3\n      add\n      0x00\n      swap1\n      sload\n      swap1\n      0x0100\n      exp\n      swap1\n      div\n      0xffffffff\n      and\n      0xffffffff\n      and\n      0xffffffff\n      and\n      dup2\n      mstore\n      0x20\n      add\n      0x09\n      dup3\n      add\n      dup1\n      sload\n      tag_134\n      swap1\n      tag_52\n      jump\t// in\n    tag_134:\n      dup1\n      0x1f\n      add\n      0x20\n      dup1\n      swap2\n      div\n      mul\n      0x20\n      add\n      mload(0x40)\n      swap1\n      dup2\n      add\n      0x40\n      mstore\n      dup1\n      swap3\n      swap2\n      swap1\n      dup2\n      dup2\n      mstore\n      0x20\n      add\n      dup3\n      dup1\n      sload\n      tag_135\n      swap1\n      tag_52\n      jump\t// in\n    tag_135:\n      dup1\n      iszero\n      tag_136\n      jumpi\n      dup1\n      0x1f\n      lt\n      tag_137\n      jumpi\n      0x0100\n      dup1\n      dup4\n      sload\n      div\n      mul\n      dup4\n      mstore\n      swap2\n      0x20\n      add\n      swap2\n      jump(tag_136)\n    tag_137:\n      dup3\n      add\n      swap2\n      swap1\n      0x00\n      mstore\n      keccak256(0x00, 0x20)\n      swap1\n    tag_138:\n      dup2\n      sload\n      dup2\n      mstore\n      swap1\n      0x01\n      add\n      swap1\n      0x20\n      add\n      dup1\n      dup4\n      gt\n      tag_138\n      jumpi\n      dup3\n      swap1\n      sub\n      0x1f\n      and\n      dup3\n      add\n      swap2\n    tag_136:\n      pop\n      pop\n      pop\n      pop\n      pop\n      dup2\n      mstore\n      0x20\n      add\n      0x0a\n      dup3\n      add\n      dup1\n      sload\n      tag_139\n      swap1\n      tag_52\n      jump\t// in\n    tag_139:\n      dup1\n      0x1f\n      add\n      0x20\n      dup1\n      swap2\n      div\n      mul\n      0x20\n      add\n      mload(0x40)\n      swap1\n      dup2\n      add\n      0x40\n      mstore\n      dup1\n      swap3\n      swap2\n      swap1\n      dup2\n      dup2\n      mstore\n      0x20\n      add\n      dup3\n      dup1\n      sload\n      tag_140\n      swap1\n      tag_52\n      jump\t// in\n    tag_140:\n      dup1\n      iszero\n      tag_141\n      jumpi\n      dup1\n      0x1f\n      lt\n      tag_142\n      jumpi\n      0x0100\n      dup1\n      dup4\n      sload\n      div\n      mul\n      dup4\n      mstore\n      swap2\n      0x20\n      add\n      swap2\n      jump(tag_141)\n    tag_142:\n      dup3\n      add\n      swap2\n      swap1\n      0x00\n      mstore\n      keccak256(0x00, 0x20)\n      swap1\n    tag_143:\n      dup2\n      sload\n      dup2\n      mstore\n      swap1\n      0x01\n      add\n      swap1\n      0x20\n      add\n      dup1\n      dup4\n      gt\n      tag_143\n      jumpi\n      dup3\n      swap1\n      sub\n      0x1f\n      and\n      dup3\n      add\n      swap2\n    tag_141:\n      pop\n      pop\n      pop\n      pop\n      pop\n      dup2\n      mstore\n      0x20\n      add\n      0x0b\n      dup3\n      add\n      dup1\n      sload\n      tag_144\n      swap1\n      tag_52\n      jump\t// in\n    tag_144:\n      dup1\n      0x1f\n      add\n      0x20\n      dup1\n      swap2\n      div\n      mul\n      0x20\n      add\n      mload(0x40)\n      swap1\n      dup2\n      add\n      0x40\n      mstore\n      dup1\n      swap3\n      swap2\n      swap1\n      dup2\n      dup2\n      mstore\n      0x20\n      add\n      dup3\n      dup1\n      sload\n      tag_145\n      swap1\n      tag_52\n      jump\t// in\n    tag_145:\n      dup1\n      iszero\n      tag_146\n      jumpi\n      dup1\n      0x1f\n      lt\n      tag_147\n      jumpi\n      0x0100\n      dup1\n      dup4\n      sload\n      div\n      mul\n      dup4\n      mstore\n      swap2\n      0x20\n      add\n      swap2\n      jump(tag_146)\n    tag_147:\n      dup3\n      add\n      swap2\n      swap1\n      0x00\n      mstore\n      keccak256(0x00, 0x20)\n      swap1\n    tag_148:\n      dup2\n      sload\n      dup2\n      mstore\n      swap1\n      0x01\n      add\n      swap1\n      0x20\n      add\n      dup1\n      dup4\n      gt\n      tag_148\n      jumpi\n      dup3\n      swap1\n      sub\n      0x1f\n      and\n      dup3\n      add\n      swap2\n    tag_146:\n      pop\n      pop\n      pop\n      pop\n      pop\n      dup2\n      mstore\n      pop\n      pop\n      dup2\n      mstore\n      0x20\n      add\n      swap1\n      0x01\n      add\n      swap1\n      jump(tag_101)\n    tag_102:\n      pop\n      pop\n      pop\n      pop\n      swap1\n      pop\n        /* \"contracts/manager/Candel/CandleManager.sol\":733:858  function getAllCandles() external override   view onlyFactory returns (CandleRecord[] memory) {... */\n      swap1\n      jump\t// out\n        /* \"#utility.yul\":7:84   */\n    tag_149:\n        /* \"#utility.yul\":44:51   */\n      0x00\n        /* \"#utility.yul\":73:78   */\n      dup2\n        /* \"#utility.yul\":62:78   */\n      swap1\n      pop\n        /* \"#utility.yul\":7:84   */\n      swap2\n      swap1\n      pop\n      jump\t// out\n        /* \"#utility.yul\":90:208   */\n    tag_150:\n        /* \"#utility.yul\":177:201   */\n      tag_211\n        /* \"#utility.yul\":195:200   */\n      dup2\n        /* \"#utility.yul\":177:201   */\n      tag_149\n      jump\t// in\n    tag_211:\n        /* \"#utility.yul\":172:175   */\n      dup3\n        /* \"#utility.yul\":165:202   */\n      mstore\n        /* \"#utility.yul\":90:208   */\n      pop\n      pop\n      jump\t// out\n        /* \"#utility.yul\":214:436   */\n    tag_11:\n        /* \"#utility.yul\":307:311   */\n      0x00\n        /* \"#utility.yul\":345:347   */\n      0x20\n        /* \"#utility.yul\":334:343   */\n      dup3\n        /* \"#utility.yul\":330:348   */\n      add\n        /* \"#utility.yul\":322:348   */\n      swap1\n      pop\n        /* \"#utility.yul\":358:429   */\n      tag_213\n        /* \"#utility.yul\":426:427   */\n      0x00\n        /* \"#utility.yul\":415:424   */\n      dup4\n        /* \"#utility.yul\":411:428   */\n      add\n        /* \"#utility.yul\":402:408   */\n      dup5\n        /* \"#utility.yul\":358:429   */\n      tag_150\n      jump\t// in\n    tag_213:\n        /* \"#utility.yul\":214:436   */\n      swap3\n      swap2\n      pop\n      pop\n      jump\t// out\n        /* \"#utility.yul\":442:517   */\n    tag_151:\n        /* \"#utility.yul\":475:481   */\n      0x00\n        /* \"#utility.yul\":508:510   */\n      0x40\n        /* \"#utility.yul\":502:511   */\n      mload\n        /* \"#utility.yul\":492:511   */\n      swap1\n      pop\n        /* \"#utility.yul\":442:517   */\n      swap1\n      jump\t// out\n        /* \"#utility.yul\":523:640   */\n    tag_152:\n        /* \"#utility.yul\":632:633   */\n      0x00\n        /* \"#utility.yul\":629:630   */\n      0x00\n        /* \"#utility.yul\":622:634   */\n      revert\n        /* \"#utility.yul\":646:763   */\n    tag_153:\n        /* \"#utility.yul\":755:756   */\n      0x00\n        /* \"#utility.yul\":752:753   */\n      0x00\n        /* \"#utility.yul\":745:757   */\n      revert\n        /* \"#utility.yul\":769:886   */\n    tag_154:\n        /* \"#utility.yul\":878:879   */\n      0x00\n        /* \"#utility.yul\":875:876   */\n      0x00\n        /* \"#utility.yul\":868:880   */\n      revert\n        /* \"#utility.yul\":892:994   */\n    tag_155:\n        /* \"#utility.yul\":933:939   */\n      0x00\n        /* \"#utility.yul\":984:986   */\n      0x1f\n        /* \"#utility.yul\":980:987   */\n      not\n        /* \"#utility.yul\":975:977   */\n      0x1f\n        /* \"#utility.yul\":968:973   */\n      dup4\n        /* \"#utility.yul\":964:978   */\n      add\n        /* \"#utility.yul\":960:988   */\n      and\n        /* \"#utility.yul\":950:988   */\n      swap1\n      pop\n        /* \"#utility.yul\":892:994   */\n      swap2\n      swap1\n      pop\n      jump\t// out\n        /* \"#utility.yul\":1000:1180   */\n    tag_156:\n        /* \"#utility.yul\":1048:1125   */\n      0x4e487b7100000000000000000000000000000000000000000000000000000000\n        /* \"#utility.yul\":1045:1046   */\n      0x00\n        /* \"#utility.yul\":1038:1126   */\n      mstore\n        /* \"#utility.yul\":1145:1149   */\n      0x41\n        /* \"#utility.yul\":1142:1143   */\n      0x04\n        /* \"#utility.yul\":1135:1150   */\n      mstore\n        /* \"#utility.yul\":1169:1173   */\n      0x24\n        /* \"#utility.yul\":1166:1167   */\n      0x00\n        /* \"#utility.yul\":1159:1174   */\n      revert\n        /* \"#utility.yul\":1186:1467   */\n    tag_157:\n        /* \"#utility.yul\":1269:1296   */\n      tag_221\n        /* \"#utility.yul\":1291:1295   */\n      dup3\n        /* \"#utility.yul\":1269:1296   */\n      tag_155\n      jump\t// in\n    tag_221:\n        /* \"#utility.yul\":1261:1267   */\n      dup2\n        /* \"#utility.yul\":1257:1297   */\n      add\n        /* \"#utility.yul\":1399:1405   */\n      dup2\n        /* \"#utility.yul\":1387:1397   */\n      dup2\n        /* \"#utility.yul\":1384:1406   */\n      lt\n        /* \"#utility.yul\":1363:1381   */\n      0xffffffffffffffff\n        /* \"#utility.yul\":1351:1361   */\n      dup3\n        /* \"#utility.yul\":1348:1382   */\n      gt\n        /* \"#utility.yul\":1345:1407   */\n      or\n        /* \"#utility.yul\":1342:1430   */\n      iszero\n      tag_222\n      jumpi\n        /* \"#utility.yul\":1410:1428   */\n      tag_223\n      tag_156\n      jump\t// in\n    tag_223:\n        /* \"#utility.yul\":1342:1430   */\n    tag_222:\n        /* \"#utility.yul\":1450:1460   */\n      dup1\n        /* \"#utility.yul\":1446:1448   */\n      0x40\n        /* \"#utility.yul\":1439:1461   */\n      mstore\n        /* \"#utility.yul\":1229:1467   */\n      pop\n        /* \"#utility.yul\":1186:1467   */\n      pop\n      pop\n      jump\t// out\n        /* \"#utility.yul\":1473:1602   */\n    tag_158:\n        /* \"#utility.yul\":1507:1513   */\n      0x00\n        /* \"#utility.yul\":1534:1554   */\n      tag_225\n      tag_151\n      jump\t// in\n    tag_225:\n        /* \"#utility.yul\":1524:1554   */\n      swap1\n      pop\n        /* \"#utility.yul\":1563:1596   */\n      tag_226\n        /* \"#utility.yul\":1591:1595   */\n      dup3\n        /* \"#utility.yul\":1583:1589   */\n      dup3\n        /* \"#utility.yul\":1563:1596   */\n      tag_157\n      jump\t// in\n    tag_226:\n        /* \"#utility.yul\":1473:1602   */\n      swap2\n      swap1\n      pop\n      jump\t// out\n        /* \"#utility.yul\":1608:1725   */\n    tag_159:\n        /* \"#utility.yul\":1717:1718   */\n      0x00\n        /* \"#utility.yul\":1714:1715   */\n      0x00\n        /* \"#utility.yul\":1707:1719   */\n      revert\n        /* \"#utility.yul\":1731:1832   */\n    tag_160:\n        /* \"#utility.yul\":1767:1774   */\n      0x00\n        /* \"#utility.yul\":1807:1825   */\n      0xffffffffffffffff\n        /* \"#utility.yul\":1800:1805   */\n      dup3\n        /* \"#utility.yul\":1796:1826   */\n      and\n        /* \"#utility.yul\":1785:1826   */\n      swap1\n      pop\n        /* \"#utility.yul\":1731:1832   */\n      swap2\n      swap1\n      pop\n      jump\t// out\n        /* \"#utility.yul\":1838:1958   */\n    tag_161:\n        /* \"#utility.yul\":1910:1933   */\n      tag_230\n        /* \"#utility.yul\":1927:1932   */\n      dup2\n        /* \"#utility.yul\":1910:1933   */\n      tag_160\n      jump\t// in\n    tag_230:\n        /* \"#utility.yul\":1903:1908   */\n      dup2\n        /* \"#utility.yul\":1900:1934   */\n      eq\n        /* \"#utility.yul\":1890:1952   */\n      tag_231\n      jumpi\n        /* \"#utility.yul\":1948:1949   */\n      0x00\n        /* \"#utility.yul\":1945:1946   */\n      0x00\n        /* \"#utility.yul\":1938:1950   */\n      revert\n        /* \"#utility.yul\":1890:1952   */\n    tag_231:\n        /* \"#utility.yul\":1838:1958   */\n      pop\n      jump\t// out\n        /* \"#utility.yul\":1964:2101   */\n    tag_162:\n        /* \"#utility.yul\":2009:2014   */\n      0x00\n        /* \"#utility.yul\":2047:2053   */\n      dup2\n        /* \"#utility.yul\":2034:2054   */\n      calldataload\n        /* \"#utility.yul\":2025:2054   */\n      swap1\n      pop\n        /* \"#utility.yul\":2063:2095   */\n      tag_233\n        /* \"#utility.yul\":2089:2094   */\n      dup2\n        /* \"#utility.yul\":2063:2095   */\n      tag_161\n      jump\t// in\n    tag_233:\n        /* \"#utility.yul\":1964:2101   */\n      swap3\n      swap2\n      pop\n      pop\n      jump\t// out\n        /* \"#utility.yul\":2107:2224   */\n    tag_163:\n        /* \"#utility.yul\":2216:2217   */\n      0x00\n        /* \"#utility.yul\":2213:2214   */\n      0x00\n        /* \"#utility.yul\":2206:2218   */\n      revert\n        /* \"#utility.yul\":2230:2347   */\n    tag_164:\n        /* \"#utility.yul\":2339:2340   */\n      0x00\n        /* \"#utility.yul\":2336:2337   */\n      0x00\n        /* \"#utility.yul\":2329:2341   */\n      revert\n        /* \"#utility.yul\":2353:2661   */\n    tag_165:\n        /* \"#utility.yul\":2415:2419   */\n      0x00\n        /* \"#utility.yul\":2505:2523   */\n      0xffffffffffffffff\n        /* \"#utility.yul\":2497:2503   */\n      dup3\n        /* \"#utility.yul\":2494:2524   */\n      gt\n        /* \"#utility.yul\":2491:2547   */\n      iszero\n      tag_237\n      jumpi\n        /* \"#utility.yul\":2527:2545   */\n      tag_238\n      tag_156\n      jump\t// in\n    tag_238:\n        /* \"#utility.yul\":2491:2547   */\n    tag_237:\n        /* \"#utility.yul\":2565:2594   */\n      tag_239\n        /* \"#utility.yul\":2587:2593   */\n      dup3\n        /* \"#utility.yul\":2565:2594   */\n      tag_155\n      jump\t// in\n    tag_239:\n        /* \"#utility.yul\":2557:2594   */\n      swap1\n      pop\n        /* \"#utility.yul\":2649:2653   */\n      0x20\n        /* \"#utility.yul\":2643:2647   */\n      dup2\n        /* \"#utility.yul\":2639:2654   */\n      add\n        /* \"#utility.yul\":2631:2654   */\n      swap1\n      pop\n        /* \"#utility.yul\":2353:2661   */\n      swap2\n      swap1\n      pop\n      jump\t// out\n        /* \"#utility.yul\":2667:2815   */\n    tag_166:\n        /* \"#utility.yul\":2765:2771   */\n      dup3\n        /* \"#utility.yul\":2760:2763   */\n      dup2\n        /* \"#utility.yul\":2755:2758   */\n      dup4\n        /* \"#utility.yul\":2742:2772   */\n      calldatacopy\n        /* \"#utility.yul\":2806:2807   */\n      0x00\n        /* \"#utility.yul\":2797:2803   */\n      dup4\n        /* \"#utility.yul\":2792:2795   */\n      dup4\n        /* \"#utility.yul\":2788:2804   */\n      add\n        /* \"#utility.yul\":2781:2808   */\n      mstore\n        /* \"#utility.yul\":2667:2815   */\n      pop\n      pop\n      pop\n      jump\t// out\n        /* \"#utility.yul\":2821:3246   */\n    tag_167:\n        /* \"#utility.yul\":2899:2904   */\n      0x00\n        /* \"#utility.yul\":2924:2990   */\n      tag_242\n        /* \"#utility.yul\":2940:2989   */\n      tag_243\n        /* \"#utility.yul\":2982:2988   */\n      dup5\n        /* \"#utility.yul\":2940:2989   */\n      tag_165\n      jump\t// in\n    tag_243:\n        /* \"#utility.yul\":2924:2990   */\n      tag_158\n      jump\t// in\n    tag_242:\n        /* \"#utility.yul\":2915:2990   */\n      swap1\n      pop\n        /* \"#utility.yul\":3013:3019   */\n      dup3\n        /* \"#utility.yul\":3006:3011   */\n      dup2\n        /* \"#utility.yul\":2999:3020   */\n      mstore\n        /* \"#utility.yul\":3051:3055   */\n      0x20\n        /* \"#utility.yul\":3044:3049   */\n      dup2\n        /* \"#utility.yul\":3040:3056   */\n      add\n        /* \"#utility.yul\":3089:3092   */\n      dup5\n        /* \"#utility.yul\":3080:3086   */\n      dup5\n        /* \"#utility.yul\":3075:3078   */\n      dup5\n        /* \"#utility.yul\":3071:3087   */\n      add\n        /* \"#utility.yul\":3068:3093   */\n      gt\n        /* \"#utility.yul\":3065:3177   */\n      iszero\n      tag_244\n      jumpi\n        /* \"#utility.yul\":3096:3175   */\n      tag_245\n      tag_164\n      jump\t// in\n    tag_245:\n        /* \"#utility.yul\":3065:3177   */\n    tag_244:\n        /* \"#utility.yul\":3186:3240   */\n      tag_246\n        /* \"#utility.yul\":3233:3239   */\n      dup5\n        /* \"#utility.yul\":3228:3231   */\n      dup3\n        /* \"#utility.yul\":3223:3226   */\n      dup6\n        /* \"#utility.yul\":3186:3240   */\n      tag_166\n      jump\t// in\n    tag_246:\n        /* \"#utility.yul\":2905:3246   */\n      pop\n        /* \"#utility.yul\":2821:3246   */\n      swap4\n      swap3\n      pop\n      pop\n      pop\n      jump\t// out\n        /* \"#utility.yul\":3266:3606   */\n    tag_168:\n        /* \"#utility.yul\":3322:3327   */\n      0x00\n        /* \"#utility.yul\":3371:3374   */\n      dup3\n        /* \"#utility.yul\":3364:3368   */\n      0x1f\n        /* \"#utility.yul\":3356:3362   */\n      dup4\n        /* \"#utility.yul\":3352:3369   */\n      add\n        /* \"#utility.yul\":3348:3375   */\n      slt\n        /* \"#utility.yul\":3338:3460   */\n      tag_248\n      jumpi\n        /* \"#utility.yul\":3379:3458   */\n      tag_249\n      tag_163\n      jump\t// in\n    tag_249:\n        /* \"#utility.yul\":3338:3460   */\n    tag_248:\n        /* \"#utility.yul\":3496:3502   */\n      dup2\n        /* \"#utility.yul\":3483:3503   */\n      calldataload\n        /* \"#utility.yul\":3521:3600   */\n      tag_250\n        /* \"#utility.yul\":3596:3599   */\n      dup5\n        /* \"#utility.yul\":3588:3594   */\n      dup3\n        /* \"#utility.yul\":3581:3585   */\n      0x20\n        /* \"#utility.yul\":3573:3579   */\n      dup7\n        /* \"#utility.yul\":3569:3586   */\n      add\n        /* \"#utility.yul\":3521:3600   */\n      tag_167\n      jump\t// in\n    tag_250:\n        /* \"#utility.yul\":3512:3600   */\n      swap2\n      pop\n        /* \"#utility.yul\":3328:3606   */\n      pop\n        /* \"#utility.yul\":3266:3606   */\n      swap3\n      swap2\n      pop\n      pop\n      jump\t// out\n        /* \"#utility.yul\":3612:3705   */\n    tag_169:\n        /* \"#utility.yul\":3648:3655   */\n      0x00\n        /* \"#utility.yul\":3688:3698   */\n      0xffffffff\n        /* \"#utility.yul\":3681:3686   */\n      dup3\n        /* \"#utility.yul\":3677:3699   */\n      and\n        /* \"#utility.yul\":3666:3699   */\n      swap1\n      pop\n        /* \"#utility.yul\":3612:3705   */\n      swap2\n      swap1\n      pop\n      jump\t// out\n        /* \"#utility.yul\":3711:3831   */\n    tag_170:\n        /* \"#utility.yul\":3783:3806   */\n      tag_253\n        /* \"#utility.yul\":3800:3805   */\n      dup2\n        /* \"#utility.yul\":3783:3806   */\n      tag_169\n      jump\t// in\n    tag_253:\n        /* \"#utility.yul\":3776:3781   */\n      dup2\n        /* \"#utility.yul\":3773:3807   */\n      eq\n        /* \"#utility.yul\":3763:3825   */\n      tag_254\n      jumpi\n        /* \"#utility.yul\":3821:3822   */\n      0x00\n        /* \"#utility.yul\":3818:3819   */\n      0x00\n        /* \"#utility.yul\":3811:3823   */\n      revert\n        /* \"#utility.yul\":3763:3825   */\n    tag_254:\n        /* \"#utility.yul\":3711:3831   */\n      pop\n      jump\t// out\n        /* \"#utility.yul\":3837:3974   */\n    tag_171:\n        /* \"#utility.yul\":3882:3887   */\n      0x00\n        /* \"#utility.yul\":3920:3926   */\n      dup2\n        /* \"#utility.yul\":3907:3927   */\n      calldataload\n        /* \"#utility.yul\":3898:3927   */\n      swap1\n      pop\n        /* \"#utility.yul\":3936:3968   */\n      tag_256\n        /* \"#utility.yul\":3962:3967   */\n      dup2\n        /* \"#utility.yul\":3936:3968   */\n      tag_170\n      jump\t// in\n    tag_256:\n        /* \"#utility.yul\":3837:3974   */\n      swap3\n      swap2\n      pop\n      pop\n      jump\t// out\n        /* \"#utility.yul\":4007:7826   */\n    tag_172:\n        /* \"#utility.yul\":4085:4090   */\n      0x00\n        /* \"#utility.yul\":4129:4135   */\n      0x0180\n        /* \"#utility.yul\":4117:4126   */\n      dup3\n        /* \"#utility.yul\":4112:4115   */\n      dup5\n        /* \"#utility.yul\":4108:4127   */\n      sub\n        /* \"#utility.yul\":4104:4136   */\n      slt\n        /* \"#utility.yul\":4101:4220   */\n      iszero\n      tag_258\n      jumpi\n        /* \"#utility.yul\":4139:4218   */\n      tag_259\n      tag_154\n      jump\t// in\n    tag_259:\n        /* \"#utility.yul\":4101:4220   */\n    tag_258:\n        /* \"#utility.yul\":4238:4261   */\n      tag_260\n        /* \"#utility.yul\":4254:4260   */\n      0x0180\n        /* \"#utility.yul\":4238:4261   */\n      tag_158\n      jump\t// in\n    tag_260:\n        /* \"#utility.yul\":4229:4261   */\n      swap1\n      pop\n        /* \"#utility.yul\":4324:4325   */\n      0x00\n        /* \"#utility.yul\":4364:4412   */\n      tag_261\n        /* \"#utility.yul\":4408:4411   */\n      dup5\n        /* \"#utility.yul\":4399:4405   */\n      dup3\n        /* \"#utility.yul\":4388:4397   */\n      dup6\n        /* \"#utility.yul\":4384:4406   */\n      add\n        /* \"#utility.yul\":4364:4412   */\n      tag_162\n      jump\t// in\n    tag_261:\n        /* \"#utility.yul\":4357:4361   */\n      0x00\n        /* \"#utility.yul\":4350:4355   */\n      dup4\n        /* \"#utility.yul\":4346:4362   */\n      add\n        /* \"#utility.yul\":4339:4413   */\n      mstore\n        /* \"#utility.yul\":4271:4424   */\n      pop\n        /* \"#utility.yul\":4516:4518   */\n      0x20\n        /* \"#utility.yul\":4505:4514   */\n      dup3\n        /* \"#utility.yul\":4501:4519   */\n      add\n        /* \"#utility.yul\":4488:4520   */\n      calldataload\n        /* \"#utility.yul\":4547:4565   */\n      0xffffffffffffffff\n        /* \"#utility.yul\":4539:4545   */\n      dup2\n        /* \"#utility.yul\":4536:4566   */\n      gt\n        /* \"#utility.yul\":4533:4650   */\n      iszero\n      tag_262\n      jumpi\n        /* \"#utility.yul\":4569:4648   */\n      tag_263\n      tag_159\n      jump\t// in\n    tag_263:\n        /* \"#utility.yul\":4533:4650   */\n    tag_262:\n        /* \"#utility.yul\":4689:4748   */\n      tag_264\n        /* \"#utility.yul\":4744:4747   */\n      dup5\n        /* \"#utility.yul\":4735:4741   */\n      dup3\n        /* \"#utility.yul\":4724:4733   */\n      dup6\n        /* \"#utility.yul\":4720:4742   */\n      add\n        /* \"#utility.yul\":4689:4748   */\n      tag_168\n      jump\t// in\n    tag_264:\n        /* \"#utility.yul\":4682:4686   */\n      0x20\n        /* \"#utility.yul\":4675:4680   */\n      dup4\n        /* \"#utility.yul\":4671:4687   */\n      add\n        /* \"#utility.yul\":4664:4749   */\n      mstore\n        /* \"#utility.yul\":4434:4760   */\n      pop\n        /* \"#utility.yul\":4852:4854   */\n      0x40\n        /* \"#utility.yul\":4841:4850   */\n      dup3\n        /* \"#utility.yul\":4837:4855   */\n      add\n        /* \"#utility.yul\":4824:4856   */\n      calldataload\n        /* \"#utility.yul\":4883:4901   */\n      0xffffffffffffffff\n        /* \"#utility.yul\":4875:4881   */\n      dup2\n        /* \"#utility.yul\":4872:4902   */\n      gt\n        /* \"#utility.yul\":4869:4986   */\n      iszero\n      tag_265\n      jumpi\n        /* \"#utility.yul\":4905:4984   */\n      tag_266\n      tag_159\n      jump\t// in\n    tag_266:\n        /* \"#utility.yul\":4869:4986   */\n    tag_265:\n        /* \"#utility.yul\":5025:5084   */\n      tag_267\n        /* \"#utility.yul\":5080:5083   */\n      dup5\n        /* \"#utility.yul\":5071:5077   */\n      dup3\n        /* \"#utility.yul\":5060:5069   */\n      dup6\n        /* \"#utility.yul\":5056:5078   */\n      add\n        /* \"#utility.yul\":5025:5084   */\n      tag_168\n      jump\t// in\n    tag_267:\n        /* \"#utility.yul\":5018:5022   */\n      0x40\n        /* \"#utility.yul\":5011:5016   */\n      dup4\n        /* \"#utility.yul\":5007:5023   */\n      add\n        /* \"#utility.yul\":5000:5085   */\n      mstore\n        /* \"#utility.yul\":4770:5096   */\n      pop\n        /* \"#utility.yul\":5187:5189   */\n      0x60\n        /* \"#utility.yul\":5176:5185   */\n      dup3\n        /* \"#utility.yul\":5172:5190   */\n      add\n        /* \"#utility.yul\":5159:5191   */\n      calldataload\n        /* \"#utility.yul\":5218:5236   */\n      0xffffffffffffffff\n        /* \"#utility.yul\":5210:5216   */\n      dup2\n        /* \"#utility.yul\":5207:5237   */\n      gt\n        /* \"#utility.yul\":5204:5321   */\n      iszero\n      tag_268\n      jumpi\n        /* \"#utility.yul\":5240:5319   */\n      tag_269\n      tag_159\n      jump\t// in\n    tag_269:\n        /* \"#utility.yul\":5204:5321   */\n    tag_268:\n        /* \"#utility.yul\":5360:5419   */\n      tag_270\n        /* \"#utility.yul\":5415:5418   */\n      dup5\n        /* \"#utility.yul\":5406:5412   */\n      dup3\n        /* \"#utility.yul\":5395:5404   */\n      dup6\n        /* \"#utility.yul\":5391:5413   */\n      add\n        /* \"#utility.yul\":5360:5419   */\n      tag_168\n      jump\t// in\n    tag_270:\n        /* \"#utility.yul\":5353:5357   */\n      0x60\n        /* \"#utility.yul\":5346:5351   */\n      dup4\n        /* \"#utility.yul\":5342:5358   */\n      add\n        /* \"#utility.yul\":5335:5420   */\n      mstore\n        /* \"#utility.yul\":5106:5431   */\n      pop\n        /* \"#utility.yul\":5524:5527   */\n      0x80\n        /* \"#utility.yul\":5513:5522   */\n      dup3\n        /* \"#utility.yul\":5509:5528   */\n      add\n        /* \"#utility.yul\":5496:5529   */\n      calldataload\n        /* \"#utility.yul\":5556:5574   */\n      0xffffffffffffffff\n        /* \"#utility.yul\":5548:5554   */\n      dup2\n        /* \"#utility.yul\":5545:5575   */\n      gt\n        /* \"#utility.yul\":5542:5659   */\n      iszero\n      tag_271\n      jumpi\n        /* \"#utility.yul\":5578:5657   */\n      tag_272\n      tag_159\n      jump\t// in\n    tag_272:\n        /* \"#utility.yul\":5542:5659   */\n    tag_271:\n        /* \"#utility.yul\":5698:5757   */\n      tag_273\n        /* \"#utility.yul\":5753:5756   */\n      dup5\n        /* \"#utility.yul\":5744:5750   */\n      dup3\n        /* \"#utility.yul\":5733:5742   */\n      dup6\n        /* \"#utility.yul\":5729:5751   */\n      add\n        /* \"#utility.yul\":5698:5757   */\n      tag_168\n      jump\t// in\n    tag_273:\n        /* \"#utility.yul\":5691:5695   */\n      0x80\n        /* \"#utility.yul\":5684:5689   */\n      dup4\n        /* \"#utility.yul\":5680:5696   */\n      add\n        /* \"#utility.yul\":5673:5758   */\n      mstore\n        /* \"#utility.yul\":5441:5769   */\n      pop\n        /* \"#utility.yul\":5858:5861   */\n      0xa0\n        /* \"#utility.yul\":5847:5856   */\n      dup3\n        /* \"#utility.yul\":5843:5862   */\n      add\n        /* \"#utility.yul\":5830:5863   */\n      calldataload\n        /* \"#utility.yul\":5890:5908   */\n      0xffffffffffffffff\n        /* \"#utility.yul\":5882:5888   */\n      dup2\n        /* \"#utility.yul\":5879:5909   */\n      gt\n        /* \"#utility.yul\":5876:5993   */\n      iszero\n      tag_274\n      jumpi\n        /* \"#utility.yul\":5912:5991   */\n      tag_275\n      tag_159\n      jump\t// in\n    tag_275:\n        /* \"#utility.yul\":5876:5993   */\n    tag_274:\n        /* \"#utility.yul\":6032:6091   */\n      tag_276\n        /* \"#utility.yul\":6087:6090   */\n      dup5\n        /* \"#utility.yul\":6078:6084   */\n      dup3\n        /* \"#utility.yul\":6067:6076   */\n      dup6\n        /* \"#utility.yul\":6063:6085   */\n      add\n        /* \"#utility.yul\":6032:6091   */\n      tag_168\n      jump\t// in\n    tag_276:\n        /* \"#utility.yul\":6025:6029   */\n      0xa0\n        /* \"#utility.yul\":6018:6023   */\n      dup4\n        /* \"#utility.yul\":6014:6030   */\n      add\n        /* \"#utility.yul\":6007:6092   */\n      mstore\n        /* \"#utility.yul\":5779:6103   */\n      pop\n        /* \"#utility.yul\":6167:6170   */\n      0xc0\n        /* \"#utility.yul\":6209:6257   */\n      tag_277\n        /* \"#utility.yul\":6253:6256   */\n      dup5\n        /* \"#utility.yul\":6244:6250   */\n      dup3\n        /* \"#utility.yul\":6233:6242   */\n      dup6\n        /* \"#utility.yul\":6229:6251   */\n      add\n        /* \"#utility.yul\":6209:6257   */\n      tag_162\n      jump\t// in\n    tag_277:\n        /* \"#utility.yul\":6202:6206   */\n      0xc0\n        /* \"#utility.yul\":6195:6200   */\n      dup4\n        /* \"#utility.yul\":6191:6207   */\n      add\n        /* \"#utility.yul\":6184:6258   */\n      mstore\n        /* \"#utility.yul\":6113:6269   */\n      pop\n        /* \"#utility.yul\":6368:6371   */\n      0xe0\n        /* \"#utility.yul\":6357:6366   */\n      dup3\n        /* \"#utility.yul\":6353:6372   */\n      add\n        /* \"#utility.yul\":6340:6373   */\n      calldataload\n        /* \"#utility.yul\":6400:6418   */\n      0xffffffffffffffff\n        /* \"#utility.yul\":6392:6398   */\n      dup2\n        /* \"#utility.yul\":6389:6419   */\n      gt\n        /* \"#utility.yul\":6386:6503   */\n      iszero\n      tag_278\n      jumpi\n        /* \"#utility.yul\":6422:6501   */\n      tag_279\n      tag_159\n      jump\t// in\n    tag_279:\n        /* \"#utility.yul\":6386:6503   */\n    tag_278:\n        /* \"#utility.yul\":6542:6601   */\n      tag_280\n        /* \"#utility.yul\":6597:6600   */\n      dup5\n        /* \"#utility.yul\":6588:6594   */\n      dup3\n        /* \"#utility.yul\":6577:6586   */\n      dup6\n        /* \"#utility.yul\":6573:6595   */\n      add\n        /* \"#utility.yul\":6542:6601   */\n      tag_168\n      jump\t// in\n    tag_280:\n        /* \"#utility.yul\":6535:6539   */\n      0xe0\n        /* \"#utility.yul\":6528:6533   */\n      dup4\n        /* \"#utility.yul\":6524:6540   */\n      add\n        /* \"#utility.yul\":6517:6602   */\n      mstore\n        /* \"#utility.yul\":6279:6613   */\n      pop\n        /* \"#utility.yul\":6682:6685   */\n      0x0100\n        /* \"#utility.yul\":6726:6774   */\n      tag_281\n        /* \"#utility.yul\":6770:6773   */\n      dup5\n        /* \"#utility.yul\":6761:6767   */\n      dup3\n        /* \"#utility.yul\":6750:6759   */\n      dup6\n        /* \"#utility.yul\":6746:6768   */\n      add\n        /* \"#utility.yul\":6726:6774   */\n      tag_171\n      jump\t// in\n    tag_281:\n        /* \"#utility.yul\":6717:6723   */\n      0x0100\n        /* \"#utility.yul\":6710:6715   */\n      dup4\n        /* \"#utility.yul\":6706:6724   */\n      add\n        /* \"#utility.yul\":6699:6775   */\n      mstore\n        /* \"#utility.yul\":6623:6786   */\n      pop\n        /* \"#utility.yul\":6887:6890   */\n      0x0120\n        /* \"#utility.yul\":6876:6885   */\n      dup3\n        /* \"#utility.yul\":6872:6891   */\n      add\n        /* \"#utility.yul\":6859:6892   */\n      calldataload\n        /* \"#utility.yul\":6919:6937   */\n      0xffffffffffffffff\n        /* \"#utility.yul\":6911:6917   */\n      dup2\n        /* \"#utility.yul\":6908:6938   */\n      gt\n        /* \"#utility.yul\":6905:7022   */\n      iszero\n      tag_282\n      jumpi\n        /* \"#utility.yul\":6941:7020   */\n      tag_283\n      tag_159\n      jump\t// in\n    tag_283:\n        /* \"#utility.yul\":6905:7022   */\n    tag_282:\n        /* \"#utility.yul\":7063:7122   */\n      tag_284\n        /* \"#utility.yul\":7118:7121   */\n      dup5\n        /* \"#utility.yul\":7109:7115   */\n      dup3\n        /* \"#utility.yul\":7098:7107   */\n      dup6\n        /* \"#utility.yul\":7094:7116   */\n      add\n        /* \"#utility.yul\":7063:7122   */\n      tag_168\n      jump\t// in\n    tag_284:\n        /* \"#utility.yul\":7054:7060   */\n      0x0120\n        /* \"#utility.yul\":7047:7052   */\n      dup4\n        /* \"#utility.yul\":7043:7061   */\n      add\n        /* \"#utility.yul\":7036:7123   */\n      mstore\n        /* \"#utility.yul\":6796:7134   */\n      pop\n        /* \"#utility.yul\":7236:7239   */\n      0x0140\n        /* \"#utility.yul\":7225:7234   */\n      dup3\n        /* \"#utility.yul\":7221:7240   */\n      add\n        /* \"#utility.yul\":7208:7241   */\n      calldataload\n        /* \"#utility.yul\":7268:7286   */\n      0xffffffffffffffff\n        /* \"#utility.yul\":7260:7266   */\n      dup2\n        /* \"#utility.yul\":7257:7287   */\n      gt\n        /* \"#utility.yul\":7254:7371   */\n      iszero\n      tag_285\n      jumpi\n        /* \"#utility.yul\":7290:7369   */\n      tag_286\n      tag_159\n      jump\t// in\n    tag_286:\n        /* \"#utility.yul\":7254:7371   */\n    tag_285:\n        /* \"#utility.yul\":7412:7471   */\n      tag_287\n        /* \"#utility.yul\":7467:7470   */\n      dup5\n        /* \"#utility.yul\":7458:7464   */\n      dup3\n        /* \"#utility.yul\":7447:7456   */\n      dup6\n        /* \"#utility.yul\":7443:7465   */\n      add\n        /* \"#utility.yul\":7412:7471   */\n      tag_168\n      jump\t// in\n    tag_287:\n        /* \"#utility.yul\":7403:7409   */\n      0x0140\n        /* \"#utility.yul\":7396:7401   */\n      dup4\n        /* \"#utility.yul\":7392:7410   */\n      add\n        /* \"#utility.yul\":7385:7472   */\n      mstore\n        /* \"#utility.yul\":7144:7483   */\n      pop\n        /* \"#utility.yul\":7572:7575   */\n      0x0160\n        /* \"#utility.yul\":7561:7570   */\n      dup3\n        /* \"#utility.yul\":7557:7576   */\n      add\n        /* \"#utility.yul\":7544:7577   */\n      calldataload\n        /* \"#utility.yul\":7604:7622   */\n      0xffffffffffffffff\n        /* \"#utility.yul\":7596:7602   */\n      dup2\n        /* \"#utility.yul\":7593:7623   */\n      gt\n        /* \"#utility.yul\":7590:7707   */\n      iszero\n      tag_288\n      jumpi\n        /* \"#utility.yul\":7626:7705   */\n      tag_289\n      tag_159\n      jump\t// in\n    tag_289:\n        /* \"#utility.yul\":7590:7707   */\n    tag_288:\n        /* \"#utility.yul\":7748:7807   */\n      tag_290\n        /* \"#utility.yul\":7803:7806   */\n      dup5\n        /* \"#utility.yul\":7794:7800   */\n      dup3\n        /* \"#utility.yul\":7783:7792   */\n      dup6\n        /* \"#utility.yul\":7779:7801   */\n      add\n        /* \"#utility.yul\":7748:7807   */\n      tag_168\n      jump\t// in\n    tag_290:\n        /* \"#utility.yul\":7739:7745   */\n      0x0160\n        /* \"#utility.yul\":7732:7737   */\n      dup4\n        /* \"#utility.yul\":7728:7746   */\n      add\n        /* \"#utility.yul\":7721:7808   */\n      mstore\n        /* \"#utility.yul\":7493:7819   */\n      pop\n        /* \"#utility.yul\":4007:7826   */\n      swap3\n      swap2\n      pop\n      pop\n      jump\t// out\n        /* \"#utility.yul\":7832:8379   */\n    tag_14:\n        /* \"#utility.yul\":7920:7926   */\n      0x00\n        /* \"#utility.yul\":7969:7971   */\n      0x20\n        /* \"#utility.yul\":7957:7966   */\n      dup3\n        /* \"#utility.yul\":7948:7955   */\n      dup5\n        /* \"#utility.yul\":7944:7967   */\n      sub\n        /* \"#utility.yul\":7940:7972   */\n      slt\n        /* \"#utility.yul\":7937:8056   */\n      iszero\n      tag_292\n      jumpi\n        /* \"#utility.yul\":7975:8054   */\n      tag_293\n      tag_152\n      jump\t// in\n    tag_293:\n        /* \"#utility.yul\":7937:8056   */\n    tag_292:\n        /* \"#utility.yul\":8123:8124   */\n      0x00\n        /* \"#utility.yul\":8112:8121   */\n      dup3\n        /* \"#utility.yul\":8108:8125   */\n      add\n        /* \"#utility.yul\":8095:8126   */\n      calldataload\n        /* \"#utility.yul\":8153:8171   */\n      0xffffffffffffffff\n        /* \"#utility.yul\":8145:8151   */\n      dup2\n        /* \"#utility.yul\":8142:8172   */\n      gt\n        /* \"#utility.yul\":8139:8256   */\n      iszero\n      tag_294\n      jumpi\n        /* \"#utility.yul\":8175:8254   */\n      tag_295\n      tag_153\n      jump\t// in\n    tag_295:\n        /* \"#utility.yul\":8139:8256   */\n    tag_294:\n        /* \"#utility.yul\":8280:8362   */\n      tag_296\n        /* \"#utility.yul\":8354:8361   */\n      dup5\n        /* \"#utility.yul\":8345:8351   */\n      dup3\n        /* \"#utility.yul\":8334:8343   */\n      dup6\n        /* \"#utility.yul\":8330:8352   */\n      add\n        /* \"#utility.yul\":8280:8362   */\n      tag_172\n      jump\t// in\n    tag_296:\n        /* \"#utility.yul\":8270:8362   */\n      swap2\n      pop\n        /* \"#utility.yul\":8066:8372   */\n      pop\n        /* \"#utility.yul\":7832:8379   */\n      swap3\n      swap2\n      pop\n      pop\n      jump\t// out\n        /* \"#utility.yul\":8385:8511   */\n    tag_173:\n        /* \"#utility.yul\":8422:8429   */\n      0x00\n        /* \"#utility.yul\":8462:8504   */\n      0xffffffffffffffffffffffffffffffffffffffff\n        /* \"#utility.yul\":8455:8460   */\n      dup3\n        /* \"#utility.yul\":8451:8505   */\n      and\n        /* \"#utility.yul\":8440:8505   */\n      swap1\n      pop\n        /* \"#utility.yul\":8385:8511   */\n      swap2\n      swap1\n      pop\n      jump\t// out\n        /* \"#utility.yul\":8517:8613   */\n    tag_174:\n        /* \"#utility.yul\":8554:8561   */\n      0x00\n        /* \"#utility.yul\":8583:8607   */\n      tag_299\n        /* \"#utility.yul\":8601:8606   */\n      dup3\n        /* \"#utility.yul\":8583:8607   */\n      tag_173\n      jump\t// in\n    tag_299:\n        /* \"#utility.yul\":8572:8607   */\n      swap1\n      pop\n        /* \"#utility.yul\":8517:8613   */\n      swap2\n      swap1\n      pop\n      jump\t// out\n        /* \"#utility.yul\":8619:8737   */\n    tag_175:\n        /* \"#utility.yul\":8706:8730   */\n      tag_301\n        /* \"#utility.yul\":8724:8729   */\n      dup2\n        /* \"#utility.yul\":8706:8730   */\n      tag_174\n      jump\t// in\n    tag_301:\n        /* \"#utility.yul\":8701:8704   */\n      dup3\n        /* \"#utility.yul\":8694:8731   */\n      mstore\n        /* \"#utility.yul\":8619:8737   */\n      pop\n      pop\n      jump\t// out\n        /* \"#utility.yul\":8743:8965   */\n    tag_19:\n        /* \"#utility.yul\":8836:8840   */\n      0x00\n        /* \"#utility.yul\":8874:8876   */\n      0x20\n        /* \"#utility.yul\":8863:8872   */\n      dup3\n        /* \"#utility.yul\":8859:8877   */\n      add\n        /* \"#utility.yul\":8851:8877   */\n      swap1\n      pop\n        /* \"#utility.yul\":8887:8958   */\n      tag_303\n        /* \"#utility.yul\":8955:8956   */\n      0x00\n        /* \"#utility.yul\":8944:8953   */\n      dup4\n        /* \"#utility.yul\":8940:8957   */\n      add\n        /* \"#utility.yul\":8931:8937   */\n      dup5\n        /* \"#utility.yul\":8887:8958   */\n      tag_175\n      jump\t// in\n    tag_303:\n        /* \"#utility.yul\":8743:8965   */\n      swap3\n      swap2\n      pop\n      pop\n      jump\t// out\n        /* \"#utility.yul\":8971:9114   */\n    tag_176:\n        /* \"#utility.yul\":9067:9073   */\n      0x00\n        /* \"#utility.yul\":9101:9106   */\n      dup2\n        /* \"#utility.yul\":9095:9107   */\n      mload\n        /* \"#utility.yul\":9085:9107   */\n      swap1\n      pop\n        /* \"#utility.yul\":8971:9114   */\n      swap2\n      swap1\n      pop\n      jump\t// out\n        /* \"#utility.yul\":9120:9333   */\n    tag_177:\n        /* \"#utility.yul\":9248:9259   */\n      0x00\n        /* \"#utility.yul\":9282:9288   */\n      dup3\n        /* \"#utility.yul\":9277:9280   */\n      dup3\n        /* \"#utility.yul\":9270:9289   */\n      mstore\n        /* \"#utility.yul\":9322:9326   */\n      0x20\n        /* \"#utility.yul\":9317:9320   */\n      dup3\n        /* \"#utility.yul\":9313:9327   */\n      add\n        /* \"#utility.yul\":9298:9327   */\n      swap1\n      pop\n        /* \"#utility.yul\":9120:9333   */\n      swap3\n      swap2\n      pop\n      pop\n      jump\t// out\n        /* \"#utility.yul\":9339:9500   */\n    tag_178:\n        /* \"#utility.yul\":9435:9439   */\n      0x00\n        /* \"#utility.yul\":9458:9461   */\n      dup2\n        /* \"#utility.yul\":9450:9461   */\n      swap1\n      pop\n        /* \"#utility.yul\":9488:9492   */\n      0x20\n        /* \"#utility.yul\":9483:9486   */\n      dup3\n        /* \"#utility.yul\":9479:9493   */\n      add\n        /* \"#utility.yul\":9471:9493   */\n      swap1\n      pop\n        /* \"#utility.yul\":9339:9500   */\n      swap2\n      swap1\n      pop\n      jump\t// out\n        /* \"#utility.yul\":9506:9611   */\n    tag_179:\n        /* \"#utility.yul\":9581:9604   */\n      tag_308\n        /* \"#utility.yul\":9598:9603   */\n      dup2\n        /* \"#utility.yul\":9581:9604   */\n      tag_160\n      jump\t// in\n    tag_308:\n        /* \"#utility.yul\":9576:9579   */\n      dup3\n        /* \"#utility.yul\":9569:9605   */\n      mstore\n        /* \"#utility.yul\":9506:9611   */\n      pop\n      pop\n      jump\t// out\n        /* \"#utility.yul\":9617:9716   */\n    tag_180:\n        /* \"#utility.yul\":9669:9675   */\n      0x00\n        /* \"#utility.yul\":9703:9708   */\n      dup2\n        /* \"#utility.yul\":9697:9709   */\n      mload\n        /* \"#utility.yul\":9687:9709   */\n      swap1\n      pop\n        /* \"#utility.yul\":9617:9716   */\n      swap2\n      swap1\n      pop\n      jump\t// out\n        /* \"#utility.yul\":9722:9881   */\n    tag_181:\n        /* \"#utility.yul\":9796:9807   */\n      0x00\n        /* \"#utility.yul\":9830:9836   */\n      dup3\n        /* \"#utility.yul\":9825:9828   */\n      dup3\n        /* \"#utility.yul\":9818:9837   */\n      mstore\n        /* \"#utility.yul\":9870:9874   */\n      0x20\n        /* \"#utility.yul\":9865:9868   */\n      dup3\n        /* \"#utility.yul\":9861:9875   */\n      add\n        /* \"#utility.yul\":9846:9875   */\n      swap1\n      pop\n        /* \"#utility.yul\":9722:9881   */\n      swap3\n      swap2\n      pop\n      pop\n      jump\t// out\n        /* \"#utility.yul\":9887:10026   */\n    tag_182:\n        /* \"#utility.yul\":9976:9982   */\n      dup3\n        /* \"#utility.yul\":9971:9974   */\n      dup2\n        /* \"#utility.yul\":9966:9969   */\n      dup4\n        /* \"#utility.yul\":9960:9983   */\n      mcopy\n        /* \"#utility.yul\":10017:10018   */\n      0x00\n        /* \"#utility.yul\":10008:10014   */\n      dup4\n        /* \"#utility.yul\":10003:10006   */\n      dup4\n        /* \"#utility.yul\":9999:10015   */\n      add\n        /* \"#utility.yul\":9992:10019   */\n      mstore\n        /* \"#utility.yul\":9887:10026   */\n      pop\n      pop\n      pop\n      jump\t// out\n        /* \"#utility.yul\":10032:10389   */\n    tag_183:\n        /* \"#utility.yul\":10110:10113   */\n      0x00\n        /* \"#utility.yul\":10138:10177   */\n      tag_313\n        /* \"#utility.yul\":10171:10176   */\n      dup3\n        /* \"#utility.yul\":10138:10177   */\n      tag_180\n      jump\t// in\n    tag_313:\n        /* \"#utility.yul\":10193:10254   */\n      tag_314\n        /* \"#utility.yul\":10247:10253   */\n      dup2\n        /* \"#utility.yul\":10242:10245   */\n      dup6\n        /* \"#utility.yul\":10193:10254   */\n      tag_181\n      jump\t// in\n    tag_314:\n        /* \"#utility.yul\":10186:10254   */\n      swap4\n      pop\n        /* \"#utility.yul\":10263:10328   */\n      tag_315\n        /* \"#utility.yul\":10321:10327   */\n      dup2\n        /* \"#utility.yul\":10316:10319   */\n      dup6\n        /* \"#utility.yul\":10309:10313   */\n      0x20\n        /* \"#utility.yul\":10302:10307   */\n      dup7\n        /* \"#utility.yul\":10298:10314   */\n      add\n        /* \"#utility.yul\":10263:10328   */\n      tag_182\n      jump\t// in\n    tag_315:\n        /* \"#utility.yul\":10353:10382   */\n      tag_316\n        /* \"#utility.yul\":10375:10381   */\n      dup2\n        /* \"#utility.yul\":10353:10382   */\n      tag_155\n      jump\t// in\n    tag_316:\n        /* \"#utility.yul\":10348:10351   */\n      dup5\n        /* \"#utility.yul\":10344:10383   */\n      add\n        /* \"#utility.yul\":10337:10383   */\n      swap2\n      pop\n        /* \"#utility.yul\":10114:10389   */\n      pop\n        /* \"#utility.yul\":10032:10389   */\n      swap3\n      swap2\n      pop\n      pop\n      jump\t// out\n        /* \"#utility.yul\":10395:10500   */\n    tag_184:\n        /* \"#utility.yul\":10470:10493   */\n      tag_318\n        /* \"#utility.yul\":10487:10492   */\n      dup2\n        /* \"#utility.yul\":10470:10493   */\n      tag_169\n      jump\t// in\n    tag_318:\n        /* \"#utility.yul\":10465:10468   */\n      dup3\n        /* \"#utility.yul\":10458:10494   */\n      mstore\n        /* \"#utility.yul\":10395:10500   */\n      pop\n      pop\n      jump\t// out\n        /* \"#utility.yul\":10556:13564   */\n    tag_185:\n        /* \"#utility.yul\":10673:10676   */\n      0x00\n        /* \"#utility.yul\":10709:10715   */\n      0x0180\n        /* \"#utility.yul\":10704:10707   */\n      dup4\n        /* \"#utility.yul\":10700:10716   */\n      add\n        /* \"#utility.yul\":10802:10806   */\n      0x00\n        /* \"#utility.yul\":10795:10800   */\n      dup4\n        /* \"#utility.yul\":10791:10807   */\n      add\n        /* \"#utility.yul\":10785:10808   */\n      mload\n        /* \"#utility.yul\":10821:10882   */\n      tag_320\n        /* \"#utility.yul\":10876:10880   */\n      0x00\n        /* \"#utility.yul\":10871:10874   */\n      dup7\n        /* \"#utility.yul\":10867:10881   */\n      add\n        /* \"#utility.yul\":10853:10865   */\n      dup3\n        /* \"#utility.yul\":10821:10882   */\n      tag_179\n      jump\t// in\n    tag_320:\n        /* \"#utility.yul\":10726:10892   */\n      pop\n        /* \"#utility.yul\":10979:10983   */\n      0x20\n        /* \"#utility.yul\":10972:10977   */\n      dup4\n        /* \"#utility.yul\":10968:10984   */\n      add\n        /* \"#utility.yul\":10962:10985   */\n      mload\n        /* \"#utility.yul\":11032:11035   */\n      dup5\n        /* \"#utility.yul\":11026:11030   */\n      dup3\n        /* \"#utility.yul\":11022:11036   */\n      sub\n        /* \"#utility.yul\":11015:11019   */\n      0x20\n        /* \"#utility.yul\":11010:11013   */\n      dup7\n        /* \"#utility.yul\":11006:11020   */\n      add\n        /* \"#utility.yul\":10999:11037   */\n      mstore\n        /* \"#utility.yul\":11058:11131   */\n      tag_321\n        /* \"#utility.yul\":11126:11130   */\n      dup3\n        /* \"#utility.yul\":11112:11124   */\n      dup3\n        /* \"#utility.yul\":11058:11131   */\n      tag_183\n      jump\t// in\n    tag_321:\n        /* \"#utility.yul\":11050:11131   */\n      swap2\n      pop\n        /* \"#utility.yul\":10902:11142   */\n      pop\n        /* \"#utility.yul\":11229:11233   */\n      0x40\n        /* \"#utility.yul\":11222:11227   */\n      dup4\n        /* \"#utility.yul\":11218:11234   */\n      add\n        /* \"#utility.yul\":11212:11235   */\n      mload\n        /* \"#utility.yul\":11282:11285   */\n      dup5\n        /* \"#utility.yul\":11276:11280   */\n      dup3\n        /* \"#utility.yul\":11272:11286   */\n      sub\n        /* \"#utility.yul\":11265:11269   */\n      0x40\n        /* \"#utility.yul\":11260:11263   */\n      dup7\n        /* \"#utility.yul\":11256:11270   */\n      add\n        /* \"#utility.yul\":11249:11287   */\n      mstore\n        /* \"#utility.yul\":11308:11381   */\n      tag_322\n        /* \"#utility.yul\":11376:11380   */\n      dup3\n        /* \"#utility.yul\":11362:11374   */\n      dup3\n        /* \"#utility.yul\":11308:11381   */\n      tag_183\n      jump\t// in\n    tag_322:\n        /* \"#utility.yul\":11300:11381   */\n      swap2\n      pop\n        /* \"#utility.yul\":11152:11392   */\n      pop\n        /* \"#utility.yul\":11478:11482   */\n      0x60\n        /* \"#utility.yul\":11471:11476   */\n      dup4\n        /* \"#utility.yul\":11467:11483   */\n      add\n        /* \"#utility.yul\":11461:11484   */\n      mload\n        /* \"#utility.yul\":11531:11534   */\n      dup5\n        /* \"#utility.yul\":11525:11529   */\n      dup3\n        /* \"#utility.yul\":11521:11535   */\n      sub\n        /* \"#utility.yul\":11514:11518   */\n      0x60\n        /* \"#utility.yul\":11509:11512   */\n      dup7\n        /* \"#utility.yul\":11505:11519   */\n      add\n        /* \"#utility.yul\":11498:11536   */\n      mstore\n        /* \"#utility.yul\":11557:11630   */\n      tag_323\n        /* \"#utility.yul\":11625:11629   */\n      dup3\n        /* \"#utility.yul\":11611:11623   */\n      dup3\n        /* \"#utility.yul\":11557:11630   */\n      tag_183\n      jump\t// in\n    tag_323:\n        /* \"#utility.yul\":11549:11630   */\n      swap2\n      pop\n        /* \"#utility.yul\":11402:11641   */\n      pop\n        /* \"#utility.yul\":11729:11733   */\n      0x80\n        /* \"#utility.yul\":11722:11727   */\n      dup4\n        /* \"#utility.yul\":11718:11734   */\n      add\n        /* \"#utility.yul\":11712:11735   */\n      mload\n        /* \"#utility.yul\":11782:11785   */\n      dup5\n        /* \"#utility.yul\":11776:11780   */\n      dup3\n        /* \"#utility.yul\":11772:11786   */\n      sub\n        /* \"#utility.yul\":11765:11769   */\n      0x80\n        /* \"#utility.yul\":11760:11763   */\n      dup7\n        /* \"#utility.yul\":11756:11770   */\n      add\n        /* \"#utility.yul\":11749:11787   */\n      mstore\n        /* \"#utility.yul\":11808:11881   */\n      tag_324\n        /* \"#utility.yul\":11876:11880   */\n      dup3\n        /* \"#utility.yul\":11862:11874   */\n      dup3\n        /* \"#utility.yul\":11808:11881   */\n      tag_183\n      jump\t// in\n    tag_324:\n        /* \"#utility.yul\":11800:11881   */\n      swap2\n      pop\n        /* \"#utility.yul\":11651:11892   */\n      pop\n        /* \"#utility.yul\":11976:11980   */\n      0xa0\n        /* \"#utility.yul\":11969:11974   */\n      dup4\n        /* \"#utility.yul\":11965:11981   */\n      add\n        /* \"#utility.yul\":11959:11982   */\n      mload\n        /* \"#utility.yul\":12029:12032   */\n      dup5\n        /* \"#utility.yul\":12023:12027   */\n      dup3\n        /* \"#utility.yul\":12019:12033   */\n      sub\n        /* \"#utility.yul\":12012:12016   */\n      0xa0\n        /* \"#utility.yul\":12007:12010   */\n      dup7\n        /* \"#utility.yul\":12003:12017   */\n      add\n        /* \"#utility.yul\":11996:12034   */\n      mstore\n        /* \"#utility.yul\":12055:12128   */\n      tag_325\n        /* \"#utility.yul\":12123:12127   */\n      dup3\n        /* \"#utility.yul\":12109:12121   */\n      dup3\n        /* \"#utility.yul\":12055:12128   */\n      tag_183\n      jump\t// in\n    tag_325:\n        /* \"#utility.yul\":12047:12128   */\n      swap2\n      pop\n        /* \"#utility.yul\":11902:12139   */\n      pop\n        /* \"#utility.yul\":12226:12230   */\n      0xc0\n        /* \"#utility.yul\":12219:12224   */\n      dup4\n        /* \"#utility.yul\":12215:12231   */\n      add\n        /* \"#utility.yul\":12209:12232   */\n      mload\n        /* \"#utility.yul\":12245:12306   */\n      tag_326\n        /* \"#utility.yul\":12300:12304   */\n      0xc0\n        /* \"#utility.yul\":12295:12298   */\n      dup7\n        /* \"#utility.yul\":12291:12305   */\n      add\n        /* \"#utility.yul\":12277:12289   */\n      dup3\n        /* \"#utility.yul\":12245:12306   */\n      tag_179\n      jump\t// in\n    tag_326:\n        /* \"#utility.yul\":12149:12316   */\n      pop\n        /* \"#utility.yul\":12410:12414   */\n      0xe0\n        /* \"#utility.yul\":12403:12408   */\n      dup4\n        /* \"#utility.yul\":12399:12415   */\n      add\n        /* \"#utility.yul\":12393:12416   */\n      mload\n        /* \"#utility.yul\":12463:12466   */\n      dup5\n        /* \"#utility.yul\":12457:12461   */\n      dup3\n        /* \"#utility.yul\":12453:12467   */\n      sub\n        /* \"#utility.yul\":12446:12450   */\n      0xe0\n        /* \"#utility.yul\":12441:12444   */\n      dup7\n        /* \"#utility.yul\":12437:12451   */\n      add\n        /* \"#utility.yul\":12430:12468   */\n      mstore\n        /* \"#utility.yul\":12489:12562   */\n      tag_327\n        /* \"#utility.yul\":12557:12561   */\n      dup3\n        /* \"#utility.yul\":12543:12555   */\n      dup3\n        /* \"#utility.yul\":12489:12562   */\n      tag_183\n      jump\t// in\n    tag_327:\n        /* \"#utility.yul\":12481:12562   */\n      swap2\n      pop\n        /* \"#utility.yul\":12326:12573   */\n      pop\n        /* \"#utility.yul\":12665:12671   */\n      0x0100\n        /* \"#utility.yul\":12658:12663   */\n      dup4\n        /* \"#utility.yul\":12654:12672   */\n      add\n        /* \"#utility.yul\":12648:12673   */\n      mload\n        /* \"#utility.yul\":12686:12749   */\n      tag_328\n        /* \"#utility.yul\":12741:12747   */\n      0x0100\n        /* \"#utility.yul\":12736:12739   */\n      dup7\n        /* \"#utility.yul\":12732:12748   */\n      add\n        /* \"#utility.yul\":12718:12730   */\n      dup3\n        /* \"#utility.yul\":12686:12749   */\n      tag_184\n      jump\t// in\n    tag_328:\n        /* \"#utility.yul\":12583:12759   */\n      pop\n        /* \"#utility.yul\":12855:12861   */\n      0x0120\n        /* \"#utility.yul\":12848:12853   */\n      dup4\n        /* \"#utility.yul\":12844:12862   */\n      add\n        /* \"#utility.yul\":12838:12863   */\n      mload\n        /* \"#utility.yul\":12912:12915   */\n      dup5\n        /* \"#utility.yul\":12906:12910   */\n      dup3\n        /* \"#utility.yul\":12902:12916   */\n      sub\n        /* \"#utility.yul\":12893:12899   */\n      0x0120\n        /* \"#utility.yul\":12888:12891   */\n      dup7\n        /* \"#utility.yul\":12884:12900   */\n      add\n        /* \"#utility.yul\":12877:12917   */\n      mstore\n        /* \"#utility.yul\":12938:13011   */\n      tag_329\n        /* \"#utility.yul\":13006:13010   */\n      dup3\n        /* \"#utility.yul\":12992:13004   */\n      dup3\n        /* \"#utility.yul\":12938:13011   */\n      tag_183\n      jump\t// in\n    tag_329:\n        /* \"#utility.yul\":12930:13011   */\n      swap2\n      pop\n        /* \"#utility.yul\":12769:13022   */\n      pop\n        /* \"#utility.yul\":13119:13125   */\n      0x0140\n        /* \"#utility.yul\":13112:13117   */\n      dup4\n        /* \"#utility.yul\":13108:13126   */\n      add\n        /* \"#utility.yul\":13102:13127   */\n      mload\n        /* \"#utility.yul\":13176:13179   */\n      dup5\n        /* \"#utility.yul\":13170:13174   */\n      dup3\n        /* \"#utility.yul\":13166:13180   */\n      sub\n        /* \"#utility.yul\":13157:13163   */\n      0x0140\n        /* \"#utility.yul\":13152:13155   */\n      dup7\n        /* \"#utility.yul\":13148:13164   */\n      add\n        /* \"#utility.yul\":13141:13181   */\n      mstore\n        /* \"#utility.yul\":13202:13275   */\n      tag_330\n        /* \"#utility.yul\":13270:13274   */\n      dup3\n        /* \"#utility.yul\":13256:13268   */\n      dup3\n        /* \"#utility.yul\":13202:13275   */\n      tag_183\n      jump\t// in\n    tag_330:\n        /* \"#utility.yul\":13194:13275   */\n      swap2\n      pop\n        /* \"#utility.yul\":13032:13286   */\n      pop\n        /* \"#utility.yul\":13370:13376   */\n      0x0160\n        /* \"#utility.yul\":13363:13368   */\n      dup4\n        /* \"#utility.yul\":13359:13377   */\n      add\n        /* \"#utility.yul\":13353:13378   */\n      mload\n        /* \"#utility.yul\":13427:13430   */\n      dup5\n        /* \"#utility.yul\":13421:13425   */\n      dup3\n        /* \"#utility.yul\":13417:13431   */\n      sub\n        /* \"#utility.yul\":13408:13414   */\n      0x0160\n        /* \"#utility.yul\":13403:13406   */\n      dup7\n        /* \"#utility.yul\":13399:13415   */\n      add\n        /* \"#utility.yul\":13392:13432   */\n      mstore\n        /* \"#utility.yul\":13453:13526   */\n      tag_331\n        /* \"#utility.yul\":13521:13525   */\n      dup3\n        /* \"#utility.yul\":13507:13519   */\n      dup3\n        /* \"#utility.yul\":13453:13526   */\n      tag_183\n      jump\t// in\n    tag_331:\n        /* \"#utility.yul\":13445:13526   */\n      swap2\n      pop\n        /* \"#utility.yul\":13296:13537   */\n      pop\n        /* \"#utility.yul\":13554:13558   */\n      dup1\n        /* \"#utility.yul\":13547:13558   */\n      swap2\n      pop\n        /* \"#utility.yul\":10678:13564   */\n      pop\n        /* \"#utility.yul\":10556:13564   */\n      swap3\n      swap2\n      pop\n      pop\n      jump\t// out\n        /* \"#utility.yul\":13570:13842   */\n    tag_186:\n        /* \"#utility.yul\":13697:13707   */\n      0x00\n        /* \"#utility.yul\":13732:13836   */\n      tag_333\n        /* \"#utility.yul\":13832:13835   */\n      dup4\n        /* \"#utility.yul\":13824:13830   */\n      dup4\n        /* \"#utility.yul\":13732:13836   */\n      tag_185\n      jump\t// in\n    tag_333:\n        /* \"#utility.yul\":13718:13836   */\n      swap1\n      pop\n        /* \"#utility.yul\":13570:13842   */\n      swap3\n      swap2\n      pop\n      pop\n      jump\t// out\n        /* \"#utility.yul\":13848:13990   */\n    tag_187:\n        /* \"#utility.yul\":13947:13951   */\n      0x00\n        /* \"#utility.yul\":13979:13983   */\n      0x20\n        /* \"#utility.yul\":13974:13977   */\n      dup3\n        /* \"#utility.yul\":13970:13984   */\n      add\n        /* \"#utility.yul\":13962:13984   */\n      swap1\n      pop\n        /* \"#utility.yul\":13848:13990   */\n      swap2\n      swap1\n      pop\n      jump\t// out\n        /* \"#utility.yul\":14050:15193   */\n    tag_188:\n        /* \"#utility.yul\":14227:14230   */\n      0x00\n        /* \"#utility.yul\":14256:14339   */\n      tag_336\n        /* \"#utility.yul\":14333:14338   */\n      dup3\n        /* \"#utility.yul\":14256:14339   */\n      tag_176\n      jump\t// in\n    tag_336:\n        /* \"#utility.yul\":14355:14470   */\n      tag_337\n        /* \"#utility.yul\":14463:14469   */\n      dup2\n        /* \"#utility.yul\":14458:14461   */\n      dup6\n        /* \"#utility.yul\":14355:14470   */\n      tag_177\n      jump\t// in\n    tag_337:\n        /* \"#utility.yul\":14348:14470   */\n      swap4\n      pop\n        /* \"#utility.yul\":14496:14499   */\n      dup4\n        /* \"#utility.yul\":14541:14545   */\n      0x20\n        /* \"#utility.yul\":14533:14539   */\n      dup3\n        /* \"#utility.yul\":14529:14546   */\n      mul\n        /* \"#utility.yul\":14524:14527   */\n      dup6\n        /* \"#utility.yul\":14520:14547   */\n      add\n        /* \"#utility.yul\":14571:14656   */\n      tag_338\n        /* \"#utility.yul\":14650:14655   */\n      dup6\n        /* \"#utility.yul\":14571:14656   */\n      tag_178\n      jump\t// in\n    tag_338:\n        /* \"#utility.yul\":14679:14686   */\n      dup1\n        /* \"#utility.yul\":14710:14711   */\n      0x00\n        /* \"#utility.yul\":14695:15148   */\n    tag_339:\n        /* \"#utility.yul\":14720:14726   */\n      dup6\n        /* \"#utility.yul\":14717:14718   */\n      dup2\n        /* \"#utility.yul\":14714:14727   */\n      lt\n        /* \"#utility.yul\":14695:15148   */\n      iszero\n      tag_341\n      jumpi\n        /* \"#utility.yul\":14791:14800   */\n      dup5\n        /* \"#utility.yul\":14785:14789   */\n      dup5\n        /* \"#utility.yul\":14781:14801   */\n      sub\n        /* \"#utility.yul\":14776:14779   */\n      dup10\n        /* \"#utility.yul\":14769:14802   */\n      mstore\n        /* \"#utility.yul\":14842:14848   */\n      dup2\n        /* \"#utility.yul\":14836:14849   */\n      mload\n        /* \"#utility.yul\":14870:14992   */\n      tag_342\n        /* \"#utility.yul\":14987:14991   */\n      dup6\n        /* \"#utility.yul\":14972:14985   */\n      dup3\n        /* \"#utility.yul\":14870:14992   */\n      tag_186\n      jump\t// in\n    tag_342:\n        /* \"#utility.yul\":14862:14992   */\n      swap5\n      pop\n        /* \"#utility.yul\":15015:15104   */\n      tag_343\n        /* \"#utility.yul\":15097:15103   */\n      dup4\n        /* \"#utility.yul\":15015:15104   */\n      tag_187\n      jump\t// in\n    tag_343:\n        /* \"#utility.yul\":15005:15104   */\n      swap3\n      pop\n        /* \"#utility.yul\":15133:15137   */\n      0x20\n        /* \"#utility.yul\":15128:15131   */\n      dup11\n        /* \"#utility.yul\":15124:15138   */\n      add\n        /* \"#utility.yul\":15117:15138   */\n      swap10\n      pop\n        /* \"#utility.yul\":14755:15148   */\n      pop\n        /* \"#utility.yul\":14742:14743   */\n      0x01\n        /* \"#utility.yul\":14739:14740   */\n      dup2\n        /* \"#utility.yul\":14735:14744   */\n      add\n        /* \"#utility.yul\":14730:14744   */\n      swap1\n      pop\n        /* \"#utility.yul\":14695:15148   */\n      jump(tag_339)\n    tag_341:\n        /* \"#utility.yul\":14699:14713   */\n      pop\n        /* \"#utility.yul\":15164:15168   */\n      dup3\n        /* \"#utility.yul\":15157:15168   */\n      swap8\n      pop\n        /* \"#utility.yul\":15184:15187   */\n      dup8\n        /* \"#utility.yul\":15177:15187   */\n      swap6\n      pop\n        /* \"#utility.yul\":14232:15193   */\n      pop\n      pop\n      pop\n      pop\n      pop\n        /* \"#utility.yul\":14050:15193   */\n      swap3\n      swap2\n      pop\n      pop\n      jump\t// out\n        /* \"#utility.yul\":15199:15688   */\n    tag_23:\n        /* \"#utility.yul\":15400:15404   */\n      0x00\n        /* \"#utility.yul\":15438:15440   */\n      0x20\n        /* \"#utility.yul\":15427:15436   */\n      dup3\n        /* \"#utility.yul\":15423:15441   */\n      add\n        /* \"#utility.yul\":15415:15441   */\n      swap1\n      pop\n        /* \"#utility.yul\":15487:15496   */\n      dup2\n        /* \"#utility.yul\":15481:15485   */\n      dup2\n        /* \"#utility.yul\":15477:15497   */\n      sub\n        /* \"#utility.yul\":15473:15474   */\n      0x00\n        /* \"#utility.yul\":15462:15471   */\n      dup4\n        /* \"#utility.yul\":15458:15475   */\n      add\n        /* \"#utility.yul\":15451:15498   */\n      mstore\n        /* \"#utility.yul\":15515:15681   */\n      tag_345\n        /* \"#utility.yul\":15676:15680   */\n      dup2\n        /* \"#utility.yul\":15667:15673   */\n      dup5\n        /* \"#utility.yul\":15515:15681   */\n      tag_188\n      jump\t// in\n    tag_345:\n        /* \"#utility.yul\":15507:15681   */\n      swap1\n      pop\n        /* \"#utility.yul\":15199:15688   */\n      swap3\n      swap2\n      pop\n      pop\n      jump\t// out\n        /* \"#utility.yul\":15694:15863   */\n    tag_189:\n        /* \"#utility.yul\":15778:15789   */\n      0x00\n        /* \"#utility.yul\":15812:15818   */\n      dup3\n        /* \"#utility.yul\":15807:15810   */\n      dup3\n        /* \"#utility.yul\":15800:15819   */\n      mstore\n        /* \"#utility.yul\":15852:15856   */\n      0x20\n        /* \"#utility.yul\":15847:15850   */\n      dup3\n        /* \"#utility.yul\":15843:15857   */\n      add\n        /* \"#utility.yul\":15828:15857   */\n      swap1\n      pop\n        /* \"#utility.yul\":15694:15863   */\n      swap3\n      swap2\n      pop\n      pop\n      jump\t// out\n        /* \"#utility.yul\":15869:16030   */\n    tag_190:\n        /* \"#utility.yul\":16009:16022   */\n      0x4e6f7420666163746f7279000000000000000000000000000000000000000000\n        /* \"#utility.yul\":16005:16006   */\n      0x00\n        /* \"#utility.yul\":15997:16003   */\n      dup3\n        /* \"#utility.yul\":15993:16007   */\n      add\n        /* \"#utility.yul\":15986:16023   */\n      mstore\n        /* \"#utility.yul\":15869:16030   */\n      pop\n      jump\t// out\n        /* \"#utility.yul\":16036:16402   */\n    tag_191:\n        /* \"#utility.yul\":16178:16181   */\n      0x00\n        /* \"#utility.yul\":16199:16266   */\n      tag_349\n        /* \"#utility.yul\":16263:16265   */\n      0x0b\n        /* \"#utility.yul\":16258:16261   */\n      dup4\n        /* \"#utility.yul\":16199:16266   */\n      tag_189\n      jump\t// in\n    tag_349:\n        /* \"#utility.yul\":16192:16266   */\n      swap2\n      pop\n        /* \"#utility.yul\":16275:16368   */\n      tag_350\n        /* \"#utility.yul\":16364:16367   */\n      dup3\n        /* \"#utility.yul\":16275:16368   */\n      tag_190\n      jump\t// in\n    tag_350:\n        /* \"#utility.yul\":16393:16395   */\n      0x20\n        /* \"#utility.yul\":16388:16391   */\n      dup3\n        /* \"#utility.yul\":16384:16396   */\n      add\n        /* \"#utility.yul\":16377:16396   */\n      swap1\n      pop\n        /* \"#utility.yul\":16036:16402   */\n      swap2\n      swap1\n      pop\n      jump\t// out\n        /* \"#utility.yul\":16408:16827   */\n    tag_31:\n        /* \"#utility.yul\":16574:16578   */\n      0x00\n        /* \"#utility.yul\":16612:16614   */\n      0x20\n        /* \"#utility.yul\":16601:16610   */\n      dup3\n        /* \"#utility.yul\":16597:16615   */\n      add\n        /* \"#utility.yul\":16589:16615   */\n      swap1\n      pop\n        /* \"#utility.yul\":16661:16670   */\n      dup2\n        /* \"#utility.yul\":16655:16659   */\n      dup2\n        /* \"#utility.yul\":16651:16671   */\n      sub\n        /* \"#utility.yul\":16647:16648   */\n      0x00\n        /* \"#utility.yul\":16636:16645   */\n      dup4\n        /* \"#utility.yul\":16632:16649   */\n      add\n        /* \"#utility.yul\":16625:16672   */\n      mstore\n        /* \"#utility.yul\":16689:16820   */\n      tag_352\n        /* \"#utility.yul\":16815:16819   */\n      dup2\n        /* \"#utility.yul\":16689:16820   */\n      tag_191\n      jump\t// in\n    tag_352:\n        /* \"#utility.yul\":16681:16820   */\n      swap1\n      pop\n        /* \"#utility.yul\":16408:16827   */\n      swap2\n      swap1\n      pop\n      jump\t// out\n        /* \"#utility.yul\":16833:17013   */\n    tag_192:\n        /* \"#utility.yul\":16881:16958   */\n      0x4e487b7100000000000000000000000000000000000000000000000000000000\n        /* \"#utility.yul\":16878:16879   */\n      0x00\n        /* \"#utility.yul\":16871:16959   */\n      mstore\n        /* \"#utility.yul\":16978:16982   */\n      0x22\n        /* \"#utility.yul\":16975:16976   */\n      0x04\n        /* \"#utility.yul\":16968:16983   */\n      mstore\n        /* \"#utility.yul\":17002:17006   */\n      0x24\n        /* \"#utility.yul\":16999:17000   */\n      0x00\n        /* \"#utility.yul\":16992:17007   */\n      revert\n        /* \"#utility.yul\":17019:17339   */\n    tag_52:\n        /* \"#utility.yul\":17063:17069   */\n      0x00\n        /* \"#utility.yul\":17100:17101   */\n      0x02\n        /* \"#utility.yul\":17094:17098   */\n      dup3\n        /* \"#utility.yul\":17090:17102   */\n      div\n        /* \"#utility.yul\":17080:17102   */\n      swap1\n      pop\n        /* \"#utility.yul\":17147:17148   */\n      0x01\n        /* \"#utility.yul\":17141:17145   */\n      dup3\n        /* \"#utility.yul\":17137:17149   */\n      and\n        /* \"#utility.yul\":17168:17186   */\n      dup1\n        /* \"#utility.yul\":17158:17239   */\n      tag_355\n      jumpi\n        /* \"#utility.yul\":17224:17228   */\n      0x7f\n        /* \"#utility.yul\":17216:17222   */\n      dup3\n        /* \"#utility.yul\":17212:17229   */\n      and\n        /* \"#utility.yul\":17202:17229   */\n      swap2\n      pop\n        /* \"#utility.yul\":17158:17239   */\n    tag_355:\n        /* \"#utility.yul\":17286:17288   */\n      0x20\n        /* \"#utility.yul\":17278:17284   */\n      dup3\n        /* \"#utility.yul\":17275:17289   */\n      lt\n        /* \"#utility.yul\":17255:17273   */\n      dup2\n        /* \"#utility.yul\":17252:17290   */\n      sub\n        /* \"#utility.yul\":17249:17333   */\n      tag_356\n      jumpi\n        /* \"#utility.yul\":17305:17323   */\n      tag_357\n      tag_192\n      jump\t// in\n    tag_357:\n        /* \"#utility.yul\":17249:17333   */\n    tag_356:\n        /* \"#utility.yul\":17070:17339   */\n      pop\n        /* \"#utility.yul\":17019:17339   */\n      swap2\n      swap1\n      pop\n      jump\t// out\n        /* \"#utility.yul\":17345:17486   */\n    tag_193:\n        /* \"#utility.yul\":17394:17398   */\n      0x00\n        /* \"#utility.yul\":17417:17420   */\n      dup2\n        /* \"#utility.yul\":17409:17420   */\n      swap1\n      pop\n        /* \"#utility.yul\":17440:17443   */\n      dup2\n        /* \"#utility.yul\":17437:17438   */\n      0x00\n        /* \"#utility.yul\":17430:17444   */\n      mstore\n        /* \"#utility.yul\":17474:17478   */\n      0x20\n        /* \"#utility.yul\":17471:17472   */\n      0x00\n        /* \"#utility.yul\":17461:17479   */\n      keccak256\n        /* \"#utility.yul\":17453:17479   */\n      swap1\n      pop\n        /* \"#utility.yul\":17345:17486   */\n      swap2\n      swap1\n      pop\n      jump\t// out\n        /* \"#utility.yul\":17492:17585   */\n    tag_194:\n        /* \"#utility.yul\":17529:17535   */\n      0x00\n        /* \"#utility.yul\":17576:17578   */\n      0x20\n        /* \"#utility.yul\":17571:17573   */\n      0x1f\n        /* \"#utility.yul\":17564:17569   */\n      dup4\n        /* \"#utility.yul\":17560:17574   */\n      add\n        /* \"#utility.yul\":17556:17579   */\n      div\n        /* \"#utility.yul\":17546:17579   */\n      swap1\n      pop\n        /* \"#utility.yul\":17492:17585   */\n      swap2\n      swap1\n      pop\n      jump\t// out\n        /* \"#utility.yul\":17591:17698   */\n    tag_195:\n        /* \"#utility.yul\":17635:17643   */\n      0x00\n        /* \"#utility.yul\":17685:17690   */\n      dup3\n        /* \"#utility.yul\":17679:17683   */\n      dup3\n        /* \"#utility.yul\":17675:17691   */\n      shl\n        /* \"#utility.yul\":17654:17691   */\n      swap1\n      pop\n        /* \"#utility.yul\":17591:17698   */\n      swap3\n      swap2\n      pop\n      pop\n      jump\t// out\n        /* \"#utility.yul\":17704:18097   */\n    tag_196:\n        /* \"#utility.yul\":17773:17779   */\n      0x00\n        /* \"#utility.yul\":17823:17824   */\n      0x08\n        /* \"#utility.yul\":17811:17821   */\n      dup4\n        /* \"#utility.yul\":17807:17825   */\n      mul\n        /* \"#utility.yul\":17846:17943   */\n      tag_362\n        /* \"#utility.yul\":17876:17942   */\n      0xffffffffffffffffffffffffffffffffffffffffffffffffffffffffffffffff\n        /* \"#utility.yul\":17865:17874   */\n      dup3\n        /* \"#utility.yul\":17846:17943   */\n      tag_195\n      jump\t// in\n    tag_362:\n        /* \"#utility.yul\":17964:18003   */\n      tag_363\n        /* \"#utility.yul\":17994:18002   */\n      dup7\n        /* \"#utility.yul\":17983:17992   */\n      dup4\n        /* \"#utility.yul\":17964:18003   */\n      tag_195\n      jump\t// in\n    tag_363:\n        /* \"#utility.yul\":17952:18003   */\n      swap6\n      pop\n        /* \"#utility.yul\":18036:18040   */\n      dup1\n        /* \"#utility.yul\":18032:18041   */\n      not\n        /* \"#utility.yul\":18025:18030   */\n      dup5\n        /* \"#utility.yul\":18021:18042   */\n      and\n        /* \"#utility.yul\":18012:18042   */\n      swap4\n      pop\n        /* \"#utility.yul\":18085:18089   */\n      dup1\n        /* \"#utility.yul\":18075:18083   */\n      dup7\n        /* \"#utility.yul\":18071:18090   */\n      and\n        /* \"#utility.yul\":18064:18069   */\n      dup5\n        /* \"#utility.yul\":18061:18091   */\n      or\n        /* \"#utility.yul\":18051:18091   */\n      swap3\n      pop\n        /* \"#utility.yul\":17780:18097   */\n      pop\n      pop\n        /* \"#utility.yul\":17704:18097   */\n      swap4\n      swap3\n      pop\n      pop\n      pop\n      jump\t// out\n        /* \"#utility.yul\":18103:18163   */\n    tag_197:\n        /* \"#utility.yul\":18131:18134   */\n      0x00\n        /* \"#utility.yul\":18152:18157   */\n      dup2\n        /* \"#utility.yul\":18145:18157   */\n      swap1\n      pop\n        /* \"#utility.yul\":18103:18163   */\n      swap2\n      swap1\n      pop\n      jump\t// out\n        /* \"#utility.yul\":18169:18311   */\n    tag_198:\n        /* \"#utility.yul\":18219:18228   */\n      0x00\n        /* \"#utility.yul\":18252:18305   */\n      tag_366\n        /* \"#utility.yul\":18270:18304   */\n      tag_367\n        /* \"#utility.yul\":18279:18303   */\n      tag_368\n        /* \"#utility.yul\":18297:18302   */\n      dup5\n        /* \"#utility.yul\":18279:18303   */\n      tag_149\n      jump\t// in\n    tag_368:\n        /* \"#utility.yul\":18270:18304   */\n      tag_197\n      jump\t// in\n    tag_367:\n        /* \"#utility.yul\":18252:18305   */\n      tag_149\n      jump\t// in\n    tag_366:\n        /* \"#utility.yul\":18239:18305   */\n      swap1\n      pop\n        /* \"#utility.yul\":18169:18311   */\n      swap2\n      swap1\n      pop\n      jump\t// out\n        /* \"#utility.yul\":18317:18392   */\n    tag_199:\n        /* \"#utility.yul\":18360:18363   */\n      0x00\n        /* \"#utility.yul\":18381:18386   */\n      dup2\n        /* \"#utility.yul\":18374:18386   */\n      swap1\n      pop\n        /* \"#utility.yul\":18317:18392   */\n      swap2\n      swap1\n      pop\n      jump\t// out\n        /* \"#utility.yul\":18398:18667   */\n    tag_200:\n        /* \"#utility.yul\":18508:18547   */\n      tag_371\n        /* \"#utility.yul\":18539:18546   */\n      dup4\n        /* \"#utility.yul\":18508:18547   */\n      tag_198\n      jump\t// in\n    tag_371:\n        /* \"#utility.yul\":18569:18660   */\n      tag_372\n        /* \"#utility.yul\":18618:18659   */\n      tag_373\n        /* \"#utility.yul\":18642:18658   */\n      dup3\n        /* \"#utility.yul\":18618:18659   */\n      tag_199\n      jump\t// in\n    tag_373:\n        /* \"#utility.yul\":18610:18616   */\n      dup5\n        /* \"#utility.yul\":18603:18607   */\n      dup5\n        /* \"#utility.yul\":18597:18608   */\n      sload\n        /* \"#utility.yul\":18569:18660   */\n      tag_196\n      jump\t// in\n    tag_372:\n        /* \"#utility.yul\":18563:18567   */\n      dup3\n        /* \"#utility.yul\":18556:18661   */\n      sstore\n        /* \"#utility.yul\":18474:18667   */\n      pop\n        /* \"#utility.yul\":18398:18667   */\n      pop\n      pop\n      pop\n      jump\t// out\n        /* \"#utility.yul\":18673:18746   */\n    tag_201:\n        /* \"#utility.yul\":18718:18721   */\n      0x00\n        /* \"#utility.yul\":18739:18740   */\n      0x00\n        /* \"#utility.yul\":18732:18740   */\n      swap1\n      pop\n        /* \"#utility.yul\":18673:18746   */\n      swap1\n      jump\t// out\n        /* \"#utility.yul\":18752:18941   */\n    tag_202:\n        /* \"#utility.yul\":18829:18861   */\n      tag_376\n      tag_201\n      jump\t// in\n    tag_376:\n        /* \"#utility.yul\":18870:18935   */\n      tag_377\n        /* \"#utility.yul\":18928:18934   */\n      dup2\n        /* \"#utility.yul\":18920:18926   */\n      dup5\n        /* \"#utility.yul\":18914:18918   */\n      dup5\n        /* \"#utility.yul\":18870:18935   */\n      tag_200\n      jump\t// in\n    tag_377:\n        /* \"#utility.yul\":18805:18941   */\n      pop\n        /* \"#utility.yul\":18752:18941   */\n      pop\n      pop\n      jump\t// out\n        /* \"#utility.yul\":18947:19133   */\n    tag_203:\n        /* \"#utility.yul\":19007:19127   */\n    tag_379:\n        /* \"#utility.yul\":19024:19027   */\n      dup2\n        /* \"#utility.yul\":19017:19022   */\n      dup2\n        /* \"#utility.yul\":19014:19028   */\n      lt\n        /* \"#utility.yul\":19007:19127   */\n      iszero\n      tag_381\n      jumpi\n        /* \"#utility.yul\":19078:19117   */\n      tag_382\n        /* \"#utility.yul\":19115:19116   */\n      0x00\n        /* \"#utility.yul\":19108:19113   */\n      dup3\n        /* \"#utility.yul\":19078:19117   */\n      tag_202\n      jump\t// in\n    tag_382:\n        /* \"#utility.yul\":19051:19052   */\n      0x01\n        /* \"#utility.yul\":19044:19049   */\n      dup2\n        /* \"#utility.yul\":19040:19053   */\n      add\n        /* \"#utility.yul\":19031:19053   */\n      swap1\n      pop\n        /* \"#utility.yul\":19007:19127   */\n      jump(tag_379)\n    tag_381:\n        /* \"#utility.yul\":18947:19133   */\n      pop\n      pop\n      jump\t// out\n        /* \"#utility.yul\":19139:19682   */\n    tag_204:\n        /* \"#utility.yul\":19240:19242   */\n      0x1f\n        /* \"#utility.yul\":19235:19238   */\n      dup3\n        /* \"#utility.yul\":19232:19243   */\n      gt\n        /* \"#utility.yul\":19229:19675   */\n      iszero\n      tag_384\n      jumpi\n        /* \"#utility.yul\":19274:19312   */\n      tag_385\n        /* \"#utility.yul\":19306:19311   */\n      dup2\n        /* \"#utility.yul\":19274:19312   */\n      tag_193\n      jump\t// in\n    tag_385:\n        /* \"#utility.yul\":19358:19387   */\n      tag_386\n        /* \"#utility.yul\":19376:19386   */\n      dup5\n        /* \"#utility.yul\":19358:19387   */\n      tag_194\n      jump\t// in\n    tag_386:\n        /* \"#utility.yul\":19348:19356   */\n      dup2\n        /* \"#utility.yul\":19344:19388   */\n      add\n        /* \"#utility.yul\":19541:19543   */\n      0x20\n        /* \"#utility.yul\":19529:19539   */\n      dup6\n        /* \"#utility.yul\":19526:19544   */\n      lt\n        /* \"#utility.yul\":19523:19572   */\n      iszero\n      tag_387\n      jumpi\n        /* \"#utility.yul\":19562:19570   */\n      dup2\n        /* \"#utility.yul\":19547:19570   */\n      swap1\n      pop\n        /* \"#utility.yul\":19523:19572   */\n    tag_387:\n        /* \"#utility.yul\":19585:19665   */\n      tag_388\n        /* \"#utility.yul\":19641:19663   */\n      tag_389\n        /* \"#utility.yul\":19659:19662   */\n      dup6\n        /* \"#utility.yul\":19641:19663   */\n      tag_194\n      jump\t// in\n    tag_389:\n        /* \"#utility.yul\":19631:19639   */\n      dup4\n        /* \"#utility.yul\":19627:19664   */\n      add\n        /* \"#utility.yul\":19614:19625   */\n      dup3\n        /* \"#utility.yul\":19585:19665   */\n      tag_203\n      jump\t// in\n    tag_388:\n        /* \"#utility.yul\":19244:19675   */\n      pop\n      pop\n        /* \"#utility.yul\":19229:19675   */\n    tag_384:\n        /* \"#utility.yul\":19139:19682   */\n      pop\n      pop\n      pop\n      jump\t// out\n        /* \"#utility.yul\":19688:19805   */\n    tag_205:\n        /* \"#utility.yul\":19742:19750   */\n      0x00\n        /* \"#utility.yul\":19792:19797   */\n      dup3\n        /* \"#utility.yul\":19786:19790   */\n      dup3\n        /* \"#utility.yul\":19782:19798   */\n      shr\n        /* \"#utility.yul\":19761:19798   */\n      swap1\n      pop\n        /* \"#utility.yul\":19688:19805   */\n      swap3\n      swap2\n      pop\n      pop\n      jump\t// out\n        /* \"#utility.yul\":19811:19980   */\n    tag_206:\n        /* \"#utility.yul\":19855:19861   */\n      0x00\n        /* \"#utility.yul\":19888:19939   */\n      tag_392\n        /* \"#utility.yul\":19936:19937   */\n      0x00\n        /* \"#utility.yul\":19932:19938   */\n      not\n        /* \"#utility.yul\":19924:19929   */\n      dup5\n        /* \"#utility.yul\":19921:19922   */\n      0x08\n        /* \"#utility.yul\":19917:19930   */\n      mul\n        /* \"#utility.yul\":19888:19939   */\n      tag_205\n      jump\t// in\n    tag_392:\n        /* \"#utility.yul\":19884:19940   */\n      not\n        /* \"#utility.yul\":19969:19973   */\n      dup1\n        /* \"#utility.yul\":19963:19967   */\n      dup4\n        /* \"#utility.yul\":19959:19974   */\n      and\n        /* \"#utility.yul\":19949:19974   */\n      swap2\n      pop\n        /* \"#utility.yul\":19862:19980   */\n      pop\n        /* \"#utility.yul\":19811:19980   */\n      swap3\n      swap2\n      pop\n      pop\n      jump\t// out\n        /* \"#utility.yul\":19985:20280   */\n    tag_207:\n        /* \"#utility.yul\":20061:20065   */\n      0x00\n        /* \"#utility.yul\":20207:20236   */\n      tag_394\n        /* \"#utility.yul\":20232:20235   */\n      dup4\n        /* \"#utility.yul\":20226:20230   */\n      dup4\n        /* \"#utility.yul\":20207:20236   */\n      tag_206\n      jump\t// in\n    tag_394:\n        /* \"#utility.yul\":20199:20236   */\n      swap2\n      pop\n        /* \"#utility.yul\":20269:20272   */\n      dup3\n        /* \"#utility.yul\":20266:20267   */\n      0x02\n        /* \"#utility.yul\":20262:20273   */\n      mul\n        /* \"#utility.yul\":20256:20260   */\n      dup3\n        /* \"#utility.yul\":20253:20274   */\n      or\n        /* \"#utility.yul\":20245:20274   */\n      swap1\n      pop\n        /* \"#utility.yul\":19985:20280   */\n      swap3\n      swap2\n      pop\n      pop\n      jump\t// out\n        /* \"#utility.yul\":20285:21680   */\n    tag_35:\n        /* \"#utility.yul\":20402:20439   */\n      tag_396\n        /* \"#utility.yul\":20435:20438   */\n      dup3\n        /* \"#utility.yul\":20402:20439   */\n      tag_180\n      jump\t// in\n    tag_396:\n        /* \"#utility.yul\":20504:20522   */\n      0xffffffffffffffff\n        /* \"#utility.yul\":20496:20502   */\n      dup2\n        /* \"#utility.yul\":20493:20523   */\n      gt\n        /* \"#utility.yul\":20490:20546   */\n      iszero\n      tag_397\n      jumpi\n        /* \"#utility.yul\":20526:20544   */\n      tag_398\n      tag_156\n      jump\t// in\n    tag_398:\n        /* \"#utility.yul\":20490:20546   */\n    tag_397:\n        /* \"#utility.yul\":20570:20608   */\n      tag_399\n        /* \"#utility.yul\":20602:20606   */\n      dup3\n        /* \"#utility.yul\":20596:20607   */\n      sload\n        /* \"#utility.yul\":20570:20608   */\n      tag_52\n      jump\t// in\n    tag_399:\n        /* \"#utility.yul\":20655:20722   */\n      tag_400\n        /* \"#utility.yul\":20715:20721   */\n      dup3\n        /* \"#utility.yul\":20707:20713   */\n      dup3\n        /* \"#utility.yul\":20701:20705   */\n      dup6\n        /* \"#utility.yul\":20655:20722   */\n      tag_204\n      jump\t// in\n    tag_400:\n        /* \"#utility.yul\":20749:20750   */\n      0x00\n        /* \"#utility.yul\":20773:20777   */\n      0x20\n        /* \"#utility.yul\":20760:20777   */\n      swap1\n      pop\n        /* \"#utility.yul\":20805:20807   */\n      0x1f\n        /* \"#utility.yul\":20797:20803   */\n      dup4\n        /* \"#utility.yul\":20794:20808   */\n      gt\n        /* \"#utility.yul\":20822:20823   */\n      0x01\n        /* \"#utility.yul\":20817:21435   */\n      dup2\n      eq\n      tag_402\n      jumpi\n        /* \"#utility.yul\":21479:21480   */\n      0x00\n        /* \"#utility.yul\":21496:21502   */\n      dup5\n        /* \"#utility.yul\":21493:21570   */\n      iszero\n      tag_403\n      jumpi\n        /* \"#utility.yul\":21545:21554   */\n      dup3\n        /* \"#utility.yul\":21540:21543   */\n      dup8\n        /* \"#utility.yul\":21536:21555   */\n      add\n        /* \"#utility.yul\":21530:21556   */\n      mload\n        /* \"#utility.yul\":21521:21556   */\n      swap1\n      pop\n        /* \"#utility.yul\":21493:21570   */\n    tag_403:\n        /* \"#utility.yul\":21596:21663   */\n      tag_404\n        /* \"#utility.yul\":21656:21662   */\n      dup6\n        /* \"#utility.yul\":21649:21654   */\n      dup3\n        /* \"#utility.yul\":21596:21663   */\n      tag_207\n      jump\t// in\n    tag_404:\n        /* \"#utility.yul\":21590:21594   */\n      dup7\n        /* \"#utility.yul\":21583:21664   */\n      sstore\n        /* \"#utility.yul\":21452:21674   */\n      pop\n        /* \"#utility.yul\":20787:21674   */\n      jump(tag_401)\n        /* \"#utility.yul\":20817:21435   */\n    tag_402:\n        /* \"#utility.yul\":20869:20873   */\n      0x1f\n        /* \"#utility.yul\":20865:20874   */\n      not\n        /* \"#utility.yul\":20857:20863   */\n      dup5\n        /* \"#utility.yul\":20853:20875   */\n      and\n        /* \"#utility.yul\":20903:20940   */\n      tag_405\n        /* \"#utility.yul\":20935:20939   */\n      dup7\n        /* \"#utility.yul\":20903:20940   */\n      tag_193\n      jump\t// in\n    tag_405:\n        /* \"#utility.yul\":20962:20963   */\n      0x00\n        /* \"#utility.yul\":20976:21184   */\n    tag_406:\n        /* \"#utility.yul\":20990:20997   */\n      dup3\n        /* \"#utility.yul\":20987:20988   */\n      dup2\n        /* \"#utility.yul\":20984:20998   */\n      lt\n        /* \"#utility.yul\":20976:21184   */\n      iszero\n      tag_408\n      jumpi\n        /* \"#utility.yul\":21069:21078   */\n      dup5\n        /* \"#utility.yul\":21064:21067   */\n      dup10\n        /* \"#utility.yul\":21060:21079   */\n      add\n        /* \"#utility.yul\":21054:21080   */\n      mload\n        /* \"#utility.yul\":21046:21052   */\n      dup3\n        /* \"#utility.yul\":21039:21081   */\n      sstore\n        /* \"#utility.yul\":21120:21121   */\n      0x01\n        /* \"#utility.yul\":21112:21118   */\n      dup3\n        /* \"#utility.yul\":21108:21122   */\n      add\n        /* \"#utility.yul\":21098:21122   */\n      swap2\n      pop\n        /* \"#utility.yul\":21167:21169   */\n      0x20\n        /* \"#utility.yul\":21156:21165   */\n      dup6\n        /* \"#utility.yul\":21152:21170   */\n      add\n        /* \"#utility.yul\":21139:21170   */\n      swap5\n      pop\n        /* \"#utility.yul\":21013:21017   */\n      0x20\n        /* \"#utility.yul\":21010:21011   */\n      dup2\n        /* \"#utility.yul\":21006:21018   */\n      add\n        /* \"#utility.yul\":21001:21018   */\n      swap1\n      pop\n        /* \"#utility.yul\":20976:21184   */\n      jump(tag_406)\n    tag_408:\n        /* \"#utility.yul\":21212:21218   */\n      dup7\n        /* \"#utility.yul\":21203:21210   */\n      dup4\n        /* \"#utility.yul\":21200:21219   */\n      lt\n        /* \"#utility.yul\":21197:21376   */\n      iszero\n      tag_409\n      jumpi\n        /* \"#utility.yul\":21270:21279   */\n      dup5\n        /* \"#utility.yul\":21265:21268   */\n      dup10\n        /* \"#utility.yul\":21261:21280   */\n      add\n        /* \"#utility.yul\":21255:21281   */\n      mload\n        /* \"#utility.yul\":21313:21361   */\n      tag_410\n        /* \"#utility.yul\":21355:21359   */\n      0x1f\n        /* \"#utility.yul\":21347:21353   */\n      dup10\n        /* \"#utility.yul\":21343:21360   */\n      and\n        /* \"#utility.yul\":21332:21341   */\n      dup3\n        /* \"#utility.yul\":21313:21361   */\n      tag_206\n      jump\t// in\n    tag_410:\n        /* \"#utility.yul\":21305:21311   */\n      dup4\n        /* \"#utility.yul\":21298:21362   */\n      sstore\n        /* \"#utility.yul\":21220:21376   */\n      pop\n        /* \"#utility.yul\":21197:21376   */\n    tag_409:\n        /* \"#utility.yul\":21422:21423   */\n      0x01\n        /* \"#utility.yul\":21418:21419   */\n      0x02\n        /* \"#utility.yul\":21410:21416   */\n      dup9\n        /* \"#utility.yul\":21406:21420   */\n      mul\n        /* \"#utility.yul\":21402:21424   */\n      add\n        /* \"#utility.yul\":21396:21400   */\n      dup9\n        /* \"#utility.yul\":21389:21425   */\n      sstore\n        /* \"#utility.yul\":20824:21435   */\n      pop\n      pop\n      pop\n        /* \"#utility.yul\":20787:21674   */\n    tag_401:\n      pop\n        /* \"#utility.yul\":20377:21680   */\n      pop\n      pop\n      pop\n        /* \"#utility.yul\":20285:21680   */\n      pop\n      pop\n      jump\t// out\n\n    auxdata: 0xa264697066735822122033d7059bb9720c95499455a4433d2ae7223b679a10e4cf647a49616320edd6ce64736f6c634300081e0033\n}\n",
				"bytecode": {
					"linkReferences": {},
					"object": "6080604052348015600e575f5ffd5b503360015f6101000a81548173ffffffffffffffffffffffffffffffffffffffff021916908373ffffffffffffffffffffffffffffffffffffffff160217905550611ae78061005c5f395ff3fe608060405234801561000f575f5ffd5b5060043610610055575f3560e01c8063a6478d9714610059578063a8f9b0af14610077578063c45a015514610093578063ea6c8353146100b1578063fb34b3a9146100cf575b5f5ffd5b6100616100ed565b60405161006e919061103d565b60405180910390f35b610091600480360381019061008c919061143c565b6100f8565b005b61009b6102fe565b6040516100a891906114c2565b60405180910390f35b6100b9610323565b6040516100c6919061174d565b60405180910390f35b6100d76109a4565b6040516100e4919061174d565b60405180910390f35b5f5f80549050905090565b60015f9054906101000a900473ffffffffffffffffffffffffffffffffffffffff1673ffffffffffffffffffffffffffffffffffffffff163373ffffffffffffffffffffffffffffffffffffffff1614610187576040517f08c379a000000000000000000000000000000000000000000000000000000000815260040161017e906117c7565b60405180910390fd5b5f81908060018154018082558091505060019003905f5260205f2090600c02015f909190919091505f820151815f015f6101000a81548167ffffffffffffffff021916908367ffffffffffffffff16021790555060208201518160010190816101f091906119e2565b50604082015181600201908161020691906119e2565b50606082015181600301908161021c91906119e2565b50608082015181600401908161023291906119e2565b5060a082015181600501908161024891906119e2565b5060c0820151816006015f6101000a81548167ffffffffffffffff021916908367ffffffffffffffff16021790555060e082015181600701908161028c91906119e2565b50610100820151816008015f6101000a81548163ffffffff021916908363ffffffff1602179055506101208201518160090190816102ca91906119e2565b5061014082015181600a0190816102e191906119e2565b5061016082015181600b0190816102f891906119e2565b50505050565b60015f9054906101000a900473ffffffffffffffffffffffffffffffffffffffff1681565b606060015f9054906101000a900473ffffffffffffffffffffffffffffffffffffffff1673ffffffffffffffffffffffffffffffffffffffff163373ffffffffffffffffffffffffffffffffffffffff16146103b4576040517f08c379a00000000000000000000000000000000000000000000000000000000081526004016103ab906117c7565b60405180910390fd5b5f805480602002602001604051908101604052809291908181526020015f905b8282101561099b578382905f5260205f2090600c0201604051806101800160405290815f82015f9054906101000a900467ffffffffffffffff1667ffffffffffffffff1667ffffffffffffffff16815260200160018201805461043690611812565b80601f016020809104026020016040519081016040528092919081815260200182805461046290611812565b80156104ad5780601f10610484576101008083540402835291602001916104ad565b820191905f5260205f20905b81548152906001019060200180831161049057829003601f168201915b505050505081526020016002820180546104c690611812565b80601f01602080910402602001604051908101604052809291908181526020018280546104f290611812565b801561053d5780601f106105145761010080835404028352916020019161053d565b820191905f5260205f20905b81548152906001019060200180831161052057829003601f168201915b5050505050815260200160038201805461055690611812565b80601f016020809104026020016040519081016040528092919081815260200182805461058290611812565b80156105cd5780601f106105a4576101008083540402835291602001916105cd565b820191905f5260205f20905b8154815290600101906020018083116105b057829003601f168201915b505050505081526020016004820180546105e690611812565b80601f016020809104026020016040519081016040528092919081815260200182805461061290611812565b801561065d5780601f106106345761010080835404028352916020019161065d565b820191905f5260205f20905b81548152906001019060200180831161064057829003601f168201915b5050505050815260200160058201805461067690611812565b80601f01602080910402602001604051908101604052809291908181526020018280546106a290611812565b80156106ed5780601f106106c4576101008083540402835291602001916106ed565b820191905f5260205f20905b8154815290600101906020018083116106d057829003601f168201915b50505050508152602001600682015f9054906101000a900467ffffffffffffffff1667ffffffffffffffff1667ffffffffffffffff16815260200160078201805461073790611812565b80601f016020809104026020016040519081016040528092919081815260200182805461076390611812565b80156107ae5780601f10610785576101008083540402835291602001916107ae565b820191905f5260205f20905b81548152906001019060200180831161079157829003601f168201915b50505050508152602001600882015f9054906101000a900463ffffffff1663ffffffff1663ffffffff1681526020016009820180546107ec90611812565b80601f016020809104026020016040519081016040528092919081815260200182805461081890611812565b80156108635780601f1061083a57610100808354040283529160200191610863565b820191905f5260205f20905b81548152906001019060200180831161084657829003601f168201915b50505050508152602001600a8201805461087c90611812565b80601f01602080910402602001604051908101604052809291908181526020018280546108a890611812565b80156108f35780601f106108ca576101008083540402835291602001916108f3565b820191905f5260205f20905b8154815290600101906020018083116108d657829003601f168201915b50505050508152602001600b8201805461090c90611812565b80601f016020809104026020016040519081016040528092919081815260200182805461093890611812565b80156109835780601f1061095a57610100808354040283529160200191610983565b820191905f5260205f20905b81548152906001019060200180831161096657829003601f168201915b505050505081525050815260200190600101906103d4565b50505050905090565b606060015f9054906101000a900473ffffffffffffffffffffffffffffffffffffffff1673ffffffffffffffffffffffffffffffffffffffff163373ffffffffffffffffffffffffffffffffffffffff1614610a35576040517f08c379a0000000000000000000000000000000000000000000000000000000008152600401610a2c906117c7565b60405180910390fd5b5f805480602002602001604051908101604052809291908181526020015f905b8282101561101c578382905f5260205f2090600c0201604051806101800160405290815f82015f9054906101000a900467ffffffffffffffff1667ffffffffffffffff1667ffffffffffffffff168152602001600182018054610ab790611812565b80601f0160208091040260200160405190810160405280929190818152602001828054610ae390611812565b8015610b2e5780601f10610b0557610100808354040283529160200191610b2e565b820191905f5260205f20905b815481529060010190602001808311610b1157829003601f168201915b50505050508152602001600282018054610b4790611812565b80601f0160208091040260200160405190810160405280929190818152602001828054610b7390611812565b8015610bbe5780601f10610b9557610100808354040283529160200191610bbe565b820191905f5260205f20905b815481529060010190602001808311610ba157829003601f168201915b50505050508152602001600382018054610bd790611812565b80601f0160208091040260200160405190810160405280929190818152602001828054610c0390611812565b8015610c4e5780601f10610c2557610100808354040283529160200191610c4e565b820191905f5260205f20905b815481529060010190602001808311610c3157829003601f168201915b50505050508152602001600482018054610c6790611812565b80601f0160208091040260200160405190810160405280929190818152602001828054610c9390611812565b8015610cde5780601f10610cb557610100808354040283529160200191610cde565b820191905f5260205f20905b815481529060010190602001808311610cc157829003601f168201915b50505050508152602001600582018054610cf790611812565b80601f0160208091040260200160405190810160405280929190818152602001828054610d2390611812565b8015610d6e5780601f10610d4557610100808354040283529160200191610d6e565b820191905f5260205f20905b815481529060010190602001808311610d5157829003601f168201915b50505050508152602001600682015f9054906101000a900467ffffffffffffffff1667ffffffffffffffff1667ffffffffffffffff168152602001600782018054610db890611812565b80601f0160208091040260200160405190810160405280929190818152602001828054610de490611812565b8015610e2f5780601f10610e0657610100808354040283529160200191610e2f565b820191905f5260205f20905b815481529060010190602001808311610e1257829003601f168201915b50505050508152602001600882015f9054906101000a900463ffffffff1663ffffffff1663ffffffff168152602001600982018054610e6d90611812565b80601f0160208091040260200160405190810160405280929190818152602001828054610e9990611812565b8015610ee45780601f10610ebb57610100808354040283529160200191610ee4565b820191905f5260205f20905b815481529060010190602001808311610ec757829003601f168201915b50505050508152602001600a82018054610efd90611812565b80601f0160208091040260200160405190810160405280929190818152602001828054610f2990611812565b8015610f745780601f10610f4b57610100808354040283529160200191610f74565b820191905f5260205f20905b815481529060010190602001808311610f5757829003601f168201915b50505050508152602001600b82018054610f8d90611812565b80601f0160208091040260200160405190810160405280929190818152602001828054610fb990611812565b80156110045780601f10610fdb57610100808354040283529160200191611004565b820191905f5260205f20905b815481529060010190602001808311610fe757829003601f168201915b50505050508152505081526020019060010190610a55565b50505050905090565b5f819050919050565b61103781611025565b82525050565b5f6020820190506110505f83018461102e565b92915050565b5f604051905090565b5f5ffd5b5f5ffd5b5f5ffd5b5f601f19601f8301169050919050565b7f4e487b71000000000000000000000000000000000000000000000000000000005f52604160045260245ffd5b6110b18261106b565b810181811067ffffffffffffffff821117156110d0576110cf61107b565b5b80604052505050565b5f6110e2611056565b90506110ee82826110a8565b919050565b5f5ffd5b5f67ffffffffffffffff82169050919050565b611113816110f7565b811461111d575f5ffd5b50565b5f8135905061112e8161110a565b92915050565b5f5ffd5b5f5ffd5b5f67ffffffffffffffff8211156111565761115561107b565b5b61115f8261106b565b9050602081019050919050565b828183375f83830152505050565b5f61118c6111878461113c565b6110d9565b9050828152602081018484840111156111a8576111a7611138565b5b6111b384828561116c565b509392505050565b5f82601f8301126111cf576111ce611134565b5b81356111df84826020860161117a565b91505092915050565b5f63ffffffff82169050919050565b611200816111e8565b811461120a575f5ffd5b50565b5f8135905061121b816111f7565b92915050565b5f610180828403121561123757611236611067565b5b6112426101806110d9565b90505f61125184828501611120565b5f83015250602082013567ffffffffffffffff811115611274576112736110f3565b5b611280848285016111bb565b602083015250604082013567ffffffffffffffff8111156112a4576112a36110f3565b5b6112b0848285016111bb565b604083015250606082013567ffffffffffffffff8111156112d4576112d36110f3565b5b6112e0848285016111bb565b606083015250608082013567ffffffffffffffff811115611304576113036110f3565b5b611310848285016111bb565b60808301525060a082013567ffffffffffffffff811115611334576113336110f3565b5b611340848285016111bb565b60a08301525060c061135484828501611120565b60c08301525060e082013567ffffffffffffffff811115611378576113776110f3565b5b611384848285016111bb565b60e0830152506101006113998482850161120d565b6101008301525061012082013567ffffffffffffffff8111156113bf576113be6110f3565b5b6113cb848285016111bb565b6101208301525061014082013567ffffffffffffffff8111156113f1576113f06110f3565b5b6113fd848285016111bb565b6101408301525061016082013567ffffffffffffffff811115611423576114226110f3565b5b61142f848285016111bb565b6101608301525092915050565b5f602082840312156114515761145061105f565b5b5f82013567ffffffffffffffff81111561146e5761146d611063565b5b61147a84828501611221565b91505092915050565b5f73ffffffffffffffffffffffffffffffffffffffff82169050919050565b5f6114ac82611483565b9050919050565b6114bc816114a2565b82525050565b5f6020820190506114d55f8301846114b3565b92915050565b5f81519050919050565b5f82825260208201905092915050565b5f819050602082019050919050565b61150d816110f7565b82525050565b5f81519050919050565b5f82825260208201905092915050565b8281835e5f83830152505050565b5f61154582611513565b61154f818561151d565b935061155f81856020860161152d565b6115688161106b565b840191505092915050565b61157c816111e8565b82525050565b5f61018083015f8301516115985f860182611504565b50602083015184820360208601526115b0828261153b565b915050604083015184820360408601526115ca828261153b565b915050606083015184820360608601526115e4828261153b565b915050608083015184820360808601526115fe828261153b565b91505060a083015184820360a0860152611618828261153b565b91505060c083015161162d60c0860182611504565b5060e083015184820360e0860152611645828261153b565b91505061010083015161165c610100860182611573565b50610120830151848203610120860152611676828261153b565b915050610140830151848203610140860152611692828261153b565b9150506101608301518482036101608601526116ae828261153b565b9150508091505092915050565b5f6116c68383611582565b905092915050565b5f602082019050919050565b5f6116e4826114db565b6116ee81856114e5565b935083602082028501611700856114f5565b805f5b8581101561173b578484038952815161171c85826116bb565b9450611727836116ce565b925060208a01995050600181019050611703565b50829750879550505050505092915050565b5f6020820190508181035f83015261176581846116da565b905092915050565b5f82825260208201905092915050565b7f4e6f7420666163746f72790000000000000000000000000000000000000000005f82015250565b5f6117b1600b8361176d565b91506117bc8261177d565b602082019050919050565b5f6020820190508181035f8301526117de816117a5565b9050919050565b7f4e487b71000000000000000000000000000000000000000000000000000000005f52602260045260245ffd5b5f600282049050600182168061182957607f821691505b60208210810361183c5761183b6117e5565b5b50919050565b5f819050815f5260205f209050919050565b5f6020601f8301049050919050565b5f82821b905092915050565b5f6008830261189e7fffffffffffffffffffffffffffffffffffffffffffffffffffffffffffffffff82611863565b6118a88683611863565b95508019841693508086168417925050509392505050565b5f819050919050565b5f6118e36118de6118d984611025565b6118c0565b611025565b9050919050565b5f819050919050565b6118fc836118c9565b611910611908826118ea565b84845461186f565b825550505050565b5f5f905090565b611927611918565b6119328184846118f3565b505050565b5b818110156119555761194a5f8261191f565b600181019050611938565b5050565b601f82111561199a5761196b81611842565b61197484611854565b81016020851015611983578190505b61199761198f85611854565b830182611937565b50505b505050565b5f82821c905092915050565b5f6119ba5f198460080261199f565b1980831691505092915050565b5f6119d283836119ab565b9150826002028217905092915050565b6119eb82611513565b67ffffffffffffffff811115611a0457611a0361107b565b5b611a0e8254611812565b611a19828285611959565b5f60209050601f831160018114611a4a575f8415611a38578287015190505b611a4285826119c7565b865550611aa9565b601f198416611a5886611842565b5f5b82811015611a7f57848901518255600182019150602085019450602081019050611a5a565b86831015611a9c5784890151611a98601f8916826119ab565b8355505b6001600288020188555050505b50505050505056fea264697066735822122033d7059bb9720c95499455a4433d2ae7223b679a10e4cf647a49616320edd6ce64736f6c634300081e0033",
					"opcodes": "PUSH1 0x80 PUSH1 0x40 MSTORE CALLVALUE DUP1 ISZERO PUSH1 0xE JUMPI PUSH0 PUSH0 REVERT JUMPDEST POP CALLER PUSH1 0x1 PUSH0 PUSH2 0x100 EXP DUP2 SLOAD DUP2 PUSH20 0xFFFFFFFFFFFFFFFFFFFFFFFFFFFFFFFFFFFFFFFF MUL NOT AND SWAP1 DUP4 PUSH20 0xFFFFFFFFFFFFFFFFFFFFFFFFFFFFFFFFFFFFFFFF AND MUL OR SWAP1 SSTORE POP PUSH2 0x1AE7 DUP1 PUSH2 0x5C PUSH0 CODECOPY PUSH0 RETURN INVALID PUSH1 0x80 PUSH1 0x40 MSTORE CALLVALUE DUP1 ISZERO PUSH2 0xF JUMPI PUSH0 PUSH0 REVERT JUMPDEST POP PUSH1 0x4 CALLDATASIZE LT PUSH2 0x55 JUMPI PUSH0 CALLDATALOAD PUSH1 0xE0 SHR DUP1 PUSH4 0xA6478D97 EQ PUSH2 0x59 JUMPI DUP1 PUSH4 0xA8F9B0AF EQ PUSH2 0x77 JUMPI DUP1 PUSH4 0xC45A0155 EQ PUSH2 0x93 JUMPI DUP1 PUSH4 0xEA6C8353 EQ PUSH2 0xB1 JUMPI DUP1 PUSH4 0xFB34B3A9 EQ PUSH2 0xCF JUMPI JUMPDEST PUSH0 PUSH0 REVERT JUMPDEST PUSH2 0x61 PUSH2 0xED JUMP JUMPDEST PUSH1 0x40 MLOAD PUSH2 0x6E SWAP2 SWAP1 PUSH2 0x103D JUMP JUMPDEST PUSH1 0x40 MLOAD DUP1 SWAP2 SUB SWAP1 RETURN JUMPDEST PUSH2 0x91 PUSH1 0x4 DUP1 CALLDATASIZE SUB DUP2 ADD SWAP1 PUSH2 0x8C SWAP2 SWAP1 PUSH2 0x143C JUMP JUMPDEST PUSH2 0xF8 JUMP JUMPDEST STOP JUMPDEST PUSH2 0x9B PUSH2 0x2FE JUMP JUMPDEST PUSH1 0x40 MLOAD PUSH2 0xA8 SWAP2 SWAP1 PUSH2 0x14C2 JUMP JUMPDEST PUSH1 0x40 MLOAD DUP1 SWAP2 SUB SWAP1 RETURN JUMPDEST PUSH2 0xB9 PUSH2 0x323 JUMP JUMPDEST PUSH1 0x40 MLOAD PUSH2 0xC6 SWAP2 SWAP1 PUSH2 0x174D JUMP JUMPDEST PUSH1 0x40 MLOAD DUP1 SWAP2 SUB SWAP1 RETURN JUMPDEST PUSH2 0xD7 PUSH2 0x9A4 JUMP JUMPDEST PUSH1 0x40 MLOAD PUSH2 0xE4 SWAP2 SWAP1 PUSH2 0x174D JUMP JUMPDEST PUSH1 0x40 MLOAD DUP1 SWAP2 SUB SWAP1 RETURN JUMPDEST PUSH0 PUSH0 DUP1 SLOAD SWAP1 POP SWAP1 POP SWAP1 JUMP JUMPDEST PUSH1 0x1 PUSH0 SWAP1 SLOAD SWAP1 PUSH2 0x100 EXP SWAP1 DIV PUSH20 0xFFFFFFFFFFFFFFFFFFFFFFFFFFFFFFFFFFFFFFFF AND PUSH20 0xFFFFFFFFFFFFFFFFFFFFFFFFFFFFFFFFFFFFFFFF AND CALLER PUSH20 0xFFFFFFFFFFFFFFFFFFFFFFFFFFFFFFFFFFFFFFFF AND EQ PUSH2 0x187 JUMPI PUSH1 0x40 MLOAD PUSH32 0x8C379A000000000000000000000000000000000000000000000000000000000 DUP2 MSTORE PUSH1 0x4 ADD PUSH2 0x17E SWAP1 PUSH2 0x17C7 JUMP JUMPDEST PUSH1 0x40 MLOAD DUP1 SWAP2 SUB SWAP1 REVERT JUMPDEST PUSH0 DUP2 SWAP1 DUP1 PUSH1 0x1 DUP2 SLOAD ADD DUP1 DUP3 SSTORE DUP1 SWAP2 POP POP PUSH1 0x1 SWAP1 SUB SWAP1 PUSH0 MSTORE PUSH1 0x20 PUSH0 KECCAK256 SWAP1 PUSH1 0xC MUL ADD PUSH0 SWAP1 SWAP2 SWAP1 SWAP2 SWAP1 SWAP2 POP PUSH0 DUP3 ADD MLOAD DUP2 PUSH0 ADD PUSH0 PUSH2 0x100 EXP DUP2 SLOAD DUP2 PUSH8 0xFFFFFFFFFFFFFFFF MUL NOT AND SWAP1 DUP4 PUSH8 0xFFFFFFFFFFFFFFFF AND MUL OR SWAP1 SSTORE POP PUSH1 0x20 DUP3 ADD MLOAD DUP2 PUSH1 0x1 ADD SWAP1 DUP2 PUSH2 0x1F0 SWAP2 SWAP1 PUSH2 0x19E2 JUMP JUMPDEST POP PUSH1 0x40 DUP3 ADD MLOAD DUP2 PUSH1 0x2 ADD SWAP1 DUP2 PUSH2 0x206 SWAP2 SWAP1 PUSH2 0x19E2 JUMP JUMPDEST POP PUSH1 0x60 DUP3 ADD MLOAD DUP2 PUSH1 0x3 ADD SWAP1 DUP2 PUSH2 0x21C SWAP2 SWAP1 PUSH2 0x19E2 JUMP JUMPDEST POP PUSH1 0x80 DUP3 ADD MLOAD DUP2 PUSH1 0x4 ADD SWAP1 DUP2 PUSH2 0x232 SWAP2 SWAP1 PUSH2 0x19E2 JUMP JUMPDEST POP PUSH1 0xA0 DUP3 ADD MLOAD DUP2 PUSH1 0x5 ADD SWAP1 DUP2 PUSH2 0x248 SWAP2 SWAP1 PUSH2 0x19E2 JUMP JUMPDEST POP PUSH1 0xC0 DUP3 ADD MLOAD DUP2 PUSH1 0x6 ADD PUSH0 PUSH2 0x100 EXP DUP2 SLOAD DUP2 PUSH8 0xFFFFFFFFFFFFFFFF MUL NOT AND SWAP1 DUP4 PUSH8 0xFFFFFFFFFFFFFFFF AND MUL OR SWAP1 SSTORE POP PUSH1 0xE0 DUP3 ADD MLOAD DUP2 PUSH1 0x7 ADD SWAP1 DUP2 PUSH2 0x28C SWAP2 SWAP1 PUSH2 0x19E2 JUMP JUMPDEST POP PUSH2 0x100 DUP3 ADD MLOAD DUP2 PUSH1 0x8 ADD PUSH0 PUSH2 0x100 EXP DUP2 SLOAD DUP2 PUSH4 0xFFFFFFFF MUL NOT AND SWAP1 DUP4 PUSH4 0xFFFFFFFF AND MUL OR SWAP1 SSTORE POP PUSH2 0x120 DUP3 ADD MLOAD DUP2 PUSH1 0x9 ADD SWAP1 DUP2 PUSH2 0x2CA SWAP2 SWAP1 PUSH2 0x19E2 JUMP JUMPDEST POP PUSH2 0x140 DUP3 ADD MLOAD DUP2 PUSH1 0xA ADD SWAP1 DUP2 PUSH2 0x2E1 SWAP2 SWAP1 PUSH2 0x19E2 JUMP JUMPDEST POP PUSH2 0x160 DUP3 ADD MLOAD DUP2 PUSH1 0xB ADD SWAP1 DUP2 PUSH2 0x2F8 SWAP2 SWAP1 PUSH2 0x19E2 JUMP JUMPDEST POP POP POP POP JUMP JUMPDEST PUSH1 0x1 PUSH0 SWAP1 SLOAD SWAP1 PUSH2 0x100 EXP SWAP1 DIV PUSH20 0xFFFFFFFFFFFFFFFFFFFFFFFFFFFFFFFFFFFFFFFF AND DUP2 JUMP JUMPDEST PUSH1 0x60 PUSH1 0x1 PUSH0 SWAP1 SLOAD SWAP1 PUSH2 0x100 EXP SWAP1 DIV PUSH20 0xFFFFFFFFFFFFFFFFFFFFFFFFFFFFFFFFFFFFFFFF AND PUSH20 0xFFFFFFFFFFFFFFFFFFFFFFFFFFFFFFFFFFFFFFFF AND CALLER PUSH20 0xFFFFFFFFFFFFFFFFFFFFFFFFFFFFFFFFFFFFFFFF AND EQ PUSH2 0x3B4 JUMPI PUSH1 0x40 MLOAD PUSH32 0x8C379A000000000000000000000000000000000000000000000000000000000 DUP2 MSTORE PUSH1 0x4 ADD PUSH2 0x3AB SWAP1 PUSH2 0x17C7 JUMP JUMPDEST PUSH1 0x40 MLOAD DUP1 SWAP2 SUB SWAP1 REVERT JUMPDEST PUSH0 DUP1 SLOAD DUP1 PUSH1 0x20 MUL PUSH1 0x20 ADD PUSH1 0x40 MLOAD SWAP1 DUP2 ADD PUSH1 0x40 MSTORE DUP1 SWAP3 SWAP2 SWAP1 DUP2 DUP2 MSTORE PUSH1 0x20 ADD PUSH0 SWAP1 JUMPDEST DUP3 DUP3 LT ISZERO PUSH2 0x99B JUMPI DUP4 DUP3 SWAP1 PUSH0 MSTORE PUSH1 0x20 PUSH0 KECCAK256 SWAP1 PUSH1 0xC MUL ADD PUSH1 0x40 MLOAD DUP1 PUSH2 0x180 ADD PUSH1 0x40 MSTORE SWAP1 DUP2 PUSH0 DUP3 ADD PUSH0 SWAP1 SLOAD SWAP1 PUSH2 0x100 EXP SWAP1 DIV PUSH8 0xFFFFFFFFFFFFFFFF AND PUSH8 0xFFFFFFFFFFFFFFFF AND PUSH8 0xFFFFFFFFFFFFFFFF AND DUP2 MSTORE PUSH1 0x20 ADD PUSH1 0x1 DUP3 ADD DUP1 SLOAD PUSH2 0x436 SWAP1 PUSH2 0x1812 JUMP JUMPDEST DUP1 PUSH1 0x1F ADD PUSH1 0x20 DUP1 SWAP2 DIV MUL PUSH1 0x20 ADD PUSH1 0x40 MLOAD SWAP1 DUP2 ADD PUSH1 0x40 MSTORE DUP1 SWAP3 SWAP2 SWAP1 DUP2 DUP2 MSTORE PUSH1 0x20 ADD DUP3 DUP1 SLOAD PUSH2 0x462 SWAP1 PUSH2 0x1812 JUMP JUMPDEST DUP1 ISZERO PUSH2 0x4AD JUMPI DUP1 PUSH1 0x1F LT PUSH2 0x484 JUMPI PUSH2 0x100 DUP1 DUP4 SLOAD DIV MUL DUP4 MSTORE SWAP2 PUSH1 0x20 ADD SWAP2 PUSH2 0x4AD JUMP JUMPDEST DUP3 ADD SWAP2 SWAP1 PUSH0 MSTORE PUSH1 0x20 PUSH0 KECCAK256 SWAP1 JUMPDEST DUP2 SLOAD DUP2 MSTORE SWAP1 PUSH1 0x1 ADD SWAP1 PUSH1 0x20 ADD DUP1 DUP4 GT PUSH2 0x490 JUMPI DUP3 SWAP1 SUB PUSH1 0x1F AND DUP3 ADD SWAP2 JUMPDEST POP POP POP POP POP DUP2 MSTORE PUSH1 0x20 ADD PUSH1 0x2 DUP3 ADD DUP1 SLOAD PUSH2 0x4C6 SWAP1 PUSH2 0x1812 JUMP JUMPDEST DUP1 PUSH1 0x1F ADD PUSH1 0x20 DUP1 SWAP2 DIV MUL PUSH1 0x20 ADD PUSH1 0x40 MLOAD SWAP1 DUP2 ADD PUSH1 0x40 MSTORE DUP1 SWAP3 SWAP2 SWAP1 DUP2 DUP2 MSTORE PUSH1 0x20 ADD DUP3 DUP1 SLOAD PUSH2 0x4F2 SWAP1 PUSH2 0x1812 JUMP JUMPDEST DUP1 ISZERO PUSH2 0x53D JUMPI DUP1 PUSH1 0x1F LT PUSH2 0x514 JUMPI PUSH2 0x100 DUP1 DUP4 SLOAD DIV MUL DUP4 MSTORE SWAP2 PUSH1 0x20 ADD SWAP2 PUSH2 0x53D JUMP JUMPDEST DUP3 ADD SWAP2 SWAP1 PUSH0 MSTORE PUSH1 0x20 PUSH0 KECCAK256 SWAP1 JUMPDEST DUP2 SLOAD DUP2 MSTORE SWAP1 PUSH1 0x1 ADD SWAP1 PUSH1 0x20 ADD DUP1 DUP4 GT PUSH2 0x520 JUMPI DUP3 SWAP1 SUB PUSH1 0x1F AND DUP3 ADD SWAP2 JUMPDEST POP POP POP POP POP DUP2 MSTORE PUSH1 0x20 ADD PUSH1 0x3 DUP3 ADD DUP1 SLOAD PUSH2 0x556 SWAP1 PUSH2 0x1812 JUMP JUMPDEST DUP1 PUSH1 0x1F ADD PUSH1 0x20 DUP1 SWAP2 DIV MUL PUSH1 0x20 ADD PUSH1 0x40 MLOAD SWAP1 DUP2 ADD PUSH1 0x40 MSTORE DUP1 SWAP3 SWAP2 SWAP1 DUP2 DUP2 MSTORE PUSH1 0x20 ADD DUP3 DUP1 SLOAD PUSH2 0x582 SWAP1 PUSH2 0x1812 JUMP JUMPDEST DUP1 ISZERO PUSH2 0x5CD JUMPI DUP1 PUSH1 0x1F LT PUSH2 0x5A4 JUMPI PUSH2 0x100 DUP1 DUP4 SLOAD DIV MUL DUP4 MSTORE SWAP2 PUSH1 0x20 ADD SWAP2 PUSH2 0x5CD JUMP JUMPDEST DUP3 ADD SWAP2 SWAP1 PUSH0 MSTORE PUSH1 0x20 PUSH0 KECCAK256 SWAP1 JUMPDEST DUP2 SLOAD DUP2 MSTORE SWAP1 PUSH1 0x1 ADD SWAP1 PUSH1 0x20 ADD DUP1 DUP4 GT PUSH2 0x5B0 JUMPI DUP3 SWAP1 SUB PUSH1 0x1F AND DUP3 ADD SWAP2 JUMPDEST POP POP POP POP POP DUP2 MSTORE PUSH1 0x20 ADD PUSH1 0x4 DUP3 ADD DUP1 SLOAD PUSH2 0x5E6 SWAP1 PUSH2 0x1812 JUMP JUMPDEST DUP1 PUSH1 0x1F ADD PUSH1 0x20 DUP1 SWAP2 DIV MUL PUSH1 0x20 ADD PUSH1 0x40 MLOAD SWAP1 DUP2 ADD PUSH1 0x40 MSTORE DUP1 SWAP3 SWAP2 SWAP1 DUP2 DUP2 MSTORE PUSH1 0x20 ADD DUP3 DUP1 SLOAD PUSH2 0x612 SWAP1 PUSH2 0x1812 JUMP JUMPDEST DUP1 ISZERO PUSH2 0x65D JUMPI DUP1 PUSH1 0x1F LT PUSH2 0x634 JUMPI PUSH2 0x100 DUP1 DUP4 SLOAD DIV MUL DUP4 MSTORE SWAP2 PUSH1 0x20 ADD SWAP2 PUSH2 0x65D JUMP JUMPDEST DUP3 ADD SWAP2 SWAP1 PUSH0 MSTORE PUSH1 0x20 PUSH0 KECCAK256 SWAP1 JUMPDEST DUP2 SLOAD DUP2 MSTORE SWAP1 PUSH1 0x1 ADD SWAP1 PUSH1 0x20 ADD DUP1 DUP4 GT PUSH2 0x640 JUMPI DUP3 SWAP1 SUB PUSH1 0x1F AND DUP3 ADD SWAP2 JUMPDEST POP POP POP POP POP DUP2 MSTORE PUSH1 0x20 ADD PUSH1 0x5 DUP3 ADD DUP1 SLOAD PUSH2 0x676 SWAP1 PUSH2 0x1812 JUMP JUMPDEST DUP1 PUSH1 0x1F ADD PUSH1 0x20 DUP1 SWAP2 DIV MUL PUSH1 0x20 ADD PUSH1 0x40 MLOAD SWAP1 DUP2 ADD PUSH1 0x40 MSTORE DUP1 SWAP3 SWAP2 SWAP1 DUP2 DUP2 MSTORE PUSH1 0x20 ADD DUP3 DUP1 SLOAD PUSH2 0x6A2 SWAP1 PUSH2 0x1812 JUMP JUMPDEST DUP1 ISZERO PUSH2 0x6ED JUMPI DUP1 PUSH1 0x1F LT PUSH2 0x6C4 JUMPI PUSH2 0x100 DUP1 DUP4 SLOAD DIV MUL DUP4 MSTORE SWAP2 PUSH1 0x20 ADD SWAP2 PUSH2 0x6ED JUMP JUMPDEST DUP3 ADD SWAP2 SWAP1 PUSH0 MSTORE PUSH1 0x20 PUSH0 KECCAK256 SWAP1 JUMPDEST DUP2 SLOAD DUP2 MSTORE SWAP1 PUSH1 0x1 ADD SWAP1 PUSH1 0x20 ADD DUP1 DUP4 GT PUSH2 0x6D0 JUMPI DUP3 SWAP1 SUB PUSH1 0x1F AND DUP3 ADD SWAP2 JUMPDEST POP POP POP POP POP DUP2 MSTORE PUSH1 0x20 ADD PUSH1 0x6 DUP3 ADD PUSH0 SWAP1 SLOAD SWAP1 PUSH2 0x100 EXP SWAP1 DIV PUSH8 0xFFFFFFFFFFFFFFFF AND PUSH8 0xFFFFFFFFFFFFFFFF AND PUSH8 0xFFFFFFFFFFFFFFFF AND DUP2 MSTORE PUSH1 0x20 ADD PUSH1 0x7 DUP3 ADD DUP1 SLOAD PUSH2 0x737 SWAP1 PUSH2 0x1812 JUMP JUMPDEST DUP1 PUSH1 0x1F ADD PUSH1 0x20 DUP1 SWAP2 DIV MUL PUSH1 0x20 ADD PUSH1 0x40 MLOAD SWAP1 DUP2 ADD PUSH1 0x40 MSTORE DUP1 SWAP3 SWAP2 SWAP1 DUP2 DUP2 MSTORE PUSH1 0x20 ADD DUP3 DUP1 SLOAD PUSH2 0x763 SWAP1 PUSH2 0x1812 JUMP JUMPDEST DUP1 ISZERO PUSH2 0x7AE JUMPI DUP1 PUSH1 0x1F LT PUSH2 0x785 JUMPI PUSH2 0x100 DUP1 DUP4 SLOAD DIV MUL DUP4 MSTORE SWAP2 PUSH1 0x20 ADD SWAP2 PUSH2 0x7AE JUMP JUMPDEST DUP3 ADD SWAP2 SWAP1 PUSH0 MSTORE PUSH1 0x20 PUSH0 KECCAK256 SWAP1 JUMPDEST DUP2 SLOAD DUP2 MSTORE SWAP1 PUSH1 0x1 ADD SWAP1 PUSH1 0x20 ADD DUP1 DUP4 GT PUSH2 0x791 JUMPI DUP3 SWAP1 SUB PUSH1 0x1F AND DUP3 ADD SWAP2 JUMPDEST POP POP POP POP POP DUP2 MSTORE PUSH1 0x20 ADD PUSH1 0x8 DUP3 ADD PUSH0 SWAP1 SLOAD SWAP1 PUSH2 0x100 EXP SWAP1 DIV PUSH4 0xFFFFFFFF AND PUSH4 0xFFFFFFFF AND PUSH4 0xFFFFFFFF AND DUP2 MSTORE PUSH1 0x20 ADD PUSH1 0x9 DUP3 ADD DUP1 SLOAD PUSH2 0x7EC SWAP1 PUSH2 0x1812 JUMP JUMPDEST DUP1 PUSH1 0x1F ADD PUSH1 0x20 DUP1 SWAP2 DIV MUL PUSH1 0x20 ADD PUSH1 0x40 MLOAD SWAP1 DUP2 ADD PUSH1 0x40 MSTORE DUP1 SWAP3 SWAP2 SWAP1 DUP2 DUP2 MSTORE PUSH1 0x20 ADD DUP3 DUP1 SLOAD PUSH2 0x818 SWAP1 PUSH2 0x1812 JUMP JUMPDEST DUP1 ISZERO PUSH2 0x863 JUMPI DUP1 PUSH1 0x1F LT PUSH2 0x83A JUMPI PUSH2 0x100 DUP1 DUP4 SLOAD DIV MUL DUP4 MSTORE SWAP2 PUSH1 0x20 ADD SWAP2 PUSH2 0x863 JUMP JUMPDEST DUP3 ADD SWAP2 SWAP1 PUSH0 MSTORE PUSH1 0x20 PUSH0 KECCAK256 SWAP1 JUMPDEST DUP2 SLOAD DUP2 MSTORE SWAP1 PUSH1 0x1 ADD SWAP1 PUSH1 0x20 ADD DUP1 DUP4 GT PUSH2 0x846 JUMPI DUP3 SWAP1 SUB PUSH1 0x1F AND DUP3 ADD SWAP2 JUMPDEST POP POP POP POP POP DUP2 MSTORE PUSH1 0x20 ADD PUSH1 0xA DUP3 ADD DUP1 SLOAD PUSH2 0x87C SWAP1 PUSH2 0x1812 JUMP JUMPDEST DUP1 PUSH1 0x1F ADD PUSH1 0x20 DUP1 SWAP2 DIV MUL PUSH1 0x20 ADD PUSH1 0x40 MLOAD SWAP1 DUP2 ADD PUSH1 0x40 MSTORE DUP1 SWAP3 SWAP2 SWAP1 DUP2 DUP2 MSTORE PUSH1 0x20 ADD DUP3 DUP1 SLOAD PUSH2 0x8A8 SWAP1 PUSH2 0x1812 JUMP JUMPDEST DUP1 ISZERO PUSH2 0x8F3 JUMPI DUP1 PUSH1 0x1F LT PUSH2 0x8CA JUMPI PUSH2 0x100 DUP1 DUP4 SLOAD DIV MUL DUP4 MSTORE SWAP2 PUSH1 0x20 ADD SWAP2 PUSH2 0x8F3 JUMP JUMPDEST DUP3 ADD SWAP2 SWAP1 PUSH0 MSTORE PUSH1 0x20 PUSH0 KECCAK256 SWAP1 JUMPDEST DUP2 SLOAD DUP2 MSTORE SWAP1 PUSH1 0x1 ADD SWAP1 PUSH1 0x20 ADD DUP1 DUP4 GT PUSH2 0x8D6 JUMPI DUP3 SWAP1 SUB PUSH1 0x1F AND DUP3 ADD SWAP2 JUMPDEST POP POP POP POP POP DUP2 MSTORE PUSH1 0x20 ADD PUSH1 0xB DUP3 ADD DUP1 SLOAD PUSH2 0x90C SWAP1 PUSH2 0x1812 JUMP JUMPDEST DUP1 PUSH1 0x1F ADD PUSH1 0x20 DUP1 SWAP2 DIV MUL PUSH1 0x20 ADD PUSH1 0x40 MLOAD SWAP1 DUP2 ADD PUSH1 0x40 MSTORE DUP1 SWAP3 SWAP2 SWAP1 DUP2 DUP2 MSTORE PUSH1 0x20 ADD DUP3 DUP1 SLOAD PUSH2 0x938 SWAP1 PUSH2 0x1812 JUMP JUMPDEST DUP1 ISZERO PUSH2 0x983 JUMPI DUP1 PUSH1 0x1F LT PUSH2 0x95A JUMPI PUSH2 0x100 DUP1 DUP4 SLOAD DIV MUL DUP4 MSTORE SWAP2 PUSH1 0x20 ADD SWAP2 PUSH2 0x983 JUMP JUMPDEST DUP3 ADD SWAP2 SWAP1 PUSH0 MSTORE PUSH1 0x20 PUSH0 KECCAK256 SWAP1 JUMPDEST DUP2 SLOAD DUP2 MSTORE SWAP1 PUSH1 0x1 ADD SWAP1 PUSH1 0x20 ADD DUP1 DUP4 GT PUSH2 0x966 JUMPI DUP3 SWAP1 SUB PUSH1 0x1F AND DUP3 ADD SWAP2 JUMPDEST POP POP POP POP POP DUP2 MSTORE POP POP DUP2 MSTORE PUSH1 0x20 ADD SWAP1 PUSH1 0x1 ADD SWAP1 PUSH2 0x3D4 JUMP JUMPDEST POP POP POP POP SWAP1 POP SWAP1 JUMP JUMPDEST PUSH1 0x60 PUSH1 0x1 PUSH0 SWAP1 SLOAD SWAP1 PUSH2 0x100 EXP SWAP1 DIV PUSH20 0xFFFFFFFFFFFFFFFFFFFFFFFFFFFFFFFFFFFFFFFF AND PUSH20 0xFFFFFFFFFFFFFFFFFFFFFFFFFFFFFFFFFFFFFFFF AND CALLER PUSH20 0xFFFFFFFFFFFFFFFFFFFFFFFFFFFFFFFFFFFFFFFF AND EQ PUSH2 0xA35 JUMPI PUSH1 0x40 MLOAD PUSH32 0x8C379A000000000000000000000000000000000000000000000000000000000 DUP2 MSTORE PUSH1 0x4 ADD PUSH2 0xA2C SWAP1 PUSH2 0x17C7 JUMP JUMPDEST PUSH1 0x40 MLOAD DUP1 SWAP2 SUB SWAP1 REVERT JUMPDEST PUSH0 DUP1 SLOAD DUP1 PUSH1 0x20 MUL PUSH1 0x20 ADD PUSH1 0x40 MLOAD SWAP1 DUP2 ADD PUSH1 0x40 MSTORE DUP1 SWAP3 SWAP2 SWAP1 DUP2 DUP2 MSTORE PUSH1 0x20 ADD PUSH0 SWAP1 JUMPDEST DUP3 DUP3 LT ISZERO PUSH2 0x101C JUMPI DUP4 DUP3 SWAP1 PUSH0 MSTORE PUSH1 0x20 PUSH0 KECCAK256 SWAP1 PUSH1 0xC MUL ADD PUSH1 0x40 MLOAD DUP1 PUSH2 0x180 ADD PUSH1 0x40 MSTORE SWAP1 DUP2 PUSH0 DUP3 ADD PUSH0 SWAP1 SLOAD SWAP1 PUSH2 0x100 EXP SWAP1 DIV PUSH8 0xFFFFFFFFFFFFFFFF AND PUSH8 0xFFFFFFFFFFFFFFFF AND PUSH8 0xFFFFFFFFFFFFFFFF AND DUP2 MSTORE PUSH1 0x20 ADD PUSH1 0x1 DUP3 ADD DUP1 SLOAD PUSH2 0xAB7 SWAP1 PUSH2 0x1812 JUMP JUMPDEST DUP1 PUSH1 0x1F ADD PUSH1 0x20 DUP1 SWAP2 DIV MUL PUSH1 0x20 ADD PUSH1 0x40 MLOAD SWAP1 DUP2 ADD PUSH1 0x40 MSTORE DUP1 SWAP3 SWAP2 SWAP1 DUP2 DUP2 MSTORE PUSH1 0x20 ADD DUP3 DUP1 SLOAD PUSH2 0xAE3 SWAP1 PUSH2 0x1812 JUMP JUMPDEST DUP1 ISZERO PUSH2 0xB2E JUMPI DUP1 PUSH1 0x1F LT PUSH2 0xB05 JUMPI PUSH2 0x100 DUP1 DUP4 SLOAD DIV MUL DUP4 MSTORE SWAP2 PUSH1 0x20 ADD SWAP2 PUSH2 0xB2E JUMP JUMPDEST DUP3 ADD SWAP2 SWAP1 PUSH0 MSTORE PUSH1 0x20 PUSH0 KECCAK256 SWAP1 JUMPDEST DUP2 SLOAD DUP2 MSTORE SWAP1 PUSH1 0x1 ADD SWAP1 PUSH1 0x20 ADD DUP1 DUP4 GT PUSH2 0xB11 JUMPI DUP3 SWAP1 SUB PUSH1 0x1F AND DUP3 ADD SWAP2 JUMPDEST POP POP POP POP POP DUP2 MSTORE PUSH1 0x20 ADD PUSH1 0x2 DUP3 ADD DUP1 SLOAD PUSH2 0xB47 SWAP1 PUSH2 0x1812 JUMP JUMPDEST DUP1 PUSH1 0x1F ADD PUSH1 0x20 DUP1 SWAP2 DIV MUL PUSH1 0x20 ADD PUSH1 0x40 MLOAD SWAP1 DUP2 ADD PUSH1 0x40 MSTORE DUP1 SWAP3 SWAP2 SWAP1 DUP2 DUP2 MSTORE PUSH1 0x20 ADD DUP3 DUP1 SLOAD PUSH2 0xB73 SWAP1 PUSH2 0x1812 JUMP JUMPDEST DUP1 ISZERO PUSH2 0xBBE JUMPI DUP1 PUSH1 0x1F LT PUSH2 0xB95 JUMPI PUSH2 0x100 DUP1 DUP4 SLOAD DIV MUL DUP4 MSTORE SWAP2 PUSH1 0x20 ADD SWAP2 PUSH2 0xBBE JUMP JUMPDEST DUP3 ADD SWAP2 SWAP1 PUSH0 MSTORE PUSH1 0x20 PUSH0 KECCAK256 SWAP1 JUMPDEST DUP2 SLOAD DUP2 MSTORE SWAP1 PUSH1 0x1 ADD SWAP1 PUSH1 0x20 ADD DUP1 DUP4 GT PUSH2 0xBA1 JUMPI DUP3 SWAP1 SUB PUSH1 0x1F AND DUP3 ADD SWAP2 JUMPDEST POP POP POP POP POP DUP2 MSTORE PUSH1 0x20 ADD PUSH1 0x3 DUP3 ADD DUP1 SLOAD PUSH2 0xBD7 SWAP1 PUSH2 0x1812 JUMP JUMPDEST DUP1 PUSH1 0x1F ADD PUSH1 0x20 DUP1 SWAP2 DIV MUL PUSH1 0x20 ADD PUSH1 0x40 MLOAD SWAP1 DUP2 ADD PUSH1 0x40 MSTORE DUP1 SWAP3 SWAP2 SWAP1 DUP2 DUP2 MSTORE PUSH1 0x20 ADD DUP3 DUP1 SLOAD PUSH2 0xC03 SWAP1 PUSH2 0x1812 JUMP JUMPDEST DUP1 ISZERO PUSH2 0xC4E JUMPI DUP1 PUSH1 0x1F LT PUSH2 0xC25 JUMPI PUSH2 0x100 DUP1 DUP4 SLOAD DIV MUL DUP4 MSTORE SWAP2 PUSH1 0x20 ADD SWAP2 PUSH2 0xC4E JUMP JUMPDEST DUP3 ADD SWAP2 SWAP1 PUSH0 MSTORE PUSH1 0x20 PUSH0 KECCAK256 SWAP1 JUMPDEST DUP2 SLOAD DUP2 MSTORE SWAP1 PUSH1 0x1 ADD SWAP1 PUSH1 0x20 ADD DUP1 DUP4 GT PUSH2 0xC31 JUMPI DUP3 SWAP1 SUB PUSH1 0x1F AND DUP3 ADD SWAP2 JUMPDEST POP POP POP POP POP DUP2 MSTORE PUSH1 0x20 ADD PUSH1 0x4 DUP3 ADD DUP1 SLOAD PUSH2 0xC67 SWAP1 PUSH2 0x1812 JUMP JUMPDEST DUP1 PUSH1 0x1F ADD PUSH1 0x20 DUP1 SWAP2 DIV MUL PUSH1 0x20 ADD PUSH1 0x40 MLOAD SWAP1 DUP2 ADD PUSH1 0x40 MSTORE DUP1 SWAP3 SWAP2 SWAP1 DUP2 DUP2 MSTORE PUSH1 0x20 ADD DUP3 DUP1 SLOAD PUSH2 0xC93 SWAP1 PUSH2 0x1812 JUMP JUMPDEST DUP1 ISZERO PUSH2 0xCDE JUMPI DUP1 PUSH1 0x1F LT PUSH2 0xCB5 JUMPI PUSH2 0x100 DUP1 DUP4 SLOAD DIV MUL DUP4 MSTORE SWAP2 PUSH1 0x20 ADD SWAP2 PUSH2 0xCDE JUMP JUMPDEST DUP3 ADD SWAP2 SWAP1 PUSH0 MSTORE PUSH1 0x20 PUSH0 KECCAK256 SWAP1 JUMPDEST DUP2 SLOAD DUP2 MSTORE SWAP1 PUSH1 0x1 ADD SWAP1 PUSH1 0x20 ADD DUP1 DUP4 GT PUSH2 0xCC1 JUMPI DUP3 SWAP1 SUB PUSH1 0x1F AND DUP3 ADD SWAP2 JUMPDEST POP POP POP POP POP DUP2 MSTORE PUSH1 0x20 ADD PUSH1 0x5 DUP3 ADD DUP1 SLOAD PUSH2 0xCF7 SWAP1 PUSH2 0x1812 JUMP JUMPDEST DUP1 PUSH1 0x1F ADD PUSH1 0x20 DUP1 SWAP2 DIV MUL PUSH1 0x20 ADD PUSH1 0x40 MLOAD SWAP1 DUP2 ADD PUSH1 0x40 MSTORE DUP1 SWAP3 SWAP2 SWAP1 DUP2 DUP2 MSTORE PUSH1 0x20 ADD DUP3 DUP1 SLOAD PUSH2 0xD23 SWAP1 PUSH2 0x1812 JUMP JUMPDEST DUP1 ISZERO PUSH2 0xD6E JUMPI DUP1 PUSH1 0x1F LT PUSH2 0xD45 JUMPI PUSH2 0x100 DUP1 DUP4 SLOAD DIV MUL DUP4 MSTORE SWAP2 PUSH1 0x20 ADD SWAP2 PUSH2 0xD6E JUMP JUMPDEST DUP3 ADD SWAP2 SWAP1 PUSH0 MSTORE PUSH1 0x20 PUSH0 KECCAK256 SWAP1 JUMPDEST DUP2 SLOAD DUP2 MSTORE SWAP1 PUSH1 0x1 ADD SWAP1 PUSH1 0x20 ADD DUP1 DUP4 GT PUSH2 0xD51 JUMPI DUP3 SWAP1 SUB PUSH1 0x1F AND DUP3 ADD SWAP2 JUMPDEST POP POP POP POP POP DUP2 MSTORE PUSH1 0x20 ADD PUSH1 0x6 DUP3 ADD PUSH0 SWAP1 SLOAD SWAP1 PUSH2 0x100 EXP SWAP1 DIV PUSH8 0xFFFFFFFFFFFFFFFF AND PUSH8 0xFFFFFFFFFFFFFFFF AND PUSH8 0xFFFFFFFFFFFFFFFF AND DUP2 MSTORE PUSH1 0x20 ADD PUSH1 0x7 DUP3 ADD DUP1 SLOAD PUSH2 0xDB8 SWAP1 PUSH2 0x1812 JUMP JUMPDEST DUP1 PUSH1 0x1F ADD PUSH1 0x20 DUP1 SWAP2 DIV MUL PUSH1 0x20 ADD PUSH1 0x40 MLOAD SWAP1 DUP2 ADD PUSH1 0x40 MSTORE DUP1 SWAP3 SWAP2 SWAP1 DUP2 DUP2 MSTORE PUSH1 0x20 ADD DUP3 DUP1 SLOAD PUSH2 0xDE4 SWAP1 PUSH2 0x1812 JUMP JUMPDEST DUP1 ISZERO PUSH2 0xE2F JUMPI DUP1 PUSH1 0x1F LT PUSH2 0xE06 JUMPI PUSH2 0x100 DUP1 DUP4 SLOAD DIV MUL DUP4 MSTORE SWAP2 PUSH1 0x20 ADD SWAP2 PUSH2 0xE2F JUMP JUMPDEST DUP3 ADD SWAP2 SWAP1 PUSH0 MSTORE PUSH1 0x20 PUSH0 KECCAK256 SWAP1 JUMPDEST DUP2 SLOAD DUP2 MSTORE SWAP1 PUSH1 0x1 ADD SWAP1 PUSH1 0x20 ADD DUP1 DUP4 GT PUSH2 0xE12 JUMPI DUP3 SWAP1 SUB PUSH1 0x1F AND DUP3 ADD SWAP2 JUMPDEST POP POP POP POP POP DUP2 MSTORE PUSH1 0x20 ADD PUSH1 0x8 DUP3 ADD PUSH0 SWAP1 SLOAD SWAP1 PUSH2 0x100 EXP SWAP1 DIV PUSH4 0xFFFFFFFF AND PUSH4 0xFFFFFFFF AND PUSH4 0xFFFFFFFF AND DUP2 MSTORE PUSH1 0x20 ADD PUSH1 0x9 DUP3 ADD DUP1 SLOAD PUSH2 0xE6D SWAP1 PUSH2 0x1812 JUMP JUMPDEST DUP1 PUSH1 0x1F ADD PUSH1 0x20 DUP1 SWAP2 DIV MUL PUSH1 0x20 ADD PUSH1 0x40 MLOAD SWAP1 DUP2 ADD PUSH1 0x40 MSTORE DUP1 SWAP3 SWAP2 SWAP1 DUP2 DUP2 MSTORE PUSH1 0x20 ADD DUP3 DUP1 SLOAD PUSH2 0xE99 SWAP1 PUSH2 0x1812 JUMP JUMPDEST DUP1 ISZERO PUSH2 0xEE4 JUMPI DUP1 PUSH1 0x1F LT PUSH2 0xEBB JUMPI PUSH2 0x100 DUP1 DUP4 SLOAD DIV MUL DUP4 MSTORE SWAP2 PUSH1 0x20 ADD SWAP2 PUSH2 0xEE4 JUMP JUMPDEST DUP3 ADD SWAP2 SWAP1 PUSH0 MSTORE PUSH1 0x20 PUSH0 KECCAK256 SWAP1 JUMPDEST DUP2 SLOAD DUP2 MSTORE SWAP1 PUSH1 0x1 ADD SWAP1 PUSH1 0x20 ADD DUP1 DUP4 GT PUSH2 0xEC7 JUMPI DUP3 SWAP1 SUB PUSH1 0x1F AND DUP3 ADD SWAP2 JUMPDEST POP POP POP POP POP DUP2 MSTORE PUSH1 0x20 ADD PUSH1 0xA DUP3 ADD DUP1 SLOAD PUSH2 0xEFD SWAP1 PUSH2 0x1812 JUMP JUMPDEST DUP1 PUSH1 0x1F ADD PUSH1 0x20 DUP1 SWAP2 DIV MUL PUSH1 0x20 ADD PUSH1 0x40 MLOAD SWAP1 DUP2 ADD PUSH1 0x40 MSTORE DUP1 SWAP3 SWAP2 SWAP1 DUP2 DUP2 MSTORE PUSH1 0x20 ADD DUP3 DUP1 SLOAD PUSH2 0xF29 SWAP1 PUSH2 0x1812 JUMP JUMPDEST DUP1 ISZERO PUSH2 0xF74 JUMPI DUP1 PUSH1 0x1F LT PUSH2 0xF4B JUMPI PUSH2 0x100 DUP1 DUP4 SLOAD DIV MUL DUP4 MSTORE SWAP2 PUSH1 0x20 ADD SWAP2 PUSH2 0xF74 JUMP JUMPDEST DUP3 ADD SWAP2 SWAP1 PUSH0 MSTORE PUSH1 0x20 PUSH0 KECCAK256 SWAP1 JUMPDEST DUP2 SLOAD DUP2 MSTORE SWAP1 PUSH1 0x1 ADD SWAP1 PUSH1 0x20 ADD DUP1 DUP4 GT PUSH2 0xF57 JUMPI DUP3 SWAP1 SUB PUSH1 0x1F AND DUP3 ADD SWAP2 JUMPDEST POP POP POP POP POP DUP2 MSTORE PUSH1 0x20 ADD PUSH1 0xB DUP3 ADD DUP1 SLOAD PUSH2 0xF8D SWAP1 PUSH2 0x1812 JUMP JUMPDEST DUP1 PUSH1 0x1F ADD PUSH1 0x20 DUP1 SWAP2 DIV MUL PUSH1 0x20 ADD PUSH1 0x40 MLOAD SWAP1 DUP2 ADD PUSH1 0x40 MSTORE DUP1 SWAP3 SWAP2 SWAP1 DUP2 DUP2 MSTORE PUSH1 0x20 ADD DUP3 DUP1 SLOAD PUSH2 0xFB9 SWAP1 PUSH2 0x1812 JUMP JUMPDEST DUP1 ISZERO PUSH2 0x1004 JUMPI DUP1 PUSH1 0x1F LT PUSH2 0xFDB JUMPI PUSH2 0x100 DUP1 DUP4 SLOAD DIV MUL DUP4 MSTORE SWAP2 PUSH1 0x20 ADD SWAP2 PUSH2 0x1004 JUMP JUMPDEST DUP3 ADD SWAP2 SWAP1 PUSH0 MSTORE PUSH1 0x20 PUSH0 KECCAK256 SWAP1 JUMPDEST DUP2 SLOAD DUP2 MSTORE SWAP1 PUSH1 0x1 ADD SWAP1 PUSH1 0x20 ADD DUP1 DUP4 GT PUSH2 0xFE7 JUMPI DUP3 SWAP1 SUB PUSH1 0x1F AND DUP3 ADD SWAP2 JUMPDEST POP POP POP POP POP DUP2 MSTORE POP POP DUP2 MSTORE PUSH1 0x20 ADD SWAP1 PUSH1 0x1 ADD SWAP1 PUSH2 0xA55 JUMP JUMPDEST POP POP POP POP SWAP1 POP SWAP1 JUMP JUMPDEST PUSH0 DUP2 SWAP1 POP SWAP2 SWAP1 POP JUMP JUMPDEST PUSH2 0x1037 DUP2 PUSH2 0x1025 JUMP JUMPDEST DUP3 MSTORE POP POP JUMP JUMPDEST PUSH0 PUSH1 0x20 DUP3 ADD SWAP1 POP PUSH2 0x1050 PUSH0 DUP4 ADD DUP5 PUSH2 0x102E JUMP JUMPDEST SWAP3 SWAP2 POP POP JUMP JUMPDEST PUSH0 PUSH1 0x40 MLOAD SWAP1 POP SWAP1 JUMP JUMPDEST PUSH0 PUSH0 REVERT JUMPDEST PUSH0 PUSH0 REVERT JUMPDEST PUSH0 PUSH0 REVERT JUMPDEST PUSH0 PUSH1 0x1F NOT PUSH1 0x1F DUP4 ADD AND SWAP1 POP SWAP2 SWAP1 POP JUMP JUMPDEST PUSH32 0x4E487B7100000000000000000000000000000000000000000000000000000000 PUSH0 MSTORE PUSH1 0x41 PUSH1 0x4 MSTORE PUSH1 0x24 PUSH0 REVERT JUMPDEST PUSH2 0x10B1 DUP3 PUSH2 0x106B JUMP JUMPDEST DUP2 ADD DUP2 DUP2 LT PUSH8 0xFFFFFFFFFFFFFFFF DUP3 GT OR ISZERO PUSH2 0x10D0 JUMPI PUSH2 0x10CF PUSH2 0x107B JUMP JUMPDEST JUMPDEST DUP1 PUSH1 0x40 MSTORE POP POP POP JUMP JUMPDEST PUSH0 PUSH2 0x10E2 PUSH2 0x1056 JUMP JUMPDEST SWAP1 POP PUSH2 0x10EE DUP3 DUP3 PUSH2 0x10A8 JUMP JUMPDEST SWAP2 SWAP1 POP JUMP JUMPDEST PUSH0 PUSH0 REVERT JUMPDEST PUSH0 PUSH8 0xFFFFFFFFFFFFFFFF DUP3 AND SWAP1 POP SWAP2 SWAP1 POP JUMP JUMPDEST PUSH2 0x1113 DUP2 PUSH2 0x10F7 JUMP JUMPDEST DUP2 EQ PUSH2 0x111D JUMPI PUSH0 PUSH0 REVERT JUMPDEST POP JUMP JUMPDEST PUSH0 DUP2 CALLDATALOAD SWAP1 POP PUSH2 0x112E DUP2 PUSH2 0x110A JUMP JUMPDEST SWAP3 SWAP2 POP POP JUMP JUMPDEST PUSH0 PUSH0 REVERT JUMPDEST PUSH0 PUSH0 REVERT JUMPDEST PUSH0 PUSH8 0xFFFFFFFFFFFFFFFF DUP3 GT ISZERO PUSH2 0x1156 JUMPI PUSH2 0x1155 PUSH2 0x107B JUMP JUMPDEST JUMPDEST PUSH2 0x115F DUP3 PUSH2 0x106B JUMP JUMPDEST SWAP1 POP PUSH1 0x20 DUP2 ADD SWAP1 POP SWAP2 SWAP1 POP JUMP JUMPDEST DUP3 DUP2 DUP4 CALLDATACOPY PUSH0 DUP4 DUP4 ADD MSTORE POP POP POP JUMP JUMPDEST PUSH0 PUSH2 0x118C PUSH2 0x1187 DUP5 PUSH2 0x113C JUMP JUMPDEST PUSH2 0x10D9 JUMP JUMPDEST SWAP1 POP DUP3 DUP2 MSTORE PUSH1 0x20 DUP2 ADD DUP5 DUP5 DUP5 ADD GT ISZERO PUSH2 0x11A8 JUMPI PUSH2 0x11A7 PUSH2 0x1138 JUMP JUMPDEST JUMPDEST PUSH2 0x11B3 DUP5 DUP3 DUP6 PUSH2 0x116C JUMP JUMPDEST POP SWAP4 SWAP3 POP POP POP JUMP JUMPDEST PUSH0 DUP3 PUSH1 0x1F DUP4 ADD SLT PUSH2 0x11CF JUMPI PUSH2 0x11CE PUSH2 0x1134 JUMP JUMPDEST JUMPDEST DUP2 CALLDATALOAD PUSH2 0x11DF DUP5 DUP3 PUSH1 0x20 DUP7 ADD PUSH2 0x117A JUMP JUMPDEST SWAP2 POP POP SWAP3 SWAP2 POP POP JUMP JUMPDEST PUSH0 PUSH4 0xFFFFFFFF DUP3 AND SWAP1 POP SWAP2 SWAP1 POP JUMP JUMPDEST PUSH2 0x1200 DUP2 PUSH2 0x11E8 JUMP JUMPDEST DUP2 EQ PUSH2 0x120A JUMPI PUSH0 PUSH0 REVERT JUMPDEST POP JUMP JUMPDEST PUSH0 DUP2 CALLDATALOAD SWAP1 POP PUSH2 0x121B DUP2 PUSH2 0x11F7 JUMP JUMPDEST SWAP3 SWAP2 POP POP JUMP JUMPDEST PUSH0 PUSH2 0x180 DUP3 DUP5 SUB SLT ISZERO PUSH2 0x1237 JUMPI PUSH2 0x1236 PUSH2 0x1067 JUMP JUMPDEST JUMPDEST PUSH2 0x1242 PUSH2 0x180 PUSH2 0x10D9 JUMP JUMPDEST SWAP1 POP PUSH0 PUSH2 0x1251 DUP5 DUP3 DUP6 ADD PUSH2 0x1120 JUMP JUMPDEST PUSH0 DUP4 ADD MSTORE POP PUSH1 0x20 DUP3 ADD CALLDATALOAD PUSH8 0xFFFFFFFFFFFFFFFF DUP2 GT ISZERO PUSH2 0x1274 JUMPI PUSH2 0x1273 PUSH2 0x10F3 JUMP JUMPDEST JUMPDEST PUSH2 0x1280 DUP5 DUP3 DUP6 ADD PUSH2 0x11BB JUMP JUMPDEST PUSH1 0x20 DUP4 ADD MSTORE POP PUSH1 0x40 DUP3 ADD CALLDATALOAD PUSH8 0xFFFFFFFFFFFFFFFF DUP2 GT ISZERO PUSH2 0x12A4 JUMPI PUSH2 0x12A3 PUSH2 0x10F3 JUMP JUMPDEST JUMPDEST PUSH2 0x12B0 DUP5 DUP3 DUP6 ADD PUSH2 0x11BB JUMP JUMPDEST PUSH1 0x40 DUP4 ADD MSTORE POP PUSH1 0x60 DUP3 ADD CALLDATALOAD PUSH8 0xFFFFFFFFFFFFFFFF DUP2 GT ISZERO PUSH2 0x12D4 JUMPI PUSH2 0x12D3 PUSH2 0x10F3 JUMP JUMPDEST JUMPDEST PUSH2 0x12E0 DUP5 DUP3 DUP6 ADD PUSH2 0x11BB JUMP JUMPDEST PUSH1 0x60 DUP4 ADD MSTORE POP PUSH1 0x80 DUP3 ADD CALLDATALOAD PUSH8 0xFFFFFFFFFFFFFFFF DUP2 GT ISZERO PUSH2 0x1304 JUMPI PUSH2 0x1303 PUSH2 0x10F3 JUMP JUMPDEST JUMPDEST PUSH2 0x1310 DUP5 DUP3 DUP6 ADD PUSH2 0x11BB JUMP JUMPDEST PUSH1 0x80 DUP4 ADD MSTORE POP PUSH1 0xA0 DUP3 ADD CALLDATALOAD PUSH8 0xFFFFFFFFFFFFFFFF DUP2 GT ISZERO PUSH2 0x1334 JUMPI PUSH2 0x1333 PUSH2 0x10F3 JUMP JUMPDEST JUMPDEST PUSH2 0x1340 DUP5 DUP3 DUP6 ADD PUSH2 0x11BB JUMP JUMPDEST PUSH1 0xA0 DUP4 ADD MSTORE POP PUSH1 0xC0 PUSH2 0x1354 DUP5 DUP3 DUP6 ADD PUSH2 0x1120 JUMP JUMPDEST PUSH1 0xC0 DUP4 ADD MSTORE POP PUSH1 0xE0 DUP3 ADD CALLDATALOAD PUSH8 0xFFFFFFFFFFFFFFFF DUP2 GT ISZERO PUSH2 0x1378 JUMPI PUSH2 0x1377 PUSH2 0x10F3 JUMP JUMPDEST JUMPDEST PUSH2 0x1384 DUP5 DUP3 DUP6 ADD PUSH2 0x11BB JUMP JUMPDEST PUSH1 0xE0 DUP4 ADD MSTORE POP PUSH2 0x100 PUSH2 0x1399 DUP5 DUP3 DUP6 ADD PUSH2 0x120D JUMP JUMPDEST PUSH2 0x100 DUP4 ADD MSTORE POP PUSH2 0x120 DUP3 ADD CALLDATALOAD PUSH8 0xFFFFFFFFFFFFFFFF DUP2 GT ISZERO PUSH2 0x13BF JUMPI PUSH2 0x13BE PUSH2 0x10F3 JUMP JUMPDEST JUMPDEST PUSH2 0x13CB DUP5 DUP3 DUP6 ADD PUSH2 0x11BB JUMP JUMPDEST PUSH2 0x120 DUP4 ADD MSTORE POP PUSH2 0x140 DUP3 ADD CALLDATALOAD PUSH8 0xFFFFFFFFFFFFFFFF DUP2 GT ISZERO PUSH2 0x13F1 JUMPI PUSH2 0x13F0 PUSH2 0x10F3 JUMP JUMPDEST JUMPDEST PUSH2 0x13FD DUP5 DUP3 DUP6 ADD PUSH2 0x11BB JUMP JUMPDEST PUSH2 0x140 DUP4 ADD MSTORE POP PUSH2 0x160 DUP3 ADD CALLDATALOAD PUSH8 0xFFFFFFFFFFFFFFFF DUP2 GT ISZERO PUSH2 0x1423 JUMPI PUSH2 0x1422 PUSH2 0x10F3 JUMP JUMPDEST JUMPDEST PUSH2 0x142F DUP5 DUP3 DUP6 ADD PUSH2 0x11BB JUMP JUMPDEST PUSH2 0x160 DUP4 ADD MSTORE POP SWAP3 SWAP2 POP POP JUMP JUMPDEST PUSH0 PUSH1 0x20 DUP3 DUP5 SUB SLT ISZERO PUSH2 0x1451 JUMPI PUSH2 0x1450 PUSH2 0x105F JUMP JUMPDEST JUMPDEST PUSH0 DUP3 ADD CALLDATALOAD PUSH8 0xFFFFFFFFFFFFFFFF DUP2 GT ISZERO PUSH2 0x146E JUMPI PUSH2 0x146D PUSH2 0x1063 JUMP JUMPDEST JUMPDEST PUSH2 0x147A DUP5 DUP3 DUP6 ADD PUSH2 0x1221 JUMP JUMPDEST SWAP2 POP POP SWAP3 SWAP2 POP POP JUMP JUMPDEST PUSH0 PUSH20 0xFFFFFFFFFFFFFFFFFFFFFFFFFFFFFFFFFFFFFFFF DUP3 AND SWAP1 POP SWAP2 SWAP1 POP JUMP JUMPDEST PUSH0 PUSH2 0x14AC DUP3 PUSH2 0x1483 JUMP JUMPDEST SWAP1 POP SWAP2 SWAP1 POP JUMP JUMPDEST PUSH2 0x14BC DUP2 PUSH2 0x14A2 JUMP JUMPDEST DUP3 MSTORE POP POP JUMP JUMPDEST PUSH0 PUSH1 0x20 DUP3 ADD SWAP1 POP PUSH2 0x14D5 PUSH0 DUP4 ADD DUP5 PUSH2 0x14B3 JUMP JUMPDEST SWAP3 SWAP2 POP POP JUMP JUMPDEST PUSH0 DUP2 MLOAD SWAP1 POP SWAP2 SWAP1 POP JUMP JUMPDEST PUSH0 DUP3 DUP3 MSTORE PUSH1 0x20 DUP3 ADD SWAP1 POP SWAP3 SWAP2 POP POP JUMP JUMPDEST PUSH0 DUP2 SWAP1 POP PUSH1 0x20 DUP3 ADD SWAP1 POP SWAP2 SWAP1 POP JUMP JUMPDEST PUSH2 0x150D DUP2 PUSH2 0x10F7 JUMP JUMPDEST DUP3 MSTORE POP POP JUMP JUMPDEST PUSH0 DUP2 MLOAD SWAP1 POP SWAP2 SWAP1 POP JUMP JUMPDEST PUSH0 DUP3 DUP3 MSTORE PUSH1 0x20 DUP3 ADD SWAP1 POP SWAP3 SWAP2 POP POP JUMP JUMPDEST DUP3 DUP2 DUP4 MCOPY PUSH0 DUP4 DUP4 ADD MSTORE POP POP POP JUMP JUMPDEST PUSH0 PUSH2 0x1545 DUP3 PUSH2 0x1513 JUMP JUMPDEST PUSH2 0x154F DUP2 DUP6 PUSH2 0x151D JUMP JUMPDEST SWAP4 POP PUSH2 0x155F DUP2 DUP6 PUSH1 0x20 DUP7 ADD PUSH2 0x152D JUMP JUMPDEST PUSH2 0x1568 DUP2 PUSH2 0x106B JUMP JUMPDEST DUP5 ADD SWAP2 POP POP SWAP3 SWAP2 POP POP JUMP JUMPDEST PUSH2 0x157C DUP2 PUSH2 0x11E8 JUMP JUMPDEST DUP3 MSTORE POP POP JUMP JUMPDEST PUSH0 PUSH2 0x180 DUP4 ADD PUSH0 DUP4 ADD MLOAD PUSH2 0x1598 PUSH0 DUP7 ADD DUP3 PUSH2 0x1504 JUMP JUMPDEST POP PUSH1 0x20 DUP4 ADD MLOAD DUP5 DUP3 SUB PUSH1 0x20 DUP7 ADD MSTORE PUSH2 0x15B0 DUP3 DUP3 PUSH2 0x153B JUMP JUMPDEST SWAP2 POP POP PUSH1 0x40 DUP4 ADD MLOAD DUP5 DUP3 SUB PUSH1 0x40 DUP7 ADD MSTORE PUSH2 0x15CA DUP3 DUP3 PUSH2 0x153B JUMP JUMPDEST SWAP2 POP POP PUSH1 0x60 DUP4 ADD MLOAD DUP5 DUP3 SUB PUSH1 0x60 DUP7 ADD MSTORE PUSH2 0x15E4 DUP3 DUP3 PUSH2 0x153B JUMP JUMPDEST SWAP2 POP POP PUSH1 0x80 DUP4 ADD MLOAD DUP5 DUP3 SUB PUSH1 0x80 DUP7 ADD MSTORE PUSH2 0x15FE DUP3 DUP3 PUSH2 0x153B JUMP JUMPDEST SWAP2 POP POP PUSH1 0xA0 DUP4 ADD MLOAD DUP5 DUP3 SUB PUSH1 0xA0 DUP7 ADD MSTORE PUSH2 0x1618 DUP3 DUP3 PUSH2 0x153B JUMP JUMPDEST SWAP2 POP POP PUSH1 0xC0 DUP4 ADD MLOAD PUSH2 0x162D PUSH1 0xC0 DUP7 ADD DUP3 PUSH2 0x1504 JUMP JUMPDEST POP PUSH1 0xE0 DUP4 ADD MLOAD DUP5 DUP3 SUB PUSH1 0xE0 DUP7 ADD MSTORE PUSH2 0x1645 DUP3 DUP3 PUSH2 0x153B JUMP JUMPDEST SWAP2 POP POP PUSH2 0x100 DUP4 ADD MLOAD PUSH2 0x165C PUSH2 0x100 DUP7 ADD DUP3 PUSH2 0x1573 JUMP JUMPDEST POP PUSH2 0x120 DUP4 ADD MLOAD DUP5 DUP3 SUB PUSH2 0x120 DUP7 ADD MSTORE PUSH2 0x1676 DUP3 DUP3 PUSH2 0x153B JUMP JUMPDEST SWAP2 POP POP PUSH2 0x140 DUP4 ADD MLOAD DUP5 DUP3 SUB PUSH2 0x140 DUP7 ADD MSTORE PUSH2 0x1692 DUP3 DUP3 PUSH2 0x153B JUMP JUMPDEST SWAP2 POP POP PUSH2 0x160 DUP4 ADD MLOAD DUP5 DUP3 SUB PUSH2 0x160 DUP7 ADD MSTORE PUSH2 0x16AE DUP3 DUP3 PUSH2 0x153B JUMP JUMPDEST SWAP2 POP POP DUP1 SWAP2 POP POP SWAP3 SWAP2 POP POP JUMP JUMPDEST PUSH0 PUSH2 0x16C6 DUP4 DUP4 PUSH2 0x1582 JUMP JUMPDEST SWAP1 POP SWAP3 SWAP2 POP POP JUMP JUMPDEST PUSH0 PUSH1 0x20 DUP3 ADD SWAP1 POP SWAP2 SWAP1 POP JUMP JUMPDEST PUSH0 PUSH2 0x16E4 DUP3 PUSH2 0x14DB JUMP JUMPDEST PUSH2 0x16EE DUP2 DUP6 PUSH2 0x14E5 JUMP JUMPDEST SWAP4 POP DUP4 PUSH1 0x20 DUP3 MUL DUP6 ADD PUSH2 0x1700 DUP6 PUSH2 0x14F5 JUMP JUMPDEST DUP1 PUSH0 JUMPDEST DUP6 DUP2 LT ISZERO PUSH2 0x173B JUMPI DUP5 DUP5 SUB DUP10 MSTORE DUP2 MLOAD PUSH2 0x171C DUP6 DUP3 PUSH2 0x16BB JUMP JUMPDEST SWAP5 POP PUSH2 0x1727 DUP4 PUSH2 0x16CE JUMP JUMPDEST SWAP3 POP PUSH1 0x20 DUP11 ADD SWAP10 POP POP PUSH1 0x1 DUP2 ADD SWAP1 POP PUSH2 0x1703 JUMP JUMPDEST POP DUP3 SWAP8 POP DUP8 SWAP6 POP POP POP POP POP POP SWAP3 SWAP2 POP POP JUMP JUMPDEST PUSH0 PUSH1 0x20 DUP3 ADD SWAP1 POP DUP2 DUP2 SUB PUSH0 DUP4 ADD MSTORE PUSH2 0x1765 DUP2 DUP5 PUSH2 0x16DA JUMP JUMPDEST SWAP1 POP SWAP3 SWAP2 POP POP JUMP JUMPDEST PUSH0 DUP3 DUP3 MSTORE PUSH1 0x20 DUP3 ADD SWAP1 POP SWAP3 SWAP2 POP POP JUMP JUMPDEST PUSH32 0x4E6F7420666163746F7279000000000000000000000000000000000000000000 PUSH0 DUP3 ADD MSTORE POP JUMP JUMPDEST PUSH0 PUSH2 0x17B1 PUSH1 0xB DUP4 PUSH2 0x176D JUMP JUMPDEST SWAP2 POP PUSH2 0x17BC DUP3 PUSH2 0x177D JUMP JUMPDEST PUSH1 0x20 DUP3 ADD SWAP1 POP SWAP2 SWAP1 POP JUMP JUMPDEST PUSH0 PUSH1 0x20 DUP3 ADD SWAP1 POP DUP2 DUP2 SUB PUSH0 DUP4 ADD MSTORE PUSH2 0x17DE DUP2 PUSH2 0x17A5 JUMP JUMPDEST SWAP1 POP SWAP2 SWAP1 POP JUMP JUMPDEST PUSH32 0x4E487B7100000000000000000000000000000000000000000000000000000000 PUSH0 MSTORE PUSH1 0x22 PUSH1 0x4 MSTORE PUSH1 0x24 PUSH0 REVERT JUMPDEST PUSH0 PUSH1 0x2 DUP3 DIV SWAP1 POP PUSH1 0x1 DUP3 AND DUP1 PUSH2 0x1829 JUMPI PUSH1 0x7F DUP3 AND SWAP2 POP JUMPDEST PUSH1 0x20 DUP3 LT DUP2 SUB PUSH2 0x183C JUMPI PUSH2 0x183B PUSH2 0x17E5 JUMP JUMPDEST JUMPDEST POP SWAP2 SWAP1 POP JUMP JUMPDEST PUSH0 DUP2 SWAP1 POP DUP2 PUSH0 MSTORE PUSH1 0x20 PUSH0 KECCAK256 SWAP1 POP SWAP2 SWAP1 POP JUMP JUMPDEST PUSH0 PUSH1 0x20 PUSH1 0x1F DUP4 ADD DIV SWAP1 POP SWAP2 SWAP1 POP JUMP JUMPDEST PUSH0 DUP3 DUP3 SHL SWAP1 POP SWAP3 SWAP2 POP POP JUMP JUMPDEST PUSH0 PUSH1 0x8 DUP4 MUL PUSH2 0x189E PUSH32 0xFFFFFFFFFFFFFFFFFFFFFFFFFFFFFFFFFFFFFFFFFFFFFFFFFFFFFFFFFFFFFFFF DUP3 PUSH2 0x1863 JUMP JUMPDEST PUSH2 0x18A8 DUP7 DUP4 PUSH2 0x1863 JUMP JUMPDEST SWAP6 POP DUP1 NOT DUP5 AND SWAP4 POP DUP1 DUP7 AND DUP5 OR SWAP3 POP POP POP SWAP4 SWAP3 POP POP POP JUMP JUMPDEST PUSH0 DUP2 SWAP1 POP SWAP2 SWAP1 POP JUMP JUMPDEST PUSH0 PUSH2 0x18E3 PUSH2 0x18DE PUSH2 0x18D9 DUP5 PUSH2 0x1025 JUMP JUMPDEST PUSH2 0x18C0 JUMP JUMPDEST PUSH2 0x1025 JUMP JUMPDEST SWAP1 POP SWAP2 SWAP1 POP JUMP JUMPDEST PUSH0 DUP2 SWAP1 POP SWAP2 SWAP1 POP JUMP JUMPDEST PUSH2 0x18FC DUP4 PUSH2 0x18C9 JUMP JUMPDEST PUSH2 0x1910 PUSH2 0x1908 DUP3 PUSH2 0x18EA JUMP JUMPDEST DUP5 DUP5 SLOAD PUSH2 0x186F JUMP JUMPDEST DUP3 SSTORE POP POP POP POP JUMP JUMPDEST PUSH0 PUSH0 SWAP1 POP SWAP1 JUMP JUMPDEST PUSH2 0x1927 PUSH2 0x1918 JUMP JUMPDEST PUSH2 0x1932 DUP2 DUP5 DUP5 PUSH2 0x18F3 JUMP JUMPDEST POP POP POP JUMP JUMPDEST JUMPDEST DUP2 DUP2 LT ISZERO PUSH2 0x1955 JUMPI PUSH2 0x194A PUSH0 DUP3 PUSH2 0x191F JUMP JUMPDEST PUSH1 0x1 DUP2 ADD SWAP1 POP PUSH2 0x1938 JUMP JUMPDEST POP POP JUMP JUMPDEST PUSH1 0x1F DUP3 GT ISZERO PUSH2 0x199A JUMPI PUSH2 0x196B DUP2 PUSH2 0x1842 JUMP JUMPDEST PUSH2 0x1974 DUP5 PUSH2 0x1854 JUMP JUMPDEST DUP2 ADD PUSH1 0x20 DUP6 LT ISZERO PUSH2 0x1983 JUMPI DUP2 SWAP1 POP JUMPDEST PUSH2 0x1997 PUSH2 0x198F DUP6 PUSH2 0x1854 JUMP JUMPDEST DUP4 ADD DUP3 PUSH2 0x1937 JUMP JUMPDEST POP POP JUMPDEST POP POP POP JUMP JUMPDEST PUSH0 DUP3 DUP3 SHR SWAP1 POP SWAP3 SWAP2 POP POP JUMP JUMPDEST PUSH0 PUSH2 0x19BA PUSH0 NOT DUP5 PUSH1 0x8 MUL PUSH2 0x199F JUMP JUMPDEST NOT DUP1 DUP4 AND SWAP2 POP POP SWAP3 SWAP2 POP POP JUMP JUMPDEST PUSH0 PUSH2 0x19D2 DUP4 DUP4 PUSH2 0x19AB JUMP JUMPDEST SWAP2 POP DUP3 PUSH1 0x2 MUL DUP3 OR SWAP1 POP SWAP3 SWAP2 POP POP JUMP JUMPDEST PUSH2 0x19EB DUP3 PUSH2 0x1513 JUMP JUMPDEST PUSH8 0xFFFFFFFFFFFFFFFF DUP2 GT ISZERO PUSH2 0x1A04 JUMPI PUSH2 0x1A03 PUSH2 0x107B JUMP JUMPDEST JUMPDEST PUSH2 0x1A0E DUP3 SLOAD PUSH2 0x1812 JUMP JUMPDEST PUSH2 0x1A19 DUP3 DUP3 DUP6 PUSH2 0x1959 JUMP JUMPDEST PUSH0 PUSH1 0x20 SWAP1 POP PUSH1 0x1F DUP4 GT PUSH1 0x1 DUP2 EQ PUSH2 0x1A4A JUMPI PUSH0 DUP5 ISZERO PUSH2 0x1A38 JUMPI DUP3 DUP8 ADD MLOAD SWAP1 POP JUMPDEST PUSH2 0x1A42 DUP6 DUP3 PUSH2 0x19C7 JUMP JUMPDEST DUP7 SSTORE POP PUSH2 0x1AA9 JUMP JUMPDEST PUSH1 0x1F NOT DUP5 AND PUSH2 0x1A58 DUP7 PUSH2 0x1842 JUMP JUMPDEST PUSH0 JUMPDEST DUP3 DUP2 LT ISZERO PUSH2 0x1A7F JUMPI DUP5 DUP10 ADD MLOAD DUP3 SSTORE PUSH1 0x1 DUP3 ADD SWAP2 POP PUSH1 0x20 DUP6 ADD SWAP5 POP PUSH1 0x20 DUP2 ADD SWAP1 POP PUSH2 0x1A5A JUMP JUMPDEST DUP7 DUP4 LT ISZERO PUSH2 0x1A9C JUMPI DUP5 DUP10 ADD MLOAD PUSH2 0x1A98 PUSH1 0x1F DUP10 AND DUP3 PUSH2 0x19AB JUMP JUMPDEST DUP4 SSTORE POP JUMPDEST PUSH1 0x1 PUSH1 0x2 DUP9 MUL ADD DUP9 SSTORE POP POP POP JUMPDEST POP POP POP POP POP POP JUMP INVALID LOG2 PUSH5 0x6970667358 0x22 SLT KECCAK256 CALLER 0xD7 SDIV SWAP12 0xB9 PUSH19 0xC95499455A4433D2AE7223B679A10E4CF647A BLOBHASH PUSH2 0x6320 0xED 0xD6 0xCE PUSH5 0x736F6C6343 STOP ADDMOD 0x1E STOP CALLER "
				},
				"gasEstimates": {
					"creation": {
						"codeDepositCost": "1377400",
						"executionCost": "25701",
						"totalCost": "1403101"
					},
					"external": {
						"addCandle((uint64,string,string,string,string,string,uint64,string,uint32,string,string,string))": "infinite",
						"candleCount()": "2417",
						"factory()": "2530",
						"getAllCandles()": "infinite",
						"getCandles()": "infinite"
					}
				},
				"methodIdentifiers": {
					"addCandle((uint64,string,string,string,string,string,uint64,string,uint32,string,string,string))": "a8f9b0af",
					"candleCount()": "a6478d97",
					"factory()": "c45a0155",
					"getAllCandles()": "fb34b3a9",
					"getCandles()": "ea6c8353"
				}
			},
			"storageLayout": {
				"storage": [
					{
						"astId": 32,
						"contract": "contracts/manager/Candel/CandleManager.sol:CandleManager",
						"label": "candles",
						"offset": 0,
						"slot": "0",
						"type": "t_array(t_struct(CandleRecord)151_storage)dyn_storage"
					},
					{
						"astId": 34,
						"contract": "contracts/manager/Candel/CandleManager.sol:CandleManager",
						"label": "factory",
						"offset": 0,
						"slot": "1",
						"type": "t_address"
					}
				],
				"types": {
					"t_address": {
						"encoding": "inplace",
						"label": "address",
						"numberOfBytes": "20"
					},
					"t_array(t_struct(CandleRecord)151_storage)dyn_storage": {
						"base": "t_struct(CandleRecord)151_storage",
						"encoding": "dynamic_array",
						"label": "struct CandleRecord[]",
						"numberOfBytes": "32"
					},
					"t_string_storage": {
						"encoding": "bytes",
						"label": "string",
						"numberOfBytes": "32"
					},
					"t_struct(CandleRecord)151_storage": {
						"encoding": "inplace",
						"label": "struct CandleRecord",
						"members": [
							{
								"astId": 128,
								"contract": "contracts/manager/Candel/CandleManager.sol:CandleManager",
								"label": "openTime",
								"offset": 0,
								"slot": "0",
								"type": "t_uint64"
							},
							{
								"astId": 130,
								"contract": "contracts/manager/Candel/CandleManager.sol:CandleManager",
								"label": "openPrice",
								"offset": 0,
								"slot": "1",
								"type": "t_string_storage"
							},
							{
								"astId": 132,
								"contract": "contracts/manager/Candel/CandleManager.sol:CandleManager",
								"label": "highPrice",
								"offset": 0,
								"slot": "2",
								"type": "t_string_storage"
							},
							{
								"astId": 134,
								"contract": "contracts/manager/Candel/CandleManager.sol:CandleManager",
								"label": "lowPrice",
								"offset": 0,
								"slot": "3",
								"type": "t_string_storage"
							},
							{
								"astId": 136,
								"contract": "contracts/manager/Candel/CandleManager.sol:CandleManager",
								"label": "closePrice",
								"offset": 0,
								"slot": "4",
								"type": "t_string_storage"
							},
							{
								"astId": 138,
								"contract": "contracts/manager/Candel/CandleManager.sol:CandleManager",
								"label": "volume",
								"offset": 0,
								"slot": "5",
								"type": "t_string_storage"
							},
							{
								"astId": 140,
								"contract": "contracts/manager/Candel/CandleManager.sol:CandleManager",
								"label": "closeTime",
								"offset": 0,
								"slot": "6",
								"type": "t_uint64"
							},
							{
								"astId": 142,
								"contract": "contracts/manager/Candel/CandleManager.sol:CandleManager",
								"label": "quoteAssetVolume",
								"offset": 0,
								"slot": "7",
								"type": "t_string_storage"
							},
							{
								"astId": 144,
								"contract": "contracts/manager/Candel/CandleManager.sol:CandleManager",
								"label": "numberOfTrades",
								"offset": 0,
								"slot": "8",
								"type": "t_uint32"
							},
							{
								"astId": 146,
								"contract": "contracts/manager/Candel/CandleManager.sol:CandleManager",
								"label": "takerBuyBaseVolume",
								"offset": 0,
								"slot": "9",
								"type": "t_string_storage"
							},
							{
								"astId": 148,
								"contract": "contracts/manager/Candel/CandleManager.sol:CandleManager",
								"label": "takerBuyQuoteVolume",
								"offset": 0,
								"slot": "10",
								"type": "t_string_storage"
							},
							{
								"astId": 150,
								"contract": "contracts/manager/Candel/CandleManager.sol:CandleManager",
								"label": "unused",
								"offset": 0,
								"slot": "11",
								"type": "t_string_storage"
							}
						],
						"numberOfBytes": "384"
					},
					"t_uint32": {
						"encoding": "inplace",
						"label": "uint32",
						"numberOfBytes": "4"
					},
					"t_uint64": {
						"encoding": "inplace",
						"label": "uint64",
						"numberOfBytes": "8"
					}
				}
			},
			"userdoc": {
				"kind": "user",
				"methods": {},
				"version": 1
			}
		}
	}
}