{
	"data": {
		"bytecode": {
			"linkReferences": {},
			"object": "6080604052348015600e575f5ffd5b50614cd88061001c5f395ff3fe608060405234801561000f575f5ffd5b5060043610610086575f3560e01c80636fc78784116100595780636fc78784146101365780637f93ff24146101665780638d412ad21461019657806393faa992146101c657610086565b806338993f6b1461008a57806353857f9f146100ba5780635b3cb9d4146100d65780635e1dccd114610106575b5f5ffd5b6100a4600480360381019061009f9190611db8565b6101f6565b6040516100b191906120c1565b60405180910390f35b6100d460048036038101906100cf919061232e565b610341565b005b6100f060048036038101906100eb9190612428565b6105fa565b6040516100fd91906124b7565b60405180910390f35b610120600480360381019061011b9190612503565b610641565b60405161012d91906120c1565b60405180910390f35b610150600480360381019061014b919061258b565b6109c4565b60405161015d91906120c1565b60405180910390f35b610180600480360381019061017b919061263a565b610e32565b60405161018d9190612674565b60405180910390f35b6101b060048036038101906101ab919061268d565b61119d565b6040516101bd9190612674565b60405180910390f35b6101e060048036038101906101db91906126cb565b61158d565b6040516101ed9190612785565b60405180910390f35b60605f6102028461158d565b90505f8560405160200161021691906127d8565b6040516020818303038152906040528051906020012090505f610239838661119d565b90505f5f5f8481526020019081526020015f205f85600f8111156102605761025f612712565b5b600f81111561027257610271612712565b5b81526020019081526020015f205f8367ffffffffffffffff1667ffffffffffffffff1681526020019081526020015f205f9054906101000a900473ffffffffffffffffffffffffffffffffffffffff1690508073ffffffffffffffffffffffffffffffffffffffff1663fb34b3a96040518163ffffffff1660e01b81526004015f60405180830381865afa15801561030c573d5f5f3e3d5ffd5b505050506040513d5f823e3d601f19601f820116820180604052508101906103349190612b81565b9450505050509392505050565b5f61034b8361158d565b90505f8460405160200161035f91906127d8565b6040516020818303038152906040528051906020012090505f61038583855f015161119d565b90505f5f5f8481526020019081526020015f205f85600f8111156103ac576103ab612712565b5b600f8111156103be576103bd612712565b5b81526020019081526020015f205f8367ffffffffffffffff1667ffffffffffffffff1681526020019081526020015f205f9054906101000a900473ffffffffffffffffffffffffffffffffffffffff1690505f73ffffffffffffffffffffffffffffffffffffffff168173ffffffffffffffffffffffffffffffffffffffff160361058b576104816040518060400160405280601481526020017f437265617465206e657720616464727265737373000000000000000000000000815250611907565b60405161048d90611b9f565b604051809103905ff0801580156104a6573d5f5f3e3d5ffd5b509050805f5f8581526020019081526020015f205f86600f8111156104ce576104cd612712565b5b600f8111156104e0576104df612712565b5b81526020019081526020015f205f8467ffffffffffffffff1667ffffffffffffffff1681526020019081526020015f205f6101000a81548173ffffffffffffffffffffffffffffffffffffffff021916908373ffffffffffffffffffffffffffffffffffffffff1602179055507f2a9e82be7bc20784dcc707f4814ca404ac4a94db66450718f7733b160fb62d86878784846040516105829493929190612c10565b60405180910390a15b8073ffffffffffffffffffffffffffffffffffffffff1663a8f9b0af866040518263ffffffff1660e01b81526004016105c49190612d9a565b5f604051808303815f87803b1580156105db575f5ffd5b505af11580156105ed573d5f5f3e3d5ffd5b5050505050505050505050565b5f602052825f5260405f20602052815f5260405f20602052805f5260405f205f92509250509054906101000a900473ffffffffffffffffffffffffffffffffffffffff1681565b60605f82036106505761012c91505b5f61065a8461158d565b90505f8560405160200161066e91906127d8565b6040516020818303038152906040528051906020012090505f6103e8426106959190612de7565b90505f6106a2848361119d565b90505f6106ae85610e32565b90505f8767ffffffffffffffff8111156106cb576106ca611c57565b5b60405190808252806020026020018201604052801561070457816020015b6106f1611bac565b8152602001906001900390816106e95790505b5090505f5f90505b60011561090c575f5f5f8881526020019081526020015f205f89600f81111561073857610737612712565b5b600f81111561074a57610749612712565b5b81526020019081526020015f205f8667ffffffffffffffff1667ffffffffffffffff1681526020019081526020015f205f9054906101000a900473ffffffffffffffffffffffffffffffffffffffff1690505f73ffffffffffffffffffffffffffffffffffffffff168173ffffffffffffffffffffffffffffffffffffffff16146108c3575f8173ffffffffffffffffffffffffffffffffffffffff1663ea6c83536040518163ffffffff1660e01b81526004015f60405180830381865afa158015610818573d5f5f3e3d5ffd5b505050506040513d5f823e3d601f19601f820116820180604052508101906108409190612b81565b90505f815190505b5f8111156108bc578b8403156108bc57816001826108669190612e28565b8151811061087757610876612e5b565b5b602002602001015185858061088b90612e88565b96508151811061089e5761089d612e5b565b5b602002602001018190525080806108b490612ecf565b915050610848565b50506108c9565b5061090c565b8982106108d6575061090c565b8367ffffffffffffffff168567ffffffffffffffff1610156108f8575061090c565b83856109049190612ef6565b94505061070c565b8067ffffffffffffffff81111561092657610925611c57565b5b60405190808252806020026020018201604052801561095f57816020015b61094c611bac565b8152602001906001900390816109445790505b5097505f5f90505b818110156109b55782818151811061098257610981612e5b565b5b602002602001015189828151811061099d5761099c612e5b565b5b60200260200101819052508080600101915050610967565b50505050505050509392505050565b60605f6109d08661158d565b90505f876040516020016109e491906127d8565b6040516020818303038152906040528051906020012090505f610a088388886119a0565b90505f5f8667ffffffffffffffff811115610a2657610a25611c57565b5b604051908082528060200260200182016040528015610a5f57816020015b610a4c611bac565b815260200190600190039081610a445790505b5090505f5f90505b8351811015610d5c575f5f5f8781526020019081526020015f205f88600f811115610a9557610a94612712565b5b600f811115610aa757610aa6612712565b5b81526020019081526020015f205f868481518110610ac857610ac7612e5b565b5b602002602001015167ffffffffffffffff1667ffffffffffffffff1681526020019081526020015f205f9054906101000a900473ffffffffffffffffffffffffffffffffffffffff1690505f73ffffffffffffffffffffffffffffffffffffffff168173ffffffffffffffffffffffffffffffffffffffff1603610b4c5750610d4f565b610baf6040518060400160405280600681526020017f54696d653a200000000000000000000000000000000000000000000000000000815250868481518110610b9857610b97612e5b565b5b602002602001015167ffffffffffffffff16611abf565b5f8173ffffffffffffffffffffffffffffffffffffffff1663ea6c83536040518163ffffffff1660e01b81526004015f60405180830381865afa158015610bf8573d5f5f3e3d5ffd5b505050506040513d5f823e3d601f19601f82011682018060405250810190610c209190612b81565b90505f815190505b5f811115610d3d575f82600183610c3f9190612e28565b81518110610c5057610c4f612e5b565b5b602002602001015190508d67ffffffffffffffff16815f015167ffffffffffffffff161015610c7f5750610d2a565b8c67ffffffffffffffff16815f015167ffffffffffffffff161115610ca45750610d2a565b80868880610cb190612e88565b995081518110610cc457610cc3612e5b565b5b6020026020010181905250610d1b6040518060400160405280600a81526020017f656c656d2074696d653a00000000000000000000000000000000000000000000815250825f015167ffffffffffffffff16611abf565b8b8703610d285750610d3d565b505b8080610d3590612ecf565b915050610c28565b50898503610d4c575050610d5c565b50505b8080600101915050610a67565b508167ffffffffffffffff811115610d7757610d76611c57565b5b604051908082528060200260200182016040528015610db057816020015b610d9d611bac565b815260200190600190039081610d955790505b5095505f8290505b5f811115610e235781600182610dce9190612e28565b81518110610ddf57610dde612e5b565b5b6020026020010151878285610df49190612e28565b81518110610e0557610e04612e5b565b5b60200260200101819052508080610e1b90612ecf565b915050610db8565b50505050505095945050505050565b5f5f600f811115610e4657610e45612712565b5b82600f811115610e5957610e58612712565b5b03610e69576236ee809050611198565b6001600f811115610e7d57610e7c612712565b5b82600f811115610e9057610e8f612712565b5b1480610ec057506002600f811115610eab57610eaa612712565b5b82600f811115610ebe57610ebd612712565b5b145b80610eef57506003600f811115610eda57610ed9612712565b5b82600f811115610eed57610eec612712565b5b145b15610f00576305265c009050611198565b6004600f811115610f1457610f13612712565b5b82600f811115610f2757610f26612712565b5b1480610f5757506005600f811115610f4257610f41612712565b5b82600f811115610f5557610f54612712565b5b145b80610f8657506006600f811115610f7157610f70612712565b5b82600f811115610f8457610f83612712565b5b145b80610fb557506007600f811115610fa057610f9f612712565b5b82600f811115610fb357610fb2612712565b5b145b15610fc65763240c84009050611198565b6008600f811115610fda57610fd9612712565b5b82600f811115610fed57610fec612712565b5b148061101d57506009600f81111561100857611007612712565b5b82600f81111561101b5761101a612712565b5b145b8061104c5750600a600f81111561103757611036612712565b5b82600f81111561104a57611049612712565b5b145b8061107b5750600b600f81111561106657611065612712565b5b82600f81111561107957611078612712565b5b145b1561108c57639a7ec8009050611198565b600c600f8111156110a05761109f612712565b5b82600f8111156110b3576110b2612712565b5b14806110e35750600d600f8111156110ce576110cd612712565b5b82600f8111156110e1576110e0612712565b5b145b156110f5576401cf7c58009050611198565b600e600f81111561110957611108612712565b5b82600f81111561111c5761111b612712565b5b148061114b5750600f8081111561113657611135612712565b5b82600f81111561114957611148612712565b5b145b1561115d57640757b12c009050611198565b6040517f08c379a000000000000000000000000000000000000000000000000000000000815260040161118f90612f7b565b60405180910390fd5b919050565b5f5f600f8111156111b1576111b0612712565b5b83600f8111156111c4576111c3612712565b5b036111ea576236ee8080836111d99190612fc6565b6111e39190612ff6565b9050611587565b6001600f8111156111fe576111fd612712565b5b83600f81111561121157611210612712565b5b148061124157506002600f81111561122c5761122b612712565b5b83600f81111561123f5761123e612712565b5b145b8061127057506003600f81111561125b5761125a612712565b5b83600f81111561126e5761126d612712565b5b145b15611297576305265c0080836112869190612fc6565b6112909190612ff6565b9050611587565b6004600f8111156112ab576112aa612712565b5b83600f8111156112be576112bd612712565b5b14806112ee57506005600f8111156112d9576112d8612712565b5b83600f8111156112ec576112eb612712565b5b145b8061131d57506006600f81111561130857611307612712565b5b83600f81111561131b5761131a612712565b5b145b8061134c57506007600f81111561133757611336612712565b5b83600f81111561134a57611349612712565b5b145b156113735763240c840080836113629190612fc6565b61136c9190612ff6565b9050611587565b6008600f81111561138757611386612712565b5b83600f81111561139a57611399612712565b5b14806113ca57506009600f8111156113b5576113b4612712565b5b83600f8111156113c8576113c7612712565b5b145b806113f95750600a600f8111156113e4576113e3612712565b5b83600f8111156113f7576113f6612712565b5b145b806114285750600b600f81111561141357611412612712565b5b83600f81111561142657611425612712565b5b145b1561144f57639a7ec800808361143e9190612fc6565b6114489190612ff6565b9050611587565b600c600f81111561146357611462612712565b5b83600f81111561147657611475612712565b5b14806114a65750600d600f81111561149157611490612712565b5b83600f8111156114a4576114a3612712565b5b145b156114ce576401cf7c580080836114bd9190612fc6565b6114c79190612ff6565b9050611587565b600e600f8111156114e2576114e1612712565b5b83600f8111156114f5576114f4612712565b5b14806115245750600f8081111561150f5761150e612712565b5b83600f81111561152257611521612712565b5b145b1561154c57640757b12c00808361153b9190612fc6565b6115459190612ff6565b9050611587565b6040517f08c379a000000000000000000000000000000000000000000000000000000000815260040161157e90612f7b565b60405180910390fd5b92915050565b5f5f826040516020016115a091906127d8565b6040516020818303038152906040528051906020012090507f6c9308eeeb72aac61c6ee2086645ec6cf6638d86d97af7b81bcf4073f3b95dbc81036115e8575f915050611902565b7f523a5c8a0f83a86997a616b324ae897d2fb6b3f5f68b3969331c12e0f00f9f258103611619576001915050611902565b7f2a3ff2dfa7bd33b0e77d014065236a2f104b389b776645fddb9e6a09eea01441810361164a576002915050611902565b7ffca740c51a7536a1ff8f65314e26b24cee265d7626ad2e39318898f3d501ac22810361167b576003915050611902565b7f53cad56a766a794bdc4fd49b262cd08fadf5c823f208fbf3f4efb377c206eaaa81036116ac576004915050611902565b7fe99007fd2e286840683bfbac2c1ea22a3b3c1592d603a9ae9aee29cf77e941a781036116dd576005915050611902565b7f1125479f824fc31d0ce674b130e57a9dcfdf2d344ca1ef3fc8bf5bd50f9fcca9810361170e576006915050611902565b7fa50f424f123435e4689c6436ce338980297ca65f2ee6b69a216f0561ee6cf400810361173f576007915050611902565b7f9a433cc5a6aee766b1bce0a7dc72ab7b4fd031108e0c5afea91382f1b1955fc98103611770576008915050611902565b7fa0b83cfa5501e126ac29f6bf7a07bd17e2d97916947eed361748e8e0ab0aba4d81036117a1576009915050611902565b7fe21ccd2715134877c589435a9c98deb14540fdf9e902afebf2163fe393e9c07381036117d257600a915050611902565b7f11108661a127316f8f74dc39a66520c8ec16719ed867ee768af67729ba3ec1d2810361180357600b915050611902565b7f7b2e5637de8d5670bd5be523fbccc1dfef88f0767eb2abf5ac4a81da61ae2002810361183457600c915050611902565b7f1cef0646e7fe7cb478d3a93d2e07774697c9239d0ee8b4294b768c91af329e66810361186557600d915050611902565b7f7cd5ba658b5dff64585bfcb0df7983749825e2292a4ff6daf96207e6eb100fe7810361189657600e915050611902565b7fa390d73d5fd5e6a577d394328e26ce85589c6d8c382fba9150fb136bbbf31ff781036118c757600f915050611902565b6040517f08c379a00000000000000000000000000000000000000000000000000000000081526004016118f99061307c565b60405180910390fd5b919050565b61199d8160405160240161191b919061309a565b6040516020818303038152906040527f41304fac000000000000000000000000000000000000000000000000000000007bffffffffffffffffffffffffffffffffffffffffffffffffffffffff19166020820180517bffffffffffffffffffffffffffffffffffffffffffffffffffffffff8381831617835250505050611b5b565b50565b60605f6119ac85610e32565b90505f6119b9868661119d565b90505f6119c6878661119d565b90505f60018484846119d89190612ef6565b6119e29190612fc6565b6119ec91906130ba565b67ffffffffffffffff1690508067ffffffffffffffff811115611a1257611a11611c57565b5b604051908082528060200260200182016040528015611a405781602001602082028036833780820191505090505b5094505f5f90505b81811015611ab3578467ffffffffffffffff1681611a669190612de7565b84611a7191906130ba565b868281518110611a8457611a83612e5b565b5b602002602001019067ffffffffffffffff16908167ffffffffffffffff16815250508080600101915050611a48565b50505050509392505050565b611b578282604051602401611ad5929190613104565b6040516020818303038152906040527fb60e72cc000000000000000000000000000000000000000000000000000000007bffffffffffffffffffffffffffffffffffffffffffffffffffffffff19166020820180517bffffffffffffffffffffffffffffffffffffffffffffffffffffffff8381831617835250505050611b5b565b5050565b611b7281611b6a611b75611b94565b63ffffffff16565b50565b5f6a636f6e736f6c652e6c6f6790505f5f835160208501845afa505050565b611c24819050919050565b611b438061316083390190565b6040518061018001604052805f67ffffffffffffffff16815260200160608152602001606081526020016060815260200160608152602001606081526020015f67ffffffffffffffff168152602001606081526020015f63ffffffff1681526020016060815260200160608152602001606081525090565b611c2c613132565b565b5f604051905090565b5f5ffd5b5f5ffd5b5f5ffd5b5f5ffd5b5f601f19601f8301169050919050565b7f4e487b71000000000000000000000000000000000000000000000000000000005f52604160045260245ffd5b611c8d82611c47565b810181811067ffffffffffffffff82111715611cac57611cab611c57565b5b80604052505050565b5f611cbe611c2e565b9050611cca8282611c84565b919050565b5f67ffffffffffffffff821115611ce957611ce8611c57565b5b611cf282611c47565b9050602081019050919050565b828183375f83830152505050565b5f611d1f611d1a84611ccf565b611cb5565b905082815260208101848484011115611d3b57611d3a611c43565b5b611d46848285611cff565b509392505050565b5f82601f830112611d6257611d61611c3f565b5b8135611d72848260208601611d0d565b91505092915050565b5f67ffffffffffffffff82169050919050565b611d9781611d7b565b8114611da1575f5ffd5b50565b5f81359050611db281611d8e565b92915050565b5f5f5f60608486031215611dcf57611dce611c37565b5b5f84013567ffffffffffffffff811115611dec57611deb611c3b565b5b611df886828701611d4e565b935050602084013567ffffffffffffffff811115611e1957611e18611c3b565b5b611e2586828701611d4e565b9250506040611e3686828701611da4565b9150509250925092565b5f81519050919050565b5f82825260208201905092915050565b5f819050602082019050919050565b611e7281611d7b565b82525050565b5f81519050919050565b5f82825260208201905092915050565b8281835e5f83830152505050565b5f611eaa82611e78565b611eb48185611e82565b9350611ec4818560208601611e92565b611ecd81611c47565b840191505092915050565b5f63ffffffff82169050919050565b611ef081611ed8565b82525050565b5f61018083015f830151611f0c5f860182611e69565b5060208301518482036020860152611f248282611ea0565b91505060408301518482036040860152611f3e8282611ea0565b91505060608301518482036060860152611f588282611ea0565b91505060808301518482036080860152611f728282611ea0565b91505060a083015184820360a0860152611f8c8282611ea0565b91505060c0830151611fa160c0860182611e69565b5060e083015184820360e0860152611fb98282611ea0565b915050610100830151611fd0610100860182611ee7565b50610120830151848203610120860152611fea8282611ea0565b9150506101408301518482036101408601526120068282611ea0565b9150506101608301518482036101608601526120228282611ea0565b9150508091505092915050565b5f61203a8383611ef6565b905092915050565b5f602082019050919050565b5f61205882611e40565b6120628185611e4a565b93508360208202850161207485611e5a565b805f5b858110156120af5784840389528151612090858261202f565b945061209b83612042565b925060208a01995050600181019050612077565b50829750879550505050505092915050565b5f6020820190508181035f8301526120d9818461204e565b905092915050565b5f5ffd5b5f5ffd5b6120f281611ed8565b81146120fc575f5ffd5b50565b5f8135905061210d816120e9565b92915050565b5f6101808284031215612129576121286120e1565b5b612134610180611cb5565b90505f61214384828501611da4565b5f83015250602082013567ffffffffffffffff811115612166576121656120e5565b5b61217284828501611d4e565b602083015250604082013567ffffffffffffffff811115612196576121956120e5565b5b6121a284828501611d4e565b604083015250606082013567ffffffffffffffff8111156121c6576121c56120e5565b5b6121d284828501611d4e565b606083015250608082013567ffffffffffffffff8111156121f6576121f56120e5565b5b61220284828501611d4e565b60808301525060a082013567ffffffffffffffff811115612226576122256120e5565b5b61223284828501611d4e565b60a08301525060c061224684828501611da4565b60c08301525060e082013567ffffffffffffffff81111561226a576122696120e5565b5b61227684828501611d4e565b60e08301525061010061228b848285016120ff565b6101008301525061012082013567ffffffffffffffff8111156122b1576122b06120e5565b5b6122bd84828501611d4e565b6101208301525061014082013567ffffffffffffffff8111156122e3576122e26120e5565b5b6122ef84828501611d4e565b6101408301525061016082013567ffffffffffffffff811115612315576123146120e5565b5b61232184828501611d4e565b6101608301525092915050565b5f5f5f6060848603121561234557612344611c37565b5b5f84013567ffffffffffffffff81111561236257612361611c3b565b5b61236e86828701611d4e565b935050602084013567ffffffffffffffff81111561238f5761238e611c3b565b5b61239b86828701611d4e565b925050604084013567ffffffffffffffff8111156123bc576123bb611c3b565b5b6123c886828701612113565b9150509250925092565b5f819050919050565b6123e4816123d2565b81146123ee575f5ffd5b50565b5f813590506123ff816123db565b92915050565b60108110612411575f5ffd5b50565b5f8135905061242281612405565b92915050565b5f5f5f6060848603121561243f5761243e611c37565b5b5f61244c868287016123f1565b935050602061245d86828701612414565b925050604061246e86828701611da4565b9150509250925092565b5f73ffffffffffffffffffffffffffffffffffffffff82169050919050565b5f6124a182612478565b9050919050565b6124b181612497565b82525050565b5f6020820190506124ca5f8301846124a8565b92915050565b5f819050919050565b6124e2816124d0565b81146124ec575f5ffd5b50565b5f813590506124fd816124d9565b92915050565b5f5f5f6060848603121561251a57612519611c37565b5b5f84013567ffffffffffffffff81111561253757612536611c3b565b5b61254386828701611d4e565b935050602084013567ffffffffffffffff81111561256457612563611c3b565b5b61257086828701611d4e565b9250506040612581868287016124ef565b9150509250925092565b5f5f5f5f5f60a086880312156125a4576125a3611c37565b5b5f86013567ffffffffffffffff8111156125c1576125c0611c3b565b5b6125cd88828901611d4e565b955050602086013567ffffffffffffffff8111156125ee576125ed611c3b565b5b6125fa88828901611d4e565b945050604061260b88828901611da4565b935050606061261c88828901611da4565b925050608061262d888289016124ef565b9150509295509295909350565b5f6020828403121561264f5761264e611c37565b5b5f61265c84828501612414565b91505092915050565b61266e81611d7b565b82525050565b5f6020820190506126875f830184612665565b92915050565b5f5f604083850312156126a3576126a2611c37565b5b5f6126b085828601612414565b92505060206126c185828601611da4565b9150509250929050565b5f602082840312156126e0576126df611c37565b5b5f82013567ffffffffffffffff8111156126fd576126fc611c3b565b5b61270984828501611d4e565b91505092915050565b7f4e487b71000000000000000000000000000000000000000000000000000000005f52602160045260245ffd5b601081106127505761274f612712565b5b50565b5f8190506127608261273f565b919050565b5f61276f82612753565b9050919050565b61277f81612765565b82525050565b5f6020820190506127985f830184612776565b92915050565b5f81905092915050565b5f6127b282611e78565b6127bc818561279e565b93506127cc818560208601611e92565b80840191505092915050565b5f6127e382846127a8565b915081905092915050565b5f67ffffffffffffffff82111561280857612807611c57565b5b602082029050602081019050919050565b5f5ffd5b5f8151905061282b81611d8e565b92915050565b5f61284361283e84611ccf565b611cb5565b90508281526020810184848401111561285f5761285e611c43565b5b61286a848285611e92565b509392505050565b5f82601f83011261288657612885611c3f565b5b8151612896848260208601612831565b91505092915050565b5f815190506128ad816120e9565b92915050565b5f61018082840312156128c9576128c86120e1565b5b6128d4610180611cb5565b90505f6128e38482850161281d565b5f83015250602082015167ffffffffffffffff811115612906576129056120e5565b5b61291284828501612872565b602083015250604082015167ffffffffffffffff811115612936576129356120e5565b5b61294284828501612872565b604083015250606082015167ffffffffffffffff811115612966576129656120e5565b5b61297284828501612872565b606083015250608082015167ffffffffffffffff811115612996576129956120e5565b5b6129a284828501612872565b60808301525060a082015167ffffffffffffffff8111156129c6576129c56120e5565b5b6129d284828501612872565b60a08301525060c06129e68482850161281d565b60c08301525060e082015167ffffffffffffffff811115612a0a57612a096120e5565b5b612a1684828501612872565b60e083015250610100612a2b8482850161289f565b6101008301525061012082015167ffffffffffffffff811115612a5157612a506120e5565b5b612a5d84828501612872565b6101208301525061014082015167ffffffffffffffff811115612a8357612a826120e5565b5b612a8f84828501612872565b6101408301525061016082015167ffffffffffffffff811115612ab557612ab46120e5565b5b612ac184828501612872565b6101608301525092915050565b5f612ae0612adb846127ee565b611cb5565b90508083825260208201905060208402830185811115612b0357612b02612819565b5b835b81811015612b4a57805167ffffffffffffffff811115612b2857612b27611c3f565b5b808601612b3589826128b3565b85526020850194505050602081019050612b05565b5050509392505050565b5f82601f830112612b6857612b67611c3f565b5b8151612b78848260208601612ace565b91505092915050565b5f60208284031215612b9657612b95611c37565b5b5f82015167ffffffffffffffff811115612bb357612bb2611c3b565b5b612bbf84828501612b54565b91505092915050565b5f82825260208201905092915050565b5f612be282611e78565b612bec8185612bc8565b9350612bfc818560208601611e92565b612c0581611c47565b840191505092915050565b5f6080820190508181035f830152612c288187612bd8565b90508181036020830152612c3c8186612bd8565b9050612c4b6040830185612665565b612c5860608301846124a8565b95945050505050565b5f61018083015f830151612c775f860182611e69565b5060208301518482036020860152612c8f8282611ea0565b91505060408301518482036040860152612ca98282611ea0565b91505060608301518482036060860152612cc38282611ea0565b91505060808301518482036080860152612cdd8282611ea0565b91505060a083015184820360a0860152612cf78282611ea0565b91505060c0830151612d0c60c0860182611e69565b5060e083015184820360e0860152612d248282611ea0565b915050610100830151612d3b610100860182611ee7565b50610120830151848203610120860152612d558282611ea0565b915050610140830151848203610140860152612d718282611ea0565b915050610160830151848203610160860152612d8d8282611ea0565b9150508091505092915050565b5f6020820190508181035f830152612db28184612c61565b905092915050565b7f4e487b71000000000000000000000000000000000000000000000000000000005f52601160045260245ffd5b5f612df1826124d0565b9150612dfc836124d0565b9250828202612e0a816124d0565b91508282048414831517612e2157612e20612dba565b5b5092915050565b5f612e32826124d0565b9150612e3d836124d0565b9250828203905081811115612e5557612e54612dba565b5b92915050565b7f4e487b71000000000000000000000000000000000000000000000000000000005f52603260045260245ffd5b5f612e92826124d0565b91507fffffffffffffffffffffffffffffffffffffffffffffffffffffffffffffffff8203612ec457612ec3612dba565b5b600182019050919050565b5f612ed9826124d0565b91505f8203612eeb57612eea612dba565b5b600182039050919050565b5f612f0082611d7b565b9150612f0b83611d7b565b9250828203905067ffffffffffffffff811115612f2b57612f2a612dba565b5b92915050565b7f556e737570706f7274656420696e74657276616c0000000000000000000000005f82015250565b5f612f65601483612bc8565b9150612f7082612f31565b602082019050919050565b5f6020820190508181035f830152612f9281612f59565b9050919050565b7f4e487b71000000000000000000000000000000000000000000000000000000005f52601260045260245ffd5b5f612fd082611d7b565b9150612fdb83611d7b565b925082612feb57612fea612f99565b5b828204905092915050565b5f61300082611d7b565b915061300b83611d7b565b925082820261301981611d7b565b915080821461302b5761302a612dba565b5b5092915050565b7f496e76616c696420696e74657276616c20737472696e670000000000000000005f82015250565b5f613066601783612bc8565b915061307182613032565b602082019050919050565b5f6020820190508181035f8301526130938161305a565b9050919050565b5f6020820190508181035f8301526130b28184612bd8565b905092915050565b5f6130c482611d7b565b91506130cf83611d7b565b9250828201905067ffffffffffffffff8111156130ef576130ee612dba565b5b92915050565b6130fe816124d0565b82525050565b5f6040820190508181035f83015261311c8185612bd8565b905061312b60208301846130f5565b9392505050565b7f4e487b71000000000000000000000000000000000000000000000000000000005f52605160045260245ffdfe6080604052348015600e575f5ffd5b503360015f6101000a81548173ffffffffffffffffffffffffffffffffffffffff021916908373ffffffffffffffffffffffffffffffffffffffff160217905550611ae78061005c5f395ff3fe608060405234801561000f575f5ffd5b5060043610610055575f3560e01c8063a6478d9714610059578063a8f9b0af14610077578063c45a015514610093578063ea6c8353146100b1578063fb34b3a9146100cf575b5f5ffd5b6100616100ed565b60405161006e919061103d565b60405180910390f35b610091600480360381019061008c919061143c565b6100f8565b005b61009b6102fe565b6040516100a891906114c2565b60405180910390f35b6100b9610323565b6040516100c6919061174d565b60405180910390f35b6100d76109a4565b6040516100e4919061174d565b60405180910390f35b5f5f80549050905090565b60015f9054906101000a900473ffffffffffffffffffffffffffffffffffffffff1673ffffffffffffffffffffffffffffffffffffffff163373ffffffffffffffffffffffffffffffffffffffff1614610187576040517f08c379a000000000000000000000000000000000000000000000000000000000815260040161017e906117c7565b60405180910390fd5b5f81908060018154018082558091505060019003905f5260205f2090600c02015f909190919091505f820151815f015f6101000a81548167ffffffffffffffff021916908367ffffffffffffffff16021790555060208201518160010190816101f091906119e2565b50604082015181600201908161020691906119e2565b50606082015181600301908161021c91906119e2565b50608082015181600401908161023291906119e2565b5060a082015181600501908161024891906119e2565b5060c0820151816006015f6101000a81548167ffffffffffffffff021916908367ffffffffffffffff16021790555060e082015181600701908161028c91906119e2565b50610100820151816008015f6101000a81548163ffffffff021916908363ffffffff1602179055506101208201518160090190816102ca91906119e2565b5061014082015181600a0190816102e191906119e2565b5061016082015181600b0190816102f891906119e2565b50505050565b60015f9054906101000a900473ffffffffffffffffffffffffffffffffffffffff1681565b606060015f9054906101000a900473ffffffffffffffffffffffffffffffffffffffff1673ffffffffffffffffffffffffffffffffffffffff163373ffffffffffffffffffffffffffffffffffffffff16146103b4576040517f08c379a00000000000000000000000000000000000000000000000000000000081526004016103ab906117c7565b60405180910390fd5b5f805480602002602001604051908101604052809291908181526020015f905b8282101561099b578382905f5260205f2090600c0201604051806101800160405290815f82015f9054906101000a900467ffffffffffffffff1667ffffffffffffffff1667ffffffffffffffff16815260200160018201805461043690611812565b80601f016020809104026020016040519081016040528092919081815260200182805461046290611812565b80156104ad5780601f10610484576101008083540402835291602001916104ad565b820191905f5260205f20905b81548152906001019060200180831161049057829003601f168201915b505050505081526020016002820180546104c690611812565b80601f01602080910402602001604051908101604052809291908181526020018280546104f290611812565b801561053d5780601f106105145761010080835404028352916020019161053d565b820191905f5260205f20905b81548152906001019060200180831161052057829003601f168201915b5050505050815260200160038201805461055690611812565b80601f016020809104026020016040519081016040528092919081815260200182805461058290611812565b80156105cd5780601f106105a4576101008083540402835291602001916105cd565b820191905f5260205f20905b8154815290600101906020018083116105b057829003601f168201915b505050505081526020016004820180546105e690611812565b80601f016020809104026020016040519081016040528092919081815260200182805461061290611812565b801561065d5780601f106106345761010080835404028352916020019161065d565b820191905f5260205f20905b81548152906001019060200180831161064057829003601f168201915b5050505050815260200160058201805461067690611812565b80601f01602080910402602001604051908101604052809291908181526020018280546106a290611812565b80156106ed5780601f106106c4576101008083540402835291602001916106ed565b820191905f5260205f20905b8154815290600101906020018083116106d057829003601f168201915b50505050508152602001600682015f9054906101000a900467ffffffffffffffff1667ffffffffffffffff1667ffffffffffffffff16815260200160078201805461073790611812565b80601f016020809104026020016040519081016040528092919081815260200182805461076390611812565b80156107ae5780601f10610785576101008083540402835291602001916107ae565b820191905f5260205f20905b81548152906001019060200180831161079157829003601f168201915b50505050508152602001600882015f9054906101000a900463ffffffff1663ffffffff1663ffffffff1681526020016009820180546107ec90611812565b80601f016020809104026020016040519081016040528092919081815260200182805461081890611812565b80156108635780601f1061083a57610100808354040283529160200191610863565b820191905f5260205f20905b81548152906001019060200180831161084657829003601f168201915b50505050508152602001600a8201805461087c90611812565b80601f01602080910402602001604051908101604052809291908181526020018280546108a890611812565b80156108f35780601f106108ca576101008083540402835291602001916108f3565b820191905f5260205f20905b8154815290600101906020018083116108d657829003601f168201915b50505050508152602001600b8201805461090c90611812565b80601f016020809104026020016040519081016040528092919081815260200182805461093890611812565b80156109835780601f1061095a57610100808354040283529160200191610983565b820191905f5260205f20905b81548152906001019060200180831161096657829003601f168201915b505050505081525050815260200190600101906103d4565b50505050905090565b606060015f9054906101000a900473ffffffffffffffffffffffffffffffffffffffff1673ffffffffffffffffffffffffffffffffffffffff163373ffffffffffffffffffffffffffffffffffffffff1614610a35576040517f08c379a0000000000000000000000000000000000000000000000000000000008152600401610a2c906117c7565b60405180910390fd5b5f805480602002602001604051908101604052809291908181526020015f905b8282101561101c578382905f5260205f2090600c0201604051806101800160405290815f82015f9054906101000a900467ffffffffffffffff1667ffffffffffffffff1667ffffffffffffffff168152602001600182018054610ab790611812565b80601f0160208091040260200160405190810160405280929190818152602001828054610ae390611812565b8015610b2e5780601f10610b0557610100808354040283529160200191610b2e565b820191905f5260205f20905b815481529060010190602001808311610b1157829003601f168201915b50505050508152602001600282018054610b4790611812565b80601f0160208091040260200160405190810160405280929190818152602001828054610b7390611812565b8015610bbe5780601f10610b9557610100808354040283529160200191610bbe565b820191905f5260205f20905b815481529060010190602001808311610ba157829003601f168201915b50505050508152602001600382018054610bd790611812565b80601f0160208091040260200160405190810160405280929190818152602001828054610c0390611812565b8015610c4e5780601f10610c2557610100808354040283529160200191610c4e565b820191905f5260205f20905b815481529060010190602001808311610c3157829003601f168201915b50505050508152602001600482018054610c6790611812565b80601f0160208091040260200160405190810160405280929190818152602001828054610c9390611812565b8015610cde5780601f10610cb557610100808354040283529160200191610cde565b820191905f5260205f20905b815481529060010190602001808311610cc157829003601f168201915b50505050508152602001600582018054610cf790611812565b80601f0160208091040260200160405190810160405280929190818152602001828054610d2390611812565b8015610d6e5780601f10610d4557610100808354040283529160200191610d6e565b820191905f5260205f20905b815481529060010190602001808311610d5157829003601f168201915b50505050508152602001600682015f9054906101000a900467ffffffffffffffff1667ffffffffffffffff1667ffffffffffffffff168152602001600782018054610db890611812565b80601f0160208091040260200160405190810160405280929190818152602001828054610de490611812565b8015610e2f5780601f10610e0657610100808354040283529160200191610e2f565b820191905f5260205f20905b815481529060010190602001808311610e1257829003601f168201915b50505050508152602001600882015f9054906101000a900463ffffffff1663ffffffff1663ffffffff168152602001600982018054610e6d90611812565b80601f0160208091040260200160405190810160405280929190818152602001828054610e9990611812565b8015610ee45780601f10610ebb57610100808354040283529160200191610ee4565b820191905f5260205f20905b815481529060010190602001808311610ec757829003601f168201915b50505050508152602001600a82018054610efd90611812565b80601f0160208091040260200160405190810160405280929190818152602001828054610f2990611812565b8015610f745780601f10610f4b57610100808354040283529160200191610f74565b820191905f5260205f20905b815481529060010190602001808311610f5757829003601f168201915b50505050508152602001600b82018054610f8d90611812565b80601f0160208091040260200160405190810160405280929190818152602001828054610fb990611812565b80156110045780601f10610fdb57610100808354040283529160200191611004565b820191905f5260205f20905b815481529060010190602001808311610fe757829003601f168201915b50505050508152505081526020019060010190610a55565b50505050905090565b5f819050919050565b61103781611025565b82525050565b5f6020820190506110505f83018461102e565b92915050565b5f604051905090565b5f5ffd5b5f5ffd5b5f5ffd5b5f601f19601f8301169050919050565b7f4e487b71000000000000000000000000000000000000000000000000000000005f52604160045260245ffd5b6110b18261106b565b810181811067ffffffffffffffff821117156110d0576110cf61107b565b5b80604052505050565b5f6110e2611056565b90506110ee82826110a8565b919050565b5f5ffd5b5f67ffffffffffffffff82169050919050565b611113816110f7565b811461111d575f5ffd5b50565b5f8135905061112e8161110a565b92915050565b5f5ffd5b5f5ffd5b5f67ffffffffffffffff8211156111565761115561107b565b5b61115f8261106b565b9050602081019050919050565b828183375f83830152505050565b5f61118c6111878461113c565b6110d9565b9050828152602081018484840111156111a8576111a7611138565b5b6111b384828561116c565b509392505050565b5f82601f8301126111cf576111ce611134565b5b81356111df84826020860161117a565b91505092915050565b5f63ffffffff82169050919050565b611200816111e8565b811461120a575f5ffd5b50565b5f8135905061121b816111f7565b92915050565b5f610180828403121561123757611236611067565b5b6112426101806110d9565b90505f61125184828501611120565b5f83015250602082013567ffffffffffffffff811115611274576112736110f3565b5b611280848285016111bb565b602083015250604082013567ffffffffffffffff8111156112a4576112a36110f3565b5b6112b0848285016111bb565b604083015250606082013567ffffffffffffffff8111156112d4576112d36110f3565b5b6112e0848285016111bb565b606083015250608082013567ffffffffffffffff811115611304576113036110f3565b5b611310848285016111bb565b60808301525060a082013567ffffffffffffffff811115611334576113336110f3565b5b611340848285016111bb565b60a08301525060c061135484828501611120565b60c08301525060e082013567ffffffffffffffff811115611378576113776110f3565b5b611384848285016111bb565b60e0830152506101006113998482850161120d565b6101008301525061012082013567ffffffffffffffff8111156113bf576113be6110f3565b5b6113cb848285016111bb565b6101208301525061014082013567ffffffffffffffff8111156113f1576113f06110f3565b5b6113fd848285016111bb565b6101408301525061016082013567ffffffffffffffff811115611423576114226110f3565b5b61142f848285016111bb565b6101608301525092915050565b5f602082840312156114515761145061105f565b5b5f82013567ffffffffffffffff81111561146e5761146d611063565b5b61147a84828501611221565b91505092915050565b5f73ffffffffffffffffffffffffffffffffffffffff82169050919050565b5f6114ac82611483565b9050919050565b6114bc816114a2565b82525050565b5f6020820190506114d55f8301846114b3565b92915050565b5f81519050919050565b5f82825260208201905092915050565b5f819050602082019050919050565b61150d816110f7565b82525050565b5f81519050919050565b5f82825260208201905092915050565b8281835e5f83830152505050565b5f61154582611513565b61154f818561151d565b935061155f81856020860161152d565b6115688161106b565b840191505092915050565b61157c816111e8565b82525050565b5f61018083015f8301516115985f860182611504565b50602083015184820360208601526115b0828261153b565b915050604083015184820360408601526115ca828261153b565b915050606083015184820360608601526115e4828261153b565b915050608083015184820360808601526115fe828261153b565b91505060a083015184820360a0860152611618828261153b565b91505060c083015161162d60c0860182611504565b5060e083015184820360e0860152611645828261153b565b91505061010083015161165c610100860182611573565b50610120830151848203610120860152611676828261153b565b915050610140830151848203610140860152611692828261153b565b9150506101608301518482036101608601526116ae828261153b565b9150508091505092915050565b5f6116c68383611582565b905092915050565b5f602082019050919050565b5f6116e4826114db565b6116ee81856114e5565b935083602082028501611700856114f5565b805f5b8581101561173b578484038952815161171c85826116bb565b9450611727836116ce565b925060208a01995050600181019050611703565b50829750879550505050505092915050565b5f6020820190508181035f83015261176581846116da565b905092915050565b5f82825260208201905092915050565b7f4e6f7420666163746f72790000000000000000000000000000000000000000005f82015250565b5f6117b1600b8361176d565b91506117bc8261177d565b602082019050919050565b5f6020820190508181035f8301526117de816117a5565b9050919050565b7f4e487b71000000000000000000000000000000000000000000000000000000005f52602260045260245ffd5b5f600282049050600182168061182957607f821691505b60208210810361183c5761183b6117e5565b5b50919050565b5f819050815f5260205f209050919050565b5f6020601f8301049050919050565b5f82821b905092915050565b5f6008830261189e7fffffffffffffffffffffffffffffffffffffffffffffffffffffffffffffffff82611863565b6118a88683611863565b95508019841693508086168417925050509392505050565b5f819050919050565b5f6118e36118de6118d984611025565b6118c0565b611025565b9050919050565b5f819050919050565b6118fc836118c9565b611910611908826118ea565b84845461186f565b825550505050565b5f5f905090565b611927611918565b6119328184846118f3565b505050565b5b818110156119555761194a5f8261191f565b600181019050611938565b5050565b601f82111561199a5761196b81611842565b61197484611854565b81016020851015611983578190505b61199761198f85611854565b830182611937565b50505b505050565b5f82821c905092915050565b5f6119ba5f198460080261199f565b1980831691505092915050565b5f6119d283836119ab565b9150826002028217905092915050565b6119eb82611513565b67ffffffffffffffff811115611a0457611a0361107b565b5b611a0e8254611812565b611a19828285611959565b5f60209050601f831160018114611a4a575f8415611a38578287015190505b611a4285826119c7565b865550611aa9565b601f198416611a5886611842565b5f5b82811015611a7f57848901518255600182019150602085019450602081019050611a5a565b86831015611a9c5784890151611a98601f8916826119ab565b8355505b6001600288020188555050505b50505050505056fea2646970667358221220f4dfe3be846e2ca9588d0fba5e7bc76478565a894574830b50ebf9e965bc941b64736f6c634300081e0033a2646970667358221220fe0b412c303550a7a4086ba474185111bce381eb6e9fc797b16d53201f11187564736f6c634300081e0033",
			"opcodes": "PUSH1 0x80 PUSH1 0x40 MSTORE CALLVALUE DUP1 ISZERO PUSH1 0xE JUMPI PUSH0 PUSH0 REVERT JUMPDEST POP PUSH2 0x4CD8 DUP1 PUSH2 0x1C PUSH0 CODECOPY PUSH0 RETURN INVALID PUSH1 0x80 PUSH1 0x40 MSTORE CALLVALUE DUP1 ISZERO PUSH2 0xF JUMPI PUSH0 PUSH0 REVERT JUMPDEST POP PUSH1 0x4 CALLDATASIZE LT PUSH2 0x86 JUMPI PUSH0 CALLDATALOAD PUSH1 0xE0 SHR DUP1 PUSH4 0x6FC78784 GT PUSH2 0x59 JUMPI DUP1 PUSH4 0x6FC78784 EQ PUSH2 0x136 JUMPI DUP1 PUSH4 0x7F93FF24 EQ PUSH2 0x166 JUMPI DUP1 PUSH4 0x8D412AD2 EQ PUSH2 0x196 JUMPI DUP1 PUSH4 0x93FAA992 EQ PUSH2 0x1C6 JUMPI PUSH2 0x86 JUMP JUMPDEST DUP1 PUSH4 0x38993F6B EQ PUSH2 0x8A JUMPI DUP1 PUSH4 0x53857F9F EQ PUSH2 0xBA JUMPI DUP1 PUSH4 0x5B3CB9D4 EQ PUSH2 0xD6 JUMPI DUP1 PUSH4 0x5E1DCCD1 EQ PUSH2 0x106 JUMPI JUMPDEST PUSH0 PUSH0 REVERT JUMPDEST PUSH2 0xA4 PUSH1 0x4 DUP1 CALLDATASIZE SUB DUP2 ADD SWAP1 PUSH2 0x9F SWAP2 SWAP1 PUSH2 0x1DB8 JUMP JUMPDEST PUSH2 0x1F6 JUMP JUMPDEST PUSH1 0x40 MLOAD PUSH2 0xB1 SWAP2 SWAP1 PUSH2 0x20C1 JUMP JUMPDEST PUSH1 0x40 MLOAD DUP1 SWAP2 SUB SWAP1 RETURN JUMPDEST PUSH2 0xD4 PUSH1 0x4 DUP1 CALLDATASIZE SUB DUP2 ADD SWAP1 PUSH2 0xCF SWAP2 SWAP1 PUSH2 0x232E JUMP JUMPDEST PUSH2 0x341 JUMP JUMPDEST STOP JUMPDEST PUSH2 0xF0 PUSH1 0x4 DUP1 CALLDATASIZE SUB DUP2 ADD SWAP1 PUSH2 0xEB SWAP2 SWAP1 PUSH2 0x2428 JUMP JUMPDEST PUSH2 0x5FA JUMP JUMPDEST PUSH1 0x40 MLOAD PUSH2 0xFD SWAP2 SWAP1 PUSH2 0x24B7 JUMP JUMPDEST PUSH1 0x40 MLOAD DUP1 SWAP2 SUB SWAP1 RETURN JUMPDEST PUSH2 0x120 PUSH1 0x4 DUP1 CALLDATASIZE SUB DUP2 ADD SWAP1 PUSH2 0x11B SWAP2 SWAP1 PUSH2 0x2503 JUMP JUMPDEST PUSH2 0x641 JUMP JUMPDEST PUSH1 0x40 MLOAD PUSH2 0x12D SWAP2 SWAP1 PUSH2 0x20C1 JUMP JUMPDEST PUSH1 0x40 MLOAD DUP1 SWAP2 SUB SWAP1 RETURN JUMPDEST PUSH2 0x150 PUSH1 0x4 DUP1 CALLDATASIZE SUB DUP2 ADD SWAP1 PUSH2 0x14B SWAP2 SWAP1 PUSH2 0x258B JUMP JUMPDEST PUSH2 0x9C4 JUMP JUMPDEST PUSH1 0x40 MLOAD PUSH2 0x15D SWAP2 SWAP1 PUSH2 0x20C1 JUMP JUMPDEST PUSH1 0x40 MLOAD DUP1 SWAP2 SUB SWAP1 RETURN JUMPDEST PUSH2 0x180 PUSH1 0x4 DUP1 CALLDATASIZE SUB DUP2 ADD SWAP1 PUSH2 0x17B SWAP2 SWAP1 PUSH2 0x263A JUMP JUMPDEST PUSH2 0xE32 JUMP JUMPDEST PUSH1 0x40 MLOAD PUSH2 0x18D SWAP2 SWAP1 PUSH2 0x2674 JUMP JUMPDEST PUSH1 0x40 MLOAD DUP1 SWAP2 SUB SWAP1 RETURN JUMPDEST PUSH2 0x1B0 PUSH1 0x4 DUP1 CALLDATASIZE SUB DUP2 ADD SWAP1 PUSH2 0x1AB SWAP2 SWAP1 PUSH2 0x268D JUMP JUMPDEST PUSH2 0x119D JUMP JUMPDEST PUSH1 0x40 MLOAD PUSH2 0x1BD SWAP2 SWAP1 PUSH2 0x2674 JUMP JUMPDEST PUSH1 0x40 MLOAD DUP1 SWAP2 SUB SWAP1 RETURN JUMPDEST PUSH2 0x1E0 PUSH1 0x4 DUP1 CALLDATASIZE SUB DUP2 ADD SWAP1 PUSH2 0x1DB SWAP2 SWAP1 PUSH2 0x26CB JUMP JUMPDEST PUSH2 0x158D JUMP JUMPDEST PUSH1 0x40 MLOAD PUSH2 0x1ED SWAP2 SWAP1 PUSH2 0x2785 JUMP JUMPDEST PUSH1 0x40 MLOAD DUP1 SWAP2 SUB SWAP1 RETURN JUMPDEST PUSH1 0x60 PUSH0 PUSH2 0x202 DUP5 PUSH2 0x158D JUMP JUMPDEST SWAP1 POP PUSH0 DUP6 PUSH1 0x40 MLOAD PUSH1 0x20 ADD PUSH2 0x216 SWAP2 SWAP1 PUSH2 0x27D8 JUMP JUMPDEST PUSH1 0x40 MLOAD PUSH1 0x20 DUP2 DUP4 SUB SUB DUP2 MSTORE SWAP1 PUSH1 0x40 MSTORE DUP1 MLOAD SWAP1 PUSH1 0x20 ADD KECCAK256 SWAP1 POP PUSH0 PUSH2 0x239 DUP4 DUP7 PUSH2 0x119D JUMP JUMPDEST SWAP1 POP PUSH0 PUSH0 PUSH0 DUP5 DUP2 MSTORE PUSH1 0x20 ADD SWAP1 DUP2 MSTORE PUSH1 0x20 ADD PUSH0 KECCAK256 PUSH0 DUP6 PUSH1 0xF DUP2 GT ISZERO PUSH2 0x260 JUMPI PUSH2 0x25F PUSH2 0x2712 JUMP JUMPDEST JUMPDEST PUSH1 0xF DUP2 GT ISZERO PUSH2 0x272 JUMPI PUSH2 0x271 PUSH2 0x2712 JUMP JUMPDEST JUMPDEST DUP2 MSTORE PUSH1 0x20 ADD SWAP1 DUP2 MSTORE PUSH1 0x20 ADD PUSH0 KECCAK256 PUSH0 DUP4 PUSH8 0xFFFFFFFFFFFFFFFF AND PUSH8 0xFFFFFFFFFFFFFFFF AND DUP2 MSTORE PUSH1 0x20 ADD SWAP1 DUP2 MSTORE PUSH1 0x20 ADD PUSH0 KECCAK256 PUSH0 SWAP1 SLOAD SWAP1 PUSH2 0x100 EXP SWAP1 DIV PUSH20 0xFFFFFFFFFFFFFFFFFFFFFFFFFFFFFFFFFFFFFFFF AND SWAP1 POP DUP1 PUSH20 0xFFFFFFFFFFFFFFFFFFFFFFFFFFFFFFFFFFFFFFFF AND PUSH4 0xFB34B3A9 PUSH1 0x40 MLOAD DUP2 PUSH4 0xFFFFFFFF AND PUSH1 0xE0 SHL DUP2 MSTORE PUSH1 0x4 ADD PUSH0 PUSH1 0x40 MLOAD DUP1 DUP4 SUB DUP2 DUP7 GAS STATICCALL ISZERO DUP1 ISZERO PUSH2 0x30C JUMPI RETURNDATASIZE PUSH0 PUSH0 RETURNDATACOPY RETURNDATASIZE PUSH0 REVERT JUMPDEST POP POP POP POP PUSH1 0x40 MLOAD RETURNDATASIZE PUSH0 DUP3 RETURNDATACOPY RETURNDATASIZE PUSH1 0x1F NOT PUSH1 0x1F DUP3 ADD AND DUP3 ADD DUP1 PUSH1 0x40 MSTORE POP DUP2 ADD SWAP1 PUSH2 0x334 SWAP2 SWAP1 PUSH2 0x2B81 JUMP JUMPDEST SWAP5 POP POP POP POP POP SWAP4 SWAP3 POP POP POP JUMP JUMPDEST PUSH0 PUSH2 0x34B DUP4 PUSH2 0x158D JUMP JUMPDEST SWAP1 POP PUSH0 DUP5 PUSH1 0x40 MLOAD PUSH1 0x20 ADD PUSH2 0x35F SWAP2 SWAP1 PUSH2 0x27D8 JUMP JUMPDEST PUSH1 0x40 MLOAD PUSH1 0x20 DUP2 DUP4 SUB SUB DUP2 MSTORE SWAP1 PUSH1 0x40 MSTORE DUP1 MLOAD SWAP1 PUSH1 0x20 ADD KECCAK256 SWAP1 POP PUSH0 PUSH2 0x385 DUP4 DUP6 PUSH0 ADD MLOAD PUSH2 0x119D JUMP JUMPDEST SWAP1 POP PUSH0 PUSH0 PUSH0 DUP5 DUP2 MSTORE PUSH1 0x20 ADD SWAP1 DUP2 MSTORE PUSH1 0x20 ADD PUSH0 KECCAK256 PUSH0 DUP6 PUSH1 0xF DUP2 GT ISZERO PUSH2 0x3AC JUMPI PUSH2 0x3AB PUSH2 0x2712 JUMP JUMPDEST JUMPDEST PUSH1 0xF DUP2 GT ISZERO PUSH2 0x3BE JUMPI PUSH2 0x3BD PUSH2 0x2712 JUMP JUMPDEST JUMPDEST DUP2 MSTORE PUSH1 0x20 ADD SWAP1 DUP2 MSTORE PUSH1 0x20 ADD PUSH0 KECCAK256 PUSH0 DUP4 PUSH8 0xFFFFFFFFFFFFFFFF AND PUSH8 0xFFFFFFFFFFFFFFFF AND DUP2 MSTORE PUSH1 0x20 ADD SWAP1 DUP2 MSTORE PUSH1 0x20 ADD PUSH0 KECCAK256 PUSH0 SWAP1 SLOAD SWAP1 PUSH2 0x100 EXP SWAP1 DIV PUSH20 0xFFFFFFFFFFFFFFFFFFFFFFFFFFFFFFFFFFFFFFFF AND SWAP1 POP PUSH0 PUSH20 0xFFFFFFFFFFFFFFFFFFFFFFFFFFFFFFFFFFFFFFFF AND DUP2 PUSH20 0xFFFFFFFFFFFFFFFFFFFFFFFFFFFFFFFFFFFFFFFF AND SUB PUSH2 0x58B JUMPI PUSH2 0x481 PUSH1 0x40 MLOAD DUP1 PUSH1 0x40 ADD PUSH1 0x40 MSTORE DUP1 PUSH1 0x14 DUP2 MSTORE PUSH1 0x20 ADD PUSH32 0x437265617465206E657720616464727265737373000000000000000000000000 DUP2 MSTORE POP PUSH2 0x1907 JUMP JUMPDEST PUSH1 0x40 MLOAD PUSH2 0x48D SWAP1 PUSH2 0x1B9F JUMP JUMPDEST PUSH1 0x40 MLOAD DUP1 SWAP2 SUB SWAP1 PUSH0 CREATE DUP1 ISZERO DUP1 ISZERO PUSH2 0x4A6 JUMPI RETURNDATASIZE PUSH0 PUSH0 RETURNDATACOPY RETURNDATASIZE PUSH0 REVERT JUMPDEST POP SWAP1 POP DUP1 PUSH0 PUSH0 DUP6 DUP2 MSTORE PUSH1 0x20 ADD SWAP1 DUP2 MSTORE PUSH1 0x20 ADD PUSH0 KECCAK256 PUSH0 DUP7 PUSH1 0xF DUP2 GT ISZERO PUSH2 0x4CE JUMPI PUSH2 0x4CD PUSH2 0x2712 JUMP JUMPDEST JUMPDEST PUSH1 0xF DUP2 GT ISZERO PUSH2 0x4E0 JUMPI PUSH2 0x4DF PUSH2 0x2712 JUMP JUMPDEST JUMPDEST DUP2 MSTORE PUSH1 0x20 ADD SWAP1 DUP2 MSTORE PUSH1 0x20 ADD PUSH0 KECCAK256 PUSH0 DUP5 PUSH8 0xFFFFFFFFFFFFFFFF AND PUSH8 0xFFFFFFFFFFFFFFFF AND DUP2 MSTORE PUSH1 0x20 ADD SWAP1 DUP2 MSTORE PUSH1 0x20 ADD PUSH0 KECCAK256 PUSH0 PUSH2 0x100 EXP DUP2 SLOAD DUP2 PUSH20 0xFFFFFFFFFFFFFFFFFFFFFFFFFFFFFFFFFFFFFFFF MUL NOT AND SWAP1 DUP4 PUSH20 0xFFFFFFFFFFFFFFFFFFFFFFFFFFFFFFFFFFFFFFFF AND MUL OR SWAP1 SSTORE POP PUSH32 0x2A9E82BE7BC20784DCC707F4814CA404AC4A94DB66450718F7733B160FB62D86 DUP8 DUP8 DUP5 DUP5 PUSH1 0x40 MLOAD PUSH2 0x582 SWAP5 SWAP4 SWAP3 SWAP2 SWAP1 PUSH2 0x2C10 JUMP JUMPDEST PUSH1 0x40 MLOAD DUP1 SWAP2 SUB SWAP1 LOG1 JUMPDEST DUP1 PUSH20 0xFFFFFFFFFFFFFFFFFFFFFFFFFFFFFFFFFFFFFFFF AND PUSH4 0xA8F9B0AF DUP7 PUSH1 0x40 MLOAD DUP3 PUSH4 0xFFFFFFFF AND PUSH1 0xE0 SHL DUP2 MSTORE PUSH1 0x4 ADD PUSH2 0x5C4 SWAP2 SWAP1 PUSH2 0x2D9A JUMP JUMPDEST PUSH0 PUSH1 0x40 MLOAD DUP1 DUP4 SUB DUP2 PUSH0 DUP8 DUP1 EXTCODESIZE ISZERO DUP1 ISZERO PUSH2 0x5DB JUMPI PUSH0 PUSH0 REVERT JUMPDEST POP GAS CALL ISZERO DUP1 ISZERO PUSH2 0x5ED JUMPI RETURNDATASIZE PUSH0 PUSH0 RETURNDATACOPY RETURNDATASIZE PUSH0 REVERT JUMPDEST POP POP POP POP POP POP POP POP POP POP POP JUMP JUMPDEST PUSH0 PUSH1 0x20 MSTORE DUP3 PUSH0 MSTORE PUSH1 0x40 PUSH0 KECCAK256 PUSH1 0x20 MSTORE DUP2 PUSH0 MSTORE PUSH1 0x40 PUSH0 KECCAK256 PUSH1 0x20 MSTORE DUP1 PUSH0 MSTORE PUSH1 0x40 PUSH0 KECCAK256 PUSH0 SWAP3 POP SWAP3 POP POP SWAP1 SLOAD SWAP1 PUSH2 0x100 EXP SWAP1 DIV PUSH20 0xFFFFFFFFFFFFFFFFFFFFFFFFFFFFFFFFFFFFFFFF AND DUP2 JUMP JUMPDEST PUSH1 0x60 PUSH0 DUP3 SUB PUSH2 0x650 JUMPI PUSH2 0x12C SWAP2 POP JUMPDEST PUSH0 PUSH2 0x65A DUP5 PUSH2 0x158D JUMP JUMPDEST SWAP1 POP PUSH0 DUP6 PUSH1 0x40 MLOAD PUSH1 0x20 ADD PUSH2 0x66E SWAP2 SWAP1 PUSH2 0x27D8 JUMP JUMPDEST PUSH1 0x40 MLOAD PUSH1 0x20 DUP2 DUP4 SUB SUB DUP2 MSTORE SWAP1 PUSH1 0x40 MSTORE DUP1 MLOAD SWAP1 PUSH1 0x20 ADD KECCAK256 SWAP1 POP PUSH0 PUSH2 0x3E8 TIMESTAMP PUSH2 0x695 SWAP2 SWAP1 PUSH2 0x2DE7 JUMP JUMPDEST SWAP1 POP PUSH0 PUSH2 0x6A2 DUP5 DUP4 PUSH2 0x119D JUMP JUMPDEST SWAP1 POP PUSH0 PUSH2 0x6AE DUP6 PUSH2 0xE32 JUMP JUMPDEST SWAP1 POP PUSH0 DUP8 PUSH8 0xFFFFFFFFFFFFFFFF DUP2 GT ISZERO PUSH2 0x6CB JUMPI PUSH2 0x6CA PUSH2 0x1C57 JUMP JUMPDEST JUMPDEST PUSH1 0x40 MLOAD SWAP1 DUP1 DUP3 MSTORE DUP1 PUSH1 0x20 MUL PUSH1 0x20 ADD DUP3 ADD PUSH1 0x40 MSTORE DUP1 ISZERO PUSH2 0x704 JUMPI DUP2 PUSH1 0x20 ADD JUMPDEST PUSH2 0x6F1 PUSH2 0x1BAC JUMP JUMPDEST DUP2 MSTORE PUSH1 0x20 ADD SWAP1 PUSH1 0x1 SWAP1 SUB SWAP1 DUP2 PUSH2 0x6E9 JUMPI SWAP1 POP JUMPDEST POP SWAP1 POP PUSH0 PUSH0 SWAP1 POP JUMPDEST PUSH1 0x1 ISZERO PUSH2 0x90C JUMPI PUSH0 PUSH0 PUSH0 DUP9 DUP2 MSTORE PUSH1 0x20 ADD SWAP1 DUP2 MSTORE PUSH1 0x20 ADD PUSH0 KECCAK256 PUSH0 DUP10 PUSH1 0xF DUP2 GT ISZERO PUSH2 0x738 JUMPI PUSH2 0x737 PUSH2 0x2712 JUMP JUMPDEST JUMPDEST PUSH1 0xF DUP2 GT ISZERO PUSH2 0x74A JUMPI PUSH2 0x749 PUSH2 0x2712 JUMP JUMPDEST JUMPDEST DUP2 MSTORE PUSH1 0x20 ADD SWAP1 DUP2 MSTORE PUSH1 0x20 ADD PUSH0 KECCAK256 PUSH0 DUP7 PUSH8 0xFFFFFFFFFFFFFFFF AND PUSH8 0xFFFFFFFFFFFFFFFF AND DUP2 MSTORE PUSH1 0x20 ADD SWAP1 DUP2 MSTORE PUSH1 0x20 ADD PUSH0 KECCAK256 PUSH0 SWAP1 SLOAD SWAP1 PUSH2 0x100 EXP SWAP1 DIV PUSH20 0xFFFFFFFFFFFFFFFFFFFFFFFFFFFFFFFFFFFFFFFF AND SWAP1 POP PUSH0 PUSH20 0xFFFFFFFFFFFFFFFFFFFFFFFFFFFFFFFFFFFFFFFF AND DUP2 PUSH20 0xFFFFFFFFFFFFFFFFFFFFFFFFFFFFFFFFFFFFFFFF AND EQ PUSH2 0x8C3 JUMPI PUSH0 DUP2 PUSH20 0xFFFFFFFFFFFFFFFFFFFFFFFFFFFFFFFFFFFFFFFF AND PUSH4 0xEA6C8353 PUSH1 0x40 MLOAD DUP2 PUSH4 0xFFFFFFFF AND PUSH1 0xE0 SHL DUP2 MSTORE PUSH1 0x4 ADD PUSH0 PUSH1 0x40 MLOAD DUP1 DUP4 SUB DUP2 DUP7 GAS STATICCALL ISZERO DUP1 ISZERO PUSH2 0x818 JUMPI RETURNDATASIZE PUSH0 PUSH0 RETURNDATACOPY RETURNDATASIZE PUSH0 REVERT JUMPDEST POP POP POP POP PUSH1 0x40 MLOAD RETURNDATASIZE PUSH0 DUP3 RETURNDATACOPY RETURNDATASIZE PUSH1 0x1F NOT PUSH1 0x1F DUP3 ADD AND DUP3 ADD DUP1 PUSH1 0x40 MSTORE POP DUP2 ADD SWAP1 PUSH2 0x840 SWAP2 SWAP1 PUSH2 0x2B81 JUMP JUMPDEST SWAP1 POP PUSH0 DUP2 MLOAD SWAP1 POP JUMPDEST PUSH0 DUP2 GT ISZERO PUSH2 0x8BC JUMPI DUP12 DUP5 SUB ISZERO PUSH2 0x8BC JUMPI DUP2 PUSH1 0x1 DUP3 PUSH2 0x866 SWAP2 SWAP1 PUSH2 0x2E28 JUMP JUMPDEST DUP2 MLOAD DUP2 LT PUSH2 0x877 JUMPI PUSH2 0x876 PUSH2 0x2E5B JUMP JUMPDEST JUMPDEST PUSH1 0x20 MUL PUSH1 0x20 ADD ADD MLOAD DUP6 DUP6 DUP1 PUSH2 0x88B SWAP1 PUSH2 0x2E88 JUMP JUMPDEST SWAP7 POP DUP2 MLOAD DUP2 LT PUSH2 0x89E JUMPI PUSH2 0x89D PUSH2 0x2E5B JUMP JUMPDEST JUMPDEST PUSH1 0x20 MUL PUSH1 0x20 ADD ADD DUP2 SWAP1 MSTORE POP DUP1 DUP1 PUSH2 0x8B4 SWAP1 PUSH2 0x2ECF JUMP JUMPDEST SWAP2 POP POP PUSH2 0x848 JUMP JUMPDEST POP POP PUSH2 0x8C9 JUMP JUMPDEST POP PUSH2 0x90C JUMP JUMPDEST DUP10 DUP3 LT PUSH2 0x8D6 JUMPI POP PUSH2 0x90C JUMP JUMPDEST DUP4 PUSH8 0xFFFFFFFFFFFFFFFF AND DUP6 PUSH8 0xFFFFFFFFFFFFFFFF AND LT ISZERO PUSH2 0x8F8 JUMPI POP PUSH2 0x90C JUMP JUMPDEST DUP4 DUP6 PUSH2 0x904 SWAP2 SWAP1 PUSH2 0x2EF6 JUMP JUMPDEST SWAP5 POP POP PUSH2 0x70C JUMP JUMPDEST DUP1 PUSH8 0xFFFFFFFFFFFFFFFF DUP2 GT ISZERO PUSH2 0x926 JUMPI PUSH2 0x925 PUSH2 0x1C57 JUMP JUMPDEST JUMPDEST PUSH1 0x40 MLOAD SWAP1 DUP1 DUP3 MSTORE DUP1 PUSH1 0x20 MUL PUSH1 0x20 ADD DUP3 ADD PUSH1 0x40 MSTORE DUP1 ISZERO PUSH2 0x95F JUMPI DUP2 PUSH1 0x20 ADD JUMPDEST PUSH2 0x94C PUSH2 0x1BAC JUMP JUMPDEST DUP2 MSTORE PUSH1 0x20 ADD SWAP1 PUSH1 0x1 SWAP1 SUB SWAP1 DUP2 PUSH2 0x944 JUMPI SWAP1 POP JUMPDEST POP SWAP8 POP PUSH0 PUSH0 SWAP1 POP JUMPDEST DUP2 DUP2 LT ISZERO PUSH2 0x9B5 JUMPI DUP3 DUP2 DUP2 MLOAD DUP2 LT PUSH2 0x982 JUMPI PUSH2 0x981 PUSH2 0x2E5B JUMP JUMPDEST JUMPDEST PUSH1 0x20 MUL PUSH1 0x20 ADD ADD MLOAD DUP10 DUP3 DUP2 MLOAD DUP2 LT PUSH2 0x99D JUMPI PUSH2 0x99C PUSH2 0x2E5B JUMP JUMPDEST JUMPDEST PUSH1 0x20 MUL PUSH1 0x20 ADD ADD DUP2 SWAP1 MSTORE POP DUP1 DUP1 PUSH1 0x1 ADD SWAP2 POP POP PUSH2 0x967 JUMP JUMPDEST POP POP POP POP POP POP POP POP SWAP4 SWAP3 POP POP POP JUMP JUMPDEST PUSH1 0x60 PUSH0 PUSH2 0x9D0 DUP7 PUSH2 0x158D JUMP JUMPDEST SWAP1 POP PUSH0 DUP8 PUSH1 0x40 MLOAD PUSH1 0x20 ADD PUSH2 0x9E4 SWAP2 SWAP1 PUSH2 0x27D8 JUMP JUMPDEST PUSH1 0x40 MLOAD PUSH1 0x20 DUP2 DUP4 SUB SUB DUP2 MSTORE SWAP1 PUSH1 0x40 MSTORE DUP1 MLOAD SWAP1 PUSH1 0x20 ADD KECCAK256 SWAP1 POP PUSH0 PUSH2 0xA08 DUP4 DUP9 DUP9 PUSH2 0x19A0 JUMP JUMPDEST SWAP1 POP PUSH0 PUSH0 DUP7 PUSH8 0xFFFFFFFFFFFFFFFF DUP2 GT ISZERO PUSH2 0xA26 JUMPI PUSH2 0xA25 PUSH2 0x1C57 JUMP JUMPDEST JUMPDEST PUSH1 0x40 MLOAD SWAP1 DUP1 DUP3 MSTORE DUP1 PUSH1 0x20 MUL PUSH1 0x20 ADD DUP3 ADD PUSH1 0x40 MSTORE DUP1 ISZERO PUSH2 0xA5F JUMPI DUP2 PUSH1 0x20 ADD JUMPDEST PUSH2 0xA4C PUSH2 0x1BAC JUMP JUMPDEST DUP2 MSTORE PUSH1 0x20 ADD SWAP1 PUSH1 0x1 SWAP1 SUB SWAP1 DUP2 PUSH2 0xA44 JUMPI SWAP1 POP JUMPDEST POP SWAP1 POP PUSH0 PUSH0 SWAP1 POP JUMPDEST DUP4 MLOAD DUP2 LT ISZERO PUSH2 0xD5C JUMPI PUSH0 PUSH0 PUSH0 DUP8 DUP2 MSTORE PUSH1 0x20 ADD SWAP1 DUP2 MSTORE PUSH1 0x20 ADD PUSH0 KECCAK256 PUSH0 DUP9 PUSH1 0xF DUP2 GT ISZERO PUSH2 0xA95 JUMPI PUSH2 0xA94 PUSH2 0x2712 JUMP JUMPDEST JUMPDEST PUSH1 0xF DUP2 GT ISZERO PUSH2 0xAA7 JUMPI PUSH2 0xAA6 PUSH2 0x2712 JUMP JUMPDEST JUMPDEST DUP2 MSTORE PUSH1 0x20 ADD SWAP1 DUP2 MSTORE PUSH1 0x20 ADD PUSH0 KECCAK256 PUSH0 DUP7 DUP5 DUP2 MLOAD DUP2 LT PUSH2 0xAC8 JUMPI PUSH2 0xAC7 PUSH2 0x2E5B JUMP JUMPDEST JUMPDEST PUSH1 0x20 MUL PUSH1 0x20 ADD ADD MLOAD PUSH8 0xFFFFFFFFFFFFFFFF AND PUSH8 0xFFFFFFFFFFFFFFFF AND DUP2 MSTORE PUSH1 0x20 ADD SWAP1 DUP2 MSTORE PUSH1 0x20 ADD PUSH0 KECCAK256 PUSH0 SWAP1 SLOAD SWAP1 PUSH2 0x100 EXP SWAP1 DIV PUSH20 0xFFFFFFFFFFFFFFFFFFFFFFFFFFFFFFFFFFFFFFFF AND SWAP1 POP PUSH0 PUSH20 0xFFFFFFFFFFFFFFFFFFFFFFFFFFFFFFFFFFFFFFFF AND DUP2 PUSH20 0xFFFFFFFFFFFFFFFFFFFFFFFFFFFFFFFFFFFFFFFF AND SUB PUSH2 0xB4C JUMPI POP PUSH2 0xD4F JUMP JUMPDEST PUSH2 0xBAF PUSH1 0x40 MLOAD DUP1 PUSH1 0x40 ADD PUSH1 0x40 MSTORE DUP1 PUSH1 0x6 DUP2 MSTORE PUSH1 0x20 ADD PUSH32 0x54696D653A200000000000000000000000000000000000000000000000000000 DUP2 MSTORE POP DUP7 DUP5 DUP2 MLOAD DUP2 LT PUSH2 0xB98 JUMPI PUSH2 0xB97 PUSH2 0x2E5B JUMP JUMPDEST JUMPDEST PUSH1 0x20 MUL PUSH1 0x20 ADD ADD MLOAD PUSH8 0xFFFFFFFFFFFFFFFF AND PUSH2 0x1ABF JUMP JUMPDEST PUSH0 DUP2 PUSH20 0xFFFFFFFFFFFFFFFFFFFFFFFFFFFFFFFFFFFFFFFF AND PUSH4 0xEA6C8353 PUSH1 0x40 MLOAD DUP2 PUSH4 0xFFFFFFFF AND PUSH1 0xE0 SHL DUP2 MSTORE PUSH1 0x4 ADD PUSH0 PUSH1 0x40 MLOAD DUP1 DUP4 SUB DUP2 DUP7 GAS STATICCALL ISZERO DUP1 ISZERO PUSH2 0xBF8 JUMPI RETURNDATASIZE PUSH0 PUSH0 RETURNDATACOPY RETURNDATASIZE PUSH0 REVERT JUMPDEST POP POP POP POP PUSH1 0x40 MLOAD RETURNDATASIZE PUSH0 DUP3 RETURNDATACOPY RETURNDATASIZE PUSH1 0x1F NOT PUSH1 0x1F DUP3 ADD AND DUP3 ADD DUP1 PUSH1 0x40 MSTORE POP DUP2 ADD SWAP1 PUSH2 0xC20 SWAP2 SWAP1 PUSH2 0x2B81 JUMP JUMPDEST SWAP1 POP PUSH0 DUP2 MLOAD SWAP1 POP JUMPDEST PUSH0 DUP2 GT ISZERO PUSH2 0xD3D JUMPI PUSH0 DUP3 PUSH1 0x1 DUP4 PUSH2 0xC3F SWAP2 SWAP1 PUSH2 0x2E28 JUMP JUMPDEST DUP2 MLOAD DUP2 LT PUSH2 0xC50 JUMPI PUSH2 0xC4F PUSH2 0x2E5B JUMP JUMPDEST JUMPDEST PUSH1 0x20 MUL PUSH1 0x20 ADD ADD MLOAD SWAP1 POP DUP14 PUSH8 0xFFFFFFFFFFFFFFFF AND DUP2 PUSH0 ADD MLOAD PUSH8 0xFFFFFFFFFFFFFFFF AND LT ISZERO PUSH2 0xC7F JUMPI POP PUSH2 0xD2A JUMP JUMPDEST DUP13 PUSH8 0xFFFFFFFFFFFFFFFF AND DUP2 PUSH0 ADD MLOAD PUSH8 0xFFFFFFFFFFFFFFFF AND GT ISZERO PUSH2 0xCA4 JUMPI POP PUSH2 0xD2A JUMP JUMPDEST DUP1 DUP7 DUP9 DUP1 PUSH2 0xCB1 SWAP1 PUSH2 0x2E88 JUMP JUMPDEST SWAP10 POP DUP2 MLOAD DUP2 LT PUSH2 0xCC4 JUMPI PUSH2 0xCC3 PUSH2 0x2E5B JUMP JUMPDEST JUMPDEST PUSH1 0x20 MUL PUSH1 0x20 ADD ADD DUP2 SWAP1 MSTORE POP PUSH2 0xD1B PUSH1 0x40 MLOAD DUP1 PUSH1 0x40 ADD PUSH1 0x40 MSTORE DUP1 PUSH1 0xA DUP2 MSTORE PUSH1 0x20 ADD PUSH32 0x656C656D2074696D653A00000000000000000000000000000000000000000000 DUP2 MSTORE POP DUP3 PUSH0 ADD MLOAD PUSH8 0xFFFFFFFFFFFFFFFF AND PUSH2 0x1ABF JUMP JUMPDEST DUP12 DUP8 SUB PUSH2 0xD28 JUMPI POP PUSH2 0xD3D JUMP JUMPDEST POP JUMPDEST DUP1 DUP1 PUSH2 0xD35 SWAP1 PUSH2 0x2ECF JUMP JUMPDEST SWAP2 POP POP PUSH2 0xC28 JUMP JUMPDEST POP DUP10 DUP6 SUB PUSH2 0xD4C JUMPI POP POP PUSH2 0xD5C JUMP JUMPDEST POP POP JUMPDEST DUP1 DUP1 PUSH1 0x1 ADD SWAP2 POP POP PUSH2 0xA67 JUMP JUMPDEST POP DUP2 PUSH8 0xFFFFFFFFFFFFFFFF DUP2 GT ISZERO PUSH2 0xD77 JUMPI PUSH2 0xD76 PUSH2 0x1C57 JUMP JUMPDEST JUMPDEST PUSH1 0x40 MLOAD SWAP1 DUP1 DUP3 MSTORE DUP1 PUSH1 0x20 MUL PUSH1 0x20 ADD DUP3 ADD PUSH1 0x40 MSTORE DUP1 ISZERO PUSH2 0xDB0 JUMPI DUP2 PUSH1 0x20 ADD JUMPDEST PUSH2 0xD9D PUSH2 0x1BAC JUMP JUMPDEST DUP2 MSTORE PUSH1 0x20 ADD SWAP1 PUSH1 0x1 SWAP1 SUB SWAP1 DUP2 PUSH2 0xD95 JUMPI SWAP1 POP JUMPDEST POP SWAP6 POP PUSH0 DUP3 SWAP1 POP JUMPDEST PUSH0 DUP2 GT ISZERO PUSH2 0xE23 JUMPI DUP2 PUSH1 0x1 DUP3 PUSH2 0xDCE SWAP2 SWAP1 PUSH2 0x2E28 JUMP JUMPDEST DUP2 MLOAD DUP2 LT PUSH2 0xDDF JUMPI PUSH2 0xDDE PUSH2 0x2E5B JUMP JUMPDEST JUMPDEST PUSH1 0x20 MUL PUSH1 0x20 ADD ADD MLOAD DUP8 DUP3 DUP6 PUSH2 0xDF4 SWAP2 SWAP1 PUSH2 0x2E28 JUMP JUMPDEST DUP2 MLOAD DUP2 LT PUSH2 0xE05 JUMPI PUSH2 0xE04 PUSH2 0x2E5B JUMP JUMPDEST JUMPDEST PUSH1 0x20 MUL PUSH1 0x20 ADD ADD DUP2 SWAP1 MSTORE POP DUP1 DUP1 PUSH2 0xE1B SWAP1 PUSH2 0x2ECF JUMP JUMPDEST SWAP2 POP POP PUSH2 0xDB8 JUMP JUMPDEST POP POP POP POP POP POP SWAP6 SWAP5 POP POP POP POP POP JUMP JUMPDEST PUSH0 PUSH0 PUSH1 0xF DUP2 GT ISZERO PUSH2 0xE46 JUMPI PUSH2 0xE45 PUSH2 0x2712 JUMP JUMPDEST JUMPDEST DUP3 PUSH1 0xF DUP2 GT ISZERO PUSH2 0xE59 JUMPI PUSH2 0xE58 PUSH2 0x2712 JUMP JUMPDEST JUMPDEST SUB PUSH2 0xE69 JUMPI PUSH3 0x36EE80 SWAP1 POP PUSH2 0x1198 JUMP JUMPDEST PUSH1 0x1 PUSH1 0xF DUP2 GT ISZERO PUSH2 0xE7D JUMPI PUSH2 0xE7C PUSH2 0x2712 JUMP JUMPDEST JUMPDEST DUP3 PUSH1 0xF DUP2 GT ISZERO PUSH2 0xE90 JUMPI PUSH2 0xE8F PUSH2 0x2712 JUMP JUMPDEST JUMPDEST EQ DUP1 PUSH2 0xEC0 JUMPI POP PUSH1 0x2 PUSH1 0xF DUP2 GT ISZERO PUSH2 0xEAB JUMPI PUSH2 0xEAA PUSH2 0x2712 JUMP JUMPDEST JUMPDEST DUP3 PUSH1 0xF DUP2 GT ISZERO PUSH2 0xEBE JUMPI PUSH2 0xEBD PUSH2 0x2712 JUMP JUMPDEST JUMPDEST EQ JUMPDEST DUP1 PUSH2 0xEEF JUMPI POP PUSH1 0x3 PUSH1 0xF DUP2 GT ISZERO PUSH2 0xEDA JUMPI PUSH2 0xED9 PUSH2 0x2712 JUMP JUMPDEST JUMPDEST DUP3 PUSH1 0xF DUP2 GT ISZERO PUSH2 0xEED JUMPI PUSH2 0xEEC PUSH2 0x2712 JUMP JUMPDEST JUMPDEST EQ JUMPDEST ISZERO PUSH2 0xF00 JUMPI PUSH4 0x5265C00 SWAP1 POP PUSH2 0x1198 JUMP JUMPDEST PUSH1 0x4 PUSH1 0xF DUP2 GT ISZERO PUSH2 0xF14 JUMPI PUSH2 0xF13 PUSH2 0x2712 JUMP JUMPDEST JUMPDEST DUP3 PUSH1 0xF DUP2 GT ISZERO PUSH2 0xF27 JUMPI PUSH2 0xF26 PUSH2 0x2712 JUMP JUMPDEST JUMPDEST EQ DUP1 PUSH2 0xF57 JUMPI POP PUSH1 0x5 PUSH1 0xF DUP2 GT ISZERO PUSH2 0xF42 JUMPI PUSH2 0xF41 PUSH2 0x2712 JUMP JUMPDEST JUMPDEST DUP3 PUSH1 0xF DUP2 GT ISZERO PUSH2 0xF55 JUMPI PUSH2 0xF54 PUSH2 0x2712 JUMP JUMPDEST JUMPDEST EQ JUMPDEST DUP1 PUSH2 0xF86 JUMPI POP PUSH1 0x6 PUSH1 0xF DUP2 GT ISZERO PUSH2 0xF71 JUMPI PUSH2 0xF70 PUSH2 0x2712 JUMP JUMPDEST JUMPDEST DUP3 PUSH1 0xF DUP2 GT ISZERO PUSH2 0xF84 JUMPI PUSH2 0xF83 PUSH2 0x2712 JUMP JUMPDEST JUMPDEST EQ JUMPDEST DUP1 PUSH2 0xFB5 JUMPI POP PUSH1 0x7 PUSH1 0xF DUP2 GT ISZERO PUSH2 0xFA0 JUMPI PUSH2 0xF9F PUSH2 0x2712 JUMP JUMPDEST JUMPDEST DUP3 PUSH1 0xF DUP2 GT ISZERO PUSH2 0xFB3 JUMPI PUSH2 0xFB2 PUSH2 0x2712 JUMP JUMPDEST JUMPDEST EQ JUMPDEST ISZERO PUSH2 0xFC6 JUMPI PUSH4 0x240C8400 SWAP1 POP PUSH2 0x1198 JUMP JUMPDEST PUSH1 0x8 PUSH1 0xF DUP2 GT ISZERO PUSH2 0xFDA JUMPI PUSH2 0xFD9 PUSH2 0x2712 JUMP JUMPDEST JUMPDEST DUP3 PUSH1 0xF DUP2 GT ISZERO PUSH2 0xFED JUMPI PUSH2 0xFEC PUSH2 0x2712 JUMP JUMPDEST JUMPDEST EQ DUP1 PUSH2 0x101D JUMPI POP PUSH1 0x9 PUSH1 0xF DUP2 GT ISZERO PUSH2 0x1008 JUMPI PUSH2 0x1007 PUSH2 0x2712 JUMP JUMPDEST JUMPDEST DUP3 PUSH1 0xF DUP2 GT ISZERO PUSH2 0x101B JUMPI PUSH2 0x101A PUSH2 0x2712 JUMP JUMPDEST JUMPDEST EQ JUMPDEST DUP1 PUSH2 0x104C JUMPI POP PUSH1 0xA PUSH1 0xF DUP2 GT ISZERO PUSH2 0x1037 JUMPI PUSH2 0x1036 PUSH2 0x2712 JUMP JUMPDEST JUMPDEST DUP3 PUSH1 0xF DUP2 GT ISZERO PUSH2 0x104A JUMPI PUSH2 0x1049 PUSH2 0x2712 JUMP JUMPDEST JUMPDEST EQ JUMPDEST DUP1 PUSH2 0x107B JUMPI POP PUSH1 0xB PUSH1 0xF DUP2 GT ISZERO PUSH2 0x1066 JUMPI PUSH2 0x1065 PUSH2 0x2712 JUMP JUMPDEST JUMPDEST DUP3 PUSH1 0xF DUP2 GT ISZERO PUSH2 0x1079 JUMPI PUSH2 0x1078 PUSH2 0x2712 JUMP JUMPDEST JUMPDEST EQ JUMPDEST ISZERO PUSH2 0x108C JUMPI PUSH4 0x9A7EC800 SWAP1 POP PUSH2 0x1198 JUMP JUMPDEST PUSH1 0xC PUSH1 0xF DUP2 GT ISZERO PUSH2 0x10A0 JUMPI PUSH2 0x109F PUSH2 0x2712 JUMP JUMPDEST JUMPDEST DUP3 PUSH1 0xF DUP2 GT ISZERO PUSH2 0x10B3 JUMPI PUSH2 0x10B2 PUSH2 0x2712 JUMP JUMPDEST JUMPDEST EQ DUP1 PUSH2 0x10E3 JUMPI POP PUSH1 0xD PUSH1 0xF DUP2 GT ISZERO PUSH2 0x10CE JUMPI PUSH2 0x10CD PUSH2 0x2712 JUMP JUMPDEST JUMPDEST DUP3 PUSH1 0xF DUP2 GT ISZERO PUSH2 0x10E1 JUMPI PUSH2 0x10E0 PUSH2 0x2712 JUMP JUMPDEST JUMPDEST EQ JUMPDEST ISZERO PUSH2 0x10F5 JUMPI PUSH5 0x1CF7C5800 SWAP1 POP PUSH2 0x1198 JUMP JUMPDEST PUSH1 0xE PUSH1 0xF DUP2 GT ISZERO PUSH2 0x1109 JUMPI PUSH2 0x1108 PUSH2 0x2712 JUMP JUMPDEST JUMPDEST DUP3 PUSH1 0xF DUP2 GT ISZERO PUSH2 0x111C JUMPI PUSH2 0x111B PUSH2 0x2712 JUMP JUMPDEST JUMPDEST EQ DUP1 PUSH2 0x114B JUMPI POP PUSH1 0xF DUP1 DUP2 GT ISZERO PUSH2 0x1136 JUMPI PUSH2 0x1135 PUSH2 0x2712 JUMP JUMPDEST JUMPDEST DUP3 PUSH1 0xF DUP2 GT ISZERO PUSH2 0x1149 JUMPI PUSH2 0x1148 PUSH2 0x2712 JUMP JUMPDEST JUMPDEST EQ JUMPDEST ISZERO PUSH2 0x115D JUMPI PUSH5 0x757B12C00 SWAP1 POP PUSH2 0x1198 JUMP JUMPDEST PUSH1 0x40 MLOAD PUSH32 0x8C379A000000000000000000000000000000000000000000000000000000000 DUP2 MSTORE PUSH1 0x4 ADD PUSH2 0x118F SWAP1 PUSH2 0x2F7B JUMP JUMPDEST PUSH1 0x40 MLOAD DUP1 SWAP2 SUB SWAP1 REVERT JUMPDEST SWAP2 SWAP1 POP JUMP JUMPDEST PUSH0 PUSH0 PUSH1 0xF DUP2 GT ISZERO PUSH2 0x11B1 JUMPI PUSH2 0x11B0 PUSH2 0x2712 JUMP JUMPDEST JUMPDEST DUP4 PUSH1 0xF DUP2 GT ISZERO PUSH2 0x11C4 JUMPI PUSH2 0x11C3 PUSH2 0x2712 JUMP JUMPDEST JUMPDEST SUB PUSH2 0x11EA JUMPI PUSH3 0x36EE80 DUP1 DUP4 PUSH2 0x11D9 SWAP2 SWAP1 PUSH2 0x2FC6 JUMP JUMPDEST PUSH2 0x11E3 SWAP2 SWAP1 PUSH2 0x2FF6 JUMP JUMPDEST SWAP1 POP PUSH2 0x1587 JUMP JUMPDEST PUSH1 0x1 PUSH1 0xF DUP2 GT ISZERO PUSH2 0x11FE JUMPI PUSH2 0x11FD PUSH2 0x2712 JUMP JUMPDEST JUMPDEST DUP4 PUSH1 0xF DUP2 GT ISZERO PUSH2 0x1211 JUMPI PUSH2 0x1210 PUSH2 0x2712 JUMP JUMPDEST JUMPDEST EQ DUP1 PUSH2 0x1241 JUMPI POP PUSH1 0x2 PUSH1 0xF DUP2 GT ISZERO PUSH2 0x122C JUMPI PUSH2 0x122B PUSH2 0x2712 JUMP JUMPDEST JUMPDEST DUP4 PUSH1 0xF DUP2 GT ISZERO PUSH2 0x123F JUMPI PUSH2 0x123E PUSH2 0x2712 JUMP JUMPDEST JUMPDEST EQ JUMPDEST DUP1 PUSH2 0x1270 JUMPI POP PUSH1 0x3 PUSH1 0xF DUP2 GT ISZERO PUSH2 0x125B JUMPI PUSH2 0x125A PUSH2 0x2712 JUMP JUMPDEST JUMPDEST DUP4 PUSH1 0xF DUP2 GT ISZERO PUSH2 0x126E JUMPI PUSH2 0x126D PUSH2 0x2712 JUMP JUMPDEST JUMPDEST EQ JUMPDEST ISZERO PUSH2 0x1297 JUMPI PUSH4 0x5265C00 DUP1 DUP4 PUSH2 0x1286 SWAP2 SWAP1 PUSH2 0x2FC6 JUMP JUMPDEST PUSH2 0x1290 SWAP2 SWAP1 PUSH2 0x2FF6 JUMP JUMPDEST SWAP1 POP PUSH2 0x1587 JUMP JUMPDEST PUSH1 0x4 PUSH1 0xF DUP2 GT ISZERO PUSH2 0x12AB JUMPI PUSH2 0x12AA PUSH2 0x2712 JUMP JUMPDEST JUMPDEST DUP4 PUSH1 0xF DUP2 GT ISZERO PUSH2 0x12BE JUMPI PUSH2 0x12BD PUSH2 0x2712 JUMP JUMPDEST JUMPDEST EQ DUP1 PUSH2 0x12EE JUMPI POP PUSH1 0x5 PUSH1 0xF DUP2 GT ISZERO PUSH2 0x12D9 JUMPI PUSH2 0x12D8 PUSH2 0x2712 JUMP JUMPDEST JUMPDEST DUP4 PUSH1 0xF DUP2 GT ISZERO PUSH2 0x12EC JUMPI PUSH2 0x12EB PUSH2 0x2712 JUMP JUMPDEST JUMPDEST EQ JUMPDEST DUP1 PUSH2 0x131D JUMPI POP PUSH1 0x6 PUSH1 0xF DUP2 GT ISZERO PUSH2 0x1308 JUMPI PUSH2 0x1307 PUSH2 0x2712 JUMP JUMPDEST JUMPDEST DUP4 PUSH1 0xF DUP2 GT ISZERO PUSH2 0x131B JUMPI PUSH2 0x131A PUSH2 0x2712 JUMP JUMPDEST JUMPDEST EQ JUMPDEST DUP1 PUSH2 0x134C JUMPI POP PUSH1 0x7 PUSH1 0xF DUP2 GT ISZERO PUSH2 0x1337 JUMPI PUSH2 0x1336 PUSH2 0x2712 JUMP JUMPDEST JUMPDEST DUP4 PUSH1 0xF DUP2 GT ISZERO PUSH2 0x134A JUMPI PUSH2 0x1349 PUSH2 0x2712 JUMP JUMPDEST JUMPDEST EQ JUMPDEST ISZERO PUSH2 0x1373 JUMPI PUSH4 0x240C8400 DUP1 DUP4 PUSH2 0x1362 SWAP2 SWAP1 PUSH2 0x2FC6 JUMP JUMPDEST PUSH2 0x136C SWAP2 SWAP1 PUSH2 0x2FF6 JUMP JUMPDEST SWAP1 POP PUSH2 0x1587 JUMP JUMPDEST PUSH1 0x8 PUSH1 0xF DUP2 GT ISZERO PUSH2 0x1387 JUMPI PUSH2 0x1386 PUSH2 0x2712 JUMP JUMPDEST JUMPDEST DUP4 PUSH1 0xF DUP2 GT ISZERO PUSH2 0x139A JUMPI PUSH2 0x1399 PUSH2 0x2712 JUMP JUMPDEST JUMPDEST EQ DUP1 PUSH2 0x13CA JUMPI POP PUSH1 0x9 PUSH1 0xF DUP2 GT ISZERO PUSH2 0x13B5 JUMPI PUSH2 0x13B4 PUSH2 0x2712 JUMP JUMPDEST JUMPDEST DUP4 PUSH1 0xF DUP2 GT ISZERO PUSH2 0x13C8 JUMPI PUSH2 0x13C7 PUSH2 0x2712 JUMP JUMPDEST JUMPDEST EQ JUMPDEST DUP1 PUSH2 0x13F9 JUMPI POP PUSH1 0xA PUSH1 0xF DUP2 GT ISZERO PUSH2 0x13E4 JUMPI PUSH2 0x13E3 PUSH2 0x2712 JUMP JUMPDEST JUMPDEST DUP4 PUSH1 0xF DUP2 GT ISZERO PUSH2 0x13F7 JUMPI PUSH2 0x13F6 PUSH2 0x2712 JUMP JUMPDEST JUMPDEST EQ JUMPDEST DUP1 PUSH2 0x1428 JUMPI POP PUSH1 0xB PUSH1 0xF DUP2 GT ISZERO PUSH2 0x1413 JUMPI PUSH2 0x1412 PUSH2 0x2712 JUMP JUMPDEST JUMPDEST DUP4 PUSH1 0xF DUP2 GT ISZERO PUSH2 0x1426 JUMPI PUSH2 0x1425 PUSH2 0x2712 JUMP JUMPDEST JUMPDEST EQ JUMPDEST ISZERO PUSH2 0x144F JUMPI PUSH4 0x9A7EC800 DUP1 DUP4 PUSH2 0x143E SWAP2 SWAP1 PUSH2 0x2FC6 JUMP JUMPDEST PUSH2 0x1448 SWAP2 SWAP1 PUSH2 0x2FF6 JUMP JUMPDEST SWAP1 POP PUSH2 0x1587 JUMP JUMPDEST PUSH1 0xC PUSH1 0xF DUP2 GT ISZERO PUSH2 0x1463 JUMPI PUSH2 0x1462 PUSH2 0x2712 JUMP JUMPDEST JUMPDEST DUP4 PUSH1 0xF DUP2 GT ISZERO PUSH2 0x1476 JUMPI PUSH2 0x1475 PUSH2 0x2712 JUMP JUMPDEST JUMPDEST EQ DUP1 PUSH2 0x14A6 JUMPI POP PUSH1 0xD PUSH1 0xF DUP2 GT ISZERO PUSH2 0x1491 JUMPI PUSH2 0x1490 PUSH2 0x2712 JUMP JUMPDEST JUMPDEST DUP4 PUSH1 0xF DUP2 GT ISZERO PUSH2 0x14A4 JUMPI PUSH2 0x14A3 PUSH2 0x2712 JUMP JUMPDEST JUMPDEST EQ JUMPDEST ISZERO PUSH2 0x14CE JUMPI PUSH5 0x1CF7C5800 DUP1 DUP4 PUSH2 0x14BD SWAP2 SWAP1 PUSH2 0x2FC6 JUMP JUMPDEST PUSH2 0x14C7 SWAP2 SWAP1 PUSH2 0x2FF6 JUMP JUMPDEST SWAP1 POP PUSH2 0x1587 JUMP JUMPDEST PUSH1 0xE PUSH1 0xF DUP2 GT ISZERO PUSH2 0x14E2 JUMPI PUSH2 0x14E1 PUSH2 0x2712 JUMP JUMPDEST JUMPDEST DUP4 PUSH1 0xF DUP2 GT ISZERO PUSH2 0x14F5 JUMPI PUSH2 0x14F4 PUSH2 0x2712 JUMP JUMPDEST JUMPDEST EQ DUP1 PUSH2 0x1524 JUMPI POP PUSH1 0xF DUP1 DUP2 GT ISZERO PUSH2 0x150F JUMPI PUSH2 0x150E PUSH2 0x2712 JUMP JUMPDEST JUMPDEST DUP4 PUSH1 0xF DUP2 GT ISZERO PUSH2 0x1522 JUMPI PUSH2 0x1521 PUSH2 0x2712 JUMP JUMPDEST JUMPDEST EQ JUMPDEST ISZERO PUSH2 0x154C JUMPI PUSH5 0x757B12C00 DUP1 DUP4 PUSH2 0x153B SWAP2 SWAP1 PUSH2 0x2FC6 JUMP JUMPDEST PUSH2 0x1545 SWAP2 SWAP1 PUSH2 0x2FF6 JUMP JUMPDEST SWAP1 POP PUSH2 0x1587 JUMP JUMPDEST PUSH1 0x40 MLOAD PUSH32 0x8C379A000000000000000000000000000000000000000000000000000000000 DUP2 MSTORE PUSH1 0x4 ADD PUSH2 0x157E SWAP1 PUSH2 0x2F7B JUMP JUMPDEST PUSH1 0x40 MLOAD DUP1 SWAP2 SUB SWAP1 REVERT JUMPDEST SWAP3 SWAP2 POP POP JUMP JUMPDEST PUSH0 PUSH0 DUP3 PUSH1 0x40 MLOAD PUSH1 0x20 ADD PUSH2 0x15A0 SWAP2 SWAP1 PUSH2 0x27D8 JUMP JUMPDEST PUSH1 0x40 MLOAD PUSH1 0x20 DUP2 DUP4 SUB SUB DUP2 MSTORE SWAP1 PUSH1 0x40 MSTORE DUP1 MLOAD SWAP1 PUSH1 0x20 ADD KECCAK256 SWAP1 POP PUSH32 0x6C9308EEEB72AAC61C6EE2086645EC6CF6638D86D97AF7B81BCF4073F3B95DBC DUP2 SUB PUSH2 0x15E8 JUMPI PUSH0 SWAP2 POP POP PUSH2 0x1902 JUMP JUMPDEST PUSH32 0x523A5C8A0F83A86997A616B324AE897D2FB6B3F5F68B3969331C12E0F00F9F25 DUP2 SUB PUSH2 0x1619 JUMPI PUSH1 0x1 SWAP2 POP POP PUSH2 0x1902 JUMP JUMPDEST PUSH32 0x2A3FF2DFA7BD33B0E77D014065236A2F104B389B776645FDDB9E6A09EEA01441 DUP2 SUB PUSH2 0x164A JUMPI PUSH1 0x2 SWAP2 POP POP PUSH2 0x1902 JUMP JUMPDEST PUSH32 0xFCA740C51A7536A1FF8F65314E26B24CEE265D7626AD2E39318898F3D501AC22 DUP2 SUB PUSH2 0x167B JUMPI PUSH1 0x3 SWAP2 POP POP PUSH2 0x1902 JUMP JUMPDEST PUSH32 0x53CAD56A766A794BDC4FD49B262CD08FADF5C823F208FBF3F4EFB377C206EAAA DUP2 SUB PUSH2 0x16AC JUMPI PUSH1 0x4 SWAP2 POP POP PUSH2 0x1902 JUMP JUMPDEST PUSH32 0xE99007FD2E286840683BFBAC2C1EA22A3B3C1592D603A9AE9AEE29CF77E941A7 DUP2 SUB PUSH2 0x16DD JUMPI PUSH1 0x5 SWAP2 POP POP PUSH2 0x1902 JUMP JUMPDEST PUSH32 0x1125479F824FC31D0CE674B130E57A9DCFDF2D344CA1EF3FC8BF5BD50F9FCCA9 DUP2 SUB PUSH2 0x170E JUMPI PUSH1 0x6 SWAP2 POP POP PUSH2 0x1902 JUMP JUMPDEST PUSH32 0xA50F424F123435E4689C6436CE338980297CA65F2EE6B69A216F0561EE6CF400 DUP2 SUB PUSH2 0x173F JUMPI PUSH1 0x7 SWAP2 POP POP PUSH2 0x1902 JUMP JUMPDEST PUSH32 0x9A433CC5A6AEE766B1BCE0A7DC72AB7B4FD031108E0C5AFEA91382F1B1955FC9 DUP2 SUB PUSH2 0x1770 JUMPI PUSH1 0x8 SWAP2 POP POP PUSH2 0x1902 JUMP JUMPDEST PUSH32 0xA0B83CFA5501E126AC29F6BF7A07BD17E2D97916947EED361748E8E0AB0ABA4D DUP2 SUB PUSH2 0x17A1 JUMPI PUSH1 0x9 SWAP2 POP POP PUSH2 0x1902 JUMP JUMPDEST PUSH32 0xE21CCD2715134877C589435A9C98DEB14540FDF9E902AFEBF2163FE393E9C073 DUP2 SUB PUSH2 0x17D2 JUMPI PUSH1 0xA SWAP2 POP POP PUSH2 0x1902 JUMP JUMPDEST PUSH32 0x11108661A127316F8F74DC39A66520C8EC16719ED867EE768AF67729BA3EC1D2 DUP2 SUB PUSH2 0x1803 JUMPI PUSH1 0xB SWAP2 POP POP PUSH2 0x1902 JUMP JUMPDEST PUSH32 0x7B2E5637DE8D5670BD5BE523FBCCC1DFEF88F0767EB2ABF5AC4A81DA61AE2002 DUP2 SUB PUSH2 0x1834 JUMPI PUSH1 0xC SWAP2 POP POP PUSH2 0x1902 JUMP JUMPDEST PUSH32 0x1CEF0646E7FE7CB478D3A93D2E07774697C9239D0EE8B4294B768C91AF329E66 DUP2 SUB PUSH2 0x1865 JUMPI PUSH1 0xD SWAP2 POP POP PUSH2 0x1902 JUMP JUMPDEST PUSH32 0x7CD5BA658B5DFF64585BFCB0DF7983749825E2292A4FF6DAF96207E6EB100FE7 DUP2 SUB PUSH2 0x1896 JUMPI PUSH1 0xE SWAP2 POP POP PUSH2 0x1902 JUMP JUMPDEST PUSH32 0xA390D73D5FD5E6A577D394328E26CE85589C6D8C382FBA9150FB136BBBF31FF7 DUP2 SUB PUSH2 0x18C7 JUMPI PUSH1 0xF SWAP2 POP POP PUSH2 0x1902 JUMP JUMPDEST PUSH1 0x40 MLOAD PUSH32 0x8C379A000000000000000000000000000000000000000000000000000000000 DUP2 MSTORE PUSH1 0x4 ADD PUSH2 0x18F9 SWAP1 PUSH2 0x307C JUMP JUMPDEST PUSH1 0x40 MLOAD DUP1 SWAP2 SUB SWAP1 REVERT JUMPDEST SWAP2 SWAP1 POP JUMP JUMPDEST PUSH2 0x199D DUP2 PUSH1 0x40 MLOAD PUSH1 0x24 ADD PUSH2 0x191B SWAP2 SWAP1 PUSH2 0x309A JUMP JUMPDEST PUSH1 0x40 MLOAD PUSH1 0x20 DUP2 DUP4 SUB SUB DUP2 MSTORE SWAP1 PUSH1 0x40 MSTORE PUSH32 0x41304FAC00000000000000000000000000000000000000000000000000000000 PUSH28 0xFFFFFFFFFFFFFFFFFFFFFFFFFFFFFFFFFFFFFFFFFFFFFFFFFFFFFFFF NOT AND PUSH1 0x20 DUP3 ADD DUP1 MLOAD PUSH28 0xFFFFFFFFFFFFFFFFFFFFFFFFFFFFFFFFFFFFFFFFFFFFFFFFFFFFFFFF DUP4 DUP2 DUP4 AND OR DUP4 MSTORE POP POP POP POP PUSH2 0x1B5B JUMP JUMPDEST POP JUMP JUMPDEST PUSH1 0x60 PUSH0 PUSH2 0x19AC DUP6 PUSH2 0xE32 JUMP JUMPDEST SWAP1 POP PUSH0 PUSH2 0x19B9 DUP7 DUP7 PUSH2 0x119D JUMP JUMPDEST SWAP1 POP PUSH0 PUSH2 0x19C6 DUP8 DUP7 PUSH2 0x119D JUMP JUMPDEST SWAP1 POP PUSH0 PUSH1 0x1 DUP5 DUP5 DUP5 PUSH2 0x19D8 SWAP2 SWAP1 PUSH2 0x2EF6 JUMP JUMPDEST PUSH2 0x19E2 SWAP2 SWAP1 PUSH2 0x2FC6 JUMP JUMPDEST PUSH2 0x19EC SWAP2 SWAP1 PUSH2 0x30BA JUMP JUMPDEST PUSH8 0xFFFFFFFFFFFFFFFF AND SWAP1 POP DUP1 PUSH8 0xFFFFFFFFFFFFFFFF DUP2 GT ISZERO PUSH2 0x1A12 JUMPI PUSH2 0x1A11 PUSH2 0x1C57 JUMP JUMPDEST JUMPDEST PUSH1 0x40 MLOAD SWAP1 DUP1 DUP3 MSTORE DUP1 PUSH1 0x20 MUL PUSH1 0x20 ADD DUP3 ADD PUSH1 0x40 MSTORE DUP1 ISZERO PUSH2 0x1A40 JUMPI DUP2 PUSH1 0x20 ADD PUSH1 0x20 DUP3 MUL DUP1 CALLDATASIZE DUP4 CALLDATACOPY DUP1 DUP3 ADD SWAP2 POP POP SWAP1 POP JUMPDEST POP SWAP5 POP PUSH0 PUSH0 SWAP1 POP JUMPDEST DUP2 DUP2 LT ISZERO PUSH2 0x1AB3 JUMPI DUP5 PUSH8 0xFFFFFFFFFFFFFFFF AND DUP2 PUSH2 0x1A66 SWAP2 SWAP1 PUSH2 0x2DE7 JUMP JUMPDEST DUP5 PUSH2 0x1A71 SWAP2 SWAP1 PUSH2 0x30BA JUMP JUMPDEST DUP7 DUP3 DUP2 MLOAD DUP2 LT PUSH2 0x1A84 JUMPI PUSH2 0x1A83 PUSH2 0x2E5B JUMP JUMPDEST JUMPDEST PUSH1 0x20 MUL PUSH1 0x20 ADD ADD SWAP1 PUSH8 0xFFFFFFFFFFFFFFFF AND SWAP1 DUP2 PUSH8 0xFFFFFFFFFFFFFFFF AND DUP2 MSTORE POP POP DUP1 DUP1 PUSH1 0x1 ADD SWAP2 POP POP PUSH2 0x1A48 JUMP JUMPDEST POP POP POP POP POP SWAP4 SWAP3 POP POP POP JUMP JUMPDEST PUSH2 0x1B57 DUP3 DUP3 PUSH1 0x40 MLOAD PUSH1 0x24 ADD PUSH2 0x1AD5 SWAP3 SWAP2 SWAP1 PUSH2 0x3104 JUMP JUMPDEST PUSH1 0x40 MLOAD PUSH1 0x20 DUP2 DUP4 SUB SUB DUP2 MSTORE SWAP1 PUSH1 0x40 MSTORE PUSH32 0xB60E72CC00000000000000000000000000000000000000000000000000000000 PUSH28 0xFFFFFFFFFFFFFFFFFFFFFFFFFFFFFFFFFFFFFFFFFFFFFFFFFFFFFFFF NOT AND PUSH1 0x20 DUP3 ADD DUP1 MLOAD PUSH28 0xFFFFFFFFFFFFFFFFFFFFFFFFFFFFFFFFFFFFFFFFFFFFFFFFFFFFFFFF DUP4 DUP2 DUP4 AND OR DUP4 MSTORE POP POP POP POP PUSH2 0x1B5B JUMP JUMPDEST POP POP JUMP JUMPDEST PUSH2 0x1B72 DUP2 PUSH2 0x1B6A PUSH2 0x1B75 PUSH2 0x1B94 JUMP JUMPDEST PUSH4 0xFFFFFFFF AND JUMP JUMPDEST POP JUMP JUMPDEST PUSH0 PUSH11 0x636F6E736F6C652E6C6F67 SWAP1 POP PUSH0 PUSH0 DUP4 MLOAD PUSH1 0x20 DUP6 ADD DUP5 GAS STATICCALL POP POP POP JUMP JUMPDEST PUSH2 0x1C24 DUP2 SWAP1 POP SWAP2 SWAP1 POP JUMP JUMPDEST PUSH2 0x1B43 DUP1 PUSH2 0x3160 DUP4 CODECOPY ADD SWAP1 JUMP JUMPDEST PUSH1 0x40 MLOAD DUP1 PUSH2 0x180 ADD PUSH1 0x40 MSTORE DUP1 PUSH0 PUSH8 0xFFFFFFFFFFFFFFFF AND DUP2 MSTORE PUSH1 0x20 ADD PUSH1 0x60 DUP2 MSTORE PUSH1 0x20 ADD PUSH1 0x60 DUP2 MSTORE PUSH1 0x20 ADD PUSH1 0x60 DUP2 MSTORE PUSH1 0x20 ADD PUSH1 0x60 DUP2 MSTORE PUSH1 0x20 ADD PUSH1 0x60 DUP2 MSTORE PUSH1 0x20 ADD PUSH0 PUSH8 0xFFFFFFFFFFFFFFFF AND DUP2 MSTORE PUSH1 0x20 ADD PUSH1 0x60 DUP2 MSTORE PUSH1 0x20 ADD PUSH0 PUSH4 0xFFFFFFFF AND DUP2 MSTORE PUSH1 0x20 ADD PUSH1 0x60 DUP2 MSTORE PUSH1 0x20 ADD PUSH1 0x60 DUP2 MSTORE PUSH1 0x20 ADD PUSH1 0x60 DUP2 MSTORE POP SWAP1 JUMP JUMPDEST PUSH2 0x1C2C PUSH2 0x3132 JUMP JUMPDEST JUMP JUMPDEST PUSH0 PUSH1 0x40 MLOAD SWAP1 POP SWAP1 JUMP JUMPDEST PUSH0 PUSH0 REVERT JUMPDEST PUSH0 PUSH0 REVERT JUMPDEST PUSH0 PUSH0 REVERT JUMPDEST PUSH0 PUSH0 REVERT JUMPDEST PUSH0 PUSH1 0x1F NOT PUSH1 0x1F DUP4 ADD AND SWAP1 POP SWAP2 SWAP1 POP JUMP JUMPDEST PUSH32 0x4E487B7100000000000000000000000000000000000000000000000000000000 PUSH0 MSTORE PUSH1 0x41 PUSH1 0x4 MSTORE PUSH1 0x24 PUSH0 REVERT JUMPDEST PUSH2 0x1C8D DUP3 PUSH2 0x1C47 JUMP JUMPDEST DUP2 ADD DUP2 DUP2 LT PUSH8 0xFFFFFFFFFFFFFFFF DUP3 GT OR ISZERO PUSH2 0x1CAC JUMPI PUSH2 0x1CAB PUSH2 0x1C57 JUMP JUMPDEST JUMPDEST DUP1 PUSH1 0x40 MSTORE POP POP POP JUMP JUMPDEST PUSH0 PUSH2 0x1CBE PUSH2 0x1C2E JUMP JUMPDEST SWAP1 POP PUSH2 0x1CCA DUP3 DUP3 PUSH2 0x1C84 JUMP JUMPDEST SWAP2 SWAP1 POP JUMP JUMPDEST PUSH0 PUSH8 0xFFFFFFFFFFFFFFFF DUP3 GT ISZERO PUSH2 0x1CE9 JUMPI PUSH2 0x1CE8 PUSH2 0x1C57 JUMP JUMPDEST JUMPDEST PUSH2 0x1CF2 DUP3 PUSH2 0x1C47 JUMP JUMPDEST SWAP1 POP PUSH1 0x20 DUP2 ADD SWAP1 POP SWAP2 SWAP1 POP JUMP JUMPDEST DUP3 DUP2 DUP4 CALLDATACOPY PUSH0 DUP4 DUP4 ADD MSTORE POP POP POP JUMP JUMPDEST PUSH0 PUSH2 0x1D1F PUSH2 0x1D1A DUP5 PUSH2 0x1CCF JUMP JUMPDEST PUSH2 0x1CB5 JUMP JUMPDEST SWAP1 POP DUP3 DUP2 MSTORE PUSH1 0x20 DUP2 ADD DUP5 DUP5 DUP5 ADD GT ISZERO PUSH2 0x1D3B JUMPI PUSH2 0x1D3A PUSH2 0x1C43 JUMP JUMPDEST JUMPDEST PUSH2 0x1D46 DUP5 DUP3 DUP6 PUSH2 0x1CFF JUMP JUMPDEST POP SWAP4 SWAP3 POP POP POP JUMP JUMPDEST PUSH0 DUP3 PUSH1 0x1F DUP4 ADD SLT PUSH2 0x1D62 JUMPI PUSH2 0x1D61 PUSH2 0x1C3F JUMP JUMPDEST JUMPDEST DUP2 CALLDATALOAD PUSH2 0x1D72 DUP5 DUP3 PUSH1 0x20 DUP7 ADD PUSH2 0x1D0D JUMP JUMPDEST SWAP2 POP POP SWAP3 SWAP2 POP POP JUMP JUMPDEST PUSH0 PUSH8 0xFFFFFFFFFFFFFFFF DUP3 AND SWAP1 POP SWAP2 SWAP1 POP JUMP JUMPDEST PUSH2 0x1D97 DUP2 PUSH2 0x1D7B JUMP JUMPDEST DUP2 EQ PUSH2 0x1DA1 JUMPI PUSH0 PUSH0 REVERT JUMPDEST POP JUMP JUMPDEST PUSH0 DUP2 CALLDATALOAD SWAP1 POP PUSH2 0x1DB2 DUP2 PUSH2 0x1D8E JUMP JUMPDEST SWAP3 SWAP2 POP POP JUMP JUMPDEST PUSH0 PUSH0 PUSH0 PUSH1 0x60 DUP5 DUP7 SUB SLT ISZERO PUSH2 0x1DCF JUMPI PUSH2 0x1DCE PUSH2 0x1C37 JUMP JUMPDEST JUMPDEST PUSH0 DUP5 ADD CALLDATALOAD PUSH8 0xFFFFFFFFFFFFFFFF DUP2 GT ISZERO PUSH2 0x1DEC JUMPI PUSH2 0x1DEB PUSH2 0x1C3B JUMP JUMPDEST JUMPDEST PUSH2 0x1DF8 DUP7 DUP3 DUP8 ADD PUSH2 0x1D4E JUMP JUMPDEST SWAP4 POP POP PUSH1 0x20 DUP5 ADD CALLDATALOAD PUSH8 0xFFFFFFFFFFFFFFFF DUP2 GT ISZERO PUSH2 0x1E19 JUMPI PUSH2 0x1E18 PUSH2 0x1C3B JUMP JUMPDEST JUMPDEST PUSH2 0x1E25 DUP7 DUP3 DUP8 ADD PUSH2 0x1D4E JUMP JUMPDEST SWAP3 POP POP PUSH1 0x40 PUSH2 0x1E36 DUP7 DUP3 DUP8 ADD PUSH2 0x1DA4 JUMP JUMPDEST SWAP2 POP POP SWAP3 POP SWAP3 POP SWAP3 JUMP JUMPDEST PUSH0 DUP2 MLOAD SWAP1 POP SWAP2 SWAP1 POP JUMP JUMPDEST PUSH0 DUP3 DUP3 MSTORE PUSH1 0x20 DUP3 ADD SWAP1 POP SWAP3 SWAP2 POP POP JUMP JUMPDEST PUSH0 DUP2 SWAP1 POP PUSH1 0x20 DUP3 ADD SWAP1 POP SWAP2 SWAP1 POP JUMP JUMPDEST PUSH2 0x1E72 DUP2 PUSH2 0x1D7B JUMP JUMPDEST DUP3 MSTORE POP POP JUMP JUMPDEST PUSH0 DUP2 MLOAD SWAP1 POP SWAP2 SWAP1 POP JUMP JUMPDEST PUSH0 DUP3 DUP3 MSTORE PUSH1 0x20 DUP3 ADD SWAP1 POP SWAP3 SWAP2 POP POP JUMP JUMPDEST DUP3 DUP2 DUP4 MCOPY PUSH0 DUP4 DUP4 ADD MSTORE POP POP POP JUMP JUMPDEST PUSH0 PUSH2 0x1EAA DUP3 PUSH2 0x1E78 JUMP JUMPDEST PUSH2 0x1EB4 DUP2 DUP6 PUSH2 0x1E82 JUMP JUMPDEST SWAP4 POP PUSH2 0x1EC4 DUP2 DUP6 PUSH1 0x20 DUP7 ADD PUSH2 0x1E92 JUMP JUMPDEST PUSH2 0x1ECD DUP2 PUSH2 0x1C47 JUMP JUMPDEST DUP5 ADD SWAP2 POP POP SWAP3 SWAP2 POP POP JUMP JUMPDEST PUSH0 PUSH4 0xFFFFFFFF DUP3 AND SWAP1 POP SWAP2 SWAP1 POP JUMP JUMPDEST PUSH2 0x1EF0 DUP2 PUSH2 0x1ED8 JUMP JUMPDEST DUP3 MSTORE POP POP JUMP JUMPDEST PUSH0 PUSH2 0x180 DUP4 ADD PUSH0 DUP4 ADD MLOAD PUSH2 0x1F0C PUSH0 DUP7 ADD DUP3 PUSH2 0x1E69 JUMP JUMPDEST POP PUSH1 0x20 DUP4 ADD MLOAD DUP5 DUP3 SUB PUSH1 0x20 DUP7 ADD MSTORE PUSH2 0x1F24 DUP3 DUP3 PUSH2 0x1EA0 JUMP JUMPDEST SWAP2 POP POP PUSH1 0x40 DUP4 ADD MLOAD DUP5 DUP3 SUB PUSH1 0x40 DUP7 ADD MSTORE PUSH2 0x1F3E DUP3 DUP3 PUSH2 0x1EA0 JUMP JUMPDEST SWAP2 POP POP PUSH1 0x60 DUP4 ADD MLOAD DUP5 DUP3 SUB PUSH1 0x60 DUP7 ADD MSTORE PUSH2 0x1F58 DUP3 DUP3 PUSH2 0x1EA0 JUMP JUMPDEST SWAP2 POP POP PUSH1 0x80 DUP4 ADD MLOAD DUP5 DUP3 SUB PUSH1 0x80 DUP7 ADD MSTORE PUSH2 0x1F72 DUP3 DUP3 PUSH2 0x1EA0 JUMP JUMPDEST SWAP2 POP POP PUSH1 0xA0 DUP4 ADD MLOAD DUP5 DUP3 SUB PUSH1 0xA0 DUP7 ADD MSTORE PUSH2 0x1F8C DUP3 DUP3 PUSH2 0x1EA0 JUMP JUMPDEST SWAP2 POP POP PUSH1 0xC0 DUP4 ADD MLOAD PUSH2 0x1FA1 PUSH1 0xC0 DUP7 ADD DUP3 PUSH2 0x1E69 JUMP JUMPDEST POP PUSH1 0xE0 DUP4 ADD MLOAD DUP5 DUP3 SUB PUSH1 0xE0 DUP7 ADD MSTORE PUSH2 0x1FB9 DUP3 DUP3 PUSH2 0x1EA0 JUMP JUMPDEST SWAP2 POP POP PUSH2 0x100 DUP4 ADD MLOAD PUSH2 0x1FD0 PUSH2 0x100 DUP7 ADD DUP3 PUSH2 0x1EE7 JUMP JUMPDEST POP PUSH2 0x120 DUP4 ADD MLOAD DUP5 DUP3 SUB PUSH2 0x120 DUP7 ADD MSTORE PUSH2 0x1FEA DUP3 DUP3 PUSH2 0x1EA0 JUMP JUMPDEST SWAP2 POP POP PUSH2 0x140 DUP4 ADD MLOAD DUP5 DUP3 SUB PUSH2 0x140 DUP7 ADD MSTORE PUSH2 0x2006 DUP3 DUP3 PUSH2 0x1EA0 JUMP JUMPDEST SWAP2 POP POP PUSH2 0x160 DUP4 ADD MLOAD DUP5 DUP3 SUB PUSH2 0x160 DUP7 ADD MSTORE PUSH2 0x2022 DUP3 DUP3 PUSH2 0x1EA0 JUMP JUMPDEST SWAP2 POP POP DUP1 SWAP2 POP POP SWAP3 SWAP2 POP POP JUMP JUMPDEST PUSH0 PUSH2 0x203A DUP4 DUP4 PUSH2 0x1EF6 JUMP JUMPDEST SWAP1 POP SWAP3 SWAP2 POP POP JUMP JUMPDEST PUSH0 PUSH1 0x20 DUP3 ADD SWAP1 POP SWAP2 SWAP1 POP JUMP JUMPDEST PUSH0 PUSH2 0x2058 DUP3 PUSH2 0x1E40 JUMP JUMPDEST PUSH2 0x2062 DUP2 DUP6 PUSH2 0x1E4A JUMP JUMPDEST SWAP4 POP DUP4 PUSH1 0x20 DUP3 MUL DUP6 ADD PUSH2 0x2074 DUP6 PUSH2 0x1E5A JUMP JUMPDEST DUP1 PUSH0 JUMPDEST DUP6 DUP2 LT ISZERO PUSH2 0x20AF JUMPI DUP5 DUP5 SUB DUP10 MSTORE DUP2 MLOAD PUSH2 0x2090 DUP6 DUP3 PUSH2 0x202F JUMP JUMPDEST SWAP5 POP PUSH2 0x209B DUP4 PUSH2 0x2042 JUMP JUMPDEST SWAP3 POP PUSH1 0x20 DUP11 ADD SWAP10 POP POP PUSH1 0x1 DUP2 ADD SWAP1 POP PUSH2 0x2077 JUMP JUMPDEST POP DUP3 SWAP8 POP DUP8 SWAP6 POP POP POP POP POP POP SWAP3 SWAP2 POP POP JUMP JUMPDEST PUSH0 PUSH1 0x20 DUP3 ADD SWAP1 POP DUP2 DUP2 SUB PUSH0 DUP4 ADD MSTORE PUSH2 0x20D9 DUP2 DUP5 PUSH2 0x204E JUMP JUMPDEST SWAP1 POP SWAP3 SWAP2 POP POP JUMP JUMPDEST PUSH0 PUSH0 REVERT JUMPDEST PUSH0 PUSH0 REVERT JUMPDEST PUSH2 0x20F2 DUP2 PUSH2 0x1ED8 JUMP JUMPDEST DUP2 EQ PUSH2 0x20FC JUMPI PUSH0 PUSH0 REVERT JUMPDEST POP JUMP JUMPDEST PUSH0 DUP2 CALLDATALOAD SWAP1 POP PUSH2 0x210D DUP2 PUSH2 0x20E9 JUMP JUMPDEST SWAP3 SWAP2 POP POP JUMP JUMPDEST PUSH0 PUSH2 0x180 DUP3 DUP5 SUB SLT ISZERO PUSH2 0x2129 JUMPI PUSH2 0x2128 PUSH2 0x20E1 JUMP JUMPDEST JUMPDEST PUSH2 0x2134 PUSH2 0x180 PUSH2 0x1CB5 JUMP JUMPDEST SWAP1 POP PUSH0 PUSH2 0x2143 DUP5 DUP3 DUP6 ADD PUSH2 0x1DA4 JUMP JUMPDEST PUSH0 DUP4 ADD MSTORE POP PUSH1 0x20 DUP3 ADD CALLDATALOAD PUSH8 0xFFFFFFFFFFFFFFFF DUP2 GT ISZERO PUSH2 0x2166 JUMPI PUSH2 0x2165 PUSH2 0x20E5 JUMP JUMPDEST JUMPDEST PUSH2 0x2172 DUP5 DUP3 DUP6 ADD PUSH2 0x1D4E JUMP JUMPDEST PUSH1 0x20 DUP4 ADD MSTORE POP PUSH1 0x40 DUP3 ADD CALLDATALOAD PUSH8 0xFFFFFFFFFFFFFFFF DUP2 GT ISZERO PUSH2 0x2196 JUMPI PUSH2 0x2195 PUSH2 0x20E5 JUMP JUMPDEST JUMPDEST PUSH2 0x21A2 DUP5 DUP3 DUP6 ADD PUSH2 0x1D4E JUMP JUMPDEST PUSH1 0x40 DUP4 ADD MSTORE POP PUSH1 0x60 DUP3 ADD CALLDATALOAD PUSH8 0xFFFFFFFFFFFFFFFF DUP2 GT ISZERO PUSH2 0x21C6 JUMPI PUSH2 0x21C5 PUSH2 0x20E5 JUMP JUMPDEST JUMPDEST PUSH2 0x21D2 DUP5 DUP3 DUP6 ADD PUSH2 0x1D4E JUMP JUMPDEST PUSH1 0x60 DUP4 ADD MSTORE POP PUSH1 0x80 DUP3 ADD CALLDATALOAD PUSH8 0xFFFFFFFFFFFFFFFF DUP2 GT ISZERO PUSH2 0x21F6 JUMPI PUSH2 0x21F5 PUSH2 0x20E5 JUMP JUMPDEST JUMPDEST PUSH2 0x2202 DUP5 DUP3 DUP6 ADD PUSH2 0x1D4E JUMP JUMPDEST PUSH1 0x80 DUP4 ADD MSTORE POP PUSH1 0xA0 DUP3 ADD CALLDATALOAD PUSH8 0xFFFFFFFFFFFFFFFF DUP2 GT ISZERO PUSH2 0x2226 JUMPI PUSH2 0x2225 PUSH2 0x20E5 JUMP JUMPDEST JUMPDEST PUSH2 0x2232 DUP5 DUP3 DUP6 ADD PUSH2 0x1D4E JUMP JUMPDEST PUSH1 0xA0 DUP4 ADD MSTORE POP PUSH1 0xC0 PUSH2 0x2246 DUP5 DUP3 DUP6 ADD PUSH2 0x1DA4 JUMP JUMPDEST PUSH1 0xC0 DUP4 ADD MSTORE POP PUSH1 0xE0 DUP3 ADD CALLDATALOAD PUSH8 0xFFFFFFFFFFFFFFFF DUP2 GT ISZERO PUSH2 0x226A JUMPI PUSH2 0x2269 PUSH2 0x20E5 JUMP JUMPDEST JUMPDEST PUSH2 0x2276 DUP5 DUP3 DUP6 ADD PUSH2 0x1D4E JUMP JUMPDEST PUSH1 0xE0 DUP4 ADD MSTORE POP PUSH2 0x100 PUSH2 0x228B DUP5 DUP3 DUP6 ADD PUSH2 0x20FF JUMP JUMPDEST PUSH2 0x100 DUP4 ADD MSTORE POP PUSH2 0x120 DUP3 ADD CALLDATALOAD PUSH8 0xFFFFFFFFFFFFFFFF DUP2 GT ISZERO PUSH2 0x22B1 JUMPI PUSH2 0x22B0 PUSH2 0x20E5 JUMP JUMPDEST JUMPDEST PUSH2 0x22BD DUP5 DUP3 DUP6 ADD PUSH2 0x1D4E JUMP JUMPDEST PUSH2 0x120 DUP4 ADD MSTORE POP PUSH2 0x140 DUP3 ADD CALLDATALOAD PUSH8 0xFFFFFFFFFFFFFFFF DUP2 GT ISZERO PUSH2 0x22E3 JUMPI PUSH2 0x22E2 PUSH2 0x20E5 JUMP JUMPDEST JUMPDEST PUSH2 0x22EF DUP5 DUP3 DUP6 ADD PUSH2 0x1D4E JUMP JUMPDEST PUSH2 0x140 DUP4 ADD MSTORE POP PUSH2 0x160 DUP3 ADD CALLDATALOAD PUSH8 0xFFFFFFFFFFFFFFFF DUP2 GT ISZERO PUSH2 0x2315 JUMPI PUSH2 0x2314 PUSH2 0x20E5 JUMP JUMPDEST JUMPDEST PUSH2 0x2321 DUP5 DUP3 DUP6 ADD PUSH2 0x1D4E JUMP JUMPDEST PUSH2 0x160 DUP4 ADD MSTORE POP SWAP3 SWAP2 POP POP JUMP JUMPDEST PUSH0 PUSH0 PUSH0 PUSH1 0x60 DUP5 DUP7 SUB SLT ISZERO PUSH2 0x2345 JUMPI PUSH2 0x2344 PUSH2 0x1C37 JUMP JUMPDEST JUMPDEST PUSH0 DUP5 ADD CALLDATALOAD PUSH8 0xFFFFFFFFFFFFFFFF DUP2 GT ISZERO PUSH2 0x2362 JUMPI PUSH2 0x2361 PUSH2 0x1C3B JUMP JUMPDEST JUMPDEST PUSH2 0x236E DUP7 DUP3 DUP8 ADD PUSH2 0x1D4E JUMP JUMPDEST SWAP4 POP POP PUSH1 0x20 DUP5 ADD CALLDATALOAD PUSH8 0xFFFFFFFFFFFFFFFF DUP2 GT ISZERO PUSH2 0x238F JUMPI PUSH2 0x238E PUSH2 0x1C3B JUMP JUMPDEST JUMPDEST PUSH2 0x239B DUP7 DUP3 DUP8 ADD PUSH2 0x1D4E JUMP JUMPDEST SWAP3 POP POP PUSH1 0x40 DUP5 ADD CALLDATALOAD PUSH8 0xFFFFFFFFFFFFFFFF DUP2 GT ISZERO PUSH2 0x23BC JUMPI PUSH2 0x23BB PUSH2 0x1C3B JUMP JUMPDEST JUMPDEST PUSH2 0x23C8 DUP7 DUP3 DUP8 ADD PUSH2 0x2113 JUMP JUMPDEST SWAP2 POP POP SWAP3 POP SWAP3 POP SWAP3 JUMP JUMPDEST PUSH0 DUP2 SWAP1 POP SWAP2 SWAP1 POP JUMP JUMPDEST PUSH2 0x23E4 DUP2 PUSH2 0x23D2 JUMP JUMPDEST DUP2 EQ PUSH2 0x23EE JUMPI PUSH0 PUSH0 REVERT JUMPDEST POP JUMP JUMPDEST PUSH0 DUP2 CALLDATALOAD SWAP1 POP PUSH2 0x23FF DUP2 PUSH2 0x23DB JUMP JUMPDEST SWAP3 SWAP2 POP POP JUMP JUMPDEST PUSH1 0x10 DUP2 LT PUSH2 0x2411 JUMPI PUSH0 PUSH0 REVERT JUMPDEST POP JUMP JUMPDEST PUSH0 DUP2 CALLDATALOAD SWAP1 POP PUSH2 0x2422 DUP2 PUSH2 0x2405 JUMP JUMPDEST SWAP3 SWAP2 POP POP JUMP JUMPDEST PUSH0 PUSH0 PUSH0 PUSH1 0x60 DUP5 DUP7 SUB SLT ISZERO PUSH2 0x243F JUMPI PUSH2 0x243E PUSH2 0x1C37 JUMP JUMPDEST JUMPDEST PUSH0 PUSH2 0x244C DUP7 DUP3 DUP8 ADD PUSH2 0x23F1 JUMP JUMPDEST SWAP4 POP POP PUSH1 0x20 PUSH2 0x245D DUP7 DUP3 DUP8 ADD PUSH2 0x2414 JUMP JUMPDEST SWAP3 POP POP PUSH1 0x40 PUSH2 0x246E DUP7 DUP3 DUP8 ADD PUSH2 0x1DA4 JUMP JUMPDEST SWAP2 POP POP SWAP3 POP SWAP3 POP SWAP3 JUMP JUMPDEST PUSH0 PUSH20 0xFFFFFFFFFFFFFFFFFFFFFFFFFFFFFFFFFFFFFFFF DUP3 AND SWAP1 POP SWAP2 SWAP1 POP JUMP JUMPDEST PUSH0 PUSH2 0x24A1 DUP3 PUSH2 0x2478 JUMP JUMPDEST SWAP1 POP SWAP2 SWAP1 POP JUMP JUMPDEST PUSH2 0x24B1 DUP2 PUSH2 0x2497 JUMP JUMPDEST DUP3 MSTORE POP POP JUMP JUMPDEST PUSH0 PUSH1 0x20 DUP3 ADD SWAP1 POP PUSH2 0x24CA PUSH0 DUP4 ADD DUP5 PUSH2 0x24A8 JUMP JUMPDEST SWAP3 SWAP2 POP POP JUMP JUMPDEST PUSH0 DUP2 SWAP1 POP SWAP2 SWAP1 POP JUMP JUMPDEST PUSH2 0x24E2 DUP2 PUSH2 0x24D0 JUMP JUMPDEST DUP2 EQ PUSH2 0x24EC JUMPI PUSH0 PUSH0 REVERT JUMPDEST POP JUMP JUMPDEST PUSH0 DUP2 CALLDATALOAD SWAP1 POP PUSH2 0x24FD DUP2 PUSH2 0x24D9 JUMP JUMPDEST SWAP3 SWAP2 POP POP JUMP JUMPDEST PUSH0 PUSH0 PUSH0 PUSH1 0x60 DUP5 DUP7 SUB SLT ISZERO PUSH2 0x251A JUMPI PUSH2 0x2519 PUSH2 0x1C37 JUMP JUMPDEST JUMPDEST PUSH0 DUP5 ADD CALLDATALOAD PUSH8 0xFFFFFFFFFFFFFFFF DUP2 GT ISZERO PUSH2 0x2537 JUMPI PUSH2 0x2536 PUSH2 0x1C3B JUMP JUMPDEST JUMPDEST PUSH2 0x2543 DUP7 DUP3 DUP8 ADD PUSH2 0x1D4E JUMP JUMPDEST SWAP4 POP POP PUSH1 0x20 DUP5 ADD CALLDATALOAD PUSH8 0xFFFFFFFFFFFFFFFF DUP2 GT ISZERO PUSH2 0x2564 JUMPI PUSH2 0x2563 PUSH2 0x1C3B JUMP JUMPDEST JUMPDEST PUSH2 0x2570 DUP7 DUP3 DUP8 ADD PUSH2 0x1D4E JUMP JUMPDEST SWAP3 POP POP PUSH1 0x40 PUSH2 0x2581 DUP7 DUP3 DUP8 ADD PUSH2 0x24EF JUMP JUMPDEST SWAP2 POP POP SWAP3 POP SWAP3 POP SWAP3 JUMP JUMPDEST PUSH0 PUSH0 PUSH0 PUSH0 PUSH0 PUSH1 0xA0 DUP7 DUP9 SUB SLT ISZERO PUSH2 0x25A4 JUMPI PUSH2 0x25A3 PUSH2 0x1C37 JUMP JUMPDEST JUMPDEST PUSH0 DUP7 ADD CALLDATALOAD PUSH8 0xFFFFFFFFFFFFFFFF DUP2 GT ISZERO PUSH2 0x25C1 JUMPI PUSH2 0x25C0 PUSH2 0x1C3B JUMP JUMPDEST JUMPDEST PUSH2 0x25CD DUP9 DUP3 DUP10 ADD PUSH2 0x1D4E JUMP JUMPDEST SWAP6 POP POP PUSH1 0x20 DUP7 ADD CALLDATALOAD PUSH8 0xFFFFFFFFFFFFFFFF DUP2 GT ISZERO PUSH2 0x25EE JUMPI PUSH2 0x25ED PUSH2 0x1C3B JUMP JUMPDEST JUMPDEST PUSH2 0x25FA DUP9 DUP3 DUP10 ADD PUSH2 0x1D4E JUMP JUMPDEST SWAP5 POP POP PUSH1 0x40 PUSH2 0x260B DUP9 DUP3 DUP10 ADD PUSH2 0x1DA4 JUMP JUMPDEST SWAP4 POP POP PUSH1 0x60 PUSH2 0x261C DUP9 DUP3 DUP10 ADD PUSH2 0x1DA4 JUMP JUMPDEST SWAP3 POP POP PUSH1 0x80 PUSH2 0x262D DUP9 DUP3 DUP10 ADD PUSH2 0x24EF JUMP JUMPDEST SWAP2 POP POP SWAP3 SWAP6 POP SWAP3 SWAP6 SWAP1 SWAP4 POP JUMP JUMPDEST PUSH0 PUSH1 0x20 DUP3 DUP5 SUB SLT ISZERO PUSH2 0x264F JUMPI PUSH2 0x264E PUSH2 0x1C37 JUMP JUMPDEST JUMPDEST PUSH0 PUSH2 0x265C DUP5 DUP3 DUP6 ADD PUSH2 0x2414 JUMP JUMPDEST SWAP2 POP POP SWAP3 SWAP2 POP POP JUMP JUMPDEST PUSH2 0x266E DUP2 PUSH2 0x1D7B JUMP JUMPDEST DUP3 MSTORE POP POP JUMP JUMPDEST PUSH0 PUSH1 0x20 DUP3 ADD SWAP1 POP PUSH2 0x2687 PUSH0 DUP4 ADD DUP5 PUSH2 0x2665 JUMP JUMPDEST SWAP3 SWAP2 POP POP JUMP JUMPDEST PUSH0 PUSH0 PUSH1 0x40 DUP4 DUP6 SUB SLT ISZERO PUSH2 0x26A3 JUMPI PUSH2 0x26A2 PUSH2 0x1C37 JUMP JUMPDEST JUMPDEST PUSH0 PUSH2 0x26B0 DUP6 DUP3 DUP7 ADD PUSH2 0x2414 JUMP JUMPDEST SWAP3 POP POP PUSH1 0x20 PUSH2 0x26C1 DUP6 DUP3 DUP7 ADD PUSH2 0x1DA4 JUMP JUMPDEST SWAP2 POP POP SWAP3 POP SWAP3 SWAP1 POP JUMP JUMPDEST PUSH0 PUSH1 0x20 DUP3 DUP5 SUB SLT ISZERO PUSH2 0x26E0 JUMPI PUSH2 0x26DF PUSH2 0x1C37 JUMP JUMPDEST JUMPDEST PUSH0 DUP3 ADD CALLDATALOAD PUSH8 0xFFFFFFFFFFFFFFFF DUP2 GT ISZERO PUSH2 0x26FD JUMPI PUSH2 0x26FC PUSH2 0x1C3B JUMP JUMPDEST JUMPDEST PUSH2 0x2709 DUP5 DUP3 DUP6 ADD PUSH2 0x1D4E JUMP JUMPDEST SWAP2 POP POP SWAP3 SWAP2 POP POP JUMP JUMPDEST PUSH32 0x4E487B7100000000000000000000000000000000000000000000000000000000 PUSH0 MSTORE PUSH1 0x21 PUSH1 0x4 MSTORE PUSH1 0x24 PUSH0 REVERT JUMPDEST PUSH1 0x10 DUP2 LT PUSH2 0x2750 JUMPI PUSH2 0x274F PUSH2 0x2712 JUMP JUMPDEST JUMPDEST POP JUMP JUMPDEST PUSH0 DUP2 SWAP1 POP PUSH2 0x2760 DUP3 PUSH2 0x273F JUMP JUMPDEST SWAP2 SWAP1 POP JUMP JUMPDEST PUSH0 PUSH2 0x276F DUP3 PUSH2 0x2753 JUMP JUMPDEST SWAP1 POP SWAP2 SWAP1 POP JUMP JUMPDEST PUSH2 0x277F DUP2 PUSH2 0x2765 JUMP JUMPDEST DUP3 MSTORE POP POP JUMP JUMPDEST PUSH0 PUSH1 0x20 DUP3 ADD SWAP1 POP PUSH2 0x2798 PUSH0 DUP4 ADD DUP5 PUSH2 0x2776 JUMP JUMPDEST SWAP3 SWAP2 POP POP JUMP JUMPDEST PUSH0 DUP2 SWAP1 POP SWAP3 SWAP2 POP POP JUMP JUMPDEST PUSH0 PUSH2 0x27B2 DUP3 PUSH2 0x1E78 JUMP JUMPDEST PUSH2 0x27BC DUP2 DUP6 PUSH2 0x279E JUMP JUMPDEST SWAP4 POP PUSH2 0x27CC DUP2 DUP6 PUSH1 0x20 DUP7 ADD PUSH2 0x1E92 JUMP JUMPDEST DUP1 DUP5 ADD SWAP2 POP POP SWAP3 SWAP2 POP POP JUMP JUMPDEST PUSH0 PUSH2 0x27E3 DUP3 DUP5 PUSH2 0x27A8 JUMP JUMPDEST SWAP2 POP DUP2 SWAP1 POP SWAP3 SWAP2 POP POP JUMP JUMPDEST PUSH0 PUSH8 0xFFFFFFFFFFFFFFFF DUP3 GT ISZERO PUSH2 0x2808 JUMPI PUSH2 0x2807 PUSH2 0x1C57 JUMP JUMPDEST JUMPDEST PUSH1 0x20 DUP3 MUL SWAP1 POP PUSH1 0x20 DUP2 ADD SWAP1 POP SWAP2 SWAP1 POP JUMP JUMPDEST PUSH0 PUSH0 REVERT JUMPDEST PUSH0 DUP2 MLOAD SWAP1 POP PUSH2 0x282B DUP2 PUSH2 0x1D8E JUMP JUMPDEST SWAP3 SWAP2 POP POP JUMP JUMPDEST PUSH0 PUSH2 0x2843 PUSH2 0x283E DUP5 PUSH2 0x1CCF JUMP JUMPDEST PUSH2 0x1CB5 JUMP JUMPDEST SWAP1 POP DUP3 DUP2 MSTORE PUSH1 0x20 DUP2 ADD DUP5 DUP5 DUP5 ADD GT ISZERO PUSH2 0x285F JUMPI PUSH2 0x285E PUSH2 0x1C43 JUMP JUMPDEST JUMPDEST PUSH2 0x286A DUP5 DUP3 DUP6 PUSH2 0x1E92 JUMP JUMPDEST POP SWAP4 SWAP3 POP POP POP JUMP JUMPDEST PUSH0 DUP3 PUSH1 0x1F DUP4 ADD SLT PUSH2 0x2886 JUMPI PUSH2 0x2885 PUSH2 0x1C3F JUMP JUMPDEST JUMPDEST DUP2 MLOAD PUSH2 0x2896 DUP5 DUP3 PUSH1 0x20 DUP7 ADD PUSH2 0x2831 JUMP JUMPDEST SWAP2 POP POP SWAP3 SWAP2 POP POP JUMP JUMPDEST PUSH0 DUP2 MLOAD SWAP1 POP PUSH2 0x28AD DUP2 PUSH2 0x20E9 JUMP JUMPDEST SWAP3 SWAP2 POP POP JUMP JUMPDEST PUSH0 PUSH2 0x180 DUP3 DUP5 SUB SLT ISZERO PUSH2 0x28C9 JUMPI PUSH2 0x28C8 PUSH2 0x20E1 JUMP JUMPDEST JUMPDEST PUSH2 0x28D4 PUSH2 0x180 PUSH2 0x1CB5 JUMP JUMPDEST SWAP1 POP PUSH0 PUSH2 0x28E3 DUP5 DUP3 DUP6 ADD PUSH2 0x281D JUMP JUMPDEST PUSH0 DUP4 ADD MSTORE POP PUSH1 0x20 DUP3 ADD MLOAD PUSH8 0xFFFFFFFFFFFFFFFF DUP2 GT ISZERO PUSH2 0x2906 JUMPI PUSH2 0x2905 PUSH2 0x20E5 JUMP JUMPDEST JUMPDEST PUSH2 0x2912 DUP5 DUP3 DUP6 ADD PUSH2 0x2872 JUMP JUMPDEST PUSH1 0x20 DUP4 ADD MSTORE POP PUSH1 0x40 DUP3 ADD MLOAD PUSH8 0xFFFFFFFFFFFFFFFF DUP2 GT ISZERO PUSH2 0x2936 JUMPI PUSH2 0x2935 PUSH2 0x20E5 JUMP JUMPDEST JUMPDEST PUSH2 0x2942 DUP5 DUP3 DUP6 ADD PUSH2 0x2872 JUMP JUMPDEST PUSH1 0x40 DUP4 ADD MSTORE POP PUSH1 0x60 DUP3 ADD MLOAD PUSH8 0xFFFFFFFFFFFFFFFF DUP2 GT ISZERO PUSH2 0x2966 JUMPI PUSH2 0x2965 PUSH2 0x20E5 JUMP JUMPDEST JUMPDEST PUSH2 0x2972 DUP5 DUP3 DUP6 ADD PUSH2 0x2872 JUMP JUMPDEST PUSH1 0x60 DUP4 ADD MSTORE POP PUSH1 0x80 DUP3 ADD MLOAD PUSH8 0xFFFFFFFFFFFFFFFF DUP2 GT ISZERO PUSH2 0x2996 JUMPI PUSH2 0x2995 PUSH2 0x20E5 JUMP JUMPDEST JUMPDEST PUSH2 0x29A2 DUP5 DUP3 DUP6 ADD PUSH2 0x2872 JUMP JUMPDEST PUSH1 0x80 DUP4 ADD MSTORE POP PUSH1 0xA0 DUP3 ADD MLOAD PUSH8 0xFFFFFFFFFFFFFFFF DUP2 GT ISZERO PUSH2 0x29C6 JUMPI PUSH2 0x29C5 PUSH2 0x20E5 JUMP JUMPDEST JUMPDEST PUSH2 0x29D2 DUP5 DUP3 DUP6 ADD PUSH2 0x2872 JUMP JUMPDEST PUSH1 0xA0 DUP4 ADD MSTORE POP PUSH1 0xC0 PUSH2 0x29E6 DUP5 DUP3 DUP6 ADD PUSH2 0x281D JUMP JUMPDEST PUSH1 0xC0 DUP4 ADD MSTORE POP PUSH1 0xE0 DUP3 ADD MLOAD PUSH8 0xFFFFFFFFFFFFFFFF DUP2 GT ISZERO PUSH2 0x2A0A JUMPI PUSH2 0x2A09 PUSH2 0x20E5 JUMP JUMPDEST JUMPDEST PUSH2 0x2A16 DUP5 DUP3 DUP6 ADD PUSH2 0x2872 JUMP JUMPDEST PUSH1 0xE0 DUP4 ADD MSTORE POP PUSH2 0x100 PUSH2 0x2A2B DUP5 DUP3 DUP6 ADD PUSH2 0x289F JUMP JUMPDEST PUSH2 0x100 DUP4 ADD MSTORE POP PUSH2 0x120 DUP3 ADD MLOAD PUSH8 0xFFFFFFFFFFFFFFFF DUP2 GT ISZERO PUSH2 0x2A51 JUMPI PUSH2 0x2A50 PUSH2 0x20E5 JUMP JUMPDEST JUMPDEST PUSH2 0x2A5D DUP5 DUP3 DUP6 ADD PUSH2 0x2872 JUMP JUMPDEST PUSH2 0x120 DUP4 ADD MSTORE POP PUSH2 0x140 DUP3 ADD MLOAD PUSH8 0xFFFFFFFFFFFFFFFF DUP2 GT ISZERO PUSH2 0x2A83 JUMPI PUSH2 0x2A82 PUSH2 0x20E5 JUMP JUMPDEST JUMPDEST PUSH2 0x2A8F DUP5 DUP3 DUP6 ADD PUSH2 0x2872 JUMP JUMPDEST PUSH2 0x140 DUP4 ADD MSTORE POP PUSH2 0x160 DUP3 ADD MLOAD PUSH8 0xFFFFFFFFFFFFFFFF DUP2 GT ISZERO PUSH2 0x2AB5 JUMPI PUSH2 0x2AB4 PUSH2 0x20E5 JUMP JUMPDEST JUMPDEST PUSH2 0x2AC1 DUP5 DUP3 DUP6 ADD PUSH2 0x2872 JUMP JUMPDEST PUSH2 0x160 DUP4 ADD MSTORE POP SWAP3 SWAP2 POP POP JUMP JUMPDEST PUSH0 PUSH2 0x2AE0 PUSH2 0x2ADB DUP5 PUSH2 0x27EE JUMP JUMPDEST PUSH2 0x1CB5 JUMP JUMPDEST SWAP1 POP DUP1 DUP4 DUP3 MSTORE PUSH1 0x20 DUP3 ADD SWAP1 POP PUSH1 0x20 DUP5 MUL DUP4 ADD DUP6 DUP2 GT ISZERO PUSH2 0x2B03 JUMPI PUSH2 0x2B02 PUSH2 0x2819 JUMP JUMPDEST JUMPDEST DUP4 JUMPDEST DUP2 DUP2 LT ISZERO PUSH2 0x2B4A JUMPI DUP1 MLOAD PUSH8 0xFFFFFFFFFFFFFFFF DUP2 GT ISZERO PUSH2 0x2B28 JUMPI PUSH2 0x2B27 PUSH2 0x1C3F JUMP JUMPDEST JUMPDEST DUP1 DUP7 ADD PUSH2 0x2B35 DUP10 DUP3 PUSH2 0x28B3 JUMP JUMPDEST DUP6 MSTORE PUSH1 0x20 DUP6 ADD SWAP5 POP POP POP PUSH1 0x20 DUP2 ADD SWAP1 POP PUSH2 0x2B05 JUMP JUMPDEST POP POP POP SWAP4 SWAP3 POP POP POP JUMP JUMPDEST PUSH0 DUP3 PUSH1 0x1F DUP4 ADD SLT PUSH2 0x2B68 JUMPI PUSH2 0x2B67 PUSH2 0x1C3F JUMP JUMPDEST JUMPDEST DUP2 MLOAD PUSH2 0x2B78 DUP5 DUP3 PUSH1 0x20 DUP7 ADD PUSH2 0x2ACE JUMP JUMPDEST SWAP2 POP POP SWAP3 SWAP2 POP POP JUMP JUMPDEST PUSH0 PUSH1 0x20 DUP3 DUP5 SUB SLT ISZERO PUSH2 0x2B96 JUMPI PUSH2 0x2B95 PUSH2 0x1C37 JUMP JUMPDEST JUMPDEST PUSH0 DUP3 ADD MLOAD PUSH8 0xFFFFFFFFFFFFFFFF DUP2 GT ISZERO PUSH2 0x2BB3 JUMPI PUSH2 0x2BB2 PUSH2 0x1C3B JUMP JUMPDEST JUMPDEST PUSH2 0x2BBF DUP5 DUP3 DUP6 ADD PUSH2 0x2B54 JUMP JUMPDEST SWAP2 POP POP SWAP3 SWAP2 POP POP JUMP JUMPDEST PUSH0 DUP3 DUP3 MSTORE PUSH1 0x20 DUP3 ADD SWAP1 POP SWAP3 SWAP2 POP POP JUMP JUMPDEST PUSH0 PUSH2 0x2BE2 DUP3 PUSH2 0x1E78 JUMP JUMPDEST PUSH2 0x2BEC DUP2 DUP6 PUSH2 0x2BC8 JUMP JUMPDEST SWAP4 POP PUSH2 0x2BFC DUP2 DUP6 PUSH1 0x20 DUP7 ADD PUSH2 0x1E92 JUMP JUMPDEST PUSH2 0x2C05 DUP2 PUSH2 0x1C47 JUMP JUMPDEST DUP5 ADD SWAP2 POP POP SWAP3 SWAP2 POP POP JUMP JUMPDEST PUSH0 PUSH1 0x80 DUP3 ADD SWAP1 POP DUP2 DUP2 SUB PUSH0 DUP4 ADD MSTORE PUSH2 0x2C28 DUP2 DUP8 PUSH2 0x2BD8 JUMP JUMPDEST SWAP1 POP DUP2 DUP2 SUB PUSH1 0x20 DUP4 ADD MSTORE PUSH2 0x2C3C DUP2 DUP7 PUSH2 0x2BD8 JUMP JUMPDEST SWAP1 POP PUSH2 0x2C4B PUSH1 0x40 DUP4 ADD DUP6 PUSH2 0x2665 JUMP JUMPDEST PUSH2 0x2C58 PUSH1 0x60 DUP4 ADD DUP5 PUSH2 0x24A8 JUMP JUMPDEST SWAP6 SWAP5 POP POP POP POP POP JUMP JUMPDEST PUSH0 PUSH2 0x180 DUP4 ADD PUSH0 DUP4 ADD MLOAD PUSH2 0x2C77 PUSH0 DUP7 ADD DUP3 PUSH2 0x1E69 JUMP JUMPDEST POP PUSH1 0x20 DUP4 ADD MLOAD DUP5 DUP3 SUB PUSH1 0x20 DUP7 ADD MSTORE PUSH2 0x2C8F DUP3 DUP3 PUSH2 0x1EA0 JUMP JUMPDEST SWAP2 POP POP PUSH1 0x40 DUP4 ADD MLOAD DUP5 DUP3 SUB PUSH1 0x40 DUP7 ADD MSTORE PUSH2 0x2CA9 DUP3 DUP3 PUSH2 0x1EA0 JUMP JUMPDEST SWAP2 POP POP PUSH1 0x60 DUP4 ADD MLOAD DUP5 DUP3 SUB PUSH1 0x60 DUP7 ADD MSTORE PUSH2 0x2CC3 DUP3 DUP3 PUSH2 0x1EA0 JUMP JUMPDEST SWAP2 POP POP PUSH1 0x80 DUP4 ADD MLOAD DUP5 DUP3 SUB PUSH1 0x80 DUP7 ADD MSTORE PUSH2 0x2CDD DUP3 DUP3 PUSH2 0x1EA0 JUMP JUMPDEST SWAP2 POP POP PUSH1 0xA0 DUP4 ADD MLOAD DUP5 DUP3 SUB PUSH1 0xA0 DUP7 ADD MSTORE PUSH2 0x2CF7 DUP3 DUP3 PUSH2 0x1EA0 JUMP JUMPDEST SWAP2 POP POP PUSH1 0xC0 DUP4 ADD MLOAD PUSH2 0x2D0C PUSH1 0xC0 DUP7 ADD DUP3 PUSH2 0x1E69 JUMP JUMPDEST POP PUSH1 0xE0 DUP4 ADD MLOAD DUP5 DUP3 SUB PUSH1 0xE0 DUP7 ADD MSTORE PUSH2 0x2D24 DUP3 DUP3 PUSH2 0x1EA0 JUMP JUMPDEST SWAP2 POP POP PUSH2 0x100 DUP4 ADD MLOAD PUSH2 0x2D3B PUSH2 0x100 DUP7 ADD DUP3 PUSH2 0x1EE7 JUMP JUMPDEST POP PUSH2 0x120 DUP4 ADD MLOAD DUP5 DUP3 SUB PUSH2 0x120 DUP7 ADD MSTORE PUSH2 0x2D55 DUP3 DUP3 PUSH2 0x1EA0 JUMP JUMPDEST SWAP2 POP POP PUSH2 0x140 DUP4 ADD MLOAD DUP5 DUP3 SUB PUSH2 0x140 DUP7 ADD MSTORE PUSH2 0x2D71 DUP3 DUP3 PUSH2 0x1EA0 JUMP JUMPDEST SWAP2 POP POP PUSH2 0x160 DUP4 ADD MLOAD DUP5 DUP3 SUB PUSH2 0x160 DUP7 ADD MSTORE PUSH2 0x2D8D DUP3 DUP3 PUSH2 0x1EA0 JUMP JUMPDEST SWAP2 POP POP DUP1 SWAP2 POP POP SWAP3 SWAP2 POP POP JUMP JUMPDEST PUSH0 PUSH1 0x20 DUP3 ADD SWAP1 POP DUP2 DUP2 SUB PUSH0 DUP4 ADD MSTORE PUSH2 0x2DB2 DUP2 DUP5 PUSH2 0x2C61 JUMP JUMPDEST SWAP1 POP SWAP3 SWAP2 POP POP JUMP JUMPDEST PUSH32 0x4E487B7100000000000000000000000000000000000000000000000000000000 PUSH0 MSTORE PUSH1 0x11 PUSH1 0x4 MSTORE PUSH1 0x24 PUSH0 REVERT JUMPDEST PUSH0 PUSH2 0x2DF1 DUP3 PUSH2 0x24D0 JUMP JUMPDEST SWAP2 POP PUSH2 0x2DFC DUP4 PUSH2 0x24D0 JUMP JUMPDEST SWAP3 POP DUP3 DUP3 MUL PUSH2 0x2E0A DUP2 PUSH2 0x24D0 JUMP JUMPDEST SWAP2 POP DUP3 DUP3 DIV DUP5 EQ DUP4 ISZERO OR PUSH2 0x2E21 JUMPI PUSH2 0x2E20 PUSH2 0x2DBA JUMP JUMPDEST JUMPDEST POP SWAP3 SWAP2 POP POP JUMP JUMPDEST PUSH0 PUSH2 0x2E32 DUP3 PUSH2 0x24D0 JUMP JUMPDEST SWAP2 POP PUSH2 0x2E3D DUP4 PUSH2 0x24D0 JUMP JUMPDEST SWAP3 POP DUP3 DUP3 SUB SWAP1 POP DUP2 DUP2 GT ISZERO PUSH2 0x2E55 JUMPI PUSH2 0x2E54 PUSH2 0x2DBA JUMP JUMPDEST JUMPDEST SWAP3 SWAP2 POP POP JUMP JUMPDEST PUSH32 0x4E487B7100000000000000000000000000000000000000000000000000000000 PUSH0 MSTORE PUSH1 0x32 PUSH1 0x4 MSTORE PUSH1 0x24 PUSH0 REVERT JUMPDEST PUSH0 PUSH2 0x2E92 DUP3 PUSH2 0x24D0 JUMP JUMPDEST SWAP2 POP PUSH32 0xFFFFFFFFFFFFFFFFFFFFFFFFFFFFFFFFFFFFFFFFFFFFFFFFFFFFFFFFFFFFFFFF DUP3 SUB PUSH2 0x2EC4 JUMPI PUSH2 0x2EC3 PUSH2 0x2DBA JUMP JUMPDEST JUMPDEST PUSH1 0x1 DUP3 ADD SWAP1 POP SWAP2 SWAP1 POP JUMP JUMPDEST PUSH0 PUSH2 0x2ED9 DUP3 PUSH2 0x24D0 JUMP JUMPDEST SWAP2 POP PUSH0 DUP3 SUB PUSH2 0x2EEB JUMPI PUSH2 0x2EEA PUSH2 0x2DBA JUMP JUMPDEST JUMPDEST PUSH1 0x1 DUP3 SUB SWAP1 POP SWAP2 SWAP1 POP JUMP JUMPDEST PUSH0 PUSH2 0x2F00 DUP3 PUSH2 0x1D7B JUMP JUMPDEST SWAP2 POP PUSH2 0x2F0B DUP4 PUSH2 0x1D7B JUMP JUMPDEST SWAP3 POP DUP3 DUP3 SUB SWAP1 POP PUSH8 0xFFFFFFFFFFFFFFFF DUP2 GT ISZERO PUSH2 0x2F2B JUMPI PUSH2 0x2F2A PUSH2 0x2DBA JUMP JUMPDEST JUMPDEST SWAP3 SWAP2 POP POP JUMP JUMPDEST PUSH32 0x556E737570706F7274656420696E74657276616C000000000000000000000000 PUSH0 DUP3 ADD MSTORE POP JUMP JUMPDEST PUSH0 PUSH2 0x2F65 PUSH1 0x14 DUP4 PUSH2 0x2BC8 JUMP JUMPDEST SWAP2 POP PUSH2 0x2F70 DUP3 PUSH2 0x2F31 JUMP JUMPDEST PUSH1 0x20 DUP3 ADD SWAP1 POP SWAP2 SWAP1 POP JUMP JUMPDEST PUSH0 PUSH1 0x20 DUP3 ADD SWAP1 POP DUP2 DUP2 SUB PUSH0 DUP4 ADD MSTORE PUSH2 0x2F92 DUP2 PUSH2 0x2F59 JUMP JUMPDEST SWAP1 POP SWAP2 SWAP1 POP JUMP JUMPDEST PUSH32 0x4E487B7100000000000000000000000000000000000000000000000000000000 PUSH0 MSTORE PUSH1 0x12 PUSH1 0x4 MSTORE PUSH1 0x24 PUSH0 REVERT JUMPDEST PUSH0 PUSH2 0x2FD0 DUP3 PUSH2 0x1D7B JUMP JUMPDEST SWAP2 POP PUSH2 0x2FDB DUP4 PUSH2 0x1D7B JUMP JUMPDEST SWAP3 POP DUP3 PUSH2 0x2FEB JUMPI PUSH2 0x2FEA PUSH2 0x2F99 JUMP JUMPDEST JUMPDEST DUP3 DUP3 DIV SWAP1 POP SWAP3 SWAP2 POP POP JUMP JUMPDEST PUSH0 PUSH2 0x3000 DUP3 PUSH2 0x1D7B JUMP JUMPDEST SWAP2 POP PUSH2 0x300B DUP4 PUSH2 0x1D7B JUMP JUMPDEST SWAP3 POP DUP3 DUP3 MUL PUSH2 0x3019 DUP2 PUSH2 0x1D7B JUMP JUMPDEST SWAP2 POP DUP1 DUP3 EQ PUSH2 0x302B JUMPI PUSH2 0x302A PUSH2 0x2DBA JUMP JUMPDEST JUMPDEST POP SWAP3 SWAP2 POP POP JUMP JUMPDEST PUSH32 0x496E76616C696420696E74657276616C20737472696E67000000000000000000 PUSH0 DUP3 ADD MSTORE POP JUMP JUMPDEST PUSH0 PUSH2 0x3066 PUSH1 0x17 DUP4 PUSH2 0x2BC8 JUMP JUMPDEST SWAP2 POP PUSH2 0x3071 DUP3 PUSH2 0x3032 JUMP JUMPDEST PUSH1 0x20 DUP3 ADD SWAP1 POP SWAP2 SWAP1 POP JUMP JUMPDEST PUSH0 PUSH1 0x20 DUP3 ADD SWAP1 POP DUP2 DUP2 SUB PUSH0 DUP4 ADD MSTORE PUSH2 0x3093 DUP2 PUSH2 0x305A JUMP JUMPDEST SWAP1 POP SWAP2 SWAP1 POP JUMP JUMPDEST PUSH0 PUSH1 0x20 DUP3 ADD SWAP1 POP DUP2 DUP2 SUB PUSH0 DUP4 ADD MSTORE PUSH2 0x30B2 DUP2 DUP5 PUSH2 0x2BD8 JUMP JUMPDEST SWAP1 POP SWAP3 SWAP2 POP POP JUMP JUMPDEST PUSH0 PUSH2 0x30C4 DUP3 PUSH2 0x1D7B JUMP JUMPDEST SWAP2 POP PUSH2 0x30CF DUP4 PUSH2 0x1D7B JUMP JUMPDEST SWAP3 POP DUP3 DUP3 ADD SWAP1 POP PUSH8 0xFFFFFFFFFFFFFFFF DUP2 GT ISZERO PUSH2 0x30EF JUMPI PUSH2 0x30EE PUSH2 0x2DBA JUMP JUMPDEST JUMPDEST SWAP3 SWAP2 POP POP JUMP JUMPDEST PUSH2 0x30FE DUP2 PUSH2 0x24D0 JUMP JUMPDEST DUP3 MSTORE POP POP JUMP JUMPDEST PUSH0 PUSH1 0x40 DUP3 ADD SWAP1 POP DUP2 DUP2 SUB PUSH0 DUP4 ADD MSTORE PUSH2 0x311C DUP2 DUP6 PUSH2 0x2BD8 JUMP JUMPDEST SWAP1 POP PUSH2 0x312B PUSH1 0x20 DUP4 ADD DUP5 PUSH2 0x30F5 JUMP JUMPDEST SWAP4 SWAP3 POP POP POP JUMP JUMPDEST PUSH32 0x4E487B7100000000000000000000000000000000000000000000000000000000 PUSH0 MSTORE PUSH1 0x51 PUSH1 0x4 MSTORE PUSH1 0x24 PUSH0 REVERT INVALID PUSH1 0x80 PUSH1 0x40 MSTORE CALLVALUE DUP1 ISZERO PUSH1 0xE JUMPI PUSH0 PUSH0 REVERT JUMPDEST POP CALLER PUSH1 0x1 PUSH0 PUSH2 0x100 EXP DUP2 SLOAD DUP2 PUSH20 0xFFFFFFFFFFFFFFFFFFFFFFFFFFFFFFFFFFFFFFFF MUL NOT AND SWAP1 DUP4 PUSH20 0xFFFFFFFFFFFFFFFFFFFFFFFFFFFFFFFFFFFFFFFF AND MUL OR SWAP1 SSTORE POP PUSH2 0x1AE7 DUP1 PUSH2 0x5C PUSH0 CODECOPY PUSH0 RETURN INVALID PUSH1 0x80 PUSH1 0x40 MSTORE CALLVALUE DUP1 ISZERO PUSH2 0xF JUMPI PUSH0 PUSH0 REVERT JUMPDEST POP PUSH1 0x4 CALLDATASIZE LT PUSH2 0x55 JUMPI PUSH0 CALLDATALOAD PUSH1 0xE0 SHR DUP1 PUSH4 0xA6478D97 EQ PUSH2 0x59 JUMPI DUP1 PUSH4 0xA8F9B0AF EQ PUSH2 0x77 JUMPI DUP1 PUSH4 0xC45A0155 EQ PUSH2 0x93 JUMPI DUP1 PUSH4 0xEA6C8353 EQ PUSH2 0xB1 JUMPI DUP1 PUSH4 0xFB34B3A9 EQ PUSH2 0xCF JUMPI JUMPDEST PUSH0 PUSH0 REVERT JUMPDEST PUSH2 0x61 PUSH2 0xED JUMP JUMPDEST PUSH1 0x40 MLOAD PUSH2 0x6E SWAP2 SWAP1 PUSH2 0x103D JUMP JUMPDEST PUSH1 0x40 MLOAD DUP1 SWAP2 SUB SWAP1 RETURN JUMPDEST PUSH2 0x91 PUSH1 0x4 DUP1 CALLDATASIZE SUB DUP2 ADD SWAP1 PUSH2 0x8C SWAP2 SWAP1 PUSH2 0x143C JUMP JUMPDEST PUSH2 0xF8 JUMP JUMPDEST STOP JUMPDEST PUSH2 0x9B PUSH2 0x2FE JUMP JUMPDEST PUSH1 0x40 MLOAD PUSH2 0xA8 SWAP2 SWAP1 PUSH2 0x14C2 JUMP JUMPDEST PUSH1 0x40 MLOAD DUP1 SWAP2 SUB SWAP1 RETURN JUMPDEST PUSH2 0xB9 PUSH2 0x323 JUMP JUMPDEST PUSH1 0x40 MLOAD PUSH2 0xC6 SWAP2 SWAP1 PUSH2 0x174D JUMP JUMPDEST PUSH1 0x40 MLOAD DUP1 SWAP2 SUB SWAP1 RETURN JUMPDEST PUSH2 0xD7 PUSH2 0x9A4 JUMP JUMPDEST PUSH1 0x40 MLOAD PUSH2 0xE4 SWAP2 SWAP1 PUSH2 0x174D JUMP JUMPDEST PUSH1 0x40 MLOAD DUP1 SWAP2 SUB SWAP1 RETURN JUMPDEST PUSH0 PUSH0 DUP1 SLOAD SWAP1 POP SWAP1 POP SWAP1 JUMP JUMPDEST PUSH1 0x1 PUSH0 SWAP1 SLOAD SWAP1 PUSH2 0x100 EXP SWAP1 DIV PUSH20 0xFFFFFFFFFFFFFFFFFFFFFFFFFFFFFFFFFFFFFFFF AND PUSH20 0xFFFFFFFFFFFFFFFFFFFFFFFFFFFFFFFFFFFFFFFF AND CALLER PUSH20 0xFFFFFFFFFFFFFFFFFFFFFFFFFFFFFFFFFFFFFFFF AND EQ PUSH2 0x187 JUMPI PUSH1 0x40 MLOAD PUSH32 0x8C379A000000000000000000000000000000000000000000000000000000000 DUP2 MSTORE PUSH1 0x4 ADD PUSH2 0x17E SWAP1 PUSH2 0x17C7 JUMP JUMPDEST PUSH1 0x40 MLOAD DUP1 SWAP2 SUB SWAP1 REVERT JUMPDEST PUSH0 DUP2 SWAP1 DUP1 PUSH1 0x1 DUP2 SLOAD ADD DUP1 DUP3 SSTORE DUP1 SWAP2 POP POP PUSH1 0x1 SWAP1 SUB SWAP1 PUSH0 MSTORE PUSH1 0x20 PUSH0 KECCAK256 SWAP1 PUSH1 0xC MUL ADD PUSH0 SWAP1 SWAP2 SWAP1 SWAP2 SWAP1 SWAP2 POP PUSH0 DUP3 ADD MLOAD DUP2 PUSH0 ADD PUSH0 PUSH2 0x100 EXP DUP2 SLOAD DUP2 PUSH8 0xFFFFFFFFFFFFFFFF MUL NOT AND SWAP1 DUP4 PUSH8 0xFFFFFFFFFFFFFFFF AND MUL OR SWAP1 SSTORE POP PUSH1 0x20 DUP3 ADD MLOAD DUP2 PUSH1 0x1 ADD SWAP1 DUP2 PUSH2 0x1F0 SWAP2 SWAP1 PUSH2 0x19E2 JUMP JUMPDEST POP PUSH1 0x40 DUP3 ADD MLOAD DUP2 PUSH1 0x2 ADD SWAP1 DUP2 PUSH2 0x206 SWAP2 SWAP1 PUSH2 0x19E2 JUMP JUMPDEST POP PUSH1 0x60 DUP3 ADD MLOAD DUP2 PUSH1 0x3 ADD SWAP1 DUP2 PUSH2 0x21C SWAP2 SWAP1 PUSH2 0x19E2 JUMP JUMPDEST POP PUSH1 0x80 DUP3 ADD MLOAD DUP2 PUSH1 0x4 ADD SWAP1 DUP2 PUSH2 0x232 SWAP2 SWAP1 PUSH2 0x19E2 JUMP JUMPDEST POP PUSH1 0xA0 DUP3 ADD MLOAD DUP2 PUSH1 0x5 ADD SWAP1 DUP2 PUSH2 0x248 SWAP2 SWAP1 PUSH2 0x19E2 JUMP JUMPDEST POP PUSH1 0xC0 DUP3 ADD MLOAD DUP2 PUSH1 0x6 ADD PUSH0 PUSH2 0x100 EXP DUP2 SLOAD DUP2 PUSH8 0xFFFFFFFFFFFFFFFF MUL NOT AND SWAP1 DUP4 PUSH8 0xFFFFFFFFFFFFFFFF AND MUL OR SWAP1 SSTORE POP PUSH1 0xE0 DUP3 ADD MLOAD DUP2 PUSH1 0x7 ADD SWAP1 DUP2 PUSH2 0x28C SWAP2 SWAP1 PUSH2 0x19E2 JUMP JUMPDEST POP PUSH2 0x100 DUP3 ADD MLOAD DUP2 PUSH1 0x8 ADD PUSH0 PUSH2 0x100 EXP DUP2 SLOAD DUP2 PUSH4 0xFFFFFFFF MUL NOT AND SWAP1 DUP4 PUSH4 0xFFFFFFFF AND MUL OR SWAP1 SSTORE POP PUSH2 0x120 DUP3 ADD MLOAD DUP2 PUSH1 0x9 ADD SWAP1 DUP2 PUSH2 0x2CA SWAP2 SWAP1 PUSH2 0x19E2 JUMP JUMPDEST POP PUSH2 0x140 DUP3 ADD MLOAD DUP2 PUSH1 0xA ADD SWAP1 DUP2 PUSH2 0x2E1 SWAP2 SWAP1 PUSH2 0x19E2 JUMP JUMPDEST POP PUSH2 0x160 DUP3 ADD MLOAD DUP2 PUSH1 0xB ADD SWAP1 DUP2 PUSH2 0x2F8 SWAP2 SWAP1 PUSH2 0x19E2 JUMP JUMPDEST POP POP POP POP JUMP JUMPDEST PUSH1 0x1 PUSH0 SWAP1 SLOAD SWAP1 PUSH2 0x100 EXP SWAP1 DIV PUSH20 0xFFFFFFFFFFFFFFFFFFFFFFFFFFFFFFFFFFFFFFFF AND DUP2 JUMP JUMPDEST PUSH1 0x60 PUSH1 0x1 PUSH0 SWAP1 SLOAD SWAP1 PUSH2 0x100 EXP SWAP1 DIV PUSH20 0xFFFFFFFFFFFFFFFFFFFFFFFFFFFFFFFFFFFFFFFF AND PUSH20 0xFFFFFFFFFFFFFFFFFFFFFFFFFFFFFFFFFFFFFFFF AND CALLER PUSH20 0xFFFFFFFFFFFFFFFFFFFFFFFFFFFFFFFFFFFFFFFF AND EQ PUSH2 0x3B4 JUMPI PUSH1 0x40 MLOAD PUSH32 0x8C379A000000000000000000000000000000000000000000000000000000000 DUP2 MSTORE PUSH1 0x4 ADD PUSH2 0x3AB SWAP1 PUSH2 0x17C7 JUMP JUMPDEST PUSH1 0x40 MLOAD DUP1 SWAP2 SUB SWAP1 REVERT JUMPDEST PUSH0 DUP1 SLOAD DUP1 PUSH1 0x20 MUL PUSH1 0x20 ADD PUSH1 0x40 MLOAD SWAP1 DUP2 ADD PUSH1 0x40 MSTORE DUP1 SWAP3 SWAP2 SWAP1 DUP2 DUP2 MSTORE PUSH1 0x20 ADD PUSH0 SWAP1 JUMPDEST DUP3 DUP3 LT ISZERO PUSH2 0x99B JUMPI DUP4 DUP3 SWAP1 PUSH0 MSTORE PUSH1 0x20 PUSH0 KECCAK256 SWAP1 PUSH1 0xC MUL ADD PUSH1 0x40 MLOAD DUP1 PUSH2 0x180 ADD PUSH1 0x40 MSTORE SWAP1 DUP2 PUSH0 DUP3 ADD PUSH0 SWAP1 SLOAD SWAP1 PUSH2 0x100 EXP SWAP1 DIV PUSH8 0xFFFFFFFFFFFFFFFF AND PUSH8 0xFFFFFFFFFFFFFFFF AND PUSH8 0xFFFFFFFFFFFFFFFF AND DUP2 MSTORE PUSH1 0x20 ADD PUSH1 0x1 DUP3 ADD DUP1 SLOAD PUSH2 0x436 SWAP1 PUSH2 0x1812 JUMP JUMPDEST DUP1 PUSH1 0x1F ADD PUSH1 0x20 DUP1 SWAP2 DIV MUL PUSH1 0x20 ADD PUSH1 0x40 MLOAD SWAP1 DUP2 ADD PUSH1 0x40 MSTORE DUP1 SWAP3 SWAP2 SWAP1 DUP2 DUP2 MSTORE PUSH1 0x20 ADD DUP3 DUP1 SLOAD PUSH2 0x462 SWAP1 PUSH2 0x1812 JUMP JUMPDEST DUP1 ISZERO PUSH2 0x4AD JUMPI DUP1 PUSH1 0x1F LT PUSH2 0x484 JUMPI PUSH2 0x100 DUP1 DUP4 SLOAD DIV MUL DUP4 MSTORE SWAP2 PUSH1 0x20 ADD SWAP2 PUSH2 0x4AD JUMP JUMPDEST DUP3 ADD SWAP2 SWAP1 PUSH0 MSTORE PUSH1 0x20 PUSH0 KECCAK256 SWAP1 JUMPDEST DUP2 SLOAD DUP2 MSTORE SWAP1 PUSH1 0x1 ADD SWAP1 PUSH1 0x20 ADD DUP1 DUP4 GT PUSH2 0x490 JUMPI DUP3 SWAP1 SUB PUSH1 0x1F AND DUP3 ADD SWAP2 JUMPDEST POP POP POP POP POP DUP2 MSTORE PUSH1 0x20 ADD PUSH1 0x2 DUP3 ADD DUP1 SLOAD PUSH2 0x4C6 SWAP1 PUSH2 0x1812 JUMP JUMPDEST DUP1 PUSH1 0x1F ADD PUSH1 0x20 DUP1 SWAP2 DIV MUL PUSH1 0x20 ADD PUSH1 0x40 MLOAD SWAP1 DUP2 ADD PUSH1 0x40 MSTORE DUP1 SWAP3 SWAP2 SWAP1 DUP2 DUP2 MSTORE PUSH1 0x20 ADD DUP3 DUP1 SLOAD PUSH2 0x4F2 SWAP1 PUSH2 0x1812 JUMP JUMPDEST DUP1 ISZERO PUSH2 0x53D JUMPI DUP1 PUSH1 0x1F LT PUSH2 0x514 JUMPI PUSH2 0x100 DUP1 DUP4 SLOAD DIV MUL DUP4 MSTORE SWAP2 PUSH1 0x20 ADD SWAP2 PUSH2 0x53D JUMP JUMPDEST DUP3 ADD SWAP2 SWAP1 PUSH0 MSTORE PUSH1 0x20 PUSH0 KECCAK256 SWAP1 JUMPDEST DUP2 SLOAD DUP2 MSTORE SWAP1 PUSH1 0x1 ADD SWAP1 PUSH1 0x20 ADD DUP1 DUP4 GT PUSH2 0x520 JUMPI DUP3 SWAP1 SUB PUSH1 0x1F AND DUP3 ADD SWAP2 JUMPDEST POP POP POP POP POP DUP2 MSTORE PUSH1 0x20 ADD PUSH1 0x3 DUP3 ADD DUP1 SLOAD PUSH2 0x556 SWAP1 PUSH2 0x1812 JUMP JUMPDEST DUP1 PUSH1 0x1F ADD PUSH1 0x20 DUP1 SWAP2 DIV MUL PUSH1 0x20 ADD PUSH1 0x40 MLOAD SWAP1 DUP2 ADD PUSH1 0x40 MSTORE DUP1 SWAP3 SWAP2 SWAP1 DUP2 DUP2 MSTORE PUSH1 0x20 ADD DUP3 DUP1 SLOAD PUSH2 0x582 SWAP1 PUSH2 0x1812 JUMP JUMPDEST DUP1 ISZERO PUSH2 0x5CD JUMPI DUP1 PUSH1 0x1F LT PUSH2 0x5A4 JUMPI PUSH2 0x100 DUP1 DUP4 SLOAD DIV MUL DUP4 MSTORE SWAP2 PUSH1 0x20 ADD SWAP2 PUSH2 0x5CD JUMP JUMPDEST DUP3 ADD SWAP2 SWAP1 PUSH0 MSTORE PUSH1 0x20 PUSH0 KECCAK256 SWAP1 JUMPDEST DUP2 SLOAD DUP2 MSTORE SWAP1 PUSH1 0x1 ADD SWAP1 PUSH1 0x20 ADD DUP1 DUP4 GT PUSH2 0x5B0 JUMPI DUP3 SWAP1 SUB PUSH1 0x1F AND DUP3 ADD SWAP2 JUMPDEST POP POP POP POP POP DUP2 MSTORE PUSH1 0x20 ADD PUSH1 0x4 DUP3 ADD DUP1 SLOAD PUSH2 0x5E6 SWAP1 PUSH2 0x1812 JUMP JUMPDEST DUP1 PUSH1 0x1F ADD PUSH1 0x20 DUP1 SWAP2 DIV MUL PUSH1 0x20 ADD PUSH1 0x40 MLOAD SWAP1 DUP2 ADD PUSH1 0x40 MSTORE DUP1 SWAP3 SWAP2 SWAP1 DUP2 DUP2 MSTORE PUSH1 0x20 ADD DUP3 DUP1 SLOAD PUSH2 0x612 SWAP1 PUSH2 0x1812 JUMP JUMPDEST DUP1 ISZERO PUSH2 0x65D JUMPI DUP1 PUSH1 0x1F LT PUSH2 0x634 JUMPI PUSH2 0x100 DUP1 DUP4 SLOAD DIV MUL DUP4 MSTORE SWAP2 PUSH1 0x20 ADD SWAP2 PUSH2 0x65D JUMP JUMPDEST DUP3 ADD SWAP2 SWAP1 PUSH0 MSTORE PUSH1 0x20 PUSH0 KECCAK256 SWAP1 JUMPDEST DUP2 SLOAD DUP2 MSTORE SWAP1 PUSH1 0x1 ADD SWAP1 PUSH1 0x20 ADD DUP1 DUP4 GT PUSH2 0x640 JUMPI DUP3 SWAP1 SUB PUSH1 0x1F AND DUP3 ADD SWAP2 JUMPDEST POP POP POP POP POP DUP2 MSTORE PUSH1 0x20 ADD PUSH1 0x5 DUP3 ADD DUP1 SLOAD PUSH2 0x676 SWAP1 PUSH2 0x1812 JUMP JUMPDEST DUP1 PUSH1 0x1F ADD PUSH1 0x20 DUP1 SWAP2 DIV MUL PUSH1 0x20 ADD PUSH1 0x40 MLOAD SWAP1 DUP2 ADD PUSH1 0x40 MSTORE DUP1 SWAP3 SWAP2 SWAP1 DUP2 DUP2 MSTORE PUSH1 0x20 ADD DUP3 DUP1 SLOAD PUSH2 0x6A2 SWAP1 PUSH2 0x1812 JUMP JUMPDEST DUP1 ISZERO PUSH2 0x6ED JUMPI DUP1 PUSH1 0x1F LT PUSH2 0x6C4 JUMPI PUSH2 0x100 DUP1 DUP4 SLOAD DIV MUL DUP4 MSTORE SWAP2 PUSH1 0x20 ADD SWAP2 PUSH2 0x6ED JUMP JUMPDEST DUP3 ADD SWAP2 SWAP1 PUSH0 MSTORE PUSH1 0x20 PUSH0 KECCAK256 SWAP1 JUMPDEST DUP2 SLOAD DUP2 MSTORE SWAP1 PUSH1 0x1 ADD SWAP1 PUSH1 0x20 ADD DUP1 DUP4 GT PUSH2 0x6D0 JUMPI DUP3 SWAP1 SUB PUSH1 0x1F AND DUP3 ADD SWAP2 JUMPDEST POP POP POP POP POP DUP2 MSTORE PUSH1 0x20 ADD PUSH1 0x6 DUP3 ADD PUSH0 SWAP1 SLOAD SWAP1 PUSH2 0x100 EXP SWAP1 DIV PUSH8 0xFFFFFFFFFFFFFFFF AND PUSH8 0xFFFFFFFFFFFFFFFF AND PUSH8 0xFFFFFFFFFFFFFFFF AND DUP2 MSTORE PUSH1 0x20 ADD PUSH1 0x7 DUP3 ADD DUP1 SLOAD PUSH2 0x737 SWAP1 PUSH2 0x1812 JUMP JUMPDEST DUP1 PUSH1 0x1F ADD PUSH1 0x20 DUP1 SWAP2 DIV MUL PUSH1 0x20 ADD PUSH1 0x40 MLOAD SWAP1 DUP2 ADD PUSH1 0x40 MSTORE DUP1 SWAP3 SWAP2 SWAP1 DUP2 DUP2 MSTORE PUSH1 0x20 ADD DUP3 DUP1 SLOAD PUSH2 0x763 SWAP1 PUSH2 0x1812 JUMP JUMPDEST DUP1 ISZERO PUSH2 0x7AE JUMPI DUP1 PUSH1 0x1F LT PUSH2 0x785 JUMPI PUSH2 0x100 DUP1 DUP4 SLOAD DIV MUL DUP4 MSTORE SWAP2 PUSH1 0x20 ADD SWAP2 PUSH2 0x7AE JUMP JUMPDEST DUP3 ADD SWAP2 SWAP1 PUSH0 MSTORE PUSH1 0x20 PUSH0 KECCAK256 SWAP1 JUMPDEST DUP2 SLOAD DUP2 MSTORE SWAP1 PUSH1 0x1 ADD SWAP1 PUSH1 0x20 ADD DUP1 DUP4 GT PUSH2 0x791 JUMPI DUP3 SWAP1 SUB PUSH1 0x1F AND DUP3 ADD SWAP2 JUMPDEST POP POP POP POP POP DUP2 MSTORE PUSH1 0x20 ADD PUSH1 0x8 DUP3 ADD PUSH0 SWAP1 SLOAD SWAP1 PUSH2 0x100 EXP SWAP1 DIV PUSH4 0xFFFFFFFF AND PUSH4 0xFFFFFFFF AND PUSH4 0xFFFFFFFF AND DUP2 MSTORE PUSH1 0x20 ADD PUSH1 0x9 DUP3 ADD DUP1 SLOAD PUSH2 0x7EC SWAP1 PUSH2 0x1812 JUMP JUMPDEST DUP1 PUSH1 0x1F ADD PUSH1 0x20 DUP1 SWAP2 DIV MUL PUSH1 0x20 ADD PUSH1 0x40 MLOAD SWAP1 DUP2 ADD PUSH1 0x40 MSTORE DUP1 SWAP3 SWAP2 SWAP1 DUP2 DUP2 MSTORE PUSH1 0x20 ADD DUP3 DUP1 SLOAD PUSH2 0x818 SWAP1 PUSH2 0x1812 JUMP JUMPDEST DUP1 ISZERO PUSH2 0x863 JUMPI DUP1 PUSH1 0x1F LT PUSH2 0x83A JUMPI PUSH2 0x100 DUP1 DUP4 SLOAD DIV MUL DUP4 MSTORE SWAP2 PUSH1 0x20 ADD SWAP2 PUSH2 0x863 JUMP JUMPDEST DUP3 ADD SWAP2 SWAP1 PUSH0 MSTORE PUSH1 0x20 PUSH0 KECCAK256 SWAP1 JUMPDEST DUP2 SLOAD DUP2 MSTORE SWAP1 PUSH1 0x1 ADD SWAP1 PUSH1 0x20 ADD DUP1 DUP4 GT PUSH2 0x846 JUMPI DUP3 SWAP1 SUB PUSH1 0x1F AND DUP3 ADD SWAP2 JUMPDEST POP POP POP POP POP DUP2 MSTORE PUSH1 0x20 ADD PUSH1 0xA DUP3 ADD DUP1 SLOAD PUSH2 0x87C SWAP1 PUSH2 0x1812 JUMP JUMPDEST DUP1 PUSH1 0x1F ADD PUSH1 0x20 DUP1 SWAP2 DIV MUL PUSH1 0x20 ADD PUSH1 0x40 MLOAD SWAP1 DUP2 ADD PUSH1 0x40 MSTORE DUP1 SWAP3 SWAP2 SWAP1 DUP2 DUP2 MSTORE PUSH1 0x20 ADD DUP3 DUP1 SLOAD PUSH2 0x8A8 SWAP1 PUSH2 0x1812 JUMP JUMPDEST DUP1 ISZERO PUSH2 0x8F3 JUMPI DUP1 PUSH1 0x1F LT PUSH2 0x8CA JUMPI PUSH2 0x100 DUP1 DUP4 SLOAD DIV MUL DUP4 MSTORE SWAP2 PUSH1 0x20 ADD SWAP2 PUSH2 0x8F3 JUMP JUMPDEST DUP3 ADD SWAP2 SWAP1 PUSH0 MSTORE PUSH1 0x20 PUSH0 KECCAK256 SWAP1 JUMPDEST DUP2 SLOAD DUP2 MSTORE SWAP1 PUSH1 0x1 ADD SWAP1 PUSH1 0x20 ADD DUP1 DUP4 GT PUSH2 0x8D6 JUMPI DUP3 SWAP1 SUB PUSH1 0x1F AND DUP3 ADD SWAP2 JUMPDEST POP POP POP POP POP DUP2 MSTORE PUSH1 0x20 ADD PUSH1 0xB DUP3 ADD DUP1 SLOAD PUSH2 0x90C SWAP1 PUSH2 0x1812 JUMP JUMPDEST DUP1 PUSH1 0x1F ADD PUSH1 0x20 DUP1 SWAP2 DIV MUL PUSH1 0x20 ADD PUSH1 0x40 MLOAD SWAP1 DUP2 ADD PUSH1 0x40 MSTORE DUP1 SWAP3 SWAP2 SWAP1 DUP2 DUP2 MSTORE PUSH1 0x20 ADD DUP3 DUP1 SLOAD PUSH2 0x938 SWAP1 PUSH2 0x1812 JUMP JUMPDEST DUP1 ISZERO PUSH2 0x983 JUMPI DUP1 PUSH1 0x1F LT PUSH2 0x95A JUMPI PUSH2 0x100 DUP1 DUP4 SLOAD DIV MUL DUP4 MSTORE SWAP2 PUSH1 0x20 ADD SWAP2 PUSH2 0x983 JUMP JUMPDEST DUP3 ADD SWAP2 SWAP1 PUSH0 MSTORE PUSH1 0x20 PUSH0 KECCAK256 SWAP1 JUMPDEST DUP2 SLOAD DUP2 MSTORE SWAP1 PUSH1 0x1 ADD SWAP1 PUSH1 0x20 ADD DUP1 DUP4 GT PUSH2 0x966 JUMPI DUP3 SWAP1 SUB PUSH1 0x1F AND DUP3 ADD SWAP2 JUMPDEST POP POP POP POP POP DUP2 MSTORE POP POP DUP2 MSTORE PUSH1 0x20 ADD SWAP1 PUSH1 0x1 ADD SWAP1 PUSH2 0x3D4 JUMP JUMPDEST POP POP POP POP SWAP1 POP SWAP1 JUMP JUMPDEST PUSH1 0x60 PUSH1 0x1 PUSH0 SWAP1 SLOAD SWAP1 PUSH2 0x100 EXP SWAP1 DIV PUSH20 0xFFFFFFFFFFFFFFFFFFFFFFFFFFFFFFFFFFFFFFFF AND PUSH20 0xFFFFFFFFFFFFFFFFFFFFFFFFFFFFFFFFFFFFFFFF AND CALLER PUSH20 0xFFFFFFFFFFFFFFFFFFFFFFFFFFFFFFFFFFFFFFFF AND EQ PUSH2 0xA35 JUMPI PUSH1 0x40 MLOAD PUSH32 0x8C379A000000000000000000000000000000000000000000000000000000000 DUP2 MSTORE PUSH1 0x4 ADD PUSH2 0xA2C SWAP1 PUSH2 0x17C7 JUMP JUMPDEST PUSH1 0x40 MLOAD DUP1 SWAP2 SUB SWAP1 REVERT JUMPDEST PUSH0 DUP1 SLOAD DUP1 PUSH1 0x20 MUL PUSH1 0x20 ADD PUSH1 0x40 MLOAD SWAP1 DUP2 ADD PUSH1 0x40 MSTORE DUP1 SWAP3 SWAP2 SWAP1 DUP2 DUP2 MSTORE PUSH1 0x20 ADD PUSH0 SWAP1 JUMPDEST DUP3 DUP3 LT ISZERO PUSH2 0x101C JUMPI DUP4 DUP3 SWAP1 PUSH0 MSTORE PUSH1 0x20 PUSH0 KECCAK256 SWAP1 PUSH1 0xC MUL ADD PUSH1 0x40 MLOAD DUP1 PUSH2 0x180 ADD PUSH1 0x40 MSTORE SWAP1 DUP2 PUSH0 DUP3 ADD PUSH0 SWAP1 SLOAD SWAP1 PUSH2 0x100 EXP SWAP1 DIV PUSH8 0xFFFFFFFFFFFFFFFF AND PUSH8 0xFFFFFFFFFFFFFFFF AND PUSH8 0xFFFFFFFFFFFFFFFF AND DUP2 MSTORE PUSH1 0x20 ADD PUSH1 0x1 DUP3 ADD DUP1 SLOAD PUSH2 0xAB7 SWAP1 PUSH2 0x1812 JUMP JUMPDEST DUP1 PUSH1 0x1F ADD PUSH1 0x20 DUP1 SWAP2 DIV MUL PUSH1 0x20 ADD PUSH1 0x40 MLOAD SWAP1 DUP2 ADD PUSH1 0x40 MSTORE DUP1 SWAP3 SWAP2 SWAP1 DUP2 DUP2 MSTORE PUSH1 0x20 ADD DUP3 DUP1 SLOAD PUSH2 0xAE3 SWAP1 PUSH2 0x1812 JUMP JUMPDEST DUP1 ISZERO PUSH2 0xB2E JUMPI DUP1 PUSH1 0x1F LT PUSH2 0xB05 JUMPI PUSH2 0x100 DUP1 DUP4 SLOAD DIV MUL DUP4 MSTORE SWAP2 PUSH1 0x20 ADD SWAP2 PUSH2 0xB2E JUMP JUMPDEST DUP3 ADD SWAP2 SWAP1 PUSH0 MSTORE PUSH1 0x20 PUSH0 KECCAK256 SWAP1 JUMPDEST DUP2 SLOAD DUP2 MSTORE SWAP1 PUSH1 0x1 ADD SWAP1 PUSH1 0x20 ADD DUP1 DUP4 GT PUSH2 0xB11 JUMPI DUP3 SWAP1 SUB PUSH1 0x1F AND DUP3 ADD SWAP2 JUMPDEST POP POP POP POP POP DUP2 MSTORE PUSH1 0x20 ADD PUSH1 0x2 DUP3 ADD DUP1 SLOAD PUSH2 0xB47 SWAP1 PUSH2 0x1812 JUMP JUMPDEST DUP1 PUSH1 0x1F ADD PUSH1 0x20 DUP1 SWAP2 DIV MUL PUSH1 0x20 ADD PUSH1 0x40 MLOAD SWAP1 DUP2 ADD PUSH1 0x40 MSTORE DUP1 SWAP3 SWAP2 SWAP1 DUP2 DUP2 MSTORE PUSH1 0x20 ADD DUP3 DUP1 SLOAD PUSH2 0xB73 SWAP1 PUSH2 0x1812 JUMP JUMPDEST DUP1 ISZERO PUSH2 0xBBE JUMPI DUP1 PUSH1 0x1F LT PUSH2 0xB95 JUMPI PUSH2 0x100 DUP1 DUP4 SLOAD DIV MUL DUP4 MSTORE SWAP2 PUSH1 0x20 ADD SWAP2 PUSH2 0xBBE JUMP JUMPDEST DUP3 ADD SWAP2 SWAP1 PUSH0 MSTORE PUSH1 0x20 PUSH0 KECCAK256 SWAP1 JUMPDEST DUP2 SLOAD DUP2 MSTORE SWAP1 PUSH1 0x1 ADD SWAP1 PUSH1 0x20 ADD DUP1 DUP4 GT PUSH2 0xBA1 JUMPI DUP3 SWAP1 SUB PUSH1 0x1F AND DUP3 ADD SWAP2 JUMPDEST POP POP POP POP POP DUP2 MSTORE PUSH1 0x20 ADD PUSH1 0x3 DUP3 ADD DUP1 SLOAD PUSH2 0xBD7 SWAP1 PUSH2 0x1812 JUMP JUMPDEST DUP1 PUSH1 0x1F ADD PUSH1 0x20 DUP1 SWAP2 DIV MUL PUSH1 0x20 ADD PUSH1 0x40 MLOAD SWAP1 DUP2 ADD PUSH1 0x40 MSTORE DUP1 SWAP3 SWAP2 SWAP1 DUP2 DUP2 MSTORE PUSH1 0x20 ADD DUP3 DUP1 SLOAD PUSH2 0xC03 SWAP1 PUSH2 0x1812 JUMP JUMPDEST DUP1 ISZERO PUSH2 0xC4E JUMPI DUP1 PUSH1 0x1F LT PUSH2 0xC25 JUMPI PUSH2 0x100 DUP1 DUP4 SLOAD DIV MUL DUP4 MSTORE SWAP2 PUSH1 0x20 ADD SWAP2 PUSH2 0xC4E JUMP JUMPDEST DUP3 ADD SWAP2 SWAP1 PUSH0 MSTORE PUSH1 0x20 PUSH0 KECCAK256 SWAP1 JUMPDEST DUP2 SLOAD DUP2 MSTORE SWAP1 PUSH1 0x1 ADD SWAP1 PUSH1 0x20 ADD DUP1 DUP4 GT PUSH2 0xC31 JUMPI DUP3 SWAP1 SUB PUSH1 0x1F AND DUP3 ADD SWAP2 JUMPDEST POP POP POP POP POP DUP2 MSTORE PUSH1 0x20 ADD PUSH1 0x4 DUP3 ADD DUP1 SLOAD PUSH2 0xC67 SWAP1 PUSH2 0x1812 JUMP JUMPDEST DUP1 PUSH1 0x1F ADD PUSH1 0x20 DUP1 SWAP2 DIV MUL PUSH1 0x20 ADD PUSH1 0x40 MLOAD SWAP1 DUP2 ADD PUSH1 0x40 MSTORE DUP1 SWAP3 SWAP2 SWAP1 DUP2 DUP2 MSTORE PUSH1 0x20 ADD DUP3 DUP1 SLOAD PUSH2 0xC93 SWAP1 PUSH2 0x1812 JUMP JUMPDEST DUP1 ISZERO PUSH2 0xCDE JUMPI DUP1 PUSH1 0x1F LT PUSH2 0xCB5 JUMPI PUSH2 0x100 DUP1 DUP4 SLOAD DIV MUL DUP4 MSTORE SWAP2 PUSH1 0x20 ADD SWAP2 PUSH2 0xCDE JUMP JUMPDEST DUP3 ADD SWAP2 SWAP1 PUSH0 MSTORE PUSH1 0x20 PUSH0 KECCAK256 SWAP1 JUMPDEST DUP2 SLOAD DUP2 MSTORE SWAP1 PUSH1 0x1 ADD SWAP1 PUSH1 0x20 ADD DUP1 DUP4 GT PUSH2 0xCC1 JUMPI DUP3 SWAP1 SUB PUSH1 0x1F AND DUP3 ADD SWAP2 JUMPDEST POP POP POP POP POP DUP2 MSTORE PUSH1 0x20 ADD PUSH1 0x5 DUP3 ADD DUP1 SLOAD PUSH2 0xCF7 SWAP1 PUSH2 0x1812 JUMP JUMPDEST DUP1 PUSH1 0x1F ADD PUSH1 0x20 DUP1 SWAP2 DIV MUL PUSH1 0x20 ADD PUSH1 0x40 MLOAD SWAP1 DUP2 ADD PUSH1 0x40 MSTORE DUP1 SWAP3 SWAP2 SWAP1 DUP2 DUP2 MSTORE PUSH1 0x20 ADD DUP3 DUP1 SLOAD PUSH2 0xD23 SWAP1 PUSH2 0x1812 JUMP JUMPDEST DUP1 ISZERO PUSH2 0xD6E JUMPI DUP1 PUSH1 0x1F LT PUSH2 0xD45 JUMPI PUSH2 0x100 DUP1 DUP4 SLOAD DIV MUL DUP4 MSTORE SWAP2 PUSH1 0x20 ADD SWAP2 PUSH2 0xD6E JUMP JUMPDEST DUP3 ADD SWAP2 SWAP1 PUSH0 MSTORE PUSH1 0x20 PUSH0 KECCAK256 SWAP1 JUMPDEST DUP2 SLOAD DUP2 MSTORE SWAP1 PUSH1 0x1 ADD SWAP1 PUSH1 0x20 ADD DUP1 DUP4 GT PUSH2 0xD51 JUMPI DUP3 SWAP1 SUB PUSH1 0x1F AND DUP3 ADD SWAP2 JUMPDEST POP POP POP POP POP DUP2 MSTORE PUSH1 0x20 ADD PUSH1 0x6 DUP3 ADD PUSH0 SWAP1 SLOAD SWAP1 PUSH2 0x100 EXP SWAP1 DIV PUSH8 0xFFFFFFFFFFFFFFFF AND PUSH8 0xFFFFFFFFFFFFFFFF AND PUSH8 0xFFFFFFFFFFFFFFFF AND DUP2 MSTORE PUSH1 0x20 ADD PUSH1 0x7 DUP3 ADD DUP1 SLOAD PUSH2 0xDB8 SWAP1 PUSH2 0x1812 JUMP JUMPDEST DUP1 PUSH1 0x1F ADD PUSH1 0x20 DUP1 SWAP2 DIV MUL PUSH1 0x20 ADD PUSH1 0x40 MLOAD SWAP1 DUP2 ADD PUSH1 0x40 MSTORE DUP1 SWAP3 SWAP2 SWAP1 DUP2 DUP2 MSTORE PUSH1 0x20 ADD DUP3 DUP1 SLOAD PUSH2 0xDE4 SWAP1 PUSH2 0x1812 JUMP JUMPDEST DUP1 ISZERO PUSH2 0xE2F JUMPI DUP1 PUSH1 0x1F LT PUSH2 0xE06 JUMPI PUSH2 0x100 DUP1 DUP4 SLOAD DIV MUL DUP4 MSTORE SWAP2 PUSH1 0x20 ADD SWAP2 PUSH2 0xE2F JUMP JUMPDEST DUP3 ADD SWAP2 SWAP1 PUSH0 MSTORE PUSH1 0x20 PUSH0 KECCAK256 SWAP1 JUMPDEST DUP2 SLOAD DUP2 MSTORE SWAP1 PUSH1 0x1 ADD SWAP1 PUSH1 0x20 ADD DUP1 DUP4 GT PUSH2 0xE12 JUMPI DUP3 SWAP1 SUB PUSH1 0x1F AND DUP3 ADD SWAP2 JUMPDEST POP POP POP POP POP DUP2 MSTORE PUSH1 0x20 ADD PUSH1 0x8 DUP3 ADD PUSH0 SWAP1 SLOAD SWAP1 PUSH2 0x100 EXP SWAP1 DIV PUSH4 0xFFFFFFFF AND PUSH4 0xFFFFFFFF AND PUSH4 0xFFFFFFFF AND DUP2 MSTORE PUSH1 0x20 ADD PUSH1 0x9 DUP3 ADD DUP1 SLOAD PUSH2 0xE6D SWAP1 PUSH2 0x1812 JUMP JUMPDEST DUP1 PUSH1 0x1F ADD PUSH1 0x20 DUP1 SWAP2 DIV MUL PUSH1 0x20 ADD PUSH1 0x40 MLOAD SWAP1 DUP2 ADD PUSH1 0x40 MSTORE DUP1 SWAP3 SWAP2 SWAP1 DUP2 DUP2 MSTORE PUSH1 0x20 ADD DUP3 DUP1 SLOAD PUSH2 0xE99 SWAP1 PUSH2 0x1812 JUMP JUMPDEST DUP1 ISZERO PUSH2 0xEE4 JUMPI DUP1 PUSH1 0x1F LT PUSH2 0xEBB JUMPI PUSH2 0x100 DUP1 DUP4 SLOAD DIV MUL DUP4 MSTORE SWAP2 PUSH1 0x20 ADD SWAP2 PUSH2 0xEE4 JUMP JUMPDEST DUP3 ADD SWAP2 SWAP1 PUSH0 MSTORE PUSH1 0x20 PUSH0 KECCAK256 SWAP1 JUMPDEST DUP2 SLOAD DUP2 MSTORE SWAP1 PUSH1 0x1 ADD SWAP1 PUSH1 0x20 ADD DUP1 DUP4 GT PUSH2 0xEC7 JUMPI DUP3 SWAP1 SUB PUSH1 0x1F AND DUP3 ADD SWAP2 JUMPDEST POP POP POP POP POP DUP2 MSTORE PUSH1 0x20 ADD PUSH1 0xA DUP3 ADD DUP1 SLOAD PUSH2 0xEFD SWAP1 PUSH2 0x1812 JUMP JUMPDEST DUP1 PUSH1 0x1F ADD PUSH1 0x20 DUP1 SWAP2 DIV MUL PUSH1 0x20 ADD PUSH1 0x40 MLOAD SWAP1 DUP2 ADD PUSH1 0x40 MSTORE DUP1 SWAP3 SWAP2 SWAP1 DUP2 DUP2 MSTORE PUSH1 0x20 ADD DUP3 DUP1 SLOAD PUSH2 0xF29 SWAP1 PUSH2 0x1812 JUMP JUMPDEST DUP1 ISZERO PUSH2 0xF74 JUMPI DUP1 PUSH1 0x1F LT PUSH2 0xF4B JUMPI PUSH2 0x100 DUP1 DUP4 SLOAD DIV MUL DUP4 MSTORE SWAP2 PUSH1 0x20 ADD SWAP2 PUSH2 0xF74 JUMP JUMPDEST DUP3 ADD SWAP2 SWAP1 PUSH0 MSTORE PUSH1 0x20 PUSH0 KECCAK256 SWAP1 JUMPDEST DUP2 SLOAD DUP2 MSTORE SWAP1 PUSH1 0x1 ADD SWAP1 PUSH1 0x20 ADD DUP1 DUP4 GT PUSH2 0xF57 JUMPI DUP3 SWAP1 SUB PUSH1 0x1F AND DUP3 ADD SWAP2 JUMPDEST POP POP POP POP POP DUP2 MSTORE PUSH1 0x20 ADD PUSH1 0xB DUP3 ADD DUP1 SLOAD PUSH2 0xF8D SWAP1 PUSH2 0x1812 JUMP JUMPDEST DUP1 PUSH1 0x1F ADD PUSH1 0x20 DUP1 SWAP2 DIV MUL PUSH1 0x20 ADD PUSH1 0x40 MLOAD SWAP1 DUP2 ADD PUSH1 0x40 MSTORE DUP1 SWAP3 SWAP2 SWAP1 DUP2 DUP2 MSTORE PUSH1 0x20 ADD DUP3 DUP1 SLOAD PUSH2 0xFB9 SWAP1 PUSH2 0x1812 JUMP JUMPDEST DUP1 ISZERO PUSH2 0x1004 JUMPI DUP1 PUSH1 0x1F LT PUSH2 0xFDB JUMPI PUSH2 0x100 DUP1 DUP4 SLOAD DIV MUL DUP4 MSTORE SWAP2 PUSH1 0x20 ADD SWAP2 PUSH2 0x1004 JUMP JUMPDEST DUP3 ADD SWAP2 SWAP1 PUSH0 MSTORE PUSH1 0x20 PUSH0 KECCAK256 SWAP1 JUMPDEST DUP2 SLOAD DUP2 MSTORE SWAP1 PUSH1 0x1 ADD SWAP1 PUSH1 0x20 ADD DUP1 DUP4 GT PUSH2 0xFE7 JUMPI DUP3 SWAP1 SUB PUSH1 0x1F AND DUP3 ADD SWAP2 JUMPDEST POP POP POP POP POP DUP2 MSTORE POP POP DUP2 MSTORE PUSH1 0x20 ADD SWAP1 PUSH1 0x1 ADD SWAP1 PUSH2 0xA55 JUMP JUMPDEST POP POP POP POP SWAP1 POP SWAP1 JUMP JUMPDEST PUSH0 DUP2 SWAP1 POP SWAP2 SWAP1 POP JUMP JUMPDEST PUSH2 0x1037 DUP2 PUSH2 0x1025 JUMP JUMPDEST DUP3 MSTORE POP POP JUMP JUMPDEST PUSH0 PUSH1 0x20 DUP3 ADD SWAP1 POP PUSH2 0x1050 PUSH0 DUP4 ADD DUP5 PUSH2 0x102E JUMP JUMPDEST SWAP3 SWAP2 POP POP JUMP JUMPDEST PUSH0 PUSH1 0x40 MLOAD SWAP1 POP SWAP1 JUMP JUMPDEST PUSH0 PUSH0 REVERT JUMPDEST PUSH0 PUSH0 REVERT JUMPDEST PUSH0 PUSH0 REVERT JUMPDEST PUSH0 PUSH1 0x1F NOT PUSH1 0x1F DUP4 ADD AND SWAP1 POP SWAP2 SWAP1 POP JUMP JUMPDEST PUSH32 0x4E487B7100000000000000000000000000000000000000000000000000000000 PUSH0 MSTORE PUSH1 0x41 PUSH1 0x4 MSTORE PUSH1 0x24 PUSH0 REVERT JUMPDEST PUSH2 0x10B1 DUP3 PUSH2 0x106B JUMP JUMPDEST DUP2 ADD DUP2 DUP2 LT PUSH8 0xFFFFFFFFFFFFFFFF DUP3 GT OR ISZERO PUSH2 0x10D0 JUMPI PUSH2 0x10CF PUSH2 0x107B JUMP JUMPDEST JUMPDEST DUP1 PUSH1 0x40 MSTORE POP POP POP JUMP JUMPDEST PUSH0 PUSH2 0x10E2 PUSH2 0x1056 JUMP JUMPDEST SWAP1 POP PUSH2 0x10EE DUP3 DUP3 PUSH2 0x10A8 JUMP JUMPDEST SWAP2 SWAP1 POP JUMP JUMPDEST PUSH0 PUSH0 REVERT JUMPDEST PUSH0 PUSH8 0xFFFFFFFFFFFFFFFF DUP3 AND SWAP1 POP SWAP2 SWAP1 POP JUMP JUMPDEST PUSH2 0x1113 DUP2 PUSH2 0x10F7 JUMP JUMPDEST DUP2 EQ PUSH2 0x111D JUMPI PUSH0 PUSH0 REVERT JUMPDEST POP JUMP JUMPDEST PUSH0 DUP2 CALLDATALOAD SWAP1 POP PUSH2 0x112E DUP2 PUSH2 0x110A JUMP JUMPDEST SWAP3 SWAP2 POP POP JUMP JUMPDEST PUSH0 PUSH0 REVERT JUMPDEST PUSH0 PUSH0 REVERT JUMPDEST PUSH0 PUSH8 0xFFFFFFFFFFFFFFFF DUP3 GT ISZERO PUSH2 0x1156 JUMPI PUSH2 0x1155 PUSH2 0x107B JUMP JUMPDEST JUMPDEST PUSH2 0x115F DUP3 PUSH2 0x106B JUMP JUMPDEST SWAP1 POP PUSH1 0x20 DUP2 ADD SWAP1 POP SWAP2 SWAP1 POP JUMP JUMPDEST DUP3 DUP2 DUP4 CALLDATACOPY PUSH0 DUP4 DUP4 ADD MSTORE POP POP POP JUMP JUMPDEST PUSH0 PUSH2 0x118C PUSH2 0x1187 DUP5 PUSH2 0x113C JUMP JUMPDEST PUSH2 0x10D9 JUMP JUMPDEST SWAP1 POP DUP3 DUP2 MSTORE PUSH1 0x20 DUP2 ADD DUP5 DUP5 DUP5 ADD GT ISZERO PUSH2 0x11A8 JUMPI PUSH2 0x11A7 PUSH2 0x1138 JUMP JUMPDEST JUMPDEST PUSH2 0x11B3 DUP5 DUP3 DUP6 PUSH2 0x116C JUMP JUMPDEST POP SWAP4 SWAP3 POP POP POP JUMP JUMPDEST PUSH0 DUP3 PUSH1 0x1F DUP4 ADD SLT PUSH2 0x11CF JUMPI PUSH2 0x11CE PUSH2 0x1134 JUMP JUMPDEST JUMPDEST DUP2 CALLDATALOAD PUSH2 0x11DF DUP5 DUP3 PUSH1 0x20 DUP7 ADD PUSH2 0x117A JUMP JUMPDEST SWAP2 POP POP SWAP3 SWAP2 POP POP JUMP JUMPDEST PUSH0 PUSH4 0xFFFFFFFF DUP3 AND SWAP1 POP SWAP2 SWAP1 POP JUMP JUMPDEST PUSH2 0x1200 DUP2 PUSH2 0x11E8 JUMP JUMPDEST DUP2 EQ PUSH2 0x120A JUMPI PUSH0 PUSH0 REVERT JUMPDEST POP JUMP JUMPDEST PUSH0 DUP2 CALLDATALOAD SWAP1 POP PUSH2 0x121B DUP2 PUSH2 0x11F7 JUMP JUMPDEST SWAP3 SWAP2 POP POP JUMP JUMPDEST PUSH0 PUSH2 0x180 DUP3 DUP5 SUB SLT ISZERO PUSH2 0x1237 JUMPI PUSH2 0x1236 PUSH2 0x1067 JUMP JUMPDEST JUMPDEST PUSH2 0x1242 PUSH2 0x180 PUSH2 0x10D9 JUMP JUMPDEST SWAP1 POP PUSH0 PUSH2 0x1251 DUP5 DUP3 DUP6 ADD PUSH2 0x1120 JUMP JUMPDEST PUSH0 DUP4 ADD MSTORE POP PUSH1 0x20 DUP3 ADD CALLDATALOAD PUSH8 0xFFFFFFFFFFFFFFFF DUP2 GT ISZERO PUSH2 0x1274 JUMPI PUSH2 0x1273 PUSH2 0x10F3 JUMP JUMPDEST JUMPDEST PUSH2 0x1280 DUP5 DUP3 DUP6 ADD PUSH2 0x11BB JUMP JUMPDEST PUSH1 0x20 DUP4 ADD MSTORE POP PUSH1 0x40 DUP3 ADD CALLDATALOAD PUSH8 0xFFFFFFFFFFFFFFFF DUP2 GT ISZERO PUSH2 0x12A4 JUMPI PUSH2 0x12A3 PUSH2 0x10F3 JUMP JUMPDEST JUMPDEST PUSH2 0x12B0 DUP5 DUP3 DUP6 ADD PUSH2 0x11BB JUMP JUMPDEST PUSH1 0x40 DUP4 ADD MSTORE POP PUSH1 0x60 DUP3 ADD CALLDATALOAD PUSH8 0xFFFFFFFFFFFFFFFF DUP2 GT ISZERO PUSH2 0x12D4 JUMPI PUSH2 0x12D3 PUSH2 0x10F3 JUMP JUMPDEST JUMPDEST PUSH2 0x12E0 DUP5 DUP3 DUP6 ADD PUSH2 0x11BB JUMP JUMPDEST PUSH1 0x60 DUP4 ADD MSTORE POP PUSH1 0x80 DUP3 ADD CALLDATALOAD PUSH8 0xFFFFFFFFFFFFFFFF DUP2 GT ISZERO PUSH2 0x1304 JUMPI PUSH2 0x1303 PUSH2 0x10F3 JUMP JUMPDEST JUMPDEST PUSH2 0x1310 DUP5 DUP3 DUP6 ADD PUSH2 0x11BB JUMP JUMPDEST PUSH1 0x80 DUP4 ADD MSTORE POP PUSH1 0xA0 DUP3 ADD CALLDATALOAD PUSH8 0xFFFFFFFFFFFFFFFF DUP2 GT ISZERO PUSH2 0x1334 JUMPI PUSH2 0x1333 PUSH2 0x10F3 JUMP JUMPDEST JUMPDEST PUSH2 0x1340 DUP5 DUP3 DUP6 ADD PUSH2 0x11BB JUMP JUMPDEST PUSH1 0xA0 DUP4 ADD MSTORE POP PUSH1 0xC0 PUSH2 0x1354 DUP5 DUP3 DUP6 ADD PUSH2 0x1120 JUMP JUMPDEST PUSH1 0xC0 DUP4 ADD MSTORE POP PUSH1 0xE0 DUP3 ADD CALLDATALOAD PUSH8 0xFFFFFFFFFFFFFFFF DUP2 GT ISZERO PUSH2 0x1378 JUMPI PUSH2 0x1377 PUSH2 0x10F3 JUMP JUMPDEST JUMPDEST PUSH2 0x1384 DUP5 DUP3 DUP6 ADD PUSH2 0x11BB JUMP JUMPDEST PUSH1 0xE0 DUP4 ADD MSTORE POP PUSH2 0x100 PUSH2 0x1399 DUP5 DUP3 DUP6 ADD PUSH2 0x120D JUMP JUMPDEST PUSH2 0x100 DUP4 ADD MSTORE POP PUSH2 0x120 DUP3 ADD CALLDATALOAD PUSH8 0xFFFFFFFFFFFFFFFF DUP2 GT ISZERO PUSH2 0x13BF JUMPI PUSH2 0x13BE PUSH2 0x10F3 JUMP JUMPDEST JUMPDEST PUSH2 0x13CB DUP5 DUP3 DUP6 ADD PUSH2 0x11BB JUMP JUMPDEST PUSH2 0x120 DUP4 ADD MSTORE POP PUSH2 0x140 DUP3 ADD CALLDATALOAD PUSH8 0xFFFFFFFFFFFFFFFF DUP2 GT ISZERO PUSH2 0x13F1 JUMPI PUSH2 0x13F0 PUSH2 0x10F3 JUMP JUMPDEST JUMPDEST PUSH2 0x13FD DUP5 DUP3 DUP6 ADD PUSH2 0x11BB JUMP JUMPDEST PUSH2 0x140 DUP4 ADD MSTORE POP PUSH2 0x160 DUP3 ADD CALLDATALOAD PUSH8 0xFFFFFFFFFFFFFFFF DUP2 GT ISZERO PUSH2 0x1423 JUMPI PUSH2 0x1422 PUSH2 0x10F3 JUMP JUMPDEST JUMPDEST PUSH2 0x142F DUP5 DUP3 DUP6 ADD PUSH2 0x11BB JUMP JUMPDEST PUSH2 0x160 DUP4 ADD MSTORE POP SWAP3 SWAP2 POP POP JUMP JUMPDEST PUSH0 PUSH1 0x20 DUP3 DUP5 SUB SLT ISZERO PUSH2 0x1451 JUMPI PUSH2 0x1450 PUSH2 0x105F JUMP JUMPDEST JUMPDEST PUSH0 DUP3 ADD CALLDATALOAD PUSH8 0xFFFFFFFFFFFFFFFF DUP2 GT ISZERO PUSH2 0x146E JUMPI PUSH2 0x146D PUSH2 0x1063 JUMP JUMPDEST JUMPDEST PUSH2 0x147A DUP5 DUP3 DUP6 ADD PUSH2 0x1221 JUMP JUMPDEST SWAP2 POP POP SWAP3 SWAP2 POP POP JUMP JUMPDEST PUSH0 PUSH20 0xFFFFFFFFFFFFFFFFFFFFFFFFFFFFFFFFFFFFFFFF DUP3 AND SWAP1 POP SWAP2 SWAP1 POP JUMP JUMPDEST PUSH0 PUSH2 0x14AC DUP3 PUSH2 0x1483 JUMP JUMPDEST SWAP1 POP SWAP2 SWAP1 POP JUMP JUMPDEST PUSH2 0x14BC DUP2 PUSH2 0x14A2 JUMP JUMPDEST DUP3 MSTORE POP POP JUMP JUMPDEST PUSH0 PUSH1 0x20 DUP3 ADD SWAP1 POP PUSH2 0x14D5 PUSH0 DUP4 ADD DUP5 PUSH2 0x14B3 JUMP JUMPDEST SWAP3 SWAP2 POP POP JUMP JUMPDEST PUSH0 DUP2 MLOAD SWAP1 POP SWAP2 SWAP1 POP JUMP JUMPDEST PUSH0 DUP3 DUP3 MSTORE PUSH1 0x20 DUP3 ADD SWAP1 POP SWAP3 SWAP2 POP POP JUMP JUMPDEST PUSH0 DUP2 SWAP1 POP PUSH1 0x20 DUP3 ADD SWAP1 POP SWAP2 SWAP1 POP JUMP JUMPDEST PUSH2 0x150D DUP2 PUSH2 0x10F7 JUMP JUMPDEST DUP3 MSTORE POP POP JUMP JUMPDEST PUSH0 DUP2 MLOAD SWAP1 POP SWAP2 SWAP1 POP JUMP JUMPDEST PUSH0 DUP3 DUP3 MSTORE PUSH1 0x20 DUP3 ADD SWAP1 POP SWAP3 SWAP2 POP POP JUMP JUMPDEST DUP3 DUP2 DUP4 MCOPY PUSH0 DUP4 DUP4 ADD MSTORE POP POP POP JUMP JUMPDEST PUSH0 PUSH2 0x1545 DUP3 PUSH2 0x1513 JUMP JUMPDEST PUSH2 0x154F DUP2 DUP6 PUSH2 0x151D JUMP JUMPDEST SWAP4 POP PUSH2 0x155F DUP2 DUP6 PUSH1 0x20 DUP7 ADD PUSH2 0x152D JUMP JUMPDEST PUSH2 0x1568 DUP2 PUSH2 0x106B JUMP JUMPDEST DUP5 ADD SWAP2 POP POP SWAP3 SWAP2 POP POP JUMP JUMPDEST PUSH2 0x157C DUP2 PUSH2 0x11E8 JUMP JUMPDEST DUP3 MSTORE POP POP JUMP JUMPDEST PUSH0 PUSH2 0x180 DUP4 ADD PUSH0 DUP4 ADD MLOAD PUSH2 0x1598 PUSH0 DUP7 ADD DUP3 PUSH2 0x1504 JUMP JUMPDEST POP PUSH1 0x20 DUP4 ADD MLOAD DUP5 DUP3 SUB PUSH1 0x20 DUP7 ADD MSTORE PUSH2 0x15B0 DUP3 DUP3 PUSH2 0x153B JUMP JUMPDEST SWAP2 POP POP PUSH1 0x40 DUP4 ADD MLOAD DUP5 DUP3 SUB PUSH1 0x40 DUP7 ADD MSTORE PUSH2 0x15CA DUP3 DUP3 PUSH2 0x153B JUMP JUMPDEST SWAP2 POP POP PUSH1 0x60 DUP4 ADD MLOAD DUP5 DUP3 SUB PUSH1 0x60 DUP7 ADD MSTORE PUSH2 0x15E4 DUP3 DUP3 PUSH2 0x153B JUMP JUMPDEST SWAP2 POP POP PUSH1 0x80 DUP4 ADD MLOAD DUP5 DUP3 SUB PUSH1 0x80 DUP7 ADD MSTORE PUSH2 0x15FE DUP3 DUP3 PUSH2 0x153B JUMP JUMPDEST SWAP2 POP POP PUSH1 0xA0 DUP4 ADD MLOAD DUP5 DUP3 SUB PUSH1 0xA0 DUP7 ADD MSTORE PUSH2 0x1618 DUP3 DUP3 PUSH2 0x153B JUMP JUMPDEST SWAP2 POP POP PUSH1 0xC0 DUP4 ADD MLOAD PUSH2 0x162D PUSH1 0xC0 DUP7 ADD DUP3 PUSH2 0x1504 JUMP JUMPDEST POP PUSH1 0xE0 DUP4 ADD MLOAD DUP5 DUP3 SUB PUSH1 0xE0 DUP7 ADD MSTORE PUSH2 0x1645 DUP3 DUP3 PUSH2 0x153B JUMP JUMPDEST SWAP2 POP POP PUSH2 0x100 DUP4 ADD MLOAD PUSH2 0x165C PUSH2 0x100 DUP7 ADD DUP3 PUSH2 0x1573 JUMP JUMPDEST POP PUSH2 0x120 DUP4 ADD MLOAD DUP5 DUP3 SUB PUSH2 0x120 DUP7 ADD MSTORE PUSH2 0x1676 DUP3 DUP3 PUSH2 0x153B JUMP JUMPDEST SWAP2 POP POP PUSH2 0x140 DUP4 ADD MLOAD DUP5 DUP3 SUB PUSH2 0x140 DUP7 ADD MSTORE PUSH2 0x1692 DUP3 DUP3 PUSH2 0x153B JUMP JUMPDEST SWAP2 POP POP PUSH2 0x160 DUP4 ADD MLOAD DUP5 DUP3 SUB PUSH2 0x160 DUP7 ADD MSTORE PUSH2 0x16AE DUP3 DUP3 PUSH2 0x153B JUMP JUMPDEST SWAP2 POP POP DUP1 SWAP2 POP POP SWAP3 SWAP2 POP POP JUMP JUMPDEST PUSH0 PUSH2 0x16C6 DUP4 DUP4 PUSH2 0x1582 JUMP JUMPDEST SWAP1 POP SWAP3 SWAP2 POP POP JUMP JUMPDEST PUSH0 PUSH1 0x20 DUP3 ADD SWAP1 POP SWAP2 SWAP1 POP JUMP JUMPDEST PUSH0 PUSH2 0x16E4 DUP3 PUSH2 0x14DB JUMP JUMPDEST PUSH2 0x16EE DUP2 DUP6 PUSH2 0x14E5 JUMP JUMPDEST SWAP4 POP DUP4 PUSH1 0x20 DUP3 MUL DUP6 ADD PUSH2 0x1700 DUP6 PUSH2 0x14F5 JUMP JUMPDEST DUP1 PUSH0 JUMPDEST DUP6 DUP2 LT ISZERO PUSH2 0x173B JUMPI DUP5 DUP5 SUB DUP10 MSTORE DUP2 MLOAD PUSH2 0x171C DUP6 DUP3 PUSH2 0x16BB JUMP JUMPDEST SWAP5 POP PUSH2 0x1727 DUP4 PUSH2 0x16CE JUMP JUMPDEST SWAP3 POP PUSH1 0x20 DUP11 ADD SWAP10 POP POP PUSH1 0x1 DUP2 ADD SWAP1 POP PUSH2 0x1703 JUMP JUMPDEST POP DUP3 SWAP8 POP DUP8 SWAP6 POP POP POP POP POP POP SWAP3 SWAP2 POP POP JUMP JUMPDEST PUSH0 PUSH1 0x20 DUP3 ADD SWAP1 POP DUP2 DUP2 SUB PUSH0 DUP4 ADD MSTORE PUSH2 0x1765 DUP2 DUP5 PUSH2 0x16DA JUMP JUMPDEST SWAP1 POP SWAP3 SWAP2 POP POP JUMP JUMPDEST PUSH0 DUP3 DUP3 MSTORE PUSH1 0x20 DUP3 ADD SWAP1 POP SWAP3 SWAP2 POP POP JUMP JUMPDEST PUSH32 0x4E6F7420666163746F7279000000000000000000000000000000000000000000 PUSH0 DUP3 ADD MSTORE POP JUMP JUMPDEST PUSH0 PUSH2 0x17B1 PUSH1 0xB DUP4 PUSH2 0x176D JUMP JUMPDEST SWAP2 POP PUSH2 0x17BC DUP3 PUSH2 0x177D JUMP JUMPDEST PUSH1 0x20 DUP3 ADD SWAP1 POP SWAP2 SWAP1 POP JUMP JUMPDEST PUSH0 PUSH1 0x20 DUP3 ADD SWAP1 POP DUP2 DUP2 SUB PUSH0 DUP4 ADD MSTORE PUSH2 0x17DE DUP2 PUSH2 0x17A5 JUMP JUMPDEST SWAP1 POP SWAP2 SWAP1 POP JUMP JUMPDEST PUSH32 0x4E487B7100000000000000000000000000000000000000000000000000000000 PUSH0 MSTORE PUSH1 0x22 PUSH1 0x4 MSTORE PUSH1 0x24 PUSH0 REVERT JUMPDEST PUSH0 PUSH1 0x2 DUP3 DIV SWAP1 POP PUSH1 0x1 DUP3 AND DUP1 PUSH2 0x1829 JUMPI PUSH1 0x7F DUP3 AND SWAP2 POP JUMPDEST PUSH1 0x20 DUP3 LT DUP2 SUB PUSH2 0x183C JUMPI PUSH2 0x183B PUSH2 0x17E5 JUMP JUMPDEST JUMPDEST POP SWAP2 SWAP1 POP JUMP JUMPDEST PUSH0 DUP2 SWAP1 POP DUP2 PUSH0 MSTORE PUSH1 0x20 PUSH0 KECCAK256 SWAP1 POP SWAP2 SWAP1 POP JUMP JUMPDEST PUSH0 PUSH1 0x20 PUSH1 0x1F DUP4 ADD DIV SWAP1 POP SWAP2 SWAP1 POP JUMP JUMPDEST PUSH0 DUP3 DUP3 SHL SWAP1 POP SWAP3 SWAP2 POP POP JUMP JUMPDEST PUSH0 PUSH1 0x8 DUP4 MUL PUSH2 0x189E PUSH32 0xFFFFFFFFFFFFFFFFFFFFFFFFFFFFFFFFFFFFFFFFFFFFFFFFFFFFFFFFFFFFFFFF DUP3 PUSH2 0x1863 JUMP JUMPDEST PUSH2 0x18A8 DUP7 DUP4 PUSH2 0x1863 JUMP JUMPDEST SWAP6 POP DUP1 NOT DUP5 AND SWAP4 POP DUP1 DUP7 AND DUP5 OR SWAP3 POP POP POP SWAP4 SWAP3 POP POP POP JUMP JUMPDEST PUSH0 DUP2 SWAP1 POP SWAP2 SWAP1 POP JUMP JUMPDEST PUSH0 PUSH2 0x18E3 PUSH2 0x18DE PUSH2 0x18D9 DUP5 PUSH2 0x1025 JUMP JUMPDEST PUSH2 0x18C0 JUMP JUMPDEST PUSH2 0x1025 JUMP JUMPDEST SWAP1 POP SWAP2 SWAP1 POP JUMP JUMPDEST PUSH0 DUP2 SWAP1 POP SWAP2 SWAP1 POP JUMP JUMPDEST PUSH2 0x18FC DUP4 PUSH2 0x18C9 JUMP JUMPDEST PUSH2 0x1910 PUSH2 0x1908 DUP3 PUSH2 0x18EA JUMP JUMPDEST DUP5 DUP5 SLOAD PUSH2 0x186F JUMP JUMPDEST DUP3 SSTORE POP POP POP POP JUMP JUMPDEST PUSH0 PUSH0 SWAP1 POP SWAP1 JUMP JUMPDEST PUSH2 0x1927 PUSH2 0x1918 JUMP JUMPDEST PUSH2 0x1932 DUP2 DUP5 DUP5 PUSH2 0x18F3 JUMP JUMPDEST POP POP POP JUMP JUMPDEST JUMPDEST DUP2 DUP2 LT ISZERO PUSH2 0x1955 JUMPI PUSH2 0x194A PUSH0 DUP3 PUSH2 0x191F JUMP JUMPDEST PUSH1 0x1 DUP2 ADD SWAP1 POP PUSH2 0x1938 JUMP JUMPDEST POP POP JUMP JUMPDEST PUSH1 0x1F DUP3 GT ISZERO PUSH2 0x199A JUMPI PUSH2 0x196B DUP2 PUSH2 0x1842 JUMP JUMPDEST PUSH2 0x1974 DUP5 PUSH2 0x1854 JUMP JUMPDEST DUP2 ADD PUSH1 0x20 DUP6 LT ISZERO PUSH2 0x1983 JUMPI DUP2 SWAP1 POP JUMPDEST PUSH2 0x1997 PUSH2 0x198F DUP6 PUSH2 0x1854 JUMP JUMPDEST DUP4 ADD DUP3 PUSH2 0x1937 JUMP JUMPDEST POP POP JUMPDEST POP POP POP JUMP JUMPDEST PUSH0 DUP3 DUP3 SHR SWAP1 POP SWAP3 SWAP2 POP POP JUMP JUMPDEST PUSH0 PUSH2 0x19BA PUSH0 NOT DUP5 PUSH1 0x8 MUL PUSH2 0x199F JUMP JUMPDEST NOT DUP1 DUP4 AND SWAP2 POP POP SWAP3 SWAP2 POP POP JUMP JUMPDEST PUSH0 PUSH2 0x19D2 DUP4 DUP4 PUSH2 0x19AB JUMP JUMPDEST SWAP2 POP DUP3 PUSH1 0x2 MUL DUP3 OR SWAP1 POP SWAP3 SWAP2 POP POP JUMP JUMPDEST PUSH2 0x19EB DUP3 PUSH2 0x1513 JUMP JUMPDEST PUSH8 0xFFFFFFFFFFFFFFFF DUP2 GT ISZERO PUSH2 0x1A04 JUMPI PUSH2 0x1A03 PUSH2 0x107B JUMP JUMPDEST JUMPDEST PUSH2 0x1A0E DUP3 SLOAD PUSH2 0x1812 JUMP JUMPDEST PUSH2 0x1A19 DUP3 DUP3 DUP6 PUSH2 0x1959 JUMP JUMPDEST PUSH0 PUSH1 0x20 SWAP1 POP PUSH1 0x1F DUP4 GT PUSH1 0x1 DUP2 EQ PUSH2 0x1A4A JUMPI PUSH0 DUP5 ISZERO PUSH2 0x1A38 JUMPI DUP3 DUP8 ADD MLOAD SWAP1 POP JUMPDEST PUSH2 0x1A42 DUP6 DUP3 PUSH2 0x19C7 JUMP JUMPDEST DUP7 SSTORE POP PUSH2 0x1AA9 JUMP JUMPDEST PUSH1 0x1F NOT DUP5 AND PUSH2 0x1A58 DUP7 PUSH2 0x1842 JUMP JUMPDEST PUSH0 JUMPDEST DUP3 DUP2 LT ISZERO PUSH2 0x1A7F JUMPI DUP5 DUP10 ADD MLOAD DUP3 SSTORE PUSH1 0x1 DUP3 ADD SWAP2 POP PUSH1 0x20 DUP6 ADD SWAP5 POP PUSH1 0x20 DUP2 ADD SWAP1 POP PUSH2 0x1A5A JUMP JUMPDEST DUP7 DUP4 LT ISZERO PUSH2 0x1A9C JUMPI DUP5 DUP10 ADD MLOAD PUSH2 0x1A98 PUSH1 0x1F DUP10 AND DUP3 PUSH2 0x19AB JUMP JUMPDEST DUP4 SSTORE POP JUMPDEST PUSH1 0x1 PUSH1 0x2 DUP9 MUL ADD DUP9 SSTORE POP POP POP JUMPDEST POP POP POP POP POP POP JUMP INVALID LOG2 PUSH5 0x6970667358 0x22 SLT KECCAK256 DELEGATECALL 0xDF CALLF 0xBE84 PUSH15 0x2CA9588D0FBA5E7BC76478565A8945 PUSH21 0x830B50EBF9E965BC941B64736F6C634300081E0033 LOG2 PUSH5 0x6970667358 0x22 SLT KECCAK256 INVALID SIGNEXTEND COINBASE 0x2C ADDRESS CALLDATALOAD POP 0xA7 LOG4 ADDMOD PUSH12 0xA474185111BCE381EB6E9FC7 SWAP8 0xB1 PUSH14 0x53201F11187564736F6C63430008 0x1E STOP CALLER "
		},
		"gasEstimates": {
			"creation": {
				"codeDepositCost": "3934400",
				"executionCost": "4477",
				"totalCost": "3938877"
			},
			"external": {
				"createCandle(string,string,(uint64,string,string,string,string,string,uint64,string,uint32,string,string,string))": "infinite",
				"getAllCandles(string,string,uint64)": "infinite",
				"getAllRecords(string,string,uint64,uint64,uint256)": "infinite",
				"getStep(uint8)": "1930",
				"getTimeKey(uint8,uint64)": "infinite",
				"initCandle(string,string,uint256)": "infinite",
				"parseInterval(string)": "infinite",
				"storages(bytes32,uint8,uint64)": "3300"
			},
			"internal": {
				"computeTimeKeys(enum Interval,uint64,uint64)": "infinite"
			}
		},
		"methodIdentifiers": {
			"createCandle(string,string,(uint64,string,string,string,string,string,uint64,string,uint32,string,string,string))": "53857f9f",
			"getAllCandles(string,string,uint64)": "38993f6b",
			"getAllRecords(string,string,uint64,uint64,uint256)": "6fc78784",
			"getStep(uint8)": "7f93ff24",
			"getTimeKey(uint8,uint64)": "8d412ad2",
			"initCandle(string,string,uint256)": "5e1dccd1",
			"parseInterval(string)": "93faa992",
			"storages(bytes32,uint8,uint64)": "5b3cb9d4"
		}
	},
	"abi": [
		{
			"anonymous": false,
			"inputs": [
				{
					"indexed": false,
					"internalType": "string",
					"name": "symbol",
					"type": "string"
				},
				{
					"indexed": false,
					"internalType": "string",
					"name": "interval",
					"type": "string"
				},
				{
					"indexed": false,
					"internalType": "uint64",
					"name": "timeKey",
					"type": "uint64"
				},
				{
					"indexed": false,
					"internalType": "address",
					"name": "storageAddress",
					"type": "address"
				}
			],
			"name": "ShardCreated",
			"type": "event"
		},
		{
			"inputs": [
				{
					"internalType": "string",
					"name": "_symbol",
					"type": "string"
				},
				{
					"internalType": "string",
					"name": "_interval",
					"type": "string"
				},
				{
					"components": [
						{
							"internalType": "uint64",
							"name": "openTime",
							"type": "uint64"
						},
						{
							"internalType": "string",
							"name": "openPrice",
							"type": "string"
						},
						{
							"internalType": "string",
							"name": "highPrice",
							"type": "string"
						},
						{
							"internalType": "string",
							"name": "lowPrice",
							"type": "string"
						},
						{
							"internalType": "string",
							"name": "closePrice",
							"type": "string"
						},
						{
							"internalType": "string",
							"name": "volume",
							"type": "string"
						},
						{
							"internalType": "uint64",
							"name": "closeTime",
							"type": "uint64"
						},
						{
							"internalType": "string",
							"name": "quoteAssetVolume",
							"type": "string"
						},
						{
							"internalType": "uint32",
							"name": "numberOfTrades",
							"type": "uint32"
						},
						{
							"internalType": "string",
							"name": "takerBuyBaseVolume",
							"type": "string"
						},
						{
							"internalType": "string",
							"name": "takerBuyQuoteVolume",
							"type": "string"
						},
						{
							"internalType": "string",
							"name": "unused",
							"type": "string"
						}
					],
					"internalType": "struct CandleRecord",
					"name": "_candleRecord",
					"type": "tuple"
				}
			],
			"name": "createCandle",
			"outputs": [],
			"stateMutability": "nonpayable",
			"type": "function"
		},
		{
			"inputs": [
				{
					"internalType": "string",
					"name": "_symbol",
					"type": "string"
				},
				{
					"internalType": "string",
					"name": "_interval",
					"type": "string"
				},
				{
					"internalType": "uint64",
					"name": "_timekey",
					"type": "uint64"
				}
			],
			"name": "getAllCandles",
			"outputs": [
				{
					"components": [
						{
							"internalType": "uint64",
							"name": "openTime",
							"type": "uint64"
						},
						{
							"internalType": "string",
							"name": "openPrice",
							"type": "string"
						},
						{
							"internalType": "string",
							"name": "highPrice",
							"type": "string"
						},
						{
							"internalType": "string",
							"name": "lowPrice",
							"type": "string"
						},
						{
							"internalType": "string",
							"name": "closePrice",
							"type": "string"
						},
						{
							"internalType": "string",
							"name": "volume",
							"type": "string"
						},
						{
							"internalType": "uint64",
							"name": "closeTime",
							"type": "uint64"
						},
						{
							"internalType": "string",
							"name": "quoteAssetVolume",
							"type": "string"
						},
						{
							"internalType": "uint32",
							"name": "numberOfTrades",
							"type": "uint32"
						},
						{
							"internalType": "string",
							"name": "takerBuyBaseVolume",
							"type": "string"
						},
						{
							"internalType": "string",
							"name": "takerBuyQuoteVolume",
							"type": "string"
						},
						{
							"internalType": "string",
							"name": "unused",
							"type": "string"
						}
					],
					"internalType": "struct CandleRecord[]",
					"name": "",
					"type": "tuple[]"
				}
			],
			"stateMutability": "view",
			"type": "function"
		},
		{
			"inputs": [
				{
					"internalType": "string",
					"name": "_symbol",
					"type": "string"
				},
				{
					"internalType": "string",
					"name": "_interval",
					"type": "string"
				},
				{
					"internalType": "uint64",
					"name": "startTime",
					"type": "uint64"
				},
				{
					"internalType": "uint64",
					"name": "endTime",
					"type": "uint64"
				},
				{
					"internalType": "uint256",
					"name": "limit",
					"type": "uint256"
				}
			],
			"name": "getAllRecords",
			"outputs": [
				{
					"components": [
						{
							"internalType": "uint64",
							"name": "openTime",
							"type": "uint64"
						},
						{
							"internalType": "string",
							"name": "openPrice",
							"type": "string"
						},
						{
							"internalType": "string",
							"name": "highPrice",
							"type": "string"
						},
						{
							"internalType": "string",
							"name": "lowPrice",
							"type": "string"
						},
						{
							"internalType": "string",
							"name": "closePrice",
							"type": "string"
						},
						{
							"internalType": "string",
							"name": "volume",
							"type": "string"
						},
						{
							"internalType": "uint64",
							"name": "closeTime",
							"type": "uint64"
						},
						{
							"internalType": "string",
							"name": "quoteAssetVolume",
							"type": "string"
						},
						{
							"internalType": "uint32",
							"name": "numberOfTrades",
							"type": "uint32"
						},
						{
							"internalType": "string",
							"name": "takerBuyBaseVolume",
							"type": "string"
						},
						{
							"internalType": "string",
							"name": "takerBuyQuoteVolume",
							"type": "string"
						},
						{
							"internalType": "string",
							"name": "unused",
							"type": "string"
						}
					],
					"internalType": "struct CandleRecord[]",
					"name": "result",
					"type": "tuple[]"
				}
			],
			"stateMutability": "view",
			"type": "function"
		},
		{
			"inputs": [
				{
					"internalType": "enum Interval",
					"name": "interval",
					"type": "uint8"
				}
			],
			"name": "getStep",
			"outputs": [
				{
					"internalType": "uint64",
					"name": "",
					"type": "uint64"
				}
			],
			"stateMutability": "pure",
			"type": "function"
		},
		{
			"inputs": [
				{
					"internalType": "enum Interval",
					"name": "interval",
					"type": "uint8"
				},
				{
					"internalType": "uint64",
					"name": "timestamp",
					"type": "uint64"
				}
			],
			"name": "getTimeKey",
			"outputs": [
				{
					"internalType": "uint64",
					"name": "",
					"type": "uint64"
				}
			],
			"stateMutability": "pure",
			"type": "function"
		},
		{
			"inputs": [
				{
					"internalType": "string",
					"name": "_symbol",
					"type": "string"
				},
				{
					"internalType": "string",
					"name": "_interval",
					"type": "string"
				},
				{
					"internalType": "uint256",
					"name": "limit",
					"type": "uint256"
				}
			],
			"name": "initCandle",
			"outputs": [
				{
					"components": [
						{
							"internalType": "uint64",
							"name": "openTime",
							"type": "uint64"
						},
						{
							"internalType": "string",
							"name": "openPrice",
							"type": "string"
						},
						{
							"internalType": "string",
							"name": "highPrice",
							"type": "string"
						},
						{
							"internalType": "string",
							"name": "lowPrice",
							"type": "string"
						},
						{
							"internalType": "string",
							"name": "closePrice",
							"type": "string"
						},
						{
							"internalType": "string",
							"name": "volume",
							"type": "string"
						},
						{
							"internalType": "uint64",
							"name": "closeTime",
							"type": "uint64"
						},
						{
							"internalType": "string",
							"name": "quoteAssetVolume",
							"type": "string"
						},
						{
							"internalType": "uint32",
							"name": "numberOfTrades",
							"type": "uint32"
						},
						{
							"internalType": "string",
							"name": "takerBuyBaseVolume",
							"type": "string"
						},
						{
							"internalType": "string",
							"name": "takerBuyQuoteVolume",
							"type": "string"
						},
						{
							"internalType": "string",
							"name": "unused",
							"type": "string"
						}
					],
					"internalType": "struct CandleRecord[]",
					"name": "result",
					"type": "tuple[]"
				}
			],
			"stateMutability": "view",
			"type": "function"
		},
		{
			"inputs": [
				{
					"internalType": "string",
					"name": "s",
					"type": "string"
				}
			],
			"name": "parseInterval",
			"outputs": [
				{
					"internalType": "enum Interval",
					"name": "",
					"type": "uint8"
				}
			],
			"stateMutability": "pure",
			"type": "function"
		},
		{
			"inputs": [
				{
					"internalType": "bytes32",
					"name": "",
					"type": "bytes32"
				},
				{
					"internalType": "enum Interval",
					"name": "",
					"type": "uint8"
				},
				{
					"internalType": "uint64",
					"name": "",
					"type": "uint64"
				}
			],
			"name": "storages",
			"outputs": [
				{
					"internalType": "address",
					"name": "",
					"type": "address"
				}
			],
			"stateMutability": "view",
			"type": "function"
		}
	]
}