{
	"data": {
		"bytecode": {
			"linkReferences": {},
			"object": "6080604052348015600e575f5ffd5b50614e418061001c5f395ff3fe608060405234801561000f575f5ffd5b5060043610610086575f3560e01c80636fc78784116100595780636fc78784146101365780637f93ff24146101665780638d412ad21461019657806393faa992146101c657610086565b806338993f6b1461008a57806353857f9f146100ba5780635b3cb9d4146100d65780635e1dccd114610106575b5f5ffd5b6100a4600480360381019061009f9190611e31565b6101f6565b6040516100b1919061213a565b60405180910390f35b6100d460048036038101906100cf91906123a7565b610341565b005b6100f060048036038101906100eb91906124a1565b610673565b6040516100fd9190612530565b60405180910390f35b610120600480360381019061011b919061257c565b6106ba565b60405161012d919061213a565b60405180910390f35b610150600480360381019061014b9190612604565b610a3d565b60405161015d919061213a565b60405180910390f35b610180600480360381019061017b91906126b3565b610eab565b60405161018d91906126ed565b60405180910390f35b6101b060048036038101906101ab9190612706565b611216565b6040516101bd91906126ed565b60405180910390f35b6101e060048036038101906101db9190612744565b611606565b6040516101ed91906127fe565b60405180910390f35b60605f61020284611606565b90505f856040516020016102169190612851565b6040516020818303038152906040528051906020012090505f6102398386611216565b90505f5f5f8481526020019081526020015f205f85600f8111156102605761025f61278b565b5b600f8111156102725761027161278b565b5b81526020019081526020015f205f8367ffffffffffffffff1667ffffffffffffffff1681526020019081526020015f205f9054906101000a900473ffffffffffffffffffffffffffffffffffffffff1690508073ffffffffffffffffffffffffffffffffffffffff1663fb34b3a96040518163ffffffff1660e01b81526004015f60405180830381865afa15801561030c573d5f5f3e3d5ffd5b505050506040513d5f823e3d601f19601f820116820180604052508101906103349190612bfa565b9450505050509392505050565b5f61034b83611606565b90505f8460405160200161035f9190612851565b6040516020818303038152906040528051906020012090505f61038583855f0151611216565b90505f5f5f8481526020019081526020015f205f85600f8111156103ac576103ab61278b565b5b600f8111156103be576103bd61278b565b5b81526020019081526020015f205f8367ffffffffffffffff1667ffffffffffffffff1681526020019081526020015f205f9054906101000a900473ffffffffffffffffffffffffffffffffffffffff1690505f73ffffffffffffffffffffffffffffffffffffffff168173ffffffffffffffffffffffffffffffffffffffff160361058b576104816040518060400160405280601481526020017f437265617465206e657720616464727265737373000000000000000000000000815250611980565b60405161048d90611c18565b604051809103905ff0801580156104a6573d5f5f3e3d5ffd5b509050805f5f8581526020019081526020015f205f86600f8111156104ce576104cd61278b565b5b600f8111156104e0576104df61278b565b5b81526020019081526020015f205f8467ffffffffffffffff1667ffffffffffffffff1681526020019081526020015f205f6101000a81548173ffffffffffffffffffffffffffffffffffffffff021916908373ffffffffffffffffffffffffffffffffffffffff1602179055507f2a9e82be7bc20784dcc707f4814ca404ac4a94db66450718f7733b160fb62d86878784846040516105829493929190612c89565b60405180910390a15b7f108bda85c39161b301d5382c566b3574a21eddf09f675814d640d5d2666c2331855f015186602001518760400151886060015189608001518a60a001518b60c001518c60e001518d61010001518e61012001518f61014001516040516105fc9b9a99989796959493929190612ce9565b60405180910390a18073ffffffffffffffffffffffffffffffffffffffff1663a8f9b0af866040518263ffffffff1660e01b815260040161063d9190612f03565b5f604051808303815f87803b158015610654575f5ffd5b505af1158015610666573d5f5f3e3d5ffd5b5050505050505050505050565b5f602052825f5260405f20602052815f5260405f20602052805f5260405f205f92509250509054906101000a900473ffffffffffffffffffffffffffffffffffffffff1681565b60605f82036106c95761012c91505b5f6106d384611606565b90505f856040516020016106e79190612851565b6040516020818303038152906040528051906020012090505f6103e84261070e9190612f50565b90505f61071b8483611216565b90505f61072785610eab565b90505f8767ffffffffffffffff81111561074457610743611cd0565b5b60405190808252806020026020018201604052801561077d57816020015b61076a611c25565b8152602001906001900390816107625790505b5090505f5f90505b600115610985575f5f5f8881526020019081526020015f205f89600f8111156107b1576107b061278b565b5b600f8111156107c3576107c261278b565b5b81526020019081526020015f205f8667ffffffffffffffff1667ffffffffffffffff1681526020019081526020015f205f9054906101000a900473ffffffffffffffffffffffffffffffffffffffff1690505f73ffffffffffffffffffffffffffffffffffffffff168173ffffffffffffffffffffffffffffffffffffffff161461093c575f8173ffffffffffffffffffffffffffffffffffffffff1663ea6c83536040518163ffffffff1660e01b81526004015f60405180830381865afa158015610891573d5f5f3e3d5ffd5b505050506040513d5f823e3d601f19601f820116820180604052508101906108b99190612bfa565b90505f815190505b5f811115610935578b84031561093557816001826108df9190612f91565b815181106108f0576108ef612fc4565b5b602002602001015185858061090490612ff1565b96508151811061091757610916612fc4565b5b6020026020010181905250808061092d90613038565b9150506108c1565b5050610942565b50610985565b89821061094f5750610985565b8367ffffffffffffffff168567ffffffffffffffff1610156109715750610985565b838561097d919061305f565b945050610785565b8067ffffffffffffffff81111561099f5761099e611cd0565b5b6040519080825280602002602001820160405280156109d857816020015b6109c5611c25565b8152602001906001900390816109bd5790505b5097505f5f90505b81811015610a2e578281815181106109fb576109fa612fc4565b5b6020026020010151898281518110610a1657610a15612fc4565b5b602002602001018190525080806001019150506109e0565b50505050505050509392505050565b60605f610a4986611606565b90505f87604051602001610a5d9190612851565b6040516020818303038152906040528051906020012090505f610a81838888611a19565b90505f5f8667ffffffffffffffff811115610a9f57610a9e611cd0565b5b604051908082528060200260200182016040528015610ad857816020015b610ac5611c25565b815260200190600190039081610abd5790505b5090505f5f90505b8351811015610dd5575f5f5f8781526020019081526020015f205f88600f811115610b0e57610b0d61278b565b5b600f811115610b2057610b1f61278b565b5b81526020019081526020015f205f868481518110610b4157610b40612fc4565b5b602002602001015167ffffffffffffffff1667ffffffffffffffff1681526020019081526020015f205f9054906101000a900473ffffffffffffffffffffffffffffffffffffffff1690505f73ffffffffffffffffffffffffffffffffffffffff168173ffffffffffffffffffffffffffffffffffffffff1603610bc55750610dc8565b610c286040518060400160405280600681526020017f54696d653a200000000000000000000000000000000000000000000000000000815250868481518110610c1157610c10612fc4565b5b602002602001015167ffffffffffffffff16611b38565b5f8173ffffffffffffffffffffffffffffffffffffffff1663ea6c83536040518163ffffffff1660e01b81526004015f60405180830381865afa158015610c71573d5f5f3e3d5ffd5b505050506040513d5f823e3d601f19601f82011682018060405250810190610c999190612bfa565b90505f815190505b5f811115610db6575f82600183610cb89190612f91565b81518110610cc957610cc8612fc4565b5b602002602001015190508d67ffffffffffffffff16815f015167ffffffffffffffff161015610cf85750610da3565b8c67ffffffffffffffff16815f015167ffffffffffffffff161115610d1d5750610da3565b80868880610d2a90612ff1565b995081518110610d3d57610d3c612fc4565b5b6020026020010181905250610d946040518060400160405280600a81526020017f656c656d2074696d653a00000000000000000000000000000000000000000000815250825f015167ffffffffffffffff16611b38565b8b8703610da15750610db6565b505b8080610dae90613038565b915050610ca1565b50898503610dc5575050610dd5565b50505b8080600101915050610ae0565b508167ffffffffffffffff811115610df057610def611cd0565b5b604051908082528060200260200182016040528015610e2957816020015b610e16611c25565b815260200190600190039081610e0e5790505b5095505f8290505b5f811115610e9c5781600182610e479190612f91565b81518110610e5857610e57612fc4565b5b6020026020010151878285610e6d9190612f91565b81518110610e7e57610e7d612fc4565b5b60200260200101819052508080610e9490613038565b915050610e31565b50505050505095945050505050565b5f5f600f811115610ebf57610ebe61278b565b5b82600f811115610ed257610ed161278b565b5b03610ee2576236ee809050611211565b6001600f811115610ef657610ef561278b565b5b82600f811115610f0957610f0861278b565b5b1480610f3957506002600f811115610f2457610f2361278b565b5b82600f811115610f3757610f3661278b565b5b145b80610f6857506003600f811115610f5357610f5261278b565b5b82600f811115610f6657610f6561278b565b5b145b15610f79576305265c009050611211565b6004600f811115610f8d57610f8c61278b565b5b82600f811115610fa057610f9f61278b565b5b1480610fd057506005600f811115610fbb57610fba61278b565b5b82600f811115610fce57610fcd61278b565b5b145b80610fff57506006600f811115610fea57610fe961278b565b5b82600f811115610ffd57610ffc61278b565b5b145b8061102e57506007600f8111156110195761101861278b565b5b82600f81111561102c5761102b61278b565b5b145b1561103f5763240c84009050611211565b6008600f8111156110535761105261278b565b5b82600f8111156110665761106561278b565b5b148061109657506009600f8111156110815761108061278b565b5b82600f8111156110945761109361278b565b5b145b806110c55750600a600f8111156110b0576110af61278b565b5b82600f8111156110c3576110c261278b565b5b145b806110f45750600b600f8111156110df576110de61278b565b5b82600f8111156110f2576110f161278b565b5b145b1561110557639a7ec8009050611211565b600c600f8111156111195761111861278b565b5b82600f81111561112c5761112b61278b565b5b148061115c5750600d600f8111156111475761114661278b565b5b82600f81111561115a5761115961278b565b5b145b1561116e576401cf7c58009050611211565b600e600f8111156111825761118161278b565b5b82600f8111156111955761119461278b565b5b14806111c45750600f808111156111af576111ae61278b565b5b82600f8111156111c2576111c161278b565b5b145b156111d657640757b12c009050611211565b6040517f08c379a0000000000000000000000000000000000000000000000000000000008152600401611208906130e4565b60405180910390fd5b919050565b5f5f600f81111561122a5761122961278b565b5b83600f81111561123d5761123c61278b565b5b03611263576236ee808083611252919061312f565b61125c919061315f565b9050611600565b6001600f8111156112775761127661278b565b5b83600f81111561128a5761128961278b565b5b14806112ba57506002600f8111156112a5576112a461278b565b5b83600f8111156112b8576112b761278b565b5b145b806112e957506003600f8111156112d4576112d361278b565b5b83600f8111156112e7576112e661278b565b5b145b15611310576305265c0080836112ff919061312f565b611309919061315f565b9050611600565b6004600f8111156113245761132361278b565b5b83600f8111156113375761133661278b565b5b148061136757506005600f8111156113525761135161278b565b5b83600f8111156113655761136461278b565b5b145b8061139657506006600f8111156113815761138061278b565b5b83600f8111156113945761139361278b565b5b145b806113c557506007600f8111156113b0576113af61278b565b5b83600f8111156113c3576113c261278b565b5b145b156113ec5763240c840080836113db919061312f565b6113e5919061315f565b9050611600565b6008600f811115611400576113ff61278b565b5b83600f8111156114135761141261278b565b5b148061144357506009600f81111561142e5761142d61278b565b5b83600f8111156114415761144061278b565b5b145b806114725750600a600f81111561145d5761145c61278b565b5b83600f8111156114705761146f61278b565b5b145b806114a15750600b600f81111561148c5761148b61278b565b5b83600f81111561149f5761149e61278b565b5b145b156114c857639a7ec80080836114b7919061312f565b6114c1919061315f565b9050611600565b600c600f8111156114dc576114db61278b565b5b83600f8111156114ef576114ee61278b565b5b148061151f5750600d600f81111561150a5761150961278b565b5b83600f81111561151d5761151c61278b565b5b145b15611547576401cf7c58008083611536919061312f565b611540919061315f565b9050611600565b600e600f81111561155b5761155a61278b565b5b83600f81111561156e5761156d61278b565b5b148061159d5750600f808111156115885761158761278b565b5b83600f81111561159b5761159a61278b565b5b145b156115c557640757b12c0080836115b4919061312f565b6115be919061315f565b9050611600565b6040517f08c379a00000000000000000000000000000000000000000000000000000000081526004016115f7906130e4565b60405180910390fd5b92915050565b5f5f826040516020016116199190612851565b6040516020818303038152906040528051906020012090507f6c9308eeeb72aac61c6ee2086645ec6cf6638d86d97af7b81bcf4073f3b95dbc8103611661575f91505061197b565b7f523a5c8a0f83a86997a616b324ae897d2fb6b3f5f68b3969331c12e0f00f9f25810361169257600191505061197b565b7f2a3ff2dfa7bd33b0e77d014065236a2f104b389b776645fddb9e6a09eea0144181036116c357600291505061197b565b7ffca740c51a7536a1ff8f65314e26b24cee265d7626ad2e39318898f3d501ac2281036116f457600391505061197b565b7f53cad56a766a794bdc4fd49b262cd08fadf5c823f208fbf3f4efb377c206eaaa810361172557600491505061197b565b7fe99007fd2e286840683bfbac2c1ea22a3b3c1592d603a9ae9aee29cf77e941a7810361175657600591505061197b565b7f1125479f824fc31d0ce674b130e57a9dcfdf2d344ca1ef3fc8bf5bd50f9fcca9810361178757600691505061197b565b7fa50f424f123435e4689c6436ce338980297ca65f2ee6b69a216f0561ee6cf40081036117b857600791505061197b565b7f9a433cc5a6aee766b1bce0a7dc72ab7b4fd031108e0c5afea91382f1b1955fc981036117e957600891505061197b565b7fa0b83cfa5501e126ac29f6bf7a07bd17e2d97916947eed361748e8e0ab0aba4d810361181a57600991505061197b565b7fe21ccd2715134877c589435a9c98deb14540fdf9e902afebf2163fe393e9c073810361184b57600a91505061197b565b7f11108661a127316f8f74dc39a66520c8ec16719ed867ee768af67729ba3ec1d2810361187c57600b91505061197b565b7f7b2e5637de8d5670bd5be523fbccc1dfef88f0767eb2abf5ac4a81da61ae200281036118ad57600c91505061197b565b7f1cef0646e7fe7cb478d3a93d2e07774697c9239d0ee8b4294b768c91af329e6681036118de57600d91505061197b565b7f7cd5ba658b5dff64585bfcb0df7983749825e2292a4ff6daf96207e6eb100fe7810361190f57600e91505061197b565b7fa390d73d5fd5e6a577d394328e26ce85589c6d8c382fba9150fb136bbbf31ff7810361194057600f91505061197b565b6040517f08c379a0000000000000000000000000000000000000000000000000000000008152600401611972906131e5565b60405180910390fd5b919050565b611a16816040516024016119949190613203565b6040516020818303038152906040527f41304fac000000000000000000000000000000000000000000000000000000007bffffffffffffffffffffffffffffffffffffffffffffffffffffffff19166020820180517bffffffffffffffffffffffffffffffffffffffffffffffffffffffff8381831617835250505050611bd4565b50565b60605f611a2585610eab565b90505f611a328686611216565b90505f611a3f8786611216565b90505f6001848484611a51919061305f565b611a5b919061312f565b611a659190613223565b67ffffffffffffffff1690508067ffffffffffffffff811115611a8b57611a8a611cd0565b5b604051908082528060200260200182016040528015611ab95781602001602082028036833780820191505090505b5094505f5f90505b81811015611b2c578467ffffffffffffffff1681611adf9190612f50565b84611aea9190613223565b868281518110611afd57611afc612fc4565b5b602002602001019067ffffffffffffffff16908167ffffffffffffffff16815250508080600101915050611ac1565b50505050509392505050565b611bd08282604051602401611b4e92919061326d565b6040516020818303038152906040527fb60e72cc000000000000000000000000000000000000000000000000000000007bffffffffffffffffffffffffffffffffffffffffffffffffffffffff19166020820180517bffffffffffffffffffffffffffffffffffffffffffffffffffffffff8381831617835250505050611bd4565b5050565b611beb81611be3611bee611c0d565b63ffffffff16565b50565b5f6a636f6e736f6c652e6c6f6790505f5f835160208501845afa505050565b611c9d819050919050565b611b43806132c983390190565b6040518061018001604052805f67ffffffffffffffff16815260200160608152602001606081526020016060815260200160608152602001606081526020015f67ffffffffffffffff168152602001606081526020015f63ffffffff1681526020016060815260200160608152602001606081525090565b611ca561329b565b565b5f604051905090565b5f5ffd5b5f5ffd5b5f5ffd5b5f5ffd5b5f601f19601f8301169050919050565b7f4e487b71000000000000000000000000000000000000000000000000000000005f52604160045260245ffd5b611d0682611cc0565b810181811067ffffffffffffffff82111715611d2557611d24611cd0565b5b80604052505050565b5f611d37611ca7565b9050611d438282611cfd565b919050565b5f67ffffffffffffffff821115611d6257611d61611cd0565b5b611d6b82611cc0565b9050602081019050919050565b828183375f83830152505050565b5f611d98611d9384611d48565b611d2e565b905082815260208101848484011115611db457611db3611cbc565b5b611dbf848285611d78565b509392505050565b5f82601f830112611ddb57611dda611cb8565b5b8135611deb848260208601611d86565b91505092915050565b5f67ffffffffffffffff82169050919050565b611e1081611df4565b8114611e1a575f5ffd5b50565b5f81359050611e2b81611e07565b92915050565b5f5f5f60608486031215611e4857611e47611cb0565b5b5f84013567ffffffffffffffff811115611e6557611e64611cb4565b5b611e7186828701611dc7565b935050602084013567ffffffffffffffff811115611e9257611e91611cb4565b5b611e9e86828701611dc7565b9250506040611eaf86828701611e1d565b9150509250925092565b5f81519050919050565b5f82825260208201905092915050565b5f819050602082019050919050565b611eeb81611df4565b82525050565b5f81519050919050565b5f82825260208201905092915050565b8281835e5f83830152505050565b5f611f2382611ef1565b611f2d8185611efb565b9350611f3d818560208601611f0b565b611f4681611cc0565b840191505092915050565b5f63ffffffff82169050919050565b611f6981611f51565b82525050565b5f61018083015f830151611f855f860182611ee2565b5060208301518482036020860152611f9d8282611f19565b91505060408301518482036040860152611fb78282611f19565b91505060608301518482036060860152611fd18282611f19565b91505060808301518482036080860152611feb8282611f19565b91505060a083015184820360a08601526120058282611f19565b91505060c083015161201a60c0860182611ee2565b5060e083015184820360e08601526120328282611f19565b915050610100830151612049610100860182611f60565b506101208301518482036101208601526120638282611f19565b91505061014083015184820361014086015261207f8282611f19565b91505061016083015184820361016086015261209b8282611f19565b9150508091505092915050565b5f6120b38383611f6f565b905092915050565b5f602082019050919050565b5f6120d182611eb9565b6120db8185611ec3565b9350836020820285016120ed85611ed3565b805f5b85811015612128578484038952815161210985826120a8565b9450612114836120bb565b925060208a019950506001810190506120f0565b50829750879550505050505092915050565b5f6020820190508181035f83015261215281846120c7565b905092915050565b5f5ffd5b5f5ffd5b61216b81611f51565b8114612175575f5ffd5b50565b5f8135905061218681612162565b92915050565b5f61018082840312156121a2576121a161215a565b5b6121ad610180611d2e565b90505f6121bc84828501611e1d565b5f83015250602082013567ffffffffffffffff8111156121df576121de61215e565b5b6121eb84828501611dc7565b602083015250604082013567ffffffffffffffff81111561220f5761220e61215e565b5b61221b84828501611dc7565b604083015250606082013567ffffffffffffffff81111561223f5761223e61215e565b5b61224b84828501611dc7565b606083015250608082013567ffffffffffffffff81111561226f5761226e61215e565b5b61227b84828501611dc7565b60808301525060a082013567ffffffffffffffff81111561229f5761229e61215e565b5b6122ab84828501611dc7565b60a08301525060c06122bf84828501611e1d565b60c08301525060e082013567ffffffffffffffff8111156122e3576122e261215e565b5b6122ef84828501611dc7565b60e08301525061010061230484828501612178565b6101008301525061012082013567ffffffffffffffff81111561232a5761232961215e565b5b61233684828501611dc7565b6101208301525061014082013567ffffffffffffffff81111561235c5761235b61215e565b5b61236884828501611dc7565b6101408301525061016082013567ffffffffffffffff81111561238e5761238d61215e565b5b61239a84828501611dc7565b6101608301525092915050565b5f5f5f606084860312156123be576123bd611cb0565b5b5f84013567ffffffffffffffff8111156123db576123da611cb4565b5b6123e786828701611dc7565b935050602084013567ffffffffffffffff81111561240857612407611cb4565b5b61241486828701611dc7565b925050604084013567ffffffffffffffff81111561243557612434611cb4565b5b6124418682870161218c565b9150509250925092565b5f819050919050565b61245d8161244b565b8114612467575f5ffd5b50565b5f8135905061247881612454565b92915050565b6010811061248a575f5ffd5b50565b5f8135905061249b8161247e565b92915050565b5f5f5f606084860312156124b8576124b7611cb0565b5b5f6124c58682870161246a565b93505060206124d68682870161248d565b92505060406124e786828701611e1d565b9150509250925092565b5f73ffffffffffffffffffffffffffffffffffffffff82169050919050565b5f61251a826124f1565b9050919050565b61252a81612510565b82525050565b5f6020820190506125435f830184612521565b92915050565b5f819050919050565b61255b81612549565b8114612565575f5ffd5b50565b5f8135905061257681612552565b92915050565b5f5f5f6060848603121561259357612592611cb0565b5b5f84013567ffffffffffffffff8111156125b0576125af611cb4565b5b6125bc86828701611dc7565b935050602084013567ffffffffffffffff8111156125dd576125dc611cb4565b5b6125e986828701611dc7565b92505060406125fa86828701612568565b9150509250925092565b5f5f5f5f5f60a0868803121561261d5761261c611cb0565b5b5f86013567ffffffffffffffff81111561263a57612639611cb4565b5b61264688828901611dc7565b955050602086013567ffffffffffffffff81111561266757612666611cb4565b5b61267388828901611dc7565b945050604061268488828901611e1d565b935050606061269588828901611e1d565b92505060806126a688828901612568565b9150509295509295909350565b5f602082840312156126c8576126c7611cb0565b5b5f6126d58482850161248d565b91505092915050565b6126e781611df4565b82525050565b5f6020820190506127005f8301846126de565b92915050565b5f5f6040838503121561271c5761271b611cb0565b5b5f6127298582860161248d565b925050602061273a85828601611e1d565b9150509250929050565b5f6020828403121561275957612758611cb0565b5b5f82013567ffffffffffffffff81111561277657612775611cb4565b5b61278284828501611dc7565b91505092915050565b7f4e487b71000000000000000000000000000000000000000000000000000000005f52602160045260245ffd5b601081106127c9576127c861278b565b5b50565b5f8190506127d9826127b8565b919050565b5f6127e8826127cc565b9050919050565b6127f8816127de565b82525050565b5f6020820190506128115f8301846127ef565b92915050565b5f81905092915050565b5f61282b82611ef1565b6128358185612817565b9350612845818560208601611f0b565b80840191505092915050565b5f61285c8284612821565b915081905092915050565b5f67ffffffffffffffff82111561288157612880611cd0565b5b602082029050602081019050919050565b5f5ffd5b5f815190506128a481611e07565b92915050565b5f6128bc6128b784611d48565b611d2e565b9050828152602081018484840111156128d8576128d7611cbc565b5b6128e3848285611f0b565b509392505050565b5f82601f8301126128ff576128fe611cb8565b5b815161290f8482602086016128aa565b91505092915050565b5f8151905061292681612162565b92915050565b5f61018082840312156129425761294161215a565b5b61294d610180611d2e565b90505f61295c84828501612896565b5f83015250602082015167ffffffffffffffff81111561297f5761297e61215e565b5b61298b848285016128eb565b602083015250604082015167ffffffffffffffff8111156129af576129ae61215e565b5b6129bb848285016128eb565b604083015250606082015167ffffffffffffffff8111156129df576129de61215e565b5b6129eb848285016128eb565b606083015250608082015167ffffffffffffffff811115612a0f57612a0e61215e565b5b612a1b848285016128eb565b60808301525060a082015167ffffffffffffffff811115612a3f57612a3e61215e565b5b612a4b848285016128eb565b60a08301525060c0612a5f84828501612896565b60c08301525060e082015167ffffffffffffffff811115612a8357612a8261215e565b5b612a8f848285016128eb565b60e083015250610100612aa484828501612918565b6101008301525061012082015167ffffffffffffffff811115612aca57612ac961215e565b5b612ad6848285016128eb565b6101208301525061014082015167ffffffffffffffff811115612afc57612afb61215e565b5b612b08848285016128eb565b6101408301525061016082015167ffffffffffffffff811115612b2e57612b2d61215e565b5b612b3a848285016128eb565b6101608301525092915050565b5f612b59612b5484612867565b611d2e565b90508083825260208201905060208402830185811115612b7c57612b7b612892565b5b835b81811015612bc357805167ffffffffffffffff811115612ba157612ba0611cb8565b5b808601612bae898261292c565b85526020850194505050602081019050612b7e565b5050509392505050565b5f82601f830112612be157612be0611cb8565b5b8151612bf1848260208601612b47565b91505092915050565b5f60208284031215612c0f57612c0e611cb0565b5b5f82015167ffffffffffffffff811115612c2c57612c2b611cb4565b5b612c3884828501612bcd565b91505092915050565b5f82825260208201905092915050565b5f612c5b82611ef1565b612c658185612c41565b9350612c75818560208601611f0b565b612c7e81611cc0565b840191505092915050565b5f6080820190508181035f830152612ca18187612c51565b90508181036020830152612cb58186612c51565b9050612cc460408301856126de565b612cd16060830184612521565b95945050505050565b612ce381611f51565b82525050565b5f61016082019050612cfd5f83018e6126de565b8181036020830152612d0f818d612c51565b90508181036040830152612d23818c612c51565b90508181036060830152612d37818b612c51565b90508181036080830152612d4b818a612c51565b905081810360a0830152612d5f8189612c51565b9050612d6e60c08301886126de565b81810360e0830152612d808187612c51565b9050612d90610100830186612cda565b818103610120830152612da38185612c51565b9050818103610140830152612db88184612c51565b90509c9b505050505050505050505050565b5f61018083015f830151612de05f860182611ee2565b5060208301518482036020860152612df88282611f19565b91505060408301518482036040860152612e128282611f19565b91505060608301518482036060860152612e2c8282611f19565b91505060808301518482036080860152612e468282611f19565b91505060a083015184820360a0860152612e608282611f19565b91505060c0830151612e7560c0860182611ee2565b5060e083015184820360e0860152612e8d8282611f19565b915050610100830151612ea4610100860182611f60565b50610120830151848203610120860152612ebe8282611f19565b915050610140830151848203610140860152612eda8282611f19565b915050610160830151848203610160860152612ef68282611f19565b9150508091505092915050565b5f6020820190508181035f830152612f1b8184612dca565b905092915050565b7f4e487b71000000000000000000000000000000000000000000000000000000005f52601160045260245ffd5b5f612f5a82612549565b9150612f6583612549565b9250828202612f7381612549565b91508282048414831517612f8a57612f89612f23565b5b5092915050565b5f612f9b82612549565b9150612fa683612549565b9250828203905081811115612fbe57612fbd612f23565b5b92915050565b7f4e487b71000000000000000000000000000000000000000000000000000000005f52603260045260245ffd5b5f612ffb82612549565b91507fffffffffffffffffffffffffffffffffffffffffffffffffffffffffffffffff820361302d5761302c612f23565b5b600182019050919050565b5f61304282612549565b91505f820361305457613053612f23565b5b600182039050919050565b5f61306982611df4565b915061307483611df4565b9250828203905067ffffffffffffffff81111561309457613093612f23565b5b92915050565b7f556e737570706f7274656420696e74657276616c0000000000000000000000005f82015250565b5f6130ce601483612c41565b91506130d98261309a565b602082019050919050565b5f6020820190508181035f8301526130fb816130c2565b9050919050565b7f4e487b71000000000000000000000000000000000000000000000000000000005f52601260045260245ffd5b5f61313982611df4565b915061314483611df4565b92508261315457613153613102565b5b828204905092915050565b5f61316982611df4565b915061317483611df4565b925082820261318281611df4565b915080821461319457613193612f23565b5b5092915050565b7f496e76616c696420696e74657276616c20737472696e670000000000000000005f82015250565b5f6131cf601783612c41565b91506131da8261319b565b602082019050919050565b5f6020820190508181035f8301526131fc816131c3565b9050919050565b5f6020820190508181035f83015261321b8184612c51565b905092915050565b5f61322d82611df4565b915061323883611df4565b9250828201905067ffffffffffffffff81111561325857613257612f23565b5b92915050565b61326781612549565b82525050565b5f6040820190508181035f8301526132858185612c51565b9050613294602083018461325e565b9392505050565b7f4e487b71000000000000000000000000000000000000000000000000000000005f52605160045260245ffdfe6080604052348015600e575f5ffd5b503360015f6101000a81548173ffffffffffffffffffffffffffffffffffffffff021916908373ffffffffffffffffffffffffffffffffffffffff160217905550611ae78061005c5f395ff3fe608060405234801561000f575f5ffd5b5060043610610055575f3560e01c8063a6478d9714610059578063a8f9b0af14610077578063c45a015514610093578063ea6c8353146100b1578063fb34b3a9146100cf575b5f5ffd5b6100616100ed565b60405161006e919061103d565b60405180910390f35b610091600480360381019061008c919061143c565b6100f8565b005b61009b6102fe565b6040516100a891906114c2565b60405180910390f35b6100b9610323565b6040516100c6919061174d565b60405180910390f35b6100d76109a4565b6040516100e4919061174d565b60405180910390f35b5f5f80549050905090565b60015f9054906101000a900473ffffffffffffffffffffffffffffffffffffffff1673ffffffffffffffffffffffffffffffffffffffff163373ffffffffffffffffffffffffffffffffffffffff1614610187576040517f08c379a000000000000000000000000000000000000000000000000000000000815260040161017e906117c7565b60405180910390fd5b5f81908060018154018082558091505060019003905f5260205f2090600c02015f909190919091505f820151815f015f6101000a81548167ffffffffffffffff021916908367ffffffffffffffff16021790555060208201518160010190816101f091906119e2565b50604082015181600201908161020691906119e2565b50606082015181600301908161021c91906119e2565b50608082015181600401908161023291906119e2565b5060a082015181600501908161024891906119e2565b5060c0820151816006015f6101000a81548167ffffffffffffffff021916908367ffffffffffffffff16021790555060e082015181600701908161028c91906119e2565b50610100820151816008015f6101000a81548163ffffffff021916908363ffffffff1602179055506101208201518160090190816102ca91906119e2565b5061014082015181600a0190816102e191906119e2565b5061016082015181600b0190816102f891906119e2565b50505050565b60015f9054906101000a900473ffffffffffffffffffffffffffffffffffffffff1681565b606060015f9054906101000a900473ffffffffffffffffffffffffffffffffffffffff1673ffffffffffffffffffffffffffffffffffffffff163373ffffffffffffffffffffffffffffffffffffffff16146103b4576040517f08c379a00000000000000000000000000000000000000000000000000000000081526004016103ab906117c7565b60405180910390fd5b5f805480602002602001604051908101604052809291908181526020015f905b8282101561099b578382905f5260205f2090600c0201604051806101800160405290815f82015f9054906101000a900467ffffffffffffffff1667ffffffffffffffff1667ffffffffffffffff16815260200160018201805461043690611812565b80601f016020809104026020016040519081016040528092919081815260200182805461046290611812565b80156104ad5780601f10610484576101008083540402835291602001916104ad565b820191905f5260205f20905b81548152906001019060200180831161049057829003601f168201915b505050505081526020016002820180546104c690611812565b80601f01602080910402602001604051908101604052809291908181526020018280546104f290611812565b801561053d5780601f106105145761010080835404028352916020019161053d565b820191905f5260205f20905b81548152906001019060200180831161052057829003601f168201915b5050505050815260200160038201805461055690611812565b80601f016020809104026020016040519081016040528092919081815260200182805461058290611812565b80156105cd5780601f106105a4576101008083540402835291602001916105cd565b820191905f5260205f20905b8154815290600101906020018083116105b057829003601f168201915b505050505081526020016004820180546105e690611812565b80601f016020809104026020016040519081016040528092919081815260200182805461061290611812565b801561065d5780601f106106345761010080835404028352916020019161065d565b820191905f5260205f20905b81548152906001019060200180831161064057829003601f168201915b5050505050815260200160058201805461067690611812565b80601f01602080910402602001604051908101604052809291908181526020018280546106a290611812565b80156106ed5780601f106106c4576101008083540402835291602001916106ed565b820191905f5260205f20905b8154815290600101906020018083116106d057829003601f168201915b50505050508152602001600682015f9054906101000a900467ffffffffffffffff1667ffffffffffffffff1667ffffffffffffffff16815260200160078201805461073790611812565b80601f016020809104026020016040519081016040528092919081815260200182805461076390611812565b80156107ae5780601f10610785576101008083540402835291602001916107ae565b820191905f5260205f20905b81548152906001019060200180831161079157829003601f168201915b50505050508152602001600882015f9054906101000a900463ffffffff1663ffffffff1663ffffffff1681526020016009820180546107ec90611812565b80601f016020809104026020016040519081016040528092919081815260200182805461081890611812565b80156108635780601f1061083a57610100808354040283529160200191610863565b820191905f5260205f20905b81548152906001019060200180831161084657829003601f168201915b50505050508152602001600a8201805461087c90611812565b80601f01602080910402602001604051908101604052809291908181526020018280546108a890611812565b80156108f35780601f106108ca576101008083540402835291602001916108f3565b820191905f5260205f20905b8154815290600101906020018083116108d657829003601f168201915b50505050508152602001600b8201805461090c90611812565b80601f016020809104026020016040519081016040528092919081815260200182805461093890611812565b80156109835780601f1061095a57610100808354040283529160200191610983565b820191905f5260205f20905b81548152906001019060200180831161096657829003601f168201915b505050505081525050815260200190600101906103d4565b50505050905090565b606060015f9054906101000a900473ffffffffffffffffffffffffffffffffffffffff1673ffffffffffffffffffffffffffffffffffffffff163373ffffffffffffffffffffffffffffffffffffffff1614610a35576040517f08c379a0000000000000000000000000000000000000000000000000000000008152600401610a2c906117c7565b60405180910390fd5b5f805480602002602001604051908101604052809291908181526020015f905b8282101561101c578382905f5260205f2090600c0201604051806101800160405290815f82015f9054906101000a900467ffffffffffffffff1667ffffffffffffffff1667ffffffffffffffff168152602001600182018054610ab790611812565b80601f0160208091040260200160405190810160405280929190818152602001828054610ae390611812565b8015610b2e5780601f10610b0557610100808354040283529160200191610b2e565b820191905f5260205f20905b815481529060010190602001808311610b1157829003601f168201915b50505050508152602001600282018054610b4790611812565b80601f0160208091040260200160405190810160405280929190818152602001828054610b7390611812565b8015610bbe5780601f10610b9557610100808354040283529160200191610bbe565b820191905f5260205f20905b815481529060010190602001808311610ba157829003601f168201915b50505050508152602001600382018054610bd790611812565b80601f0160208091040260200160405190810160405280929190818152602001828054610c0390611812565b8015610c4e5780601f10610c2557610100808354040283529160200191610c4e565b820191905f5260205f20905b815481529060010190602001808311610c3157829003601f168201915b50505050508152602001600482018054610c6790611812565b80601f0160208091040260200160405190810160405280929190818152602001828054610c9390611812565b8015610cde5780601f10610cb557610100808354040283529160200191610cde565b820191905f5260205f20905b815481529060010190602001808311610cc157829003601f168201915b50505050508152602001600582018054610cf790611812565b80601f0160208091040260200160405190810160405280929190818152602001828054610d2390611812565b8015610d6e5780601f10610d4557610100808354040283529160200191610d6e565b820191905f5260205f20905b815481529060010190602001808311610d5157829003601f168201915b50505050508152602001600682015f9054906101000a900467ffffffffffffffff1667ffffffffffffffff1667ffffffffffffffff168152602001600782018054610db890611812565b80601f0160208091040260200160405190810160405280929190818152602001828054610de490611812565b8015610e2f5780601f10610e0657610100808354040283529160200191610e2f565b820191905f5260205f20905b815481529060010190602001808311610e1257829003601f168201915b50505050508152602001600882015f9054906101000a900463ffffffff1663ffffffff1663ffffffff168152602001600982018054610e6d90611812565b80601f0160208091040260200160405190810160405280929190818152602001828054610e9990611812565b8015610ee45780601f10610ebb57610100808354040283529160200191610ee4565b820191905f5260205f20905b815481529060010190602001808311610ec757829003601f168201915b50505050508152602001600a82018054610efd90611812565b80601f0160208091040260200160405190810160405280929190818152602001828054610f2990611812565b8015610f745780601f10610f4b57610100808354040283529160200191610f74565b820191905f5260205f20905b815481529060010190602001808311610f5757829003601f168201915b50505050508152602001600b82018054610f8d90611812565b80601f0160208091040260200160405190810160405280929190818152602001828054610fb990611812565b80156110045780601f10610fdb57610100808354040283529160200191611004565b820191905f5260205f20905b815481529060010190602001808311610fe757829003601f168201915b50505050508152505081526020019060010190610a55565b50505050905090565b5f819050919050565b61103781611025565b82525050565b5f6020820190506110505f83018461102e565b92915050565b5f604051905090565b5f5ffd5b5f5ffd5b5f5ffd5b5f601f19601f8301169050919050565b7f4e487b71000000000000000000000000000000000000000000000000000000005f52604160045260245ffd5b6110b18261106b565b810181811067ffffffffffffffff821117156110d0576110cf61107b565b5b80604052505050565b5f6110e2611056565b90506110ee82826110a8565b919050565b5f5ffd5b5f67ffffffffffffffff82169050919050565b611113816110f7565b811461111d575f5ffd5b50565b5f8135905061112e8161110a565b92915050565b5f5ffd5b5f5ffd5b5f67ffffffffffffffff8211156111565761115561107b565b5b61115f8261106b565b9050602081019050919050565b828183375f83830152505050565b5f61118c6111878461113c565b6110d9565b9050828152602081018484840111156111a8576111a7611138565b5b6111b384828561116c565b509392505050565b5f82601f8301126111cf576111ce611134565b5b81356111df84826020860161117a565b91505092915050565b5f63ffffffff82169050919050565b611200816111e8565b811461120a575f5ffd5b50565b5f8135905061121b816111f7565b92915050565b5f610180828403121561123757611236611067565b5b6112426101806110d9565b90505f61125184828501611120565b5f83015250602082013567ffffffffffffffff811115611274576112736110f3565b5b611280848285016111bb565b602083015250604082013567ffffffffffffffff8111156112a4576112a36110f3565b5b6112b0848285016111bb565b604083015250606082013567ffffffffffffffff8111156112d4576112d36110f3565b5b6112e0848285016111bb565b606083015250608082013567ffffffffffffffff811115611304576113036110f3565b5b611310848285016111bb565b60808301525060a082013567ffffffffffffffff811115611334576113336110f3565b5b611340848285016111bb565b60a08301525060c061135484828501611120565b60c08301525060e082013567ffffffffffffffff811115611378576113776110f3565b5b611384848285016111bb565b60e0830152506101006113998482850161120d565b6101008301525061012082013567ffffffffffffffff8111156113bf576113be6110f3565b5b6113cb848285016111bb565b6101208301525061014082013567ffffffffffffffff8111156113f1576113f06110f3565b5b6113fd848285016111bb565b6101408301525061016082013567ffffffffffffffff811115611423576114226110f3565b5b61142f848285016111bb565b6101608301525092915050565b5f602082840312156114515761145061105f565b5b5f82013567ffffffffffffffff81111561146e5761146d611063565b5b61147a84828501611221565b91505092915050565b5f73ffffffffffffffffffffffffffffffffffffffff82169050919050565b5f6114ac82611483565b9050919050565b6114bc816114a2565b82525050565b5f6020820190506114d55f8301846114b3565b92915050565b5f81519050919050565b5f82825260208201905092915050565b5f819050602082019050919050565b61150d816110f7565b82525050565b5f81519050919050565b5f82825260208201905092915050565b8281835e5f83830152505050565b5f61154582611513565b61154f818561151d565b935061155f81856020860161152d565b6115688161106b565b840191505092915050565b61157c816111e8565b82525050565b5f61018083015f8301516115985f860182611504565b50602083015184820360208601526115b0828261153b565b915050604083015184820360408601526115ca828261153b565b915050606083015184820360608601526115e4828261153b565b915050608083015184820360808601526115fe828261153b565b91505060a083015184820360a0860152611618828261153b565b91505060c083015161162d60c0860182611504565b5060e083015184820360e0860152611645828261153b565b91505061010083015161165c610100860182611573565b50610120830151848203610120860152611676828261153b565b915050610140830151848203610140860152611692828261153b565b9150506101608301518482036101608601526116ae828261153b565b9150508091505092915050565b5f6116c68383611582565b905092915050565b5f602082019050919050565b5f6116e4826114db565b6116ee81856114e5565b935083602082028501611700856114f5565b805f5b8581101561173b578484038952815161171c85826116bb565b9450611727836116ce565b925060208a01995050600181019050611703565b50829750879550505050505092915050565b5f6020820190508181035f83015261176581846116da565b905092915050565b5f82825260208201905092915050565b7f4e6f7420666163746f72790000000000000000000000000000000000000000005f82015250565b5f6117b1600b8361176d565b91506117bc8261177d565b602082019050919050565b5f6020820190508181035f8301526117de816117a5565b9050919050565b7f4e487b71000000000000000000000000000000000000000000000000000000005f52602260045260245ffd5b5f600282049050600182168061182957607f821691505b60208210810361183c5761183b6117e5565b5b50919050565b5f819050815f5260205f209050919050565b5f6020601f8301049050919050565b5f82821b905092915050565b5f6008830261189e7fffffffffffffffffffffffffffffffffffffffffffffffffffffffffffffffff82611863565b6118a88683611863565b95508019841693508086168417925050509392505050565b5f819050919050565b5f6118e36118de6118d984611025565b6118c0565b611025565b9050919050565b5f819050919050565b6118fc836118c9565b611910611908826118ea565b84845461186f565b825550505050565b5f5f905090565b611927611918565b6119328184846118f3565b505050565b5b818110156119555761194a5f8261191f565b600181019050611938565b5050565b601f82111561199a5761196b81611842565b61197484611854565b81016020851015611983578190505b61199761198f85611854565b830182611937565b50505b505050565b5f82821c905092915050565b5f6119ba5f198460080261199f565b1980831691505092915050565b5f6119d283836119ab565b9150826002028217905092915050565b6119eb82611513565b67ffffffffffffffff811115611a0457611a0361107b565b5b611a0e8254611812565b611a19828285611959565b5f60209050601f831160018114611a4a575f8415611a38578287015190505b611a4285826119c7565b865550611aa9565b601f198416611a5886611842565b5f5b82811015611a7f57848901518255600182019150602085019450602081019050611a5a565b86831015611a9c5784890151611a98601f8916826119ab565b8355505b6001600288020188555050505b50505050505056fea2646970667358221220f4dfe3be846e2ca9588d0fba5e7bc76478565a894574830b50ebf9e965bc941b64736f6c634300081e0033a2646970667358221220be4e008aabadbd0f3947fa08008c136eb4ca9abd08aa31ef8decfabdc25167c764736f6c634300081e0033",
			"opcodes": "PUSH1 0x80 PUSH1 0x40 MSTORE CALLVALUE DUP1 ISZERO PUSH1 0xE JUMPI PUSH0 PUSH0 REVERT JUMPDEST POP PUSH2 0x4E41 DUP1 PUSH2 0x1C PUSH0 CODECOPY PUSH0 RETURN INVALID PUSH1 0x80 PUSH1 0x40 MSTORE CALLVALUE DUP1 ISZERO PUSH2 0xF JUMPI PUSH0 PUSH0 REVERT JUMPDEST POP PUSH1 0x4 CALLDATASIZE LT PUSH2 0x86 JUMPI PUSH0 CALLDATALOAD PUSH1 0xE0 SHR DUP1 PUSH4 0x6FC78784 GT PUSH2 0x59 JUMPI DUP1 PUSH4 0x6FC78784 EQ PUSH2 0x136 JUMPI DUP1 PUSH4 0x7F93FF24 EQ PUSH2 0x166 JUMPI DUP1 PUSH4 0x8D412AD2 EQ PUSH2 0x196 JUMPI DUP1 PUSH4 0x93FAA992 EQ PUSH2 0x1C6 JUMPI PUSH2 0x86 JUMP JUMPDEST DUP1 PUSH4 0x38993F6B EQ PUSH2 0x8A JUMPI DUP1 PUSH4 0x53857F9F EQ PUSH2 0xBA JUMPI DUP1 PUSH4 0x5B3CB9D4 EQ PUSH2 0xD6 JUMPI DUP1 PUSH4 0x5E1DCCD1 EQ PUSH2 0x106 JUMPI JUMPDEST PUSH0 PUSH0 REVERT JUMPDEST PUSH2 0xA4 PUSH1 0x4 DUP1 CALLDATASIZE SUB DUP2 ADD SWAP1 PUSH2 0x9F SWAP2 SWAP1 PUSH2 0x1E31 JUMP JUMPDEST PUSH2 0x1F6 JUMP JUMPDEST PUSH1 0x40 MLOAD PUSH2 0xB1 SWAP2 SWAP1 PUSH2 0x213A JUMP JUMPDEST PUSH1 0x40 MLOAD DUP1 SWAP2 SUB SWAP1 RETURN JUMPDEST PUSH2 0xD4 PUSH1 0x4 DUP1 CALLDATASIZE SUB DUP2 ADD SWAP1 PUSH2 0xCF SWAP2 SWAP1 PUSH2 0x23A7 JUMP JUMPDEST PUSH2 0x341 JUMP JUMPDEST STOP JUMPDEST PUSH2 0xF0 PUSH1 0x4 DUP1 CALLDATASIZE SUB DUP2 ADD SWAP1 PUSH2 0xEB SWAP2 SWAP1 PUSH2 0x24A1 JUMP JUMPDEST PUSH2 0x673 JUMP JUMPDEST PUSH1 0x40 MLOAD PUSH2 0xFD SWAP2 SWAP1 PUSH2 0x2530 JUMP JUMPDEST PUSH1 0x40 MLOAD DUP1 SWAP2 SUB SWAP1 RETURN JUMPDEST PUSH2 0x120 PUSH1 0x4 DUP1 CALLDATASIZE SUB DUP2 ADD SWAP1 PUSH2 0x11B SWAP2 SWAP1 PUSH2 0x257C JUMP JUMPDEST PUSH2 0x6BA JUMP JUMPDEST PUSH1 0x40 MLOAD PUSH2 0x12D SWAP2 SWAP1 PUSH2 0x213A JUMP JUMPDEST PUSH1 0x40 MLOAD DUP1 SWAP2 SUB SWAP1 RETURN JUMPDEST PUSH2 0x150 PUSH1 0x4 DUP1 CALLDATASIZE SUB DUP2 ADD SWAP1 PUSH2 0x14B SWAP2 SWAP1 PUSH2 0x2604 JUMP JUMPDEST PUSH2 0xA3D JUMP JUMPDEST PUSH1 0x40 MLOAD PUSH2 0x15D SWAP2 SWAP1 PUSH2 0x213A JUMP JUMPDEST PUSH1 0x40 MLOAD DUP1 SWAP2 SUB SWAP1 RETURN JUMPDEST PUSH2 0x180 PUSH1 0x4 DUP1 CALLDATASIZE SUB DUP2 ADD SWAP1 PUSH2 0x17B SWAP2 SWAP1 PUSH2 0x26B3 JUMP JUMPDEST PUSH2 0xEAB JUMP JUMPDEST PUSH1 0x40 MLOAD PUSH2 0x18D SWAP2 SWAP1 PUSH2 0x26ED JUMP JUMPDEST PUSH1 0x40 MLOAD DUP1 SWAP2 SUB SWAP1 RETURN JUMPDEST PUSH2 0x1B0 PUSH1 0x4 DUP1 CALLDATASIZE SUB DUP2 ADD SWAP1 PUSH2 0x1AB SWAP2 SWAP1 PUSH2 0x2706 JUMP JUMPDEST PUSH2 0x1216 JUMP JUMPDEST PUSH1 0x40 MLOAD PUSH2 0x1BD SWAP2 SWAP1 PUSH2 0x26ED JUMP JUMPDEST PUSH1 0x40 MLOAD DUP1 SWAP2 SUB SWAP1 RETURN JUMPDEST PUSH2 0x1E0 PUSH1 0x4 DUP1 CALLDATASIZE SUB DUP2 ADD SWAP1 PUSH2 0x1DB SWAP2 SWAP1 PUSH2 0x2744 JUMP JUMPDEST PUSH2 0x1606 JUMP JUMPDEST PUSH1 0x40 MLOAD PUSH2 0x1ED SWAP2 SWAP1 PUSH2 0x27FE JUMP JUMPDEST PUSH1 0x40 MLOAD DUP1 SWAP2 SUB SWAP1 RETURN JUMPDEST PUSH1 0x60 PUSH0 PUSH2 0x202 DUP5 PUSH2 0x1606 JUMP JUMPDEST SWAP1 POP PUSH0 DUP6 PUSH1 0x40 MLOAD PUSH1 0x20 ADD PUSH2 0x216 SWAP2 SWAP1 PUSH2 0x2851 JUMP JUMPDEST PUSH1 0x40 MLOAD PUSH1 0x20 DUP2 DUP4 SUB SUB DUP2 MSTORE SWAP1 PUSH1 0x40 MSTORE DUP1 MLOAD SWAP1 PUSH1 0x20 ADD KECCAK256 SWAP1 POP PUSH0 PUSH2 0x239 DUP4 DUP7 PUSH2 0x1216 JUMP JUMPDEST SWAP1 POP PUSH0 PUSH0 PUSH0 DUP5 DUP2 MSTORE PUSH1 0x20 ADD SWAP1 DUP2 MSTORE PUSH1 0x20 ADD PUSH0 KECCAK256 PUSH0 DUP6 PUSH1 0xF DUP2 GT ISZERO PUSH2 0x260 JUMPI PUSH2 0x25F PUSH2 0x278B JUMP JUMPDEST JUMPDEST PUSH1 0xF DUP2 GT ISZERO PUSH2 0x272 JUMPI PUSH2 0x271 PUSH2 0x278B JUMP JUMPDEST JUMPDEST DUP2 MSTORE PUSH1 0x20 ADD SWAP1 DUP2 MSTORE PUSH1 0x20 ADD PUSH0 KECCAK256 PUSH0 DUP4 PUSH8 0xFFFFFFFFFFFFFFFF AND PUSH8 0xFFFFFFFFFFFFFFFF AND DUP2 MSTORE PUSH1 0x20 ADD SWAP1 DUP2 MSTORE PUSH1 0x20 ADD PUSH0 KECCAK256 PUSH0 SWAP1 SLOAD SWAP1 PUSH2 0x100 EXP SWAP1 DIV PUSH20 0xFFFFFFFFFFFFFFFFFFFFFFFFFFFFFFFFFFFFFFFF AND SWAP1 POP DUP1 PUSH20 0xFFFFFFFFFFFFFFFFFFFFFFFFFFFFFFFFFFFFFFFF AND PUSH4 0xFB34B3A9 PUSH1 0x40 MLOAD DUP2 PUSH4 0xFFFFFFFF AND PUSH1 0xE0 SHL DUP2 MSTORE PUSH1 0x4 ADD PUSH0 PUSH1 0x40 MLOAD DUP1 DUP4 SUB DUP2 DUP7 GAS STATICCALL ISZERO DUP1 ISZERO PUSH2 0x30C JUMPI RETURNDATASIZE PUSH0 PUSH0 RETURNDATACOPY RETURNDATASIZE PUSH0 REVERT JUMPDEST POP POP POP POP PUSH1 0x40 MLOAD RETURNDATASIZE PUSH0 DUP3 RETURNDATACOPY RETURNDATASIZE PUSH1 0x1F NOT PUSH1 0x1F DUP3 ADD AND DUP3 ADD DUP1 PUSH1 0x40 MSTORE POP DUP2 ADD SWAP1 PUSH2 0x334 SWAP2 SWAP1 PUSH2 0x2BFA JUMP JUMPDEST SWAP5 POP POP POP POP POP SWAP4 SWAP3 POP POP POP JUMP JUMPDEST PUSH0 PUSH2 0x34B DUP4 PUSH2 0x1606 JUMP JUMPDEST SWAP1 POP PUSH0 DUP5 PUSH1 0x40 MLOAD PUSH1 0x20 ADD PUSH2 0x35F SWAP2 SWAP1 PUSH2 0x2851 JUMP JUMPDEST PUSH1 0x40 MLOAD PUSH1 0x20 DUP2 DUP4 SUB SUB DUP2 MSTORE SWAP1 PUSH1 0x40 MSTORE DUP1 MLOAD SWAP1 PUSH1 0x20 ADD KECCAK256 SWAP1 POP PUSH0 PUSH2 0x385 DUP4 DUP6 PUSH0 ADD MLOAD PUSH2 0x1216 JUMP JUMPDEST SWAP1 POP PUSH0 PUSH0 PUSH0 DUP5 DUP2 MSTORE PUSH1 0x20 ADD SWAP1 DUP2 MSTORE PUSH1 0x20 ADD PUSH0 KECCAK256 PUSH0 DUP6 PUSH1 0xF DUP2 GT ISZERO PUSH2 0x3AC JUMPI PUSH2 0x3AB PUSH2 0x278B JUMP JUMPDEST JUMPDEST PUSH1 0xF DUP2 GT ISZERO PUSH2 0x3BE JUMPI PUSH2 0x3BD PUSH2 0x278B JUMP JUMPDEST JUMPDEST DUP2 MSTORE PUSH1 0x20 ADD SWAP1 DUP2 MSTORE PUSH1 0x20 ADD PUSH0 KECCAK256 PUSH0 DUP4 PUSH8 0xFFFFFFFFFFFFFFFF AND PUSH8 0xFFFFFFFFFFFFFFFF AND DUP2 MSTORE PUSH1 0x20 ADD SWAP1 DUP2 MSTORE PUSH1 0x20 ADD PUSH0 KECCAK256 PUSH0 SWAP1 SLOAD SWAP1 PUSH2 0x100 EXP SWAP1 DIV PUSH20 0xFFFFFFFFFFFFFFFFFFFFFFFFFFFFFFFFFFFFFFFF AND SWAP1 POP PUSH0 PUSH20 0xFFFFFFFFFFFFFFFFFFFFFFFFFFFFFFFFFFFFFFFF AND DUP2 PUSH20 0xFFFFFFFFFFFFFFFFFFFFFFFFFFFFFFFFFFFFFFFF AND SUB PUSH2 0x58B JUMPI PUSH2 0x481 PUSH1 0x40 MLOAD DUP1 PUSH1 0x40 ADD PUSH1 0x40 MSTORE DUP1 PUSH1 0x14 DUP2 MSTORE PUSH1 0x20 ADD PUSH32 0x437265617465206E657720616464727265737373000000000000000000000000 DUP2 MSTORE POP PUSH2 0x1980 JUMP JUMPDEST PUSH1 0x40 MLOAD PUSH2 0x48D SWAP1 PUSH2 0x1C18 JUMP JUMPDEST PUSH1 0x40 MLOAD DUP1 SWAP2 SUB SWAP1 PUSH0 CREATE DUP1 ISZERO DUP1 ISZERO PUSH2 0x4A6 JUMPI RETURNDATASIZE PUSH0 PUSH0 RETURNDATACOPY RETURNDATASIZE PUSH0 REVERT JUMPDEST POP SWAP1 POP DUP1 PUSH0 PUSH0 DUP6 DUP2 MSTORE PUSH1 0x20 ADD SWAP1 DUP2 MSTORE PUSH1 0x20 ADD PUSH0 KECCAK256 PUSH0 DUP7 PUSH1 0xF DUP2 GT ISZERO PUSH2 0x4CE JUMPI PUSH2 0x4CD PUSH2 0x278B JUMP JUMPDEST JUMPDEST PUSH1 0xF DUP2 GT ISZERO PUSH2 0x4E0 JUMPI PUSH2 0x4DF PUSH2 0x278B JUMP JUMPDEST JUMPDEST DUP2 MSTORE PUSH1 0x20 ADD SWAP1 DUP2 MSTORE PUSH1 0x20 ADD PUSH0 KECCAK256 PUSH0 DUP5 PUSH8 0xFFFFFFFFFFFFFFFF AND PUSH8 0xFFFFFFFFFFFFFFFF AND DUP2 MSTORE PUSH1 0x20 ADD SWAP1 DUP2 MSTORE PUSH1 0x20 ADD PUSH0 KECCAK256 PUSH0 PUSH2 0x100 EXP DUP2 SLOAD DUP2 PUSH20 0xFFFFFFFFFFFFFFFFFFFFFFFFFFFFFFFFFFFFFFFF MUL NOT AND SWAP1 DUP4 PUSH20 0xFFFFFFFFFFFFFFFFFFFFFFFFFFFFFFFFFFFFFFFF AND MUL OR SWAP1 SSTORE POP PUSH32 0x2A9E82BE7BC20784DCC707F4814CA404AC4A94DB66450718F7733B160FB62D86 DUP8 DUP8 DUP5 DUP5 PUSH1 0x40 MLOAD PUSH2 0x582 SWAP5 SWAP4 SWAP3 SWAP2 SWAP1 PUSH2 0x2C89 JUMP JUMPDEST PUSH1 0x40 MLOAD DUP1 SWAP2 SUB SWAP1 LOG1 JUMPDEST PUSH32 0x108BDA85C39161B301D5382C566B3574A21EDDF09F675814D640D5D2666C2331 DUP6 PUSH0 ADD MLOAD DUP7 PUSH1 0x20 ADD MLOAD DUP8 PUSH1 0x40 ADD MLOAD DUP9 PUSH1 0x60 ADD MLOAD DUP10 PUSH1 0x80 ADD MLOAD DUP11 PUSH1 0xA0 ADD MLOAD DUP12 PUSH1 0xC0 ADD MLOAD DUP13 PUSH1 0xE0 ADD MLOAD DUP14 PUSH2 0x100 ADD MLOAD DUP15 PUSH2 0x120 ADD MLOAD DUP16 PUSH2 0x140 ADD MLOAD PUSH1 0x40 MLOAD PUSH2 0x5FC SWAP12 SWAP11 SWAP10 SWAP9 SWAP8 SWAP7 SWAP6 SWAP5 SWAP4 SWAP3 SWAP2 SWAP1 PUSH2 0x2CE9 JUMP JUMPDEST PUSH1 0x40 MLOAD DUP1 SWAP2 SUB SWAP1 LOG1 DUP1 PUSH20 0xFFFFFFFFFFFFFFFFFFFFFFFFFFFFFFFFFFFFFFFF AND PUSH4 0xA8F9B0AF DUP7 PUSH1 0x40 MLOAD DUP3 PUSH4 0xFFFFFFFF AND PUSH1 0xE0 SHL DUP2 MSTORE PUSH1 0x4 ADD PUSH2 0x63D SWAP2 SWAP1 PUSH2 0x2F03 JUMP JUMPDEST PUSH0 PUSH1 0x40 MLOAD DUP1 DUP4 SUB DUP2 PUSH0 DUP8 DUP1 EXTCODESIZE ISZERO DUP1 ISZERO PUSH2 0x654 JUMPI PUSH0 PUSH0 REVERT JUMPDEST POP GAS CALL ISZERO DUP1 ISZERO PUSH2 0x666 JUMPI RETURNDATASIZE PUSH0 PUSH0 RETURNDATACOPY RETURNDATASIZE PUSH0 REVERT JUMPDEST POP POP POP POP POP POP POP POP POP POP POP JUMP JUMPDEST PUSH0 PUSH1 0x20 MSTORE DUP3 PUSH0 MSTORE PUSH1 0x40 PUSH0 KECCAK256 PUSH1 0x20 MSTORE DUP2 PUSH0 MSTORE PUSH1 0x40 PUSH0 KECCAK256 PUSH1 0x20 MSTORE DUP1 PUSH0 MSTORE PUSH1 0x40 PUSH0 KECCAK256 PUSH0 SWAP3 POP SWAP3 POP POP SWAP1 SLOAD SWAP1 PUSH2 0x100 EXP SWAP1 DIV PUSH20 0xFFFFFFFFFFFFFFFFFFFFFFFFFFFFFFFFFFFFFFFF AND DUP2 JUMP JUMPDEST PUSH1 0x60 PUSH0 DUP3 SUB PUSH2 0x6C9 JUMPI PUSH2 0x12C SWAP2 POP JUMPDEST PUSH0 PUSH2 0x6D3 DUP5 PUSH2 0x1606 JUMP JUMPDEST SWAP1 POP PUSH0 DUP6 PUSH1 0x40 MLOAD PUSH1 0x20 ADD PUSH2 0x6E7 SWAP2 SWAP1 PUSH2 0x2851 JUMP JUMPDEST PUSH1 0x40 MLOAD PUSH1 0x20 DUP2 DUP4 SUB SUB DUP2 MSTORE SWAP1 PUSH1 0x40 MSTORE DUP1 MLOAD SWAP1 PUSH1 0x20 ADD KECCAK256 SWAP1 POP PUSH0 PUSH2 0x3E8 TIMESTAMP PUSH2 0x70E SWAP2 SWAP1 PUSH2 0x2F50 JUMP JUMPDEST SWAP1 POP PUSH0 PUSH2 0x71B DUP5 DUP4 PUSH2 0x1216 JUMP JUMPDEST SWAP1 POP PUSH0 PUSH2 0x727 DUP6 PUSH2 0xEAB JUMP JUMPDEST SWAP1 POP PUSH0 DUP8 PUSH8 0xFFFFFFFFFFFFFFFF DUP2 GT ISZERO PUSH2 0x744 JUMPI PUSH2 0x743 PUSH2 0x1CD0 JUMP JUMPDEST JUMPDEST PUSH1 0x40 MLOAD SWAP1 DUP1 DUP3 MSTORE DUP1 PUSH1 0x20 MUL PUSH1 0x20 ADD DUP3 ADD PUSH1 0x40 MSTORE DUP1 ISZERO PUSH2 0x77D JUMPI DUP2 PUSH1 0x20 ADD JUMPDEST PUSH2 0x76A PUSH2 0x1C25 JUMP JUMPDEST DUP2 MSTORE PUSH1 0x20 ADD SWAP1 PUSH1 0x1 SWAP1 SUB SWAP1 DUP2 PUSH2 0x762 JUMPI SWAP1 POP JUMPDEST POP SWAP1 POP PUSH0 PUSH0 SWAP1 POP JUMPDEST PUSH1 0x1 ISZERO PUSH2 0x985 JUMPI PUSH0 PUSH0 PUSH0 DUP9 DUP2 MSTORE PUSH1 0x20 ADD SWAP1 DUP2 MSTORE PUSH1 0x20 ADD PUSH0 KECCAK256 PUSH0 DUP10 PUSH1 0xF DUP2 GT ISZERO PUSH2 0x7B1 JUMPI PUSH2 0x7B0 PUSH2 0x278B JUMP JUMPDEST JUMPDEST PUSH1 0xF DUP2 GT ISZERO PUSH2 0x7C3 JUMPI PUSH2 0x7C2 PUSH2 0x278B JUMP JUMPDEST JUMPDEST DUP2 MSTORE PUSH1 0x20 ADD SWAP1 DUP2 MSTORE PUSH1 0x20 ADD PUSH0 KECCAK256 PUSH0 DUP7 PUSH8 0xFFFFFFFFFFFFFFFF AND PUSH8 0xFFFFFFFFFFFFFFFF AND DUP2 MSTORE PUSH1 0x20 ADD SWAP1 DUP2 MSTORE PUSH1 0x20 ADD PUSH0 KECCAK256 PUSH0 SWAP1 SLOAD SWAP1 PUSH2 0x100 EXP SWAP1 DIV PUSH20 0xFFFFFFFFFFFFFFFFFFFFFFFFFFFFFFFFFFFFFFFF AND SWAP1 POP PUSH0 PUSH20 0xFFFFFFFFFFFFFFFFFFFFFFFFFFFFFFFFFFFFFFFF AND DUP2 PUSH20 0xFFFFFFFFFFFFFFFFFFFFFFFFFFFFFFFFFFFFFFFF AND EQ PUSH2 0x93C JUMPI PUSH0 DUP2 PUSH20 0xFFFFFFFFFFFFFFFFFFFFFFFFFFFFFFFFFFFFFFFF AND PUSH4 0xEA6C8353 PUSH1 0x40 MLOAD DUP2 PUSH4 0xFFFFFFFF AND PUSH1 0xE0 SHL DUP2 MSTORE PUSH1 0x4 ADD PUSH0 PUSH1 0x40 MLOAD DUP1 DUP4 SUB DUP2 DUP7 GAS STATICCALL ISZERO DUP1 ISZERO PUSH2 0x891 JUMPI RETURNDATASIZE PUSH0 PUSH0 RETURNDATACOPY RETURNDATASIZE PUSH0 REVERT JUMPDEST POP POP POP POP PUSH1 0x40 MLOAD RETURNDATASIZE PUSH0 DUP3 RETURNDATACOPY RETURNDATASIZE PUSH1 0x1F NOT PUSH1 0x1F DUP3 ADD AND DUP3 ADD DUP1 PUSH1 0x40 MSTORE POP DUP2 ADD SWAP1 PUSH2 0x8B9 SWAP2 SWAP1 PUSH2 0x2BFA JUMP JUMPDEST SWAP1 POP PUSH0 DUP2 MLOAD SWAP1 POP JUMPDEST PUSH0 DUP2 GT ISZERO PUSH2 0x935 JUMPI DUP12 DUP5 SUB ISZERO PUSH2 0x935 JUMPI DUP2 PUSH1 0x1 DUP3 PUSH2 0x8DF SWAP2 SWAP1 PUSH2 0x2F91 JUMP JUMPDEST DUP2 MLOAD DUP2 LT PUSH2 0x8F0 JUMPI PUSH2 0x8EF PUSH2 0x2FC4 JUMP JUMPDEST JUMPDEST PUSH1 0x20 MUL PUSH1 0x20 ADD ADD MLOAD DUP6 DUP6 DUP1 PUSH2 0x904 SWAP1 PUSH2 0x2FF1 JUMP JUMPDEST SWAP7 POP DUP2 MLOAD DUP2 LT PUSH2 0x917 JUMPI PUSH2 0x916 PUSH2 0x2FC4 JUMP JUMPDEST JUMPDEST PUSH1 0x20 MUL PUSH1 0x20 ADD ADD DUP2 SWAP1 MSTORE POP DUP1 DUP1 PUSH2 0x92D SWAP1 PUSH2 0x3038 JUMP JUMPDEST SWAP2 POP POP PUSH2 0x8C1 JUMP JUMPDEST POP POP PUSH2 0x942 JUMP JUMPDEST POP PUSH2 0x985 JUMP JUMPDEST DUP10 DUP3 LT PUSH2 0x94F JUMPI POP PUSH2 0x985 JUMP JUMPDEST DUP4 PUSH8 0xFFFFFFFFFFFFFFFF AND DUP6 PUSH8 0xFFFFFFFFFFFFFFFF AND LT ISZERO PUSH2 0x971 JUMPI POP PUSH2 0x985 JUMP JUMPDEST DUP4 DUP6 PUSH2 0x97D SWAP2 SWAP1 PUSH2 0x305F JUMP JUMPDEST SWAP5 POP POP PUSH2 0x785 JUMP JUMPDEST DUP1 PUSH8 0xFFFFFFFFFFFFFFFF DUP2 GT ISZERO PUSH2 0x99F JUMPI PUSH2 0x99E PUSH2 0x1CD0 JUMP JUMPDEST JUMPDEST PUSH1 0x40 MLOAD SWAP1 DUP1 DUP3 MSTORE DUP1 PUSH1 0x20 MUL PUSH1 0x20 ADD DUP3 ADD PUSH1 0x40 MSTORE DUP1 ISZERO PUSH2 0x9D8 JUMPI DUP2 PUSH1 0x20 ADD JUMPDEST PUSH2 0x9C5 PUSH2 0x1C25 JUMP JUMPDEST DUP2 MSTORE PUSH1 0x20 ADD SWAP1 PUSH1 0x1 SWAP1 SUB SWAP1 DUP2 PUSH2 0x9BD JUMPI SWAP1 POP JUMPDEST POP SWAP8 POP PUSH0 PUSH0 SWAP1 POP JUMPDEST DUP2 DUP2 LT ISZERO PUSH2 0xA2E JUMPI DUP3 DUP2 DUP2 MLOAD DUP2 LT PUSH2 0x9FB JUMPI PUSH2 0x9FA PUSH2 0x2FC4 JUMP JUMPDEST JUMPDEST PUSH1 0x20 MUL PUSH1 0x20 ADD ADD MLOAD DUP10 DUP3 DUP2 MLOAD DUP2 LT PUSH2 0xA16 JUMPI PUSH2 0xA15 PUSH2 0x2FC4 JUMP JUMPDEST JUMPDEST PUSH1 0x20 MUL PUSH1 0x20 ADD ADD DUP2 SWAP1 MSTORE POP DUP1 DUP1 PUSH1 0x1 ADD SWAP2 POP POP PUSH2 0x9E0 JUMP JUMPDEST POP POP POP POP POP POP POP POP SWAP4 SWAP3 POP POP POP JUMP JUMPDEST PUSH1 0x60 PUSH0 PUSH2 0xA49 DUP7 PUSH2 0x1606 JUMP JUMPDEST SWAP1 POP PUSH0 DUP8 PUSH1 0x40 MLOAD PUSH1 0x20 ADD PUSH2 0xA5D SWAP2 SWAP1 PUSH2 0x2851 JUMP JUMPDEST PUSH1 0x40 MLOAD PUSH1 0x20 DUP2 DUP4 SUB SUB DUP2 MSTORE SWAP1 PUSH1 0x40 MSTORE DUP1 MLOAD SWAP1 PUSH1 0x20 ADD KECCAK256 SWAP1 POP PUSH0 PUSH2 0xA81 DUP4 DUP9 DUP9 PUSH2 0x1A19 JUMP JUMPDEST SWAP1 POP PUSH0 PUSH0 DUP7 PUSH8 0xFFFFFFFFFFFFFFFF DUP2 GT ISZERO PUSH2 0xA9F JUMPI PUSH2 0xA9E PUSH2 0x1CD0 JUMP JUMPDEST JUMPDEST PUSH1 0x40 MLOAD SWAP1 DUP1 DUP3 MSTORE DUP1 PUSH1 0x20 MUL PUSH1 0x20 ADD DUP3 ADD PUSH1 0x40 MSTORE DUP1 ISZERO PUSH2 0xAD8 JUMPI DUP2 PUSH1 0x20 ADD JUMPDEST PUSH2 0xAC5 PUSH2 0x1C25 JUMP JUMPDEST DUP2 MSTORE PUSH1 0x20 ADD SWAP1 PUSH1 0x1 SWAP1 SUB SWAP1 DUP2 PUSH2 0xABD JUMPI SWAP1 POP JUMPDEST POP SWAP1 POP PUSH0 PUSH0 SWAP1 POP JUMPDEST DUP4 MLOAD DUP2 LT ISZERO PUSH2 0xDD5 JUMPI PUSH0 PUSH0 PUSH0 DUP8 DUP2 MSTORE PUSH1 0x20 ADD SWAP1 DUP2 MSTORE PUSH1 0x20 ADD PUSH0 KECCAK256 PUSH0 DUP9 PUSH1 0xF DUP2 GT ISZERO PUSH2 0xB0E JUMPI PUSH2 0xB0D PUSH2 0x278B JUMP JUMPDEST JUMPDEST PUSH1 0xF DUP2 GT ISZERO PUSH2 0xB20 JUMPI PUSH2 0xB1F PUSH2 0x278B JUMP JUMPDEST JUMPDEST DUP2 MSTORE PUSH1 0x20 ADD SWAP1 DUP2 MSTORE PUSH1 0x20 ADD PUSH0 KECCAK256 PUSH0 DUP7 DUP5 DUP2 MLOAD DUP2 LT PUSH2 0xB41 JUMPI PUSH2 0xB40 PUSH2 0x2FC4 JUMP JUMPDEST JUMPDEST PUSH1 0x20 MUL PUSH1 0x20 ADD ADD MLOAD PUSH8 0xFFFFFFFFFFFFFFFF AND PUSH8 0xFFFFFFFFFFFFFFFF AND DUP2 MSTORE PUSH1 0x20 ADD SWAP1 DUP2 MSTORE PUSH1 0x20 ADD PUSH0 KECCAK256 PUSH0 SWAP1 SLOAD SWAP1 PUSH2 0x100 EXP SWAP1 DIV PUSH20 0xFFFFFFFFFFFFFFFFFFFFFFFFFFFFFFFFFFFFFFFF AND SWAP1 POP PUSH0 PUSH20 0xFFFFFFFFFFFFFFFFFFFFFFFFFFFFFFFFFFFFFFFF AND DUP2 PUSH20 0xFFFFFFFFFFFFFFFFFFFFFFFFFFFFFFFFFFFFFFFF AND SUB PUSH2 0xBC5 JUMPI POP PUSH2 0xDC8 JUMP JUMPDEST PUSH2 0xC28 PUSH1 0x40 MLOAD DUP1 PUSH1 0x40 ADD PUSH1 0x40 MSTORE DUP1 PUSH1 0x6 DUP2 MSTORE PUSH1 0x20 ADD PUSH32 0x54696D653A200000000000000000000000000000000000000000000000000000 DUP2 MSTORE POP DUP7 DUP5 DUP2 MLOAD DUP2 LT PUSH2 0xC11 JUMPI PUSH2 0xC10 PUSH2 0x2FC4 JUMP JUMPDEST JUMPDEST PUSH1 0x20 MUL PUSH1 0x20 ADD ADD MLOAD PUSH8 0xFFFFFFFFFFFFFFFF AND PUSH2 0x1B38 JUMP JUMPDEST PUSH0 DUP2 PUSH20 0xFFFFFFFFFFFFFFFFFFFFFFFFFFFFFFFFFFFFFFFF AND PUSH4 0xEA6C8353 PUSH1 0x40 MLOAD DUP2 PUSH4 0xFFFFFFFF AND PUSH1 0xE0 SHL DUP2 MSTORE PUSH1 0x4 ADD PUSH0 PUSH1 0x40 MLOAD DUP1 DUP4 SUB DUP2 DUP7 GAS STATICCALL ISZERO DUP1 ISZERO PUSH2 0xC71 JUMPI RETURNDATASIZE PUSH0 PUSH0 RETURNDATACOPY RETURNDATASIZE PUSH0 REVERT JUMPDEST POP POP POP POP PUSH1 0x40 MLOAD RETURNDATASIZE PUSH0 DUP3 RETURNDATACOPY RETURNDATASIZE PUSH1 0x1F NOT PUSH1 0x1F DUP3 ADD AND DUP3 ADD DUP1 PUSH1 0x40 MSTORE POP DUP2 ADD SWAP1 PUSH2 0xC99 SWAP2 SWAP1 PUSH2 0x2BFA JUMP JUMPDEST SWAP1 POP PUSH0 DUP2 MLOAD SWAP1 POP JUMPDEST PUSH0 DUP2 GT ISZERO PUSH2 0xDB6 JUMPI PUSH0 DUP3 PUSH1 0x1 DUP4 PUSH2 0xCB8 SWAP2 SWAP1 PUSH2 0x2F91 JUMP JUMPDEST DUP2 MLOAD DUP2 LT PUSH2 0xCC9 JUMPI PUSH2 0xCC8 PUSH2 0x2FC4 JUMP JUMPDEST JUMPDEST PUSH1 0x20 MUL PUSH1 0x20 ADD ADD MLOAD SWAP1 POP DUP14 PUSH8 0xFFFFFFFFFFFFFFFF AND DUP2 PUSH0 ADD MLOAD PUSH8 0xFFFFFFFFFFFFFFFF AND LT ISZERO PUSH2 0xCF8 JUMPI POP PUSH2 0xDA3 JUMP JUMPDEST DUP13 PUSH8 0xFFFFFFFFFFFFFFFF AND DUP2 PUSH0 ADD MLOAD PUSH8 0xFFFFFFFFFFFFFFFF AND GT ISZERO PUSH2 0xD1D JUMPI POP PUSH2 0xDA3 JUMP JUMPDEST DUP1 DUP7 DUP9 DUP1 PUSH2 0xD2A SWAP1 PUSH2 0x2FF1 JUMP JUMPDEST SWAP10 POP DUP2 MLOAD DUP2 LT PUSH2 0xD3D JUMPI PUSH2 0xD3C PUSH2 0x2FC4 JUMP JUMPDEST JUMPDEST PUSH1 0x20 MUL PUSH1 0x20 ADD ADD DUP2 SWAP1 MSTORE POP PUSH2 0xD94 PUSH1 0x40 MLOAD DUP1 PUSH1 0x40 ADD PUSH1 0x40 MSTORE DUP1 PUSH1 0xA DUP2 MSTORE PUSH1 0x20 ADD PUSH32 0x656C656D2074696D653A00000000000000000000000000000000000000000000 DUP2 MSTORE POP DUP3 PUSH0 ADD MLOAD PUSH8 0xFFFFFFFFFFFFFFFF AND PUSH2 0x1B38 JUMP JUMPDEST DUP12 DUP8 SUB PUSH2 0xDA1 JUMPI POP PUSH2 0xDB6 JUMP JUMPDEST POP JUMPDEST DUP1 DUP1 PUSH2 0xDAE SWAP1 PUSH2 0x3038 JUMP JUMPDEST SWAP2 POP POP PUSH2 0xCA1 JUMP JUMPDEST POP DUP10 DUP6 SUB PUSH2 0xDC5 JUMPI POP POP PUSH2 0xDD5 JUMP JUMPDEST POP POP JUMPDEST DUP1 DUP1 PUSH1 0x1 ADD SWAP2 POP POP PUSH2 0xAE0 JUMP JUMPDEST POP DUP2 PUSH8 0xFFFFFFFFFFFFFFFF DUP2 GT ISZERO PUSH2 0xDF0 JUMPI PUSH2 0xDEF PUSH2 0x1CD0 JUMP JUMPDEST JUMPDEST PUSH1 0x40 MLOAD SWAP1 DUP1 DUP3 MSTORE DUP1 PUSH1 0x20 MUL PUSH1 0x20 ADD DUP3 ADD PUSH1 0x40 MSTORE DUP1 ISZERO PUSH2 0xE29 JUMPI DUP2 PUSH1 0x20 ADD JUMPDEST PUSH2 0xE16 PUSH2 0x1C25 JUMP JUMPDEST DUP2 MSTORE PUSH1 0x20 ADD SWAP1 PUSH1 0x1 SWAP1 SUB SWAP1 DUP2 PUSH2 0xE0E JUMPI SWAP1 POP JUMPDEST POP SWAP6 POP PUSH0 DUP3 SWAP1 POP JUMPDEST PUSH0 DUP2 GT ISZERO PUSH2 0xE9C JUMPI DUP2 PUSH1 0x1 DUP3 PUSH2 0xE47 SWAP2 SWAP1 PUSH2 0x2F91 JUMP JUMPDEST DUP2 MLOAD DUP2 LT PUSH2 0xE58 JUMPI PUSH2 0xE57 PUSH2 0x2FC4 JUMP JUMPDEST JUMPDEST PUSH1 0x20 MUL PUSH1 0x20 ADD ADD MLOAD DUP8 DUP3 DUP6 PUSH2 0xE6D SWAP2 SWAP1 PUSH2 0x2F91 JUMP JUMPDEST DUP2 MLOAD DUP2 LT PUSH2 0xE7E JUMPI PUSH2 0xE7D PUSH2 0x2FC4 JUMP JUMPDEST JUMPDEST PUSH1 0x20 MUL PUSH1 0x20 ADD ADD DUP2 SWAP1 MSTORE POP DUP1 DUP1 PUSH2 0xE94 SWAP1 PUSH2 0x3038 JUMP JUMPDEST SWAP2 POP POP PUSH2 0xE31 JUMP JUMPDEST POP POP POP POP POP POP SWAP6 SWAP5 POP POP POP POP POP JUMP JUMPDEST PUSH0 PUSH0 PUSH1 0xF DUP2 GT ISZERO PUSH2 0xEBF JUMPI PUSH2 0xEBE PUSH2 0x278B JUMP JUMPDEST JUMPDEST DUP3 PUSH1 0xF DUP2 GT ISZERO PUSH2 0xED2 JUMPI PUSH2 0xED1 PUSH2 0x278B JUMP JUMPDEST JUMPDEST SUB PUSH2 0xEE2 JUMPI PUSH3 0x36EE80 SWAP1 POP PUSH2 0x1211 JUMP JUMPDEST PUSH1 0x1 PUSH1 0xF DUP2 GT ISZERO PUSH2 0xEF6 JUMPI PUSH2 0xEF5 PUSH2 0x278B JUMP JUMPDEST JUMPDEST DUP3 PUSH1 0xF DUP2 GT ISZERO PUSH2 0xF09 JUMPI PUSH2 0xF08 PUSH2 0x278B JUMP JUMPDEST JUMPDEST EQ DUP1 PUSH2 0xF39 JUMPI POP PUSH1 0x2 PUSH1 0xF DUP2 GT ISZERO PUSH2 0xF24 JUMPI PUSH2 0xF23 PUSH2 0x278B JUMP JUMPDEST JUMPDEST DUP3 PUSH1 0xF DUP2 GT ISZERO PUSH2 0xF37 JUMPI PUSH2 0xF36 PUSH2 0x278B JUMP JUMPDEST JUMPDEST EQ JUMPDEST DUP1 PUSH2 0xF68 JUMPI POP PUSH1 0x3 PUSH1 0xF DUP2 GT ISZERO PUSH2 0xF53 JUMPI PUSH2 0xF52 PUSH2 0x278B JUMP JUMPDEST JUMPDEST DUP3 PUSH1 0xF DUP2 GT ISZERO PUSH2 0xF66 JUMPI PUSH2 0xF65 PUSH2 0x278B JUMP JUMPDEST JUMPDEST EQ JUMPDEST ISZERO PUSH2 0xF79 JUMPI PUSH4 0x5265C00 SWAP1 POP PUSH2 0x1211 JUMP JUMPDEST PUSH1 0x4 PUSH1 0xF DUP2 GT ISZERO PUSH2 0xF8D JUMPI PUSH2 0xF8C PUSH2 0x278B JUMP JUMPDEST JUMPDEST DUP3 PUSH1 0xF DUP2 GT ISZERO PUSH2 0xFA0 JUMPI PUSH2 0xF9F PUSH2 0x278B JUMP JUMPDEST JUMPDEST EQ DUP1 PUSH2 0xFD0 JUMPI POP PUSH1 0x5 PUSH1 0xF DUP2 GT ISZERO PUSH2 0xFBB JUMPI PUSH2 0xFBA PUSH2 0x278B JUMP JUMPDEST JUMPDEST DUP3 PUSH1 0xF DUP2 GT ISZERO PUSH2 0xFCE JUMPI PUSH2 0xFCD PUSH2 0x278B JUMP JUMPDEST JUMPDEST EQ JUMPDEST DUP1 PUSH2 0xFFF JUMPI POP PUSH1 0x6 PUSH1 0xF DUP2 GT ISZERO PUSH2 0xFEA JUMPI PUSH2 0xFE9 PUSH2 0x278B JUMP JUMPDEST JUMPDEST DUP3 PUSH1 0xF DUP2 GT ISZERO PUSH2 0xFFD JUMPI PUSH2 0xFFC PUSH2 0x278B JUMP JUMPDEST JUMPDEST EQ JUMPDEST DUP1 PUSH2 0x102E JUMPI POP PUSH1 0x7 PUSH1 0xF DUP2 GT ISZERO PUSH2 0x1019 JUMPI PUSH2 0x1018 PUSH2 0x278B JUMP JUMPDEST JUMPDEST DUP3 PUSH1 0xF DUP2 GT ISZERO PUSH2 0x102C JUMPI PUSH2 0x102B PUSH2 0x278B JUMP JUMPDEST JUMPDEST EQ JUMPDEST ISZERO PUSH2 0x103F JUMPI PUSH4 0x240C8400 SWAP1 POP PUSH2 0x1211 JUMP JUMPDEST PUSH1 0x8 PUSH1 0xF DUP2 GT ISZERO PUSH2 0x1053 JUMPI PUSH2 0x1052 PUSH2 0x278B JUMP JUMPDEST JUMPDEST DUP3 PUSH1 0xF DUP2 GT ISZERO PUSH2 0x1066 JUMPI PUSH2 0x1065 PUSH2 0x278B JUMP JUMPDEST JUMPDEST EQ DUP1 PUSH2 0x1096 JUMPI POP PUSH1 0x9 PUSH1 0xF DUP2 GT ISZERO PUSH2 0x1081 JUMPI PUSH2 0x1080 PUSH2 0x278B JUMP JUMPDEST JUMPDEST DUP3 PUSH1 0xF DUP2 GT ISZERO PUSH2 0x1094 JUMPI PUSH2 0x1093 PUSH2 0x278B JUMP JUMPDEST JUMPDEST EQ JUMPDEST DUP1 PUSH2 0x10C5 JUMPI POP PUSH1 0xA PUSH1 0xF DUP2 GT ISZERO PUSH2 0x10B0 JUMPI PUSH2 0x10AF PUSH2 0x278B JUMP JUMPDEST JUMPDEST DUP3 PUSH1 0xF DUP2 GT ISZERO PUSH2 0x10C3 JUMPI PUSH2 0x10C2 PUSH2 0x278B JUMP JUMPDEST JUMPDEST EQ JUMPDEST DUP1 PUSH2 0x10F4 JUMPI POP PUSH1 0xB PUSH1 0xF DUP2 GT ISZERO PUSH2 0x10DF JUMPI PUSH2 0x10DE PUSH2 0x278B JUMP JUMPDEST JUMPDEST DUP3 PUSH1 0xF DUP2 GT ISZERO PUSH2 0x10F2 JUMPI PUSH2 0x10F1 PUSH2 0x278B JUMP JUMPDEST JUMPDEST EQ JUMPDEST ISZERO PUSH2 0x1105 JUMPI PUSH4 0x9A7EC800 SWAP1 POP PUSH2 0x1211 JUMP JUMPDEST PUSH1 0xC PUSH1 0xF DUP2 GT ISZERO PUSH2 0x1119 JUMPI PUSH2 0x1118 PUSH2 0x278B JUMP JUMPDEST JUMPDEST DUP3 PUSH1 0xF DUP2 GT ISZERO PUSH2 0x112C JUMPI PUSH2 0x112B PUSH2 0x278B JUMP JUMPDEST JUMPDEST EQ DUP1 PUSH2 0x115C JUMPI POP PUSH1 0xD PUSH1 0xF DUP2 GT ISZERO PUSH2 0x1147 JUMPI PUSH2 0x1146 PUSH2 0x278B JUMP JUMPDEST JUMPDEST DUP3 PUSH1 0xF DUP2 GT ISZERO PUSH2 0x115A JUMPI PUSH2 0x1159 PUSH2 0x278B JUMP JUMPDEST JUMPDEST EQ JUMPDEST ISZERO PUSH2 0x116E JUMPI PUSH5 0x1CF7C5800 SWAP1 POP PUSH2 0x1211 JUMP JUMPDEST PUSH1 0xE PUSH1 0xF DUP2 GT ISZERO PUSH2 0x1182 JUMPI PUSH2 0x1181 PUSH2 0x278B JUMP JUMPDEST JUMPDEST DUP3 PUSH1 0xF DUP2 GT ISZERO PUSH2 0x1195 JUMPI PUSH2 0x1194 PUSH2 0x278B JUMP JUMPDEST JUMPDEST EQ DUP1 PUSH2 0x11C4 JUMPI POP PUSH1 0xF DUP1 DUP2 GT ISZERO PUSH2 0x11AF JUMPI PUSH2 0x11AE PUSH2 0x278B JUMP JUMPDEST JUMPDEST DUP3 PUSH1 0xF DUP2 GT ISZERO PUSH2 0x11C2 JUMPI PUSH2 0x11C1 PUSH2 0x278B JUMP JUMPDEST JUMPDEST EQ JUMPDEST ISZERO PUSH2 0x11D6 JUMPI PUSH5 0x757B12C00 SWAP1 POP PUSH2 0x1211 JUMP JUMPDEST PUSH1 0x40 MLOAD PUSH32 0x8C379A000000000000000000000000000000000000000000000000000000000 DUP2 MSTORE PUSH1 0x4 ADD PUSH2 0x1208 SWAP1 PUSH2 0x30E4 JUMP JUMPDEST PUSH1 0x40 MLOAD DUP1 SWAP2 SUB SWAP1 REVERT JUMPDEST SWAP2 SWAP1 POP JUMP JUMPDEST PUSH0 PUSH0 PUSH1 0xF DUP2 GT ISZERO PUSH2 0x122A JUMPI PUSH2 0x1229 PUSH2 0x278B JUMP JUMPDEST JUMPDEST DUP4 PUSH1 0xF DUP2 GT ISZERO PUSH2 0x123D JUMPI PUSH2 0x123C PUSH2 0x278B JUMP JUMPDEST JUMPDEST SUB PUSH2 0x1263 JUMPI PUSH3 0x36EE80 DUP1 DUP4 PUSH2 0x1252 SWAP2 SWAP1 PUSH2 0x312F JUMP JUMPDEST PUSH2 0x125C SWAP2 SWAP1 PUSH2 0x315F JUMP JUMPDEST SWAP1 POP PUSH2 0x1600 JUMP JUMPDEST PUSH1 0x1 PUSH1 0xF DUP2 GT ISZERO PUSH2 0x1277 JUMPI PUSH2 0x1276 PUSH2 0x278B JUMP JUMPDEST JUMPDEST DUP4 PUSH1 0xF DUP2 GT ISZERO PUSH2 0x128A JUMPI PUSH2 0x1289 PUSH2 0x278B JUMP JUMPDEST JUMPDEST EQ DUP1 PUSH2 0x12BA JUMPI POP PUSH1 0x2 PUSH1 0xF DUP2 GT ISZERO PUSH2 0x12A5 JUMPI PUSH2 0x12A4 PUSH2 0x278B JUMP JUMPDEST JUMPDEST DUP4 PUSH1 0xF DUP2 GT ISZERO PUSH2 0x12B8 JUMPI PUSH2 0x12B7 PUSH2 0x278B JUMP JUMPDEST JUMPDEST EQ JUMPDEST DUP1 PUSH2 0x12E9 JUMPI POP PUSH1 0x3 PUSH1 0xF DUP2 GT ISZERO PUSH2 0x12D4 JUMPI PUSH2 0x12D3 PUSH2 0x278B JUMP JUMPDEST JUMPDEST DUP4 PUSH1 0xF DUP2 GT ISZERO PUSH2 0x12E7 JUMPI PUSH2 0x12E6 PUSH2 0x278B JUMP JUMPDEST JUMPDEST EQ JUMPDEST ISZERO PUSH2 0x1310 JUMPI PUSH4 0x5265C00 DUP1 DUP4 PUSH2 0x12FF SWAP2 SWAP1 PUSH2 0x312F JUMP JUMPDEST PUSH2 0x1309 SWAP2 SWAP1 PUSH2 0x315F JUMP JUMPDEST SWAP1 POP PUSH2 0x1600 JUMP JUMPDEST PUSH1 0x4 PUSH1 0xF DUP2 GT ISZERO PUSH2 0x1324 JUMPI PUSH2 0x1323 PUSH2 0x278B JUMP JUMPDEST JUMPDEST DUP4 PUSH1 0xF DUP2 GT ISZERO PUSH2 0x1337 JUMPI PUSH2 0x1336 PUSH2 0x278B JUMP JUMPDEST JUMPDEST EQ DUP1 PUSH2 0x1367 JUMPI POP PUSH1 0x5 PUSH1 0xF DUP2 GT ISZERO PUSH2 0x1352 JUMPI PUSH2 0x1351 PUSH2 0x278B JUMP JUMPDEST JUMPDEST DUP4 PUSH1 0xF DUP2 GT ISZERO PUSH2 0x1365 JUMPI PUSH2 0x1364 PUSH2 0x278B JUMP JUMPDEST JUMPDEST EQ JUMPDEST DUP1 PUSH2 0x1396 JUMPI POP PUSH1 0x6 PUSH1 0xF DUP2 GT ISZERO PUSH2 0x1381 JUMPI PUSH2 0x1380 PUSH2 0x278B JUMP JUMPDEST JUMPDEST DUP4 PUSH1 0xF DUP2 GT ISZERO PUSH2 0x1394 JUMPI PUSH2 0x1393 PUSH2 0x278B JUMP JUMPDEST JUMPDEST EQ JUMPDEST DUP1 PUSH2 0x13C5 JUMPI POP PUSH1 0x7 PUSH1 0xF DUP2 GT ISZERO PUSH2 0x13B0 JUMPI PUSH2 0x13AF PUSH2 0x278B JUMP JUMPDEST JUMPDEST DUP4 PUSH1 0xF DUP2 GT ISZERO PUSH2 0x13C3 JUMPI PUSH2 0x13C2 PUSH2 0x278B JUMP JUMPDEST JUMPDEST EQ JUMPDEST ISZERO PUSH2 0x13EC JUMPI PUSH4 0x240C8400 DUP1 DUP4 PUSH2 0x13DB SWAP2 SWAP1 PUSH2 0x312F JUMP JUMPDEST PUSH2 0x13E5 SWAP2 SWAP1 PUSH2 0x315F JUMP JUMPDEST SWAP1 POP PUSH2 0x1600 JUMP JUMPDEST PUSH1 0x8 PUSH1 0xF DUP2 GT ISZERO PUSH2 0x1400 JUMPI PUSH2 0x13FF PUSH2 0x278B JUMP JUMPDEST JUMPDEST DUP4 PUSH1 0xF DUP2 GT ISZERO PUSH2 0x1413 JUMPI PUSH2 0x1412 PUSH2 0x278B JUMP JUMPDEST JUMPDEST EQ DUP1 PUSH2 0x1443 JUMPI POP PUSH1 0x9 PUSH1 0xF DUP2 GT ISZERO PUSH2 0x142E JUMPI PUSH2 0x142D PUSH2 0x278B JUMP JUMPDEST JUMPDEST DUP4 PUSH1 0xF DUP2 GT ISZERO PUSH2 0x1441 JUMPI PUSH2 0x1440 PUSH2 0x278B JUMP JUMPDEST JUMPDEST EQ JUMPDEST DUP1 PUSH2 0x1472 JUMPI POP PUSH1 0xA PUSH1 0xF DUP2 GT ISZERO PUSH2 0x145D JUMPI PUSH2 0x145C PUSH2 0x278B JUMP JUMPDEST JUMPDEST DUP4 PUSH1 0xF DUP2 GT ISZERO PUSH2 0x1470 JUMPI PUSH2 0x146F PUSH2 0x278B JUMP JUMPDEST JUMPDEST EQ JUMPDEST DUP1 PUSH2 0x14A1 JUMPI POP PUSH1 0xB PUSH1 0xF DUP2 GT ISZERO PUSH2 0x148C JUMPI PUSH2 0x148B PUSH2 0x278B JUMP JUMPDEST JUMPDEST DUP4 PUSH1 0xF DUP2 GT ISZERO PUSH2 0x149F JUMPI PUSH2 0x149E PUSH2 0x278B JUMP JUMPDEST JUMPDEST EQ JUMPDEST ISZERO PUSH2 0x14C8 JUMPI PUSH4 0x9A7EC800 DUP1 DUP4 PUSH2 0x14B7 SWAP2 SWAP1 PUSH2 0x312F JUMP JUMPDEST PUSH2 0x14C1 SWAP2 SWAP1 PUSH2 0x315F JUMP JUMPDEST SWAP1 POP PUSH2 0x1600 JUMP JUMPDEST PUSH1 0xC PUSH1 0xF DUP2 GT ISZERO PUSH2 0x14DC JUMPI PUSH2 0x14DB PUSH2 0x278B JUMP JUMPDEST JUMPDEST DUP4 PUSH1 0xF DUP2 GT ISZERO PUSH2 0x14EF JUMPI PUSH2 0x14EE PUSH2 0x278B JUMP JUMPDEST JUMPDEST EQ DUP1 PUSH2 0x151F JUMPI POP PUSH1 0xD PUSH1 0xF DUP2 GT ISZERO PUSH2 0x150A JUMPI PUSH2 0x1509 PUSH2 0x278B JUMP JUMPDEST JUMPDEST DUP4 PUSH1 0xF DUP2 GT ISZERO PUSH2 0x151D JUMPI PUSH2 0x151C PUSH2 0x278B JUMP JUMPDEST JUMPDEST EQ JUMPDEST ISZERO PUSH2 0x1547 JUMPI PUSH5 0x1CF7C5800 DUP1 DUP4 PUSH2 0x1536 SWAP2 SWAP1 PUSH2 0x312F JUMP JUMPDEST PUSH2 0x1540 SWAP2 SWAP1 PUSH2 0x315F JUMP JUMPDEST SWAP1 POP PUSH2 0x1600 JUMP JUMPDEST PUSH1 0xE PUSH1 0xF DUP2 GT ISZERO PUSH2 0x155B JUMPI PUSH2 0x155A PUSH2 0x278B JUMP JUMPDEST JUMPDEST DUP4 PUSH1 0xF DUP2 GT ISZERO PUSH2 0x156E JUMPI PUSH2 0x156D PUSH2 0x278B JUMP JUMPDEST JUMPDEST EQ DUP1 PUSH2 0x159D JUMPI POP PUSH1 0xF DUP1 DUP2 GT ISZERO PUSH2 0x1588 JUMPI PUSH2 0x1587 PUSH2 0x278B JUMP JUMPDEST JUMPDEST DUP4 PUSH1 0xF DUP2 GT ISZERO PUSH2 0x159B JUMPI PUSH2 0x159A PUSH2 0x278B JUMP JUMPDEST JUMPDEST EQ JUMPDEST ISZERO PUSH2 0x15C5 JUMPI PUSH5 0x757B12C00 DUP1 DUP4 PUSH2 0x15B4 SWAP2 SWAP1 PUSH2 0x312F JUMP JUMPDEST PUSH2 0x15BE SWAP2 SWAP1 PUSH2 0x315F JUMP JUMPDEST SWAP1 POP PUSH2 0x1600 JUMP JUMPDEST PUSH1 0x40 MLOAD PUSH32 0x8C379A000000000000000000000000000000000000000000000000000000000 DUP2 MSTORE PUSH1 0x4 ADD PUSH2 0x15F7 SWAP1 PUSH2 0x30E4 JUMP JUMPDEST PUSH1 0x40 MLOAD DUP1 SWAP2 SUB SWAP1 REVERT JUMPDEST SWAP3 SWAP2 POP POP JUMP JUMPDEST PUSH0 PUSH0 DUP3 PUSH1 0x40 MLOAD PUSH1 0x20 ADD PUSH2 0x1619 SWAP2 SWAP1 PUSH2 0x2851 JUMP JUMPDEST PUSH1 0x40 MLOAD PUSH1 0x20 DUP2 DUP4 SUB SUB DUP2 MSTORE SWAP1 PUSH1 0x40 MSTORE DUP1 MLOAD SWAP1 PUSH1 0x20 ADD KECCAK256 SWAP1 POP PUSH32 0x6C9308EEEB72AAC61C6EE2086645EC6CF6638D86D97AF7B81BCF4073F3B95DBC DUP2 SUB PUSH2 0x1661 JUMPI PUSH0 SWAP2 POP POP PUSH2 0x197B JUMP JUMPDEST PUSH32 0x523A5C8A0F83A86997A616B324AE897D2FB6B3F5F68B3969331C12E0F00F9F25 DUP2 SUB PUSH2 0x1692 JUMPI PUSH1 0x1 SWAP2 POP POP PUSH2 0x197B JUMP JUMPDEST PUSH32 0x2A3FF2DFA7BD33B0E77D014065236A2F104B389B776645FDDB9E6A09EEA01441 DUP2 SUB PUSH2 0x16C3 JUMPI PUSH1 0x2 SWAP2 POP POP PUSH2 0x197B JUMP JUMPDEST PUSH32 0xFCA740C51A7536A1FF8F65314E26B24CEE265D7626AD2E39318898F3D501AC22 DUP2 SUB PUSH2 0x16F4 JUMPI PUSH1 0x3 SWAP2 POP POP PUSH2 0x197B JUMP JUMPDEST PUSH32 0x53CAD56A766A794BDC4FD49B262CD08FADF5C823F208FBF3F4EFB377C206EAAA DUP2 SUB PUSH2 0x1725 JUMPI PUSH1 0x4 SWAP2 POP POP PUSH2 0x197B JUMP JUMPDEST PUSH32 0xE99007FD2E286840683BFBAC2C1EA22A3B3C1592D603A9AE9AEE29CF77E941A7 DUP2 SUB PUSH2 0x1756 JUMPI PUSH1 0x5 SWAP2 POP POP PUSH2 0x197B JUMP JUMPDEST PUSH32 0x1125479F824FC31D0CE674B130E57A9DCFDF2D344CA1EF3FC8BF5BD50F9FCCA9 DUP2 SUB PUSH2 0x1787 JUMPI PUSH1 0x6 SWAP2 POP POP PUSH2 0x197B JUMP JUMPDEST PUSH32 0xA50F424F123435E4689C6436CE338980297CA65F2EE6B69A216F0561EE6CF400 DUP2 SUB PUSH2 0x17B8 JUMPI PUSH1 0x7 SWAP2 POP POP PUSH2 0x197B JUMP JUMPDEST PUSH32 0x9A433CC5A6AEE766B1BCE0A7DC72AB7B4FD031108E0C5AFEA91382F1B1955FC9 DUP2 SUB PUSH2 0x17E9 JUMPI PUSH1 0x8 SWAP2 POP POP PUSH2 0x197B JUMP JUMPDEST PUSH32 0xA0B83CFA5501E126AC29F6BF7A07BD17E2D97916947EED361748E8E0AB0ABA4D DUP2 SUB PUSH2 0x181A JUMPI PUSH1 0x9 SWAP2 POP POP PUSH2 0x197B JUMP JUMPDEST PUSH32 0xE21CCD2715134877C589435A9C98DEB14540FDF9E902AFEBF2163FE393E9C073 DUP2 SUB PUSH2 0x184B JUMPI PUSH1 0xA SWAP2 POP POP PUSH2 0x197B JUMP JUMPDEST PUSH32 0x11108661A127316F8F74DC39A66520C8EC16719ED867EE768AF67729BA3EC1D2 DUP2 SUB PUSH2 0x187C JUMPI PUSH1 0xB SWAP2 POP POP PUSH2 0x197B JUMP JUMPDEST PUSH32 0x7B2E5637DE8D5670BD5BE523FBCCC1DFEF88F0767EB2ABF5AC4A81DA61AE2002 DUP2 SUB PUSH2 0x18AD JUMPI PUSH1 0xC SWAP2 POP POP PUSH2 0x197B JUMP JUMPDEST PUSH32 0x1CEF0646E7FE7CB478D3A93D2E07774697C9239D0EE8B4294B768C91AF329E66 DUP2 SUB PUSH2 0x18DE JUMPI PUSH1 0xD SWAP2 POP POP PUSH2 0x197B JUMP JUMPDEST PUSH32 0x7CD5BA658B5DFF64585BFCB0DF7983749825E2292A4FF6DAF96207E6EB100FE7 DUP2 SUB PUSH2 0x190F JUMPI PUSH1 0xE SWAP2 POP POP PUSH2 0x197B JUMP JUMPDEST PUSH32 0xA390D73D5FD5E6A577D394328E26CE85589C6D8C382FBA9150FB136BBBF31FF7 DUP2 SUB PUSH2 0x1940 JUMPI PUSH1 0xF SWAP2 POP POP PUSH2 0x197B JUMP JUMPDEST PUSH1 0x40 MLOAD PUSH32 0x8C379A000000000000000000000000000000000000000000000000000000000 DUP2 MSTORE PUSH1 0x4 ADD PUSH2 0x1972 SWAP1 PUSH2 0x31E5 JUMP JUMPDEST PUSH1 0x40 MLOAD DUP1 SWAP2 SUB SWAP1 REVERT JUMPDEST SWAP2 SWAP1 POP JUMP JUMPDEST PUSH2 0x1A16 DUP2 PUSH1 0x40 MLOAD PUSH1 0x24 ADD PUSH2 0x1994 SWAP2 SWAP1 PUSH2 0x3203 JUMP JUMPDEST PUSH1 0x40 MLOAD PUSH1 0x20 DUP2 DUP4 SUB SUB DUP2 MSTORE SWAP1 PUSH1 0x40 MSTORE PUSH32 0x41304FAC00000000000000000000000000000000000000000000000000000000 PUSH28 0xFFFFFFFFFFFFFFFFFFFFFFFFFFFFFFFFFFFFFFFFFFFFFFFFFFFFFFFF NOT AND PUSH1 0x20 DUP3 ADD DUP1 MLOAD PUSH28 0xFFFFFFFFFFFFFFFFFFFFFFFFFFFFFFFFFFFFFFFFFFFFFFFFFFFFFFFF DUP4 DUP2 DUP4 AND OR DUP4 MSTORE POP POP POP POP PUSH2 0x1BD4 JUMP JUMPDEST POP JUMP JUMPDEST PUSH1 0x60 PUSH0 PUSH2 0x1A25 DUP6 PUSH2 0xEAB JUMP JUMPDEST SWAP1 POP PUSH0 PUSH2 0x1A32 DUP7 DUP7 PUSH2 0x1216 JUMP JUMPDEST SWAP1 POP PUSH0 PUSH2 0x1A3F DUP8 DUP7 PUSH2 0x1216 JUMP JUMPDEST SWAP1 POP PUSH0 PUSH1 0x1 DUP5 DUP5 DUP5 PUSH2 0x1A51 SWAP2 SWAP1 PUSH2 0x305F JUMP JUMPDEST PUSH2 0x1A5B SWAP2 SWAP1 PUSH2 0x312F JUMP JUMPDEST PUSH2 0x1A65 SWAP2 SWAP1 PUSH2 0x3223 JUMP JUMPDEST PUSH8 0xFFFFFFFFFFFFFFFF AND SWAP1 POP DUP1 PUSH8 0xFFFFFFFFFFFFFFFF DUP2 GT ISZERO PUSH2 0x1A8B JUMPI PUSH2 0x1A8A PUSH2 0x1CD0 JUMP JUMPDEST JUMPDEST PUSH1 0x40 MLOAD SWAP1 DUP1 DUP3 MSTORE DUP1 PUSH1 0x20 MUL PUSH1 0x20 ADD DUP3 ADD PUSH1 0x40 MSTORE DUP1 ISZERO PUSH2 0x1AB9 JUMPI DUP2 PUSH1 0x20 ADD PUSH1 0x20 DUP3 MUL DUP1 CALLDATASIZE DUP4 CALLDATACOPY DUP1 DUP3 ADD SWAP2 POP POP SWAP1 POP JUMPDEST POP SWAP5 POP PUSH0 PUSH0 SWAP1 POP JUMPDEST DUP2 DUP2 LT ISZERO PUSH2 0x1B2C JUMPI DUP5 PUSH8 0xFFFFFFFFFFFFFFFF AND DUP2 PUSH2 0x1ADF SWAP2 SWAP1 PUSH2 0x2F50 JUMP JUMPDEST DUP5 PUSH2 0x1AEA SWAP2 SWAP1 PUSH2 0x3223 JUMP JUMPDEST DUP7 DUP3 DUP2 MLOAD DUP2 LT PUSH2 0x1AFD JUMPI PUSH2 0x1AFC PUSH2 0x2FC4 JUMP JUMPDEST JUMPDEST PUSH1 0x20 MUL PUSH1 0x20 ADD ADD SWAP1 PUSH8 0xFFFFFFFFFFFFFFFF AND SWAP1 DUP2 PUSH8 0xFFFFFFFFFFFFFFFF AND DUP2 MSTORE POP POP DUP1 DUP1 PUSH1 0x1 ADD SWAP2 POP POP PUSH2 0x1AC1 JUMP JUMPDEST POP POP POP POP POP SWAP4 SWAP3 POP POP POP JUMP JUMPDEST PUSH2 0x1BD0 DUP3 DUP3 PUSH1 0x40 MLOAD PUSH1 0x24 ADD PUSH2 0x1B4E SWAP3 SWAP2 SWAP1 PUSH2 0x326D JUMP JUMPDEST PUSH1 0x40 MLOAD PUSH1 0x20 DUP2 DUP4 SUB SUB DUP2 MSTORE SWAP1 PUSH1 0x40 MSTORE PUSH32 0xB60E72CC00000000000000000000000000000000000000000000000000000000 PUSH28 0xFFFFFFFFFFFFFFFFFFFFFFFFFFFFFFFFFFFFFFFFFFFFFFFFFFFFFFFF NOT AND PUSH1 0x20 DUP3 ADD DUP1 MLOAD PUSH28 0xFFFFFFFFFFFFFFFFFFFFFFFFFFFFFFFFFFFFFFFFFFFFFFFFFFFFFFFF DUP4 DUP2 DUP4 AND OR DUP4 MSTORE POP POP POP POP PUSH2 0x1BD4 JUMP JUMPDEST POP POP JUMP JUMPDEST PUSH2 0x1BEB DUP2 PUSH2 0x1BE3 PUSH2 0x1BEE PUSH2 0x1C0D JUMP JUMPDEST PUSH4 0xFFFFFFFF AND JUMP JUMPDEST POP JUMP JUMPDEST PUSH0 PUSH11 0x636F6E736F6C652E6C6F67 SWAP1 POP PUSH0 PUSH0 DUP4 MLOAD PUSH1 0x20 DUP6 ADD DUP5 GAS STATICCALL POP POP POP JUMP JUMPDEST PUSH2 0x1C9D DUP2 SWAP1 POP SWAP2 SWAP1 POP JUMP JUMPDEST PUSH2 0x1B43 DUP1 PUSH2 0x32C9 DUP4 CODECOPY ADD SWAP1 JUMP JUMPDEST PUSH1 0x40 MLOAD DUP1 PUSH2 0x180 ADD PUSH1 0x40 MSTORE DUP1 PUSH0 PUSH8 0xFFFFFFFFFFFFFFFF AND DUP2 MSTORE PUSH1 0x20 ADD PUSH1 0x60 DUP2 MSTORE PUSH1 0x20 ADD PUSH1 0x60 DUP2 MSTORE PUSH1 0x20 ADD PUSH1 0x60 DUP2 MSTORE PUSH1 0x20 ADD PUSH1 0x60 DUP2 MSTORE PUSH1 0x20 ADD PUSH1 0x60 DUP2 MSTORE PUSH1 0x20 ADD PUSH0 PUSH8 0xFFFFFFFFFFFFFFFF AND DUP2 MSTORE PUSH1 0x20 ADD PUSH1 0x60 DUP2 MSTORE PUSH1 0x20 ADD PUSH0 PUSH4 0xFFFFFFFF AND DUP2 MSTORE PUSH1 0x20 ADD PUSH1 0x60 DUP2 MSTORE PUSH1 0x20 ADD PUSH1 0x60 DUP2 MSTORE PUSH1 0x20 ADD PUSH1 0x60 DUP2 MSTORE POP SWAP1 JUMP JUMPDEST PUSH2 0x1CA5 PUSH2 0x329B JUMP JUMPDEST JUMP JUMPDEST PUSH0 PUSH1 0x40 MLOAD SWAP1 POP SWAP1 JUMP JUMPDEST PUSH0 PUSH0 REVERT JUMPDEST PUSH0 PUSH0 REVERT JUMPDEST PUSH0 PUSH0 REVERT JUMPDEST PUSH0 PUSH0 REVERT JUMPDEST PUSH0 PUSH1 0x1F NOT PUSH1 0x1F DUP4 ADD AND SWAP1 POP SWAP2 SWAP1 POP JUMP JUMPDEST PUSH32 0x4E487B7100000000000000000000000000000000000000000000000000000000 PUSH0 MSTORE PUSH1 0x41 PUSH1 0x4 MSTORE PUSH1 0x24 PUSH0 REVERT JUMPDEST PUSH2 0x1D06 DUP3 PUSH2 0x1CC0 JUMP JUMPDEST DUP2 ADD DUP2 DUP2 LT PUSH8 0xFFFFFFFFFFFFFFFF DUP3 GT OR ISZERO PUSH2 0x1D25 JUMPI PUSH2 0x1D24 PUSH2 0x1CD0 JUMP JUMPDEST JUMPDEST DUP1 PUSH1 0x40 MSTORE POP POP POP JUMP JUMPDEST PUSH0 PUSH2 0x1D37 PUSH2 0x1CA7 JUMP JUMPDEST SWAP1 POP PUSH2 0x1D43 DUP3 DUP3 PUSH2 0x1CFD JUMP JUMPDEST SWAP2 SWAP1 POP JUMP JUMPDEST PUSH0 PUSH8 0xFFFFFFFFFFFFFFFF DUP3 GT ISZERO PUSH2 0x1D62 JUMPI PUSH2 0x1D61 PUSH2 0x1CD0 JUMP JUMPDEST JUMPDEST PUSH2 0x1D6B DUP3 PUSH2 0x1CC0 JUMP JUMPDEST SWAP1 POP PUSH1 0x20 DUP2 ADD SWAP1 POP SWAP2 SWAP1 POP JUMP JUMPDEST DUP3 DUP2 DUP4 CALLDATACOPY PUSH0 DUP4 DUP4 ADD MSTORE POP POP POP JUMP JUMPDEST PUSH0 PUSH2 0x1D98 PUSH2 0x1D93 DUP5 PUSH2 0x1D48 JUMP JUMPDEST PUSH2 0x1D2E JUMP JUMPDEST SWAP1 POP DUP3 DUP2 MSTORE PUSH1 0x20 DUP2 ADD DUP5 DUP5 DUP5 ADD GT ISZERO PUSH2 0x1DB4 JUMPI PUSH2 0x1DB3 PUSH2 0x1CBC JUMP JUMPDEST JUMPDEST PUSH2 0x1DBF DUP5 DUP3 DUP6 PUSH2 0x1D78 JUMP JUMPDEST POP SWAP4 SWAP3 POP POP POP JUMP JUMPDEST PUSH0 DUP3 PUSH1 0x1F DUP4 ADD SLT PUSH2 0x1DDB JUMPI PUSH2 0x1DDA PUSH2 0x1CB8 JUMP JUMPDEST JUMPDEST DUP2 CALLDATALOAD PUSH2 0x1DEB DUP5 DUP3 PUSH1 0x20 DUP7 ADD PUSH2 0x1D86 JUMP JUMPDEST SWAP2 POP POP SWAP3 SWAP2 POP POP JUMP JUMPDEST PUSH0 PUSH8 0xFFFFFFFFFFFFFFFF DUP3 AND SWAP1 POP SWAP2 SWAP1 POP JUMP JUMPDEST PUSH2 0x1E10 DUP2 PUSH2 0x1DF4 JUMP JUMPDEST DUP2 EQ PUSH2 0x1E1A JUMPI PUSH0 PUSH0 REVERT JUMPDEST POP JUMP JUMPDEST PUSH0 DUP2 CALLDATALOAD SWAP1 POP PUSH2 0x1E2B DUP2 PUSH2 0x1E07 JUMP JUMPDEST SWAP3 SWAP2 POP POP JUMP JUMPDEST PUSH0 PUSH0 PUSH0 PUSH1 0x60 DUP5 DUP7 SUB SLT ISZERO PUSH2 0x1E48 JUMPI PUSH2 0x1E47 PUSH2 0x1CB0 JUMP JUMPDEST JUMPDEST PUSH0 DUP5 ADD CALLDATALOAD PUSH8 0xFFFFFFFFFFFFFFFF DUP2 GT ISZERO PUSH2 0x1E65 JUMPI PUSH2 0x1E64 PUSH2 0x1CB4 JUMP JUMPDEST JUMPDEST PUSH2 0x1E71 DUP7 DUP3 DUP8 ADD PUSH2 0x1DC7 JUMP JUMPDEST SWAP4 POP POP PUSH1 0x20 DUP5 ADD CALLDATALOAD PUSH8 0xFFFFFFFFFFFFFFFF DUP2 GT ISZERO PUSH2 0x1E92 JUMPI PUSH2 0x1E91 PUSH2 0x1CB4 JUMP JUMPDEST JUMPDEST PUSH2 0x1E9E DUP7 DUP3 DUP8 ADD PUSH2 0x1DC7 JUMP JUMPDEST SWAP3 POP POP PUSH1 0x40 PUSH2 0x1EAF DUP7 DUP3 DUP8 ADD PUSH2 0x1E1D JUMP JUMPDEST SWAP2 POP POP SWAP3 POP SWAP3 POP SWAP3 JUMP JUMPDEST PUSH0 DUP2 MLOAD SWAP1 POP SWAP2 SWAP1 POP JUMP JUMPDEST PUSH0 DUP3 DUP3 MSTORE PUSH1 0x20 DUP3 ADD SWAP1 POP SWAP3 SWAP2 POP POP JUMP JUMPDEST PUSH0 DUP2 SWAP1 POP PUSH1 0x20 DUP3 ADD SWAP1 POP SWAP2 SWAP1 POP JUMP JUMPDEST PUSH2 0x1EEB DUP2 PUSH2 0x1DF4 JUMP JUMPDEST DUP3 MSTORE POP POP JUMP JUMPDEST PUSH0 DUP2 MLOAD SWAP1 POP SWAP2 SWAP1 POP JUMP JUMPDEST PUSH0 DUP3 DUP3 MSTORE PUSH1 0x20 DUP3 ADD SWAP1 POP SWAP3 SWAP2 POP POP JUMP JUMPDEST DUP3 DUP2 DUP4 MCOPY PUSH0 DUP4 DUP4 ADD MSTORE POP POP POP JUMP JUMPDEST PUSH0 PUSH2 0x1F23 DUP3 PUSH2 0x1EF1 JUMP JUMPDEST PUSH2 0x1F2D DUP2 DUP6 PUSH2 0x1EFB JUMP JUMPDEST SWAP4 POP PUSH2 0x1F3D DUP2 DUP6 PUSH1 0x20 DUP7 ADD PUSH2 0x1F0B JUMP JUMPDEST PUSH2 0x1F46 DUP2 PUSH2 0x1CC0 JUMP JUMPDEST DUP5 ADD SWAP2 POP POP SWAP3 SWAP2 POP POP JUMP JUMPDEST PUSH0 PUSH4 0xFFFFFFFF DUP3 AND SWAP1 POP SWAP2 SWAP1 POP JUMP JUMPDEST PUSH2 0x1F69 DUP2 PUSH2 0x1F51 JUMP JUMPDEST DUP3 MSTORE POP POP JUMP JUMPDEST PUSH0 PUSH2 0x180 DUP4 ADD PUSH0 DUP4 ADD MLOAD PUSH2 0x1F85 PUSH0 DUP7 ADD DUP3 PUSH2 0x1EE2 JUMP JUMPDEST POP PUSH1 0x20 DUP4 ADD MLOAD DUP5 DUP3 SUB PUSH1 0x20 DUP7 ADD MSTORE PUSH2 0x1F9D DUP3 DUP3 PUSH2 0x1F19 JUMP JUMPDEST SWAP2 POP POP PUSH1 0x40 DUP4 ADD MLOAD DUP5 DUP3 SUB PUSH1 0x40 DUP7 ADD MSTORE PUSH2 0x1FB7 DUP3 DUP3 PUSH2 0x1F19 JUMP JUMPDEST SWAP2 POP POP PUSH1 0x60 DUP4 ADD MLOAD DUP5 DUP3 SUB PUSH1 0x60 DUP7 ADD MSTORE PUSH2 0x1FD1 DUP3 DUP3 PUSH2 0x1F19 JUMP JUMPDEST SWAP2 POP POP PUSH1 0x80 DUP4 ADD MLOAD DUP5 DUP3 SUB PUSH1 0x80 DUP7 ADD MSTORE PUSH2 0x1FEB DUP3 DUP3 PUSH2 0x1F19 JUMP JUMPDEST SWAP2 POP POP PUSH1 0xA0 DUP4 ADD MLOAD DUP5 DUP3 SUB PUSH1 0xA0 DUP7 ADD MSTORE PUSH2 0x2005 DUP3 DUP3 PUSH2 0x1F19 JUMP JUMPDEST SWAP2 POP POP PUSH1 0xC0 DUP4 ADD MLOAD PUSH2 0x201A PUSH1 0xC0 DUP7 ADD DUP3 PUSH2 0x1EE2 JUMP JUMPDEST POP PUSH1 0xE0 DUP4 ADD MLOAD DUP5 DUP3 SUB PUSH1 0xE0 DUP7 ADD MSTORE PUSH2 0x2032 DUP3 DUP3 PUSH2 0x1F19 JUMP JUMPDEST SWAP2 POP POP PUSH2 0x100 DUP4 ADD MLOAD PUSH2 0x2049 PUSH2 0x100 DUP7 ADD DUP3 PUSH2 0x1F60 JUMP JUMPDEST POP PUSH2 0x120 DUP4 ADD MLOAD DUP5 DUP3 SUB PUSH2 0x120 DUP7 ADD MSTORE PUSH2 0x2063 DUP3 DUP3 PUSH2 0x1F19 JUMP JUMPDEST SWAP2 POP POP PUSH2 0x140 DUP4 ADD MLOAD DUP5 DUP3 SUB PUSH2 0x140 DUP7 ADD MSTORE PUSH2 0x207F DUP3 DUP3 PUSH2 0x1F19 JUMP JUMPDEST SWAP2 POP POP PUSH2 0x160 DUP4 ADD MLOAD DUP5 DUP3 SUB PUSH2 0x160 DUP7 ADD MSTORE PUSH2 0x209B DUP3 DUP3 PUSH2 0x1F19 JUMP JUMPDEST SWAP2 POP POP DUP1 SWAP2 POP POP SWAP3 SWAP2 POP POP JUMP JUMPDEST PUSH0 PUSH2 0x20B3 DUP4 DUP4 PUSH2 0x1F6F JUMP JUMPDEST SWAP1 POP SWAP3 SWAP2 POP POP JUMP JUMPDEST PUSH0 PUSH1 0x20 DUP3 ADD SWAP1 POP SWAP2 SWAP1 POP JUMP JUMPDEST PUSH0 PUSH2 0x20D1 DUP3 PUSH2 0x1EB9 JUMP JUMPDEST PUSH2 0x20DB DUP2 DUP6 PUSH2 0x1EC3 JUMP JUMPDEST SWAP4 POP DUP4 PUSH1 0x20 DUP3 MUL DUP6 ADD PUSH2 0x20ED DUP6 PUSH2 0x1ED3 JUMP JUMPDEST DUP1 PUSH0 JUMPDEST DUP6 DUP2 LT ISZERO PUSH2 0x2128 JUMPI DUP5 DUP5 SUB DUP10 MSTORE DUP2 MLOAD PUSH2 0x2109 DUP6 DUP3 PUSH2 0x20A8 JUMP JUMPDEST SWAP5 POP PUSH2 0x2114 DUP4 PUSH2 0x20BB JUMP JUMPDEST SWAP3 POP PUSH1 0x20 DUP11 ADD SWAP10 POP POP PUSH1 0x1 DUP2 ADD SWAP1 POP PUSH2 0x20F0 JUMP JUMPDEST POP DUP3 SWAP8 POP DUP8 SWAP6 POP POP POP POP POP POP SWAP3 SWAP2 POP POP JUMP JUMPDEST PUSH0 PUSH1 0x20 DUP3 ADD SWAP1 POP DUP2 DUP2 SUB PUSH0 DUP4 ADD MSTORE PUSH2 0x2152 DUP2 DUP5 PUSH2 0x20C7 JUMP JUMPDEST SWAP1 POP SWAP3 SWAP2 POP POP JUMP JUMPDEST PUSH0 PUSH0 REVERT JUMPDEST PUSH0 PUSH0 REVERT JUMPDEST PUSH2 0x216B DUP2 PUSH2 0x1F51 JUMP JUMPDEST DUP2 EQ PUSH2 0x2175 JUMPI PUSH0 PUSH0 REVERT JUMPDEST POP JUMP JUMPDEST PUSH0 DUP2 CALLDATALOAD SWAP1 POP PUSH2 0x2186 DUP2 PUSH2 0x2162 JUMP JUMPDEST SWAP3 SWAP2 POP POP JUMP JUMPDEST PUSH0 PUSH2 0x180 DUP3 DUP5 SUB SLT ISZERO PUSH2 0x21A2 JUMPI PUSH2 0x21A1 PUSH2 0x215A JUMP JUMPDEST JUMPDEST PUSH2 0x21AD PUSH2 0x180 PUSH2 0x1D2E JUMP JUMPDEST SWAP1 POP PUSH0 PUSH2 0x21BC DUP5 DUP3 DUP6 ADD PUSH2 0x1E1D JUMP JUMPDEST PUSH0 DUP4 ADD MSTORE POP PUSH1 0x20 DUP3 ADD CALLDATALOAD PUSH8 0xFFFFFFFFFFFFFFFF DUP2 GT ISZERO PUSH2 0x21DF JUMPI PUSH2 0x21DE PUSH2 0x215E JUMP JUMPDEST JUMPDEST PUSH2 0x21EB DUP5 DUP3 DUP6 ADD PUSH2 0x1DC7 JUMP JUMPDEST PUSH1 0x20 DUP4 ADD MSTORE POP PUSH1 0x40 DUP3 ADD CALLDATALOAD PUSH8 0xFFFFFFFFFFFFFFFF DUP2 GT ISZERO PUSH2 0x220F JUMPI PUSH2 0x220E PUSH2 0x215E JUMP JUMPDEST JUMPDEST PUSH2 0x221B DUP5 DUP3 DUP6 ADD PUSH2 0x1DC7 JUMP JUMPDEST PUSH1 0x40 DUP4 ADD MSTORE POP PUSH1 0x60 DUP3 ADD CALLDATALOAD PUSH8 0xFFFFFFFFFFFFFFFF DUP2 GT ISZERO PUSH2 0x223F JUMPI PUSH2 0x223E PUSH2 0x215E JUMP JUMPDEST JUMPDEST PUSH2 0x224B DUP5 DUP3 DUP6 ADD PUSH2 0x1DC7 JUMP JUMPDEST PUSH1 0x60 DUP4 ADD MSTORE POP PUSH1 0x80 DUP3 ADD CALLDATALOAD PUSH8 0xFFFFFFFFFFFFFFFF DUP2 GT ISZERO PUSH2 0x226F JUMPI PUSH2 0x226E PUSH2 0x215E JUMP JUMPDEST JUMPDEST PUSH2 0x227B DUP5 DUP3 DUP6 ADD PUSH2 0x1DC7 JUMP JUMPDEST PUSH1 0x80 DUP4 ADD MSTORE POP PUSH1 0xA0 DUP3 ADD CALLDATALOAD PUSH8 0xFFFFFFFFFFFFFFFF DUP2 GT ISZERO PUSH2 0x229F JUMPI PUSH2 0x229E PUSH2 0x215E JUMP JUMPDEST JUMPDEST PUSH2 0x22AB DUP5 DUP3 DUP6 ADD PUSH2 0x1DC7 JUMP JUMPDEST PUSH1 0xA0 DUP4 ADD MSTORE POP PUSH1 0xC0 PUSH2 0x22BF DUP5 DUP3 DUP6 ADD PUSH2 0x1E1D JUMP JUMPDEST PUSH1 0xC0 DUP4 ADD MSTORE POP PUSH1 0xE0 DUP3 ADD CALLDATALOAD PUSH8 0xFFFFFFFFFFFFFFFF DUP2 GT ISZERO PUSH2 0x22E3 JUMPI PUSH2 0x22E2 PUSH2 0x215E JUMP JUMPDEST JUMPDEST PUSH2 0x22EF DUP5 DUP3 DUP6 ADD PUSH2 0x1DC7 JUMP JUMPDEST PUSH1 0xE0 DUP4 ADD MSTORE POP PUSH2 0x100 PUSH2 0x2304 DUP5 DUP3 DUP6 ADD PUSH2 0x2178 JUMP JUMPDEST PUSH2 0x100 DUP4 ADD MSTORE POP PUSH2 0x120 DUP3 ADD CALLDATALOAD PUSH8 0xFFFFFFFFFFFFFFFF DUP2 GT ISZERO PUSH2 0x232A JUMPI PUSH2 0x2329 PUSH2 0x215E JUMP JUMPDEST JUMPDEST PUSH2 0x2336 DUP5 DUP3 DUP6 ADD PUSH2 0x1DC7 JUMP JUMPDEST PUSH2 0x120 DUP4 ADD MSTORE POP PUSH2 0x140 DUP3 ADD CALLDATALOAD PUSH8 0xFFFFFFFFFFFFFFFF DUP2 GT ISZERO PUSH2 0x235C JUMPI PUSH2 0x235B PUSH2 0x215E JUMP JUMPDEST JUMPDEST PUSH2 0x2368 DUP5 DUP3 DUP6 ADD PUSH2 0x1DC7 JUMP JUMPDEST PUSH2 0x140 DUP4 ADD MSTORE POP PUSH2 0x160 DUP3 ADD CALLDATALOAD PUSH8 0xFFFFFFFFFFFFFFFF DUP2 GT ISZERO PUSH2 0x238E JUMPI PUSH2 0x238D PUSH2 0x215E JUMP JUMPDEST JUMPDEST PUSH2 0x239A DUP5 DUP3 DUP6 ADD PUSH2 0x1DC7 JUMP JUMPDEST PUSH2 0x160 DUP4 ADD MSTORE POP SWAP3 SWAP2 POP POP JUMP JUMPDEST PUSH0 PUSH0 PUSH0 PUSH1 0x60 DUP5 DUP7 SUB SLT ISZERO PUSH2 0x23BE JUMPI PUSH2 0x23BD PUSH2 0x1CB0 JUMP JUMPDEST JUMPDEST PUSH0 DUP5 ADD CALLDATALOAD PUSH8 0xFFFFFFFFFFFFFFFF DUP2 GT ISZERO PUSH2 0x23DB JUMPI PUSH2 0x23DA PUSH2 0x1CB4 JUMP JUMPDEST JUMPDEST PUSH2 0x23E7 DUP7 DUP3 DUP8 ADD PUSH2 0x1DC7 JUMP JUMPDEST SWAP4 POP POP PUSH1 0x20 DUP5 ADD CALLDATALOAD PUSH8 0xFFFFFFFFFFFFFFFF DUP2 GT ISZERO PUSH2 0x2408 JUMPI PUSH2 0x2407 PUSH2 0x1CB4 JUMP JUMPDEST JUMPDEST PUSH2 0x2414 DUP7 DUP3 DUP8 ADD PUSH2 0x1DC7 JUMP JUMPDEST SWAP3 POP POP PUSH1 0x40 DUP5 ADD CALLDATALOAD PUSH8 0xFFFFFFFFFFFFFFFF DUP2 GT ISZERO PUSH2 0x2435 JUMPI PUSH2 0x2434 PUSH2 0x1CB4 JUMP JUMPDEST JUMPDEST PUSH2 0x2441 DUP7 DUP3 DUP8 ADD PUSH2 0x218C JUMP JUMPDEST SWAP2 POP POP SWAP3 POP SWAP3 POP SWAP3 JUMP JUMPDEST PUSH0 DUP2 SWAP1 POP SWAP2 SWAP1 POP JUMP JUMPDEST PUSH2 0x245D DUP2 PUSH2 0x244B JUMP JUMPDEST DUP2 EQ PUSH2 0x2467 JUMPI PUSH0 PUSH0 REVERT JUMPDEST POP JUMP JUMPDEST PUSH0 DUP2 CALLDATALOAD SWAP1 POP PUSH2 0x2478 DUP2 PUSH2 0x2454 JUMP JUMPDEST SWAP3 SWAP2 POP POP JUMP JUMPDEST PUSH1 0x10 DUP2 LT PUSH2 0x248A JUMPI PUSH0 PUSH0 REVERT JUMPDEST POP JUMP JUMPDEST PUSH0 DUP2 CALLDATALOAD SWAP1 POP PUSH2 0x249B DUP2 PUSH2 0x247E JUMP JUMPDEST SWAP3 SWAP2 POP POP JUMP JUMPDEST PUSH0 PUSH0 PUSH0 PUSH1 0x60 DUP5 DUP7 SUB SLT ISZERO PUSH2 0x24B8 JUMPI PUSH2 0x24B7 PUSH2 0x1CB0 JUMP JUMPDEST JUMPDEST PUSH0 PUSH2 0x24C5 DUP7 DUP3 DUP8 ADD PUSH2 0x246A JUMP JUMPDEST SWAP4 POP POP PUSH1 0x20 PUSH2 0x24D6 DUP7 DUP3 DUP8 ADD PUSH2 0x248D JUMP JUMPDEST SWAP3 POP POP PUSH1 0x40 PUSH2 0x24E7 DUP7 DUP3 DUP8 ADD PUSH2 0x1E1D JUMP JUMPDEST SWAP2 POP POP SWAP3 POP SWAP3 POP SWAP3 JUMP JUMPDEST PUSH0 PUSH20 0xFFFFFFFFFFFFFFFFFFFFFFFFFFFFFFFFFFFFFFFF DUP3 AND SWAP1 POP SWAP2 SWAP1 POP JUMP JUMPDEST PUSH0 PUSH2 0x251A DUP3 PUSH2 0x24F1 JUMP JUMPDEST SWAP1 POP SWAP2 SWAP1 POP JUMP JUMPDEST PUSH2 0x252A DUP2 PUSH2 0x2510 JUMP JUMPDEST DUP3 MSTORE POP POP JUMP JUMPDEST PUSH0 PUSH1 0x20 DUP3 ADD SWAP1 POP PUSH2 0x2543 PUSH0 DUP4 ADD DUP5 PUSH2 0x2521 JUMP JUMPDEST SWAP3 SWAP2 POP POP JUMP JUMPDEST PUSH0 DUP2 SWAP1 POP SWAP2 SWAP1 POP JUMP JUMPDEST PUSH2 0x255B DUP2 PUSH2 0x2549 JUMP JUMPDEST DUP2 EQ PUSH2 0x2565 JUMPI PUSH0 PUSH0 REVERT JUMPDEST POP JUMP JUMPDEST PUSH0 DUP2 CALLDATALOAD SWAP1 POP PUSH2 0x2576 DUP2 PUSH2 0x2552 JUMP JUMPDEST SWAP3 SWAP2 POP POP JUMP JUMPDEST PUSH0 PUSH0 PUSH0 PUSH1 0x60 DUP5 DUP7 SUB SLT ISZERO PUSH2 0x2593 JUMPI PUSH2 0x2592 PUSH2 0x1CB0 JUMP JUMPDEST JUMPDEST PUSH0 DUP5 ADD CALLDATALOAD PUSH8 0xFFFFFFFFFFFFFFFF DUP2 GT ISZERO PUSH2 0x25B0 JUMPI PUSH2 0x25AF PUSH2 0x1CB4 JUMP JUMPDEST JUMPDEST PUSH2 0x25BC DUP7 DUP3 DUP8 ADD PUSH2 0x1DC7 JUMP JUMPDEST SWAP4 POP POP PUSH1 0x20 DUP5 ADD CALLDATALOAD PUSH8 0xFFFFFFFFFFFFFFFF DUP2 GT ISZERO PUSH2 0x25DD JUMPI PUSH2 0x25DC PUSH2 0x1CB4 JUMP JUMPDEST JUMPDEST PUSH2 0x25E9 DUP7 DUP3 DUP8 ADD PUSH2 0x1DC7 JUMP JUMPDEST SWAP3 POP POP PUSH1 0x40 PUSH2 0x25FA DUP7 DUP3 DUP8 ADD PUSH2 0x2568 JUMP JUMPDEST SWAP2 POP POP SWAP3 POP SWAP3 POP SWAP3 JUMP JUMPDEST PUSH0 PUSH0 PUSH0 PUSH0 PUSH0 PUSH1 0xA0 DUP7 DUP9 SUB SLT ISZERO PUSH2 0x261D JUMPI PUSH2 0x261C PUSH2 0x1CB0 JUMP JUMPDEST JUMPDEST PUSH0 DUP7 ADD CALLDATALOAD PUSH8 0xFFFFFFFFFFFFFFFF DUP2 GT ISZERO PUSH2 0x263A JUMPI PUSH2 0x2639 PUSH2 0x1CB4 JUMP JUMPDEST JUMPDEST PUSH2 0x2646 DUP9 DUP3 DUP10 ADD PUSH2 0x1DC7 JUMP JUMPDEST SWAP6 POP POP PUSH1 0x20 DUP7 ADD CALLDATALOAD PUSH8 0xFFFFFFFFFFFFFFFF DUP2 GT ISZERO PUSH2 0x2667 JUMPI PUSH2 0x2666 PUSH2 0x1CB4 JUMP JUMPDEST JUMPDEST PUSH2 0x2673 DUP9 DUP3 DUP10 ADD PUSH2 0x1DC7 JUMP JUMPDEST SWAP5 POP POP PUSH1 0x40 PUSH2 0x2684 DUP9 DUP3 DUP10 ADD PUSH2 0x1E1D JUMP JUMPDEST SWAP4 POP POP PUSH1 0x60 PUSH2 0x2695 DUP9 DUP3 DUP10 ADD PUSH2 0x1E1D JUMP JUMPDEST SWAP3 POP POP PUSH1 0x80 PUSH2 0x26A6 DUP9 DUP3 DUP10 ADD PUSH2 0x2568 JUMP JUMPDEST SWAP2 POP POP SWAP3 SWAP6 POP SWAP3 SWAP6 SWAP1 SWAP4 POP JUMP JUMPDEST PUSH0 PUSH1 0x20 DUP3 DUP5 SUB SLT ISZERO PUSH2 0x26C8 JUMPI PUSH2 0x26C7 PUSH2 0x1CB0 JUMP JUMPDEST JUMPDEST PUSH0 PUSH2 0x26D5 DUP5 DUP3 DUP6 ADD PUSH2 0x248D JUMP JUMPDEST SWAP2 POP POP SWAP3 SWAP2 POP POP JUMP JUMPDEST PUSH2 0x26E7 DUP2 PUSH2 0x1DF4 JUMP JUMPDEST DUP3 MSTORE POP POP JUMP JUMPDEST PUSH0 PUSH1 0x20 DUP3 ADD SWAP1 POP PUSH2 0x2700 PUSH0 DUP4 ADD DUP5 PUSH2 0x26DE JUMP JUMPDEST SWAP3 SWAP2 POP POP JUMP JUMPDEST PUSH0 PUSH0 PUSH1 0x40 DUP4 DUP6 SUB SLT ISZERO PUSH2 0x271C JUMPI PUSH2 0x271B PUSH2 0x1CB0 JUMP JUMPDEST JUMPDEST PUSH0 PUSH2 0x2729 DUP6 DUP3 DUP7 ADD PUSH2 0x248D JUMP JUMPDEST SWAP3 POP POP PUSH1 0x20 PUSH2 0x273A DUP6 DUP3 DUP7 ADD PUSH2 0x1E1D JUMP JUMPDEST SWAP2 POP POP SWAP3 POP SWAP3 SWAP1 POP JUMP JUMPDEST PUSH0 PUSH1 0x20 DUP3 DUP5 SUB SLT ISZERO PUSH2 0x2759 JUMPI PUSH2 0x2758 PUSH2 0x1CB0 JUMP JUMPDEST JUMPDEST PUSH0 DUP3 ADD CALLDATALOAD PUSH8 0xFFFFFFFFFFFFFFFF DUP2 GT ISZERO PUSH2 0x2776 JUMPI PUSH2 0x2775 PUSH2 0x1CB4 JUMP JUMPDEST JUMPDEST PUSH2 0x2782 DUP5 DUP3 DUP6 ADD PUSH2 0x1DC7 JUMP JUMPDEST SWAP2 POP POP SWAP3 SWAP2 POP POP JUMP JUMPDEST PUSH32 0x4E487B7100000000000000000000000000000000000000000000000000000000 PUSH0 MSTORE PUSH1 0x21 PUSH1 0x4 MSTORE PUSH1 0x24 PUSH0 REVERT JUMPDEST PUSH1 0x10 DUP2 LT PUSH2 0x27C9 JUMPI PUSH2 0x27C8 PUSH2 0x278B JUMP JUMPDEST JUMPDEST POP JUMP JUMPDEST PUSH0 DUP2 SWAP1 POP PUSH2 0x27D9 DUP3 PUSH2 0x27B8 JUMP JUMPDEST SWAP2 SWAP1 POP JUMP JUMPDEST PUSH0 PUSH2 0x27E8 DUP3 PUSH2 0x27CC JUMP JUMPDEST SWAP1 POP SWAP2 SWAP1 POP JUMP JUMPDEST PUSH2 0x27F8 DUP2 PUSH2 0x27DE JUMP JUMPDEST DUP3 MSTORE POP POP JUMP JUMPDEST PUSH0 PUSH1 0x20 DUP3 ADD SWAP1 POP PUSH2 0x2811 PUSH0 DUP4 ADD DUP5 PUSH2 0x27EF JUMP JUMPDEST SWAP3 SWAP2 POP POP JUMP JUMPDEST PUSH0 DUP2 SWAP1 POP SWAP3 SWAP2 POP POP JUMP JUMPDEST PUSH0 PUSH2 0x282B DUP3 PUSH2 0x1EF1 JUMP JUMPDEST PUSH2 0x2835 DUP2 DUP6 PUSH2 0x2817 JUMP JUMPDEST SWAP4 POP PUSH2 0x2845 DUP2 DUP6 PUSH1 0x20 DUP7 ADD PUSH2 0x1F0B JUMP JUMPDEST DUP1 DUP5 ADD SWAP2 POP POP SWAP3 SWAP2 POP POP JUMP JUMPDEST PUSH0 PUSH2 0x285C DUP3 DUP5 PUSH2 0x2821 JUMP JUMPDEST SWAP2 POP DUP2 SWAP1 POP SWAP3 SWAP2 POP POP JUMP JUMPDEST PUSH0 PUSH8 0xFFFFFFFFFFFFFFFF DUP3 GT ISZERO PUSH2 0x2881 JUMPI PUSH2 0x2880 PUSH2 0x1CD0 JUMP JUMPDEST JUMPDEST PUSH1 0x20 DUP3 MUL SWAP1 POP PUSH1 0x20 DUP2 ADD SWAP1 POP SWAP2 SWAP1 POP JUMP JUMPDEST PUSH0 PUSH0 REVERT JUMPDEST PUSH0 DUP2 MLOAD SWAP1 POP PUSH2 0x28A4 DUP2 PUSH2 0x1E07 JUMP JUMPDEST SWAP3 SWAP2 POP POP JUMP JUMPDEST PUSH0 PUSH2 0x28BC PUSH2 0x28B7 DUP5 PUSH2 0x1D48 JUMP JUMPDEST PUSH2 0x1D2E JUMP JUMPDEST SWAP1 POP DUP3 DUP2 MSTORE PUSH1 0x20 DUP2 ADD DUP5 DUP5 DUP5 ADD GT ISZERO PUSH2 0x28D8 JUMPI PUSH2 0x28D7 PUSH2 0x1CBC JUMP JUMPDEST JUMPDEST PUSH2 0x28E3 DUP5 DUP3 DUP6 PUSH2 0x1F0B JUMP JUMPDEST POP SWAP4 SWAP3 POP POP POP JUMP JUMPDEST PUSH0 DUP3 PUSH1 0x1F DUP4 ADD SLT PUSH2 0x28FF JUMPI PUSH2 0x28FE PUSH2 0x1CB8 JUMP JUMPDEST JUMPDEST DUP2 MLOAD PUSH2 0x290F DUP5 DUP3 PUSH1 0x20 DUP7 ADD PUSH2 0x28AA JUMP JUMPDEST SWAP2 POP POP SWAP3 SWAP2 POP POP JUMP JUMPDEST PUSH0 DUP2 MLOAD SWAP1 POP PUSH2 0x2926 DUP2 PUSH2 0x2162 JUMP JUMPDEST SWAP3 SWAP2 POP POP JUMP JUMPDEST PUSH0 PUSH2 0x180 DUP3 DUP5 SUB SLT ISZERO PUSH2 0x2942 JUMPI PUSH2 0x2941 PUSH2 0x215A JUMP JUMPDEST JUMPDEST PUSH2 0x294D PUSH2 0x180 PUSH2 0x1D2E JUMP JUMPDEST SWAP1 POP PUSH0 PUSH2 0x295C DUP5 DUP3 DUP6 ADD PUSH2 0x2896 JUMP JUMPDEST PUSH0 DUP4 ADD MSTORE POP PUSH1 0x20 DUP3 ADD MLOAD PUSH8 0xFFFFFFFFFFFFFFFF DUP2 GT ISZERO PUSH2 0x297F JUMPI PUSH2 0x297E PUSH2 0x215E JUMP JUMPDEST JUMPDEST PUSH2 0x298B DUP5 DUP3 DUP6 ADD PUSH2 0x28EB JUMP JUMPDEST PUSH1 0x20 DUP4 ADD MSTORE POP PUSH1 0x40 DUP3 ADD MLOAD PUSH8 0xFFFFFFFFFFFFFFFF DUP2 GT ISZERO PUSH2 0x29AF JUMPI PUSH2 0x29AE PUSH2 0x215E JUMP JUMPDEST JUMPDEST PUSH2 0x29BB DUP5 DUP3 DUP6 ADD PUSH2 0x28EB JUMP JUMPDEST PUSH1 0x40 DUP4 ADD MSTORE POP PUSH1 0x60 DUP3 ADD MLOAD PUSH8 0xFFFFFFFFFFFFFFFF DUP2 GT ISZERO PUSH2 0x29DF JUMPI PUSH2 0x29DE PUSH2 0x215E JUMP JUMPDEST JUMPDEST PUSH2 0x29EB DUP5 DUP3 DUP6 ADD PUSH2 0x28EB JUMP JUMPDEST PUSH1 0x60 DUP4 ADD MSTORE POP PUSH1 0x80 DUP3 ADD MLOAD PUSH8 0xFFFFFFFFFFFFFFFF DUP2 GT ISZERO PUSH2 0x2A0F JUMPI PUSH2 0x2A0E PUSH2 0x215E JUMP JUMPDEST JUMPDEST PUSH2 0x2A1B DUP5 DUP3 DUP6 ADD PUSH2 0x28EB JUMP JUMPDEST PUSH1 0x80 DUP4 ADD MSTORE POP PUSH1 0xA0 DUP3 ADD MLOAD PUSH8 0xFFFFFFFFFFFFFFFF DUP2 GT ISZERO PUSH2 0x2A3F JUMPI PUSH2 0x2A3E PUSH2 0x215E JUMP JUMPDEST JUMPDEST PUSH2 0x2A4B DUP5 DUP3 DUP6 ADD PUSH2 0x28EB JUMP JUMPDEST PUSH1 0xA0 DUP4 ADD MSTORE POP PUSH1 0xC0 PUSH2 0x2A5F DUP5 DUP3 DUP6 ADD PUSH2 0x2896 JUMP JUMPDEST PUSH1 0xC0 DUP4 ADD MSTORE POP PUSH1 0xE0 DUP3 ADD MLOAD PUSH8 0xFFFFFFFFFFFFFFFF DUP2 GT ISZERO PUSH2 0x2A83 JUMPI PUSH2 0x2A82 PUSH2 0x215E JUMP JUMPDEST JUMPDEST PUSH2 0x2A8F DUP5 DUP3 DUP6 ADD PUSH2 0x28EB JUMP JUMPDEST PUSH1 0xE0 DUP4 ADD MSTORE POP PUSH2 0x100 PUSH2 0x2AA4 DUP5 DUP3 DUP6 ADD PUSH2 0x2918 JUMP JUMPDEST PUSH2 0x100 DUP4 ADD MSTORE POP PUSH2 0x120 DUP3 ADD MLOAD PUSH8 0xFFFFFFFFFFFFFFFF DUP2 GT ISZERO PUSH2 0x2ACA JUMPI PUSH2 0x2AC9 PUSH2 0x215E JUMP JUMPDEST JUMPDEST PUSH2 0x2AD6 DUP5 DUP3 DUP6 ADD PUSH2 0x28EB JUMP JUMPDEST PUSH2 0x120 DUP4 ADD MSTORE POP PUSH2 0x140 DUP3 ADD MLOAD PUSH8 0xFFFFFFFFFFFFFFFF DUP2 GT ISZERO PUSH2 0x2AFC JUMPI PUSH2 0x2AFB PUSH2 0x215E JUMP JUMPDEST JUMPDEST PUSH2 0x2B08 DUP5 DUP3 DUP6 ADD PUSH2 0x28EB JUMP JUMPDEST PUSH2 0x140 DUP4 ADD MSTORE POP PUSH2 0x160 DUP3 ADD MLOAD PUSH8 0xFFFFFFFFFFFFFFFF DUP2 GT ISZERO PUSH2 0x2B2E JUMPI PUSH2 0x2B2D PUSH2 0x215E JUMP JUMPDEST JUMPDEST PUSH2 0x2B3A DUP5 DUP3 DUP6 ADD PUSH2 0x28EB JUMP JUMPDEST PUSH2 0x160 DUP4 ADD MSTORE POP SWAP3 SWAP2 POP POP JUMP JUMPDEST PUSH0 PUSH2 0x2B59 PUSH2 0x2B54 DUP5 PUSH2 0x2867 JUMP JUMPDEST PUSH2 0x1D2E JUMP JUMPDEST SWAP1 POP DUP1 DUP4 DUP3 MSTORE PUSH1 0x20 DUP3 ADD SWAP1 POP PUSH1 0x20 DUP5 MUL DUP4 ADD DUP6 DUP2 GT ISZERO PUSH2 0x2B7C JUMPI PUSH2 0x2B7B PUSH2 0x2892 JUMP JUMPDEST JUMPDEST DUP4 JUMPDEST DUP2 DUP2 LT ISZERO PUSH2 0x2BC3 JUMPI DUP1 MLOAD PUSH8 0xFFFFFFFFFFFFFFFF DUP2 GT ISZERO PUSH2 0x2BA1 JUMPI PUSH2 0x2BA0 PUSH2 0x1CB8 JUMP JUMPDEST JUMPDEST DUP1 DUP7 ADD PUSH2 0x2BAE DUP10 DUP3 PUSH2 0x292C JUMP JUMPDEST DUP6 MSTORE PUSH1 0x20 DUP6 ADD SWAP5 POP POP POP PUSH1 0x20 DUP2 ADD SWAP1 POP PUSH2 0x2B7E JUMP JUMPDEST POP POP POP SWAP4 SWAP3 POP POP POP JUMP JUMPDEST PUSH0 DUP3 PUSH1 0x1F DUP4 ADD SLT PUSH2 0x2BE1 JUMPI PUSH2 0x2BE0 PUSH2 0x1CB8 JUMP JUMPDEST JUMPDEST DUP2 MLOAD PUSH2 0x2BF1 DUP5 DUP3 PUSH1 0x20 DUP7 ADD PUSH2 0x2B47 JUMP JUMPDEST SWAP2 POP POP SWAP3 SWAP2 POP POP JUMP JUMPDEST PUSH0 PUSH1 0x20 DUP3 DUP5 SUB SLT ISZERO PUSH2 0x2C0F JUMPI PUSH2 0x2C0E PUSH2 0x1CB0 JUMP JUMPDEST JUMPDEST PUSH0 DUP3 ADD MLOAD PUSH8 0xFFFFFFFFFFFFFFFF DUP2 GT ISZERO PUSH2 0x2C2C JUMPI PUSH2 0x2C2B PUSH2 0x1CB4 JUMP JUMPDEST JUMPDEST PUSH2 0x2C38 DUP5 DUP3 DUP6 ADD PUSH2 0x2BCD JUMP JUMPDEST SWAP2 POP POP SWAP3 SWAP2 POP POP JUMP JUMPDEST PUSH0 DUP3 DUP3 MSTORE PUSH1 0x20 DUP3 ADD SWAP1 POP SWAP3 SWAP2 POP POP JUMP JUMPDEST PUSH0 PUSH2 0x2C5B DUP3 PUSH2 0x1EF1 JUMP JUMPDEST PUSH2 0x2C65 DUP2 DUP6 PUSH2 0x2C41 JUMP JUMPDEST SWAP4 POP PUSH2 0x2C75 DUP2 DUP6 PUSH1 0x20 DUP7 ADD PUSH2 0x1F0B JUMP JUMPDEST PUSH2 0x2C7E DUP2 PUSH2 0x1CC0 JUMP JUMPDEST DUP5 ADD SWAP2 POP POP SWAP3 SWAP2 POP POP JUMP JUMPDEST PUSH0 PUSH1 0x80 DUP3 ADD SWAP1 POP DUP2 DUP2 SUB PUSH0 DUP4 ADD MSTORE PUSH2 0x2CA1 DUP2 DUP8 PUSH2 0x2C51 JUMP JUMPDEST SWAP1 POP DUP2 DUP2 SUB PUSH1 0x20 DUP4 ADD MSTORE PUSH2 0x2CB5 DUP2 DUP7 PUSH2 0x2C51 JUMP JUMPDEST SWAP1 POP PUSH2 0x2CC4 PUSH1 0x40 DUP4 ADD DUP6 PUSH2 0x26DE JUMP JUMPDEST PUSH2 0x2CD1 PUSH1 0x60 DUP4 ADD DUP5 PUSH2 0x2521 JUMP JUMPDEST SWAP6 SWAP5 POP POP POP POP POP JUMP JUMPDEST PUSH2 0x2CE3 DUP2 PUSH2 0x1F51 JUMP JUMPDEST DUP3 MSTORE POP POP JUMP JUMPDEST PUSH0 PUSH2 0x160 DUP3 ADD SWAP1 POP PUSH2 0x2CFD PUSH0 DUP4 ADD DUP15 PUSH2 0x26DE JUMP JUMPDEST DUP2 DUP2 SUB PUSH1 0x20 DUP4 ADD MSTORE PUSH2 0x2D0F DUP2 DUP14 PUSH2 0x2C51 JUMP JUMPDEST SWAP1 POP DUP2 DUP2 SUB PUSH1 0x40 DUP4 ADD MSTORE PUSH2 0x2D23 DUP2 DUP13 PUSH2 0x2C51 JUMP JUMPDEST SWAP1 POP DUP2 DUP2 SUB PUSH1 0x60 DUP4 ADD MSTORE PUSH2 0x2D37 DUP2 DUP12 PUSH2 0x2C51 JUMP JUMPDEST SWAP1 POP DUP2 DUP2 SUB PUSH1 0x80 DUP4 ADD MSTORE PUSH2 0x2D4B DUP2 DUP11 PUSH2 0x2C51 JUMP JUMPDEST SWAP1 POP DUP2 DUP2 SUB PUSH1 0xA0 DUP4 ADD MSTORE PUSH2 0x2D5F DUP2 DUP10 PUSH2 0x2C51 JUMP JUMPDEST SWAP1 POP PUSH2 0x2D6E PUSH1 0xC0 DUP4 ADD DUP9 PUSH2 0x26DE JUMP JUMPDEST DUP2 DUP2 SUB PUSH1 0xE0 DUP4 ADD MSTORE PUSH2 0x2D80 DUP2 DUP8 PUSH2 0x2C51 JUMP JUMPDEST SWAP1 POP PUSH2 0x2D90 PUSH2 0x100 DUP4 ADD DUP7 PUSH2 0x2CDA JUMP JUMPDEST DUP2 DUP2 SUB PUSH2 0x120 DUP4 ADD MSTORE PUSH2 0x2DA3 DUP2 DUP6 PUSH2 0x2C51 JUMP JUMPDEST SWAP1 POP DUP2 DUP2 SUB PUSH2 0x140 DUP4 ADD MSTORE PUSH2 0x2DB8 DUP2 DUP5 PUSH2 0x2C51 JUMP JUMPDEST SWAP1 POP SWAP13 SWAP12 POP POP POP POP POP POP POP POP POP POP POP POP JUMP JUMPDEST PUSH0 PUSH2 0x180 DUP4 ADD PUSH0 DUP4 ADD MLOAD PUSH2 0x2DE0 PUSH0 DUP7 ADD DUP3 PUSH2 0x1EE2 JUMP JUMPDEST POP PUSH1 0x20 DUP4 ADD MLOAD DUP5 DUP3 SUB PUSH1 0x20 DUP7 ADD MSTORE PUSH2 0x2DF8 DUP3 DUP3 PUSH2 0x1F19 JUMP JUMPDEST SWAP2 POP POP PUSH1 0x40 DUP4 ADD MLOAD DUP5 DUP3 SUB PUSH1 0x40 DUP7 ADD MSTORE PUSH2 0x2E12 DUP3 DUP3 PUSH2 0x1F19 JUMP JUMPDEST SWAP2 POP POP PUSH1 0x60 DUP4 ADD MLOAD DUP5 DUP3 SUB PUSH1 0x60 DUP7 ADD MSTORE PUSH2 0x2E2C DUP3 DUP3 PUSH2 0x1F19 JUMP JUMPDEST SWAP2 POP POP PUSH1 0x80 DUP4 ADD MLOAD DUP5 DUP3 SUB PUSH1 0x80 DUP7 ADD MSTORE PUSH2 0x2E46 DUP3 DUP3 PUSH2 0x1F19 JUMP JUMPDEST SWAP2 POP POP PUSH1 0xA0 DUP4 ADD MLOAD DUP5 DUP3 SUB PUSH1 0xA0 DUP7 ADD MSTORE PUSH2 0x2E60 DUP3 DUP3 PUSH2 0x1F19 JUMP JUMPDEST SWAP2 POP POP PUSH1 0xC0 DUP4 ADD MLOAD PUSH2 0x2E75 PUSH1 0xC0 DUP7 ADD DUP3 PUSH2 0x1EE2 JUMP JUMPDEST POP PUSH1 0xE0 DUP4 ADD MLOAD DUP5 DUP3 SUB PUSH1 0xE0 DUP7 ADD MSTORE PUSH2 0x2E8D DUP3 DUP3 PUSH2 0x1F19 JUMP JUMPDEST SWAP2 POP POP PUSH2 0x100 DUP4 ADD MLOAD PUSH2 0x2EA4 PUSH2 0x100 DUP7 ADD DUP3 PUSH2 0x1F60 JUMP JUMPDEST POP PUSH2 0x120 DUP4 ADD MLOAD DUP5 DUP3 SUB PUSH2 0x120 DUP7 ADD MSTORE PUSH2 0x2EBE DUP3 DUP3 PUSH2 0x1F19 JUMP JUMPDEST SWAP2 POP POP PUSH2 0x140 DUP4 ADD MLOAD DUP5 DUP3 SUB PUSH2 0x140 DUP7 ADD MSTORE PUSH2 0x2EDA DUP3 DUP3 PUSH2 0x1F19 JUMP JUMPDEST SWAP2 POP POP PUSH2 0x160 DUP4 ADD MLOAD DUP5 DUP3 SUB PUSH2 0x160 DUP7 ADD MSTORE PUSH2 0x2EF6 DUP3 DUP3 PUSH2 0x1F19 JUMP JUMPDEST SWAP2 POP POP DUP1 SWAP2 POP POP SWAP3 SWAP2 POP POP JUMP JUMPDEST PUSH0 PUSH1 0x20 DUP3 ADD SWAP1 POP DUP2 DUP2 SUB PUSH0 DUP4 ADD MSTORE PUSH2 0x2F1B DUP2 DUP5 PUSH2 0x2DCA JUMP JUMPDEST SWAP1 POP SWAP3 SWAP2 POP POP JUMP JUMPDEST PUSH32 0x4E487B7100000000000000000000000000000000000000000000000000000000 PUSH0 MSTORE PUSH1 0x11 PUSH1 0x4 MSTORE PUSH1 0x24 PUSH0 REVERT JUMPDEST PUSH0 PUSH2 0x2F5A DUP3 PUSH2 0x2549 JUMP JUMPDEST SWAP2 POP PUSH2 0x2F65 DUP4 PUSH2 0x2549 JUMP JUMPDEST SWAP3 POP DUP3 DUP3 MUL PUSH2 0x2F73 DUP2 PUSH2 0x2549 JUMP JUMPDEST SWAP2 POP DUP3 DUP3 DIV DUP5 EQ DUP4 ISZERO OR PUSH2 0x2F8A JUMPI PUSH2 0x2F89 PUSH2 0x2F23 JUMP JUMPDEST JUMPDEST POP SWAP3 SWAP2 POP POP JUMP JUMPDEST PUSH0 PUSH2 0x2F9B DUP3 PUSH2 0x2549 JUMP JUMPDEST SWAP2 POP PUSH2 0x2FA6 DUP4 PUSH2 0x2549 JUMP JUMPDEST SWAP3 POP DUP3 DUP3 SUB SWAP1 POP DUP2 DUP2 GT ISZERO PUSH2 0x2FBE JUMPI PUSH2 0x2FBD PUSH2 0x2F23 JUMP JUMPDEST JUMPDEST SWAP3 SWAP2 POP POP JUMP JUMPDEST PUSH32 0x4E487B7100000000000000000000000000000000000000000000000000000000 PUSH0 MSTORE PUSH1 0x32 PUSH1 0x4 MSTORE PUSH1 0x24 PUSH0 REVERT JUMPDEST PUSH0 PUSH2 0x2FFB DUP3 PUSH2 0x2549 JUMP JUMPDEST SWAP2 POP PUSH32 0xFFFFFFFFFFFFFFFFFFFFFFFFFFFFFFFFFFFFFFFFFFFFFFFFFFFFFFFFFFFFFFFF DUP3 SUB PUSH2 0x302D JUMPI PUSH2 0x302C PUSH2 0x2F23 JUMP JUMPDEST JUMPDEST PUSH1 0x1 DUP3 ADD SWAP1 POP SWAP2 SWAP1 POP JUMP JUMPDEST PUSH0 PUSH2 0x3042 DUP3 PUSH2 0x2549 JUMP JUMPDEST SWAP2 POP PUSH0 DUP3 SUB PUSH2 0x3054 JUMPI PUSH2 0x3053 PUSH2 0x2F23 JUMP JUMPDEST JUMPDEST PUSH1 0x1 DUP3 SUB SWAP1 POP SWAP2 SWAP1 POP JUMP JUMPDEST PUSH0 PUSH2 0x3069 DUP3 PUSH2 0x1DF4 JUMP JUMPDEST SWAP2 POP PUSH2 0x3074 DUP4 PUSH2 0x1DF4 JUMP JUMPDEST SWAP3 POP DUP3 DUP3 SUB SWAP1 POP PUSH8 0xFFFFFFFFFFFFFFFF DUP2 GT ISZERO PUSH2 0x3094 JUMPI PUSH2 0x3093 PUSH2 0x2F23 JUMP JUMPDEST JUMPDEST SWAP3 SWAP2 POP POP JUMP JUMPDEST PUSH32 0x556E737570706F7274656420696E74657276616C000000000000000000000000 PUSH0 DUP3 ADD MSTORE POP JUMP JUMPDEST PUSH0 PUSH2 0x30CE PUSH1 0x14 DUP4 PUSH2 0x2C41 JUMP JUMPDEST SWAP2 POP PUSH2 0x30D9 DUP3 PUSH2 0x309A JUMP JUMPDEST PUSH1 0x20 DUP3 ADD SWAP1 POP SWAP2 SWAP1 POP JUMP JUMPDEST PUSH0 PUSH1 0x20 DUP3 ADD SWAP1 POP DUP2 DUP2 SUB PUSH0 DUP4 ADD MSTORE PUSH2 0x30FB DUP2 PUSH2 0x30C2 JUMP JUMPDEST SWAP1 POP SWAP2 SWAP1 POP JUMP JUMPDEST PUSH32 0x4E487B7100000000000000000000000000000000000000000000000000000000 PUSH0 MSTORE PUSH1 0x12 PUSH1 0x4 MSTORE PUSH1 0x24 PUSH0 REVERT JUMPDEST PUSH0 PUSH2 0x3139 DUP3 PUSH2 0x1DF4 JUMP JUMPDEST SWAP2 POP PUSH2 0x3144 DUP4 PUSH2 0x1DF4 JUMP JUMPDEST SWAP3 POP DUP3 PUSH2 0x3154 JUMPI PUSH2 0x3153 PUSH2 0x3102 JUMP JUMPDEST JUMPDEST DUP3 DUP3 DIV SWAP1 POP SWAP3 SWAP2 POP POP JUMP JUMPDEST PUSH0 PUSH2 0x3169 DUP3 PUSH2 0x1DF4 JUMP JUMPDEST SWAP2 POP PUSH2 0x3174 DUP4 PUSH2 0x1DF4 JUMP JUMPDEST SWAP3 POP DUP3 DUP3 MUL PUSH2 0x3182 DUP2 PUSH2 0x1DF4 JUMP JUMPDEST SWAP2 POP DUP1 DUP3 EQ PUSH2 0x3194 JUMPI PUSH2 0x3193 PUSH2 0x2F23 JUMP JUMPDEST JUMPDEST POP SWAP3 SWAP2 POP POP JUMP JUMPDEST PUSH32 0x496E76616C696420696E74657276616C20737472696E67000000000000000000 PUSH0 DUP3 ADD MSTORE POP JUMP JUMPDEST PUSH0 PUSH2 0x31CF PUSH1 0x17 DUP4 PUSH2 0x2C41 JUMP JUMPDEST SWAP2 POP PUSH2 0x31DA DUP3 PUSH2 0x319B JUMP JUMPDEST PUSH1 0x20 DUP3 ADD SWAP1 POP SWAP2 SWAP1 POP JUMP JUMPDEST PUSH0 PUSH1 0x20 DUP3 ADD SWAP1 POP DUP2 DUP2 SUB PUSH0 DUP4 ADD MSTORE PUSH2 0x31FC DUP2 PUSH2 0x31C3 JUMP JUMPDEST SWAP1 POP SWAP2 SWAP1 POP JUMP JUMPDEST PUSH0 PUSH1 0x20 DUP3 ADD SWAP1 POP DUP2 DUP2 SUB PUSH0 DUP4 ADD MSTORE PUSH2 0x321B DUP2 DUP5 PUSH2 0x2C51 JUMP JUMPDEST SWAP1 POP SWAP3 SWAP2 POP POP JUMP JUMPDEST PUSH0 PUSH2 0x322D DUP3 PUSH2 0x1DF4 JUMP JUMPDEST SWAP2 POP PUSH2 0x3238 DUP4 PUSH2 0x1DF4 JUMP JUMPDEST SWAP3 POP DUP3 DUP3 ADD SWAP1 POP PUSH8 0xFFFFFFFFFFFFFFFF DUP2 GT ISZERO PUSH2 0x3258 JUMPI PUSH2 0x3257 PUSH2 0x2F23 JUMP JUMPDEST JUMPDEST SWAP3 SWAP2 POP POP JUMP JUMPDEST PUSH2 0x3267 DUP2 PUSH2 0x2549 JUMP JUMPDEST DUP3 MSTORE POP POP JUMP JUMPDEST PUSH0 PUSH1 0x40 DUP3 ADD SWAP1 POP DUP2 DUP2 SUB PUSH0 DUP4 ADD MSTORE PUSH2 0x3285 DUP2 DUP6 PUSH2 0x2C51 JUMP JUMPDEST SWAP1 POP PUSH2 0x3294 PUSH1 0x20 DUP4 ADD DUP5 PUSH2 0x325E JUMP JUMPDEST SWAP4 SWAP3 POP POP POP JUMP JUMPDEST PUSH32 0x4E487B7100000000000000000000000000000000000000000000000000000000 PUSH0 MSTORE PUSH1 0x51 PUSH1 0x4 MSTORE PUSH1 0x24 PUSH0 REVERT INVALID PUSH1 0x80 PUSH1 0x40 MSTORE CALLVALUE DUP1 ISZERO PUSH1 0xE JUMPI PUSH0 PUSH0 REVERT JUMPDEST POP CALLER PUSH1 0x1 PUSH0 PUSH2 0x100 EXP DUP2 SLOAD DUP2 PUSH20 0xFFFFFFFFFFFFFFFFFFFFFFFFFFFFFFFFFFFFFFFF MUL NOT AND SWAP1 DUP4 PUSH20 0xFFFFFFFFFFFFFFFFFFFFFFFFFFFFFFFFFFFFFFFF AND MUL OR SWAP1 SSTORE POP PUSH2 0x1AE7 DUP1 PUSH2 0x5C PUSH0 CODECOPY PUSH0 RETURN INVALID PUSH1 0x80 PUSH1 0x40 MSTORE CALLVALUE DUP1 ISZERO PUSH2 0xF JUMPI PUSH0 PUSH0 REVERT JUMPDEST POP PUSH1 0x4 CALLDATASIZE LT PUSH2 0x55 JUMPI PUSH0 CALLDATALOAD PUSH1 0xE0 SHR DUP1 PUSH4 0xA6478D97 EQ PUSH2 0x59 JUMPI DUP1 PUSH4 0xA8F9B0AF EQ PUSH2 0x77 JUMPI DUP1 PUSH4 0xC45A0155 EQ PUSH2 0x93 JUMPI DUP1 PUSH4 0xEA6C8353 EQ PUSH2 0xB1 JUMPI DUP1 PUSH4 0xFB34B3A9 EQ PUSH2 0xCF JUMPI JUMPDEST PUSH0 PUSH0 REVERT JUMPDEST PUSH2 0x61 PUSH2 0xED JUMP JUMPDEST PUSH1 0x40 MLOAD PUSH2 0x6E SWAP2 SWAP1 PUSH2 0x103D JUMP JUMPDEST PUSH1 0x40 MLOAD DUP1 SWAP2 SUB SWAP1 RETURN JUMPDEST PUSH2 0x91 PUSH1 0x4 DUP1 CALLDATASIZE SUB DUP2 ADD SWAP1 PUSH2 0x8C SWAP2 SWAP1 PUSH2 0x143C JUMP JUMPDEST PUSH2 0xF8 JUMP JUMPDEST STOP JUMPDEST PUSH2 0x9B PUSH2 0x2FE JUMP JUMPDEST PUSH1 0x40 MLOAD PUSH2 0xA8 SWAP2 SWAP1 PUSH2 0x14C2 JUMP JUMPDEST PUSH1 0x40 MLOAD DUP1 SWAP2 SUB SWAP1 RETURN JUMPDEST PUSH2 0xB9 PUSH2 0x323 JUMP JUMPDEST PUSH1 0x40 MLOAD PUSH2 0xC6 SWAP2 SWAP1 PUSH2 0x174D JUMP JUMPDEST PUSH1 0x40 MLOAD DUP1 SWAP2 SUB SWAP1 RETURN JUMPDEST PUSH2 0xD7 PUSH2 0x9A4 JUMP JUMPDEST PUSH1 0x40 MLOAD PUSH2 0xE4 SWAP2 SWAP1 PUSH2 0x174D JUMP JUMPDEST PUSH1 0x40 MLOAD DUP1 SWAP2 SUB SWAP1 RETURN JUMPDEST PUSH0 PUSH0 DUP1 SLOAD SWAP1 POP SWAP1 POP SWAP1 JUMP JUMPDEST PUSH1 0x1 PUSH0 SWAP1 SLOAD SWAP1 PUSH2 0x100 EXP SWAP1 DIV PUSH20 0xFFFFFFFFFFFFFFFFFFFFFFFFFFFFFFFFFFFFFFFF AND PUSH20 0xFFFFFFFFFFFFFFFFFFFFFFFFFFFFFFFFFFFFFFFF AND CALLER PUSH20 0xFFFFFFFFFFFFFFFFFFFFFFFFFFFFFFFFFFFFFFFF AND EQ PUSH2 0x187 JUMPI PUSH1 0x40 MLOAD PUSH32 0x8C379A000000000000000000000000000000000000000000000000000000000 DUP2 MSTORE PUSH1 0x4 ADD PUSH2 0x17E SWAP1 PUSH2 0x17C7 JUMP JUMPDEST PUSH1 0x40 MLOAD DUP1 SWAP2 SUB SWAP1 REVERT JUMPDEST PUSH0 DUP2 SWAP1 DUP1 PUSH1 0x1 DUP2 SLOAD ADD DUP1 DUP3 SSTORE DUP1 SWAP2 POP POP PUSH1 0x1 SWAP1 SUB SWAP1 PUSH0 MSTORE PUSH1 0x20 PUSH0 KECCAK256 SWAP1 PUSH1 0xC MUL ADD PUSH0 SWAP1 SWAP2 SWAP1 SWAP2 SWAP1 SWAP2 POP PUSH0 DUP3 ADD MLOAD DUP2 PUSH0 ADD PUSH0 PUSH2 0x100 EXP DUP2 SLOAD DUP2 PUSH8 0xFFFFFFFFFFFFFFFF MUL NOT AND SWAP1 DUP4 PUSH8 0xFFFFFFFFFFFFFFFF AND MUL OR SWAP1 SSTORE POP PUSH1 0x20 DUP3 ADD MLOAD DUP2 PUSH1 0x1 ADD SWAP1 DUP2 PUSH2 0x1F0 SWAP2 SWAP1 PUSH2 0x19E2 JUMP JUMPDEST POP PUSH1 0x40 DUP3 ADD MLOAD DUP2 PUSH1 0x2 ADD SWAP1 DUP2 PUSH2 0x206 SWAP2 SWAP1 PUSH2 0x19E2 JUMP JUMPDEST POP PUSH1 0x60 DUP3 ADD MLOAD DUP2 PUSH1 0x3 ADD SWAP1 DUP2 PUSH2 0x21C SWAP2 SWAP1 PUSH2 0x19E2 JUMP JUMPDEST POP PUSH1 0x80 DUP3 ADD MLOAD DUP2 PUSH1 0x4 ADD SWAP1 DUP2 PUSH2 0x232 SWAP2 SWAP1 PUSH2 0x19E2 JUMP JUMPDEST POP PUSH1 0xA0 DUP3 ADD MLOAD DUP2 PUSH1 0x5 ADD SWAP1 DUP2 PUSH2 0x248 SWAP2 SWAP1 PUSH2 0x19E2 JUMP JUMPDEST POP PUSH1 0xC0 DUP3 ADD MLOAD DUP2 PUSH1 0x6 ADD PUSH0 PUSH2 0x100 EXP DUP2 SLOAD DUP2 PUSH8 0xFFFFFFFFFFFFFFFF MUL NOT AND SWAP1 DUP4 PUSH8 0xFFFFFFFFFFFFFFFF AND MUL OR SWAP1 SSTORE POP PUSH1 0xE0 DUP3 ADD MLOAD DUP2 PUSH1 0x7 ADD SWAP1 DUP2 PUSH2 0x28C SWAP2 SWAP1 PUSH2 0x19E2 JUMP JUMPDEST POP PUSH2 0x100 DUP3 ADD MLOAD DUP2 PUSH1 0x8 ADD PUSH0 PUSH2 0x100 EXP DUP2 SLOAD DUP2 PUSH4 0xFFFFFFFF MUL NOT AND SWAP1 DUP4 PUSH4 0xFFFFFFFF AND MUL OR SWAP1 SSTORE POP PUSH2 0x120 DUP3 ADD MLOAD DUP2 PUSH1 0x9 ADD SWAP1 DUP2 PUSH2 0x2CA SWAP2 SWAP1 PUSH2 0x19E2 JUMP JUMPDEST POP PUSH2 0x140 DUP3 ADD MLOAD DUP2 PUSH1 0xA ADD SWAP1 DUP2 PUSH2 0x2E1 SWAP2 SWAP1 PUSH2 0x19E2 JUMP JUMPDEST POP PUSH2 0x160 DUP3 ADD MLOAD DUP2 PUSH1 0xB ADD SWAP1 DUP2 PUSH2 0x2F8 SWAP2 SWAP1 PUSH2 0x19E2 JUMP JUMPDEST POP POP POP POP JUMP JUMPDEST PUSH1 0x1 PUSH0 SWAP1 SLOAD SWAP1 PUSH2 0x100 EXP SWAP1 DIV PUSH20 0xFFFFFFFFFFFFFFFFFFFFFFFFFFFFFFFFFFFFFFFF AND DUP2 JUMP JUMPDEST PUSH1 0x60 PUSH1 0x1 PUSH0 SWAP1 SLOAD SWAP1 PUSH2 0x100 EXP SWAP1 DIV PUSH20 0xFFFFFFFFFFFFFFFFFFFFFFFFFFFFFFFFFFFFFFFF AND PUSH20 0xFFFFFFFFFFFFFFFFFFFFFFFFFFFFFFFFFFFFFFFF AND CALLER PUSH20 0xFFFFFFFFFFFFFFFFFFFFFFFFFFFFFFFFFFFFFFFF AND EQ PUSH2 0x3B4 JUMPI PUSH1 0x40 MLOAD PUSH32 0x8C379A000000000000000000000000000000000000000000000000000000000 DUP2 MSTORE PUSH1 0x4 ADD PUSH2 0x3AB SWAP1 PUSH2 0x17C7 JUMP JUMPDEST PUSH1 0x40 MLOAD DUP1 SWAP2 SUB SWAP1 REVERT JUMPDEST PUSH0 DUP1 SLOAD DUP1 PUSH1 0x20 MUL PUSH1 0x20 ADD PUSH1 0x40 MLOAD SWAP1 DUP2 ADD PUSH1 0x40 MSTORE DUP1 SWAP3 SWAP2 SWAP1 DUP2 DUP2 MSTORE PUSH1 0x20 ADD PUSH0 SWAP1 JUMPDEST DUP3 DUP3 LT ISZERO PUSH2 0x99B JUMPI DUP4 DUP3 SWAP1 PUSH0 MSTORE PUSH1 0x20 PUSH0 KECCAK256 SWAP1 PUSH1 0xC MUL ADD PUSH1 0x40 MLOAD DUP1 PUSH2 0x180 ADD PUSH1 0x40 MSTORE SWAP1 DUP2 PUSH0 DUP3 ADD PUSH0 SWAP1 SLOAD SWAP1 PUSH2 0x100 EXP SWAP1 DIV PUSH8 0xFFFFFFFFFFFFFFFF AND PUSH8 0xFFFFFFFFFFFFFFFF AND PUSH8 0xFFFFFFFFFFFFFFFF AND DUP2 MSTORE PUSH1 0x20 ADD PUSH1 0x1 DUP3 ADD DUP1 SLOAD PUSH2 0x436 SWAP1 PUSH2 0x1812 JUMP JUMPDEST DUP1 PUSH1 0x1F ADD PUSH1 0x20 DUP1 SWAP2 DIV MUL PUSH1 0x20 ADD PUSH1 0x40 MLOAD SWAP1 DUP2 ADD PUSH1 0x40 MSTORE DUP1 SWAP3 SWAP2 SWAP1 DUP2 DUP2 MSTORE PUSH1 0x20 ADD DUP3 DUP1 SLOAD PUSH2 0x462 SWAP1 PUSH2 0x1812 JUMP JUMPDEST DUP1 ISZERO PUSH2 0x4AD JUMPI DUP1 PUSH1 0x1F LT PUSH2 0x484 JUMPI PUSH2 0x100 DUP1 DUP4 SLOAD DIV MUL DUP4 MSTORE SWAP2 PUSH1 0x20 ADD SWAP2 PUSH2 0x4AD JUMP JUMPDEST DUP3 ADD SWAP2 SWAP1 PUSH0 MSTORE PUSH1 0x20 PUSH0 KECCAK256 SWAP1 JUMPDEST DUP2 SLOAD DUP2 MSTORE SWAP1 PUSH1 0x1 ADD SWAP1 PUSH1 0x20 ADD DUP1 DUP4 GT PUSH2 0x490 JUMPI DUP3 SWAP1 SUB PUSH1 0x1F AND DUP3 ADD SWAP2 JUMPDEST POP POP POP POP POP DUP2 MSTORE PUSH1 0x20 ADD PUSH1 0x2 DUP3 ADD DUP1 SLOAD PUSH2 0x4C6 SWAP1 PUSH2 0x1812 JUMP JUMPDEST DUP1 PUSH1 0x1F ADD PUSH1 0x20 DUP1 SWAP2 DIV MUL PUSH1 0x20 ADD PUSH1 0x40 MLOAD SWAP1 DUP2 ADD PUSH1 0x40 MSTORE DUP1 SWAP3 SWAP2 SWAP1 DUP2 DUP2 MSTORE PUSH1 0x20 ADD DUP3 DUP1 SLOAD PUSH2 0x4F2 SWAP1 PUSH2 0x1812 JUMP JUMPDEST DUP1 ISZERO PUSH2 0x53D JUMPI DUP1 PUSH1 0x1F LT PUSH2 0x514 JUMPI PUSH2 0x100 DUP1 DUP4 SLOAD DIV MUL DUP4 MSTORE SWAP2 PUSH1 0x20 ADD SWAP2 PUSH2 0x53D JUMP JUMPDEST DUP3 ADD SWAP2 SWAP1 PUSH0 MSTORE PUSH1 0x20 PUSH0 KECCAK256 SWAP1 JUMPDEST DUP2 SLOAD DUP2 MSTORE SWAP1 PUSH1 0x1 ADD SWAP1 PUSH1 0x20 ADD DUP1 DUP4 GT PUSH2 0x520 JUMPI DUP3 SWAP1 SUB PUSH1 0x1F AND DUP3 ADD SWAP2 JUMPDEST POP POP POP POP POP DUP2 MSTORE PUSH1 0x20 ADD PUSH1 0x3 DUP3 ADD DUP1 SLOAD PUSH2 0x556 SWAP1 PUSH2 0x1812 JUMP JUMPDEST DUP1 PUSH1 0x1F ADD PUSH1 0x20 DUP1 SWAP2 DIV MUL PUSH1 0x20 ADD PUSH1 0x40 MLOAD SWAP1 DUP2 ADD PUSH1 0x40 MSTORE DUP1 SWAP3 SWAP2 SWAP1 DUP2 DUP2 MSTORE PUSH1 0x20 ADD DUP3 DUP1 SLOAD PUSH2 0x582 SWAP1 PUSH2 0x1812 JUMP JUMPDEST DUP1 ISZERO PUSH2 0x5CD JUMPI DUP1 PUSH1 0x1F LT PUSH2 0x5A4 JUMPI PUSH2 0x100 DUP1 DUP4 SLOAD DIV MUL DUP4 MSTORE SWAP2 PUSH1 0x20 ADD SWAP2 PUSH2 0x5CD JUMP JUMPDEST DUP3 ADD SWAP2 SWAP1 PUSH0 MSTORE PUSH1 0x20 PUSH0 KECCAK256 SWAP1 JUMPDEST DUP2 SLOAD DUP2 MSTORE SWAP1 PUSH1 0x1 ADD SWAP1 PUSH1 0x20 ADD DUP1 DUP4 GT PUSH2 0x5B0 JUMPI DUP3 SWAP1 SUB PUSH1 0x1F AND DUP3 ADD SWAP2 JUMPDEST POP POP POP POP POP DUP2 MSTORE PUSH1 0x20 ADD PUSH1 0x4 DUP3 ADD DUP1 SLOAD PUSH2 0x5E6 SWAP1 PUSH2 0x1812 JUMP JUMPDEST DUP1 PUSH1 0x1F ADD PUSH1 0x20 DUP1 SWAP2 DIV MUL PUSH1 0x20 ADD PUSH1 0x40 MLOAD SWAP1 DUP2 ADD PUSH1 0x40 MSTORE DUP1 SWAP3 SWAP2 SWAP1 DUP2 DUP2 MSTORE PUSH1 0x20 ADD DUP3 DUP1 SLOAD PUSH2 0x612 SWAP1 PUSH2 0x1812 JUMP JUMPDEST DUP1 ISZERO PUSH2 0x65D JUMPI DUP1 PUSH1 0x1F LT PUSH2 0x634 JUMPI PUSH2 0x100 DUP1 DUP4 SLOAD DIV MUL DUP4 MSTORE SWAP2 PUSH1 0x20 ADD SWAP2 PUSH2 0x65D JUMP JUMPDEST DUP3 ADD SWAP2 SWAP1 PUSH0 MSTORE PUSH1 0x20 PUSH0 KECCAK256 SWAP1 JUMPDEST DUP2 SLOAD DUP2 MSTORE SWAP1 PUSH1 0x1 ADD SWAP1 PUSH1 0x20 ADD DUP1 DUP4 GT PUSH2 0x640 JUMPI DUP3 SWAP1 SUB PUSH1 0x1F AND DUP3 ADD SWAP2 JUMPDEST POP POP POP POP POP DUP2 MSTORE PUSH1 0x20 ADD PUSH1 0x5 DUP3 ADD DUP1 SLOAD PUSH2 0x676 SWAP1 PUSH2 0x1812 JUMP JUMPDEST DUP1 PUSH1 0x1F ADD PUSH1 0x20 DUP1 SWAP2 DIV MUL PUSH1 0x20 ADD PUSH1 0x40 MLOAD SWAP1 DUP2 ADD PUSH1 0x40 MSTORE DUP1 SWAP3 SWAP2 SWAP1 DUP2 DUP2 MSTORE PUSH1 0x20 ADD DUP3 DUP1 SLOAD PUSH2 0x6A2 SWAP1 PUSH2 0x1812 JUMP JUMPDEST DUP1 ISZERO PUSH2 0x6ED JUMPI DUP1 PUSH1 0x1F LT PUSH2 0x6C4 JUMPI PUSH2 0x100 DUP1 DUP4 SLOAD DIV MUL DUP4 MSTORE SWAP2 PUSH1 0x20 ADD SWAP2 PUSH2 0x6ED JUMP JUMPDEST DUP3 ADD SWAP2 SWAP1 PUSH0 MSTORE PUSH1 0x20 PUSH0 KECCAK256 SWAP1 JUMPDEST DUP2 SLOAD DUP2 MSTORE SWAP1 PUSH1 0x1 ADD SWAP1 PUSH1 0x20 ADD DUP1 DUP4 GT PUSH2 0x6D0 JUMPI DUP3 SWAP1 SUB PUSH1 0x1F AND DUP3 ADD SWAP2 JUMPDEST POP POP POP POP POP DUP2 MSTORE PUSH1 0x20 ADD PUSH1 0x6 DUP3 ADD PUSH0 SWAP1 SLOAD SWAP1 PUSH2 0x100 EXP SWAP1 DIV PUSH8 0xFFFFFFFFFFFFFFFF AND PUSH8 0xFFFFFFFFFFFFFFFF AND PUSH8 0xFFFFFFFFFFFFFFFF AND DUP2 MSTORE PUSH1 0x20 ADD PUSH1 0x7 DUP3 ADD DUP1 SLOAD PUSH2 0x737 SWAP1 PUSH2 0x1812 JUMP JUMPDEST DUP1 PUSH1 0x1F ADD PUSH1 0x20 DUP1 SWAP2 DIV MUL PUSH1 0x20 ADD PUSH1 0x40 MLOAD SWAP1 DUP2 ADD PUSH1 0x40 MSTORE DUP1 SWAP3 SWAP2 SWAP1 DUP2 DUP2 MSTORE PUSH1 0x20 ADD DUP3 DUP1 SLOAD PUSH2 0x763 SWAP1 PUSH2 0x1812 JUMP JUMPDEST DUP1 ISZERO PUSH2 0x7AE JUMPI DUP1 PUSH1 0x1F LT PUSH2 0x785 JUMPI PUSH2 0x100 DUP1 DUP4 SLOAD DIV MUL DUP4 MSTORE SWAP2 PUSH1 0x20 ADD SWAP2 PUSH2 0x7AE JUMP JUMPDEST DUP3 ADD SWAP2 SWAP1 PUSH0 MSTORE PUSH1 0x20 PUSH0 KECCAK256 SWAP1 JUMPDEST DUP2 SLOAD DUP2 MSTORE SWAP1 PUSH1 0x1 ADD SWAP1 PUSH1 0x20 ADD DUP1 DUP4 GT PUSH2 0x791 JUMPI DUP3 SWAP1 SUB PUSH1 0x1F AND DUP3 ADD SWAP2 JUMPDEST POP POP POP POP POP DUP2 MSTORE PUSH1 0x20 ADD PUSH1 0x8 DUP3 ADD PUSH0 SWAP1 SLOAD SWAP1 PUSH2 0x100 EXP SWAP1 DIV PUSH4 0xFFFFFFFF AND PUSH4 0xFFFFFFFF AND PUSH4 0xFFFFFFFF AND DUP2 MSTORE PUSH1 0x20 ADD PUSH1 0x9 DUP3 ADD DUP1 SLOAD PUSH2 0x7EC SWAP1 PUSH2 0x1812 JUMP JUMPDEST DUP1 PUSH1 0x1F ADD PUSH1 0x20 DUP1 SWAP2 DIV MUL PUSH1 0x20 ADD PUSH1 0x40 MLOAD SWAP1 DUP2 ADD PUSH1 0x40 MSTORE DUP1 SWAP3 SWAP2 SWAP1 DUP2 DUP2 MSTORE PUSH1 0x20 ADD DUP3 DUP1 SLOAD PUSH2 0x818 SWAP1 PUSH2 0x1812 JUMP JUMPDEST DUP1 ISZERO PUSH2 0x863 JUMPI DUP1 PUSH1 0x1F LT PUSH2 0x83A JUMPI PUSH2 0x100 DUP1 DUP4 SLOAD DIV MUL DUP4 MSTORE SWAP2 PUSH1 0x20 ADD SWAP2 PUSH2 0x863 JUMP JUMPDEST DUP3 ADD SWAP2 SWAP1 PUSH0 MSTORE PUSH1 0x20 PUSH0 KECCAK256 SWAP1 JUMPDEST DUP2 SLOAD DUP2 MSTORE SWAP1 PUSH1 0x1 ADD SWAP1 PUSH1 0x20 ADD DUP1 DUP4 GT PUSH2 0x846 JUMPI DUP3 SWAP1 SUB PUSH1 0x1F AND DUP3 ADD SWAP2 JUMPDEST POP POP POP POP POP DUP2 MSTORE PUSH1 0x20 ADD PUSH1 0xA DUP3 ADD DUP1 SLOAD PUSH2 0x87C SWAP1 PUSH2 0x1812 JUMP JUMPDEST DUP1 PUSH1 0x1F ADD PUSH1 0x20 DUP1 SWAP2 DIV MUL PUSH1 0x20 ADD PUSH1 0x40 MLOAD SWAP1 DUP2 ADD PUSH1 0x40 MSTORE DUP1 SWAP3 SWAP2 SWAP1 DUP2 DUP2 MSTORE PUSH1 0x20 ADD DUP3 DUP1 SLOAD PUSH2 0x8A8 SWAP1 PUSH2 0x1812 JUMP JUMPDEST DUP1 ISZERO PUSH2 0x8F3 JUMPI DUP1 PUSH1 0x1F LT PUSH2 0x8CA JUMPI PUSH2 0x100 DUP1 DUP4 SLOAD DIV MUL DUP4 MSTORE SWAP2 PUSH1 0x20 ADD SWAP2 PUSH2 0x8F3 JUMP JUMPDEST DUP3 ADD SWAP2 SWAP1 PUSH0 MSTORE PUSH1 0x20 PUSH0 KECCAK256 SWAP1 JUMPDEST DUP2 SLOAD DUP2 MSTORE SWAP1 PUSH1 0x1 ADD SWAP1 PUSH1 0x20 ADD DUP1 DUP4 GT PUSH2 0x8D6 JUMPI DUP3 SWAP1 SUB PUSH1 0x1F AND DUP3 ADD SWAP2 JUMPDEST POP POP POP POP POP DUP2 MSTORE PUSH1 0x20 ADD PUSH1 0xB DUP3 ADD DUP1 SLOAD PUSH2 0x90C SWAP1 PUSH2 0x1812 JUMP JUMPDEST DUP1 PUSH1 0x1F ADD PUSH1 0x20 DUP1 SWAP2 DIV MUL PUSH1 0x20 ADD PUSH1 0x40 MLOAD SWAP1 DUP2 ADD PUSH1 0x40 MSTORE DUP1 SWAP3 SWAP2 SWAP1 DUP2 DUP2 MSTORE PUSH1 0x20 ADD DUP3 DUP1 SLOAD PUSH2 0x938 SWAP1 PUSH2 0x1812 JUMP JUMPDEST DUP1 ISZERO PUSH2 0x983 JUMPI DUP1 PUSH1 0x1F LT PUSH2 0x95A JUMPI PUSH2 0x100 DUP1 DUP4 SLOAD DIV MUL DUP4 MSTORE SWAP2 PUSH1 0x20 ADD SWAP2 PUSH2 0x983 JUMP JUMPDEST DUP3 ADD SWAP2 SWAP1 PUSH0 MSTORE PUSH1 0x20 PUSH0 KECCAK256 SWAP1 JUMPDEST DUP2 SLOAD DUP2 MSTORE SWAP1 PUSH1 0x1 ADD SWAP1 PUSH1 0x20 ADD DUP1 DUP4 GT PUSH2 0x966 JUMPI DUP3 SWAP1 SUB PUSH1 0x1F AND DUP3 ADD SWAP2 JUMPDEST POP POP POP POP POP DUP2 MSTORE POP POP DUP2 MSTORE PUSH1 0x20 ADD SWAP1 PUSH1 0x1 ADD SWAP1 PUSH2 0x3D4 JUMP JUMPDEST POP POP POP POP SWAP1 POP SWAP1 JUMP JUMPDEST PUSH1 0x60 PUSH1 0x1 PUSH0 SWAP1 SLOAD SWAP1 PUSH2 0x100 EXP SWAP1 DIV PUSH20 0xFFFFFFFFFFFFFFFFFFFFFFFFFFFFFFFFFFFFFFFF AND PUSH20 0xFFFFFFFFFFFFFFFFFFFFFFFFFFFFFFFFFFFFFFFF AND CALLER PUSH20 0xFFFFFFFFFFFFFFFFFFFFFFFFFFFFFFFFFFFFFFFF AND EQ PUSH2 0xA35 JUMPI PUSH1 0x40 MLOAD PUSH32 0x8C379A000000000000000000000000000000000000000000000000000000000 DUP2 MSTORE PUSH1 0x4 ADD PUSH2 0xA2C SWAP1 PUSH2 0x17C7 JUMP JUMPDEST PUSH1 0x40 MLOAD DUP1 SWAP2 SUB SWAP1 REVERT JUMPDEST PUSH0 DUP1 SLOAD DUP1 PUSH1 0x20 MUL PUSH1 0x20 ADD PUSH1 0x40 MLOAD SWAP1 DUP2 ADD PUSH1 0x40 MSTORE DUP1 SWAP3 SWAP2 SWAP1 DUP2 DUP2 MSTORE PUSH1 0x20 ADD PUSH0 SWAP1 JUMPDEST DUP3 DUP3 LT ISZERO PUSH2 0x101C JUMPI DUP4 DUP3 SWAP1 PUSH0 MSTORE PUSH1 0x20 PUSH0 KECCAK256 SWAP1 PUSH1 0xC MUL ADD PUSH1 0x40 MLOAD DUP1 PUSH2 0x180 ADD PUSH1 0x40 MSTORE SWAP1 DUP2 PUSH0 DUP3 ADD PUSH0 SWAP1 SLOAD SWAP1 PUSH2 0x100 EXP SWAP1 DIV PUSH8 0xFFFFFFFFFFFFFFFF AND PUSH8 0xFFFFFFFFFFFFFFFF AND PUSH8 0xFFFFFFFFFFFFFFFF AND DUP2 MSTORE PUSH1 0x20 ADD PUSH1 0x1 DUP3 ADD DUP1 SLOAD PUSH2 0xAB7 SWAP1 PUSH2 0x1812 JUMP JUMPDEST DUP1 PUSH1 0x1F ADD PUSH1 0x20 DUP1 SWAP2 DIV MUL PUSH1 0x20 ADD PUSH1 0x40 MLOAD SWAP1 DUP2 ADD PUSH1 0x40 MSTORE DUP1 SWAP3 SWAP2 SWAP1 DUP2 DUP2 MSTORE PUSH1 0x20 ADD DUP3 DUP1 SLOAD PUSH2 0xAE3 SWAP1 PUSH2 0x1812 JUMP JUMPDEST DUP1 ISZERO PUSH2 0xB2E JUMPI DUP1 PUSH1 0x1F LT PUSH2 0xB05 JUMPI PUSH2 0x100 DUP1 DUP4 SLOAD DIV MUL DUP4 MSTORE SWAP2 PUSH1 0x20 ADD SWAP2 PUSH2 0xB2E JUMP JUMPDEST DUP3 ADD SWAP2 SWAP1 PUSH0 MSTORE PUSH1 0x20 PUSH0 KECCAK256 SWAP1 JUMPDEST DUP2 SLOAD DUP2 MSTORE SWAP1 PUSH1 0x1 ADD SWAP1 PUSH1 0x20 ADD DUP1 DUP4 GT PUSH2 0xB11 JUMPI DUP3 SWAP1 SUB PUSH1 0x1F AND DUP3 ADD SWAP2 JUMPDEST POP POP POP POP POP DUP2 MSTORE PUSH1 0x20 ADD PUSH1 0x2 DUP3 ADD DUP1 SLOAD PUSH2 0xB47 SWAP1 PUSH2 0x1812 JUMP JUMPDEST DUP1 PUSH1 0x1F ADD PUSH1 0x20 DUP1 SWAP2 DIV MUL PUSH1 0x20 ADD PUSH1 0x40 MLOAD SWAP1 DUP2 ADD PUSH1 0x40 MSTORE DUP1 SWAP3 SWAP2 SWAP1 DUP2 DUP2 MSTORE PUSH1 0x20 ADD DUP3 DUP1 SLOAD PUSH2 0xB73 SWAP1 PUSH2 0x1812 JUMP JUMPDEST DUP1 ISZERO PUSH2 0xBBE JUMPI DUP1 PUSH1 0x1F LT PUSH2 0xB95 JUMPI PUSH2 0x100 DUP1 DUP4 SLOAD DIV MUL DUP4 MSTORE SWAP2 PUSH1 0x20 ADD SWAP2 PUSH2 0xBBE JUMP JUMPDEST DUP3 ADD SWAP2 SWAP1 PUSH0 MSTORE PUSH1 0x20 PUSH0 KECCAK256 SWAP1 JUMPDEST DUP2 SLOAD DUP2 MSTORE SWAP1 PUSH1 0x1 ADD SWAP1 PUSH1 0x20 ADD DUP1 DUP4 GT PUSH2 0xBA1 JUMPI DUP3 SWAP1 SUB PUSH1 0x1F AND DUP3 ADD SWAP2 JUMPDEST POP POP POP POP POP DUP2 MSTORE PUSH1 0x20 ADD PUSH1 0x3 DUP3 ADD DUP1 SLOAD PUSH2 0xBD7 SWAP1 PUSH2 0x1812 JUMP JUMPDEST DUP1 PUSH1 0x1F ADD PUSH1 0x20 DUP1 SWAP2 DIV MUL PUSH1 0x20 ADD PUSH1 0x40 MLOAD SWAP1 DUP2 ADD PUSH1 0x40 MSTORE DUP1 SWAP3 SWAP2 SWAP1 DUP2 DUP2 MSTORE PUSH1 0x20 ADD DUP3 DUP1 SLOAD PUSH2 0xC03 SWAP1 PUSH2 0x1812 JUMP JUMPDEST DUP1 ISZERO PUSH2 0xC4E JUMPI DUP1 PUSH1 0x1F LT PUSH2 0xC25 JUMPI PUSH2 0x100 DUP1 DUP4 SLOAD DIV MUL DUP4 MSTORE SWAP2 PUSH1 0x20 ADD SWAP2 PUSH2 0xC4E JUMP JUMPDEST DUP3 ADD SWAP2 SWAP1 PUSH0 MSTORE PUSH1 0x20 PUSH0 KECCAK256 SWAP1 JUMPDEST DUP2 SLOAD DUP2 MSTORE SWAP1 PUSH1 0x1 ADD SWAP1 PUSH1 0x20 ADD DUP1 DUP4 GT PUSH2 0xC31 JUMPI DUP3 SWAP1 SUB PUSH1 0x1F AND DUP3 ADD SWAP2 JUMPDEST POP POP POP POP POP DUP2 MSTORE PUSH1 0x20 ADD PUSH1 0x4 DUP3 ADD DUP1 SLOAD PUSH2 0xC67 SWAP1 PUSH2 0x1812 JUMP JUMPDEST DUP1 PUSH1 0x1F ADD PUSH1 0x20 DUP1 SWAP2 DIV MUL PUSH1 0x20 ADD PUSH1 0x40 MLOAD SWAP1 DUP2 ADD PUSH1 0x40 MSTORE DUP1 SWAP3 SWAP2 SWAP1 DUP2 DUP2 MSTORE PUSH1 0x20 ADD DUP3 DUP1 SLOAD PUSH2 0xC93 SWAP1 PUSH2 0x1812 JUMP JUMPDEST DUP1 ISZERO PUSH2 0xCDE JUMPI DUP1 PUSH1 0x1F LT PUSH2 0xCB5 JUMPI PUSH2 0x100 DUP1 DUP4 SLOAD DIV MUL DUP4 MSTORE SWAP2 PUSH1 0x20 ADD SWAP2 PUSH2 0xCDE JUMP JUMPDEST DUP3 ADD SWAP2 SWAP1 PUSH0 MSTORE PUSH1 0x20 PUSH0 KECCAK256 SWAP1 JUMPDEST DUP2 SLOAD DUP2 MSTORE SWAP1 PUSH1 0x1 ADD SWAP1 PUSH1 0x20 ADD DUP1 DUP4 GT PUSH2 0xCC1 JUMPI DUP3 SWAP1 SUB PUSH1 0x1F AND DUP3 ADD SWAP2 JUMPDEST POP POP POP POP POP DUP2 MSTORE PUSH1 0x20 ADD PUSH1 0x5 DUP3 ADD DUP1 SLOAD PUSH2 0xCF7 SWAP1 PUSH2 0x1812 JUMP JUMPDEST DUP1 PUSH1 0x1F ADD PUSH1 0x20 DUP1 SWAP2 DIV MUL PUSH1 0x20 ADD PUSH1 0x40 MLOAD SWAP1 DUP2 ADD PUSH1 0x40 MSTORE DUP1 SWAP3 SWAP2 SWAP1 DUP2 DUP2 MSTORE PUSH1 0x20 ADD DUP3 DUP1 SLOAD PUSH2 0xD23 SWAP1 PUSH2 0x1812 JUMP JUMPDEST DUP1 ISZERO PUSH2 0xD6E JUMPI DUP1 PUSH1 0x1F LT PUSH2 0xD45 JUMPI PUSH2 0x100 DUP1 DUP4 SLOAD DIV MUL DUP4 MSTORE SWAP2 PUSH1 0x20 ADD SWAP2 PUSH2 0xD6E JUMP JUMPDEST DUP3 ADD SWAP2 SWAP1 PUSH0 MSTORE PUSH1 0x20 PUSH0 KECCAK256 SWAP1 JUMPDEST DUP2 SLOAD DUP2 MSTORE SWAP1 PUSH1 0x1 ADD SWAP1 PUSH1 0x20 ADD DUP1 DUP4 GT PUSH2 0xD51 JUMPI DUP3 SWAP1 SUB PUSH1 0x1F AND DUP3 ADD SWAP2 JUMPDEST POP POP POP POP POP DUP2 MSTORE PUSH1 0x20 ADD PUSH1 0x6 DUP3 ADD PUSH0 SWAP1 SLOAD SWAP1 PUSH2 0x100 EXP SWAP1 DIV PUSH8 0xFFFFFFFFFFFFFFFF AND PUSH8 0xFFFFFFFFFFFFFFFF AND PUSH8 0xFFFFFFFFFFFFFFFF AND DUP2 MSTORE PUSH1 0x20 ADD PUSH1 0x7 DUP3 ADD DUP1 SLOAD PUSH2 0xDB8 SWAP1 PUSH2 0x1812 JUMP JUMPDEST DUP1 PUSH1 0x1F ADD PUSH1 0x20 DUP1 SWAP2 DIV MUL PUSH1 0x20 ADD PUSH1 0x40 MLOAD SWAP1 DUP2 ADD PUSH1 0x40 MSTORE DUP1 SWAP3 SWAP2 SWAP1 DUP2 DUP2 MSTORE PUSH1 0x20 ADD DUP3 DUP1 SLOAD PUSH2 0xDE4 SWAP1 PUSH2 0x1812 JUMP JUMPDEST DUP1 ISZERO PUSH2 0xE2F JUMPI DUP1 PUSH1 0x1F LT PUSH2 0xE06 JUMPI PUSH2 0x100 DUP1 DUP4 SLOAD DIV MUL DUP4 MSTORE SWAP2 PUSH1 0x20 ADD SWAP2 PUSH2 0xE2F JUMP JUMPDEST DUP3 ADD SWAP2 SWAP1 PUSH0 MSTORE PUSH1 0x20 PUSH0 KECCAK256 SWAP1 JUMPDEST DUP2 SLOAD DUP2 MSTORE SWAP1 PUSH1 0x1 ADD SWAP1 PUSH1 0x20 ADD DUP1 DUP4 GT PUSH2 0xE12 JUMPI DUP3 SWAP1 SUB PUSH1 0x1F AND DUP3 ADD SWAP2 JUMPDEST POP POP POP POP POP DUP2 MSTORE PUSH1 0x20 ADD PUSH1 0x8 DUP3 ADD PUSH0 SWAP1 SLOAD SWAP1 PUSH2 0x100 EXP SWAP1 DIV PUSH4 0xFFFFFFFF AND PUSH4 0xFFFFFFFF AND PUSH4 0xFFFFFFFF AND DUP2 MSTORE PUSH1 0x20 ADD PUSH1 0x9 DUP3 ADD DUP1 SLOAD PUSH2 0xE6D SWAP1 PUSH2 0x1812 JUMP JUMPDEST DUP1 PUSH1 0x1F ADD PUSH1 0x20 DUP1 SWAP2 DIV MUL PUSH1 0x20 ADD PUSH1 0x40 MLOAD SWAP1 DUP2 ADD PUSH1 0x40 MSTORE DUP1 SWAP3 SWAP2 SWAP1 DUP2 DUP2 MSTORE PUSH1 0x20 ADD DUP3 DUP1 SLOAD PUSH2 0xE99 SWAP1 PUSH2 0x1812 JUMP JUMPDEST DUP1 ISZERO PUSH2 0xEE4 JUMPI DUP1 PUSH1 0x1F LT PUSH2 0xEBB JUMPI PUSH2 0x100 DUP1 DUP4 SLOAD DIV MUL DUP4 MSTORE SWAP2 PUSH1 0x20 ADD SWAP2 PUSH2 0xEE4 JUMP JUMPDEST DUP3 ADD SWAP2 SWAP1 PUSH0 MSTORE PUSH1 0x20 PUSH0 KECCAK256 SWAP1 JUMPDEST DUP2 SLOAD DUP2 MSTORE SWAP1 PUSH1 0x1 ADD SWAP1 PUSH1 0x20 ADD DUP1 DUP4 GT PUSH2 0xEC7 JUMPI DUP3 SWAP1 SUB PUSH1 0x1F AND DUP3 ADD SWAP2 JUMPDEST POP POP POP POP POP DUP2 MSTORE PUSH1 0x20 ADD PUSH1 0xA DUP3 ADD DUP1 SLOAD PUSH2 0xEFD SWAP1 PUSH2 0x1812 JUMP JUMPDEST DUP1 PUSH1 0x1F ADD PUSH1 0x20 DUP1 SWAP2 DIV MUL PUSH1 0x20 ADD PUSH1 0x40 MLOAD SWAP1 DUP2 ADD PUSH1 0x40 MSTORE DUP1 SWAP3 SWAP2 SWAP1 DUP2 DUP2 MSTORE PUSH1 0x20 ADD DUP3 DUP1 SLOAD PUSH2 0xF29 SWAP1 PUSH2 0x1812 JUMP JUMPDEST DUP1 ISZERO PUSH2 0xF74 JUMPI DUP1 PUSH1 0x1F LT PUSH2 0xF4B JUMPI PUSH2 0x100 DUP1 DUP4 SLOAD DIV MUL DUP4 MSTORE SWAP2 PUSH1 0x20 ADD SWAP2 PUSH2 0xF74 JUMP JUMPDEST DUP3 ADD SWAP2 SWAP1 PUSH0 MSTORE PUSH1 0x20 PUSH0 KECCAK256 SWAP1 JUMPDEST DUP2 SLOAD DUP2 MSTORE SWAP1 PUSH1 0x1 ADD SWAP1 PUSH1 0x20 ADD DUP1 DUP4 GT PUSH2 0xF57 JUMPI DUP3 SWAP1 SUB PUSH1 0x1F AND DUP3 ADD SWAP2 JUMPDEST POP POP POP POP POP DUP2 MSTORE PUSH1 0x20 ADD PUSH1 0xB DUP3 ADD DUP1 SLOAD PUSH2 0xF8D SWAP1 PUSH2 0x1812 JUMP JUMPDEST DUP1 PUSH1 0x1F ADD PUSH1 0x20 DUP1 SWAP2 DIV MUL PUSH1 0x20 ADD PUSH1 0x40 MLOAD SWAP1 DUP2 ADD PUSH1 0x40 MSTORE DUP1 SWAP3 SWAP2 SWAP1 DUP2 DUP2 MSTORE PUSH1 0x20 ADD DUP3 DUP1 SLOAD PUSH2 0xFB9 SWAP1 PUSH2 0x1812 JUMP JUMPDEST DUP1 ISZERO PUSH2 0x1004 JUMPI DUP1 PUSH1 0x1F LT PUSH2 0xFDB JUMPI PUSH2 0x100 DUP1 DUP4 SLOAD DIV MUL DUP4 MSTORE SWAP2 PUSH1 0x20 ADD SWAP2 PUSH2 0x1004 JUMP JUMPDEST DUP3 ADD SWAP2 SWAP1 PUSH0 MSTORE PUSH1 0x20 PUSH0 KECCAK256 SWAP1 JUMPDEST DUP2 SLOAD DUP2 MSTORE SWAP1 PUSH1 0x1 ADD SWAP1 PUSH1 0x20 ADD DUP1 DUP4 GT PUSH2 0xFE7 JUMPI DUP3 SWAP1 SUB PUSH1 0x1F AND DUP3 ADD SWAP2 JUMPDEST POP POP POP POP POP DUP2 MSTORE POP POP DUP2 MSTORE PUSH1 0x20 ADD SWAP1 PUSH1 0x1 ADD SWAP1 PUSH2 0xA55 JUMP JUMPDEST POP POP POP POP SWAP1 POP SWAP1 JUMP JUMPDEST PUSH0 DUP2 SWAP1 POP SWAP2 SWAP1 POP JUMP JUMPDEST PUSH2 0x1037 DUP2 PUSH2 0x1025 JUMP JUMPDEST DUP3 MSTORE POP POP JUMP JUMPDEST PUSH0 PUSH1 0x20 DUP3 ADD SWAP1 POP PUSH2 0x1050 PUSH0 DUP4 ADD DUP5 PUSH2 0x102E JUMP JUMPDEST SWAP3 SWAP2 POP POP JUMP JUMPDEST PUSH0 PUSH1 0x40 MLOAD SWAP1 POP SWAP1 JUMP JUMPDEST PUSH0 PUSH0 REVERT JUMPDEST PUSH0 PUSH0 REVERT JUMPDEST PUSH0 PUSH0 REVERT JUMPDEST PUSH0 PUSH1 0x1F NOT PUSH1 0x1F DUP4 ADD AND SWAP1 POP SWAP2 SWAP1 POP JUMP JUMPDEST PUSH32 0x4E487B7100000000000000000000000000000000000000000000000000000000 PUSH0 MSTORE PUSH1 0x41 PUSH1 0x4 MSTORE PUSH1 0x24 PUSH0 REVERT JUMPDEST PUSH2 0x10B1 DUP3 PUSH2 0x106B JUMP JUMPDEST DUP2 ADD DUP2 DUP2 LT PUSH8 0xFFFFFFFFFFFFFFFF DUP3 GT OR ISZERO PUSH2 0x10D0 JUMPI PUSH2 0x10CF PUSH2 0x107B JUMP JUMPDEST JUMPDEST DUP1 PUSH1 0x40 MSTORE POP POP POP JUMP JUMPDEST PUSH0 PUSH2 0x10E2 PUSH2 0x1056 JUMP JUMPDEST SWAP1 POP PUSH2 0x10EE DUP3 DUP3 PUSH2 0x10A8 JUMP JUMPDEST SWAP2 SWAP1 POP JUMP JUMPDEST PUSH0 PUSH0 REVERT JUMPDEST PUSH0 PUSH8 0xFFFFFFFFFFFFFFFF DUP3 AND SWAP1 POP SWAP2 SWAP1 POP JUMP JUMPDEST PUSH2 0x1113 DUP2 PUSH2 0x10F7 JUMP JUMPDEST DUP2 EQ PUSH2 0x111D JUMPI PUSH0 PUSH0 REVERT JUMPDEST POP JUMP JUMPDEST PUSH0 DUP2 CALLDATALOAD SWAP1 POP PUSH2 0x112E DUP2 PUSH2 0x110A JUMP JUMPDEST SWAP3 SWAP2 POP POP JUMP JUMPDEST PUSH0 PUSH0 REVERT JUMPDEST PUSH0 PUSH0 REVERT JUMPDEST PUSH0 PUSH8 0xFFFFFFFFFFFFFFFF DUP3 GT ISZERO PUSH2 0x1156 JUMPI PUSH2 0x1155 PUSH2 0x107B JUMP JUMPDEST JUMPDEST PUSH2 0x115F DUP3 PUSH2 0x106B JUMP JUMPDEST SWAP1 POP PUSH1 0x20 DUP2 ADD SWAP1 POP SWAP2 SWAP1 POP JUMP JUMPDEST DUP3 DUP2 DUP4 CALLDATACOPY PUSH0 DUP4 DUP4 ADD MSTORE POP POP POP JUMP JUMPDEST PUSH0 PUSH2 0x118C PUSH2 0x1187 DUP5 PUSH2 0x113C JUMP JUMPDEST PUSH2 0x10D9 JUMP JUMPDEST SWAP1 POP DUP3 DUP2 MSTORE PUSH1 0x20 DUP2 ADD DUP5 DUP5 DUP5 ADD GT ISZERO PUSH2 0x11A8 JUMPI PUSH2 0x11A7 PUSH2 0x1138 JUMP JUMPDEST JUMPDEST PUSH2 0x11B3 DUP5 DUP3 DUP6 PUSH2 0x116C JUMP JUMPDEST POP SWAP4 SWAP3 POP POP POP JUMP JUMPDEST PUSH0 DUP3 PUSH1 0x1F DUP4 ADD SLT PUSH2 0x11CF JUMPI PUSH2 0x11CE PUSH2 0x1134 JUMP JUMPDEST JUMPDEST DUP2 CALLDATALOAD PUSH2 0x11DF DUP5 DUP3 PUSH1 0x20 DUP7 ADD PUSH2 0x117A JUMP JUMPDEST SWAP2 POP POP SWAP3 SWAP2 POP POP JUMP JUMPDEST PUSH0 PUSH4 0xFFFFFFFF DUP3 AND SWAP1 POP SWAP2 SWAP1 POP JUMP JUMPDEST PUSH2 0x1200 DUP2 PUSH2 0x11E8 JUMP JUMPDEST DUP2 EQ PUSH2 0x120A JUMPI PUSH0 PUSH0 REVERT JUMPDEST POP JUMP JUMPDEST PUSH0 DUP2 CALLDATALOAD SWAP1 POP PUSH2 0x121B DUP2 PUSH2 0x11F7 JUMP JUMPDEST SWAP3 SWAP2 POP POP JUMP JUMPDEST PUSH0 PUSH2 0x180 DUP3 DUP5 SUB SLT ISZERO PUSH2 0x1237 JUMPI PUSH2 0x1236 PUSH2 0x1067 JUMP JUMPDEST JUMPDEST PUSH2 0x1242 PUSH2 0x180 PUSH2 0x10D9 JUMP JUMPDEST SWAP1 POP PUSH0 PUSH2 0x1251 DUP5 DUP3 DUP6 ADD PUSH2 0x1120 JUMP JUMPDEST PUSH0 DUP4 ADD MSTORE POP PUSH1 0x20 DUP3 ADD CALLDATALOAD PUSH8 0xFFFFFFFFFFFFFFFF DUP2 GT ISZERO PUSH2 0x1274 JUMPI PUSH2 0x1273 PUSH2 0x10F3 JUMP JUMPDEST JUMPDEST PUSH2 0x1280 DUP5 DUP3 DUP6 ADD PUSH2 0x11BB JUMP JUMPDEST PUSH1 0x20 DUP4 ADD MSTORE POP PUSH1 0x40 DUP3 ADD CALLDATALOAD PUSH8 0xFFFFFFFFFFFFFFFF DUP2 GT ISZERO PUSH2 0x12A4 JUMPI PUSH2 0x12A3 PUSH2 0x10F3 JUMP JUMPDEST JUMPDEST PUSH2 0x12B0 DUP5 DUP3 DUP6 ADD PUSH2 0x11BB JUMP JUMPDEST PUSH1 0x40 DUP4 ADD MSTORE POP PUSH1 0x60 DUP3 ADD CALLDATALOAD PUSH8 0xFFFFFFFFFFFFFFFF DUP2 GT ISZERO PUSH2 0x12D4 JUMPI PUSH2 0x12D3 PUSH2 0x10F3 JUMP JUMPDEST JUMPDEST PUSH2 0x12E0 DUP5 DUP3 DUP6 ADD PUSH2 0x11BB JUMP JUMPDEST PUSH1 0x60 DUP4 ADD MSTORE POP PUSH1 0x80 DUP3 ADD CALLDATALOAD PUSH8 0xFFFFFFFFFFFFFFFF DUP2 GT ISZERO PUSH2 0x1304 JUMPI PUSH2 0x1303 PUSH2 0x10F3 JUMP JUMPDEST JUMPDEST PUSH2 0x1310 DUP5 DUP3 DUP6 ADD PUSH2 0x11BB JUMP JUMPDEST PUSH1 0x80 DUP4 ADD MSTORE POP PUSH1 0xA0 DUP3 ADD CALLDATALOAD PUSH8 0xFFFFFFFFFFFFFFFF DUP2 GT ISZERO PUSH2 0x1334 JUMPI PUSH2 0x1333 PUSH2 0x10F3 JUMP JUMPDEST JUMPDEST PUSH2 0x1340 DUP5 DUP3 DUP6 ADD PUSH2 0x11BB JUMP JUMPDEST PUSH1 0xA0 DUP4 ADD MSTORE POP PUSH1 0xC0 PUSH2 0x1354 DUP5 DUP3 DUP6 ADD PUSH2 0x1120 JUMP JUMPDEST PUSH1 0xC0 DUP4 ADD MSTORE POP PUSH1 0xE0 DUP3 ADD CALLDATALOAD PUSH8 0xFFFFFFFFFFFFFFFF DUP2 GT ISZERO PUSH2 0x1378 JUMPI PUSH2 0x1377 PUSH2 0x10F3 JUMP JUMPDEST JUMPDEST PUSH2 0x1384 DUP5 DUP3 DUP6 ADD PUSH2 0x11BB JUMP JUMPDEST PUSH1 0xE0 DUP4 ADD MSTORE POP PUSH2 0x100 PUSH2 0x1399 DUP5 DUP3 DUP6 ADD PUSH2 0x120D JUMP JUMPDEST PUSH2 0x100 DUP4 ADD MSTORE POP PUSH2 0x120 DUP3 ADD CALLDATALOAD PUSH8 0xFFFFFFFFFFFFFFFF DUP2 GT ISZERO PUSH2 0x13BF JUMPI PUSH2 0x13BE PUSH2 0x10F3 JUMP JUMPDEST JUMPDEST PUSH2 0x13CB DUP5 DUP3 DUP6 ADD PUSH2 0x11BB JUMP JUMPDEST PUSH2 0x120 DUP4 ADD MSTORE POP PUSH2 0x140 DUP3 ADD CALLDATALOAD PUSH8 0xFFFFFFFFFFFFFFFF DUP2 GT ISZERO PUSH2 0x13F1 JUMPI PUSH2 0x13F0 PUSH2 0x10F3 JUMP JUMPDEST JUMPDEST PUSH2 0x13FD DUP5 DUP3 DUP6 ADD PUSH2 0x11BB JUMP JUMPDEST PUSH2 0x140 DUP4 ADD MSTORE POP PUSH2 0x160 DUP3 ADD CALLDATALOAD PUSH8 0xFFFFFFFFFFFFFFFF DUP2 GT ISZERO PUSH2 0x1423 JUMPI PUSH2 0x1422 PUSH2 0x10F3 JUMP JUMPDEST JUMPDEST PUSH2 0x142F DUP5 DUP3 DUP6 ADD PUSH2 0x11BB JUMP JUMPDEST PUSH2 0x160 DUP4 ADD MSTORE POP SWAP3 SWAP2 POP POP JUMP JUMPDEST PUSH0 PUSH1 0x20 DUP3 DUP5 SUB SLT ISZERO PUSH2 0x1451 JUMPI PUSH2 0x1450 PUSH2 0x105F JUMP JUMPDEST JUMPDEST PUSH0 DUP3 ADD CALLDATALOAD PUSH8 0xFFFFFFFFFFFFFFFF DUP2 GT ISZERO PUSH2 0x146E JUMPI PUSH2 0x146D PUSH2 0x1063 JUMP JUMPDEST JUMPDEST PUSH2 0x147A DUP5 DUP3 DUP6 ADD PUSH2 0x1221 JUMP JUMPDEST SWAP2 POP POP SWAP3 SWAP2 POP POP JUMP JUMPDEST PUSH0 PUSH20 0xFFFFFFFFFFFFFFFFFFFFFFFFFFFFFFFFFFFFFFFF DUP3 AND SWAP1 POP SWAP2 SWAP1 POP JUMP JUMPDEST PUSH0 PUSH2 0x14AC DUP3 PUSH2 0x1483 JUMP JUMPDEST SWAP1 POP SWAP2 SWAP1 POP JUMP JUMPDEST PUSH2 0x14BC DUP2 PUSH2 0x14A2 JUMP JUMPDEST DUP3 MSTORE POP POP JUMP JUMPDEST PUSH0 PUSH1 0x20 DUP3 ADD SWAP1 POP PUSH2 0x14D5 PUSH0 DUP4 ADD DUP5 PUSH2 0x14B3 JUMP JUMPDEST SWAP3 SWAP2 POP POP JUMP JUMPDEST PUSH0 DUP2 MLOAD SWAP1 POP SWAP2 SWAP1 POP JUMP JUMPDEST PUSH0 DUP3 DUP3 MSTORE PUSH1 0x20 DUP3 ADD SWAP1 POP SWAP3 SWAP2 POP POP JUMP JUMPDEST PUSH0 DUP2 SWAP1 POP PUSH1 0x20 DUP3 ADD SWAP1 POP SWAP2 SWAP1 POP JUMP JUMPDEST PUSH2 0x150D DUP2 PUSH2 0x10F7 JUMP JUMPDEST DUP3 MSTORE POP POP JUMP JUMPDEST PUSH0 DUP2 MLOAD SWAP1 POP SWAP2 SWAP1 POP JUMP JUMPDEST PUSH0 DUP3 DUP3 MSTORE PUSH1 0x20 DUP3 ADD SWAP1 POP SWAP3 SWAP2 POP POP JUMP JUMPDEST DUP3 DUP2 DUP4 MCOPY PUSH0 DUP4 DUP4 ADD MSTORE POP POP POP JUMP JUMPDEST PUSH0 PUSH2 0x1545 DUP3 PUSH2 0x1513 JUMP JUMPDEST PUSH2 0x154F DUP2 DUP6 PUSH2 0x151D JUMP JUMPDEST SWAP4 POP PUSH2 0x155F DUP2 DUP6 PUSH1 0x20 DUP7 ADD PUSH2 0x152D JUMP JUMPDEST PUSH2 0x1568 DUP2 PUSH2 0x106B JUMP JUMPDEST DUP5 ADD SWAP2 POP POP SWAP3 SWAP2 POP POP JUMP JUMPDEST PUSH2 0x157C DUP2 PUSH2 0x11E8 JUMP JUMPDEST DUP3 MSTORE POP POP JUMP JUMPDEST PUSH0 PUSH2 0x180 DUP4 ADD PUSH0 DUP4 ADD MLOAD PUSH2 0x1598 PUSH0 DUP7 ADD DUP3 PUSH2 0x1504 JUMP JUMPDEST POP PUSH1 0x20 DUP4 ADD MLOAD DUP5 DUP3 SUB PUSH1 0x20 DUP7 ADD MSTORE PUSH2 0x15B0 DUP3 DUP3 PUSH2 0x153B JUMP JUMPDEST SWAP2 POP POP PUSH1 0x40 DUP4 ADD MLOAD DUP5 DUP3 SUB PUSH1 0x40 DUP7 ADD MSTORE PUSH2 0x15CA DUP3 DUP3 PUSH2 0x153B JUMP JUMPDEST SWAP2 POP POP PUSH1 0x60 DUP4 ADD MLOAD DUP5 DUP3 SUB PUSH1 0x60 DUP7 ADD MSTORE PUSH2 0x15E4 DUP3 DUP3 PUSH2 0x153B JUMP JUMPDEST SWAP2 POP POP PUSH1 0x80 DUP4 ADD MLOAD DUP5 DUP3 SUB PUSH1 0x80 DUP7 ADD MSTORE PUSH2 0x15FE DUP3 DUP3 PUSH2 0x153B JUMP JUMPDEST SWAP2 POP POP PUSH1 0xA0 DUP4 ADD MLOAD DUP5 DUP3 SUB PUSH1 0xA0 DUP7 ADD MSTORE PUSH2 0x1618 DUP3 DUP3 PUSH2 0x153B JUMP JUMPDEST SWAP2 POP POP PUSH1 0xC0 DUP4 ADD MLOAD PUSH2 0x162D PUSH1 0xC0 DUP7 ADD DUP3 PUSH2 0x1504 JUMP JUMPDEST POP PUSH1 0xE0 DUP4 ADD MLOAD DUP5 DUP3 SUB PUSH1 0xE0 DUP7 ADD MSTORE PUSH2 0x1645 DUP3 DUP3 PUSH2 0x153B JUMP JUMPDEST SWAP2 POP POP PUSH2 0x100 DUP4 ADD MLOAD PUSH2 0x165C PUSH2 0x100 DUP7 ADD DUP3 PUSH2 0x1573 JUMP JUMPDEST POP PUSH2 0x120 DUP4 ADD MLOAD DUP5 DUP3 SUB PUSH2 0x120 DUP7 ADD MSTORE PUSH2 0x1676 DUP3 DUP3 PUSH2 0x153B JUMP JUMPDEST SWAP2 POP POP PUSH2 0x140 DUP4 ADD MLOAD DUP5 DUP3 SUB PUSH2 0x140 DUP7 ADD MSTORE PUSH2 0x1692 DUP3 DUP3 PUSH2 0x153B JUMP JUMPDEST SWAP2 POP POP PUSH2 0x160 DUP4 ADD MLOAD DUP5 DUP3 SUB PUSH2 0x160 DUP7 ADD MSTORE PUSH2 0x16AE DUP3 DUP3 PUSH2 0x153B JUMP JUMPDEST SWAP2 POP POP DUP1 SWAP2 POP POP SWAP3 SWAP2 POP POP JUMP JUMPDEST PUSH0 PUSH2 0x16C6 DUP4 DUP4 PUSH2 0x1582 JUMP JUMPDEST SWAP1 POP SWAP3 SWAP2 POP POP JUMP JUMPDEST PUSH0 PUSH1 0x20 DUP3 ADD SWAP1 POP SWAP2 SWAP1 POP JUMP JUMPDEST PUSH0 PUSH2 0x16E4 DUP3 PUSH2 0x14DB JUMP JUMPDEST PUSH2 0x16EE DUP2 DUP6 PUSH2 0x14E5 JUMP JUMPDEST SWAP4 POP DUP4 PUSH1 0x20 DUP3 MUL DUP6 ADD PUSH2 0x1700 DUP6 PUSH2 0x14F5 JUMP JUMPDEST DUP1 PUSH0 JUMPDEST DUP6 DUP2 LT ISZERO PUSH2 0x173B JUMPI DUP5 DUP5 SUB DUP10 MSTORE DUP2 MLOAD PUSH2 0x171C DUP6 DUP3 PUSH2 0x16BB JUMP JUMPDEST SWAP5 POP PUSH2 0x1727 DUP4 PUSH2 0x16CE JUMP JUMPDEST SWAP3 POP PUSH1 0x20 DUP11 ADD SWAP10 POP POP PUSH1 0x1 DUP2 ADD SWAP1 POP PUSH2 0x1703 JUMP JUMPDEST POP DUP3 SWAP8 POP DUP8 SWAP6 POP POP POP POP POP POP SWAP3 SWAP2 POP POP JUMP JUMPDEST PUSH0 PUSH1 0x20 DUP3 ADD SWAP1 POP DUP2 DUP2 SUB PUSH0 DUP4 ADD MSTORE PUSH2 0x1765 DUP2 DUP5 PUSH2 0x16DA JUMP JUMPDEST SWAP1 POP SWAP3 SWAP2 POP POP JUMP JUMPDEST PUSH0 DUP3 DUP3 MSTORE PUSH1 0x20 DUP3 ADD SWAP1 POP SWAP3 SWAP2 POP POP JUMP JUMPDEST PUSH32 0x4E6F7420666163746F7279000000000000000000000000000000000000000000 PUSH0 DUP3 ADD MSTORE POP JUMP JUMPDEST PUSH0 PUSH2 0x17B1 PUSH1 0xB DUP4 PUSH2 0x176D JUMP JUMPDEST SWAP2 POP PUSH2 0x17BC DUP3 PUSH2 0x177D JUMP JUMPDEST PUSH1 0x20 DUP3 ADD SWAP1 POP SWAP2 SWAP1 POP JUMP JUMPDEST PUSH0 PUSH1 0x20 DUP3 ADD SWAP1 POP DUP2 DUP2 SUB PUSH0 DUP4 ADD MSTORE PUSH2 0x17DE DUP2 PUSH2 0x17A5 JUMP JUMPDEST SWAP1 POP SWAP2 SWAP1 POP JUMP JUMPDEST PUSH32 0x4E487B7100000000000000000000000000000000000000000000000000000000 PUSH0 MSTORE PUSH1 0x22 PUSH1 0x4 MSTORE PUSH1 0x24 PUSH0 REVERT JUMPDEST PUSH0 PUSH1 0x2 DUP3 DIV SWAP1 POP PUSH1 0x1 DUP3 AND DUP1 PUSH2 0x1829 JUMPI PUSH1 0x7F DUP3 AND SWAP2 POP JUMPDEST PUSH1 0x20 DUP3 LT DUP2 SUB PUSH2 0x183C JUMPI PUSH2 0x183B PUSH2 0x17E5 JUMP JUMPDEST JUMPDEST POP SWAP2 SWAP1 POP JUMP JUMPDEST PUSH0 DUP2 SWAP1 POP DUP2 PUSH0 MSTORE PUSH1 0x20 PUSH0 KECCAK256 SWAP1 POP SWAP2 SWAP1 POP JUMP JUMPDEST PUSH0 PUSH1 0x20 PUSH1 0x1F DUP4 ADD DIV SWAP1 POP SWAP2 SWAP1 POP JUMP JUMPDEST PUSH0 DUP3 DUP3 SHL SWAP1 POP SWAP3 SWAP2 POP POP JUMP JUMPDEST PUSH0 PUSH1 0x8 DUP4 MUL PUSH2 0x189E PUSH32 0xFFFFFFFFFFFFFFFFFFFFFFFFFFFFFFFFFFFFFFFFFFFFFFFFFFFFFFFFFFFFFFFF DUP3 PUSH2 0x1863 JUMP JUMPDEST PUSH2 0x18A8 DUP7 DUP4 PUSH2 0x1863 JUMP JUMPDEST SWAP6 POP DUP1 NOT DUP5 AND SWAP4 POP DUP1 DUP7 AND DUP5 OR SWAP3 POP POP POP SWAP4 SWAP3 POP POP POP JUMP JUMPDEST PUSH0 DUP2 SWAP1 POP SWAP2 SWAP1 POP JUMP JUMPDEST PUSH0 PUSH2 0x18E3 PUSH2 0x18DE PUSH2 0x18D9 DUP5 PUSH2 0x1025 JUMP JUMPDEST PUSH2 0x18C0 JUMP JUMPDEST PUSH2 0x1025 JUMP JUMPDEST SWAP1 POP SWAP2 SWAP1 POP JUMP JUMPDEST PUSH0 DUP2 SWAP1 POP SWAP2 SWAP1 POP JUMP JUMPDEST PUSH2 0x18FC DUP4 PUSH2 0x18C9 JUMP JUMPDEST PUSH2 0x1910 PUSH2 0x1908 DUP3 PUSH2 0x18EA JUMP JUMPDEST DUP5 DUP5 SLOAD PUSH2 0x186F JUMP JUMPDEST DUP3 SSTORE POP POP POP POP JUMP JUMPDEST PUSH0 PUSH0 SWAP1 POP SWAP1 JUMP JUMPDEST PUSH2 0x1927 PUSH2 0x1918 JUMP JUMPDEST PUSH2 0x1932 DUP2 DUP5 DUP5 PUSH2 0x18F3 JUMP JUMPDEST POP POP POP JUMP JUMPDEST JUMPDEST DUP2 DUP2 LT ISZERO PUSH2 0x1955 JUMPI PUSH2 0x194A PUSH0 DUP3 PUSH2 0x191F JUMP JUMPDEST PUSH1 0x1 DUP2 ADD SWAP1 POP PUSH2 0x1938 JUMP JUMPDEST POP POP JUMP JUMPDEST PUSH1 0x1F DUP3 GT ISZERO PUSH2 0x199A JUMPI PUSH2 0x196B DUP2 PUSH2 0x1842 JUMP JUMPDEST PUSH2 0x1974 DUP5 PUSH2 0x1854 JUMP JUMPDEST DUP2 ADD PUSH1 0x20 DUP6 LT ISZERO PUSH2 0x1983 JUMPI DUP2 SWAP1 POP JUMPDEST PUSH2 0x1997 PUSH2 0x198F DUP6 PUSH2 0x1854 JUMP JUMPDEST DUP4 ADD DUP3 PUSH2 0x1937 JUMP JUMPDEST POP POP JUMPDEST POP POP POP JUMP JUMPDEST PUSH0 DUP3 DUP3 SHR SWAP1 POP SWAP3 SWAP2 POP POP JUMP JUMPDEST PUSH0 PUSH2 0x19BA PUSH0 NOT DUP5 PUSH1 0x8 MUL PUSH2 0x199F JUMP JUMPDEST NOT DUP1 DUP4 AND SWAP2 POP POP SWAP3 SWAP2 POP POP JUMP JUMPDEST PUSH0 PUSH2 0x19D2 DUP4 DUP4 PUSH2 0x19AB JUMP JUMPDEST SWAP2 POP DUP3 PUSH1 0x2 MUL DUP3 OR SWAP1 POP SWAP3 SWAP2 POP POP JUMP JUMPDEST PUSH2 0x19EB DUP3 PUSH2 0x1513 JUMP JUMPDEST PUSH8 0xFFFFFFFFFFFFFFFF DUP2 GT ISZERO PUSH2 0x1A04 JUMPI PUSH2 0x1A03 PUSH2 0x107B JUMP JUMPDEST JUMPDEST PUSH2 0x1A0E DUP3 SLOAD PUSH2 0x1812 JUMP JUMPDEST PUSH2 0x1A19 DUP3 DUP3 DUP6 PUSH2 0x1959 JUMP JUMPDEST PUSH0 PUSH1 0x20 SWAP1 POP PUSH1 0x1F DUP4 GT PUSH1 0x1 DUP2 EQ PUSH2 0x1A4A JUMPI PUSH0 DUP5 ISZERO PUSH2 0x1A38 JUMPI DUP3 DUP8 ADD MLOAD SWAP1 POP JUMPDEST PUSH2 0x1A42 DUP6 DUP3 PUSH2 0x19C7 JUMP JUMPDEST DUP7 SSTORE POP PUSH2 0x1AA9 JUMP JUMPDEST PUSH1 0x1F NOT DUP5 AND PUSH2 0x1A58 DUP7 PUSH2 0x1842 JUMP JUMPDEST PUSH0 JUMPDEST DUP3 DUP2 LT ISZERO PUSH2 0x1A7F JUMPI DUP5 DUP10 ADD MLOAD DUP3 SSTORE PUSH1 0x1 DUP3 ADD SWAP2 POP PUSH1 0x20 DUP6 ADD SWAP5 POP PUSH1 0x20 DUP2 ADD SWAP1 POP PUSH2 0x1A5A JUMP JUMPDEST DUP7 DUP4 LT ISZERO PUSH2 0x1A9C JUMPI DUP5 DUP10 ADD MLOAD PUSH2 0x1A98 PUSH1 0x1F DUP10 AND DUP3 PUSH2 0x19AB JUMP JUMPDEST DUP4 SSTORE POP JUMPDEST PUSH1 0x1 PUSH1 0x2 DUP9 MUL ADD DUP9 SSTORE POP POP POP JUMPDEST POP POP POP POP POP POP JUMP INVALID LOG2 PUSH5 0x6970667358 0x22 SLT KECCAK256 DELEGATECALL 0xDF CALLF 0xBE84 PUSH15 0x2CA9588D0FBA5E7BC76478565A8945 PUSH21 0x830B50EBF9E965BC941B64736F6C634300081E0033 LOG2 PUSH5 0x6970667358 0x22 SLT KECCAK256 0xBE 0x4E STOP DUP11 0xAB 0xAD 0xBD 0xF CODECOPY SELFBALANCE STATICCALL ADDMOD STOP DUP13 SGT PUSH15 0xB4CA9ABD08AA31EF8DECFABDC25167 0xC7 PUSH5 0x736F6C6343 STOP ADDMOD 0x1E STOP CALLER "
		},
		"gasEstimates": {
			"creation": {
				"codeDepositCost": "4006600",
				"executionCost": "4578",
				"totalCost": "4011178"
			},
			"external": {
				"createCandle(string,string,(uint64,string,string,string,string,string,uint64,string,uint32,string,string,string))": "infinite",
				"getAllCandles(string,string,uint64)": "infinite",
				"getAllRecords(string,string,uint64,uint64,uint256)": "infinite",
				"getStep(uint8)": "1930",
				"getTimeKey(uint8,uint64)": "infinite",
				"initCandle(string,string,uint256)": "infinite",
				"parseInterval(string)": "infinite",
				"storages(bytes32,uint8,uint64)": "3300"
			},
			"internal": {
				"computeTimeKeys(enum Interval,uint64,uint64)": "infinite"
			}
		},
		"methodIdentifiers": {
			"createCandle(string,string,(uint64,string,string,string,string,string,uint64,string,uint32,string,string,string))": "53857f9f",
			"getAllCandles(string,string,uint64)": "38993f6b",
			"getAllRecords(string,string,uint64,uint64,uint256)": "6fc78784",
			"getStep(uint8)": "7f93ff24",
			"getTimeKey(uint8,uint64)": "8d412ad2",
			"initCandle(string,string,uint256)": "5e1dccd1",
			"parseInterval(string)": "93faa992",
			"storages(bytes32,uint8,uint64)": "5b3cb9d4"
		}
	},
	"abi": [
		{
			"anonymous": false,
			"inputs": [
				{
					"indexed": false,
					"internalType": "uint64",
					"name": "openTime",
					"type": "uint64"
				},
				{
					"indexed": false,
					"internalType": "string",
					"name": "openPrice",
					"type": "string"
				},
				{
					"indexed": false,
					"internalType": "string",
					"name": "highPrice",
					"type": "string"
				},
				{
					"indexed": false,
					"internalType": "string",
					"name": "lowPrice",
					"type": "string"
				},
				{
					"indexed": false,
					"internalType": "string",
					"name": "closePrice",
					"type": "string"
				},
				{
					"indexed": false,
					"internalType": "string",
					"name": "volume",
					"type": "string"
				},
				{
					"indexed": false,
					"internalType": "uint64",
					"name": "closeTime",
					"type": "uint64"
				},
				{
					"indexed": false,
					"internalType": "string",
					"name": "quoteAssetVolume",
					"type": "string"
				},
				{
					"indexed": false,
					"internalType": "uint32",
					"name": "numberOfTrades",
					"type": "uint32"
				},
				{
					"indexed": false,
					"internalType": "string",
					"name": "takerBuyBaseVolume",
					"type": "string"
				},
				{
					"indexed": false,
					"internalType": "string",
					"name": "takerBuyQuoteVolume",
					"type": "string"
				}
			],
			"name": "CandleCreated",
			"type": "event"
		},
		{
			"anonymous": false,
			"inputs": [
				{
					"indexed": false,
					"internalType": "string",
					"name": "symbol",
					"type": "string"
				},
				{
					"indexed": false,
					"internalType": "string",
					"name": "interval",
					"type": "string"
				},
				{
					"indexed": false,
					"internalType": "uint64",
					"name": "timeKey",
					"type": "uint64"
				},
				{
					"indexed": false,
					"internalType": "address",
					"name": "storageAddress",
					"type": "address"
				}
			],
			"name": "ShardCreated",
			"type": "event"
		},
		{
			"inputs": [
				{
					"internalType": "string",
					"name": "_symbol",
					"type": "string"
				},
				{
					"internalType": "string",
					"name": "_interval",
					"type": "string"
				},
				{
					"components": [
						{
							"internalType": "uint64",
							"name": "openTime",
							"type": "uint64"
						},
						{
							"internalType": "string",
							"name": "openPrice",
							"type": "string"
						},
						{
							"internalType": "string",
							"name": "highPrice",
							"type": "string"
						},
						{
							"internalType": "string",
							"name": "lowPrice",
							"type": "string"
						},
						{
							"internalType": "string",
							"name": "closePrice",
							"type": "string"
						},
						{
							"internalType": "string",
							"name": "volume",
							"type": "string"
						},
						{
							"internalType": "uint64",
							"name": "closeTime",
							"type": "uint64"
						},
						{
							"internalType": "string",
							"name": "quoteAssetVolume",
							"type": "string"
						},
						{
							"internalType": "uint32",
							"name": "numberOfTrades",
							"type": "uint32"
						},
						{
							"internalType": "string",
							"name": "takerBuyBaseVolume",
							"type": "string"
						},
						{
							"internalType": "string",
							"name": "takerBuyQuoteVolume",
							"type": "string"
						},
						{
							"internalType": "string",
							"name": "unused",
							"type": "string"
						}
					],
					"internalType": "struct CandleRecord",
					"name": "_candleRecord",
					"type": "tuple"
				}
			],
			"name": "createCandle",
			"outputs": [],
			"stateMutability": "nonpayable",
			"type": "function"
		},
		{
			"inputs": [
				{
					"internalType": "string",
					"name": "_symbol",
					"type": "string"
				},
				{
					"internalType": "string",
					"name": "_interval",
					"type": "string"
				},
				{
					"internalType": "uint64",
					"name": "_timekey",
					"type": "uint64"
				}
			],
			"name": "getAllCandles",
			"outputs": [
				{
					"components": [
						{
							"internalType": "uint64",
							"name": "openTime",
							"type": "uint64"
						},
						{
							"internalType": "string",
							"name": "openPrice",
							"type": "string"
						},
						{
							"internalType": "string",
							"name": "highPrice",
							"type": "string"
						},
						{
							"internalType": "string",
							"name": "lowPrice",
							"type": "string"
						},
						{
							"internalType": "string",
							"name": "closePrice",
							"type": "string"
						},
						{
							"internalType": "string",
							"name": "volume",
							"type": "string"
						},
						{
							"internalType": "uint64",
							"name": "closeTime",
							"type": "uint64"
						},
						{
							"internalType": "string",
							"name": "quoteAssetVolume",
							"type": "string"
						},
						{
							"internalType": "uint32",
							"name": "numberOfTrades",
							"type": "uint32"
						},
						{
							"internalType": "string",
							"name": "takerBuyBaseVolume",
							"type": "string"
						},
						{
							"internalType": "string",
							"name": "takerBuyQuoteVolume",
							"type": "string"
						},
						{
							"internalType": "string",
							"name": "unused",
							"type": "string"
						}
					],
					"internalType": "struct CandleRecord[]",
					"name": "",
					"type": "tuple[]"
				}
			],
			"stateMutability": "view",
			"type": "function"
		},
		{
			"inputs": [
				{
					"internalType": "string",
					"name": "_symbol",
					"type": "string"
				},
				{
					"internalType": "string",
					"name": "_interval",
					"type": "string"
				},
				{
					"internalType": "uint64",
					"name": "startTime",
					"type": "uint64"
				},
				{
					"internalType": "uint64",
					"name": "endTime",
					"type": "uint64"
				},
				{
					"internalType": "uint256",
					"name": "limit",
					"type": "uint256"
				}
			],
			"name": "getAllRecords",
			"outputs": [
				{
					"components": [
						{
							"internalType": "uint64",
							"name": "openTime",
							"type": "uint64"
						},
						{
							"internalType": "string",
							"name": "openPrice",
							"type": "string"
						},
						{
							"internalType": "string",
							"name": "highPrice",
							"type": "string"
						},
						{
							"internalType": "string",
							"name": "lowPrice",
							"type": "string"
						},
						{
							"internalType": "string",
							"name": "closePrice",
							"type": "string"
						},
						{
							"internalType": "string",
							"name": "volume",
							"type": "string"
						},
						{
							"internalType": "uint64",
							"name": "closeTime",
							"type": "uint64"
						},
						{
							"internalType": "string",
							"name": "quoteAssetVolume",
							"type": "string"
						},
						{
							"internalType": "uint32",
							"name": "numberOfTrades",
							"type": "uint32"
						},
						{
							"internalType": "string",
							"name": "takerBuyBaseVolume",
							"type": "string"
						},
						{
							"internalType": "string",
							"name": "takerBuyQuoteVolume",
							"type": "string"
						},
						{
							"internalType": "string",
							"name": "unused",
							"type": "string"
						}
					],
					"internalType": "struct CandleRecord[]",
					"name": "result",
					"type": "tuple[]"
				}
			],
			"stateMutability": "view",
			"type": "function"
		},
		{
			"inputs": [
				{
					"internalType": "enum Interval",
					"name": "interval",
					"type": "uint8"
				}
			],
			"name": "getStep",
			"outputs": [
				{
					"internalType": "uint64",
					"name": "",
					"type": "uint64"
				}
			],
			"stateMutability": "pure",
			"type": "function"
		},
		{
			"inputs": [
				{
					"internalType": "enum Interval",
					"name": "interval",
					"type": "uint8"
				},
				{
					"internalType": "uint64",
					"name": "timestamp",
					"type": "uint64"
				}
			],
			"name": "getTimeKey",
			"outputs": [
				{
					"internalType": "uint64",
					"name": "",
					"type": "uint64"
				}
			],
			"stateMutability": "pure",
			"type": "function"
		},
		{
			"inputs": [
				{
					"internalType": "string",
					"name": "_symbol",
					"type": "string"
				},
				{
					"internalType": "string",
					"name": "_interval",
					"type": "string"
				},
				{
					"internalType": "uint256",
					"name": "limit",
					"type": "uint256"
				}
			],
			"name": "initCandle",
			"outputs": [
				{
					"components": [
						{
							"internalType": "uint64",
							"name": "openTime",
							"type": "uint64"
						},
						{
							"internalType": "string",
							"name": "openPrice",
							"type": "string"
						},
						{
							"internalType": "string",
							"name": "highPrice",
							"type": "string"
						},
						{
							"internalType": "string",
							"name": "lowPrice",
							"type": "string"
						},
						{
							"internalType": "string",
							"name": "closePrice",
							"type": "string"
						},
						{
							"internalType": "string",
							"name": "volume",
							"type": "string"
						},
						{
							"internalType": "uint64",
							"name": "closeTime",
							"type": "uint64"
						},
						{
							"internalType": "string",
							"name": "quoteAssetVolume",
							"type": "string"
						},
						{
							"internalType": "uint32",
							"name": "numberOfTrades",
							"type": "uint32"
						},
						{
							"internalType": "string",
							"name": "takerBuyBaseVolume",
							"type": "string"
						},
						{
							"internalType": "string",
							"name": "takerBuyQuoteVolume",
							"type": "string"
						},
						{
							"internalType": "string",
							"name": "unused",
							"type": "string"
						}
					],
					"internalType": "struct CandleRecord[]",
					"name": "result",
					"type": "tuple[]"
				}
			],
			"stateMutability": "view",
			"type": "function"
		},
		{
			"inputs": [
				{
					"internalType": "string",
					"name": "s",
					"type": "string"
				}
			],
			"name": "parseInterval",
			"outputs": [
				{
					"internalType": "enum Interval",
					"name": "",
					"type": "uint8"
				}
			],
			"stateMutability": "pure",
			"type": "function"
		},
		{
			"inputs": [
				{
					"internalType": "bytes32",
					"name": "",
					"type": "bytes32"
				},
				{
					"internalType": "enum Interval",
					"name": "",
					"type": "uint8"
				},
				{
					"internalType": "uint64",
					"name": "",
					"type": "uint64"
				}
			],
			"name": "storages",
			"outputs": [
				{
					"internalType": "address",
					"name": "",
					"type": "address"
				}
			],
			"stateMutability": "view",
			"type": "function"
		}
	]
}