{
	"data": {
		"bytecode": {
			"linkReferences": {},
			"object": "6080604052348015600e575f5ffd5b506148108061001c5f395ff3fe608060405234801561000f575f5ffd5b5060043610610060575f3560e01c806338993f6b1461006457806353857f9f146100945780635b3cb9d4146100b05780636fc78784146100e05780638d412ad21461011057806393faa99214610140575b5f5ffd5b61007e600480360381019061007991906119a3565b610170565b60405161008b9190611cac565b60405180910390f35b6100ae60048036038101906100a99190611f19565b6102bb565b005b6100ca60048036038101906100c59190612013565b610574565b6040516100d791906120a2565b60405180910390f35b6100fa60048036038101906100f591906120ee565b6105bb565b6040516101079190611cac565b60405180910390f35b61012a6004803603810190610125919061219d565b610a29565b60405161013791906121ea565b60405180910390f35b61015a60048036038101906101559190612203565b610e19565b60405161016791906122bd565b60405180910390f35b60605f61017c84610e19565b90505f856040516020016101909190612310565b6040516020818303038152906040528051906020012090505f6101b38386610a29565b90505f5f5f8481526020019081526020015f205f85600f8111156101da576101d961224a565b5b600f8111156101ec576101eb61224a565b5b81526020019081526020015f205f8367ffffffffffffffff1667ffffffffffffffff1681526020019081526020015f205f9054906101000a900473ffffffffffffffffffffffffffffffffffffffff1690508073ffffffffffffffffffffffffffffffffffffffff1663fb34b3a96040518163ffffffff1660e01b81526004015f60405180830381865afa158015610286573d5f5f3e3d5ffd5b505050506040513d5f823e3d601f19601f820116820180604052508101906102ae91906126b9565b9450505050509392505050565b5f6102c583610e19565b90505f846040516020016102d99190612310565b6040516020818303038152906040528051906020012090505f6102ff83855f0151610a29565b90505f5f5f8481526020019081526020015f205f85600f8111156103265761032561224a565b5b600f8111156103385761033761224a565b5b81526020019081526020015f205f8367ffffffffffffffff1667ffffffffffffffff1681526020019081526020015f205f9054906101000a900473ffffffffffffffffffffffffffffffffffffffff1690505f73ffffffffffffffffffffffffffffffffffffffff168173ffffffffffffffffffffffffffffffffffffffff1603610505576103fb6040518060400160405280601481526020017f437265617465206e657720616464727265737373000000000000000000000000815250611193565b6040516104079061178a565b604051809103905ff080158015610420573d5f5f3e3d5ffd5b509050805f5f8581526020019081526020015f205f86600f8111156104485761044761224a565b5b600f81111561045a5761045961224a565b5b81526020019081526020015f205f8467ffffffffffffffff1667ffffffffffffffff1681526020019081526020015f205f6101000a81548173ffffffffffffffffffffffffffffffffffffffff021916908373ffffffffffffffffffffffffffffffffffffffff1602179055507f2a9e82be7bc20784dcc707f4814ca404ac4a94db66450718f7733b160fb62d86878784846040516104fc9493929190612748565b60405180910390a15b8073ffffffffffffffffffffffffffffffffffffffff1663a8f9b0af866040518263ffffffff1660e01b815260040161053e91906128d2565b5f604051808303815f87803b158015610555575f5ffd5b505af1158015610567573d5f5f3e3d5ffd5b5050505050505050505050565b5f602052825f5260405f20602052815f5260405f20602052805f5260405f205f92509250509054906101000a900473ffffffffffffffffffffffffffffffffffffffff1681565b60605f6105c786610e19565b90505f876040516020016105db9190612310565b6040516020818303038152906040528051906020012090505f6105ff83888861122c565b90505f5f8667ffffffffffffffff81111561061d5761061c611842565b5b60405190808252806020026020018201604052801561065657816020015b610643611797565b81526020019060019003908161063b5790505b5090505f5f90505b8351811015610953575f5f5f8781526020019081526020015f205f88600f81111561068c5761068b61224a565b5b600f81111561069e5761069d61224a565b5b81526020019081526020015f205f8684815181106106bf576106be6128f2565b5b602002602001015167ffffffffffffffff1667ffffffffffffffff1681526020019081526020015f205f9054906101000a900473ffffffffffffffffffffffffffffffffffffffff1690505f73ffffffffffffffffffffffffffffffffffffffff168173ffffffffffffffffffffffffffffffffffffffff16036107435750610946565b6107a66040518060400160405280600681526020017f54696d653a20000000000000000000000000000000000000000000000000000081525086848151811061078f5761078e6128f2565b5b602002602001015167ffffffffffffffff166116aa565b5f8173ffffffffffffffffffffffffffffffffffffffff1663ea6c83536040518163ffffffff1660e01b81526004015f60405180830381865afa1580156107ef573d5f5f3e3d5ffd5b505050506040513d5f823e3d601f19601f8201168201806040525081019061081791906126b9565b90505f815190505b5f811115610934575f82600183610836919061294c565b81518110610847576108466128f2565b5b602002602001015190508d67ffffffffffffffff16815f015167ffffffffffffffff1610156108765750610921565b8c67ffffffffffffffff16815f015167ffffffffffffffff16111561089b5750610921565b808688806108a89061297f565b9950815181106108bb576108ba6128f2565b5b60200260200101819052506109126040518060400160405280600a81526020017f656c656d2074696d653a00000000000000000000000000000000000000000000815250825f015167ffffffffffffffff166116aa565b8b870361091f5750610934565b505b808061092c906129c6565b91505061081f565b50898503610943575050610953565b50505b808060010191505061065e565b508167ffffffffffffffff81111561096e5761096d611842565b5b6040519080825280602002602001820160405280156109a757816020015b610994611797565b81526020019060019003908161098c5790505b5095505f8290505b5f811115610a1a57816001826109c5919061294c565b815181106109d6576109d56128f2565b5b60200260200101518782856109eb919061294c565b815181106109fc576109fb6128f2565b5b60200260200101819052508080610a12906129c6565b9150506109af565b50505050505095945050505050565b5f5f600f811115610a3d57610a3c61224a565b5b83600f811115610a5057610a4f61224a565b5b03610a76576236ee808083610a659190612a1a565b610a6f9190612a4a565b9050610e13565b6001600f811115610a8a57610a8961224a565b5b83600f811115610a9d57610a9c61224a565b5b1480610acd57506002600f811115610ab857610ab761224a565b5b83600f811115610acb57610aca61224a565b5b145b80610afc57506003600f811115610ae757610ae661224a565b5b83600f811115610afa57610af961224a565b5b145b15610b23576305265c008083610b129190612a1a565b610b1c9190612a4a565b9050610e13565b6004600f811115610b3757610b3661224a565b5b83600f811115610b4a57610b4961224a565b5b1480610b7a57506005600f811115610b6557610b6461224a565b5b83600f811115610b7857610b7761224a565b5b145b80610ba957506006600f811115610b9457610b9361224a565b5b83600f811115610ba757610ba661224a565b5b145b80610bd857506007600f811115610bc357610bc261224a565b5b83600f811115610bd657610bd561224a565b5b145b15610bff5763240c84008083610bee9190612a1a565b610bf89190612a4a565b9050610e13565b6008600f811115610c1357610c1261224a565b5b83600f811115610c2657610c2561224a565b5b1480610c5657506009600f811115610c4157610c4061224a565b5b83600f811115610c5457610c5361224a565b5b145b80610c855750600a600f811115610c7057610c6f61224a565b5b83600f811115610c8357610c8261224a565b5b145b80610cb45750600b600f811115610c9f57610c9e61224a565b5b83600f811115610cb257610cb161224a565b5b145b15610cdb57639a7ec8008083610cca9190612a1a565b610cd49190612a4a565b9050610e13565b600c600f811115610cef57610cee61224a565b5b83600f811115610d0257610d0161224a565b5b1480610d325750600d600f811115610d1d57610d1c61224a565b5b83600f811115610d3057610d2f61224a565b5b145b15610d5a576401cf7c58008083610d499190612a1a565b610d539190612a4a565b9050610e13565b600e600f811115610d6e57610d6d61224a565b5b83600f811115610d8157610d8061224a565b5b1480610db05750600f80811115610d9b57610d9a61224a565b5b83600f811115610dae57610dad61224a565b5b145b15610dd857640757b12c008083610dc79190612a1a565b610dd19190612a4a565b9050610e13565b6040517f08c379a0000000000000000000000000000000000000000000000000000000008152600401610e0a90612ad0565b60405180910390fd5b92915050565b5f5f82604051602001610e2c9190612310565b6040516020818303038152906040528051906020012090507f6c9308eeeb72aac61c6ee2086645ec6cf6638d86d97af7b81bcf4073f3b95dbc8103610e74575f91505061118e565b7f523a5c8a0f83a86997a616b324ae897d2fb6b3f5f68b3969331c12e0f00f9f258103610ea557600191505061118e565b7f2a3ff2dfa7bd33b0e77d014065236a2f104b389b776645fddb9e6a09eea014418103610ed657600291505061118e565b7ffca740c51a7536a1ff8f65314e26b24cee265d7626ad2e39318898f3d501ac228103610f0757600391505061118e565b7f53cad56a766a794bdc4fd49b262cd08fadf5c823f208fbf3f4efb377c206eaaa8103610f3857600491505061118e565b7fe99007fd2e286840683bfbac2c1ea22a3b3c1592d603a9ae9aee29cf77e941a78103610f6957600591505061118e565b7f1125479f824fc31d0ce674b130e57a9dcfdf2d344ca1ef3fc8bf5bd50f9fcca98103610f9a57600691505061118e565b7fa50f424f123435e4689c6436ce338980297ca65f2ee6b69a216f0561ee6cf4008103610fcb57600791505061118e565b7f9a433cc5a6aee766b1bce0a7dc72ab7b4fd031108e0c5afea91382f1b1955fc98103610ffc57600891505061118e565b7fa0b83cfa5501e126ac29f6bf7a07bd17e2d97916947eed361748e8e0ab0aba4d810361102d57600991505061118e565b7fe21ccd2715134877c589435a9c98deb14540fdf9e902afebf2163fe393e9c073810361105e57600a91505061118e565b7f11108661a127316f8f74dc39a66520c8ec16719ed867ee768af67729ba3ec1d2810361108f57600b91505061118e565b7f7b2e5637de8d5670bd5be523fbccc1dfef88f0767eb2abf5ac4a81da61ae200281036110c057600c91505061118e565b7f1cef0646e7fe7cb478d3a93d2e07774697c9239d0ee8b4294b768c91af329e6681036110f157600d91505061118e565b7f7cd5ba658b5dff64585bfcb0df7983749825e2292a4ff6daf96207e6eb100fe7810361112257600e91505061118e565b7fa390d73d5fd5e6a577d394328e26ce85589c6d8c382fba9150fb136bbbf31ff7810361115357600f91505061118e565b6040517f08c379a000000000000000000000000000000000000000000000000000000000815260040161118590612b38565b60405180910390fd5b919050565b611229816040516024016111a79190612b56565b6040516020818303038152906040527f41304fac000000000000000000000000000000000000000000000000000000007bffffffffffffffffffffffffffffffffffffffffffffffffffffffff19166020820180517bffffffffffffffffffffffffffffffffffffffffffffffffffffffff8381831617835250505050611746565b50565b60605f5f600f8111156112425761124161224a565b5b85600f8111156112555761125461224a565b5b03611265576236ee809050611599565b6001600f8111156112795761127861224a565b5b85600f81111561128c5761128b61224a565b5b14806112bc57506002600f8111156112a7576112a661224a565b5b85600f8111156112ba576112b961224a565b5b145b806112eb57506003600f8111156112d6576112d561224a565b5b85600f8111156112e9576112e861224a565b5b145b156112fc576305265c009050611598565b6004600f8111156113105761130f61224a565b5b85600f8111156113235761132261224a565b5b148061135357506005600f81111561133e5761133d61224a565b5b85600f8111156113515761135061224a565b5b145b8061138257506006600f81111561136d5761136c61224a565b5b85600f8111156113805761137f61224a565b5b145b806113b157506007600f81111561139c5761139b61224a565b5b85600f8111156113af576113ae61224a565b5b145b156113c25763240c84009050611597565b6008600f8111156113d6576113d561224a565b5b85600f8111156113e9576113e861224a565b5b148061141957506009600f8111156114045761140361224a565b5b85600f8111156114175761141661224a565b5b145b806114485750600a600f8111156114335761143261224a565b5b85600f8111156114465761144561224a565b5b145b806114775750600b600f8111156114625761146161224a565b5b85600f8111156114755761147461224a565b5b145b1561148857639a7ec8009050611596565b600c600f81111561149c5761149b61224a565b5b85600f8111156114af576114ae61224a565b5b14806114df5750600d600f8111156114ca576114c961224a565b5b85600f8111156114dd576114dc61224a565b5b145b156114f1576401cf7c58009050611595565b600e600f8111156115055761150461224a565b5b85600f8111156115185761151761224a565b5b14806115475750600f808111156115325761153161224a565b5b85600f8111156115455761154461224a565b5b145b1561155957640757b12c009050611594565b6040517f08c379a000000000000000000000000000000000000000000000000000000000815260040161158b90612ad0565b60405180910390fd5b5b5b5b5b5b5f6115a48686610a29565b90505f6115b18786610a29565b90505f60018484846115c39190612b76565b6115cd9190612a1a565b6115d79190612bb1565b67ffffffffffffffff1690508067ffffffffffffffff8111156115fd576115fc611842565b5b60405190808252806020026020018201604052801561162b5781602001602082028036833780820191505090505b5094505f5f90505b8181101561169e578467ffffffffffffffff16816116519190612bec565b8461165c9190612bb1565b86828151811061166f5761166e6128f2565b5b602002602001019067ffffffffffffffff16908167ffffffffffffffff16815250508080600101915050611633565b50505050509392505050565b61174282826040516024016116c0929190612c3c565b6040516020818303038152906040527fb60e72cc000000000000000000000000000000000000000000000000000000007bffffffffffffffffffffffffffffffffffffffffffffffffffffffff19166020820180517bffffffffffffffffffffffffffffffffffffffffffffffffffffffff8381831617835250505050611746565b5050565b61175d8161175561176061177f565b63ffffffff16565b50565b5f6a636f6e736f6c652e6c6f6790505f5f835160208501845afa505050565b61180f819050919050565b611b4380612c9883390190565b6040518061018001604052805f67ffffffffffffffff16815260200160608152602001606081526020016060815260200160608152602001606081526020015f67ffffffffffffffff168152602001606081526020015f63ffffffff1681526020016060815260200160608152602001606081525090565b611817612c6a565b565b5f604051905090565b5f5ffd5b5f5ffd5b5f5ffd5b5f5ffd5b5f601f19601f8301169050919050565b7f4e487b71000000000000000000000000000000000000000000000000000000005f52604160045260245ffd5b61187882611832565b810181811067ffffffffffffffff8211171561189757611896611842565b5b80604052505050565b5f6118a9611819565b90506118b5828261186f565b919050565b5f67ffffffffffffffff8211156118d4576118d3611842565b5b6118dd82611832565b9050602081019050919050565b828183375f83830152505050565b5f61190a611905846118ba565b6118a0565b9050828152602081018484840111156119265761192561182e565b5b6119318482856118ea565b509392505050565b5f82601f83011261194d5761194c61182a565b5b813561195d8482602086016118f8565b91505092915050565b5f67ffffffffffffffff82169050919050565b61198281611966565b811461198c575f5ffd5b50565b5f8135905061199d81611979565b92915050565b5f5f5f606084860312156119ba576119b9611822565b5b5f84013567ffffffffffffffff8111156119d7576119d6611826565b5b6119e386828701611939565b935050602084013567ffffffffffffffff811115611a0457611a03611826565b5b611a1086828701611939565b9250506040611a218682870161198f565b9150509250925092565b5f81519050919050565b5f82825260208201905092915050565b5f819050602082019050919050565b611a5d81611966565b82525050565b5f81519050919050565b5f82825260208201905092915050565b8281835e5f83830152505050565b5f611a9582611a63565b611a9f8185611a6d565b9350611aaf818560208601611a7d565b611ab881611832565b840191505092915050565b5f63ffffffff82169050919050565b611adb81611ac3565b82525050565b5f61018083015f830151611af75f860182611a54565b5060208301518482036020860152611b0f8282611a8b565b91505060408301518482036040860152611b298282611a8b565b91505060608301518482036060860152611b438282611a8b565b91505060808301518482036080860152611b5d8282611a8b565b91505060a083015184820360a0860152611b778282611a8b565b91505060c0830151611b8c60c0860182611a54565b5060e083015184820360e0860152611ba48282611a8b565b915050610100830151611bbb610100860182611ad2565b50610120830151848203610120860152611bd58282611a8b565b915050610140830151848203610140860152611bf18282611a8b565b915050610160830151848203610160860152611c0d8282611a8b565b9150508091505092915050565b5f611c258383611ae1565b905092915050565b5f602082019050919050565b5f611c4382611a2b565b611c4d8185611a35565b935083602082028501611c5f85611a45565b805f5b85811015611c9a5784840389528151611c7b8582611c1a565b9450611c8683611c2d565b925060208a01995050600181019050611c62565b50829750879550505050505092915050565b5f6020820190508181035f830152611cc48184611c39565b905092915050565b5f5ffd5b5f5ffd5b611cdd81611ac3565b8114611ce7575f5ffd5b50565b5f81359050611cf881611cd4565b92915050565b5f6101808284031215611d1457611d13611ccc565b5b611d1f6101806118a0565b90505f611d2e8482850161198f565b5f83015250602082013567ffffffffffffffff811115611d5157611d50611cd0565b5b611d5d84828501611939565b602083015250604082013567ffffffffffffffff811115611d8157611d80611cd0565b5b611d8d84828501611939565b604083015250606082013567ffffffffffffffff811115611db157611db0611cd0565b5b611dbd84828501611939565b606083015250608082013567ffffffffffffffff811115611de157611de0611cd0565b5b611ded84828501611939565b60808301525060a082013567ffffffffffffffff811115611e1157611e10611cd0565b5b611e1d84828501611939565b60a08301525060c0611e318482850161198f565b60c08301525060e082013567ffffffffffffffff811115611e5557611e54611cd0565b5b611e6184828501611939565b60e083015250610100611e7684828501611cea565b6101008301525061012082013567ffffffffffffffff811115611e9c57611e9b611cd0565b5b611ea884828501611939565b6101208301525061014082013567ffffffffffffffff811115611ece57611ecd611cd0565b5b611eda84828501611939565b6101408301525061016082013567ffffffffffffffff811115611f0057611eff611cd0565b5b611f0c84828501611939565b6101608301525092915050565b5f5f5f60608486031215611f3057611f2f611822565b5b5f84013567ffffffffffffffff811115611f4d57611f4c611826565b5b611f5986828701611939565b935050602084013567ffffffffffffffff811115611f7a57611f79611826565b5b611f8686828701611939565b925050604084013567ffffffffffffffff811115611fa757611fa6611826565b5b611fb386828701611cfe565b9150509250925092565b5f819050919050565b611fcf81611fbd565b8114611fd9575f5ffd5b50565b5f81359050611fea81611fc6565b92915050565b60108110611ffc575f5ffd5b50565b5f8135905061200d81611ff0565b92915050565b5f5f5f6060848603121561202a57612029611822565b5b5f61203786828701611fdc565b935050602061204886828701611fff565b92505060406120598682870161198f565b9150509250925092565b5f73ffffffffffffffffffffffffffffffffffffffff82169050919050565b5f61208c82612063565b9050919050565b61209c81612082565b82525050565b5f6020820190506120b55f830184612093565b92915050565b5f819050919050565b6120cd816120bb565b81146120d7575f5ffd5b50565b5f813590506120e8816120c4565b92915050565b5f5f5f5f5f60a0868803121561210757612106611822565b5b5f86013567ffffffffffffffff81111561212457612123611826565b5b61213088828901611939565b955050602086013567ffffffffffffffff81111561215157612150611826565b5b61215d88828901611939565b945050604061216e8882890161198f565b935050606061217f8882890161198f565b9250506080612190888289016120da565b9150509295509295909350565b5f5f604083850312156121b3576121b2611822565b5b5f6121c085828601611fff565b92505060206121d18582860161198f565b9150509250929050565b6121e481611966565b82525050565b5f6020820190506121fd5f8301846121db565b92915050565b5f6020828403121561221857612217611822565b5b5f82013567ffffffffffffffff81111561223557612234611826565b5b61224184828501611939565b91505092915050565b7f4e487b71000000000000000000000000000000000000000000000000000000005f52602160045260245ffd5b601081106122885761228761224a565b5b50565b5f81905061229882612277565b919050565b5f6122a78261228b565b9050919050565b6122b78161229d565b82525050565b5f6020820190506122d05f8301846122ae565b92915050565b5f81905092915050565b5f6122ea82611a63565b6122f481856122d6565b9350612304818560208601611a7d565b80840191505092915050565b5f61231b82846122e0565b915081905092915050565b5f67ffffffffffffffff8211156123405761233f611842565b5b602082029050602081019050919050565b5f5ffd5b5f8151905061236381611979565b92915050565b5f61237b612376846118ba565b6118a0565b9050828152602081018484840111156123975761239661182e565b5b6123a2848285611a7d565b509392505050565b5f82601f8301126123be576123bd61182a565b5b81516123ce848260208601612369565b91505092915050565b5f815190506123e581611cd4565b92915050565b5f610180828403121561240157612400611ccc565b5b61240c6101806118a0565b90505f61241b84828501612355565b5f83015250602082015167ffffffffffffffff81111561243e5761243d611cd0565b5b61244a848285016123aa565b602083015250604082015167ffffffffffffffff81111561246e5761246d611cd0565b5b61247a848285016123aa565b604083015250606082015167ffffffffffffffff81111561249e5761249d611cd0565b5b6124aa848285016123aa565b606083015250608082015167ffffffffffffffff8111156124ce576124cd611cd0565b5b6124da848285016123aa565b60808301525060a082015167ffffffffffffffff8111156124fe576124fd611cd0565b5b61250a848285016123aa565b60a08301525060c061251e84828501612355565b60c08301525060e082015167ffffffffffffffff81111561254257612541611cd0565b5b61254e848285016123aa565b60e083015250610100612563848285016123d7565b6101008301525061012082015167ffffffffffffffff81111561258957612588611cd0565b5b612595848285016123aa565b6101208301525061014082015167ffffffffffffffff8111156125bb576125ba611cd0565b5b6125c7848285016123aa565b6101408301525061016082015167ffffffffffffffff8111156125ed576125ec611cd0565b5b6125f9848285016123aa565b6101608301525092915050565b5f61261861261384612326565b6118a0565b9050808382526020820190506020840283018581111561263b5761263a612351565b5b835b8181101561268257805167ffffffffffffffff8111156126605761265f61182a565b5b80860161266d89826123eb565b8552602085019450505060208101905061263d565b5050509392505050565b5f82601f8301126126a05761269f61182a565b5b81516126b0848260208601612606565b91505092915050565b5f602082840312156126ce576126cd611822565b5b5f82015167ffffffffffffffff8111156126eb576126ea611826565b5b6126f78482850161268c565b91505092915050565b5f82825260208201905092915050565b5f61271a82611a63565b6127248185612700565b9350612734818560208601611a7d565b61273d81611832565b840191505092915050565b5f6080820190508181035f8301526127608187612710565b905081810360208301526127748186612710565b905061278360408301856121db565b6127906060830184612093565b95945050505050565b5f61018083015f8301516127af5f860182611a54565b50602083015184820360208601526127c78282611a8b565b915050604083015184820360408601526127e18282611a8b565b915050606083015184820360608601526127fb8282611a8b565b915050608083015184820360808601526128158282611a8b565b91505060a083015184820360a086015261282f8282611a8b565b91505060c083015161284460c0860182611a54565b5060e083015184820360e086015261285c8282611a8b565b915050610100830151612873610100860182611ad2565b5061012083015184820361012086015261288d8282611a8b565b9150506101408301518482036101408601526128a98282611a8b565b9150506101608301518482036101608601526128c58282611a8b565b9150508091505092915050565b5f6020820190508181035f8301526128ea8184612799565b905092915050565b7f4e487b71000000000000000000000000000000000000000000000000000000005f52603260045260245ffd5b7f4e487b71000000000000000000000000000000000000000000000000000000005f52601160045260245ffd5b5f612956826120bb565b9150612961836120bb565b92508282039050818111156129795761297861291f565b5b92915050565b5f612989826120bb565b91507fffffffffffffffffffffffffffffffffffffffffffffffffffffffffffffffff82036129bb576129ba61291f565b5b600182019050919050565b5f6129d0826120bb565b91505f82036129e2576129e161291f565b5b600182039050919050565b7f4e487b71000000000000000000000000000000000000000000000000000000005f52601260045260245ffd5b5f612a2482611966565b9150612a2f83611966565b925082612a3f57612a3e6129ed565b5b828204905092915050565b5f612a5482611966565b9150612a5f83611966565b9250828202612a6d81611966565b9150808214612a7f57612a7e61291f565b5b5092915050565b7f556e737570706f7274656420696e74657276616c0000000000000000000000005f82015250565b5f612aba601483612700565b9150612ac582612a86565b602082019050919050565b5f6020820190508181035f830152612ae781612aae565b9050919050565b7f496e76616c696420696e74657276616c20737472696e670000000000000000005f82015250565b5f612b22601783612700565b9150612b2d82612aee565b602082019050919050565b5f6020820190508181035f830152612b4f81612b16565b9050919050565b5f6020820190508181035f830152612b6e8184612710565b905092915050565b5f612b8082611966565b9150612b8b83611966565b9250828203905067ffffffffffffffff811115612bab57612baa61291f565b5b92915050565b5f612bbb82611966565b9150612bc683611966565b9250828201905067ffffffffffffffff811115612be657612be561291f565b5b92915050565b5f612bf6826120bb565b9150612c01836120bb565b9250828202612c0f816120bb565b91508282048414831517612c2657612c2561291f565b5b5092915050565b612c36816120bb565b82525050565b5f6040820190508181035f830152612c548185612710565b9050612c636020830184612c2d565b9392505050565b7f4e487b71000000000000000000000000000000000000000000000000000000005f52605160045260245ffdfe6080604052348015600e575f5ffd5b503360015f6101000a81548173ffffffffffffffffffffffffffffffffffffffff021916908373ffffffffffffffffffffffffffffffffffffffff160217905550611ae78061005c5f395ff3fe608060405234801561000f575f5ffd5b5060043610610055575f3560e01c8063a6478d9714610059578063a8f9b0af14610077578063c45a015514610093578063ea6c8353146100b1578063fb34b3a9146100cf575b5f5ffd5b6100616100ed565b60405161006e919061103d565b60405180910390f35b610091600480360381019061008c919061143c565b6100f8565b005b61009b6102fe565b6040516100a891906114c2565b60405180910390f35b6100b9610323565b6040516100c6919061174d565b60405180910390f35b6100d76109a4565b6040516100e4919061174d565b60405180910390f35b5f5f80549050905090565b60015f9054906101000a900473ffffffffffffffffffffffffffffffffffffffff1673ffffffffffffffffffffffffffffffffffffffff163373ffffffffffffffffffffffffffffffffffffffff1614610187576040517f08c379a000000000000000000000000000000000000000000000000000000000815260040161017e906117c7565b60405180910390fd5b5f81908060018154018082558091505060019003905f5260205f2090600c02015f909190919091505f820151815f015f6101000a81548167ffffffffffffffff021916908367ffffffffffffffff16021790555060208201518160010190816101f091906119e2565b50604082015181600201908161020691906119e2565b50606082015181600301908161021c91906119e2565b50608082015181600401908161023291906119e2565b5060a082015181600501908161024891906119e2565b5060c0820151816006015f6101000a81548167ffffffffffffffff021916908367ffffffffffffffff16021790555060e082015181600701908161028c91906119e2565b50610100820151816008015f6101000a81548163ffffffff021916908363ffffffff1602179055506101208201518160090190816102ca91906119e2565b5061014082015181600a0190816102e191906119e2565b5061016082015181600b0190816102f891906119e2565b50505050565b60015f9054906101000a900473ffffffffffffffffffffffffffffffffffffffff1681565b606060015f9054906101000a900473ffffffffffffffffffffffffffffffffffffffff1673ffffffffffffffffffffffffffffffffffffffff163373ffffffffffffffffffffffffffffffffffffffff16146103b4576040517f08c379a00000000000000000000000000000000000000000000000000000000081526004016103ab906117c7565b60405180910390fd5b5f805480602002602001604051908101604052809291908181526020015f905b8282101561099b578382905f5260205f2090600c0201604051806101800160405290815f82015f9054906101000a900467ffffffffffffffff1667ffffffffffffffff1667ffffffffffffffff16815260200160018201805461043690611812565b80601f016020809104026020016040519081016040528092919081815260200182805461046290611812565b80156104ad5780601f10610484576101008083540402835291602001916104ad565b820191905f5260205f20905b81548152906001019060200180831161049057829003601f168201915b505050505081526020016002820180546104c690611812565b80601f01602080910402602001604051908101604052809291908181526020018280546104f290611812565b801561053d5780601f106105145761010080835404028352916020019161053d565b820191905f5260205f20905b81548152906001019060200180831161052057829003601f168201915b5050505050815260200160038201805461055690611812565b80601f016020809104026020016040519081016040528092919081815260200182805461058290611812565b80156105cd5780601f106105a4576101008083540402835291602001916105cd565b820191905f5260205f20905b8154815290600101906020018083116105b057829003601f168201915b505050505081526020016004820180546105e690611812565b80601f016020809104026020016040519081016040528092919081815260200182805461061290611812565b801561065d5780601f106106345761010080835404028352916020019161065d565b820191905f5260205f20905b81548152906001019060200180831161064057829003601f168201915b5050505050815260200160058201805461067690611812565b80601f01602080910402602001604051908101604052809291908181526020018280546106a290611812565b80156106ed5780601f106106c4576101008083540402835291602001916106ed565b820191905f5260205f20905b8154815290600101906020018083116106d057829003601f168201915b50505050508152602001600682015f9054906101000a900467ffffffffffffffff1667ffffffffffffffff1667ffffffffffffffff16815260200160078201805461073790611812565b80601f016020809104026020016040519081016040528092919081815260200182805461076390611812565b80156107ae5780601f10610785576101008083540402835291602001916107ae565b820191905f5260205f20905b81548152906001019060200180831161079157829003601f168201915b50505050508152602001600882015f9054906101000a900463ffffffff1663ffffffff1663ffffffff1681526020016009820180546107ec90611812565b80601f016020809104026020016040519081016040528092919081815260200182805461081890611812565b80156108635780601f1061083a57610100808354040283529160200191610863565b820191905f5260205f20905b81548152906001019060200180831161084657829003601f168201915b50505050508152602001600a8201805461087c90611812565b80601f01602080910402602001604051908101604052809291908181526020018280546108a890611812565b80156108f35780601f106108ca576101008083540402835291602001916108f3565b820191905f5260205f20905b8154815290600101906020018083116108d657829003601f168201915b50505050508152602001600b8201805461090c90611812565b80601f016020809104026020016040519081016040528092919081815260200182805461093890611812565b80156109835780601f1061095a57610100808354040283529160200191610983565b820191905f5260205f20905b81548152906001019060200180831161096657829003601f168201915b505050505081525050815260200190600101906103d4565b50505050905090565b606060015f9054906101000a900473ffffffffffffffffffffffffffffffffffffffff1673ffffffffffffffffffffffffffffffffffffffff163373ffffffffffffffffffffffffffffffffffffffff1614610a35576040517f08c379a0000000000000000000000000000000000000000000000000000000008152600401610a2c906117c7565b60405180910390fd5b5f805480602002602001604051908101604052809291908181526020015f905b8282101561101c578382905f5260205f2090600c0201604051806101800160405290815f82015f9054906101000a900467ffffffffffffffff1667ffffffffffffffff1667ffffffffffffffff168152602001600182018054610ab790611812565b80601f0160208091040260200160405190810160405280929190818152602001828054610ae390611812565b8015610b2e5780601f10610b0557610100808354040283529160200191610b2e565b820191905f5260205f20905b815481529060010190602001808311610b1157829003601f168201915b50505050508152602001600282018054610b4790611812565b80601f0160208091040260200160405190810160405280929190818152602001828054610b7390611812565b8015610bbe5780601f10610b9557610100808354040283529160200191610bbe565b820191905f5260205f20905b815481529060010190602001808311610ba157829003601f168201915b50505050508152602001600382018054610bd790611812565b80601f0160208091040260200160405190810160405280929190818152602001828054610c0390611812565b8015610c4e5780601f10610c2557610100808354040283529160200191610c4e565b820191905f5260205f20905b815481529060010190602001808311610c3157829003601f168201915b50505050508152602001600482018054610c6790611812565b80601f0160208091040260200160405190810160405280929190818152602001828054610c9390611812565b8015610cde5780601f10610cb557610100808354040283529160200191610cde565b820191905f5260205f20905b815481529060010190602001808311610cc157829003601f168201915b50505050508152602001600582018054610cf790611812565b80601f0160208091040260200160405190810160405280929190818152602001828054610d2390611812565b8015610d6e5780601f10610d4557610100808354040283529160200191610d6e565b820191905f5260205f20905b815481529060010190602001808311610d5157829003601f168201915b50505050508152602001600682015f9054906101000a900467ffffffffffffffff1667ffffffffffffffff1667ffffffffffffffff168152602001600782018054610db890611812565b80601f0160208091040260200160405190810160405280929190818152602001828054610de490611812565b8015610e2f5780601f10610e0657610100808354040283529160200191610e2f565b820191905f5260205f20905b815481529060010190602001808311610e1257829003601f168201915b50505050508152602001600882015f9054906101000a900463ffffffff1663ffffffff1663ffffffff168152602001600982018054610e6d90611812565b80601f0160208091040260200160405190810160405280929190818152602001828054610e9990611812565b8015610ee45780601f10610ebb57610100808354040283529160200191610ee4565b820191905f5260205f20905b815481529060010190602001808311610ec757829003601f168201915b50505050508152602001600a82018054610efd90611812565b80601f0160208091040260200160405190810160405280929190818152602001828054610f2990611812565b8015610f745780601f10610f4b57610100808354040283529160200191610f74565b820191905f5260205f20905b815481529060010190602001808311610f5757829003601f168201915b50505050508152602001600b82018054610f8d90611812565b80601f0160208091040260200160405190810160405280929190818152602001828054610fb990611812565b80156110045780601f10610fdb57610100808354040283529160200191611004565b820191905f5260205f20905b815481529060010190602001808311610fe757829003601f168201915b50505050508152505081526020019060010190610a55565b50505050905090565b5f819050919050565b61103781611025565b82525050565b5f6020820190506110505f83018461102e565b92915050565b5f604051905090565b5f5ffd5b5f5ffd5b5f5ffd5b5f601f19601f8301169050919050565b7f4e487b71000000000000000000000000000000000000000000000000000000005f52604160045260245ffd5b6110b18261106b565b810181811067ffffffffffffffff821117156110d0576110cf61107b565b5b80604052505050565b5f6110e2611056565b90506110ee82826110a8565b919050565b5f5ffd5b5f67ffffffffffffffff82169050919050565b611113816110f7565b811461111d575f5ffd5b50565b5f8135905061112e8161110a565b92915050565b5f5ffd5b5f5ffd5b5f67ffffffffffffffff8211156111565761115561107b565b5b61115f8261106b565b9050602081019050919050565b828183375f83830152505050565b5f61118c6111878461113c565b6110d9565b9050828152602081018484840111156111a8576111a7611138565b5b6111b384828561116c565b509392505050565b5f82601f8301126111cf576111ce611134565b5b81356111df84826020860161117a565b91505092915050565b5f63ffffffff82169050919050565b611200816111e8565b811461120a575f5ffd5b50565b5f8135905061121b816111f7565b92915050565b5f610180828403121561123757611236611067565b5b6112426101806110d9565b90505f61125184828501611120565b5f83015250602082013567ffffffffffffffff811115611274576112736110f3565b5b611280848285016111bb565b602083015250604082013567ffffffffffffffff8111156112a4576112a36110f3565b5b6112b0848285016111bb565b604083015250606082013567ffffffffffffffff8111156112d4576112d36110f3565b5b6112e0848285016111bb565b606083015250608082013567ffffffffffffffff811115611304576113036110f3565b5b611310848285016111bb565b60808301525060a082013567ffffffffffffffff811115611334576113336110f3565b5b611340848285016111bb565b60a08301525060c061135484828501611120565b60c08301525060e082013567ffffffffffffffff811115611378576113776110f3565b5b611384848285016111bb565b60e0830152506101006113998482850161120d565b6101008301525061012082013567ffffffffffffffff8111156113bf576113be6110f3565b5b6113cb848285016111bb565b6101208301525061014082013567ffffffffffffffff8111156113f1576113f06110f3565b5b6113fd848285016111bb565b6101408301525061016082013567ffffffffffffffff811115611423576114226110f3565b5b61142f848285016111bb565b6101608301525092915050565b5f602082840312156114515761145061105f565b5b5f82013567ffffffffffffffff81111561146e5761146d611063565b5b61147a84828501611221565b91505092915050565b5f73ffffffffffffffffffffffffffffffffffffffff82169050919050565b5f6114ac82611483565b9050919050565b6114bc816114a2565b82525050565b5f6020820190506114d55f8301846114b3565b92915050565b5f81519050919050565b5f82825260208201905092915050565b5f819050602082019050919050565b61150d816110f7565b82525050565b5f81519050919050565b5f82825260208201905092915050565b8281835e5f83830152505050565b5f61154582611513565b61154f818561151d565b935061155f81856020860161152d565b6115688161106b565b840191505092915050565b61157c816111e8565b82525050565b5f61018083015f8301516115985f860182611504565b50602083015184820360208601526115b0828261153b565b915050604083015184820360408601526115ca828261153b565b915050606083015184820360608601526115e4828261153b565b915050608083015184820360808601526115fe828261153b565b91505060a083015184820360a0860152611618828261153b565b91505060c083015161162d60c0860182611504565b5060e083015184820360e0860152611645828261153b565b91505061010083015161165c610100860182611573565b50610120830151848203610120860152611676828261153b565b915050610140830151848203610140860152611692828261153b565b9150506101608301518482036101608601526116ae828261153b565b9150508091505092915050565b5f6116c68383611582565b905092915050565b5f602082019050919050565b5f6116e4826114db565b6116ee81856114e5565b935083602082028501611700856114f5565b805f5b8581101561173b578484038952815161171c85826116bb565b9450611727836116ce565b925060208a01995050600181019050611703565b50829750879550505050505092915050565b5f6020820190508181035f83015261176581846116da565b905092915050565b5f82825260208201905092915050565b7f4e6f7420666163746f72790000000000000000000000000000000000000000005f82015250565b5f6117b1600b8361176d565b91506117bc8261177d565b602082019050919050565b5f6020820190508181035f8301526117de816117a5565b9050919050565b7f4e487b71000000000000000000000000000000000000000000000000000000005f52602260045260245ffd5b5f600282049050600182168061182957607f821691505b60208210810361183c5761183b6117e5565b5b50919050565b5f819050815f5260205f209050919050565b5f6020601f8301049050919050565b5f82821b905092915050565b5f6008830261189e7fffffffffffffffffffffffffffffffffffffffffffffffffffffffffffffffff82611863565b6118a88683611863565b95508019841693508086168417925050509392505050565b5f819050919050565b5f6118e36118de6118d984611025565b6118c0565b611025565b9050919050565b5f819050919050565b6118fc836118c9565b611910611908826118ea565b84845461186f565b825550505050565b5f5f905090565b611927611918565b6119328184846118f3565b505050565b5b818110156119555761194a5f8261191f565b600181019050611938565b5050565b601f82111561199a5761196b81611842565b61197484611854565b81016020851015611983578190505b61199761198f85611854565b830182611937565b50505b505050565b5f82821c905092915050565b5f6119ba5f198460080261199f565b1980831691505092915050565b5f6119d283836119ab565b9150826002028217905092915050565b6119eb82611513565b67ffffffffffffffff811115611a0457611a0361107b565b5b611a0e8254611812565b611a19828285611959565b5f60209050601f831160018114611a4a575f8415611a38578287015190505b611a4285826119c7565b865550611aa9565b601f198416611a5886611842565b5f5b82811015611a7f57848901518255600182019150602085019450602081019050611a5a565b86831015611a9c5784890151611a98601f8916826119ab565b8355505b6001600288020188555050505b50505050505056fea2646970667358221220f4dfe3be846e2ca9588d0fba5e7bc76478565a894574830b50ebf9e965bc941b64736f6c634300081e0033a26469706673582212200bb706dc5878df31ee59b2621598804ab8c1b76d008da9ef1832bfc2971f98a464736f6c634300081e0033",
			"opcodes": "PUSH1 0x80 PUSH1 0x40 MSTORE CALLVALUE DUP1 ISZERO PUSH1 0xE JUMPI PUSH0 PUSH0 REVERT JUMPDEST POP PUSH2 0x4810 DUP1 PUSH2 0x1C PUSH0 CODECOPY PUSH0 RETURN INVALID PUSH1 0x80 PUSH1 0x40 MSTORE CALLVALUE DUP1 ISZERO PUSH2 0xF JUMPI PUSH0 PUSH0 REVERT JUMPDEST POP PUSH1 0x4 CALLDATASIZE LT PUSH2 0x60 JUMPI PUSH0 CALLDATALOAD PUSH1 0xE0 SHR DUP1 PUSH4 0x38993F6B EQ PUSH2 0x64 JUMPI DUP1 PUSH4 0x53857F9F EQ PUSH2 0x94 JUMPI DUP1 PUSH4 0x5B3CB9D4 EQ PUSH2 0xB0 JUMPI DUP1 PUSH4 0x6FC78784 EQ PUSH2 0xE0 JUMPI DUP1 PUSH4 0x8D412AD2 EQ PUSH2 0x110 JUMPI DUP1 PUSH4 0x93FAA992 EQ PUSH2 0x140 JUMPI JUMPDEST PUSH0 PUSH0 REVERT JUMPDEST PUSH2 0x7E PUSH1 0x4 DUP1 CALLDATASIZE SUB DUP2 ADD SWAP1 PUSH2 0x79 SWAP2 SWAP1 PUSH2 0x19A3 JUMP JUMPDEST PUSH2 0x170 JUMP JUMPDEST PUSH1 0x40 MLOAD PUSH2 0x8B SWAP2 SWAP1 PUSH2 0x1CAC JUMP JUMPDEST PUSH1 0x40 MLOAD DUP1 SWAP2 SUB SWAP1 RETURN JUMPDEST PUSH2 0xAE PUSH1 0x4 DUP1 CALLDATASIZE SUB DUP2 ADD SWAP1 PUSH2 0xA9 SWAP2 SWAP1 PUSH2 0x1F19 JUMP JUMPDEST PUSH2 0x2BB JUMP JUMPDEST STOP JUMPDEST PUSH2 0xCA PUSH1 0x4 DUP1 CALLDATASIZE SUB DUP2 ADD SWAP1 PUSH2 0xC5 SWAP2 SWAP1 PUSH2 0x2013 JUMP JUMPDEST PUSH2 0x574 JUMP JUMPDEST PUSH1 0x40 MLOAD PUSH2 0xD7 SWAP2 SWAP1 PUSH2 0x20A2 JUMP JUMPDEST PUSH1 0x40 MLOAD DUP1 SWAP2 SUB SWAP1 RETURN JUMPDEST PUSH2 0xFA PUSH1 0x4 DUP1 CALLDATASIZE SUB DUP2 ADD SWAP1 PUSH2 0xF5 SWAP2 SWAP1 PUSH2 0x20EE JUMP JUMPDEST PUSH2 0x5BB JUMP JUMPDEST PUSH1 0x40 MLOAD PUSH2 0x107 SWAP2 SWAP1 PUSH2 0x1CAC JUMP JUMPDEST PUSH1 0x40 MLOAD DUP1 SWAP2 SUB SWAP1 RETURN JUMPDEST PUSH2 0x12A PUSH1 0x4 DUP1 CALLDATASIZE SUB DUP2 ADD SWAP1 PUSH2 0x125 SWAP2 SWAP1 PUSH2 0x219D JUMP JUMPDEST PUSH2 0xA29 JUMP JUMPDEST PUSH1 0x40 MLOAD PUSH2 0x137 SWAP2 SWAP1 PUSH2 0x21EA JUMP JUMPDEST PUSH1 0x40 MLOAD DUP1 SWAP2 SUB SWAP1 RETURN JUMPDEST PUSH2 0x15A PUSH1 0x4 DUP1 CALLDATASIZE SUB DUP2 ADD SWAP1 PUSH2 0x155 SWAP2 SWAP1 PUSH2 0x2203 JUMP JUMPDEST PUSH2 0xE19 JUMP JUMPDEST PUSH1 0x40 MLOAD PUSH2 0x167 SWAP2 SWAP1 PUSH2 0x22BD JUMP JUMPDEST PUSH1 0x40 MLOAD DUP1 SWAP2 SUB SWAP1 RETURN JUMPDEST PUSH1 0x60 PUSH0 PUSH2 0x17C DUP5 PUSH2 0xE19 JUMP JUMPDEST SWAP1 POP PUSH0 DUP6 PUSH1 0x40 MLOAD PUSH1 0x20 ADD PUSH2 0x190 SWAP2 SWAP1 PUSH2 0x2310 JUMP JUMPDEST PUSH1 0x40 MLOAD PUSH1 0x20 DUP2 DUP4 SUB SUB DUP2 MSTORE SWAP1 PUSH1 0x40 MSTORE DUP1 MLOAD SWAP1 PUSH1 0x20 ADD KECCAK256 SWAP1 POP PUSH0 PUSH2 0x1B3 DUP4 DUP7 PUSH2 0xA29 JUMP JUMPDEST SWAP1 POP PUSH0 PUSH0 PUSH0 DUP5 DUP2 MSTORE PUSH1 0x20 ADD SWAP1 DUP2 MSTORE PUSH1 0x20 ADD PUSH0 KECCAK256 PUSH0 DUP6 PUSH1 0xF DUP2 GT ISZERO PUSH2 0x1DA JUMPI PUSH2 0x1D9 PUSH2 0x224A JUMP JUMPDEST JUMPDEST PUSH1 0xF DUP2 GT ISZERO PUSH2 0x1EC JUMPI PUSH2 0x1EB PUSH2 0x224A JUMP JUMPDEST JUMPDEST DUP2 MSTORE PUSH1 0x20 ADD SWAP1 DUP2 MSTORE PUSH1 0x20 ADD PUSH0 KECCAK256 PUSH0 DUP4 PUSH8 0xFFFFFFFFFFFFFFFF AND PUSH8 0xFFFFFFFFFFFFFFFF AND DUP2 MSTORE PUSH1 0x20 ADD SWAP1 DUP2 MSTORE PUSH1 0x20 ADD PUSH0 KECCAK256 PUSH0 SWAP1 SLOAD SWAP1 PUSH2 0x100 EXP SWAP1 DIV PUSH20 0xFFFFFFFFFFFFFFFFFFFFFFFFFFFFFFFFFFFFFFFF AND SWAP1 POP DUP1 PUSH20 0xFFFFFFFFFFFFFFFFFFFFFFFFFFFFFFFFFFFFFFFF AND PUSH4 0xFB34B3A9 PUSH1 0x40 MLOAD DUP2 PUSH4 0xFFFFFFFF AND PUSH1 0xE0 SHL DUP2 MSTORE PUSH1 0x4 ADD PUSH0 PUSH1 0x40 MLOAD DUP1 DUP4 SUB DUP2 DUP7 GAS STATICCALL ISZERO DUP1 ISZERO PUSH2 0x286 JUMPI RETURNDATASIZE PUSH0 PUSH0 RETURNDATACOPY RETURNDATASIZE PUSH0 REVERT JUMPDEST POP POP POP POP PUSH1 0x40 MLOAD RETURNDATASIZE PUSH0 DUP3 RETURNDATACOPY RETURNDATASIZE PUSH1 0x1F NOT PUSH1 0x1F DUP3 ADD AND DUP3 ADD DUP1 PUSH1 0x40 MSTORE POP DUP2 ADD SWAP1 PUSH2 0x2AE SWAP2 SWAP1 PUSH2 0x26B9 JUMP JUMPDEST SWAP5 POP POP POP POP POP SWAP4 SWAP3 POP POP POP JUMP JUMPDEST PUSH0 PUSH2 0x2C5 DUP4 PUSH2 0xE19 JUMP JUMPDEST SWAP1 POP PUSH0 DUP5 PUSH1 0x40 MLOAD PUSH1 0x20 ADD PUSH2 0x2D9 SWAP2 SWAP1 PUSH2 0x2310 JUMP JUMPDEST PUSH1 0x40 MLOAD PUSH1 0x20 DUP2 DUP4 SUB SUB DUP2 MSTORE SWAP1 PUSH1 0x40 MSTORE DUP1 MLOAD SWAP1 PUSH1 0x20 ADD KECCAK256 SWAP1 POP PUSH0 PUSH2 0x2FF DUP4 DUP6 PUSH0 ADD MLOAD PUSH2 0xA29 JUMP JUMPDEST SWAP1 POP PUSH0 PUSH0 PUSH0 DUP5 DUP2 MSTORE PUSH1 0x20 ADD SWAP1 DUP2 MSTORE PUSH1 0x20 ADD PUSH0 KECCAK256 PUSH0 DUP6 PUSH1 0xF DUP2 GT ISZERO PUSH2 0x326 JUMPI PUSH2 0x325 PUSH2 0x224A JUMP JUMPDEST JUMPDEST PUSH1 0xF DUP2 GT ISZERO PUSH2 0x338 JUMPI PUSH2 0x337 PUSH2 0x224A JUMP JUMPDEST JUMPDEST DUP2 MSTORE PUSH1 0x20 ADD SWAP1 DUP2 MSTORE PUSH1 0x20 ADD PUSH0 KECCAK256 PUSH0 DUP4 PUSH8 0xFFFFFFFFFFFFFFFF AND PUSH8 0xFFFFFFFFFFFFFFFF AND DUP2 MSTORE PUSH1 0x20 ADD SWAP1 DUP2 MSTORE PUSH1 0x20 ADD PUSH0 KECCAK256 PUSH0 SWAP1 SLOAD SWAP1 PUSH2 0x100 EXP SWAP1 DIV PUSH20 0xFFFFFFFFFFFFFFFFFFFFFFFFFFFFFFFFFFFFFFFF AND SWAP1 POP PUSH0 PUSH20 0xFFFFFFFFFFFFFFFFFFFFFFFFFFFFFFFFFFFFFFFF AND DUP2 PUSH20 0xFFFFFFFFFFFFFFFFFFFFFFFFFFFFFFFFFFFFFFFF AND SUB PUSH2 0x505 JUMPI PUSH2 0x3FB PUSH1 0x40 MLOAD DUP1 PUSH1 0x40 ADD PUSH1 0x40 MSTORE DUP1 PUSH1 0x14 DUP2 MSTORE PUSH1 0x20 ADD PUSH32 0x437265617465206E657720616464727265737373000000000000000000000000 DUP2 MSTORE POP PUSH2 0x1193 JUMP JUMPDEST PUSH1 0x40 MLOAD PUSH2 0x407 SWAP1 PUSH2 0x178A JUMP JUMPDEST PUSH1 0x40 MLOAD DUP1 SWAP2 SUB SWAP1 PUSH0 CREATE DUP1 ISZERO DUP1 ISZERO PUSH2 0x420 JUMPI RETURNDATASIZE PUSH0 PUSH0 RETURNDATACOPY RETURNDATASIZE PUSH0 REVERT JUMPDEST POP SWAP1 POP DUP1 PUSH0 PUSH0 DUP6 DUP2 MSTORE PUSH1 0x20 ADD SWAP1 DUP2 MSTORE PUSH1 0x20 ADD PUSH0 KECCAK256 PUSH0 DUP7 PUSH1 0xF DUP2 GT ISZERO PUSH2 0x448 JUMPI PUSH2 0x447 PUSH2 0x224A JUMP JUMPDEST JUMPDEST PUSH1 0xF DUP2 GT ISZERO PUSH2 0x45A JUMPI PUSH2 0x459 PUSH2 0x224A JUMP JUMPDEST JUMPDEST DUP2 MSTORE PUSH1 0x20 ADD SWAP1 DUP2 MSTORE PUSH1 0x20 ADD PUSH0 KECCAK256 PUSH0 DUP5 PUSH8 0xFFFFFFFFFFFFFFFF AND PUSH8 0xFFFFFFFFFFFFFFFF AND DUP2 MSTORE PUSH1 0x20 ADD SWAP1 DUP2 MSTORE PUSH1 0x20 ADD PUSH0 KECCAK256 PUSH0 PUSH2 0x100 EXP DUP2 SLOAD DUP2 PUSH20 0xFFFFFFFFFFFFFFFFFFFFFFFFFFFFFFFFFFFFFFFF MUL NOT AND SWAP1 DUP4 PUSH20 0xFFFFFFFFFFFFFFFFFFFFFFFFFFFFFFFFFFFFFFFF AND MUL OR SWAP1 SSTORE POP PUSH32 0x2A9E82BE7BC20784DCC707F4814CA404AC4A94DB66450718F7733B160FB62D86 DUP8 DUP8 DUP5 DUP5 PUSH1 0x40 MLOAD PUSH2 0x4FC SWAP5 SWAP4 SWAP3 SWAP2 SWAP1 PUSH2 0x2748 JUMP JUMPDEST PUSH1 0x40 MLOAD DUP1 SWAP2 SUB SWAP1 LOG1 JUMPDEST DUP1 PUSH20 0xFFFFFFFFFFFFFFFFFFFFFFFFFFFFFFFFFFFFFFFF AND PUSH4 0xA8F9B0AF DUP7 PUSH1 0x40 MLOAD DUP3 PUSH4 0xFFFFFFFF AND PUSH1 0xE0 SHL DUP2 MSTORE PUSH1 0x4 ADD PUSH2 0x53E SWAP2 SWAP1 PUSH2 0x28D2 JUMP JUMPDEST PUSH0 PUSH1 0x40 MLOAD DUP1 DUP4 SUB DUP2 PUSH0 DUP8 DUP1 EXTCODESIZE ISZERO DUP1 ISZERO PUSH2 0x555 JUMPI PUSH0 PUSH0 REVERT JUMPDEST POP GAS CALL ISZERO DUP1 ISZERO PUSH2 0x567 JUMPI RETURNDATASIZE PUSH0 PUSH0 RETURNDATACOPY RETURNDATASIZE PUSH0 REVERT JUMPDEST POP POP POP POP POP POP POP POP POP POP POP JUMP JUMPDEST PUSH0 PUSH1 0x20 MSTORE DUP3 PUSH0 MSTORE PUSH1 0x40 PUSH0 KECCAK256 PUSH1 0x20 MSTORE DUP2 PUSH0 MSTORE PUSH1 0x40 PUSH0 KECCAK256 PUSH1 0x20 MSTORE DUP1 PUSH0 MSTORE PUSH1 0x40 PUSH0 KECCAK256 PUSH0 SWAP3 POP SWAP3 POP POP SWAP1 SLOAD SWAP1 PUSH2 0x100 EXP SWAP1 DIV PUSH20 0xFFFFFFFFFFFFFFFFFFFFFFFFFFFFFFFFFFFFFFFF AND DUP2 JUMP JUMPDEST PUSH1 0x60 PUSH0 PUSH2 0x5C7 DUP7 PUSH2 0xE19 JUMP JUMPDEST SWAP1 POP PUSH0 DUP8 PUSH1 0x40 MLOAD PUSH1 0x20 ADD PUSH2 0x5DB SWAP2 SWAP1 PUSH2 0x2310 JUMP JUMPDEST PUSH1 0x40 MLOAD PUSH1 0x20 DUP2 DUP4 SUB SUB DUP2 MSTORE SWAP1 PUSH1 0x40 MSTORE DUP1 MLOAD SWAP1 PUSH1 0x20 ADD KECCAK256 SWAP1 POP PUSH0 PUSH2 0x5FF DUP4 DUP9 DUP9 PUSH2 0x122C JUMP JUMPDEST SWAP1 POP PUSH0 PUSH0 DUP7 PUSH8 0xFFFFFFFFFFFFFFFF DUP2 GT ISZERO PUSH2 0x61D JUMPI PUSH2 0x61C PUSH2 0x1842 JUMP JUMPDEST JUMPDEST PUSH1 0x40 MLOAD SWAP1 DUP1 DUP3 MSTORE DUP1 PUSH1 0x20 MUL PUSH1 0x20 ADD DUP3 ADD PUSH1 0x40 MSTORE DUP1 ISZERO PUSH2 0x656 JUMPI DUP2 PUSH1 0x20 ADD JUMPDEST PUSH2 0x643 PUSH2 0x1797 JUMP JUMPDEST DUP2 MSTORE PUSH1 0x20 ADD SWAP1 PUSH1 0x1 SWAP1 SUB SWAP1 DUP2 PUSH2 0x63B JUMPI SWAP1 POP JUMPDEST POP SWAP1 POP PUSH0 PUSH0 SWAP1 POP JUMPDEST DUP4 MLOAD DUP2 LT ISZERO PUSH2 0x953 JUMPI PUSH0 PUSH0 PUSH0 DUP8 DUP2 MSTORE PUSH1 0x20 ADD SWAP1 DUP2 MSTORE PUSH1 0x20 ADD PUSH0 KECCAK256 PUSH0 DUP9 PUSH1 0xF DUP2 GT ISZERO PUSH2 0x68C JUMPI PUSH2 0x68B PUSH2 0x224A JUMP JUMPDEST JUMPDEST PUSH1 0xF DUP2 GT ISZERO PUSH2 0x69E JUMPI PUSH2 0x69D PUSH2 0x224A JUMP JUMPDEST JUMPDEST DUP2 MSTORE PUSH1 0x20 ADD SWAP1 DUP2 MSTORE PUSH1 0x20 ADD PUSH0 KECCAK256 PUSH0 DUP7 DUP5 DUP2 MLOAD DUP2 LT PUSH2 0x6BF JUMPI PUSH2 0x6BE PUSH2 0x28F2 JUMP JUMPDEST JUMPDEST PUSH1 0x20 MUL PUSH1 0x20 ADD ADD MLOAD PUSH8 0xFFFFFFFFFFFFFFFF AND PUSH8 0xFFFFFFFFFFFFFFFF AND DUP2 MSTORE PUSH1 0x20 ADD SWAP1 DUP2 MSTORE PUSH1 0x20 ADD PUSH0 KECCAK256 PUSH0 SWAP1 SLOAD SWAP1 PUSH2 0x100 EXP SWAP1 DIV PUSH20 0xFFFFFFFFFFFFFFFFFFFFFFFFFFFFFFFFFFFFFFFF AND SWAP1 POP PUSH0 PUSH20 0xFFFFFFFFFFFFFFFFFFFFFFFFFFFFFFFFFFFFFFFF AND DUP2 PUSH20 0xFFFFFFFFFFFFFFFFFFFFFFFFFFFFFFFFFFFFFFFF AND SUB PUSH2 0x743 JUMPI POP PUSH2 0x946 JUMP JUMPDEST PUSH2 0x7A6 PUSH1 0x40 MLOAD DUP1 PUSH1 0x40 ADD PUSH1 0x40 MSTORE DUP1 PUSH1 0x6 DUP2 MSTORE PUSH1 0x20 ADD PUSH32 0x54696D653A200000000000000000000000000000000000000000000000000000 DUP2 MSTORE POP DUP7 DUP5 DUP2 MLOAD DUP2 LT PUSH2 0x78F JUMPI PUSH2 0x78E PUSH2 0x28F2 JUMP JUMPDEST JUMPDEST PUSH1 0x20 MUL PUSH1 0x20 ADD ADD MLOAD PUSH8 0xFFFFFFFFFFFFFFFF AND PUSH2 0x16AA JUMP JUMPDEST PUSH0 DUP2 PUSH20 0xFFFFFFFFFFFFFFFFFFFFFFFFFFFFFFFFFFFFFFFF AND PUSH4 0xEA6C8353 PUSH1 0x40 MLOAD DUP2 PUSH4 0xFFFFFFFF AND PUSH1 0xE0 SHL DUP2 MSTORE PUSH1 0x4 ADD PUSH0 PUSH1 0x40 MLOAD DUP1 DUP4 SUB DUP2 DUP7 GAS STATICCALL ISZERO DUP1 ISZERO PUSH2 0x7EF JUMPI RETURNDATASIZE PUSH0 PUSH0 RETURNDATACOPY RETURNDATASIZE PUSH0 REVERT JUMPDEST POP POP POP POP PUSH1 0x40 MLOAD RETURNDATASIZE PUSH0 DUP3 RETURNDATACOPY RETURNDATASIZE PUSH1 0x1F NOT PUSH1 0x1F DUP3 ADD AND DUP3 ADD DUP1 PUSH1 0x40 MSTORE POP DUP2 ADD SWAP1 PUSH2 0x817 SWAP2 SWAP1 PUSH2 0x26B9 JUMP JUMPDEST SWAP1 POP PUSH0 DUP2 MLOAD SWAP1 POP JUMPDEST PUSH0 DUP2 GT ISZERO PUSH2 0x934 JUMPI PUSH0 DUP3 PUSH1 0x1 DUP4 PUSH2 0x836 SWAP2 SWAP1 PUSH2 0x294C JUMP JUMPDEST DUP2 MLOAD DUP2 LT PUSH2 0x847 JUMPI PUSH2 0x846 PUSH2 0x28F2 JUMP JUMPDEST JUMPDEST PUSH1 0x20 MUL PUSH1 0x20 ADD ADD MLOAD SWAP1 POP DUP14 PUSH8 0xFFFFFFFFFFFFFFFF AND DUP2 PUSH0 ADD MLOAD PUSH8 0xFFFFFFFFFFFFFFFF AND LT ISZERO PUSH2 0x876 JUMPI POP PUSH2 0x921 JUMP JUMPDEST DUP13 PUSH8 0xFFFFFFFFFFFFFFFF AND DUP2 PUSH0 ADD MLOAD PUSH8 0xFFFFFFFFFFFFFFFF AND GT ISZERO PUSH2 0x89B JUMPI POP PUSH2 0x921 JUMP JUMPDEST DUP1 DUP7 DUP9 DUP1 PUSH2 0x8A8 SWAP1 PUSH2 0x297F JUMP JUMPDEST SWAP10 POP DUP2 MLOAD DUP2 LT PUSH2 0x8BB JUMPI PUSH2 0x8BA PUSH2 0x28F2 JUMP JUMPDEST JUMPDEST PUSH1 0x20 MUL PUSH1 0x20 ADD ADD DUP2 SWAP1 MSTORE POP PUSH2 0x912 PUSH1 0x40 MLOAD DUP1 PUSH1 0x40 ADD PUSH1 0x40 MSTORE DUP1 PUSH1 0xA DUP2 MSTORE PUSH1 0x20 ADD PUSH32 0x656C656D2074696D653A00000000000000000000000000000000000000000000 DUP2 MSTORE POP DUP3 PUSH0 ADD MLOAD PUSH8 0xFFFFFFFFFFFFFFFF AND PUSH2 0x16AA JUMP JUMPDEST DUP12 DUP8 SUB PUSH2 0x91F JUMPI POP PUSH2 0x934 JUMP JUMPDEST POP JUMPDEST DUP1 DUP1 PUSH2 0x92C SWAP1 PUSH2 0x29C6 JUMP JUMPDEST SWAP2 POP POP PUSH2 0x81F JUMP JUMPDEST POP DUP10 DUP6 SUB PUSH2 0x943 JUMPI POP POP PUSH2 0x953 JUMP JUMPDEST POP POP JUMPDEST DUP1 DUP1 PUSH1 0x1 ADD SWAP2 POP POP PUSH2 0x65E JUMP JUMPDEST POP DUP2 PUSH8 0xFFFFFFFFFFFFFFFF DUP2 GT ISZERO PUSH2 0x96E JUMPI PUSH2 0x96D PUSH2 0x1842 JUMP JUMPDEST JUMPDEST PUSH1 0x40 MLOAD SWAP1 DUP1 DUP3 MSTORE DUP1 PUSH1 0x20 MUL PUSH1 0x20 ADD DUP3 ADD PUSH1 0x40 MSTORE DUP1 ISZERO PUSH2 0x9A7 JUMPI DUP2 PUSH1 0x20 ADD JUMPDEST PUSH2 0x994 PUSH2 0x1797 JUMP JUMPDEST DUP2 MSTORE PUSH1 0x20 ADD SWAP1 PUSH1 0x1 SWAP1 SUB SWAP1 DUP2 PUSH2 0x98C JUMPI SWAP1 POP JUMPDEST POP SWAP6 POP PUSH0 DUP3 SWAP1 POP JUMPDEST PUSH0 DUP2 GT ISZERO PUSH2 0xA1A JUMPI DUP2 PUSH1 0x1 DUP3 PUSH2 0x9C5 SWAP2 SWAP1 PUSH2 0x294C JUMP JUMPDEST DUP2 MLOAD DUP2 LT PUSH2 0x9D6 JUMPI PUSH2 0x9D5 PUSH2 0x28F2 JUMP JUMPDEST JUMPDEST PUSH1 0x20 MUL PUSH1 0x20 ADD ADD MLOAD DUP8 DUP3 DUP6 PUSH2 0x9EB SWAP2 SWAP1 PUSH2 0x294C JUMP JUMPDEST DUP2 MLOAD DUP2 LT PUSH2 0x9FC JUMPI PUSH2 0x9FB PUSH2 0x28F2 JUMP JUMPDEST JUMPDEST PUSH1 0x20 MUL PUSH1 0x20 ADD ADD DUP2 SWAP1 MSTORE POP DUP1 DUP1 PUSH2 0xA12 SWAP1 PUSH2 0x29C6 JUMP JUMPDEST SWAP2 POP POP PUSH2 0x9AF JUMP JUMPDEST POP POP POP POP POP POP SWAP6 SWAP5 POP POP POP POP POP JUMP JUMPDEST PUSH0 PUSH0 PUSH1 0xF DUP2 GT ISZERO PUSH2 0xA3D JUMPI PUSH2 0xA3C PUSH2 0x224A JUMP JUMPDEST JUMPDEST DUP4 PUSH1 0xF DUP2 GT ISZERO PUSH2 0xA50 JUMPI PUSH2 0xA4F PUSH2 0x224A JUMP JUMPDEST JUMPDEST SUB PUSH2 0xA76 JUMPI PUSH3 0x36EE80 DUP1 DUP4 PUSH2 0xA65 SWAP2 SWAP1 PUSH2 0x2A1A JUMP JUMPDEST PUSH2 0xA6F SWAP2 SWAP1 PUSH2 0x2A4A JUMP JUMPDEST SWAP1 POP PUSH2 0xE13 JUMP JUMPDEST PUSH1 0x1 PUSH1 0xF DUP2 GT ISZERO PUSH2 0xA8A JUMPI PUSH2 0xA89 PUSH2 0x224A JUMP JUMPDEST JUMPDEST DUP4 PUSH1 0xF DUP2 GT ISZERO PUSH2 0xA9D JUMPI PUSH2 0xA9C PUSH2 0x224A JUMP JUMPDEST JUMPDEST EQ DUP1 PUSH2 0xACD JUMPI POP PUSH1 0x2 PUSH1 0xF DUP2 GT ISZERO PUSH2 0xAB8 JUMPI PUSH2 0xAB7 PUSH2 0x224A JUMP JUMPDEST JUMPDEST DUP4 PUSH1 0xF DUP2 GT ISZERO PUSH2 0xACB JUMPI PUSH2 0xACA PUSH2 0x224A JUMP JUMPDEST JUMPDEST EQ JUMPDEST DUP1 PUSH2 0xAFC JUMPI POP PUSH1 0x3 PUSH1 0xF DUP2 GT ISZERO PUSH2 0xAE7 JUMPI PUSH2 0xAE6 PUSH2 0x224A JUMP JUMPDEST JUMPDEST DUP4 PUSH1 0xF DUP2 GT ISZERO PUSH2 0xAFA JUMPI PUSH2 0xAF9 PUSH2 0x224A JUMP JUMPDEST JUMPDEST EQ JUMPDEST ISZERO PUSH2 0xB23 JUMPI PUSH4 0x5265C00 DUP1 DUP4 PUSH2 0xB12 SWAP2 SWAP1 PUSH2 0x2A1A JUMP JUMPDEST PUSH2 0xB1C SWAP2 SWAP1 PUSH2 0x2A4A JUMP JUMPDEST SWAP1 POP PUSH2 0xE13 JUMP JUMPDEST PUSH1 0x4 PUSH1 0xF DUP2 GT ISZERO PUSH2 0xB37 JUMPI PUSH2 0xB36 PUSH2 0x224A JUMP JUMPDEST JUMPDEST DUP4 PUSH1 0xF DUP2 GT ISZERO PUSH2 0xB4A JUMPI PUSH2 0xB49 PUSH2 0x224A JUMP JUMPDEST JUMPDEST EQ DUP1 PUSH2 0xB7A JUMPI POP PUSH1 0x5 PUSH1 0xF DUP2 GT ISZERO PUSH2 0xB65 JUMPI PUSH2 0xB64 PUSH2 0x224A JUMP JUMPDEST JUMPDEST DUP4 PUSH1 0xF DUP2 GT ISZERO PUSH2 0xB78 JUMPI PUSH2 0xB77 PUSH2 0x224A JUMP JUMPDEST JUMPDEST EQ JUMPDEST DUP1 PUSH2 0xBA9 JUMPI POP PUSH1 0x6 PUSH1 0xF DUP2 GT ISZERO PUSH2 0xB94 JUMPI PUSH2 0xB93 PUSH2 0x224A JUMP JUMPDEST JUMPDEST DUP4 PUSH1 0xF DUP2 GT ISZERO PUSH2 0xBA7 JUMPI PUSH2 0xBA6 PUSH2 0x224A JUMP JUMPDEST JUMPDEST EQ JUMPDEST DUP1 PUSH2 0xBD8 JUMPI POP PUSH1 0x7 PUSH1 0xF DUP2 GT ISZERO PUSH2 0xBC3 JUMPI PUSH2 0xBC2 PUSH2 0x224A JUMP JUMPDEST JUMPDEST DUP4 PUSH1 0xF DUP2 GT ISZERO PUSH2 0xBD6 JUMPI PUSH2 0xBD5 PUSH2 0x224A JUMP JUMPDEST JUMPDEST EQ JUMPDEST ISZERO PUSH2 0xBFF JUMPI PUSH4 0x240C8400 DUP1 DUP4 PUSH2 0xBEE SWAP2 SWAP1 PUSH2 0x2A1A JUMP JUMPDEST PUSH2 0xBF8 SWAP2 SWAP1 PUSH2 0x2A4A JUMP JUMPDEST SWAP1 POP PUSH2 0xE13 JUMP JUMPDEST PUSH1 0x8 PUSH1 0xF DUP2 GT ISZERO PUSH2 0xC13 JUMPI PUSH2 0xC12 PUSH2 0x224A JUMP JUMPDEST JUMPDEST DUP4 PUSH1 0xF DUP2 GT ISZERO PUSH2 0xC26 JUMPI PUSH2 0xC25 PUSH2 0x224A JUMP JUMPDEST JUMPDEST EQ DUP1 PUSH2 0xC56 JUMPI POP PUSH1 0x9 PUSH1 0xF DUP2 GT ISZERO PUSH2 0xC41 JUMPI PUSH2 0xC40 PUSH2 0x224A JUMP JUMPDEST JUMPDEST DUP4 PUSH1 0xF DUP2 GT ISZERO PUSH2 0xC54 JUMPI PUSH2 0xC53 PUSH2 0x224A JUMP JUMPDEST JUMPDEST EQ JUMPDEST DUP1 PUSH2 0xC85 JUMPI POP PUSH1 0xA PUSH1 0xF DUP2 GT ISZERO PUSH2 0xC70 JUMPI PUSH2 0xC6F PUSH2 0x224A JUMP JUMPDEST JUMPDEST DUP4 PUSH1 0xF DUP2 GT ISZERO PUSH2 0xC83 JUMPI PUSH2 0xC82 PUSH2 0x224A JUMP JUMPDEST JUMPDEST EQ JUMPDEST DUP1 PUSH2 0xCB4 JUMPI POP PUSH1 0xB PUSH1 0xF DUP2 GT ISZERO PUSH2 0xC9F JUMPI PUSH2 0xC9E PUSH2 0x224A JUMP JUMPDEST JUMPDEST DUP4 PUSH1 0xF DUP2 GT ISZERO PUSH2 0xCB2 JUMPI PUSH2 0xCB1 PUSH2 0x224A JUMP JUMPDEST JUMPDEST EQ JUMPDEST ISZERO PUSH2 0xCDB JUMPI PUSH4 0x9A7EC800 DUP1 DUP4 PUSH2 0xCCA SWAP2 SWAP1 PUSH2 0x2A1A JUMP JUMPDEST PUSH2 0xCD4 SWAP2 SWAP1 PUSH2 0x2A4A JUMP JUMPDEST SWAP1 POP PUSH2 0xE13 JUMP JUMPDEST PUSH1 0xC PUSH1 0xF DUP2 GT ISZERO PUSH2 0xCEF JUMPI PUSH2 0xCEE PUSH2 0x224A JUMP JUMPDEST JUMPDEST DUP4 PUSH1 0xF DUP2 GT ISZERO PUSH2 0xD02 JUMPI PUSH2 0xD01 PUSH2 0x224A JUMP JUMPDEST JUMPDEST EQ DUP1 PUSH2 0xD32 JUMPI POP PUSH1 0xD PUSH1 0xF DUP2 GT ISZERO PUSH2 0xD1D JUMPI PUSH2 0xD1C PUSH2 0x224A JUMP JUMPDEST JUMPDEST DUP4 PUSH1 0xF DUP2 GT ISZERO PUSH2 0xD30 JUMPI PUSH2 0xD2F PUSH2 0x224A JUMP JUMPDEST JUMPDEST EQ JUMPDEST ISZERO PUSH2 0xD5A JUMPI PUSH5 0x1CF7C5800 DUP1 DUP4 PUSH2 0xD49 SWAP2 SWAP1 PUSH2 0x2A1A JUMP JUMPDEST PUSH2 0xD53 SWAP2 SWAP1 PUSH2 0x2A4A JUMP JUMPDEST SWAP1 POP PUSH2 0xE13 JUMP JUMPDEST PUSH1 0xE PUSH1 0xF DUP2 GT ISZERO PUSH2 0xD6E JUMPI PUSH2 0xD6D PUSH2 0x224A JUMP JUMPDEST JUMPDEST DUP4 PUSH1 0xF DUP2 GT ISZERO PUSH2 0xD81 JUMPI PUSH2 0xD80 PUSH2 0x224A JUMP JUMPDEST JUMPDEST EQ DUP1 PUSH2 0xDB0 JUMPI POP PUSH1 0xF DUP1 DUP2 GT ISZERO PUSH2 0xD9B JUMPI PUSH2 0xD9A PUSH2 0x224A JUMP JUMPDEST JUMPDEST DUP4 PUSH1 0xF DUP2 GT ISZERO PUSH2 0xDAE JUMPI PUSH2 0xDAD PUSH2 0x224A JUMP JUMPDEST JUMPDEST EQ JUMPDEST ISZERO PUSH2 0xDD8 JUMPI PUSH5 0x757B12C00 DUP1 DUP4 PUSH2 0xDC7 SWAP2 SWAP1 PUSH2 0x2A1A JUMP JUMPDEST PUSH2 0xDD1 SWAP2 SWAP1 PUSH2 0x2A4A JUMP JUMPDEST SWAP1 POP PUSH2 0xE13 JUMP JUMPDEST PUSH1 0x40 MLOAD PUSH32 0x8C379A000000000000000000000000000000000000000000000000000000000 DUP2 MSTORE PUSH1 0x4 ADD PUSH2 0xE0A SWAP1 PUSH2 0x2AD0 JUMP JUMPDEST PUSH1 0x40 MLOAD DUP1 SWAP2 SUB SWAP1 REVERT JUMPDEST SWAP3 SWAP2 POP POP JUMP JUMPDEST PUSH0 PUSH0 DUP3 PUSH1 0x40 MLOAD PUSH1 0x20 ADD PUSH2 0xE2C SWAP2 SWAP1 PUSH2 0x2310 JUMP JUMPDEST PUSH1 0x40 MLOAD PUSH1 0x20 DUP2 DUP4 SUB SUB DUP2 MSTORE SWAP1 PUSH1 0x40 MSTORE DUP1 MLOAD SWAP1 PUSH1 0x20 ADD KECCAK256 SWAP1 POP PUSH32 0x6C9308EEEB72AAC61C6EE2086645EC6CF6638D86D97AF7B81BCF4073F3B95DBC DUP2 SUB PUSH2 0xE74 JUMPI PUSH0 SWAP2 POP POP PUSH2 0x118E JUMP JUMPDEST PUSH32 0x523A5C8A0F83A86997A616B324AE897D2FB6B3F5F68B3969331C12E0F00F9F25 DUP2 SUB PUSH2 0xEA5 JUMPI PUSH1 0x1 SWAP2 POP POP PUSH2 0x118E JUMP JUMPDEST PUSH32 0x2A3FF2DFA7BD33B0E77D014065236A2F104B389B776645FDDB9E6A09EEA01441 DUP2 SUB PUSH2 0xED6 JUMPI PUSH1 0x2 SWAP2 POP POP PUSH2 0x118E JUMP JUMPDEST PUSH32 0xFCA740C51A7536A1FF8F65314E26B24CEE265D7626AD2E39318898F3D501AC22 DUP2 SUB PUSH2 0xF07 JUMPI PUSH1 0x3 SWAP2 POP POP PUSH2 0x118E JUMP JUMPDEST PUSH32 0x53CAD56A766A794BDC4FD49B262CD08FADF5C823F208FBF3F4EFB377C206EAAA DUP2 SUB PUSH2 0xF38 JUMPI PUSH1 0x4 SWAP2 POP POP PUSH2 0x118E JUMP JUMPDEST PUSH32 0xE99007FD2E286840683BFBAC2C1EA22A3B3C1592D603A9AE9AEE29CF77E941A7 DUP2 SUB PUSH2 0xF69 JUMPI PUSH1 0x5 SWAP2 POP POP PUSH2 0x118E JUMP JUMPDEST PUSH32 0x1125479F824FC31D0CE674B130E57A9DCFDF2D344CA1EF3FC8BF5BD50F9FCCA9 DUP2 SUB PUSH2 0xF9A JUMPI PUSH1 0x6 SWAP2 POP POP PUSH2 0x118E JUMP JUMPDEST PUSH32 0xA50F424F123435E4689C6436CE338980297CA65F2EE6B69A216F0561EE6CF400 DUP2 SUB PUSH2 0xFCB JUMPI PUSH1 0x7 SWAP2 POP POP PUSH2 0x118E JUMP JUMPDEST PUSH32 0x9A433CC5A6AEE766B1BCE0A7DC72AB7B4FD031108E0C5AFEA91382F1B1955FC9 DUP2 SUB PUSH2 0xFFC JUMPI PUSH1 0x8 SWAP2 POP POP PUSH2 0x118E JUMP JUMPDEST PUSH32 0xA0B83CFA5501E126AC29F6BF7A07BD17E2D97916947EED361748E8E0AB0ABA4D DUP2 SUB PUSH2 0x102D JUMPI PUSH1 0x9 SWAP2 POP POP PUSH2 0x118E JUMP JUMPDEST PUSH32 0xE21CCD2715134877C589435A9C98DEB14540FDF9E902AFEBF2163FE393E9C073 DUP2 SUB PUSH2 0x105E JUMPI PUSH1 0xA SWAP2 POP POP PUSH2 0x118E JUMP JUMPDEST PUSH32 0x11108661A127316F8F74DC39A66520C8EC16719ED867EE768AF67729BA3EC1D2 DUP2 SUB PUSH2 0x108F JUMPI PUSH1 0xB SWAP2 POP POP PUSH2 0x118E JUMP JUMPDEST PUSH32 0x7B2E5637DE8D5670BD5BE523FBCCC1DFEF88F0767EB2ABF5AC4A81DA61AE2002 DUP2 SUB PUSH2 0x10C0 JUMPI PUSH1 0xC SWAP2 POP POP PUSH2 0x118E JUMP JUMPDEST PUSH32 0x1CEF0646E7FE7CB478D3A93D2E07774697C9239D0EE8B4294B768C91AF329E66 DUP2 SUB PUSH2 0x10F1 JUMPI PUSH1 0xD SWAP2 POP POP PUSH2 0x118E JUMP JUMPDEST PUSH32 0x7CD5BA658B5DFF64585BFCB0DF7983749825E2292A4FF6DAF96207E6EB100FE7 DUP2 SUB PUSH2 0x1122 JUMPI PUSH1 0xE SWAP2 POP POP PUSH2 0x118E JUMP JUMPDEST PUSH32 0xA390D73D5FD5E6A577D394328E26CE85589C6D8C382FBA9150FB136BBBF31FF7 DUP2 SUB PUSH2 0x1153 JUMPI PUSH1 0xF SWAP2 POP POP PUSH2 0x118E JUMP JUMPDEST PUSH1 0x40 MLOAD PUSH32 0x8C379A000000000000000000000000000000000000000000000000000000000 DUP2 MSTORE PUSH1 0x4 ADD PUSH2 0x1185 SWAP1 PUSH2 0x2B38 JUMP JUMPDEST PUSH1 0x40 MLOAD DUP1 SWAP2 SUB SWAP1 REVERT JUMPDEST SWAP2 SWAP1 POP JUMP JUMPDEST PUSH2 0x1229 DUP2 PUSH1 0x40 MLOAD PUSH1 0x24 ADD PUSH2 0x11A7 SWAP2 SWAP1 PUSH2 0x2B56 JUMP JUMPDEST PUSH1 0x40 MLOAD PUSH1 0x20 DUP2 DUP4 SUB SUB DUP2 MSTORE SWAP1 PUSH1 0x40 MSTORE PUSH32 0x41304FAC00000000000000000000000000000000000000000000000000000000 PUSH28 0xFFFFFFFFFFFFFFFFFFFFFFFFFFFFFFFFFFFFFFFFFFFFFFFFFFFFFFFF NOT AND PUSH1 0x20 DUP3 ADD DUP1 MLOAD PUSH28 0xFFFFFFFFFFFFFFFFFFFFFFFFFFFFFFFFFFFFFFFFFFFFFFFFFFFFFFFF DUP4 DUP2 DUP4 AND OR DUP4 MSTORE POP POP POP POP PUSH2 0x1746 JUMP JUMPDEST POP JUMP JUMPDEST PUSH1 0x60 PUSH0 PUSH0 PUSH1 0xF DUP2 GT ISZERO PUSH2 0x1242 JUMPI PUSH2 0x1241 PUSH2 0x224A JUMP JUMPDEST JUMPDEST DUP6 PUSH1 0xF DUP2 GT ISZERO PUSH2 0x1255 JUMPI PUSH2 0x1254 PUSH2 0x224A JUMP JUMPDEST JUMPDEST SUB PUSH2 0x1265 JUMPI PUSH3 0x36EE80 SWAP1 POP PUSH2 0x1599 JUMP JUMPDEST PUSH1 0x1 PUSH1 0xF DUP2 GT ISZERO PUSH2 0x1279 JUMPI PUSH2 0x1278 PUSH2 0x224A JUMP JUMPDEST JUMPDEST DUP6 PUSH1 0xF DUP2 GT ISZERO PUSH2 0x128C JUMPI PUSH2 0x128B PUSH2 0x224A JUMP JUMPDEST JUMPDEST EQ DUP1 PUSH2 0x12BC JUMPI POP PUSH1 0x2 PUSH1 0xF DUP2 GT ISZERO PUSH2 0x12A7 JUMPI PUSH2 0x12A6 PUSH2 0x224A JUMP JUMPDEST JUMPDEST DUP6 PUSH1 0xF DUP2 GT ISZERO PUSH2 0x12BA JUMPI PUSH2 0x12B9 PUSH2 0x224A JUMP JUMPDEST JUMPDEST EQ JUMPDEST DUP1 PUSH2 0x12EB JUMPI POP PUSH1 0x3 PUSH1 0xF DUP2 GT ISZERO PUSH2 0x12D6 JUMPI PUSH2 0x12D5 PUSH2 0x224A JUMP JUMPDEST JUMPDEST DUP6 PUSH1 0xF DUP2 GT ISZERO PUSH2 0x12E9 JUMPI PUSH2 0x12E8 PUSH2 0x224A JUMP JUMPDEST JUMPDEST EQ JUMPDEST ISZERO PUSH2 0x12FC JUMPI PUSH4 0x5265C00 SWAP1 POP PUSH2 0x1598 JUMP JUMPDEST PUSH1 0x4 PUSH1 0xF DUP2 GT ISZERO PUSH2 0x1310 JUMPI PUSH2 0x130F PUSH2 0x224A JUMP JUMPDEST JUMPDEST DUP6 PUSH1 0xF DUP2 GT ISZERO PUSH2 0x1323 JUMPI PUSH2 0x1322 PUSH2 0x224A JUMP JUMPDEST JUMPDEST EQ DUP1 PUSH2 0x1353 JUMPI POP PUSH1 0x5 PUSH1 0xF DUP2 GT ISZERO PUSH2 0x133E JUMPI PUSH2 0x133D PUSH2 0x224A JUMP JUMPDEST JUMPDEST DUP6 PUSH1 0xF DUP2 GT ISZERO PUSH2 0x1351 JUMPI PUSH2 0x1350 PUSH2 0x224A JUMP JUMPDEST JUMPDEST EQ JUMPDEST DUP1 PUSH2 0x1382 JUMPI POP PUSH1 0x6 PUSH1 0xF DUP2 GT ISZERO PUSH2 0x136D JUMPI PUSH2 0x136C PUSH2 0x224A JUMP JUMPDEST JUMPDEST DUP6 PUSH1 0xF DUP2 GT ISZERO PUSH2 0x1380 JUMPI PUSH2 0x137F PUSH2 0x224A JUMP JUMPDEST JUMPDEST EQ JUMPDEST DUP1 PUSH2 0x13B1 JUMPI POP PUSH1 0x7 PUSH1 0xF DUP2 GT ISZERO PUSH2 0x139C JUMPI PUSH2 0x139B PUSH2 0x224A JUMP JUMPDEST JUMPDEST DUP6 PUSH1 0xF DUP2 GT ISZERO PUSH2 0x13AF JUMPI PUSH2 0x13AE PUSH2 0x224A JUMP JUMPDEST JUMPDEST EQ JUMPDEST ISZERO PUSH2 0x13C2 JUMPI PUSH4 0x240C8400 SWAP1 POP PUSH2 0x1597 JUMP JUMPDEST PUSH1 0x8 PUSH1 0xF DUP2 GT ISZERO PUSH2 0x13D6 JUMPI PUSH2 0x13D5 PUSH2 0x224A JUMP JUMPDEST JUMPDEST DUP6 PUSH1 0xF DUP2 GT ISZERO PUSH2 0x13E9 JUMPI PUSH2 0x13E8 PUSH2 0x224A JUMP JUMPDEST JUMPDEST EQ DUP1 PUSH2 0x1419 JUMPI POP PUSH1 0x9 PUSH1 0xF DUP2 GT ISZERO PUSH2 0x1404 JUMPI PUSH2 0x1403 PUSH2 0x224A JUMP JUMPDEST JUMPDEST DUP6 PUSH1 0xF DUP2 GT ISZERO PUSH2 0x1417 JUMPI PUSH2 0x1416 PUSH2 0x224A JUMP JUMPDEST JUMPDEST EQ JUMPDEST DUP1 PUSH2 0x1448 JUMPI POP PUSH1 0xA PUSH1 0xF DUP2 GT ISZERO PUSH2 0x1433 JUMPI PUSH2 0x1432 PUSH2 0x224A JUMP JUMPDEST JUMPDEST DUP6 PUSH1 0xF DUP2 GT ISZERO PUSH2 0x1446 JUMPI PUSH2 0x1445 PUSH2 0x224A JUMP JUMPDEST JUMPDEST EQ JUMPDEST DUP1 PUSH2 0x1477 JUMPI POP PUSH1 0xB PUSH1 0xF DUP2 GT ISZERO PUSH2 0x1462 JUMPI PUSH2 0x1461 PUSH2 0x224A JUMP JUMPDEST JUMPDEST DUP6 PUSH1 0xF DUP2 GT ISZERO PUSH2 0x1475 JUMPI PUSH2 0x1474 PUSH2 0x224A JUMP JUMPDEST JUMPDEST EQ JUMPDEST ISZERO PUSH2 0x1488 JUMPI PUSH4 0x9A7EC800 SWAP1 POP PUSH2 0x1596 JUMP JUMPDEST PUSH1 0xC PUSH1 0xF DUP2 GT ISZERO PUSH2 0x149C JUMPI PUSH2 0x149B PUSH2 0x224A JUMP JUMPDEST JUMPDEST DUP6 PUSH1 0xF DUP2 GT ISZERO PUSH2 0x14AF JUMPI PUSH2 0x14AE PUSH2 0x224A JUMP JUMPDEST JUMPDEST EQ DUP1 PUSH2 0x14DF JUMPI POP PUSH1 0xD PUSH1 0xF DUP2 GT ISZERO PUSH2 0x14CA JUMPI PUSH2 0x14C9 PUSH2 0x224A JUMP JUMPDEST JUMPDEST DUP6 PUSH1 0xF DUP2 GT ISZERO PUSH2 0x14DD JUMPI PUSH2 0x14DC PUSH2 0x224A JUMP JUMPDEST JUMPDEST EQ JUMPDEST ISZERO PUSH2 0x14F1 JUMPI PUSH5 0x1CF7C5800 SWAP1 POP PUSH2 0x1595 JUMP JUMPDEST PUSH1 0xE PUSH1 0xF DUP2 GT ISZERO PUSH2 0x1505 JUMPI PUSH2 0x1504 PUSH2 0x224A JUMP JUMPDEST JUMPDEST DUP6 PUSH1 0xF DUP2 GT ISZERO PUSH2 0x1518 JUMPI PUSH2 0x1517 PUSH2 0x224A JUMP JUMPDEST JUMPDEST EQ DUP1 PUSH2 0x1547 JUMPI POP PUSH1 0xF DUP1 DUP2 GT ISZERO PUSH2 0x1532 JUMPI PUSH2 0x1531 PUSH2 0x224A JUMP JUMPDEST JUMPDEST DUP6 PUSH1 0xF DUP2 GT ISZERO PUSH2 0x1545 JUMPI PUSH2 0x1544 PUSH2 0x224A JUMP JUMPDEST JUMPDEST EQ JUMPDEST ISZERO PUSH2 0x1559 JUMPI PUSH5 0x757B12C00 SWAP1 POP PUSH2 0x1594 JUMP JUMPDEST PUSH1 0x40 MLOAD PUSH32 0x8C379A000000000000000000000000000000000000000000000000000000000 DUP2 MSTORE PUSH1 0x4 ADD PUSH2 0x158B SWAP1 PUSH2 0x2AD0 JUMP JUMPDEST PUSH1 0x40 MLOAD DUP1 SWAP2 SUB SWAP1 REVERT JUMPDEST JUMPDEST JUMPDEST JUMPDEST JUMPDEST JUMPDEST PUSH0 PUSH2 0x15A4 DUP7 DUP7 PUSH2 0xA29 JUMP JUMPDEST SWAP1 POP PUSH0 PUSH2 0x15B1 DUP8 DUP7 PUSH2 0xA29 JUMP JUMPDEST SWAP1 POP PUSH0 PUSH1 0x1 DUP5 DUP5 DUP5 PUSH2 0x15C3 SWAP2 SWAP1 PUSH2 0x2B76 JUMP JUMPDEST PUSH2 0x15CD SWAP2 SWAP1 PUSH2 0x2A1A JUMP JUMPDEST PUSH2 0x15D7 SWAP2 SWAP1 PUSH2 0x2BB1 JUMP JUMPDEST PUSH8 0xFFFFFFFFFFFFFFFF AND SWAP1 POP DUP1 PUSH8 0xFFFFFFFFFFFFFFFF DUP2 GT ISZERO PUSH2 0x15FD JUMPI PUSH2 0x15FC PUSH2 0x1842 JUMP JUMPDEST JUMPDEST PUSH1 0x40 MLOAD SWAP1 DUP1 DUP3 MSTORE DUP1 PUSH1 0x20 MUL PUSH1 0x20 ADD DUP3 ADD PUSH1 0x40 MSTORE DUP1 ISZERO PUSH2 0x162B JUMPI DUP2 PUSH1 0x20 ADD PUSH1 0x20 DUP3 MUL DUP1 CALLDATASIZE DUP4 CALLDATACOPY DUP1 DUP3 ADD SWAP2 POP POP SWAP1 POP JUMPDEST POP SWAP5 POP PUSH0 PUSH0 SWAP1 POP JUMPDEST DUP2 DUP2 LT ISZERO PUSH2 0x169E JUMPI DUP5 PUSH8 0xFFFFFFFFFFFFFFFF AND DUP2 PUSH2 0x1651 SWAP2 SWAP1 PUSH2 0x2BEC JUMP JUMPDEST DUP5 PUSH2 0x165C SWAP2 SWAP1 PUSH2 0x2BB1 JUMP JUMPDEST DUP7 DUP3 DUP2 MLOAD DUP2 LT PUSH2 0x166F JUMPI PUSH2 0x166E PUSH2 0x28F2 JUMP JUMPDEST JUMPDEST PUSH1 0x20 MUL PUSH1 0x20 ADD ADD SWAP1 PUSH8 0xFFFFFFFFFFFFFFFF AND SWAP1 DUP2 PUSH8 0xFFFFFFFFFFFFFFFF AND DUP2 MSTORE POP POP DUP1 DUP1 PUSH1 0x1 ADD SWAP2 POP POP PUSH2 0x1633 JUMP JUMPDEST POP POP POP POP POP SWAP4 SWAP3 POP POP POP JUMP JUMPDEST PUSH2 0x1742 DUP3 DUP3 PUSH1 0x40 MLOAD PUSH1 0x24 ADD PUSH2 0x16C0 SWAP3 SWAP2 SWAP1 PUSH2 0x2C3C JUMP JUMPDEST PUSH1 0x40 MLOAD PUSH1 0x20 DUP2 DUP4 SUB SUB DUP2 MSTORE SWAP1 PUSH1 0x40 MSTORE PUSH32 0xB60E72CC00000000000000000000000000000000000000000000000000000000 PUSH28 0xFFFFFFFFFFFFFFFFFFFFFFFFFFFFFFFFFFFFFFFFFFFFFFFFFFFFFFFF NOT AND PUSH1 0x20 DUP3 ADD DUP1 MLOAD PUSH28 0xFFFFFFFFFFFFFFFFFFFFFFFFFFFFFFFFFFFFFFFFFFFFFFFFFFFFFFFF DUP4 DUP2 DUP4 AND OR DUP4 MSTORE POP POP POP POP PUSH2 0x1746 JUMP JUMPDEST POP POP JUMP JUMPDEST PUSH2 0x175D DUP2 PUSH2 0x1755 PUSH2 0x1760 PUSH2 0x177F JUMP JUMPDEST PUSH4 0xFFFFFFFF AND JUMP JUMPDEST POP JUMP JUMPDEST PUSH0 PUSH11 0x636F6E736F6C652E6C6F67 SWAP1 POP PUSH0 PUSH0 DUP4 MLOAD PUSH1 0x20 DUP6 ADD DUP5 GAS STATICCALL POP POP POP JUMP JUMPDEST PUSH2 0x180F DUP2 SWAP1 POP SWAP2 SWAP1 POP JUMP JUMPDEST PUSH2 0x1B43 DUP1 PUSH2 0x2C98 DUP4 CODECOPY ADD SWAP1 JUMP JUMPDEST PUSH1 0x40 MLOAD DUP1 PUSH2 0x180 ADD PUSH1 0x40 MSTORE DUP1 PUSH0 PUSH8 0xFFFFFFFFFFFFFFFF AND DUP2 MSTORE PUSH1 0x20 ADD PUSH1 0x60 DUP2 MSTORE PUSH1 0x20 ADD PUSH1 0x60 DUP2 MSTORE PUSH1 0x20 ADD PUSH1 0x60 DUP2 MSTORE PUSH1 0x20 ADD PUSH1 0x60 DUP2 MSTORE PUSH1 0x20 ADD PUSH1 0x60 DUP2 MSTORE PUSH1 0x20 ADD PUSH0 PUSH8 0xFFFFFFFFFFFFFFFF AND DUP2 MSTORE PUSH1 0x20 ADD PUSH1 0x60 DUP2 MSTORE PUSH1 0x20 ADD PUSH0 PUSH4 0xFFFFFFFF AND DUP2 MSTORE PUSH1 0x20 ADD PUSH1 0x60 DUP2 MSTORE PUSH1 0x20 ADD PUSH1 0x60 DUP2 MSTORE PUSH1 0x20 ADD PUSH1 0x60 DUP2 MSTORE POP SWAP1 JUMP JUMPDEST PUSH2 0x1817 PUSH2 0x2C6A JUMP JUMPDEST JUMP JUMPDEST PUSH0 PUSH1 0x40 MLOAD SWAP1 POP SWAP1 JUMP JUMPDEST PUSH0 PUSH0 REVERT JUMPDEST PUSH0 PUSH0 REVERT JUMPDEST PUSH0 PUSH0 REVERT JUMPDEST PUSH0 PUSH0 REVERT JUMPDEST PUSH0 PUSH1 0x1F NOT PUSH1 0x1F DUP4 ADD AND SWAP1 POP SWAP2 SWAP1 POP JUMP JUMPDEST PUSH32 0x4E487B7100000000000000000000000000000000000000000000000000000000 PUSH0 MSTORE PUSH1 0x41 PUSH1 0x4 MSTORE PUSH1 0x24 PUSH0 REVERT JUMPDEST PUSH2 0x1878 DUP3 PUSH2 0x1832 JUMP JUMPDEST DUP2 ADD DUP2 DUP2 LT PUSH8 0xFFFFFFFFFFFFFFFF DUP3 GT OR ISZERO PUSH2 0x1897 JUMPI PUSH2 0x1896 PUSH2 0x1842 JUMP JUMPDEST JUMPDEST DUP1 PUSH1 0x40 MSTORE POP POP POP JUMP JUMPDEST PUSH0 PUSH2 0x18A9 PUSH2 0x1819 JUMP JUMPDEST SWAP1 POP PUSH2 0x18B5 DUP3 DUP3 PUSH2 0x186F JUMP JUMPDEST SWAP2 SWAP1 POP JUMP JUMPDEST PUSH0 PUSH8 0xFFFFFFFFFFFFFFFF DUP3 GT ISZERO PUSH2 0x18D4 JUMPI PUSH2 0x18D3 PUSH2 0x1842 JUMP JUMPDEST JUMPDEST PUSH2 0x18DD DUP3 PUSH2 0x1832 JUMP JUMPDEST SWAP1 POP PUSH1 0x20 DUP2 ADD SWAP1 POP SWAP2 SWAP1 POP JUMP JUMPDEST DUP3 DUP2 DUP4 CALLDATACOPY PUSH0 DUP4 DUP4 ADD MSTORE POP POP POP JUMP JUMPDEST PUSH0 PUSH2 0x190A PUSH2 0x1905 DUP5 PUSH2 0x18BA JUMP JUMPDEST PUSH2 0x18A0 JUMP JUMPDEST SWAP1 POP DUP3 DUP2 MSTORE PUSH1 0x20 DUP2 ADD DUP5 DUP5 DUP5 ADD GT ISZERO PUSH2 0x1926 JUMPI PUSH2 0x1925 PUSH2 0x182E JUMP JUMPDEST JUMPDEST PUSH2 0x1931 DUP5 DUP3 DUP6 PUSH2 0x18EA JUMP JUMPDEST POP SWAP4 SWAP3 POP POP POP JUMP JUMPDEST PUSH0 DUP3 PUSH1 0x1F DUP4 ADD SLT PUSH2 0x194D JUMPI PUSH2 0x194C PUSH2 0x182A JUMP JUMPDEST JUMPDEST DUP2 CALLDATALOAD PUSH2 0x195D DUP5 DUP3 PUSH1 0x20 DUP7 ADD PUSH2 0x18F8 JUMP JUMPDEST SWAP2 POP POP SWAP3 SWAP2 POP POP JUMP JUMPDEST PUSH0 PUSH8 0xFFFFFFFFFFFFFFFF DUP3 AND SWAP1 POP SWAP2 SWAP1 POP JUMP JUMPDEST PUSH2 0x1982 DUP2 PUSH2 0x1966 JUMP JUMPDEST DUP2 EQ PUSH2 0x198C JUMPI PUSH0 PUSH0 REVERT JUMPDEST POP JUMP JUMPDEST PUSH0 DUP2 CALLDATALOAD SWAP1 POP PUSH2 0x199D DUP2 PUSH2 0x1979 JUMP JUMPDEST SWAP3 SWAP2 POP POP JUMP JUMPDEST PUSH0 PUSH0 PUSH0 PUSH1 0x60 DUP5 DUP7 SUB SLT ISZERO PUSH2 0x19BA JUMPI PUSH2 0x19B9 PUSH2 0x1822 JUMP JUMPDEST JUMPDEST PUSH0 DUP5 ADD CALLDATALOAD PUSH8 0xFFFFFFFFFFFFFFFF DUP2 GT ISZERO PUSH2 0x19D7 JUMPI PUSH2 0x19D6 PUSH2 0x1826 JUMP JUMPDEST JUMPDEST PUSH2 0x19E3 DUP7 DUP3 DUP8 ADD PUSH2 0x1939 JUMP JUMPDEST SWAP4 POP POP PUSH1 0x20 DUP5 ADD CALLDATALOAD PUSH8 0xFFFFFFFFFFFFFFFF DUP2 GT ISZERO PUSH2 0x1A04 JUMPI PUSH2 0x1A03 PUSH2 0x1826 JUMP JUMPDEST JUMPDEST PUSH2 0x1A10 DUP7 DUP3 DUP8 ADD PUSH2 0x1939 JUMP JUMPDEST SWAP3 POP POP PUSH1 0x40 PUSH2 0x1A21 DUP7 DUP3 DUP8 ADD PUSH2 0x198F JUMP JUMPDEST SWAP2 POP POP SWAP3 POP SWAP3 POP SWAP3 JUMP JUMPDEST PUSH0 DUP2 MLOAD SWAP1 POP SWAP2 SWAP1 POP JUMP JUMPDEST PUSH0 DUP3 DUP3 MSTORE PUSH1 0x20 DUP3 ADD SWAP1 POP SWAP3 SWAP2 POP POP JUMP JUMPDEST PUSH0 DUP2 SWAP1 POP PUSH1 0x20 DUP3 ADD SWAP1 POP SWAP2 SWAP1 POP JUMP JUMPDEST PUSH2 0x1A5D DUP2 PUSH2 0x1966 JUMP JUMPDEST DUP3 MSTORE POP POP JUMP JUMPDEST PUSH0 DUP2 MLOAD SWAP1 POP SWAP2 SWAP1 POP JUMP JUMPDEST PUSH0 DUP3 DUP3 MSTORE PUSH1 0x20 DUP3 ADD SWAP1 POP SWAP3 SWAP2 POP POP JUMP JUMPDEST DUP3 DUP2 DUP4 MCOPY PUSH0 DUP4 DUP4 ADD MSTORE POP POP POP JUMP JUMPDEST PUSH0 PUSH2 0x1A95 DUP3 PUSH2 0x1A63 JUMP JUMPDEST PUSH2 0x1A9F DUP2 DUP6 PUSH2 0x1A6D JUMP JUMPDEST SWAP4 POP PUSH2 0x1AAF DUP2 DUP6 PUSH1 0x20 DUP7 ADD PUSH2 0x1A7D JUMP JUMPDEST PUSH2 0x1AB8 DUP2 PUSH2 0x1832 JUMP JUMPDEST DUP5 ADD SWAP2 POP POP SWAP3 SWAP2 POP POP JUMP JUMPDEST PUSH0 PUSH4 0xFFFFFFFF DUP3 AND SWAP1 POP SWAP2 SWAP1 POP JUMP JUMPDEST PUSH2 0x1ADB DUP2 PUSH2 0x1AC3 JUMP JUMPDEST DUP3 MSTORE POP POP JUMP JUMPDEST PUSH0 PUSH2 0x180 DUP4 ADD PUSH0 DUP4 ADD MLOAD PUSH2 0x1AF7 PUSH0 DUP7 ADD DUP3 PUSH2 0x1A54 JUMP JUMPDEST POP PUSH1 0x20 DUP4 ADD MLOAD DUP5 DUP3 SUB PUSH1 0x20 DUP7 ADD MSTORE PUSH2 0x1B0F DUP3 DUP3 PUSH2 0x1A8B JUMP JUMPDEST SWAP2 POP POP PUSH1 0x40 DUP4 ADD MLOAD DUP5 DUP3 SUB PUSH1 0x40 DUP7 ADD MSTORE PUSH2 0x1B29 DUP3 DUP3 PUSH2 0x1A8B JUMP JUMPDEST SWAP2 POP POP PUSH1 0x60 DUP4 ADD MLOAD DUP5 DUP3 SUB PUSH1 0x60 DUP7 ADD MSTORE PUSH2 0x1B43 DUP3 DUP3 PUSH2 0x1A8B JUMP JUMPDEST SWAP2 POP POP PUSH1 0x80 DUP4 ADD MLOAD DUP5 DUP3 SUB PUSH1 0x80 DUP7 ADD MSTORE PUSH2 0x1B5D DUP3 DUP3 PUSH2 0x1A8B JUMP JUMPDEST SWAP2 POP POP PUSH1 0xA0 DUP4 ADD MLOAD DUP5 DUP3 SUB PUSH1 0xA0 DUP7 ADD MSTORE PUSH2 0x1B77 DUP3 DUP3 PUSH2 0x1A8B JUMP JUMPDEST SWAP2 POP POP PUSH1 0xC0 DUP4 ADD MLOAD PUSH2 0x1B8C PUSH1 0xC0 DUP7 ADD DUP3 PUSH2 0x1A54 JUMP JUMPDEST POP PUSH1 0xE0 DUP4 ADD MLOAD DUP5 DUP3 SUB PUSH1 0xE0 DUP7 ADD MSTORE PUSH2 0x1BA4 DUP3 DUP3 PUSH2 0x1A8B JUMP JUMPDEST SWAP2 POP POP PUSH2 0x100 DUP4 ADD MLOAD PUSH2 0x1BBB PUSH2 0x100 DUP7 ADD DUP3 PUSH2 0x1AD2 JUMP JUMPDEST POP PUSH2 0x120 DUP4 ADD MLOAD DUP5 DUP3 SUB PUSH2 0x120 DUP7 ADD MSTORE PUSH2 0x1BD5 DUP3 DUP3 PUSH2 0x1A8B JUMP JUMPDEST SWAP2 POP POP PUSH2 0x140 DUP4 ADD MLOAD DUP5 DUP3 SUB PUSH2 0x140 DUP7 ADD MSTORE PUSH2 0x1BF1 DUP3 DUP3 PUSH2 0x1A8B JUMP JUMPDEST SWAP2 POP POP PUSH2 0x160 DUP4 ADD MLOAD DUP5 DUP3 SUB PUSH2 0x160 DUP7 ADD MSTORE PUSH2 0x1C0D DUP3 DUP3 PUSH2 0x1A8B JUMP JUMPDEST SWAP2 POP POP DUP1 SWAP2 POP POP SWAP3 SWAP2 POP POP JUMP JUMPDEST PUSH0 PUSH2 0x1C25 DUP4 DUP4 PUSH2 0x1AE1 JUMP JUMPDEST SWAP1 POP SWAP3 SWAP2 POP POP JUMP JUMPDEST PUSH0 PUSH1 0x20 DUP3 ADD SWAP1 POP SWAP2 SWAP1 POP JUMP JUMPDEST PUSH0 PUSH2 0x1C43 DUP3 PUSH2 0x1A2B JUMP JUMPDEST PUSH2 0x1C4D DUP2 DUP6 PUSH2 0x1A35 JUMP JUMPDEST SWAP4 POP DUP4 PUSH1 0x20 DUP3 MUL DUP6 ADD PUSH2 0x1C5F DUP6 PUSH2 0x1A45 JUMP JUMPDEST DUP1 PUSH0 JUMPDEST DUP6 DUP2 LT ISZERO PUSH2 0x1C9A JUMPI DUP5 DUP5 SUB DUP10 MSTORE DUP2 MLOAD PUSH2 0x1C7B DUP6 DUP3 PUSH2 0x1C1A JUMP JUMPDEST SWAP5 POP PUSH2 0x1C86 DUP4 PUSH2 0x1C2D JUMP JUMPDEST SWAP3 POP PUSH1 0x20 DUP11 ADD SWAP10 POP POP PUSH1 0x1 DUP2 ADD SWAP1 POP PUSH2 0x1C62 JUMP JUMPDEST POP DUP3 SWAP8 POP DUP8 SWAP6 POP POP POP POP POP POP SWAP3 SWAP2 POP POP JUMP JUMPDEST PUSH0 PUSH1 0x20 DUP3 ADD SWAP1 POP DUP2 DUP2 SUB PUSH0 DUP4 ADD MSTORE PUSH2 0x1CC4 DUP2 DUP5 PUSH2 0x1C39 JUMP JUMPDEST SWAP1 POP SWAP3 SWAP2 POP POP JUMP JUMPDEST PUSH0 PUSH0 REVERT JUMPDEST PUSH0 PUSH0 REVERT JUMPDEST PUSH2 0x1CDD DUP2 PUSH2 0x1AC3 JUMP JUMPDEST DUP2 EQ PUSH2 0x1CE7 JUMPI PUSH0 PUSH0 REVERT JUMPDEST POP JUMP JUMPDEST PUSH0 DUP2 CALLDATALOAD SWAP1 POP PUSH2 0x1CF8 DUP2 PUSH2 0x1CD4 JUMP JUMPDEST SWAP3 SWAP2 POP POP JUMP JUMPDEST PUSH0 PUSH2 0x180 DUP3 DUP5 SUB SLT ISZERO PUSH2 0x1D14 JUMPI PUSH2 0x1D13 PUSH2 0x1CCC JUMP JUMPDEST JUMPDEST PUSH2 0x1D1F PUSH2 0x180 PUSH2 0x18A0 JUMP JUMPDEST SWAP1 POP PUSH0 PUSH2 0x1D2E DUP5 DUP3 DUP6 ADD PUSH2 0x198F JUMP JUMPDEST PUSH0 DUP4 ADD MSTORE POP PUSH1 0x20 DUP3 ADD CALLDATALOAD PUSH8 0xFFFFFFFFFFFFFFFF DUP2 GT ISZERO PUSH2 0x1D51 JUMPI PUSH2 0x1D50 PUSH2 0x1CD0 JUMP JUMPDEST JUMPDEST PUSH2 0x1D5D DUP5 DUP3 DUP6 ADD PUSH2 0x1939 JUMP JUMPDEST PUSH1 0x20 DUP4 ADD MSTORE POP PUSH1 0x40 DUP3 ADD CALLDATALOAD PUSH8 0xFFFFFFFFFFFFFFFF DUP2 GT ISZERO PUSH2 0x1D81 JUMPI PUSH2 0x1D80 PUSH2 0x1CD0 JUMP JUMPDEST JUMPDEST PUSH2 0x1D8D DUP5 DUP3 DUP6 ADD PUSH2 0x1939 JUMP JUMPDEST PUSH1 0x40 DUP4 ADD MSTORE POP PUSH1 0x60 DUP3 ADD CALLDATALOAD PUSH8 0xFFFFFFFFFFFFFFFF DUP2 GT ISZERO PUSH2 0x1DB1 JUMPI PUSH2 0x1DB0 PUSH2 0x1CD0 JUMP JUMPDEST JUMPDEST PUSH2 0x1DBD DUP5 DUP3 DUP6 ADD PUSH2 0x1939 JUMP JUMPDEST PUSH1 0x60 DUP4 ADD MSTORE POP PUSH1 0x80 DUP3 ADD CALLDATALOAD PUSH8 0xFFFFFFFFFFFFFFFF DUP2 GT ISZERO PUSH2 0x1DE1 JUMPI PUSH2 0x1DE0 PUSH2 0x1CD0 JUMP JUMPDEST JUMPDEST PUSH2 0x1DED DUP5 DUP3 DUP6 ADD PUSH2 0x1939 JUMP JUMPDEST PUSH1 0x80 DUP4 ADD MSTORE POP PUSH1 0xA0 DUP3 ADD CALLDATALOAD PUSH8 0xFFFFFFFFFFFFFFFF DUP2 GT ISZERO PUSH2 0x1E11 JUMPI PUSH2 0x1E10 PUSH2 0x1CD0 JUMP JUMPDEST JUMPDEST PUSH2 0x1E1D DUP5 DUP3 DUP6 ADD PUSH2 0x1939 JUMP JUMPDEST PUSH1 0xA0 DUP4 ADD MSTORE POP PUSH1 0xC0 PUSH2 0x1E31 DUP5 DUP3 DUP6 ADD PUSH2 0x198F JUMP JUMPDEST PUSH1 0xC0 DUP4 ADD MSTORE POP PUSH1 0xE0 DUP3 ADD CALLDATALOAD PUSH8 0xFFFFFFFFFFFFFFFF DUP2 GT ISZERO PUSH2 0x1E55 JUMPI PUSH2 0x1E54 PUSH2 0x1CD0 JUMP JUMPDEST JUMPDEST PUSH2 0x1E61 DUP5 DUP3 DUP6 ADD PUSH2 0x1939 JUMP JUMPDEST PUSH1 0xE0 DUP4 ADD MSTORE POP PUSH2 0x100 PUSH2 0x1E76 DUP5 DUP3 DUP6 ADD PUSH2 0x1CEA JUMP JUMPDEST PUSH2 0x100 DUP4 ADD MSTORE POP PUSH2 0x120 DUP3 ADD CALLDATALOAD PUSH8 0xFFFFFFFFFFFFFFFF DUP2 GT ISZERO PUSH2 0x1E9C JUMPI PUSH2 0x1E9B PUSH2 0x1CD0 JUMP JUMPDEST JUMPDEST PUSH2 0x1EA8 DUP5 DUP3 DUP6 ADD PUSH2 0x1939 JUMP JUMPDEST PUSH2 0x120 DUP4 ADD MSTORE POP PUSH2 0x140 DUP3 ADD CALLDATALOAD PUSH8 0xFFFFFFFFFFFFFFFF DUP2 GT ISZERO PUSH2 0x1ECE JUMPI PUSH2 0x1ECD PUSH2 0x1CD0 JUMP JUMPDEST JUMPDEST PUSH2 0x1EDA DUP5 DUP3 DUP6 ADD PUSH2 0x1939 JUMP JUMPDEST PUSH2 0x140 DUP4 ADD MSTORE POP PUSH2 0x160 DUP3 ADD CALLDATALOAD PUSH8 0xFFFFFFFFFFFFFFFF DUP2 GT ISZERO PUSH2 0x1F00 JUMPI PUSH2 0x1EFF PUSH2 0x1CD0 JUMP JUMPDEST JUMPDEST PUSH2 0x1F0C DUP5 DUP3 DUP6 ADD PUSH2 0x1939 JUMP JUMPDEST PUSH2 0x160 DUP4 ADD MSTORE POP SWAP3 SWAP2 POP POP JUMP JUMPDEST PUSH0 PUSH0 PUSH0 PUSH1 0x60 DUP5 DUP7 SUB SLT ISZERO PUSH2 0x1F30 JUMPI PUSH2 0x1F2F PUSH2 0x1822 JUMP JUMPDEST JUMPDEST PUSH0 DUP5 ADD CALLDATALOAD PUSH8 0xFFFFFFFFFFFFFFFF DUP2 GT ISZERO PUSH2 0x1F4D JUMPI PUSH2 0x1F4C PUSH2 0x1826 JUMP JUMPDEST JUMPDEST PUSH2 0x1F59 DUP7 DUP3 DUP8 ADD PUSH2 0x1939 JUMP JUMPDEST SWAP4 POP POP PUSH1 0x20 DUP5 ADD CALLDATALOAD PUSH8 0xFFFFFFFFFFFFFFFF DUP2 GT ISZERO PUSH2 0x1F7A JUMPI PUSH2 0x1F79 PUSH2 0x1826 JUMP JUMPDEST JUMPDEST PUSH2 0x1F86 DUP7 DUP3 DUP8 ADD PUSH2 0x1939 JUMP JUMPDEST SWAP3 POP POP PUSH1 0x40 DUP5 ADD CALLDATALOAD PUSH8 0xFFFFFFFFFFFFFFFF DUP2 GT ISZERO PUSH2 0x1FA7 JUMPI PUSH2 0x1FA6 PUSH2 0x1826 JUMP JUMPDEST JUMPDEST PUSH2 0x1FB3 DUP7 DUP3 DUP8 ADD PUSH2 0x1CFE JUMP JUMPDEST SWAP2 POP POP SWAP3 POP SWAP3 POP SWAP3 JUMP JUMPDEST PUSH0 DUP2 SWAP1 POP SWAP2 SWAP1 POP JUMP JUMPDEST PUSH2 0x1FCF DUP2 PUSH2 0x1FBD JUMP JUMPDEST DUP2 EQ PUSH2 0x1FD9 JUMPI PUSH0 PUSH0 REVERT JUMPDEST POP JUMP JUMPDEST PUSH0 DUP2 CALLDATALOAD SWAP1 POP PUSH2 0x1FEA DUP2 PUSH2 0x1FC6 JUMP JUMPDEST SWAP3 SWAP2 POP POP JUMP JUMPDEST PUSH1 0x10 DUP2 LT PUSH2 0x1FFC JUMPI PUSH0 PUSH0 REVERT JUMPDEST POP JUMP JUMPDEST PUSH0 DUP2 CALLDATALOAD SWAP1 POP PUSH2 0x200D DUP2 PUSH2 0x1FF0 JUMP JUMPDEST SWAP3 SWAP2 POP POP JUMP JUMPDEST PUSH0 PUSH0 PUSH0 PUSH1 0x60 DUP5 DUP7 SUB SLT ISZERO PUSH2 0x202A JUMPI PUSH2 0x2029 PUSH2 0x1822 JUMP JUMPDEST JUMPDEST PUSH0 PUSH2 0x2037 DUP7 DUP3 DUP8 ADD PUSH2 0x1FDC JUMP JUMPDEST SWAP4 POP POP PUSH1 0x20 PUSH2 0x2048 DUP7 DUP3 DUP8 ADD PUSH2 0x1FFF JUMP JUMPDEST SWAP3 POP POP PUSH1 0x40 PUSH2 0x2059 DUP7 DUP3 DUP8 ADD PUSH2 0x198F JUMP JUMPDEST SWAP2 POP POP SWAP3 POP SWAP3 POP SWAP3 JUMP JUMPDEST PUSH0 PUSH20 0xFFFFFFFFFFFFFFFFFFFFFFFFFFFFFFFFFFFFFFFF DUP3 AND SWAP1 POP SWAP2 SWAP1 POP JUMP JUMPDEST PUSH0 PUSH2 0x208C DUP3 PUSH2 0x2063 JUMP JUMPDEST SWAP1 POP SWAP2 SWAP1 POP JUMP JUMPDEST PUSH2 0x209C DUP2 PUSH2 0x2082 JUMP JUMPDEST DUP3 MSTORE POP POP JUMP JUMPDEST PUSH0 PUSH1 0x20 DUP3 ADD SWAP1 POP PUSH2 0x20B5 PUSH0 DUP4 ADD DUP5 PUSH2 0x2093 JUMP JUMPDEST SWAP3 SWAP2 POP POP JUMP JUMPDEST PUSH0 DUP2 SWAP1 POP SWAP2 SWAP1 POP JUMP JUMPDEST PUSH2 0x20CD DUP2 PUSH2 0x20BB JUMP JUMPDEST DUP2 EQ PUSH2 0x20D7 JUMPI PUSH0 PUSH0 REVERT JUMPDEST POP JUMP JUMPDEST PUSH0 DUP2 CALLDATALOAD SWAP1 POP PUSH2 0x20E8 DUP2 PUSH2 0x20C4 JUMP JUMPDEST SWAP3 SWAP2 POP POP JUMP JUMPDEST PUSH0 PUSH0 PUSH0 PUSH0 PUSH0 PUSH1 0xA0 DUP7 DUP9 SUB SLT ISZERO PUSH2 0x2107 JUMPI PUSH2 0x2106 PUSH2 0x1822 JUMP JUMPDEST JUMPDEST PUSH0 DUP7 ADD CALLDATALOAD PUSH8 0xFFFFFFFFFFFFFFFF DUP2 GT ISZERO PUSH2 0x2124 JUMPI PUSH2 0x2123 PUSH2 0x1826 JUMP JUMPDEST JUMPDEST PUSH2 0x2130 DUP9 DUP3 DUP10 ADD PUSH2 0x1939 JUMP JUMPDEST SWAP6 POP POP PUSH1 0x20 DUP7 ADD CALLDATALOAD PUSH8 0xFFFFFFFFFFFFFFFF DUP2 GT ISZERO PUSH2 0x2151 JUMPI PUSH2 0x2150 PUSH2 0x1826 JUMP JUMPDEST JUMPDEST PUSH2 0x215D DUP9 DUP3 DUP10 ADD PUSH2 0x1939 JUMP JUMPDEST SWAP5 POP POP PUSH1 0x40 PUSH2 0x216E DUP9 DUP3 DUP10 ADD PUSH2 0x198F JUMP JUMPDEST SWAP4 POP POP PUSH1 0x60 PUSH2 0x217F DUP9 DUP3 DUP10 ADD PUSH2 0x198F JUMP JUMPDEST SWAP3 POP POP PUSH1 0x80 PUSH2 0x2190 DUP9 DUP3 DUP10 ADD PUSH2 0x20DA JUMP JUMPDEST SWAP2 POP POP SWAP3 SWAP6 POP SWAP3 SWAP6 SWAP1 SWAP4 POP JUMP JUMPDEST PUSH0 PUSH0 PUSH1 0x40 DUP4 DUP6 SUB SLT ISZERO PUSH2 0x21B3 JUMPI PUSH2 0x21B2 PUSH2 0x1822 JUMP JUMPDEST JUMPDEST PUSH0 PUSH2 0x21C0 DUP6 DUP3 DUP7 ADD PUSH2 0x1FFF JUMP JUMPDEST SWAP3 POP POP PUSH1 0x20 PUSH2 0x21D1 DUP6 DUP3 DUP7 ADD PUSH2 0x198F JUMP JUMPDEST SWAP2 POP POP SWAP3 POP SWAP3 SWAP1 POP JUMP JUMPDEST PUSH2 0x21E4 DUP2 PUSH2 0x1966 JUMP JUMPDEST DUP3 MSTORE POP POP JUMP JUMPDEST PUSH0 PUSH1 0x20 DUP3 ADD SWAP1 POP PUSH2 0x21FD PUSH0 DUP4 ADD DUP5 PUSH2 0x21DB JUMP JUMPDEST SWAP3 SWAP2 POP POP JUMP JUMPDEST PUSH0 PUSH1 0x20 DUP3 DUP5 SUB SLT ISZERO PUSH2 0x2218 JUMPI PUSH2 0x2217 PUSH2 0x1822 JUMP JUMPDEST JUMPDEST PUSH0 DUP3 ADD CALLDATALOAD PUSH8 0xFFFFFFFFFFFFFFFF DUP2 GT ISZERO PUSH2 0x2235 JUMPI PUSH2 0x2234 PUSH2 0x1826 JUMP JUMPDEST JUMPDEST PUSH2 0x2241 DUP5 DUP3 DUP6 ADD PUSH2 0x1939 JUMP JUMPDEST SWAP2 POP POP SWAP3 SWAP2 POP POP JUMP JUMPDEST PUSH32 0x4E487B7100000000000000000000000000000000000000000000000000000000 PUSH0 MSTORE PUSH1 0x21 PUSH1 0x4 MSTORE PUSH1 0x24 PUSH0 REVERT JUMPDEST PUSH1 0x10 DUP2 LT PUSH2 0x2288 JUMPI PUSH2 0x2287 PUSH2 0x224A JUMP JUMPDEST JUMPDEST POP JUMP JUMPDEST PUSH0 DUP2 SWAP1 POP PUSH2 0x2298 DUP3 PUSH2 0x2277 JUMP JUMPDEST SWAP2 SWAP1 POP JUMP JUMPDEST PUSH0 PUSH2 0x22A7 DUP3 PUSH2 0x228B JUMP JUMPDEST SWAP1 POP SWAP2 SWAP1 POP JUMP JUMPDEST PUSH2 0x22B7 DUP2 PUSH2 0x229D JUMP JUMPDEST DUP3 MSTORE POP POP JUMP JUMPDEST PUSH0 PUSH1 0x20 DUP3 ADD SWAP1 POP PUSH2 0x22D0 PUSH0 DUP4 ADD DUP5 PUSH2 0x22AE JUMP JUMPDEST SWAP3 SWAP2 POP POP JUMP JUMPDEST PUSH0 DUP2 SWAP1 POP SWAP3 SWAP2 POP POP JUMP JUMPDEST PUSH0 PUSH2 0x22EA DUP3 PUSH2 0x1A63 JUMP JUMPDEST PUSH2 0x22F4 DUP2 DUP6 PUSH2 0x22D6 JUMP JUMPDEST SWAP4 POP PUSH2 0x2304 DUP2 DUP6 PUSH1 0x20 DUP7 ADD PUSH2 0x1A7D JUMP JUMPDEST DUP1 DUP5 ADD SWAP2 POP POP SWAP3 SWAP2 POP POP JUMP JUMPDEST PUSH0 PUSH2 0x231B DUP3 DUP5 PUSH2 0x22E0 JUMP JUMPDEST SWAP2 POP DUP2 SWAP1 POP SWAP3 SWAP2 POP POP JUMP JUMPDEST PUSH0 PUSH8 0xFFFFFFFFFFFFFFFF DUP3 GT ISZERO PUSH2 0x2340 JUMPI PUSH2 0x233F PUSH2 0x1842 JUMP JUMPDEST JUMPDEST PUSH1 0x20 DUP3 MUL SWAP1 POP PUSH1 0x20 DUP2 ADD SWAP1 POP SWAP2 SWAP1 POP JUMP JUMPDEST PUSH0 PUSH0 REVERT JUMPDEST PUSH0 DUP2 MLOAD SWAP1 POP PUSH2 0x2363 DUP2 PUSH2 0x1979 JUMP JUMPDEST SWAP3 SWAP2 POP POP JUMP JUMPDEST PUSH0 PUSH2 0x237B PUSH2 0x2376 DUP5 PUSH2 0x18BA JUMP JUMPDEST PUSH2 0x18A0 JUMP JUMPDEST SWAP1 POP DUP3 DUP2 MSTORE PUSH1 0x20 DUP2 ADD DUP5 DUP5 DUP5 ADD GT ISZERO PUSH2 0x2397 JUMPI PUSH2 0x2396 PUSH2 0x182E JUMP JUMPDEST JUMPDEST PUSH2 0x23A2 DUP5 DUP3 DUP6 PUSH2 0x1A7D JUMP JUMPDEST POP SWAP4 SWAP3 POP POP POP JUMP JUMPDEST PUSH0 DUP3 PUSH1 0x1F DUP4 ADD SLT PUSH2 0x23BE JUMPI PUSH2 0x23BD PUSH2 0x182A JUMP JUMPDEST JUMPDEST DUP2 MLOAD PUSH2 0x23CE DUP5 DUP3 PUSH1 0x20 DUP7 ADD PUSH2 0x2369 JUMP JUMPDEST SWAP2 POP POP SWAP3 SWAP2 POP POP JUMP JUMPDEST PUSH0 DUP2 MLOAD SWAP1 POP PUSH2 0x23E5 DUP2 PUSH2 0x1CD4 JUMP JUMPDEST SWAP3 SWAP2 POP POP JUMP JUMPDEST PUSH0 PUSH2 0x180 DUP3 DUP5 SUB SLT ISZERO PUSH2 0x2401 JUMPI PUSH2 0x2400 PUSH2 0x1CCC JUMP JUMPDEST JUMPDEST PUSH2 0x240C PUSH2 0x180 PUSH2 0x18A0 JUMP JUMPDEST SWAP1 POP PUSH0 PUSH2 0x241B DUP5 DUP3 DUP6 ADD PUSH2 0x2355 JUMP JUMPDEST PUSH0 DUP4 ADD MSTORE POP PUSH1 0x20 DUP3 ADD MLOAD PUSH8 0xFFFFFFFFFFFFFFFF DUP2 GT ISZERO PUSH2 0x243E JUMPI PUSH2 0x243D PUSH2 0x1CD0 JUMP JUMPDEST JUMPDEST PUSH2 0x244A DUP5 DUP3 DUP6 ADD PUSH2 0x23AA JUMP JUMPDEST PUSH1 0x20 DUP4 ADD MSTORE POP PUSH1 0x40 DUP3 ADD MLOAD PUSH8 0xFFFFFFFFFFFFFFFF DUP2 GT ISZERO PUSH2 0x246E JUMPI PUSH2 0x246D PUSH2 0x1CD0 JUMP JUMPDEST JUMPDEST PUSH2 0x247A DUP5 DUP3 DUP6 ADD PUSH2 0x23AA JUMP JUMPDEST PUSH1 0x40 DUP4 ADD MSTORE POP PUSH1 0x60 DUP3 ADD MLOAD PUSH8 0xFFFFFFFFFFFFFFFF DUP2 GT ISZERO PUSH2 0x249E JUMPI PUSH2 0x249D PUSH2 0x1CD0 JUMP JUMPDEST JUMPDEST PUSH2 0x24AA DUP5 DUP3 DUP6 ADD PUSH2 0x23AA JUMP JUMPDEST PUSH1 0x60 DUP4 ADD MSTORE POP PUSH1 0x80 DUP3 ADD MLOAD PUSH8 0xFFFFFFFFFFFFFFFF DUP2 GT ISZERO PUSH2 0x24CE JUMPI PUSH2 0x24CD PUSH2 0x1CD0 JUMP JUMPDEST JUMPDEST PUSH2 0x24DA DUP5 DUP3 DUP6 ADD PUSH2 0x23AA JUMP JUMPDEST PUSH1 0x80 DUP4 ADD MSTORE POP PUSH1 0xA0 DUP3 ADD MLOAD PUSH8 0xFFFFFFFFFFFFFFFF DUP2 GT ISZERO PUSH2 0x24FE JUMPI PUSH2 0x24FD PUSH2 0x1CD0 JUMP JUMPDEST JUMPDEST PUSH2 0x250A DUP5 DUP3 DUP6 ADD PUSH2 0x23AA JUMP JUMPDEST PUSH1 0xA0 DUP4 ADD MSTORE POP PUSH1 0xC0 PUSH2 0x251E DUP5 DUP3 DUP6 ADD PUSH2 0x2355 JUMP JUMPDEST PUSH1 0xC0 DUP4 ADD MSTORE POP PUSH1 0xE0 DUP3 ADD MLOAD PUSH8 0xFFFFFFFFFFFFFFFF DUP2 GT ISZERO PUSH2 0x2542 JUMPI PUSH2 0x2541 PUSH2 0x1CD0 JUMP JUMPDEST JUMPDEST PUSH2 0x254E DUP5 DUP3 DUP6 ADD PUSH2 0x23AA JUMP JUMPDEST PUSH1 0xE0 DUP4 ADD MSTORE POP PUSH2 0x100 PUSH2 0x2563 DUP5 DUP3 DUP6 ADD PUSH2 0x23D7 JUMP JUMPDEST PUSH2 0x100 DUP4 ADD MSTORE POP PUSH2 0x120 DUP3 ADD MLOAD PUSH8 0xFFFFFFFFFFFFFFFF DUP2 GT ISZERO PUSH2 0x2589 JUMPI PUSH2 0x2588 PUSH2 0x1CD0 JUMP JUMPDEST JUMPDEST PUSH2 0x2595 DUP5 DUP3 DUP6 ADD PUSH2 0x23AA JUMP JUMPDEST PUSH2 0x120 DUP4 ADD MSTORE POP PUSH2 0x140 DUP3 ADD MLOAD PUSH8 0xFFFFFFFFFFFFFFFF DUP2 GT ISZERO PUSH2 0x25BB JUMPI PUSH2 0x25BA PUSH2 0x1CD0 JUMP JUMPDEST JUMPDEST PUSH2 0x25C7 DUP5 DUP3 DUP6 ADD PUSH2 0x23AA JUMP JUMPDEST PUSH2 0x140 DUP4 ADD MSTORE POP PUSH2 0x160 DUP3 ADD MLOAD PUSH8 0xFFFFFFFFFFFFFFFF DUP2 GT ISZERO PUSH2 0x25ED JUMPI PUSH2 0x25EC PUSH2 0x1CD0 JUMP JUMPDEST JUMPDEST PUSH2 0x25F9 DUP5 DUP3 DUP6 ADD PUSH2 0x23AA JUMP JUMPDEST PUSH2 0x160 DUP4 ADD MSTORE POP SWAP3 SWAP2 POP POP JUMP JUMPDEST PUSH0 PUSH2 0x2618 PUSH2 0x2613 DUP5 PUSH2 0x2326 JUMP JUMPDEST PUSH2 0x18A0 JUMP JUMPDEST SWAP1 POP DUP1 DUP4 DUP3 MSTORE PUSH1 0x20 DUP3 ADD SWAP1 POP PUSH1 0x20 DUP5 MUL DUP4 ADD DUP6 DUP2 GT ISZERO PUSH2 0x263B JUMPI PUSH2 0x263A PUSH2 0x2351 JUMP JUMPDEST JUMPDEST DUP4 JUMPDEST DUP2 DUP2 LT ISZERO PUSH2 0x2682 JUMPI DUP1 MLOAD PUSH8 0xFFFFFFFFFFFFFFFF DUP2 GT ISZERO PUSH2 0x2660 JUMPI PUSH2 0x265F PUSH2 0x182A JUMP JUMPDEST JUMPDEST DUP1 DUP7 ADD PUSH2 0x266D DUP10 DUP3 PUSH2 0x23EB JUMP JUMPDEST DUP6 MSTORE PUSH1 0x20 DUP6 ADD SWAP5 POP POP POP PUSH1 0x20 DUP2 ADD SWAP1 POP PUSH2 0x263D JUMP JUMPDEST POP POP POP SWAP4 SWAP3 POP POP POP JUMP JUMPDEST PUSH0 DUP3 PUSH1 0x1F DUP4 ADD SLT PUSH2 0x26A0 JUMPI PUSH2 0x269F PUSH2 0x182A JUMP JUMPDEST JUMPDEST DUP2 MLOAD PUSH2 0x26B0 DUP5 DUP3 PUSH1 0x20 DUP7 ADD PUSH2 0x2606 JUMP JUMPDEST SWAP2 POP POP SWAP3 SWAP2 POP POP JUMP JUMPDEST PUSH0 PUSH1 0x20 DUP3 DUP5 SUB SLT ISZERO PUSH2 0x26CE JUMPI PUSH2 0x26CD PUSH2 0x1822 JUMP JUMPDEST JUMPDEST PUSH0 DUP3 ADD MLOAD PUSH8 0xFFFFFFFFFFFFFFFF DUP2 GT ISZERO PUSH2 0x26EB JUMPI PUSH2 0x26EA PUSH2 0x1826 JUMP JUMPDEST JUMPDEST PUSH2 0x26F7 DUP5 DUP3 DUP6 ADD PUSH2 0x268C JUMP JUMPDEST SWAP2 POP POP SWAP3 SWAP2 POP POP JUMP JUMPDEST PUSH0 DUP3 DUP3 MSTORE PUSH1 0x20 DUP3 ADD SWAP1 POP SWAP3 SWAP2 POP POP JUMP JUMPDEST PUSH0 PUSH2 0x271A DUP3 PUSH2 0x1A63 JUMP JUMPDEST PUSH2 0x2724 DUP2 DUP6 PUSH2 0x2700 JUMP JUMPDEST SWAP4 POP PUSH2 0x2734 DUP2 DUP6 PUSH1 0x20 DUP7 ADD PUSH2 0x1A7D JUMP JUMPDEST PUSH2 0x273D DUP2 PUSH2 0x1832 JUMP JUMPDEST DUP5 ADD SWAP2 POP POP SWAP3 SWAP2 POP POP JUMP JUMPDEST PUSH0 PUSH1 0x80 DUP3 ADD SWAP1 POP DUP2 DUP2 SUB PUSH0 DUP4 ADD MSTORE PUSH2 0x2760 DUP2 DUP8 PUSH2 0x2710 JUMP JUMPDEST SWAP1 POP DUP2 DUP2 SUB PUSH1 0x20 DUP4 ADD MSTORE PUSH2 0x2774 DUP2 DUP7 PUSH2 0x2710 JUMP JUMPDEST SWAP1 POP PUSH2 0x2783 PUSH1 0x40 DUP4 ADD DUP6 PUSH2 0x21DB JUMP JUMPDEST PUSH2 0x2790 PUSH1 0x60 DUP4 ADD DUP5 PUSH2 0x2093 JUMP JUMPDEST SWAP6 SWAP5 POP POP POP POP POP JUMP JUMPDEST PUSH0 PUSH2 0x180 DUP4 ADD PUSH0 DUP4 ADD MLOAD PUSH2 0x27AF PUSH0 DUP7 ADD DUP3 PUSH2 0x1A54 JUMP JUMPDEST POP PUSH1 0x20 DUP4 ADD MLOAD DUP5 DUP3 SUB PUSH1 0x20 DUP7 ADD MSTORE PUSH2 0x27C7 DUP3 DUP3 PUSH2 0x1A8B JUMP JUMPDEST SWAP2 POP POP PUSH1 0x40 DUP4 ADD MLOAD DUP5 DUP3 SUB PUSH1 0x40 DUP7 ADD MSTORE PUSH2 0x27E1 DUP3 DUP3 PUSH2 0x1A8B JUMP JUMPDEST SWAP2 POP POP PUSH1 0x60 DUP4 ADD MLOAD DUP5 DUP3 SUB PUSH1 0x60 DUP7 ADD MSTORE PUSH2 0x27FB DUP3 DUP3 PUSH2 0x1A8B JUMP JUMPDEST SWAP2 POP POP PUSH1 0x80 DUP4 ADD MLOAD DUP5 DUP3 SUB PUSH1 0x80 DUP7 ADD MSTORE PUSH2 0x2815 DUP3 DUP3 PUSH2 0x1A8B JUMP JUMPDEST SWAP2 POP POP PUSH1 0xA0 DUP4 ADD MLOAD DUP5 DUP3 SUB PUSH1 0xA0 DUP7 ADD MSTORE PUSH2 0x282F DUP3 DUP3 PUSH2 0x1A8B JUMP JUMPDEST SWAP2 POP POP PUSH1 0xC0 DUP4 ADD MLOAD PUSH2 0x2844 PUSH1 0xC0 DUP7 ADD DUP3 PUSH2 0x1A54 JUMP JUMPDEST POP PUSH1 0xE0 DUP4 ADD MLOAD DUP5 DUP3 SUB PUSH1 0xE0 DUP7 ADD MSTORE PUSH2 0x285C DUP3 DUP3 PUSH2 0x1A8B JUMP JUMPDEST SWAP2 POP POP PUSH2 0x100 DUP4 ADD MLOAD PUSH2 0x2873 PUSH2 0x100 DUP7 ADD DUP3 PUSH2 0x1AD2 JUMP JUMPDEST POP PUSH2 0x120 DUP4 ADD MLOAD DUP5 DUP3 SUB PUSH2 0x120 DUP7 ADD MSTORE PUSH2 0x288D DUP3 DUP3 PUSH2 0x1A8B JUMP JUMPDEST SWAP2 POP POP PUSH2 0x140 DUP4 ADD MLOAD DUP5 DUP3 SUB PUSH2 0x140 DUP7 ADD MSTORE PUSH2 0x28A9 DUP3 DUP3 PUSH2 0x1A8B JUMP JUMPDEST SWAP2 POP POP PUSH2 0x160 DUP4 ADD MLOAD DUP5 DUP3 SUB PUSH2 0x160 DUP7 ADD MSTORE PUSH2 0x28C5 DUP3 DUP3 PUSH2 0x1A8B JUMP JUMPDEST SWAP2 POP POP DUP1 SWAP2 POP POP SWAP3 SWAP2 POP POP JUMP JUMPDEST PUSH0 PUSH1 0x20 DUP3 ADD SWAP1 POP DUP2 DUP2 SUB PUSH0 DUP4 ADD MSTORE PUSH2 0x28EA DUP2 DUP5 PUSH2 0x2799 JUMP JUMPDEST SWAP1 POP SWAP3 SWAP2 POP POP JUMP JUMPDEST PUSH32 0x4E487B7100000000000000000000000000000000000000000000000000000000 PUSH0 MSTORE PUSH1 0x32 PUSH1 0x4 MSTORE PUSH1 0x24 PUSH0 REVERT JUMPDEST PUSH32 0x4E487B7100000000000000000000000000000000000000000000000000000000 PUSH0 MSTORE PUSH1 0x11 PUSH1 0x4 MSTORE PUSH1 0x24 PUSH0 REVERT JUMPDEST PUSH0 PUSH2 0x2956 DUP3 PUSH2 0x20BB JUMP JUMPDEST SWAP2 POP PUSH2 0x2961 DUP4 PUSH2 0x20BB JUMP JUMPDEST SWAP3 POP DUP3 DUP3 SUB SWAP1 POP DUP2 DUP2 GT ISZERO PUSH2 0x2979 JUMPI PUSH2 0x2978 PUSH2 0x291F JUMP JUMPDEST JUMPDEST SWAP3 SWAP2 POP POP JUMP JUMPDEST PUSH0 PUSH2 0x2989 DUP3 PUSH2 0x20BB JUMP JUMPDEST SWAP2 POP PUSH32 0xFFFFFFFFFFFFFFFFFFFFFFFFFFFFFFFFFFFFFFFFFFFFFFFFFFFFFFFFFFFFFFFF DUP3 SUB PUSH2 0x29BB JUMPI PUSH2 0x29BA PUSH2 0x291F JUMP JUMPDEST JUMPDEST PUSH1 0x1 DUP3 ADD SWAP1 POP SWAP2 SWAP1 POP JUMP JUMPDEST PUSH0 PUSH2 0x29D0 DUP3 PUSH2 0x20BB JUMP JUMPDEST SWAP2 POP PUSH0 DUP3 SUB PUSH2 0x29E2 JUMPI PUSH2 0x29E1 PUSH2 0x291F JUMP JUMPDEST JUMPDEST PUSH1 0x1 DUP3 SUB SWAP1 POP SWAP2 SWAP1 POP JUMP JUMPDEST PUSH32 0x4E487B7100000000000000000000000000000000000000000000000000000000 PUSH0 MSTORE PUSH1 0x12 PUSH1 0x4 MSTORE PUSH1 0x24 PUSH0 REVERT JUMPDEST PUSH0 PUSH2 0x2A24 DUP3 PUSH2 0x1966 JUMP JUMPDEST SWAP2 POP PUSH2 0x2A2F DUP4 PUSH2 0x1966 JUMP JUMPDEST SWAP3 POP DUP3 PUSH2 0x2A3F JUMPI PUSH2 0x2A3E PUSH2 0x29ED JUMP JUMPDEST JUMPDEST DUP3 DUP3 DIV SWAP1 POP SWAP3 SWAP2 POP POP JUMP JUMPDEST PUSH0 PUSH2 0x2A54 DUP3 PUSH2 0x1966 JUMP JUMPDEST SWAP2 POP PUSH2 0x2A5F DUP4 PUSH2 0x1966 JUMP JUMPDEST SWAP3 POP DUP3 DUP3 MUL PUSH2 0x2A6D DUP2 PUSH2 0x1966 JUMP JUMPDEST SWAP2 POP DUP1 DUP3 EQ PUSH2 0x2A7F JUMPI PUSH2 0x2A7E PUSH2 0x291F JUMP JUMPDEST JUMPDEST POP SWAP3 SWAP2 POP POP JUMP JUMPDEST PUSH32 0x556E737570706F7274656420696E74657276616C000000000000000000000000 PUSH0 DUP3 ADD MSTORE POP JUMP JUMPDEST PUSH0 PUSH2 0x2ABA PUSH1 0x14 DUP4 PUSH2 0x2700 JUMP JUMPDEST SWAP2 POP PUSH2 0x2AC5 DUP3 PUSH2 0x2A86 JUMP JUMPDEST PUSH1 0x20 DUP3 ADD SWAP1 POP SWAP2 SWAP1 POP JUMP JUMPDEST PUSH0 PUSH1 0x20 DUP3 ADD SWAP1 POP DUP2 DUP2 SUB PUSH0 DUP4 ADD MSTORE PUSH2 0x2AE7 DUP2 PUSH2 0x2AAE JUMP JUMPDEST SWAP1 POP SWAP2 SWAP1 POP JUMP JUMPDEST PUSH32 0x496E76616C696420696E74657276616C20737472696E67000000000000000000 PUSH0 DUP3 ADD MSTORE POP JUMP JUMPDEST PUSH0 PUSH2 0x2B22 PUSH1 0x17 DUP4 PUSH2 0x2700 JUMP JUMPDEST SWAP2 POP PUSH2 0x2B2D DUP3 PUSH2 0x2AEE JUMP JUMPDEST PUSH1 0x20 DUP3 ADD SWAP1 POP SWAP2 SWAP1 POP JUMP JUMPDEST PUSH0 PUSH1 0x20 DUP3 ADD SWAP1 POP DUP2 DUP2 SUB PUSH0 DUP4 ADD MSTORE PUSH2 0x2B4F DUP2 PUSH2 0x2B16 JUMP JUMPDEST SWAP1 POP SWAP2 SWAP1 POP JUMP JUMPDEST PUSH0 PUSH1 0x20 DUP3 ADD SWAP1 POP DUP2 DUP2 SUB PUSH0 DUP4 ADD MSTORE PUSH2 0x2B6E DUP2 DUP5 PUSH2 0x2710 JUMP JUMPDEST SWAP1 POP SWAP3 SWAP2 POP POP JUMP JUMPDEST PUSH0 PUSH2 0x2B80 DUP3 PUSH2 0x1966 JUMP JUMPDEST SWAP2 POP PUSH2 0x2B8B DUP4 PUSH2 0x1966 JUMP JUMPDEST SWAP3 POP DUP3 DUP3 SUB SWAP1 POP PUSH8 0xFFFFFFFFFFFFFFFF DUP2 GT ISZERO PUSH2 0x2BAB JUMPI PUSH2 0x2BAA PUSH2 0x291F JUMP JUMPDEST JUMPDEST SWAP3 SWAP2 POP POP JUMP JUMPDEST PUSH0 PUSH2 0x2BBB DUP3 PUSH2 0x1966 JUMP JUMPDEST SWAP2 POP PUSH2 0x2BC6 DUP4 PUSH2 0x1966 JUMP JUMPDEST SWAP3 POP DUP3 DUP3 ADD SWAP1 POP PUSH8 0xFFFFFFFFFFFFFFFF DUP2 GT ISZERO PUSH2 0x2BE6 JUMPI PUSH2 0x2BE5 PUSH2 0x291F JUMP JUMPDEST JUMPDEST SWAP3 SWAP2 POP POP JUMP JUMPDEST PUSH0 PUSH2 0x2BF6 DUP3 PUSH2 0x20BB JUMP JUMPDEST SWAP2 POP PUSH2 0x2C01 DUP4 PUSH2 0x20BB JUMP JUMPDEST SWAP3 POP DUP3 DUP3 MUL PUSH2 0x2C0F DUP2 PUSH2 0x20BB JUMP JUMPDEST SWAP2 POP DUP3 DUP3 DIV DUP5 EQ DUP4 ISZERO OR PUSH2 0x2C26 JUMPI PUSH2 0x2C25 PUSH2 0x291F JUMP JUMPDEST JUMPDEST POP SWAP3 SWAP2 POP POP JUMP JUMPDEST PUSH2 0x2C36 DUP2 PUSH2 0x20BB JUMP JUMPDEST DUP3 MSTORE POP POP JUMP JUMPDEST PUSH0 PUSH1 0x40 DUP3 ADD SWAP1 POP DUP2 DUP2 SUB PUSH0 DUP4 ADD MSTORE PUSH2 0x2C54 DUP2 DUP6 PUSH2 0x2710 JUMP JUMPDEST SWAP1 POP PUSH2 0x2C63 PUSH1 0x20 DUP4 ADD DUP5 PUSH2 0x2C2D JUMP JUMPDEST SWAP4 SWAP3 POP POP POP JUMP JUMPDEST PUSH32 0x4E487B7100000000000000000000000000000000000000000000000000000000 PUSH0 MSTORE PUSH1 0x51 PUSH1 0x4 MSTORE PUSH1 0x24 PUSH0 REVERT INVALID PUSH1 0x80 PUSH1 0x40 MSTORE CALLVALUE DUP1 ISZERO PUSH1 0xE JUMPI PUSH0 PUSH0 REVERT JUMPDEST POP CALLER PUSH1 0x1 PUSH0 PUSH2 0x100 EXP DUP2 SLOAD DUP2 PUSH20 0xFFFFFFFFFFFFFFFFFFFFFFFFFFFFFFFFFFFFFFFF MUL NOT AND SWAP1 DUP4 PUSH20 0xFFFFFFFFFFFFFFFFFFFFFFFFFFFFFFFFFFFFFFFF AND MUL OR SWAP1 SSTORE POP PUSH2 0x1AE7 DUP1 PUSH2 0x5C PUSH0 CODECOPY PUSH0 RETURN INVALID PUSH1 0x80 PUSH1 0x40 MSTORE CALLVALUE DUP1 ISZERO PUSH2 0xF JUMPI PUSH0 PUSH0 REVERT JUMPDEST POP PUSH1 0x4 CALLDATASIZE LT PUSH2 0x55 JUMPI PUSH0 CALLDATALOAD PUSH1 0xE0 SHR DUP1 PUSH4 0xA6478D97 EQ PUSH2 0x59 JUMPI DUP1 PUSH4 0xA8F9B0AF EQ PUSH2 0x77 JUMPI DUP1 PUSH4 0xC45A0155 EQ PUSH2 0x93 JUMPI DUP1 PUSH4 0xEA6C8353 EQ PUSH2 0xB1 JUMPI DUP1 PUSH4 0xFB34B3A9 EQ PUSH2 0xCF JUMPI JUMPDEST PUSH0 PUSH0 REVERT JUMPDEST PUSH2 0x61 PUSH2 0xED JUMP JUMPDEST PUSH1 0x40 MLOAD PUSH2 0x6E SWAP2 SWAP1 PUSH2 0x103D JUMP JUMPDEST PUSH1 0x40 MLOAD DUP1 SWAP2 SUB SWAP1 RETURN JUMPDEST PUSH2 0x91 PUSH1 0x4 DUP1 CALLDATASIZE SUB DUP2 ADD SWAP1 PUSH2 0x8C SWAP2 SWAP1 PUSH2 0x143C JUMP JUMPDEST PUSH2 0xF8 JUMP JUMPDEST STOP JUMPDEST PUSH2 0x9B PUSH2 0x2FE JUMP JUMPDEST PUSH1 0x40 MLOAD PUSH2 0xA8 SWAP2 SWAP1 PUSH2 0x14C2 JUMP JUMPDEST PUSH1 0x40 MLOAD DUP1 SWAP2 SUB SWAP1 RETURN JUMPDEST PUSH2 0xB9 PUSH2 0x323 JUMP JUMPDEST PUSH1 0x40 MLOAD PUSH2 0xC6 SWAP2 SWAP1 PUSH2 0x174D JUMP JUMPDEST PUSH1 0x40 MLOAD DUP1 SWAP2 SUB SWAP1 RETURN JUMPDEST PUSH2 0xD7 PUSH2 0x9A4 JUMP JUMPDEST PUSH1 0x40 MLOAD PUSH2 0xE4 SWAP2 SWAP1 PUSH2 0x174D JUMP JUMPDEST PUSH1 0x40 MLOAD DUP1 SWAP2 SUB SWAP1 RETURN JUMPDEST PUSH0 PUSH0 DUP1 SLOAD SWAP1 POP SWAP1 POP SWAP1 JUMP JUMPDEST PUSH1 0x1 PUSH0 SWAP1 SLOAD SWAP1 PUSH2 0x100 EXP SWAP1 DIV PUSH20 0xFFFFFFFFFFFFFFFFFFFFFFFFFFFFFFFFFFFFFFFF AND PUSH20 0xFFFFFFFFFFFFFFFFFFFFFFFFFFFFFFFFFFFFFFFF AND CALLER PUSH20 0xFFFFFFFFFFFFFFFFFFFFFFFFFFFFFFFFFFFFFFFF AND EQ PUSH2 0x187 JUMPI PUSH1 0x40 MLOAD PUSH32 0x8C379A000000000000000000000000000000000000000000000000000000000 DUP2 MSTORE PUSH1 0x4 ADD PUSH2 0x17E SWAP1 PUSH2 0x17C7 JUMP JUMPDEST PUSH1 0x40 MLOAD DUP1 SWAP2 SUB SWAP1 REVERT JUMPDEST PUSH0 DUP2 SWAP1 DUP1 PUSH1 0x1 DUP2 SLOAD ADD DUP1 DUP3 SSTORE DUP1 SWAP2 POP POP PUSH1 0x1 SWAP1 SUB SWAP1 PUSH0 MSTORE PUSH1 0x20 PUSH0 KECCAK256 SWAP1 PUSH1 0xC MUL ADD PUSH0 SWAP1 SWAP2 SWAP1 SWAP2 SWAP1 SWAP2 POP PUSH0 DUP3 ADD MLOAD DUP2 PUSH0 ADD PUSH0 PUSH2 0x100 EXP DUP2 SLOAD DUP2 PUSH8 0xFFFFFFFFFFFFFFFF MUL NOT AND SWAP1 DUP4 PUSH8 0xFFFFFFFFFFFFFFFF AND MUL OR SWAP1 SSTORE POP PUSH1 0x20 DUP3 ADD MLOAD DUP2 PUSH1 0x1 ADD SWAP1 DUP2 PUSH2 0x1F0 SWAP2 SWAP1 PUSH2 0x19E2 JUMP JUMPDEST POP PUSH1 0x40 DUP3 ADD MLOAD DUP2 PUSH1 0x2 ADD SWAP1 DUP2 PUSH2 0x206 SWAP2 SWAP1 PUSH2 0x19E2 JUMP JUMPDEST POP PUSH1 0x60 DUP3 ADD MLOAD DUP2 PUSH1 0x3 ADD SWAP1 DUP2 PUSH2 0x21C SWAP2 SWAP1 PUSH2 0x19E2 JUMP JUMPDEST POP PUSH1 0x80 DUP3 ADD MLOAD DUP2 PUSH1 0x4 ADD SWAP1 DUP2 PUSH2 0x232 SWAP2 SWAP1 PUSH2 0x19E2 JUMP JUMPDEST POP PUSH1 0xA0 DUP3 ADD MLOAD DUP2 PUSH1 0x5 ADD SWAP1 DUP2 PUSH2 0x248 SWAP2 SWAP1 PUSH2 0x19E2 JUMP JUMPDEST POP PUSH1 0xC0 DUP3 ADD MLOAD DUP2 PUSH1 0x6 ADD PUSH0 PUSH2 0x100 EXP DUP2 SLOAD DUP2 PUSH8 0xFFFFFFFFFFFFFFFF MUL NOT AND SWAP1 DUP4 PUSH8 0xFFFFFFFFFFFFFFFF AND MUL OR SWAP1 SSTORE POP PUSH1 0xE0 DUP3 ADD MLOAD DUP2 PUSH1 0x7 ADD SWAP1 DUP2 PUSH2 0x28C SWAP2 SWAP1 PUSH2 0x19E2 JUMP JUMPDEST POP PUSH2 0x100 DUP3 ADD MLOAD DUP2 PUSH1 0x8 ADD PUSH0 PUSH2 0x100 EXP DUP2 SLOAD DUP2 PUSH4 0xFFFFFFFF MUL NOT AND SWAP1 DUP4 PUSH4 0xFFFFFFFF AND MUL OR SWAP1 SSTORE POP PUSH2 0x120 DUP3 ADD MLOAD DUP2 PUSH1 0x9 ADD SWAP1 DUP2 PUSH2 0x2CA SWAP2 SWAP1 PUSH2 0x19E2 JUMP JUMPDEST POP PUSH2 0x140 DUP3 ADD MLOAD DUP2 PUSH1 0xA ADD SWAP1 DUP2 PUSH2 0x2E1 SWAP2 SWAP1 PUSH2 0x19E2 JUMP JUMPDEST POP PUSH2 0x160 DUP3 ADD MLOAD DUP2 PUSH1 0xB ADD SWAP1 DUP2 PUSH2 0x2F8 SWAP2 SWAP1 PUSH2 0x19E2 JUMP JUMPDEST POP POP POP POP JUMP JUMPDEST PUSH1 0x1 PUSH0 SWAP1 SLOAD SWAP1 PUSH2 0x100 EXP SWAP1 DIV PUSH20 0xFFFFFFFFFFFFFFFFFFFFFFFFFFFFFFFFFFFFFFFF AND DUP2 JUMP JUMPDEST PUSH1 0x60 PUSH1 0x1 PUSH0 SWAP1 SLOAD SWAP1 PUSH2 0x100 EXP SWAP1 DIV PUSH20 0xFFFFFFFFFFFFFFFFFFFFFFFFFFFFFFFFFFFFFFFF AND PUSH20 0xFFFFFFFFFFFFFFFFFFFFFFFFFFFFFFFFFFFFFFFF AND CALLER PUSH20 0xFFFFFFFFFFFFFFFFFFFFFFFFFFFFFFFFFFFFFFFF AND EQ PUSH2 0x3B4 JUMPI PUSH1 0x40 MLOAD PUSH32 0x8C379A000000000000000000000000000000000000000000000000000000000 DUP2 MSTORE PUSH1 0x4 ADD PUSH2 0x3AB SWAP1 PUSH2 0x17C7 JUMP JUMPDEST PUSH1 0x40 MLOAD DUP1 SWAP2 SUB SWAP1 REVERT JUMPDEST PUSH0 DUP1 SLOAD DUP1 PUSH1 0x20 MUL PUSH1 0x20 ADD PUSH1 0x40 MLOAD SWAP1 DUP2 ADD PUSH1 0x40 MSTORE DUP1 SWAP3 SWAP2 SWAP1 DUP2 DUP2 MSTORE PUSH1 0x20 ADD PUSH0 SWAP1 JUMPDEST DUP3 DUP3 LT ISZERO PUSH2 0x99B JUMPI DUP4 DUP3 SWAP1 PUSH0 MSTORE PUSH1 0x20 PUSH0 KECCAK256 SWAP1 PUSH1 0xC MUL ADD PUSH1 0x40 MLOAD DUP1 PUSH2 0x180 ADD PUSH1 0x40 MSTORE SWAP1 DUP2 PUSH0 DUP3 ADD PUSH0 SWAP1 SLOAD SWAP1 PUSH2 0x100 EXP SWAP1 DIV PUSH8 0xFFFFFFFFFFFFFFFF AND PUSH8 0xFFFFFFFFFFFFFFFF AND PUSH8 0xFFFFFFFFFFFFFFFF AND DUP2 MSTORE PUSH1 0x20 ADD PUSH1 0x1 DUP3 ADD DUP1 SLOAD PUSH2 0x436 SWAP1 PUSH2 0x1812 JUMP JUMPDEST DUP1 PUSH1 0x1F ADD PUSH1 0x20 DUP1 SWAP2 DIV MUL PUSH1 0x20 ADD PUSH1 0x40 MLOAD SWAP1 DUP2 ADD PUSH1 0x40 MSTORE DUP1 SWAP3 SWAP2 SWAP1 DUP2 DUP2 MSTORE PUSH1 0x20 ADD DUP3 DUP1 SLOAD PUSH2 0x462 SWAP1 PUSH2 0x1812 JUMP JUMPDEST DUP1 ISZERO PUSH2 0x4AD JUMPI DUP1 PUSH1 0x1F LT PUSH2 0x484 JUMPI PUSH2 0x100 DUP1 DUP4 SLOAD DIV MUL DUP4 MSTORE SWAP2 PUSH1 0x20 ADD SWAP2 PUSH2 0x4AD JUMP JUMPDEST DUP3 ADD SWAP2 SWAP1 PUSH0 MSTORE PUSH1 0x20 PUSH0 KECCAK256 SWAP1 JUMPDEST DUP2 SLOAD DUP2 MSTORE SWAP1 PUSH1 0x1 ADD SWAP1 PUSH1 0x20 ADD DUP1 DUP4 GT PUSH2 0x490 JUMPI DUP3 SWAP1 SUB PUSH1 0x1F AND DUP3 ADD SWAP2 JUMPDEST POP POP POP POP POP DUP2 MSTORE PUSH1 0x20 ADD PUSH1 0x2 DUP3 ADD DUP1 SLOAD PUSH2 0x4C6 SWAP1 PUSH2 0x1812 JUMP JUMPDEST DUP1 PUSH1 0x1F ADD PUSH1 0x20 DUP1 SWAP2 DIV MUL PUSH1 0x20 ADD PUSH1 0x40 MLOAD SWAP1 DUP2 ADD PUSH1 0x40 MSTORE DUP1 SWAP3 SWAP2 SWAP1 DUP2 DUP2 MSTORE PUSH1 0x20 ADD DUP3 DUP1 SLOAD PUSH2 0x4F2 SWAP1 PUSH2 0x1812 JUMP JUMPDEST DUP1 ISZERO PUSH2 0x53D JUMPI DUP1 PUSH1 0x1F LT PUSH2 0x514 JUMPI PUSH2 0x100 DUP1 DUP4 SLOAD DIV MUL DUP4 MSTORE SWAP2 PUSH1 0x20 ADD SWAP2 PUSH2 0x53D JUMP JUMPDEST DUP3 ADD SWAP2 SWAP1 PUSH0 MSTORE PUSH1 0x20 PUSH0 KECCAK256 SWAP1 JUMPDEST DUP2 SLOAD DUP2 MSTORE SWAP1 PUSH1 0x1 ADD SWAP1 PUSH1 0x20 ADD DUP1 DUP4 GT PUSH2 0x520 JUMPI DUP3 SWAP1 SUB PUSH1 0x1F AND DUP3 ADD SWAP2 JUMPDEST POP POP POP POP POP DUP2 MSTORE PUSH1 0x20 ADD PUSH1 0x3 DUP3 ADD DUP1 SLOAD PUSH2 0x556 SWAP1 PUSH2 0x1812 JUMP JUMPDEST DUP1 PUSH1 0x1F ADD PUSH1 0x20 DUP1 SWAP2 DIV MUL PUSH1 0x20 ADD PUSH1 0x40 MLOAD SWAP1 DUP2 ADD PUSH1 0x40 MSTORE DUP1 SWAP3 SWAP2 SWAP1 DUP2 DUP2 MSTORE PUSH1 0x20 ADD DUP3 DUP1 SLOAD PUSH2 0x582 SWAP1 PUSH2 0x1812 JUMP JUMPDEST DUP1 ISZERO PUSH2 0x5CD JUMPI DUP1 PUSH1 0x1F LT PUSH2 0x5A4 JUMPI PUSH2 0x100 DUP1 DUP4 SLOAD DIV MUL DUP4 MSTORE SWAP2 PUSH1 0x20 ADD SWAP2 PUSH2 0x5CD JUMP JUMPDEST DUP3 ADD SWAP2 SWAP1 PUSH0 MSTORE PUSH1 0x20 PUSH0 KECCAK256 SWAP1 JUMPDEST DUP2 SLOAD DUP2 MSTORE SWAP1 PUSH1 0x1 ADD SWAP1 PUSH1 0x20 ADD DUP1 DUP4 GT PUSH2 0x5B0 JUMPI DUP3 SWAP1 SUB PUSH1 0x1F AND DUP3 ADD SWAP2 JUMPDEST POP POP POP POP POP DUP2 MSTORE PUSH1 0x20 ADD PUSH1 0x4 DUP3 ADD DUP1 SLOAD PUSH2 0x5E6 SWAP1 PUSH2 0x1812 JUMP JUMPDEST DUP1 PUSH1 0x1F ADD PUSH1 0x20 DUP1 SWAP2 DIV MUL PUSH1 0x20 ADD PUSH1 0x40 MLOAD SWAP1 DUP2 ADD PUSH1 0x40 MSTORE DUP1 SWAP3 SWAP2 SWAP1 DUP2 DUP2 MSTORE PUSH1 0x20 ADD DUP3 DUP1 SLOAD PUSH2 0x612 SWAP1 PUSH2 0x1812 JUMP JUMPDEST DUP1 ISZERO PUSH2 0x65D JUMPI DUP1 PUSH1 0x1F LT PUSH2 0x634 JUMPI PUSH2 0x100 DUP1 DUP4 SLOAD DIV MUL DUP4 MSTORE SWAP2 PUSH1 0x20 ADD SWAP2 PUSH2 0x65D JUMP JUMPDEST DUP3 ADD SWAP2 SWAP1 PUSH0 MSTORE PUSH1 0x20 PUSH0 KECCAK256 SWAP1 JUMPDEST DUP2 SLOAD DUP2 MSTORE SWAP1 PUSH1 0x1 ADD SWAP1 PUSH1 0x20 ADD DUP1 DUP4 GT PUSH2 0x640 JUMPI DUP3 SWAP1 SUB PUSH1 0x1F AND DUP3 ADD SWAP2 JUMPDEST POP POP POP POP POP DUP2 MSTORE PUSH1 0x20 ADD PUSH1 0x5 DUP3 ADD DUP1 SLOAD PUSH2 0x676 SWAP1 PUSH2 0x1812 JUMP JUMPDEST DUP1 PUSH1 0x1F ADD PUSH1 0x20 DUP1 SWAP2 DIV MUL PUSH1 0x20 ADD PUSH1 0x40 MLOAD SWAP1 DUP2 ADD PUSH1 0x40 MSTORE DUP1 SWAP3 SWAP2 SWAP1 DUP2 DUP2 MSTORE PUSH1 0x20 ADD DUP3 DUP1 SLOAD PUSH2 0x6A2 SWAP1 PUSH2 0x1812 JUMP JUMPDEST DUP1 ISZERO PUSH2 0x6ED JUMPI DUP1 PUSH1 0x1F LT PUSH2 0x6C4 JUMPI PUSH2 0x100 DUP1 DUP4 SLOAD DIV MUL DUP4 MSTORE SWAP2 PUSH1 0x20 ADD SWAP2 PUSH2 0x6ED JUMP JUMPDEST DUP3 ADD SWAP2 SWAP1 PUSH0 MSTORE PUSH1 0x20 PUSH0 KECCAK256 SWAP1 JUMPDEST DUP2 SLOAD DUP2 MSTORE SWAP1 PUSH1 0x1 ADD SWAP1 PUSH1 0x20 ADD DUP1 DUP4 GT PUSH2 0x6D0 JUMPI DUP3 SWAP1 SUB PUSH1 0x1F AND DUP3 ADD SWAP2 JUMPDEST POP POP POP POP POP DUP2 MSTORE PUSH1 0x20 ADD PUSH1 0x6 DUP3 ADD PUSH0 SWAP1 SLOAD SWAP1 PUSH2 0x100 EXP SWAP1 DIV PUSH8 0xFFFFFFFFFFFFFFFF AND PUSH8 0xFFFFFFFFFFFFFFFF AND PUSH8 0xFFFFFFFFFFFFFFFF AND DUP2 MSTORE PUSH1 0x20 ADD PUSH1 0x7 DUP3 ADD DUP1 SLOAD PUSH2 0x737 SWAP1 PUSH2 0x1812 JUMP JUMPDEST DUP1 PUSH1 0x1F ADD PUSH1 0x20 DUP1 SWAP2 DIV MUL PUSH1 0x20 ADD PUSH1 0x40 MLOAD SWAP1 DUP2 ADD PUSH1 0x40 MSTORE DUP1 SWAP3 SWAP2 SWAP1 DUP2 DUP2 MSTORE PUSH1 0x20 ADD DUP3 DUP1 SLOAD PUSH2 0x763 SWAP1 PUSH2 0x1812 JUMP JUMPDEST DUP1 ISZERO PUSH2 0x7AE JUMPI DUP1 PUSH1 0x1F LT PUSH2 0x785 JUMPI PUSH2 0x100 DUP1 DUP4 SLOAD DIV MUL DUP4 MSTORE SWAP2 PUSH1 0x20 ADD SWAP2 PUSH2 0x7AE JUMP JUMPDEST DUP3 ADD SWAP2 SWAP1 PUSH0 MSTORE PUSH1 0x20 PUSH0 KECCAK256 SWAP1 JUMPDEST DUP2 SLOAD DUP2 MSTORE SWAP1 PUSH1 0x1 ADD SWAP1 PUSH1 0x20 ADD DUP1 DUP4 GT PUSH2 0x791 JUMPI DUP3 SWAP1 SUB PUSH1 0x1F AND DUP3 ADD SWAP2 JUMPDEST POP POP POP POP POP DUP2 MSTORE PUSH1 0x20 ADD PUSH1 0x8 DUP3 ADD PUSH0 SWAP1 SLOAD SWAP1 PUSH2 0x100 EXP SWAP1 DIV PUSH4 0xFFFFFFFF AND PUSH4 0xFFFFFFFF AND PUSH4 0xFFFFFFFF AND DUP2 MSTORE PUSH1 0x20 ADD PUSH1 0x9 DUP3 ADD DUP1 SLOAD PUSH2 0x7EC SWAP1 PUSH2 0x1812 JUMP JUMPDEST DUP1 PUSH1 0x1F ADD PUSH1 0x20 DUP1 SWAP2 DIV MUL PUSH1 0x20 ADD PUSH1 0x40 MLOAD SWAP1 DUP2 ADD PUSH1 0x40 MSTORE DUP1 SWAP3 SWAP2 SWAP1 DUP2 DUP2 MSTORE PUSH1 0x20 ADD DUP3 DUP1 SLOAD PUSH2 0x818 SWAP1 PUSH2 0x1812 JUMP JUMPDEST DUP1 ISZERO PUSH2 0x863 JUMPI DUP1 PUSH1 0x1F LT PUSH2 0x83A JUMPI PUSH2 0x100 DUP1 DUP4 SLOAD DIV MUL DUP4 MSTORE SWAP2 PUSH1 0x20 ADD SWAP2 PUSH2 0x863 JUMP JUMPDEST DUP3 ADD SWAP2 SWAP1 PUSH0 MSTORE PUSH1 0x20 PUSH0 KECCAK256 SWAP1 JUMPDEST DUP2 SLOAD DUP2 MSTORE SWAP1 PUSH1 0x1 ADD SWAP1 PUSH1 0x20 ADD DUP1 DUP4 GT PUSH2 0x846 JUMPI DUP3 SWAP1 SUB PUSH1 0x1F AND DUP3 ADD SWAP2 JUMPDEST POP POP POP POP POP DUP2 MSTORE PUSH1 0x20 ADD PUSH1 0xA DUP3 ADD DUP1 SLOAD PUSH2 0x87C SWAP1 PUSH2 0x1812 JUMP JUMPDEST DUP1 PUSH1 0x1F ADD PUSH1 0x20 DUP1 SWAP2 DIV MUL PUSH1 0x20 ADD PUSH1 0x40 MLOAD SWAP1 DUP2 ADD PUSH1 0x40 MSTORE DUP1 SWAP3 SWAP2 SWAP1 DUP2 DUP2 MSTORE PUSH1 0x20 ADD DUP3 DUP1 SLOAD PUSH2 0x8A8 SWAP1 PUSH2 0x1812 JUMP JUMPDEST DUP1 ISZERO PUSH2 0x8F3 JUMPI DUP1 PUSH1 0x1F LT PUSH2 0x8CA JUMPI PUSH2 0x100 DUP1 DUP4 SLOAD DIV MUL DUP4 MSTORE SWAP2 PUSH1 0x20 ADD SWAP2 PUSH2 0x8F3 JUMP JUMPDEST DUP3 ADD SWAP2 SWAP1 PUSH0 MSTORE PUSH1 0x20 PUSH0 KECCAK256 SWAP1 JUMPDEST DUP2 SLOAD DUP2 MSTORE SWAP1 PUSH1 0x1 ADD SWAP1 PUSH1 0x20 ADD DUP1 DUP4 GT PUSH2 0x8D6 JUMPI DUP3 SWAP1 SUB PUSH1 0x1F AND DUP3 ADD SWAP2 JUMPDEST POP POP POP POP POP DUP2 MSTORE PUSH1 0x20 ADD PUSH1 0xB DUP3 ADD DUP1 SLOAD PUSH2 0x90C SWAP1 PUSH2 0x1812 JUMP JUMPDEST DUP1 PUSH1 0x1F ADD PUSH1 0x20 DUP1 SWAP2 DIV MUL PUSH1 0x20 ADD PUSH1 0x40 MLOAD SWAP1 DUP2 ADD PUSH1 0x40 MSTORE DUP1 SWAP3 SWAP2 SWAP1 DUP2 DUP2 MSTORE PUSH1 0x20 ADD DUP3 DUP1 SLOAD PUSH2 0x938 SWAP1 PUSH2 0x1812 JUMP JUMPDEST DUP1 ISZERO PUSH2 0x983 JUMPI DUP1 PUSH1 0x1F LT PUSH2 0x95A JUMPI PUSH2 0x100 DUP1 DUP4 SLOAD DIV MUL DUP4 MSTORE SWAP2 PUSH1 0x20 ADD SWAP2 PUSH2 0x983 JUMP JUMPDEST DUP3 ADD SWAP2 SWAP1 PUSH0 MSTORE PUSH1 0x20 PUSH0 KECCAK256 SWAP1 JUMPDEST DUP2 SLOAD DUP2 MSTORE SWAP1 PUSH1 0x1 ADD SWAP1 PUSH1 0x20 ADD DUP1 DUP4 GT PUSH2 0x966 JUMPI DUP3 SWAP1 SUB PUSH1 0x1F AND DUP3 ADD SWAP2 JUMPDEST POP POP POP POP POP DUP2 MSTORE POP POP DUP2 MSTORE PUSH1 0x20 ADD SWAP1 PUSH1 0x1 ADD SWAP1 PUSH2 0x3D4 JUMP JUMPDEST POP POP POP POP SWAP1 POP SWAP1 JUMP JUMPDEST PUSH1 0x60 PUSH1 0x1 PUSH0 SWAP1 SLOAD SWAP1 PUSH2 0x100 EXP SWAP1 DIV PUSH20 0xFFFFFFFFFFFFFFFFFFFFFFFFFFFFFFFFFFFFFFFF AND PUSH20 0xFFFFFFFFFFFFFFFFFFFFFFFFFFFFFFFFFFFFFFFF AND CALLER PUSH20 0xFFFFFFFFFFFFFFFFFFFFFFFFFFFFFFFFFFFFFFFF AND EQ PUSH2 0xA35 JUMPI PUSH1 0x40 MLOAD PUSH32 0x8C379A000000000000000000000000000000000000000000000000000000000 DUP2 MSTORE PUSH1 0x4 ADD PUSH2 0xA2C SWAP1 PUSH2 0x17C7 JUMP JUMPDEST PUSH1 0x40 MLOAD DUP1 SWAP2 SUB SWAP1 REVERT JUMPDEST PUSH0 DUP1 SLOAD DUP1 PUSH1 0x20 MUL PUSH1 0x20 ADD PUSH1 0x40 MLOAD SWAP1 DUP2 ADD PUSH1 0x40 MSTORE DUP1 SWAP3 SWAP2 SWAP1 DUP2 DUP2 MSTORE PUSH1 0x20 ADD PUSH0 SWAP1 JUMPDEST DUP3 DUP3 LT ISZERO PUSH2 0x101C JUMPI DUP4 DUP3 SWAP1 PUSH0 MSTORE PUSH1 0x20 PUSH0 KECCAK256 SWAP1 PUSH1 0xC MUL ADD PUSH1 0x40 MLOAD DUP1 PUSH2 0x180 ADD PUSH1 0x40 MSTORE SWAP1 DUP2 PUSH0 DUP3 ADD PUSH0 SWAP1 SLOAD SWAP1 PUSH2 0x100 EXP SWAP1 DIV PUSH8 0xFFFFFFFFFFFFFFFF AND PUSH8 0xFFFFFFFFFFFFFFFF AND PUSH8 0xFFFFFFFFFFFFFFFF AND DUP2 MSTORE PUSH1 0x20 ADD PUSH1 0x1 DUP3 ADD DUP1 SLOAD PUSH2 0xAB7 SWAP1 PUSH2 0x1812 JUMP JUMPDEST DUP1 PUSH1 0x1F ADD PUSH1 0x20 DUP1 SWAP2 DIV MUL PUSH1 0x20 ADD PUSH1 0x40 MLOAD SWAP1 DUP2 ADD PUSH1 0x40 MSTORE DUP1 SWAP3 SWAP2 SWAP1 DUP2 DUP2 MSTORE PUSH1 0x20 ADD DUP3 DUP1 SLOAD PUSH2 0xAE3 SWAP1 PUSH2 0x1812 JUMP JUMPDEST DUP1 ISZERO PUSH2 0xB2E JUMPI DUP1 PUSH1 0x1F LT PUSH2 0xB05 JUMPI PUSH2 0x100 DUP1 DUP4 SLOAD DIV MUL DUP4 MSTORE SWAP2 PUSH1 0x20 ADD SWAP2 PUSH2 0xB2E JUMP JUMPDEST DUP3 ADD SWAP2 SWAP1 PUSH0 MSTORE PUSH1 0x20 PUSH0 KECCAK256 SWAP1 JUMPDEST DUP2 SLOAD DUP2 MSTORE SWAP1 PUSH1 0x1 ADD SWAP1 PUSH1 0x20 ADD DUP1 DUP4 GT PUSH2 0xB11 JUMPI DUP3 SWAP1 SUB PUSH1 0x1F AND DUP3 ADD SWAP2 JUMPDEST POP POP POP POP POP DUP2 MSTORE PUSH1 0x20 ADD PUSH1 0x2 DUP3 ADD DUP1 SLOAD PUSH2 0xB47 SWAP1 PUSH2 0x1812 JUMP JUMPDEST DUP1 PUSH1 0x1F ADD PUSH1 0x20 DUP1 SWAP2 DIV MUL PUSH1 0x20 ADD PUSH1 0x40 MLOAD SWAP1 DUP2 ADD PUSH1 0x40 MSTORE DUP1 SWAP3 SWAP2 SWAP1 DUP2 DUP2 MSTORE PUSH1 0x20 ADD DUP3 DUP1 SLOAD PUSH2 0xB73 SWAP1 PUSH2 0x1812 JUMP JUMPDEST DUP1 ISZERO PUSH2 0xBBE JUMPI DUP1 PUSH1 0x1F LT PUSH2 0xB95 JUMPI PUSH2 0x100 DUP1 DUP4 SLOAD DIV MUL DUP4 MSTORE SWAP2 PUSH1 0x20 ADD SWAP2 PUSH2 0xBBE JUMP JUMPDEST DUP3 ADD SWAP2 SWAP1 PUSH0 MSTORE PUSH1 0x20 PUSH0 KECCAK256 SWAP1 JUMPDEST DUP2 SLOAD DUP2 MSTORE SWAP1 PUSH1 0x1 ADD SWAP1 PUSH1 0x20 ADD DUP1 DUP4 GT PUSH2 0xBA1 JUMPI DUP3 SWAP1 SUB PUSH1 0x1F AND DUP3 ADD SWAP2 JUMPDEST POP POP POP POP POP DUP2 MSTORE PUSH1 0x20 ADD PUSH1 0x3 DUP3 ADD DUP1 SLOAD PUSH2 0xBD7 SWAP1 PUSH2 0x1812 JUMP JUMPDEST DUP1 PUSH1 0x1F ADD PUSH1 0x20 DUP1 SWAP2 DIV MUL PUSH1 0x20 ADD PUSH1 0x40 MLOAD SWAP1 DUP2 ADD PUSH1 0x40 MSTORE DUP1 SWAP3 SWAP2 SWAP1 DUP2 DUP2 MSTORE PUSH1 0x20 ADD DUP3 DUP1 SLOAD PUSH2 0xC03 SWAP1 PUSH2 0x1812 JUMP JUMPDEST DUP1 ISZERO PUSH2 0xC4E JUMPI DUP1 PUSH1 0x1F LT PUSH2 0xC25 JUMPI PUSH2 0x100 DUP1 DUP4 SLOAD DIV MUL DUP4 MSTORE SWAP2 PUSH1 0x20 ADD SWAP2 PUSH2 0xC4E JUMP JUMPDEST DUP3 ADD SWAP2 SWAP1 PUSH0 MSTORE PUSH1 0x20 PUSH0 KECCAK256 SWAP1 JUMPDEST DUP2 SLOAD DUP2 MSTORE SWAP1 PUSH1 0x1 ADD SWAP1 PUSH1 0x20 ADD DUP1 DUP4 GT PUSH2 0xC31 JUMPI DUP3 SWAP1 SUB PUSH1 0x1F AND DUP3 ADD SWAP2 JUMPDEST POP POP POP POP POP DUP2 MSTORE PUSH1 0x20 ADD PUSH1 0x4 DUP3 ADD DUP1 SLOAD PUSH2 0xC67 SWAP1 PUSH2 0x1812 JUMP JUMPDEST DUP1 PUSH1 0x1F ADD PUSH1 0x20 DUP1 SWAP2 DIV MUL PUSH1 0x20 ADD PUSH1 0x40 MLOAD SWAP1 DUP2 ADD PUSH1 0x40 MSTORE DUP1 SWAP3 SWAP2 SWAP1 DUP2 DUP2 MSTORE PUSH1 0x20 ADD DUP3 DUP1 SLOAD PUSH2 0xC93 SWAP1 PUSH2 0x1812 JUMP JUMPDEST DUP1 ISZERO PUSH2 0xCDE JUMPI DUP1 PUSH1 0x1F LT PUSH2 0xCB5 JUMPI PUSH2 0x100 DUP1 DUP4 SLOAD DIV MUL DUP4 MSTORE SWAP2 PUSH1 0x20 ADD SWAP2 PUSH2 0xCDE JUMP JUMPDEST DUP3 ADD SWAP2 SWAP1 PUSH0 MSTORE PUSH1 0x20 PUSH0 KECCAK256 SWAP1 JUMPDEST DUP2 SLOAD DUP2 MSTORE SWAP1 PUSH1 0x1 ADD SWAP1 PUSH1 0x20 ADD DUP1 DUP4 GT PUSH2 0xCC1 JUMPI DUP3 SWAP1 SUB PUSH1 0x1F AND DUP3 ADD SWAP2 JUMPDEST POP POP POP POP POP DUP2 MSTORE PUSH1 0x20 ADD PUSH1 0x5 DUP3 ADD DUP1 SLOAD PUSH2 0xCF7 SWAP1 PUSH2 0x1812 JUMP JUMPDEST DUP1 PUSH1 0x1F ADD PUSH1 0x20 DUP1 SWAP2 DIV MUL PUSH1 0x20 ADD PUSH1 0x40 MLOAD SWAP1 DUP2 ADD PUSH1 0x40 MSTORE DUP1 SWAP3 SWAP2 SWAP1 DUP2 DUP2 MSTORE PUSH1 0x20 ADD DUP3 DUP1 SLOAD PUSH2 0xD23 SWAP1 PUSH2 0x1812 JUMP JUMPDEST DUP1 ISZERO PUSH2 0xD6E JUMPI DUP1 PUSH1 0x1F LT PUSH2 0xD45 JUMPI PUSH2 0x100 DUP1 DUP4 SLOAD DIV MUL DUP4 MSTORE SWAP2 PUSH1 0x20 ADD SWAP2 PUSH2 0xD6E JUMP JUMPDEST DUP3 ADD SWAP2 SWAP1 PUSH0 MSTORE PUSH1 0x20 PUSH0 KECCAK256 SWAP1 JUMPDEST DUP2 SLOAD DUP2 MSTORE SWAP1 PUSH1 0x1 ADD SWAP1 PUSH1 0x20 ADD DUP1 DUP4 GT PUSH2 0xD51 JUMPI DUP3 SWAP1 SUB PUSH1 0x1F AND DUP3 ADD SWAP2 JUMPDEST POP POP POP POP POP DUP2 MSTORE PUSH1 0x20 ADD PUSH1 0x6 DUP3 ADD PUSH0 SWAP1 SLOAD SWAP1 PUSH2 0x100 EXP SWAP1 DIV PUSH8 0xFFFFFFFFFFFFFFFF AND PUSH8 0xFFFFFFFFFFFFFFFF AND PUSH8 0xFFFFFFFFFFFFFFFF AND DUP2 MSTORE PUSH1 0x20 ADD PUSH1 0x7 DUP3 ADD DUP1 SLOAD PUSH2 0xDB8 SWAP1 PUSH2 0x1812 JUMP JUMPDEST DUP1 PUSH1 0x1F ADD PUSH1 0x20 DUP1 SWAP2 DIV MUL PUSH1 0x20 ADD PUSH1 0x40 MLOAD SWAP1 DUP2 ADD PUSH1 0x40 MSTORE DUP1 SWAP3 SWAP2 SWAP1 DUP2 DUP2 MSTORE PUSH1 0x20 ADD DUP3 DUP1 SLOAD PUSH2 0xDE4 SWAP1 PUSH2 0x1812 JUMP JUMPDEST DUP1 ISZERO PUSH2 0xE2F JUMPI DUP1 PUSH1 0x1F LT PUSH2 0xE06 JUMPI PUSH2 0x100 DUP1 DUP4 SLOAD DIV MUL DUP4 MSTORE SWAP2 PUSH1 0x20 ADD SWAP2 PUSH2 0xE2F JUMP JUMPDEST DUP3 ADD SWAP2 SWAP1 PUSH0 MSTORE PUSH1 0x20 PUSH0 KECCAK256 SWAP1 JUMPDEST DUP2 SLOAD DUP2 MSTORE SWAP1 PUSH1 0x1 ADD SWAP1 PUSH1 0x20 ADD DUP1 DUP4 GT PUSH2 0xE12 JUMPI DUP3 SWAP1 SUB PUSH1 0x1F AND DUP3 ADD SWAP2 JUMPDEST POP POP POP POP POP DUP2 MSTORE PUSH1 0x20 ADD PUSH1 0x8 DUP3 ADD PUSH0 SWAP1 SLOAD SWAP1 PUSH2 0x100 EXP SWAP1 DIV PUSH4 0xFFFFFFFF AND PUSH4 0xFFFFFFFF AND PUSH4 0xFFFFFFFF AND DUP2 MSTORE PUSH1 0x20 ADD PUSH1 0x9 DUP3 ADD DUP1 SLOAD PUSH2 0xE6D SWAP1 PUSH2 0x1812 JUMP JUMPDEST DUP1 PUSH1 0x1F ADD PUSH1 0x20 DUP1 SWAP2 DIV MUL PUSH1 0x20 ADD PUSH1 0x40 MLOAD SWAP1 DUP2 ADD PUSH1 0x40 MSTORE DUP1 SWAP3 SWAP2 SWAP1 DUP2 DUP2 MSTORE PUSH1 0x20 ADD DUP3 DUP1 SLOAD PUSH2 0xE99 SWAP1 PUSH2 0x1812 JUMP JUMPDEST DUP1 ISZERO PUSH2 0xEE4 JUMPI DUP1 PUSH1 0x1F LT PUSH2 0xEBB JUMPI PUSH2 0x100 DUP1 DUP4 SLOAD DIV MUL DUP4 MSTORE SWAP2 PUSH1 0x20 ADD SWAP2 PUSH2 0xEE4 JUMP JUMPDEST DUP3 ADD SWAP2 SWAP1 PUSH0 MSTORE PUSH1 0x20 PUSH0 KECCAK256 SWAP1 JUMPDEST DUP2 SLOAD DUP2 MSTORE SWAP1 PUSH1 0x1 ADD SWAP1 PUSH1 0x20 ADD DUP1 DUP4 GT PUSH2 0xEC7 JUMPI DUP3 SWAP1 SUB PUSH1 0x1F AND DUP3 ADD SWAP2 JUMPDEST POP POP POP POP POP DUP2 MSTORE PUSH1 0x20 ADD PUSH1 0xA DUP3 ADD DUP1 SLOAD PUSH2 0xEFD SWAP1 PUSH2 0x1812 JUMP JUMPDEST DUP1 PUSH1 0x1F ADD PUSH1 0x20 DUP1 SWAP2 DIV MUL PUSH1 0x20 ADD PUSH1 0x40 MLOAD SWAP1 DUP2 ADD PUSH1 0x40 MSTORE DUP1 SWAP3 SWAP2 SWAP1 DUP2 DUP2 MSTORE PUSH1 0x20 ADD DUP3 DUP1 SLOAD PUSH2 0xF29 SWAP1 PUSH2 0x1812 JUMP JUMPDEST DUP1 ISZERO PUSH2 0xF74 JUMPI DUP1 PUSH1 0x1F LT PUSH2 0xF4B JUMPI PUSH2 0x100 DUP1 DUP4 SLOAD DIV MUL DUP4 MSTORE SWAP2 PUSH1 0x20 ADD SWAP2 PUSH2 0xF74 JUMP JUMPDEST DUP3 ADD SWAP2 SWAP1 PUSH0 MSTORE PUSH1 0x20 PUSH0 KECCAK256 SWAP1 JUMPDEST DUP2 SLOAD DUP2 MSTORE SWAP1 PUSH1 0x1 ADD SWAP1 PUSH1 0x20 ADD DUP1 DUP4 GT PUSH2 0xF57 JUMPI DUP3 SWAP1 SUB PUSH1 0x1F AND DUP3 ADD SWAP2 JUMPDEST POP POP POP POP POP DUP2 MSTORE PUSH1 0x20 ADD PUSH1 0xB DUP3 ADD DUP1 SLOAD PUSH2 0xF8D SWAP1 PUSH2 0x1812 JUMP JUMPDEST DUP1 PUSH1 0x1F ADD PUSH1 0x20 DUP1 SWAP2 DIV MUL PUSH1 0x20 ADD PUSH1 0x40 MLOAD SWAP1 DUP2 ADD PUSH1 0x40 MSTORE DUP1 SWAP3 SWAP2 SWAP1 DUP2 DUP2 MSTORE PUSH1 0x20 ADD DUP3 DUP1 SLOAD PUSH2 0xFB9 SWAP1 PUSH2 0x1812 JUMP JUMPDEST DUP1 ISZERO PUSH2 0x1004 JUMPI DUP1 PUSH1 0x1F LT PUSH2 0xFDB JUMPI PUSH2 0x100 DUP1 DUP4 SLOAD DIV MUL DUP4 MSTORE SWAP2 PUSH1 0x20 ADD SWAP2 PUSH2 0x1004 JUMP JUMPDEST DUP3 ADD SWAP2 SWAP1 PUSH0 MSTORE PUSH1 0x20 PUSH0 KECCAK256 SWAP1 JUMPDEST DUP2 SLOAD DUP2 MSTORE SWAP1 PUSH1 0x1 ADD SWAP1 PUSH1 0x20 ADD DUP1 DUP4 GT PUSH2 0xFE7 JUMPI DUP3 SWAP1 SUB PUSH1 0x1F AND DUP3 ADD SWAP2 JUMPDEST POP POP POP POP POP DUP2 MSTORE POP POP DUP2 MSTORE PUSH1 0x20 ADD SWAP1 PUSH1 0x1 ADD SWAP1 PUSH2 0xA55 JUMP JUMPDEST POP POP POP POP SWAP1 POP SWAP1 JUMP JUMPDEST PUSH0 DUP2 SWAP1 POP SWAP2 SWAP1 POP JUMP JUMPDEST PUSH2 0x1037 DUP2 PUSH2 0x1025 JUMP JUMPDEST DUP3 MSTORE POP POP JUMP JUMPDEST PUSH0 PUSH1 0x20 DUP3 ADD SWAP1 POP PUSH2 0x1050 PUSH0 DUP4 ADD DUP5 PUSH2 0x102E JUMP JUMPDEST SWAP3 SWAP2 POP POP JUMP JUMPDEST PUSH0 PUSH1 0x40 MLOAD SWAP1 POP SWAP1 JUMP JUMPDEST PUSH0 PUSH0 REVERT JUMPDEST PUSH0 PUSH0 REVERT JUMPDEST PUSH0 PUSH0 REVERT JUMPDEST PUSH0 PUSH1 0x1F NOT PUSH1 0x1F DUP4 ADD AND SWAP1 POP SWAP2 SWAP1 POP JUMP JUMPDEST PUSH32 0x4E487B7100000000000000000000000000000000000000000000000000000000 PUSH0 MSTORE PUSH1 0x41 PUSH1 0x4 MSTORE PUSH1 0x24 PUSH0 REVERT JUMPDEST PUSH2 0x10B1 DUP3 PUSH2 0x106B JUMP JUMPDEST DUP2 ADD DUP2 DUP2 LT PUSH8 0xFFFFFFFFFFFFFFFF DUP3 GT OR ISZERO PUSH2 0x10D0 JUMPI PUSH2 0x10CF PUSH2 0x107B JUMP JUMPDEST JUMPDEST DUP1 PUSH1 0x40 MSTORE POP POP POP JUMP JUMPDEST PUSH0 PUSH2 0x10E2 PUSH2 0x1056 JUMP JUMPDEST SWAP1 POP PUSH2 0x10EE DUP3 DUP3 PUSH2 0x10A8 JUMP JUMPDEST SWAP2 SWAP1 POP JUMP JUMPDEST PUSH0 PUSH0 REVERT JUMPDEST PUSH0 PUSH8 0xFFFFFFFFFFFFFFFF DUP3 AND SWAP1 POP SWAP2 SWAP1 POP JUMP JUMPDEST PUSH2 0x1113 DUP2 PUSH2 0x10F7 JUMP JUMPDEST DUP2 EQ PUSH2 0x111D JUMPI PUSH0 PUSH0 REVERT JUMPDEST POP JUMP JUMPDEST PUSH0 DUP2 CALLDATALOAD SWAP1 POP PUSH2 0x112E DUP2 PUSH2 0x110A JUMP JUMPDEST SWAP3 SWAP2 POP POP JUMP JUMPDEST PUSH0 PUSH0 REVERT JUMPDEST PUSH0 PUSH0 REVERT JUMPDEST PUSH0 PUSH8 0xFFFFFFFFFFFFFFFF DUP3 GT ISZERO PUSH2 0x1156 JUMPI PUSH2 0x1155 PUSH2 0x107B JUMP JUMPDEST JUMPDEST PUSH2 0x115F DUP3 PUSH2 0x106B JUMP JUMPDEST SWAP1 POP PUSH1 0x20 DUP2 ADD SWAP1 POP SWAP2 SWAP1 POP JUMP JUMPDEST DUP3 DUP2 DUP4 CALLDATACOPY PUSH0 DUP4 DUP4 ADD MSTORE POP POP POP JUMP JUMPDEST PUSH0 PUSH2 0x118C PUSH2 0x1187 DUP5 PUSH2 0x113C JUMP JUMPDEST PUSH2 0x10D9 JUMP JUMPDEST SWAP1 POP DUP3 DUP2 MSTORE PUSH1 0x20 DUP2 ADD DUP5 DUP5 DUP5 ADD GT ISZERO PUSH2 0x11A8 JUMPI PUSH2 0x11A7 PUSH2 0x1138 JUMP JUMPDEST JUMPDEST PUSH2 0x11B3 DUP5 DUP3 DUP6 PUSH2 0x116C JUMP JUMPDEST POP SWAP4 SWAP3 POP POP POP JUMP JUMPDEST PUSH0 DUP3 PUSH1 0x1F DUP4 ADD SLT PUSH2 0x11CF JUMPI PUSH2 0x11CE PUSH2 0x1134 JUMP JUMPDEST JUMPDEST DUP2 CALLDATALOAD PUSH2 0x11DF DUP5 DUP3 PUSH1 0x20 DUP7 ADD PUSH2 0x117A JUMP JUMPDEST SWAP2 POP POP SWAP3 SWAP2 POP POP JUMP JUMPDEST PUSH0 PUSH4 0xFFFFFFFF DUP3 AND SWAP1 POP SWAP2 SWAP1 POP JUMP JUMPDEST PUSH2 0x1200 DUP2 PUSH2 0x11E8 JUMP JUMPDEST DUP2 EQ PUSH2 0x120A JUMPI PUSH0 PUSH0 REVERT JUMPDEST POP JUMP JUMPDEST PUSH0 DUP2 CALLDATALOAD SWAP1 POP PUSH2 0x121B DUP2 PUSH2 0x11F7 JUMP JUMPDEST SWAP3 SWAP2 POP POP JUMP JUMPDEST PUSH0 PUSH2 0x180 DUP3 DUP5 SUB SLT ISZERO PUSH2 0x1237 JUMPI PUSH2 0x1236 PUSH2 0x1067 JUMP JUMPDEST JUMPDEST PUSH2 0x1242 PUSH2 0x180 PUSH2 0x10D9 JUMP JUMPDEST SWAP1 POP PUSH0 PUSH2 0x1251 DUP5 DUP3 DUP6 ADD PUSH2 0x1120 JUMP JUMPDEST PUSH0 DUP4 ADD MSTORE POP PUSH1 0x20 DUP3 ADD CALLDATALOAD PUSH8 0xFFFFFFFFFFFFFFFF DUP2 GT ISZERO PUSH2 0x1274 JUMPI PUSH2 0x1273 PUSH2 0x10F3 JUMP JUMPDEST JUMPDEST PUSH2 0x1280 DUP5 DUP3 DUP6 ADD PUSH2 0x11BB JUMP JUMPDEST PUSH1 0x20 DUP4 ADD MSTORE POP PUSH1 0x40 DUP3 ADD CALLDATALOAD PUSH8 0xFFFFFFFFFFFFFFFF DUP2 GT ISZERO PUSH2 0x12A4 JUMPI PUSH2 0x12A3 PUSH2 0x10F3 JUMP JUMPDEST JUMPDEST PUSH2 0x12B0 DUP5 DUP3 DUP6 ADD PUSH2 0x11BB JUMP JUMPDEST PUSH1 0x40 DUP4 ADD MSTORE POP PUSH1 0x60 DUP3 ADD CALLDATALOAD PUSH8 0xFFFFFFFFFFFFFFFF DUP2 GT ISZERO PUSH2 0x12D4 JUMPI PUSH2 0x12D3 PUSH2 0x10F3 JUMP JUMPDEST JUMPDEST PUSH2 0x12E0 DUP5 DUP3 DUP6 ADD PUSH2 0x11BB JUMP JUMPDEST PUSH1 0x60 DUP4 ADD MSTORE POP PUSH1 0x80 DUP3 ADD CALLDATALOAD PUSH8 0xFFFFFFFFFFFFFFFF DUP2 GT ISZERO PUSH2 0x1304 JUMPI PUSH2 0x1303 PUSH2 0x10F3 JUMP JUMPDEST JUMPDEST PUSH2 0x1310 DUP5 DUP3 DUP6 ADD PUSH2 0x11BB JUMP JUMPDEST PUSH1 0x80 DUP4 ADD MSTORE POP PUSH1 0xA0 DUP3 ADD CALLDATALOAD PUSH8 0xFFFFFFFFFFFFFFFF DUP2 GT ISZERO PUSH2 0x1334 JUMPI PUSH2 0x1333 PUSH2 0x10F3 JUMP JUMPDEST JUMPDEST PUSH2 0x1340 DUP5 DUP3 DUP6 ADD PUSH2 0x11BB JUMP JUMPDEST PUSH1 0xA0 DUP4 ADD MSTORE POP PUSH1 0xC0 PUSH2 0x1354 DUP5 DUP3 DUP6 ADD PUSH2 0x1120 JUMP JUMPDEST PUSH1 0xC0 DUP4 ADD MSTORE POP PUSH1 0xE0 DUP3 ADD CALLDATALOAD PUSH8 0xFFFFFFFFFFFFFFFF DUP2 GT ISZERO PUSH2 0x1378 JUMPI PUSH2 0x1377 PUSH2 0x10F3 JUMP JUMPDEST JUMPDEST PUSH2 0x1384 DUP5 DUP3 DUP6 ADD PUSH2 0x11BB JUMP JUMPDEST PUSH1 0xE0 DUP4 ADD MSTORE POP PUSH2 0x100 PUSH2 0x1399 DUP5 DUP3 DUP6 ADD PUSH2 0x120D JUMP JUMPDEST PUSH2 0x100 DUP4 ADD MSTORE POP PUSH2 0x120 DUP3 ADD CALLDATALOAD PUSH8 0xFFFFFFFFFFFFFFFF DUP2 GT ISZERO PUSH2 0x13BF JUMPI PUSH2 0x13BE PUSH2 0x10F3 JUMP JUMPDEST JUMPDEST PUSH2 0x13CB DUP5 DUP3 DUP6 ADD PUSH2 0x11BB JUMP JUMPDEST PUSH2 0x120 DUP4 ADD MSTORE POP PUSH2 0x140 DUP3 ADD CALLDATALOAD PUSH8 0xFFFFFFFFFFFFFFFF DUP2 GT ISZERO PUSH2 0x13F1 JUMPI PUSH2 0x13F0 PUSH2 0x10F3 JUMP JUMPDEST JUMPDEST PUSH2 0x13FD DUP5 DUP3 DUP6 ADD PUSH2 0x11BB JUMP JUMPDEST PUSH2 0x140 DUP4 ADD MSTORE POP PUSH2 0x160 DUP3 ADD CALLDATALOAD PUSH8 0xFFFFFFFFFFFFFFFF DUP2 GT ISZERO PUSH2 0x1423 JUMPI PUSH2 0x1422 PUSH2 0x10F3 JUMP JUMPDEST JUMPDEST PUSH2 0x142F DUP5 DUP3 DUP6 ADD PUSH2 0x11BB JUMP JUMPDEST PUSH2 0x160 DUP4 ADD MSTORE POP SWAP3 SWAP2 POP POP JUMP JUMPDEST PUSH0 PUSH1 0x20 DUP3 DUP5 SUB SLT ISZERO PUSH2 0x1451 JUMPI PUSH2 0x1450 PUSH2 0x105F JUMP JUMPDEST JUMPDEST PUSH0 DUP3 ADD CALLDATALOAD PUSH8 0xFFFFFFFFFFFFFFFF DUP2 GT ISZERO PUSH2 0x146E JUMPI PUSH2 0x146D PUSH2 0x1063 JUMP JUMPDEST JUMPDEST PUSH2 0x147A DUP5 DUP3 DUP6 ADD PUSH2 0x1221 JUMP JUMPDEST SWAP2 POP POP SWAP3 SWAP2 POP POP JUMP JUMPDEST PUSH0 PUSH20 0xFFFFFFFFFFFFFFFFFFFFFFFFFFFFFFFFFFFFFFFF DUP3 AND SWAP1 POP SWAP2 SWAP1 POP JUMP JUMPDEST PUSH0 PUSH2 0x14AC DUP3 PUSH2 0x1483 JUMP JUMPDEST SWAP1 POP SWAP2 SWAP1 POP JUMP JUMPDEST PUSH2 0x14BC DUP2 PUSH2 0x14A2 JUMP JUMPDEST DUP3 MSTORE POP POP JUMP JUMPDEST PUSH0 PUSH1 0x20 DUP3 ADD SWAP1 POP PUSH2 0x14D5 PUSH0 DUP4 ADD DUP5 PUSH2 0x14B3 JUMP JUMPDEST SWAP3 SWAP2 POP POP JUMP JUMPDEST PUSH0 DUP2 MLOAD SWAP1 POP SWAP2 SWAP1 POP JUMP JUMPDEST PUSH0 DUP3 DUP3 MSTORE PUSH1 0x20 DUP3 ADD SWAP1 POP SWAP3 SWAP2 POP POP JUMP JUMPDEST PUSH0 DUP2 SWAP1 POP PUSH1 0x20 DUP3 ADD SWAP1 POP SWAP2 SWAP1 POP JUMP JUMPDEST PUSH2 0x150D DUP2 PUSH2 0x10F7 JUMP JUMPDEST DUP3 MSTORE POP POP JUMP JUMPDEST PUSH0 DUP2 MLOAD SWAP1 POP SWAP2 SWAP1 POP JUMP JUMPDEST PUSH0 DUP3 DUP3 MSTORE PUSH1 0x20 DUP3 ADD SWAP1 POP SWAP3 SWAP2 POP POP JUMP JUMPDEST DUP3 DUP2 DUP4 MCOPY PUSH0 DUP4 DUP4 ADD MSTORE POP POP POP JUMP JUMPDEST PUSH0 PUSH2 0x1545 DUP3 PUSH2 0x1513 JUMP JUMPDEST PUSH2 0x154F DUP2 DUP6 PUSH2 0x151D JUMP JUMPDEST SWAP4 POP PUSH2 0x155F DUP2 DUP6 PUSH1 0x20 DUP7 ADD PUSH2 0x152D JUMP JUMPDEST PUSH2 0x1568 DUP2 PUSH2 0x106B JUMP JUMPDEST DUP5 ADD SWAP2 POP POP SWAP3 SWAP2 POP POP JUMP JUMPDEST PUSH2 0x157C DUP2 PUSH2 0x11E8 JUMP JUMPDEST DUP3 MSTORE POP POP JUMP JUMPDEST PUSH0 PUSH2 0x180 DUP4 ADD PUSH0 DUP4 ADD MLOAD PUSH2 0x1598 PUSH0 DUP7 ADD DUP3 PUSH2 0x1504 JUMP JUMPDEST POP PUSH1 0x20 DUP4 ADD MLOAD DUP5 DUP3 SUB PUSH1 0x20 DUP7 ADD MSTORE PUSH2 0x15B0 DUP3 DUP3 PUSH2 0x153B JUMP JUMPDEST SWAP2 POP POP PUSH1 0x40 DUP4 ADD MLOAD DUP5 DUP3 SUB PUSH1 0x40 DUP7 ADD MSTORE PUSH2 0x15CA DUP3 DUP3 PUSH2 0x153B JUMP JUMPDEST SWAP2 POP POP PUSH1 0x60 DUP4 ADD MLOAD DUP5 DUP3 SUB PUSH1 0x60 DUP7 ADD MSTORE PUSH2 0x15E4 DUP3 DUP3 PUSH2 0x153B JUMP JUMPDEST SWAP2 POP POP PUSH1 0x80 DUP4 ADD MLOAD DUP5 DUP3 SUB PUSH1 0x80 DUP7 ADD MSTORE PUSH2 0x15FE DUP3 DUP3 PUSH2 0x153B JUMP JUMPDEST SWAP2 POP POP PUSH1 0xA0 DUP4 ADD MLOAD DUP5 DUP3 SUB PUSH1 0xA0 DUP7 ADD MSTORE PUSH2 0x1618 DUP3 DUP3 PUSH2 0x153B JUMP JUMPDEST SWAP2 POP POP PUSH1 0xC0 DUP4 ADD MLOAD PUSH2 0x162D PUSH1 0xC0 DUP7 ADD DUP3 PUSH2 0x1504 JUMP JUMPDEST POP PUSH1 0xE0 DUP4 ADD MLOAD DUP5 DUP3 SUB PUSH1 0xE0 DUP7 ADD MSTORE PUSH2 0x1645 DUP3 DUP3 PUSH2 0x153B JUMP JUMPDEST SWAP2 POP POP PUSH2 0x100 DUP4 ADD MLOAD PUSH2 0x165C PUSH2 0x100 DUP7 ADD DUP3 PUSH2 0x1573 JUMP JUMPDEST POP PUSH2 0x120 DUP4 ADD MLOAD DUP5 DUP3 SUB PUSH2 0x120 DUP7 ADD MSTORE PUSH2 0x1676 DUP3 DUP3 PUSH2 0x153B JUMP JUMPDEST SWAP2 POP POP PUSH2 0x140 DUP4 ADD MLOAD DUP5 DUP3 SUB PUSH2 0x140 DUP7 ADD MSTORE PUSH2 0x1692 DUP3 DUP3 PUSH2 0x153B JUMP JUMPDEST SWAP2 POP POP PUSH2 0x160 DUP4 ADD MLOAD DUP5 DUP3 SUB PUSH2 0x160 DUP7 ADD MSTORE PUSH2 0x16AE DUP3 DUP3 PUSH2 0x153B JUMP JUMPDEST SWAP2 POP POP DUP1 SWAP2 POP POP SWAP3 SWAP2 POP POP JUMP JUMPDEST PUSH0 PUSH2 0x16C6 DUP4 DUP4 PUSH2 0x1582 JUMP JUMPDEST SWAP1 POP SWAP3 SWAP2 POP POP JUMP JUMPDEST PUSH0 PUSH1 0x20 DUP3 ADD SWAP1 POP SWAP2 SWAP1 POP JUMP JUMPDEST PUSH0 PUSH2 0x16E4 DUP3 PUSH2 0x14DB JUMP JUMPDEST PUSH2 0x16EE DUP2 DUP6 PUSH2 0x14E5 JUMP JUMPDEST SWAP4 POP DUP4 PUSH1 0x20 DUP3 MUL DUP6 ADD PUSH2 0x1700 DUP6 PUSH2 0x14F5 JUMP JUMPDEST DUP1 PUSH0 JUMPDEST DUP6 DUP2 LT ISZERO PUSH2 0x173B JUMPI DUP5 DUP5 SUB DUP10 MSTORE DUP2 MLOAD PUSH2 0x171C DUP6 DUP3 PUSH2 0x16BB JUMP JUMPDEST SWAP5 POP PUSH2 0x1727 DUP4 PUSH2 0x16CE JUMP JUMPDEST SWAP3 POP PUSH1 0x20 DUP11 ADD SWAP10 POP POP PUSH1 0x1 DUP2 ADD SWAP1 POP PUSH2 0x1703 JUMP JUMPDEST POP DUP3 SWAP8 POP DUP8 SWAP6 POP POP POP POP POP POP SWAP3 SWAP2 POP POP JUMP JUMPDEST PUSH0 PUSH1 0x20 DUP3 ADD SWAP1 POP DUP2 DUP2 SUB PUSH0 DUP4 ADD MSTORE PUSH2 0x1765 DUP2 DUP5 PUSH2 0x16DA JUMP JUMPDEST SWAP1 POP SWAP3 SWAP2 POP POP JUMP JUMPDEST PUSH0 DUP3 DUP3 MSTORE PUSH1 0x20 DUP3 ADD SWAP1 POP SWAP3 SWAP2 POP POP JUMP JUMPDEST PUSH32 0x4E6F7420666163746F7279000000000000000000000000000000000000000000 PUSH0 DUP3 ADD MSTORE POP JUMP JUMPDEST PUSH0 PUSH2 0x17B1 PUSH1 0xB DUP4 PUSH2 0x176D JUMP JUMPDEST SWAP2 POP PUSH2 0x17BC DUP3 PUSH2 0x177D JUMP JUMPDEST PUSH1 0x20 DUP3 ADD SWAP1 POP SWAP2 SWAP1 POP JUMP JUMPDEST PUSH0 PUSH1 0x20 DUP3 ADD SWAP1 POP DUP2 DUP2 SUB PUSH0 DUP4 ADD MSTORE PUSH2 0x17DE DUP2 PUSH2 0x17A5 JUMP JUMPDEST SWAP1 POP SWAP2 SWAP1 POP JUMP JUMPDEST PUSH32 0x4E487B7100000000000000000000000000000000000000000000000000000000 PUSH0 MSTORE PUSH1 0x22 PUSH1 0x4 MSTORE PUSH1 0x24 PUSH0 REVERT JUMPDEST PUSH0 PUSH1 0x2 DUP3 DIV SWAP1 POP PUSH1 0x1 DUP3 AND DUP1 PUSH2 0x1829 JUMPI PUSH1 0x7F DUP3 AND SWAP2 POP JUMPDEST PUSH1 0x20 DUP3 LT DUP2 SUB PUSH2 0x183C JUMPI PUSH2 0x183B PUSH2 0x17E5 JUMP JUMPDEST JUMPDEST POP SWAP2 SWAP1 POP JUMP JUMPDEST PUSH0 DUP2 SWAP1 POP DUP2 PUSH0 MSTORE PUSH1 0x20 PUSH0 KECCAK256 SWAP1 POP SWAP2 SWAP1 POP JUMP JUMPDEST PUSH0 PUSH1 0x20 PUSH1 0x1F DUP4 ADD DIV SWAP1 POP SWAP2 SWAP1 POP JUMP JUMPDEST PUSH0 DUP3 DUP3 SHL SWAP1 POP SWAP3 SWAP2 POP POP JUMP JUMPDEST PUSH0 PUSH1 0x8 DUP4 MUL PUSH2 0x189E PUSH32 0xFFFFFFFFFFFFFFFFFFFFFFFFFFFFFFFFFFFFFFFFFFFFFFFFFFFFFFFFFFFFFFFF DUP3 PUSH2 0x1863 JUMP JUMPDEST PUSH2 0x18A8 DUP7 DUP4 PUSH2 0x1863 JUMP JUMPDEST SWAP6 POP DUP1 NOT DUP5 AND SWAP4 POP DUP1 DUP7 AND DUP5 OR SWAP3 POP POP POP SWAP4 SWAP3 POP POP POP JUMP JUMPDEST PUSH0 DUP2 SWAP1 POP SWAP2 SWAP1 POP JUMP JUMPDEST PUSH0 PUSH2 0x18E3 PUSH2 0x18DE PUSH2 0x18D9 DUP5 PUSH2 0x1025 JUMP JUMPDEST PUSH2 0x18C0 JUMP JUMPDEST PUSH2 0x1025 JUMP JUMPDEST SWAP1 POP SWAP2 SWAP1 POP JUMP JUMPDEST PUSH0 DUP2 SWAP1 POP SWAP2 SWAP1 POP JUMP JUMPDEST PUSH2 0x18FC DUP4 PUSH2 0x18C9 JUMP JUMPDEST PUSH2 0x1910 PUSH2 0x1908 DUP3 PUSH2 0x18EA JUMP JUMPDEST DUP5 DUP5 SLOAD PUSH2 0x186F JUMP JUMPDEST DUP3 SSTORE POP POP POP POP JUMP JUMPDEST PUSH0 PUSH0 SWAP1 POP SWAP1 JUMP JUMPDEST PUSH2 0x1927 PUSH2 0x1918 JUMP JUMPDEST PUSH2 0x1932 DUP2 DUP5 DUP5 PUSH2 0x18F3 JUMP JUMPDEST POP POP POP JUMP JUMPDEST JUMPDEST DUP2 DUP2 LT ISZERO PUSH2 0x1955 JUMPI PUSH2 0x194A PUSH0 DUP3 PUSH2 0x191F JUMP JUMPDEST PUSH1 0x1 DUP2 ADD SWAP1 POP PUSH2 0x1938 JUMP JUMPDEST POP POP JUMP JUMPDEST PUSH1 0x1F DUP3 GT ISZERO PUSH2 0x199A JUMPI PUSH2 0x196B DUP2 PUSH2 0x1842 JUMP JUMPDEST PUSH2 0x1974 DUP5 PUSH2 0x1854 JUMP JUMPDEST DUP2 ADD PUSH1 0x20 DUP6 LT ISZERO PUSH2 0x1983 JUMPI DUP2 SWAP1 POP JUMPDEST PUSH2 0x1997 PUSH2 0x198F DUP6 PUSH2 0x1854 JUMP JUMPDEST DUP4 ADD DUP3 PUSH2 0x1937 JUMP JUMPDEST POP POP JUMPDEST POP POP POP JUMP JUMPDEST PUSH0 DUP3 DUP3 SHR SWAP1 POP SWAP3 SWAP2 POP POP JUMP JUMPDEST PUSH0 PUSH2 0x19BA PUSH0 NOT DUP5 PUSH1 0x8 MUL PUSH2 0x199F JUMP JUMPDEST NOT DUP1 DUP4 AND SWAP2 POP POP SWAP3 SWAP2 POP POP JUMP JUMPDEST PUSH0 PUSH2 0x19D2 DUP4 DUP4 PUSH2 0x19AB JUMP JUMPDEST SWAP2 POP DUP3 PUSH1 0x2 MUL DUP3 OR SWAP1 POP SWAP3 SWAP2 POP POP JUMP JUMPDEST PUSH2 0x19EB DUP3 PUSH2 0x1513 JUMP JUMPDEST PUSH8 0xFFFFFFFFFFFFFFFF DUP2 GT ISZERO PUSH2 0x1A04 JUMPI PUSH2 0x1A03 PUSH2 0x107B JUMP JUMPDEST JUMPDEST PUSH2 0x1A0E DUP3 SLOAD PUSH2 0x1812 JUMP JUMPDEST PUSH2 0x1A19 DUP3 DUP3 DUP6 PUSH2 0x1959 JUMP JUMPDEST PUSH0 PUSH1 0x20 SWAP1 POP PUSH1 0x1F DUP4 GT PUSH1 0x1 DUP2 EQ PUSH2 0x1A4A JUMPI PUSH0 DUP5 ISZERO PUSH2 0x1A38 JUMPI DUP3 DUP8 ADD MLOAD SWAP1 POP JUMPDEST PUSH2 0x1A42 DUP6 DUP3 PUSH2 0x19C7 JUMP JUMPDEST DUP7 SSTORE POP PUSH2 0x1AA9 JUMP JUMPDEST PUSH1 0x1F NOT DUP5 AND PUSH2 0x1A58 DUP7 PUSH2 0x1842 JUMP JUMPDEST PUSH0 JUMPDEST DUP3 DUP2 LT ISZERO PUSH2 0x1A7F JUMPI DUP5 DUP10 ADD MLOAD DUP3 SSTORE PUSH1 0x1 DUP3 ADD SWAP2 POP PUSH1 0x20 DUP6 ADD SWAP5 POP PUSH1 0x20 DUP2 ADD SWAP1 POP PUSH2 0x1A5A JUMP JUMPDEST DUP7 DUP4 LT ISZERO PUSH2 0x1A9C JUMPI DUP5 DUP10 ADD MLOAD PUSH2 0x1A98 PUSH1 0x1F DUP10 AND DUP3 PUSH2 0x19AB JUMP JUMPDEST DUP4 SSTORE POP JUMPDEST PUSH1 0x1 PUSH1 0x2 DUP9 MUL ADD DUP9 SSTORE POP POP POP JUMPDEST POP POP POP POP POP POP JUMP INVALID LOG2 PUSH5 0x6970667358 0x22 SLT KECCAK256 DELEGATECALL 0xDF CALLF 0xBE84 PUSH15 0x2CA9588D0FBA5E7BC76478565A8945 PUSH21 0x830B50EBF9E965BC941B64736F6C634300081E0033 LOG2 PUSH5 0x6970667358 0x22 SLT KECCAK256 SIGNEXTEND 0xB7 MOD 0xDC PC PUSH25 0xDF31EE59B2621598804AB8C1B76D008DA9EF1832BFC2971F98 LOG4 PUSH5 0x736F6C6343 STOP ADDMOD 0x1E STOP CALLER "
		},
		"gasEstimates": {
			"creation": {
				"codeDepositCost": "3689600",
				"executionCost": "4161",
				"totalCost": "3693761"
			},
			"external": {
				"createCandle(string,string,(uint64,string,string,string,string,string,uint64,string,uint32,string,string,string))": "infinite",
				"getAllCandles(string,string,uint64)": "infinite",
				"getAllRecords(string,string,uint64,uint64,uint256)": "infinite",
				"getTimeKey(uint8,uint64)": "infinite",
				"parseInterval(string)": "infinite",
				"storages(bytes32,uint8,uint64)": "3277"
			},
			"internal": {
				"computeTimeKeys(enum Interval,uint64,uint64)": "infinite"
			}
		},
		"methodIdentifiers": {
			"createCandle(string,string,(uint64,string,string,string,string,string,uint64,string,uint32,string,string,string))": "53857f9f",
			"getAllCandles(string,string,uint64)": "38993f6b",
			"getAllRecords(string,string,uint64,uint64,uint256)": "6fc78784",
			"getTimeKey(uint8,uint64)": "8d412ad2",
			"parseInterval(string)": "93faa992",
			"storages(bytes32,uint8,uint64)": "5b3cb9d4"
		}
	},
	"abi": [
		{
			"anonymous": false,
			"inputs": [
				{
					"indexed": false,
					"internalType": "string",
					"name": "symbol",
					"type": "string"
				},
				{
					"indexed": false,
					"internalType": "string",
					"name": "interval",
					"type": "string"
				},
				{
					"indexed": false,
					"internalType": "uint64",
					"name": "timeKey",
					"type": "uint64"
				},
				{
					"indexed": false,
					"internalType": "address",
					"name": "storageAddress",
					"type": "address"
				}
			],
			"name": "ShardCreated",
			"type": "event"
		},
		{
			"inputs": [
				{
					"internalType": "string",
					"name": "_symbol",
					"type": "string"
				},
				{
					"internalType": "string",
					"name": "_interval",
					"type": "string"
				},
				{
					"components": [
						{
							"internalType": "uint64",
							"name": "openTime",
							"type": "uint64"
						},
						{
							"internalType": "string",
							"name": "openPrice",
							"type": "string"
						},
						{
							"internalType": "string",
							"name": "highPrice",
							"type": "string"
						},
						{
							"internalType": "string",
							"name": "lowPrice",
							"type": "string"
						},
						{
							"internalType": "string",
							"name": "closePrice",
							"type": "string"
						},
						{
							"internalType": "string",
							"name": "volume",
							"type": "string"
						},
						{
							"internalType": "uint64",
							"name": "closeTime",
							"type": "uint64"
						},
						{
							"internalType": "string",
							"name": "quoteAssetVolume",
							"type": "string"
						},
						{
							"internalType": "uint32",
							"name": "numberOfTrades",
							"type": "uint32"
						},
						{
							"internalType": "string",
							"name": "takerBuyBaseVolume",
							"type": "string"
						},
						{
							"internalType": "string",
							"name": "takerBuyQuoteVolume",
							"type": "string"
						},
						{
							"internalType": "string",
							"name": "unused",
							"type": "string"
						}
					],
					"internalType": "struct CandleRecord",
					"name": "_candleRecord",
					"type": "tuple"
				}
			],
			"name": "createCandle",
			"outputs": [],
			"stateMutability": "nonpayable",
			"type": "function"
		},
		{
			"inputs": [
				{
					"internalType": "string",
					"name": "_symbol",
					"type": "string"
				},
				{
					"internalType": "string",
					"name": "_interval",
					"type": "string"
				},
				{
					"internalType": "uint64",
					"name": "_timekey",
					"type": "uint64"
				}
			],
			"name": "getAllCandles",
			"outputs": [
				{
					"components": [
						{
							"internalType": "uint64",
							"name": "openTime",
							"type": "uint64"
						},
						{
							"internalType": "string",
							"name": "openPrice",
							"type": "string"
						},
						{
							"internalType": "string",
							"name": "highPrice",
							"type": "string"
						},
						{
							"internalType": "string",
							"name": "lowPrice",
							"type": "string"
						},
						{
							"internalType": "string",
							"name": "closePrice",
							"type": "string"
						},
						{
							"internalType": "string",
							"name": "volume",
							"type": "string"
						},
						{
							"internalType": "uint64",
							"name": "closeTime",
							"type": "uint64"
						},
						{
							"internalType": "string",
							"name": "quoteAssetVolume",
							"type": "string"
						},
						{
							"internalType": "uint32",
							"name": "numberOfTrades",
							"type": "uint32"
						},
						{
							"internalType": "string",
							"name": "takerBuyBaseVolume",
							"type": "string"
						},
						{
							"internalType": "string",
							"name": "takerBuyQuoteVolume",
							"type": "string"
						},
						{
							"internalType": "string",
							"name": "unused",
							"type": "string"
						}
					],
					"internalType": "struct CandleRecord[]",
					"name": "",
					"type": "tuple[]"
				}
			],
			"stateMutability": "view",
			"type": "function"
		},
		{
			"inputs": [
				{
					"internalType": "string",
					"name": "_symbol",
					"type": "string"
				},
				{
					"internalType": "string",
					"name": "_interval",
					"type": "string"
				},
				{
					"internalType": "uint64",
					"name": "startTime",
					"type": "uint64"
				},
				{
					"internalType": "uint64",
					"name": "endTime",
					"type": "uint64"
				},
				{
					"internalType": "uint256",
					"name": "limit",
					"type": "uint256"
				}
			],
			"name": "getAllRecords",
			"outputs": [
				{
					"components": [
						{
							"internalType": "uint64",
							"name": "openTime",
							"type": "uint64"
						},
						{
							"internalType": "string",
							"name": "openPrice",
							"type": "string"
						},
						{
							"internalType": "string",
							"name": "highPrice",
							"type": "string"
						},
						{
							"internalType": "string",
							"name": "lowPrice",
							"type": "string"
						},
						{
							"internalType": "string",
							"name": "closePrice",
							"type": "string"
						},
						{
							"internalType": "string",
							"name": "volume",
							"type": "string"
						},
						{
							"internalType": "uint64",
							"name": "closeTime",
							"type": "uint64"
						},
						{
							"internalType": "string",
							"name": "quoteAssetVolume",
							"type": "string"
						},
						{
							"internalType": "uint32",
							"name": "numberOfTrades",
							"type": "uint32"
						},
						{
							"internalType": "string",
							"name": "takerBuyBaseVolume",
							"type": "string"
						},
						{
							"internalType": "string",
							"name": "takerBuyQuoteVolume",
							"type": "string"
						},
						{
							"internalType": "string",
							"name": "unused",
							"type": "string"
						}
					],
					"internalType": "struct CandleRecord[]",
					"name": "result",
					"type": "tuple[]"
				}
			],
			"stateMutability": "view",
			"type": "function"
		},
		{
			"inputs": [
				{
					"internalType": "enum Interval",
					"name": "interval",
					"type": "uint8"
				},
				{
					"internalType": "uint64",
					"name": "timestamp",
					"type": "uint64"
				}
			],
			"name": "getTimeKey",
			"outputs": [
				{
					"internalType": "uint64",
					"name": "",
					"type": "uint64"
				}
			],
			"stateMutability": "pure",
			"type": "function"
		},
		{
			"inputs": [
				{
					"internalType": "string",
					"name": "s",
					"type": "string"
				}
			],
			"name": "parseInterval",
			"outputs": [
				{
					"internalType": "enum Interval",
					"name": "",
					"type": "uint8"
				}
			],
			"stateMutability": "pure",
			"type": "function"
		},
		{
			"inputs": [
				{
					"internalType": "bytes32",
					"name": "",
					"type": "bytes32"
				},
				{
					"internalType": "enum Interval",
					"name": "",
					"type": "uint8"
				},
				{
					"internalType": "uint64",
					"name": "",
					"type": "uint64"
				}
			],
			"name": "storages",
			"outputs": [
				{
					"internalType": "address",
					"name": "",
					"type": "address"
				}
			],
			"stateMutability": "view",
			"type": "function"
		}
	]
}