{
	"data": {
		"bytecode": {
			"linkReferences": {},
			"object": "6080604052348015600e575f5ffd5b50613bfb8061001c5f395ff3fe608060405234801561000f575f5ffd5b506004361061007a575f3560e01c80636b4f9ddb116100585780636b4f9ddb146100ef578063abdb93ab14610130578063bed34bba14610150578063ee5f90ae14610184575f5ffd5b8063157e41f61461007e578063419ed6de146100ae57806368ba393a146100ce575b5f5ffd5b61009161008c3660046107de565b610199565b6040516001600160a01b0390911681526020015b60405180910390f35b6100c16100bc366004610817565b6101df565b6040516100a591906109f7565b6100e16100dc366004610817565b6102d6565b6040519081526020016100a5565b6100916100fd366004610817565b81516020818401810180515f8083529383019583019590952094905292909252815260409020546001600160a01b031681565b61014361013e3660046107de565b6103bc565b6040516100a59190610aa5565b61017461015e366004610abe565b8051602091820120825192909101919091201490565b60405190151581526020016100a5565b610197610192366004610b41565b610534565b005b5f5f6101a4426106b7565b90505f836040516101b59190610db8565b90815260408051602092819003830190205f9384529091529020546001600160a01b031692915050565b60605f6101eb836106b7565b90505f5f856040516101fd9190610db8565b90815260408051602092819003830190205f85815292529020546001600160a01b031690508061026b5760405162461bcd60e51b81526020600482015260146024820152731059191c995cdcc81a5cc81b9bdd08199bdd5b9960621b60448201526064015b60405180910390fd5b806001600160a01b03166348cbad6e6040518163ffffffff1660e01b81526004015f60405180830381865afa1580156102a6573d5f5f3e3d5ffd5b505050506040513d5f823e601f3d908101601f191682016040526102cd9190810190610e26565b95945050505050565b5f5f6102e1836106b7565b90505f5f856040516102f39190610db8565b90815260408051602092819003830190205f85815292529020546001600160a01b031690508061035c5760405162461bcd60e51b81526020600482015260146024820152731059191c995cdcc81a5cc81b9bdd08199bdd5b9960621b6044820152606401610262565b806001600160a01b031663be1c766b6040518163ffffffff1660e01b8152600401602060405180830381865afa158015610398573d5f5f3e3d5ffd5b505050506040513d601f19601f820116820180604052508101906102cd91906111b8565b805160609082905f816001600160401b038111156103dc576103dc6106d7565b6040519080825280601f01601f191660200182016040528015610406576020820181803683370190505b5090505f5b8281101561048c57838181518110610425576104256111cf565b6020910101516001600160f81b031916602d60f81b1461048c57838181518110610451576104516111cf565b602001015160f81c60f81b82828151811061046e5761046e6111cf565b60200101906001600160f81b03191690815f1a90535060010161040b565b5f816001600160401b038111156104a5576104a56106d7565b6040519080825280601f01601f1916602001820160405280156104cf576020820181803683370190505b5090505f5b82811015610529578381815181106104ee576104ee6111cf565b602001015160f81c60f81b82828151811061050b5761050b6111cf565b60200101906001600160f81b03191690815f1a9053506001016104d4565b509695505050505050565b5f61053e426106b7565b90505f6001600160a01b03165f836040516105599190610db8565b90815260408051602092819003830190205f85815292529020546001600160a01b031603610634575f8260405161058f906106ca565b6105999190610aa5565b604051809103905ff0801580156105b2573d5f5f3e3d5ffd5b509050805f846040516105c59190610db8565b90815260408051602092819003830181205f87815290845282902080546001600160a01b0319166001600160a01b03958616179055858152928416918301919091527ff2c7477bb143f96769da0a1f452dfc4b2dafb6bfc31c3e2f9931ec72993b6a51910160405180910390a1505b5f826040516106439190610db8565b9081526040805191829003602090810183205f8581529152205463f2523a9d60e01b82526001600160a01b03169063f2523a9d906106859086906004016111e3565b5f604051808303815f87803b15801561069c575f5ffd5b505af11580156106ae573d5f5f3e3d5ffd5b50505050505050565b5f6106c4610e10836111f5565b92915050565b6129b18061121583390190565b634e487b7160e01b5f52604160045260245ffd5b60405161022081016001600160401b038111828210171561070e5761070e6106d7565b60405290565b604051608081016001600160401b038111828210171561070e5761070e6106d7565b604051601f8201601f191681016001600160401b038111828210171561075e5761075e6106d7565b604052919050565b5f6001600160401b0382111561077e5761077e6106d7565b50601f01601f191660200190565b5f82601f83011261079b575f5ffd5b81356107ae6107a982610766565b610736565b8181528460208386010111156107c2575f5ffd5b816020850160208301375f918101602001919091529392505050565b5f602082840312156107ee575f5ffd5b81356001600160401b03811115610803575f5ffd5b61080f8482850161078c565b949350505050565b5f5f60408385031215610828575f5ffd5b82356001600160401b0381111561083d575f5ffd5b6108498582860161078c565b95602094909401359450505050565b5f81518084528060208401602086015e5f602082860101526020601f19601f83011685010191505092915050565b80518252602081015160208301525f604082015161022060408501526108b0610220850182610858565b9050606083015184820360608601526108c98282610858565b9150506080830151608085015260a083015160a085015260c083015184820360c08601526108f78282610858565b91505060e083015184820360e08601526109118282610858565b91505061010083015184820361010086015261092d8282610858565b9150506101208301518482036101208601526109498282610858565b9150506101408301518482036101408601526109658282610858565b91505061016083015161016085015261018083015161098961018086018215159052565b506101a08301518482036101a08601526109a38282610858565b9150506101c08301518482036101c08601526109bf8282610858565b9150506101e08301518482036101e08601526109db8282610858565b9150506102008301518482036102008601526102cd8282610858565b5f602082016020835280845180835260408501915060408160051b8601019250602086015f5b82811015610a9957603f198786030184528151805160808752610a436080880182610858565b90506020820151602088015260408201518782036040890152610a668282610858565b915050606082015191508681036060880152610a828183610886565b965050506020938401939190910190600101610a1d565b50929695505050505050565b602081525f610ab76020830184610858565b9392505050565b5f5f60408385031215610acf575f5ffd5b82356001600160401b03811115610ae4575f5ffd5b610af08582860161078c565b92505060208301356001600160401b03811115610b0b575f5ffd5b610b178582860161078c565b9150509250929050565b8015158114610b2e575f5ffd5b50565b8035610b3c81610b21565b919050565b5f5f60408385031215610b52575f5ffd5b82356001600160401b03811115610b67575f5ffd5b83016102208186031215610b79575f5ffd5b610b816106eb565b813581526020808301359082015260408201356001600160401b03811115610ba7575f5ffd5b610bb38782850161078c565b60408301525060608201356001600160401b03811115610bd1575f5ffd5b610bdd8782850161078c565b6060830152506080828101359082015260a0808301359082015260c08201356001600160401b03811115610c0f575f5ffd5b610c1b8782850161078c565b60c08301525060e08201356001600160401b03811115610c39575f5ffd5b610c458782850161078c565b60e0830152506101008201356001600160401b03811115610c64575f5ffd5b610c708782850161078c565b610100830152506101208201356001600160401b03811115610c90575f5ffd5b610c9c8782850161078c565b610120830152506101408201356001600160401b03811115610cbc575f5ffd5b610cc88782850161078c565b610140830152506101608281013590820152610ce76101808301610b31565b6101808201526101a08201356001600160401b03811115610d06575f5ffd5b610d128782850161078c565b6101a0830152506101c08201356001600160401b03811115610d32575f5ffd5b610d3e8782850161078c565b6101c0830152506101e08201356001600160401b03811115610d5e575f5ffd5b610d6a8782850161078c565b6101e0830152506102008201356001600160401b03811115610d8a575f5ffd5b610d968782850161078c565b6102008301525092505060208301356001600160401b03811115610b0b575f5ffd5b5f82518060208501845e5f920191825250919050565b5f82601f830112610ddd575f5ffd5b8151610deb6107a982610766565b818152846020838601011115610dff575f5ffd5b8160208501602083015e5f918101602001919091529392505050565b8051610b3c81610b21565b5f60208284031215610e36575f5ffd5b81516001600160401b03811115610e4b575f5ffd5b8201601f81018413610e5b575f5ffd5b80516001600160401b03811115610e7457610e746106d7565b8060051b610e8460208201610736565b91825260208184018101929081019087841115610e9f575f5ffd5b6020850192505b838310156111ad5782516001600160401b03811115610ec3575f5ffd5b85016080818a03601f19011215610ed8575f5ffd5b610ee0610714565b60208201516001600160401b03811115610ef8575f5ffd5b610f078b602083860101610dce565b8252506040820151602082015260608201516001600160401b03811115610f2c575f5ffd5b610f3b8b602083860101610dce565b60408301525060808201516001600160401b03811115610f59575f5ffd5b602081840101925050610220828b031215610f72575f5ffd5b610f7a6106eb565b825181526020808401519082015260408301516001600160401b03811115610fa0575f5ffd5b610fac8c828601610dce565b60408301525060608301516001600160401b03811115610fca575f5ffd5b610fd68c828601610dce565b6060830152506080838101519082015260a0808401519082015260c08301516001600160401b03811115611008575f5ffd5b6110148c828601610dce565b60c08301525060e08301516001600160401b03811115611032575f5ffd5b61103e8c828601610dce565b60e0830152506101008301516001600160401b0381111561105d575f5ffd5b6110698c828601610dce565b610100830152506101208301516001600160401b03811115611089575f5ffd5b6110958c828601610dce565b610120830152506101408301516001600160401b038111156110b5575f5ffd5b6110c18c828601610dce565b6101408301525061016083810151908201526110e06101808401610e1b565b6101808201526101a08301516001600160401b038111156110ff575f5ffd5b61110b8c828601610dce565b6101a0830152506101c08301516001600160401b0381111561112b575f5ffd5b6111378c828601610dce565b6101c0830152506101e08301516001600160401b03811115611157575f5ffd5b6111638c828601610dce565b6101e0830152506102008301516001600160401b03811115611183575f5ffd5b61118f8c828601610dce565b61020083015250606082015283525060209283019290910190610ea6565b979650505050505050565b5f602082840312156111c8575f5ffd5b5051919050565b634e487b7160e01b5f52603260045260245ffd5b602081525f610ab76020830184610886565b5f8261120f57634e487b7160e01b5f52601260045260245ffd5b50049056fe608060405234801561000f575f5ffd5b506040516129b13803806129b183398101604081905261002e91610054565b5f6100398282610188565b5050610242565b634e487b7160e01b5f52604160045260245ffd5b5f60208284031215610064575f5ffd5b81516001600160401b03811115610079575f5ffd5b8201601f81018413610089575f5ffd5b80516001600160401b038111156100a2576100a2610040565b604051601f8201601f19908116603f011681016001600160401b03811182821017156100d0576100d0610040565b6040528181528282016020018610156100e7575f5ffd5b8160208401602083015e5f91810160200191909152949350505050565b600181811c9082168061011857607f821691505b60208210810361013657634e487b7160e01b5f52602260045260245ffd5b50919050565b601f82111561018357805f5260205f20601f840160051c810160208510156101615750805b601f840160051c820191505b81811015610180575f815560010161016d565b50505b505050565b81516001600160401b038111156101a1576101a1610040565b6101b5816101af8454610104565b8461013c565b6020601f8211600181146101e7575f83156101d05750848201515b5f19600385901b1c1916600184901b178455610180565b5f84815260208120601f198516915b8281101561021657878501518255602094850194600190920191016101f6565b508482101561023357868401515f19600387901b60f8161c191681555b50505050600190811b01905550565b6127628061024f5f395ff3fe608060405234801561000f575f5ffd5b5060043610610060575f3560e01c806348cbad6e14610064578063502223871461008257806389facb20146100a2578063a8006d35146100b7578063be1c766b146100ca578063f2523a9d146100db575b5f5ffd5b61006c6100f0565b604051610079919061208b565b60405180910390f35b6100956100903660046120ee565b61096b565b6040516100799190612105565b6100aa611143565b604051610079919061211e565b61006c6100c53660046120ee565b6111ce565b600254604051908152602001610079565b6100ee6100e9366004612130565b611aca565b005b6002546060905f906001600160401b0381111561010f5761010f612167565b60405190808252806020026020018201604052801561014857816020015b610135611df3565b81526020019060019003908161012d5790505b5090505f5b6002548110156109655760015f6002838154811061016d5761016d61217b565b905f5260205f20015481526020019081526020015f206040518060800160405290815f8201805461019d9061218f565b80601f01602080910402602001604051908101604052809291908181526020018280546101c99061218f565b80156102145780601f106101eb57610100808354040283529160200191610214565b820191905f5260205f20905b8154815290600101906020018083116101f757829003601f168201915b50505050508152602001600182015481526020016002820180546102379061218f565b80601f01602080910402602001604051908101604052809291908181526020018280546102639061218f565b80156102ae5780601f10610285576101008083540402835291602001916102ae565b820191905f5260205f20905b81548152906001019060200180831161029157829003601f168201915b5050505050815260200160038201604051806102200160405290815f8201548152602001600182015481526020016002820180546102eb9061218f565b80601f01602080910402602001604051908101604052809291908181526020018280546103179061218f565b80156103625780601f1061033957610100808354040283529160200191610362565b820191905f5260205f20905b81548152906001019060200180831161034557829003601f168201915b5050505050815260200160038201805461037b9061218f565b80601f01602080910402602001604051908101604052809291908181526020018280546103a79061218f565b80156103f25780601f106103c9576101008083540402835291602001916103f2565b820191905f5260205f20905b8154815290600101906020018083116103d557829003601f168201915b50505050508152602001600482015481526020016005820154815260200160068201805461041f9061218f565b80601f016020809104026020016040519081016040528092919081815260200182805461044b9061218f565b80156104965780601f1061046d57610100808354040283529160200191610496565b820191905f5260205f20905b81548152906001019060200180831161047957829003601f168201915b505050505081526020016007820180546104af9061218f565b80601f01602080910402602001604051908101604052809291908181526020018280546104db9061218f565b80156105265780601f106104fd57610100808354040283529160200191610526565b820191905f5260205f20905b81548152906001019060200180831161050957829003601f168201915b5050505050815260200160088201805461053f9061218f565b80601f016020809104026020016040519081016040528092919081815260200182805461056b9061218f565b80156105b65780601f1061058d576101008083540402835291602001916105b6565b820191905f5260205f20905b81548152906001019060200180831161059957829003601f168201915b505050505081526020016009820180546105cf9061218f565b80601f01602080910402602001604051908101604052809291908181526020018280546105fb9061218f565b80156106465780601f1061061d57610100808354040283529160200191610646565b820191905f5260205f20905b81548152906001019060200180831161062957829003601f168201915b50505050508152602001600a8201805461065f9061218f565b80601f016020809104026020016040519081016040528092919081815260200182805461068b9061218f565b80156106d65780601f106106ad576101008083540402835291602001916106d6565b820191905f5260205f20905b8154815290600101906020018083116106b957829003601f168201915b5050509183525050600b8201546020820152600c82015460ff1615156040820152600d8201805460609092019161070c9061218f565b80601f01602080910402602001604051908101604052809291908181526020018280546107389061218f565b80156107835780601f1061075a57610100808354040283529160200191610783565b820191905f5260205f20905b81548152906001019060200180831161076657829003601f168201915b50505050508152602001600e8201805461079c9061218f565b80601f01602080910402602001604051908101604052809291908181526020018280546107c89061218f565b80156108135780601f106107ea57610100808354040283529160200191610813565b820191905f5260205f20905b8154815290600101906020018083116107f657829003601f168201915b50505050508152602001600f8201805461082c9061218f565b80601f01602080910402602001604051908101604052809291908181526020018280546108589061218f565b80156108a35780601f1061087a576101008083540402835291602001916108a3565b820191905f5260205f20905b81548152906001019060200180831161088657829003601f168201915b505050505081526020016010820180546108bc9061218f565b80601f01602080910402602001604051908101604052809291908181526020018280546108e89061218f565b80156109335780601f1061090a57610100808354040283529160200191610933565b820191905f5260205f20905b81548152906001019060200180831161091657829003601f168201915b505050505081525050815250508282815181106109525761095261217b565b602090810291909101015260010161014d565b50919050565b610973611df3565b5f828152600160205260409081902081516080810190925280548290829061099a9061218f565b80601f01602080910402602001604051908101604052809291908181526020018280546109c69061218f565b8015610a115780601f106109e857610100808354040283529160200191610a11565b820191905f5260205f20905b8154815290600101906020018083116109f457829003601f168201915b5050505050815260200160018201548152602001600282018054610a349061218f565b80601f0160208091040260200160405190810160405280929190818152602001828054610a609061218f565b8015610aab5780601f10610a8257610100808354040283529160200191610aab565b820191905f5260205f20905b815481529060010190602001808311610a8e57829003601f168201915b5050505050815260200160038201604051806102200160405290815f820154815260200160018201548152602001600282018054610ae89061218f565b80601f0160208091040260200160405190810160405280929190818152602001828054610b149061218f565b8015610b5f5780601f10610b3657610100808354040283529160200191610b5f565b820191905f5260205f20905b815481529060010190602001808311610b4257829003601f168201915b50505050508152602001600382018054610b789061218f565b80601f0160208091040260200160405190810160405280929190818152602001828054610ba49061218f565b8015610bef5780601f10610bc657610100808354040283529160200191610bef565b820191905f5260205f20905b815481529060010190602001808311610bd257829003601f168201915b505050505081526020016004820154815260200160058201548152602001600682018054610c1c9061218f565b80601f0160208091040260200160405190810160405280929190818152602001828054610c489061218f565b8015610c935780601f10610c6a57610100808354040283529160200191610c93565b820191905f5260205f20905b815481529060010190602001808311610c7657829003601f168201915b50505050508152602001600782018054610cac9061218f565b80601f0160208091040260200160405190810160405280929190818152602001828054610cd89061218f565b8015610d235780601f10610cfa57610100808354040283529160200191610d23565b820191905f5260205f20905b815481529060010190602001808311610d0657829003601f168201915b50505050508152602001600882018054610d3c9061218f565b80601f0160208091040260200160405190810160405280929190818152602001828054610d689061218f565b8015610db35780601f10610d8a57610100808354040283529160200191610db3565b820191905f5260205f20905b815481529060010190602001808311610d9657829003601f168201915b50505050508152602001600982018054610dcc9061218f565b80601f0160208091040260200160405190810160405280929190818152602001828054610df89061218f565b8015610e435780601f10610e1a57610100808354040283529160200191610e43565b820191905f5260205f20905b815481529060010190602001808311610e2657829003601f168201915b50505050508152602001600a82018054610e5c9061218f565b80601f0160208091040260200160405190810160405280929190818152602001828054610e889061218f565b8015610ed35780601f10610eaa57610100808354040283529160200191610ed3565b820191905f5260205f20905b815481529060010190602001808311610eb657829003601f168201915b5050509183525050600b8201546020820152600c82015460ff1615156040820152600d82018054606090920191610f099061218f565b80601f0160208091040260200160405190810160405280929190818152602001828054610f359061218f565b8015610f805780601f10610f5757610100808354040283529160200191610f80565b820191905f5260205f20905b815481529060010190602001808311610f6357829003601f168201915b50505050508152602001600e82018054610f999061218f565b80601f0160208091040260200160405190810160405280929190818152602001828054610fc59061218f565b80156110105780601f10610fe757610100808354040283529160200191611010565b820191905f5260205f20905b815481529060010190602001808311610ff357829003601f168201915b50505050508152602001600f820180546110299061218f565b80601f01602080910402602001604051908101604052809291908181526020018280546110559061218f565b80156110a05780601f10611077576101008083540402835291602001916110a0565b820191905f5260205f20905b81548152906001019060200180831161108357829003601f168201915b505050505081526020016010820180546110b99061218f565b80601f01602080910402602001604051908101604052809291908181526020018280546110e59061218f565b80156111305780601f1061110757610100808354040283529160200191611130565b820191905f5260205f20905b81548152906001019060200180831161111357829003601f168201915b5050509190925250505090525092915050565b5f805461114f9061218f565b80601f016020809104026020016040519081016040528092919081815260200182805461117b9061218f565b80156111c65780601f1061119d576101008083540402835291602001916111c6565b820191905f5260205f20905b8154815290600101906020018083116111a957829003601f168201915b505050505081565b60605f42815b600254811015611229575f600282815481106111f2576111f261217b565b905f5260205f200154905085811015801561120d5750828111155b15611220578361121c816121c1565b9450505b506001016111d4565b505f826001600160401b0381111561124357611243612167565b60405190808252806020026020018201604052801561127c57816020015b611269611df3565b8152602001906001900390816112615790505b5090505f805b600254811015611abf575f600282815481106112a0576112a061217b565b905f5260205f20015490508781101580156112bb5750848111155b15611ab6575f81815260016020526040908190208151608081019092528054829082906112e79061218f565b80601f01602080910402602001604051908101604052809291908181526020018280546113139061218f565b801561135e5780601f106113355761010080835404028352916020019161135e565b820191905f5260205f20905b81548152906001019060200180831161134157829003601f168201915b50505050508152602001600182015481526020016002820180546113819061218f565b80601f01602080910402602001604051908101604052809291908181526020018280546113ad9061218f565b80156113f85780601f106113cf576101008083540402835291602001916113f8565b820191905f5260205f20905b8154815290600101906020018083116113db57829003601f168201915b5050505050815260200160038201604051806102200160405290815f8201548152602001600182015481526020016002820180546114359061218f565b80601f01602080910402602001604051908101604052809291908181526020018280546114619061218f565b80156114ac5780601f10611483576101008083540402835291602001916114ac565b820191905f5260205f20905b81548152906001019060200180831161148f57829003601f168201915b505050505081526020016003820180546114c59061218f565b80601f01602080910402602001604051908101604052809291908181526020018280546114f19061218f565b801561153c5780601f106115135761010080835404028352916020019161153c565b820191905f5260205f20905b81548152906001019060200180831161151f57829003601f168201915b5050505050815260200160048201548152602001600582015481526020016006820180546115699061218f565b80601f01602080910402602001604051908101604052809291908181526020018280546115959061218f565b80156115e05780601f106115b7576101008083540402835291602001916115e0565b820191905f5260205f20905b8154815290600101906020018083116115c357829003601f168201915b505050505081526020016007820180546115f99061218f565b80601f01602080910402602001604051908101604052809291908181526020018280546116259061218f565b80156116705780601f1061164757610100808354040283529160200191611670565b820191905f5260205f20905b81548152906001019060200180831161165357829003601f168201915b505050505081526020016008820180546116899061218f565b80601f01602080910402602001604051908101604052809291908181526020018280546116b59061218f565b80156117005780601f106116d757610100808354040283529160200191611700565b820191905f5260205f20905b8154815290600101906020018083116116e357829003601f168201915b505050505081526020016009820180546117199061218f565b80601f01602080910402602001604051908101604052809291908181526020018280546117459061218f565b80156117905780601f1061176757610100808354040283529160200191611790565b820191905f5260205f20905b81548152906001019060200180831161177357829003601f168201915b50505050508152602001600a820180546117a99061218f565b80601f01602080910402602001604051908101604052809291908181526020018280546117d59061218f565b80156118205780601f106117f757610100808354040283529160200191611820565b820191905f5260205f20905b81548152906001019060200180831161180357829003601f168201915b5050509183525050600b8201546020820152600c82015460ff1615156040820152600d820180546060909201916118569061218f565b80601f01602080910402602001604051908101604052809291908181526020018280546118829061218f565b80156118cd5780601f106118a4576101008083540402835291602001916118cd565b820191905f5260205f20905b8154815290600101906020018083116118b057829003601f168201915b50505050508152602001600e820180546118e69061218f565b80601f01602080910402602001604051908101604052809291908181526020018280546119129061218f565b801561195d5780601f106119345761010080835404028352916020019161195d565b820191905f5260205f20905b81548152906001019060200180831161194057829003601f168201915b50505050508152602001600f820180546119769061218f565b80601f01602080910402602001604051908101604052809291908181526020018280546119a29061218f565b80156119ed5780601f106119c4576101008083540402835291602001916119ed565b820191905f5260205f20905b8154815290600101906020018083116119d057829003601f168201915b50505050508152602001601082018054611a069061218f565b80601f0160208091040260200160405190810160405280929190818152602001828054611a329061218f565b8015611a7d5780601f10611a5457610100808354040283529160200191611a7d565b820191905f5260205f20905b815481529060010190602001808311611a6057829003601f168201915b50505050508152505081525050848481518110611a9c57611a9c61217b565b60200260200101819052508280611ab2906121c1565b9350505b50600101611282565b509095945050505050565b5f604051611ad891906121e5565b604051908190039020611aee6060830183612256565b604051611afc92919061229f565b604051809103902014611b4b5760405162461bcd60e51b8152602060048201526013602482015272496e74657276616c206d75737420626520317360681b604482015260640160405180910390fd5b6040805160c081018252600560808201908152646b6c696e6560d81b60a08301528152426020820181905283359290915f9181810190611b8d90870187612256565b8080601f0160208091040260200160405190810160405280939291908181526020018383808284375f92019190915250505090825250602001611bcf86612374565b90525f838152600160205260409020815191925082918190611bf190826125fb565b506020820151600182015560408201516002820190611c1090826125fb565b5060608201518051600383019081556020820151600484015560408201516005840190611c3d90826125fb565b5060608201516003820190611c5290826125fb565b506080820151600482015560a0820151600582015560c08201516006820190611c7b90826125fb565b5060e08201516007820190611c9090826125fb565b506101008201516008820190611ca690826125fb565b506101208201516009820190611cbc90826125fb565b50610140820151600a820190611cd290826125fb565b50610160820151600b820155610180820151600c8201805460ff19169115159190911790556101a0820151600d820190611d0c90826125fb565b506101c0820151600e820190611d2290826125fb565b506101e0820151600f820190611d3890826125fb565b506102008201516010820190611d4e90826125fb565b5050600280546001810182555f919091527f405787fa12a823e0f2b7631cc41b3ba8828b3321ca811111fa75cd3aa3bb5ace01859055507f87be993750fd9f870bc535d97609df048e07430c47f26712536434958094f8739150849050611db86040870187612256565b611dc560c0890189612256565b611dd260e08b018b612256565b604051611de597969594939291906126dd565b60405180910390a150505050565b6040518060800160405280606081526020015f815260200160608152602001611e956040518061022001604052805f81526020015f815260200160608152602001606081526020015f81526020015f815260200160608152602001606081526020016060815260200160608152602001606081526020015f81526020015f15158152602001606081526020016060815260200160608152602001606081525090565b905290565b5f81518084528060208401602086015e5f602082860101526020601f19601f83011685010191505092915050565b5f815160808452611edc6080850182611e9a565b90506020830151602085015260408301518482036040860152611eff8282611e9a565b91505060608301518482036060860152805182526020810151602083015260408101516102206040840152611f38610220840182611e9a565b905060608201518382036060850152611f518282611e9a565b9150506080820151608084015260a082015160a084015260c082015183820360c0850152611f7f8282611e9a565b91505060e082015183820360e0850152611f998282611e9a565b915050610100820151838203610100850152611fb58282611e9a565b915050610120820151838203610120850152611fd18282611e9a565b915050610140820151838203610140850152611fed8282611e9a565b91505061016082015161016084015261018082015161201161018085018215159052565b506101a08201518382036101a085015261202b8282611e9a565b9150506101c08201518382036101c08501526120478282611e9a565b9150506101e08201518382036101e08501526120638282611e9a565b91505061020082015191508281036102008401526120818183611e9a565b9695505050505050565b5f602082016020835280845180835260408501915060408160051b8601019250602086015f5b828110156120e257603f198786030184526120cd858351611ec8565b945060209384019391909101906001016120b1565b50929695505050505050565b5f602082840312156120fe575f5ffd5b5035919050565b602081525f6121176020830184611ec8565b9392505050565b602081525f6121176020830184611e9a565b5f60208284031215612140575f5ffd5b81356001600160401b03811115612155575f5ffd5b82016102208185031215612117575f5ffd5b634e487b7160e01b5f52604160045260245ffd5b634e487b7160e01b5f52603260045260245ffd5b600181811c908216806121a357607f821691505b60208210810361096557634e487b7160e01b5f52602260045260245ffd5b5f600182016121de57634e487b7160e01b5f52601160045260245ffd5b5060010190565b5f5f83546121f28161218f565b600182168015612209576001811461221e5761224b565b60ff198316865281151582028601935061224b565b865f5260205f205f5b8381101561224357815488820152600190910190602001612227565b505081860193505b509195945050505050565b5f5f8335601e1984360301811261226b575f5ffd5b8301803591506001600160401b03821115612284575f5ffd5b602001915036819003821315612298575f5ffd5b9250929050565b818382375f9101908152919050565b60405161022081016001600160401b03811182821017156122d1576122d1612167565b60405290565b5f82601f8301126122e6575f5ffd5b81356001600160401b038111156122ff576122ff612167565b604051601f8201601f19908116603f011681016001600160401b038111828210171561232d5761232d612167565b604052818152838201602001851015612344575f5ffd5b816020850160208301375f918101602001919091529392505050565b8035801515811461236f575f5ffd5b919050565b5f6102208236031215612385575f5ffd5b61238d6122ae565b823581526020808401359082015260408301356001600160401b038111156123b3575f5ffd5b6123bf368286016122d7565b60408301525060608301356001600160401b038111156123dd575f5ffd5b6123e9368286016122d7565b6060830152506080838101359082015260a0808401359082015260c08301356001600160401b0381111561241b575f5ffd5b612427368286016122d7565b60c08301525060e08301356001600160401b03811115612445575f5ffd5b612451368286016122d7565b60e0830152506101008301356001600160401b03811115612470575f5ffd5b61247c368286016122d7565b610100830152506101208301356001600160401b0381111561249c575f5ffd5b6124a8368286016122d7565b610120830152506101408301356001600160401b038111156124c8575f5ffd5b6124d4368286016122d7565b6101408301525061016083810135908201526124f36101808401612360565b6101808201526101a08301356001600160401b03811115612512575f5ffd5b61251e368286016122d7565b6101a0830152506101c08301356001600160401b0381111561253e575f5ffd5b61254a368286016122d7565b6101c0830152506101e08301356001600160401b0381111561256a575f5ffd5b612576368286016122d7565b6101e0830152506102008301356001600160401b03811115612596575f5ffd5b6125a2368286016122d7565b6102008301525092915050565b601f8211156125f657805f5260205f20601f840160051c810160208510156125d45750805b601f840160051c820191505b818110156125f3575f81556001016125e0565b50505b505050565b81516001600160401b0381111561261457612614612167565b61262881612622845461218f565b846125af565b6020601f82116001811461265a575f83156126435750848201515b5f19600385901b1c1916600184901b1784556125f3565b5f84815260208120601f198516915b828110156126895787850151825560209485019460019092019101612669565b50848210156126a657868401515f19600387901b60f8161c191681555b50505050600190811b01905550565b81835281816020850137505f828201602090810191909152601f909101601f19169091010190565b878152608060208201525f6126f660808301888a6126b5565b82810360408401526127098187896126b5565b9050828103606084015261271e8185876126b5565b9a995050505050505050505056fea264697066735822122077c5cb3c94866b35fbc84fa691c7fc8ed5302e828b69aeb76875d5d9c89791ba64736f6c634300081e0033a26469706673582212203c1f26d19cc9ce003cafca369fa16167400b3bd40e39eeb743eb558ec07bace864736f6c634300081e0033",
			"opcodes": "PUSH1 0x80 PUSH1 0x40 MSTORE CALLVALUE DUP1 ISZERO PUSH1 0xE JUMPI PUSH0 PUSH0 REVERT JUMPDEST POP PUSH2 0x3BFB DUP1 PUSH2 0x1C PUSH0 CODECOPY PUSH0 RETURN INVALID PUSH1 0x80 PUSH1 0x40 MSTORE CALLVALUE DUP1 ISZERO PUSH2 0xF JUMPI PUSH0 PUSH0 REVERT JUMPDEST POP PUSH1 0x4 CALLDATASIZE LT PUSH2 0x7A JUMPI PUSH0 CALLDATALOAD PUSH1 0xE0 SHR DUP1 PUSH4 0x6B4F9DDB GT PUSH2 0x58 JUMPI DUP1 PUSH4 0x6B4F9DDB EQ PUSH2 0xEF JUMPI DUP1 PUSH4 0xABDB93AB EQ PUSH2 0x130 JUMPI DUP1 PUSH4 0xBED34BBA EQ PUSH2 0x150 JUMPI DUP1 PUSH4 0xEE5F90AE EQ PUSH2 0x184 JUMPI PUSH0 PUSH0 REVERT JUMPDEST DUP1 PUSH4 0x157E41F6 EQ PUSH2 0x7E JUMPI DUP1 PUSH4 0x419ED6DE EQ PUSH2 0xAE JUMPI DUP1 PUSH4 0x68BA393A EQ PUSH2 0xCE JUMPI JUMPDEST PUSH0 PUSH0 REVERT JUMPDEST PUSH2 0x91 PUSH2 0x8C CALLDATASIZE PUSH1 0x4 PUSH2 0x7DE JUMP JUMPDEST PUSH2 0x199 JUMP JUMPDEST PUSH1 0x40 MLOAD PUSH1 0x1 PUSH1 0x1 PUSH1 0xA0 SHL SUB SWAP1 SWAP2 AND DUP2 MSTORE PUSH1 0x20 ADD JUMPDEST PUSH1 0x40 MLOAD DUP1 SWAP2 SUB SWAP1 RETURN JUMPDEST PUSH2 0xC1 PUSH2 0xBC CALLDATASIZE PUSH1 0x4 PUSH2 0x817 JUMP JUMPDEST PUSH2 0x1DF JUMP JUMPDEST PUSH1 0x40 MLOAD PUSH2 0xA5 SWAP2 SWAP1 PUSH2 0x9F7 JUMP JUMPDEST PUSH2 0xE1 PUSH2 0xDC CALLDATASIZE PUSH1 0x4 PUSH2 0x817 JUMP JUMPDEST PUSH2 0x2D6 JUMP JUMPDEST PUSH1 0x40 MLOAD SWAP1 DUP2 MSTORE PUSH1 0x20 ADD PUSH2 0xA5 JUMP JUMPDEST PUSH2 0x91 PUSH2 0xFD CALLDATASIZE PUSH1 0x4 PUSH2 0x817 JUMP JUMPDEST DUP2 MLOAD PUSH1 0x20 DUP2 DUP5 ADD DUP2 ADD DUP1 MLOAD PUSH0 DUP1 DUP4 MSTORE SWAP4 DUP4 ADD SWAP6 DUP4 ADD SWAP6 SWAP1 SWAP6 KECCAK256 SWAP5 SWAP1 MSTORE SWAP3 SWAP1 SWAP3 MSTORE DUP2 MSTORE PUSH1 0x40 SWAP1 KECCAK256 SLOAD PUSH1 0x1 PUSH1 0x1 PUSH1 0xA0 SHL SUB AND DUP2 JUMP JUMPDEST PUSH2 0x143 PUSH2 0x13E CALLDATASIZE PUSH1 0x4 PUSH2 0x7DE JUMP JUMPDEST PUSH2 0x3BC JUMP JUMPDEST PUSH1 0x40 MLOAD PUSH2 0xA5 SWAP2 SWAP1 PUSH2 0xAA5 JUMP JUMPDEST PUSH2 0x174 PUSH2 0x15E CALLDATASIZE PUSH1 0x4 PUSH2 0xABE JUMP JUMPDEST DUP1 MLOAD PUSH1 0x20 SWAP2 DUP3 ADD KECCAK256 DUP3 MLOAD SWAP3 SWAP1 SWAP2 ADD SWAP2 SWAP1 SWAP2 KECCAK256 EQ SWAP1 JUMP JUMPDEST PUSH1 0x40 MLOAD SWAP1 ISZERO ISZERO DUP2 MSTORE PUSH1 0x20 ADD PUSH2 0xA5 JUMP JUMPDEST PUSH2 0x197 PUSH2 0x192 CALLDATASIZE PUSH1 0x4 PUSH2 0xB41 JUMP JUMPDEST PUSH2 0x534 JUMP JUMPDEST STOP JUMPDEST PUSH0 PUSH0 PUSH2 0x1A4 TIMESTAMP PUSH2 0x6B7 JUMP JUMPDEST SWAP1 POP PUSH0 DUP4 PUSH1 0x40 MLOAD PUSH2 0x1B5 SWAP2 SWAP1 PUSH2 0xDB8 JUMP JUMPDEST SWAP1 DUP2 MSTORE PUSH1 0x40 DUP1 MLOAD PUSH1 0x20 SWAP3 DUP2 SWAP1 SUB DUP4 ADD SWAP1 KECCAK256 PUSH0 SWAP4 DUP5 MSTORE SWAP1 SWAP2 MSTORE SWAP1 KECCAK256 SLOAD PUSH1 0x1 PUSH1 0x1 PUSH1 0xA0 SHL SUB AND SWAP3 SWAP2 POP POP JUMP JUMPDEST PUSH1 0x60 PUSH0 PUSH2 0x1EB DUP4 PUSH2 0x6B7 JUMP JUMPDEST SWAP1 POP PUSH0 PUSH0 DUP6 PUSH1 0x40 MLOAD PUSH2 0x1FD SWAP2 SWAP1 PUSH2 0xDB8 JUMP JUMPDEST SWAP1 DUP2 MSTORE PUSH1 0x40 DUP1 MLOAD PUSH1 0x20 SWAP3 DUP2 SWAP1 SUB DUP4 ADD SWAP1 KECCAK256 PUSH0 DUP6 DUP2 MSTORE SWAP3 MSTORE SWAP1 KECCAK256 SLOAD PUSH1 0x1 PUSH1 0x1 PUSH1 0xA0 SHL SUB AND SWAP1 POP DUP1 PUSH2 0x26B JUMPI PUSH1 0x40 MLOAD PUSH3 0x461BCD PUSH1 0xE5 SHL DUP2 MSTORE PUSH1 0x20 PUSH1 0x4 DUP3 ADD MSTORE PUSH1 0x14 PUSH1 0x24 DUP3 ADD MSTORE PUSH20 0x1059191C995CDCC81A5CC81B9BDD08199BDD5B99 PUSH1 0x62 SHL PUSH1 0x44 DUP3 ADD MSTORE PUSH1 0x64 ADD JUMPDEST PUSH1 0x40 MLOAD DUP1 SWAP2 SUB SWAP1 REVERT JUMPDEST DUP1 PUSH1 0x1 PUSH1 0x1 PUSH1 0xA0 SHL SUB AND PUSH4 0x48CBAD6E PUSH1 0x40 MLOAD DUP2 PUSH4 0xFFFFFFFF AND PUSH1 0xE0 SHL DUP2 MSTORE PUSH1 0x4 ADD PUSH0 PUSH1 0x40 MLOAD DUP1 DUP4 SUB DUP2 DUP7 GAS STATICCALL ISZERO DUP1 ISZERO PUSH2 0x2A6 JUMPI RETURNDATASIZE PUSH0 PUSH0 RETURNDATACOPY RETURNDATASIZE PUSH0 REVERT JUMPDEST POP POP POP POP PUSH1 0x40 MLOAD RETURNDATASIZE PUSH0 DUP3 RETURNDATACOPY PUSH1 0x1F RETURNDATASIZE SWAP1 DUP2 ADD PUSH1 0x1F NOT AND DUP3 ADD PUSH1 0x40 MSTORE PUSH2 0x2CD SWAP2 SWAP1 DUP2 ADD SWAP1 PUSH2 0xE26 JUMP JUMPDEST SWAP6 SWAP5 POP POP POP POP POP JUMP JUMPDEST PUSH0 PUSH0 PUSH2 0x2E1 DUP4 PUSH2 0x6B7 JUMP JUMPDEST SWAP1 POP PUSH0 PUSH0 DUP6 PUSH1 0x40 MLOAD PUSH2 0x2F3 SWAP2 SWAP1 PUSH2 0xDB8 JUMP JUMPDEST SWAP1 DUP2 MSTORE PUSH1 0x40 DUP1 MLOAD PUSH1 0x20 SWAP3 DUP2 SWAP1 SUB DUP4 ADD SWAP1 KECCAK256 PUSH0 DUP6 DUP2 MSTORE SWAP3 MSTORE SWAP1 KECCAK256 SLOAD PUSH1 0x1 PUSH1 0x1 PUSH1 0xA0 SHL SUB AND SWAP1 POP DUP1 PUSH2 0x35C JUMPI PUSH1 0x40 MLOAD PUSH3 0x461BCD PUSH1 0xE5 SHL DUP2 MSTORE PUSH1 0x20 PUSH1 0x4 DUP3 ADD MSTORE PUSH1 0x14 PUSH1 0x24 DUP3 ADD MSTORE PUSH20 0x1059191C995CDCC81A5CC81B9BDD08199BDD5B99 PUSH1 0x62 SHL PUSH1 0x44 DUP3 ADD MSTORE PUSH1 0x64 ADD PUSH2 0x262 JUMP JUMPDEST DUP1 PUSH1 0x1 PUSH1 0x1 PUSH1 0xA0 SHL SUB AND PUSH4 0xBE1C766B PUSH1 0x40 MLOAD DUP2 PUSH4 0xFFFFFFFF AND PUSH1 0xE0 SHL DUP2 MSTORE PUSH1 0x4 ADD PUSH1 0x20 PUSH1 0x40 MLOAD DUP1 DUP4 SUB DUP2 DUP7 GAS STATICCALL ISZERO DUP1 ISZERO PUSH2 0x398 JUMPI RETURNDATASIZE PUSH0 PUSH0 RETURNDATACOPY RETURNDATASIZE PUSH0 REVERT JUMPDEST POP POP POP POP PUSH1 0x40 MLOAD RETURNDATASIZE PUSH1 0x1F NOT PUSH1 0x1F DUP3 ADD AND DUP3 ADD DUP1 PUSH1 0x40 MSTORE POP DUP2 ADD SWAP1 PUSH2 0x2CD SWAP2 SWAP1 PUSH2 0x11B8 JUMP JUMPDEST DUP1 MLOAD PUSH1 0x60 SWAP1 DUP3 SWAP1 PUSH0 DUP2 PUSH1 0x1 PUSH1 0x1 PUSH1 0x40 SHL SUB DUP2 GT ISZERO PUSH2 0x3DC JUMPI PUSH2 0x3DC PUSH2 0x6D7 JUMP JUMPDEST PUSH1 0x40 MLOAD SWAP1 DUP1 DUP3 MSTORE DUP1 PUSH1 0x1F ADD PUSH1 0x1F NOT AND PUSH1 0x20 ADD DUP3 ADD PUSH1 0x40 MSTORE DUP1 ISZERO PUSH2 0x406 JUMPI PUSH1 0x20 DUP3 ADD DUP2 DUP1 CALLDATASIZE DUP4 CALLDATACOPY ADD SWAP1 POP JUMPDEST POP SWAP1 POP PUSH0 JUMPDEST DUP3 DUP2 LT ISZERO PUSH2 0x48C JUMPI DUP4 DUP2 DUP2 MLOAD DUP2 LT PUSH2 0x425 JUMPI PUSH2 0x425 PUSH2 0x11CF JUMP JUMPDEST PUSH1 0x20 SWAP2 ADD ADD MLOAD PUSH1 0x1 PUSH1 0x1 PUSH1 0xF8 SHL SUB NOT AND PUSH1 0x2D PUSH1 0xF8 SHL EQ PUSH2 0x48C JUMPI DUP4 DUP2 DUP2 MLOAD DUP2 LT PUSH2 0x451 JUMPI PUSH2 0x451 PUSH2 0x11CF JUMP JUMPDEST PUSH1 0x20 ADD ADD MLOAD PUSH1 0xF8 SHR PUSH1 0xF8 SHL DUP3 DUP3 DUP2 MLOAD DUP2 LT PUSH2 0x46E JUMPI PUSH2 0x46E PUSH2 0x11CF JUMP JUMPDEST PUSH1 0x20 ADD ADD SWAP1 PUSH1 0x1 PUSH1 0x1 PUSH1 0xF8 SHL SUB NOT AND SWAP1 DUP2 PUSH0 BYTE SWAP1 MSTORE8 POP PUSH1 0x1 ADD PUSH2 0x40B JUMP JUMPDEST PUSH0 DUP2 PUSH1 0x1 PUSH1 0x1 PUSH1 0x40 SHL SUB DUP2 GT ISZERO PUSH2 0x4A5 JUMPI PUSH2 0x4A5 PUSH2 0x6D7 JUMP JUMPDEST PUSH1 0x40 MLOAD SWAP1 DUP1 DUP3 MSTORE DUP1 PUSH1 0x1F ADD PUSH1 0x1F NOT AND PUSH1 0x20 ADD DUP3 ADD PUSH1 0x40 MSTORE DUP1 ISZERO PUSH2 0x4CF JUMPI PUSH1 0x20 DUP3 ADD DUP2 DUP1 CALLDATASIZE DUP4 CALLDATACOPY ADD SWAP1 POP JUMPDEST POP SWAP1 POP PUSH0 JUMPDEST DUP3 DUP2 LT ISZERO PUSH2 0x529 JUMPI DUP4 DUP2 DUP2 MLOAD DUP2 LT PUSH2 0x4EE JUMPI PUSH2 0x4EE PUSH2 0x11CF JUMP JUMPDEST PUSH1 0x20 ADD ADD MLOAD PUSH1 0xF8 SHR PUSH1 0xF8 SHL DUP3 DUP3 DUP2 MLOAD DUP2 LT PUSH2 0x50B JUMPI PUSH2 0x50B PUSH2 0x11CF JUMP JUMPDEST PUSH1 0x20 ADD ADD SWAP1 PUSH1 0x1 PUSH1 0x1 PUSH1 0xF8 SHL SUB NOT AND SWAP1 DUP2 PUSH0 BYTE SWAP1 MSTORE8 POP PUSH1 0x1 ADD PUSH2 0x4D4 JUMP JUMPDEST POP SWAP7 SWAP6 POP POP POP POP POP POP JUMP JUMPDEST PUSH0 PUSH2 0x53E TIMESTAMP PUSH2 0x6B7 JUMP JUMPDEST SWAP1 POP PUSH0 PUSH1 0x1 PUSH1 0x1 PUSH1 0xA0 SHL SUB AND PUSH0 DUP4 PUSH1 0x40 MLOAD PUSH2 0x559 SWAP2 SWAP1 PUSH2 0xDB8 JUMP JUMPDEST SWAP1 DUP2 MSTORE PUSH1 0x40 DUP1 MLOAD PUSH1 0x20 SWAP3 DUP2 SWAP1 SUB DUP4 ADD SWAP1 KECCAK256 PUSH0 DUP6 DUP2 MSTORE SWAP3 MSTORE SWAP1 KECCAK256 SLOAD PUSH1 0x1 PUSH1 0x1 PUSH1 0xA0 SHL SUB AND SUB PUSH2 0x634 JUMPI PUSH0 DUP3 PUSH1 0x40 MLOAD PUSH2 0x58F SWAP1 PUSH2 0x6CA JUMP JUMPDEST PUSH2 0x599 SWAP2 SWAP1 PUSH2 0xAA5 JUMP JUMPDEST PUSH1 0x40 MLOAD DUP1 SWAP2 SUB SWAP1 PUSH0 CREATE DUP1 ISZERO DUP1 ISZERO PUSH2 0x5B2 JUMPI RETURNDATASIZE PUSH0 PUSH0 RETURNDATACOPY RETURNDATASIZE PUSH0 REVERT JUMPDEST POP SWAP1 POP DUP1 PUSH0 DUP5 PUSH1 0x40 MLOAD PUSH2 0x5C5 SWAP2 SWAP1 PUSH2 0xDB8 JUMP JUMPDEST SWAP1 DUP2 MSTORE PUSH1 0x40 DUP1 MLOAD PUSH1 0x20 SWAP3 DUP2 SWAP1 SUB DUP4 ADD DUP2 KECCAK256 PUSH0 DUP8 DUP2 MSTORE SWAP1 DUP5 MSTORE DUP3 SWAP1 KECCAK256 DUP1 SLOAD PUSH1 0x1 PUSH1 0x1 PUSH1 0xA0 SHL SUB NOT AND PUSH1 0x1 PUSH1 0x1 PUSH1 0xA0 SHL SUB SWAP6 DUP7 AND OR SWAP1 SSTORE DUP6 DUP2 MSTORE SWAP3 DUP5 AND SWAP2 DUP4 ADD SWAP2 SWAP1 SWAP2 MSTORE PUSH32 0xF2C7477BB143F96769DA0A1F452DFC4B2DAFB6BFC31C3E2F9931EC72993B6A51 SWAP2 ADD PUSH1 0x40 MLOAD DUP1 SWAP2 SUB SWAP1 LOG1 POP JUMPDEST PUSH0 DUP3 PUSH1 0x40 MLOAD PUSH2 0x643 SWAP2 SWAP1 PUSH2 0xDB8 JUMP JUMPDEST SWAP1 DUP2 MSTORE PUSH1 0x40 DUP1 MLOAD SWAP2 DUP3 SWAP1 SUB PUSH1 0x20 SWAP1 DUP2 ADD DUP4 KECCAK256 PUSH0 DUP6 DUP2 MSTORE SWAP2 MSTORE KECCAK256 SLOAD PUSH4 0xF2523A9D PUSH1 0xE0 SHL DUP3 MSTORE PUSH1 0x1 PUSH1 0x1 PUSH1 0xA0 SHL SUB AND SWAP1 PUSH4 0xF2523A9D SWAP1 PUSH2 0x685 SWAP1 DUP7 SWAP1 PUSH1 0x4 ADD PUSH2 0x11E3 JUMP JUMPDEST PUSH0 PUSH1 0x40 MLOAD DUP1 DUP4 SUB DUP2 PUSH0 DUP8 DUP1 EXTCODESIZE ISZERO DUP1 ISZERO PUSH2 0x69C JUMPI PUSH0 PUSH0 REVERT JUMPDEST POP GAS CALL ISZERO DUP1 ISZERO PUSH2 0x6AE JUMPI RETURNDATASIZE PUSH0 PUSH0 RETURNDATACOPY RETURNDATASIZE PUSH0 REVERT JUMPDEST POP POP POP POP POP POP POP JUMP JUMPDEST PUSH0 PUSH2 0x6C4 PUSH2 0xE10 DUP4 PUSH2 0x11F5 JUMP JUMPDEST SWAP3 SWAP2 POP POP JUMP JUMPDEST PUSH2 0x29B1 DUP1 PUSH2 0x1215 DUP4 CODECOPY ADD SWAP1 JUMP JUMPDEST PUSH4 0x4E487B71 PUSH1 0xE0 SHL PUSH0 MSTORE PUSH1 0x41 PUSH1 0x4 MSTORE PUSH1 0x24 PUSH0 REVERT JUMPDEST PUSH1 0x40 MLOAD PUSH2 0x220 DUP2 ADD PUSH1 0x1 PUSH1 0x1 PUSH1 0x40 SHL SUB DUP2 GT DUP3 DUP3 LT OR ISZERO PUSH2 0x70E JUMPI PUSH2 0x70E PUSH2 0x6D7 JUMP JUMPDEST PUSH1 0x40 MSTORE SWAP1 JUMP JUMPDEST PUSH1 0x40 MLOAD PUSH1 0x80 DUP2 ADD PUSH1 0x1 PUSH1 0x1 PUSH1 0x40 SHL SUB DUP2 GT DUP3 DUP3 LT OR ISZERO PUSH2 0x70E JUMPI PUSH2 0x70E PUSH2 0x6D7 JUMP JUMPDEST PUSH1 0x40 MLOAD PUSH1 0x1F DUP3 ADD PUSH1 0x1F NOT AND DUP2 ADD PUSH1 0x1 PUSH1 0x1 PUSH1 0x40 SHL SUB DUP2 GT DUP3 DUP3 LT OR ISZERO PUSH2 0x75E JUMPI PUSH2 0x75E PUSH2 0x6D7 JUMP JUMPDEST PUSH1 0x40 MSTORE SWAP2 SWAP1 POP JUMP JUMPDEST PUSH0 PUSH1 0x1 PUSH1 0x1 PUSH1 0x40 SHL SUB DUP3 GT ISZERO PUSH2 0x77E JUMPI PUSH2 0x77E PUSH2 0x6D7 JUMP JUMPDEST POP PUSH1 0x1F ADD PUSH1 0x1F NOT AND PUSH1 0x20 ADD SWAP1 JUMP JUMPDEST PUSH0 DUP3 PUSH1 0x1F DUP4 ADD SLT PUSH2 0x79B JUMPI PUSH0 PUSH0 REVERT JUMPDEST DUP2 CALLDATALOAD PUSH2 0x7AE PUSH2 0x7A9 DUP3 PUSH2 0x766 JUMP JUMPDEST PUSH2 0x736 JUMP JUMPDEST DUP2 DUP2 MSTORE DUP5 PUSH1 0x20 DUP4 DUP7 ADD ADD GT ISZERO PUSH2 0x7C2 JUMPI PUSH0 PUSH0 REVERT JUMPDEST DUP2 PUSH1 0x20 DUP6 ADD PUSH1 0x20 DUP4 ADD CALLDATACOPY PUSH0 SWAP2 DUP2 ADD PUSH1 0x20 ADD SWAP2 SWAP1 SWAP2 MSTORE SWAP4 SWAP3 POP POP POP JUMP JUMPDEST PUSH0 PUSH1 0x20 DUP3 DUP5 SUB SLT ISZERO PUSH2 0x7EE JUMPI PUSH0 PUSH0 REVERT JUMPDEST DUP2 CALLDATALOAD PUSH1 0x1 PUSH1 0x1 PUSH1 0x40 SHL SUB DUP2 GT ISZERO PUSH2 0x803 JUMPI PUSH0 PUSH0 REVERT JUMPDEST PUSH2 0x80F DUP5 DUP3 DUP6 ADD PUSH2 0x78C JUMP JUMPDEST SWAP5 SWAP4 POP POP POP POP JUMP JUMPDEST PUSH0 PUSH0 PUSH1 0x40 DUP4 DUP6 SUB SLT ISZERO PUSH2 0x828 JUMPI PUSH0 PUSH0 REVERT JUMPDEST DUP3 CALLDATALOAD PUSH1 0x1 PUSH1 0x1 PUSH1 0x40 SHL SUB DUP2 GT ISZERO PUSH2 0x83D JUMPI PUSH0 PUSH0 REVERT JUMPDEST PUSH2 0x849 DUP6 DUP3 DUP7 ADD PUSH2 0x78C JUMP JUMPDEST SWAP6 PUSH1 0x20 SWAP5 SWAP1 SWAP5 ADD CALLDATALOAD SWAP5 POP POP POP POP JUMP JUMPDEST PUSH0 DUP2 MLOAD DUP1 DUP5 MSTORE DUP1 PUSH1 0x20 DUP5 ADD PUSH1 0x20 DUP7 ADD MCOPY PUSH0 PUSH1 0x20 DUP3 DUP7 ADD ADD MSTORE PUSH1 0x20 PUSH1 0x1F NOT PUSH1 0x1F DUP4 ADD AND DUP6 ADD ADD SWAP2 POP POP SWAP3 SWAP2 POP POP JUMP JUMPDEST DUP1 MLOAD DUP3 MSTORE PUSH1 0x20 DUP2 ADD MLOAD PUSH1 0x20 DUP4 ADD MSTORE PUSH0 PUSH1 0x40 DUP3 ADD MLOAD PUSH2 0x220 PUSH1 0x40 DUP6 ADD MSTORE PUSH2 0x8B0 PUSH2 0x220 DUP6 ADD DUP3 PUSH2 0x858 JUMP JUMPDEST SWAP1 POP PUSH1 0x60 DUP4 ADD MLOAD DUP5 DUP3 SUB PUSH1 0x60 DUP7 ADD MSTORE PUSH2 0x8C9 DUP3 DUP3 PUSH2 0x858 JUMP JUMPDEST SWAP2 POP POP PUSH1 0x80 DUP4 ADD MLOAD PUSH1 0x80 DUP6 ADD MSTORE PUSH1 0xA0 DUP4 ADD MLOAD PUSH1 0xA0 DUP6 ADD MSTORE PUSH1 0xC0 DUP4 ADD MLOAD DUP5 DUP3 SUB PUSH1 0xC0 DUP7 ADD MSTORE PUSH2 0x8F7 DUP3 DUP3 PUSH2 0x858 JUMP JUMPDEST SWAP2 POP POP PUSH1 0xE0 DUP4 ADD MLOAD DUP5 DUP3 SUB PUSH1 0xE0 DUP7 ADD MSTORE PUSH2 0x911 DUP3 DUP3 PUSH2 0x858 JUMP JUMPDEST SWAP2 POP POP PUSH2 0x100 DUP4 ADD MLOAD DUP5 DUP3 SUB PUSH2 0x100 DUP7 ADD MSTORE PUSH2 0x92D DUP3 DUP3 PUSH2 0x858 JUMP JUMPDEST SWAP2 POP POP PUSH2 0x120 DUP4 ADD MLOAD DUP5 DUP3 SUB PUSH2 0x120 DUP7 ADD MSTORE PUSH2 0x949 DUP3 DUP3 PUSH2 0x858 JUMP JUMPDEST SWAP2 POP POP PUSH2 0x140 DUP4 ADD MLOAD DUP5 DUP3 SUB PUSH2 0x140 DUP7 ADD MSTORE PUSH2 0x965 DUP3 DUP3 PUSH2 0x858 JUMP JUMPDEST SWAP2 POP POP PUSH2 0x160 DUP4 ADD MLOAD PUSH2 0x160 DUP6 ADD MSTORE PUSH2 0x180 DUP4 ADD MLOAD PUSH2 0x989 PUSH2 0x180 DUP7 ADD DUP3 ISZERO ISZERO SWAP1 MSTORE JUMP JUMPDEST POP PUSH2 0x1A0 DUP4 ADD MLOAD DUP5 DUP3 SUB PUSH2 0x1A0 DUP7 ADD MSTORE PUSH2 0x9A3 DUP3 DUP3 PUSH2 0x858 JUMP JUMPDEST SWAP2 POP POP PUSH2 0x1C0 DUP4 ADD MLOAD DUP5 DUP3 SUB PUSH2 0x1C0 DUP7 ADD MSTORE PUSH2 0x9BF DUP3 DUP3 PUSH2 0x858 JUMP JUMPDEST SWAP2 POP POP PUSH2 0x1E0 DUP4 ADD MLOAD DUP5 DUP3 SUB PUSH2 0x1E0 DUP7 ADD MSTORE PUSH2 0x9DB DUP3 DUP3 PUSH2 0x858 JUMP JUMPDEST SWAP2 POP POP PUSH2 0x200 DUP4 ADD MLOAD DUP5 DUP3 SUB PUSH2 0x200 DUP7 ADD MSTORE PUSH2 0x2CD DUP3 DUP3 PUSH2 0x858 JUMP JUMPDEST PUSH0 PUSH1 0x20 DUP3 ADD PUSH1 0x20 DUP4 MSTORE DUP1 DUP5 MLOAD DUP1 DUP4 MSTORE PUSH1 0x40 DUP6 ADD SWAP2 POP PUSH1 0x40 DUP2 PUSH1 0x5 SHL DUP7 ADD ADD SWAP3 POP PUSH1 0x20 DUP7 ADD PUSH0 JUMPDEST DUP3 DUP2 LT ISZERO PUSH2 0xA99 JUMPI PUSH1 0x3F NOT DUP8 DUP7 SUB ADD DUP5 MSTORE DUP2 MLOAD DUP1 MLOAD PUSH1 0x80 DUP8 MSTORE PUSH2 0xA43 PUSH1 0x80 DUP9 ADD DUP3 PUSH2 0x858 JUMP JUMPDEST SWAP1 POP PUSH1 0x20 DUP3 ADD MLOAD PUSH1 0x20 DUP9 ADD MSTORE PUSH1 0x40 DUP3 ADD MLOAD DUP8 DUP3 SUB PUSH1 0x40 DUP10 ADD MSTORE PUSH2 0xA66 DUP3 DUP3 PUSH2 0x858 JUMP JUMPDEST SWAP2 POP POP PUSH1 0x60 DUP3 ADD MLOAD SWAP2 POP DUP7 DUP2 SUB PUSH1 0x60 DUP9 ADD MSTORE PUSH2 0xA82 DUP2 DUP4 PUSH2 0x886 JUMP JUMPDEST SWAP7 POP POP POP PUSH1 0x20 SWAP4 DUP5 ADD SWAP4 SWAP2 SWAP1 SWAP2 ADD SWAP1 PUSH1 0x1 ADD PUSH2 0xA1D JUMP JUMPDEST POP SWAP3 SWAP7 SWAP6 POP POP POP POP POP POP JUMP JUMPDEST PUSH1 0x20 DUP2 MSTORE PUSH0 PUSH2 0xAB7 PUSH1 0x20 DUP4 ADD DUP5 PUSH2 0x858 JUMP JUMPDEST SWAP4 SWAP3 POP POP POP JUMP JUMPDEST PUSH0 PUSH0 PUSH1 0x40 DUP4 DUP6 SUB SLT ISZERO PUSH2 0xACF JUMPI PUSH0 PUSH0 REVERT JUMPDEST DUP3 CALLDATALOAD PUSH1 0x1 PUSH1 0x1 PUSH1 0x40 SHL SUB DUP2 GT ISZERO PUSH2 0xAE4 JUMPI PUSH0 PUSH0 REVERT JUMPDEST PUSH2 0xAF0 DUP6 DUP3 DUP7 ADD PUSH2 0x78C JUMP JUMPDEST SWAP3 POP POP PUSH1 0x20 DUP4 ADD CALLDATALOAD PUSH1 0x1 PUSH1 0x1 PUSH1 0x40 SHL SUB DUP2 GT ISZERO PUSH2 0xB0B JUMPI PUSH0 PUSH0 REVERT JUMPDEST PUSH2 0xB17 DUP6 DUP3 DUP7 ADD PUSH2 0x78C JUMP JUMPDEST SWAP2 POP POP SWAP3 POP SWAP3 SWAP1 POP JUMP JUMPDEST DUP1 ISZERO ISZERO DUP2 EQ PUSH2 0xB2E JUMPI PUSH0 PUSH0 REVERT JUMPDEST POP JUMP JUMPDEST DUP1 CALLDATALOAD PUSH2 0xB3C DUP2 PUSH2 0xB21 JUMP JUMPDEST SWAP2 SWAP1 POP JUMP JUMPDEST PUSH0 PUSH0 PUSH1 0x40 DUP4 DUP6 SUB SLT ISZERO PUSH2 0xB52 JUMPI PUSH0 PUSH0 REVERT JUMPDEST DUP3 CALLDATALOAD PUSH1 0x1 PUSH1 0x1 PUSH1 0x40 SHL SUB DUP2 GT ISZERO PUSH2 0xB67 JUMPI PUSH0 PUSH0 REVERT JUMPDEST DUP4 ADD PUSH2 0x220 DUP2 DUP7 SUB SLT ISZERO PUSH2 0xB79 JUMPI PUSH0 PUSH0 REVERT JUMPDEST PUSH2 0xB81 PUSH2 0x6EB JUMP JUMPDEST DUP2 CALLDATALOAD DUP2 MSTORE PUSH1 0x20 DUP1 DUP4 ADD CALLDATALOAD SWAP1 DUP3 ADD MSTORE PUSH1 0x40 DUP3 ADD CALLDATALOAD PUSH1 0x1 PUSH1 0x1 PUSH1 0x40 SHL SUB DUP2 GT ISZERO PUSH2 0xBA7 JUMPI PUSH0 PUSH0 REVERT JUMPDEST PUSH2 0xBB3 DUP8 DUP3 DUP6 ADD PUSH2 0x78C JUMP JUMPDEST PUSH1 0x40 DUP4 ADD MSTORE POP PUSH1 0x60 DUP3 ADD CALLDATALOAD PUSH1 0x1 PUSH1 0x1 PUSH1 0x40 SHL SUB DUP2 GT ISZERO PUSH2 0xBD1 JUMPI PUSH0 PUSH0 REVERT JUMPDEST PUSH2 0xBDD DUP8 DUP3 DUP6 ADD PUSH2 0x78C JUMP JUMPDEST PUSH1 0x60 DUP4 ADD MSTORE POP PUSH1 0x80 DUP3 DUP2 ADD CALLDATALOAD SWAP1 DUP3 ADD MSTORE PUSH1 0xA0 DUP1 DUP4 ADD CALLDATALOAD SWAP1 DUP3 ADD MSTORE PUSH1 0xC0 DUP3 ADD CALLDATALOAD PUSH1 0x1 PUSH1 0x1 PUSH1 0x40 SHL SUB DUP2 GT ISZERO PUSH2 0xC0F JUMPI PUSH0 PUSH0 REVERT JUMPDEST PUSH2 0xC1B DUP8 DUP3 DUP6 ADD PUSH2 0x78C JUMP JUMPDEST PUSH1 0xC0 DUP4 ADD MSTORE POP PUSH1 0xE0 DUP3 ADD CALLDATALOAD PUSH1 0x1 PUSH1 0x1 PUSH1 0x40 SHL SUB DUP2 GT ISZERO PUSH2 0xC39 JUMPI PUSH0 PUSH0 REVERT JUMPDEST PUSH2 0xC45 DUP8 DUP3 DUP6 ADD PUSH2 0x78C JUMP JUMPDEST PUSH1 0xE0 DUP4 ADD MSTORE POP PUSH2 0x100 DUP3 ADD CALLDATALOAD PUSH1 0x1 PUSH1 0x1 PUSH1 0x40 SHL SUB DUP2 GT ISZERO PUSH2 0xC64 JUMPI PUSH0 PUSH0 REVERT JUMPDEST PUSH2 0xC70 DUP8 DUP3 DUP6 ADD PUSH2 0x78C JUMP JUMPDEST PUSH2 0x100 DUP4 ADD MSTORE POP PUSH2 0x120 DUP3 ADD CALLDATALOAD PUSH1 0x1 PUSH1 0x1 PUSH1 0x40 SHL SUB DUP2 GT ISZERO PUSH2 0xC90 JUMPI PUSH0 PUSH0 REVERT JUMPDEST PUSH2 0xC9C DUP8 DUP3 DUP6 ADD PUSH2 0x78C JUMP JUMPDEST PUSH2 0x120 DUP4 ADD MSTORE POP PUSH2 0x140 DUP3 ADD CALLDATALOAD PUSH1 0x1 PUSH1 0x1 PUSH1 0x40 SHL SUB DUP2 GT ISZERO PUSH2 0xCBC JUMPI PUSH0 PUSH0 REVERT JUMPDEST PUSH2 0xCC8 DUP8 DUP3 DUP6 ADD PUSH2 0x78C JUMP JUMPDEST PUSH2 0x140 DUP4 ADD MSTORE POP PUSH2 0x160 DUP3 DUP2 ADD CALLDATALOAD SWAP1 DUP3 ADD MSTORE PUSH2 0xCE7 PUSH2 0x180 DUP4 ADD PUSH2 0xB31 JUMP JUMPDEST PUSH2 0x180 DUP3 ADD MSTORE PUSH2 0x1A0 DUP3 ADD CALLDATALOAD PUSH1 0x1 PUSH1 0x1 PUSH1 0x40 SHL SUB DUP2 GT ISZERO PUSH2 0xD06 JUMPI PUSH0 PUSH0 REVERT JUMPDEST PUSH2 0xD12 DUP8 DUP3 DUP6 ADD PUSH2 0x78C JUMP JUMPDEST PUSH2 0x1A0 DUP4 ADD MSTORE POP PUSH2 0x1C0 DUP3 ADD CALLDATALOAD PUSH1 0x1 PUSH1 0x1 PUSH1 0x40 SHL SUB DUP2 GT ISZERO PUSH2 0xD32 JUMPI PUSH0 PUSH0 REVERT JUMPDEST PUSH2 0xD3E DUP8 DUP3 DUP6 ADD PUSH2 0x78C JUMP JUMPDEST PUSH2 0x1C0 DUP4 ADD MSTORE POP PUSH2 0x1E0 DUP3 ADD CALLDATALOAD PUSH1 0x1 PUSH1 0x1 PUSH1 0x40 SHL SUB DUP2 GT ISZERO PUSH2 0xD5E JUMPI PUSH0 PUSH0 REVERT JUMPDEST PUSH2 0xD6A DUP8 DUP3 DUP6 ADD PUSH2 0x78C JUMP JUMPDEST PUSH2 0x1E0 DUP4 ADD MSTORE POP PUSH2 0x200 DUP3 ADD CALLDATALOAD PUSH1 0x1 PUSH1 0x1 PUSH1 0x40 SHL SUB DUP2 GT ISZERO PUSH2 0xD8A JUMPI PUSH0 PUSH0 REVERT JUMPDEST PUSH2 0xD96 DUP8 DUP3 DUP6 ADD PUSH2 0x78C JUMP JUMPDEST PUSH2 0x200 DUP4 ADD MSTORE POP SWAP3 POP POP PUSH1 0x20 DUP4 ADD CALLDATALOAD PUSH1 0x1 PUSH1 0x1 PUSH1 0x40 SHL SUB DUP2 GT ISZERO PUSH2 0xB0B JUMPI PUSH0 PUSH0 REVERT JUMPDEST PUSH0 DUP3 MLOAD DUP1 PUSH1 0x20 DUP6 ADD DUP5 MCOPY PUSH0 SWAP3 ADD SWAP2 DUP3 MSTORE POP SWAP2 SWAP1 POP JUMP JUMPDEST PUSH0 DUP3 PUSH1 0x1F DUP4 ADD SLT PUSH2 0xDDD JUMPI PUSH0 PUSH0 REVERT JUMPDEST DUP2 MLOAD PUSH2 0xDEB PUSH2 0x7A9 DUP3 PUSH2 0x766 JUMP JUMPDEST DUP2 DUP2 MSTORE DUP5 PUSH1 0x20 DUP4 DUP7 ADD ADD GT ISZERO PUSH2 0xDFF JUMPI PUSH0 PUSH0 REVERT JUMPDEST DUP2 PUSH1 0x20 DUP6 ADD PUSH1 0x20 DUP4 ADD MCOPY PUSH0 SWAP2 DUP2 ADD PUSH1 0x20 ADD SWAP2 SWAP1 SWAP2 MSTORE SWAP4 SWAP3 POP POP POP JUMP JUMPDEST DUP1 MLOAD PUSH2 0xB3C DUP2 PUSH2 0xB21 JUMP JUMPDEST PUSH0 PUSH1 0x20 DUP3 DUP5 SUB SLT ISZERO PUSH2 0xE36 JUMPI PUSH0 PUSH0 REVERT JUMPDEST DUP2 MLOAD PUSH1 0x1 PUSH1 0x1 PUSH1 0x40 SHL SUB DUP2 GT ISZERO PUSH2 0xE4B JUMPI PUSH0 PUSH0 REVERT JUMPDEST DUP3 ADD PUSH1 0x1F DUP2 ADD DUP5 SGT PUSH2 0xE5B JUMPI PUSH0 PUSH0 REVERT JUMPDEST DUP1 MLOAD PUSH1 0x1 PUSH1 0x1 PUSH1 0x40 SHL SUB DUP2 GT ISZERO PUSH2 0xE74 JUMPI PUSH2 0xE74 PUSH2 0x6D7 JUMP JUMPDEST DUP1 PUSH1 0x5 SHL PUSH2 0xE84 PUSH1 0x20 DUP3 ADD PUSH2 0x736 JUMP JUMPDEST SWAP2 DUP3 MSTORE PUSH1 0x20 DUP2 DUP5 ADD DUP2 ADD SWAP3 SWAP1 DUP2 ADD SWAP1 DUP8 DUP5 GT ISZERO PUSH2 0xE9F JUMPI PUSH0 PUSH0 REVERT JUMPDEST PUSH1 0x20 DUP6 ADD SWAP3 POP JUMPDEST DUP4 DUP4 LT ISZERO PUSH2 0x11AD JUMPI DUP3 MLOAD PUSH1 0x1 PUSH1 0x1 PUSH1 0x40 SHL SUB DUP2 GT ISZERO PUSH2 0xEC3 JUMPI PUSH0 PUSH0 REVERT JUMPDEST DUP6 ADD PUSH1 0x80 DUP2 DUP11 SUB PUSH1 0x1F NOT ADD SLT ISZERO PUSH2 0xED8 JUMPI PUSH0 PUSH0 REVERT JUMPDEST PUSH2 0xEE0 PUSH2 0x714 JUMP JUMPDEST PUSH1 0x20 DUP3 ADD MLOAD PUSH1 0x1 PUSH1 0x1 PUSH1 0x40 SHL SUB DUP2 GT ISZERO PUSH2 0xEF8 JUMPI PUSH0 PUSH0 REVERT JUMPDEST PUSH2 0xF07 DUP12 PUSH1 0x20 DUP4 DUP7 ADD ADD PUSH2 0xDCE JUMP JUMPDEST DUP3 MSTORE POP PUSH1 0x40 DUP3 ADD MLOAD PUSH1 0x20 DUP3 ADD MSTORE PUSH1 0x60 DUP3 ADD MLOAD PUSH1 0x1 PUSH1 0x1 PUSH1 0x40 SHL SUB DUP2 GT ISZERO PUSH2 0xF2C JUMPI PUSH0 PUSH0 REVERT JUMPDEST PUSH2 0xF3B DUP12 PUSH1 0x20 DUP4 DUP7 ADD ADD PUSH2 0xDCE JUMP JUMPDEST PUSH1 0x40 DUP4 ADD MSTORE POP PUSH1 0x80 DUP3 ADD MLOAD PUSH1 0x1 PUSH1 0x1 PUSH1 0x40 SHL SUB DUP2 GT ISZERO PUSH2 0xF59 JUMPI PUSH0 PUSH0 REVERT JUMPDEST PUSH1 0x20 DUP2 DUP5 ADD ADD SWAP3 POP POP PUSH2 0x220 DUP3 DUP12 SUB SLT ISZERO PUSH2 0xF72 JUMPI PUSH0 PUSH0 REVERT JUMPDEST PUSH2 0xF7A PUSH2 0x6EB JUMP JUMPDEST DUP3 MLOAD DUP2 MSTORE PUSH1 0x20 DUP1 DUP5 ADD MLOAD SWAP1 DUP3 ADD MSTORE PUSH1 0x40 DUP4 ADD MLOAD PUSH1 0x1 PUSH1 0x1 PUSH1 0x40 SHL SUB DUP2 GT ISZERO PUSH2 0xFA0 JUMPI PUSH0 PUSH0 REVERT JUMPDEST PUSH2 0xFAC DUP13 DUP3 DUP7 ADD PUSH2 0xDCE JUMP JUMPDEST PUSH1 0x40 DUP4 ADD MSTORE POP PUSH1 0x60 DUP4 ADD MLOAD PUSH1 0x1 PUSH1 0x1 PUSH1 0x40 SHL SUB DUP2 GT ISZERO PUSH2 0xFCA JUMPI PUSH0 PUSH0 REVERT JUMPDEST PUSH2 0xFD6 DUP13 DUP3 DUP7 ADD PUSH2 0xDCE JUMP JUMPDEST PUSH1 0x60 DUP4 ADD MSTORE POP PUSH1 0x80 DUP4 DUP2 ADD MLOAD SWAP1 DUP3 ADD MSTORE PUSH1 0xA0 DUP1 DUP5 ADD MLOAD SWAP1 DUP3 ADD MSTORE PUSH1 0xC0 DUP4 ADD MLOAD PUSH1 0x1 PUSH1 0x1 PUSH1 0x40 SHL SUB DUP2 GT ISZERO PUSH2 0x1008 JUMPI PUSH0 PUSH0 REVERT JUMPDEST PUSH2 0x1014 DUP13 DUP3 DUP7 ADD PUSH2 0xDCE JUMP JUMPDEST PUSH1 0xC0 DUP4 ADD MSTORE POP PUSH1 0xE0 DUP4 ADD MLOAD PUSH1 0x1 PUSH1 0x1 PUSH1 0x40 SHL SUB DUP2 GT ISZERO PUSH2 0x1032 JUMPI PUSH0 PUSH0 REVERT JUMPDEST PUSH2 0x103E DUP13 DUP3 DUP7 ADD PUSH2 0xDCE JUMP JUMPDEST PUSH1 0xE0 DUP4 ADD MSTORE POP PUSH2 0x100 DUP4 ADD MLOAD PUSH1 0x1 PUSH1 0x1 PUSH1 0x40 SHL SUB DUP2 GT ISZERO PUSH2 0x105D JUMPI PUSH0 PUSH0 REVERT JUMPDEST PUSH2 0x1069 DUP13 DUP3 DUP7 ADD PUSH2 0xDCE JUMP JUMPDEST PUSH2 0x100 DUP4 ADD MSTORE POP PUSH2 0x120 DUP4 ADD MLOAD PUSH1 0x1 PUSH1 0x1 PUSH1 0x40 SHL SUB DUP2 GT ISZERO PUSH2 0x1089 JUMPI PUSH0 PUSH0 REVERT JUMPDEST PUSH2 0x1095 DUP13 DUP3 DUP7 ADD PUSH2 0xDCE JUMP JUMPDEST PUSH2 0x120 DUP4 ADD MSTORE POP PUSH2 0x140 DUP4 ADD MLOAD PUSH1 0x1 PUSH1 0x1 PUSH1 0x40 SHL SUB DUP2 GT ISZERO PUSH2 0x10B5 JUMPI PUSH0 PUSH0 REVERT JUMPDEST PUSH2 0x10C1 DUP13 DUP3 DUP7 ADD PUSH2 0xDCE JUMP JUMPDEST PUSH2 0x140 DUP4 ADD MSTORE POP PUSH2 0x160 DUP4 DUP2 ADD MLOAD SWAP1 DUP3 ADD MSTORE PUSH2 0x10E0 PUSH2 0x180 DUP5 ADD PUSH2 0xE1B JUMP JUMPDEST PUSH2 0x180 DUP3 ADD MSTORE PUSH2 0x1A0 DUP4 ADD MLOAD PUSH1 0x1 PUSH1 0x1 PUSH1 0x40 SHL SUB DUP2 GT ISZERO PUSH2 0x10FF JUMPI PUSH0 PUSH0 REVERT JUMPDEST PUSH2 0x110B DUP13 DUP3 DUP7 ADD PUSH2 0xDCE JUMP JUMPDEST PUSH2 0x1A0 DUP4 ADD MSTORE POP PUSH2 0x1C0 DUP4 ADD MLOAD PUSH1 0x1 PUSH1 0x1 PUSH1 0x40 SHL SUB DUP2 GT ISZERO PUSH2 0x112B JUMPI PUSH0 PUSH0 REVERT JUMPDEST PUSH2 0x1137 DUP13 DUP3 DUP7 ADD PUSH2 0xDCE JUMP JUMPDEST PUSH2 0x1C0 DUP4 ADD MSTORE POP PUSH2 0x1E0 DUP4 ADD MLOAD PUSH1 0x1 PUSH1 0x1 PUSH1 0x40 SHL SUB DUP2 GT ISZERO PUSH2 0x1157 JUMPI PUSH0 PUSH0 REVERT JUMPDEST PUSH2 0x1163 DUP13 DUP3 DUP7 ADD PUSH2 0xDCE JUMP JUMPDEST PUSH2 0x1E0 DUP4 ADD MSTORE POP PUSH2 0x200 DUP4 ADD MLOAD PUSH1 0x1 PUSH1 0x1 PUSH1 0x40 SHL SUB DUP2 GT ISZERO PUSH2 0x1183 JUMPI PUSH0 PUSH0 REVERT JUMPDEST PUSH2 0x118F DUP13 DUP3 DUP7 ADD PUSH2 0xDCE JUMP JUMPDEST PUSH2 0x200 DUP4 ADD MSTORE POP PUSH1 0x60 DUP3 ADD MSTORE DUP4 MSTORE POP PUSH1 0x20 SWAP3 DUP4 ADD SWAP3 SWAP1 SWAP2 ADD SWAP1 PUSH2 0xEA6 JUMP JUMPDEST SWAP8 SWAP7 POP POP POP POP POP POP POP JUMP JUMPDEST PUSH0 PUSH1 0x20 DUP3 DUP5 SUB SLT ISZERO PUSH2 0x11C8 JUMPI PUSH0 PUSH0 REVERT JUMPDEST POP MLOAD SWAP2 SWAP1 POP JUMP JUMPDEST PUSH4 0x4E487B71 PUSH1 0xE0 SHL PUSH0 MSTORE PUSH1 0x32 PUSH1 0x4 MSTORE PUSH1 0x24 PUSH0 REVERT JUMPDEST PUSH1 0x20 DUP2 MSTORE PUSH0 PUSH2 0xAB7 PUSH1 0x20 DUP4 ADD DUP5 PUSH2 0x886 JUMP JUMPDEST PUSH0 DUP3 PUSH2 0x120F JUMPI PUSH4 0x4E487B71 PUSH1 0xE0 SHL PUSH0 MSTORE PUSH1 0x12 PUSH1 0x4 MSTORE PUSH1 0x24 PUSH0 REVERT JUMPDEST POP DIV SWAP1 JUMP INVALID PUSH1 0x80 PUSH1 0x40 MSTORE CALLVALUE DUP1 ISZERO PUSH2 0xF JUMPI PUSH0 PUSH0 REVERT JUMPDEST POP PUSH1 0x40 MLOAD PUSH2 0x29B1 CODESIZE SUB DUP1 PUSH2 0x29B1 DUP4 CODECOPY DUP2 ADD PUSH1 0x40 DUP2 SWAP1 MSTORE PUSH2 0x2E SWAP2 PUSH2 0x54 JUMP JUMPDEST PUSH0 PUSH2 0x39 DUP3 DUP3 PUSH2 0x188 JUMP JUMPDEST POP POP PUSH2 0x242 JUMP JUMPDEST PUSH4 0x4E487B71 PUSH1 0xE0 SHL PUSH0 MSTORE PUSH1 0x41 PUSH1 0x4 MSTORE PUSH1 0x24 PUSH0 REVERT JUMPDEST PUSH0 PUSH1 0x20 DUP3 DUP5 SUB SLT ISZERO PUSH2 0x64 JUMPI PUSH0 PUSH0 REVERT JUMPDEST DUP2 MLOAD PUSH1 0x1 PUSH1 0x1 PUSH1 0x40 SHL SUB DUP2 GT ISZERO PUSH2 0x79 JUMPI PUSH0 PUSH0 REVERT JUMPDEST DUP3 ADD PUSH1 0x1F DUP2 ADD DUP5 SGT PUSH2 0x89 JUMPI PUSH0 PUSH0 REVERT JUMPDEST DUP1 MLOAD PUSH1 0x1 PUSH1 0x1 PUSH1 0x40 SHL SUB DUP2 GT ISZERO PUSH2 0xA2 JUMPI PUSH2 0xA2 PUSH2 0x40 JUMP JUMPDEST PUSH1 0x40 MLOAD PUSH1 0x1F DUP3 ADD PUSH1 0x1F NOT SWAP1 DUP2 AND PUSH1 0x3F ADD AND DUP2 ADD PUSH1 0x1 PUSH1 0x1 PUSH1 0x40 SHL SUB DUP2 GT DUP3 DUP3 LT OR ISZERO PUSH2 0xD0 JUMPI PUSH2 0xD0 PUSH2 0x40 JUMP JUMPDEST PUSH1 0x40 MSTORE DUP2 DUP2 MSTORE DUP3 DUP3 ADD PUSH1 0x20 ADD DUP7 LT ISZERO PUSH2 0xE7 JUMPI PUSH0 PUSH0 REVERT JUMPDEST DUP2 PUSH1 0x20 DUP5 ADD PUSH1 0x20 DUP4 ADD MCOPY PUSH0 SWAP2 DUP2 ADD PUSH1 0x20 ADD SWAP2 SWAP1 SWAP2 MSTORE SWAP5 SWAP4 POP POP POP POP JUMP JUMPDEST PUSH1 0x1 DUP2 DUP2 SHR SWAP1 DUP3 AND DUP1 PUSH2 0x118 JUMPI PUSH1 0x7F DUP3 AND SWAP2 POP JUMPDEST PUSH1 0x20 DUP3 LT DUP2 SUB PUSH2 0x136 JUMPI PUSH4 0x4E487B71 PUSH1 0xE0 SHL PUSH0 MSTORE PUSH1 0x22 PUSH1 0x4 MSTORE PUSH1 0x24 PUSH0 REVERT JUMPDEST POP SWAP2 SWAP1 POP JUMP JUMPDEST PUSH1 0x1F DUP3 GT ISZERO PUSH2 0x183 JUMPI DUP1 PUSH0 MSTORE PUSH1 0x20 PUSH0 KECCAK256 PUSH1 0x1F DUP5 ADD PUSH1 0x5 SHR DUP2 ADD PUSH1 0x20 DUP6 LT ISZERO PUSH2 0x161 JUMPI POP DUP1 JUMPDEST PUSH1 0x1F DUP5 ADD PUSH1 0x5 SHR DUP3 ADD SWAP2 POP JUMPDEST DUP2 DUP2 LT ISZERO PUSH2 0x180 JUMPI PUSH0 DUP2 SSTORE PUSH1 0x1 ADD PUSH2 0x16D JUMP JUMPDEST POP POP JUMPDEST POP POP POP JUMP JUMPDEST DUP2 MLOAD PUSH1 0x1 PUSH1 0x1 PUSH1 0x40 SHL SUB DUP2 GT ISZERO PUSH2 0x1A1 JUMPI PUSH2 0x1A1 PUSH2 0x40 JUMP JUMPDEST PUSH2 0x1B5 DUP2 PUSH2 0x1AF DUP5 SLOAD PUSH2 0x104 JUMP JUMPDEST DUP5 PUSH2 0x13C JUMP JUMPDEST PUSH1 0x20 PUSH1 0x1F DUP3 GT PUSH1 0x1 DUP2 EQ PUSH2 0x1E7 JUMPI PUSH0 DUP4 ISZERO PUSH2 0x1D0 JUMPI POP DUP5 DUP3 ADD MLOAD JUMPDEST PUSH0 NOT PUSH1 0x3 DUP6 SWAP1 SHL SHR NOT AND PUSH1 0x1 DUP5 SWAP1 SHL OR DUP5 SSTORE PUSH2 0x180 JUMP JUMPDEST PUSH0 DUP5 DUP2 MSTORE PUSH1 0x20 DUP2 KECCAK256 PUSH1 0x1F NOT DUP6 AND SWAP2 JUMPDEST DUP3 DUP2 LT ISZERO PUSH2 0x216 JUMPI DUP8 DUP6 ADD MLOAD DUP3 SSTORE PUSH1 0x20 SWAP5 DUP6 ADD SWAP5 PUSH1 0x1 SWAP1 SWAP3 ADD SWAP2 ADD PUSH2 0x1F6 JUMP JUMPDEST POP DUP5 DUP3 LT ISZERO PUSH2 0x233 JUMPI DUP7 DUP5 ADD MLOAD PUSH0 NOT PUSH1 0x3 DUP8 SWAP1 SHL PUSH1 0xF8 AND SHR NOT AND DUP2 SSTORE JUMPDEST POP POP POP POP PUSH1 0x1 SWAP1 DUP2 SHL ADD SWAP1 SSTORE POP JUMP JUMPDEST PUSH2 0x2762 DUP1 PUSH2 0x24F PUSH0 CODECOPY PUSH0 RETURN INVALID PUSH1 0x80 PUSH1 0x40 MSTORE CALLVALUE DUP1 ISZERO PUSH2 0xF JUMPI PUSH0 PUSH0 REVERT JUMPDEST POP PUSH1 0x4 CALLDATASIZE LT PUSH2 0x60 JUMPI PUSH0 CALLDATALOAD PUSH1 0xE0 SHR DUP1 PUSH4 0x48CBAD6E EQ PUSH2 0x64 JUMPI DUP1 PUSH4 0x50222387 EQ PUSH2 0x82 JUMPI DUP1 PUSH4 0x89FACB20 EQ PUSH2 0xA2 JUMPI DUP1 PUSH4 0xA8006D35 EQ PUSH2 0xB7 JUMPI DUP1 PUSH4 0xBE1C766B EQ PUSH2 0xCA JUMPI DUP1 PUSH4 0xF2523A9D EQ PUSH2 0xDB JUMPI JUMPDEST PUSH0 PUSH0 REVERT JUMPDEST PUSH2 0x6C PUSH2 0xF0 JUMP JUMPDEST PUSH1 0x40 MLOAD PUSH2 0x79 SWAP2 SWAP1 PUSH2 0x208B JUMP JUMPDEST PUSH1 0x40 MLOAD DUP1 SWAP2 SUB SWAP1 RETURN JUMPDEST PUSH2 0x95 PUSH2 0x90 CALLDATASIZE PUSH1 0x4 PUSH2 0x20EE JUMP JUMPDEST PUSH2 0x96B JUMP JUMPDEST PUSH1 0x40 MLOAD PUSH2 0x79 SWAP2 SWAP1 PUSH2 0x2105 JUMP JUMPDEST PUSH2 0xAA PUSH2 0x1143 JUMP JUMPDEST PUSH1 0x40 MLOAD PUSH2 0x79 SWAP2 SWAP1 PUSH2 0x211E JUMP JUMPDEST PUSH2 0x6C PUSH2 0xC5 CALLDATASIZE PUSH1 0x4 PUSH2 0x20EE JUMP JUMPDEST PUSH2 0x11CE JUMP JUMPDEST PUSH1 0x2 SLOAD PUSH1 0x40 MLOAD SWAP1 DUP2 MSTORE PUSH1 0x20 ADD PUSH2 0x79 JUMP JUMPDEST PUSH2 0xEE PUSH2 0xE9 CALLDATASIZE PUSH1 0x4 PUSH2 0x2130 JUMP JUMPDEST PUSH2 0x1ACA JUMP JUMPDEST STOP JUMPDEST PUSH1 0x2 SLOAD PUSH1 0x60 SWAP1 PUSH0 SWAP1 PUSH1 0x1 PUSH1 0x1 PUSH1 0x40 SHL SUB DUP2 GT ISZERO PUSH2 0x10F JUMPI PUSH2 0x10F PUSH2 0x2167 JUMP JUMPDEST PUSH1 0x40 MLOAD SWAP1 DUP1 DUP3 MSTORE DUP1 PUSH1 0x20 MUL PUSH1 0x20 ADD DUP3 ADD PUSH1 0x40 MSTORE DUP1 ISZERO PUSH2 0x148 JUMPI DUP2 PUSH1 0x20 ADD JUMPDEST PUSH2 0x135 PUSH2 0x1DF3 JUMP JUMPDEST DUP2 MSTORE PUSH1 0x20 ADD SWAP1 PUSH1 0x1 SWAP1 SUB SWAP1 DUP2 PUSH2 0x12D JUMPI SWAP1 POP JUMPDEST POP SWAP1 POP PUSH0 JUMPDEST PUSH1 0x2 SLOAD DUP2 LT ISZERO PUSH2 0x965 JUMPI PUSH1 0x1 PUSH0 PUSH1 0x2 DUP4 DUP2 SLOAD DUP2 LT PUSH2 0x16D JUMPI PUSH2 0x16D PUSH2 0x217B JUMP JUMPDEST SWAP1 PUSH0 MSTORE PUSH1 0x20 PUSH0 KECCAK256 ADD SLOAD DUP2 MSTORE PUSH1 0x20 ADD SWAP1 DUP2 MSTORE PUSH1 0x20 ADD PUSH0 KECCAK256 PUSH1 0x40 MLOAD DUP1 PUSH1 0x80 ADD PUSH1 0x40 MSTORE SWAP1 DUP2 PUSH0 DUP3 ADD DUP1 SLOAD PUSH2 0x19D SWAP1 PUSH2 0x218F JUMP JUMPDEST DUP1 PUSH1 0x1F ADD PUSH1 0x20 DUP1 SWAP2 DIV MUL PUSH1 0x20 ADD PUSH1 0x40 MLOAD SWAP1 DUP2 ADD PUSH1 0x40 MSTORE DUP1 SWAP3 SWAP2 SWAP1 DUP2 DUP2 MSTORE PUSH1 0x20 ADD DUP3 DUP1 SLOAD PUSH2 0x1C9 SWAP1 PUSH2 0x218F JUMP JUMPDEST DUP1 ISZERO PUSH2 0x214 JUMPI DUP1 PUSH1 0x1F LT PUSH2 0x1EB JUMPI PUSH2 0x100 DUP1 DUP4 SLOAD DIV MUL DUP4 MSTORE SWAP2 PUSH1 0x20 ADD SWAP2 PUSH2 0x214 JUMP JUMPDEST DUP3 ADD SWAP2 SWAP1 PUSH0 MSTORE PUSH1 0x20 PUSH0 KECCAK256 SWAP1 JUMPDEST DUP2 SLOAD DUP2 MSTORE SWAP1 PUSH1 0x1 ADD SWAP1 PUSH1 0x20 ADD DUP1 DUP4 GT PUSH2 0x1F7 JUMPI DUP3 SWAP1 SUB PUSH1 0x1F AND DUP3 ADD SWAP2 JUMPDEST POP POP POP POP POP DUP2 MSTORE PUSH1 0x20 ADD PUSH1 0x1 DUP3 ADD SLOAD DUP2 MSTORE PUSH1 0x20 ADD PUSH1 0x2 DUP3 ADD DUP1 SLOAD PUSH2 0x237 SWAP1 PUSH2 0x218F JUMP JUMPDEST DUP1 PUSH1 0x1F ADD PUSH1 0x20 DUP1 SWAP2 DIV MUL PUSH1 0x20 ADD PUSH1 0x40 MLOAD SWAP1 DUP2 ADD PUSH1 0x40 MSTORE DUP1 SWAP3 SWAP2 SWAP1 DUP2 DUP2 MSTORE PUSH1 0x20 ADD DUP3 DUP1 SLOAD PUSH2 0x263 SWAP1 PUSH2 0x218F JUMP JUMPDEST DUP1 ISZERO PUSH2 0x2AE JUMPI DUP1 PUSH1 0x1F LT PUSH2 0x285 JUMPI PUSH2 0x100 DUP1 DUP4 SLOAD DIV MUL DUP4 MSTORE SWAP2 PUSH1 0x20 ADD SWAP2 PUSH2 0x2AE JUMP JUMPDEST DUP3 ADD SWAP2 SWAP1 PUSH0 MSTORE PUSH1 0x20 PUSH0 KECCAK256 SWAP1 JUMPDEST DUP2 SLOAD DUP2 MSTORE SWAP1 PUSH1 0x1 ADD SWAP1 PUSH1 0x20 ADD DUP1 DUP4 GT PUSH2 0x291 JUMPI DUP3 SWAP1 SUB PUSH1 0x1F AND DUP3 ADD SWAP2 JUMPDEST POP POP POP POP POP DUP2 MSTORE PUSH1 0x20 ADD PUSH1 0x3 DUP3 ADD PUSH1 0x40 MLOAD DUP1 PUSH2 0x220 ADD PUSH1 0x40 MSTORE SWAP1 DUP2 PUSH0 DUP3 ADD SLOAD DUP2 MSTORE PUSH1 0x20 ADD PUSH1 0x1 DUP3 ADD SLOAD DUP2 MSTORE PUSH1 0x20 ADD PUSH1 0x2 DUP3 ADD DUP1 SLOAD PUSH2 0x2EB SWAP1 PUSH2 0x218F JUMP JUMPDEST DUP1 PUSH1 0x1F ADD PUSH1 0x20 DUP1 SWAP2 DIV MUL PUSH1 0x20 ADD PUSH1 0x40 MLOAD SWAP1 DUP2 ADD PUSH1 0x40 MSTORE DUP1 SWAP3 SWAP2 SWAP1 DUP2 DUP2 MSTORE PUSH1 0x20 ADD DUP3 DUP1 SLOAD PUSH2 0x317 SWAP1 PUSH2 0x218F JUMP JUMPDEST DUP1 ISZERO PUSH2 0x362 JUMPI DUP1 PUSH1 0x1F LT PUSH2 0x339 JUMPI PUSH2 0x100 DUP1 DUP4 SLOAD DIV MUL DUP4 MSTORE SWAP2 PUSH1 0x20 ADD SWAP2 PUSH2 0x362 JUMP JUMPDEST DUP3 ADD SWAP2 SWAP1 PUSH0 MSTORE PUSH1 0x20 PUSH0 KECCAK256 SWAP1 JUMPDEST DUP2 SLOAD DUP2 MSTORE SWAP1 PUSH1 0x1 ADD SWAP1 PUSH1 0x20 ADD DUP1 DUP4 GT PUSH2 0x345 JUMPI DUP3 SWAP1 SUB PUSH1 0x1F AND DUP3 ADD SWAP2 JUMPDEST POP POP POP POP POP DUP2 MSTORE PUSH1 0x20 ADD PUSH1 0x3 DUP3 ADD DUP1 SLOAD PUSH2 0x37B SWAP1 PUSH2 0x218F JUMP JUMPDEST DUP1 PUSH1 0x1F ADD PUSH1 0x20 DUP1 SWAP2 DIV MUL PUSH1 0x20 ADD PUSH1 0x40 MLOAD SWAP1 DUP2 ADD PUSH1 0x40 MSTORE DUP1 SWAP3 SWAP2 SWAP1 DUP2 DUP2 MSTORE PUSH1 0x20 ADD DUP3 DUP1 SLOAD PUSH2 0x3A7 SWAP1 PUSH2 0x218F JUMP JUMPDEST DUP1 ISZERO PUSH2 0x3F2 JUMPI DUP1 PUSH1 0x1F LT PUSH2 0x3C9 JUMPI PUSH2 0x100 DUP1 DUP4 SLOAD DIV MUL DUP4 MSTORE SWAP2 PUSH1 0x20 ADD SWAP2 PUSH2 0x3F2 JUMP JUMPDEST DUP3 ADD SWAP2 SWAP1 PUSH0 MSTORE PUSH1 0x20 PUSH0 KECCAK256 SWAP1 JUMPDEST DUP2 SLOAD DUP2 MSTORE SWAP1 PUSH1 0x1 ADD SWAP1 PUSH1 0x20 ADD DUP1 DUP4 GT PUSH2 0x3D5 JUMPI DUP3 SWAP1 SUB PUSH1 0x1F AND DUP3 ADD SWAP2 JUMPDEST POP POP POP POP POP DUP2 MSTORE PUSH1 0x20 ADD PUSH1 0x4 DUP3 ADD SLOAD DUP2 MSTORE PUSH1 0x20 ADD PUSH1 0x5 DUP3 ADD SLOAD DUP2 MSTORE PUSH1 0x20 ADD PUSH1 0x6 DUP3 ADD DUP1 SLOAD PUSH2 0x41F SWAP1 PUSH2 0x218F JUMP JUMPDEST DUP1 PUSH1 0x1F ADD PUSH1 0x20 DUP1 SWAP2 DIV MUL PUSH1 0x20 ADD PUSH1 0x40 MLOAD SWAP1 DUP2 ADD PUSH1 0x40 MSTORE DUP1 SWAP3 SWAP2 SWAP1 DUP2 DUP2 MSTORE PUSH1 0x20 ADD DUP3 DUP1 SLOAD PUSH2 0x44B SWAP1 PUSH2 0x218F JUMP JUMPDEST DUP1 ISZERO PUSH2 0x496 JUMPI DUP1 PUSH1 0x1F LT PUSH2 0x46D JUMPI PUSH2 0x100 DUP1 DUP4 SLOAD DIV MUL DUP4 MSTORE SWAP2 PUSH1 0x20 ADD SWAP2 PUSH2 0x496 JUMP JUMPDEST DUP3 ADD SWAP2 SWAP1 PUSH0 MSTORE PUSH1 0x20 PUSH0 KECCAK256 SWAP1 JUMPDEST DUP2 SLOAD DUP2 MSTORE SWAP1 PUSH1 0x1 ADD SWAP1 PUSH1 0x20 ADD DUP1 DUP4 GT PUSH2 0x479 JUMPI DUP3 SWAP1 SUB PUSH1 0x1F AND DUP3 ADD SWAP2 JUMPDEST POP POP POP POP POP DUP2 MSTORE PUSH1 0x20 ADD PUSH1 0x7 DUP3 ADD DUP1 SLOAD PUSH2 0x4AF SWAP1 PUSH2 0x218F JUMP JUMPDEST DUP1 PUSH1 0x1F ADD PUSH1 0x20 DUP1 SWAP2 DIV MUL PUSH1 0x20 ADD PUSH1 0x40 MLOAD SWAP1 DUP2 ADD PUSH1 0x40 MSTORE DUP1 SWAP3 SWAP2 SWAP1 DUP2 DUP2 MSTORE PUSH1 0x20 ADD DUP3 DUP1 SLOAD PUSH2 0x4DB SWAP1 PUSH2 0x218F JUMP JUMPDEST DUP1 ISZERO PUSH2 0x526 JUMPI DUP1 PUSH1 0x1F LT PUSH2 0x4FD JUMPI PUSH2 0x100 DUP1 DUP4 SLOAD DIV MUL DUP4 MSTORE SWAP2 PUSH1 0x20 ADD SWAP2 PUSH2 0x526 JUMP JUMPDEST DUP3 ADD SWAP2 SWAP1 PUSH0 MSTORE PUSH1 0x20 PUSH0 KECCAK256 SWAP1 JUMPDEST DUP2 SLOAD DUP2 MSTORE SWAP1 PUSH1 0x1 ADD SWAP1 PUSH1 0x20 ADD DUP1 DUP4 GT PUSH2 0x509 JUMPI DUP3 SWAP1 SUB PUSH1 0x1F AND DUP3 ADD SWAP2 JUMPDEST POP POP POP POP POP DUP2 MSTORE PUSH1 0x20 ADD PUSH1 0x8 DUP3 ADD DUP1 SLOAD PUSH2 0x53F SWAP1 PUSH2 0x218F JUMP JUMPDEST DUP1 PUSH1 0x1F ADD PUSH1 0x20 DUP1 SWAP2 DIV MUL PUSH1 0x20 ADD PUSH1 0x40 MLOAD SWAP1 DUP2 ADD PUSH1 0x40 MSTORE DUP1 SWAP3 SWAP2 SWAP1 DUP2 DUP2 MSTORE PUSH1 0x20 ADD DUP3 DUP1 SLOAD PUSH2 0x56B SWAP1 PUSH2 0x218F JUMP JUMPDEST DUP1 ISZERO PUSH2 0x5B6 JUMPI DUP1 PUSH1 0x1F LT PUSH2 0x58D JUMPI PUSH2 0x100 DUP1 DUP4 SLOAD DIV MUL DUP4 MSTORE SWAP2 PUSH1 0x20 ADD SWAP2 PUSH2 0x5B6 JUMP JUMPDEST DUP3 ADD SWAP2 SWAP1 PUSH0 MSTORE PUSH1 0x20 PUSH0 KECCAK256 SWAP1 JUMPDEST DUP2 SLOAD DUP2 MSTORE SWAP1 PUSH1 0x1 ADD SWAP1 PUSH1 0x20 ADD DUP1 DUP4 GT PUSH2 0x599 JUMPI DUP3 SWAP1 SUB PUSH1 0x1F AND DUP3 ADD SWAP2 JUMPDEST POP POP POP POP POP DUP2 MSTORE PUSH1 0x20 ADD PUSH1 0x9 DUP3 ADD DUP1 SLOAD PUSH2 0x5CF SWAP1 PUSH2 0x218F JUMP JUMPDEST DUP1 PUSH1 0x1F ADD PUSH1 0x20 DUP1 SWAP2 DIV MUL PUSH1 0x20 ADD PUSH1 0x40 MLOAD SWAP1 DUP2 ADD PUSH1 0x40 MSTORE DUP1 SWAP3 SWAP2 SWAP1 DUP2 DUP2 MSTORE PUSH1 0x20 ADD DUP3 DUP1 SLOAD PUSH2 0x5FB SWAP1 PUSH2 0x218F JUMP JUMPDEST DUP1 ISZERO PUSH2 0x646 JUMPI DUP1 PUSH1 0x1F LT PUSH2 0x61D JUMPI PUSH2 0x100 DUP1 DUP4 SLOAD DIV MUL DUP4 MSTORE SWAP2 PUSH1 0x20 ADD SWAP2 PUSH2 0x646 JUMP JUMPDEST DUP3 ADD SWAP2 SWAP1 PUSH0 MSTORE PUSH1 0x20 PUSH0 KECCAK256 SWAP1 JUMPDEST DUP2 SLOAD DUP2 MSTORE SWAP1 PUSH1 0x1 ADD SWAP1 PUSH1 0x20 ADD DUP1 DUP4 GT PUSH2 0x629 JUMPI DUP3 SWAP1 SUB PUSH1 0x1F AND DUP3 ADD SWAP2 JUMPDEST POP POP POP POP POP DUP2 MSTORE PUSH1 0x20 ADD PUSH1 0xA DUP3 ADD DUP1 SLOAD PUSH2 0x65F SWAP1 PUSH2 0x218F JUMP JUMPDEST DUP1 PUSH1 0x1F ADD PUSH1 0x20 DUP1 SWAP2 DIV MUL PUSH1 0x20 ADD PUSH1 0x40 MLOAD SWAP1 DUP2 ADD PUSH1 0x40 MSTORE DUP1 SWAP3 SWAP2 SWAP1 DUP2 DUP2 MSTORE PUSH1 0x20 ADD DUP3 DUP1 SLOAD PUSH2 0x68B SWAP1 PUSH2 0x218F JUMP JUMPDEST DUP1 ISZERO PUSH2 0x6D6 JUMPI DUP1 PUSH1 0x1F LT PUSH2 0x6AD JUMPI PUSH2 0x100 DUP1 DUP4 SLOAD DIV MUL DUP4 MSTORE SWAP2 PUSH1 0x20 ADD SWAP2 PUSH2 0x6D6 JUMP JUMPDEST DUP3 ADD SWAP2 SWAP1 PUSH0 MSTORE PUSH1 0x20 PUSH0 KECCAK256 SWAP1 JUMPDEST DUP2 SLOAD DUP2 MSTORE SWAP1 PUSH1 0x1 ADD SWAP1 PUSH1 0x20 ADD DUP1 DUP4 GT PUSH2 0x6B9 JUMPI DUP3 SWAP1 SUB PUSH1 0x1F AND DUP3 ADD SWAP2 JUMPDEST POP POP POP SWAP2 DUP4 MSTORE POP POP PUSH1 0xB DUP3 ADD SLOAD PUSH1 0x20 DUP3 ADD MSTORE PUSH1 0xC DUP3 ADD SLOAD PUSH1 0xFF AND ISZERO ISZERO PUSH1 0x40 DUP3 ADD MSTORE PUSH1 0xD DUP3 ADD DUP1 SLOAD PUSH1 0x60 SWAP1 SWAP3 ADD SWAP2 PUSH2 0x70C SWAP1 PUSH2 0x218F JUMP JUMPDEST DUP1 PUSH1 0x1F ADD PUSH1 0x20 DUP1 SWAP2 DIV MUL PUSH1 0x20 ADD PUSH1 0x40 MLOAD SWAP1 DUP2 ADD PUSH1 0x40 MSTORE DUP1 SWAP3 SWAP2 SWAP1 DUP2 DUP2 MSTORE PUSH1 0x20 ADD DUP3 DUP1 SLOAD PUSH2 0x738 SWAP1 PUSH2 0x218F JUMP JUMPDEST DUP1 ISZERO PUSH2 0x783 JUMPI DUP1 PUSH1 0x1F LT PUSH2 0x75A JUMPI PUSH2 0x100 DUP1 DUP4 SLOAD DIV MUL DUP4 MSTORE SWAP2 PUSH1 0x20 ADD SWAP2 PUSH2 0x783 JUMP JUMPDEST DUP3 ADD SWAP2 SWAP1 PUSH0 MSTORE PUSH1 0x20 PUSH0 KECCAK256 SWAP1 JUMPDEST DUP2 SLOAD DUP2 MSTORE SWAP1 PUSH1 0x1 ADD SWAP1 PUSH1 0x20 ADD DUP1 DUP4 GT PUSH2 0x766 JUMPI DUP3 SWAP1 SUB PUSH1 0x1F AND DUP3 ADD SWAP2 JUMPDEST POP POP POP POP POP DUP2 MSTORE PUSH1 0x20 ADD PUSH1 0xE DUP3 ADD DUP1 SLOAD PUSH2 0x79C SWAP1 PUSH2 0x218F JUMP JUMPDEST DUP1 PUSH1 0x1F ADD PUSH1 0x20 DUP1 SWAP2 DIV MUL PUSH1 0x20 ADD PUSH1 0x40 MLOAD SWAP1 DUP2 ADD PUSH1 0x40 MSTORE DUP1 SWAP3 SWAP2 SWAP1 DUP2 DUP2 MSTORE PUSH1 0x20 ADD DUP3 DUP1 SLOAD PUSH2 0x7C8 SWAP1 PUSH2 0x218F JUMP JUMPDEST DUP1 ISZERO PUSH2 0x813 JUMPI DUP1 PUSH1 0x1F LT PUSH2 0x7EA JUMPI PUSH2 0x100 DUP1 DUP4 SLOAD DIV MUL DUP4 MSTORE SWAP2 PUSH1 0x20 ADD SWAP2 PUSH2 0x813 JUMP JUMPDEST DUP3 ADD SWAP2 SWAP1 PUSH0 MSTORE PUSH1 0x20 PUSH0 KECCAK256 SWAP1 JUMPDEST DUP2 SLOAD DUP2 MSTORE SWAP1 PUSH1 0x1 ADD SWAP1 PUSH1 0x20 ADD DUP1 DUP4 GT PUSH2 0x7F6 JUMPI DUP3 SWAP1 SUB PUSH1 0x1F AND DUP3 ADD SWAP2 JUMPDEST POP POP POP POP POP DUP2 MSTORE PUSH1 0x20 ADD PUSH1 0xF DUP3 ADD DUP1 SLOAD PUSH2 0x82C SWAP1 PUSH2 0x218F JUMP JUMPDEST DUP1 PUSH1 0x1F ADD PUSH1 0x20 DUP1 SWAP2 DIV MUL PUSH1 0x20 ADD PUSH1 0x40 MLOAD SWAP1 DUP2 ADD PUSH1 0x40 MSTORE DUP1 SWAP3 SWAP2 SWAP1 DUP2 DUP2 MSTORE PUSH1 0x20 ADD DUP3 DUP1 SLOAD PUSH2 0x858 SWAP1 PUSH2 0x218F JUMP JUMPDEST DUP1 ISZERO PUSH2 0x8A3 JUMPI DUP1 PUSH1 0x1F LT PUSH2 0x87A JUMPI PUSH2 0x100 DUP1 DUP4 SLOAD DIV MUL DUP4 MSTORE SWAP2 PUSH1 0x20 ADD SWAP2 PUSH2 0x8A3 JUMP JUMPDEST DUP3 ADD SWAP2 SWAP1 PUSH0 MSTORE PUSH1 0x20 PUSH0 KECCAK256 SWAP1 JUMPDEST DUP2 SLOAD DUP2 MSTORE SWAP1 PUSH1 0x1 ADD SWAP1 PUSH1 0x20 ADD DUP1 DUP4 GT PUSH2 0x886 JUMPI DUP3 SWAP1 SUB PUSH1 0x1F AND DUP3 ADD SWAP2 JUMPDEST POP POP POP POP POP DUP2 MSTORE PUSH1 0x20 ADD PUSH1 0x10 DUP3 ADD DUP1 SLOAD PUSH2 0x8BC SWAP1 PUSH2 0x218F JUMP JUMPDEST DUP1 PUSH1 0x1F ADD PUSH1 0x20 DUP1 SWAP2 DIV MUL PUSH1 0x20 ADD PUSH1 0x40 MLOAD SWAP1 DUP2 ADD PUSH1 0x40 MSTORE DUP1 SWAP3 SWAP2 SWAP1 DUP2 DUP2 MSTORE PUSH1 0x20 ADD DUP3 DUP1 SLOAD PUSH2 0x8E8 SWAP1 PUSH2 0x218F JUMP JUMPDEST DUP1 ISZERO PUSH2 0x933 JUMPI DUP1 PUSH1 0x1F LT PUSH2 0x90A JUMPI PUSH2 0x100 DUP1 DUP4 SLOAD DIV MUL DUP4 MSTORE SWAP2 PUSH1 0x20 ADD SWAP2 PUSH2 0x933 JUMP JUMPDEST DUP3 ADD SWAP2 SWAP1 PUSH0 MSTORE PUSH1 0x20 PUSH0 KECCAK256 SWAP1 JUMPDEST DUP2 SLOAD DUP2 MSTORE SWAP1 PUSH1 0x1 ADD SWAP1 PUSH1 0x20 ADD DUP1 DUP4 GT PUSH2 0x916 JUMPI DUP3 SWAP1 SUB PUSH1 0x1F AND DUP3 ADD SWAP2 JUMPDEST POP POP POP POP POP DUP2 MSTORE POP POP DUP2 MSTORE POP POP DUP3 DUP3 DUP2 MLOAD DUP2 LT PUSH2 0x952 JUMPI PUSH2 0x952 PUSH2 0x217B JUMP JUMPDEST PUSH1 0x20 SWAP1 DUP2 MUL SWAP2 SWAP1 SWAP2 ADD ADD MSTORE PUSH1 0x1 ADD PUSH2 0x14D JUMP JUMPDEST POP SWAP2 SWAP1 POP JUMP JUMPDEST PUSH2 0x973 PUSH2 0x1DF3 JUMP JUMPDEST PUSH0 DUP3 DUP2 MSTORE PUSH1 0x1 PUSH1 0x20 MSTORE PUSH1 0x40 SWAP1 DUP2 SWAP1 KECCAK256 DUP2 MLOAD PUSH1 0x80 DUP2 ADD SWAP1 SWAP3 MSTORE DUP1 SLOAD DUP3 SWAP1 DUP3 SWAP1 PUSH2 0x99A SWAP1 PUSH2 0x218F JUMP JUMPDEST DUP1 PUSH1 0x1F ADD PUSH1 0x20 DUP1 SWAP2 DIV MUL PUSH1 0x20 ADD PUSH1 0x40 MLOAD SWAP1 DUP2 ADD PUSH1 0x40 MSTORE DUP1 SWAP3 SWAP2 SWAP1 DUP2 DUP2 MSTORE PUSH1 0x20 ADD DUP3 DUP1 SLOAD PUSH2 0x9C6 SWAP1 PUSH2 0x218F JUMP JUMPDEST DUP1 ISZERO PUSH2 0xA11 JUMPI DUP1 PUSH1 0x1F LT PUSH2 0x9E8 JUMPI PUSH2 0x100 DUP1 DUP4 SLOAD DIV MUL DUP4 MSTORE SWAP2 PUSH1 0x20 ADD SWAP2 PUSH2 0xA11 JUMP JUMPDEST DUP3 ADD SWAP2 SWAP1 PUSH0 MSTORE PUSH1 0x20 PUSH0 KECCAK256 SWAP1 JUMPDEST DUP2 SLOAD DUP2 MSTORE SWAP1 PUSH1 0x1 ADD SWAP1 PUSH1 0x20 ADD DUP1 DUP4 GT PUSH2 0x9F4 JUMPI DUP3 SWAP1 SUB PUSH1 0x1F AND DUP3 ADD SWAP2 JUMPDEST POP POP POP POP POP DUP2 MSTORE PUSH1 0x20 ADD PUSH1 0x1 DUP3 ADD SLOAD DUP2 MSTORE PUSH1 0x20 ADD PUSH1 0x2 DUP3 ADD DUP1 SLOAD PUSH2 0xA34 SWAP1 PUSH2 0x218F JUMP JUMPDEST DUP1 PUSH1 0x1F ADD PUSH1 0x20 DUP1 SWAP2 DIV MUL PUSH1 0x20 ADD PUSH1 0x40 MLOAD SWAP1 DUP2 ADD PUSH1 0x40 MSTORE DUP1 SWAP3 SWAP2 SWAP1 DUP2 DUP2 MSTORE PUSH1 0x20 ADD DUP3 DUP1 SLOAD PUSH2 0xA60 SWAP1 PUSH2 0x218F JUMP JUMPDEST DUP1 ISZERO PUSH2 0xAAB JUMPI DUP1 PUSH1 0x1F LT PUSH2 0xA82 JUMPI PUSH2 0x100 DUP1 DUP4 SLOAD DIV MUL DUP4 MSTORE SWAP2 PUSH1 0x20 ADD SWAP2 PUSH2 0xAAB JUMP JUMPDEST DUP3 ADD SWAP2 SWAP1 PUSH0 MSTORE PUSH1 0x20 PUSH0 KECCAK256 SWAP1 JUMPDEST DUP2 SLOAD DUP2 MSTORE SWAP1 PUSH1 0x1 ADD SWAP1 PUSH1 0x20 ADD DUP1 DUP4 GT PUSH2 0xA8E JUMPI DUP3 SWAP1 SUB PUSH1 0x1F AND DUP3 ADD SWAP2 JUMPDEST POP POP POP POP POP DUP2 MSTORE PUSH1 0x20 ADD PUSH1 0x3 DUP3 ADD PUSH1 0x40 MLOAD DUP1 PUSH2 0x220 ADD PUSH1 0x40 MSTORE SWAP1 DUP2 PUSH0 DUP3 ADD SLOAD DUP2 MSTORE PUSH1 0x20 ADD PUSH1 0x1 DUP3 ADD SLOAD DUP2 MSTORE PUSH1 0x20 ADD PUSH1 0x2 DUP3 ADD DUP1 SLOAD PUSH2 0xAE8 SWAP1 PUSH2 0x218F JUMP JUMPDEST DUP1 PUSH1 0x1F ADD PUSH1 0x20 DUP1 SWAP2 DIV MUL PUSH1 0x20 ADD PUSH1 0x40 MLOAD SWAP1 DUP2 ADD PUSH1 0x40 MSTORE DUP1 SWAP3 SWAP2 SWAP1 DUP2 DUP2 MSTORE PUSH1 0x20 ADD DUP3 DUP1 SLOAD PUSH2 0xB14 SWAP1 PUSH2 0x218F JUMP JUMPDEST DUP1 ISZERO PUSH2 0xB5F JUMPI DUP1 PUSH1 0x1F LT PUSH2 0xB36 JUMPI PUSH2 0x100 DUP1 DUP4 SLOAD DIV MUL DUP4 MSTORE SWAP2 PUSH1 0x20 ADD SWAP2 PUSH2 0xB5F JUMP JUMPDEST DUP3 ADD SWAP2 SWAP1 PUSH0 MSTORE PUSH1 0x20 PUSH0 KECCAK256 SWAP1 JUMPDEST DUP2 SLOAD DUP2 MSTORE SWAP1 PUSH1 0x1 ADD SWAP1 PUSH1 0x20 ADD DUP1 DUP4 GT PUSH2 0xB42 JUMPI DUP3 SWAP1 SUB PUSH1 0x1F AND DUP3 ADD SWAP2 JUMPDEST POP POP POP POP POP DUP2 MSTORE PUSH1 0x20 ADD PUSH1 0x3 DUP3 ADD DUP1 SLOAD PUSH2 0xB78 SWAP1 PUSH2 0x218F JUMP JUMPDEST DUP1 PUSH1 0x1F ADD PUSH1 0x20 DUP1 SWAP2 DIV MUL PUSH1 0x20 ADD PUSH1 0x40 MLOAD SWAP1 DUP2 ADD PUSH1 0x40 MSTORE DUP1 SWAP3 SWAP2 SWAP1 DUP2 DUP2 MSTORE PUSH1 0x20 ADD DUP3 DUP1 SLOAD PUSH2 0xBA4 SWAP1 PUSH2 0x218F JUMP JUMPDEST DUP1 ISZERO PUSH2 0xBEF JUMPI DUP1 PUSH1 0x1F LT PUSH2 0xBC6 JUMPI PUSH2 0x100 DUP1 DUP4 SLOAD DIV MUL DUP4 MSTORE SWAP2 PUSH1 0x20 ADD SWAP2 PUSH2 0xBEF JUMP JUMPDEST DUP3 ADD SWAP2 SWAP1 PUSH0 MSTORE PUSH1 0x20 PUSH0 KECCAK256 SWAP1 JUMPDEST DUP2 SLOAD DUP2 MSTORE SWAP1 PUSH1 0x1 ADD SWAP1 PUSH1 0x20 ADD DUP1 DUP4 GT PUSH2 0xBD2 JUMPI DUP3 SWAP1 SUB PUSH1 0x1F AND DUP3 ADD SWAP2 JUMPDEST POP POP POP POP POP DUP2 MSTORE PUSH1 0x20 ADD PUSH1 0x4 DUP3 ADD SLOAD DUP2 MSTORE PUSH1 0x20 ADD PUSH1 0x5 DUP3 ADD SLOAD DUP2 MSTORE PUSH1 0x20 ADD PUSH1 0x6 DUP3 ADD DUP1 SLOAD PUSH2 0xC1C SWAP1 PUSH2 0x218F JUMP JUMPDEST DUP1 PUSH1 0x1F ADD PUSH1 0x20 DUP1 SWAP2 DIV MUL PUSH1 0x20 ADD PUSH1 0x40 MLOAD SWAP1 DUP2 ADD PUSH1 0x40 MSTORE DUP1 SWAP3 SWAP2 SWAP1 DUP2 DUP2 MSTORE PUSH1 0x20 ADD DUP3 DUP1 SLOAD PUSH2 0xC48 SWAP1 PUSH2 0x218F JUMP JUMPDEST DUP1 ISZERO PUSH2 0xC93 JUMPI DUP1 PUSH1 0x1F LT PUSH2 0xC6A JUMPI PUSH2 0x100 DUP1 DUP4 SLOAD DIV MUL DUP4 MSTORE SWAP2 PUSH1 0x20 ADD SWAP2 PUSH2 0xC93 JUMP JUMPDEST DUP3 ADD SWAP2 SWAP1 PUSH0 MSTORE PUSH1 0x20 PUSH0 KECCAK256 SWAP1 JUMPDEST DUP2 SLOAD DUP2 MSTORE SWAP1 PUSH1 0x1 ADD SWAP1 PUSH1 0x20 ADD DUP1 DUP4 GT PUSH2 0xC76 JUMPI DUP3 SWAP1 SUB PUSH1 0x1F AND DUP3 ADD SWAP2 JUMPDEST POP POP POP POP POP DUP2 MSTORE PUSH1 0x20 ADD PUSH1 0x7 DUP3 ADD DUP1 SLOAD PUSH2 0xCAC SWAP1 PUSH2 0x218F JUMP JUMPDEST DUP1 PUSH1 0x1F ADD PUSH1 0x20 DUP1 SWAP2 DIV MUL PUSH1 0x20 ADD PUSH1 0x40 MLOAD SWAP1 DUP2 ADD PUSH1 0x40 MSTORE DUP1 SWAP3 SWAP2 SWAP1 DUP2 DUP2 MSTORE PUSH1 0x20 ADD DUP3 DUP1 SLOAD PUSH2 0xCD8 SWAP1 PUSH2 0x218F JUMP JUMPDEST DUP1 ISZERO PUSH2 0xD23 JUMPI DUP1 PUSH1 0x1F LT PUSH2 0xCFA JUMPI PUSH2 0x100 DUP1 DUP4 SLOAD DIV MUL DUP4 MSTORE SWAP2 PUSH1 0x20 ADD SWAP2 PUSH2 0xD23 JUMP JUMPDEST DUP3 ADD SWAP2 SWAP1 PUSH0 MSTORE PUSH1 0x20 PUSH0 KECCAK256 SWAP1 JUMPDEST DUP2 SLOAD DUP2 MSTORE SWAP1 PUSH1 0x1 ADD SWAP1 PUSH1 0x20 ADD DUP1 DUP4 GT PUSH2 0xD06 JUMPI DUP3 SWAP1 SUB PUSH1 0x1F AND DUP3 ADD SWAP2 JUMPDEST POP POP POP POP POP DUP2 MSTORE PUSH1 0x20 ADD PUSH1 0x8 DUP3 ADD DUP1 SLOAD PUSH2 0xD3C SWAP1 PUSH2 0x218F JUMP JUMPDEST DUP1 PUSH1 0x1F ADD PUSH1 0x20 DUP1 SWAP2 DIV MUL PUSH1 0x20 ADD PUSH1 0x40 MLOAD SWAP1 DUP2 ADD PUSH1 0x40 MSTORE DUP1 SWAP3 SWAP2 SWAP1 DUP2 DUP2 MSTORE PUSH1 0x20 ADD DUP3 DUP1 SLOAD PUSH2 0xD68 SWAP1 PUSH2 0x218F JUMP JUMPDEST DUP1 ISZERO PUSH2 0xDB3 JUMPI DUP1 PUSH1 0x1F LT PUSH2 0xD8A JUMPI PUSH2 0x100 DUP1 DUP4 SLOAD DIV MUL DUP4 MSTORE SWAP2 PUSH1 0x20 ADD SWAP2 PUSH2 0xDB3 JUMP JUMPDEST DUP3 ADD SWAP2 SWAP1 PUSH0 MSTORE PUSH1 0x20 PUSH0 KECCAK256 SWAP1 JUMPDEST DUP2 SLOAD DUP2 MSTORE SWAP1 PUSH1 0x1 ADD SWAP1 PUSH1 0x20 ADD DUP1 DUP4 GT PUSH2 0xD96 JUMPI DUP3 SWAP1 SUB PUSH1 0x1F AND DUP3 ADD SWAP2 JUMPDEST POP POP POP POP POP DUP2 MSTORE PUSH1 0x20 ADD PUSH1 0x9 DUP3 ADD DUP1 SLOAD PUSH2 0xDCC SWAP1 PUSH2 0x218F JUMP JUMPDEST DUP1 PUSH1 0x1F ADD PUSH1 0x20 DUP1 SWAP2 DIV MUL PUSH1 0x20 ADD PUSH1 0x40 MLOAD SWAP1 DUP2 ADD PUSH1 0x40 MSTORE DUP1 SWAP3 SWAP2 SWAP1 DUP2 DUP2 MSTORE PUSH1 0x20 ADD DUP3 DUP1 SLOAD PUSH2 0xDF8 SWAP1 PUSH2 0x218F JUMP JUMPDEST DUP1 ISZERO PUSH2 0xE43 JUMPI DUP1 PUSH1 0x1F LT PUSH2 0xE1A JUMPI PUSH2 0x100 DUP1 DUP4 SLOAD DIV MUL DUP4 MSTORE SWAP2 PUSH1 0x20 ADD SWAP2 PUSH2 0xE43 JUMP JUMPDEST DUP3 ADD SWAP2 SWAP1 PUSH0 MSTORE PUSH1 0x20 PUSH0 KECCAK256 SWAP1 JUMPDEST DUP2 SLOAD DUP2 MSTORE SWAP1 PUSH1 0x1 ADD SWAP1 PUSH1 0x20 ADD DUP1 DUP4 GT PUSH2 0xE26 JUMPI DUP3 SWAP1 SUB PUSH1 0x1F AND DUP3 ADD SWAP2 JUMPDEST POP POP POP POP POP DUP2 MSTORE PUSH1 0x20 ADD PUSH1 0xA DUP3 ADD DUP1 SLOAD PUSH2 0xE5C SWAP1 PUSH2 0x218F JUMP JUMPDEST DUP1 PUSH1 0x1F ADD PUSH1 0x20 DUP1 SWAP2 DIV MUL PUSH1 0x20 ADD PUSH1 0x40 MLOAD SWAP1 DUP2 ADD PUSH1 0x40 MSTORE DUP1 SWAP3 SWAP2 SWAP1 DUP2 DUP2 MSTORE PUSH1 0x20 ADD DUP3 DUP1 SLOAD PUSH2 0xE88 SWAP1 PUSH2 0x218F JUMP JUMPDEST DUP1 ISZERO PUSH2 0xED3 JUMPI DUP1 PUSH1 0x1F LT PUSH2 0xEAA JUMPI PUSH2 0x100 DUP1 DUP4 SLOAD DIV MUL DUP4 MSTORE SWAP2 PUSH1 0x20 ADD SWAP2 PUSH2 0xED3 JUMP JUMPDEST DUP3 ADD SWAP2 SWAP1 PUSH0 MSTORE PUSH1 0x20 PUSH0 KECCAK256 SWAP1 JUMPDEST DUP2 SLOAD DUP2 MSTORE SWAP1 PUSH1 0x1 ADD SWAP1 PUSH1 0x20 ADD DUP1 DUP4 GT PUSH2 0xEB6 JUMPI DUP3 SWAP1 SUB PUSH1 0x1F AND DUP3 ADD SWAP2 JUMPDEST POP POP POP SWAP2 DUP4 MSTORE POP POP PUSH1 0xB DUP3 ADD SLOAD PUSH1 0x20 DUP3 ADD MSTORE PUSH1 0xC DUP3 ADD SLOAD PUSH1 0xFF AND ISZERO ISZERO PUSH1 0x40 DUP3 ADD MSTORE PUSH1 0xD DUP3 ADD DUP1 SLOAD PUSH1 0x60 SWAP1 SWAP3 ADD SWAP2 PUSH2 0xF09 SWAP1 PUSH2 0x218F JUMP JUMPDEST DUP1 PUSH1 0x1F ADD PUSH1 0x20 DUP1 SWAP2 DIV MUL PUSH1 0x20 ADD PUSH1 0x40 MLOAD SWAP1 DUP2 ADD PUSH1 0x40 MSTORE DUP1 SWAP3 SWAP2 SWAP1 DUP2 DUP2 MSTORE PUSH1 0x20 ADD DUP3 DUP1 SLOAD PUSH2 0xF35 SWAP1 PUSH2 0x218F JUMP JUMPDEST DUP1 ISZERO PUSH2 0xF80 JUMPI DUP1 PUSH1 0x1F LT PUSH2 0xF57 JUMPI PUSH2 0x100 DUP1 DUP4 SLOAD DIV MUL DUP4 MSTORE SWAP2 PUSH1 0x20 ADD SWAP2 PUSH2 0xF80 JUMP JUMPDEST DUP3 ADD SWAP2 SWAP1 PUSH0 MSTORE PUSH1 0x20 PUSH0 KECCAK256 SWAP1 JUMPDEST DUP2 SLOAD DUP2 MSTORE SWAP1 PUSH1 0x1 ADD SWAP1 PUSH1 0x20 ADD DUP1 DUP4 GT PUSH2 0xF63 JUMPI DUP3 SWAP1 SUB PUSH1 0x1F AND DUP3 ADD SWAP2 JUMPDEST POP POP POP POP POP DUP2 MSTORE PUSH1 0x20 ADD PUSH1 0xE DUP3 ADD DUP1 SLOAD PUSH2 0xF99 SWAP1 PUSH2 0x218F JUMP JUMPDEST DUP1 PUSH1 0x1F ADD PUSH1 0x20 DUP1 SWAP2 DIV MUL PUSH1 0x20 ADD PUSH1 0x40 MLOAD SWAP1 DUP2 ADD PUSH1 0x40 MSTORE DUP1 SWAP3 SWAP2 SWAP1 DUP2 DUP2 MSTORE PUSH1 0x20 ADD DUP3 DUP1 SLOAD PUSH2 0xFC5 SWAP1 PUSH2 0x218F JUMP JUMPDEST DUP1 ISZERO PUSH2 0x1010 JUMPI DUP1 PUSH1 0x1F LT PUSH2 0xFE7 JUMPI PUSH2 0x100 DUP1 DUP4 SLOAD DIV MUL DUP4 MSTORE SWAP2 PUSH1 0x20 ADD SWAP2 PUSH2 0x1010 JUMP JUMPDEST DUP3 ADD SWAP2 SWAP1 PUSH0 MSTORE PUSH1 0x20 PUSH0 KECCAK256 SWAP1 JUMPDEST DUP2 SLOAD DUP2 MSTORE SWAP1 PUSH1 0x1 ADD SWAP1 PUSH1 0x20 ADD DUP1 DUP4 GT PUSH2 0xFF3 JUMPI DUP3 SWAP1 SUB PUSH1 0x1F AND DUP3 ADD SWAP2 JUMPDEST POP POP POP POP POP DUP2 MSTORE PUSH1 0x20 ADD PUSH1 0xF DUP3 ADD DUP1 SLOAD PUSH2 0x1029 SWAP1 PUSH2 0x218F JUMP JUMPDEST DUP1 PUSH1 0x1F ADD PUSH1 0x20 DUP1 SWAP2 DIV MUL PUSH1 0x20 ADD PUSH1 0x40 MLOAD SWAP1 DUP2 ADD PUSH1 0x40 MSTORE DUP1 SWAP3 SWAP2 SWAP1 DUP2 DUP2 MSTORE PUSH1 0x20 ADD DUP3 DUP1 SLOAD PUSH2 0x1055 SWAP1 PUSH2 0x218F JUMP JUMPDEST DUP1 ISZERO PUSH2 0x10A0 JUMPI DUP1 PUSH1 0x1F LT PUSH2 0x1077 JUMPI PUSH2 0x100 DUP1 DUP4 SLOAD DIV MUL DUP4 MSTORE SWAP2 PUSH1 0x20 ADD SWAP2 PUSH2 0x10A0 JUMP JUMPDEST DUP3 ADD SWAP2 SWAP1 PUSH0 MSTORE PUSH1 0x20 PUSH0 KECCAK256 SWAP1 JUMPDEST DUP2 SLOAD DUP2 MSTORE SWAP1 PUSH1 0x1 ADD SWAP1 PUSH1 0x20 ADD DUP1 DUP4 GT PUSH2 0x1083 JUMPI DUP3 SWAP1 SUB PUSH1 0x1F AND DUP3 ADD SWAP2 JUMPDEST POP POP POP POP POP DUP2 MSTORE PUSH1 0x20 ADD PUSH1 0x10 DUP3 ADD DUP1 SLOAD PUSH2 0x10B9 SWAP1 PUSH2 0x218F JUMP JUMPDEST DUP1 PUSH1 0x1F ADD PUSH1 0x20 DUP1 SWAP2 DIV MUL PUSH1 0x20 ADD PUSH1 0x40 MLOAD SWAP1 DUP2 ADD PUSH1 0x40 MSTORE DUP1 SWAP3 SWAP2 SWAP1 DUP2 DUP2 MSTORE PUSH1 0x20 ADD DUP3 DUP1 SLOAD PUSH2 0x10E5 SWAP1 PUSH2 0x218F JUMP JUMPDEST DUP1 ISZERO PUSH2 0x1130 JUMPI DUP1 PUSH1 0x1F LT PUSH2 0x1107 JUMPI PUSH2 0x100 DUP1 DUP4 SLOAD DIV MUL DUP4 MSTORE SWAP2 PUSH1 0x20 ADD SWAP2 PUSH2 0x1130 JUMP JUMPDEST DUP3 ADD SWAP2 SWAP1 PUSH0 MSTORE PUSH1 0x20 PUSH0 KECCAK256 SWAP1 JUMPDEST DUP2 SLOAD DUP2 MSTORE SWAP1 PUSH1 0x1 ADD SWAP1 PUSH1 0x20 ADD DUP1 DUP4 GT PUSH2 0x1113 JUMPI DUP3 SWAP1 SUB PUSH1 0x1F AND DUP3 ADD SWAP2 JUMPDEST POP POP POP SWAP2 SWAP1 SWAP3 MSTORE POP POP POP SWAP1 MSTORE POP SWAP3 SWAP2 POP POP JUMP JUMPDEST PUSH0 DUP1 SLOAD PUSH2 0x114F SWAP1 PUSH2 0x218F JUMP JUMPDEST DUP1 PUSH1 0x1F ADD PUSH1 0x20 DUP1 SWAP2 DIV MUL PUSH1 0x20 ADD PUSH1 0x40 MLOAD SWAP1 DUP2 ADD PUSH1 0x40 MSTORE DUP1 SWAP3 SWAP2 SWAP1 DUP2 DUP2 MSTORE PUSH1 0x20 ADD DUP3 DUP1 SLOAD PUSH2 0x117B SWAP1 PUSH2 0x218F JUMP JUMPDEST DUP1 ISZERO PUSH2 0x11C6 JUMPI DUP1 PUSH1 0x1F LT PUSH2 0x119D JUMPI PUSH2 0x100 DUP1 DUP4 SLOAD DIV MUL DUP4 MSTORE SWAP2 PUSH1 0x20 ADD SWAP2 PUSH2 0x11C6 JUMP JUMPDEST DUP3 ADD SWAP2 SWAP1 PUSH0 MSTORE PUSH1 0x20 PUSH0 KECCAK256 SWAP1 JUMPDEST DUP2 SLOAD DUP2 MSTORE SWAP1 PUSH1 0x1 ADD SWAP1 PUSH1 0x20 ADD DUP1 DUP4 GT PUSH2 0x11A9 JUMPI DUP3 SWAP1 SUB PUSH1 0x1F AND DUP3 ADD SWAP2 JUMPDEST POP POP POP POP POP DUP2 JUMP JUMPDEST PUSH1 0x60 PUSH0 TIMESTAMP DUP2 JUMPDEST PUSH1 0x2 SLOAD DUP2 LT ISZERO PUSH2 0x1229 JUMPI PUSH0 PUSH1 0x2 DUP3 DUP2 SLOAD DUP2 LT PUSH2 0x11F2 JUMPI PUSH2 0x11F2 PUSH2 0x217B JUMP JUMPDEST SWAP1 PUSH0 MSTORE PUSH1 0x20 PUSH0 KECCAK256 ADD SLOAD SWAP1 POP DUP6 DUP2 LT ISZERO DUP1 ISZERO PUSH2 0x120D JUMPI POP DUP3 DUP2 GT ISZERO JUMPDEST ISZERO PUSH2 0x1220 JUMPI DUP4 PUSH2 0x121C DUP2 PUSH2 0x21C1 JUMP JUMPDEST SWAP5 POP POP JUMPDEST POP PUSH1 0x1 ADD PUSH2 0x11D4 JUMP JUMPDEST POP PUSH0 DUP3 PUSH1 0x1 PUSH1 0x1 PUSH1 0x40 SHL SUB DUP2 GT ISZERO PUSH2 0x1243 JUMPI PUSH2 0x1243 PUSH2 0x2167 JUMP JUMPDEST PUSH1 0x40 MLOAD SWAP1 DUP1 DUP3 MSTORE DUP1 PUSH1 0x20 MUL PUSH1 0x20 ADD DUP3 ADD PUSH1 0x40 MSTORE DUP1 ISZERO PUSH2 0x127C JUMPI DUP2 PUSH1 0x20 ADD JUMPDEST PUSH2 0x1269 PUSH2 0x1DF3 JUMP JUMPDEST DUP2 MSTORE PUSH1 0x20 ADD SWAP1 PUSH1 0x1 SWAP1 SUB SWAP1 DUP2 PUSH2 0x1261 JUMPI SWAP1 POP JUMPDEST POP SWAP1 POP PUSH0 DUP1 JUMPDEST PUSH1 0x2 SLOAD DUP2 LT ISZERO PUSH2 0x1ABF JUMPI PUSH0 PUSH1 0x2 DUP3 DUP2 SLOAD DUP2 LT PUSH2 0x12A0 JUMPI PUSH2 0x12A0 PUSH2 0x217B JUMP JUMPDEST SWAP1 PUSH0 MSTORE PUSH1 0x20 PUSH0 KECCAK256 ADD SLOAD SWAP1 POP DUP8 DUP2 LT ISZERO DUP1 ISZERO PUSH2 0x12BB JUMPI POP DUP5 DUP2 GT ISZERO JUMPDEST ISZERO PUSH2 0x1AB6 JUMPI PUSH0 DUP2 DUP2 MSTORE PUSH1 0x1 PUSH1 0x20 MSTORE PUSH1 0x40 SWAP1 DUP2 SWAP1 KECCAK256 DUP2 MLOAD PUSH1 0x80 DUP2 ADD SWAP1 SWAP3 MSTORE DUP1 SLOAD DUP3 SWAP1 DUP3 SWAP1 PUSH2 0x12E7 SWAP1 PUSH2 0x218F JUMP JUMPDEST DUP1 PUSH1 0x1F ADD PUSH1 0x20 DUP1 SWAP2 DIV MUL PUSH1 0x20 ADD PUSH1 0x40 MLOAD SWAP1 DUP2 ADD PUSH1 0x40 MSTORE DUP1 SWAP3 SWAP2 SWAP1 DUP2 DUP2 MSTORE PUSH1 0x20 ADD DUP3 DUP1 SLOAD PUSH2 0x1313 SWAP1 PUSH2 0x218F JUMP JUMPDEST DUP1 ISZERO PUSH2 0x135E JUMPI DUP1 PUSH1 0x1F LT PUSH2 0x1335 JUMPI PUSH2 0x100 DUP1 DUP4 SLOAD DIV MUL DUP4 MSTORE SWAP2 PUSH1 0x20 ADD SWAP2 PUSH2 0x135E JUMP JUMPDEST DUP3 ADD SWAP2 SWAP1 PUSH0 MSTORE PUSH1 0x20 PUSH0 KECCAK256 SWAP1 JUMPDEST DUP2 SLOAD DUP2 MSTORE SWAP1 PUSH1 0x1 ADD SWAP1 PUSH1 0x20 ADD DUP1 DUP4 GT PUSH2 0x1341 JUMPI DUP3 SWAP1 SUB PUSH1 0x1F AND DUP3 ADD SWAP2 JUMPDEST POP POP POP POP POP DUP2 MSTORE PUSH1 0x20 ADD PUSH1 0x1 DUP3 ADD SLOAD DUP2 MSTORE PUSH1 0x20 ADD PUSH1 0x2 DUP3 ADD DUP1 SLOAD PUSH2 0x1381 SWAP1 PUSH2 0x218F JUMP JUMPDEST DUP1 PUSH1 0x1F ADD PUSH1 0x20 DUP1 SWAP2 DIV MUL PUSH1 0x20 ADD PUSH1 0x40 MLOAD SWAP1 DUP2 ADD PUSH1 0x40 MSTORE DUP1 SWAP3 SWAP2 SWAP1 DUP2 DUP2 MSTORE PUSH1 0x20 ADD DUP3 DUP1 SLOAD PUSH2 0x13AD SWAP1 PUSH2 0x218F JUMP JUMPDEST DUP1 ISZERO PUSH2 0x13F8 JUMPI DUP1 PUSH1 0x1F LT PUSH2 0x13CF JUMPI PUSH2 0x100 DUP1 DUP4 SLOAD DIV MUL DUP4 MSTORE SWAP2 PUSH1 0x20 ADD SWAP2 PUSH2 0x13F8 JUMP JUMPDEST DUP3 ADD SWAP2 SWAP1 PUSH0 MSTORE PUSH1 0x20 PUSH0 KECCAK256 SWAP1 JUMPDEST DUP2 SLOAD DUP2 MSTORE SWAP1 PUSH1 0x1 ADD SWAP1 PUSH1 0x20 ADD DUP1 DUP4 GT PUSH2 0x13DB JUMPI DUP3 SWAP1 SUB PUSH1 0x1F AND DUP3 ADD SWAP2 JUMPDEST POP POP POP POP POP DUP2 MSTORE PUSH1 0x20 ADD PUSH1 0x3 DUP3 ADD PUSH1 0x40 MLOAD DUP1 PUSH2 0x220 ADD PUSH1 0x40 MSTORE SWAP1 DUP2 PUSH0 DUP3 ADD SLOAD DUP2 MSTORE PUSH1 0x20 ADD PUSH1 0x1 DUP3 ADD SLOAD DUP2 MSTORE PUSH1 0x20 ADD PUSH1 0x2 DUP3 ADD DUP1 SLOAD PUSH2 0x1435 SWAP1 PUSH2 0x218F JUMP JUMPDEST DUP1 PUSH1 0x1F ADD PUSH1 0x20 DUP1 SWAP2 DIV MUL PUSH1 0x20 ADD PUSH1 0x40 MLOAD SWAP1 DUP2 ADD PUSH1 0x40 MSTORE DUP1 SWAP3 SWAP2 SWAP1 DUP2 DUP2 MSTORE PUSH1 0x20 ADD DUP3 DUP1 SLOAD PUSH2 0x1461 SWAP1 PUSH2 0x218F JUMP JUMPDEST DUP1 ISZERO PUSH2 0x14AC JUMPI DUP1 PUSH1 0x1F LT PUSH2 0x1483 JUMPI PUSH2 0x100 DUP1 DUP4 SLOAD DIV MUL DUP4 MSTORE SWAP2 PUSH1 0x20 ADD SWAP2 PUSH2 0x14AC JUMP JUMPDEST DUP3 ADD SWAP2 SWAP1 PUSH0 MSTORE PUSH1 0x20 PUSH0 KECCAK256 SWAP1 JUMPDEST DUP2 SLOAD DUP2 MSTORE SWAP1 PUSH1 0x1 ADD SWAP1 PUSH1 0x20 ADD DUP1 DUP4 GT PUSH2 0x148F JUMPI DUP3 SWAP1 SUB PUSH1 0x1F AND DUP3 ADD SWAP2 JUMPDEST POP POP POP POP POP DUP2 MSTORE PUSH1 0x20 ADD PUSH1 0x3 DUP3 ADD DUP1 SLOAD PUSH2 0x14C5 SWAP1 PUSH2 0x218F JUMP JUMPDEST DUP1 PUSH1 0x1F ADD PUSH1 0x20 DUP1 SWAP2 DIV MUL PUSH1 0x20 ADD PUSH1 0x40 MLOAD SWAP1 DUP2 ADD PUSH1 0x40 MSTORE DUP1 SWAP3 SWAP2 SWAP1 DUP2 DUP2 MSTORE PUSH1 0x20 ADD DUP3 DUP1 SLOAD PUSH2 0x14F1 SWAP1 PUSH2 0x218F JUMP JUMPDEST DUP1 ISZERO PUSH2 0x153C JUMPI DUP1 PUSH1 0x1F LT PUSH2 0x1513 JUMPI PUSH2 0x100 DUP1 DUP4 SLOAD DIV MUL DUP4 MSTORE SWAP2 PUSH1 0x20 ADD SWAP2 PUSH2 0x153C JUMP JUMPDEST DUP3 ADD SWAP2 SWAP1 PUSH0 MSTORE PUSH1 0x20 PUSH0 KECCAK256 SWAP1 JUMPDEST DUP2 SLOAD DUP2 MSTORE SWAP1 PUSH1 0x1 ADD SWAP1 PUSH1 0x20 ADD DUP1 DUP4 GT PUSH2 0x151F JUMPI DUP3 SWAP1 SUB PUSH1 0x1F AND DUP3 ADD SWAP2 JUMPDEST POP POP POP POP POP DUP2 MSTORE PUSH1 0x20 ADD PUSH1 0x4 DUP3 ADD SLOAD DUP2 MSTORE PUSH1 0x20 ADD PUSH1 0x5 DUP3 ADD SLOAD DUP2 MSTORE PUSH1 0x20 ADD PUSH1 0x6 DUP3 ADD DUP1 SLOAD PUSH2 0x1569 SWAP1 PUSH2 0x218F JUMP JUMPDEST DUP1 PUSH1 0x1F ADD PUSH1 0x20 DUP1 SWAP2 DIV MUL PUSH1 0x20 ADD PUSH1 0x40 MLOAD SWAP1 DUP2 ADD PUSH1 0x40 MSTORE DUP1 SWAP3 SWAP2 SWAP1 DUP2 DUP2 MSTORE PUSH1 0x20 ADD DUP3 DUP1 SLOAD PUSH2 0x1595 SWAP1 PUSH2 0x218F JUMP JUMPDEST DUP1 ISZERO PUSH2 0x15E0 JUMPI DUP1 PUSH1 0x1F LT PUSH2 0x15B7 JUMPI PUSH2 0x100 DUP1 DUP4 SLOAD DIV MUL DUP4 MSTORE SWAP2 PUSH1 0x20 ADD SWAP2 PUSH2 0x15E0 JUMP JUMPDEST DUP3 ADD SWAP2 SWAP1 PUSH0 MSTORE PUSH1 0x20 PUSH0 KECCAK256 SWAP1 JUMPDEST DUP2 SLOAD DUP2 MSTORE SWAP1 PUSH1 0x1 ADD SWAP1 PUSH1 0x20 ADD DUP1 DUP4 GT PUSH2 0x15C3 JUMPI DUP3 SWAP1 SUB PUSH1 0x1F AND DUP3 ADD SWAP2 JUMPDEST POP POP POP POP POP DUP2 MSTORE PUSH1 0x20 ADD PUSH1 0x7 DUP3 ADD DUP1 SLOAD PUSH2 0x15F9 SWAP1 PUSH2 0x218F JUMP JUMPDEST DUP1 PUSH1 0x1F ADD PUSH1 0x20 DUP1 SWAP2 DIV MUL PUSH1 0x20 ADD PUSH1 0x40 MLOAD SWAP1 DUP2 ADD PUSH1 0x40 MSTORE DUP1 SWAP3 SWAP2 SWAP1 DUP2 DUP2 MSTORE PUSH1 0x20 ADD DUP3 DUP1 SLOAD PUSH2 0x1625 SWAP1 PUSH2 0x218F JUMP JUMPDEST DUP1 ISZERO PUSH2 0x1670 JUMPI DUP1 PUSH1 0x1F LT PUSH2 0x1647 JUMPI PUSH2 0x100 DUP1 DUP4 SLOAD DIV MUL DUP4 MSTORE SWAP2 PUSH1 0x20 ADD SWAP2 PUSH2 0x1670 JUMP JUMPDEST DUP3 ADD SWAP2 SWAP1 PUSH0 MSTORE PUSH1 0x20 PUSH0 KECCAK256 SWAP1 JUMPDEST DUP2 SLOAD DUP2 MSTORE SWAP1 PUSH1 0x1 ADD SWAP1 PUSH1 0x20 ADD DUP1 DUP4 GT PUSH2 0x1653 JUMPI DUP3 SWAP1 SUB PUSH1 0x1F AND DUP3 ADD SWAP2 JUMPDEST POP POP POP POP POP DUP2 MSTORE PUSH1 0x20 ADD PUSH1 0x8 DUP3 ADD DUP1 SLOAD PUSH2 0x1689 SWAP1 PUSH2 0x218F JUMP JUMPDEST DUP1 PUSH1 0x1F ADD PUSH1 0x20 DUP1 SWAP2 DIV MUL PUSH1 0x20 ADD PUSH1 0x40 MLOAD SWAP1 DUP2 ADD PUSH1 0x40 MSTORE DUP1 SWAP3 SWAP2 SWAP1 DUP2 DUP2 MSTORE PUSH1 0x20 ADD DUP3 DUP1 SLOAD PUSH2 0x16B5 SWAP1 PUSH2 0x218F JUMP JUMPDEST DUP1 ISZERO PUSH2 0x1700 JUMPI DUP1 PUSH1 0x1F LT PUSH2 0x16D7 JUMPI PUSH2 0x100 DUP1 DUP4 SLOAD DIV MUL DUP4 MSTORE SWAP2 PUSH1 0x20 ADD SWAP2 PUSH2 0x1700 JUMP JUMPDEST DUP3 ADD SWAP2 SWAP1 PUSH0 MSTORE PUSH1 0x20 PUSH0 KECCAK256 SWAP1 JUMPDEST DUP2 SLOAD DUP2 MSTORE SWAP1 PUSH1 0x1 ADD SWAP1 PUSH1 0x20 ADD DUP1 DUP4 GT PUSH2 0x16E3 JUMPI DUP3 SWAP1 SUB PUSH1 0x1F AND DUP3 ADD SWAP2 JUMPDEST POP POP POP POP POP DUP2 MSTORE PUSH1 0x20 ADD PUSH1 0x9 DUP3 ADD DUP1 SLOAD PUSH2 0x1719 SWAP1 PUSH2 0x218F JUMP JUMPDEST DUP1 PUSH1 0x1F ADD PUSH1 0x20 DUP1 SWAP2 DIV MUL PUSH1 0x20 ADD PUSH1 0x40 MLOAD SWAP1 DUP2 ADD PUSH1 0x40 MSTORE DUP1 SWAP3 SWAP2 SWAP1 DUP2 DUP2 MSTORE PUSH1 0x20 ADD DUP3 DUP1 SLOAD PUSH2 0x1745 SWAP1 PUSH2 0x218F JUMP JUMPDEST DUP1 ISZERO PUSH2 0x1790 JUMPI DUP1 PUSH1 0x1F LT PUSH2 0x1767 JUMPI PUSH2 0x100 DUP1 DUP4 SLOAD DIV MUL DUP4 MSTORE SWAP2 PUSH1 0x20 ADD SWAP2 PUSH2 0x1790 JUMP JUMPDEST DUP3 ADD SWAP2 SWAP1 PUSH0 MSTORE PUSH1 0x20 PUSH0 KECCAK256 SWAP1 JUMPDEST DUP2 SLOAD DUP2 MSTORE SWAP1 PUSH1 0x1 ADD SWAP1 PUSH1 0x20 ADD DUP1 DUP4 GT PUSH2 0x1773 JUMPI DUP3 SWAP1 SUB PUSH1 0x1F AND DUP3 ADD SWAP2 JUMPDEST POP POP POP POP POP DUP2 MSTORE PUSH1 0x20 ADD PUSH1 0xA DUP3 ADD DUP1 SLOAD PUSH2 0x17A9 SWAP1 PUSH2 0x218F JUMP JUMPDEST DUP1 PUSH1 0x1F ADD PUSH1 0x20 DUP1 SWAP2 DIV MUL PUSH1 0x20 ADD PUSH1 0x40 MLOAD SWAP1 DUP2 ADD PUSH1 0x40 MSTORE DUP1 SWAP3 SWAP2 SWAP1 DUP2 DUP2 MSTORE PUSH1 0x20 ADD DUP3 DUP1 SLOAD PUSH2 0x17D5 SWAP1 PUSH2 0x218F JUMP JUMPDEST DUP1 ISZERO PUSH2 0x1820 JUMPI DUP1 PUSH1 0x1F LT PUSH2 0x17F7 JUMPI PUSH2 0x100 DUP1 DUP4 SLOAD DIV MUL DUP4 MSTORE SWAP2 PUSH1 0x20 ADD SWAP2 PUSH2 0x1820 JUMP JUMPDEST DUP3 ADD SWAP2 SWAP1 PUSH0 MSTORE PUSH1 0x20 PUSH0 KECCAK256 SWAP1 JUMPDEST DUP2 SLOAD DUP2 MSTORE SWAP1 PUSH1 0x1 ADD SWAP1 PUSH1 0x20 ADD DUP1 DUP4 GT PUSH2 0x1803 JUMPI DUP3 SWAP1 SUB PUSH1 0x1F AND DUP3 ADD SWAP2 JUMPDEST POP POP POP SWAP2 DUP4 MSTORE POP POP PUSH1 0xB DUP3 ADD SLOAD PUSH1 0x20 DUP3 ADD MSTORE PUSH1 0xC DUP3 ADD SLOAD PUSH1 0xFF AND ISZERO ISZERO PUSH1 0x40 DUP3 ADD MSTORE PUSH1 0xD DUP3 ADD DUP1 SLOAD PUSH1 0x60 SWAP1 SWAP3 ADD SWAP2 PUSH2 0x1856 SWAP1 PUSH2 0x218F JUMP JUMPDEST DUP1 PUSH1 0x1F ADD PUSH1 0x20 DUP1 SWAP2 DIV MUL PUSH1 0x20 ADD PUSH1 0x40 MLOAD SWAP1 DUP2 ADD PUSH1 0x40 MSTORE DUP1 SWAP3 SWAP2 SWAP1 DUP2 DUP2 MSTORE PUSH1 0x20 ADD DUP3 DUP1 SLOAD PUSH2 0x1882 SWAP1 PUSH2 0x218F JUMP JUMPDEST DUP1 ISZERO PUSH2 0x18CD JUMPI DUP1 PUSH1 0x1F LT PUSH2 0x18A4 JUMPI PUSH2 0x100 DUP1 DUP4 SLOAD DIV MUL DUP4 MSTORE SWAP2 PUSH1 0x20 ADD SWAP2 PUSH2 0x18CD JUMP JUMPDEST DUP3 ADD SWAP2 SWAP1 PUSH0 MSTORE PUSH1 0x20 PUSH0 KECCAK256 SWAP1 JUMPDEST DUP2 SLOAD DUP2 MSTORE SWAP1 PUSH1 0x1 ADD SWAP1 PUSH1 0x20 ADD DUP1 DUP4 GT PUSH2 0x18B0 JUMPI DUP3 SWAP1 SUB PUSH1 0x1F AND DUP3 ADD SWAP2 JUMPDEST POP POP POP POP POP DUP2 MSTORE PUSH1 0x20 ADD PUSH1 0xE DUP3 ADD DUP1 SLOAD PUSH2 0x18E6 SWAP1 PUSH2 0x218F JUMP JUMPDEST DUP1 PUSH1 0x1F ADD PUSH1 0x20 DUP1 SWAP2 DIV MUL PUSH1 0x20 ADD PUSH1 0x40 MLOAD SWAP1 DUP2 ADD PUSH1 0x40 MSTORE DUP1 SWAP3 SWAP2 SWAP1 DUP2 DUP2 MSTORE PUSH1 0x20 ADD DUP3 DUP1 SLOAD PUSH2 0x1912 SWAP1 PUSH2 0x218F JUMP JUMPDEST DUP1 ISZERO PUSH2 0x195D JUMPI DUP1 PUSH1 0x1F LT PUSH2 0x1934 JUMPI PUSH2 0x100 DUP1 DUP4 SLOAD DIV MUL DUP4 MSTORE SWAP2 PUSH1 0x20 ADD SWAP2 PUSH2 0x195D JUMP JUMPDEST DUP3 ADD SWAP2 SWAP1 PUSH0 MSTORE PUSH1 0x20 PUSH0 KECCAK256 SWAP1 JUMPDEST DUP2 SLOAD DUP2 MSTORE SWAP1 PUSH1 0x1 ADD SWAP1 PUSH1 0x20 ADD DUP1 DUP4 GT PUSH2 0x1940 JUMPI DUP3 SWAP1 SUB PUSH1 0x1F AND DUP3 ADD SWAP2 JUMPDEST POP POP POP POP POP DUP2 MSTORE PUSH1 0x20 ADD PUSH1 0xF DUP3 ADD DUP1 SLOAD PUSH2 0x1976 SWAP1 PUSH2 0x218F JUMP JUMPDEST DUP1 PUSH1 0x1F ADD PUSH1 0x20 DUP1 SWAP2 DIV MUL PUSH1 0x20 ADD PUSH1 0x40 MLOAD SWAP1 DUP2 ADD PUSH1 0x40 MSTORE DUP1 SWAP3 SWAP2 SWAP1 DUP2 DUP2 MSTORE PUSH1 0x20 ADD DUP3 DUP1 SLOAD PUSH2 0x19A2 SWAP1 PUSH2 0x218F JUMP JUMPDEST DUP1 ISZERO PUSH2 0x19ED JUMPI DUP1 PUSH1 0x1F LT PUSH2 0x19C4 JUMPI PUSH2 0x100 DUP1 DUP4 SLOAD DIV MUL DUP4 MSTORE SWAP2 PUSH1 0x20 ADD SWAP2 PUSH2 0x19ED JUMP JUMPDEST DUP3 ADD SWAP2 SWAP1 PUSH0 MSTORE PUSH1 0x20 PUSH0 KECCAK256 SWAP1 JUMPDEST DUP2 SLOAD DUP2 MSTORE SWAP1 PUSH1 0x1 ADD SWAP1 PUSH1 0x20 ADD DUP1 DUP4 GT PUSH2 0x19D0 JUMPI DUP3 SWAP1 SUB PUSH1 0x1F AND DUP3 ADD SWAP2 JUMPDEST POP POP POP POP POP DUP2 MSTORE PUSH1 0x20 ADD PUSH1 0x10 DUP3 ADD DUP1 SLOAD PUSH2 0x1A06 SWAP1 PUSH2 0x218F JUMP JUMPDEST DUP1 PUSH1 0x1F ADD PUSH1 0x20 DUP1 SWAP2 DIV MUL PUSH1 0x20 ADD PUSH1 0x40 MLOAD SWAP1 DUP2 ADD PUSH1 0x40 MSTORE DUP1 SWAP3 SWAP2 SWAP1 DUP2 DUP2 MSTORE PUSH1 0x20 ADD DUP3 DUP1 SLOAD PUSH2 0x1A32 SWAP1 PUSH2 0x218F JUMP JUMPDEST DUP1 ISZERO PUSH2 0x1A7D JUMPI DUP1 PUSH1 0x1F LT PUSH2 0x1A54 JUMPI PUSH2 0x100 DUP1 DUP4 SLOAD DIV MUL DUP4 MSTORE SWAP2 PUSH1 0x20 ADD SWAP2 PUSH2 0x1A7D JUMP JUMPDEST DUP3 ADD SWAP2 SWAP1 PUSH0 MSTORE PUSH1 0x20 PUSH0 KECCAK256 SWAP1 JUMPDEST DUP2 SLOAD DUP2 MSTORE SWAP1 PUSH1 0x1 ADD SWAP1 PUSH1 0x20 ADD DUP1 DUP4 GT PUSH2 0x1A60 JUMPI DUP3 SWAP1 SUB PUSH1 0x1F AND DUP3 ADD SWAP2 JUMPDEST POP POP POP POP POP DUP2 MSTORE POP POP DUP2 MSTORE POP POP DUP5 DUP5 DUP2 MLOAD DUP2 LT PUSH2 0x1A9C JUMPI PUSH2 0x1A9C PUSH2 0x217B JUMP JUMPDEST PUSH1 0x20 MUL PUSH1 0x20 ADD ADD DUP2 SWAP1 MSTORE POP DUP3 DUP1 PUSH2 0x1AB2 SWAP1 PUSH2 0x21C1 JUMP JUMPDEST SWAP4 POP POP JUMPDEST POP PUSH1 0x1 ADD PUSH2 0x1282 JUMP JUMPDEST POP SWAP1 SWAP6 SWAP5 POP POP POP POP POP JUMP JUMPDEST PUSH0 PUSH1 0x40 MLOAD PUSH2 0x1AD8 SWAP2 SWAP1 PUSH2 0x21E5 JUMP JUMPDEST PUSH1 0x40 MLOAD SWAP1 DUP2 SWAP1 SUB SWAP1 KECCAK256 PUSH2 0x1AEE PUSH1 0x60 DUP4 ADD DUP4 PUSH2 0x2256 JUMP JUMPDEST PUSH1 0x40 MLOAD PUSH2 0x1AFC SWAP3 SWAP2 SWAP1 PUSH2 0x229F JUMP JUMPDEST PUSH1 0x40 MLOAD DUP1 SWAP2 SUB SWAP1 KECCAK256 EQ PUSH2 0x1B4B JUMPI PUSH1 0x40 MLOAD PUSH3 0x461BCD PUSH1 0xE5 SHL DUP2 MSTORE PUSH1 0x20 PUSH1 0x4 DUP3 ADD MSTORE PUSH1 0x13 PUSH1 0x24 DUP3 ADD MSTORE PUSH19 0x496E74657276616C206D757374206265203173 PUSH1 0x68 SHL PUSH1 0x44 DUP3 ADD MSTORE PUSH1 0x64 ADD PUSH1 0x40 MLOAD DUP1 SWAP2 SUB SWAP1 REVERT JUMPDEST PUSH1 0x40 DUP1 MLOAD PUSH1 0xC0 DUP2 ADD DUP3 MSTORE PUSH1 0x5 PUSH1 0x80 DUP3 ADD SWAP1 DUP2 MSTORE PUSH5 0x6B6C696E65 PUSH1 0xD8 SHL PUSH1 0xA0 DUP4 ADD MSTORE DUP2 MSTORE TIMESTAMP PUSH1 0x20 DUP3 ADD DUP2 SWAP1 MSTORE DUP4 CALLDATALOAD SWAP3 SWAP1 SWAP2 PUSH0 SWAP2 DUP2 DUP2 ADD SWAP1 PUSH2 0x1B8D SWAP1 DUP8 ADD DUP8 PUSH2 0x2256 JUMP JUMPDEST DUP1 DUP1 PUSH1 0x1F ADD PUSH1 0x20 DUP1 SWAP2 DIV MUL PUSH1 0x20 ADD PUSH1 0x40 MLOAD SWAP1 DUP2 ADD PUSH1 0x40 MSTORE DUP1 SWAP4 SWAP3 SWAP2 SWAP1 DUP2 DUP2 MSTORE PUSH1 0x20 ADD DUP4 DUP4 DUP1 DUP3 DUP5 CALLDATACOPY PUSH0 SWAP3 ADD SWAP2 SWAP1 SWAP2 MSTORE POP POP POP SWAP1 DUP3 MSTORE POP PUSH1 0x20 ADD PUSH2 0x1BCF DUP7 PUSH2 0x2374 JUMP JUMPDEST SWAP1 MSTORE PUSH0 DUP4 DUP2 MSTORE PUSH1 0x1 PUSH1 0x20 MSTORE PUSH1 0x40 SWAP1 KECCAK256 DUP2 MLOAD SWAP2 SWAP3 POP DUP3 SWAP2 DUP2 SWAP1 PUSH2 0x1BF1 SWAP1 DUP3 PUSH2 0x25FB JUMP JUMPDEST POP PUSH1 0x20 DUP3 ADD MLOAD PUSH1 0x1 DUP3 ADD SSTORE PUSH1 0x40 DUP3 ADD MLOAD PUSH1 0x2 DUP3 ADD SWAP1 PUSH2 0x1C10 SWAP1 DUP3 PUSH2 0x25FB JUMP JUMPDEST POP PUSH1 0x60 DUP3 ADD MLOAD DUP1 MLOAD PUSH1 0x3 DUP4 ADD SWAP1 DUP2 SSTORE PUSH1 0x20 DUP3 ADD MLOAD PUSH1 0x4 DUP5 ADD SSTORE PUSH1 0x40 DUP3 ADD MLOAD PUSH1 0x5 DUP5 ADD SWAP1 PUSH2 0x1C3D SWAP1 DUP3 PUSH2 0x25FB JUMP JUMPDEST POP PUSH1 0x60 DUP3 ADD MLOAD PUSH1 0x3 DUP3 ADD SWAP1 PUSH2 0x1C52 SWAP1 DUP3 PUSH2 0x25FB JUMP JUMPDEST POP PUSH1 0x80 DUP3 ADD MLOAD PUSH1 0x4 DUP3 ADD SSTORE PUSH1 0xA0 DUP3 ADD MLOAD PUSH1 0x5 DUP3 ADD SSTORE PUSH1 0xC0 DUP3 ADD MLOAD PUSH1 0x6 DUP3 ADD SWAP1 PUSH2 0x1C7B SWAP1 DUP3 PUSH2 0x25FB JUMP JUMPDEST POP PUSH1 0xE0 DUP3 ADD MLOAD PUSH1 0x7 DUP3 ADD SWAP1 PUSH2 0x1C90 SWAP1 DUP3 PUSH2 0x25FB JUMP JUMPDEST POP PUSH2 0x100 DUP3 ADD MLOAD PUSH1 0x8 DUP3 ADD SWAP1 PUSH2 0x1CA6 SWAP1 DUP3 PUSH2 0x25FB JUMP JUMPDEST POP PUSH2 0x120 DUP3 ADD MLOAD PUSH1 0x9 DUP3 ADD SWAP1 PUSH2 0x1CBC SWAP1 DUP3 PUSH2 0x25FB JUMP JUMPDEST POP PUSH2 0x140 DUP3 ADD MLOAD PUSH1 0xA DUP3 ADD SWAP1 PUSH2 0x1CD2 SWAP1 DUP3 PUSH2 0x25FB JUMP JUMPDEST POP PUSH2 0x160 DUP3 ADD MLOAD PUSH1 0xB DUP3 ADD SSTORE PUSH2 0x180 DUP3 ADD MLOAD PUSH1 0xC DUP3 ADD DUP1 SLOAD PUSH1 0xFF NOT AND SWAP2 ISZERO ISZERO SWAP2 SWAP1 SWAP2 OR SWAP1 SSTORE PUSH2 0x1A0 DUP3 ADD MLOAD PUSH1 0xD DUP3 ADD SWAP1 PUSH2 0x1D0C SWAP1 DUP3 PUSH2 0x25FB JUMP JUMPDEST POP PUSH2 0x1C0 DUP3 ADD MLOAD PUSH1 0xE DUP3 ADD SWAP1 PUSH2 0x1D22 SWAP1 DUP3 PUSH2 0x25FB JUMP JUMPDEST POP PUSH2 0x1E0 DUP3 ADD MLOAD PUSH1 0xF DUP3 ADD SWAP1 PUSH2 0x1D38 SWAP1 DUP3 PUSH2 0x25FB JUMP JUMPDEST POP PUSH2 0x200 DUP3 ADD MLOAD PUSH1 0x10 DUP3 ADD SWAP1 PUSH2 0x1D4E SWAP1 DUP3 PUSH2 0x25FB JUMP JUMPDEST POP POP PUSH1 0x2 DUP1 SLOAD PUSH1 0x1 DUP2 ADD DUP3 SSTORE PUSH0 SWAP2 SWAP1 SWAP2 MSTORE PUSH32 0x405787FA12A823E0F2B7631CC41B3BA8828B3321CA811111FA75CD3AA3BB5ACE ADD DUP6 SWAP1 SSTORE POP PUSH32 0x87BE993750FD9F870BC535D97609DF048E07430C47F26712536434958094F873 SWAP2 POP DUP5 SWAP1 POP PUSH2 0x1DB8 PUSH1 0x40 DUP8 ADD DUP8 PUSH2 0x2256 JUMP JUMPDEST PUSH2 0x1DC5 PUSH1 0xC0 DUP10 ADD DUP10 PUSH2 0x2256 JUMP JUMPDEST PUSH2 0x1DD2 PUSH1 0xE0 DUP12 ADD DUP12 PUSH2 0x2256 JUMP JUMPDEST PUSH1 0x40 MLOAD PUSH2 0x1DE5 SWAP8 SWAP7 SWAP6 SWAP5 SWAP4 SWAP3 SWAP2 SWAP1 PUSH2 0x26DD JUMP JUMPDEST PUSH1 0x40 MLOAD DUP1 SWAP2 SUB SWAP1 LOG1 POP POP POP POP JUMP JUMPDEST PUSH1 0x40 MLOAD DUP1 PUSH1 0x80 ADD PUSH1 0x40 MSTORE DUP1 PUSH1 0x60 DUP2 MSTORE PUSH1 0x20 ADD PUSH0 DUP2 MSTORE PUSH1 0x20 ADD PUSH1 0x60 DUP2 MSTORE PUSH1 0x20 ADD PUSH2 0x1E95 PUSH1 0x40 MLOAD DUP1 PUSH2 0x220 ADD PUSH1 0x40 MSTORE DUP1 PUSH0 DUP2 MSTORE PUSH1 0x20 ADD PUSH0 DUP2 MSTORE PUSH1 0x20 ADD PUSH1 0x60 DUP2 MSTORE PUSH1 0x20 ADD PUSH1 0x60 DUP2 MSTORE PUSH1 0x20 ADD PUSH0 DUP2 MSTORE PUSH1 0x20 ADD PUSH0 DUP2 MSTORE PUSH1 0x20 ADD PUSH1 0x60 DUP2 MSTORE PUSH1 0x20 ADD PUSH1 0x60 DUP2 MSTORE PUSH1 0x20 ADD PUSH1 0x60 DUP2 MSTORE PUSH1 0x20 ADD PUSH1 0x60 DUP2 MSTORE PUSH1 0x20 ADD PUSH1 0x60 DUP2 MSTORE PUSH1 0x20 ADD PUSH0 DUP2 MSTORE PUSH1 0x20 ADD PUSH0 ISZERO ISZERO DUP2 MSTORE PUSH1 0x20 ADD PUSH1 0x60 DUP2 MSTORE PUSH1 0x20 ADD PUSH1 0x60 DUP2 MSTORE PUSH1 0x20 ADD PUSH1 0x60 DUP2 MSTORE PUSH1 0x20 ADD PUSH1 0x60 DUP2 MSTORE POP SWAP1 JUMP JUMPDEST SWAP1 MSTORE SWAP1 JUMP JUMPDEST PUSH0 DUP2 MLOAD DUP1 DUP5 MSTORE DUP1 PUSH1 0x20 DUP5 ADD PUSH1 0x20 DUP7 ADD MCOPY PUSH0 PUSH1 0x20 DUP3 DUP7 ADD ADD MSTORE PUSH1 0x20 PUSH1 0x1F NOT PUSH1 0x1F DUP4 ADD AND DUP6 ADD ADD SWAP2 POP POP SWAP3 SWAP2 POP POP JUMP JUMPDEST PUSH0 DUP2 MLOAD PUSH1 0x80 DUP5 MSTORE PUSH2 0x1EDC PUSH1 0x80 DUP6 ADD DUP3 PUSH2 0x1E9A JUMP JUMPDEST SWAP1 POP PUSH1 0x20 DUP4 ADD MLOAD PUSH1 0x20 DUP6 ADD MSTORE PUSH1 0x40 DUP4 ADD MLOAD DUP5 DUP3 SUB PUSH1 0x40 DUP7 ADD MSTORE PUSH2 0x1EFF DUP3 DUP3 PUSH2 0x1E9A JUMP JUMPDEST SWAP2 POP POP PUSH1 0x60 DUP4 ADD MLOAD DUP5 DUP3 SUB PUSH1 0x60 DUP7 ADD MSTORE DUP1 MLOAD DUP3 MSTORE PUSH1 0x20 DUP2 ADD MLOAD PUSH1 0x20 DUP4 ADD MSTORE PUSH1 0x40 DUP2 ADD MLOAD PUSH2 0x220 PUSH1 0x40 DUP5 ADD MSTORE PUSH2 0x1F38 PUSH2 0x220 DUP5 ADD DUP3 PUSH2 0x1E9A JUMP JUMPDEST SWAP1 POP PUSH1 0x60 DUP3 ADD MLOAD DUP4 DUP3 SUB PUSH1 0x60 DUP6 ADD MSTORE PUSH2 0x1F51 DUP3 DUP3 PUSH2 0x1E9A JUMP JUMPDEST SWAP2 POP POP PUSH1 0x80 DUP3 ADD MLOAD PUSH1 0x80 DUP5 ADD MSTORE PUSH1 0xA0 DUP3 ADD MLOAD PUSH1 0xA0 DUP5 ADD MSTORE PUSH1 0xC0 DUP3 ADD MLOAD DUP4 DUP3 SUB PUSH1 0xC0 DUP6 ADD MSTORE PUSH2 0x1F7F DUP3 DUP3 PUSH2 0x1E9A JUMP JUMPDEST SWAP2 POP POP PUSH1 0xE0 DUP3 ADD MLOAD DUP4 DUP3 SUB PUSH1 0xE0 DUP6 ADD MSTORE PUSH2 0x1F99 DUP3 DUP3 PUSH2 0x1E9A JUMP JUMPDEST SWAP2 POP POP PUSH2 0x100 DUP3 ADD MLOAD DUP4 DUP3 SUB PUSH2 0x100 DUP6 ADD MSTORE PUSH2 0x1FB5 DUP3 DUP3 PUSH2 0x1E9A JUMP JUMPDEST SWAP2 POP POP PUSH2 0x120 DUP3 ADD MLOAD DUP4 DUP3 SUB PUSH2 0x120 DUP6 ADD MSTORE PUSH2 0x1FD1 DUP3 DUP3 PUSH2 0x1E9A JUMP JUMPDEST SWAP2 POP POP PUSH2 0x140 DUP3 ADD MLOAD DUP4 DUP3 SUB PUSH2 0x140 DUP6 ADD MSTORE PUSH2 0x1FED DUP3 DUP3 PUSH2 0x1E9A JUMP JUMPDEST SWAP2 POP POP PUSH2 0x160 DUP3 ADD MLOAD PUSH2 0x160 DUP5 ADD MSTORE PUSH2 0x180 DUP3 ADD MLOAD PUSH2 0x2011 PUSH2 0x180 DUP6 ADD DUP3 ISZERO ISZERO SWAP1 MSTORE JUMP JUMPDEST POP PUSH2 0x1A0 DUP3 ADD MLOAD DUP4 DUP3 SUB PUSH2 0x1A0 DUP6 ADD MSTORE PUSH2 0x202B DUP3 DUP3 PUSH2 0x1E9A JUMP JUMPDEST SWAP2 POP POP PUSH2 0x1C0 DUP3 ADD MLOAD DUP4 DUP3 SUB PUSH2 0x1C0 DUP6 ADD MSTORE PUSH2 0x2047 DUP3 DUP3 PUSH2 0x1E9A JUMP JUMPDEST SWAP2 POP POP PUSH2 0x1E0 DUP3 ADD MLOAD DUP4 DUP3 SUB PUSH2 0x1E0 DUP6 ADD MSTORE PUSH2 0x2063 DUP3 DUP3 PUSH2 0x1E9A JUMP JUMPDEST SWAP2 POP POP PUSH2 0x200 DUP3 ADD MLOAD SWAP2 POP DUP3 DUP2 SUB PUSH2 0x200 DUP5 ADD MSTORE PUSH2 0x2081 DUP2 DUP4 PUSH2 0x1E9A JUMP JUMPDEST SWAP7 SWAP6 POP POP POP POP POP POP JUMP JUMPDEST PUSH0 PUSH1 0x20 DUP3 ADD PUSH1 0x20 DUP4 MSTORE DUP1 DUP5 MLOAD DUP1 DUP4 MSTORE PUSH1 0x40 DUP6 ADD SWAP2 POP PUSH1 0x40 DUP2 PUSH1 0x5 SHL DUP7 ADD ADD SWAP3 POP PUSH1 0x20 DUP7 ADD PUSH0 JUMPDEST DUP3 DUP2 LT ISZERO PUSH2 0x20E2 JUMPI PUSH1 0x3F NOT DUP8 DUP7 SUB ADD DUP5 MSTORE PUSH2 0x20CD DUP6 DUP4 MLOAD PUSH2 0x1EC8 JUMP JUMPDEST SWAP5 POP PUSH1 0x20 SWAP4 DUP5 ADD SWAP4 SWAP2 SWAP1 SWAP2 ADD SWAP1 PUSH1 0x1 ADD PUSH2 0x20B1 JUMP JUMPDEST POP SWAP3 SWAP7 SWAP6 POP POP POP POP POP POP JUMP JUMPDEST PUSH0 PUSH1 0x20 DUP3 DUP5 SUB SLT ISZERO PUSH2 0x20FE JUMPI PUSH0 PUSH0 REVERT JUMPDEST POP CALLDATALOAD SWAP2 SWAP1 POP JUMP JUMPDEST PUSH1 0x20 DUP2 MSTORE PUSH0 PUSH2 0x2117 PUSH1 0x20 DUP4 ADD DUP5 PUSH2 0x1EC8 JUMP JUMPDEST SWAP4 SWAP3 POP POP POP JUMP JUMPDEST PUSH1 0x20 DUP2 MSTORE PUSH0 PUSH2 0x2117 PUSH1 0x20 DUP4 ADD DUP5 PUSH2 0x1E9A JUMP JUMPDEST PUSH0 PUSH1 0x20 DUP3 DUP5 SUB SLT ISZERO PUSH2 0x2140 JUMPI PUSH0 PUSH0 REVERT JUMPDEST DUP2 CALLDATALOAD PUSH1 0x1 PUSH1 0x1 PUSH1 0x40 SHL SUB DUP2 GT ISZERO PUSH2 0x2155 JUMPI PUSH0 PUSH0 REVERT JUMPDEST DUP3 ADD PUSH2 0x220 DUP2 DUP6 SUB SLT ISZERO PUSH2 0x2117 JUMPI PUSH0 PUSH0 REVERT JUMPDEST PUSH4 0x4E487B71 PUSH1 0xE0 SHL PUSH0 MSTORE PUSH1 0x41 PUSH1 0x4 MSTORE PUSH1 0x24 PUSH0 REVERT JUMPDEST PUSH4 0x4E487B71 PUSH1 0xE0 SHL PUSH0 MSTORE PUSH1 0x32 PUSH1 0x4 MSTORE PUSH1 0x24 PUSH0 REVERT JUMPDEST PUSH1 0x1 DUP2 DUP2 SHR SWAP1 DUP3 AND DUP1 PUSH2 0x21A3 JUMPI PUSH1 0x7F DUP3 AND SWAP2 POP JUMPDEST PUSH1 0x20 DUP3 LT DUP2 SUB PUSH2 0x965 JUMPI PUSH4 0x4E487B71 PUSH1 0xE0 SHL PUSH0 MSTORE PUSH1 0x22 PUSH1 0x4 MSTORE PUSH1 0x24 PUSH0 REVERT JUMPDEST PUSH0 PUSH1 0x1 DUP3 ADD PUSH2 0x21DE JUMPI PUSH4 0x4E487B71 PUSH1 0xE0 SHL PUSH0 MSTORE PUSH1 0x11 PUSH1 0x4 MSTORE PUSH1 0x24 PUSH0 REVERT JUMPDEST POP PUSH1 0x1 ADD SWAP1 JUMP JUMPDEST PUSH0 PUSH0 DUP4 SLOAD PUSH2 0x21F2 DUP2 PUSH2 0x218F JUMP JUMPDEST PUSH1 0x1 DUP3 AND DUP1 ISZERO PUSH2 0x2209 JUMPI PUSH1 0x1 DUP2 EQ PUSH2 0x221E JUMPI PUSH2 0x224B JUMP JUMPDEST PUSH1 0xFF NOT DUP4 AND DUP7 MSTORE DUP2 ISZERO ISZERO DUP3 MUL DUP7 ADD SWAP4 POP PUSH2 0x224B JUMP JUMPDEST DUP7 PUSH0 MSTORE PUSH1 0x20 PUSH0 KECCAK256 PUSH0 JUMPDEST DUP4 DUP2 LT ISZERO PUSH2 0x2243 JUMPI DUP2 SLOAD DUP9 DUP3 ADD MSTORE PUSH1 0x1 SWAP1 SWAP2 ADD SWAP1 PUSH1 0x20 ADD PUSH2 0x2227 JUMP JUMPDEST POP POP DUP2 DUP7 ADD SWAP4 POP JUMPDEST POP SWAP2 SWAP6 SWAP5 POP POP POP POP POP JUMP JUMPDEST PUSH0 PUSH0 DUP4 CALLDATALOAD PUSH1 0x1E NOT DUP5 CALLDATASIZE SUB ADD DUP2 SLT PUSH2 0x226B JUMPI PUSH0 PUSH0 REVERT JUMPDEST DUP4 ADD DUP1 CALLDATALOAD SWAP2 POP PUSH1 0x1 PUSH1 0x1 PUSH1 0x40 SHL SUB DUP3 GT ISZERO PUSH2 0x2284 JUMPI PUSH0 PUSH0 REVERT JUMPDEST PUSH1 0x20 ADD SWAP2 POP CALLDATASIZE DUP2 SWAP1 SUB DUP3 SGT ISZERO PUSH2 0x2298 JUMPI PUSH0 PUSH0 REVERT JUMPDEST SWAP3 POP SWAP3 SWAP1 POP JUMP JUMPDEST DUP2 DUP4 DUP3 CALLDATACOPY PUSH0 SWAP2 ADD SWAP1 DUP2 MSTORE SWAP2 SWAP1 POP JUMP JUMPDEST PUSH1 0x40 MLOAD PUSH2 0x220 DUP2 ADD PUSH1 0x1 PUSH1 0x1 PUSH1 0x40 SHL SUB DUP2 GT DUP3 DUP3 LT OR ISZERO PUSH2 0x22D1 JUMPI PUSH2 0x22D1 PUSH2 0x2167 JUMP JUMPDEST PUSH1 0x40 MSTORE SWAP1 JUMP JUMPDEST PUSH0 DUP3 PUSH1 0x1F DUP4 ADD SLT PUSH2 0x22E6 JUMPI PUSH0 PUSH0 REVERT JUMPDEST DUP2 CALLDATALOAD PUSH1 0x1 PUSH1 0x1 PUSH1 0x40 SHL SUB DUP2 GT ISZERO PUSH2 0x22FF JUMPI PUSH2 0x22FF PUSH2 0x2167 JUMP JUMPDEST PUSH1 0x40 MLOAD PUSH1 0x1F DUP3 ADD PUSH1 0x1F NOT SWAP1 DUP2 AND PUSH1 0x3F ADD AND DUP2 ADD PUSH1 0x1 PUSH1 0x1 PUSH1 0x40 SHL SUB DUP2 GT DUP3 DUP3 LT OR ISZERO PUSH2 0x232D JUMPI PUSH2 0x232D PUSH2 0x2167 JUMP JUMPDEST PUSH1 0x40 MSTORE DUP2 DUP2 MSTORE DUP4 DUP3 ADD PUSH1 0x20 ADD DUP6 LT ISZERO PUSH2 0x2344 JUMPI PUSH0 PUSH0 REVERT JUMPDEST DUP2 PUSH1 0x20 DUP6 ADD PUSH1 0x20 DUP4 ADD CALLDATACOPY PUSH0 SWAP2 DUP2 ADD PUSH1 0x20 ADD SWAP2 SWAP1 SWAP2 MSTORE SWAP4 SWAP3 POP POP POP JUMP JUMPDEST DUP1 CALLDATALOAD DUP1 ISZERO ISZERO DUP2 EQ PUSH2 0x236F JUMPI PUSH0 PUSH0 REVERT JUMPDEST SWAP2 SWAP1 POP JUMP JUMPDEST PUSH0 PUSH2 0x220 DUP3 CALLDATASIZE SUB SLT ISZERO PUSH2 0x2385 JUMPI PUSH0 PUSH0 REVERT JUMPDEST PUSH2 0x238D PUSH2 0x22AE JUMP JUMPDEST DUP3 CALLDATALOAD DUP2 MSTORE PUSH1 0x20 DUP1 DUP5 ADD CALLDATALOAD SWAP1 DUP3 ADD MSTORE PUSH1 0x40 DUP4 ADD CALLDATALOAD PUSH1 0x1 PUSH1 0x1 PUSH1 0x40 SHL SUB DUP2 GT ISZERO PUSH2 0x23B3 JUMPI PUSH0 PUSH0 REVERT JUMPDEST PUSH2 0x23BF CALLDATASIZE DUP3 DUP7 ADD PUSH2 0x22D7 JUMP JUMPDEST PUSH1 0x40 DUP4 ADD MSTORE POP PUSH1 0x60 DUP4 ADD CALLDATALOAD PUSH1 0x1 PUSH1 0x1 PUSH1 0x40 SHL SUB DUP2 GT ISZERO PUSH2 0x23DD JUMPI PUSH0 PUSH0 REVERT JUMPDEST PUSH2 0x23E9 CALLDATASIZE DUP3 DUP7 ADD PUSH2 0x22D7 JUMP JUMPDEST PUSH1 0x60 DUP4 ADD MSTORE POP PUSH1 0x80 DUP4 DUP2 ADD CALLDATALOAD SWAP1 DUP3 ADD MSTORE PUSH1 0xA0 DUP1 DUP5 ADD CALLDATALOAD SWAP1 DUP3 ADD MSTORE PUSH1 0xC0 DUP4 ADD CALLDATALOAD PUSH1 0x1 PUSH1 0x1 PUSH1 0x40 SHL SUB DUP2 GT ISZERO PUSH2 0x241B JUMPI PUSH0 PUSH0 REVERT JUMPDEST PUSH2 0x2427 CALLDATASIZE DUP3 DUP7 ADD PUSH2 0x22D7 JUMP JUMPDEST PUSH1 0xC0 DUP4 ADD MSTORE POP PUSH1 0xE0 DUP4 ADD CALLDATALOAD PUSH1 0x1 PUSH1 0x1 PUSH1 0x40 SHL SUB DUP2 GT ISZERO PUSH2 0x2445 JUMPI PUSH0 PUSH0 REVERT JUMPDEST PUSH2 0x2451 CALLDATASIZE DUP3 DUP7 ADD PUSH2 0x22D7 JUMP JUMPDEST PUSH1 0xE0 DUP4 ADD MSTORE POP PUSH2 0x100 DUP4 ADD CALLDATALOAD PUSH1 0x1 PUSH1 0x1 PUSH1 0x40 SHL SUB DUP2 GT ISZERO PUSH2 0x2470 JUMPI PUSH0 PUSH0 REVERT JUMPDEST PUSH2 0x247C CALLDATASIZE DUP3 DUP7 ADD PUSH2 0x22D7 JUMP JUMPDEST PUSH2 0x100 DUP4 ADD MSTORE POP PUSH2 0x120 DUP4 ADD CALLDATALOAD PUSH1 0x1 PUSH1 0x1 PUSH1 0x40 SHL SUB DUP2 GT ISZERO PUSH2 0x249C JUMPI PUSH0 PUSH0 REVERT JUMPDEST PUSH2 0x24A8 CALLDATASIZE DUP3 DUP7 ADD PUSH2 0x22D7 JUMP JUMPDEST PUSH2 0x120 DUP4 ADD MSTORE POP PUSH2 0x140 DUP4 ADD CALLDATALOAD PUSH1 0x1 PUSH1 0x1 PUSH1 0x40 SHL SUB DUP2 GT ISZERO PUSH2 0x24C8 JUMPI PUSH0 PUSH0 REVERT JUMPDEST PUSH2 0x24D4 CALLDATASIZE DUP3 DUP7 ADD PUSH2 0x22D7 JUMP JUMPDEST PUSH2 0x140 DUP4 ADD MSTORE POP PUSH2 0x160 DUP4 DUP2 ADD CALLDATALOAD SWAP1 DUP3 ADD MSTORE PUSH2 0x24F3 PUSH2 0x180 DUP5 ADD PUSH2 0x2360 JUMP JUMPDEST PUSH2 0x180 DUP3 ADD MSTORE PUSH2 0x1A0 DUP4 ADD CALLDATALOAD PUSH1 0x1 PUSH1 0x1 PUSH1 0x40 SHL SUB DUP2 GT ISZERO PUSH2 0x2512 JUMPI PUSH0 PUSH0 REVERT JUMPDEST PUSH2 0x251E CALLDATASIZE DUP3 DUP7 ADD PUSH2 0x22D7 JUMP JUMPDEST PUSH2 0x1A0 DUP4 ADD MSTORE POP PUSH2 0x1C0 DUP4 ADD CALLDATALOAD PUSH1 0x1 PUSH1 0x1 PUSH1 0x40 SHL SUB DUP2 GT ISZERO PUSH2 0x253E JUMPI PUSH0 PUSH0 REVERT JUMPDEST PUSH2 0x254A CALLDATASIZE DUP3 DUP7 ADD PUSH2 0x22D7 JUMP JUMPDEST PUSH2 0x1C0 DUP4 ADD MSTORE POP PUSH2 0x1E0 DUP4 ADD CALLDATALOAD PUSH1 0x1 PUSH1 0x1 PUSH1 0x40 SHL SUB DUP2 GT ISZERO PUSH2 0x256A JUMPI PUSH0 PUSH0 REVERT JUMPDEST PUSH2 0x2576 CALLDATASIZE DUP3 DUP7 ADD PUSH2 0x22D7 JUMP JUMPDEST PUSH2 0x1E0 DUP4 ADD MSTORE POP PUSH2 0x200 DUP4 ADD CALLDATALOAD PUSH1 0x1 PUSH1 0x1 PUSH1 0x40 SHL SUB DUP2 GT ISZERO PUSH2 0x2596 JUMPI PUSH0 PUSH0 REVERT JUMPDEST PUSH2 0x25A2 CALLDATASIZE DUP3 DUP7 ADD PUSH2 0x22D7 JUMP JUMPDEST PUSH2 0x200 DUP4 ADD MSTORE POP SWAP3 SWAP2 POP POP JUMP JUMPDEST PUSH1 0x1F DUP3 GT ISZERO PUSH2 0x25F6 JUMPI DUP1 PUSH0 MSTORE PUSH1 0x20 PUSH0 KECCAK256 PUSH1 0x1F DUP5 ADD PUSH1 0x5 SHR DUP2 ADD PUSH1 0x20 DUP6 LT ISZERO PUSH2 0x25D4 JUMPI POP DUP1 JUMPDEST PUSH1 0x1F DUP5 ADD PUSH1 0x5 SHR DUP3 ADD SWAP2 POP JUMPDEST DUP2 DUP2 LT ISZERO PUSH2 0x25F3 JUMPI PUSH0 DUP2 SSTORE PUSH1 0x1 ADD PUSH2 0x25E0 JUMP JUMPDEST POP POP JUMPDEST POP POP POP JUMP JUMPDEST DUP2 MLOAD PUSH1 0x1 PUSH1 0x1 PUSH1 0x40 SHL SUB DUP2 GT ISZERO PUSH2 0x2614 JUMPI PUSH2 0x2614 PUSH2 0x2167 JUMP JUMPDEST PUSH2 0x2628 DUP2 PUSH2 0x2622 DUP5 SLOAD PUSH2 0x218F JUMP JUMPDEST DUP5 PUSH2 0x25AF JUMP JUMPDEST PUSH1 0x20 PUSH1 0x1F DUP3 GT PUSH1 0x1 DUP2 EQ PUSH2 0x265A JUMPI PUSH0 DUP4 ISZERO PUSH2 0x2643 JUMPI POP DUP5 DUP3 ADD MLOAD JUMPDEST PUSH0 NOT PUSH1 0x3 DUP6 SWAP1 SHL SHR NOT AND PUSH1 0x1 DUP5 SWAP1 SHL OR DUP5 SSTORE PUSH2 0x25F3 JUMP JUMPDEST PUSH0 DUP5 DUP2 MSTORE PUSH1 0x20 DUP2 KECCAK256 PUSH1 0x1F NOT DUP6 AND SWAP2 JUMPDEST DUP3 DUP2 LT ISZERO PUSH2 0x2689 JUMPI DUP8 DUP6 ADD MLOAD DUP3 SSTORE PUSH1 0x20 SWAP5 DUP6 ADD SWAP5 PUSH1 0x1 SWAP1 SWAP3 ADD SWAP2 ADD PUSH2 0x2669 JUMP JUMPDEST POP DUP5 DUP3 LT ISZERO PUSH2 0x26A6 JUMPI DUP7 DUP5 ADD MLOAD PUSH0 NOT PUSH1 0x3 DUP8 SWAP1 SHL PUSH1 0xF8 AND SHR NOT AND DUP2 SSTORE JUMPDEST POP POP POP POP PUSH1 0x1 SWAP1 DUP2 SHL ADD SWAP1 SSTORE POP JUMP JUMPDEST DUP2 DUP4 MSTORE DUP2 DUP2 PUSH1 0x20 DUP6 ADD CALLDATACOPY POP PUSH0 DUP3 DUP3 ADD PUSH1 0x20 SWAP1 DUP2 ADD SWAP2 SWAP1 SWAP2 MSTORE PUSH1 0x1F SWAP1 SWAP2 ADD PUSH1 0x1F NOT AND SWAP1 SWAP2 ADD ADD SWAP1 JUMP JUMPDEST DUP8 DUP2 MSTORE PUSH1 0x80 PUSH1 0x20 DUP3 ADD MSTORE PUSH0 PUSH2 0x26F6 PUSH1 0x80 DUP4 ADD DUP9 DUP11 PUSH2 0x26B5 JUMP JUMPDEST DUP3 DUP2 SUB PUSH1 0x40 DUP5 ADD MSTORE PUSH2 0x2709 DUP2 DUP8 DUP10 PUSH2 0x26B5 JUMP JUMPDEST SWAP1 POP DUP3 DUP2 SUB PUSH1 0x60 DUP5 ADD MSTORE PUSH2 0x271E DUP2 DUP6 DUP8 PUSH2 0x26B5 JUMP JUMPDEST SWAP11 SWAP10 POP POP POP POP POP POP POP POP POP POP JUMP INVALID LOG2 PUSH5 0x6970667358 0x22 SLT KECCAK256 PUSH24 0xC5CB3C94866B35FBC84FA691C7FC8ED5302E828B69AEB768 PUSH22 0xD5D9C89791BA64736F6C634300081E0033A264697066 PUSH20 0x582212203C1F26D19CC9CE003CAFCA369FA16167 BLOCKHASH SIGNEXTEND EXTCODESIZE 0xD4 0xE CODECOPY RETURNCONTRACT 0xB7 NUMBER 0xEB SSTORE DUP15 0xC0 PUSH28 0xACE864736F6C634300081E0033000000000000000000000000000000 "
		},
		"gasEstimates": {
			"creation": {
				"codeDepositCost": "3071000",
				"executionCost": "3379",
				"totalCost": "3074379"
			},
			"external": {
				"addCandle((uint256,uint256,string,string,uint256,uint256,string,string,string,string,string,uint256,bool,string,string,string,string),string)": "infinite",
				"compareStrings(string,string)": "infinite",
				"getAllKline(string,uint256)": "infinite",
				"getKlineContract(string)": "infinite",
				"getLengthKline(string,uint256)": "infinite",
				"getPrefix(string)": "infinite",
				"klineContracts(string,uint256)": "infinite"
			},
			"internal": {
				"_getDayIndex(uint256)": "80"
			}
		},
		"methodIdentifiers": {
			"addCandle((uint256,uint256,string,string,uint256,uint256,string,string,string,string,string,uint256,bool,string,string,string,string),string)": "ee5f90ae",
			"compareStrings(string,string)": "bed34bba",
			"getAllKline(string,uint256)": "419ed6de",
			"getKlineContract(string)": "157e41f6",
			"getLengthKline(string,uint256)": "68ba393a",
			"getPrefix(string)": "abdb93ab",
			"klineContracts(string,uint256)": "6b4f9ddb"
		}
	},
	"abi": [
		{
			"anonymous": false,
			"inputs": [
				{
					"indexed": false,
					"internalType": "uint256",
					"name": "key",
					"type": "uint256"
				},
				{
					"indexed": false,
					"internalType": "address",
					"name": "contractAddress",
					"type": "address"
				}
			],
			"name": "KlineContractCreated",
			"type": "event"
		},
		{
			"inputs": [
				{
					"components": [
						{
							"internalType": "uint256",
							"name": "t",
							"type": "uint256"
						},
						{
							"internalType": "uint256",
							"name": "T",
							"type": "uint256"
						},
						{
							"internalType": "string",
							"name": "s",
							"type": "string"
						},
						{
							"internalType": "string",
							"name": "i",
							"type": "string"
						},
						{
							"internalType": "uint256",
							"name": "f",
							"type": "uint256"
						},
						{
							"internalType": "uint256",
							"name": "L",
							"type": "uint256"
						},
						{
							"internalType": "string",
							"name": "o",
							"type": "string"
						},
						{
							"internalType": "string",
							"name": "c",
							"type": "string"
						},
						{
							"internalType": "string",
							"name": "h",
							"type": "string"
						},
						{
							"internalType": "string",
							"name": "l",
							"type": "string"
						},
						{
							"internalType": "string",
							"name": "v",
							"type": "string"
						},
						{
							"internalType": "uint256",
							"name": "n",
							"type": "uint256"
						},
						{
							"internalType": "bool",
							"name": "x",
							"type": "bool"
						},
						{
							"internalType": "string",
							"name": "q",
							"type": "string"
						},
						{
							"internalType": "string",
							"name": "V",
							"type": "string"
						},
						{
							"internalType": "string",
							"name": "Q",
							"type": "string"
						},
						{
							"internalType": "string",
							"name": "B",
							"type": "string"
						}
					],
					"internalType": "struct KlineRecord",
					"name": "record",
					"type": "tuple"
				},
				{
					"internalType": "string",
					"name": "_interval",
					"type": "string"
				}
			],
			"name": "addCandle",
			"outputs": [],
			"stateMutability": "nonpayable",
			"type": "function"
		},
		{
			"inputs": [
				{
					"internalType": "string",
					"name": "a",
					"type": "string"
				},
				{
					"internalType": "string",
					"name": "b",
					"type": "string"
				}
			],
			"name": "compareStrings",
			"outputs": [
				{
					"internalType": "bool",
					"name": "",
					"type": "bool"
				}
			],
			"stateMutability": "pure",
			"type": "function"
		},
		{
			"inputs": [
				{
					"internalType": "string",
					"name": "interval",
					"type": "string"
				},
				{
					"internalType": "uint256",
					"name": "timestime",
					"type": "uint256"
				}
			],
			"name": "getAllKline",
			"outputs": [
				{
					"components": [
						{
							"internalType": "string",
							"name": "e",
							"type": "string"
						},
						{
							"internalType": "uint256",
							"name": "E",
							"type": "uint256"
						},
						{
							"internalType": "string",
							"name": "s",
							"type": "string"
						},
						{
							"components": [
								{
									"internalType": "uint256",
									"name": "t",
									"type": "uint256"
								},
								{
									"internalType": "uint256",
									"name": "T",
									"type": "uint256"
								},
								{
									"internalType": "string",
									"name": "s",
									"type": "string"
								},
								{
									"internalType": "string",
									"name": "i",
									"type": "string"
								},
								{
									"internalType": "uint256",
									"name": "f",
									"type": "uint256"
								},
								{
									"internalType": "uint256",
									"name": "L",
									"type": "uint256"
								},
								{
									"internalType": "string",
									"name": "o",
									"type": "string"
								},
								{
									"internalType": "string",
									"name": "c",
									"type": "string"
								},
								{
									"internalType": "string",
									"name": "h",
									"type": "string"
								},
								{
									"internalType": "string",
									"name": "l",
									"type": "string"
								},
								{
									"internalType": "string",
									"name": "v",
									"type": "string"
								},
								{
									"internalType": "uint256",
									"name": "n",
									"type": "uint256"
								},
								{
									"internalType": "bool",
									"name": "x",
									"type": "bool"
								},
								{
									"internalType": "string",
									"name": "q",
									"type": "string"
								},
								{
									"internalType": "string",
									"name": "V",
									"type": "string"
								},
								{
									"internalType": "string",
									"name": "Q",
									"type": "string"
								},
								{
									"internalType": "string",
									"name": "B",
									"type": "string"
								}
							],
							"internalType": "struct KlineRecord",
							"name": "k",
							"type": "tuple"
						}
					],
					"internalType": "struct KlineResponse[]",
					"name": "",
					"type": "tuple[]"
				}
			],
			"stateMutability": "view",
			"type": "function"
		},
		{
			"inputs": [
				{
					"internalType": "string",
					"name": "interval",
					"type": "string"
				}
			],
			"name": "getKlineContract",
			"outputs": [
				{
					"internalType": "address",
					"name": "",
					"type": "address"
				}
			],
			"stateMutability": "view",
			"type": "function"
		},
		{
			"inputs": [
				{
					"internalType": "string",
					"name": "_interval",
					"type": "string"
				},
				{
					"internalType": "uint256",
					"name": "timestime",
					"type": "uint256"
				}
			],
			"name": "getLengthKline",
			"outputs": [
				{
					"internalType": "uint256",
					"name": "",
					"type": "uint256"
				}
			],
			"stateMutability": "view",
			"type": "function"
		},
		{
			"inputs": [
				{
					"internalType": "string",
					"name": "str",
					"type": "string"
				}
			],
			"name": "getPrefix",
			"outputs": [
				{
					"internalType": "string",
					"name": "",
					"type": "string"
				}
			],
			"stateMutability": "pure",
			"type": "function"
		},
		{
			"inputs": [
				{
					"internalType": "string",
					"name": "",
					"type": "string"
				},
				{
					"internalType": "uint256",
					"name": "",
					"type": "uint256"
				}
			],
			"name": "klineContracts",
			"outputs": [
				{
					"internalType": "address",
					"name": "",
					"type": "address"
				}
			],
			"stateMutability": "view",
			"type": "function"
		}
	]
}