{
	"data": {
		"bytecode": {
			"linkReferences": {},
			"object": "6080604052348015600e575f5ffd5b50613b988061001c5f395ff3fe608060405234801561000f575f5ffd5b5060043610610060575f3560e01c8063256d106e1461006457806341356339146100945780635b3cb9d4146100c45780638235aac3146100f45780638d412ad21461011057806393faa99214610140575b5f5ffd5b61007e60048036038101906100799190610da5565b610170565b60405161008b9190610e45565b60405180910390f35b6100ae60048036038101906100a99190610da5565b610325565b6040516100bb91906111c0565b60405180910390f35b6100de60048036038101906100d99190611236565b610470565b6040516100eb91906112c5565b60405180910390f35b61010e600480360381019061010991906115fb565b6104b7565b005b61012a60048036038101906101259190611655565b610787565b60405161013791906116a2565b60405180910390f35b61015a600480360381019061015591906116bb565b6107aa565b6040516101679190611775565b60405180910390f35b5f5f61017b846107aa565b90505f8560405160200161018f91906117c8565b6040516020818303038152906040528051906020012090505f6101b28386610787565b90505f5f5f8481526020019081526020015f205f85600f8111156101d9576101d8611702565b5b600f8111156101eb576101ea611702565b5b81526020019081526020015f205f8367ffffffffffffffff1667ffffffffffffffff1681526020019081526020015f205f9054906101000a900473ffffffffffffffffffffffffffffffffffffffff1690505f73ffffffffffffffffffffffffffffffffffffffff168173ffffffffffffffffffffffffffffffffffffffff16036102ab576040517f08c379a00000000000000000000000000000000000000000000000000000000081526004016102a290611838565b60405180910390fd5b8073ffffffffffffffffffffffffffffffffffffffff1663be1c766b6040518163ffffffff1660e01b8152600401602060405180830381865afa1580156102f4573d5f5f3e3d5ffd5b505050506040513d601f19601f82011682018060405250810190610318919061186a565b9450505050509392505050565b60605f610331846107aa565b90505f8560405160200161034591906117c8565b6040516020818303038152906040528051906020012090505f6103688386610787565b90505f5f5f8481526020019081526020015f205f85600f81111561038f5761038e611702565b5b600f8111156103a1576103a0611702565b5b81526020019081526020015f205f8367ffffffffffffffff1667ffffffffffffffff1681526020019081526020015f205f9054906101000a900473ffffffffffffffffffffffffffffffffffffffff1690508073ffffffffffffffffffffffffffffffffffffffff166348cbad6e6040518163ffffffff1660e01b81526004015f60405180830381865afa15801561043b573d5f5f3e3d5ffd5b505050506040513d5f823e3d601f19601f820116820180604052508101906104639190611d83565b9450505050509392505050565b5f602052825f5260405f20602052815f5260405f20602052805f5260405f205f92509250509054906101000a900473ffffffffffffffffffffffffffffffffffffffff1681565b5f6104c583606001516107aa565b90505f83604001516040516020016104dd91906117c8565b6040516020818303038152906040528051906020012090505f6105008385610787565b90505f5f5f8481526020019081526020015f205f85600f81111561052757610526611702565b5b600f81111561053957610538611702565b5b81526020019081526020015f205f8367ffffffffffffffff1667ffffffffffffffff1681526020019081526020015f205f9054906101000a900473ffffffffffffffffffffffffffffffffffffffff1690505f73ffffffffffffffffffffffffffffffffffffffff168173ffffffffffffffffffffffffffffffffffffffff1603610719576106076040518060400160405280601581526020017f4372656174696e67206e657720736861726420617400000000000000000000008152508367ffffffffffffffff16610b24565b60405161061390610c04565b604051809103905ff08015801561062c573d5f5f3e3d5ffd5b509050805f5f8581526020019081526020015f205f86600f81111561065457610653611702565b5b600f81111561066657610665611702565b5b81526020019081526020015f205f8467ffffffffffffffff1667ffffffffffffffff1681526020019081526020015f205f6101000a81548173ffffffffffffffffffffffffffffffffffffffff021916908373ffffffffffffffffffffffffffffffffffffffff1602179055507f2a9e82be7bc20784dcc707f4814ca404ac4a94db66450718f7733b160fb62d868660400151876060015184846040516107109493929190611e02565b60405180910390a15b8073ffffffffffffffffffffffffffffffffffffffff1663f2523a9d876040518263ffffffff1660e01b81526004016107529190612003565b5f604051808303815f87803b158015610769575f5ffd5b505af115801561077b573d5f5f3e3d5ffd5b50505050505050505050565b5f6236ee808083610798919061207d565b6107a291906120ad565b905092915050565b5f5f826040516020016107bd91906117c8565b6040516020818303038152906040528051906020012090507f6c9308eeeb72aac61c6ee2086645ec6cf6638d86d97af7b81bcf4073f3b95dbc8103610805575f915050610b1f565b7f523a5c8a0f83a86997a616b324ae897d2fb6b3f5f68b3969331c12e0f00f9f258103610836576001915050610b1f565b7f2a3ff2dfa7bd33b0e77d014065236a2f104b389b776645fddb9e6a09eea014418103610867576002915050610b1f565b7ffca740c51a7536a1ff8f65314e26b24cee265d7626ad2e39318898f3d501ac228103610898576003915050610b1f565b7f53cad56a766a794bdc4fd49b262cd08fadf5c823f208fbf3f4efb377c206eaaa81036108c9576004915050610b1f565b7fe99007fd2e286840683bfbac2c1ea22a3b3c1592d603a9ae9aee29cf77e941a781036108fa576005915050610b1f565b7f1125479f824fc31d0ce674b130e57a9dcfdf2d344ca1ef3fc8bf5bd50f9fcca9810361092b576006915050610b1f565b7fa50f424f123435e4689c6436ce338980297ca65f2ee6b69a216f0561ee6cf400810361095c576007915050610b1f565b7f9a433cc5a6aee766b1bce0a7dc72ab7b4fd031108e0c5afea91382f1b1955fc9810361098d576008915050610b1f565b7fa0b83cfa5501e126ac29f6bf7a07bd17e2d97916947eed361748e8e0ab0aba4d81036109be576009915050610b1f565b7fe21ccd2715134877c589435a9c98deb14540fdf9e902afebf2163fe393e9c07381036109ef57600a915050610b1f565b7f11108661a127316f8f74dc39a66520c8ec16719ed867ee768af67729ba3ec1d28103610a2057600b915050610b1f565b7f7b2e5637de8d5670bd5be523fbccc1dfef88f0767eb2abf5ac4a81da61ae20028103610a5157600c915050610b1f565b7f1cef0646e7fe7cb478d3a93d2e07774697c9239d0ee8b4294b768c91af329e668103610a8257600d915050610b1f565b7f7cd5ba658b5dff64585bfcb0df7983749825e2292a4ff6daf96207e6eb100fe78103610ab357600e915050610b1f565b7fa390d73d5fd5e6a577d394328e26ce85589c6d8c382fba9150fb136bbbf31ff78103610ae457600f915050610b1f565b6040517f08c379a0000000000000000000000000000000000000000000000000000000008152600401610b1690612133565b60405180910390fd5b919050565b610bbc8282604051602401610b3a929190612151565b6040516020818303038152906040527fb60e72cc000000000000000000000000000000000000000000000000000000007bffffffffffffffffffffffffffffffffffffffffffffffffffffffff19166020820180517bffffffffffffffffffffffffffffffffffffffffffffffffffffffff8381831617835250505050610bc0565b5050565b610bd781610bcf610bda610bf9565b63ffffffff16565b50565b5f6a636f6e736f6c652e6c6f6790505f5f835160208501845afa505050565b610c11819050919050565b6119b6806121ad83390190565b610c1961217f565b565b5f604051905090565b5f5ffd5b5f5ffd5b5f5ffd5b5f5ffd5b5f601f19601f8301169050919050565b7f4e487b71000000000000000000000000000000000000000000000000000000005f52604160045260245ffd5b610c7a82610c34565b810181811067ffffffffffffffff82111715610c9957610c98610c44565b5b80604052505050565b5f610cab610c1b565b9050610cb78282610c71565b919050565b5f67ffffffffffffffff821115610cd657610cd5610c44565b5b610cdf82610c34565b9050602081019050919050565b828183375f83830152505050565b5f610d0c610d0784610cbc565b610ca2565b905082815260208101848484011115610d2857610d27610c30565b5b610d33848285610cec565b509392505050565b5f82601f830112610d4f57610d4e610c2c565b5b8135610d5f848260208601610cfa565b91505092915050565b5f67ffffffffffffffff82169050919050565b610d8481610d68565b8114610d8e575f5ffd5b50565b5f81359050610d9f81610d7b565b92915050565b5f5f5f60608486031215610dbc57610dbb610c24565b5b5f84013567ffffffffffffffff811115610dd957610dd8610c28565b5b610de586828701610d3b565b935050602084013567ffffffffffffffff811115610e0657610e05610c28565b5b610e1286828701610d3b565b9250506040610e2386828701610d91565b9150509250925092565b5f819050919050565b610e3f81610e2d565b82525050565b5f602082019050610e585f830184610e36565b92915050565b5f81519050919050565b5f82825260208201905092915050565b5f819050602082019050919050565b5f81519050919050565b5f82825260208201905092915050565b8281835e5f83830152505050565b5f610eb982610e87565b610ec38185610e91565b9350610ed3818560208601610ea1565b610edc81610c34565b840191505092915050565b610ef081610e2d565b82525050565b5f8115159050919050565b610f0a81610ef6565b82525050565b5f61022083015f830151610f265f860182610ee7565b506020830151610f396020860182610ee7565b5060408301518482036040860152610f518282610eaf565b91505060608301518482036060860152610f6b8282610eaf565b9150506080830151610f806080860182610ee7565b5060a0830151610f9360a0860182610ee7565b5060c083015184820360c0860152610fab8282610eaf565b91505060e083015184820360e0860152610fc58282610eaf565b915050610100830151848203610100860152610fe18282610eaf565b915050610120830151848203610120860152610ffd8282610eaf565b9150506101408301518482036101408601526110198282610eaf565b915050610160830151611030610160860182610ee7565b50610180830151611045610180860182610f01565b506101a08301518482036101a086015261105f8282610eaf565b9150506101c08301518482036101c086015261107b8282610eaf565b9150506101e08301518482036101e08601526110978282610eaf565b9150506102008301518482036102008601526110b38282610eaf565b9150508091505092915050565b5f608083015f8301518482035f8601526110da8282610eaf565b91505060208301516110ef6020860182610ee7565b50604083015184820360408601526111078282610eaf565b915050606083015184820360608601526111218282610f10565b9150508091505092915050565b5f61113983836110c0565b905092915050565b5f602082019050919050565b5f61115782610e5e565b6111618185610e68565b93508360208202850161117385610e78565b805f5b858110156111ae578484038952815161118f858261112e565b945061119a83611141565b925060208a01995050600181019050611176565b50829750879550505050505092915050565b5f6020820190508181035f8301526111d8818461114d565b905092915050565b5f819050919050565b6111f2816111e0565b81146111fc575f5ffd5b50565b5f8135905061120d816111e9565b92915050565b6010811061121f575f5ffd5b50565b5f8135905061123081611213565b92915050565b5f5f5f6060848603121561124d5761124c610c24565b5b5f61125a868287016111ff565b935050602061126b86828701611222565b925050604061127c86828701610d91565b9150509250925092565b5f73ffffffffffffffffffffffffffffffffffffffff82169050919050565b5f6112af82611286565b9050919050565b6112bf816112a5565b82525050565b5f6020820190506112d85f8301846112b6565b92915050565b5f5ffd5b5f5ffd5b6112ef81610e2d565b81146112f9575f5ffd5b50565b5f8135905061130a816112e6565b92915050565b61131981610ef6565b8114611323575f5ffd5b50565b5f8135905061133481611310565b92915050565b5f61022082840312156113505761134f6112de565b5b61135b610220610ca2565b90505f61136a848285016112fc565b5f83015250602061137d848285016112fc565b602083015250604082013567ffffffffffffffff8111156113a1576113a06112e2565b5b6113ad84828501610d3b565b604083015250606082013567ffffffffffffffff8111156113d1576113d06112e2565b5b6113dd84828501610d3b565b60608301525060806113f1848285016112fc565b60808301525060a0611405848285016112fc565b60a08301525060c082013567ffffffffffffffff811115611429576114286112e2565b5b61143584828501610d3b565b60c08301525060e082013567ffffffffffffffff811115611459576114586112e2565b5b61146584828501610d3b565b60e08301525061010082013567ffffffffffffffff81111561148a576114896112e2565b5b61149684828501610d3b565b6101008301525061012082013567ffffffffffffffff8111156114bc576114bb6112e2565b5b6114c884828501610d3b565b6101208301525061014082013567ffffffffffffffff8111156114ee576114ed6112e2565b5b6114fa84828501610d3b565b61014083015250610160611510848285016112fc565b6101608301525061018061152684828501611326565b610180830152506101a082013567ffffffffffffffff81111561154c5761154b6112e2565b5b61155884828501610d3b565b6101a0830152506101c082013567ffffffffffffffff81111561157e5761157d6112e2565b5b61158a84828501610d3b565b6101c0830152506101e082013567ffffffffffffffff8111156115b0576115af6112e2565b5b6115bc84828501610d3b565b6101e08301525061020082013567ffffffffffffffff8111156115e2576115e16112e2565b5b6115ee84828501610d3b565b6102008301525092915050565b5f5f6040838503121561161157611610610c24565b5b5f83013567ffffffffffffffff81111561162e5761162d610c28565b5b61163a8582860161133a565b925050602061164b85828601610d91565b9150509250929050565b5f5f6040838503121561166b5761166a610c24565b5b5f61167885828601611222565b925050602061168985828601610d91565b9150509250929050565b61169c81610d68565b82525050565b5f6020820190506116b55f830184611693565b92915050565b5f602082840312156116d0576116cf610c24565b5b5f82013567ffffffffffffffff8111156116ed576116ec610c28565b5b6116f984828501610d3b565b91505092915050565b7f4e487b71000000000000000000000000000000000000000000000000000000005f52602160045260245ffd5b601081106117405761173f611702565b5b50565b5f8190506117508261172f565b919050565b5f61175f82611743565b9050919050565b61176f81611755565b82525050565b5f6020820190506117885f830184611766565b92915050565b5f81905092915050565b5f6117a282610e87565b6117ac818561178e565b93506117bc818560208601610ea1565b80840191505092915050565b5f6117d38284611798565b915081905092915050565b5f82825260208201905092915050565b7f41646472657373206973206e6f7420666f756e640000000000000000000000005f82015250565b5f6118226014836117de565b915061182d826117ee565b602082019050919050565b5f6020820190508181035f83015261184f81611816565b9050919050565b5f81519050611864816112e6565b92915050565b5f6020828403121561187f5761187e610c24565b5b5f61188c84828501611856565b91505092915050565b5f67ffffffffffffffff8211156118af576118ae610c44565b5b602082029050602081019050919050565b5f5ffd5b5f6118d66118d184610cbc565b610ca2565b9050828152602081018484840111156118f2576118f1610c30565b5b6118fd848285610ea1565b509392505050565b5f82601f83011261191957611918610c2c565b5b81516119298482602086016118c4565b91505092915050565b5f8151905061194081611310565b92915050565b5f610220828403121561195c5761195b6112de565b5b611967610220610ca2565b90505f61197684828501611856565b5f83015250602061198984828501611856565b602083015250604082015167ffffffffffffffff8111156119ad576119ac6112e2565b5b6119b984828501611905565b604083015250606082015167ffffffffffffffff8111156119dd576119dc6112e2565b5b6119e984828501611905565b60608301525060806119fd84828501611856565b60808301525060a0611a1184828501611856565b60a08301525060c082015167ffffffffffffffff811115611a3557611a346112e2565b5b611a4184828501611905565b60c08301525060e082015167ffffffffffffffff811115611a6557611a646112e2565b5b611a7184828501611905565b60e08301525061010082015167ffffffffffffffff811115611a9657611a956112e2565b5b611aa284828501611905565b6101008301525061012082015167ffffffffffffffff811115611ac857611ac76112e2565b5b611ad484828501611905565b6101208301525061014082015167ffffffffffffffff811115611afa57611af96112e2565b5b611b0684828501611905565b61014083015250610160611b1c84828501611856565b61016083015250610180611b3284828501611932565b610180830152506101a082015167ffffffffffffffff811115611b5857611b576112e2565b5b611b6484828501611905565b6101a0830152506101c082015167ffffffffffffffff811115611b8a57611b896112e2565b5b611b9684828501611905565b6101c0830152506101e082015167ffffffffffffffff811115611bbc57611bbb6112e2565b5b611bc884828501611905565b6101e08301525061020082015167ffffffffffffffff811115611bee57611bed6112e2565b5b611bfa84828501611905565b6102008301525092915050565b5f60808284031215611c1c57611c1b6112de565b5b611c266080610ca2565b90505f82015167ffffffffffffffff811115611c4557611c446112e2565b5b611c5184828501611905565b5f830152506020611c6484828501611856565b602083015250604082015167ffffffffffffffff811115611c8857611c876112e2565b5b611c9484828501611905565b604083015250606082015167ffffffffffffffff811115611cb857611cb76112e2565b5b611cc484828501611946565b60608301525092915050565b5f611ce2611cdd84611895565b610ca2565b90508083825260208201905060208402830185811115611d0557611d046118c0565b5b835b81811015611d4c57805167ffffffffffffffff811115611d2a57611d29610c2c565b5b808601611d378982611c07565b85526020850194505050602081019050611d07565b5050509392505050565b5f82601f830112611d6a57611d69610c2c565b5b8151611d7a848260208601611cd0565b91505092915050565b5f60208284031215611d9857611d97610c24565b5b5f82015167ffffffffffffffff811115611db557611db4610c28565b5b611dc184828501611d56565b91505092915050565b5f611dd482610e87565b611dde81856117de565b9350611dee818560208601610ea1565b611df781610c34565b840191505092915050565b5f6080820190508181035f830152611e1a8187611dca565b90508181036020830152611e2e8186611dca565b9050611e3d6040830185611693565b611e4a60608301846112b6565b95945050505050565b5f61022083015f830151611e695f860182610ee7565b506020830151611e7c6020860182610ee7565b5060408301518482036040860152611e948282610eaf565b91505060608301518482036060860152611eae8282610eaf565b9150506080830151611ec36080860182610ee7565b5060a0830151611ed660a0860182610ee7565b5060c083015184820360c0860152611eee8282610eaf565b91505060e083015184820360e0860152611f088282610eaf565b915050610100830151848203610100860152611f248282610eaf565b915050610120830151848203610120860152611f408282610eaf565b915050610140830151848203610140860152611f5c8282610eaf565b915050610160830151611f73610160860182610ee7565b50610180830151611f88610180860182610f01565b506101a08301518482036101a0860152611fa28282610eaf565b9150506101c08301518482036101c0860152611fbe8282610eaf565b9150506101e08301518482036101e0860152611fda8282610eaf565b915050610200830151848203610200860152611ff68282610eaf565b9150508091505092915050565b5f6020820190508181035f83015261201b8184611e53565b905092915050565b7f4e487b71000000000000000000000000000000000000000000000000000000005f52601260045260245ffd5b7f4e487b71000000000000000000000000000000000000000000000000000000005f52601160045260245ffd5b5f61208782610d68565b915061209283610d68565b9250826120a2576120a1612023565b5b828204905092915050565b5f6120b782610d68565b91506120c283610d68565b92508282026120d081610d68565b91508082146120e2576120e1612050565b5b5092915050565b7f496e76616c696420696e74657276616c20737472696e670000000000000000005f82015250565b5f61211d6017836117de565b9150612128826120e9565b602082019050919050565b5f6020820190508181035f83015261214a81612111565b9050919050565b5f6040820190508181035f8301526121698185611dca565b90506121786020830184610e36565b9392505050565b7f4e487b71000000000000000000000000000000000000000000000000000000005f52605160045260245ffdfe6080604052348015600e575f5ffd5b503360015f6101000a81548173ffffffffffffffffffffffffffffffffffffffff021916908373ffffffffffffffffffffffffffffffffffffffff16021790555061195a8061005c5f395ff3fe608060405234801561000f575f5ffd5b506004361061004a575f3560e01c806348cbad6e1461004e578063be1c766b1461006c578063c45a01551461008a578063f2523a9d146100a8575b5f5ffd5b6100566100c4565b6040516100639190610f6c565b60405180910390f35b6100746108d8565b6040516100819190610f9b565b60405180910390f35b6100926108e3565b60405161009f9190610ff3565b60405180910390f35b6100c260048036038101906100bd9190611040565b610908565b005b60605f805480602002602001604051908101604052809291908181526020015f905b828210156108cf578382905f5260205f2090601402016040518060800160405290815f82018054610116906110b4565b80601f0160208091040260200160405190810160405280929190818152602001828054610142906110b4565b801561018d5780601f106101645761010080835404028352916020019161018d565b820191905f5260205f20905b81548152906001019060200180831161017057829003601f168201915b50505050508152602001600182015481526020016002820180546101b0906110b4565b80601f01602080910402602001604051908101604052809291908181526020018280546101dc906110b4565b80156102275780601f106101fe57610100808354040283529160200191610227565b820191905f5260205f20905b81548152906001019060200180831161020a57829003601f168201915b5050505050815260200160038201604051806102200160405290815f820154815260200160018201548152602001600282018054610264906110b4565b80601f0160208091040260200160405190810160405280929190818152602001828054610290906110b4565b80156102db5780601f106102b2576101008083540402835291602001916102db565b820191905f5260205f20905b8154815290600101906020018083116102be57829003601f168201915b505050505081526020016003820180546102f4906110b4565b80601f0160208091040260200160405190810160405280929190818152602001828054610320906110b4565b801561036b5780601f106103425761010080835404028352916020019161036b565b820191905f5260205f20905b81548152906001019060200180831161034e57829003601f168201915b505050505081526020016004820154815260200160058201548152602001600682018054610398906110b4565b80601f01602080910402602001604051908101604052809291908181526020018280546103c4906110b4565b801561040f5780601f106103e65761010080835404028352916020019161040f565b820191905f5260205f20905b8154815290600101906020018083116103f257829003601f168201915b50505050508152602001600782018054610428906110b4565b80601f0160208091040260200160405190810160405280929190818152602001828054610454906110b4565b801561049f5780601f106104765761010080835404028352916020019161049f565b820191905f5260205f20905b81548152906001019060200180831161048257829003601f168201915b505050505081526020016008820180546104b8906110b4565b80601f01602080910402602001604051908101604052809291908181526020018280546104e4906110b4565b801561052f5780601f106105065761010080835404028352916020019161052f565b820191905f5260205f20905b81548152906001019060200180831161051257829003601f168201915b50505050508152602001600982018054610548906110b4565b80601f0160208091040260200160405190810160405280929190818152602001828054610574906110b4565b80156105bf5780601f10610596576101008083540402835291602001916105bf565b820191905f5260205f20905b8154815290600101906020018083116105a257829003601f168201915b50505050508152602001600a820180546105d8906110b4565b80601f0160208091040260200160405190810160405280929190818152602001828054610604906110b4565b801561064f5780601f106106265761010080835404028352916020019161064f565b820191905f5260205f20905b81548152906001019060200180831161063257829003601f168201915b50505050508152602001600b8201548152602001600c82015f9054906101000a900460ff16151515158152602001600d8201805461068c906110b4565b80601f01602080910402602001604051908101604052809291908181526020018280546106b8906110b4565b80156107035780601f106106da57610100808354040283529160200191610703565b820191905f5260205f20905b8154815290600101906020018083116106e657829003601f168201915b50505050508152602001600e8201805461071c906110b4565b80601f0160208091040260200160405190810160405280929190818152602001828054610748906110b4565b80156107935780601f1061076a57610100808354040283529160200191610793565b820191905f5260205f20905b81548152906001019060200180831161077657829003601f168201915b50505050508152602001600f820180546107ac906110b4565b80601f01602080910402602001604051908101604052809291908181526020018280546107d8906110b4565b80156108235780601f106107fa57610100808354040283529160200191610823565b820191905f5260205f20905b81548152906001019060200180831161080657829003601f168201915b5050505050815260200160108201805461083c906110b4565b80601f0160208091040260200160405190810160405280929190818152602001828054610868906110b4565b80156108b35780601f1061088a576101008083540402835291602001916108b3565b820191905f5260205f20905b81548152906001019060200180831161089657829003601f168201915b50505050508152505081525050815260200190600101906100e6565b50505050905090565b5f5f80549050905090565b60015f9054906101000a900473ffffffffffffffffffffffffffffffffffffffff1681565b5f6103e8426109179190611111565b90505f60405180608001604052806040518060400160405280600581526020017f6b6c696e650000000000000000000000000000000000000000000000000000008152508152602001838152602001848060400190610976919061115e565b8080601f0160208091040260200160405190810160405280939291908181526020018383808284375f81840152601f19601f820116905080830192505050505050508152602001846109c790611609565b81525090505f81908060018154018082558091505060019003905f5260205f2090601402015f909190919091505f820151815f019081610a0791906117bb565b50602082015181600101556040820151816002019081610a2791906117bb565b506060820151816003015f820151815f0155602082015181600101556040820151816002019081610a5891906117bb565b506060820151816003019081610a6e91906117bb565b506080820151816004015560a0820151816005015560c0820151816006019081610a9891906117bb565b5060e0820151816007019081610aae91906117bb565b50610100820151816008019081610ac591906117bb565b50610120820151816009019081610adc91906117bb565b5061014082015181600a019081610af391906117bb565b5061016082015181600b015561018082015181600c015f6101000a81548160ff0219169083151502179055506101a082015181600d019081610b3591906117bb565b506101c082015181600e019081610b4c91906117bb565b506101e082015181600f019081610b6391906117bb565b50610200820151816010019081610b7a91906117bb565b50505050507f87be993750fd9f870bc535d97609df048e07430c47f26712536434958094f87382848060400190610bb1919061115e565b868060c00190610bc1919061115e565b888060e00190610bd1919061115e565b604051610be497969594939291906118c6565b60405180910390a1505050565b5f81519050919050565b5f82825260208201905092915050565b5f819050602082019050919050565b5f81519050919050565b5f82825260208201905092915050565b8281835e5f83830152505050565b5f601f19601f8301169050919050565b5f610c5c82610c1a565b610c668185610c24565b9350610c76818560208601610c34565b610c7f81610c42565b840191505092915050565b5f819050919050565b610c9c81610c8a565b82525050565b5f8115159050919050565b610cb681610ca2565b82525050565b5f61022083015f830151610cd25f860182610c93565b506020830151610ce56020860182610c93565b5060408301518482036040860152610cfd8282610c52565b91505060608301518482036060860152610d178282610c52565b9150506080830151610d2c6080860182610c93565b5060a0830151610d3f60a0860182610c93565b5060c083015184820360c0860152610d578282610c52565b91505060e083015184820360e0860152610d718282610c52565b915050610100830151848203610100860152610d8d8282610c52565b915050610120830151848203610120860152610da98282610c52565b915050610140830151848203610140860152610dc58282610c52565b915050610160830151610ddc610160860182610c93565b50610180830151610df1610180860182610cad565b506101a08301518482036101a0860152610e0b8282610c52565b9150506101c08301518482036101c0860152610e278282610c52565b9150506101e08301518482036101e0860152610e438282610c52565b915050610200830151848203610200860152610e5f8282610c52565b9150508091505092915050565b5f608083015f8301518482035f860152610e868282610c52565b9150506020830151610e9b6020860182610c93565b5060408301518482036040860152610eb38282610c52565b91505060608301518482036060860152610ecd8282610cbc565b9150508091505092915050565b5f610ee58383610e6c565b905092915050565b5f602082019050919050565b5f610f0382610bf1565b610f0d8185610bfb565b935083602082028501610f1f85610c0b565b805f5b85811015610f5a5784840389528151610f3b8582610eda565b9450610f4683610eed565b925060208a01995050600181019050610f22565b50829750879550505050505092915050565b5f6020820190508181035f830152610f848184610ef9565b905092915050565b610f9581610c8a565b82525050565b5f602082019050610fae5f830184610f8c565b92915050565b5f73ffffffffffffffffffffffffffffffffffffffff82169050919050565b5f610fdd82610fb4565b9050919050565b610fed81610fd3565b82525050565b5f6020820190506110065f830184610fe4565b92915050565b5f604051905090565b5f5ffd5b5f5ffd5b5f5ffd5b5f61022082840312156110375761103661101d565b5b81905092915050565b5f6020828403121561105557611054611015565b5b5f82013567ffffffffffffffff81111561107257611071611019565b5b61107e84828501611021565b91505092915050565b7f4e487b71000000000000000000000000000000000000000000000000000000005f52602260045260245ffd5b5f60028204905060018216806110cb57607f821691505b6020821081036110de576110dd611087565b5b50919050565b7f4e487b71000000000000000000000000000000000000000000000000000000005f52601160045260245ffd5b5f61111b82610c8a565b915061112683610c8a565b925082820261113481610c8a565b9150828204841483151761114b5761114a6110e4565b5b5092915050565b5f5ffd5b5f5ffd5b5f5ffd5b5f5f8335600160200384360303811261117a57611179611152565b5b80840192508235915067ffffffffffffffff82111561119c5761119b611156565b5b6020830192506001820236038313156111b8576111b761115a565b5b509250929050565b5f5ffd5b7f4e487b71000000000000000000000000000000000000000000000000000000005f52604160045260245ffd5b6111fa82610c42565b810181811067ffffffffffffffff82111715611219576112186111c4565b5b80604052505050565b5f61122b61100c565b905061123782826111f1565b919050565b5f5ffd5b61124981610c8a565b8114611253575f5ffd5b50565b5f8135905061126481611240565b92915050565b5f5ffd5b5f5ffd5b5f67ffffffffffffffff82111561128c5761128b6111c4565b5b61129582610c42565b9050602081019050919050565b828183375f83830152505050565b5f6112c26112bd84611272565b611222565b9050828152602081018484840111156112de576112dd61126e565b5b6112e98482856112a2565b509392505050565b5f82601f8301126113055761130461126a565b5b81356113158482602086016112b0565b91505092915050565b61132781610ca2565b8114611331575f5ffd5b50565b5f813590506113428161131e565b92915050565b5f610220828403121561135e5761135d6111c0565b5b611369610220611222565b90505f61137884828501611256565b5f83015250602061138b84828501611256565b602083015250604082013567ffffffffffffffff8111156113af576113ae61123c565b5b6113bb848285016112f1565b604083015250606082013567ffffffffffffffff8111156113df576113de61123c565b5b6113eb848285016112f1565b60608301525060806113ff84828501611256565b60808301525060a061141384828501611256565b60a08301525060c082013567ffffffffffffffff8111156114375761143661123c565b5b611443848285016112f1565b60c08301525060e082013567ffffffffffffffff8111156114675761146661123c565b5b611473848285016112f1565b60e08301525061010082013567ffffffffffffffff8111156114985761149761123c565b5b6114a4848285016112f1565b6101008301525061012082013567ffffffffffffffff8111156114ca576114c961123c565b5b6114d6848285016112f1565b6101208301525061014082013567ffffffffffffffff8111156114fc576114fb61123c565b5b611508848285016112f1565b6101408301525061016061151e84828501611256565b6101608301525061018061153484828501611334565b610180830152506101a082013567ffffffffffffffff81111561155a5761155961123c565b5b611566848285016112f1565b6101a0830152506101c082013567ffffffffffffffff81111561158c5761158b61123c565b5b611598848285016112f1565b6101c0830152506101e082013567ffffffffffffffff8111156115be576115bd61123c565b5b6115ca848285016112f1565b6101e08301525061020082013567ffffffffffffffff8111156115f0576115ef61123c565b5b6115fc848285016112f1565b6102008301525092915050565b5f6116143683611348565b9050919050565b5f819050815f5260205f209050919050565b5f6020601f8301049050919050565b5f82821b905092915050565b5f600883026116777fffffffffffffffffffffffffffffffffffffffffffffffffffffffffffffffff8261163c565b611681868361163c565b95508019841693508086168417925050509392505050565b5f819050919050565b5f6116bc6116b76116b284610c8a565b611699565b610c8a565b9050919050565b5f819050919050565b6116d5836116a2565b6116e96116e1826116c3565b848454611648565b825550505050565b5f5f905090565b6117006116f1565b61170b8184846116cc565b505050565b5b8181101561172e576117235f826116f8565b600181019050611711565b5050565b601f821115611773576117448161161b565b61174d8461162d565b8101602085101561175c578190505b6117706117688561162d565b830182611710565b50505b505050565b5f82821c905092915050565b5f6117935f1984600802611778565b1980831691505092915050565b5f6117ab8383611784565b9150826002028217905092915050565b6117c482610c1a565b67ffffffffffffffff8111156117dd576117dc6111c4565b5b6117e782546110b4565b6117f2828285611732565b5f60209050601f831160018114611823575f8415611811578287015190505b61181b85826117a0565b865550611882565b601f1984166118318661161b565b5f5b8281101561185857848901518255600182019150602085019450602081019050611833565b868310156118755784890151611871601f891682611784565b8355505b6001600288020188555050505b505050505050565b5f82825260208201905092915050565b5f6118a5838561188a565b93506118b28385846112a2565b6118bb83610c42565b840190509392505050565b5f6080820190506118d95f83018a610f8c565b81810360208301526118ec81888a61189a565b9050818103604083015261190181868861189a565b9050818103606083015261191681848661189a565b90509897505050505050505056fea2646970667358221220889201115489d807c1b6241c70c8d09d4b5333d16d6da1b04a754009c954660964736f6c634300081e0033a26469706673582212203b550a8075afefb3af3dcff35df34ccef633349e0adf5da49c0ed76a095dc2ab64736f6c634300081e0033",
			"opcodes": "PUSH1 0x80 PUSH1 0x40 MSTORE CALLVALUE DUP1 ISZERO PUSH1 0xE JUMPI PUSH0 PUSH0 REVERT JUMPDEST POP PUSH2 0x3B98 DUP1 PUSH2 0x1C PUSH0 CODECOPY PUSH0 RETURN INVALID PUSH1 0x80 PUSH1 0x40 MSTORE CALLVALUE DUP1 ISZERO PUSH2 0xF JUMPI PUSH0 PUSH0 REVERT JUMPDEST POP PUSH1 0x4 CALLDATASIZE LT PUSH2 0x60 JUMPI PUSH0 CALLDATALOAD PUSH1 0xE0 SHR DUP1 PUSH4 0x256D106E EQ PUSH2 0x64 JUMPI DUP1 PUSH4 0x41356339 EQ PUSH2 0x94 JUMPI DUP1 PUSH4 0x5B3CB9D4 EQ PUSH2 0xC4 JUMPI DUP1 PUSH4 0x8235AAC3 EQ PUSH2 0xF4 JUMPI DUP1 PUSH4 0x8D412AD2 EQ PUSH2 0x110 JUMPI DUP1 PUSH4 0x93FAA992 EQ PUSH2 0x140 JUMPI JUMPDEST PUSH0 PUSH0 REVERT JUMPDEST PUSH2 0x7E PUSH1 0x4 DUP1 CALLDATASIZE SUB DUP2 ADD SWAP1 PUSH2 0x79 SWAP2 SWAP1 PUSH2 0xDA5 JUMP JUMPDEST PUSH2 0x170 JUMP JUMPDEST PUSH1 0x40 MLOAD PUSH2 0x8B SWAP2 SWAP1 PUSH2 0xE45 JUMP JUMPDEST PUSH1 0x40 MLOAD DUP1 SWAP2 SUB SWAP1 RETURN JUMPDEST PUSH2 0xAE PUSH1 0x4 DUP1 CALLDATASIZE SUB DUP2 ADD SWAP1 PUSH2 0xA9 SWAP2 SWAP1 PUSH2 0xDA5 JUMP JUMPDEST PUSH2 0x325 JUMP JUMPDEST PUSH1 0x40 MLOAD PUSH2 0xBB SWAP2 SWAP1 PUSH2 0x11C0 JUMP JUMPDEST PUSH1 0x40 MLOAD DUP1 SWAP2 SUB SWAP1 RETURN JUMPDEST PUSH2 0xDE PUSH1 0x4 DUP1 CALLDATASIZE SUB DUP2 ADD SWAP1 PUSH2 0xD9 SWAP2 SWAP1 PUSH2 0x1236 JUMP JUMPDEST PUSH2 0x470 JUMP JUMPDEST PUSH1 0x40 MLOAD PUSH2 0xEB SWAP2 SWAP1 PUSH2 0x12C5 JUMP JUMPDEST PUSH1 0x40 MLOAD DUP1 SWAP2 SUB SWAP1 RETURN JUMPDEST PUSH2 0x10E PUSH1 0x4 DUP1 CALLDATASIZE SUB DUP2 ADD SWAP1 PUSH2 0x109 SWAP2 SWAP1 PUSH2 0x15FB JUMP JUMPDEST PUSH2 0x4B7 JUMP JUMPDEST STOP JUMPDEST PUSH2 0x12A PUSH1 0x4 DUP1 CALLDATASIZE SUB DUP2 ADD SWAP1 PUSH2 0x125 SWAP2 SWAP1 PUSH2 0x1655 JUMP JUMPDEST PUSH2 0x787 JUMP JUMPDEST PUSH1 0x40 MLOAD PUSH2 0x137 SWAP2 SWAP1 PUSH2 0x16A2 JUMP JUMPDEST PUSH1 0x40 MLOAD DUP1 SWAP2 SUB SWAP1 RETURN JUMPDEST PUSH2 0x15A PUSH1 0x4 DUP1 CALLDATASIZE SUB DUP2 ADD SWAP1 PUSH2 0x155 SWAP2 SWAP1 PUSH2 0x16BB JUMP JUMPDEST PUSH2 0x7AA JUMP JUMPDEST PUSH1 0x40 MLOAD PUSH2 0x167 SWAP2 SWAP1 PUSH2 0x1775 JUMP JUMPDEST PUSH1 0x40 MLOAD DUP1 SWAP2 SUB SWAP1 RETURN JUMPDEST PUSH0 PUSH0 PUSH2 0x17B DUP5 PUSH2 0x7AA JUMP JUMPDEST SWAP1 POP PUSH0 DUP6 PUSH1 0x40 MLOAD PUSH1 0x20 ADD PUSH2 0x18F SWAP2 SWAP1 PUSH2 0x17C8 JUMP JUMPDEST PUSH1 0x40 MLOAD PUSH1 0x20 DUP2 DUP4 SUB SUB DUP2 MSTORE SWAP1 PUSH1 0x40 MSTORE DUP1 MLOAD SWAP1 PUSH1 0x20 ADD KECCAK256 SWAP1 POP PUSH0 PUSH2 0x1B2 DUP4 DUP7 PUSH2 0x787 JUMP JUMPDEST SWAP1 POP PUSH0 PUSH0 PUSH0 DUP5 DUP2 MSTORE PUSH1 0x20 ADD SWAP1 DUP2 MSTORE PUSH1 0x20 ADD PUSH0 KECCAK256 PUSH0 DUP6 PUSH1 0xF DUP2 GT ISZERO PUSH2 0x1D9 JUMPI PUSH2 0x1D8 PUSH2 0x1702 JUMP JUMPDEST JUMPDEST PUSH1 0xF DUP2 GT ISZERO PUSH2 0x1EB JUMPI PUSH2 0x1EA PUSH2 0x1702 JUMP JUMPDEST JUMPDEST DUP2 MSTORE PUSH1 0x20 ADD SWAP1 DUP2 MSTORE PUSH1 0x20 ADD PUSH0 KECCAK256 PUSH0 DUP4 PUSH8 0xFFFFFFFFFFFFFFFF AND PUSH8 0xFFFFFFFFFFFFFFFF AND DUP2 MSTORE PUSH1 0x20 ADD SWAP1 DUP2 MSTORE PUSH1 0x20 ADD PUSH0 KECCAK256 PUSH0 SWAP1 SLOAD SWAP1 PUSH2 0x100 EXP SWAP1 DIV PUSH20 0xFFFFFFFFFFFFFFFFFFFFFFFFFFFFFFFFFFFFFFFF AND SWAP1 POP PUSH0 PUSH20 0xFFFFFFFFFFFFFFFFFFFFFFFFFFFFFFFFFFFFFFFF AND DUP2 PUSH20 0xFFFFFFFFFFFFFFFFFFFFFFFFFFFFFFFFFFFFFFFF AND SUB PUSH2 0x2AB JUMPI PUSH1 0x40 MLOAD PUSH32 0x8C379A000000000000000000000000000000000000000000000000000000000 DUP2 MSTORE PUSH1 0x4 ADD PUSH2 0x2A2 SWAP1 PUSH2 0x1838 JUMP JUMPDEST PUSH1 0x40 MLOAD DUP1 SWAP2 SUB SWAP1 REVERT JUMPDEST DUP1 PUSH20 0xFFFFFFFFFFFFFFFFFFFFFFFFFFFFFFFFFFFFFFFF AND PUSH4 0xBE1C766B PUSH1 0x40 MLOAD DUP2 PUSH4 0xFFFFFFFF AND PUSH1 0xE0 SHL DUP2 MSTORE PUSH1 0x4 ADD PUSH1 0x20 PUSH1 0x40 MLOAD DUP1 DUP4 SUB DUP2 DUP7 GAS STATICCALL ISZERO DUP1 ISZERO PUSH2 0x2F4 JUMPI RETURNDATASIZE PUSH0 PUSH0 RETURNDATACOPY RETURNDATASIZE PUSH0 REVERT JUMPDEST POP POP POP POP PUSH1 0x40 MLOAD RETURNDATASIZE PUSH1 0x1F NOT PUSH1 0x1F DUP3 ADD AND DUP3 ADD DUP1 PUSH1 0x40 MSTORE POP DUP2 ADD SWAP1 PUSH2 0x318 SWAP2 SWAP1 PUSH2 0x186A JUMP JUMPDEST SWAP5 POP POP POP POP POP SWAP4 SWAP3 POP POP POP JUMP JUMPDEST PUSH1 0x60 PUSH0 PUSH2 0x331 DUP5 PUSH2 0x7AA JUMP JUMPDEST SWAP1 POP PUSH0 DUP6 PUSH1 0x40 MLOAD PUSH1 0x20 ADD PUSH2 0x345 SWAP2 SWAP1 PUSH2 0x17C8 JUMP JUMPDEST PUSH1 0x40 MLOAD PUSH1 0x20 DUP2 DUP4 SUB SUB DUP2 MSTORE SWAP1 PUSH1 0x40 MSTORE DUP1 MLOAD SWAP1 PUSH1 0x20 ADD KECCAK256 SWAP1 POP PUSH0 PUSH2 0x368 DUP4 DUP7 PUSH2 0x787 JUMP JUMPDEST SWAP1 POP PUSH0 PUSH0 PUSH0 DUP5 DUP2 MSTORE PUSH1 0x20 ADD SWAP1 DUP2 MSTORE PUSH1 0x20 ADD PUSH0 KECCAK256 PUSH0 DUP6 PUSH1 0xF DUP2 GT ISZERO PUSH2 0x38F JUMPI PUSH2 0x38E PUSH2 0x1702 JUMP JUMPDEST JUMPDEST PUSH1 0xF DUP2 GT ISZERO PUSH2 0x3A1 JUMPI PUSH2 0x3A0 PUSH2 0x1702 JUMP JUMPDEST JUMPDEST DUP2 MSTORE PUSH1 0x20 ADD SWAP1 DUP2 MSTORE PUSH1 0x20 ADD PUSH0 KECCAK256 PUSH0 DUP4 PUSH8 0xFFFFFFFFFFFFFFFF AND PUSH8 0xFFFFFFFFFFFFFFFF AND DUP2 MSTORE PUSH1 0x20 ADD SWAP1 DUP2 MSTORE PUSH1 0x20 ADD PUSH0 KECCAK256 PUSH0 SWAP1 SLOAD SWAP1 PUSH2 0x100 EXP SWAP1 DIV PUSH20 0xFFFFFFFFFFFFFFFFFFFFFFFFFFFFFFFFFFFFFFFF AND SWAP1 POP DUP1 PUSH20 0xFFFFFFFFFFFFFFFFFFFFFFFFFFFFFFFFFFFFFFFF AND PUSH4 0x48CBAD6E PUSH1 0x40 MLOAD DUP2 PUSH4 0xFFFFFFFF AND PUSH1 0xE0 SHL DUP2 MSTORE PUSH1 0x4 ADD PUSH0 PUSH1 0x40 MLOAD DUP1 DUP4 SUB DUP2 DUP7 GAS STATICCALL ISZERO DUP1 ISZERO PUSH2 0x43B JUMPI RETURNDATASIZE PUSH0 PUSH0 RETURNDATACOPY RETURNDATASIZE PUSH0 REVERT JUMPDEST POP POP POP POP PUSH1 0x40 MLOAD RETURNDATASIZE PUSH0 DUP3 RETURNDATACOPY RETURNDATASIZE PUSH1 0x1F NOT PUSH1 0x1F DUP3 ADD AND DUP3 ADD DUP1 PUSH1 0x40 MSTORE POP DUP2 ADD SWAP1 PUSH2 0x463 SWAP2 SWAP1 PUSH2 0x1D83 JUMP JUMPDEST SWAP5 POP POP POP POP POP SWAP4 SWAP3 POP POP POP JUMP JUMPDEST PUSH0 PUSH1 0x20 MSTORE DUP3 PUSH0 MSTORE PUSH1 0x40 PUSH0 KECCAK256 PUSH1 0x20 MSTORE DUP2 PUSH0 MSTORE PUSH1 0x40 PUSH0 KECCAK256 PUSH1 0x20 MSTORE DUP1 PUSH0 MSTORE PUSH1 0x40 PUSH0 KECCAK256 PUSH0 SWAP3 POP SWAP3 POP POP SWAP1 SLOAD SWAP1 PUSH2 0x100 EXP SWAP1 DIV PUSH20 0xFFFFFFFFFFFFFFFFFFFFFFFFFFFFFFFFFFFFFFFF AND DUP2 JUMP JUMPDEST PUSH0 PUSH2 0x4C5 DUP4 PUSH1 0x60 ADD MLOAD PUSH2 0x7AA JUMP JUMPDEST SWAP1 POP PUSH0 DUP4 PUSH1 0x40 ADD MLOAD PUSH1 0x40 MLOAD PUSH1 0x20 ADD PUSH2 0x4DD SWAP2 SWAP1 PUSH2 0x17C8 JUMP JUMPDEST PUSH1 0x40 MLOAD PUSH1 0x20 DUP2 DUP4 SUB SUB DUP2 MSTORE SWAP1 PUSH1 0x40 MSTORE DUP1 MLOAD SWAP1 PUSH1 0x20 ADD KECCAK256 SWAP1 POP PUSH0 PUSH2 0x500 DUP4 DUP6 PUSH2 0x787 JUMP JUMPDEST SWAP1 POP PUSH0 PUSH0 PUSH0 DUP5 DUP2 MSTORE PUSH1 0x20 ADD SWAP1 DUP2 MSTORE PUSH1 0x20 ADD PUSH0 KECCAK256 PUSH0 DUP6 PUSH1 0xF DUP2 GT ISZERO PUSH2 0x527 JUMPI PUSH2 0x526 PUSH2 0x1702 JUMP JUMPDEST JUMPDEST PUSH1 0xF DUP2 GT ISZERO PUSH2 0x539 JUMPI PUSH2 0x538 PUSH2 0x1702 JUMP JUMPDEST JUMPDEST DUP2 MSTORE PUSH1 0x20 ADD SWAP1 DUP2 MSTORE PUSH1 0x20 ADD PUSH0 KECCAK256 PUSH0 DUP4 PUSH8 0xFFFFFFFFFFFFFFFF AND PUSH8 0xFFFFFFFFFFFFFFFF AND DUP2 MSTORE PUSH1 0x20 ADD SWAP1 DUP2 MSTORE PUSH1 0x20 ADD PUSH0 KECCAK256 PUSH0 SWAP1 SLOAD SWAP1 PUSH2 0x100 EXP SWAP1 DIV PUSH20 0xFFFFFFFFFFFFFFFFFFFFFFFFFFFFFFFFFFFFFFFF AND SWAP1 POP PUSH0 PUSH20 0xFFFFFFFFFFFFFFFFFFFFFFFFFFFFFFFFFFFFFFFF AND DUP2 PUSH20 0xFFFFFFFFFFFFFFFFFFFFFFFFFFFFFFFFFFFFFFFF AND SUB PUSH2 0x719 JUMPI PUSH2 0x607 PUSH1 0x40 MLOAD DUP1 PUSH1 0x40 ADD PUSH1 0x40 MSTORE DUP1 PUSH1 0x15 DUP2 MSTORE PUSH1 0x20 ADD PUSH32 0x4372656174696E67206E65772073686172642061740000000000000000000000 DUP2 MSTORE POP DUP4 PUSH8 0xFFFFFFFFFFFFFFFF AND PUSH2 0xB24 JUMP JUMPDEST PUSH1 0x40 MLOAD PUSH2 0x613 SWAP1 PUSH2 0xC04 JUMP JUMPDEST PUSH1 0x40 MLOAD DUP1 SWAP2 SUB SWAP1 PUSH0 CREATE DUP1 ISZERO DUP1 ISZERO PUSH2 0x62C JUMPI RETURNDATASIZE PUSH0 PUSH0 RETURNDATACOPY RETURNDATASIZE PUSH0 REVERT JUMPDEST POP SWAP1 POP DUP1 PUSH0 PUSH0 DUP6 DUP2 MSTORE PUSH1 0x20 ADD SWAP1 DUP2 MSTORE PUSH1 0x20 ADD PUSH0 KECCAK256 PUSH0 DUP7 PUSH1 0xF DUP2 GT ISZERO PUSH2 0x654 JUMPI PUSH2 0x653 PUSH2 0x1702 JUMP JUMPDEST JUMPDEST PUSH1 0xF DUP2 GT ISZERO PUSH2 0x666 JUMPI PUSH2 0x665 PUSH2 0x1702 JUMP JUMPDEST JUMPDEST DUP2 MSTORE PUSH1 0x20 ADD SWAP1 DUP2 MSTORE PUSH1 0x20 ADD PUSH0 KECCAK256 PUSH0 DUP5 PUSH8 0xFFFFFFFFFFFFFFFF AND PUSH8 0xFFFFFFFFFFFFFFFF AND DUP2 MSTORE PUSH1 0x20 ADD SWAP1 DUP2 MSTORE PUSH1 0x20 ADD PUSH0 KECCAK256 PUSH0 PUSH2 0x100 EXP DUP2 SLOAD DUP2 PUSH20 0xFFFFFFFFFFFFFFFFFFFFFFFFFFFFFFFFFFFFFFFF MUL NOT AND SWAP1 DUP4 PUSH20 0xFFFFFFFFFFFFFFFFFFFFFFFFFFFFFFFFFFFFFFFF AND MUL OR SWAP1 SSTORE POP PUSH32 0x2A9E82BE7BC20784DCC707F4814CA404AC4A94DB66450718F7733B160FB62D86 DUP7 PUSH1 0x40 ADD MLOAD DUP8 PUSH1 0x60 ADD MLOAD DUP5 DUP5 PUSH1 0x40 MLOAD PUSH2 0x710 SWAP5 SWAP4 SWAP3 SWAP2 SWAP1 PUSH2 0x1E02 JUMP JUMPDEST PUSH1 0x40 MLOAD DUP1 SWAP2 SUB SWAP1 LOG1 JUMPDEST DUP1 PUSH20 0xFFFFFFFFFFFFFFFFFFFFFFFFFFFFFFFFFFFFFFFF AND PUSH4 0xF2523A9D DUP8 PUSH1 0x40 MLOAD DUP3 PUSH4 0xFFFFFFFF AND PUSH1 0xE0 SHL DUP2 MSTORE PUSH1 0x4 ADD PUSH2 0x752 SWAP2 SWAP1 PUSH2 0x2003 JUMP JUMPDEST PUSH0 PUSH1 0x40 MLOAD DUP1 DUP4 SUB DUP2 PUSH0 DUP8 DUP1 EXTCODESIZE ISZERO DUP1 ISZERO PUSH2 0x769 JUMPI PUSH0 PUSH0 REVERT JUMPDEST POP GAS CALL ISZERO DUP1 ISZERO PUSH2 0x77B JUMPI RETURNDATASIZE PUSH0 PUSH0 RETURNDATACOPY RETURNDATASIZE PUSH0 REVERT JUMPDEST POP POP POP POP POP POP POP POP POP POP JUMP JUMPDEST PUSH0 PUSH3 0x36EE80 DUP1 DUP4 PUSH2 0x798 SWAP2 SWAP1 PUSH2 0x207D JUMP JUMPDEST PUSH2 0x7A2 SWAP2 SWAP1 PUSH2 0x20AD JUMP JUMPDEST SWAP1 POP SWAP3 SWAP2 POP POP JUMP JUMPDEST PUSH0 PUSH0 DUP3 PUSH1 0x40 MLOAD PUSH1 0x20 ADD PUSH2 0x7BD SWAP2 SWAP1 PUSH2 0x17C8 JUMP JUMPDEST PUSH1 0x40 MLOAD PUSH1 0x20 DUP2 DUP4 SUB SUB DUP2 MSTORE SWAP1 PUSH1 0x40 MSTORE DUP1 MLOAD SWAP1 PUSH1 0x20 ADD KECCAK256 SWAP1 POP PUSH32 0x6C9308EEEB72AAC61C6EE2086645EC6CF6638D86D97AF7B81BCF4073F3B95DBC DUP2 SUB PUSH2 0x805 JUMPI PUSH0 SWAP2 POP POP PUSH2 0xB1F JUMP JUMPDEST PUSH32 0x523A5C8A0F83A86997A616B324AE897D2FB6B3F5F68B3969331C12E0F00F9F25 DUP2 SUB PUSH2 0x836 JUMPI PUSH1 0x1 SWAP2 POP POP PUSH2 0xB1F JUMP JUMPDEST PUSH32 0x2A3FF2DFA7BD33B0E77D014065236A2F104B389B776645FDDB9E6A09EEA01441 DUP2 SUB PUSH2 0x867 JUMPI PUSH1 0x2 SWAP2 POP POP PUSH2 0xB1F JUMP JUMPDEST PUSH32 0xFCA740C51A7536A1FF8F65314E26B24CEE265D7626AD2E39318898F3D501AC22 DUP2 SUB PUSH2 0x898 JUMPI PUSH1 0x3 SWAP2 POP POP PUSH2 0xB1F JUMP JUMPDEST PUSH32 0x53CAD56A766A794BDC4FD49B262CD08FADF5C823F208FBF3F4EFB377C206EAAA DUP2 SUB PUSH2 0x8C9 JUMPI PUSH1 0x4 SWAP2 POP POP PUSH2 0xB1F JUMP JUMPDEST PUSH32 0xE99007FD2E286840683BFBAC2C1EA22A3B3C1592D603A9AE9AEE29CF77E941A7 DUP2 SUB PUSH2 0x8FA JUMPI PUSH1 0x5 SWAP2 POP POP PUSH2 0xB1F JUMP JUMPDEST PUSH32 0x1125479F824FC31D0CE674B130E57A9DCFDF2D344CA1EF3FC8BF5BD50F9FCCA9 DUP2 SUB PUSH2 0x92B JUMPI PUSH1 0x6 SWAP2 POP POP PUSH2 0xB1F JUMP JUMPDEST PUSH32 0xA50F424F123435E4689C6436CE338980297CA65F2EE6B69A216F0561EE6CF400 DUP2 SUB PUSH2 0x95C JUMPI PUSH1 0x7 SWAP2 POP POP PUSH2 0xB1F JUMP JUMPDEST PUSH32 0x9A433CC5A6AEE766B1BCE0A7DC72AB7B4FD031108E0C5AFEA91382F1B1955FC9 DUP2 SUB PUSH2 0x98D JUMPI PUSH1 0x8 SWAP2 POP POP PUSH2 0xB1F JUMP JUMPDEST PUSH32 0xA0B83CFA5501E126AC29F6BF7A07BD17E2D97916947EED361748E8E0AB0ABA4D DUP2 SUB PUSH2 0x9BE JUMPI PUSH1 0x9 SWAP2 POP POP PUSH2 0xB1F JUMP JUMPDEST PUSH32 0xE21CCD2715134877C589435A9C98DEB14540FDF9E902AFEBF2163FE393E9C073 DUP2 SUB PUSH2 0x9EF JUMPI PUSH1 0xA SWAP2 POP POP PUSH2 0xB1F JUMP JUMPDEST PUSH32 0x11108661A127316F8F74DC39A66520C8EC16719ED867EE768AF67729BA3EC1D2 DUP2 SUB PUSH2 0xA20 JUMPI PUSH1 0xB SWAP2 POP POP PUSH2 0xB1F JUMP JUMPDEST PUSH32 0x7B2E5637DE8D5670BD5BE523FBCCC1DFEF88F0767EB2ABF5AC4A81DA61AE2002 DUP2 SUB PUSH2 0xA51 JUMPI PUSH1 0xC SWAP2 POP POP PUSH2 0xB1F JUMP JUMPDEST PUSH32 0x1CEF0646E7FE7CB478D3A93D2E07774697C9239D0EE8B4294B768C91AF329E66 DUP2 SUB PUSH2 0xA82 JUMPI PUSH1 0xD SWAP2 POP POP PUSH2 0xB1F JUMP JUMPDEST PUSH32 0x7CD5BA658B5DFF64585BFCB0DF7983749825E2292A4FF6DAF96207E6EB100FE7 DUP2 SUB PUSH2 0xAB3 JUMPI PUSH1 0xE SWAP2 POP POP PUSH2 0xB1F JUMP JUMPDEST PUSH32 0xA390D73D5FD5E6A577D394328E26CE85589C6D8C382FBA9150FB136BBBF31FF7 DUP2 SUB PUSH2 0xAE4 JUMPI PUSH1 0xF SWAP2 POP POP PUSH2 0xB1F JUMP JUMPDEST PUSH1 0x40 MLOAD PUSH32 0x8C379A000000000000000000000000000000000000000000000000000000000 DUP2 MSTORE PUSH1 0x4 ADD PUSH2 0xB16 SWAP1 PUSH2 0x2133 JUMP JUMPDEST PUSH1 0x40 MLOAD DUP1 SWAP2 SUB SWAP1 REVERT JUMPDEST SWAP2 SWAP1 POP JUMP JUMPDEST PUSH2 0xBBC DUP3 DUP3 PUSH1 0x40 MLOAD PUSH1 0x24 ADD PUSH2 0xB3A SWAP3 SWAP2 SWAP1 PUSH2 0x2151 JUMP JUMPDEST PUSH1 0x40 MLOAD PUSH1 0x20 DUP2 DUP4 SUB SUB DUP2 MSTORE SWAP1 PUSH1 0x40 MSTORE PUSH32 0xB60E72CC00000000000000000000000000000000000000000000000000000000 PUSH28 0xFFFFFFFFFFFFFFFFFFFFFFFFFFFFFFFFFFFFFFFFFFFFFFFFFFFFFFFF NOT AND PUSH1 0x20 DUP3 ADD DUP1 MLOAD PUSH28 0xFFFFFFFFFFFFFFFFFFFFFFFFFFFFFFFFFFFFFFFFFFFFFFFFFFFFFFFF DUP4 DUP2 DUP4 AND OR DUP4 MSTORE POP POP POP POP PUSH2 0xBC0 JUMP JUMPDEST POP POP JUMP JUMPDEST PUSH2 0xBD7 DUP2 PUSH2 0xBCF PUSH2 0xBDA PUSH2 0xBF9 JUMP JUMPDEST PUSH4 0xFFFFFFFF AND JUMP JUMPDEST POP JUMP JUMPDEST PUSH0 PUSH11 0x636F6E736F6C652E6C6F67 SWAP1 POP PUSH0 PUSH0 DUP4 MLOAD PUSH1 0x20 DUP6 ADD DUP5 GAS STATICCALL POP POP POP JUMP JUMPDEST PUSH2 0xC11 DUP2 SWAP1 POP SWAP2 SWAP1 POP JUMP JUMPDEST PUSH2 0x19B6 DUP1 PUSH2 0x21AD DUP4 CODECOPY ADD SWAP1 JUMP JUMPDEST PUSH2 0xC19 PUSH2 0x217F JUMP JUMPDEST JUMP JUMPDEST PUSH0 PUSH1 0x40 MLOAD SWAP1 POP SWAP1 JUMP JUMPDEST PUSH0 PUSH0 REVERT JUMPDEST PUSH0 PUSH0 REVERT JUMPDEST PUSH0 PUSH0 REVERT JUMPDEST PUSH0 PUSH0 REVERT JUMPDEST PUSH0 PUSH1 0x1F NOT PUSH1 0x1F DUP4 ADD AND SWAP1 POP SWAP2 SWAP1 POP JUMP JUMPDEST PUSH32 0x4E487B7100000000000000000000000000000000000000000000000000000000 PUSH0 MSTORE PUSH1 0x41 PUSH1 0x4 MSTORE PUSH1 0x24 PUSH0 REVERT JUMPDEST PUSH2 0xC7A DUP3 PUSH2 0xC34 JUMP JUMPDEST DUP2 ADD DUP2 DUP2 LT PUSH8 0xFFFFFFFFFFFFFFFF DUP3 GT OR ISZERO PUSH2 0xC99 JUMPI PUSH2 0xC98 PUSH2 0xC44 JUMP JUMPDEST JUMPDEST DUP1 PUSH1 0x40 MSTORE POP POP POP JUMP JUMPDEST PUSH0 PUSH2 0xCAB PUSH2 0xC1B JUMP JUMPDEST SWAP1 POP PUSH2 0xCB7 DUP3 DUP3 PUSH2 0xC71 JUMP JUMPDEST SWAP2 SWAP1 POP JUMP JUMPDEST PUSH0 PUSH8 0xFFFFFFFFFFFFFFFF DUP3 GT ISZERO PUSH2 0xCD6 JUMPI PUSH2 0xCD5 PUSH2 0xC44 JUMP JUMPDEST JUMPDEST PUSH2 0xCDF DUP3 PUSH2 0xC34 JUMP JUMPDEST SWAP1 POP PUSH1 0x20 DUP2 ADD SWAP1 POP SWAP2 SWAP1 POP JUMP JUMPDEST DUP3 DUP2 DUP4 CALLDATACOPY PUSH0 DUP4 DUP4 ADD MSTORE POP POP POP JUMP JUMPDEST PUSH0 PUSH2 0xD0C PUSH2 0xD07 DUP5 PUSH2 0xCBC JUMP JUMPDEST PUSH2 0xCA2 JUMP JUMPDEST SWAP1 POP DUP3 DUP2 MSTORE PUSH1 0x20 DUP2 ADD DUP5 DUP5 DUP5 ADD GT ISZERO PUSH2 0xD28 JUMPI PUSH2 0xD27 PUSH2 0xC30 JUMP JUMPDEST JUMPDEST PUSH2 0xD33 DUP5 DUP3 DUP6 PUSH2 0xCEC JUMP JUMPDEST POP SWAP4 SWAP3 POP POP POP JUMP JUMPDEST PUSH0 DUP3 PUSH1 0x1F DUP4 ADD SLT PUSH2 0xD4F JUMPI PUSH2 0xD4E PUSH2 0xC2C JUMP JUMPDEST JUMPDEST DUP2 CALLDATALOAD PUSH2 0xD5F DUP5 DUP3 PUSH1 0x20 DUP7 ADD PUSH2 0xCFA JUMP JUMPDEST SWAP2 POP POP SWAP3 SWAP2 POP POP JUMP JUMPDEST PUSH0 PUSH8 0xFFFFFFFFFFFFFFFF DUP3 AND SWAP1 POP SWAP2 SWAP1 POP JUMP JUMPDEST PUSH2 0xD84 DUP2 PUSH2 0xD68 JUMP JUMPDEST DUP2 EQ PUSH2 0xD8E JUMPI PUSH0 PUSH0 REVERT JUMPDEST POP JUMP JUMPDEST PUSH0 DUP2 CALLDATALOAD SWAP1 POP PUSH2 0xD9F DUP2 PUSH2 0xD7B JUMP JUMPDEST SWAP3 SWAP2 POP POP JUMP JUMPDEST PUSH0 PUSH0 PUSH0 PUSH1 0x60 DUP5 DUP7 SUB SLT ISZERO PUSH2 0xDBC JUMPI PUSH2 0xDBB PUSH2 0xC24 JUMP JUMPDEST JUMPDEST PUSH0 DUP5 ADD CALLDATALOAD PUSH8 0xFFFFFFFFFFFFFFFF DUP2 GT ISZERO PUSH2 0xDD9 JUMPI PUSH2 0xDD8 PUSH2 0xC28 JUMP JUMPDEST JUMPDEST PUSH2 0xDE5 DUP7 DUP3 DUP8 ADD PUSH2 0xD3B JUMP JUMPDEST SWAP4 POP POP PUSH1 0x20 DUP5 ADD CALLDATALOAD PUSH8 0xFFFFFFFFFFFFFFFF DUP2 GT ISZERO PUSH2 0xE06 JUMPI PUSH2 0xE05 PUSH2 0xC28 JUMP JUMPDEST JUMPDEST PUSH2 0xE12 DUP7 DUP3 DUP8 ADD PUSH2 0xD3B JUMP JUMPDEST SWAP3 POP POP PUSH1 0x40 PUSH2 0xE23 DUP7 DUP3 DUP8 ADD PUSH2 0xD91 JUMP JUMPDEST SWAP2 POP POP SWAP3 POP SWAP3 POP SWAP3 JUMP JUMPDEST PUSH0 DUP2 SWAP1 POP SWAP2 SWAP1 POP JUMP JUMPDEST PUSH2 0xE3F DUP2 PUSH2 0xE2D JUMP JUMPDEST DUP3 MSTORE POP POP JUMP JUMPDEST PUSH0 PUSH1 0x20 DUP3 ADD SWAP1 POP PUSH2 0xE58 PUSH0 DUP4 ADD DUP5 PUSH2 0xE36 JUMP JUMPDEST SWAP3 SWAP2 POP POP JUMP JUMPDEST PUSH0 DUP2 MLOAD SWAP1 POP SWAP2 SWAP1 POP JUMP JUMPDEST PUSH0 DUP3 DUP3 MSTORE PUSH1 0x20 DUP3 ADD SWAP1 POP SWAP3 SWAP2 POP POP JUMP JUMPDEST PUSH0 DUP2 SWAP1 POP PUSH1 0x20 DUP3 ADD SWAP1 POP SWAP2 SWAP1 POP JUMP JUMPDEST PUSH0 DUP2 MLOAD SWAP1 POP SWAP2 SWAP1 POP JUMP JUMPDEST PUSH0 DUP3 DUP3 MSTORE PUSH1 0x20 DUP3 ADD SWAP1 POP SWAP3 SWAP2 POP POP JUMP JUMPDEST DUP3 DUP2 DUP4 MCOPY PUSH0 DUP4 DUP4 ADD MSTORE POP POP POP JUMP JUMPDEST PUSH0 PUSH2 0xEB9 DUP3 PUSH2 0xE87 JUMP JUMPDEST PUSH2 0xEC3 DUP2 DUP6 PUSH2 0xE91 JUMP JUMPDEST SWAP4 POP PUSH2 0xED3 DUP2 DUP6 PUSH1 0x20 DUP7 ADD PUSH2 0xEA1 JUMP JUMPDEST PUSH2 0xEDC DUP2 PUSH2 0xC34 JUMP JUMPDEST DUP5 ADD SWAP2 POP POP SWAP3 SWAP2 POP POP JUMP JUMPDEST PUSH2 0xEF0 DUP2 PUSH2 0xE2D JUMP JUMPDEST DUP3 MSTORE POP POP JUMP JUMPDEST PUSH0 DUP2 ISZERO ISZERO SWAP1 POP SWAP2 SWAP1 POP JUMP JUMPDEST PUSH2 0xF0A DUP2 PUSH2 0xEF6 JUMP JUMPDEST DUP3 MSTORE POP POP JUMP JUMPDEST PUSH0 PUSH2 0x220 DUP4 ADD PUSH0 DUP4 ADD MLOAD PUSH2 0xF26 PUSH0 DUP7 ADD DUP3 PUSH2 0xEE7 JUMP JUMPDEST POP PUSH1 0x20 DUP4 ADD MLOAD PUSH2 0xF39 PUSH1 0x20 DUP7 ADD DUP3 PUSH2 0xEE7 JUMP JUMPDEST POP PUSH1 0x40 DUP4 ADD MLOAD DUP5 DUP3 SUB PUSH1 0x40 DUP7 ADD MSTORE PUSH2 0xF51 DUP3 DUP3 PUSH2 0xEAF JUMP JUMPDEST SWAP2 POP POP PUSH1 0x60 DUP4 ADD MLOAD DUP5 DUP3 SUB PUSH1 0x60 DUP7 ADD MSTORE PUSH2 0xF6B DUP3 DUP3 PUSH2 0xEAF JUMP JUMPDEST SWAP2 POP POP PUSH1 0x80 DUP4 ADD MLOAD PUSH2 0xF80 PUSH1 0x80 DUP7 ADD DUP3 PUSH2 0xEE7 JUMP JUMPDEST POP PUSH1 0xA0 DUP4 ADD MLOAD PUSH2 0xF93 PUSH1 0xA0 DUP7 ADD DUP3 PUSH2 0xEE7 JUMP JUMPDEST POP PUSH1 0xC0 DUP4 ADD MLOAD DUP5 DUP3 SUB PUSH1 0xC0 DUP7 ADD MSTORE PUSH2 0xFAB DUP3 DUP3 PUSH2 0xEAF JUMP JUMPDEST SWAP2 POP POP PUSH1 0xE0 DUP4 ADD MLOAD DUP5 DUP3 SUB PUSH1 0xE0 DUP7 ADD MSTORE PUSH2 0xFC5 DUP3 DUP3 PUSH2 0xEAF JUMP JUMPDEST SWAP2 POP POP PUSH2 0x100 DUP4 ADD MLOAD DUP5 DUP3 SUB PUSH2 0x100 DUP7 ADD MSTORE PUSH2 0xFE1 DUP3 DUP3 PUSH2 0xEAF JUMP JUMPDEST SWAP2 POP POP PUSH2 0x120 DUP4 ADD MLOAD DUP5 DUP3 SUB PUSH2 0x120 DUP7 ADD MSTORE PUSH2 0xFFD DUP3 DUP3 PUSH2 0xEAF JUMP JUMPDEST SWAP2 POP POP PUSH2 0x140 DUP4 ADD MLOAD DUP5 DUP3 SUB PUSH2 0x140 DUP7 ADD MSTORE PUSH2 0x1019 DUP3 DUP3 PUSH2 0xEAF JUMP JUMPDEST SWAP2 POP POP PUSH2 0x160 DUP4 ADD MLOAD PUSH2 0x1030 PUSH2 0x160 DUP7 ADD DUP3 PUSH2 0xEE7 JUMP JUMPDEST POP PUSH2 0x180 DUP4 ADD MLOAD PUSH2 0x1045 PUSH2 0x180 DUP7 ADD DUP3 PUSH2 0xF01 JUMP JUMPDEST POP PUSH2 0x1A0 DUP4 ADD MLOAD DUP5 DUP3 SUB PUSH2 0x1A0 DUP7 ADD MSTORE PUSH2 0x105F DUP3 DUP3 PUSH2 0xEAF JUMP JUMPDEST SWAP2 POP POP PUSH2 0x1C0 DUP4 ADD MLOAD DUP5 DUP3 SUB PUSH2 0x1C0 DUP7 ADD MSTORE PUSH2 0x107B DUP3 DUP3 PUSH2 0xEAF JUMP JUMPDEST SWAP2 POP POP PUSH2 0x1E0 DUP4 ADD MLOAD DUP5 DUP3 SUB PUSH2 0x1E0 DUP7 ADD MSTORE PUSH2 0x1097 DUP3 DUP3 PUSH2 0xEAF JUMP JUMPDEST SWAP2 POP POP PUSH2 0x200 DUP4 ADD MLOAD DUP5 DUP3 SUB PUSH2 0x200 DUP7 ADD MSTORE PUSH2 0x10B3 DUP3 DUP3 PUSH2 0xEAF JUMP JUMPDEST SWAP2 POP POP DUP1 SWAP2 POP POP SWAP3 SWAP2 POP POP JUMP JUMPDEST PUSH0 PUSH1 0x80 DUP4 ADD PUSH0 DUP4 ADD MLOAD DUP5 DUP3 SUB PUSH0 DUP7 ADD MSTORE PUSH2 0x10DA DUP3 DUP3 PUSH2 0xEAF JUMP JUMPDEST SWAP2 POP POP PUSH1 0x20 DUP4 ADD MLOAD PUSH2 0x10EF PUSH1 0x20 DUP7 ADD DUP3 PUSH2 0xEE7 JUMP JUMPDEST POP PUSH1 0x40 DUP4 ADD MLOAD DUP5 DUP3 SUB PUSH1 0x40 DUP7 ADD MSTORE PUSH2 0x1107 DUP3 DUP3 PUSH2 0xEAF JUMP JUMPDEST SWAP2 POP POP PUSH1 0x60 DUP4 ADD MLOAD DUP5 DUP3 SUB PUSH1 0x60 DUP7 ADD MSTORE PUSH2 0x1121 DUP3 DUP3 PUSH2 0xF10 JUMP JUMPDEST SWAP2 POP POP DUP1 SWAP2 POP POP SWAP3 SWAP2 POP POP JUMP JUMPDEST PUSH0 PUSH2 0x1139 DUP4 DUP4 PUSH2 0x10C0 JUMP JUMPDEST SWAP1 POP SWAP3 SWAP2 POP POP JUMP JUMPDEST PUSH0 PUSH1 0x20 DUP3 ADD SWAP1 POP SWAP2 SWAP1 POP JUMP JUMPDEST PUSH0 PUSH2 0x1157 DUP3 PUSH2 0xE5E JUMP JUMPDEST PUSH2 0x1161 DUP2 DUP6 PUSH2 0xE68 JUMP JUMPDEST SWAP4 POP DUP4 PUSH1 0x20 DUP3 MUL DUP6 ADD PUSH2 0x1173 DUP6 PUSH2 0xE78 JUMP JUMPDEST DUP1 PUSH0 JUMPDEST DUP6 DUP2 LT ISZERO PUSH2 0x11AE JUMPI DUP5 DUP5 SUB DUP10 MSTORE DUP2 MLOAD PUSH2 0x118F DUP6 DUP3 PUSH2 0x112E JUMP JUMPDEST SWAP5 POP PUSH2 0x119A DUP4 PUSH2 0x1141 JUMP JUMPDEST SWAP3 POP PUSH1 0x20 DUP11 ADD SWAP10 POP POP PUSH1 0x1 DUP2 ADD SWAP1 POP PUSH2 0x1176 JUMP JUMPDEST POP DUP3 SWAP8 POP DUP8 SWAP6 POP POP POP POP POP POP SWAP3 SWAP2 POP POP JUMP JUMPDEST PUSH0 PUSH1 0x20 DUP3 ADD SWAP1 POP DUP2 DUP2 SUB PUSH0 DUP4 ADD MSTORE PUSH2 0x11D8 DUP2 DUP5 PUSH2 0x114D JUMP JUMPDEST SWAP1 POP SWAP3 SWAP2 POP POP JUMP JUMPDEST PUSH0 DUP2 SWAP1 POP SWAP2 SWAP1 POP JUMP JUMPDEST PUSH2 0x11F2 DUP2 PUSH2 0x11E0 JUMP JUMPDEST DUP2 EQ PUSH2 0x11FC JUMPI PUSH0 PUSH0 REVERT JUMPDEST POP JUMP JUMPDEST PUSH0 DUP2 CALLDATALOAD SWAP1 POP PUSH2 0x120D DUP2 PUSH2 0x11E9 JUMP JUMPDEST SWAP3 SWAP2 POP POP JUMP JUMPDEST PUSH1 0x10 DUP2 LT PUSH2 0x121F JUMPI PUSH0 PUSH0 REVERT JUMPDEST POP JUMP JUMPDEST PUSH0 DUP2 CALLDATALOAD SWAP1 POP PUSH2 0x1230 DUP2 PUSH2 0x1213 JUMP JUMPDEST SWAP3 SWAP2 POP POP JUMP JUMPDEST PUSH0 PUSH0 PUSH0 PUSH1 0x60 DUP5 DUP7 SUB SLT ISZERO PUSH2 0x124D JUMPI PUSH2 0x124C PUSH2 0xC24 JUMP JUMPDEST JUMPDEST PUSH0 PUSH2 0x125A DUP7 DUP3 DUP8 ADD PUSH2 0x11FF JUMP JUMPDEST SWAP4 POP POP PUSH1 0x20 PUSH2 0x126B DUP7 DUP3 DUP8 ADD PUSH2 0x1222 JUMP JUMPDEST SWAP3 POP POP PUSH1 0x40 PUSH2 0x127C DUP7 DUP3 DUP8 ADD PUSH2 0xD91 JUMP JUMPDEST SWAP2 POP POP SWAP3 POP SWAP3 POP SWAP3 JUMP JUMPDEST PUSH0 PUSH20 0xFFFFFFFFFFFFFFFFFFFFFFFFFFFFFFFFFFFFFFFF DUP3 AND SWAP1 POP SWAP2 SWAP1 POP JUMP JUMPDEST PUSH0 PUSH2 0x12AF DUP3 PUSH2 0x1286 JUMP JUMPDEST SWAP1 POP SWAP2 SWAP1 POP JUMP JUMPDEST PUSH2 0x12BF DUP2 PUSH2 0x12A5 JUMP JUMPDEST DUP3 MSTORE POP POP JUMP JUMPDEST PUSH0 PUSH1 0x20 DUP3 ADD SWAP1 POP PUSH2 0x12D8 PUSH0 DUP4 ADD DUP5 PUSH2 0x12B6 JUMP JUMPDEST SWAP3 SWAP2 POP POP JUMP JUMPDEST PUSH0 PUSH0 REVERT JUMPDEST PUSH0 PUSH0 REVERT JUMPDEST PUSH2 0x12EF DUP2 PUSH2 0xE2D JUMP JUMPDEST DUP2 EQ PUSH2 0x12F9 JUMPI PUSH0 PUSH0 REVERT JUMPDEST POP JUMP JUMPDEST PUSH0 DUP2 CALLDATALOAD SWAP1 POP PUSH2 0x130A DUP2 PUSH2 0x12E6 JUMP JUMPDEST SWAP3 SWAP2 POP POP JUMP JUMPDEST PUSH2 0x1319 DUP2 PUSH2 0xEF6 JUMP JUMPDEST DUP2 EQ PUSH2 0x1323 JUMPI PUSH0 PUSH0 REVERT JUMPDEST POP JUMP JUMPDEST PUSH0 DUP2 CALLDATALOAD SWAP1 POP PUSH2 0x1334 DUP2 PUSH2 0x1310 JUMP JUMPDEST SWAP3 SWAP2 POP POP JUMP JUMPDEST PUSH0 PUSH2 0x220 DUP3 DUP5 SUB SLT ISZERO PUSH2 0x1350 JUMPI PUSH2 0x134F PUSH2 0x12DE JUMP JUMPDEST JUMPDEST PUSH2 0x135B PUSH2 0x220 PUSH2 0xCA2 JUMP JUMPDEST SWAP1 POP PUSH0 PUSH2 0x136A DUP5 DUP3 DUP6 ADD PUSH2 0x12FC JUMP JUMPDEST PUSH0 DUP4 ADD MSTORE POP PUSH1 0x20 PUSH2 0x137D DUP5 DUP3 DUP6 ADD PUSH2 0x12FC JUMP JUMPDEST PUSH1 0x20 DUP4 ADD MSTORE POP PUSH1 0x40 DUP3 ADD CALLDATALOAD PUSH8 0xFFFFFFFFFFFFFFFF DUP2 GT ISZERO PUSH2 0x13A1 JUMPI PUSH2 0x13A0 PUSH2 0x12E2 JUMP JUMPDEST JUMPDEST PUSH2 0x13AD DUP5 DUP3 DUP6 ADD PUSH2 0xD3B JUMP JUMPDEST PUSH1 0x40 DUP4 ADD MSTORE POP PUSH1 0x60 DUP3 ADD CALLDATALOAD PUSH8 0xFFFFFFFFFFFFFFFF DUP2 GT ISZERO PUSH2 0x13D1 JUMPI PUSH2 0x13D0 PUSH2 0x12E2 JUMP JUMPDEST JUMPDEST PUSH2 0x13DD DUP5 DUP3 DUP6 ADD PUSH2 0xD3B JUMP JUMPDEST PUSH1 0x60 DUP4 ADD MSTORE POP PUSH1 0x80 PUSH2 0x13F1 DUP5 DUP3 DUP6 ADD PUSH2 0x12FC JUMP JUMPDEST PUSH1 0x80 DUP4 ADD MSTORE POP PUSH1 0xA0 PUSH2 0x1405 DUP5 DUP3 DUP6 ADD PUSH2 0x12FC JUMP JUMPDEST PUSH1 0xA0 DUP4 ADD MSTORE POP PUSH1 0xC0 DUP3 ADD CALLDATALOAD PUSH8 0xFFFFFFFFFFFFFFFF DUP2 GT ISZERO PUSH2 0x1429 JUMPI PUSH2 0x1428 PUSH2 0x12E2 JUMP JUMPDEST JUMPDEST PUSH2 0x1435 DUP5 DUP3 DUP6 ADD PUSH2 0xD3B JUMP JUMPDEST PUSH1 0xC0 DUP4 ADD MSTORE POP PUSH1 0xE0 DUP3 ADD CALLDATALOAD PUSH8 0xFFFFFFFFFFFFFFFF DUP2 GT ISZERO PUSH2 0x1459 JUMPI PUSH2 0x1458 PUSH2 0x12E2 JUMP JUMPDEST JUMPDEST PUSH2 0x1465 DUP5 DUP3 DUP6 ADD PUSH2 0xD3B JUMP JUMPDEST PUSH1 0xE0 DUP4 ADD MSTORE POP PUSH2 0x100 DUP3 ADD CALLDATALOAD PUSH8 0xFFFFFFFFFFFFFFFF DUP2 GT ISZERO PUSH2 0x148A JUMPI PUSH2 0x1489 PUSH2 0x12E2 JUMP JUMPDEST JUMPDEST PUSH2 0x1496 DUP5 DUP3 DUP6 ADD PUSH2 0xD3B JUMP JUMPDEST PUSH2 0x100 DUP4 ADD MSTORE POP PUSH2 0x120 DUP3 ADD CALLDATALOAD PUSH8 0xFFFFFFFFFFFFFFFF DUP2 GT ISZERO PUSH2 0x14BC JUMPI PUSH2 0x14BB PUSH2 0x12E2 JUMP JUMPDEST JUMPDEST PUSH2 0x14C8 DUP5 DUP3 DUP6 ADD PUSH2 0xD3B JUMP JUMPDEST PUSH2 0x120 DUP4 ADD MSTORE POP PUSH2 0x140 DUP3 ADD CALLDATALOAD PUSH8 0xFFFFFFFFFFFFFFFF DUP2 GT ISZERO PUSH2 0x14EE JUMPI PUSH2 0x14ED PUSH2 0x12E2 JUMP JUMPDEST JUMPDEST PUSH2 0x14FA DUP5 DUP3 DUP6 ADD PUSH2 0xD3B JUMP JUMPDEST PUSH2 0x140 DUP4 ADD MSTORE POP PUSH2 0x160 PUSH2 0x1510 DUP5 DUP3 DUP6 ADD PUSH2 0x12FC JUMP JUMPDEST PUSH2 0x160 DUP4 ADD MSTORE POP PUSH2 0x180 PUSH2 0x1526 DUP5 DUP3 DUP6 ADD PUSH2 0x1326 JUMP JUMPDEST PUSH2 0x180 DUP4 ADD MSTORE POP PUSH2 0x1A0 DUP3 ADD CALLDATALOAD PUSH8 0xFFFFFFFFFFFFFFFF DUP2 GT ISZERO PUSH2 0x154C JUMPI PUSH2 0x154B PUSH2 0x12E2 JUMP JUMPDEST JUMPDEST PUSH2 0x1558 DUP5 DUP3 DUP6 ADD PUSH2 0xD3B JUMP JUMPDEST PUSH2 0x1A0 DUP4 ADD MSTORE POP PUSH2 0x1C0 DUP3 ADD CALLDATALOAD PUSH8 0xFFFFFFFFFFFFFFFF DUP2 GT ISZERO PUSH2 0x157E JUMPI PUSH2 0x157D PUSH2 0x12E2 JUMP JUMPDEST JUMPDEST PUSH2 0x158A DUP5 DUP3 DUP6 ADD PUSH2 0xD3B JUMP JUMPDEST PUSH2 0x1C0 DUP4 ADD MSTORE POP PUSH2 0x1E0 DUP3 ADD CALLDATALOAD PUSH8 0xFFFFFFFFFFFFFFFF DUP2 GT ISZERO PUSH2 0x15B0 JUMPI PUSH2 0x15AF PUSH2 0x12E2 JUMP JUMPDEST JUMPDEST PUSH2 0x15BC DUP5 DUP3 DUP6 ADD PUSH2 0xD3B JUMP JUMPDEST PUSH2 0x1E0 DUP4 ADD MSTORE POP PUSH2 0x200 DUP3 ADD CALLDATALOAD PUSH8 0xFFFFFFFFFFFFFFFF DUP2 GT ISZERO PUSH2 0x15E2 JUMPI PUSH2 0x15E1 PUSH2 0x12E2 JUMP JUMPDEST JUMPDEST PUSH2 0x15EE DUP5 DUP3 DUP6 ADD PUSH2 0xD3B JUMP JUMPDEST PUSH2 0x200 DUP4 ADD MSTORE POP SWAP3 SWAP2 POP POP JUMP JUMPDEST PUSH0 PUSH0 PUSH1 0x40 DUP4 DUP6 SUB SLT ISZERO PUSH2 0x1611 JUMPI PUSH2 0x1610 PUSH2 0xC24 JUMP JUMPDEST JUMPDEST PUSH0 DUP4 ADD CALLDATALOAD PUSH8 0xFFFFFFFFFFFFFFFF DUP2 GT ISZERO PUSH2 0x162E JUMPI PUSH2 0x162D PUSH2 0xC28 JUMP JUMPDEST JUMPDEST PUSH2 0x163A DUP6 DUP3 DUP7 ADD PUSH2 0x133A JUMP JUMPDEST SWAP3 POP POP PUSH1 0x20 PUSH2 0x164B DUP6 DUP3 DUP7 ADD PUSH2 0xD91 JUMP JUMPDEST SWAP2 POP POP SWAP3 POP SWAP3 SWAP1 POP JUMP JUMPDEST PUSH0 PUSH0 PUSH1 0x40 DUP4 DUP6 SUB SLT ISZERO PUSH2 0x166B JUMPI PUSH2 0x166A PUSH2 0xC24 JUMP JUMPDEST JUMPDEST PUSH0 PUSH2 0x1678 DUP6 DUP3 DUP7 ADD PUSH2 0x1222 JUMP JUMPDEST SWAP3 POP POP PUSH1 0x20 PUSH2 0x1689 DUP6 DUP3 DUP7 ADD PUSH2 0xD91 JUMP JUMPDEST SWAP2 POP POP SWAP3 POP SWAP3 SWAP1 POP JUMP JUMPDEST PUSH2 0x169C DUP2 PUSH2 0xD68 JUMP JUMPDEST DUP3 MSTORE POP POP JUMP JUMPDEST PUSH0 PUSH1 0x20 DUP3 ADD SWAP1 POP PUSH2 0x16B5 PUSH0 DUP4 ADD DUP5 PUSH2 0x1693 JUMP JUMPDEST SWAP3 SWAP2 POP POP JUMP JUMPDEST PUSH0 PUSH1 0x20 DUP3 DUP5 SUB SLT ISZERO PUSH2 0x16D0 JUMPI PUSH2 0x16CF PUSH2 0xC24 JUMP JUMPDEST JUMPDEST PUSH0 DUP3 ADD CALLDATALOAD PUSH8 0xFFFFFFFFFFFFFFFF DUP2 GT ISZERO PUSH2 0x16ED JUMPI PUSH2 0x16EC PUSH2 0xC28 JUMP JUMPDEST JUMPDEST PUSH2 0x16F9 DUP5 DUP3 DUP6 ADD PUSH2 0xD3B JUMP JUMPDEST SWAP2 POP POP SWAP3 SWAP2 POP POP JUMP JUMPDEST PUSH32 0x4E487B7100000000000000000000000000000000000000000000000000000000 PUSH0 MSTORE PUSH1 0x21 PUSH1 0x4 MSTORE PUSH1 0x24 PUSH0 REVERT JUMPDEST PUSH1 0x10 DUP2 LT PUSH2 0x1740 JUMPI PUSH2 0x173F PUSH2 0x1702 JUMP JUMPDEST JUMPDEST POP JUMP JUMPDEST PUSH0 DUP2 SWAP1 POP PUSH2 0x1750 DUP3 PUSH2 0x172F JUMP JUMPDEST SWAP2 SWAP1 POP JUMP JUMPDEST PUSH0 PUSH2 0x175F DUP3 PUSH2 0x1743 JUMP JUMPDEST SWAP1 POP SWAP2 SWAP1 POP JUMP JUMPDEST PUSH2 0x176F DUP2 PUSH2 0x1755 JUMP JUMPDEST DUP3 MSTORE POP POP JUMP JUMPDEST PUSH0 PUSH1 0x20 DUP3 ADD SWAP1 POP PUSH2 0x1788 PUSH0 DUP4 ADD DUP5 PUSH2 0x1766 JUMP JUMPDEST SWAP3 SWAP2 POP POP JUMP JUMPDEST PUSH0 DUP2 SWAP1 POP SWAP3 SWAP2 POP POP JUMP JUMPDEST PUSH0 PUSH2 0x17A2 DUP3 PUSH2 0xE87 JUMP JUMPDEST PUSH2 0x17AC DUP2 DUP6 PUSH2 0x178E JUMP JUMPDEST SWAP4 POP PUSH2 0x17BC DUP2 DUP6 PUSH1 0x20 DUP7 ADD PUSH2 0xEA1 JUMP JUMPDEST DUP1 DUP5 ADD SWAP2 POP POP SWAP3 SWAP2 POP POP JUMP JUMPDEST PUSH0 PUSH2 0x17D3 DUP3 DUP5 PUSH2 0x1798 JUMP JUMPDEST SWAP2 POP DUP2 SWAP1 POP SWAP3 SWAP2 POP POP JUMP JUMPDEST PUSH0 DUP3 DUP3 MSTORE PUSH1 0x20 DUP3 ADD SWAP1 POP SWAP3 SWAP2 POP POP JUMP JUMPDEST PUSH32 0x41646472657373206973206E6F7420666F756E64000000000000000000000000 PUSH0 DUP3 ADD MSTORE POP JUMP JUMPDEST PUSH0 PUSH2 0x1822 PUSH1 0x14 DUP4 PUSH2 0x17DE JUMP JUMPDEST SWAP2 POP PUSH2 0x182D DUP3 PUSH2 0x17EE JUMP JUMPDEST PUSH1 0x20 DUP3 ADD SWAP1 POP SWAP2 SWAP1 POP JUMP JUMPDEST PUSH0 PUSH1 0x20 DUP3 ADD SWAP1 POP DUP2 DUP2 SUB PUSH0 DUP4 ADD MSTORE PUSH2 0x184F DUP2 PUSH2 0x1816 JUMP JUMPDEST SWAP1 POP SWAP2 SWAP1 POP JUMP JUMPDEST PUSH0 DUP2 MLOAD SWAP1 POP PUSH2 0x1864 DUP2 PUSH2 0x12E6 JUMP JUMPDEST SWAP3 SWAP2 POP POP JUMP JUMPDEST PUSH0 PUSH1 0x20 DUP3 DUP5 SUB SLT ISZERO PUSH2 0x187F JUMPI PUSH2 0x187E PUSH2 0xC24 JUMP JUMPDEST JUMPDEST PUSH0 PUSH2 0x188C DUP5 DUP3 DUP6 ADD PUSH2 0x1856 JUMP JUMPDEST SWAP2 POP POP SWAP3 SWAP2 POP POP JUMP JUMPDEST PUSH0 PUSH8 0xFFFFFFFFFFFFFFFF DUP3 GT ISZERO PUSH2 0x18AF JUMPI PUSH2 0x18AE PUSH2 0xC44 JUMP JUMPDEST JUMPDEST PUSH1 0x20 DUP3 MUL SWAP1 POP PUSH1 0x20 DUP2 ADD SWAP1 POP SWAP2 SWAP1 POP JUMP JUMPDEST PUSH0 PUSH0 REVERT JUMPDEST PUSH0 PUSH2 0x18D6 PUSH2 0x18D1 DUP5 PUSH2 0xCBC JUMP JUMPDEST PUSH2 0xCA2 JUMP JUMPDEST SWAP1 POP DUP3 DUP2 MSTORE PUSH1 0x20 DUP2 ADD DUP5 DUP5 DUP5 ADD GT ISZERO PUSH2 0x18F2 JUMPI PUSH2 0x18F1 PUSH2 0xC30 JUMP JUMPDEST JUMPDEST PUSH2 0x18FD DUP5 DUP3 DUP6 PUSH2 0xEA1 JUMP JUMPDEST POP SWAP4 SWAP3 POP POP POP JUMP JUMPDEST PUSH0 DUP3 PUSH1 0x1F DUP4 ADD SLT PUSH2 0x1919 JUMPI PUSH2 0x1918 PUSH2 0xC2C JUMP JUMPDEST JUMPDEST DUP2 MLOAD PUSH2 0x1929 DUP5 DUP3 PUSH1 0x20 DUP7 ADD PUSH2 0x18C4 JUMP JUMPDEST SWAP2 POP POP SWAP3 SWAP2 POP POP JUMP JUMPDEST PUSH0 DUP2 MLOAD SWAP1 POP PUSH2 0x1940 DUP2 PUSH2 0x1310 JUMP JUMPDEST SWAP3 SWAP2 POP POP JUMP JUMPDEST PUSH0 PUSH2 0x220 DUP3 DUP5 SUB SLT ISZERO PUSH2 0x195C JUMPI PUSH2 0x195B PUSH2 0x12DE JUMP JUMPDEST JUMPDEST PUSH2 0x1967 PUSH2 0x220 PUSH2 0xCA2 JUMP JUMPDEST SWAP1 POP PUSH0 PUSH2 0x1976 DUP5 DUP3 DUP6 ADD PUSH2 0x1856 JUMP JUMPDEST PUSH0 DUP4 ADD MSTORE POP PUSH1 0x20 PUSH2 0x1989 DUP5 DUP3 DUP6 ADD PUSH2 0x1856 JUMP JUMPDEST PUSH1 0x20 DUP4 ADD MSTORE POP PUSH1 0x40 DUP3 ADD MLOAD PUSH8 0xFFFFFFFFFFFFFFFF DUP2 GT ISZERO PUSH2 0x19AD JUMPI PUSH2 0x19AC PUSH2 0x12E2 JUMP JUMPDEST JUMPDEST PUSH2 0x19B9 DUP5 DUP3 DUP6 ADD PUSH2 0x1905 JUMP JUMPDEST PUSH1 0x40 DUP4 ADD MSTORE POP PUSH1 0x60 DUP3 ADD MLOAD PUSH8 0xFFFFFFFFFFFFFFFF DUP2 GT ISZERO PUSH2 0x19DD JUMPI PUSH2 0x19DC PUSH2 0x12E2 JUMP JUMPDEST JUMPDEST PUSH2 0x19E9 DUP5 DUP3 DUP6 ADD PUSH2 0x1905 JUMP JUMPDEST PUSH1 0x60 DUP4 ADD MSTORE POP PUSH1 0x80 PUSH2 0x19FD DUP5 DUP3 DUP6 ADD PUSH2 0x1856 JUMP JUMPDEST PUSH1 0x80 DUP4 ADD MSTORE POP PUSH1 0xA0 PUSH2 0x1A11 DUP5 DUP3 DUP6 ADD PUSH2 0x1856 JUMP JUMPDEST PUSH1 0xA0 DUP4 ADD MSTORE POP PUSH1 0xC0 DUP3 ADD MLOAD PUSH8 0xFFFFFFFFFFFFFFFF DUP2 GT ISZERO PUSH2 0x1A35 JUMPI PUSH2 0x1A34 PUSH2 0x12E2 JUMP JUMPDEST JUMPDEST PUSH2 0x1A41 DUP5 DUP3 DUP6 ADD PUSH2 0x1905 JUMP JUMPDEST PUSH1 0xC0 DUP4 ADD MSTORE POP PUSH1 0xE0 DUP3 ADD MLOAD PUSH8 0xFFFFFFFFFFFFFFFF DUP2 GT ISZERO PUSH2 0x1A65 JUMPI PUSH2 0x1A64 PUSH2 0x12E2 JUMP JUMPDEST JUMPDEST PUSH2 0x1A71 DUP5 DUP3 DUP6 ADD PUSH2 0x1905 JUMP JUMPDEST PUSH1 0xE0 DUP4 ADD MSTORE POP PUSH2 0x100 DUP3 ADD MLOAD PUSH8 0xFFFFFFFFFFFFFFFF DUP2 GT ISZERO PUSH2 0x1A96 JUMPI PUSH2 0x1A95 PUSH2 0x12E2 JUMP JUMPDEST JUMPDEST PUSH2 0x1AA2 DUP5 DUP3 DUP6 ADD PUSH2 0x1905 JUMP JUMPDEST PUSH2 0x100 DUP4 ADD MSTORE POP PUSH2 0x120 DUP3 ADD MLOAD PUSH8 0xFFFFFFFFFFFFFFFF DUP2 GT ISZERO PUSH2 0x1AC8 JUMPI PUSH2 0x1AC7 PUSH2 0x12E2 JUMP JUMPDEST JUMPDEST PUSH2 0x1AD4 DUP5 DUP3 DUP6 ADD PUSH2 0x1905 JUMP JUMPDEST PUSH2 0x120 DUP4 ADD MSTORE POP PUSH2 0x140 DUP3 ADD MLOAD PUSH8 0xFFFFFFFFFFFFFFFF DUP2 GT ISZERO PUSH2 0x1AFA JUMPI PUSH2 0x1AF9 PUSH2 0x12E2 JUMP JUMPDEST JUMPDEST PUSH2 0x1B06 DUP5 DUP3 DUP6 ADD PUSH2 0x1905 JUMP JUMPDEST PUSH2 0x140 DUP4 ADD MSTORE POP PUSH2 0x160 PUSH2 0x1B1C DUP5 DUP3 DUP6 ADD PUSH2 0x1856 JUMP JUMPDEST PUSH2 0x160 DUP4 ADD MSTORE POP PUSH2 0x180 PUSH2 0x1B32 DUP5 DUP3 DUP6 ADD PUSH2 0x1932 JUMP JUMPDEST PUSH2 0x180 DUP4 ADD MSTORE POP PUSH2 0x1A0 DUP3 ADD MLOAD PUSH8 0xFFFFFFFFFFFFFFFF DUP2 GT ISZERO PUSH2 0x1B58 JUMPI PUSH2 0x1B57 PUSH2 0x12E2 JUMP JUMPDEST JUMPDEST PUSH2 0x1B64 DUP5 DUP3 DUP6 ADD PUSH2 0x1905 JUMP JUMPDEST PUSH2 0x1A0 DUP4 ADD MSTORE POP PUSH2 0x1C0 DUP3 ADD MLOAD PUSH8 0xFFFFFFFFFFFFFFFF DUP2 GT ISZERO PUSH2 0x1B8A JUMPI PUSH2 0x1B89 PUSH2 0x12E2 JUMP JUMPDEST JUMPDEST PUSH2 0x1B96 DUP5 DUP3 DUP6 ADD PUSH2 0x1905 JUMP JUMPDEST PUSH2 0x1C0 DUP4 ADD MSTORE POP PUSH2 0x1E0 DUP3 ADD MLOAD PUSH8 0xFFFFFFFFFFFFFFFF DUP2 GT ISZERO PUSH2 0x1BBC JUMPI PUSH2 0x1BBB PUSH2 0x12E2 JUMP JUMPDEST JUMPDEST PUSH2 0x1BC8 DUP5 DUP3 DUP6 ADD PUSH2 0x1905 JUMP JUMPDEST PUSH2 0x1E0 DUP4 ADD MSTORE POP PUSH2 0x200 DUP3 ADD MLOAD PUSH8 0xFFFFFFFFFFFFFFFF DUP2 GT ISZERO PUSH2 0x1BEE JUMPI PUSH2 0x1BED PUSH2 0x12E2 JUMP JUMPDEST JUMPDEST PUSH2 0x1BFA DUP5 DUP3 DUP6 ADD PUSH2 0x1905 JUMP JUMPDEST PUSH2 0x200 DUP4 ADD MSTORE POP SWAP3 SWAP2 POP POP JUMP JUMPDEST PUSH0 PUSH1 0x80 DUP3 DUP5 SUB SLT ISZERO PUSH2 0x1C1C JUMPI PUSH2 0x1C1B PUSH2 0x12DE JUMP JUMPDEST JUMPDEST PUSH2 0x1C26 PUSH1 0x80 PUSH2 0xCA2 JUMP JUMPDEST SWAP1 POP PUSH0 DUP3 ADD MLOAD PUSH8 0xFFFFFFFFFFFFFFFF DUP2 GT ISZERO PUSH2 0x1C45 JUMPI PUSH2 0x1C44 PUSH2 0x12E2 JUMP JUMPDEST JUMPDEST PUSH2 0x1C51 DUP5 DUP3 DUP6 ADD PUSH2 0x1905 JUMP JUMPDEST PUSH0 DUP4 ADD MSTORE POP PUSH1 0x20 PUSH2 0x1C64 DUP5 DUP3 DUP6 ADD PUSH2 0x1856 JUMP JUMPDEST PUSH1 0x20 DUP4 ADD MSTORE POP PUSH1 0x40 DUP3 ADD MLOAD PUSH8 0xFFFFFFFFFFFFFFFF DUP2 GT ISZERO PUSH2 0x1C88 JUMPI PUSH2 0x1C87 PUSH2 0x12E2 JUMP JUMPDEST JUMPDEST PUSH2 0x1C94 DUP5 DUP3 DUP6 ADD PUSH2 0x1905 JUMP JUMPDEST PUSH1 0x40 DUP4 ADD MSTORE POP PUSH1 0x60 DUP3 ADD MLOAD PUSH8 0xFFFFFFFFFFFFFFFF DUP2 GT ISZERO PUSH2 0x1CB8 JUMPI PUSH2 0x1CB7 PUSH2 0x12E2 JUMP JUMPDEST JUMPDEST PUSH2 0x1CC4 DUP5 DUP3 DUP6 ADD PUSH2 0x1946 JUMP JUMPDEST PUSH1 0x60 DUP4 ADD MSTORE POP SWAP3 SWAP2 POP POP JUMP JUMPDEST PUSH0 PUSH2 0x1CE2 PUSH2 0x1CDD DUP5 PUSH2 0x1895 JUMP JUMPDEST PUSH2 0xCA2 JUMP JUMPDEST SWAP1 POP DUP1 DUP4 DUP3 MSTORE PUSH1 0x20 DUP3 ADD SWAP1 POP PUSH1 0x20 DUP5 MUL DUP4 ADD DUP6 DUP2 GT ISZERO PUSH2 0x1D05 JUMPI PUSH2 0x1D04 PUSH2 0x18C0 JUMP JUMPDEST JUMPDEST DUP4 JUMPDEST DUP2 DUP2 LT ISZERO PUSH2 0x1D4C JUMPI DUP1 MLOAD PUSH8 0xFFFFFFFFFFFFFFFF DUP2 GT ISZERO PUSH2 0x1D2A JUMPI PUSH2 0x1D29 PUSH2 0xC2C JUMP JUMPDEST JUMPDEST DUP1 DUP7 ADD PUSH2 0x1D37 DUP10 DUP3 PUSH2 0x1C07 JUMP JUMPDEST DUP6 MSTORE PUSH1 0x20 DUP6 ADD SWAP5 POP POP POP PUSH1 0x20 DUP2 ADD SWAP1 POP PUSH2 0x1D07 JUMP JUMPDEST POP POP POP SWAP4 SWAP3 POP POP POP JUMP JUMPDEST PUSH0 DUP3 PUSH1 0x1F DUP4 ADD SLT PUSH2 0x1D6A JUMPI PUSH2 0x1D69 PUSH2 0xC2C JUMP JUMPDEST JUMPDEST DUP2 MLOAD PUSH2 0x1D7A DUP5 DUP3 PUSH1 0x20 DUP7 ADD PUSH2 0x1CD0 JUMP JUMPDEST SWAP2 POP POP SWAP3 SWAP2 POP POP JUMP JUMPDEST PUSH0 PUSH1 0x20 DUP3 DUP5 SUB SLT ISZERO PUSH2 0x1D98 JUMPI PUSH2 0x1D97 PUSH2 0xC24 JUMP JUMPDEST JUMPDEST PUSH0 DUP3 ADD MLOAD PUSH8 0xFFFFFFFFFFFFFFFF DUP2 GT ISZERO PUSH2 0x1DB5 JUMPI PUSH2 0x1DB4 PUSH2 0xC28 JUMP JUMPDEST JUMPDEST PUSH2 0x1DC1 DUP5 DUP3 DUP6 ADD PUSH2 0x1D56 JUMP JUMPDEST SWAP2 POP POP SWAP3 SWAP2 POP POP JUMP JUMPDEST PUSH0 PUSH2 0x1DD4 DUP3 PUSH2 0xE87 JUMP JUMPDEST PUSH2 0x1DDE DUP2 DUP6 PUSH2 0x17DE JUMP JUMPDEST SWAP4 POP PUSH2 0x1DEE DUP2 DUP6 PUSH1 0x20 DUP7 ADD PUSH2 0xEA1 JUMP JUMPDEST PUSH2 0x1DF7 DUP2 PUSH2 0xC34 JUMP JUMPDEST DUP5 ADD SWAP2 POP POP SWAP3 SWAP2 POP POP JUMP JUMPDEST PUSH0 PUSH1 0x80 DUP3 ADD SWAP1 POP DUP2 DUP2 SUB PUSH0 DUP4 ADD MSTORE PUSH2 0x1E1A DUP2 DUP8 PUSH2 0x1DCA JUMP JUMPDEST SWAP1 POP DUP2 DUP2 SUB PUSH1 0x20 DUP4 ADD MSTORE PUSH2 0x1E2E DUP2 DUP7 PUSH2 0x1DCA JUMP JUMPDEST SWAP1 POP PUSH2 0x1E3D PUSH1 0x40 DUP4 ADD DUP6 PUSH2 0x1693 JUMP JUMPDEST PUSH2 0x1E4A PUSH1 0x60 DUP4 ADD DUP5 PUSH2 0x12B6 JUMP JUMPDEST SWAP6 SWAP5 POP POP POP POP POP JUMP JUMPDEST PUSH0 PUSH2 0x220 DUP4 ADD PUSH0 DUP4 ADD MLOAD PUSH2 0x1E69 PUSH0 DUP7 ADD DUP3 PUSH2 0xEE7 JUMP JUMPDEST POP PUSH1 0x20 DUP4 ADD MLOAD PUSH2 0x1E7C PUSH1 0x20 DUP7 ADD DUP3 PUSH2 0xEE7 JUMP JUMPDEST POP PUSH1 0x40 DUP4 ADD MLOAD DUP5 DUP3 SUB PUSH1 0x40 DUP7 ADD MSTORE PUSH2 0x1E94 DUP3 DUP3 PUSH2 0xEAF JUMP JUMPDEST SWAP2 POP POP PUSH1 0x60 DUP4 ADD MLOAD DUP5 DUP3 SUB PUSH1 0x60 DUP7 ADD MSTORE PUSH2 0x1EAE DUP3 DUP3 PUSH2 0xEAF JUMP JUMPDEST SWAP2 POP POP PUSH1 0x80 DUP4 ADD MLOAD PUSH2 0x1EC3 PUSH1 0x80 DUP7 ADD DUP3 PUSH2 0xEE7 JUMP JUMPDEST POP PUSH1 0xA0 DUP4 ADD MLOAD PUSH2 0x1ED6 PUSH1 0xA0 DUP7 ADD DUP3 PUSH2 0xEE7 JUMP JUMPDEST POP PUSH1 0xC0 DUP4 ADD MLOAD DUP5 DUP3 SUB PUSH1 0xC0 DUP7 ADD MSTORE PUSH2 0x1EEE DUP3 DUP3 PUSH2 0xEAF JUMP JUMPDEST SWAP2 POP POP PUSH1 0xE0 DUP4 ADD MLOAD DUP5 DUP3 SUB PUSH1 0xE0 DUP7 ADD MSTORE PUSH2 0x1F08 DUP3 DUP3 PUSH2 0xEAF JUMP JUMPDEST SWAP2 POP POP PUSH2 0x100 DUP4 ADD MLOAD DUP5 DUP3 SUB PUSH2 0x100 DUP7 ADD MSTORE PUSH2 0x1F24 DUP3 DUP3 PUSH2 0xEAF JUMP JUMPDEST SWAP2 POP POP PUSH2 0x120 DUP4 ADD MLOAD DUP5 DUP3 SUB PUSH2 0x120 DUP7 ADD MSTORE PUSH2 0x1F40 DUP3 DUP3 PUSH2 0xEAF JUMP JUMPDEST SWAP2 POP POP PUSH2 0x140 DUP4 ADD MLOAD DUP5 DUP3 SUB PUSH2 0x140 DUP7 ADD MSTORE PUSH2 0x1F5C DUP3 DUP3 PUSH2 0xEAF JUMP JUMPDEST SWAP2 POP POP PUSH2 0x160 DUP4 ADD MLOAD PUSH2 0x1F73 PUSH2 0x160 DUP7 ADD DUP3 PUSH2 0xEE7 JUMP JUMPDEST POP PUSH2 0x180 DUP4 ADD MLOAD PUSH2 0x1F88 PUSH2 0x180 DUP7 ADD DUP3 PUSH2 0xF01 JUMP JUMPDEST POP PUSH2 0x1A0 DUP4 ADD MLOAD DUP5 DUP3 SUB PUSH2 0x1A0 DUP7 ADD MSTORE PUSH2 0x1FA2 DUP3 DUP3 PUSH2 0xEAF JUMP JUMPDEST SWAP2 POP POP PUSH2 0x1C0 DUP4 ADD MLOAD DUP5 DUP3 SUB PUSH2 0x1C0 DUP7 ADD MSTORE PUSH2 0x1FBE DUP3 DUP3 PUSH2 0xEAF JUMP JUMPDEST SWAP2 POP POP PUSH2 0x1E0 DUP4 ADD MLOAD DUP5 DUP3 SUB PUSH2 0x1E0 DUP7 ADD MSTORE PUSH2 0x1FDA DUP3 DUP3 PUSH2 0xEAF JUMP JUMPDEST SWAP2 POP POP PUSH2 0x200 DUP4 ADD MLOAD DUP5 DUP3 SUB PUSH2 0x200 DUP7 ADD MSTORE PUSH2 0x1FF6 DUP3 DUP3 PUSH2 0xEAF JUMP JUMPDEST SWAP2 POP POP DUP1 SWAP2 POP POP SWAP3 SWAP2 POP POP JUMP JUMPDEST PUSH0 PUSH1 0x20 DUP3 ADD SWAP1 POP DUP2 DUP2 SUB PUSH0 DUP4 ADD MSTORE PUSH2 0x201B DUP2 DUP5 PUSH2 0x1E53 JUMP JUMPDEST SWAP1 POP SWAP3 SWAP2 POP POP JUMP JUMPDEST PUSH32 0x4E487B7100000000000000000000000000000000000000000000000000000000 PUSH0 MSTORE PUSH1 0x12 PUSH1 0x4 MSTORE PUSH1 0x24 PUSH0 REVERT JUMPDEST PUSH32 0x4E487B7100000000000000000000000000000000000000000000000000000000 PUSH0 MSTORE PUSH1 0x11 PUSH1 0x4 MSTORE PUSH1 0x24 PUSH0 REVERT JUMPDEST PUSH0 PUSH2 0x2087 DUP3 PUSH2 0xD68 JUMP JUMPDEST SWAP2 POP PUSH2 0x2092 DUP4 PUSH2 0xD68 JUMP JUMPDEST SWAP3 POP DUP3 PUSH2 0x20A2 JUMPI PUSH2 0x20A1 PUSH2 0x2023 JUMP JUMPDEST JUMPDEST DUP3 DUP3 DIV SWAP1 POP SWAP3 SWAP2 POP POP JUMP JUMPDEST PUSH0 PUSH2 0x20B7 DUP3 PUSH2 0xD68 JUMP JUMPDEST SWAP2 POP PUSH2 0x20C2 DUP4 PUSH2 0xD68 JUMP JUMPDEST SWAP3 POP DUP3 DUP3 MUL PUSH2 0x20D0 DUP2 PUSH2 0xD68 JUMP JUMPDEST SWAP2 POP DUP1 DUP3 EQ PUSH2 0x20E2 JUMPI PUSH2 0x20E1 PUSH2 0x2050 JUMP JUMPDEST JUMPDEST POP SWAP3 SWAP2 POP POP JUMP JUMPDEST PUSH32 0x496E76616C696420696E74657276616C20737472696E67000000000000000000 PUSH0 DUP3 ADD MSTORE POP JUMP JUMPDEST PUSH0 PUSH2 0x211D PUSH1 0x17 DUP4 PUSH2 0x17DE JUMP JUMPDEST SWAP2 POP PUSH2 0x2128 DUP3 PUSH2 0x20E9 JUMP JUMPDEST PUSH1 0x20 DUP3 ADD SWAP1 POP SWAP2 SWAP1 POP JUMP JUMPDEST PUSH0 PUSH1 0x20 DUP3 ADD SWAP1 POP DUP2 DUP2 SUB PUSH0 DUP4 ADD MSTORE PUSH2 0x214A DUP2 PUSH2 0x2111 JUMP JUMPDEST SWAP1 POP SWAP2 SWAP1 POP JUMP JUMPDEST PUSH0 PUSH1 0x40 DUP3 ADD SWAP1 POP DUP2 DUP2 SUB PUSH0 DUP4 ADD MSTORE PUSH2 0x2169 DUP2 DUP6 PUSH2 0x1DCA JUMP JUMPDEST SWAP1 POP PUSH2 0x2178 PUSH1 0x20 DUP4 ADD DUP5 PUSH2 0xE36 JUMP JUMPDEST SWAP4 SWAP3 POP POP POP JUMP JUMPDEST PUSH32 0x4E487B7100000000000000000000000000000000000000000000000000000000 PUSH0 MSTORE PUSH1 0x51 PUSH1 0x4 MSTORE PUSH1 0x24 PUSH0 REVERT INVALID PUSH1 0x80 PUSH1 0x40 MSTORE CALLVALUE DUP1 ISZERO PUSH1 0xE JUMPI PUSH0 PUSH0 REVERT JUMPDEST POP CALLER PUSH1 0x1 PUSH0 PUSH2 0x100 EXP DUP2 SLOAD DUP2 PUSH20 0xFFFFFFFFFFFFFFFFFFFFFFFFFFFFFFFFFFFFFFFF MUL NOT AND SWAP1 DUP4 PUSH20 0xFFFFFFFFFFFFFFFFFFFFFFFFFFFFFFFFFFFFFFFF AND MUL OR SWAP1 SSTORE POP PUSH2 0x195A DUP1 PUSH2 0x5C PUSH0 CODECOPY PUSH0 RETURN INVALID PUSH1 0x80 PUSH1 0x40 MSTORE CALLVALUE DUP1 ISZERO PUSH2 0xF JUMPI PUSH0 PUSH0 REVERT JUMPDEST POP PUSH1 0x4 CALLDATASIZE LT PUSH2 0x4A JUMPI PUSH0 CALLDATALOAD PUSH1 0xE0 SHR DUP1 PUSH4 0x48CBAD6E EQ PUSH2 0x4E JUMPI DUP1 PUSH4 0xBE1C766B EQ PUSH2 0x6C JUMPI DUP1 PUSH4 0xC45A0155 EQ PUSH2 0x8A JUMPI DUP1 PUSH4 0xF2523A9D EQ PUSH2 0xA8 JUMPI JUMPDEST PUSH0 PUSH0 REVERT JUMPDEST PUSH2 0x56 PUSH2 0xC4 JUMP JUMPDEST PUSH1 0x40 MLOAD PUSH2 0x63 SWAP2 SWAP1 PUSH2 0xF6C JUMP JUMPDEST PUSH1 0x40 MLOAD DUP1 SWAP2 SUB SWAP1 RETURN JUMPDEST PUSH2 0x74 PUSH2 0x8D8 JUMP JUMPDEST PUSH1 0x40 MLOAD PUSH2 0x81 SWAP2 SWAP1 PUSH2 0xF9B JUMP JUMPDEST PUSH1 0x40 MLOAD DUP1 SWAP2 SUB SWAP1 RETURN JUMPDEST PUSH2 0x92 PUSH2 0x8E3 JUMP JUMPDEST PUSH1 0x40 MLOAD PUSH2 0x9F SWAP2 SWAP1 PUSH2 0xFF3 JUMP JUMPDEST PUSH1 0x40 MLOAD DUP1 SWAP2 SUB SWAP1 RETURN JUMPDEST PUSH2 0xC2 PUSH1 0x4 DUP1 CALLDATASIZE SUB DUP2 ADD SWAP1 PUSH2 0xBD SWAP2 SWAP1 PUSH2 0x1040 JUMP JUMPDEST PUSH2 0x908 JUMP JUMPDEST STOP JUMPDEST PUSH1 0x60 PUSH0 DUP1 SLOAD DUP1 PUSH1 0x20 MUL PUSH1 0x20 ADD PUSH1 0x40 MLOAD SWAP1 DUP2 ADD PUSH1 0x40 MSTORE DUP1 SWAP3 SWAP2 SWAP1 DUP2 DUP2 MSTORE PUSH1 0x20 ADD PUSH0 SWAP1 JUMPDEST DUP3 DUP3 LT ISZERO PUSH2 0x8CF JUMPI DUP4 DUP3 SWAP1 PUSH0 MSTORE PUSH1 0x20 PUSH0 KECCAK256 SWAP1 PUSH1 0x14 MUL ADD PUSH1 0x40 MLOAD DUP1 PUSH1 0x80 ADD PUSH1 0x40 MSTORE SWAP1 DUP2 PUSH0 DUP3 ADD DUP1 SLOAD PUSH2 0x116 SWAP1 PUSH2 0x10B4 JUMP JUMPDEST DUP1 PUSH1 0x1F ADD PUSH1 0x20 DUP1 SWAP2 DIV MUL PUSH1 0x20 ADD PUSH1 0x40 MLOAD SWAP1 DUP2 ADD PUSH1 0x40 MSTORE DUP1 SWAP3 SWAP2 SWAP1 DUP2 DUP2 MSTORE PUSH1 0x20 ADD DUP3 DUP1 SLOAD PUSH2 0x142 SWAP1 PUSH2 0x10B4 JUMP JUMPDEST DUP1 ISZERO PUSH2 0x18D JUMPI DUP1 PUSH1 0x1F LT PUSH2 0x164 JUMPI PUSH2 0x100 DUP1 DUP4 SLOAD DIV MUL DUP4 MSTORE SWAP2 PUSH1 0x20 ADD SWAP2 PUSH2 0x18D JUMP JUMPDEST DUP3 ADD SWAP2 SWAP1 PUSH0 MSTORE PUSH1 0x20 PUSH0 KECCAK256 SWAP1 JUMPDEST DUP2 SLOAD DUP2 MSTORE SWAP1 PUSH1 0x1 ADD SWAP1 PUSH1 0x20 ADD DUP1 DUP4 GT PUSH2 0x170 JUMPI DUP3 SWAP1 SUB PUSH1 0x1F AND DUP3 ADD SWAP2 JUMPDEST POP POP POP POP POP DUP2 MSTORE PUSH1 0x20 ADD PUSH1 0x1 DUP3 ADD SLOAD DUP2 MSTORE PUSH1 0x20 ADD PUSH1 0x2 DUP3 ADD DUP1 SLOAD PUSH2 0x1B0 SWAP1 PUSH2 0x10B4 JUMP JUMPDEST DUP1 PUSH1 0x1F ADD PUSH1 0x20 DUP1 SWAP2 DIV MUL PUSH1 0x20 ADD PUSH1 0x40 MLOAD SWAP1 DUP2 ADD PUSH1 0x40 MSTORE DUP1 SWAP3 SWAP2 SWAP1 DUP2 DUP2 MSTORE PUSH1 0x20 ADD DUP3 DUP1 SLOAD PUSH2 0x1DC SWAP1 PUSH2 0x10B4 JUMP JUMPDEST DUP1 ISZERO PUSH2 0x227 JUMPI DUP1 PUSH1 0x1F LT PUSH2 0x1FE JUMPI PUSH2 0x100 DUP1 DUP4 SLOAD DIV MUL DUP4 MSTORE SWAP2 PUSH1 0x20 ADD SWAP2 PUSH2 0x227 JUMP JUMPDEST DUP3 ADD SWAP2 SWAP1 PUSH0 MSTORE PUSH1 0x20 PUSH0 KECCAK256 SWAP1 JUMPDEST DUP2 SLOAD DUP2 MSTORE SWAP1 PUSH1 0x1 ADD SWAP1 PUSH1 0x20 ADD DUP1 DUP4 GT PUSH2 0x20A JUMPI DUP3 SWAP1 SUB PUSH1 0x1F AND DUP3 ADD SWAP2 JUMPDEST POP POP POP POP POP DUP2 MSTORE PUSH1 0x20 ADD PUSH1 0x3 DUP3 ADD PUSH1 0x40 MLOAD DUP1 PUSH2 0x220 ADD PUSH1 0x40 MSTORE SWAP1 DUP2 PUSH0 DUP3 ADD SLOAD DUP2 MSTORE PUSH1 0x20 ADD PUSH1 0x1 DUP3 ADD SLOAD DUP2 MSTORE PUSH1 0x20 ADD PUSH1 0x2 DUP3 ADD DUP1 SLOAD PUSH2 0x264 SWAP1 PUSH2 0x10B4 JUMP JUMPDEST DUP1 PUSH1 0x1F ADD PUSH1 0x20 DUP1 SWAP2 DIV MUL PUSH1 0x20 ADD PUSH1 0x40 MLOAD SWAP1 DUP2 ADD PUSH1 0x40 MSTORE DUP1 SWAP3 SWAP2 SWAP1 DUP2 DUP2 MSTORE PUSH1 0x20 ADD DUP3 DUP1 SLOAD PUSH2 0x290 SWAP1 PUSH2 0x10B4 JUMP JUMPDEST DUP1 ISZERO PUSH2 0x2DB JUMPI DUP1 PUSH1 0x1F LT PUSH2 0x2B2 JUMPI PUSH2 0x100 DUP1 DUP4 SLOAD DIV MUL DUP4 MSTORE SWAP2 PUSH1 0x20 ADD SWAP2 PUSH2 0x2DB JUMP JUMPDEST DUP3 ADD SWAP2 SWAP1 PUSH0 MSTORE PUSH1 0x20 PUSH0 KECCAK256 SWAP1 JUMPDEST DUP2 SLOAD DUP2 MSTORE SWAP1 PUSH1 0x1 ADD SWAP1 PUSH1 0x20 ADD DUP1 DUP4 GT PUSH2 0x2BE JUMPI DUP3 SWAP1 SUB PUSH1 0x1F AND DUP3 ADD SWAP2 JUMPDEST POP POP POP POP POP DUP2 MSTORE PUSH1 0x20 ADD PUSH1 0x3 DUP3 ADD DUP1 SLOAD PUSH2 0x2F4 SWAP1 PUSH2 0x10B4 JUMP JUMPDEST DUP1 PUSH1 0x1F ADD PUSH1 0x20 DUP1 SWAP2 DIV MUL PUSH1 0x20 ADD PUSH1 0x40 MLOAD SWAP1 DUP2 ADD PUSH1 0x40 MSTORE DUP1 SWAP3 SWAP2 SWAP1 DUP2 DUP2 MSTORE PUSH1 0x20 ADD DUP3 DUP1 SLOAD PUSH2 0x320 SWAP1 PUSH2 0x10B4 JUMP JUMPDEST DUP1 ISZERO PUSH2 0x36B JUMPI DUP1 PUSH1 0x1F LT PUSH2 0x342 JUMPI PUSH2 0x100 DUP1 DUP4 SLOAD DIV MUL DUP4 MSTORE SWAP2 PUSH1 0x20 ADD SWAP2 PUSH2 0x36B JUMP JUMPDEST DUP3 ADD SWAP2 SWAP1 PUSH0 MSTORE PUSH1 0x20 PUSH0 KECCAK256 SWAP1 JUMPDEST DUP2 SLOAD DUP2 MSTORE SWAP1 PUSH1 0x1 ADD SWAP1 PUSH1 0x20 ADD DUP1 DUP4 GT PUSH2 0x34E JUMPI DUP3 SWAP1 SUB PUSH1 0x1F AND DUP3 ADD SWAP2 JUMPDEST POP POP POP POP POP DUP2 MSTORE PUSH1 0x20 ADD PUSH1 0x4 DUP3 ADD SLOAD DUP2 MSTORE PUSH1 0x20 ADD PUSH1 0x5 DUP3 ADD SLOAD DUP2 MSTORE PUSH1 0x20 ADD PUSH1 0x6 DUP3 ADD DUP1 SLOAD PUSH2 0x398 SWAP1 PUSH2 0x10B4 JUMP JUMPDEST DUP1 PUSH1 0x1F ADD PUSH1 0x20 DUP1 SWAP2 DIV MUL PUSH1 0x20 ADD PUSH1 0x40 MLOAD SWAP1 DUP2 ADD PUSH1 0x40 MSTORE DUP1 SWAP3 SWAP2 SWAP1 DUP2 DUP2 MSTORE PUSH1 0x20 ADD DUP3 DUP1 SLOAD PUSH2 0x3C4 SWAP1 PUSH2 0x10B4 JUMP JUMPDEST DUP1 ISZERO PUSH2 0x40F JUMPI DUP1 PUSH1 0x1F LT PUSH2 0x3E6 JUMPI PUSH2 0x100 DUP1 DUP4 SLOAD DIV MUL DUP4 MSTORE SWAP2 PUSH1 0x20 ADD SWAP2 PUSH2 0x40F JUMP JUMPDEST DUP3 ADD SWAP2 SWAP1 PUSH0 MSTORE PUSH1 0x20 PUSH0 KECCAK256 SWAP1 JUMPDEST DUP2 SLOAD DUP2 MSTORE SWAP1 PUSH1 0x1 ADD SWAP1 PUSH1 0x20 ADD DUP1 DUP4 GT PUSH2 0x3F2 JUMPI DUP3 SWAP1 SUB PUSH1 0x1F AND DUP3 ADD SWAP2 JUMPDEST POP POP POP POP POP DUP2 MSTORE PUSH1 0x20 ADD PUSH1 0x7 DUP3 ADD DUP1 SLOAD PUSH2 0x428 SWAP1 PUSH2 0x10B4 JUMP JUMPDEST DUP1 PUSH1 0x1F ADD PUSH1 0x20 DUP1 SWAP2 DIV MUL PUSH1 0x20 ADD PUSH1 0x40 MLOAD SWAP1 DUP2 ADD PUSH1 0x40 MSTORE DUP1 SWAP3 SWAP2 SWAP1 DUP2 DUP2 MSTORE PUSH1 0x20 ADD DUP3 DUP1 SLOAD PUSH2 0x454 SWAP1 PUSH2 0x10B4 JUMP JUMPDEST DUP1 ISZERO PUSH2 0x49F JUMPI DUP1 PUSH1 0x1F LT PUSH2 0x476 JUMPI PUSH2 0x100 DUP1 DUP4 SLOAD DIV MUL DUP4 MSTORE SWAP2 PUSH1 0x20 ADD SWAP2 PUSH2 0x49F JUMP JUMPDEST DUP3 ADD SWAP2 SWAP1 PUSH0 MSTORE PUSH1 0x20 PUSH0 KECCAK256 SWAP1 JUMPDEST DUP2 SLOAD DUP2 MSTORE SWAP1 PUSH1 0x1 ADD SWAP1 PUSH1 0x20 ADD DUP1 DUP4 GT PUSH2 0x482 JUMPI DUP3 SWAP1 SUB PUSH1 0x1F AND DUP3 ADD SWAP2 JUMPDEST POP POP POP POP POP DUP2 MSTORE PUSH1 0x20 ADD PUSH1 0x8 DUP3 ADD DUP1 SLOAD PUSH2 0x4B8 SWAP1 PUSH2 0x10B4 JUMP JUMPDEST DUP1 PUSH1 0x1F ADD PUSH1 0x20 DUP1 SWAP2 DIV MUL PUSH1 0x20 ADD PUSH1 0x40 MLOAD SWAP1 DUP2 ADD PUSH1 0x40 MSTORE DUP1 SWAP3 SWAP2 SWAP1 DUP2 DUP2 MSTORE PUSH1 0x20 ADD DUP3 DUP1 SLOAD PUSH2 0x4E4 SWAP1 PUSH2 0x10B4 JUMP JUMPDEST DUP1 ISZERO PUSH2 0x52F JUMPI DUP1 PUSH1 0x1F LT PUSH2 0x506 JUMPI PUSH2 0x100 DUP1 DUP4 SLOAD DIV MUL DUP4 MSTORE SWAP2 PUSH1 0x20 ADD SWAP2 PUSH2 0x52F JUMP JUMPDEST DUP3 ADD SWAP2 SWAP1 PUSH0 MSTORE PUSH1 0x20 PUSH0 KECCAK256 SWAP1 JUMPDEST DUP2 SLOAD DUP2 MSTORE SWAP1 PUSH1 0x1 ADD SWAP1 PUSH1 0x20 ADD DUP1 DUP4 GT PUSH2 0x512 JUMPI DUP3 SWAP1 SUB PUSH1 0x1F AND DUP3 ADD SWAP2 JUMPDEST POP POP POP POP POP DUP2 MSTORE PUSH1 0x20 ADD PUSH1 0x9 DUP3 ADD DUP1 SLOAD PUSH2 0x548 SWAP1 PUSH2 0x10B4 JUMP JUMPDEST DUP1 PUSH1 0x1F ADD PUSH1 0x20 DUP1 SWAP2 DIV MUL PUSH1 0x20 ADD PUSH1 0x40 MLOAD SWAP1 DUP2 ADD PUSH1 0x40 MSTORE DUP1 SWAP3 SWAP2 SWAP1 DUP2 DUP2 MSTORE PUSH1 0x20 ADD DUP3 DUP1 SLOAD PUSH2 0x574 SWAP1 PUSH2 0x10B4 JUMP JUMPDEST DUP1 ISZERO PUSH2 0x5BF JUMPI DUP1 PUSH1 0x1F LT PUSH2 0x596 JUMPI PUSH2 0x100 DUP1 DUP4 SLOAD DIV MUL DUP4 MSTORE SWAP2 PUSH1 0x20 ADD SWAP2 PUSH2 0x5BF JUMP JUMPDEST DUP3 ADD SWAP2 SWAP1 PUSH0 MSTORE PUSH1 0x20 PUSH0 KECCAK256 SWAP1 JUMPDEST DUP2 SLOAD DUP2 MSTORE SWAP1 PUSH1 0x1 ADD SWAP1 PUSH1 0x20 ADD DUP1 DUP4 GT PUSH2 0x5A2 JUMPI DUP3 SWAP1 SUB PUSH1 0x1F AND DUP3 ADD SWAP2 JUMPDEST POP POP POP POP POP DUP2 MSTORE PUSH1 0x20 ADD PUSH1 0xA DUP3 ADD DUP1 SLOAD PUSH2 0x5D8 SWAP1 PUSH2 0x10B4 JUMP JUMPDEST DUP1 PUSH1 0x1F ADD PUSH1 0x20 DUP1 SWAP2 DIV MUL PUSH1 0x20 ADD PUSH1 0x40 MLOAD SWAP1 DUP2 ADD PUSH1 0x40 MSTORE DUP1 SWAP3 SWAP2 SWAP1 DUP2 DUP2 MSTORE PUSH1 0x20 ADD DUP3 DUP1 SLOAD PUSH2 0x604 SWAP1 PUSH2 0x10B4 JUMP JUMPDEST DUP1 ISZERO PUSH2 0x64F JUMPI DUP1 PUSH1 0x1F LT PUSH2 0x626 JUMPI PUSH2 0x100 DUP1 DUP4 SLOAD DIV MUL DUP4 MSTORE SWAP2 PUSH1 0x20 ADD SWAP2 PUSH2 0x64F JUMP JUMPDEST DUP3 ADD SWAP2 SWAP1 PUSH0 MSTORE PUSH1 0x20 PUSH0 KECCAK256 SWAP1 JUMPDEST DUP2 SLOAD DUP2 MSTORE SWAP1 PUSH1 0x1 ADD SWAP1 PUSH1 0x20 ADD DUP1 DUP4 GT PUSH2 0x632 JUMPI DUP3 SWAP1 SUB PUSH1 0x1F AND DUP3 ADD SWAP2 JUMPDEST POP POP POP POP POP DUP2 MSTORE PUSH1 0x20 ADD PUSH1 0xB DUP3 ADD SLOAD DUP2 MSTORE PUSH1 0x20 ADD PUSH1 0xC DUP3 ADD PUSH0 SWAP1 SLOAD SWAP1 PUSH2 0x100 EXP SWAP1 DIV PUSH1 0xFF AND ISZERO ISZERO ISZERO ISZERO DUP2 MSTORE PUSH1 0x20 ADD PUSH1 0xD DUP3 ADD DUP1 SLOAD PUSH2 0x68C SWAP1 PUSH2 0x10B4 JUMP JUMPDEST DUP1 PUSH1 0x1F ADD PUSH1 0x20 DUP1 SWAP2 DIV MUL PUSH1 0x20 ADD PUSH1 0x40 MLOAD SWAP1 DUP2 ADD PUSH1 0x40 MSTORE DUP1 SWAP3 SWAP2 SWAP1 DUP2 DUP2 MSTORE PUSH1 0x20 ADD DUP3 DUP1 SLOAD PUSH2 0x6B8 SWAP1 PUSH2 0x10B4 JUMP JUMPDEST DUP1 ISZERO PUSH2 0x703 JUMPI DUP1 PUSH1 0x1F LT PUSH2 0x6DA JUMPI PUSH2 0x100 DUP1 DUP4 SLOAD DIV MUL DUP4 MSTORE SWAP2 PUSH1 0x20 ADD SWAP2 PUSH2 0x703 JUMP JUMPDEST DUP3 ADD SWAP2 SWAP1 PUSH0 MSTORE PUSH1 0x20 PUSH0 KECCAK256 SWAP1 JUMPDEST DUP2 SLOAD DUP2 MSTORE SWAP1 PUSH1 0x1 ADD SWAP1 PUSH1 0x20 ADD DUP1 DUP4 GT PUSH2 0x6E6 JUMPI DUP3 SWAP1 SUB PUSH1 0x1F AND DUP3 ADD SWAP2 JUMPDEST POP POP POP POP POP DUP2 MSTORE PUSH1 0x20 ADD PUSH1 0xE DUP3 ADD DUP1 SLOAD PUSH2 0x71C SWAP1 PUSH2 0x10B4 JUMP JUMPDEST DUP1 PUSH1 0x1F ADD PUSH1 0x20 DUP1 SWAP2 DIV MUL PUSH1 0x20 ADD PUSH1 0x40 MLOAD SWAP1 DUP2 ADD PUSH1 0x40 MSTORE DUP1 SWAP3 SWAP2 SWAP1 DUP2 DUP2 MSTORE PUSH1 0x20 ADD DUP3 DUP1 SLOAD PUSH2 0x748 SWAP1 PUSH2 0x10B4 JUMP JUMPDEST DUP1 ISZERO PUSH2 0x793 JUMPI DUP1 PUSH1 0x1F LT PUSH2 0x76A JUMPI PUSH2 0x100 DUP1 DUP4 SLOAD DIV MUL DUP4 MSTORE SWAP2 PUSH1 0x20 ADD SWAP2 PUSH2 0x793 JUMP JUMPDEST DUP3 ADD SWAP2 SWAP1 PUSH0 MSTORE PUSH1 0x20 PUSH0 KECCAK256 SWAP1 JUMPDEST DUP2 SLOAD DUP2 MSTORE SWAP1 PUSH1 0x1 ADD SWAP1 PUSH1 0x20 ADD DUP1 DUP4 GT PUSH2 0x776 JUMPI DUP3 SWAP1 SUB PUSH1 0x1F AND DUP3 ADD SWAP2 JUMPDEST POP POP POP POP POP DUP2 MSTORE PUSH1 0x20 ADD PUSH1 0xF DUP3 ADD DUP1 SLOAD PUSH2 0x7AC SWAP1 PUSH2 0x10B4 JUMP JUMPDEST DUP1 PUSH1 0x1F ADD PUSH1 0x20 DUP1 SWAP2 DIV MUL PUSH1 0x20 ADD PUSH1 0x40 MLOAD SWAP1 DUP2 ADD PUSH1 0x40 MSTORE DUP1 SWAP3 SWAP2 SWAP1 DUP2 DUP2 MSTORE PUSH1 0x20 ADD DUP3 DUP1 SLOAD PUSH2 0x7D8 SWAP1 PUSH2 0x10B4 JUMP JUMPDEST DUP1 ISZERO PUSH2 0x823 JUMPI DUP1 PUSH1 0x1F LT PUSH2 0x7FA JUMPI PUSH2 0x100 DUP1 DUP4 SLOAD DIV MUL DUP4 MSTORE SWAP2 PUSH1 0x20 ADD SWAP2 PUSH2 0x823 JUMP JUMPDEST DUP3 ADD SWAP2 SWAP1 PUSH0 MSTORE PUSH1 0x20 PUSH0 KECCAK256 SWAP1 JUMPDEST DUP2 SLOAD DUP2 MSTORE SWAP1 PUSH1 0x1 ADD SWAP1 PUSH1 0x20 ADD DUP1 DUP4 GT PUSH2 0x806 JUMPI DUP3 SWAP1 SUB PUSH1 0x1F AND DUP3 ADD SWAP2 JUMPDEST POP POP POP POP POP DUP2 MSTORE PUSH1 0x20 ADD PUSH1 0x10 DUP3 ADD DUP1 SLOAD PUSH2 0x83C SWAP1 PUSH2 0x10B4 JUMP JUMPDEST DUP1 PUSH1 0x1F ADD PUSH1 0x20 DUP1 SWAP2 DIV MUL PUSH1 0x20 ADD PUSH1 0x40 MLOAD SWAP1 DUP2 ADD PUSH1 0x40 MSTORE DUP1 SWAP3 SWAP2 SWAP1 DUP2 DUP2 MSTORE PUSH1 0x20 ADD DUP3 DUP1 SLOAD PUSH2 0x868 SWAP1 PUSH2 0x10B4 JUMP JUMPDEST DUP1 ISZERO PUSH2 0x8B3 JUMPI DUP1 PUSH1 0x1F LT PUSH2 0x88A JUMPI PUSH2 0x100 DUP1 DUP4 SLOAD DIV MUL DUP4 MSTORE SWAP2 PUSH1 0x20 ADD SWAP2 PUSH2 0x8B3 JUMP JUMPDEST DUP3 ADD SWAP2 SWAP1 PUSH0 MSTORE PUSH1 0x20 PUSH0 KECCAK256 SWAP1 JUMPDEST DUP2 SLOAD DUP2 MSTORE SWAP1 PUSH1 0x1 ADD SWAP1 PUSH1 0x20 ADD DUP1 DUP4 GT PUSH2 0x896 JUMPI DUP3 SWAP1 SUB PUSH1 0x1F AND DUP3 ADD SWAP2 JUMPDEST POP POP POP POP POP DUP2 MSTORE POP POP DUP2 MSTORE POP POP DUP2 MSTORE PUSH1 0x20 ADD SWAP1 PUSH1 0x1 ADD SWAP1 PUSH2 0xE6 JUMP JUMPDEST POP POP POP POP SWAP1 POP SWAP1 JUMP JUMPDEST PUSH0 PUSH0 DUP1 SLOAD SWAP1 POP SWAP1 POP SWAP1 JUMP JUMPDEST PUSH1 0x1 PUSH0 SWAP1 SLOAD SWAP1 PUSH2 0x100 EXP SWAP1 DIV PUSH20 0xFFFFFFFFFFFFFFFFFFFFFFFFFFFFFFFFFFFFFFFF AND DUP2 JUMP JUMPDEST PUSH0 PUSH2 0x3E8 TIMESTAMP PUSH2 0x917 SWAP2 SWAP1 PUSH2 0x1111 JUMP JUMPDEST SWAP1 POP PUSH0 PUSH1 0x40 MLOAD DUP1 PUSH1 0x80 ADD PUSH1 0x40 MSTORE DUP1 PUSH1 0x40 MLOAD DUP1 PUSH1 0x40 ADD PUSH1 0x40 MSTORE DUP1 PUSH1 0x5 DUP2 MSTORE PUSH1 0x20 ADD PUSH32 0x6B6C696E65000000000000000000000000000000000000000000000000000000 DUP2 MSTORE POP DUP2 MSTORE PUSH1 0x20 ADD DUP4 DUP2 MSTORE PUSH1 0x20 ADD DUP5 DUP1 PUSH1 0x40 ADD SWAP1 PUSH2 0x976 SWAP2 SWAP1 PUSH2 0x115E JUMP JUMPDEST DUP1 DUP1 PUSH1 0x1F ADD PUSH1 0x20 DUP1 SWAP2 DIV MUL PUSH1 0x20 ADD PUSH1 0x40 MLOAD SWAP1 DUP2 ADD PUSH1 0x40 MSTORE DUP1 SWAP4 SWAP3 SWAP2 SWAP1 DUP2 DUP2 MSTORE PUSH1 0x20 ADD DUP4 DUP4 DUP1 DUP3 DUP5 CALLDATACOPY PUSH0 DUP2 DUP5 ADD MSTORE PUSH1 0x1F NOT PUSH1 0x1F DUP3 ADD AND SWAP1 POP DUP1 DUP4 ADD SWAP3 POP POP POP POP POP POP POP DUP2 MSTORE PUSH1 0x20 ADD DUP5 PUSH2 0x9C7 SWAP1 PUSH2 0x1609 JUMP JUMPDEST DUP2 MSTORE POP SWAP1 POP PUSH0 DUP2 SWAP1 DUP1 PUSH1 0x1 DUP2 SLOAD ADD DUP1 DUP3 SSTORE DUP1 SWAP2 POP POP PUSH1 0x1 SWAP1 SUB SWAP1 PUSH0 MSTORE PUSH1 0x20 PUSH0 KECCAK256 SWAP1 PUSH1 0x14 MUL ADD PUSH0 SWAP1 SWAP2 SWAP1 SWAP2 SWAP1 SWAP2 POP PUSH0 DUP3 ADD MLOAD DUP2 PUSH0 ADD SWAP1 DUP2 PUSH2 0xA07 SWAP2 SWAP1 PUSH2 0x17BB JUMP JUMPDEST POP PUSH1 0x20 DUP3 ADD MLOAD DUP2 PUSH1 0x1 ADD SSTORE PUSH1 0x40 DUP3 ADD MLOAD DUP2 PUSH1 0x2 ADD SWAP1 DUP2 PUSH2 0xA27 SWAP2 SWAP1 PUSH2 0x17BB JUMP JUMPDEST POP PUSH1 0x60 DUP3 ADD MLOAD DUP2 PUSH1 0x3 ADD PUSH0 DUP3 ADD MLOAD DUP2 PUSH0 ADD SSTORE PUSH1 0x20 DUP3 ADD MLOAD DUP2 PUSH1 0x1 ADD SSTORE PUSH1 0x40 DUP3 ADD MLOAD DUP2 PUSH1 0x2 ADD SWAP1 DUP2 PUSH2 0xA58 SWAP2 SWAP1 PUSH2 0x17BB JUMP JUMPDEST POP PUSH1 0x60 DUP3 ADD MLOAD DUP2 PUSH1 0x3 ADD SWAP1 DUP2 PUSH2 0xA6E SWAP2 SWAP1 PUSH2 0x17BB JUMP JUMPDEST POP PUSH1 0x80 DUP3 ADD MLOAD DUP2 PUSH1 0x4 ADD SSTORE PUSH1 0xA0 DUP3 ADD MLOAD DUP2 PUSH1 0x5 ADD SSTORE PUSH1 0xC0 DUP3 ADD MLOAD DUP2 PUSH1 0x6 ADD SWAP1 DUP2 PUSH2 0xA98 SWAP2 SWAP1 PUSH2 0x17BB JUMP JUMPDEST POP PUSH1 0xE0 DUP3 ADD MLOAD DUP2 PUSH1 0x7 ADD SWAP1 DUP2 PUSH2 0xAAE SWAP2 SWAP1 PUSH2 0x17BB JUMP JUMPDEST POP PUSH2 0x100 DUP3 ADD MLOAD DUP2 PUSH1 0x8 ADD SWAP1 DUP2 PUSH2 0xAC5 SWAP2 SWAP1 PUSH2 0x17BB JUMP JUMPDEST POP PUSH2 0x120 DUP3 ADD MLOAD DUP2 PUSH1 0x9 ADD SWAP1 DUP2 PUSH2 0xADC SWAP2 SWAP1 PUSH2 0x17BB JUMP JUMPDEST POP PUSH2 0x140 DUP3 ADD MLOAD DUP2 PUSH1 0xA ADD SWAP1 DUP2 PUSH2 0xAF3 SWAP2 SWAP1 PUSH2 0x17BB JUMP JUMPDEST POP PUSH2 0x160 DUP3 ADD MLOAD DUP2 PUSH1 0xB ADD SSTORE PUSH2 0x180 DUP3 ADD MLOAD DUP2 PUSH1 0xC ADD PUSH0 PUSH2 0x100 EXP DUP2 SLOAD DUP2 PUSH1 0xFF MUL NOT AND SWAP1 DUP4 ISZERO ISZERO MUL OR SWAP1 SSTORE POP PUSH2 0x1A0 DUP3 ADD MLOAD DUP2 PUSH1 0xD ADD SWAP1 DUP2 PUSH2 0xB35 SWAP2 SWAP1 PUSH2 0x17BB JUMP JUMPDEST POP PUSH2 0x1C0 DUP3 ADD MLOAD DUP2 PUSH1 0xE ADD SWAP1 DUP2 PUSH2 0xB4C SWAP2 SWAP1 PUSH2 0x17BB JUMP JUMPDEST POP PUSH2 0x1E0 DUP3 ADD MLOAD DUP2 PUSH1 0xF ADD SWAP1 DUP2 PUSH2 0xB63 SWAP2 SWAP1 PUSH2 0x17BB JUMP JUMPDEST POP PUSH2 0x200 DUP3 ADD MLOAD DUP2 PUSH1 0x10 ADD SWAP1 DUP2 PUSH2 0xB7A SWAP2 SWAP1 PUSH2 0x17BB JUMP JUMPDEST POP POP POP POP POP PUSH32 0x87BE993750FD9F870BC535D97609DF048E07430C47F26712536434958094F873 DUP3 DUP5 DUP1 PUSH1 0x40 ADD SWAP1 PUSH2 0xBB1 SWAP2 SWAP1 PUSH2 0x115E JUMP JUMPDEST DUP7 DUP1 PUSH1 0xC0 ADD SWAP1 PUSH2 0xBC1 SWAP2 SWAP1 PUSH2 0x115E JUMP JUMPDEST DUP9 DUP1 PUSH1 0xE0 ADD SWAP1 PUSH2 0xBD1 SWAP2 SWAP1 PUSH2 0x115E JUMP JUMPDEST PUSH1 0x40 MLOAD PUSH2 0xBE4 SWAP8 SWAP7 SWAP6 SWAP5 SWAP4 SWAP3 SWAP2 SWAP1 PUSH2 0x18C6 JUMP JUMPDEST PUSH1 0x40 MLOAD DUP1 SWAP2 SUB SWAP1 LOG1 POP POP POP JUMP JUMPDEST PUSH0 DUP2 MLOAD SWAP1 POP SWAP2 SWAP1 POP JUMP JUMPDEST PUSH0 DUP3 DUP3 MSTORE PUSH1 0x20 DUP3 ADD SWAP1 POP SWAP3 SWAP2 POP POP JUMP JUMPDEST PUSH0 DUP2 SWAP1 POP PUSH1 0x20 DUP3 ADD SWAP1 POP SWAP2 SWAP1 POP JUMP JUMPDEST PUSH0 DUP2 MLOAD SWAP1 POP SWAP2 SWAP1 POP JUMP JUMPDEST PUSH0 DUP3 DUP3 MSTORE PUSH1 0x20 DUP3 ADD SWAP1 POP SWAP3 SWAP2 POP POP JUMP JUMPDEST DUP3 DUP2 DUP4 MCOPY PUSH0 DUP4 DUP4 ADD MSTORE POP POP POP JUMP JUMPDEST PUSH0 PUSH1 0x1F NOT PUSH1 0x1F DUP4 ADD AND SWAP1 POP SWAP2 SWAP1 POP JUMP JUMPDEST PUSH0 PUSH2 0xC5C DUP3 PUSH2 0xC1A JUMP JUMPDEST PUSH2 0xC66 DUP2 DUP6 PUSH2 0xC24 JUMP JUMPDEST SWAP4 POP PUSH2 0xC76 DUP2 DUP6 PUSH1 0x20 DUP7 ADD PUSH2 0xC34 JUMP JUMPDEST PUSH2 0xC7F DUP2 PUSH2 0xC42 JUMP JUMPDEST DUP5 ADD SWAP2 POP POP SWAP3 SWAP2 POP POP JUMP JUMPDEST PUSH0 DUP2 SWAP1 POP SWAP2 SWAP1 POP JUMP JUMPDEST PUSH2 0xC9C DUP2 PUSH2 0xC8A JUMP JUMPDEST DUP3 MSTORE POP POP JUMP JUMPDEST PUSH0 DUP2 ISZERO ISZERO SWAP1 POP SWAP2 SWAP1 POP JUMP JUMPDEST PUSH2 0xCB6 DUP2 PUSH2 0xCA2 JUMP JUMPDEST DUP3 MSTORE POP POP JUMP JUMPDEST PUSH0 PUSH2 0x220 DUP4 ADD PUSH0 DUP4 ADD MLOAD PUSH2 0xCD2 PUSH0 DUP7 ADD DUP3 PUSH2 0xC93 JUMP JUMPDEST POP PUSH1 0x20 DUP4 ADD MLOAD PUSH2 0xCE5 PUSH1 0x20 DUP7 ADD DUP3 PUSH2 0xC93 JUMP JUMPDEST POP PUSH1 0x40 DUP4 ADD MLOAD DUP5 DUP3 SUB PUSH1 0x40 DUP7 ADD MSTORE PUSH2 0xCFD DUP3 DUP3 PUSH2 0xC52 JUMP JUMPDEST SWAP2 POP POP PUSH1 0x60 DUP4 ADD MLOAD DUP5 DUP3 SUB PUSH1 0x60 DUP7 ADD MSTORE PUSH2 0xD17 DUP3 DUP3 PUSH2 0xC52 JUMP JUMPDEST SWAP2 POP POP PUSH1 0x80 DUP4 ADD MLOAD PUSH2 0xD2C PUSH1 0x80 DUP7 ADD DUP3 PUSH2 0xC93 JUMP JUMPDEST POP PUSH1 0xA0 DUP4 ADD MLOAD PUSH2 0xD3F PUSH1 0xA0 DUP7 ADD DUP3 PUSH2 0xC93 JUMP JUMPDEST POP PUSH1 0xC0 DUP4 ADD MLOAD DUP5 DUP3 SUB PUSH1 0xC0 DUP7 ADD MSTORE PUSH2 0xD57 DUP3 DUP3 PUSH2 0xC52 JUMP JUMPDEST SWAP2 POP POP PUSH1 0xE0 DUP4 ADD MLOAD DUP5 DUP3 SUB PUSH1 0xE0 DUP7 ADD MSTORE PUSH2 0xD71 DUP3 DUP3 PUSH2 0xC52 JUMP JUMPDEST SWAP2 POP POP PUSH2 0x100 DUP4 ADD MLOAD DUP5 DUP3 SUB PUSH2 0x100 DUP7 ADD MSTORE PUSH2 0xD8D DUP3 DUP3 PUSH2 0xC52 JUMP JUMPDEST SWAP2 POP POP PUSH2 0x120 DUP4 ADD MLOAD DUP5 DUP3 SUB PUSH2 0x120 DUP7 ADD MSTORE PUSH2 0xDA9 DUP3 DUP3 PUSH2 0xC52 JUMP JUMPDEST SWAP2 POP POP PUSH2 0x140 DUP4 ADD MLOAD DUP5 DUP3 SUB PUSH2 0x140 DUP7 ADD MSTORE PUSH2 0xDC5 DUP3 DUP3 PUSH2 0xC52 JUMP JUMPDEST SWAP2 POP POP PUSH2 0x160 DUP4 ADD MLOAD PUSH2 0xDDC PUSH2 0x160 DUP7 ADD DUP3 PUSH2 0xC93 JUMP JUMPDEST POP PUSH2 0x180 DUP4 ADD MLOAD PUSH2 0xDF1 PUSH2 0x180 DUP7 ADD DUP3 PUSH2 0xCAD JUMP JUMPDEST POP PUSH2 0x1A0 DUP4 ADD MLOAD DUP5 DUP3 SUB PUSH2 0x1A0 DUP7 ADD MSTORE PUSH2 0xE0B DUP3 DUP3 PUSH2 0xC52 JUMP JUMPDEST SWAP2 POP POP PUSH2 0x1C0 DUP4 ADD MLOAD DUP5 DUP3 SUB PUSH2 0x1C0 DUP7 ADD MSTORE PUSH2 0xE27 DUP3 DUP3 PUSH2 0xC52 JUMP JUMPDEST SWAP2 POP POP PUSH2 0x1E0 DUP4 ADD MLOAD DUP5 DUP3 SUB PUSH2 0x1E0 DUP7 ADD MSTORE PUSH2 0xE43 DUP3 DUP3 PUSH2 0xC52 JUMP JUMPDEST SWAP2 POP POP PUSH2 0x200 DUP4 ADD MLOAD DUP5 DUP3 SUB PUSH2 0x200 DUP7 ADD MSTORE PUSH2 0xE5F DUP3 DUP3 PUSH2 0xC52 JUMP JUMPDEST SWAP2 POP POP DUP1 SWAP2 POP POP SWAP3 SWAP2 POP POP JUMP JUMPDEST PUSH0 PUSH1 0x80 DUP4 ADD PUSH0 DUP4 ADD MLOAD DUP5 DUP3 SUB PUSH0 DUP7 ADD MSTORE PUSH2 0xE86 DUP3 DUP3 PUSH2 0xC52 JUMP JUMPDEST SWAP2 POP POP PUSH1 0x20 DUP4 ADD MLOAD PUSH2 0xE9B PUSH1 0x20 DUP7 ADD DUP3 PUSH2 0xC93 JUMP JUMPDEST POP PUSH1 0x40 DUP4 ADD MLOAD DUP5 DUP3 SUB PUSH1 0x40 DUP7 ADD MSTORE PUSH2 0xEB3 DUP3 DUP3 PUSH2 0xC52 JUMP JUMPDEST SWAP2 POP POP PUSH1 0x60 DUP4 ADD MLOAD DUP5 DUP3 SUB PUSH1 0x60 DUP7 ADD MSTORE PUSH2 0xECD DUP3 DUP3 PUSH2 0xCBC JUMP JUMPDEST SWAP2 POP POP DUP1 SWAP2 POP POP SWAP3 SWAP2 POP POP JUMP JUMPDEST PUSH0 PUSH2 0xEE5 DUP4 DUP4 PUSH2 0xE6C JUMP JUMPDEST SWAP1 POP SWAP3 SWAP2 POP POP JUMP JUMPDEST PUSH0 PUSH1 0x20 DUP3 ADD SWAP1 POP SWAP2 SWAP1 POP JUMP JUMPDEST PUSH0 PUSH2 0xF03 DUP3 PUSH2 0xBF1 JUMP JUMPDEST PUSH2 0xF0D DUP2 DUP6 PUSH2 0xBFB JUMP JUMPDEST SWAP4 POP DUP4 PUSH1 0x20 DUP3 MUL DUP6 ADD PUSH2 0xF1F DUP6 PUSH2 0xC0B JUMP JUMPDEST DUP1 PUSH0 JUMPDEST DUP6 DUP2 LT ISZERO PUSH2 0xF5A JUMPI DUP5 DUP5 SUB DUP10 MSTORE DUP2 MLOAD PUSH2 0xF3B DUP6 DUP3 PUSH2 0xEDA JUMP JUMPDEST SWAP5 POP PUSH2 0xF46 DUP4 PUSH2 0xEED JUMP JUMPDEST SWAP3 POP PUSH1 0x20 DUP11 ADD SWAP10 POP POP PUSH1 0x1 DUP2 ADD SWAP1 POP PUSH2 0xF22 JUMP JUMPDEST POP DUP3 SWAP8 POP DUP8 SWAP6 POP POP POP POP POP POP SWAP3 SWAP2 POP POP JUMP JUMPDEST PUSH0 PUSH1 0x20 DUP3 ADD SWAP1 POP DUP2 DUP2 SUB PUSH0 DUP4 ADD MSTORE PUSH2 0xF84 DUP2 DUP5 PUSH2 0xEF9 JUMP JUMPDEST SWAP1 POP SWAP3 SWAP2 POP POP JUMP JUMPDEST PUSH2 0xF95 DUP2 PUSH2 0xC8A JUMP JUMPDEST DUP3 MSTORE POP POP JUMP JUMPDEST PUSH0 PUSH1 0x20 DUP3 ADD SWAP1 POP PUSH2 0xFAE PUSH0 DUP4 ADD DUP5 PUSH2 0xF8C JUMP JUMPDEST SWAP3 SWAP2 POP POP JUMP JUMPDEST PUSH0 PUSH20 0xFFFFFFFFFFFFFFFFFFFFFFFFFFFFFFFFFFFFFFFF DUP3 AND SWAP1 POP SWAP2 SWAP1 POP JUMP JUMPDEST PUSH0 PUSH2 0xFDD DUP3 PUSH2 0xFB4 JUMP JUMPDEST SWAP1 POP SWAP2 SWAP1 POP JUMP JUMPDEST PUSH2 0xFED DUP2 PUSH2 0xFD3 JUMP JUMPDEST DUP3 MSTORE POP POP JUMP JUMPDEST PUSH0 PUSH1 0x20 DUP3 ADD SWAP1 POP PUSH2 0x1006 PUSH0 DUP4 ADD DUP5 PUSH2 0xFE4 JUMP JUMPDEST SWAP3 SWAP2 POP POP JUMP JUMPDEST PUSH0 PUSH1 0x40 MLOAD SWAP1 POP SWAP1 JUMP JUMPDEST PUSH0 PUSH0 REVERT JUMPDEST PUSH0 PUSH0 REVERT JUMPDEST PUSH0 PUSH0 REVERT JUMPDEST PUSH0 PUSH2 0x220 DUP3 DUP5 SUB SLT ISZERO PUSH2 0x1037 JUMPI PUSH2 0x1036 PUSH2 0x101D JUMP JUMPDEST JUMPDEST DUP2 SWAP1 POP SWAP3 SWAP2 POP POP JUMP JUMPDEST PUSH0 PUSH1 0x20 DUP3 DUP5 SUB SLT ISZERO PUSH2 0x1055 JUMPI PUSH2 0x1054 PUSH2 0x1015 JUMP JUMPDEST JUMPDEST PUSH0 DUP3 ADD CALLDATALOAD PUSH8 0xFFFFFFFFFFFFFFFF DUP2 GT ISZERO PUSH2 0x1072 JUMPI PUSH2 0x1071 PUSH2 0x1019 JUMP JUMPDEST JUMPDEST PUSH2 0x107E DUP5 DUP3 DUP6 ADD PUSH2 0x1021 JUMP JUMPDEST SWAP2 POP POP SWAP3 SWAP2 POP POP JUMP JUMPDEST PUSH32 0x4E487B7100000000000000000000000000000000000000000000000000000000 PUSH0 MSTORE PUSH1 0x22 PUSH1 0x4 MSTORE PUSH1 0x24 PUSH0 REVERT JUMPDEST PUSH0 PUSH1 0x2 DUP3 DIV SWAP1 POP PUSH1 0x1 DUP3 AND DUP1 PUSH2 0x10CB JUMPI PUSH1 0x7F DUP3 AND SWAP2 POP JUMPDEST PUSH1 0x20 DUP3 LT DUP2 SUB PUSH2 0x10DE JUMPI PUSH2 0x10DD PUSH2 0x1087 JUMP JUMPDEST JUMPDEST POP SWAP2 SWAP1 POP JUMP JUMPDEST PUSH32 0x4E487B7100000000000000000000000000000000000000000000000000000000 PUSH0 MSTORE PUSH1 0x11 PUSH1 0x4 MSTORE PUSH1 0x24 PUSH0 REVERT JUMPDEST PUSH0 PUSH2 0x111B DUP3 PUSH2 0xC8A JUMP JUMPDEST SWAP2 POP PUSH2 0x1126 DUP4 PUSH2 0xC8A JUMP JUMPDEST SWAP3 POP DUP3 DUP3 MUL PUSH2 0x1134 DUP2 PUSH2 0xC8A JUMP JUMPDEST SWAP2 POP DUP3 DUP3 DIV DUP5 EQ DUP4 ISZERO OR PUSH2 0x114B JUMPI PUSH2 0x114A PUSH2 0x10E4 JUMP JUMPDEST JUMPDEST POP SWAP3 SWAP2 POP POP JUMP JUMPDEST PUSH0 PUSH0 REVERT JUMPDEST PUSH0 PUSH0 REVERT JUMPDEST PUSH0 PUSH0 REVERT JUMPDEST PUSH0 PUSH0 DUP4 CALLDATALOAD PUSH1 0x1 PUSH1 0x20 SUB DUP5 CALLDATASIZE SUB SUB DUP2 SLT PUSH2 0x117A JUMPI PUSH2 0x1179 PUSH2 0x1152 JUMP JUMPDEST JUMPDEST DUP1 DUP5 ADD SWAP3 POP DUP3 CALLDATALOAD SWAP2 POP PUSH8 0xFFFFFFFFFFFFFFFF DUP3 GT ISZERO PUSH2 0x119C JUMPI PUSH2 0x119B PUSH2 0x1156 JUMP JUMPDEST JUMPDEST PUSH1 0x20 DUP4 ADD SWAP3 POP PUSH1 0x1 DUP3 MUL CALLDATASIZE SUB DUP4 SGT ISZERO PUSH2 0x11B8 JUMPI PUSH2 0x11B7 PUSH2 0x115A JUMP JUMPDEST JUMPDEST POP SWAP3 POP SWAP3 SWAP1 POP JUMP JUMPDEST PUSH0 PUSH0 REVERT JUMPDEST PUSH32 0x4E487B7100000000000000000000000000000000000000000000000000000000 PUSH0 MSTORE PUSH1 0x41 PUSH1 0x4 MSTORE PUSH1 0x24 PUSH0 REVERT JUMPDEST PUSH2 0x11FA DUP3 PUSH2 0xC42 JUMP JUMPDEST DUP2 ADD DUP2 DUP2 LT PUSH8 0xFFFFFFFFFFFFFFFF DUP3 GT OR ISZERO PUSH2 0x1219 JUMPI PUSH2 0x1218 PUSH2 0x11C4 JUMP JUMPDEST JUMPDEST DUP1 PUSH1 0x40 MSTORE POP POP POP JUMP JUMPDEST PUSH0 PUSH2 0x122B PUSH2 0x100C JUMP JUMPDEST SWAP1 POP PUSH2 0x1237 DUP3 DUP3 PUSH2 0x11F1 JUMP JUMPDEST SWAP2 SWAP1 POP JUMP JUMPDEST PUSH0 PUSH0 REVERT JUMPDEST PUSH2 0x1249 DUP2 PUSH2 0xC8A JUMP JUMPDEST DUP2 EQ PUSH2 0x1253 JUMPI PUSH0 PUSH0 REVERT JUMPDEST POP JUMP JUMPDEST PUSH0 DUP2 CALLDATALOAD SWAP1 POP PUSH2 0x1264 DUP2 PUSH2 0x1240 JUMP JUMPDEST SWAP3 SWAP2 POP POP JUMP JUMPDEST PUSH0 PUSH0 REVERT JUMPDEST PUSH0 PUSH0 REVERT JUMPDEST PUSH0 PUSH8 0xFFFFFFFFFFFFFFFF DUP3 GT ISZERO PUSH2 0x128C JUMPI PUSH2 0x128B PUSH2 0x11C4 JUMP JUMPDEST JUMPDEST PUSH2 0x1295 DUP3 PUSH2 0xC42 JUMP JUMPDEST SWAP1 POP PUSH1 0x20 DUP2 ADD SWAP1 POP SWAP2 SWAP1 POP JUMP JUMPDEST DUP3 DUP2 DUP4 CALLDATACOPY PUSH0 DUP4 DUP4 ADD MSTORE POP POP POP JUMP JUMPDEST PUSH0 PUSH2 0x12C2 PUSH2 0x12BD DUP5 PUSH2 0x1272 JUMP JUMPDEST PUSH2 0x1222 JUMP JUMPDEST SWAP1 POP DUP3 DUP2 MSTORE PUSH1 0x20 DUP2 ADD DUP5 DUP5 DUP5 ADD GT ISZERO PUSH2 0x12DE JUMPI PUSH2 0x12DD PUSH2 0x126E JUMP JUMPDEST JUMPDEST PUSH2 0x12E9 DUP5 DUP3 DUP6 PUSH2 0x12A2 JUMP JUMPDEST POP SWAP4 SWAP3 POP POP POP JUMP JUMPDEST PUSH0 DUP3 PUSH1 0x1F DUP4 ADD SLT PUSH2 0x1305 JUMPI PUSH2 0x1304 PUSH2 0x126A JUMP JUMPDEST JUMPDEST DUP2 CALLDATALOAD PUSH2 0x1315 DUP5 DUP3 PUSH1 0x20 DUP7 ADD PUSH2 0x12B0 JUMP JUMPDEST SWAP2 POP POP SWAP3 SWAP2 POP POP JUMP JUMPDEST PUSH2 0x1327 DUP2 PUSH2 0xCA2 JUMP JUMPDEST DUP2 EQ PUSH2 0x1331 JUMPI PUSH0 PUSH0 REVERT JUMPDEST POP JUMP JUMPDEST PUSH0 DUP2 CALLDATALOAD SWAP1 POP PUSH2 0x1342 DUP2 PUSH2 0x131E JUMP JUMPDEST SWAP3 SWAP2 POP POP JUMP JUMPDEST PUSH0 PUSH2 0x220 DUP3 DUP5 SUB SLT ISZERO PUSH2 0x135E JUMPI PUSH2 0x135D PUSH2 0x11C0 JUMP JUMPDEST JUMPDEST PUSH2 0x1369 PUSH2 0x220 PUSH2 0x1222 JUMP JUMPDEST SWAP1 POP PUSH0 PUSH2 0x1378 DUP5 DUP3 DUP6 ADD PUSH2 0x1256 JUMP JUMPDEST PUSH0 DUP4 ADD MSTORE POP PUSH1 0x20 PUSH2 0x138B DUP5 DUP3 DUP6 ADD PUSH2 0x1256 JUMP JUMPDEST PUSH1 0x20 DUP4 ADD MSTORE POP PUSH1 0x40 DUP3 ADD CALLDATALOAD PUSH8 0xFFFFFFFFFFFFFFFF DUP2 GT ISZERO PUSH2 0x13AF JUMPI PUSH2 0x13AE PUSH2 0x123C JUMP JUMPDEST JUMPDEST PUSH2 0x13BB DUP5 DUP3 DUP6 ADD PUSH2 0x12F1 JUMP JUMPDEST PUSH1 0x40 DUP4 ADD MSTORE POP PUSH1 0x60 DUP3 ADD CALLDATALOAD PUSH8 0xFFFFFFFFFFFFFFFF DUP2 GT ISZERO PUSH2 0x13DF JUMPI PUSH2 0x13DE PUSH2 0x123C JUMP JUMPDEST JUMPDEST PUSH2 0x13EB DUP5 DUP3 DUP6 ADD PUSH2 0x12F1 JUMP JUMPDEST PUSH1 0x60 DUP4 ADD MSTORE POP PUSH1 0x80 PUSH2 0x13FF DUP5 DUP3 DUP6 ADD PUSH2 0x1256 JUMP JUMPDEST PUSH1 0x80 DUP4 ADD MSTORE POP PUSH1 0xA0 PUSH2 0x1413 DUP5 DUP3 DUP6 ADD PUSH2 0x1256 JUMP JUMPDEST PUSH1 0xA0 DUP4 ADD MSTORE POP PUSH1 0xC0 DUP3 ADD CALLDATALOAD PUSH8 0xFFFFFFFFFFFFFFFF DUP2 GT ISZERO PUSH2 0x1437 JUMPI PUSH2 0x1436 PUSH2 0x123C JUMP JUMPDEST JUMPDEST PUSH2 0x1443 DUP5 DUP3 DUP6 ADD PUSH2 0x12F1 JUMP JUMPDEST PUSH1 0xC0 DUP4 ADD MSTORE POP PUSH1 0xE0 DUP3 ADD CALLDATALOAD PUSH8 0xFFFFFFFFFFFFFFFF DUP2 GT ISZERO PUSH2 0x1467 JUMPI PUSH2 0x1466 PUSH2 0x123C JUMP JUMPDEST JUMPDEST PUSH2 0x1473 DUP5 DUP3 DUP6 ADD PUSH2 0x12F1 JUMP JUMPDEST PUSH1 0xE0 DUP4 ADD MSTORE POP PUSH2 0x100 DUP3 ADD CALLDATALOAD PUSH8 0xFFFFFFFFFFFFFFFF DUP2 GT ISZERO PUSH2 0x1498 JUMPI PUSH2 0x1497 PUSH2 0x123C JUMP JUMPDEST JUMPDEST PUSH2 0x14A4 DUP5 DUP3 DUP6 ADD PUSH2 0x12F1 JUMP JUMPDEST PUSH2 0x100 DUP4 ADD MSTORE POP PUSH2 0x120 DUP3 ADD CALLDATALOAD PUSH8 0xFFFFFFFFFFFFFFFF DUP2 GT ISZERO PUSH2 0x14CA JUMPI PUSH2 0x14C9 PUSH2 0x123C JUMP JUMPDEST JUMPDEST PUSH2 0x14D6 DUP5 DUP3 DUP6 ADD PUSH2 0x12F1 JUMP JUMPDEST PUSH2 0x120 DUP4 ADD MSTORE POP PUSH2 0x140 DUP3 ADD CALLDATALOAD PUSH8 0xFFFFFFFFFFFFFFFF DUP2 GT ISZERO PUSH2 0x14FC JUMPI PUSH2 0x14FB PUSH2 0x123C JUMP JUMPDEST JUMPDEST PUSH2 0x1508 DUP5 DUP3 DUP6 ADD PUSH2 0x12F1 JUMP JUMPDEST PUSH2 0x140 DUP4 ADD MSTORE POP PUSH2 0x160 PUSH2 0x151E DUP5 DUP3 DUP6 ADD PUSH2 0x1256 JUMP JUMPDEST PUSH2 0x160 DUP4 ADD MSTORE POP PUSH2 0x180 PUSH2 0x1534 DUP5 DUP3 DUP6 ADD PUSH2 0x1334 JUMP JUMPDEST PUSH2 0x180 DUP4 ADD MSTORE POP PUSH2 0x1A0 DUP3 ADD CALLDATALOAD PUSH8 0xFFFFFFFFFFFFFFFF DUP2 GT ISZERO PUSH2 0x155A JUMPI PUSH2 0x1559 PUSH2 0x123C JUMP JUMPDEST JUMPDEST PUSH2 0x1566 DUP5 DUP3 DUP6 ADD PUSH2 0x12F1 JUMP JUMPDEST PUSH2 0x1A0 DUP4 ADD MSTORE POP PUSH2 0x1C0 DUP3 ADD CALLDATALOAD PUSH8 0xFFFFFFFFFFFFFFFF DUP2 GT ISZERO PUSH2 0x158C JUMPI PUSH2 0x158B PUSH2 0x123C JUMP JUMPDEST JUMPDEST PUSH2 0x1598 DUP5 DUP3 DUP6 ADD PUSH2 0x12F1 JUMP JUMPDEST PUSH2 0x1C0 DUP4 ADD MSTORE POP PUSH2 0x1E0 DUP3 ADD CALLDATALOAD PUSH8 0xFFFFFFFFFFFFFFFF DUP2 GT ISZERO PUSH2 0x15BE JUMPI PUSH2 0x15BD PUSH2 0x123C JUMP JUMPDEST JUMPDEST PUSH2 0x15CA DUP5 DUP3 DUP6 ADD PUSH2 0x12F1 JUMP JUMPDEST PUSH2 0x1E0 DUP4 ADD MSTORE POP PUSH2 0x200 DUP3 ADD CALLDATALOAD PUSH8 0xFFFFFFFFFFFFFFFF DUP2 GT ISZERO PUSH2 0x15F0 JUMPI PUSH2 0x15EF PUSH2 0x123C JUMP JUMPDEST JUMPDEST PUSH2 0x15FC DUP5 DUP3 DUP6 ADD PUSH2 0x12F1 JUMP JUMPDEST PUSH2 0x200 DUP4 ADD MSTORE POP SWAP3 SWAP2 POP POP JUMP JUMPDEST PUSH0 PUSH2 0x1614 CALLDATASIZE DUP4 PUSH2 0x1348 JUMP JUMPDEST SWAP1 POP SWAP2 SWAP1 POP JUMP JUMPDEST PUSH0 DUP2 SWAP1 POP DUP2 PUSH0 MSTORE PUSH1 0x20 PUSH0 KECCAK256 SWAP1 POP SWAP2 SWAP1 POP JUMP JUMPDEST PUSH0 PUSH1 0x20 PUSH1 0x1F DUP4 ADD DIV SWAP1 POP SWAP2 SWAP1 POP JUMP JUMPDEST PUSH0 DUP3 DUP3 SHL SWAP1 POP SWAP3 SWAP2 POP POP JUMP JUMPDEST PUSH0 PUSH1 0x8 DUP4 MUL PUSH2 0x1677 PUSH32 0xFFFFFFFFFFFFFFFFFFFFFFFFFFFFFFFFFFFFFFFFFFFFFFFFFFFFFFFFFFFFFFFF DUP3 PUSH2 0x163C JUMP JUMPDEST PUSH2 0x1681 DUP7 DUP4 PUSH2 0x163C JUMP JUMPDEST SWAP6 POP DUP1 NOT DUP5 AND SWAP4 POP DUP1 DUP7 AND DUP5 OR SWAP3 POP POP POP SWAP4 SWAP3 POP POP POP JUMP JUMPDEST PUSH0 DUP2 SWAP1 POP SWAP2 SWAP1 POP JUMP JUMPDEST PUSH0 PUSH2 0x16BC PUSH2 0x16B7 PUSH2 0x16B2 DUP5 PUSH2 0xC8A JUMP JUMPDEST PUSH2 0x1699 JUMP JUMPDEST PUSH2 0xC8A JUMP JUMPDEST SWAP1 POP SWAP2 SWAP1 POP JUMP JUMPDEST PUSH0 DUP2 SWAP1 POP SWAP2 SWAP1 POP JUMP JUMPDEST PUSH2 0x16D5 DUP4 PUSH2 0x16A2 JUMP JUMPDEST PUSH2 0x16E9 PUSH2 0x16E1 DUP3 PUSH2 0x16C3 JUMP JUMPDEST DUP5 DUP5 SLOAD PUSH2 0x1648 JUMP JUMPDEST DUP3 SSTORE POP POP POP POP JUMP JUMPDEST PUSH0 PUSH0 SWAP1 POP SWAP1 JUMP JUMPDEST PUSH2 0x1700 PUSH2 0x16F1 JUMP JUMPDEST PUSH2 0x170B DUP2 DUP5 DUP5 PUSH2 0x16CC JUMP JUMPDEST POP POP POP JUMP JUMPDEST JUMPDEST DUP2 DUP2 LT ISZERO PUSH2 0x172E JUMPI PUSH2 0x1723 PUSH0 DUP3 PUSH2 0x16F8 JUMP JUMPDEST PUSH1 0x1 DUP2 ADD SWAP1 POP PUSH2 0x1711 JUMP JUMPDEST POP POP JUMP JUMPDEST PUSH1 0x1F DUP3 GT ISZERO PUSH2 0x1773 JUMPI PUSH2 0x1744 DUP2 PUSH2 0x161B JUMP JUMPDEST PUSH2 0x174D DUP5 PUSH2 0x162D JUMP JUMPDEST DUP2 ADD PUSH1 0x20 DUP6 LT ISZERO PUSH2 0x175C JUMPI DUP2 SWAP1 POP JUMPDEST PUSH2 0x1770 PUSH2 0x1768 DUP6 PUSH2 0x162D JUMP JUMPDEST DUP4 ADD DUP3 PUSH2 0x1710 JUMP JUMPDEST POP POP JUMPDEST POP POP POP JUMP JUMPDEST PUSH0 DUP3 DUP3 SHR SWAP1 POP SWAP3 SWAP2 POP POP JUMP JUMPDEST PUSH0 PUSH2 0x1793 PUSH0 NOT DUP5 PUSH1 0x8 MUL PUSH2 0x1778 JUMP JUMPDEST NOT DUP1 DUP4 AND SWAP2 POP POP SWAP3 SWAP2 POP POP JUMP JUMPDEST PUSH0 PUSH2 0x17AB DUP4 DUP4 PUSH2 0x1784 JUMP JUMPDEST SWAP2 POP DUP3 PUSH1 0x2 MUL DUP3 OR SWAP1 POP SWAP3 SWAP2 POP POP JUMP JUMPDEST PUSH2 0x17C4 DUP3 PUSH2 0xC1A JUMP JUMPDEST PUSH8 0xFFFFFFFFFFFFFFFF DUP2 GT ISZERO PUSH2 0x17DD JUMPI PUSH2 0x17DC PUSH2 0x11C4 JUMP JUMPDEST JUMPDEST PUSH2 0x17E7 DUP3 SLOAD PUSH2 0x10B4 JUMP JUMPDEST PUSH2 0x17F2 DUP3 DUP3 DUP6 PUSH2 0x1732 JUMP JUMPDEST PUSH0 PUSH1 0x20 SWAP1 POP PUSH1 0x1F DUP4 GT PUSH1 0x1 DUP2 EQ PUSH2 0x1823 JUMPI PUSH0 DUP5 ISZERO PUSH2 0x1811 JUMPI DUP3 DUP8 ADD MLOAD SWAP1 POP JUMPDEST PUSH2 0x181B DUP6 DUP3 PUSH2 0x17A0 JUMP JUMPDEST DUP7 SSTORE POP PUSH2 0x1882 JUMP JUMPDEST PUSH1 0x1F NOT DUP5 AND PUSH2 0x1831 DUP7 PUSH2 0x161B JUMP JUMPDEST PUSH0 JUMPDEST DUP3 DUP2 LT ISZERO PUSH2 0x1858 JUMPI DUP5 DUP10 ADD MLOAD DUP3 SSTORE PUSH1 0x1 DUP3 ADD SWAP2 POP PUSH1 0x20 DUP6 ADD SWAP5 POP PUSH1 0x20 DUP2 ADD SWAP1 POP PUSH2 0x1833 JUMP JUMPDEST DUP7 DUP4 LT ISZERO PUSH2 0x1875 JUMPI DUP5 DUP10 ADD MLOAD PUSH2 0x1871 PUSH1 0x1F DUP10 AND DUP3 PUSH2 0x1784 JUMP JUMPDEST DUP4 SSTORE POP JUMPDEST PUSH1 0x1 PUSH1 0x2 DUP9 MUL ADD DUP9 SSTORE POP POP POP JUMPDEST POP POP POP POP POP POP JUMP JUMPDEST PUSH0 DUP3 DUP3 MSTORE PUSH1 0x20 DUP3 ADD SWAP1 POP SWAP3 SWAP2 POP POP JUMP JUMPDEST PUSH0 PUSH2 0x18A5 DUP4 DUP6 PUSH2 0x188A JUMP JUMPDEST SWAP4 POP PUSH2 0x18B2 DUP4 DUP6 DUP5 PUSH2 0x12A2 JUMP JUMPDEST PUSH2 0x18BB DUP4 PUSH2 0xC42 JUMP JUMPDEST DUP5 ADD SWAP1 POP SWAP4 SWAP3 POP POP POP JUMP JUMPDEST PUSH0 PUSH1 0x80 DUP3 ADD SWAP1 POP PUSH2 0x18D9 PUSH0 DUP4 ADD DUP11 PUSH2 0xF8C JUMP JUMPDEST DUP2 DUP2 SUB PUSH1 0x20 DUP4 ADD MSTORE PUSH2 0x18EC DUP2 DUP9 DUP11 PUSH2 0x189A JUMP JUMPDEST SWAP1 POP DUP2 DUP2 SUB PUSH1 0x40 DUP4 ADD MSTORE PUSH2 0x1901 DUP2 DUP7 DUP9 PUSH2 0x189A JUMP JUMPDEST SWAP1 POP DUP2 DUP2 SUB PUSH1 0x60 DUP4 ADD MSTORE PUSH2 0x1916 DUP2 DUP5 DUP7 PUSH2 0x189A JUMP JUMPDEST SWAP1 POP SWAP9 SWAP8 POP POP POP POP POP POP POP POP JUMP INVALID LOG2 PUSH5 0x6970667358 0x22 SLT KECCAK256 DUP9 SWAP3 ADD GT SLOAD DUP10 0xD8 SMOD 0xC1 0xB6 0x24 SHR PUSH17 0xC8D09D4B5333D16D6DA1B04A754009C954 PUSH7 0x964736F6C6343 STOP ADDMOD 0x1E STOP CALLER LOG2 PUSH5 0x6970667358 0x22 SLT KECCAK256 EXTCODESIZE SSTORE EXP DUP1 PUSH22 0xAFEFB3AF3DCFF35DF34CCEF633349E0ADF5DA49C0ED7 PUSH11 0x95DC2AB64736F6C634300 ADDMOD 0x1E STOP CALLER "
		},
		"gasEstimates": {
			"creation": {
				"codeDepositCost": "3051200",
				"executionCost": "3355",
				"totalCost": "3054555"
			},
			"external": {
				"addKline((uint256,uint256,string,string,uint256,uint256,string,string,string,string,string,uint256,bool,string,string,string,string),uint64)": "infinite",
				"getAllklineInTime(string,string,uint64)": "infinite",
				"getLengthKline(string,string,uint64)": "infinite",
				"getTimeKey(uint8,uint64)": "infinite",
				"parseInterval(string)": "infinite",
				"storages(bytes32,uint8,uint64)": "3277"
			}
		},
		"methodIdentifiers": {
			"addKline((uint256,uint256,string,string,uint256,uint256,string,string,string,string,string,uint256,bool,string,string,string,string),uint64)": "8235aac3",
			"getAllklineInTime(string,string,uint64)": "41356339",
			"getLengthKline(string,string,uint64)": "256d106e",
			"getTimeKey(uint8,uint64)": "8d412ad2",
			"parseInterval(string)": "93faa992",
			"storages(bytes32,uint8,uint64)": "5b3cb9d4"
		}
	},
	"abi": [
		{
			"anonymous": false,
			"inputs": [
				{
					"indexed": false,
					"internalType": "uint256",
					"name": "key",
					"type": "uint256"
				},
				{
					"indexed": false,
					"internalType": "address",
					"name": "contractAddress",
					"type": "address"
				}
			],
			"name": "KlineContractCreated",
			"type": "event"
		},
		{
			"anonymous": false,
			"inputs": [
				{
					"indexed": false,
					"internalType": "string",
					"name": "symbol",
					"type": "string"
				},
				{
					"indexed": false,
					"internalType": "string",
					"name": "interval",
					"type": "string"
				},
				{
					"indexed": false,
					"internalType": "uint64",
					"name": "timeKey",
					"type": "uint64"
				},
				{
					"indexed": false,
					"internalType": "address",
					"name": "storageAddress",
					"type": "address"
				}
			],
			"name": "ShardCreated",
			"type": "event"
		},
		{
			"inputs": [
				{
					"components": [
						{
							"internalType": "uint256",
							"name": "t",
							"type": "uint256"
						},
						{
							"internalType": "uint256",
							"name": "T",
							"type": "uint256"
						},
						{
							"internalType": "string",
							"name": "s",
							"type": "string"
						},
						{
							"internalType": "string",
							"name": "i",
							"type": "string"
						},
						{
							"internalType": "uint256",
							"name": "f",
							"type": "uint256"
						},
						{
							"internalType": "uint256",
							"name": "L",
							"type": "uint256"
						},
						{
							"internalType": "string",
							"name": "o",
							"type": "string"
						},
						{
							"internalType": "string",
							"name": "c",
							"type": "string"
						},
						{
							"internalType": "string",
							"name": "h",
							"type": "string"
						},
						{
							"internalType": "string",
							"name": "l",
							"type": "string"
						},
						{
							"internalType": "string",
							"name": "v",
							"type": "string"
						},
						{
							"internalType": "uint256",
							"name": "n",
							"type": "uint256"
						},
						{
							"internalType": "bool",
							"name": "x",
							"type": "bool"
						},
						{
							"internalType": "string",
							"name": "q",
							"type": "string"
						},
						{
							"internalType": "string",
							"name": "V",
							"type": "string"
						},
						{
							"internalType": "string",
							"name": "Q",
							"type": "string"
						},
						{
							"internalType": "string",
							"name": "B",
							"type": "string"
						}
					],
					"internalType": "struct KlineRecord",
					"name": "record",
					"type": "tuple"
				},
				{
					"internalType": "uint64",
					"name": "timestamp",
					"type": "uint64"
				}
			],
			"name": "addKline",
			"outputs": [],
			"stateMutability": "nonpayable",
			"type": "function"
		},
		{
			"inputs": [
				{
					"internalType": "string",
					"name": "_symbol",
					"type": "string"
				},
				{
					"internalType": "string",
					"name": "_interval",
					"type": "string"
				},
				{
					"internalType": "uint64",
					"name": "timestime",
					"type": "uint64"
				}
			],
			"name": "getAllklineInTime",
			"outputs": [
				{
					"components": [
						{
							"internalType": "string",
							"name": "e",
							"type": "string"
						},
						{
							"internalType": "uint256",
							"name": "E",
							"type": "uint256"
						},
						{
							"internalType": "string",
							"name": "s",
							"type": "string"
						},
						{
							"components": [
								{
									"internalType": "uint256",
									"name": "t",
									"type": "uint256"
								},
								{
									"internalType": "uint256",
									"name": "T",
									"type": "uint256"
								},
								{
									"internalType": "string",
									"name": "s",
									"type": "string"
								},
								{
									"internalType": "string",
									"name": "i",
									"type": "string"
								},
								{
									"internalType": "uint256",
									"name": "f",
									"type": "uint256"
								},
								{
									"internalType": "uint256",
									"name": "L",
									"type": "uint256"
								},
								{
									"internalType": "string",
									"name": "o",
									"type": "string"
								},
								{
									"internalType": "string",
									"name": "c",
									"type": "string"
								},
								{
									"internalType": "string",
									"name": "h",
									"type": "string"
								},
								{
									"internalType": "string",
									"name": "l",
									"type": "string"
								},
								{
									"internalType": "string",
									"name": "v",
									"type": "string"
								},
								{
									"internalType": "uint256",
									"name": "n",
									"type": "uint256"
								},
								{
									"internalType": "bool",
									"name": "x",
									"type": "bool"
								},
								{
									"internalType": "string",
									"name": "q",
									"type": "string"
								},
								{
									"internalType": "string",
									"name": "V",
									"type": "string"
								},
								{
									"internalType": "string",
									"name": "Q",
									"type": "string"
								},
								{
									"internalType": "string",
									"name": "B",
									"type": "string"
								}
							],
							"internalType": "struct KlineRecord",
							"name": "k",
							"type": "tuple"
						}
					],
					"internalType": "struct KlineResponse[]",
					"name": "",
					"type": "tuple[]"
				}
			],
			"stateMutability": "view",
			"type": "function"
		},
		{
			"inputs": [
				{
					"internalType": "string",
					"name": "_symbol",
					"type": "string"
				},
				{
					"internalType": "string",
					"name": "_interval",
					"type": "string"
				},
				{
					"internalType": "uint64",
					"name": "timestime",
					"type": "uint64"
				}
			],
			"name": "getLengthKline",
			"outputs": [
				{
					"internalType": "uint256",
					"name": "",
					"type": "uint256"
				}
			],
			"stateMutability": "view",
			"type": "function"
		},
		{
			"inputs": [
				{
					"internalType": "enum Interval",
					"name": "",
					"type": "uint8"
				},
				{
					"internalType": "uint64",
					"name": "timestamp",
					"type": "uint64"
				}
			],
			"name": "getTimeKey",
			"outputs": [
				{
					"internalType": "uint64",
					"name": "",
					"type": "uint64"
				}
			],
			"stateMutability": "pure",
			"type": "function"
		},
		{
			"inputs": [
				{
					"internalType": "string",
					"name": "s",
					"type": "string"
				}
			],
			"name": "parseInterval",
			"outputs": [
				{
					"internalType": "enum Interval",
					"name": "",
					"type": "uint8"
				}
			],
			"stateMutability": "pure",
			"type": "function"
		},
		{
			"inputs": [
				{
					"internalType": "bytes32",
					"name": "",
					"type": "bytes32"
				},
				{
					"internalType": "enum Interval",
					"name": "",
					"type": "uint8"
				},
				{
					"internalType": "uint64",
					"name": "",
					"type": "uint64"
				}
			],
			"name": "storages",
			"outputs": [
				{
					"internalType": "address",
					"name": "",
					"type": "address"
				}
			],
			"stateMutability": "view",
			"type": "function"
		}
	]
}