{
	"data": {
		"bytecode": {
			"linkReferences": {},
			"object": "6080604052348015600e575f5ffd5b50613c5c8061001c5f395ff3fe608060405234801561000f575f5ffd5b506004361061004a575f3560e01c8063256d106e1461004e578063413563391461007e5780635b3cb9d4146100ae5780636a78b280146100de575b5f5ffd5b61006860048036038101906100639190610de4565b6100fa565b6040516100759190610e84565b60405180910390f35b61009860048036038101906100939190610de4565b6102af565b6040516100a5919061120e565b60405180910390f35b6100c860048036038101906100c39190611284565b610468565b6040516100d59190611313565b60405180910390f35b6100f860048036038101906100f39190611649565b6104af565b005b5f5f610105846107c6565b90505f8560405160200161011991906116dd565b6040516020818303038152906040528051906020012090505f61013c8386610b40565b90505f5f5f8481526020019081526020015f205f85600f811115610163576101626116f3565b5b600f811115610175576101746116f3565b5b81526020019081526020015f205f8367ffffffffffffffff1667ffffffffffffffff1681526020019081526020015f205f9054906101000a900473ffffffffffffffffffffffffffffffffffffffff1690505f73ffffffffffffffffffffffffffffffffffffffff168173ffffffffffffffffffffffffffffffffffffffff1603610235576040517f08c379a000000000000000000000000000000000000000000000000000000000815260040161022c9061177a565b60405180910390fd5b8073ffffffffffffffffffffffffffffffffffffffff1663be1c766b6040518163ffffffff1660e01b8152600401602060405180830381865afa15801561027e573d5f5f3e3d5ffd5b505050506040513d601f19601f820116820180604052508101906102a291906117ac565b9450505050509392505050565b60605f6102bb846107c6565b90505f856040516020016102cf91906116dd565b6040516020818303038152906040528051906020012090505f6102f28386610b40565b90505f5f5f8481526020019081526020015f205f85600f811115610319576103186116f3565b5b600f81111561032b5761032a6116f3565b5b81526020019081526020015f205f8367ffffffffffffffff1667ffffffffffffffff1681526020019081526020015f205f9054906101000a900473ffffffffffffffffffffffffffffffffffffffff1690505f73ffffffffffffffffffffffffffffffffffffffff168173ffffffffffffffffffffffffffffffffffffffff16036103eb576040517f08c379a00000000000000000000000000000000000000000000000000000000081526004016103e29061177a565b60405180910390fd5b8073ffffffffffffffffffffffffffffffffffffffff166348cbad6e6040518163ffffffff1660e01b81526004015f60405180830381865afa158015610433573d5f5f3e3d5ffd5b505050506040513d5f823e3d601f19601f8201168201806040525081019061045b9190611cd9565b9450505050509392505050565b5f602052825f5260405f20602052815f5260405f20602052805f5260405f205f92509250509054906101000a900473ffffffffffffffffffffffffffffffffffffffff1681565b5f6104bd83606001516107c6565b90505f83604001516040516020016104d591906116dd565b6040516020818303038152906040528051906020012090505f6104f88385610b40565b90505f5f5f8481526020019081526020015f205f85600f81111561051f5761051e6116f3565b5b600f811115610531576105306116f3565b5b81526020019081526020015f205f8367ffffffffffffffff1667ffffffffffffffff1681526020019081526020015f205f9054906101000a900473ffffffffffffffffffffffffffffffffffffffff1690505f73ffffffffffffffffffffffffffffffffffffffff168173ffffffffffffffffffffffffffffffffffffffff1603610711576105ff6040518060400160405280601581526020017f4372656174696e67206e657720736861726420617400000000000000000000008152508367ffffffffffffffff16610b63565b60405161060b90610c43565b604051809103905ff080158015610624573d5f5f3e3d5ffd5b509050805f5f8581526020019081526020015f205f86600f81111561064c5761064b6116f3565b5b600f81111561065e5761065d6116f3565b5b81526020019081526020015f205f8467ffffffffffffffff1667ffffffffffffffff1681526020019081526020015f205f6101000a81548173ffffffffffffffffffffffffffffffffffffffff021916908373ffffffffffffffffffffffffffffffffffffffff1602179055507f2a9e82be7bc20784dcc707f4814ca404ac4a94db66450718f7733b160fb62d868660400151876060015184846040516107089493929190611d67565b60405180910390a15b8073ffffffffffffffffffffffffffffffffffffffff1663e2a77a4c876040518263ffffffff1660e01b815260040161074a9190611f68565b5f604051808303815f87803b158015610761575f5ffd5b505af1158015610773573d5f5f3e3d5ffd5b505050507f87e8b8309759ad52af1ac44b43236a412e35355e803ce31234b6a2ea6b296ccf865f015187602001518861018001516040516107b693929190611fd0565b60405180910390a1505050505050565b5f5f826040516020016107d991906116dd565b6040516020818303038152906040528051906020012090507f6c9308eeeb72aac61c6ee2086645ec6cf6638d86d97af7b81bcf4073f3b95dbc8103610821575f915050610b3b565b7f523a5c8a0f83a86997a616b324ae897d2fb6b3f5f68b3969331c12e0f00f9f258103610852576001915050610b3b565b7f2a3ff2dfa7bd33b0e77d014065236a2f104b389b776645fddb9e6a09eea014418103610883576002915050610b3b565b7ffca740c51a7536a1ff8f65314e26b24cee265d7626ad2e39318898f3d501ac2281036108b4576003915050610b3b565b7f53cad56a766a794bdc4fd49b262cd08fadf5c823f208fbf3f4efb377c206eaaa81036108e5576004915050610b3b565b7fe99007fd2e286840683bfbac2c1ea22a3b3c1592d603a9ae9aee29cf77e941a78103610916576005915050610b3b565b7f1125479f824fc31d0ce674b130e57a9dcfdf2d344ca1ef3fc8bf5bd50f9fcca98103610947576006915050610b3b565b7fa50f424f123435e4689c6436ce338980297ca65f2ee6b69a216f0561ee6cf4008103610978576007915050610b3b565b7f9a433cc5a6aee766b1bce0a7dc72ab7b4fd031108e0c5afea91382f1b1955fc981036109a9576008915050610b3b565b7fa0b83cfa5501e126ac29f6bf7a07bd17e2d97916947eed361748e8e0ab0aba4d81036109da576009915050610b3b565b7fe21ccd2715134877c589435a9c98deb14540fdf9e902afebf2163fe393e9c0738103610a0b57600a915050610b3b565b7f11108661a127316f8f74dc39a66520c8ec16719ed867ee768af67729ba3ec1d28103610a3c57600b915050610b3b565b7f7b2e5637de8d5670bd5be523fbccc1dfef88f0767eb2abf5ac4a81da61ae20028103610a6d57600c915050610b3b565b7f1cef0646e7fe7cb478d3a93d2e07774697c9239d0ee8b4294b768c91af329e668103610a9e57600d915050610b3b565b7f7cd5ba658b5dff64585bfcb0df7983749825e2292a4ff6daf96207e6eb100fe78103610acf57600e915050610b3b565b7fa390d73d5fd5e6a577d394328e26ce85589c6d8c382fba9150fb136bbbf31ff78103610b0057600f915050610b3b565b6040517f08c379a0000000000000000000000000000000000000000000000000000000008152600401610b329061204f565b60405180910390fd5b919050565b5f6236ee808083610b5191906120c7565b610b5b91906120f7565b905092915050565b610bfb8282604051602401610b79929190612133565b6040516020818303038152906040527fb60e72cc000000000000000000000000000000000000000000000000000000007bffffffffffffffffffffffffffffffffffffffffffffffffffffffff19166020820180517bffffffffffffffffffffffffffffffffffffffffffffffffffffffff8381831617835250505050610bff565b5050565b610c1681610c0e610c19610c38565b63ffffffff16565b50565b5f6a636f6e736f6c652e6c6f6790505f5f835160208501845afa505050565b610c50819050919050565b611a988061218f83390190565b610c58612161565b565b5f604051905090565b5f5ffd5b5f5ffd5b5f5ffd5b5f5ffd5b5f601f19601f8301169050919050565b7f4e487b71000000000000000000000000000000000000000000000000000000005f52604160045260245ffd5b610cb982610c73565b810181811067ffffffffffffffff82111715610cd857610cd7610c83565b5b80604052505050565b5f610cea610c5a565b9050610cf68282610cb0565b919050565b5f67ffffffffffffffff821115610d1557610d14610c83565b5b610d1e82610c73565b9050602081019050919050565b828183375f83830152505050565b5f610d4b610d4684610cfb565b610ce1565b905082815260208101848484011115610d6757610d66610c6f565b5b610d72848285610d2b565b509392505050565b5f82601f830112610d8e57610d8d610c6b565b5b8135610d9e848260208601610d39565b91505092915050565b5f67ffffffffffffffff82169050919050565b610dc381610da7565b8114610dcd575f5ffd5b50565b5f81359050610dde81610dba565b92915050565b5f5f5f60608486031215610dfb57610dfa610c63565b5b5f84013567ffffffffffffffff811115610e1857610e17610c67565b5b610e2486828701610d7a565b935050602084013567ffffffffffffffff811115610e4557610e44610c67565b5b610e5186828701610d7a565b9250506040610e6286828701610dd0565b9150509250925092565b5f819050919050565b610e7e81610e6c565b82525050565b5f602082019050610e975f830184610e75565b92915050565b5f81519050919050565b5f82825260208201905092915050565b5f819050602082019050919050565b5f81519050919050565b5f82825260208201905092915050565b8281835e5f83830152505050565b5f610ef882610ec6565b610f028185610ed0565b9350610f12818560208601610ee0565b610f1b81610c73565b840191505092915050565b610f2f81610e6c565b82525050565b610f3e81610da7565b82525050565b5f8115159050919050565b610f5881610f44565b82525050565b5f61022083015f830151610f745f860182610f35565b506020830151610f876020860182610f35565b5060408301518482036040860152610f9f8282610eee565b91505060608301518482036060860152610fb98282610eee565b9150506080830151610fce6080860182610f26565b5060a0830151610fe160a0860182610f26565b5060c083015184820360c0860152610ff98282610eee565b91505060e083015184820360e08601526110138282610eee565b91505061010083015184820361010086015261102f8282610eee565b91505061012083015184820361012086015261104b8282610eee565b9150506101408301518482036101408601526110678282610eee565b91505061016083015161107e610160860182610f26565b50610180830151611093610180860182610f4f565b506101a08301518482036101a08601526110ad8282610eee565b9150506101c08301518482036101c08601526110c98282610eee565b9150506101e08301518482036101e08601526110e58282610eee565b9150506102008301518482036102008601526111018282610eee565b9150508091505092915050565b5f608083015f8301518482035f8601526111288282610eee565b915050602083015161113d6020860182610f26565b50604083015184820360408601526111558282610eee565b9150506060830151848203606086015261116f8282610f5e565b9150508091505092915050565b5f611187838361110e565b905092915050565b5f602082019050919050565b5f6111a582610e9d565b6111af8185610ea7565b9350836020820285016111c185610eb7565b805f5b858110156111fc57848403895281516111dd858261117c565b94506111e88361118f565b925060208a019950506001810190506111c4565b50829750879550505050505092915050565b5f6020820190508181035f830152611226818461119b565b905092915050565b5f819050919050565b6112408161122e565b811461124a575f5ffd5b50565b5f8135905061125b81611237565b92915050565b6010811061126d575f5ffd5b50565b5f8135905061127e81611261565b92915050565b5f5f5f6060848603121561129b5761129a610c63565b5b5f6112a88682870161124d565b93505060206112b986828701611270565b92505060406112ca86828701610dd0565b9150509250925092565b5f73ffffffffffffffffffffffffffffffffffffffff82169050919050565b5f6112fd826112d4565b9050919050565b61130d816112f3565b82525050565b5f6020820190506113265f830184611304565b92915050565b5f5ffd5b5f5ffd5b61133d81610e6c565b8114611347575f5ffd5b50565b5f8135905061135881611334565b92915050565b61136781610f44565b8114611371575f5ffd5b50565b5f813590506113828161135e565b92915050565b5f610220828403121561139e5761139d61132c565b5b6113a9610220610ce1565b90505f6113b884828501610dd0565b5f8301525060206113cb84828501610dd0565b602083015250604082013567ffffffffffffffff8111156113ef576113ee611330565b5b6113fb84828501610d7a565b604083015250606082013567ffffffffffffffff81111561141f5761141e611330565b5b61142b84828501610d7a565b606083015250608061143f8482850161134a565b60808301525060a06114538482850161134a565b60a08301525060c082013567ffffffffffffffff81111561147757611476611330565b5b61148384828501610d7a565b60c08301525060e082013567ffffffffffffffff8111156114a7576114a6611330565b5b6114b384828501610d7a565b60e08301525061010082013567ffffffffffffffff8111156114d8576114d7611330565b5b6114e484828501610d7a565b6101008301525061012082013567ffffffffffffffff81111561150a57611509611330565b5b61151684828501610d7a565b6101208301525061014082013567ffffffffffffffff81111561153c5761153b611330565b5b61154884828501610d7a565b6101408301525061016061155e8482850161134a565b6101608301525061018061157484828501611374565b610180830152506101a082013567ffffffffffffffff81111561159a57611599611330565b5b6115a684828501610d7a565b6101a0830152506101c082013567ffffffffffffffff8111156115cc576115cb611330565b5b6115d884828501610d7a565b6101c0830152506101e082013567ffffffffffffffff8111156115fe576115fd611330565b5b61160a84828501610d7a565b6101e08301525061020082013567ffffffffffffffff8111156116305761162f611330565b5b61163c84828501610d7a565b6102008301525092915050565b5f5f6040838503121561165f5761165e610c63565b5b5f83013567ffffffffffffffff81111561167c5761167b610c67565b5b61168885828601611388565b925050602061169985828601610dd0565b9150509250929050565b5f81905092915050565b5f6116b782610ec6565b6116c181856116a3565b93506116d1818560208601610ee0565b80840191505092915050565b5f6116e882846116ad565b915081905092915050565b7f4e487b71000000000000000000000000000000000000000000000000000000005f52602160045260245ffd5b5f82825260208201905092915050565b7f41646472657373206973206e6f7420666f756e640000000000000000000000005f82015250565b5f611764601483611720565b915061176f82611730565b602082019050919050565b5f6020820190508181035f83015261179181611758565b9050919050565b5f815190506117a681611334565b92915050565b5f602082840312156117c1576117c0610c63565b5b5f6117ce84828501611798565b91505092915050565b5f67ffffffffffffffff8211156117f1576117f0610c83565b5b602082029050602081019050919050565b5f5ffd5b5f61181861181384610cfb565b610ce1565b90508281526020810184848401111561183457611833610c6f565b5b61183f848285610ee0565b509392505050565b5f82601f83011261185b5761185a610c6b565b5b815161186b848260208601611806565b91505092915050565b5f8151905061188281610dba565b92915050565b5f815190506118968161135e565b92915050565b5f61022082840312156118b2576118b161132c565b5b6118bd610220610ce1565b90505f6118cc84828501611874565b5f8301525060206118df84828501611874565b602083015250604082015167ffffffffffffffff81111561190357611902611330565b5b61190f84828501611847565b604083015250606082015167ffffffffffffffff81111561193357611932611330565b5b61193f84828501611847565b606083015250608061195384828501611798565b60808301525060a061196784828501611798565b60a08301525060c082015167ffffffffffffffff81111561198b5761198a611330565b5b61199784828501611847565b60c08301525060e082015167ffffffffffffffff8111156119bb576119ba611330565b5b6119c784828501611847565b60e08301525061010082015167ffffffffffffffff8111156119ec576119eb611330565b5b6119f884828501611847565b6101008301525061012082015167ffffffffffffffff811115611a1e57611a1d611330565b5b611a2a84828501611847565b6101208301525061014082015167ffffffffffffffff811115611a5057611a4f611330565b5b611a5c84828501611847565b61014083015250610160611a7284828501611798565b61016083015250610180611a8884828501611888565b610180830152506101a082015167ffffffffffffffff811115611aae57611aad611330565b5b611aba84828501611847565b6101a0830152506101c082015167ffffffffffffffff811115611ae057611adf611330565b5b611aec84828501611847565b6101c0830152506101e082015167ffffffffffffffff811115611b1257611b11611330565b5b611b1e84828501611847565b6101e08301525061020082015167ffffffffffffffff811115611b4457611b43611330565b5b611b5084828501611847565b6102008301525092915050565b5f60808284031215611b7257611b7161132c565b5b611b7c6080610ce1565b90505f82015167ffffffffffffffff811115611b9b57611b9a611330565b5b611ba784828501611847565b5f830152506020611bba84828501611798565b602083015250604082015167ffffffffffffffff811115611bde57611bdd611330565b5b611bea84828501611847565b604083015250606082015167ffffffffffffffff811115611c0e57611c0d611330565b5b611c1a8482850161189c565b60608301525092915050565b5f611c38611c33846117d7565b610ce1565b90508083825260208201905060208402830185811115611c5b57611c5a611802565b5b835b81811015611ca257805167ffffffffffffffff811115611c8057611c7f610c6b565b5b808601611c8d8982611b5d565b85526020850194505050602081019050611c5d565b5050509392505050565b5f82601f830112611cc057611cbf610c6b565b5b8151611cd0848260208601611c26565b91505092915050565b5f60208284031215611cee57611ced610c63565b5b5f82015167ffffffffffffffff811115611d0b57611d0a610c67565b5b611d1784828501611cac565b91505092915050565b5f611d2a82610ec6565b611d348185611720565b9350611d44818560208601610ee0565b611d4d81610c73565b840191505092915050565b611d6181610da7565b82525050565b5f6080820190508181035f830152611d7f8187611d20565b90508181036020830152611d938186611d20565b9050611da26040830185611d58565b611daf6060830184611304565b95945050505050565b5f61022083015f830151611dce5f860182610f35565b506020830151611de16020860182610f35565b5060408301518482036040860152611df98282610eee565b91505060608301518482036060860152611e138282610eee565b9150506080830151611e286080860182610f26565b5060a0830151611e3b60a0860182610f26565b5060c083015184820360c0860152611e538282610eee565b91505060e083015184820360e0860152611e6d8282610eee565b915050610100830151848203610100860152611e898282610eee565b915050610120830151848203610120860152611ea58282610eee565b915050610140830151848203610140860152611ec18282610eee565b915050610160830151611ed8610160860182610f26565b50610180830151611eed610180860182610f4f565b506101a08301518482036101a0860152611f078282610eee565b9150506101c08301518482036101c0860152611f238282610eee565b9150506101e08301518482036101e0860152611f3f8282610eee565b915050610200830151848203610200860152611f5b8282610eee565b9150508091505092915050565b5f6020820190508181035f830152611f808184611db8565b905092915050565b5f819050919050565b5f611fab611fa6611fa184610da7565b611f88565b610e6c565b9050919050565b611fbb81611f91565b82525050565b611fca81610f44565b82525050565b5f606082019050611fe35f830186611d58565b611ff06020830185611fb2565b611ffd6040830184611fc1565b949350505050565b7f496e76616c696420696e74657276616c20737472696e670000000000000000005f82015250565b5f612039601783611720565b915061204482612005565b602082019050919050565b5f6020820190508181035f8301526120668161202d565b9050919050565b7f4e487b71000000000000000000000000000000000000000000000000000000005f52601260045260245ffd5b7f4e487b71000000000000000000000000000000000000000000000000000000005f52601160045260245ffd5b5f6120d182610da7565b91506120dc83610da7565b9250826120ec576120eb61206d565b5b828204905092915050565b5f61210182610da7565b915061210c83610da7565b925082820261211a81610da7565b915080821461212c5761212b61209a565b5b5092915050565b5f6040820190508181035f83015261214b8185611d20565b905061215a6020830184610e75565b9392505050565b7f4e487b71000000000000000000000000000000000000000000000000000000005f52605160045260245ffdfe6080604052348015600e575f5ffd5b503360015f6101000a81548173ffffffffffffffffffffffffffffffffffffffff021916908373ffffffffffffffffffffffffffffffffffffffff160217905550611a3c8061005c5f395ff3fe608060405234801561000f575f5ffd5b506004361061004a575f3560e01c806348cbad6e1461004e578063be1c766b1461006c578063c45a01551461008a578063e2a77a4c146100a8575b5f5ffd5b6100566100c4565b6040516100639190611024565b60405180910390f35b610074610926565b6040516100819190611053565b60405180910390f35b610092610931565b60405161009f91906110ab565b60405180910390f35b6100c260048036038101906100bd91906110f8565b610956565b005b60605f805480602002602001604051908101604052809291908181526020015f905b8282101561091d578382905f5260205f2090601302016040518060800160405290815f820180546101169061116c565b80601f01602080910402602001604051908101604052809291908181526020018280546101429061116c565b801561018d5780601f106101645761010080835404028352916020019161018d565b820191905f5260205f20905b81548152906001019060200180831161017057829003601f168201915b50505050508152602001600182015481526020016002820180546101b09061116c565b80601f01602080910402602001604051908101604052809291908181526020018280546101dc9061116c565b80156102275780601f106101fe57610100808354040283529160200191610227565b820191905f5260205f20905b81548152906001019060200180831161020a57829003601f168201915b5050505050815260200160038201604051806102200160405290815f82015f9054906101000a900467ffffffffffffffff1667ffffffffffffffff1667ffffffffffffffff1681526020015f820160089054906101000a900467ffffffffffffffff1667ffffffffffffffff1667ffffffffffffffff1681526020016001820180546102b29061116c565b80601f01602080910402602001604051908101604052809291908181526020018280546102de9061116c565b80156103295780601f1061030057610100808354040283529160200191610329565b820191905f5260205f20905b81548152906001019060200180831161030c57829003601f168201915b505050505081526020016002820180546103429061116c565b80601f016020809104026020016040519081016040528092919081815260200182805461036e9061116c565b80156103b95780601f10610390576101008083540402835291602001916103b9565b820191905f5260205f20905b81548152906001019060200180831161039c57829003601f168201915b5050505050815260200160038201548152602001600482015481526020016005820180546103e69061116c565b80601f01602080910402602001604051908101604052809291908181526020018280546104129061116c565b801561045d5780601f106104345761010080835404028352916020019161045d565b820191905f5260205f20905b81548152906001019060200180831161044057829003601f168201915b505050505081526020016006820180546104769061116c565b80601f01602080910402602001604051908101604052809291908181526020018280546104a29061116c565b80156104ed5780601f106104c4576101008083540402835291602001916104ed565b820191905f5260205f20905b8154815290600101906020018083116104d057829003601f168201915b505050505081526020016007820180546105069061116c565b80601f01602080910402602001604051908101604052809291908181526020018280546105329061116c565b801561057d5780601f106105545761010080835404028352916020019161057d565b820191905f5260205f20905b81548152906001019060200180831161056057829003601f168201915b505050505081526020016008820180546105969061116c565b80601f01602080910402602001604051908101604052809291908181526020018280546105c29061116c565b801561060d5780601f106105e45761010080835404028352916020019161060d565b820191905f5260205f20905b8154815290600101906020018083116105f057829003601f168201915b505050505081526020016009820180546106269061116c565b80601f01602080910402602001604051908101604052809291908181526020018280546106529061116c565b801561069d5780601f106106745761010080835404028352916020019161069d565b820191905f5260205f20905b81548152906001019060200180831161068057829003601f168201915b50505050508152602001600a8201548152602001600b82015f9054906101000a900460ff16151515158152602001600c820180546106da9061116c565b80601f01602080910402602001604051908101604052809291908181526020018280546107069061116c565b80156107515780601f1061072857610100808354040283529160200191610751565b820191905f5260205f20905b81548152906001019060200180831161073457829003601f168201915b50505050508152602001600d8201805461076a9061116c565b80601f01602080910402602001604051908101604052809291908181526020018280546107969061116c565b80156107e15780601f106107b8576101008083540402835291602001916107e1565b820191905f5260205f20905b8154815290600101906020018083116107c457829003601f168201915b50505050508152602001600e820180546107fa9061116c565b80601f01602080910402602001604051908101604052809291908181526020018280546108269061116c565b80156108715780601f1061084857610100808354040283529160200191610871565b820191905f5260205f20905b81548152906001019060200180831161085457829003601f168201915b50505050508152602001600f8201805461088a9061116c565b80601f01602080910402602001604051908101604052809291908181526020018280546108b69061116c565b80156109015780601f106108d857610100808354040283529160200191610901565b820191905f5260205f20905b8154815290600101906020018083116108e457829003601f168201915b50505050508152505081525050815260200190600101906100e6565b50505050905090565b5f5f80549050905090565b60015f9054906101000a900473ffffffffffffffffffffffffffffffffffffffff1681565b5f6103e84261096591906111c9565b90505f60405180608001604052806040518060400160405280600581526020017f6b6c696e6500000000000000000000000000000000000000000000000000000081525081526020018381526020018480604001906109c49190611216565b8080601f0160208091040260200160405190810160405280939291908181526020018383808284375f81840152601f19601f82011690508083019250505050505050815260200184610a15906116eb565b81525090505f81908060018154018082558091505060019003905f5260205f2090601302015f909190919091505f820151815f019081610a55919061189d565b50602082015181600101556040820151816002019081610a75919061189d565b506060820151816003015f820151815f015f6101000a81548167ffffffffffffffff021916908367ffffffffffffffff1602179055506020820151815f0160086101000a81548167ffffffffffffffff021916908367ffffffffffffffff1602179055506040820151816001019081610aee919061189d565b506060820151816002019081610b04919061189d565b506080820151816003015560a0820151816004015560c0820151816005019081610b2e919061189d565b5060e0820151816006019081610b44919061189d565b50610100820151816007019081610b5b919061189d565b50610120820151816008019081610b72919061189d565b50610140820151816009019081610b89919061189d565b5061016082015181600a015561018082015181600b015f6101000a81548160ff0219169083151502179055506101a082015181600c019081610bcb919061189d565b506101c082015181600d019081610be2919061189d565b506101e082015181600e019081610bf9919061189d565b5061020082015181600f019081610c10919061189d565b50505050507f87be993750fd9f870bc535d97609df048e07430c47f26712536434958094f87382848060400190610c479190611216565b868060c00190610c579190611216565b888060e00190610c679190611216565b604051610c7a97969594939291906119a8565b60405180910390a1505050565b5f81519050919050565b5f82825260208201905092915050565b5f819050602082019050919050565b5f81519050919050565b5f82825260208201905092915050565b8281835e5f83830152505050565b5f601f19601f8301169050919050565b5f610cf282610cb0565b610cfc8185610cba565b9350610d0c818560208601610cca565b610d1581610cd8565b840191505092915050565b5f819050919050565b610d3281610d20565b82525050565b5f67ffffffffffffffff82169050919050565b610d5481610d38565b82525050565b5f8115159050919050565b610d6e81610d5a565b82525050565b5f61022083015f830151610d8a5f860182610d4b565b506020830151610d9d6020860182610d4b565b5060408301518482036040860152610db58282610ce8565b91505060608301518482036060860152610dcf8282610ce8565b9150506080830151610de46080860182610d29565b5060a0830151610df760a0860182610d29565b5060c083015184820360c0860152610e0f8282610ce8565b91505060e083015184820360e0860152610e298282610ce8565b915050610100830151848203610100860152610e458282610ce8565b915050610120830151848203610120860152610e618282610ce8565b915050610140830151848203610140860152610e7d8282610ce8565b915050610160830151610e94610160860182610d29565b50610180830151610ea9610180860182610d65565b506101a08301518482036101a0860152610ec38282610ce8565b9150506101c08301518482036101c0860152610edf8282610ce8565b9150506101e08301518482036101e0860152610efb8282610ce8565b915050610200830151848203610200860152610f178282610ce8565b9150508091505092915050565b5f608083015f8301518482035f860152610f3e8282610ce8565b9150506020830151610f536020860182610d29565b5060408301518482036040860152610f6b8282610ce8565b91505060608301518482036060860152610f858282610d74565b9150508091505092915050565b5f610f9d8383610f24565b905092915050565b5f602082019050919050565b5f610fbb82610c87565b610fc58185610c91565b935083602082028501610fd785610ca1565b805f5b858110156110125784840389528151610ff38582610f92565b9450610ffe83610fa5565b925060208a01995050600181019050610fda565b50829750879550505050505092915050565b5f6020820190508181035f83015261103c8184610fb1565b905092915050565b61104d81610d20565b82525050565b5f6020820190506110665f830184611044565b92915050565b5f73ffffffffffffffffffffffffffffffffffffffff82169050919050565b5f6110958261106c565b9050919050565b6110a58161108b565b82525050565b5f6020820190506110be5f83018461109c565b92915050565b5f604051905090565b5f5ffd5b5f5ffd5b5f5ffd5b5f61022082840312156110ef576110ee6110d5565b5b81905092915050565b5f6020828403121561110d5761110c6110cd565b5b5f82013567ffffffffffffffff81111561112a576111296110d1565b5b611136848285016110d9565b91505092915050565b7f4e487b71000000000000000000000000000000000000000000000000000000005f52602260045260245ffd5b5f600282049050600182168061118357607f821691505b6020821081036111965761119561113f565b5b50919050565b7f4e487b71000000000000000000000000000000000000000000000000000000005f52601160045260245ffd5b5f6111d382610d20565b91506111de83610d20565b92508282026111ec81610d20565b915082820484148315176112035761120261119c565b5b5092915050565b5f5ffd5b5f5ffd5b5f5ffd5b5f5f833560016020038436030381126112325761123161120a565b5b80840192508235915067ffffffffffffffff8211156112545761125361120e565b5b6020830192506001820236038313156112705761126f611212565b5b509250929050565b5f5ffd5b7f4e487b71000000000000000000000000000000000000000000000000000000005f52604160045260245ffd5b6112b282610cd8565b810181811067ffffffffffffffff821117156112d1576112d061127c565b5b80604052505050565b5f6112e36110c4565b90506112ef82826112a9565b919050565b5f5ffd5b61130181610d38565b811461130b575f5ffd5b50565b5f8135905061131c816112f8565b92915050565b5f5ffd5b5f5ffd5b5f67ffffffffffffffff8211156113445761134361127c565b5b61134d82610cd8565b9050602081019050919050565b828183375f83830152505050565b5f61137a6113758461132a565b6112da565b90508281526020810184848401111561139657611395611326565b5b6113a184828561135a565b509392505050565b5f82601f8301126113bd576113bc611322565b5b81356113cd848260208601611368565b91505092915050565b6113df81610d20565b81146113e9575f5ffd5b50565b5f813590506113fa816113d6565b92915050565b61140981610d5a565b8114611413575f5ffd5b50565b5f8135905061142481611400565b92915050565b5f61022082840312156114405761143f611278565b5b61144b6102206112da565b90505f61145a8482850161130e565b5f83015250602061146d8482850161130e565b602083015250604082013567ffffffffffffffff811115611491576114906112f4565b5b61149d848285016113a9565b604083015250606082013567ffffffffffffffff8111156114c1576114c06112f4565b5b6114cd848285016113a9565b60608301525060806114e1848285016113ec565b60808301525060a06114f5848285016113ec565b60a08301525060c082013567ffffffffffffffff811115611519576115186112f4565b5b611525848285016113a9565b60c08301525060e082013567ffffffffffffffff811115611549576115486112f4565b5b611555848285016113a9565b60e08301525061010082013567ffffffffffffffff81111561157a576115796112f4565b5b611586848285016113a9565b6101008301525061012082013567ffffffffffffffff8111156115ac576115ab6112f4565b5b6115b8848285016113a9565b6101208301525061014082013567ffffffffffffffff8111156115de576115dd6112f4565b5b6115ea848285016113a9565b61014083015250610160611600848285016113ec565b6101608301525061018061161684828501611416565b610180830152506101a082013567ffffffffffffffff81111561163c5761163b6112f4565b5b611648848285016113a9565b6101a0830152506101c082013567ffffffffffffffff81111561166e5761166d6112f4565b5b61167a848285016113a9565b6101c0830152506101e082013567ffffffffffffffff8111156116a05761169f6112f4565b5b6116ac848285016113a9565b6101e08301525061020082013567ffffffffffffffff8111156116d2576116d16112f4565b5b6116de848285016113a9565b6102008301525092915050565b5f6116f6368361142a565b9050919050565b5f819050815f5260205f209050919050565b5f6020601f8301049050919050565b5f82821b905092915050565b5f600883026117597fffffffffffffffffffffffffffffffffffffffffffffffffffffffffffffffff8261171e565b611763868361171e565b95508019841693508086168417925050509392505050565b5f819050919050565b5f61179e61179961179484610d20565b61177b565b610d20565b9050919050565b5f819050919050565b6117b783611784565b6117cb6117c3826117a5565b84845461172a565b825550505050565b5f5f905090565b6117e26117d3565b6117ed8184846117ae565b505050565b5b81811015611810576118055f826117da565b6001810190506117f3565b5050565b601f82111561185557611826816116fd565b61182f8461170f565b8101602085101561183e578190505b61185261184a8561170f565b8301826117f2565b50505b505050565b5f82821c905092915050565b5f6118755f198460080261185a565b1980831691505092915050565b5f61188d8383611866565b9150826002028217905092915050565b6118a682610cb0565b67ffffffffffffffff8111156118bf576118be61127c565b5b6118c9825461116c565b6118d4828285611814565b5f60209050601f831160018114611905575f84156118f3578287015190505b6118fd8582611882565b865550611964565b601f198416611913866116fd565b5f5b8281101561193a57848901518255600182019150602085019450602081019050611915565b868310156119575784890151611953601f891682611866565b8355505b6001600288020188555050505b505050505050565b5f82825260208201905092915050565b5f611987838561196c565b935061199483858461135a565b61199d83610cd8565b840190509392505050565b5f6080820190506119bb5f83018a611044565b81810360208301526119ce81888a61197c565b905081810360408301526119e381868861197c565b905081810360608301526119f881848661197c565b90509897505050505050505056fea26469706673582212202b3d1df90580b1ba467e88c2444a423153a1625e60110dcab7b1348fef58bf0a64736f6c634300081e0033a2646970667358221220a929fa1e6a2b2d44c8b69168d65155d28118f03dcbf433fcba75cdeabc353f2664736f6c634300081e0033",
			"opcodes": "PUSH1 0x80 PUSH1 0x40 MSTORE CALLVALUE DUP1 ISZERO PUSH1 0xE JUMPI PUSH0 PUSH0 REVERT JUMPDEST POP PUSH2 0x3C5C DUP1 PUSH2 0x1C PUSH0 CODECOPY PUSH0 RETURN INVALID PUSH1 0x80 PUSH1 0x40 MSTORE CALLVALUE DUP1 ISZERO PUSH2 0xF JUMPI PUSH0 PUSH0 REVERT JUMPDEST POP PUSH1 0x4 CALLDATASIZE LT PUSH2 0x4A JUMPI PUSH0 CALLDATALOAD PUSH1 0xE0 SHR DUP1 PUSH4 0x256D106E EQ PUSH2 0x4E JUMPI DUP1 PUSH4 0x41356339 EQ PUSH2 0x7E JUMPI DUP1 PUSH4 0x5B3CB9D4 EQ PUSH2 0xAE JUMPI DUP1 PUSH4 0x6A78B280 EQ PUSH2 0xDE JUMPI JUMPDEST PUSH0 PUSH0 REVERT JUMPDEST PUSH2 0x68 PUSH1 0x4 DUP1 CALLDATASIZE SUB DUP2 ADD SWAP1 PUSH2 0x63 SWAP2 SWAP1 PUSH2 0xDE4 JUMP JUMPDEST PUSH2 0xFA JUMP JUMPDEST PUSH1 0x40 MLOAD PUSH2 0x75 SWAP2 SWAP1 PUSH2 0xE84 JUMP JUMPDEST PUSH1 0x40 MLOAD DUP1 SWAP2 SUB SWAP1 RETURN JUMPDEST PUSH2 0x98 PUSH1 0x4 DUP1 CALLDATASIZE SUB DUP2 ADD SWAP1 PUSH2 0x93 SWAP2 SWAP1 PUSH2 0xDE4 JUMP JUMPDEST PUSH2 0x2AF JUMP JUMPDEST PUSH1 0x40 MLOAD PUSH2 0xA5 SWAP2 SWAP1 PUSH2 0x120E JUMP JUMPDEST PUSH1 0x40 MLOAD DUP1 SWAP2 SUB SWAP1 RETURN JUMPDEST PUSH2 0xC8 PUSH1 0x4 DUP1 CALLDATASIZE SUB DUP2 ADD SWAP1 PUSH2 0xC3 SWAP2 SWAP1 PUSH2 0x1284 JUMP JUMPDEST PUSH2 0x468 JUMP JUMPDEST PUSH1 0x40 MLOAD PUSH2 0xD5 SWAP2 SWAP1 PUSH2 0x1313 JUMP JUMPDEST PUSH1 0x40 MLOAD DUP1 SWAP2 SUB SWAP1 RETURN JUMPDEST PUSH2 0xF8 PUSH1 0x4 DUP1 CALLDATASIZE SUB DUP2 ADD SWAP1 PUSH2 0xF3 SWAP2 SWAP1 PUSH2 0x1649 JUMP JUMPDEST PUSH2 0x4AF JUMP JUMPDEST STOP JUMPDEST PUSH0 PUSH0 PUSH2 0x105 DUP5 PUSH2 0x7C6 JUMP JUMPDEST SWAP1 POP PUSH0 DUP6 PUSH1 0x40 MLOAD PUSH1 0x20 ADD PUSH2 0x119 SWAP2 SWAP1 PUSH2 0x16DD JUMP JUMPDEST PUSH1 0x40 MLOAD PUSH1 0x20 DUP2 DUP4 SUB SUB DUP2 MSTORE SWAP1 PUSH1 0x40 MSTORE DUP1 MLOAD SWAP1 PUSH1 0x20 ADD KECCAK256 SWAP1 POP PUSH0 PUSH2 0x13C DUP4 DUP7 PUSH2 0xB40 JUMP JUMPDEST SWAP1 POP PUSH0 PUSH0 PUSH0 DUP5 DUP2 MSTORE PUSH1 0x20 ADD SWAP1 DUP2 MSTORE PUSH1 0x20 ADD PUSH0 KECCAK256 PUSH0 DUP6 PUSH1 0xF DUP2 GT ISZERO PUSH2 0x163 JUMPI PUSH2 0x162 PUSH2 0x16F3 JUMP JUMPDEST JUMPDEST PUSH1 0xF DUP2 GT ISZERO PUSH2 0x175 JUMPI PUSH2 0x174 PUSH2 0x16F3 JUMP JUMPDEST JUMPDEST DUP2 MSTORE PUSH1 0x20 ADD SWAP1 DUP2 MSTORE PUSH1 0x20 ADD PUSH0 KECCAK256 PUSH0 DUP4 PUSH8 0xFFFFFFFFFFFFFFFF AND PUSH8 0xFFFFFFFFFFFFFFFF AND DUP2 MSTORE PUSH1 0x20 ADD SWAP1 DUP2 MSTORE PUSH1 0x20 ADD PUSH0 KECCAK256 PUSH0 SWAP1 SLOAD SWAP1 PUSH2 0x100 EXP SWAP1 DIV PUSH20 0xFFFFFFFFFFFFFFFFFFFFFFFFFFFFFFFFFFFFFFFF AND SWAP1 POP PUSH0 PUSH20 0xFFFFFFFFFFFFFFFFFFFFFFFFFFFFFFFFFFFFFFFF AND DUP2 PUSH20 0xFFFFFFFFFFFFFFFFFFFFFFFFFFFFFFFFFFFFFFFF AND SUB PUSH2 0x235 JUMPI PUSH1 0x40 MLOAD PUSH32 0x8C379A000000000000000000000000000000000000000000000000000000000 DUP2 MSTORE PUSH1 0x4 ADD PUSH2 0x22C SWAP1 PUSH2 0x177A JUMP JUMPDEST PUSH1 0x40 MLOAD DUP1 SWAP2 SUB SWAP1 REVERT JUMPDEST DUP1 PUSH20 0xFFFFFFFFFFFFFFFFFFFFFFFFFFFFFFFFFFFFFFFF AND PUSH4 0xBE1C766B PUSH1 0x40 MLOAD DUP2 PUSH4 0xFFFFFFFF AND PUSH1 0xE0 SHL DUP2 MSTORE PUSH1 0x4 ADD PUSH1 0x20 PUSH1 0x40 MLOAD DUP1 DUP4 SUB DUP2 DUP7 GAS STATICCALL ISZERO DUP1 ISZERO PUSH2 0x27E JUMPI RETURNDATASIZE PUSH0 PUSH0 RETURNDATACOPY RETURNDATASIZE PUSH0 REVERT JUMPDEST POP POP POP POP PUSH1 0x40 MLOAD RETURNDATASIZE PUSH1 0x1F NOT PUSH1 0x1F DUP3 ADD AND DUP3 ADD DUP1 PUSH1 0x40 MSTORE POP DUP2 ADD SWAP1 PUSH2 0x2A2 SWAP2 SWAP1 PUSH2 0x17AC JUMP JUMPDEST SWAP5 POP POP POP POP POP SWAP4 SWAP3 POP POP POP JUMP JUMPDEST PUSH1 0x60 PUSH0 PUSH2 0x2BB DUP5 PUSH2 0x7C6 JUMP JUMPDEST SWAP1 POP PUSH0 DUP6 PUSH1 0x40 MLOAD PUSH1 0x20 ADD PUSH2 0x2CF SWAP2 SWAP1 PUSH2 0x16DD JUMP JUMPDEST PUSH1 0x40 MLOAD PUSH1 0x20 DUP2 DUP4 SUB SUB DUP2 MSTORE SWAP1 PUSH1 0x40 MSTORE DUP1 MLOAD SWAP1 PUSH1 0x20 ADD KECCAK256 SWAP1 POP PUSH0 PUSH2 0x2F2 DUP4 DUP7 PUSH2 0xB40 JUMP JUMPDEST SWAP1 POP PUSH0 PUSH0 PUSH0 DUP5 DUP2 MSTORE PUSH1 0x20 ADD SWAP1 DUP2 MSTORE PUSH1 0x20 ADD PUSH0 KECCAK256 PUSH0 DUP6 PUSH1 0xF DUP2 GT ISZERO PUSH2 0x319 JUMPI PUSH2 0x318 PUSH2 0x16F3 JUMP JUMPDEST JUMPDEST PUSH1 0xF DUP2 GT ISZERO PUSH2 0x32B JUMPI PUSH2 0x32A PUSH2 0x16F3 JUMP JUMPDEST JUMPDEST DUP2 MSTORE PUSH1 0x20 ADD SWAP1 DUP2 MSTORE PUSH1 0x20 ADD PUSH0 KECCAK256 PUSH0 DUP4 PUSH8 0xFFFFFFFFFFFFFFFF AND PUSH8 0xFFFFFFFFFFFFFFFF AND DUP2 MSTORE PUSH1 0x20 ADD SWAP1 DUP2 MSTORE PUSH1 0x20 ADD PUSH0 KECCAK256 PUSH0 SWAP1 SLOAD SWAP1 PUSH2 0x100 EXP SWAP1 DIV PUSH20 0xFFFFFFFFFFFFFFFFFFFFFFFFFFFFFFFFFFFFFFFF AND SWAP1 POP PUSH0 PUSH20 0xFFFFFFFFFFFFFFFFFFFFFFFFFFFFFFFFFFFFFFFF AND DUP2 PUSH20 0xFFFFFFFFFFFFFFFFFFFFFFFFFFFFFFFFFFFFFFFF AND SUB PUSH2 0x3EB JUMPI PUSH1 0x40 MLOAD PUSH32 0x8C379A000000000000000000000000000000000000000000000000000000000 DUP2 MSTORE PUSH1 0x4 ADD PUSH2 0x3E2 SWAP1 PUSH2 0x177A JUMP JUMPDEST PUSH1 0x40 MLOAD DUP1 SWAP2 SUB SWAP1 REVERT JUMPDEST DUP1 PUSH20 0xFFFFFFFFFFFFFFFFFFFFFFFFFFFFFFFFFFFFFFFF AND PUSH4 0x48CBAD6E PUSH1 0x40 MLOAD DUP2 PUSH4 0xFFFFFFFF AND PUSH1 0xE0 SHL DUP2 MSTORE PUSH1 0x4 ADD PUSH0 PUSH1 0x40 MLOAD DUP1 DUP4 SUB DUP2 DUP7 GAS STATICCALL ISZERO DUP1 ISZERO PUSH2 0x433 JUMPI RETURNDATASIZE PUSH0 PUSH0 RETURNDATACOPY RETURNDATASIZE PUSH0 REVERT JUMPDEST POP POP POP POP PUSH1 0x40 MLOAD RETURNDATASIZE PUSH0 DUP3 RETURNDATACOPY RETURNDATASIZE PUSH1 0x1F NOT PUSH1 0x1F DUP3 ADD AND DUP3 ADD DUP1 PUSH1 0x40 MSTORE POP DUP2 ADD SWAP1 PUSH2 0x45B SWAP2 SWAP1 PUSH2 0x1CD9 JUMP JUMPDEST SWAP5 POP POP POP POP POP SWAP4 SWAP3 POP POP POP JUMP JUMPDEST PUSH0 PUSH1 0x20 MSTORE DUP3 PUSH0 MSTORE PUSH1 0x40 PUSH0 KECCAK256 PUSH1 0x20 MSTORE DUP2 PUSH0 MSTORE PUSH1 0x40 PUSH0 KECCAK256 PUSH1 0x20 MSTORE DUP1 PUSH0 MSTORE PUSH1 0x40 PUSH0 KECCAK256 PUSH0 SWAP3 POP SWAP3 POP POP SWAP1 SLOAD SWAP1 PUSH2 0x100 EXP SWAP1 DIV PUSH20 0xFFFFFFFFFFFFFFFFFFFFFFFFFFFFFFFFFFFFFFFF AND DUP2 JUMP JUMPDEST PUSH0 PUSH2 0x4BD DUP4 PUSH1 0x60 ADD MLOAD PUSH2 0x7C6 JUMP JUMPDEST SWAP1 POP PUSH0 DUP4 PUSH1 0x40 ADD MLOAD PUSH1 0x40 MLOAD PUSH1 0x20 ADD PUSH2 0x4D5 SWAP2 SWAP1 PUSH2 0x16DD JUMP JUMPDEST PUSH1 0x40 MLOAD PUSH1 0x20 DUP2 DUP4 SUB SUB DUP2 MSTORE SWAP1 PUSH1 0x40 MSTORE DUP1 MLOAD SWAP1 PUSH1 0x20 ADD KECCAK256 SWAP1 POP PUSH0 PUSH2 0x4F8 DUP4 DUP6 PUSH2 0xB40 JUMP JUMPDEST SWAP1 POP PUSH0 PUSH0 PUSH0 DUP5 DUP2 MSTORE PUSH1 0x20 ADD SWAP1 DUP2 MSTORE PUSH1 0x20 ADD PUSH0 KECCAK256 PUSH0 DUP6 PUSH1 0xF DUP2 GT ISZERO PUSH2 0x51F JUMPI PUSH2 0x51E PUSH2 0x16F3 JUMP JUMPDEST JUMPDEST PUSH1 0xF DUP2 GT ISZERO PUSH2 0x531 JUMPI PUSH2 0x530 PUSH2 0x16F3 JUMP JUMPDEST JUMPDEST DUP2 MSTORE PUSH1 0x20 ADD SWAP1 DUP2 MSTORE PUSH1 0x20 ADD PUSH0 KECCAK256 PUSH0 DUP4 PUSH8 0xFFFFFFFFFFFFFFFF AND PUSH8 0xFFFFFFFFFFFFFFFF AND DUP2 MSTORE PUSH1 0x20 ADD SWAP1 DUP2 MSTORE PUSH1 0x20 ADD PUSH0 KECCAK256 PUSH0 SWAP1 SLOAD SWAP1 PUSH2 0x100 EXP SWAP1 DIV PUSH20 0xFFFFFFFFFFFFFFFFFFFFFFFFFFFFFFFFFFFFFFFF AND SWAP1 POP PUSH0 PUSH20 0xFFFFFFFFFFFFFFFFFFFFFFFFFFFFFFFFFFFFFFFF AND DUP2 PUSH20 0xFFFFFFFFFFFFFFFFFFFFFFFFFFFFFFFFFFFFFFFF AND SUB PUSH2 0x711 JUMPI PUSH2 0x5FF PUSH1 0x40 MLOAD DUP1 PUSH1 0x40 ADD PUSH1 0x40 MSTORE DUP1 PUSH1 0x15 DUP2 MSTORE PUSH1 0x20 ADD PUSH32 0x4372656174696E67206E65772073686172642061740000000000000000000000 DUP2 MSTORE POP DUP4 PUSH8 0xFFFFFFFFFFFFFFFF AND PUSH2 0xB63 JUMP JUMPDEST PUSH1 0x40 MLOAD PUSH2 0x60B SWAP1 PUSH2 0xC43 JUMP JUMPDEST PUSH1 0x40 MLOAD DUP1 SWAP2 SUB SWAP1 PUSH0 CREATE DUP1 ISZERO DUP1 ISZERO PUSH2 0x624 JUMPI RETURNDATASIZE PUSH0 PUSH0 RETURNDATACOPY RETURNDATASIZE PUSH0 REVERT JUMPDEST POP SWAP1 POP DUP1 PUSH0 PUSH0 DUP6 DUP2 MSTORE PUSH1 0x20 ADD SWAP1 DUP2 MSTORE PUSH1 0x20 ADD PUSH0 KECCAK256 PUSH0 DUP7 PUSH1 0xF DUP2 GT ISZERO PUSH2 0x64C JUMPI PUSH2 0x64B PUSH2 0x16F3 JUMP JUMPDEST JUMPDEST PUSH1 0xF DUP2 GT ISZERO PUSH2 0x65E JUMPI PUSH2 0x65D PUSH2 0x16F3 JUMP JUMPDEST JUMPDEST DUP2 MSTORE PUSH1 0x20 ADD SWAP1 DUP2 MSTORE PUSH1 0x20 ADD PUSH0 KECCAK256 PUSH0 DUP5 PUSH8 0xFFFFFFFFFFFFFFFF AND PUSH8 0xFFFFFFFFFFFFFFFF AND DUP2 MSTORE PUSH1 0x20 ADD SWAP1 DUP2 MSTORE PUSH1 0x20 ADD PUSH0 KECCAK256 PUSH0 PUSH2 0x100 EXP DUP2 SLOAD DUP2 PUSH20 0xFFFFFFFFFFFFFFFFFFFFFFFFFFFFFFFFFFFFFFFF MUL NOT AND SWAP1 DUP4 PUSH20 0xFFFFFFFFFFFFFFFFFFFFFFFFFFFFFFFFFFFFFFFF AND MUL OR SWAP1 SSTORE POP PUSH32 0x2A9E82BE7BC20784DCC707F4814CA404AC4A94DB66450718F7733B160FB62D86 DUP7 PUSH1 0x40 ADD MLOAD DUP8 PUSH1 0x60 ADD MLOAD DUP5 DUP5 PUSH1 0x40 MLOAD PUSH2 0x708 SWAP5 SWAP4 SWAP3 SWAP2 SWAP1 PUSH2 0x1D67 JUMP JUMPDEST PUSH1 0x40 MLOAD DUP1 SWAP2 SUB SWAP1 LOG1 JUMPDEST DUP1 PUSH20 0xFFFFFFFFFFFFFFFFFFFFFFFFFFFFFFFFFFFFFFFF AND PUSH4 0xE2A77A4C DUP8 PUSH1 0x40 MLOAD DUP3 PUSH4 0xFFFFFFFF AND PUSH1 0xE0 SHL DUP2 MSTORE PUSH1 0x4 ADD PUSH2 0x74A SWAP2 SWAP1 PUSH2 0x1F68 JUMP JUMPDEST PUSH0 PUSH1 0x40 MLOAD DUP1 DUP4 SUB DUP2 PUSH0 DUP8 DUP1 EXTCODESIZE ISZERO DUP1 ISZERO PUSH2 0x761 JUMPI PUSH0 PUSH0 REVERT JUMPDEST POP GAS CALL ISZERO DUP1 ISZERO PUSH2 0x773 JUMPI RETURNDATASIZE PUSH0 PUSH0 RETURNDATACOPY RETURNDATASIZE PUSH0 REVERT JUMPDEST POP POP POP POP PUSH32 0x87E8B8309759AD52AF1AC44B43236A412E35355E803CE31234B6A2EA6B296CCF DUP7 PUSH0 ADD MLOAD DUP8 PUSH1 0x20 ADD MLOAD DUP9 PUSH2 0x180 ADD MLOAD PUSH1 0x40 MLOAD PUSH2 0x7B6 SWAP4 SWAP3 SWAP2 SWAP1 PUSH2 0x1FD0 JUMP JUMPDEST PUSH1 0x40 MLOAD DUP1 SWAP2 SUB SWAP1 LOG1 POP POP POP POP POP POP JUMP JUMPDEST PUSH0 PUSH0 DUP3 PUSH1 0x40 MLOAD PUSH1 0x20 ADD PUSH2 0x7D9 SWAP2 SWAP1 PUSH2 0x16DD JUMP JUMPDEST PUSH1 0x40 MLOAD PUSH1 0x20 DUP2 DUP4 SUB SUB DUP2 MSTORE SWAP1 PUSH1 0x40 MSTORE DUP1 MLOAD SWAP1 PUSH1 0x20 ADD KECCAK256 SWAP1 POP PUSH32 0x6C9308EEEB72AAC61C6EE2086645EC6CF6638D86D97AF7B81BCF4073F3B95DBC DUP2 SUB PUSH2 0x821 JUMPI PUSH0 SWAP2 POP POP PUSH2 0xB3B JUMP JUMPDEST PUSH32 0x523A5C8A0F83A86997A616B324AE897D2FB6B3F5F68B3969331C12E0F00F9F25 DUP2 SUB PUSH2 0x852 JUMPI PUSH1 0x1 SWAP2 POP POP PUSH2 0xB3B JUMP JUMPDEST PUSH32 0x2A3FF2DFA7BD33B0E77D014065236A2F104B389B776645FDDB9E6A09EEA01441 DUP2 SUB PUSH2 0x883 JUMPI PUSH1 0x2 SWAP2 POP POP PUSH2 0xB3B JUMP JUMPDEST PUSH32 0xFCA740C51A7536A1FF8F65314E26B24CEE265D7626AD2E39318898F3D501AC22 DUP2 SUB PUSH2 0x8B4 JUMPI PUSH1 0x3 SWAP2 POP POP PUSH2 0xB3B JUMP JUMPDEST PUSH32 0x53CAD56A766A794BDC4FD49B262CD08FADF5C823F208FBF3F4EFB377C206EAAA DUP2 SUB PUSH2 0x8E5 JUMPI PUSH1 0x4 SWAP2 POP POP PUSH2 0xB3B JUMP JUMPDEST PUSH32 0xE99007FD2E286840683BFBAC2C1EA22A3B3C1592D603A9AE9AEE29CF77E941A7 DUP2 SUB PUSH2 0x916 JUMPI PUSH1 0x5 SWAP2 POP POP PUSH2 0xB3B JUMP JUMPDEST PUSH32 0x1125479F824FC31D0CE674B130E57A9DCFDF2D344CA1EF3FC8BF5BD50F9FCCA9 DUP2 SUB PUSH2 0x947 JUMPI PUSH1 0x6 SWAP2 POP POP PUSH2 0xB3B JUMP JUMPDEST PUSH32 0xA50F424F123435E4689C6436CE338980297CA65F2EE6B69A216F0561EE6CF400 DUP2 SUB PUSH2 0x978 JUMPI PUSH1 0x7 SWAP2 POP POP PUSH2 0xB3B JUMP JUMPDEST PUSH32 0x9A433CC5A6AEE766B1BCE0A7DC72AB7B4FD031108E0C5AFEA91382F1B1955FC9 DUP2 SUB PUSH2 0x9A9 JUMPI PUSH1 0x8 SWAP2 POP POP PUSH2 0xB3B JUMP JUMPDEST PUSH32 0xA0B83CFA5501E126AC29F6BF7A07BD17E2D97916947EED361748E8E0AB0ABA4D DUP2 SUB PUSH2 0x9DA JUMPI PUSH1 0x9 SWAP2 POP POP PUSH2 0xB3B JUMP JUMPDEST PUSH32 0xE21CCD2715134877C589435A9C98DEB14540FDF9E902AFEBF2163FE393E9C073 DUP2 SUB PUSH2 0xA0B JUMPI PUSH1 0xA SWAP2 POP POP PUSH2 0xB3B JUMP JUMPDEST PUSH32 0x11108661A127316F8F74DC39A66520C8EC16719ED867EE768AF67729BA3EC1D2 DUP2 SUB PUSH2 0xA3C JUMPI PUSH1 0xB SWAP2 POP POP PUSH2 0xB3B JUMP JUMPDEST PUSH32 0x7B2E5637DE8D5670BD5BE523FBCCC1DFEF88F0767EB2ABF5AC4A81DA61AE2002 DUP2 SUB PUSH2 0xA6D JUMPI PUSH1 0xC SWAP2 POP POP PUSH2 0xB3B JUMP JUMPDEST PUSH32 0x1CEF0646E7FE7CB478D3A93D2E07774697C9239D0EE8B4294B768C91AF329E66 DUP2 SUB PUSH2 0xA9E JUMPI PUSH1 0xD SWAP2 POP POP PUSH2 0xB3B JUMP JUMPDEST PUSH32 0x7CD5BA658B5DFF64585BFCB0DF7983749825E2292A4FF6DAF96207E6EB100FE7 DUP2 SUB PUSH2 0xACF JUMPI PUSH1 0xE SWAP2 POP POP PUSH2 0xB3B JUMP JUMPDEST PUSH32 0xA390D73D5FD5E6A577D394328E26CE85589C6D8C382FBA9150FB136BBBF31FF7 DUP2 SUB PUSH2 0xB00 JUMPI PUSH1 0xF SWAP2 POP POP PUSH2 0xB3B JUMP JUMPDEST PUSH1 0x40 MLOAD PUSH32 0x8C379A000000000000000000000000000000000000000000000000000000000 DUP2 MSTORE PUSH1 0x4 ADD PUSH2 0xB32 SWAP1 PUSH2 0x204F JUMP JUMPDEST PUSH1 0x40 MLOAD DUP1 SWAP2 SUB SWAP1 REVERT JUMPDEST SWAP2 SWAP1 POP JUMP JUMPDEST PUSH0 PUSH3 0x36EE80 DUP1 DUP4 PUSH2 0xB51 SWAP2 SWAP1 PUSH2 0x20C7 JUMP JUMPDEST PUSH2 0xB5B SWAP2 SWAP1 PUSH2 0x20F7 JUMP JUMPDEST SWAP1 POP SWAP3 SWAP2 POP POP JUMP JUMPDEST PUSH2 0xBFB DUP3 DUP3 PUSH1 0x40 MLOAD PUSH1 0x24 ADD PUSH2 0xB79 SWAP3 SWAP2 SWAP1 PUSH2 0x2133 JUMP JUMPDEST PUSH1 0x40 MLOAD PUSH1 0x20 DUP2 DUP4 SUB SUB DUP2 MSTORE SWAP1 PUSH1 0x40 MSTORE PUSH32 0xB60E72CC00000000000000000000000000000000000000000000000000000000 PUSH28 0xFFFFFFFFFFFFFFFFFFFFFFFFFFFFFFFFFFFFFFFFFFFFFFFFFFFFFFFF NOT AND PUSH1 0x20 DUP3 ADD DUP1 MLOAD PUSH28 0xFFFFFFFFFFFFFFFFFFFFFFFFFFFFFFFFFFFFFFFFFFFFFFFFFFFFFFFF DUP4 DUP2 DUP4 AND OR DUP4 MSTORE POP POP POP POP PUSH2 0xBFF JUMP JUMPDEST POP POP JUMP JUMPDEST PUSH2 0xC16 DUP2 PUSH2 0xC0E PUSH2 0xC19 PUSH2 0xC38 JUMP JUMPDEST PUSH4 0xFFFFFFFF AND JUMP JUMPDEST POP JUMP JUMPDEST PUSH0 PUSH11 0x636F6E736F6C652E6C6F67 SWAP1 POP PUSH0 PUSH0 DUP4 MLOAD PUSH1 0x20 DUP6 ADD DUP5 GAS STATICCALL POP POP POP JUMP JUMPDEST PUSH2 0xC50 DUP2 SWAP1 POP SWAP2 SWAP1 POP JUMP JUMPDEST PUSH2 0x1A98 DUP1 PUSH2 0x218F DUP4 CODECOPY ADD SWAP1 JUMP JUMPDEST PUSH2 0xC58 PUSH2 0x2161 JUMP JUMPDEST JUMP JUMPDEST PUSH0 PUSH1 0x40 MLOAD SWAP1 POP SWAP1 JUMP JUMPDEST PUSH0 PUSH0 REVERT JUMPDEST PUSH0 PUSH0 REVERT JUMPDEST PUSH0 PUSH0 REVERT JUMPDEST PUSH0 PUSH0 REVERT JUMPDEST PUSH0 PUSH1 0x1F NOT PUSH1 0x1F DUP4 ADD AND SWAP1 POP SWAP2 SWAP1 POP JUMP JUMPDEST PUSH32 0x4E487B7100000000000000000000000000000000000000000000000000000000 PUSH0 MSTORE PUSH1 0x41 PUSH1 0x4 MSTORE PUSH1 0x24 PUSH0 REVERT JUMPDEST PUSH2 0xCB9 DUP3 PUSH2 0xC73 JUMP JUMPDEST DUP2 ADD DUP2 DUP2 LT PUSH8 0xFFFFFFFFFFFFFFFF DUP3 GT OR ISZERO PUSH2 0xCD8 JUMPI PUSH2 0xCD7 PUSH2 0xC83 JUMP JUMPDEST JUMPDEST DUP1 PUSH1 0x40 MSTORE POP POP POP JUMP JUMPDEST PUSH0 PUSH2 0xCEA PUSH2 0xC5A JUMP JUMPDEST SWAP1 POP PUSH2 0xCF6 DUP3 DUP3 PUSH2 0xCB0 JUMP JUMPDEST SWAP2 SWAP1 POP JUMP JUMPDEST PUSH0 PUSH8 0xFFFFFFFFFFFFFFFF DUP3 GT ISZERO PUSH2 0xD15 JUMPI PUSH2 0xD14 PUSH2 0xC83 JUMP JUMPDEST JUMPDEST PUSH2 0xD1E DUP3 PUSH2 0xC73 JUMP JUMPDEST SWAP1 POP PUSH1 0x20 DUP2 ADD SWAP1 POP SWAP2 SWAP1 POP JUMP JUMPDEST DUP3 DUP2 DUP4 CALLDATACOPY PUSH0 DUP4 DUP4 ADD MSTORE POP POP POP JUMP JUMPDEST PUSH0 PUSH2 0xD4B PUSH2 0xD46 DUP5 PUSH2 0xCFB JUMP JUMPDEST PUSH2 0xCE1 JUMP JUMPDEST SWAP1 POP DUP3 DUP2 MSTORE PUSH1 0x20 DUP2 ADD DUP5 DUP5 DUP5 ADD GT ISZERO PUSH2 0xD67 JUMPI PUSH2 0xD66 PUSH2 0xC6F JUMP JUMPDEST JUMPDEST PUSH2 0xD72 DUP5 DUP3 DUP6 PUSH2 0xD2B JUMP JUMPDEST POP SWAP4 SWAP3 POP POP POP JUMP JUMPDEST PUSH0 DUP3 PUSH1 0x1F DUP4 ADD SLT PUSH2 0xD8E JUMPI PUSH2 0xD8D PUSH2 0xC6B JUMP JUMPDEST JUMPDEST DUP2 CALLDATALOAD PUSH2 0xD9E DUP5 DUP3 PUSH1 0x20 DUP7 ADD PUSH2 0xD39 JUMP JUMPDEST SWAP2 POP POP SWAP3 SWAP2 POP POP JUMP JUMPDEST PUSH0 PUSH8 0xFFFFFFFFFFFFFFFF DUP3 AND SWAP1 POP SWAP2 SWAP1 POP JUMP JUMPDEST PUSH2 0xDC3 DUP2 PUSH2 0xDA7 JUMP JUMPDEST DUP2 EQ PUSH2 0xDCD JUMPI PUSH0 PUSH0 REVERT JUMPDEST POP JUMP JUMPDEST PUSH0 DUP2 CALLDATALOAD SWAP1 POP PUSH2 0xDDE DUP2 PUSH2 0xDBA JUMP JUMPDEST SWAP3 SWAP2 POP POP JUMP JUMPDEST PUSH0 PUSH0 PUSH0 PUSH1 0x60 DUP5 DUP7 SUB SLT ISZERO PUSH2 0xDFB JUMPI PUSH2 0xDFA PUSH2 0xC63 JUMP JUMPDEST JUMPDEST PUSH0 DUP5 ADD CALLDATALOAD PUSH8 0xFFFFFFFFFFFFFFFF DUP2 GT ISZERO PUSH2 0xE18 JUMPI PUSH2 0xE17 PUSH2 0xC67 JUMP JUMPDEST JUMPDEST PUSH2 0xE24 DUP7 DUP3 DUP8 ADD PUSH2 0xD7A JUMP JUMPDEST SWAP4 POP POP PUSH1 0x20 DUP5 ADD CALLDATALOAD PUSH8 0xFFFFFFFFFFFFFFFF DUP2 GT ISZERO PUSH2 0xE45 JUMPI PUSH2 0xE44 PUSH2 0xC67 JUMP JUMPDEST JUMPDEST PUSH2 0xE51 DUP7 DUP3 DUP8 ADD PUSH2 0xD7A JUMP JUMPDEST SWAP3 POP POP PUSH1 0x40 PUSH2 0xE62 DUP7 DUP3 DUP8 ADD PUSH2 0xDD0 JUMP JUMPDEST SWAP2 POP POP SWAP3 POP SWAP3 POP SWAP3 JUMP JUMPDEST PUSH0 DUP2 SWAP1 POP SWAP2 SWAP1 POP JUMP JUMPDEST PUSH2 0xE7E DUP2 PUSH2 0xE6C JUMP JUMPDEST DUP3 MSTORE POP POP JUMP JUMPDEST PUSH0 PUSH1 0x20 DUP3 ADD SWAP1 POP PUSH2 0xE97 PUSH0 DUP4 ADD DUP5 PUSH2 0xE75 JUMP JUMPDEST SWAP3 SWAP2 POP POP JUMP JUMPDEST PUSH0 DUP2 MLOAD SWAP1 POP SWAP2 SWAP1 POP JUMP JUMPDEST PUSH0 DUP3 DUP3 MSTORE PUSH1 0x20 DUP3 ADD SWAP1 POP SWAP3 SWAP2 POP POP JUMP JUMPDEST PUSH0 DUP2 SWAP1 POP PUSH1 0x20 DUP3 ADD SWAP1 POP SWAP2 SWAP1 POP JUMP JUMPDEST PUSH0 DUP2 MLOAD SWAP1 POP SWAP2 SWAP1 POP JUMP JUMPDEST PUSH0 DUP3 DUP3 MSTORE PUSH1 0x20 DUP3 ADD SWAP1 POP SWAP3 SWAP2 POP POP JUMP JUMPDEST DUP3 DUP2 DUP4 MCOPY PUSH0 DUP4 DUP4 ADD MSTORE POP POP POP JUMP JUMPDEST PUSH0 PUSH2 0xEF8 DUP3 PUSH2 0xEC6 JUMP JUMPDEST PUSH2 0xF02 DUP2 DUP6 PUSH2 0xED0 JUMP JUMPDEST SWAP4 POP PUSH2 0xF12 DUP2 DUP6 PUSH1 0x20 DUP7 ADD PUSH2 0xEE0 JUMP JUMPDEST PUSH2 0xF1B DUP2 PUSH2 0xC73 JUMP JUMPDEST DUP5 ADD SWAP2 POP POP SWAP3 SWAP2 POP POP JUMP JUMPDEST PUSH2 0xF2F DUP2 PUSH2 0xE6C JUMP JUMPDEST DUP3 MSTORE POP POP JUMP JUMPDEST PUSH2 0xF3E DUP2 PUSH2 0xDA7 JUMP JUMPDEST DUP3 MSTORE POP POP JUMP JUMPDEST PUSH0 DUP2 ISZERO ISZERO SWAP1 POP SWAP2 SWAP1 POP JUMP JUMPDEST PUSH2 0xF58 DUP2 PUSH2 0xF44 JUMP JUMPDEST DUP3 MSTORE POP POP JUMP JUMPDEST PUSH0 PUSH2 0x220 DUP4 ADD PUSH0 DUP4 ADD MLOAD PUSH2 0xF74 PUSH0 DUP7 ADD DUP3 PUSH2 0xF35 JUMP JUMPDEST POP PUSH1 0x20 DUP4 ADD MLOAD PUSH2 0xF87 PUSH1 0x20 DUP7 ADD DUP3 PUSH2 0xF35 JUMP JUMPDEST POP PUSH1 0x40 DUP4 ADD MLOAD DUP5 DUP3 SUB PUSH1 0x40 DUP7 ADD MSTORE PUSH2 0xF9F DUP3 DUP3 PUSH2 0xEEE JUMP JUMPDEST SWAP2 POP POP PUSH1 0x60 DUP4 ADD MLOAD DUP5 DUP3 SUB PUSH1 0x60 DUP7 ADD MSTORE PUSH2 0xFB9 DUP3 DUP3 PUSH2 0xEEE JUMP JUMPDEST SWAP2 POP POP PUSH1 0x80 DUP4 ADD MLOAD PUSH2 0xFCE PUSH1 0x80 DUP7 ADD DUP3 PUSH2 0xF26 JUMP JUMPDEST POP PUSH1 0xA0 DUP4 ADD MLOAD PUSH2 0xFE1 PUSH1 0xA0 DUP7 ADD DUP3 PUSH2 0xF26 JUMP JUMPDEST POP PUSH1 0xC0 DUP4 ADD MLOAD DUP5 DUP3 SUB PUSH1 0xC0 DUP7 ADD MSTORE PUSH2 0xFF9 DUP3 DUP3 PUSH2 0xEEE JUMP JUMPDEST SWAP2 POP POP PUSH1 0xE0 DUP4 ADD MLOAD DUP5 DUP3 SUB PUSH1 0xE0 DUP7 ADD MSTORE PUSH2 0x1013 DUP3 DUP3 PUSH2 0xEEE JUMP JUMPDEST SWAP2 POP POP PUSH2 0x100 DUP4 ADD MLOAD DUP5 DUP3 SUB PUSH2 0x100 DUP7 ADD MSTORE PUSH2 0x102F DUP3 DUP3 PUSH2 0xEEE JUMP JUMPDEST SWAP2 POP POP PUSH2 0x120 DUP4 ADD MLOAD DUP5 DUP3 SUB PUSH2 0x120 DUP7 ADD MSTORE PUSH2 0x104B DUP3 DUP3 PUSH2 0xEEE JUMP JUMPDEST SWAP2 POP POP PUSH2 0x140 DUP4 ADD MLOAD DUP5 DUP3 SUB PUSH2 0x140 DUP7 ADD MSTORE PUSH2 0x1067 DUP3 DUP3 PUSH2 0xEEE JUMP JUMPDEST SWAP2 POP POP PUSH2 0x160 DUP4 ADD MLOAD PUSH2 0x107E PUSH2 0x160 DUP7 ADD DUP3 PUSH2 0xF26 JUMP JUMPDEST POP PUSH2 0x180 DUP4 ADD MLOAD PUSH2 0x1093 PUSH2 0x180 DUP7 ADD DUP3 PUSH2 0xF4F JUMP JUMPDEST POP PUSH2 0x1A0 DUP4 ADD MLOAD DUP5 DUP3 SUB PUSH2 0x1A0 DUP7 ADD MSTORE PUSH2 0x10AD DUP3 DUP3 PUSH2 0xEEE JUMP JUMPDEST SWAP2 POP POP PUSH2 0x1C0 DUP4 ADD MLOAD DUP5 DUP3 SUB PUSH2 0x1C0 DUP7 ADD MSTORE PUSH2 0x10C9 DUP3 DUP3 PUSH2 0xEEE JUMP JUMPDEST SWAP2 POP POP PUSH2 0x1E0 DUP4 ADD MLOAD DUP5 DUP3 SUB PUSH2 0x1E0 DUP7 ADD MSTORE PUSH2 0x10E5 DUP3 DUP3 PUSH2 0xEEE JUMP JUMPDEST SWAP2 POP POP PUSH2 0x200 DUP4 ADD MLOAD DUP5 DUP3 SUB PUSH2 0x200 DUP7 ADD MSTORE PUSH2 0x1101 DUP3 DUP3 PUSH2 0xEEE JUMP JUMPDEST SWAP2 POP POP DUP1 SWAP2 POP POP SWAP3 SWAP2 POP POP JUMP JUMPDEST PUSH0 PUSH1 0x80 DUP4 ADD PUSH0 DUP4 ADD MLOAD DUP5 DUP3 SUB PUSH0 DUP7 ADD MSTORE PUSH2 0x1128 DUP3 DUP3 PUSH2 0xEEE JUMP JUMPDEST SWAP2 POP POP PUSH1 0x20 DUP4 ADD MLOAD PUSH2 0x113D PUSH1 0x20 DUP7 ADD DUP3 PUSH2 0xF26 JUMP JUMPDEST POP PUSH1 0x40 DUP4 ADD MLOAD DUP5 DUP3 SUB PUSH1 0x40 DUP7 ADD MSTORE PUSH2 0x1155 DUP3 DUP3 PUSH2 0xEEE JUMP JUMPDEST SWAP2 POP POP PUSH1 0x60 DUP4 ADD MLOAD DUP5 DUP3 SUB PUSH1 0x60 DUP7 ADD MSTORE PUSH2 0x116F DUP3 DUP3 PUSH2 0xF5E JUMP JUMPDEST SWAP2 POP POP DUP1 SWAP2 POP POP SWAP3 SWAP2 POP POP JUMP JUMPDEST PUSH0 PUSH2 0x1187 DUP4 DUP4 PUSH2 0x110E JUMP JUMPDEST SWAP1 POP SWAP3 SWAP2 POP POP JUMP JUMPDEST PUSH0 PUSH1 0x20 DUP3 ADD SWAP1 POP SWAP2 SWAP1 POP JUMP JUMPDEST PUSH0 PUSH2 0x11A5 DUP3 PUSH2 0xE9D JUMP JUMPDEST PUSH2 0x11AF DUP2 DUP6 PUSH2 0xEA7 JUMP JUMPDEST SWAP4 POP DUP4 PUSH1 0x20 DUP3 MUL DUP6 ADD PUSH2 0x11C1 DUP6 PUSH2 0xEB7 JUMP JUMPDEST DUP1 PUSH0 JUMPDEST DUP6 DUP2 LT ISZERO PUSH2 0x11FC JUMPI DUP5 DUP5 SUB DUP10 MSTORE DUP2 MLOAD PUSH2 0x11DD DUP6 DUP3 PUSH2 0x117C JUMP JUMPDEST SWAP5 POP PUSH2 0x11E8 DUP4 PUSH2 0x118F JUMP JUMPDEST SWAP3 POP PUSH1 0x20 DUP11 ADD SWAP10 POP POP PUSH1 0x1 DUP2 ADD SWAP1 POP PUSH2 0x11C4 JUMP JUMPDEST POP DUP3 SWAP8 POP DUP8 SWAP6 POP POP POP POP POP POP SWAP3 SWAP2 POP POP JUMP JUMPDEST PUSH0 PUSH1 0x20 DUP3 ADD SWAP1 POP DUP2 DUP2 SUB PUSH0 DUP4 ADD MSTORE PUSH2 0x1226 DUP2 DUP5 PUSH2 0x119B JUMP JUMPDEST SWAP1 POP SWAP3 SWAP2 POP POP JUMP JUMPDEST PUSH0 DUP2 SWAP1 POP SWAP2 SWAP1 POP JUMP JUMPDEST PUSH2 0x1240 DUP2 PUSH2 0x122E JUMP JUMPDEST DUP2 EQ PUSH2 0x124A JUMPI PUSH0 PUSH0 REVERT JUMPDEST POP JUMP JUMPDEST PUSH0 DUP2 CALLDATALOAD SWAP1 POP PUSH2 0x125B DUP2 PUSH2 0x1237 JUMP JUMPDEST SWAP3 SWAP2 POP POP JUMP JUMPDEST PUSH1 0x10 DUP2 LT PUSH2 0x126D JUMPI PUSH0 PUSH0 REVERT JUMPDEST POP JUMP JUMPDEST PUSH0 DUP2 CALLDATALOAD SWAP1 POP PUSH2 0x127E DUP2 PUSH2 0x1261 JUMP JUMPDEST SWAP3 SWAP2 POP POP JUMP JUMPDEST PUSH0 PUSH0 PUSH0 PUSH1 0x60 DUP5 DUP7 SUB SLT ISZERO PUSH2 0x129B JUMPI PUSH2 0x129A PUSH2 0xC63 JUMP JUMPDEST JUMPDEST PUSH0 PUSH2 0x12A8 DUP7 DUP3 DUP8 ADD PUSH2 0x124D JUMP JUMPDEST SWAP4 POP POP PUSH1 0x20 PUSH2 0x12B9 DUP7 DUP3 DUP8 ADD PUSH2 0x1270 JUMP JUMPDEST SWAP3 POP POP PUSH1 0x40 PUSH2 0x12CA DUP7 DUP3 DUP8 ADD PUSH2 0xDD0 JUMP JUMPDEST SWAP2 POP POP SWAP3 POP SWAP3 POP SWAP3 JUMP JUMPDEST PUSH0 PUSH20 0xFFFFFFFFFFFFFFFFFFFFFFFFFFFFFFFFFFFFFFFF DUP3 AND SWAP1 POP SWAP2 SWAP1 POP JUMP JUMPDEST PUSH0 PUSH2 0x12FD DUP3 PUSH2 0x12D4 JUMP JUMPDEST SWAP1 POP SWAP2 SWAP1 POP JUMP JUMPDEST PUSH2 0x130D DUP2 PUSH2 0x12F3 JUMP JUMPDEST DUP3 MSTORE POP POP JUMP JUMPDEST PUSH0 PUSH1 0x20 DUP3 ADD SWAP1 POP PUSH2 0x1326 PUSH0 DUP4 ADD DUP5 PUSH2 0x1304 JUMP JUMPDEST SWAP3 SWAP2 POP POP JUMP JUMPDEST PUSH0 PUSH0 REVERT JUMPDEST PUSH0 PUSH0 REVERT JUMPDEST PUSH2 0x133D DUP2 PUSH2 0xE6C JUMP JUMPDEST DUP2 EQ PUSH2 0x1347 JUMPI PUSH0 PUSH0 REVERT JUMPDEST POP JUMP JUMPDEST PUSH0 DUP2 CALLDATALOAD SWAP1 POP PUSH2 0x1358 DUP2 PUSH2 0x1334 JUMP JUMPDEST SWAP3 SWAP2 POP POP JUMP JUMPDEST PUSH2 0x1367 DUP2 PUSH2 0xF44 JUMP JUMPDEST DUP2 EQ PUSH2 0x1371 JUMPI PUSH0 PUSH0 REVERT JUMPDEST POP JUMP JUMPDEST PUSH0 DUP2 CALLDATALOAD SWAP1 POP PUSH2 0x1382 DUP2 PUSH2 0x135E JUMP JUMPDEST SWAP3 SWAP2 POP POP JUMP JUMPDEST PUSH0 PUSH2 0x220 DUP3 DUP5 SUB SLT ISZERO PUSH2 0x139E JUMPI PUSH2 0x139D PUSH2 0x132C JUMP JUMPDEST JUMPDEST PUSH2 0x13A9 PUSH2 0x220 PUSH2 0xCE1 JUMP JUMPDEST SWAP1 POP PUSH0 PUSH2 0x13B8 DUP5 DUP3 DUP6 ADD PUSH2 0xDD0 JUMP JUMPDEST PUSH0 DUP4 ADD MSTORE POP PUSH1 0x20 PUSH2 0x13CB DUP5 DUP3 DUP6 ADD PUSH2 0xDD0 JUMP JUMPDEST PUSH1 0x20 DUP4 ADD MSTORE POP PUSH1 0x40 DUP3 ADD CALLDATALOAD PUSH8 0xFFFFFFFFFFFFFFFF DUP2 GT ISZERO PUSH2 0x13EF JUMPI PUSH2 0x13EE PUSH2 0x1330 JUMP JUMPDEST JUMPDEST PUSH2 0x13FB DUP5 DUP3 DUP6 ADD PUSH2 0xD7A JUMP JUMPDEST PUSH1 0x40 DUP4 ADD MSTORE POP PUSH1 0x60 DUP3 ADD CALLDATALOAD PUSH8 0xFFFFFFFFFFFFFFFF DUP2 GT ISZERO PUSH2 0x141F JUMPI PUSH2 0x141E PUSH2 0x1330 JUMP JUMPDEST JUMPDEST PUSH2 0x142B DUP5 DUP3 DUP6 ADD PUSH2 0xD7A JUMP JUMPDEST PUSH1 0x60 DUP4 ADD MSTORE POP PUSH1 0x80 PUSH2 0x143F DUP5 DUP3 DUP6 ADD PUSH2 0x134A JUMP JUMPDEST PUSH1 0x80 DUP4 ADD MSTORE POP PUSH1 0xA0 PUSH2 0x1453 DUP5 DUP3 DUP6 ADD PUSH2 0x134A JUMP JUMPDEST PUSH1 0xA0 DUP4 ADD MSTORE POP PUSH1 0xC0 DUP3 ADD CALLDATALOAD PUSH8 0xFFFFFFFFFFFFFFFF DUP2 GT ISZERO PUSH2 0x1477 JUMPI PUSH2 0x1476 PUSH2 0x1330 JUMP JUMPDEST JUMPDEST PUSH2 0x1483 DUP5 DUP3 DUP6 ADD PUSH2 0xD7A JUMP JUMPDEST PUSH1 0xC0 DUP4 ADD MSTORE POP PUSH1 0xE0 DUP3 ADD CALLDATALOAD PUSH8 0xFFFFFFFFFFFFFFFF DUP2 GT ISZERO PUSH2 0x14A7 JUMPI PUSH2 0x14A6 PUSH2 0x1330 JUMP JUMPDEST JUMPDEST PUSH2 0x14B3 DUP5 DUP3 DUP6 ADD PUSH2 0xD7A JUMP JUMPDEST PUSH1 0xE0 DUP4 ADD MSTORE POP PUSH2 0x100 DUP3 ADD CALLDATALOAD PUSH8 0xFFFFFFFFFFFFFFFF DUP2 GT ISZERO PUSH2 0x14D8 JUMPI PUSH2 0x14D7 PUSH2 0x1330 JUMP JUMPDEST JUMPDEST PUSH2 0x14E4 DUP5 DUP3 DUP6 ADD PUSH2 0xD7A JUMP JUMPDEST PUSH2 0x100 DUP4 ADD MSTORE POP PUSH2 0x120 DUP3 ADD CALLDATALOAD PUSH8 0xFFFFFFFFFFFFFFFF DUP2 GT ISZERO PUSH2 0x150A JUMPI PUSH2 0x1509 PUSH2 0x1330 JUMP JUMPDEST JUMPDEST PUSH2 0x1516 DUP5 DUP3 DUP6 ADD PUSH2 0xD7A JUMP JUMPDEST PUSH2 0x120 DUP4 ADD MSTORE POP PUSH2 0x140 DUP3 ADD CALLDATALOAD PUSH8 0xFFFFFFFFFFFFFFFF DUP2 GT ISZERO PUSH2 0x153C JUMPI PUSH2 0x153B PUSH2 0x1330 JUMP JUMPDEST JUMPDEST PUSH2 0x1548 DUP5 DUP3 DUP6 ADD PUSH2 0xD7A JUMP JUMPDEST PUSH2 0x140 DUP4 ADD MSTORE POP PUSH2 0x160 PUSH2 0x155E DUP5 DUP3 DUP6 ADD PUSH2 0x134A JUMP JUMPDEST PUSH2 0x160 DUP4 ADD MSTORE POP PUSH2 0x180 PUSH2 0x1574 DUP5 DUP3 DUP6 ADD PUSH2 0x1374 JUMP JUMPDEST PUSH2 0x180 DUP4 ADD MSTORE POP PUSH2 0x1A0 DUP3 ADD CALLDATALOAD PUSH8 0xFFFFFFFFFFFFFFFF DUP2 GT ISZERO PUSH2 0x159A JUMPI PUSH2 0x1599 PUSH2 0x1330 JUMP JUMPDEST JUMPDEST PUSH2 0x15A6 DUP5 DUP3 DUP6 ADD PUSH2 0xD7A JUMP JUMPDEST PUSH2 0x1A0 DUP4 ADD MSTORE POP PUSH2 0x1C0 DUP3 ADD CALLDATALOAD PUSH8 0xFFFFFFFFFFFFFFFF DUP2 GT ISZERO PUSH2 0x15CC JUMPI PUSH2 0x15CB PUSH2 0x1330 JUMP JUMPDEST JUMPDEST PUSH2 0x15D8 DUP5 DUP3 DUP6 ADD PUSH2 0xD7A JUMP JUMPDEST PUSH2 0x1C0 DUP4 ADD MSTORE POP PUSH2 0x1E0 DUP3 ADD CALLDATALOAD PUSH8 0xFFFFFFFFFFFFFFFF DUP2 GT ISZERO PUSH2 0x15FE JUMPI PUSH2 0x15FD PUSH2 0x1330 JUMP JUMPDEST JUMPDEST PUSH2 0x160A DUP5 DUP3 DUP6 ADD PUSH2 0xD7A JUMP JUMPDEST PUSH2 0x1E0 DUP4 ADD MSTORE POP PUSH2 0x200 DUP3 ADD CALLDATALOAD PUSH8 0xFFFFFFFFFFFFFFFF DUP2 GT ISZERO PUSH2 0x1630 JUMPI PUSH2 0x162F PUSH2 0x1330 JUMP JUMPDEST JUMPDEST PUSH2 0x163C DUP5 DUP3 DUP6 ADD PUSH2 0xD7A JUMP JUMPDEST PUSH2 0x200 DUP4 ADD MSTORE POP SWAP3 SWAP2 POP POP JUMP JUMPDEST PUSH0 PUSH0 PUSH1 0x40 DUP4 DUP6 SUB SLT ISZERO PUSH2 0x165F JUMPI PUSH2 0x165E PUSH2 0xC63 JUMP JUMPDEST JUMPDEST PUSH0 DUP4 ADD CALLDATALOAD PUSH8 0xFFFFFFFFFFFFFFFF DUP2 GT ISZERO PUSH2 0x167C JUMPI PUSH2 0x167B PUSH2 0xC67 JUMP JUMPDEST JUMPDEST PUSH2 0x1688 DUP6 DUP3 DUP7 ADD PUSH2 0x1388 JUMP JUMPDEST SWAP3 POP POP PUSH1 0x20 PUSH2 0x1699 DUP6 DUP3 DUP7 ADD PUSH2 0xDD0 JUMP JUMPDEST SWAP2 POP POP SWAP3 POP SWAP3 SWAP1 POP JUMP JUMPDEST PUSH0 DUP2 SWAP1 POP SWAP3 SWAP2 POP POP JUMP JUMPDEST PUSH0 PUSH2 0x16B7 DUP3 PUSH2 0xEC6 JUMP JUMPDEST PUSH2 0x16C1 DUP2 DUP6 PUSH2 0x16A3 JUMP JUMPDEST SWAP4 POP PUSH2 0x16D1 DUP2 DUP6 PUSH1 0x20 DUP7 ADD PUSH2 0xEE0 JUMP JUMPDEST DUP1 DUP5 ADD SWAP2 POP POP SWAP3 SWAP2 POP POP JUMP JUMPDEST PUSH0 PUSH2 0x16E8 DUP3 DUP5 PUSH2 0x16AD JUMP JUMPDEST SWAP2 POP DUP2 SWAP1 POP SWAP3 SWAP2 POP POP JUMP JUMPDEST PUSH32 0x4E487B7100000000000000000000000000000000000000000000000000000000 PUSH0 MSTORE PUSH1 0x21 PUSH1 0x4 MSTORE PUSH1 0x24 PUSH0 REVERT JUMPDEST PUSH0 DUP3 DUP3 MSTORE PUSH1 0x20 DUP3 ADD SWAP1 POP SWAP3 SWAP2 POP POP JUMP JUMPDEST PUSH32 0x41646472657373206973206E6F7420666F756E64000000000000000000000000 PUSH0 DUP3 ADD MSTORE POP JUMP JUMPDEST PUSH0 PUSH2 0x1764 PUSH1 0x14 DUP4 PUSH2 0x1720 JUMP JUMPDEST SWAP2 POP PUSH2 0x176F DUP3 PUSH2 0x1730 JUMP JUMPDEST PUSH1 0x20 DUP3 ADD SWAP1 POP SWAP2 SWAP1 POP JUMP JUMPDEST PUSH0 PUSH1 0x20 DUP3 ADD SWAP1 POP DUP2 DUP2 SUB PUSH0 DUP4 ADD MSTORE PUSH2 0x1791 DUP2 PUSH2 0x1758 JUMP JUMPDEST SWAP1 POP SWAP2 SWAP1 POP JUMP JUMPDEST PUSH0 DUP2 MLOAD SWAP1 POP PUSH2 0x17A6 DUP2 PUSH2 0x1334 JUMP JUMPDEST SWAP3 SWAP2 POP POP JUMP JUMPDEST PUSH0 PUSH1 0x20 DUP3 DUP5 SUB SLT ISZERO PUSH2 0x17C1 JUMPI PUSH2 0x17C0 PUSH2 0xC63 JUMP JUMPDEST JUMPDEST PUSH0 PUSH2 0x17CE DUP5 DUP3 DUP6 ADD PUSH2 0x1798 JUMP JUMPDEST SWAP2 POP POP SWAP3 SWAP2 POP POP JUMP JUMPDEST PUSH0 PUSH8 0xFFFFFFFFFFFFFFFF DUP3 GT ISZERO PUSH2 0x17F1 JUMPI PUSH2 0x17F0 PUSH2 0xC83 JUMP JUMPDEST JUMPDEST PUSH1 0x20 DUP3 MUL SWAP1 POP PUSH1 0x20 DUP2 ADD SWAP1 POP SWAP2 SWAP1 POP JUMP JUMPDEST PUSH0 PUSH0 REVERT JUMPDEST PUSH0 PUSH2 0x1818 PUSH2 0x1813 DUP5 PUSH2 0xCFB JUMP JUMPDEST PUSH2 0xCE1 JUMP JUMPDEST SWAP1 POP DUP3 DUP2 MSTORE PUSH1 0x20 DUP2 ADD DUP5 DUP5 DUP5 ADD GT ISZERO PUSH2 0x1834 JUMPI PUSH2 0x1833 PUSH2 0xC6F JUMP JUMPDEST JUMPDEST PUSH2 0x183F DUP5 DUP3 DUP6 PUSH2 0xEE0 JUMP JUMPDEST POP SWAP4 SWAP3 POP POP POP JUMP JUMPDEST PUSH0 DUP3 PUSH1 0x1F DUP4 ADD SLT PUSH2 0x185B JUMPI PUSH2 0x185A PUSH2 0xC6B JUMP JUMPDEST JUMPDEST DUP2 MLOAD PUSH2 0x186B DUP5 DUP3 PUSH1 0x20 DUP7 ADD PUSH2 0x1806 JUMP JUMPDEST SWAP2 POP POP SWAP3 SWAP2 POP POP JUMP JUMPDEST PUSH0 DUP2 MLOAD SWAP1 POP PUSH2 0x1882 DUP2 PUSH2 0xDBA JUMP JUMPDEST SWAP3 SWAP2 POP POP JUMP JUMPDEST PUSH0 DUP2 MLOAD SWAP1 POP PUSH2 0x1896 DUP2 PUSH2 0x135E JUMP JUMPDEST SWAP3 SWAP2 POP POP JUMP JUMPDEST PUSH0 PUSH2 0x220 DUP3 DUP5 SUB SLT ISZERO PUSH2 0x18B2 JUMPI PUSH2 0x18B1 PUSH2 0x132C JUMP JUMPDEST JUMPDEST PUSH2 0x18BD PUSH2 0x220 PUSH2 0xCE1 JUMP JUMPDEST SWAP1 POP PUSH0 PUSH2 0x18CC DUP5 DUP3 DUP6 ADD PUSH2 0x1874 JUMP JUMPDEST PUSH0 DUP4 ADD MSTORE POP PUSH1 0x20 PUSH2 0x18DF DUP5 DUP3 DUP6 ADD PUSH2 0x1874 JUMP JUMPDEST PUSH1 0x20 DUP4 ADD MSTORE POP PUSH1 0x40 DUP3 ADD MLOAD PUSH8 0xFFFFFFFFFFFFFFFF DUP2 GT ISZERO PUSH2 0x1903 JUMPI PUSH2 0x1902 PUSH2 0x1330 JUMP JUMPDEST JUMPDEST PUSH2 0x190F DUP5 DUP3 DUP6 ADD PUSH2 0x1847 JUMP JUMPDEST PUSH1 0x40 DUP4 ADD MSTORE POP PUSH1 0x60 DUP3 ADD MLOAD PUSH8 0xFFFFFFFFFFFFFFFF DUP2 GT ISZERO PUSH2 0x1933 JUMPI PUSH2 0x1932 PUSH2 0x1330 JUMP JUMPDEST JUMPDEST PUSH2 0x193F DUP5 DUP3 DUP6 ADD PUSH2 0x1847 JUMP JUMPDEST PUSH1 0x60 DUP4 ADD MSTORE POP PUSH1 0x80 PUSH2 0x1953 DUP5 DUP3 DUP6 ADD PUSH2 0x1798 JUMP JUMPDEST PUSH1 0x80 DUP4 ADD MSTORE POP PUSH1 0xA0 PUSH2 0x1967 DUP5 DUP3 DUP6 ADD PUSH2 0x1798 JUMP JUMPDEST PUSH1 0xA0 DUP4 ADD MSTORE POP PUSH1 0xC0 DUP3 ADD MLOAD PUSH8 0xFFFFFFFFFFFFFFFF DUP2 GT ISZERO PUSH2 0x198B JUMPI PUSH2 0x198A PUSH2 0x1330 JUMP JUMPDEST JUMPDEST PUSH2 0x1997 DUP5 DUP3 DUP6 ADD PUSH2 0x1847 JUMP JUMPDEST PUSH1 0xC0 DUP4 ADD MSTORE POP PUSH1 0xE0 DUP3 ADD MLOAD PUSH8 0xFFFFFFFFFFFFFFFF DUP2 GT ISZERO PUSH2 0x19BB JUMPI PUSH2 0x19BA PUSH2 0x1330 JUMP JUMPDEST JUMPDEST PUSH2 0x19C7 DUP5 DUP3 DUP6 ADD PUSH2 0x1847 JUMP JUMPDEST PUSH1 0xE0 DUP4 ADD MSTORE POP PUSH2 0x100 DUP3 ADD MLOAD PUSH8 0xFFFFFFFFFFFFFFFF DUP2 GT ISZERO PUSH2 0x19EC JUMPI PUSH2 0x19EB PUSH2 0x1330 JUMP JUMPDEST JUMPDEST PUSH2 0x19F8 DUP5 DUP3 DUP6 ADD PUSH2 0x1847 JUMP JUMPDEST PUSH2 0x100 DUP4 ADD MSTORE POP PUSH2 0x120 DUP3 ADD MLOAD PUSH8 0xFFFFFFFFFFFFFFFF DUP2 GT ISZERO PUSH2 0x1A1E JUMPI PUSH2 0x1A1D PUSH2 0x1330 JUMP JUMPDEST JUMPDEST PUSH2 0x1A2A DUP5 DUP3 DUP6 ADD PUSH2 0x1847 JUMP JUMPDEST PUSH2 0x120 DUP4 ADD MSTORE POP PUSH2 0x140 DUP3 ADD MLOAD PUSH8 0xFFFFFFFFFFFFFFFF DUP2 GT ISZERO PUSH2 0x1A50 JUMPI PUSH2 0x1A4F PUSH2 0x1330 JUMP JUMPDEST JUMPDEST PUSH2 0x1A5C DUP5 DUP3 DUP6 ADD PUSH2 0x1847 JUMP JUMPDEST PUSH2 0x140 DUP4 ADD MSTORE POP PUSH2 0x160 PUSH2 0x1A72 DUP5 DUP3 DUP6 ADD PUSH2 0x1798 JUMP JUMPDEST PUSH2 0x160 DUP4 ADD MSTORE POP PUSH2 0x180 PUSH2 0x1A88 DUP5 DUP3 DUP6 ADD PUSH2 0x1888 JUMP JUMPDEST PUSH2 0x180 DUP4 ADD MSTORE POP PUSH2 0x1A0 DUP3 ADD MLOAD PUSH8 0xFFFFFFFFFFFFFFFF DUP2 GT ISZERO PUSH2 0x1AAE JUMPI PUSH2 0x1AAD PUSH2 0x1330 JUMP JUMPDEST JUMPDEST PUSH2 0x1ABA DUP5 DUP3 DUP6 ADD PUSH2 0x1847 JUMP JUMPDEST PUSH2 0x1A0 DUP4 ADD MSTORE POP PUSH2 0x1C0 DUP3 ADD MLOAD PUSH8 0xFFFFFFFFFFFFFFFF DUP2 GT ISZERO PUSH2 0x1AE0 JUMPI PUSH2 0x1ADF PUSH2 0x1330 JUMP JUMPDEST JUMPDEST PUSH2 0x1AEC DUP5 DUP3 DUP6 ADD PUSH2 0x1847 JUMP JUMPDEST PUSH2 0x1C0 DUP4 ADD MSTORE POP PUSH2 0x1E0 DUP3 ADD MLOAD PUSH8 0xFFFFFFFFFFFFFFFF DUP2 GT ISZERO PUSH2 0x1B12 JUMPI PUSH2 0x1B11 PUSH2 0x1330 JUMP JUMPDEST JUMPDEST PUSH2 0x1B1E DUP5 DUP3 DUP6 ADD PUSH2 0x1847 JUMP JUMPDEST PUSH2 0x1E0 DUP4 ADD MSTORE POP PUSH2 0x200 DUP3 ADD MLOAD PUSH8 0xFFFFFFFFFFFFFFFF DUP2 GT ISZERO PUSH2 0x1B44 JUMPI PUSH2 0x1B43 PUSH2 0x1330 JUMP JUMPDEST JUMPDEST PUSH2 0x1B50 DUP5 DUP3 DUP6 ADD PUSH2 0x1847 JUMP JUMPDEST PUSH2 0x200 DUP4 ADD MSTORE POP SWAP3 SWAP2 POP POP JUMP JUMPDEST PUSH0 PUSH1 0x80 DUP3 DUP5 SUB SLT ISZERO PUSH2 0x1B72 JUMPI PUSH2 0x1B71 PUSH2 0x132C JUMP JUMPDEST JUMPDEST PUSH2 0x1B7C PUSH1 0x80 PUSH2 0xCE1 JUMP JUMPDEST SWAP1 POP PUSH0 DUP3 ADD MLOAD PUSH8 0xFFFFFFFFFFFFFFFF DUP2 GT ISZERO PUSH2 0x1B9B JUMPI PUSH2 0x1B9A PUSH2 0x1330 JUMP JUMPDEST JUMPDEST PUSH2 0x1BA7 DUP5 DUP3 DUP6 ADD PUSH2 0x1847 JUMP JUMPDEST PUSH0 DUP4 ADD MSTORE POP PUSH1 0x20 PUSH2 0x1BBA DUP5 DUP3 DUP6 ADD PUSH2 0x1798 JUMP JUMPDEST PUSH1 0x20 DUP4 ADD MSTORE POP PUSH1 0x40 DUP3 ADD MLOAD PUSH8 0xFFFFFFFFFFFFFFFF DUP2 GT ISZERO PUSH2 0x1BDE JUMPI PUSH2 0x1BDD PUSH2 0x1330 JUMP JUMPDEST JUMPDEST PUSH2 0x1BEA DUP5 DUP3 DUP6 ADD PUSH2 0x1847 JUMP JUMPDEST PUSH1 0x40 DUP4 ADD MSTORE POP PUSH1 0x60 DUP3 ADD MLOAD PUSH8 0xFFFFFFFFFFFFFFFF DUP2 GT ISZERO PUSH2 0x1C0E JUMPI PUSH2 0x1C0D PUSH2 0x1330 JUMP JUMPDEST JUMPDEST PUSH2 0x1C1A DUP5 DUP3 DUP6 ADD PUSH2 0x189C JUMP JUMPDEST PUSH1 0x60 DUP4 ADD MSTORE POP SWAP3 SWAP2 POP POP JUMP JUMPDEST PUSH0 PUSH2 0x1C38 PUSH2 0x1C33 DUP5 PUSH2 0x17D7 JUMP JUMPDEST PUSH2 0xCE1 JUMP JUMPDEST SWAP1 POP DUP1 DUP4 DUP3 MSTORE PUSH1 0x20 DUP3 ADD SWAP1 POP PUSH1 0x20 DUP5 MUL DUP4 ADD DUP6 DUP2 GT ISZERO PUSH2 0x1C5B JUMPI PUSH2 0x1C5A PUSH2 0x1802 JUMP JUMPDEST JUMPDEST DUP4 JUMPDEST DUP2 DUP2 LT ISZERO PUSH2 0x1CA2 JUMPI DUP1 MLOAD PUSH8 0xFFFFFFFFFFFFFFFF DUP2 GT ISZERO PUSH2 0x1C80 JUMPI PUSH2 0x1C7F PUSH2 0xC6B JUMP JUMPDEST JUMPDEST DUP1 DUP7 ADD PUSH2 0x1C8D DUP10 DUP3 PUSH2 0x1B5D JUMP JUMPDEST DUP6 MSTORE PUSH1 0x20 DUP6 ADD SWAP5 POP POP POP PUSH1 0x20 DUP2 ADD SWAP1 POP PUSH2 0x1C5D JUMP JUMPDEST POP POP POP SWAP4 SWAP3 POP POP POP JUMP JUMPDEST PUSH0 DUP3 PUSH1 0x1F DUP4 ADD SLT PUSH2 0x1CC0 JUMPI PUSH2 0x1CBF PUSH2 0xC6B JUMP JUMPDEST JUMPDEST DUP2 MLOAD PUSH2 0x1CD0 DUP5 DUP3 PUSH1 0x20 DUP7 ADD PUSH2 0x1C26 JUMP JUMPDEST SWAP2 POP POP SWAP3 SWAP2 POP POP JUMP JUMPDEST PUSH0 PUSH1 0x20 DUP3 DUP5 SUB SLT ISZERO PUSH2 0x1CEE JUMPI PUSH2 0x1CED PUSH2 0xC63 JUMP JUMPDEST JUMPDEST PUSH0 DUP3 ADD MLOAD PUSH8 0xFFFFFFFFFFFFFFFF DUP2 GT ISZERO PUSH2 0x1D0B JUMPI PUSH2 0x1D0A PUSH2 0xC67 JUMP JUMPDEST JUMPDEST PUSH2 0x1D17 DUP5 DUP3 DUP6 ADD PUSH2 0x1CAC JUMP JUMPDEST SWAP2 POP POP SWAP3 SWAP2 POP POP JUMP JUMPDEST PUSH0 PUSH2 0x1D2A DUP3 PUSH2 0xEC6 JUMP JUMPDEST PUSH2 0x1D34 DUP2 DUP6 PUSH2 0x1720 JUMP JUMPDEST SWAP4 POP PUSH2 0x1D44 DUP2 DUP6 PUSH1 0x20 DUP7 ADD PUSH2 0xEE0 JUMP JUMPDEST PUSH2 0x1D4D DUP2 PUSH2 0xC73 JUMP JUMPDEST DUP5 ADD SWAP2 POP POP SWAP3 SWAP2 POP POP JUMP JUMPDEST PUSH2 0x1D61 DUP2 PUSH2 0xDA7 JUMP JUMPDEST DUP3 MSTORE POP POP JUMP JUMPDEST PUSH0 PUSH1 0x80 DUP3 ADD SWAP1 POP DUP2 DUP2 SUB PUSH0 DUP4 ADD MSTORE PUSH2 0x1D7F DUP2 DUP8 PUSH2 0x1D20 JUMP JUMPDEST SWAP1 POP DUP2 DUP2 SUB PUSH1 0x20 DUP4 ADD MSTORE PUSH2 0x1D93 DUP2 DUP7 PUSH2 0x1D20 JUMP JUMPDEST SWAP1 POP PUSH2 0x1DA2 PUSH1 0x40 DUP4 ADD DUP6 PUSH2 0x1D58 JUMP JUMPDEST PUSH2 0x1DAF PUSH1 0x60 DUP4 ADD DUP5 PUSH2 0x1304 JUMP JUMPDEST SWAP6 SWAP5 POP POP POP POP POP JUMP JUMPDEST PUSH0 PUSH2 0x220 DUP4 ADD PUSH0 DUP4 ADD MLOAD PUSH2 0x1DCE PUSH0 DUP7 ADD DUP3 PUSH2 0xF35 JUMP JUMPDEST POP PUSH1 0x20 DUP4 ADD MLOAD PUSH2 0x1DE1 PUSH1 0x20 DUP7 ADD DUP3 PUSH2 0xF35 JUMP JUMPDEST POP PUSH1 0x40 DUP4 ADD MLOAD DUP5 DUP3 SUB PUSH1 0x40 DUP7 ADD MSTORE PUSH2 0x1DF9 DUP3 DUP3 PUSH2 0xEEE JUMP JUMPDEST SWAP2 POP POP PUSH1 0x60 DUP4 ADD MLOAD DUP5 DUP3 SUB PUSH1 0x60 DUP7 ADD MSTORE PUSH2 0x1E13 DUP3 DUP3 PUSH2 0xEEE JUMP JUMPDEST SWAP2 POP POP PUSH1 0x80 DUP4 ADD MLOAD PUSH2 0x1E28 PUSH1 0x80 DUP7 ADD DUP3 PUSH2 0xF26 JUMP JUMPDEST POP PUSH1 0xA0 DUP4 ADD MLOAD PUSH2 0x1E3B PUSH1 0xA0 DUP7 ADD DUP3 PUSH2 0xF26 JUMP JUMPDEST POP PUSH1 0xC0 DUP4 ADD MLOAD DUP5 DUP3 SUB PUSH1 0xC0 DUP7 ADD MSTORE PUSH2 0x1E53 DUP3 DUP3 PUSH2 0xEEE JUMP JUMPDEST SWAP2 POP POP PUSH1 0xE0 DUP4 ADD MLOAD DUP5 DUP3 SUB PUSH1 0xE0 DUP7 ADD MSTORE PUSH2 0x1E6D DUP3 DUP3 PUSH2 0xEEE JUMP JUMPDEST SWAP2 POP POP PUSH2 0x100 DUP4 ADD MLOAD DUP5 DUP3 SUB PUSH2 0x100 DUP7 ADD MSTORE PUSH2 0x1E89 DUP3 DUP3 PUSH2 0xEEE JUMP JUMPDEST SWAP2 POP POP PUSH2 0x120 DUP4 ADD MLOAD DUP5 DUP3 SUB PUSH2 0x120 DUP7 ADD MSTORE PUSH2 0x1EA5 DUP3 DUP3 PUSH2 0xEEE JUMP JUMPDEST SWAP2 POP POP PUSH2 0x140 DUP4 ADD MLOAD DUP5 DUP3 SUB PUSH2 0x140 DUP7 ADD MSTORE PUSH2 0x1EC1 DUP3 DUP3 PUSH2 0xEEE JUMP JUMPDEST SWAP2 POP POP PUSH2 0x160 DUP4 ADD MLOAD PUSH2 0x1ED8 PUSH2 0x160 DUP7 ADD DUP3 PUSH2 0xF26 JUMP JUMPDEST POP PUSH2 0x180 DUP4 ADD MLOAD PUSH2 0x1EED PUSH2 0x180 DUP7 ADD DUP3 PUSH2 0xF4F JUMP JUMPDEST POP PUSH2 0x1A0 DUP4 ADD MLOAD DUP5 DUP3 SUB PUSH2 0x1A0 DUP7 ADD MSTORE PUSH2 0x1F07 DUP3 DUP3 PUSH2 0xEEE JUMP JUMPDEST SWAP2 POP POP PUSH2 0x1C0 DUP4 ADD MLOAD DUP5 DUP3 SUB PUSH2 0x1C0 DUP7 ADD MSTORE PUSH2 0x1F23 DUP3 DUP3 PUSH2 0xEEE JUMP JUMPDEST SWAP2 POP POP PUSH2 0x1E0 DUP4 ADD MLOAD DUP5 DUP3 SUB PUSH2 0x1E0 DUP7 ADD MSTORE PUSH2 0x1F3F DUP3 DUP3 PUSH2 0xEEE JUMP JUMPDEST SWAP2 POP POP PUSH2 0x200 DUP4 ADD MLOAD DUP5 DUP3 SUB PUSH2 0x200 DUP7 ADD MSTORE PUSH2 0x1F5B DUP3 DUP3 PUSH2 0xEEE JUMP JUMPDEST SWAP2 POP POP DUP1 SWAP2 POP POP SWAP3 SWAP2 POP POP JUMP JUMPDEST PUSH0 PUSH1 0x20 DUP3 ADD SWAP1 POP DUP2 DUP2 SUB PUSH0 DUP4 ADD MSTORE PUSH2 0x1F80 DUP2 DUP5 PUSH2 0x1DB8 JUMP JUMPDEST SWAP1 POP SWAP3 SWAP2 POP POP JUMP JUMPDEST PUSH0 DUP2 SWAP1 POP SWAP2 SWAP1 POP JUMP JUMPDEST PUSH0 PUSH2 0x1FAB PUSH2 0x1FA6 PUSH2 0x1FA1 DUP5 PUSH2 0xDA7 JUMP JUMPDEST PUSH2 0x1F88 JUMP JUMPDEST PUSH2 0xE6C JUMP JUMPDEST SWAP1 POP SWAP2 SWAP1 POP JUMP JUMPDEST PUSH2 0x1FBB DUP2 PUSH2 0x1F91 JUMP JUMPDEST DUP3 MSTORE POP POP JUMP JUMPDEST PUSH2 0x1FCA DUP2 PUSH2 0xF44 JUMP JUMPDEST DUP3 MSTORE POP POP JUMP JUMPDEST PUSH0 PUSH1 0x60 DUP3 ADD SWAP1 POP PUSH2 0x1FE3 PUSH0 DUP4 ADD DUP7 PUSH2 0x1D58 JUMP JUMPDEST PUSH2 0x1FF0 PUSH1 0x20 DUP4 ADD DUP6 PUSH2 0x1FB2 JUMP JUMPDEST PUSH2 0x1FFD PUSH1 0x40 DUP4 ADD DUP5 PUSH2 0x1FC1 JUMP JUMPDEST SWAP5 SWAP4 POP POP POP POP JUMP JUMPDEST PUSH32 0x496E76616C696420696E74657276616C20737472696E67000000000000000000 PUSH0 DUP3 ADD MSTORE POP JUMP JUMPDEST PUSH0 PUSH2 0x2039 PUSH1 0x17 DUP4 PUSH2 0x1720 JUMP JUMPDEST SWAP2 POP PUSH2 0x2044 DUP3 PUSH2 0x2005 JUMP JUMPDEST PUSH1 0x20 DUP3 ADD SWAP1 POP SWAP2 SWAP1 POP JUMP JUMPDEST PUSH0 PUSH1 0x20 DUP3 ADD SWAP1 POP DUP2 DUP2 SUB PUSH0 DUP4 ADD MSTORE PUSH2 0x2066 DUP2 PUSH2 0x202D JUMP JUMPDEST SWAP1 POP SWAP2 SWAP1 POP JUMP JUMPDEST PUSH32 0x4E487B7100000000000000000000000000000000000000000000000000000000 PUSH0 MSTORE PUSH1 0x12 PUSH1 0x4 MSTORE PUSH1 0x24 PUSH0 REVERT JUMPDEST PUSH32 0x4E487B7100000000000000000000000000000000000000000000000000000000 PUSH0 MSTORE PUSH1 0x11 PUSH1 0x4 MSTORE PUSH1 0x24 PUSH0 REVERT JUMPDEST PUSH0 PUSH2 0x20D1 DUP3 PUSH2 0xDA7 JUMP JUMPDEST SWAP2 POP PUSH2 0x20DC DUP4 PUSH2 0xDA7 JUMP JUMPDEST SWAP3 POP DUP3 PUSH2 0x20EC JUMPI PUSH2 0x20EB PUSH2 0x206D JUMP JUMPDEST JUMPDEST DUP3 DUP3 DIV SWAP1 POP SWAP3 SWAP2 POP POP JUMP JUMPDEST PUSH0 PUSH2 0x2101 DUP3 PUSH2 0xDA7 JUMP JUMPDEST SWAP2 POP PUSH2 0x210C DUP4 PUSH2 0xDA7 JUMP JUMPDEST SWAP3 POP DUP3 DUP3 MUL PUSH2 0x211A DUP2 PUSH2 0xDA7 JUMP JUMPDEST SWAP2 POP DUP1 DUP3 EQ PUSH2 0x212C JUMPI PUSH2 0x212B PUSH2 0x209A JUMP JUMPDEST JUMPDEST POP SWAP3 SWAP2 POP POP JUMP JUMPDEST PUSH0 PUSH1 0x40 DUP3 ADD SWAP1 POP DUP2 DUP2 SUB PUSH0 DUP4 ADD MSTORE PUSH2 0x214B DUP2 DUP6 PUSH2 0x1D20 JUMP JUMPDEST SWAP1 POP PUSH2 0x215A PUSH1 0x20 DUP4 ADD DUP5 PUSH2 0xE75 JUMP JUMPDEST SWAP4 SWAP3 POP POP POP JUMP JUMPDEST PUSH32 0x4E487B7100000000000000000000000000000000000000000000000000000000 PUSH0 MSTORE PUSH1 0x51 PUSH1 0x4 MSTORE PUSH1 0x24 PUSH0 REVERT INVALID PUSH1 0x80 PUSH1 0x40 MSTORE CALLVALUE DUP1 ISZERO PUSH1 0xE JUMPI PUSH0 PUSH0 REVERT JUMPDEST POP CALLER PUSH1 0x1 PUSH0 PUSH2 0x100 EXP DUP2 SLOAD DUP2 PUSH20 0xFFFFFFFFFFFFFFFFFFFFFFFFFFFFFFFFFFFFFFFF MUL NOT AND SWAP1 DUP4 PUSH20 0xFFFFFFFFFFFFFFFFFFFFFFFFFFFFFFFFFFFFFFFF AND MUL OR SWAP1 SSTORE POP PUSH2 0x1A3C DUP1 PUSH2 0x5C PUSH0 CODECOPY PUSH0 RETURN INVALID PUSH1 0x80 PUSH1 0x40 MSTORE CALLVALUE DUP1 ISZERO PUSH2 0xF JUMPI PUSH0 PUSH0 REVERT JUMPDEST POP PUSH1 0x4 CALLDATASIZE LT PUSH2 0x4A JUMPI PUSH0 CALLDATALOAD PUSH1 0xE0 SHR DUP1 PUSH4 0x48CBAD6E EQ PUSH2 0x4E JUMPI DUP1 PUSH4 0xBE1C766B EQ PUSH2 0x6C JUMPI DUP1 PUSH4 0xC45A0155 EQ PUSH2 0x8A JUMPI DUP1 PUSH4 0xE2A77A4C EQ PUSH2 0xA8 JUMPI JUMPDEST PUSH0 PUSH0 REVERT JUMPDEST PUSH2 0x56 PUSH2 0xC4 JUMP JUMPDEST PUSH1 0x40 MLOAD PUSH2 0x63 SWAP2 SWAP1 PUSH2 0x1024 JUMP JUMPDEST PUSH1 0x40 MLOAD DUP1 SWAP2 SUB SWAP1 RETURN JUMPDEST PUSH2 0x74 PUSH2 0x926 JUMP JUMPDEST PUSH1 0x40 MLOAD PUSH2 0x81 SWAP2 SWAP1 PUSH2 0x1053 JUMP JUMPDEST PUSH1 0x40 MLOAD DUP1 SWAP2 SUB SWAP1 RETURN JUMPDEST PUSH2 0x92 PUSH2 0x931 JUMP JUMPDEST PUSH1 0x40 MLOAD PUSH2 0x9F SWAP2 SWAP1 PUSH2 0x10AB JUMP JUMPDEST PUSH1 0x40 MLOAD DUP1 SWAP2 SUB SWAP1 RETURN JUMPDEST PUSH2 0xC2 PUSH1 0x4 DUP1 CALLDATASIZE SUB DUP2 ADD SWAP1 PUSH2 0xBD SWAP2 SWAP1 PUSH2 0x10F8 JUMP JUMPDEST PUSH2 0x956 JUMP JUMPDEST STOP JUMPDEST PUSH1 0x60 PUSH0 DUP1 SLOAD DUP1 PUSH1 0x20 MUL PUSH1 0x20 ADD PUSH1 0x40 MLOAD SWAP1 DUP2 ADD PUSH1 0x40 MSTORE DUP1 SWAP3 SWAP2 SWAP1 DUP2 DUP2 MSTORE PUSH1 0x20 ADD PUSH0 SWAP1 JUMPDEST DUP3 DUP3 LT ISZERO PUSH2 0x91D JUMPI DUP4 DUP3 SWAP1 PUSH0 MSTORE PUSH1 0x20 PUSH0 KECCAK256 SWAP1 PUSH1 0x13 MUL ADD PUSH1 0x40 MLOAD DUP1 PUSH1 0x80 ADD PUSH1 0x40 MSTORE SWAP1 DUP2 PUSH0 DUP3 ADD DUP1 SLOAD PUSH2 0x116 SWAP1 PUSH2 0x116C JUMP JUMPDEST DUP1 PUSH1 0x1F ADD PUSH1 0x20 DUP1 SWAP2 DIV MUL PUSH1 0x20 ADD PUSH1 0x40 MLOAD SWAP1 DUP2 ADD PUSH1 0x40 MSTORE DUP1 SWAP3 SWAP2 SWAP1 DUP2 DUP2 MSTORE PUSH1 0x20 ADD DUP3 DUP1 SLOAD PUSH2 0x142 SWAP1 PUSH2 0x116C JUMP JUMPDEST DUP1 ISZERO PUSH2 0x18D JUMPI DUP1 PUSH1 0x1F LT PUSH2 0x164 JUMPI PUSH2 0x100 DUP1 DUP4 SLOAD DIV MUL DUP4 MSTORE SWAP2 PUSH1 0x20 ADD SWAP2 PUSH2 0x18D JUMP JUMPDEST DUP3 ADD SWAP2 SWAP1 PUSH0 MSTORE PUSH1 0x20 PUSH0 KECCAK256 SWAP1 JUMPDEST DUP2 SLOAD DUP2 MSTORE SWAP1 PUSH1 0x1 ADD SWAP1 PUSH1 0x20 ADD DUP1 DUP4 GT PUSH2 0x170 JUMPI DUP3 SWAP1 SUB PUSH1 0x1F AND DUP3 ADD SWAP2 JUMPDEST POP POP POP POP POP DUP2 MSTORE PUSH1 0x20 ADD PUSH1 0x1 DUP3 ADD SLOAD DUP2 MSTORE PUSH1 0x20 ADD PUSH1 0x2 DUP3 ADD DUP1 SLOAD PUSH2 0x1B0 SWAP1 PUSH2 0x116C JUMP JUMPDEST DUP1 PUSH1 0x1F ADD PUSH1 0x20 DUP1 SWAP2 DIV MUL PUSH1 0x20 ADD PUSH1 0x40 MLOAD SWAP1 DUP2 ADD PUSH1 0x40 MSTORE DUP1 SWAP3 SWAP2 SWAP1 DUP2 DUP2 MSTORE PUSH1 0x20 ADD DUP3 DUP1 SLOAD PUSH2 0x1DC SWAP1 PUSH2 0x116C JUMP JUMPDEST DUP1 ISZERO PUSH2 0x227 JUMPI DUP1 PUSH1 0x1F LT PUSH2 0x1FE JUMPI PUSH2 0x100 DUP1 DUP4 SLOAD DIV MUL DUP4 MSTORE SWAP2 PUSH1 0x20 ADD SWAP2 PUSH2 0x227 JUMP JUMPDEST DUP3 ADD SWAP2 SWAP1 PUSH0 MSTORE PUSH1 0x20 PUSH0 KECCAK256 SWAP1 JUMPDEST DUP2 SLOAD DUP2 MSTORE SWAP1 PUSH1 0x1 ADD SWAP1 PUSH1 0x20 ADD DUP1 DUP4 GT PUSH2 0x20A JUMPI DUP3 SWAP1 SUB PUSH1 0x1F AND DUP3 ADD SWAP2 JUMPDEST POP POP POP POP POP DUP2 MSTORE PUSH1 0x20 ADD PUSH1 0x3 DUP3 ADD PUSH1 0x40 MLOAD DUP1 PUSH2 0x220 ADD PUSH1 0x40 MSTORE SWAP1 DUP2 PUSH0 DUP3 ADD PUSH0 SWAP1 SLOAD SWAP1 PUSH2 0x100 EXP SWAP1 DIV PUSH8 0xFFFFFFFFFFFFFFFF AND PUSH8 0xFFFFFFFFFFFFFFFF AND PUSH8 0xFFFFFFFFFFFFFFFF AND DUP2 MSTORE PUSH1 0x20 ADD PUSH0 DUP3 ADD PUSH1 0x8 SWAP1 SLOAD SWAP1 PUSH2 0x100 EXP SWAP1 DIV PUSH8 0xFFFFFFFFFFFFFFFF AND PUSH8 0xFFFFFFFFFFFFFFFF AND PUSH8 0xFFFFFFFFFFFFFFFF AND DUP2 MSTORE PUSH1 0x20 ADD PUSH1 0x1 DUP3 ADD DUP1 SLOAD PUSH2 0x2B2 SWAP1 PUSH2 0x116C JUMP JUMPDEST DUP1 PUSH1 0x1F ADD PUSH1 0x20 DUP1 SWAP2 DIV MUL PUSH1 0x20 ADD PUSH1 0x40 MLOAD SWAP1 DUP2 ADD PUSH1 0x40 MSTORE DUP1 SWAP3 SWAP2 SWAP1 DUP2 DUP2 MSTORE PUSH1 0x20 ADD DUP3 DUP1 SLOAD PUSH2 0x2DE SWAP1 PUSH2 0x116C JUMP JUMPDEST DUP1 ISZERO PUSH2 0x329 JUMPI DUP1 PUSH1 0x1F LT PUSH2 0x300 JUMPI PUSH2 0x100 DUP1 DUP4 SLOAD DIV MUL DUP4 MSTORE SWAP2 PUSH1 0x20 ADD SWAP2 PUSH2 0x329 JUMP JUMPDEST DUP3 ADD SWAP2 SWAP1 PUSH0 MSTORE PUSH1 0x20 PUSH0 KECCAK256 SWAP1 JUMPDEST DUP2 SLOAD DUP2 MSTORE SWAP1 PUSH1 0x1 ADD SWAP1 PUSH1 0x20 ADD DUP1 DUP4 GT PUSH2 0x30C JUMPI DUP3 SWAP1 SUB PUSH1 0x1F AND DUP3 ADD SWAP2 JUMPDEST POP POP POP POP POP DUP2 MSTORE PUSH1 0x20 ADD PUSH1 0x2 DUP3 ADD DUP1 SLOAD PUSH2 0x342 SWAP1 PUSH2 0x116C JUMP JUMPDEST DUP1 PUSH1 0x1F ADD PUSH1 0x20 DUP1 SWAP2 DIV MUL PUSH1 0x20 ADD PUSH1 0x40 MLOAD SWAP1 DUP2 ADD PUSH1 0x40 MSTORE DUP1 SWAP3 SWAP2 SWAP1 DUP2 DUP2 MSTORE PUSH1 0x20 ADD DUP3 DUP1 SLOAD PUSH2 0x36E SWAP1 PUSH2 0x116C JUMP JUMPDEST DUP1 ISZERO PUSH2 0x3B9 JUMPI DUP1 PUSH1 0x1F LT PUSH2 0x390 JUMPI PUSH2 0x100 DUP1 DUP4 SLOAD DIV MUL DUP4 MSTORE SWAP2 PUSH1 0x20 ADD SWAP2 PUSH2 0x3B9 JUMP JUMPDEST DUP3 ADD SWAP2 SWAP1 PUSH0 MSTORE PUSH1 0x20 PUSH0 KECCAK256 SWAP1 JUMPDEST DUP2 SLOAD DUP2 MSTORE SWAP1 PUSH1 0x1 ADD SWAP1 PUSH1 0x20 ADD DUP1 DUP4 GT PUSH2 0x39C JUMPI DUP3 SWAP1 SUB PUSH1 0x1F AND DUP3 ADD SWAP2 JUMPDEST POP POP POP POP POP DUP2 MSTORE PUSH1 0x20 ADD PUSH1 0x3 DUP3 ADD SLOAD DUP2 MSTORE PUSH1 0x20 ADD PUSH1 0x4 DUP3 ADD SLOAD DUP2 MSTORE PUSH1 0x20 ADD PUSH1 0x5 DUP3 ADD DUP1 SLOAD PUSH2 0x3E6 SWAP1 PUSH2 0x116C JUMP JUMPDEST DUP1 PUSH1 0x1F ADD PUSH1 0x20 DUP1 SWAP2 DIV MUL PUSH1 0x20 ADD PUSH1 0x40 MLOAD SWAP1 DUP2 ADD PUSH1 0x40 MSTORE DUP1 SWAP3 SWAP2 SWAP1 DUP2 DUP2 MSTORE PUSH1 0x20 ADD DUP3 DUP1 SLOAD PUSH2 0x412 SWAP1 PUSH2 0x116C JUMP JUMPDEST DUP1 ISZERO PUSH2 0x45D JUMPI DUP1 PUSH1 0x1F LT PUSH2 0x434 JUMPI PUSH2 0x100 DUP1 DUP4 SLOAD DIV MUL DUP4 MSTORE SWAP2 PUSH1 0x20 ADD SWAP2 PUSH2 0x45D JUMP JUMPDEST DUP3 ADD SWAP2 SWAP1 PUSH0 MSTORE PUSH1 0x20 PUSH0 KECCAK256 SWAP1 JUMPDEST DUP2 SLOAD DUP2 MSTORE SWAP1 PUSH1 0x1 ADD SWAP1 PUSH1 0x20 ADD DUP1 DUP4 GT PUSH2 0x440 JUMPI DUP3 SWAP1 SUB PUSH1 0x1F AND DUP3 ADD SWAP2 JUMPDEST POP POP POP POP POP DUP2 MSTORE PUSH1 0x20 ADD PUSH1 0x6 DUP3 ADD DUP1 SLOAD PUSH2 0x476 SWAP1 PUSH2 0x116C JUMP JUMPDEST DUP1 PUSH1 0x1F ADD PUSH1 0x20 DUP1 SWAP2 DIV MUL PUSH1 0x20 ADD PUSH1 0x40 MLOAD SWAP1 DUP2 ADD PUSH1 0x40 MSTORE DUP1 SWAP3 SWAP2 SWAP1 DUP2 DUP2 MSTORE PUSH1 0x20 ADD DUP3 DUP1 SLOAD PUSH2 0x4A2 SWAP1 PUSH2 0x116C JUMP JUMPDEST DUP1 ISZERO PUSH2 0x4ED JUMPI DUP1 PUSH1 0x1F LT PUSH2 0x4C4 JUMPI PUSH2 0x100 DUP1 DUP4 SLOAD DIV MUL DUP4 MSTORE SWAP2 PUSH1 0x20 ADD SWAP2 PUSH2 0x4ED JUMP JUMPDEST DUP3 ADD SWAP2 SWAP1 PUSH0 MSTORE PUSH1 0x20 PUSH0 KECCAK256 SWAP1 JUMPDEST DUP2 SLOAD DUP2 MSTORE SWAP1 PUSH1 0x1 ADD SWAP1 PUSH1 0x20 ADD DUP1 DUP4 GT PUSH2 0x4D0 JUMPI DUP3 SWAP1 SUB PUSH1 0x1F AND DUP3 ADD SWAP2 JUMPDEST POP POP POP POP POP DUP2 MSTORE PUSH1 0x20 ADD PUSH1 0x7 DUP3 ADD DUP1 SLOAD PUSH2 0x506 SWAP1 PUSH2 0x116C JUMP JUMPDEST DUP1 PUSH1 0x1F ADD PUSH1 0x20 DUP1 SWAP2 DIV MUL PUSH1 0x20 ADD PUSH1 0x40 MLOAD SWAP1 DUP2 ADD PUSH1 0x40 MSTORE DUP1 SWAP3 SWAP2 SWAP1 DUP2 DUP2 MSTORE PUSH1 0x20 ADD DUP3 DUP1 SLOAD PUSH2 0x532 SWAP1 PUSH2 0x116C JUMP JUMPDEST DUP1 ISZERO PUSH2 0x57D JUMPI DUP1 PUSH1 0x1F LT PUSH2 0x554 JUMPI PUSH2 0x100 DUP1 DUP4 SLOAD DIV MUL DUP4 MSTORE SWAP2 PUSH1 0x20 ADD SWAP2 PUSH2 0x57D JUMP JUMPDEST DUP3 ADD SWAP2 SWAP1 PUSH0 MSTORE PUSH1 0x20 PUSH0 KECCAK256 SWAP1 JUMPDEST DUP2 SLOAD DUP2 MSTORE SWAP1 PUSH1 0x1 ADD SWAP1 PUSH1 0x20 ADD DUP1 DUP4 GT PUSH2 0x560 JUMPI DUP3 SWAP1 SUB PUSH1 0x1F AND DUP3 ADD SWAP2 JUMPDEST POP POP POP POP POP DUP2 MSTORE PUSH1 0x20 ADD PUSH1 0x8 DUP3 ADD DUP1 SLOAD PUSH2 0x596 SWAP1 PUSH2 0x116C JUMP JUMPDEST DUP1 PUSH1 0x1F ADD PUSH1 0x20 DUP1 SWAP2 DIV MUL PUSH1 0x20 ADD PUSH1 0x40 MLOAD SWAP1 DUP2 ADD PUSH1 0x40 MSTORE DUP1 SWAP3 SWAP2 SWAP1 DUP2 DUP2 MSTORE PUSH1 0x20 ADD DUP3 DUP1 SLOAD PUSH2 0x5C2 SWAP1 PUSH2 0x116C JUMP JUMPDEST DUP1 ISZERO PUSH2 0x60D JUMPI DUP1 PUSH1 0x1F LT PUSH2 0x5E4 JUMPI PUSH2 0x100 DUP1 DUP4 SLOAD DIV MUL DUP4 MSTORE SWAP2 PUSH1 0x20 ADD SWAP2 PUSH2 0x60D JUMP JUMPDEST DUP3 ADD SWAP2 SWAP1 PUSH0 MSTORE PUSH1 0x20 PUSH0 KECCAK256 SWAP1 JUMPDEST DUP2 SLOAD DUP2 MSTORE SWAP1 PUSH1 0x1 ADD SWAP1 PUSH1 0x20 ADD DUP1 DUP4 GT PUSH2 0x5F0 JUMPI DUP3 SWAP1 SUB PUSH1 0x1F AND DUP3 ADD SWAP2 JUMPDEST POP POP POP POP POP DUP2 MSTORE PUSH1 0x20 ADD PUSH1 0x9 DUP3 ADD DUP1 SLOAD PUSH2 0x626 SWAP1 PUSH2 0x116C JUMP JUMPDEST DUP1 PUSH1 0x1F ADD PUSH1 0x20 DUP1 SWAP2 DIV MUL PUSH1 0x20 ADD PUSH1 0x40 MLOAD SWAP1 DUP2 ADD PUSH1 0x40 MSTORE DUP1 SWAP3 SWAP2 SWAP1 DUP2 DUP2 MSTORE PUSH1 0x20 ADD DUP3 DUP1 SLOAD PUSH2 0x652 SWAP1 PUSH2 0x116C JUMP JUMPDEST DUP1 ISZERO PUSH2 0x69D JUMPI DUP1 PUSH1 0x1F LT PUSH2 0x674 JUMPI PUSH2 0x100 DUP1 DUP4 SLOAD DIV MUL DUP4 MSTORE SWAP2 PUSH1 0x20 ADD SWAP2 PUSH2 0x69D JUMP JUMPDEST DUP3 ADD SWAP2 SWAP1 PUSH0 MSTORE PUSH1 0x20 PUSH0 KECCAK256 SWAP1 JUMPDEST DUP2 SLOAD DUP2 MSTORE SWAP1 PUSH1 0x1 ADD SWAP1 PUSH1 0x20 ADD DUP1 DUP4 GT PUSH2 0x680 JUMPI DUP3 SWAP1 SUB PUSH1 0x1F AND DUP3 ADD SWAP2 JUMPDEST POP POP POP POP POP DUP2 MSTORE PUSH1 0x20 ADD PUSH1 0xA DUP3 ADD SLOAD DUP2 MSTORE PUSH1 0x20 ADD PUSH1 0xB DUP3 ADD PUSH0 SWAP1 SLOAD SWAP1 PUSH2 0x100 EXP SWAP1 DIV PUSH1 0xFF AND ISZERO ISZERO ISZERO ISZERO DUP2 MSTORE PUSH1 0x20 ADD PUSH1 0xC DUP3 ADD DUP1 SLOAD PUSH2 0x6DA SWAP1 PUSH2 0x116C JUMP JUMPDEST DUP1 PUSH1 0x1F ADD PUSH1 0x20 DUP1 SWAP2 DIV MUL PUSH1 0x20 ADD PUSH1 0x40 MLOAD SWAP1 DUP2 ADD PUSH1 0x40 MSTORE DUP1 SWAP3 SWAP2 SWAP1 DUP2 DUP2 MSTORE PUSH1 0x20 ADD DUP3 DUP1 SLOAD PUSH2 0x706 SWAP1 PUSH2 0x116C JUMP JUMPDEST DUP1 ISZERO PUSH2 0x751 JUMPI DUP1 PUSH1 0x1F LT PUSH2 0x728 JUMPI PUSH2 0x100 DUP1 DUP4 SLOAD DIV MUL DUP4 MSTORE SWAP2 PUSH1 0x20 ADD SWAP2 PUSH2 0x751 JUMP JUMPDEST DUP3 ADD SWAP2 SWAP1 PUSH0 MSTORE PUSH1 0x20 PUSH0 KECCAK256 SWAP1 JUMPDEST DUP2 SLOAD DUP2 MSTORE SWAP1 PUSH1 0x1 ADD SWAP1 PUSH1 0x20 ADD DUP1 DUP4 GT PUSH2 0x734 JUMPI DUP3 SWAP1 SUB PUSH1 0x1F AND DUP3 ADD SWAP2 JUMPDEST POP POP POP POP POP DUP2 MSTORE PUSH1 0x20 ADD PUSH1 0xD DUP3 ADD DUP1 SLOAD PUSH2 0x76A SWAP1 PUSH2 0x116C JUMP JUMPDEST DUP1 PUSH1 0x1F ADD PUSH1 0x20 DUP1 SWAP2 DIV MUL PUSH1 0x20 ADD PUSH1 0x40 MLOAD SWAP1 DUP2 ADD PUSH1 0x40 MSTORE DUP1 SWAP3 SWAP2 SWAP1 DUP2 DUP2 MSTORE PUSH1 0x20 ADD DUP3 DUP1 SLOAD PUSH2 0x796 SWAP1 PUSH2 0x116C JUMP JUMPDEST DUP1 ISZERO PUSH2 0x7E1 JUMPI DUP1 PUSH1 0x1F LT PUSH2 0x7B8 JUMPI PUSH2 0x100 DUP1 DUP4 SLOAD DIV MUL DUP4 MSTORE SWAP2 PUSH1 0x20 ADD SWAP2 PUSH2 0x7E1 JUMP JUMPDEST DUP3 ADD SWAP2 SWAP1 PUSH0 MSTORE PUSH1 0x20 PUSH0 KECCAK256 SWAP1 JUMPDEST DUP2 SLOAD DUP2 MSTORE SWAP1 PUSH1 0x1 ADD SWAP1 PUSH1 0x20 ADD DUP1 DUP4 GT PUSH2 0x7C4 JUMPI DUP3 SWAP1 SUB PUSH1 0x1F AND DUP3 ADD SWAP2 JUMPDEST POP POP POP POP POP DUP2 MSTORE PUSH1 0x20 ADD PUSH1 0xE DUP3 ADD DUP1 SLOAD PUSH2 0x7FA SWAP1 PUSH2 0x116C JUMP JUMPDEST DUP1 PUSH1 0x1F ADD PUSH1 0x20 DUP1 SWAP2 DIV MUL PUSH1 0x20 ADD PUSH1 0x40 MLOAD SWAP1 DUP2 ADD PUSH1 0x40 MSTORE DUP1 SWAP3 SWAP2 SWAP1 DUP2 DUP2 MSTORE PUSH1 0x20 ADD DUP3 DUP1 SLOAD PUSH2 0x826 SWAP1 PUSH2 0x116C JUMP JUMPDEST DUP1 ISZERO PUSH2 0x871 JUMPI DUP1 PUSH1 0x1F LT PUSH2 0x848 JUMPI PUSH2 0x100 DUP1 DUP4 SLOAD DIV MUL DUP4 MSTORE SWAP2 PUSH1 0x20 ADD SWAP2 PUSH2 0x871 JUMP JUMPDEST DUP3 ADD SWAP2 SWAP1 PUSH0 MSTORE PUSH1 0x20 PUSH0 KECCAK256 SWAP1 JUMPDEST DUP2 SLOAD DUP2 MSTORE SWAP1 PUSH1 0x1 ADD SWAP1 PUSH1 0x20 ADD DUP1 DUP4 GT PUSH2 0x854 JUMPI DUP3 SWAP1 SUB PUSH1 0x1F AND DUP3 ADD SWAP2 JUMPDEST POP POP POP POP POP DUP2 MSTORE PUSH1 0x20 ADD PUSH1 0xF DUP3 ADD DUP1 SLOAD PUSH2 0x88A SWAP1 PUSH2 0x116C JUMP JUMPDEST DUP1 PUSH1 0x1F ADD PUSH1 0x20 DUP1 SWAP2 DIV MUL PUSH1 0x20 ADD PUSH1 0x40 MLOAD SWAP1 DUP2 ADD PUSH1 0x40 MSTORE DUP1 SWAP3 SWAP2 SWAP1 DUP2 DUP2 MSTORE PUSH1 0x20 ADD DUP3 DUP1 SLOAD PUSH2 0x8B6 SWAP1 PUSH2 0x116C JUMP JUMPDEST DUP1 ISZERO PUSH2 0x901 JUMPI DUP1 PUSH1 0x1F LT PUSH2 0x8D8 JUMPI PUSH2 0x100 DUP1 DUP4 SLOAD DIV MUL DUP4 MSTORE SWAP2 PUSH1 0x20 ADD SWAP2 PUSH2 0x901 JUMP JUMPDEST DUP3 ADD SWAP2 SWAP1 PUSH0 MSTORE PUSH1 0x20 PUSH0 KECCAK256 SWAP1 JUMPDEST DUP2 SLOAD DUP2 MSTORE SWAP1 PUSH1 0x1 ADD SWAP1 PUSH1 0x20 ADD DUP1 DUP4 GT PUSH2 0x8E4 JUMPI DUP3 SWAP1 SUB PUSH1 0x1F AND DUP3 ADD SWAP2 JUMPDEST POP POP POP POP POP DUP2 MSTORE POP POP DUP2 MSTORE POP POP DUP2 MSTORE PUSH1 0x20 ADD SWAP1 PUSH1 0x1 ADD SWAP1 PUSH2 0xE6 JUMP JUMPDEST POP POP POP POP SWAP1 POP SWAP1 JUMP JUMPDEST PUSH0 PUSH0 DUP1 SLOAD SWAP1 POP SWAP1 POP SWAP1 JUMP JUMPDEST PUSH1 0x1 PUSH0 SWAP1 SLOAD SWAP1 PUSH2 0x100 EXP SWAP1 DIV PUSH20 0xFFFFFFFFFFFFFFFFFFFFFFFFFFFFFFFFFFFFFFFF AND DUP2 JUMP JUMPDEST PUSH0 PUSH2 0x3E8 TIMESTAMP PUSH2 0x965 SWAP2 SWAP1 PUSH2 0x11C9 JUMP JUMPDEST SWAP1 POP PUSH0 PUSH1 0x40 MLOAD DUP1 PUSH1 0x80 ADD PUSH1 0x40 MSTORE DUP1 PUSH1 0x40 MLOAD DUP1 PUSH1 0x40 ADD PUSH1 0x40 MSTORE DUP1 PUSH1 0x5 DUP2 MSTORE PUSH1 0x20 ADD PUSH32 0x6B6C696E65000000000000000000000000000000000000000000000000000000 DUP2 MSTORE POP DUP2 MSTORE PUSH1 0x20 ADD DUP4 DUP2 MSTORE PUSH1 0x20 ADD DUP5 DUP1 PUSH1 0x40 ADD SWAP1 PUSH2 0x9C4 SWAP2 SWAP1 PUSH2 0x1216 JUMP JUMPDEST DUP1 DUP1 PUSH1 0x1F ADD PUSH1 0x20 DUP1 SWAP2 DIV MUL PUSH1 0x20 ADD PUSH1 0x40 MLOAD SWAP1 DUP2 ADD PUSH1 0x40 MSTORE DUP1 SWAP4 SWAP3 SWAP2 SWAP1 DUP2 DUP2 MSTORE PUSH1 0x20 ADD DUP4 DUP4 DUP1 DUP3 DUP5 CALLDATACOPY PUSH0 DUP2 DUP5 ADD MSTORE PUSH1 0x1F NOT PUSH1 0x1F DUP3 ADD AND SWAP1 POP DUP1 DUP4 ADD SWAP3 POP POP POP POP POP POP POP DUP2 MSTORE PUSH1 0x20 ADD DUP5 PUSH2 0xA15 SWAP1 PUSH2 0x16EB JUMP JUMPDEST DUP2 MSTORE POP SWAP1 POP PUSH0 DUP2 SWAP1 DUP1 PUSH1 0x1 DUP2 SLOAD ADD DUP1 DUP3 SSTORE DUP1 SWAP2 POP POP PUSH1 0x1 SWAP1 SUB SWAP1 PUSH0 MSTORE PUSH1 0x20 PUSH0 KECCAK256 SWAP1 PUSH1 0x13 MUL ADD PUSH0 SWAP1 SWAP2 SWAP1 SWAP2 SWAP1 SWAP2 POP PUSH0 DUP3 ADD MLOAD DUP2 PUSH0 ADD SWAP1 DUP2 PUSH2 0xA55 SWAP2 SWAP1 PUSH2 0x189D JUMP JUMPDEST POP PUSH1 0x20 DUP3 ADD MLOAD DUP2 PUSH1 0x1 ADD SSTORE PUSH1 0x40 DUP3 ADD MLOAD DUP2 PUSH1 0x2 ADD SWAP1 DUP2 PUSH2 0xA75 SWAP2 SWAP1 PUSH2 0x189D JUMP JUMPDEST POP PUSH1 0x60 DUP3 ADD MLOAD DUP2 PUSH1 0x3 ADD PUSH0 DUP3 ADD MLOAD DUP2 PUSH0 ADD PUSH0 PUSH2 0x100 EXP DUP2 SLOAD DUP2 PUSH8 0xFFFFFFFFFFFFFFFF MUL NOT AND SWAP1 DUP4 PUSH8 0xFFFFFFFFFFFFFFFF AND MUL OR SWAP1 SSTORE POP PUSH1 0x20 DUP3 ADD MLOAD DUP2 PUSH0 ADD PUSH1 0x8 PUSH2 0x100 EXP DUP2 SLOAD DUP2 PUSH8 0xFFFFFFFFFFFFFFFF MUL NOT AND SWAP1 DUP4 PUSH8 0xFFFFFFFFFFFFFFFF AND MUL OR SWAP1 SSTORE POP PUSH1 0x40 DUP3 ADD MLOAD DUP2 PUSH1 0x1 ADD SWAP1 DUP2 PUSH2 0xAEE SWAP2 SWAP1 PUSH2 0x189D JUMP JUMPDEST POP PUSH1 0x60 DUP3 ADD MLOAD DUP2 PUSH1 0x2 ADD SWAP1 DUP2 PUSH2 0xB04 SWAP2 SWAP1 PUSH2 0x189D JUMP JUMPDEST POP PUSH1 0x80 DUP3 ADD MLOAD DUP2 PUSH1 0x3 ADD SSTORE PUSH1 0xA0 DUP3 ADD MLOAD DUP2 PUSH1 0x4 ADD SSTORE PUSH1 0xC0 DUP3 ADD MLOAD DUP2 PUSH1 0x5 ADD SWAP1 DUP2 PUSH2 0xB2E SWAP2 SWAP1 PUSH2 0x189D JUMP JUMPDEST POP PUSH1 0xE0 DUP3 ADD MLOAD DUP2 PUSH1 0x6 ADD SWAP1 DUP2 PUSH2 0xB44 SWAP2 SWAP1 PUSH2 0x189D JUMP JUMPDEST POP PUSH2 0x100 DUP3 ADD MLOAD DUP2 PUSH1 0x7 ADD SWAP1 DUP2 PUSH2 0xB5B SWAP2 SWAP1 PUSH2 0x189D JUMP JUMPDEST POP PUSH2 0x120 DUP3 ADD MLOAD DUP2 PUSH1 0x8 ADD SWAP1 DUP2 PUSH2 0xB72 SWAP2 SWAP1 PUSH2 0x189D JUMP JUMPDEST POP PUSH2 0x140 DUP3 ADD MLOAD DUP2 PUSH1 0x9 ADD SWAP1 DUP2 PUSH2 0xB89 SWAP2 SWAP1 PUSH2 0x189D JUMP JUMPDEST POP PUSH2 0x160 DUP3 ADD MLOAD DUP2 PUSH1 0xA ADD SSTORE PUSH2 0x180 DUP3 ADD MLOAD DUP2 PUSH1 0xB ADD PUSH0 PUSH2 0x100 EXP DUP2 SLOAD DUP2 PUSH1 0xFF MUL NOT AND SWAP1 DUP4 ISZERO ISZERO MUL OR SWAP1 SSTORE POP PUSH2 0x1A0 DUP3 ADD MLOAD DUP2 PUSH1 0xC ADD SWAP1 DUP2 PUSH2 0xBCB SWAP2 SWAP1 PUSH2 0x189D JUMP JUMPDEST POP PUSH2 0x1C0 DUP3 ADD MLOAD DUP2 PUSH1 0xD ADD SWAP1 DUP2 PUSH2 0xBE2 SWAP2 SWAP1 PUSH2 0x189D JUMP JUMPDEST POP PUSH2 0x1E0 DUP3 ADD MLOAD DUP2 PUSH1 0xE ADD SWAP1 DUP2 PUSH2 0xBF9 SWAP2 SWAP1 PUSH2 0x189D JUMP JUMPDEST POP PUSH2 0x200 DUP3 ADD MLOAD DUP2 PUSH1 0xF ADD SWAP1 DUP2 PUSH2 0xC10 SWAP2 SWAP1 PUSH2 0x189D JUMP JUMPDEST POP POP POP POP POP PUSH32 0x87BE993750FD9F870BC535D97609DF048E07430C47F26712536434958094F873 DUP3 DUP5 DUP1 PUSH1 0x40 ADD SWAP1 PUSH2 0xC47 SWAP2 SWAP1 PUSH2 0x1216 JUMP JUMPDEST DUP7 DUP1 PUSH1 0xC0 ADD SWAP1 PUSH2 0xC57 SWAP2 SWAP1 PUSH2 0x1216 JUMP JUMPDEST DUP9 DUP1 PUSH1 0xE0 ADD SWAP1 PUSH2 0xC67 SWAP2 SWAP1 PUSH2 0x1216 JUMP JUMPDEST PUSH1 0x40 MLOAD PUSH2 0xC7A SWAP8 SWAP7 SWAP6 SWAP5 SWAP4 SWAP3 SWAP2 SWAP1 PUSH2 0x19A8 JUMP JUMPDEST PUSH1 0x40 MLOAD DUP1 SWAP2 SUB SWAP1 LOG1 POP POP POP JUMP JUMPDEST PUSH0 DUP2 MLOAD SWAP1 POP SWAP2 SWAP1 POP JUMP JUMPDEST PUSH0 DUP3 DUP3 MSTORE PUSH1 0x20 DUP3 ADD SWAP1 POP SWAP3 SWAP2 POP POP JUMP JUMPDEST PUSH0 DUP2 SWAP1 POP PUSH1 0x20 DUP3 ADD SWAP1 POP SWAP2 SWAP1 POP JUMP JUMPDEST PUSH0 DUP2 MLOAD SWAP1 POP SWAP2 SWAP1 POP JUMP JUMPDEST PUSH0 DUP3 DUP3 MSTORE PUSH1 0x20 DUP3 ADD SWAP1 POP SWAP3 SWAP2 POP POP JUMP JUMPDEST DUP3 DUP2 DUP4 MCOPY PUSH0 DUP4 DUP4 ADD MSTORE POP POP POP JUMP JUMPDEST PUSH0 PUSH1 0x1F NOT PUSH1 0x1F DUP4 ADD AND SWAP1 POP SWAP2 SWAP1 POP JUMP JUMPDEST PUSH0 PUSH2 0xCF2 DUP3 PUSH2 0xCB0 JUMP JUMPDEST PUSH2 0xCFC DUP2 DUP6 PUSH2 0xCBA JUMP JUMPDEST SWAP4 POP PUSH2 0xD0C DUP2 DUP6 PUSH1 0x20 DUP7 ADD PUSH2 0xCCA JUMP JUMPDEST PUSH2 0xD15 DUP2 PUSH2 0xCD8 JUMP JUMPDEST DUP5 ADD SWAP2 POP POP SWAP3 SWAP2 POP POP JUMP JUMPDEST PUSH0 DUP2 SWAP1 POP SWAP2 SWAP1 POP JUMP JUMPDEST PUSH2 0xD32 DUP2 PUSH2 0xD20 JUMP JUMPDEST DUP3 MSTORE POP POP JUMP JUMPDEST PUSH0 PUSH8 0xFFFFFFFFFFFFFFFF DUP3 AND SWAP1 POP SWAP2 SWAP1 POP JUMP JUMPDEST PUSH2 0xD54 DUP2 PUSH2 0xD38 JUMP JUMPDEST DUP3 MSTORE POP POP JUMP JUMPDEST PUSH0 DUP2 ISZERO ISZERO SWAP1 POP SWAP2 SWAP1 POP JUMP JUMPDEST PUSH2 0xD6E DUP2 PUSH2 0xD5A JUMP JUMPDEST DUP3 MSTORE POP POP JUMP JUMPDEST PUSH0 PUSH2 0x220 DUP4 ADD PUSH0 DUP4 ADD MLOAD PUSH2 0xD8A PUSH0 DUP7 ADD DUP3 PUSH2 0xD4B JUMP JUMPDEST POP PUSH1 0x20 DUP4 ADD MLOAD PUSH2 0xD9D PUSH1 0x20 DUP7 ADD DUP3 PUSH2 0xD4B JUMP JUMPDEST POP PUSH1 0x40 DUP4 ADD MLOAD DUP5 DUP3 SUB PUSH1 0x40 DUP7 ADD MSTORE PUSH2 0xDB5 DUP3 DUP3 PUSH2 0xCE8 JUMP JUMPDEST SWAP2 POP POP PUSH1 0x60 DUP4 ADD MLOAD DUP5 DUP3 SUB PUSH1 0x60 DUP7 ADD MSTORE PUSH2 0xDCF DUP3 DUP3 PUSH2 0xCE8 JUMP JUMPDEST SWAP2 POP POP PUSH1 0x80 DUP4 ADD MLOAD PUSH2 0xDE4 PUSH1 0x80 DUP7 ADD DUP3 PUSH2 0xD29 JUMP JUMPDEST POP PUSH1 0xA0 DUP4 ADD MLOAD PUSH2 0xDF7 PUSH1 0xA0 DUP7 ADD DUP3 PUSH2 0xD29 JUMP JUMPDEST POP PUSH1 0xC0 DUP4 ADD MLOAD DUP5 DUP3 SUB PUSH1 0xC0 DUP7 ADD MSTORE PUSH2 0xE0F DUP3 DUP3 PUSH2 0xCE8 JUMP JUMPDEST SWAP2 POP POP PUSH1 0xE0 DUP4 ADD MLOAD DUP5 DUP3 SUB PUSH1 0xE0 DUP7 ADD MSTORE PUSH2 0xE29 DUP3 DUP3 PUSH2 0xCE8 JUMP JUMPDEST SWAP2 POP POP PUSH2 0x100 DUP4 ADD MLOAD DUP5 DUP3 SUB PUSH2 0x100 DUP7 ADD MSTORE PUSH2 0xE45 DUP3 DUP3 PUSH2 0xCE8 JUMP JUMPDEST SWAP2 POP POP PUSH2 0x120 DUP4 ADD MLOAD DUP5 DUP3 SUB PUSH2 0x120 DUP7 ADD MSTORE PUSH2 0xE61 DUP3 DUP3 PUSH2 0xCE8 JUMP JUMPDEST SWAP2 POP POP PUSH2 0x140 DUP4 ADD MLOAD DUP5 DUP3 SUB PUSH2 0x140 DUP7 ADD MSTORE PUSH2 0xE7D DUP3 DUP3 PUSH2 0xCE8 JUMP JUMPDEST SWAP2 POP POP PUSH2 0x160 DUP4 ADD MLOAD PUSH2 0xE94 PUSH2 0x160 DUP7 ADD DUP3 PUSH2 0xD29 JUMP JUMPDEST POP PUSH2 0x180 DUP4 ADD MLOAD PUSH2 0xEA9 PUSH2 0x180 DUP7 ADD DUP3 PUSH2 0xD65 JUMP JUMPDEST POP PUSH2 0x1A0 DUP4 ADD MLOAD DUP5 DUP3 SUB PUSH2 0x1A0 DUP7 ADD MSTORE PUSH2 0xEC3 DUP3 DUP3 PUSH2 0xCE8 JUMP JUMPDEST SWAP2 POP POP PUSH2 0x1C0 DUP4 ADD MLOAD DUP5 DUP3 SUB PUSH2 0x1C0 DUP7 ADD MSTORE PUSH2 0xEDF DUP3 DUP3 PUSH2 0xCE8 JUMP JUMPDEST SWAP2 POP POP PUSH2 0x1E0 DUP4 ADD MLOAD DUP5 DUP3 SUB PUSH2 0x1E0 DUP7 ADD MSTORE PUSH2 0xEFB DUP3 DUP3 PUSH2 0xCE8 JUMP JUMPDEST SWAP2 POP POP PUSH2 0x200 DUP4 ADD MLOAD DUP5 DUP3 SUB PUSH2 0x200 DUP7 ADD MSTORE PUSH2 0xF17 DUP3 DUP3 PUSH2 0xCE8 JUMP JUMPDEST SWAP2 POP POP DUP1 SWAP2 POP POP SWAP3 SWAP2 POP POP JUMP JUMPDEST PUSH0 PUSH1 0x80 DUP4 ADD PUSH0 DUP4 ADD MLOAD DUP5 DUP3 SUB PUSH0 DUP7 ADD MSTORE PUSH2 0xF3E DUP3 DUP3 PUSH2 0xCE8 JUMP JUMPDEST SWAP2 POP POP PUSH1 0x20 DUP4 ADD MLOAD PUSH2 0xF53 PUSH1 0x20 DUP7 ADD DUP3 PUSH2 0xD29 JUMP JUMPDEST POP PUSH1 0x40 DUP4 ADD MLOAD DUP5 DUP3 SUB PUSH1 0x40 DUP7 ADD MSTORE PUSH2 0xF6B DUP3 DUP3 PUSH2 0xCE8 JUMP JUMPDEST SWAP2 POP POP PUSH1 0x60 DUP4 ADD MLOAD DUP5 DUP3 SUB PUSH1 0x60 DUP7 ADD MSTORE PUSH2 0xF85 DUP3 DUP3 PUSH2 0xD74 JUMP JUMPDEST SWAP2 POP POP DUP1 SWAP2 POP POP SWAP3 SWAP2 POP POP JUMP JUMPDEST PUSH0 PUSH2 0xF9D DUP4 DUP4 PUSH2 0xF24 JUMP JUMPDEST SWAP1 POP SWAP3 SWAP2 POP POP JUMP JUMPDEST PUSH0 PUSH1 0x20 DUP3 ADD SWAP1 POP SWAP2 SWAP1 POP JUMP JUMPDEST PUSH0 PUSH2 0xFBB DUP3 PUSH2 0xC87 JUMP JUMPDEST PUSH2 0xFC5 DUP2 DUP6 PUSH2 0xC91 JUMP JUMPDEST SWAP4 POP DUP4 PUSH1 0x20 DUP3 MUL DUP6 ADD PUSH2 0xFD7 DUP6 PUSH2 0xCA1 JUMP JUMPDEST DUP1 PUSH0 JUMPDEST DUP6 DUP2 LT ISZERO PUSH2 0x1012 JUMPI DUP5 DUP5 SUB DUP10 MSTORE DUP2 MLOAD PUSH2 0xFF3 DUP6 DUP3 PUSH2 0xF92 JUMP JUMPDEST SWAP5 POP PUSH2 0xFFE DUP4 PUSH2 0xFA5 JUMP JUMPDEST SWAP3 POP PUSH1 0x20 DUP11 ADD SWAP10 POP POP PUSH1 0x1 DUP2 ADD SWAP1 POP PUSH2 0xFDA JUMP JUMPDEST POP DUP3 SWAP8 POP DUP8 SWAP6 POP POP POP POP POP POP SWAP3 SWAP2 POP POP JUMP JUMPDEST PUSH0 PUSH1 0x20 DUP3 ADD SWAP1 POP DUP2 DUP2 SUB PUSH0 DUP4 ADD MSTORE PUSH2 0x103C DUP2 DUP5 PUSH2 0xFB1 JUMP JUMPDEST SWAP1 POP SWAP3 SWAP2 POP POP JUMP JUMPDEST PUSH2 0x104D DUP2 PUSH2 0xD20 JUMP JUMPDEST DUP3 MSTORE POP POP JUMP JUMPDEST PUSH0 PUSH1 0x20 DUP3 ADD SWAP1 POP PUSH2 0x1066 PUSH0 DUP4 ADD DUP5 PUSH2 0x1044 JUMP JUMPDEST SWAP3 SWAP2 POP POP JUMP JUMPDEST PUSH0 PUSH20 0xFFFFFFFFFFFFFFFFFFFFFFFFFFFFFFFFFFFFFFFF DUP3 AND SWAP1 POP SWAP2 SWAP1 POP JUMP JUMPDEST PUSH0 PUSH2 0x1095 DUP3 PUSH2 0x106C JUMP JUMPDEST SWAP1 POP SWAP2 SWAP1 POP JUMP JUMPDEST PUSH2 0x10A5 DUP2 PUSH2 0x108B JUMP JUMPDEST DUP3 MSTORE POP POP JUMP JUMPDEST PUSH0 PUSH1 0x20 DUP3 ADD SWAP1 POP PUSH2 0x10BE PUSH0 DUP4 ADD DUP5 PUSH2 0x109C JUMP JUMPDEST SWAP3 SWAP2 POP POP JUMP JUMPDEST PUSH0 PUSH1 0x40 MLOAD SWAP1 POP SWAP1 JUMP JUMPDEST PUSH0 PUSH0 REVERT JUMPDEST PUSH0 PUSH0 REVERT JUMPDEST PUSH0 PUSH0 REVERT JUMPDEST PUSH0 PUSH2 0x220 DUP3 DUP5 SUB SLT ISZERO PUSH2 0x10EF JUMPI PUSH2 0x10EE PUSH2 0x10D5 JUMP JUMPDEST JUMPDEST DUP2 SWAP1 POP SWAP3 SWAP2 POP POP JUMP JUMPDEST PUSH0 PUSH1 0x20 DUP3 DUP5 SUB SLT ISZERO PUSH2 0x110D JUMPI PUSH2 0x110C PUSH2 0x10CD JUMP JUMPDEST JUMPDEST PUSH0 DUP3 ADD CALLDATALOAD PUSH8 0xFFFFFFFFFFFFFFFF DUP2 GT ISZERO PUSH2 0x112A JUMPI PUSH2 0x1129 PUSH2 0x10D1 JUMP JUMPDEST JUMPDEST PUSH2 0x1136 DUP5 DUP3 DUP6 ADD PUSH2 0x10D9 JUMP JUMPDEST SWAP2 POP POP SWAP3 SWAP2 POP POP JUMP JUMPDEST PUSH32 0x4E487B7100000000000000000000000000000000000000000000000000000000 PUSH0 MSTORE PUSH1 0x22 PUSH1 0x4 MSTORE PUSH1 0x24 PUSH0 REVERT JUMPDEST PUSH0 PUSH1 0x2 DUP3 DIV SWAP1 POP PUSH1 0x1 DUP3 AND DUP1 PUSH2 0x1183 JUMPI PUSH1 0x7F DUP3 AND SWAP2 POP JUMPDEST PUSH1 0x20 DUP3 LT DUP2 SUB PUSH2 0x1196 JUMPI PUSH2 0x1195 PUSH2 0x113F JUMP JUMPDEST JUMPDEST POP SWAP2 SWAP1 POP JUMP JUMPDEST PUSH32 0x4E487B7100000000000000000000000000000000000000000000000000000000 PUSH0 MSTORE PUSH1 0x11 PUSH1 0x4 MSTORE PUSH1 0x24 PUSH0 REVERT JUMPDEST PUSH0 PUSH2 0x11D3 DUP3 PUSH2 0xD20 JUMP JUMPDEST SWAP2 POP PUSH2 0x11DE DUP4 PUSH2 0xD20 JUMP JUMPDEST SWAP3 POP DUP3 DUP3 MUL PUSH2 0x11EC DUP2 PUSH2 0xD20 JUMP JUMPDEST SWAP2 POP DUP3 DUP3 DIV DUP5 EQ DUP4 ISZERO OR PUSH2 0x1203 JUMPI PUSH2 0x1202 PUSH2 0x119C JUMP JUMPDEST JUMPDEST POP SWAP3 SWAP2 POP POP JUMP JUMPDEST PUSH0 PUSH0 REVERT JUMPDEST PUSH0 PUSH0 REVERT JUMPDEST PUSH0 PUSH0 REVERT JUMPDEST PUSH0 PUSH0 DUP4 CALLDATALOAD PUSH1 0x1 PUSH1 0x20 SUB DUP5 CALLDATASIZE SUB SUB DUP2 SLT PUSH2 0x1232 JUMPI PUSH2 0x1231 PUSH2 0x120A JUMP JUMPDEST JUMPDEST DUP1 DUP5 ADD SWAP3 POP DUP3 CALLDATALOAD SWAP2 POP PUSH8 0xFFFFFFFFFFFFFFFF DUP3 GT ISZERO PUSH2 0x1254 JUMPI PUSH2 0x1253 PUSH2 0x120E JUMP JUMPDEST JUMPDEST PUSH1 0x20 DUP4 ADD SWAP3 POP PUSH1 0x1 DUP3 MUL CALLDATASIZE SUB DUP4 SGT ISZERO PUSH2 0x1270 JUMPI PUSH2 0x126F PUSH2 0x1212 JUMP JUMPDEST JUMPDEST POP SWAP3 POP SWAP3 SWAP1 POP JUMP JUMPDEST PUSH0 PUSH0 REVERT JUMPDEST PUSH32 0x4E487B7100000000000000000000000000000000000000000000000000000000 PUSH0 MSTORE PUSH1 0x41 PUSH1 0x4 MSTORE PUSH1 0x24 PUSH0 REVERT JUMPDEST PUSH2 0x12B2 DUP3 PUSH2 0xCD8 JUMP JUMPDEST DUP2 ADD DUP2 DUP2 LT PUSH8 0xFFFFFFFFFFFFFFFF DUP3 GT OR ISZERO PUSH2 0x12D1 JUMPI PUSH2 0x12D0 PUSH2 0x127C JUMP JUMPDEST JUMPDEST DUP1 PUSH1 0x40 MSTORE POP POP POP JUMP JUMPDEST PUSH0 PUSH2 0x12E3 PUSH2 0x10C4 JUMP JUMPDEST SWAP1 POP PUSH2 0x12EF DUP3 DUP3 PUSH2 0x12A9 JUMP JUMPDEST SWAP2 SWAP1 POP JUMP JUMPDEST PUSH0 PUSH0 REVERT JUMPDEST PUSH2 0x1301 DUP2 PUSH2 0xD38 JUMP JUMPDEST DUP2 EQ PUSH2 0x130B JUMPI PUSH0 PUSH0 REVERT JUMPDEST POP JUMP JUMPDEST PUSH0 DUP2 CALLDATALOAD SWAP1 POP PUSH2 0x131C DUP2 PUSH2 0x12F8 JUMP JUMPDEST SWAP3 SWAP2 POP POP JUMP JUMPDEST PUSH0 PUSH0 REVERT JUMPDEST PUSH0 PUSH0 REVERT JUMPDEST PUSH0 PUSH8 0xFFFFFFFFFFFFFFFF DUP3 GT ISZERO PUSH2 0x1344 JUMPI PUSH2 0x1343 PUSH2 0x127C JUMP JUMPDEST JUMPDEST PUSH2 0x134D DUP3 PUSH2 0xCD8 JUMP JUMPDEST SWAP1 POP PUSH1 0x20 DUP2 ADD SWAP1 POP SWAP2 SWAP1 POP JUMP JUMPDEST DUP3 DUP2 DUP4 CALLDATACOPY PUSH0 DUP4 DUP4 ADD MSTORE POP POP POP JUMP JUMPDEST PUSH0 PUSH2 0x137A PUSH2 0x1375 DUP5 PUSH2 0x132A JUMP JUMPDEST PUSH2 0x12DA JUMP JUMPDEST SWAP1 POP DUP3 DUP2 MSTORE PUSH1 0x20 DUP2 ADD DUP5 DUP5 DUP5 ADD GT ISZERO PUSH2 0x1396 JUMPI PUSH2 0x1395 PUSH2 0x1326 JUMP JUMPDEST JUMPDEST PUSH2 0x13A1 DUP5 DUP3 DUP6 PUSH2 0x135A JUMP JUMPDEST POP SWAP4 SWAP3 POP POP POP JUMP JUMPDEST PUSH0 DUP3 PUSH1 0x1F DUP4 ADD SLT PUSH2 0x13BD JUMPI PUSH2 0x13BC PUSH2 0x1322 JUMP JUMPDEST JUMPDEST DUP2 CALLDATALOAD PUSH2 0x13CD DUP5 DUP3 PUSH1 0x20 DUP7 ADD PUSH2 0x1368 JUMP JUMPDEST SWAP2 POP POP SWAP3 SWAP2 POP POP JUMP JUMPDEST PUSH2 0x13DF DUP2 PUSH2 0xD20 JUMP JUMPDEST DUP2 EQ PUSH2 0x13E9 JUMPI PUSH0 PUSH0 REVERT JUMPDEST POP JUMP JUMPDEST PUSH0 DUP2 CALLDATALOAD SWAP1 POP PUSH2 0x13FA DUP2 PUSH2 0x13D6 JUMP JUMPDEST SWAP3 SWAP2 POP POP JUMP JUMPDEST PUSH2 0x1409 DUP2 PUSH2 0xD5A JUMP JUMPDEST DUP2 EQ PUSH2 0x1413 JUMPI PUSH0 PUSH0 REVERT JUMPDEST POP JUMP JUMPDEST PUSH0 DUP2 CALLDATALOAD SWAP1 POP PUSH2 0x1424 DUP2 PUSH2 0x1400 JUMP JUMPDEST SWAP3 SWAP2 POP POP JUMP JUMPDEST PUSH0 PUSH2 0x220 DUP3 DUP5 SUB SLT ISZERO PUSH2 0x1440 JUMPI PUSH2 0x143F PUSH2 0x1278 JUMP JUMPDEST JUMPDEST PUSH2 0x144B PUSH2 0x220 PUSH2 0x12DA JUMP JUMPDEST SWAP1 POP PUSH0 PUSH2 0x145A DUP5 DUP3 DUP6 ADD PUSH2 0x130E JUMP JUMPDEST PUSH0 DUP4 ADD MSTORE POP PUSH1 0x20 PUSH2 0x146D DUP5 DUP3 DUP6 ADD PUSH2 0x130E JUMP JUMPDEST PUSH1 0x20 DUP4 ADD MSTORE POP PUSH1 0x40 DUP3 ADD CALLDATALOAD PUSH8 0xFFFFFFFFFFFFFFFF DUP2 GT ISZERO PUSH2 0x1491 JUMPI PUSH2 0x1490 PUSH2 0x12F4 JUMP JUMPDEST JUMPDEST PUSH2 0x149D DUP5 DUP3 DUP6 ADD PUSH2 0x13A9 JUMP JUMPDEST PUSH1 0x40 DUP4 ADD MSTORE POP PUSH1 0x60 DUP3 ADD CALLDATALOAD PUSH8 0xFFFFFFFFFFFFFFFF DUP2 GT ISZERO PUSH2 0x14C1 JUMPI PUSH2 0x14C0 PUSH2 0x12F4 JUMP JUMPDEST JUMPDEST PUSH2 0x14CD DUP5 DUP3 DUP6 ADD PUSH2 0x13A9 JUMP JUMPDEST PUSH1 0x60 DUP4 ADD MSTORE POP PUSH1 0x80 PUSH2 0x14E1 DUP5 DUP3 DUP6 ADD PUSH2 0x13EC JUMP JUMPDEST PUSH1 0x80 DUP4 ADD MSTORE POP PUSH1 0xA0 PUSH2 0x14F5 DUP5 DUP3 DUP6 ADD PUSH2 0x13EC JUMP JUMPDEST PUSH1 0xA0 DUP4 ADD MSTORE POP PUSH1 0xC0 DUP3 ADD CALLDATALOAD PUSH8 0xFFFFFFFFFFFFFFFF DUP2 GT ISZERO PUSH2 0x1519 JUMPI PUSH2 0x1518 PUSH2 0x12F4 JUMP JUMPDEST JUMPDEST PUSH2 0x1525 DUP5 DUP3 DUP6 ADD PUSH2 0x13A9 JUMP JUMPDEST PUSH1 0xC0 DUP4 ADD MSTORE POP PUSH1 0xE0 DUP3 ADD CALLDATALOAD PUSH8 0xFFFFFFFFFFFFFFFF DUP2 GT ISZERO PUSH2 0x1549 JUMPI PUSH2 0x1548 PUSH2 0x12F4 JUMP JUMPDEST JUMPDEST PUSH2 0x1555 DUP5 DUP3 DUP6 ADD PUSH2 0x13A9 JUMP JUMPDEST PUSH1 0xE0 DUP4 ADD MSTORE POP PUSH2 0x100 DUP3 ADD CALLDATALOAD PUSH8 0xFFFFFFFFFFFFFFFF DUP2 GT ISZERO PUSH2 0x157A JUMPI PUSH2 0x1579 PUSH2 0x12F4 JUMP JUMPDEST JUMPDEST PUSH2 0x1586 DUP5 DUP3 DUP6 ADD PUSH2 0x13A9 JUMP JUMPDEST PUSH2 0x100 DUP4 ADD MSTORE POP PUSH2 0x120 DUP3 ADD CALLDATALOAD PUSH8 0xFFFFFFFFFFFFFFFF DUP2 GT ISZERO PUSH2 0x15AC JUMPI PUSH2 0x15AB PUSH2 0x12F4 JUMP JUMPDEST JUMPDEST PUSH2 0x15B8 DUP5 DUP3 DUP6 ADD PUSH2 0x13A9 JUMP JUMPDEST PUSH2 0x120 DUP4 ADD MSTORE POP PUSH2 0x140 DUP3 ADD CALLDATALOAD PUSH8 0xFFFFFFFFFFFFFFFF DUP2 GT ISZERO PUSH2 0x15DE JUMPI PUSH2 0x15DD PUSH2 0x12F4 JUMP JUMPDEST JUMPDEST PUSH2 0x15EA DUP5 DUP3 DUP6 ADD PUSH2 0x13A9 JUMP JUMPDEST PUSH2 0x140 DUP4 ADD MSTORE POP PUSH2 0x160 PUSH2 0x1600 DUP5 DUP3 DUP6 ADD PUSH2 0x13EC JUMP JUMPDEST PUSH2 0x160 DUP4 ADD MSTORE POP PUSH2 0x180 PUSH2 0x1616 DUP5 DUP3 DUP6 ADD PUSH2 0x1416 JUMP JUMPDEST PUSH2 0x180 DUP4 ADD MSTORE POP PUSH2 0x1A0 DUP3 ADD CALLDATALOAD PUSH8 0xFFFFFFFFFFFFFFFF DUP2 GT ISZERO PUSH2 0x163C JUMPI PUSH2 0x163B PUSH2 0x12F4 JUMP JUMPDEST JUMPDEST PUSH2 0x1648 DUP5 DUP3 DUP6 ADD PUSH2 0x13A9 JUMP JUMPDEST PUSH2 0x1A0 DUP4 ADD MSTORE POP PUSH2 0x1C0 DUP3 ADD CALLDATALOAD PUSH8 0xFFFFFFFFFFFFFFFF DUP2 GT ISZERO PUSH2 0x166E JUMPI PUSH2 0x166D PUSH2 0x12F4 JUMP JUMPDEST JUMPDEST PUSH2 0x167A DUP5 DUP3 DUP6 ADD PUSH2 0x13A9 JUMP JUMPDEST PUSH2 0x1C0 DUP4 ADD MSTORE POP PUSH2 0x1E0 DUP3 ADD CALLDATALOAD PUSH8 0xFFFFFFFFFFFFFFFF DUP2 GT ISZERO PUSH2 0x16A0 JUMPI PUSH2 0x169F PUSH2 0x12F4 JUMP JUMPDEST JUMPDEST PUSH2 0x16AC DUP5 DUP3 DUP6 ADD PUSH2 0x13A9 JUMP JUMPDEST PUSH2 0x1E0 DUP4 ADD MSTORE POP PUSH2 0x200 DUP3 ADD CALLDATALOAD PUSH8 0xFFFFFFFFFFFFFFFF DUP2 GT ISZERO PUSH2 0x16D2 JUMPI PUSH2 0x16D1 PUSH2 0x12F4 JUMP JUMPDEST JUMPDEST PUSH2 0x16DE DUP5 DUP3 DUP6 ADD PUSH2 0x13A9 JUMP JUMPDEST PUSH2 0x200 DUP4 ADD MSTORE POP SWAP3 SWAP2 POP POP JUMP JUMPDEST PUSH0 PUSH2 0x16F6 CALLDATASIZE DUP4 PUSH2 0x142A JUMP JUMPDEST SWAP1 POP SWAP2 SWAP1 POP JUMP JUMPDEST PUSH0 DUP2 SWAP1 POP DUP2 PUSH0 MSTORE PUSH1 0x20 PUSH0 KECCAK256 SWAP1 POP SWAP2 SWAP1 POP JUMP JUMPDEST PUSH0 PUSH1 0x20 PUSH1 0x1F DUP4 ADD DIV SWAP1 POP SWAP2 SWAP1 POP JUMP JUMPDEST PUSH0 DUP3 DUP3 SHL SWAP1 POP SWAP3 SWAP2 POP POP JUMP JUMPDEST PUSH0 PUSH1 0x8 DUP4 MUL PUSH2 0x1759 PUSH32 0xFFFFFFFFFFFFFFFFFFFFFFFFFFFFFFFFFFFFFFFFFFFFFFFFFFFFFFFFFFFFFFFF DUP3 PUSH2 0x171E JUMP JUMPDEST PUSH2 0x1763 DUP7 DUP4 PUSH2 0x171E JUMP JUMPDEST SWAP6 POP DUP1 NOT DUP5 AND SWAP4 POP DUP1 DUP7 AND DUP5 OR SWAP3 POP POP POP SWAP4 SWAP3 POP POP POP JUMP JUMPDEST PUSH0 DUP2 SWAP1 POP SWAP2 SWAP1 POP JUMP JUMPDEST PUSH0 PUSH2 0x179E PUSH2 0x1799 PUSH2 0x1794 DUP5 PUSH2 0xD20 JUMP JUMPDEST PUSH2 0x177B JUMP JUMPDEST PUSH2 0xD20 JUMP JUMPDEST SWAP1 POP SWAP2 SWAP1 POP JUMP JUMPDEST PUSH0 DUP2 SWAP1 POP SWAP2 SWAP1 POP JUMP JUMPDEST PUSH2 0x17B7 DUP4 PUSH2 0x1784 JUMP JUMPDEST PUSH2 0x17CB PUSH2 0x17C3 DUP3 PUSH2 0x17A5 JUMP JUMPDEST DUP5 DUP5 SLOAD PUSH2 0x172A JUMP JUMPDEST DUP3 SSTORE POP POP POP POP JUMP JUMPDEST PUSH0 PUSH0 SWAP1 POP SWAP1 JUMP JUMPDEST PUSH2 0x17E2 PUSH2 0x17D3 JUMP JUMPDEST PUSH2 0x17ED DUP2 DUP5 DUP5 PUSH2 0x17AE JUMP JUMPDEST POP POP POP JUMP JUMPDEST JUMPDEST DUP2 DUP2 LT ISZERO PUSH2 0x1810 JUMPI PUSH2 0x1805 PUSH0 DUP3 PUSH2 0x17DA JUMP JUMPDEST PUSH1 0x1 DUP2 ADD SWAP1 POP PUSH2 0x17F3 JUMP JUMPDEST POP POP JUMP JUMPDEST PUSH1 0x1F DUP3 GT ISZERO PUSH2 0x1855 JUMPI PUSH2 0x1826 DUP2 PUSH2 0x16FD JUMP JUMPDEST PUSH2 0x182F DUP5 PUSH2 0x170F JUMP JUMPDEST DUP2 ADD PUSH1 0x20 DUP6 LT ISZERO PUSH2 0x183E JUMPI DUP2 SWAP1 POP JUMPDEST PUSH2 0x1852 PUSH2 0x184A DUP6 PUSH2 0x170F JUMP JUMPDEST DUP4 ADD DUP3 PUSH2 0x17F2 JUMP JUMPDEST POP POP JUMPDEST POP POP POP JUMP JUMPDEST PUSH0 DUP3 DUP3 SHR SWAP1 POP SWAP3 SWAP2 POP POP JUMP JUMPDEST PUSH0 PUSH2 0x1875 PUSH0 NOT DUP5 PUSH1 0x8 MUL PUSH2 0x185A JUMP JUMPDEST NOT DUP1 DUP4 AND SWAP2 POP POP SWAP3 SWAP2 POP POP JUMP JUMPDEST PUSH0 PUSH2 0x188D DUP4 DUP4 PUSH2 0x1866 JUMP JUMPDEST SWAP2 POP DUP3 PUSH1 0x2 MUL DUP3 OR SWAP1 POP SWAP3 SWAP2 POP POP JUMP JUMPDEST PUSH2 0x18A6 DUP3 PUSH2 0xCB0 JUMP JUMPDEST PUSH8 0xFFFFFFFFFFFFFFFF DUP2 GT ISZERO PUSH2 0x18BF JUMPI PUSH2 0x18BE PUSH2 0x127C JUMP JUMPDEST JUMPDEST PUSH2 0x18C9 DUP3 SLOAD PUSH2 0x116C JUMP JUMPDEST PUSH2 0x18D4 DUP3 DUP3 DUP6 PUSH2 0x1814 JUMP JUMPDEST PUSH0 PUSH1 0x20 SWAP1 POP PUSH1 0x1F DUP4 GT PUSH1 0x1 DUP2 EQ PUSH2 0x1905 JUMPI PUSH0 DUP5 ISZERO PUSH2 0x18F3 JUMPI DUP3 DUP8 ADD MLOAD SWAP1 POP JUMPDEST PUSH2 0x18FD DUP6 DUP3 PUSH2 0x1882 JUMP JUMPDEST DUP7 SSTORE POP PUSH2 0x1964 JUMP JUMPDEST PUSH1 0x1F NOT DUP5 AND PUSH2 0x1913 DUP7 PUSH2 0x16FD JUMP JUMPDEST PUSH0 JUMPDEST DUP3 DUP2 LT ISZERO PUSH2 0x193A JUMPI DUP5 DUP10 ADD MLOAD DUP3 SSTORE PUSH1 0x1 DUP3 ADD SWAP2 POP PUSH1 0x20 DUP6 ADD SWAP5 POP PUSH1 0x20 DUP2 ADD SWAP1 POP PUSH2 0x1915 JUMP JUMPDEST DUP7 DUP4 LT ISZERO PUSH2 0x1957 JUMPI DUP5 DUP10 ADD MLOAD PUSH2 0x1953 PUSH1 0x1F DUP10 AND DUP3 PUSH2 0x1866 JUMP JUMPDEST DUP4 SSTORE POP JUMPDEST PUSH1 0x1 PUSH1 0x2 DUP9 MUL ADD DUP9 SSTORE POP POP POP JUMPDEST POP POP POP POP POP POP JUMP JUMPDEST PUSH0 DUP3 DUP3 MSTORE PUSH1 0x20 DUP3 ADD SWAP1 POP SWAP3 SWAP2 POP POP JUMP JUMPDEST PUSH0 PUSH2 0x1987 DUP4 DUP6 PUSH2 0x196C JUMP JUMPDEST SWAP4 POP PUSH2 0x1994 DUP4 DUP6 DUP5 PUSH2 0x135A JUMP JUMPDEST PUSH2 0x199D DUP4 PUSH2 0xCD8 JUMP JUMPDEST DUP5 ADD SWAP1 POP SWAP4 SWAP3 POP POP POP JUMP JUMPDEST PUSH0 PUSH1 0x80 DUP3 ADD SWAP1 POP PUSH2 0x19BB PUSH0 DUP4 ADD DUP11 PUSH2 0x1044 JUMP JUMPDEST DUP2 DUP2 SUB PUSH1 0x20 DUP4 ADD MSTORE PUSH2 0x19CE DUP2 DUP9 DUP11 PUSH2 0x197C JUMP JUMPDEST SWAP1 POP DUP2 DUP2 SUB PUSH1 0x40 DUP4 ADD MSTORE PUSH2 0x19E3 DUP2 DUP7 DUP9 PUSH2 0x197C JUMP JUMPDEST SWAP1 POP DUP2 DUP2 SUB PUSH1 0x60 DUP4 ADD MSTORE PUSH2 0x19F8 DUP2 DUP5 DUP7 PUSH2 0x197C JUMP JUMPDEST SWAP1 POP SWAP9 SWAP8 POP POP POP POP POP POP POP POP JUMP INVALID LOG2 PUSH5 0x6970667358 0x22 SLT KECCAK256 0x2B RETURNDATASIZE SAR EXTDELEGATECALL SDIV DUP1 0xB1 0xBA CHAINID PUSH31 0x88C2444A423153A1625E60110DCAB7B1348FEF58BF0A64736F6C634300081E STOP CALLER LOG2 PUSH5 0x6970667358 0x22 SLT KECCAK256 0xA9 0x29 STATICCALL 0x1E PUSH11 0x2B2D44C8B69168D65155D2 DUP2 XOR CREATE RETURNDATASIZE 0xCB DELEGATECALL CALLER 0xFC 0xBA PUSH22 0xCDEABC353F2664736F6C634300081E00330000000000 "
		},
		"gasEstimates": {
			"creation": {
				"codeDepositCost": "3090400",
				"executionCost": "3402",
				"totalCost": "3093802"
			},
			"external": {
				"addKline((uint64,uint64,string,string,uint256,uint256,string,string,string,string,string,uint256,bool,string,string,string,string),uint64)": "infinite",
				"getAllklineInTime(string,string,uint64)": "infinite",
				"getLengthKline(string,string,uint64)": "infinite",
				"storages(bytes32,uint8,uint64)": "3277"
			},
			"internal": {
				"getTimeKey(enum Interval,uint64)": "infinite",
				"parseInterval(string memory)": "infinite"
			}
		},
		"methodIdentifiers": {
			"addKline((uint64,uint64,string,string,uint256,uint256,string,string,string,string,string,uint256,bool,string,string,string,string),uint64)": "6a78b280",
			"getAllklineInTime(string,string,uint64)": "41356339",
			"getLengthKline(string,string,uint64)": "256d106e",
			"storages(bytes32,uint8,uint64)": "5b3cb9d4"
		}
	},
	"abi": [
		{
			"anonymous": false,
			"inputs": [
				{
					"indexed": false,
					"internalType": "uint256",
					"name": "key",
					"type": "uint256"
				},
				{
					"indexed": false,
					"internalType": "address",
					"name": "contractAddress",
					"type": "address"
				}
			],
			"name": "KlineContractCreated",
			"type": "event"
		},
		{
			"anonymous": false,
			"inputs": [
				{
					"indexed": false,
					"internalType": "uint64",
					"name": "t",
					"type": "uint64"
				},
				{
					"indexed": false,
					"internalType": "uint256",
					"name": "T",
					"type": "uint256"
				},
				{
					"indexed": false,
					"internalType": "bool",
					"name": "isClose",
					"type": "bool"
				}
			],
			"name": "KlineCreated",
			"type": "event"
		},
		{
			"anonymous": false,
			"inputs": [
				{
					"indexed": false,
					"internalType": "string",
					"name": "symbol",
					"type": "string"
				},
				{
					"indexed": false,
					"internalType": "string",
					"name": "interval",
					"type": "string"
				},
				{
					"indexed": false,
					"internalType": "uint64",
					"name": "timeKey",
					"type": "uint64"
				},
				{
					"indexed": false,
					"internalType": "address",
					"name": "storageAddress",
					"type": "address"
				}
			],
			"name": "ShardCreated",
			"type": "event"
		},
		{
			"inputs": [
				{
					"components": [
						{
							"internalType": "uint64",
							"name": "t",
							"type": "uint64"
						},
						{
							"internalType": "uint64",
							"name": "T",
							"type": "uint64"
						},
						{
							"internalType": "string",
							"name": "s",
							"type": "string"
						},
						{
							"internalType": "string",
							"name": "i",
							"type": "string"
						},
						{
							"internalType": "uint256",
							"name": "f",
							"type": "uint256"
						},
						{
							"internalType": "uint256",
							"name": "L",
							"type": "uint256"
						},
						{
							"internalType": "string",
							"name": "o",
							"type": "string"
						},
						{
							"internalType": "string",
							"name": "c",
							"type": "string"
						},
						{
							"internalType": "string",
							"name": "h",
							"type": "string"
						},
						{
							"internalType": "string",
							"name": "l",
							"type": "string"
						},
						{
							"internalType": "string",
							"name": "v",
							"type": "string"
						},
						{
							"internalType": "uint256",
							"name": "n",
							"type": "uint256"
						},
						{
							"internalType": "bool",
							"name": "x",
							"type": "bool"
						},
						{
							"internalType": "string",
							"name": "q",
							"type": "string"
						},
						{
							"internalType": "string",
							"name": "V",
							"type": "string"
						},
						{
							"internalType": "string",
							"name": "Q",
							"type": "string"
						},
						{
							"internalType": "string",
							"name": "B",
							"type": "string"
						}
					],
					"internalType": "struct KlineRecord",
					"name": "record",
					"type": "tuple"
				},
				{
					"internalType": "uint64",
					"name": "timestamp",
					"type": "uint64"
				}
			],
			"name": "addKline",
			"outputs": [],
			"stateMutability": "nonpayable",
			"type": "function"
		},
		{
			"inputs": [
				{
					"internalType": "string",
					"name": "_symbol",
					"type": "string"
				},
				{
					"internalType": "string",
					"name": "_interval",
					"type": "string"
				},
				{
					"internalType": "uint64",
					"name": "timestime",
					"type": "uint64"
				}
			],
			"name": "getAllklineInTime",
			"outputs": [
				{
					"components": [
						{
							"internalType": "string",
							"name": "e",
							"type": "string"
						},
						{
							"internalType": "uint256",
							"name": "E",
							"type": "uint256"
						},
						{
							"internalType": "string",
							"name": "s",
							"type": "string"
						},
						{
							"components": [
								{
									"internalType": "uint64",
									"name": "t",
									"type": "uint64"
								},
								{
									"internalType": "uint64",
									"name": "T",
									"type": "uint64"
								},
								{
									"internalType": "string",
									"name": "s",
									"type": "string"
								},
								{
									"internalType": "string",
									"name": "i",
									"type": "string"
								},
								{
									"internalType": "uint256",
									"name": "f",
									"type": "uint256"
								},
								{
									"internalType": "uint256",
									"name": "L",
									"type": "uint256"
								},
								{
									"internalType": "string",
									"name": "o",
									"type": "string"
								},
								{
									"internalType": "string",
									"name": "c",
									"type": "string"
								},
								{
									"internalType": "string",
									"name": "h",
									"type": "string"
								},
								{
									"internalType": "string",
									"name": "l",
									"type": "string"
								},
								{
									"internalType": "string",
									"name": "v",
									"type": "string"
								},
								{
									"internalType": "uint256",
									"name": "n",
									"type": "uint256"
								},
								{
									"internalType": "bool",
									"name": "x",
									"type": "bool"
								},
								{
									"internalType": "string",
									"name": "q",
									"type": "string"
								},
								{
									"internalType": "string",
									"name": "V",
									"type": "string"
								},
								{
									"internalType": "string",
									"name": "Q",
									"type": "string"
								},
								{
									"internalType": "string",
									"name": "B",
									"type": "string"
								}
							],
							"internalType": "struct KlineRecord",
							"name": "k",
							"type": "tuple"
						}
					],
					"internalType": "struct KlineResponse[]",
					"name": "",
					"type": "tuple[]"
				}
			],
			"stateMutability": "view",
			"type": "function"
		},
		{
			"inputs": [
				{
					"internalType": "string",
					"name": "_symbol",
					"type": "string"
				},
				{
					"internalType": "string",
					"name": "_interval",
					"type": "string"
				},
				{
					"internalType": "uint64",
					"name": "timestime",
					"type": "uint64"
				}
			],
			"name": "getLengthKline",
			"outputs": [
				{
					"internalType": "uint256",
					"name": "",
					"type": "uint256"
				}
			],
			"stateMutability": "view",
			"type": "function"
		},
		{
			"inputs": [
				{
					"internalType": "bytes32",
					"name": "",
					"type": "bytes32"
				},
				{
					"internalType": "enum Interval",
					"name": "",
					"type": "uint8"
				},
				{
					"internalType": "uint64",
					"name": "",
					"type": "uint64"
				}
			],
			"name": "storages",
			"outputs": [
				{
					"internalType": "address",
					"name": "",
					"type": "address"
				}
			],
			"stateMutability": "view",
			"type": "function"
		}
	]
}