{
	"data": {
		"bytecode": {
			"linkReferences": {},
			"object": "6080604052348015600e575f5ffd5b50613d618061001c5f395ff3fe608060405234801561000f575f5ffd5b5060043610610060575f3560e01c8063256d106e1461006457806341356339146100945780635b3cb9d4146100c45780636a78b280146100f45780638d412ad21461011057806393faa99214610140575b5f5ffd5b61007e60048036038101906100799190610dec565b610170565b60405161008b9190610e8c565b60405180910390f35b6100ae60048036038101906100a99190610dec565b610325565b6040516100bb9190611216565b60405180910390f35b6100de60048036038101906100d9919061128c565b610470565b6040516100eb919061131b565b60405180910390f35b61010e60048036038101906101099190611651565b6104b7565b005b61012a600480360381019061012591906116ab565b6107ce565b60405161013791906116f8565b60405180910390f35b61015a60048036038101906101559190611711565b6107f1565b60405161016791906117cb565b60405180910390f35b5f5f61017b846107f1565b90505f8560405160200161018f919061181e565b6040516020818303038152906040528051906020012090505f6101b283866107ce565b90505f5f5f8481526020019081526020015f205f85600f8111156101d9576101d8611758565b5b600f8111156101eb576101ea611758565b5b81526020019081526020015f205f8367ffffffffffffffff1667ffffffffffffffff1681526020019081526020015f205f9054906101000a900473ffffffffffffffffffffffffffffffffffffffff1690505f73ffffffffffffffffffffffffffffffffffffffff168173ffffffffffffffffffffffffffffffffffffffff16036102ab576040517f08c379a00000000000000000000000000000000000000000000000000000000081526004016102a29061188e565b60405180910390fd5b8073ffffffffffffffffffffffffffffffffffffffff1663be1c766b6040518163ffffffff1660e01b8152600401602060405180830381865afa1580156102f4573d5f5f3e3d5ffd5b505050506040513d601f19601f8201168201806040525081019061031891906118c0565b9450505050509392505050565b60605f610331846107f1565b90505f85604051602001610345919061181e565b6040516020818303038152906040528051906020012090505f61036883866107ce565b90505f5f5f8481526020019081526020015f205f85600f81111561038f5761038e611758565b5b600f8111156103a1576103a0611758565b5b81526020019081526020015f205f8367ffffffffffffffff1667ffffffffffffffff1681526020019081526020015f205f9054906101000a900473ffffffffffffffffffffffffffffffffffffffff1690508073ffffffffffffffffffffffffffffffffffffffff166348cbad6e6040518163ffffffff1660e01b81526004015f60405180830381865afa15801561043b573d5f5f3e3d5ffd5b505050506040513d5f823e3d601f19601f820116820180604052508101906104639190611ded565b9450505050509392505050565b5f602052825f5260405f20602052815f5260405f20602052805f5260405f205f92509250509054906101000a900473ffffffffffffffffffffffffffffffffffffffff1681565b5f6104c583606001516107f1565b90505f83604001516040516020016104dd919061181e565b6040516020818303038152906040528051906020012090505f61050083856107ce565b90505f5f5f8481526020019081526020015f205f85600f81111561052757610526611758565b5b600f81111561053957610538611758565b5b81526020019081526020015f205f8367ffffffffffffffff1667ffffffffffffffff1681526020019081526020015f205f9054906101000a900473ffffffffffffffffffffffffffffffffffffffff1690505f73ffffffffffffffffffffffffffffffffffffffff168173ffffffffffffffffffffffffffffffffffffffff1603610719576106076040518060400160405280601581526020017f4372656174696e67206e657720736861726420617400000000000000000000008152508367ffffffffffffffff16610b6b565b60405161061390610c4b565b604051809103905ff08015801561062c573d5f5f3e3d5ffd5b509050805f5f8581526020019081526020015f205f86600f81111561065457610653611758565b5b600f81111561066657610665611758565b5b81526020019081526020015f205f8467ffffffffffffffff1667ffffffffffffffff1681526020019081526020015f205f6101000a81548173ffffffffffffffffffffffffffffffffffffffff021916908373ffffffffffffffffffffffffffffffffffffffff1602179055507f2a9e82be7bc20784dcc707f4814ca404ac4a94db66450718f7733b160fb62d868660400151876060015184846040516107109493929190611e6c565b60405180910390a15b8073ffffffffffffffffffffffffffffffffffffffff1663e2a77a4c876040518263ffffffff1660e01b8152600401610752919061206d565b5f604051808303815f87803b158015610769575f5ffd5b505af115801561077b573d5f5f3e3d5ffd5b505050507f87e8b8309759ad52af1ac44b43236a412e35355e803ce31234b6a2ea6b296ccf865f015187602001518861018001516040516107be939291906120d5565b60405180910390a1505050505050565b5f6236ee8080836107df9190612164565b6107e99190612194565b905092915050565b5f5f82604051602001610804919061181e565b6040516020818303038152906040528051906020012090507f6c9308eeeb72aac61c6ee2086645ec6cf6638d86d97af7b81bcf4073f3b95dbc810361084c575f915050610b66565b7f523a5c8a0f83a86997a616b324ae897d2fb6b3f5f68b3969331c12e0f00f9f25810361087d576001915050610b66565b7f2a3ff2dfa7bd33b0e77d014065236a2f104b389b776645fddb9e6a09eea0144181036108ae576002915050610b66565b7ffca740c51a7536a1ff8f65314e26b24cee265d7626ad2e39318898f3d501ac2281036108df576003915050610b66565b7f53cad56a766a794bdc4fd49b262cd08fadf5c823f208fbf3f4efb377c206eaaa8103610910576004915050610b66565b7fe99007fd2e286840683bfbac2c1ea22a3b3c1592d603a9ae9aee29cf77e941a78103610941576005915050610b66565b7f1125479f824fc31d0ce674b130e57a9dcfdf2d344ca1ef3fc8bf5bd50f9fcca98103610972576006915050610b66565b7fa50f424f123435e4689c6436ce338980297ca65f2ee6b69a216f0561ee6cf40081036109a3576007915050610b66565b7f9a433cc5a6aee766b1bce0a7dc72ab7b4fd031108e0c5afea91382f1b1955fc981036109d4576008915050610b66565b7fa0b83cfa5501e126ac29f6bf7a07bd17e2d97916947eed361748e8e0ab0aba4d8103610a05576009915050610b66565b7fe21ccd2715134877c589435a9c98deb14540fdf9e902afebf2163fe393e9c0738103610a3657600a915050610b66565b7f11108661a127316f8f74dc39a66520c8ec16719ed867ee768af67729ba3ec1d28103610a6757600b915050610b66565b7f7b2e5637de8d5670bd5be523fbccc1dfef88f0767eb2abf5ac4a81da61ae20028103610a9857600c915050610b66565b7f1cef0646e7fe7cb478d3a93d2e07774697c9239d0ee8b4294b768c91af329e668103610ac957600d915050610b66565b7f7cd5ba658b5dff64585bfcb0df7983749825e2292a4ff6daf96207e6eb100fe78103610afa57600e915050610b66565b7fa390d73d5fd5e6a577d394328e26ce85589c6d8c382fba9150fb136bbbf31ff78103610b2b57600f915050610b66565b6040517f08c379a0000000000000000000000000000000000000000000000000000000008152600401610b5d9061221a565b60405180910390fd5b919050565b610c038282604051602401610b81929190612238565b6040516020818303038152906040527fb60e72cc000000000000000000000000000000000000000000000000000000007bffffffffffffffffffffffffffffffffffffffffffffffffffffffff19166020820180517bffffffffffffffffffffffffffffffffffffffffffffffffffffffff8381831617835250505050610c07565b5050565b610c1e81610c16610c21610c40565b63ffffffff16565b50565b5f6a636f6e736f6c652e6c6f6790505f5f835160208501845afa505050565b610c58819050919050565b611a988061229483390190565b610c60612266565b565b5f604051905090565b5f5ffd5b5f5ffd5b5f5ffd5b5f5ffd5b5f601f19601f8301169050919050565b7f4e487b71000000000000000000000000000000000000000000000000000000005f52604160045260245ffd5b610cc182610c7b565b810181811067ffffffffffffffff82111715610ce057610cdf610c8b565b5b80604052505050565b5f610cf2610c62565b9050610cfe8282610cb8565b919050565b5f67ffffffffffffffff821115610d1d57610d1c610c8b565b5b610d2682610c7b565b9050602081019050919050565b828183375f83830152505050565b5f610d53610d4e84610d03565b610ce9565b905082815260208101848484011115610d6f57610d6e610c77565b5b610d7a848285610d33565b509392505050565b5f82601f830112610d9657610d95610c73565b5b8135610da6848260208601610d41565b91505092915050565b5f67ffffffffffffffff82169050919050565b610dcb81610daf565b8114610dd5575f5ffd5b50565b5f81359050610de681610dc2565b92915050565b5f5f5f60608486031215610e0357610e02610c6b565b5b5f84013567ffffffffffffffff811115610e2057610e1f610c6f565b5b610e2c86828701610d82565b935050602084013567ffffffffffffffff811115610e4d57610e4c610c6f565b5b610e5986828701610d82565b9250506040610e6a86828701610dd8565b9150509250925092565b5f819050919050565b610e8681610e74565b82525050565b5f602082019050610e9f5f830184610e7d565b92915050565b5f81519050919050565b5f82825260208201905092915050565b5f819050602082019050919050565b5f81519050919050565b5f82825260208201905092915050565b8281835e5f83830152505050565b5f610f0082610ece565b610f0a8185610ed8565b9350610f1a818560208601610ee8565b610f2381610c7b565b840191505092915050565b610f3781610e74565b82525050565b610f4681610daf565b82525050565b5f8115159050919050565b610f6081610f4c565b82525050565b5f61022083015f830151610f7c5f860182610f3d565b506020830151610f8f6020860182610f3d565b5060408301518482036040860152610fa78282610ef6565b91505060608301518482036060860152610fc18282610ef6565b9150506080830151610fd66080860182610f2e565b5060a0830151610fe960a0860182610f2e565b5060c083015184820360c08601526110018282610ef6565b91505060e083015184820360e086015261101b8282610ef6565b9150506101008301518482036101008601526110378282610ef6565b9150506101208301518482036101208601526110538282610ef6565b91505061014083015184820361014086015261106f8282610ef6565b915050610160830151611086610160860182610f2e565b5061018083015161109b610180860182610f57565b506101a08301518482036101a08601526110b58282610ef6565b9150506101c08301518482036101c08601526110d18282610ef6565b9150506101e08301518482036101e08601526110ed8282610ef6565b9150506102008301518482036102008601526111098282610ef6565b9150508091505092915050565b5f608083015f8301518482035f8601526111308282610ef6565b91505060208301516111456020860182610f2e565b506040830151848203604086015261115d8282610ef6565b915050606083015184820360608601526111778282610f66565b9150508091505092915050565b5f61118f8383611116565b905092915050565b5f602082019050919050565b5f6111ad82610ea5565b6111b78185610eaf565b9350836020820285016111c985610ebf565b805f5b8581101561120457848403895281516111e58582611184565b94506111f083611197565b925060208a019950506001810190506111cc565b50829750879550505050505092915050565b5f6020820190508181035f83015261122e81846111a3565b905092915050565b5f819050919050565b61124881611236565b8114611252575f5ffd5b50565b5f813590506112638161123f565b92915050565b60108110611275575f5ffd5b50565b5f8135905061128681611269565b92915050565b5f5f5f606084860312156112a3576112a2610c6b565b5b5f6112b086828701611255565b93505060206112c186828701611278565b92505060406112d286828701610dd8565b9150509250925092565b5f73ffffffffffffffffffffffffffffffffffffffff82169050919050565b5f611305826112dc565b9050919050565b611315816112fb565b82525050565b5f60208201905061132e5f83018461130c565b92915050565b5f5ffd5b5f5ffd5b61134581610e74565b811461134f575f5ffd5b50565b5f813590506113608161133c565b92915050565b61136f81610f4c565b8114611379575f5ffd5b50565b5f8135905061138a81611366565b92915050565b5f61022082840312156113a6576113a5611334565b5b6113b1610220610ce9565b90505f6113c084828501610dd8565b5f8301525060206113d384828501610dd8565b602083015250604082013567ffffffffffffffff8111156113f7576113f6611338565b5b61140384828501610d82565b604083015250606082013567ffffffffffffffff81111561142757611426611338565b5b61143384828501610d82565b606083015250608061144784828501611352565b60808301525060a061145b84828501611352565b60a08301525060c082013567ffffffffffffffff81111561147f5761147e611338565b5b61148b84828501610d82565b60c08301525060e082013567ffffffffffffffff8111156114af576114ae611338565b5b6114bb84828501610d82565b60e08301525061010082013567ffffffffffffffff8111156114e0576114df611338565b5b6114ec84828501610d82565b6101008301525061012082013567ffffffffffffffff81111561151257611511611338565b5b61151e84828501610d82565b6101208301525061014082013567ffffffffffffffff81111561154457611543611338565b5b61155084828501610d82565b6101408301525061016061156684828501611352565b6101608301525061018061157c8482850161137c565b610180830152506101a082013567ffffffffffffffff8111156115a2576115a1611338565b5b6115ae84828501610d82565b6101a0830152506101c082013567ffffffffffffffff8111156115d4576115d3611338565b5b6115e084828501610d82565b6101c0830152506101e082013567ffffffffffffffff81111561160657611605611338565b5b61161284828501610d82565b6101e08301525061020082013567ffffffffffffffff81111561163857611637611338565b5b61164484828501610d82565b6102008301525092915050565b5f5f6040838503121561166757611666610c6b565b5b5f83013567ffffffffffffffff81111561168457611683610c6f565b5b61169085828601611390565b92505060206116a185828601610dd8565b9150509250929050565b5f5f604083850312156116c1576116c0610c6b565b5b5f6116ce85828601611278565b92505060206116df85828601610dd8565b9150509250929050565b6116f281610daf565b82525050565b5f60208201905061170b5f8301846116e9565b92915050565b5f6020828403121561172657611725610c6b565b5b5f82013567ffffffffffffffff81111561174357611742610c6f565b5b61174f84828501610d82565b91505092915050565b7f4e487b71000000000000000000000000000000000000000000000000000000005f52602160045260245ffd5b6010811061179657611795611758565b5b50565b5f8190506117a682611785565b919050565b5f6117b582611799565b9050919050565b6117c5816117ab565b82525050565b5f6020820190506117de5f8301846117bc565b92915050565b5f81905092915050565b5f6117f882610ece565b61180281856117e4565b9350611812818560208601610ee8565b80840191505092915050565b5f61182982846117ee565b915081905092915050565b5f82825260208201905092915050565b7f41646472657373206973206e6f7420666f756e640000000000000000000000005f82015250565b5f611878601483611834565b915061188382611844565b602082019050919050565b5f6020820190508181035f8301526118a58161186c565b9050919050565b5f815190506118ba8161133c565b92915050565b5f602082840312156118d5576118d4610c6b565b5b5f6118e2848285016118ac565b91505092915050565b5f67ffffffffffffffff82111561190557611904610c8b565b5b602082029050602081019050919050565b5f5ffd5b5f61192c61192784610d03565b610ce9565b90508281526020810184848401111561194857611947610c77565b5b611953848285610ee8565b509392505050565b5f82601f83011261196f5761196e610c73565b5b815161197f84826020860161191a565b91505092915050565b5f8151905061199681610dc2565b92915050565b5f815190506119aa81611366565b92915050565b5f61022082840312156119c6576119c5611334565b5b6119d1610220610ce9565b90505f6119e084828501611988565b5f8301525060206119f384828501611988565b602083015250604082015167ffffffffffffffff811115611a1757611a16611338565b5b611a238482850161195b565b604083015250606082015167ffffffffffffffff811115611a4757611a46611338565b5b611a538482850161195b565b6060830152506080611a67848285016118ac565b60808301525060a0611a7b848285016118ac565b60a08301525060c082015167ffffffffffffffff811115611a9f57611a9e611338565b5b611aab8482850161195b565b60c08301525060e082015167ffffffffffffffff811115611acf57611ace611338565b5b611adb8482850161195b565b60e08301525061010082015167ffffffffffffffff811115611b0057611aff611338565b5b611b0c8482850161195b565b6101008301525061012082015167ffffffffffffffff811115611b3257611b31611338565b5b611b3e8482850161195b565b6101208301525061014082015167ffffffffffffffff811115611b6457611b63611338565b5b611b708482850161195b565b61014083015250610160611b86848285016118ac565b61016083015250610180611b9c8482850161199c565b610180830152506101a082015167ffffffffffffffff811115611bc257611bc1611338565b5b611bce8482850161195b565b6101a0830152506101c082015167ffffffffffffffff811115611bf457611bf3611338565b5b611c008482850161195b565b6101c0830152506101e082015167ffffffffffffffff811115611c2657611c25611338565b5b611c328482850161195b565b6101e08301525061020082015167ffffffffffffffff811115611c5857611c57611338565b5b611c648482850161195b565b6102008301525092915050565b5f60808284031215611c8657611c85611334565b5b611c906080610ce9565b90505f82015167ffffffffffffffff811115611caf57611cae611338565b5b611cbb8482850161195b565b5f830152506020611cce848285016118ac565b602083015250604082015167ffffffffffffffff811115611cf257611cf1611338565b5b611cfe8482850161195b565b604083015250606082015167ffffffffffffffff811115611d2257611d21611338565b5b611d2e848285016119b0565b60608301525092915050565b5f611d4c611d47846118eb565b610ce9565b90508083825260208201905060208402830185811115611d6f57611d6e611916565b5b835b81811015611db657805167ffffffffffffffff811115611d9457611d93610c73565b5b808601611da18982611c71565b85526020850194505050602081019050611d71565b5050509392505050565b5f82601f830112611dd457611dd3610c73565b5b8151611de4848260208601611d3a565b91505092915050565b5f60208284031215611e0257611e01610c6b565b5b5f82015167ffffffffffffffff811115611e1f57611e1e610c6f565b5b611e2b84828501611dc0565b91505092915050565b5f611e3e82610ece565b611e488185611834565b9350611e58818560208601610ee8565b611e6181610c7b565b840191505092915050565b5f6080820190508181035f830152611e848187611e34565b90508181036020830152611e988186611e34565b9050611ea760408301856116e9565b611eb4606083018461130c565b95945050505050565b5f61022083015f830151611ed35f860182610f3d565b506020830151611ee66020860182610f3d565b5060408301518482036040860152611efe8282610ef6565b91505060608301518482036060860152611f188282610ef6565b9150506080830151611f2d6080860182610f2e565b5060a0830151611f4060a0860182610f2e565b5060c083015184820360c0860152611f588282610ef6565b91505060e083015184820360e0860152611f728282610ef6565b915050610100830151848203610100860152611f8e8282610ef6565b915050610120830151848203610120860152611faa8282610ef6565b915050610140830151848203610140860152611fc68282610ef6565b915050610160830151611fdd610160860182610f2e565b50610180830151611ff2610180860182610f57565b506101a08301518482036101a086015261200c8282610ef6565b9150506101c08301518482036101c08601526120288282610ef6565b9150506101e08301518482036101e08601526120448282610ef6565b9150506102008301518482036102008601526120608282610ef6565b9150508091505092915050565b5f6020820190508181035f8301526120858184611ebd565b905092915050565b5f819050919050565b5f6120b06120ab6120a684610daf565b61208d565b610e74565b9050919050565b6120c081612096565b82525050565b6120cf81610f4c565b82525050565b5f6060820190506120e85f8301866116e9565b6120f560208301856120b7565b61210260408301846120c6565b949350505050565b7f4e487b71000000000000000000000000000000000000000000000000000000005f52601260045260245ffd5b7f4e487b71000000000000000000000000000000000000000000000000000000005f52601160045260245ffd5b5f61216e82610daf565b915061217983610daf565b9250826121895761218861210a565b5b828204905092915050565b5f61219e82610daf565b91506121a983610daf565b92508282026121b781610daf565b91508082146121c9576121c8612137565b5b5092915050565b7f496e76616c696420696e74657276616c20737472696e670000000000000000005f82015250565b5f612204601783611834565b915061220f826121d0565b602082019050919050565b5f6020820190508181035f830152612231816121f8565b9050919050565b5f6040820190508181035f8301526122508185611e34565b905061225f6020830184610e7d565b9392505050565b7f4e487b71000000000000000000000000000000000000000000000000000000005f52605160045260245ffdfe6080604052348015600e575f5ffd5b503360015f6101000a81548173ffffffffffffffffffffffffffffffffffffffff021916908373ffffffffffffffffffffffffffffffffffffffff160217905550611a3c8061005c5f395ff3fe608060405234801561000f575f5ffd5b506004361061004a575f3560e01c806348cbad6e1461004e578063be1c766b1461006c578063c45a01551461008a578063e2a77a4c146100a8575b5f5ffd5b6100566100c4565b6040516100639190611024565b60405180910390f35b610074610926565b6040516100819190611053565b60405180910390f35b610092610931565b60405161009f91906110ab565b60405180910390f35b6100c260048036038101906100bd91906110f8565b610956565b005b60605f805480602002602001604051908101604052809291908181526020015f905b8282101561091d578382905f5260205f2090601302016040518060800160405290815f820180546101169061116c565b80601f01602080910402602001604051908101604052809291908181526020018280546101429061116c565b801561018d5780601f106101645761010080835404028352916020019161018d565b820191905f5260205f20905b81548152906001019060200180831161017057829003601f168201915b50505050508152602001600182015481526020016002820180546101b09061116c565b80601f01602080910402602001604051908101604052809291908181526020018280546101dc9061116c565b80156102275780601f106101fe57610100808354040283529160200191610227565b820191905f5260205f20905b81548152906001019060200180831161020a57829003601f168201915b5050505050815260200160038201604051806102200160405290815f82015f9054906101000a900467ffffffffffffffff1667ffffffffffffffff1667ffffffffffffffff1681526020015f820160089054906101000a900467ffffffffffffffff1667ffffffffffffffff1667ffffffffffffffff1681526020016001820180546102b29061116c565b80601f01602080910402602001604051908101604052809291908181526020018280546102de9061116c565b80156103295780601f1061030057610100808354040283529160200191610329565b820191905f5260205f20905b81548152906001019060200180831161030c57829003601f168201915b505050505081526020016002820180546103429061116c565b80601f016020809104026020016040519081016040528092919081815260200182805461036e9061116c565b80156103b95780601f10610390576101008083540402835291602001916103b9565b820191905f5260205f20905b81548152906001019060200180831161039c57829003601f168201915b5050505050815260200160038201548152602001600482015481526020016005820180546103e69061116c565b80601f01602080910402602001604051908101604052809291908181526020018280546104129061116c565b801561045d5780601f106104345761010080835404028352916020019161045d565b820191905f5260205f20905b81548152906001019060200180831161044057829003601f168201915b505050505081526020016006820180546104769061116c565b80601f01602080910402602001604051908101604052809291908181526020018280546104a29061116c565b80156104ed5780601f106104c4576101008083540402835291602001916104ed565b820191905f5260205f20905b8154815290600101906020018083116104d057829003601f168201915b505050505081526020016007820180546105069061116c565b80601f01602080910402602001604051908101604052809291908181526020018280546105329061116c565b801561057d5780601f106105545761010080835404028352916020019161057d565b820191905f5260205f20905b81548152906001019060200180831161056057829003601f168201915b505050505081526020016008820180546105969061116c565b80601f01602080910402602001604051908101604052809291908181526020018280546105c29061116c565b801561060d5780601f106105e45761010080835404028352916020019161060d565b820191905f5260205f20905b8154815290600101906020018083116105f057829003601f168201915b505050505081526020016009820180546106269061116c565b80601f01602080910402602001604051908101604052809291908181526020018280546106529061116c565b801561069d5780601f106106745761010080835404028352916020019161069d565b820191905f5260205f20905b81548152906001019060200180831161068057829003601f168201915b50505050508152602001600a8201548152602001600b82015f9054906101000a900460ff16151515158152602001600c820180546106da9061116c565b80601f01602080910402602001604051908101604052809291908181526020018280546107069061116c565b80156107515780601f1061072857610100808354040283529160200191610751565b820191905f5260205f20905b81548152906001019060200180831161073457829003601f168201915b50505050508152602001600d8201805461076a9061116c565b80601f01602080910402602001604051908101604052809291908181526020018280546107969061116c565b80156107e15780601f106107b8576101008083540402835291602001916107e1565b820191905f5260205f20905b8154815290600101906020018083116107c457829003601f168201915b50505050508152602001600e820180546107fa9061116c565b80601f01602080910402602001604051908101604052809291908181526020018280546108269061116c565b80156108715780601f1061084857610100808354040283529160200191610871565b820191905f5260205f20905b81548152906001019060200180831161085457829003601f168201915b50505050508152602001600f8201805461088a9061116c565b80601f01602080910402602001604051908101604052809291908181526020018280546108b69061116c565b80156109015780601f106108d857610100808354040283529160200191610901565b820191905f5260205f20905b8154815290600101906020018083116108e457829003601f168201915b50505050508152505081525050815260200190600101906100e6565b50505050905090565b5f5f80549050905090565b60015f9054906101000a900473ffffffffffffffffffffffffffffffffffffffff1681565b5f6103e84261096591906111c9565b90505f60405180608001604052806040518060400160405280600581526020017f6b6c696e6500000000000000000000000000000000000000000000000000000081525081526020018381526020018480604001906109c49190611216565b8080601f0160208091040260200160405190810160405280939291908181526020018383808284375f81840152601f19601f82011690508083019250505050505050815260200184610a15906116eb565b81525090505f81908060018154018082558091505060019003905f5260205f2090601302015f909190919091505f820151815f019081610a55919061189d565b50602082015181600101556040820151816002019081610a75919061189d565b506060820151816003015f820151815f015f6101000a81548167ffffffffffffffff021916908367ffffffffffffffff1602179055506020820151815f0160086101000a81548167ffffffffffffffff021916908367ffffffffffffffff1602179055506040820151816001019081610aee919061189d565b506060820151816002019081610b04919061189d565b506080820151816003015560a0820151816004015560c0820151816005019081610b2e919061189d565b5060e0820151816006019081610b44919061189d565b50610100820151816007019081610b5b919061189d565b50610120820151816008019081610b72919061189d565b50610140820151816009019081610b89919061189d565b5061016082015181600a015561018082015181600b015f6101000a81548160ff0219169083151502179055506101a082015181600c019081610bcb919061189d565b506101c082015181600d019081610be2919061189d565b506101e082015181600e019081610bf9919061189d565b5061020082015181600f019081610c10919061189d565b50505050507f87be993750fd9f870bc535d97609df048e07430c47f26712536434958094f87382848060400190610c479190611216565b868060c00190610c579190611216565b888060e00190610c679190611216565b604051610c7a97969594939291906119a8565b60405180910390a1505050565b5f81519050919050565b5f82825260208201905092915050565b5f819050602082019050919050565b5f81519050919050565b5f82825260208201905092915050565b8281835e5f83830152505050565b5f601f19601f8301169050919050565b5f610cf282610cb0565b610cfc8185610cba565b9350610d0c818560208601610cca565b610d1581610cd8565b840191505092915050565b5f819050919050565b610d3281610d20565b82525050565b5f67ffffffffffffffff82169050919050565b610d5481610d38565b82525050565b5f8115159050919050565b610d6e81610d5a565b82525050565b5f61022083015f830151610d8a5f860182610d4b565b506020830151610d9d6020860182610d4b565b5060408301518482036040860152610db58282610ce8565b91505060608301518482036060860152610dcf8282610ce8565b9150506080830151610de46080860182610d29565b5060a0830151610df760a0860182610d29565b5060c083015184820360c0860152610e0f8282610ce8565b91505060e083015184820360e0860152610e298282610ce8565b915050610100830151848203610100860152610e458282610ce8565b915050610120830151848203610120860152610e618282610ce8565b915050610140830151848203610140860152610e7d8282610ce8565b915050610160830151610e94610160860182610d29565b50610180830151610ea9610180860182610d65565b506101a08301518482036101a0860152610ec38282610ce8565b9150506101c08301518482036101c0860152610edf8282610ce8565b9150506101e08301518482036101e0860152610efb8282610ce8565b915050610200830151848203610200860152610f178282610ce8565b9150508091505092915050565b5f608083015f8301518482035f860152610f3e8282610ce8565b9150506020830151610f536020860182610d29565b5060408301518482036040860152610f6b8282610ce8565b91505060608301518482036060860152610f858282610d74565b9150508091505092915050565b5f610f9d8383610f24565b905092915050565b5f602082019050919050565b5f610fbb82610c87565b610fc58185610c91565b935083602082028501610fd785610ca1565b805f5b858110156110125784840389528151610ff38582610f92565b9450610ffe83610fa5565b925060208a01995050600181019050610fda565b50829750879550505050505092915050565b5f6020820190508181035f83015261103c8184610fb1565b905092915050565b61104d81610d20565b82525050565b5f6020820190506110665f830184611044565b92915050565b5f73ffffffffffffffffffffffffffffffffffffffff82169050919050565b5f6110958261106c565b9050919050565b6110a58161108b565b82525050565b5f6020820190506110be5f83018461109c565b92915050565b5f604051905090565b5f5ffd5b5f5ffd5b5f5ffd5b5f61022082840312156110ef576110ee6110d5565b5b81905092915050565b5f6020828403121561110d5761110c6110cd565b5b5f82013567ffffffffffffffff81111561112a576111296110d1565b5b611136848285016110d9565b91505092915050565b7f4e487b71000000000000000000000000000000000000000000000000000000005f52602260045260245ffd5b5f600282049050600182168061118357607f821691505b6020821081036111965761119561113f565b5b50919050565b7f4e487b71000000000000000000000000000000000000000000000000000000005f52601160045260245ffd5b5f6111d382610d20565b91506111de83610d20565b92508282026111ec81610d20565b915082820484148315176112035761120261119c565b5b5092915050565b5f5ffd5b5f5ffd5b5f5ffd5b5f5f833560016020038436030381126112325761123161120a565b5b80840192508235915067ffffffffffffffff8211156112545761125361120e565b5b6020830192506001820236038313156112705761126f611212565b5b509250929050565b5f5ffd5b7f4e487b71000000000000000000000000000000000000000000000000000000005f52604160045260245ffd5b6112b282610cd8565b810181811067ffffffffffffffff821117156112d1576112d061127c565b5b80604052505050565b5f6112e36110c4565b90506112ef82826112a9565b919050565b5f5ffd5b61130181610d38565b811461130b575f5ffd5b50565b5f8135905061131c816112f8565b92915050565b5f5ffd5b5f5ffd5b5f67ffffffffffffffff8211156113445761134361127c565b5b61134d82610cd8565b9050602081019050919050565b828183375f83830152505050565b5f61137a6113758461132a565b6112da565b90508281526020810184848401111561139657611395611326565b5b6113a184828561135a565b509392505050565b5f82601f8301126113bd576113bc611322565b5b81356113cd848260208601611368565b91505092915050565b6113df81610d20565b81146113e9575f5ffd5b50565b5f813590506113fa816113d6565b92915050565b61140981610d5a565b8114611413575f5ffd5b50565b5f8135905061142481611400565b92915050565b5f61022082840312156114405761143f611278565b5b61144b6102206112da565b90505f61145a8482850161130e565b5f83015250602061146d8482850161130e565b602083015250604082013567ffffffffffffffff811115611491576114906112f4565b5b61149d848285016113a9565b604083015250606082013567ffffffffffffffff8111156114c1576114c06112f4565b5b6114cd848285016113a9565b60608301525060806114e1848285016113ec565b60808301525060a06114f5848285016113ec565b60a08301525060c082013567ffffffffffffffff811115611519576115186112f4565b5b611525848285016113a9565b60c08301525060e082013567ffffffffffffffff811115611549576115486112f4565b5b611555848285016113a9565b60e08301525061010082013567ffffffffffffffff81111561157a576115796112f4565b5b611586848285016113a9565b6101008301525061012082013567ffffffffffffffff8111156115ac576115ab6112f4565b5b6115b8848285016113a9565b6101208301525061014082013567ffffffffffffffff8111156115de576115dd6112f4565b5b6115ea848285016113a9565b61014083015250610160611600848285016113ec565b6101608301525061018061161684828501611416565b610180830152506101a082013567ffffffffffffffff81111561163c5761163b6112f4565b5b611648848285016113a9565b6101a0830152506101c082013567ffffffffffffffff81111561166e5761166d6112f4565b5b61167a848285016113a9565b6101c0830152506101e082013567ffffffffffffffff8111156116a05761169f6112f4565b5b6116ac848285016113a9565b6101e08301525061020082013567ffffffffffffffff8111156116d2576116d16112f4565b5b6116de848285016113a9565b6102008301525092915050565b5f6116f6368361142a565b9050919050565b5f819050815f5260205f209050919050565b5f6020601f8301049050919050565b5f82821b905092915050565b5f600883026117597fffffffffffffffffffffffffffffffffffffffffffffffffffffffffffffffff8261171e565b611763868361171e565b95508019841693508086168417925050509392505050565b5f819050919050565b5f61179e61179961179484610d20565b61177b565b610d20565b9050919050565b5f819050919050565b6117b783611784565b6117cb6117c3826117a5565b84845461172a565b825550505050565b5f5f905090565b6117e26117d3565b6117ed8184846117ae565b505050565b5b81811015611810576118055f826117da565b6001810190506117f3565b5050565b601f82111561185557611826816116fd565b61182f8461170f565b8101602085101561183e578190505b61185261184a8561170f565b8301826117f2565b50505b505050565b5f82821c905092915050565b5f6118755f198460080261185a565b1980831691505092915050565b5f61188d8383611866565b9150826002028217905092915050565b6118a682610cb0565b67ffffffffffffffff8111156118bf576118be61127c565b5b6118c9825461116c565b6118d4828285611814565b5f60209050601f831160018114611905575f84156118f3578287015190505b6118fd8582611882565b865550611964565b601f198416611913866116fd565b5f5b8281101561193a57848901518255600182019150602085019450602081019050611915565b868310156119575784890151611953601f891682611866565b8355505b6001600288020188555050505b505050505050565b5f82825260208201905092915050565b5f611987838561196c565b935061199483858461135a565b61199d83610cd8565b840190509392505050565b5f6080820190506119bb5f83018a611044565b81810360208301526119ce81888a61197c565b905081810360408301526119e381868861197c565b905081810360608301526119f881848661197c565b90509897505050505050505056fea26469706673582212202b3d1df90580b1ba467e88c2444a423153a1625e60110dcab7b1348fef58bf0a64736f6c634300081e0033a2646970667358221220d4cecc76f766959bcd7dd9f63560eead588006eb2750565cbd1ec920835c5db064736f6c634300081e0033",
			"opcodes": "PUSH1 0x80 PUSH1 0x40 MSTORE CALLVALUE DUP1 ISZERO PUSH1 0xE JUMPI PUSH0 PUSH0 REVERT JUMPDEST POP PUSH2 0x3D61 DUP1 PUSH2 0x1C PUSH0 CODECOPY PUSH0 RETURN INVALID PUSH1 0x80 PUSH1 0x40 MSTORE CALLVALUE DUP1 ISZERO PUSH2 0xF JUMPI PUSH0 PUSH0 REVERT JUMPDEST POP PUSH1 0x4 CALLDATASIZE LT PUSH2 0x60 JUMPI PUSH0 CALLDATALOAD PUSH1 0xE0 SHR DUP1 PUSH4 0x256D106E EQ PUSH2 0x64 JUMPI DUP1 PUSH4 0x41356339 EQ PUSH2 0x94 JUMPI DUP1 PUSH4 0x5B3CB9D4 EQ PUSH2 0xC4 JUMPI DUP1 PUSH4 0x6A78B280 EQ PUSH2 0xF4 JUMPI DUP1 PUSH4 0x8D412AD2 EQ PUSH2 0x110 JUMPI DUP1 PUSH4 0x93FAA992 EQ PUSH2 0x140 JUMPI JUMPDEST PUSH0 PUSH0 REVERT JUMPDEST PUSH2 0x7E PUSH1 0x4 DUP1 CALLDATASIZE SUB DUP2 ADD SWAP1 PUSH2 0x79 SWAP2 SWAP1 PUSH2 0xDEC JUMP JUMPDEST PUSH2 0x170 JUMP JUMPDEST PUSH1 0x40 MLOAD PUSH2 0x8B SWAP2 SWAP1 PUSH2 0xE8C JUMP JUMPDEST PUSH1 0x40 MLOAD DUP1 SWAP2 SUB SWAP1 RETURN JUMPDEST PUSH2 0xAE PUSH1 0x4 DUP1 CALLDATASIZE SUB DUP2 ADD SWAP1 PUSH2 0xA9 SWAP2 SWAP1 PUSH2 0xDEC JUMP JUMPDEST PUSH2 0x325 JUMP JUMPDEST PUSH1 0x40 MLOAD PUSH2 0xBB SWAP2 SWAP1 PUSH2 0x1216 JUMP JUMPDEST PUSH1 0x40 MLOAD DUP1 SWAP2 SUB SWAP1 RETURN JUMPDEST PUSH2 0xDE PUSH1 0x4 DUP1 CALLDATASIZE SUB DUP2 ADD SWAP1 PUSH2 0xD9 SWAP2 SWAP1 PUSH2 0x128C JUMP JUMPDEST PUSH2 0x470 JUMP JUMPDEST PUSH1 0x40 MLOAD PUSH2 0xEB SWAP2 SWAP1 PUSH2 0x131B JUMP JUMPDEST PUSH1 0x40 MLOAD DUP1 SWAP2 SUB SWAP1 RETURN JUMPDEST PUSH2 0x10E PUSH1 0x4 DUP1 CALLDATASIZE SUB DUP2 ADD SWAP1 PUSH2 0x109 SWAP2 SWAP1 PUSH2 0x1651 JUMP JUMPDEST PUSH2 0x4B7 JUMP JUMPDEST STOP JUMPDEST PUSH2 0x12A PUSH1 0x4 DUP1 CALLDATASIZE SUB DUP2 ADD SWAP1 PUSH2 0x125 SWAP2 SWAP1 PUSH2 0x16AB JUMP JUMPDEST PUSH2 0x7CE JUMP JUMPDEST PUSH1 0x40 MLOAD PUSH2 0x137 SWAP2 SWAP1 PUSH2 0x16F8 JUMP JUMPDEST PUSH1 0x40 MLOAD DUP1 SWAP2 SUB SWAP1 RETURN JUMPDEST PUSH2 0x15A PUSH1 0x4 DUP1 CALLDATASIZE SUB DUP2 ADD SWAP1 PUSH2 0x155 SWAP2 SWAP1 PUSH2 0x1711 JUMP JUMPDEST PUSH2 0x7F1 JUMP JUMPDEST PUSH1 0x40 MLOAD PUSH2 0x167 SWAP2 SWAP1 PUSH2 0x17CB JUMP JUMPDEST PUSH1 0x40 MLOAD DUP1 SWAP2 SUB SWAP1 RETURN JUMPDEST PUSH0 PUSH0 PUSH2 0x17B DUP5 PUSH2 0x7F1 JUMP JUMPDEST SWAP1 POP PUSH0 DUP6 PUSH1 0x40 MLOAD PUSH1 0x20 ADD PUSH2 0x18F SWAP2 SWAP1 PUSH2 0x181E JUMP JUMPDEST PUSH1 0x40 MLOAD PUSH1 0x20 DUP2 DUP4 SUB SUB DUP2 MSTORE SWAP1 PUSH1 0x40 MSTORE DUP1 MLOAD SWAP1 PUSH1 0x20 ADD KECCAK256 SWAP1 POP PUSH0 PUSH2 0x1B2 DUP4 DUP7 PUSH2 0x7CE JUMP JUMPDEST SWAP1 POP PUSH0 PUSH0 PUSH0 DUP5 DUP2 MSTORE PUSH1 0x20 ADD SWAP1 DUP2 MSTORE PUSH1 0x20 ADD PUSH0 KECCAK256 PUSH0 DUP6 PUSH1 0xF DUP2 GT ISZERO PUSH2 0x1D9 JUMPI PUSH2 0x1D8 PUSH2 0x1758 JUMP JUMPDEST JUMPDEST PUSH1 0xF DUP2 GT ISZERO PUSH2 0x1EB JUMPI PUSH2 0x1EA PUSH2 0x1758 JUMP JUMPDEST JUMPDEST DUP2 MSTORE PUSH1 0x20 ADD SWAP1 DUP2 MSTORE PUSH1 0x20 ADD PUSH0 KECCAK256 PUSH0 DUP4 PUSH8 0xFFFFFFFFFFFFFFFF AND PUSH8 0xFFFFFFFFFFFFFFFF AND DUP2 MSTORE PUSH1 0x20 ADD SWAP1 DUP2 MSTORE PUSH1 0x20 ADD PUSH0 KECCAK256 PUSH0 SWAP1 SLOAD SWAP1 PUSH2 0x100 EXP SWAP1 DIV PUSH20 0xFFFFFFFFFFFFFFFFFFFFFFFFFFFFFFFFFFFFFFFF AND SWAP1 POP PUSH0 PUSH20 0xFFFFFFFFFFFFFFFFFFFFFFFFFFFFFFFFFFFFFFFF AND DUP2 PUSH20 0xFFFFFFFFFFFFFFFFFFFFFFFFFFFFFFFFFFFFFFFF AND SUB PUSH2 0x2AB JUMPI PUSH1 0x40 MLOAD PUSH32 0x8C379A000000000000000000000000000000000000000000000000000000000 DUP2 MSTORE PUSH1 0x4 ADD PUSH2 0x2A2 SWAP1 PUSH2 0x188E JUMP JUMPDEST PUSH1 0x40 MLOAD DUP1 SWAP2 SUB SWAP1 REVERT JUMPDEST DUP1 PUSH20 0xFFFFFFFFFFFFFFFFFFFFFFFFFFFFFFFFFFFFFFFF AND PUSH4 0xBE1C766B PUSH1 0x40 MLOAD DUP2 PUSH4 0xFFFFFFFF AND PUSH1 0xE0 SHL DUP2 MSTORE PUSH1 0x4 ADD PUSH1 0x20 PUSH1 0x40 MLOAD DUP1 DUP4 SUB DUP2 DUP7 GAS STATICCALL ISZERO DUP1 ISZERO PUSH2 0x2F4 JUMPI RETURNDATASIZE PUSH0 PUSH0 RETURNDATACOPY RETURNDATASIZE PUSH0 REVERT JUMPDEST POP POP POP POP PUSH1 0x40 MLOAD RETURNDATASIZE PUSH1 0x1F NOT PUSH1 0x1F DUP3 ADD AND DUP3 ADD DUP1 PUSH1 0x40 MSTORE POP DUP2 ADD SWAP1 PUSH2 0x318 SWAP2 SWAP1 PUSH2 0x18C0 JUMP JUMPDEST SWAP5 POP POP POP POP POP SWAP4 SWAP3 POP POP POP JUMP JUMPDEST PUSH1 0x60 PUSH0 PUSH2 0x331 DUP5 PUSH2 0x7F1 JUMP JUMPDEST SWAP1 POP PUSH0 DUP6 PUSH1 0x40 MLOAD PUSH1 0x20 ADD PUSH2 0x345 SWAP2 SWAP1 PUSH2 0x181E JUMP JUMPDEST PUSH1 0x40 MLOAD PUSH1 0x20 DUP2 DUP4 SUB SUB DUP2 MSTORE SWAP1 PUSH1 0x40 MSTORE DUP1 MLOAD SWAP1 PUSH1 0x20 ADD KECCAK256 SWAP1 POP PUSH0 PUSH2 0x368 DUP4 DUP7 PUSH2 0x7CE JUMP JUMPDEST SWAP1 POP PUSH0 PUSH0 PUSH0 DUP5 DUP2 MSTORE PUSH1 0x20 ADD SWAP1 DUP2 MSTORE PUSH1 0x20 ADD PUSH0 KECCAK256 PUSH0 DUP6 PUSH1 0xF DUP2 GT ISZERO PUSH2 0x38F JUMPI PUSH2 0x38E PUSH2 0x1758 JUMP JUMPDEST JUMPDEST PUSH1 0xF DUP2 GT ISZERO PUSH2 0x3A1 JUMPI PUSH2 0x3A0 PUSH2 0x1758 JUMP JUMPDEST JUMPDEST DUP2 MSTORE PUSH1 0x20 ADD SWAP1 DUP2 MSTORE PUSH1 0x20 ADD PUSH0 KECCAK256 PUSH0 DUP4 PUSH8 0xFFFFFFFFFFFFFFFF AND PUSH8 0xFFFFFFFFFFFFFFFF AND DUP2 MSTORE PUSH1 0x20 ADD SWAP1 DUP2 MSTORE PUSH1 0x20 ADD PUSH0 KECCAK256 PUSH0 SWAP1 SLOAD SWAP1 PUSH2 0x100 EXP SWAP1 DIV PUSH20 0xFFFFFFFFFFFFFFFFFFFFFFFFFFFFFFFFFFFFFFFF AND SWAP1 POP DUP1 PUSH20 0xFFFFFFFFFFFFFFFFFFFFFFFFFFFFFFFFFFFFFFFF AND PUSH4 0x48CBAD6E PUSH1 0x40 MLOAD DUP2 PUSH4 0xFFFFFFFF AND PUSH1 0xE0 SHL DUP2 MSTORE PUSH1 0x4 ADD PUSH0 PUSH1 0x40 MLOAD DUP1 DUP4 SUB DUP2 DUP7 GAS STATICCALL ISZERO DUP1 ISZERO PUSH2 0x43B JUMPI RETURNDATASIZE PUSH0 PUSH0 RETURNDATACOPY RETURNDATASIZE PUSH0 REVERT JUMPDEST POP POP POP POP PUSH1 0x40 MLOAD RETURNDATASIZE PUSH0 DUP3 RETURNDATACOPY RETURNDATASIZE PUSH1 0x1F NOT PUSH1 0x1F DUP3 ADD AND DUP3 ADD DUP1 PUSH1 0x40 MSTORE POP DUP2 ADD SWAP1 PUSH2 0x463 SWAP2 SWAP1 PUSH2 0x1DED JUMP JUMPDEST SWAP5 POP POP POP POP POP SWAP4 SWAP3 POP POP POP JUMP JUMPDEST PUSH0 PUSH1 0x20 MSTORE DUP3 PUSH0 MSTORE PUSH1 0x40 PUSH0 KECCAK256 PUSH1 0x20 MSTORE DUP2 PUSH0 MSTORE PUSH1 0x40 PUSH0 KECCAK256 PUSH1 0x20 MSTORE DUP1 PUSH0 MSTORE PUSH1 0x40 PUSH0 KECCAK256 PUSH0 SWAP3 POP SWAP3 POP POP SWAP1 SLOAD SWAP1 PUSH2 0x100 EXP SWAP1 DIV PUSH20 0xFFFFFFFFFFFFFFFFFFFFFFFFFFFFFFFFFFFFFFFF AND DUP2 JUMP JUMPDEST PUSH0 PUSH2 0x4C5 DUP4 PUSH1 0x60 ADD MLOAD PUSH2 0x7F1 JUMP JUMPDEST SWAP1 POP PUSH0 DUP4 PUSH1 0x40 ADD MLOAD PUSH1 0x40 MLOAD PUSH1 0x20 ADD PUSH2 0x4DD SWAP2 SWAP1 PUSH2 0x181E JUMP JUMPDEST PUSH1 0x40 MLOAD PUSH1 0x20 DUP2 DUP4 SUB SUB DUP2 MSTORE SWAP1 PUSH1 0x40 MSTORE DUP1 MLOAD SWAP1 PUSH1 0x20 ADD KECCAK256 SWAP1 POP PUSH0 PUSH2 0x500 DUP4 DUP6 PUSH2 0x7CE JUMP JUMPDEST SWAP1 POP PUSH0 PUSH0 PUSH0 DUP5 DUP2 MSTORE PUSH1 0x20 ADD SWAP1 DUP2 MSTORE PUSH1 0x20 ADD PUSH0 KECCAK256 PUSH0 DUP6 PUSH1 0xF DUP2 GT ISZERO PUSH2 0x527 JUMPI PUSH2 0x526 PUSH2 0x1758 JUMP JUMPDEST JUMPDEST PUSH1 0xF DUP2 GT ISZERO PUSH2 0x539 JUMPI PUSH2 0x538 PUSH2 0x1758 JUMP JUMPDEST JUMPDEST DUP2 MSTORE PUSH1 0x20 ADD SWAP1 DUP2 MSTORE PUSH1 0x20 ADD PUSH0 KECCAK256 PUSH0 DUP4 PUSH8 0xFFFFFFFFFFFFFFFF AND PUSH8 0xFFFFFFFFFFFFFFFF AND DUP2 MSTORE PUSH1 0x20 ADD SWAP1 DUP2 MSTORE PUSH1 0x20 ADD PUSH0 KECCAK256 PUSH0 SWAP1 SLOAD SWAP1 PUSH2 0x100 EXP SWAP1 DIV PUSH20 0xFFFFFFFFFFFFFFFFFFFFFFFFFFFFFFFFFFFFFFFF AND SWAP1 POP PUSH0 PUSH20 0xFFFFFFFFFFFFFFFFFFFFFFFFFFFFFFFFFFFFFFFF AND DUP2 PUSH20 0xFFFFFFFFFFFFFFFFFFFFFFFFFFFFFFFFFFFFFFFF AND SUB PUSH2 0x719 JUMPI PUSH2 0x607 PUSH1 0x40 MLOAD DUP1 PUSH1 0x40 ADD PUSH1 0x40 MSTORE DUP1 PUSH1 0x15 DUP2 MSTORE PUSH1 0x20 ADD PUSH32 0x4372656174696E67206E65772073686172642061740000000000000000000000 DUP2 MSTORE POP DUP4 PUSH8 0xFFFFFFFFFFFFFFFF AND PUSH2 0xB6B JUMP JUMPDEST PUSH1 0x40 MLOAD PUSH2 0x613 SWAP1 PUSH2 0xC4B JUMP JUMPDEST PUSH1 0x40 MLOAD DUP1 SWAP2 SUB SWAP1 PUSH0 CREATE DUP1 ISZERO DUP1 ISZERO PUSH2 0x62C JUMPI RETURNDATASIZE PUSH0 PUSH0 RETURNDATACOPY RETURNDATASIZE PUSH0 REVERT JUMPDEST POP SWAP1 POP DUP1 PUSH0 PUSH0 DUP6 DUP2 MSTORE PUSH1 0x20 ADD SWAP1 DUP2 MSTORE PUSH1 0x20 ADD PUSH0 KECCAK256 PUSH0 DUP7 PUSH1 0xF DUP2 GT ISZERO PUSH2 0x654 JUMPI PUSH2 0x653 PUSH2 0x1758 JUMP JUMPDEST JUMPDEST PUSH1 0xF DUP2 GT ISZERO PUSH2 0x666 JUMPI PUSH2 0x665 PUSH2 0x1758 JUMP JUMPDEST JUMPDEST DUP2 MSTORE PUSH1 0x20 ADD SWAP1 DUP2 MSTORE PUSH1 0x20 ADD PUSH0 KECCAK256 PUSH0 DUP5 PUSH8 0xFFFFFFFFFFFFFFFF AND PUSH8 0xFFFFFFFFFFFFFFFF AND DUP2 MSTORE PUSH1 0x20 ADD SWAP1 DUP2 MSTORE PUSH1 0x20 ADD PUSH0 KECCAK256 PUSH0 PUSH2 0x100 EXP DUP2 SLOAD DUP2 PUSH20 0xFFFFFFFFFFFFFFFFFFFFFFFFFFFFFFFFFFFFFFFF MUL NOT AND SWAP1 DUP4 PUSH20 0xFFFFFFFFFFFFFFFFFFFFFFFFFFFFFFFFFFFFFFFF AND MUL OR SWAP1 SSTORE POP PUSH32 0x2A9E82BE7BC20784DCC707F4814CA404AC4A94DB66450718F7733B160FB62D86 DUP7 PUSH1 0x40 ADD MLOAD DUP8 PUSH1 0x60 ADD MLOAD DUP5 DUP5 PUSH1 0x40 MLOAD PUSH2 0x710 SWAP5 SWAP4 SWAP3 SWAP2 SWAP1 PUSH2 0x1E6C JUMP JUMPDEST PUSH1 0x40 MLOAD DUP1 SWAP2 SUB SWAP1 LOG1 JUMPDEST DUP1 PUSH20 0xFFFFFFFFFFFFFFFFFFFFFFFFFFFFFFFFFFFFFFFF AND PUSH4 0xE2A77A4C DUP8 PUSH1 0x40 MLOAD DUP3 PUSH4 0xFFFFFFFF AND PUSH1 0xE0 SHL DUP2 MSTORE PUSH1 0x4 ADD PUSH2 0x752 SWAP2 SWAP1 PUSH2 0x206D JUMP JUMPDEST PUSH0 PUSH1 0x40 MLOAD DUP1 DUP4 SUB DUP2 PUSH0 DUP8 DUP1 EXTCODESIZE ISZERO DUP1 ISZERO PUSH2 0x769 JUMPI PUSH0 PUSH0 REVERT JUMPDEST POP GAS CALL ISZERO DUP1 ISZERO PUSH2 0x77B JUMPI RETURNDATASIZE PUSH0 PUSH0 RETURNDATACOPY RETURNDATASIZE PUSH0 REVERT JUMPDEST POP POP POP POP PUSH32 0x87E8B8309759AD52AF1AC44B43236A412E35355E803CE31234B6A2EA6B296CCF DUP7 PUSH0 ADD MLOAD DUP8 PUSH1 0x20 ADD MLOAD DUP9 PUSH2 0x180 ADD MLOAD PUSH1 0x40 MLOAD PUSH2 0x7BE SWAP4 SWAP3 SWAP2 SWAP1 PUSH2 0x20D5 JUMP JUMPDEST PUSH1 0x40 MLOAD DUP1 SWAP2 SUB SWAP1 LOG1 POP POP POP POP POP POP JUMP JUMPDEST PUSH0 PUSH3 0x36EE80 DUP1 DUP4 PUSH2 0x7DF SWAP2 SWAP1 PUSH2 0x2164 JUMP JUMPDEST PUSH2 0x7E9 SWAP2 SWAP1 PUSH2 0x2194 JUMP JUMPDEST SWAP1 POP SWAP3 SWAP2 POP POP JUMP JUMPDEST PUSH0 PUSH0 DUP3 PUSH1 0x40 MLOAD PUSH1 0x20 ADD PUSH2 0x804 SWAP2 SWAP1 PUSH2 0x181E JUMP JUMPDEST PUSH1 0x40 MLOAD PUSH1 0x20 DUP2 DUP4 SUB SUB DUP2 MSTORE SWAP1 PUSH1 0x40 MSTORE DUP1 MLOAD SWAP1 PUSH1 0x20 ADD KECCAK256 SWAP1 POP PUSH32 0x6C9308EEEB72AAC61C6EE2086645EC6CF6638D86D97AF7B81BCF4073F3B95DBC DUP2 SUB PUSH2 0x84C JUMPI PUSH0 SWAP2 POP POP PUSH2 0xB66 JUMP JUMPDEST PUSH32 0x523A5C8A0F83A86997A616B324AE897D2FB6B3F5F68B3969331C12E0F00F9F25 DUP2 SUB PUSH2 0x87D JUMPI PUSH1 0x1 SWAP2 POP POP PUSH2 0xB66 JUMP JUMPDEST PUSH32 0x2A3FF2DFA7BD33B0E77D014065236A2F104B389B776645FDDB9E6A09EEA01441 DUP2 SUB PUSH2 0x8AE JUMPI PUSH1 0x2 SWAP2 POP POP PUSH2 0xB66 JUMP JUMPDEST PUSH32 0xFCA740C51A7536A1FF8F65314E26B24CEE265D7626AD2E39318898F3D501AC22 DUP2 SUB PUSH2 0x8DF JUMPI PUSH1 0x3 SWAP2 POP POP PUSH2 0xB66 JUMP JUMPDEST PUSH32 0x53CAD56A766A794BDC4FD49B262CD08FADF5C823F208FBF3F4EFB377C206EAAA DUP2 SUB PUSH2 0x910 JUMPI PUSH1 0x4 SWAP2 POP POP PUSH2 0xB66 JUMP JUMPDEST PUSH32 0xE99007FD2E286840683BFBAC2C1EA22A3B3C1592D603A9AE9AEE29CF77E941A7 DUP2 SUB PUSH2 0x941 JUMPI PUSH1 0x5 SWAP2 POP POP PUSH2 0xB66 JUMP JUMPDEST PUSH32 0x1125479F824FC31D0CE674B130E57A9DCFDF2D344CA1EF3FC8BF5BD50F9FCCA9 DUP2 SUB PUSH2 0x972 JUMPI PUSH1 0x6 SWAP2 POP POP PUSH2 0xB66 JUMP JUMPDEST PUSH32 0xA50F424F123435E4689C6436CE338980297CA65F2EE6B69A216F0561EE6CF400 DUP2 SUB PUSH2 0x9A3 JUMPI PUSH1 0x7 SWAP2 POP POP PUSH2 0xB66 JUMP JUMPDEST PUSH32 0x9A433CC5A6AEE766B1BCE0A7DC72AB7B4FD031108E0C5AFEA91382F1B1955FC9 DUP2 SUB PUSH2 0x9D4 JUMPI PUSH1 0x8 SWAP2 POP POP PUSH2 0xB66 JUMP JUMPDEST PUSH32 0xA0B83CFA5501E126AC29F6BF7A07BD17E2D97916947EED361748E8E0AB0ABA4D DUP2 SUB PUSH2 0xA05 JUMPI PUSH1 0x9 SWAP2 POP POP PUSH2 0xB66 JUMP JUMPDEST PUSH32 0xE21CCD2715134877C589435A9C98DEB14540FDF9E902AFEBF2163FE393E9C073 DUP2 SUB PUSH2 0xA36 JUMPI PUSH1 0xA SWAP2 POP POP PUSH2 0xB66 JUMP JUMPDEST PUSH32 0x11108661A127316F8F74DC39A66520C8EC16719ED867EE768AF67729BA3EC1D2 DUP2 SUB PUSH2 0xA67 JUMPI PUSH1 0xB SWAP2 POP POP PUSH2 0xB66 JUMP JUMPDEST PUSH32 0x7B2E5637DE8D5670BD5BE523FBCCC1DFEF88F0767EB2ABF5AC4A81DA61AE2002 DUP2 SUB PUSH2 0xA98 JUMPI PUSH1 0xC SWAP2 POP POP PUSH2 0xB66 JUMP JUMPDEST PUSH32 0x1CEF0646E7FE7CB478D3A93D2E07774697C9239D0EE8B4294B768C91AF329E66 DUP2 SUB PUSH2 0xAC9 JUMPI PUSH1 0xD SWAP2 POP POP PUSH2 0xB66 JUMP JUMPDEST PUSH32 0x7CD5BA658B5DFF64585BFCB0DF7983749825E2292A4FF6DAF96207E6EB100FE7 DUP2 SUB PUSH2 0xAFA JUMPI PUSH1 0xE SWAP2 POP POP PUSH2 0xB66 JUMP JUMPDEST PUSH32 0xA390D73D5FD5E6A577D394328E26CE85589C6D8C382FBA9150FB136BBBF31FF7 DUP2 SUB PUSH2 0xB2B JUMPI PUSH1 0xF SWAP2 POP POP PUSH2 0xB66 JUMP JUMPDEST PUSH1 0x40 MLOAD PUSH32 0x8C379A000000000000000000000000000000000000000000000000000000000 DUP2 MSTORE PUSH1 0x4 ADD PUSH2 0xB5D SWAP1 PUSH2 0x221A JUMP JUMPDEST PUSH1 0x40 MLOAD DUP1 SWAP2 SUB SWAP1 REVERT JUMPDEST SWAP2 SWAP1 POP JUMP JUMPDEST PUSH2 0xC03 DUP3 DUP3 PUSH1 0x40 MLOAD PUSH1 0x24 ADD PUSH2 0xB81 SWAP3 SWAP2 SWAP1 PUSH2 0x2238 JUMP JUMPDEST PUSH1 0x40 MLOAD PUSH1 0x20 DUP2 DUP4 SUB SUB DUP2 MSTORE SWAP1 PUSH1 0x40 MSTORE PUSH32 0xB60E72CC00000000000000000000000000000000000000000000000000000000 PUSH28 0xFFFFFFFFFFFFFFFFFFFFFFFFFFFFFFFFFFFFFFFFFFFFFFFFFFFFFFFF NOT AND PUSH1 0x20 DUP3 ADD DUP1 MLOAD PUSH28 0xFFFFFFFFFFFFFFFFFFFFFFFFFFFFFFFFFFFFFFFFFFFFFFFFFFFFFFFF DUP4 DUP2 DUP4 AND OR DUP4 MSTORE POP POP POP POP PUSH2 0xC07 JUMP JUMPDEST POP POP JUMP JUMPDEST PUSH2 0xC1E DUP2 PUSH2 0xC16 PUSH2 0xC21 PUSH2 0xC40 JUMP JUMPDEST PUSH4 0xFFFFFFFF AND JUMP JUMPDEST POP JUMP JUMPDEST PUSH0 PUSH11 0x636F6E736F6C652E6C6F67 SWAP1 POP PUSH0 PUSH0 DUP4 MLOAD PUSH1 0x20 DUP6 ADD DUP5 GAS STATICCALL POP POP POP JUMP JUMPDEST PUSH2 0xC58 DUP2 SWAP1 POP SWAP2 SWAP1 POP JUMP JUMPDEST PUSH2 0x1A98 DUP1 PUSH2 0x2294 DUP4 CODECOPY ADD SWAP1 JUMP JUMPDEST PUSH2 0xC60 PUSH2 0x2266 JUMP JUMPDEST JUMP JUMPDEST PUSH0 PUSH1 0x40 MLOAD SWAP1 POP SWAP1 JUMP JUMPDEST PUSH0 PUSH0 REVERT JUMPDEST PUSH0 PUSH0 REVERT JUMPDEST PUSH0 PUSH0 REVERT JUMPDEST PUSH0 PUSH0 REVERT JUMPDEST PUSH0 PUSH1 0x1F NOT PUSH1 0x1F DUP4 ADD AND SWAP1 POP SWAP2 SWAP1 POP JUMP JUMPDEST PUSH32 0x4E487B7100000000000000000000000000000000000000000000000000000000 PUSH0 MSTORE PUSH1 0x41 PUSH1 0x4 MSTORE PUSH1 0x24 PUSH0 REVERT JUMPDEST PUSH2 0xCC1 DUP3 PUSH2 0xC7B JUMP JUMPDEST DUP2 ADD DUP2 DUP2 LT PUSH8 0xFFFFFFFFFFFFFFFF DUP3 GT OR ISZERO PUSH2 0xCE0 JUMPI PUSH2 0xCDF PUSH2 0xC8B JUMP JUMPDEST JUMPDEST DUP1 PUSH1 0x40 MSTORE POP POP POP JUMP JUMPDEST PUSH0 PUSH2 0xCF2 PUSH2 0xC62 JUMP JUMPDEST SWAP1 POP PUSH2 0xCFE DUP3 DUP3 PUSH2 0xCB8 JUMP JUMPDEST SWAP2 SWAP1 POP JUMP JUMPDEST PUSH0 PUSH8 0xFFFFFFFFFFFFFFFF DUP3 GT ISZERO PUSH2 0xD1D JUMPI PUSH2 0xD1C PUSH2 0xC8B JUMP JUMPDEST JUMPDEST PUSH2 0xD26 DUP3 PUSH2 0xC7B JUMP JUMPDEST SWAP1 POP PUSH1 0x20 DUP2 ADD SWAP1 POP SWAP2 SWAP1 POP JUMP JUMPDEST DUP3 DUP2 DUP4 CALLDATACOPY PUSH0 DUP4 DUP4 ADD MSTORE POP POP POP JUMP JUMPDEST PUSH0 PUSH2 0xD53 PUSH2 0xD4E DUP5 PUSH2 0xD03 JUMP JUMPDEST PUSH2 0xCE9 JUMP JUMPDEST SWAP1 POP DUP3 DUP2 MSTORE PUSH1 0x20 DUP2 ADD DUP5 DUP5 DUP5 ADD GT ISZERO PUSH2 0xD6F JUMPI PUSH2 0xD6E PUSH2 0xC77 JUMP JUMPDEST JUMPDEST PUSH2 0xD7A DUP5 DUP3 DUP6 PUSH2 0xD33 JUMP JUMPDEST POP SWAP4 SWAP3 POP POP POP JUMP JUMPDEST PUSH0 DUP3 PUSH1 0x1F DUP4 ADD SLT PUSH2 0xD96 JUMPI PUSH2 0xD95 PUSH2 0xC73 JUMP JUMPDEST JUMPDEST DUP2 CALLDATALOAD PUSH2 0xDA6 DUP5 DUP3 PUSH1 0x20 DUP7 ADD PUSH2 0xD41 JUMP JUMPDEST SWAP2 POP POP SWAP3 SWAP2 POP POP JUMP JUMPDEST PUSH0 PUSH8 0xFFFFFFFFFFFFFFFF DUP3 AND SWAP1 POP SWAP2 SWAP1 POP JUMP JUMPDEST PUSH2 0xDCB DUP2 PUSH2 0xDAF JUMP JUMPDEST DUP2 EQ PUSH2 0xDD5 JUMPI PUSH0 PUSH0 REVERT JUMPDEST POP JUMP JUMPDEST PUSH0 DUP2 CALLDATALOAD SWAP1 POP PUSH2 0xDE6 DUP2 PUSH2 0xDC2 JUMP JUMPDEST SWAP3 SWAP2 POP POP JUMP JUMPDEST PUSH0 PUSH0 PUSH0 PUSH1 0x60 DUP5 DUP7 SUB SLT ISZERO PUSH2 0xE03 JUMPI PUSH2 0xE02 PUSH2 0xC6B JUMP JUMPDEST JUMPDEST PUSH0 DUP5 ADD CALLDATALOAD PUSH8 0xFFFFFFFFFFFFFFFF DUP2 GT ISZERO PUSH2 0xE20 JUMPI PUSH2 0xE1F PUSH2 0xC6F JUMP JUMPDEST JUMPDEST PUSH2 0xE2C DUP7 DUP3 DUP8 ADD PUSH2 0xD82 JUMP JUMPDEST SWAP4 POP POP PUSH1 0x20 DUP5 ADD CALLDATALOAD PUSH8 0xFFFFFFFFFFFFFFFF DUP2 GT ISZERO PUSH2 0xE4D JUMPI PUSH2 0xE4C PUSH2 0xC6F JUMP JUMPDEST JUMPDEST PUSH2 0xE59 DUP7 DUP3 DUP8 ADD PUSH2 0xD82 JUMP JUMPDEST SWAP3 POP POP PUSH1 0x40 PUSH2 0xE6A DUP7 DUP3 DUP8 ADD PUSH2 0xDD8 JUMP JUMPDEST SWAP2 POP POP SWAP3 POP SWAP3 POP SWAP3 JUMP JUMPDEST PUSH0 DUP2 SWAP1 POP SWAP2 SWAP1 POP JUMP JUMPDEST PUSH2 0xE86 DUP2 PUSH2 0xE74 JUMP JUMPDEST DUP3 MSTORE POP POP JUMP JUMPDEST PUSH0 PUSH1 0x20 DUP3 ADD SWAP1 POP PUSH2 0xE9F PUSH0 DUP4 ADD DUP5 PUSH2 0xE7D JUMP JUMPDEST SWAP3 SWAP2 POP POP JUMP JUMPDEST PUSH0 DUP2 MLOAD SWAP1 POP SWAP2 SWAP1 POP JUMP JUMPDEST PUSH0 DUP3 DUP3 MSTORE PUSH1 0x20 DUP3 ADD SWAP1 POP SWAP3 SWAP2 POP POP JUMP JUMPDEST PUSH0 DUP2 SWAP1 POP PUSH1 0x20 DUP3 ADD SWAP1 POP SWAP2 SWAP1 POP JUMP JUMPDEST PUSH0 DUP2 MLOAD SWAP1 POP SWAP2 SWAP1 POP JUMP JUMPDEST PUSH0 DUP3 DUP3 MSTORE PUSH1 0x20 DUP3 ADD SWAP1 POP SWAP3 SWAP2 POP POP JUMP JUMPDEST DUP3 DUP2 DUP4 MCOPY PUSH0 DUP4 DUP4 ADD MSTORE POP POP POP JUMP JUMPDEST PUSH0 PUSH2 0xF00 DUP3 PUSH2 0xECE JUMP JUMPDEST PUSH2 0xF0A DUP2 DUP6 PUSH2 0xED8 JUMP JUMPDEST SWAP4 POP PUSH2 0xF1A DUP2 DUP6 PUSH1 0x20 DUP7 ADD PUSH2 0xEE8 JUMP JUMPDEST PUSH2 0xF23 DUP2 PUSH2 0xC7B JUMP JUMPDEST DUP5 ADD SWAP2 POP POP SWAP3 SWAP2 POP POP JUMP JUMPDEST PUSH2 0xF37 DUP2 PUSH2 0xE74 JUMP JUMPDEST DUP3 MSTORE POP POP JUMP JUMPDEST PUSH2 0xF46 DUP2 PUSH2 0xDAF JUMP JUMPDEST DUP3 MSTORE POP POP JUMP JUMPDEST PUSH0 DUP2 ISZERO ISZERO SWAP1 POP SWAP2 SWAP1 POP JUMP JUMPDEST PUSH2 0xF60 DUP2 PUSH2 0xF4C JUMP JUMPDEST DUP3 MSTORE POP POP JUMP JUMPDEST PUSH0 PUSH2 0x220 DUP4 ADD PUSH0 DUP4 ADD MLOAD PUSH2 0xF7C PUSH0 DUP7 ADD DUP3 PUSH2 0xF3D JUMP JUMPDEST POP PUSH1 0x20 DUP4 ADD MLOAD PUSH2 0xF8F PUSH1 0x20 DUP7 ADD DUP3 PUSH2 0xF3D JUMP JUMPDEST POP PUSH1 0x40 DUP4 ADD MLOAD DUP5 DUP3 SUB PUSH1 0x40 DUP7 ADD MSTORE PUSH2 0xFA7 DUP3 DUP3 PUSH2 0xEF6 JUMP JUMPDEST SWAP2 POP POP PUSH1 0x60 DUP4 ADD MLOAD DUP5 DUP3 SUB PUSH1 0x60 DUP7 ADD MSTORE PUSH2 0xFC1 DUP3 DUP3 PUSH2 0xEF6 JUMP JUMPDEST SWAP2 POP POP PUSH1 0x80 DUP4 ADD MLOAD PUSH2 0xFD6 PUSH1 0x80 DUP7 ADD DUP3 PUSH2 0xF2E JUMP JUMPDEST POP PUSH1 0xA0 DUP4 ADD MLOAD PUSH2 0xFE9 PUSH1 0xA0 DUP7 ADD DUP3 PUSH2 0xF2E JUMP JUMPDEST POP PUSH1 0xC0 DUP4 ADD MLOAD DUP5 DUP3 SUB PUSH1 0xC0 DUP7 ADD MSTORE PUSH2 0x1001 DUP3 DUP3 PUSH2 0xEF6 JUMP JUMPDEST SWAP2 POP POP PUSH1 0xE0 DUP4 ADD MLOAD DUP5 DUP3 SUB PUSH1 0xE0 DUP7 ADD MSTORE PUSH2 0x101B DUP3 DUP3 PUSH2 0xEF6 JUMP JUMPDEST SWAP2 POP POP PUSH2 0x100 DUP4 ADD MLOAD DUP5 DUP3 SUB PUSH2 0x100 DUP7 ADD MSTORE PUSH2 0x1037 DUP3 DUP3 PUSH2 0xEF6 JUMP JUMPDEST SWAP2 POP POP PUSH2 0x120 DUP4 ADD MLOAD DUP5 DUP3 SUB PUSH2 0x120 DUP7 ADD MSTORE PUSH2 0x1053 DUP3 DUP3 PUSH2 0xEF6 JUMP JUMPDEST SWAP2 POP POP PUSH2 0x140 DUP4 ADD MLOAD DUP5 DUP3 SUB PUSH2 0x140 DUP7 ADD MSTORE PUSH2 0x106F DUP3 DUP3 PUSH2 0xEF6 JUMP JUMPDEST SWAP2 POP POP PUSH2 0x160 DUP4 ADD MLOAD PUSH2 0x1086 PUSH2 0x160 DUP7 ADD DUP3 PUSH2 0xF2E JUMP JUMPDEST POP PUSH2 0x180 DUP4 ADD MLOAD PUSH2 0x109B PUSH2 0x180 DUP7 ADD DUP3 PUSH2 0xF57 JUMP JUMPDEST POP PUSH2 0x1A0 DUP4 ADD MLOAD DUP5 DUP3 SUB PUSH2 0x1A0 DUP7 ADD MSTORE PUSH2 0x10B5 DUP3 DUP3 PUSH2 0xEF6 JUMP JUMPDEST SWAP2 POP POP PUSH2 0x1C0 DUP4 ADD MLOAD DUP5 DUP3 SUB PUSH2 0x1C0 DUP7 ADD MSTORE PUSH2 0x10D1 DUP3 DUP3 PUSH2 0xEF6 JUMP JUMPDEST SWAP2 POP POP PUSH2 0x1E0 DUP4 ADD MLOAD DUP5 DUP3 SUB PUSH2 0x1E0 DUP7 ADD MSTORE PUSH2 0x10ED DUP3 DUP3 PUSH2 0xEF6 JUMP JUMPDEST SWAP2 POP POP PUSH2 0x200 DUP4 ADD MLOAD DUP5 DUP3 SUB PUSH2 0x200 DUP7 ADD MSTORE PUSH2 0x1109 DUP3 DUP3 PUSH2 0xEF6 JUMP JUMPDEST SWAP2 POP POP DUP1 SWAP2 POP POP SWAP3 SWAP2 POP POP JUMP JUMPDEST PUSH0 PUSH1 0x80 DUP4 ADD PUSH0 DUP4 ADD MLOAD DUP5 DUP3 SUB PUSH0 DUP7 ADD MSTORE PUSH2 0x1130 DUP3 DUP3 PUSH2 0xEF6 JUMP JUMPDEST SWAP2 POP POP PUSH1 0x20 DUP4 ADD MLOAD PUSH2 0x1145 PUSH1 0x20 DUP7 ADD DUP3 PUSH2 0xF2E JUMP JUMPDEST POP PUSH1 0x40 DUP4 ADD MLOAD DUP5 DUP3 SUB PUSH1 0x40 DUP7 ADD MSTORE PUSH2 0x115D DUP3 DUP3 PUSH2 0xEF6 JUMP JUMPDEST SWAP2 POP POP PUSH1 0x60 DUP4 ADD MLOAD DUP5 DUP3 SUB PUSH1 0x60 DUP7 ADD MSTORE PUSH2 0x1177 DUP3 DUP3 PUSH2 0xF66 JUMP JUMPDEST SWAP2 POP POP DUP1 SWAP2 POP POP SWAP3 SWAP2 POP POP JUMP JUMPDEST PUSH0 PUSH2 0x118F DUP4 DUP4 PUSH2 0x1116 JUMP JUMPDEST SWAP1 POP SWAP3 SWAP2 POP POP JUMP JUMPDEST PUSH0 PUSH1 0x20 DUP3 ADD SWAP1 POP SWAP2 SWAP1 POP JUMP JUMPDEST PUSH0 PUSH2 0x11AD DUP3 PUSH2 0xEA5 JUMP JUMPDEST PUSH2 0x11B7 DUP2 DUP6 PUSH2 0xEAF JUMP JUMPDEST SWAP4 POP DUP4 PUSH1 0x20 DUP3 MUL DUP6 ADD PUSH2 0x11C9 DUP6 PUSH2 0xEBF JUMP JUMPDEST DUP1 PUSH0 JUMPDEST DUP6 DUP2 LT ISZERO PUSH2 0x1204 JUMPI DUP5 DUP5 SUB DUP10 MSTORE DUP2 MLOAD PUSH2 0x11E5 DUP6 DUP3 PUSH2 0x1184 JUMP JUMPDEST SWAP5 POP PUSH2 0x11F0 DUP4 PUSH2 0x1197 JUMP JUMPDEST SWAP3 POP PUSH1 0x20 DUP11 ADD SWAP10 POP POP PUSH1 0x1 DUP2 ADD SWAP1 POP PUSH2 0x11CC JUMP JUMPDEST POP DUP3 SWAP8 POP DUP8 SWAP6 POP POP POP POP POP POP SWAP3 SWAP2 POP POP JUMP JUMPDEST PUSH0 PUSH1 0x20 DUP3 ADD SWAP1 POP DUP2 DUP2 SUB PUSH0 DUP4 ADD MSTORE PUSH2 0x122E DUP2 DUP5 PUSH2 0x11A3 JUMP JUMPDEST SWAP1 POP SWAP3 SWAP2 POP POP JUMP JUMPDEST PUSH0 DUP2 SWAP1 POP SWAP2 SWAP1 POP JUMP JUMPDEST PUSH2 0x1248 DUP2 PUSH2 0x1236 JUMP JUMPDEST DUP2 EQ PUSH2 0x1252 JUMPI PUSH0 PUSH0 REVERT JUMPDEST POP JUMP JUMPDEST PUSH0 DUP2 CALLDATALOAD SWAP1 POP PUSH2 0x1263 DUP2 PUSH2 0x123F JUMP JUMPDEST SWAP3 SWAP2 POP POP JUMP JUMPDEST PUSH1 0x10 DUP2 LT PUSH2 0x1275 JUMPI PUSH0 PUSH0 REVERT JUMPDEST POP JUMP JUMPDEST PUSH0 DUP2 CALLDATALOAD SWAP1 POP PUSH2 0x1286 DUP2 PUSH2 0x1269 JUMP JUMPDEST SWAP3 SWAP2 POP POP JUMP JUMPDEST PUSH0 PUSH0 PUSH0 PUSH1 0x60 DUP5 DUP7 SUB SLT ISZERO PUSH2 0x12A3 JUMPI PUSH2 0x12A2 PUSH2 0xC6B JUMP JUMPDEST JUMPDEST PUSH0 PUSH2 0x12B0 DUP7 DUP3 DUP8 ADD PUSH2 0x1255 JUMP JUMPDEST SWAP4 POP POP PUSH1 0x20 PUSH2 0x12C1 DUP7 DUP3 DUP8 ADD PUSH2 0x1278 JUMP JUMPDEST SWAP3 POP POP PUSH1 0x40 PUSH2 0x12D2 DUP7 DUP3 DUP8 ADD PUSH2 0xDD8 JUMP JUMPDEST SWAP2 POP POP SWAP3 POP SWAP3 POP SWAP3 JUMP JUMPDEST PUSH0 PUSH20 0xFFFFFFFFFFFFFFFFFFFFFFFFFFFFFFFFFFFFFFFF DUP3 AND SWAP1 POP SWAP2 SWAP1 POP JUMP JUMPDEST PUSH0 PUSH2 0x1305 DUP3 PUSH2 0x12DC JUMP JUMPDEST SWAP1 POP SWAP2 SWAP1 POP JUMP JUMPDEST PUSH2 0x1315 DUP2 PUSH2 0x12FB JUMP JUMPDEST DUP3 MSTORE POP POP JUMP JUMPDEST PUSH0 PUSH1 0x20 DUP3 ADD SWAP1 POP PUSH2 0x132E PUSH0 DUP4 ADD DUP5 PUSH2 0x130C JUMP JUMPDEST SWAP3 SWAP2 POP POP JUMP JUMPDEST PUSH0 PUSH0 REVERT JUMPDEST PUSH0 PUSH0 REVERT JUMPDEST PUSH2 0x1345 DUP2 PUSH2 0xE74 JUMP JUMPDEST DUP2 EQ PUSH2 0x134F JUMPI PUSH0 PUSH0 REVERT JUMPDEST POP JUMP JUMPDEST PUSH0 DUP2 CALLDATALOAD SWAP1 POP PUSH2 0x1360 DUP2 PUSH2 0x133C JUMP JUMPDEST SWAP3 SWAP2 POP POP JUMP JUMPDEST PUSH2 0x136F DUP2 PUSH2 0xF4C JUMP JUMPDEST DUP2 EQ PUSH2 0x1379 JUMPI PUSH0 PUSH0 REVERT JUMPDEST POP JUMP JUMPDEST PUSH0 DUP2 CALLDATALOAD SWAP1 POP PUSH2 0x138A DUP2 PUSH2 0x1366 JUMP JUMPDEST SWAP3 SWAP2 POP POP JUMP JUMPDEST PUSH0 PUSH2 0x220 DUP3 DUP5 SUB SLT ISZERO PUSH2 0x13A6 JUMPI PUSH2 0x13A5 PUSH2 0x1334 JUMP JUMPDEST JUMPDEST PUSH2 0x13B1 PUSH2 0x220 PUSH2 0xCE9 JUMP JUMPDEST SWAP1 POP PUSH0 PUSH2 0x13C0 DUP5 DUP3 DUP6 ADD PUSH2 0xDD8 JUMP JUMPDEST PUSH0 DUP4 ADD MSTORE POP PUSH1 0x20 PUSH2 0x13D3 DUP5 DUP3 DUP6 ADD PUSH2 0xDD8 JUMP JUMPDEST PUSH1 0x20 DUP4 ADD MSTORE POP PUSH1 0x40 DUP3 ADD CALLDATALOAD PUSH8 0xFFFFFFFFFFFFFFFF DUP2 GT ISZERO PUSH2 0x13F7 JUMPI PUSH2 0x13F6 PUSH2 0x1338 JUMP JUMPDEST JUMPDEST PUSH2 0x1403 DUP5 DUP3 DUP6 ADD PUSH2 0xD82 JUMP JUMPDEST PUSH1 0x40 DUP4 ADD MSTORE POP PUSH1 0x60 DUP3 ADD CALLDATALOAD PUSH8 0xFFFFFFFFFFFFFFFF DUP2 GT ISZERO PUSH2 0x1427 JUMPI PUSH2 0x1426 PUSH2 0x1338 JUMP JUMPDEST JUMPDEST PUSH2 0x1433 DUP5 DUP3 DUP6 ADD PUSH2 0xD82 JUMP JUMPDEST PUSH1 0x60 DUP4 ADD MSTORE POP PUSH1 0x80 PUSH2 0x1447 DUP5 DUP3 DUP6 ADD PUSH2 0x1352 JUMP JUMPDEST PUSH1 0x80 DUP4 ADD MSTORE POP PUSH1 0xA0 PUSH2 0x145B DUP5 DUP3 DUP6 ADD PUSH2 0x1352 JUMP JUMPDEST PUSH1 0xA0 DUP4 ADD MSTORE POP PUSH1 0xC0 DUP3 ADD CALLDATALOAD PUSH8 0xFFFFFFFFFFFFFFFF DUP2 GT ISZERO PUSH2 0x147F JUMPI PUSH2 0x147E PUSH2 0x1338 JUMP JUMPDEST JUMPDEST PUSH2 0x148B DUP5 DUP3 DUP6 ADD PUSH2 0xD82 JUMP JUMPDEST PUSH1 0xC0 DUP4 ADD MSTORE POP PUSH1 0xE0 DUP3 ADD CALLDATALOAD PUSH8 0xFFFFFFFFFFFFFFFF DUP2 GT ISZERO PUSH2 0x14AF JUMPI PUSH2 0x14AE PUSH2 0x1338 JUMP JUMPDEST JUMPDEST PUSH2 0x14BB DUP5 DUP3 DUP6 ADD PUSH2 0xD82 JUMP JUMPDEST PUSH1 0xE0 DUP4 ADD MSTORE POP PUSH2 0x100 DUP3 ADD CALLDATALOAD PUSH8 0xFFFFFFFFFFFFFFFF DUP2 GT ISZERO PUSH2 0x14E0 JUMPI PUSH2 0x14DF PUSH2 0x1338 JUMP JUMPDEST JUMPDEST PUSH2 0x14EC DUP5 DUP3 DUP6 ADD PUSH2 0xD82 JUMP JUMPDEST PUSH2 0x100 DUP4 ADD MSTORE POP PUSH2 0x120 DUP3 ADD CALLDATALOAD PUSH8 0xFFFFFFFFFFFFFFFF DUP2 GT ISZERO PUSH2 0x1512 JUMPI PUSH2 0x1511 PUSH2 0x1338 JUMP JUMPDEST JUMPDEST PUSH2 0x151E DUP5 DUP3 DUP6 ADD PUSH2 0xD82 JUMP JUMPDEST PUSH2 0x120 DUP4 ADD MSTORE POP PUSH2 0x140 DUP3 ADD CALLDATALOAD PUSH8 0xFFFFFFFFFFFFFFFF DUP2 GT ISZERO PUSH2 0x1544 JUMPI PUSH2 0x1543 PUSH2 0x1338 JUMP JUMPDEST JUMPDEST PUSH2 0x1550 DUP5 DUP3 DUP6 ADD PUSH2 0xD82 JUMP JUMPDEST PUSH2 0x140 DUP4 ADD MSTORE POP PUSH2 0x160 PUSH2 0x1566 DUP5 DUP3 DUP6 ADD PUSH2 0x1352 JUMP JUMPDEST PUSH2 0x160 DUP4 ADD MSTORE POP PUSH2 0x180 PUSH2 0x157C DUP5 DUP3 DUP6 ADD PUSH2 0x137C JUMP JUMPDEST PUSH2 0x180 DUP4 ADD MSTORE POP PUSH2 0x1A0 DUP3 ADD CALLDATALOAD PUSH8 0xFFFFFFFFFFFFFFFF DUP2 GT ISZERO PUSH2 0x15A2 JUMPI PUSH2 0x15A1 PUSH2 0x1338 JUMP JUMPDEST JUMPDEST PUSH2 0x15AE DUP5 DUP3 DUP6 ADD PUSH2 0xD82 JUMP JUMPDEST PUSH2 0x1A0 DUP4 ADD MSTORE POP PUSH2 0x1C0 DUP3 ADD CALLDATALOAD PUSH8 0xFFFFFFFFFFFFFFFF DUP2 GT ISZERO PUSH2 0x15D4 JUMPI PUSH2 0x15D3 PUSH2 0x1338 JUMP JUMPDEST JUMPDEST PUSH2 0x15E0 DUP5 DUP3 DUP6 ADD PUSH2 0xD82 JUMP JUMPDEST PUSH2 0x1C0 DUP4 ADD MSTORE POP PUSH2 0x1E0 DUP3 ADD CALLDATALOAD PUSH8 0xFFFFFFFFFFFFFFFF DUP2 GT ISZERO PUSH2 0x1606 JUMPI PUSH2 0x1605 PUSH2 0x1338 JUMP JUMPDEST JUMPDEST PUSH2 0x1612 DUP5 DUP3 DUP6 ADD PUSH2 0xD82 JUMP JUMPDEST PUSH2 0x1E0 DUP4 ADD MSTORE POP PUSH2 0x200 DUP3 ADD CALLDATALOAD PUSH8 0xFFFFFFFFFFFFFFFF DUP2 GT ISZERO PUSH2 0x1638 JUMPI PUSH2 0x1637 PUSH2 0x1338 JUMP JUMPDEST JUMPDEST PUSH2 0x1644 DUP5 DUP3 DUP6 ADD PUSH2 0xD82 JUMP JUMPDEST PUSH2 0x200 DUP4 ADD MSTORE POP SWAP3 SWAP2 POP POP JUMP JUMPDEST PUSH0 PUSH0 PUSH1 0x40 DUP4 DUP6 SUB SLT ISZERO PUSH2 0x1667 JUMPI PUSH2 0x1666 PUSH2 0xC6B JUMP JUMPDEST JUMPDEST PUSH0 DUP4 ADD CALLDATALOAD PUSH8 0xFFFFFFFFFFFFFFFF DUP2 GT ISZERO PUSH2 0x1684 JUMPI PUSH2 0x1683 PUSH2 0xC6F JUMP JUMPDEST JUMPDEST PUSH2 0x1690 DUP6 DUP3 DUP7 ADD PUSH2 0x1390 JUMP JUMPDEST SWAP3 POP POP PUSH1 0x20 PUSH2 0x16A1 DUP6 DUP3 DUP7 ADD PUSH2 0xDD8 JUMP JUMPDEST SWAP2 POP POP SWAP3 POP SWAP3 SWAP1 POP JUMP JUMPDEST PUSH0 PUSH0 PUSH1 0x40 DUP4 DUP6 SUB SLT ISZERO PUSH2 0x16C1 JUMPI PUSH2 0x16C0 PUSH2 0xC6B JUMP JUMPDEST JUMPDEST PUSH0 PUSH2 0x16CE DUP6 DUP3 DUP7 ADD PUSH2 0x1278 JUMP JUMPDEST SWAP3 POP POP PUSH1 0x20 PUSH2 0x16DF DUP6 DUP3 DUP7 ADD PUSH2 0xDD8 JUMP JUMPDEST SWAP2 POP POP SWAP3 POP SWAP3 SWAP1 POP JUMP JUMPDEST PUSH2 0x16F2 DUP2 PUSH2 0xDAF JUMP JUMPDEST DUP3 MSTORE POP POP JUMP JUMPDEST PUSH0 PUSH1 0x20 DUP3 ADD SWAP1 POP PUSH2 0x170B PUSH0 DUP4 ADD DUP5 PUSH2 0x16E9 JUMP JUMPDEST SWAP3 SWAP2 POP POP JUMP JUMPDEST PUSH0 PUSH1 0x20 DUP3 DUP5 SUB SLT ISZERO PUSH2 0x1726 JUMPI PUSH2 0x1725 PUSH2 0xC6B JUMP JUMPDEST JUMPDEST PUSH0 DUP3 ADD CALLDATALOAD PUSH8 0xFFFFFFFFFFFFFFFF DUP2 GT ISZERO PUSH2 0x1743 JUMPI PUSH2 0x1742 PUSH2 0xC6F JUMP JUMPDEST JUMPDEST PUSH2 0x174F DUP5 DUP3 DUP6 ADD PUSH2 0xD82 JUMP JUMPDEST SWAP2 POP POP SWAP3 SWAP2 POP POP JUMP JUMPDEST PUSH32 0x4E487B7100000000000000000000000000000000000000000000000000000000 PUSH0 MSTORE PUSH1 0x21 PUSH1 0x4 MSTORE PUSH1 0x24 PUSH0 REVERT JUMPDEST PUSH1 0x10 DUP2 LT PUSH2 0x1796 JUMPI PUSH2 0x1795 PUSH2 0x1758 JUMP JUMPDEST JUMPDEST POP JUMP JUMPDEST PUSH0 DUP2 SWAP1 POP PUSH2 0x17A6 DUP3 PUSH2 0x1785 JUMP JUMPDEST SWAP2 SWAP1 POP JUMP JUMPDEST PUSH0 PUSH2 0x17B5 DUP3 PUSH2 0x1799 JUMP JUMPDEST SWAP1 POP SWAP2 SWAP1 POP JUMP JUMPDEST PUSH2 0x17C5 DUP2 PUSH2 0x17AB JUMP JUMPDEST DUP3 MSTORE POP POP JUMP JUMPDEST PUSH0 PUSH1 0x20 DUP3 ADD SWAP1 POP PUSH2 0x17DE PUSH0 DUP4 ADD DUP5 PUSH2 0x17BC JUMP JUMPDEST SWAP3 SWAP2 POP POP JUMP JUMPDEST PUSH0 DUP2 SWAP1 POP SWAP3 SWAP2 POP POP JUMP JUMPDEST PUSH0 PUSH2 0x17F8 DUP3 PUSH2 0xECE JUMP JUMPDEST PUSH2 0x1802 DUP2 DUP6 PUSH2 0x17E4 JUMP JUMPDEST SWAP4 POP PUSH2 0x1812 DUP2 DUP6 PUSH1 0x20 DUP7 ADD PUSH2 0xEE8 JUMP JUMPDEST DUP1 DUP5 ADD SWAP2 POP POP SWAP3 SWAP2 POP POP JUMP JUMPDEST PUSH0 PUSH2 0x1829 DUP3 DUP5 PUSH2 0x17EE JUMP JUMPDEST SWAP2 POP DUP2 SWAP1 POP SWAP3 SWAP2 POP POP JUMP JUMPDEST PUSH0 DUP3 DUP3 MSTORE PUSH1 0x20 DUP3 ADD SWAP1 POP SWAP3 SWAP2 POP POP JUMP JUMPDEST PUSH32 0x41646472657373206973206E6F7420666F756E64000000000000000000000000 PUSH0 DUP3 ADD MSTORE POP JUMP JUMPDEST PUSH0 PUSH2 0x1878 PUSH1 0x14 DUP4 PUSH2 0x1834 JUMP JUMPDEST SWAP2 POP PUSH2 0x1883 DUP3 PUSH2 0x1844 JUMP JUMPDEST PUSH1 0x20 DUP3 ADD SWAP1 POP SWAP2 SWAP1 POP JUMP JUMPDEST PUSH0 PUSH1 0x20 DUP3 ADD SWAP1 POP DUP2 DUP2 SUB PUSH0 DUP4 ADD MSTORE PUSH2 0x18A5 DUP2 PUSH2 0x186C JUMP JUMPDEST SWAP1 POP SWAP2 SWAP1 POP JUMP JUMPDEST PUSH0 DUP2 MLOAD SWAP1 POP PUSH2 0x18BA DUP2 PUSH2 0x133C JUMP JUMPDEST SWAP3 SWAP2 POP POP JUMP JUMPDEST PUSH0 PUSH1 0x20 DUP3 DUP5 SUB SLT ISZERO PUSH2 0x18D5 JUMPI PUSH2 0x18D4 PUSH2 0xC6B JUMP JUMPDEST JUMPDEST PUSH0 PUSH2 0x18E2 DUP5 DUP3 DUP6 ADD PUSH2 0x18AC JUMP JUMPDEST SWAP2 POP POP SWAP3 SWAP2 POP POP JUMP JUMPDEST PUSH0 PUSH8 0xFFFFFFFFFFFFFFFF DUP3 GT ISZERO PUSH2 0x1905 JUMPI PUSH2 0x1904 PUSH2 0xC8B JUMP JUMPDEST JUMPDEST PUSH1 0x20 DUP3 MUL SWAP1 POP PUSH1 0x20 DUP2 ADD SWAP1 POP SWAP2 SWAP1 POP JUMP JUMPDEST PUSH0 PUSH0 REVERT JUMPDEST PUSH0 PUSH2 0x192C PUSH2 0x1927 DUP5 PUSH2 0xD03 JUMP JUMPDEST PUSH2 0xCE9 JUMP JUMPDEST SWAP1 POP DUP3 DUP2 MSTORE PUSH1 0x20 DUP2 ADD DUP5 DUP5 DUP5 ADD GT ISZERO PUSH2 0x1948 JUMPI PUSH2 0x1947 PUSH2 0xC77 JUMP JUMPDEST JUMPDEST PUSH2 0x1953 DUP5 DUP3 DUP6 PUSH2 0xEE8 JUMP JUMPDEST POP SWAP4 SWAP3 POP POP POP JUMP JUMPDEST PUSH0 DUP3 PUSH1 0x1F DUP4 ADD SLT PUSH2 0x196F JUMPI PUSH2 0x196E PUSH2 0xC73 JUMP JUMPDEST JUMPDEST DUP2 MLOAD PUSH2 0x197F DUP5 DUP3 PUSH1 0x20 DUP7 ADD PUSH2 0x191A JUMP JUMPDEST SWAP2 POP POP SWAP3 SWAP2 POP POP JUMP JUMPDEST PUSH0 DUP2 MLOAD SWAP1 POP PUSH2 0x1996 DUP2 PUSH2 0xDC2 JUMP JUMPDEST SWAP3 SWAP2 POP POP JUMP JUMPDEST PUSH0 DUP2 MLOAD SWAP1 POP PUSH2 0x19AA DUP2 PUSH2 0x1366 JUMP JUMPDEST SWAP3 SWAP2 POP POP JUMP JUMPDEST PUSH0 PUSH2 0x220 DUP3 DUP5 SUB SLT ISZERO PUSH2 0x19C6 JUMPI PUSH2 0x19C5 PUSH2 0x1334 JUMP JUMPDEST JUMPDEST PUSH2 0x19D1 PUSH2 0x220 PUSH2 0xCE9 JUMP JUMPDEST SWAP1 POP PUSH0 PUSH2 0x19E0 DUP5 DUP3 DUP6 ADD PUSH2 0x1988 JUMP JUMPDEST PUSH0 DUP4 ADD MSTORE POP PUSH1 0x20 PUSH2 0x19F3 DUP5 DUP3 DUP6 ADD PUSH2 0x1988 JUMP JUMPDEST PUSH1 0x20 DUP4 ADD MSTORE POP PUSH1 0x40 DUP3 ADD MLOAD PUSH8 0xFFFFFFFFFFFFFFFF DUP2 GT ISZERO PUSH2 0x1A17 JUMPI PUSH2 0x1A16 PUSH2 0x1338 JUMP JUMPDEST JUMPDEST PUSH2 0x1A23 DUP5 DUP3 DUP6 ADD PUSH2 0x195B JUMP JUMPDEST PUSH1 0x40 DUP4 ADD MSTORE POP PUSH1 0x60 DUP3 ADD MLOAD PUSH8 0xFFFFFFFFFFFFFFFF DUP2 GT ISZERO PUSH2 0x1A47 JUMPI PUSH2 0x1A46 PUSH2 0x1338 JUMP JUMPDEST JUMPDEST PUSH2 0x1A53 DUP5 DUP3 DUP6 ADD PUSH2 0x195B JUMP JUMPDEST PUSH1 0x60 DUP4 ADD MSTORE POP PUSH1 0x80 PUSH2 0x1A67 DUP5 DUP3 DUP6 ADD PUSH2 0x18AC JUMP JUMPDEST PUSH1 0x80 DUP4 ADD MSTORE POP PUSH1 0xA0 PUSH2 0x1A7B DUP5 DUP3 DUP6 ADD PUSH2 0x18AC JUMP JUMPDEST PUSH1 0xA0 DUP4 ADD MSTORE POP PUSH1 0xC0 DUP3 ADD MLOAD PUSH8 0xFFFFFFFFFFFFFFFF DUP2 GT ISZERO PUSH2 0x1A9F JUMPI PUSH2 0x1A9E PUSH2 0x1338 JUMP JUMPDEST JUMPDEST PUSH2 0x1AAB DUP5 DUP3 DUP6 ADD PUSH2 0x195B JUMP JUMPDEST PUSH1 0xC0 DUP4 ADD MSTORE POP PUSH1 0xE0 DUP3 ADD MLOAD PUSH8 0xFFFFFFFFFFFFFFFF DUP2 GT ISZERO PUSH2 0x1ACF JUMPI PUSH2 0x1ACE PUSH2 0x1338 JUMP JUMPDEST JUMPDEST PUSH2 0x1ADB DUP5 DUP3 DUP6 ADD PUSH2 0x195B JUMP JUMPDEST PUSH1 0xE0 DUP4 ADD MSTORE POP PUSH2 0x100 DUP3 ADD MLOAD PUSH8 0xFFFFFFFFFFFFFFFF DUP2 GT ISZERO PUSH2 0x1B00 JUMPI PUSH2 0x1AFF PUSH2 0x1338 JUMP JUMPDEST JUMPDEST PUSH2 0x1B0C DUP5 DUP3 DUP6 ADD PUSH2 0x195B JUMP JUMPDEST PUSH2 0x100 DUP4 ADD MSTORE POP PUSH2 0x120 DUP3 ADD MLOAD PUSH8 0xFFFFFFFFFFFFFFFF DUP2 GT ISZERO PUSH2 0x1B32 JUMPI PUSH2 0x1B31 PUSH2 0x1338 JUMP JUMPDEST JUMPDEST PUSH2 0x1B3E DUP5 DUP3 DUP6 ADD PUSH2 0x195B JUMP JUMPDEST PUSH2 0x120 DUP4 ADD MSTORE POP PUSH2 0x140 DUP3 ADD MLOAD PUSH8 0xFFFFFFFFFFFFFFFF DUP2 GT ISZERO PUSH2 0x1B64 JUMPI PUSH2 0x1B63 PUSH2 0x1338 JUMP JUMPDEST JUMPDEST PUSH2 0x1B70 DUP5 DUP3 DUP6 ADD PUSH2 0x195B JUMP JUMPDEST PUSH2 0x140 DUP4 ADD MSTORE POP PUSH2 0x160 PUSH2 0x1B86 DUP5 DUP3 DUP6 ADD PUSH2 0x18AC JUMP JUMPDEST PUSH2 0x160 DUP4 ADD MSTORE POP PUSH2 0x180 PUSH2 0x1B9C DUP5 DUP3 DUP6 ADD PUSH2 0x199C JUMP JUMPDEST PUSH2 0x180 DUP4 ADD MSTORE POP PUSH2 0x1A0 DUP3 ADD MLOAD PUSH8 0xFFFFFFFFFFFFFFFF DUP2 GT ISZERO PUSH2 0x1BC2 JUMPI PUSH2 0x1BC1 PUSH2 0x1338 JUMP JUMPDEST JUMPDEST PUSH2 0x1BCE DUP5 DUP3 DUP6 ADD PUSH2 0x195B JUMP JUMPDEST PUSH2 0x1A0 DUP4 ADD MSTORE POP PUSH2 0x1C0 DUP3 ADD MLOAD PUSH8 0xFFFFFFFFFFFFFFFF DUP2 GT ISZERO PUSH2 0x1BF4 JUMPI PUSH2 0x1BF3 PUSH2 0x1338 JUMP JUMPDEST JUMPDEST PUSH2 0x1C00 DUP5 DUP3 DUP6 ADD PUSH2 0x195B JUMP JUMPDEST PUSH2 0x1C0 DUP4 ADD MSTORE POP PUSH2 0x1E0 DUP3 ADD MLOAD PUSH8 0xFFFFFFFFFFFFFFFF DUP2 GT ISZERO PUSH2 0x1C26 JUMPI PUSH2 0x1C25 PUSH2 0x1338 JUMP JUMPDEST JUMPDEST PUSH2 0x1C32 DUP5 DUP3 DUP6 ADD PUSH2 0x195B JUMP JUMPDEST PUSH2 0x1E0 DUP4 ADD MSTORE POP PUSH2 0x200 DUP3 ADD MLOAD PUSH8 0xFFFFFFFFFFFFFFFF DUP2 GT ISZERO PUSH2 0x1C58 JUMPI PUSH2 0x1C57 PUSH2 0x1338 JUMP JUMPDEST JUMPDEST PUSH2 0x1C64 DUP5 DUP3 DUP6 ADD PUSH2 0x195B JUMP JUMPDEST PUSH2 0x200 DUP4 ADD MSTORE POP SWAP3 SWAP2 POP POP JUMP JUMPDEST PUSH0 PUSH1 0x80 DUP3 DUP5 SUB SLT ISZERO PUSH2 0x1C86 JUMPI PUSH2 0x1C85 PUSH2 0x1334 JUMP JUMPDEST JUMPDEST PUSH2 0x1C90 PUSH1 0x80 PUSH2 0xCE9 JUMP JUMPDEST SWAP1 POP PUSH0 DUP3 ADD MLOAD PUSH8 0xFFFFFFFFFFFFFFFF DUP2 GT ISZERO PUSH2 0x1CAF JUMPI PUSH2 0x1CAE PUSH2 0x1338 JUMP JUMPDEST JUMPDEST PUSH2 0x1CBB DUP5 DUP3 DUP6 ADD PUSH2 0x195B JUMP JUMPDEST PUSH0 DUP4 ADD MSTORE POP PUSH1 0x20 PUSH2 0x1CCE DUP5 DUP3 DUP6 ADD PUSH2 0x18AC JUMP JUMPDEST PUSH1 0x20 DUP4 ADD MSTORE POP PUSH1 0x40 DUP3 ADD MLOAD PUSH8 0xFFFFFFFFFFFFFFFF DUP2 GT ISZERO PUSH2 0x1CF2 JUMPI PUSH2 0x1CF1 PUSH2 0x1338 JUMP JUMPDEST JUMPDEST PUSH2 0x1CFE DUP5 DUP3 DUP6 ADD PUSH2 0x195B JUMP JUMPDEST PUSH1 0x40 DUP4 ADD MSTORE POP PUSH1 0x60 DUP3 ADD MLOAD PUSH8 0xFFFFFFFFFFFFFFFF DUP2 GT ISZERO PUSH2 0x1D22 JUMPI PUSH2 0x1D21 PUSH2 0x1338 JUMP JUMPDEST JUMPDEST PUSH2 0x1D2E DUP5 DUP3 DUP6 ADD PUSH2 0x19B0 JUMP JUMPDEST PUSH1 0x60 DUP4 ADD MSTORE POP SWAP3 SWAP2 POP POP JUMP JUMPDEST PUSH0 PUSH2 0x1D4C PUSH2 0x1D47 DUP5 PUSH2 0x18EB JUMP JUMPDEST PUSH2 0xCE9 JUMP JUMPDEST SWAP1 POP DUP1 DUP4 DUP3 MSTORE PUSH1 0x20 DUP3 ADD SWAP1 POP PUSH1 0x20 DUP5 MUL DUP4 ADD DUP6 DUP2 GT ISZERO PUSH2 0x1D6F JUMPI PUSH2 0x1D6E PUSH2 0x1916 JUMP JUMPDEST JUMPDEST DUP4 JUMPDEST DUP2 DUP2 LT ISZERO PUSH2 0x1DB6 JUMPI DUP1 MLOAD PUSH8 0xFFFFFFFFFFFFFFFF DUP2 GT ISZERO PUSH2 0x1D94 JUMPI PUSH2 0x1D93 PUSH2 0xC73 JUMP JUMPDEST JUMPDEST DUP1 DUP7 ADD PUSH2 0x1DA1 DUP10 DUP3 PUSH2 0x1C71 JUMP JUMPDEST DUP6 MSTORE PUSH1 0x20 DUP6 ADD SWAP5 POP POP POP PUSH1 0x20 DUP2 ADD SWAP1 POP PUSH2 0x1D71 JUMP JUMPDEST POP POP POP SWAP4 SWAP3 POP POP POP JUMP JUMPDEST PUSH0 DUP3 PUSH1 0x1F DUP4 ADD SLT PUSH2 0x1DD4 JUMPI PUSH2 0x1DD3 PUSH2 0xC73 JUMP JUMPDEST JUMPDEST DUP2 MLOAD PUSH2 0x1DE4 DUP5 DUP3 PUSH1 0x20 DUP7 ADD PUSH2 0x1D3A JUMP JUMPDEST SWAP2 POP POP SWAP3 SWAP2 POP POP JUMP JUMPDEST PUSH0 PUSH1 0x20 DUP3 DUP5 SUB SLT ISZERO PUSH2 0x1E02 JUMPI PUSH2 0x1E01 PUSH2 0xC6B JUMP JUMPDEST JUMPDEST PUSH0 DUP3 ADD MLOAD PUSH8 0xFFFFFFFFFFFFFFFF DUP2 GT ISZERO PUSH2 0x1E1F JUMPI PUSH2 0x1E1E PUSH2 0xC6F JUMP JUMPDEST JUMPDEST PUSH2 0x1E2B DUP5 DUP3 DUP6 ADD PUSH2 0x1DC0 JUMP JUMPDEST SWAP2 POP POP SWAP3 SWAP2 POP POP JUMP JUMPDEST PUSH0 PUSH2 0x1E3E DUP3 PUSH2 0xECE JUMP JUMPDEST PUSH2 0x1E48 DUP2 DUP6 PUSH2 0x1834 JUMP JUMPDEST SWAP4 POP PUSH2 0x1E58 DUP2 DUP6 PUSH1 0x20 DUP7 ADD PUSH2 0xEE8 JUMP JUMPDEST PUSH2 0x1E61 DUP2 PUSH2 0xC7B JUMP JUMPDEST DUP5 ADD SWAP2 POP POP SWAP3 SWAP2 POP POP JUMP JUMPDEST PUSH0 PUSH1 0x80 DUP3 ADD SWAP1 POP DUP2 DUP2 SUB PUSH0 DUP4 ADD MSTORE PUSH2 0x1E84 DUP2 DUP8 PUSH2 0x1E34 JUMP JUMPDEST SWAP1 POP DUP2 DUP2 SUB PUSH1 0x20 DUP4 ADD MSTORE PUSH2 0x1E98 DUP2 DUP7 PUSH2 0x1E34 JUMP JUMPDEST SWAP1 POP PUSH2 0x1EA7 PUSH1 0x40 DUP4 ADD DUP6 PUSH2 0x16E9 JUMP JUMPDEST PUSH2 0x1EB4 PUSH1 0x60 DUP4 ADD DUP5 PUSH2 0x130C JUMP JUMPDEST SWAP6 SWAP5 POP POP POP POP POP JUMP JUMPDEST PUSH0 PUSH2 0x220 DUP4 ADD PUSH0 DUP4 ADD MLOAD PUSH2 0x1ED3 PUSH0 DUP7 ADD DUP3 PUSH2 0xF3D JUMP JUMPDEST POP PUSH1 0x20 DUP4 ADD MLOAD PUSH2 0x1EE6 PUSH1 0x20 DUP7 ADD DUP3 PUSH2 0xF3D JUMP JUMPDEST POP PUSH1 0x40 DUP4 ADD MLOAD DUP5 DUP3 SUB PUSH1 0x40 DUP7 ADD MSTORE PUSH2 0x1EFE DUP3 DUP3 PUSH2 0xEF6 JUMP JUMPDEST SWAP2 POP POP PUSH1 0x60 DUP4 ADD MLOAD DUP5 DUP3 SUB PUSH1 0x60 DUP7 ADD MSTORE PUSH2 0x1F18 DUP3 DUP3 PUSH2 0xEF6 JUMP JUMPDEST SWAP2 POP POP PUSH1 0x80 DUP4 ADD MLOAD PUSH2 0x1F2D PUSH1 0x80 DUP7 ADD DUP3 PUSH2 0xF2E JUMP JUMPDEST POP PUSH1 0xA0 DUP4 ADD MLOAD PUSH2 0x1F40 PUSH1 0xA0 DUP7 ADD DUP3 PUSH2 0xF2E JUMP JUMPDEST POP PUSH1 0xC0 DUP4 ADD MLOAD DUP5 DUP3 SUB PUSH1 0xC0 DUP7 ADD MSTORE PUSH2 0x1F58 DUP3 DUP3 PUSH2 0xEF6 JUMP JUMPDEST SWAP2 POP POP PUSH1 0xE0 DUP4 ADD MLOAD DUP5 DUP3 SUB PUSH1 0xE0 DUP7 ADD MSTORE PUSH2 0x1F72 DUP3 DUP3 PUSH2 0xEF6 JUMP JUMPDEST SWAP2 POP POP PUSH2 0x100 DUP4 ADD MLOAD DUP5 DUP3 SUB PUSH2 0x100 DUP7 ADD MSTORE PUSH2 0x1F8E DUP3 DUP3 PUSH2 0xEF6 JUMP JUMPDEST SWAP2 POP POP PUSH2 0x120 DUP4 ADD MLOAD DUP5 DUP3 SUB PUSH2 0x120 DUP7 ADD MSTORE PUSH2 0x1FAA DUP3 DUP3 PUSH2 0xEF6 JUMP JUMPDEST SWAP2 POP POP PUSH2 0x140 DUP4 ADD MLOAD DUP5 DUP3 SUB PUSH2 0x140 DUP7 ADD MSTORE PUSH2 0x1FC6 DUP3 DUP3 PUSH2 0xEF6 JUMP JUMPDEST SWAP2 POP POP PUSH2 0x160 DUP4 ADD MLOAD PUSH2 0x1FDD PUSH2 0x160 DUP7 ADD DUP3 PUSH2 0xF2E JUMP JUMPDEST POP PUSH2 0x180 DUP4 ADD MLOAD PUSH2 0x1FF2 PUSH2 0x180 DUP7 ADD DUP3 PUSH2 0xF57 JUMP JUMPDEST POP PUSH2 0x1A0 DUP4 ADD MLOAD DUP5 DUP3 SUB PUSH2 0x1A0 DUP7 ADD MSTORE PUSH2 0x200C DUP3 DUP3 PUSH2 0xEF6 JUMP JUMPDEST SWAP2 POP POP PUSH2 0x1C0 DUP4 ADD MLOAD DUP5 DUP3 SUB PUSH2 0x1C0 DUP7 ADD MSTORE PUSH2 0x2028 DUP3 DUP3 PUSH2 0xEF6 JUMP JUMPDEST SWAP2 POP POP PUSH2 0x1E0 DUP4 ADD MLOAD DUP5 DUP3 SUB PUSH2 0x1E0 DUP7 ADD MSTORE PUSH2 0x2044 DUP3 DUP3 PUSH2 0xEF6 JUMP JUMPDEST SWAP2 POP POP PUSH2 0x200 DUP4 ADD MLOAD DUP5 DUP3 SUB PUSH2 0x200 DUP7 ADD MSTORE PUSH2 0x2060 DUP3 DUP3 PUSH2 0xEF6 JUMP JUMPDEST SWAP2 POP POP DUP1 SWAP2 POP POP SWAP3 SWAP2 POP POP JUMP JUMPDEST PUSH0 PUSH1 0x20 DUP3 ADD SWAP1 POP DUP2 DUP2 SUB PUSH0 DUP4 ADD MSTORE PUSH2 0x2085 DUP2 DUP5 PUSH2 0x1EBD JUMP JUMPDEST SWAP1 POP SWAP3 SWAP2 POP POP JUMP JUMPDEST PUSH0 DUP2 SWAP1 POP SWAP2 SWAP1 POP JUMP JUMPDEST PUSH0 PUSH2 0x20B0 PUSH2 0x20AB PUSH2 0x20A6 DUP5 PUSH2 0xDAF JUMP JUMPDEST PUSH2 0x208D JUMP JUMPDEST PUSH2 0xE74 JUMP JUMPDEST SWAP1 POP SWAP2 SWAP1 POP JUMP JUMPDEST PUSH2 0x20C0 DUP2 PUSH2 0x2096 JUMP JUMPDEST DUP3 MSTORE POP POP JUMP JUMPDEST PUSH2 0x20CF DUP2 PUSH2 0xF4C JUMP JUMPDEST DUP3 MSTORE POP POP JUMP JUMPDEST PUSH0 PUSH1 0x60 DUP3 ADD SWAP1 POP PUSH2 0x20E8 PUSH0 DUP4 ADD DUP7 PUSH2 0x16E9 JUMP JUMPDEST PUSH2 0x20F5 PUSH1 0x20 DUP4 ADD DUP6 PUSH2 0x20B7 JUMP JUMPDEST PUSH2 0x2102 PUSH1 0x40 DUP4 ADD DUP5 PUSH2 0x20C6 JUMP JUMPDEST SWAP5 SWAP4 POP POP POP POP JUMP JUMPDEST PUSH32 0x4E487B7100000000000000000000000000000000000000000000000000000000 PUSH0 MSTORE PUSH1 0x12 PUSH1 0x4 MSTORE PUSH1 0x24 PUSH0 REVERT JUMPDEST PUSH32 0x4E487B7100000000000000000000000000000000000000000000000000000000 PUSH0 MSTORE PUSH1 0x11 PUSH1 0x4 MSTORE PUSH1 0x24 PUSH0 REVERT JUMPDEST PUSH0 PUSH2 0x216E DUP3 PUSH2 0xDAF JUMP JUMPDEST SWAP2 POP PUSH2 0x2179 DUP4 PUSH2 0xDAF JUMP JUMPDEST SWAP3 POP DUP3 PUSH2 0x2189 JUMPI PUSH2 0x2188 PUSH2 0x210A JUMP JUMPDEST JUMPDEST DUP3 DUP3 DIV SWAP1 POP SWAP3 SWAP2 POP POP JUMP JUMPDEST PUSH0 PUSH2 0x219E DUP3 PUSH2 0xDAF JUMP JUMPDEST SWAP2 POP PUSH2 0x21A9 DUP4 PUSH2 0xDAF JUMP JUMPDEST SWAP3 POP DUP3 DUP3 MUL PUSH2 0x21B7 DUP2 PUSH2 0xDAF JUMP JUMPDEST SWAP2 POP DUP1 DUP3 EQ PUSH2 0x21C9 JUMPI PUSH2 0x21C8 PUSH2 0x2137 JUMP JUMPDEST JUMPDEST POP SWAP3 SWAP2 POP POP JUMP JUMPDEST PUSH32 0x496E76616C696420696E74657276616C20737472696E67000000000000000000 PUSH0 DUP3 ADD MSTORE POP JUMP JUMPDEST PUSH0 PUSH2 0x2204 PUSH1 0x17 DUP4 PUSH2 0x1834 JUMP JUMPDEST SWAP2 POP PUSH2 0x220F DUP3 PUSH2 0x21D0 JUMP JUMPDEST PUSH1 0x20 DUP3 ADD SWAP1 POP SWAP2 SWAP1 POP JUMP JUMPDEST PUSH0 PUSH1 0x20 DUP3 ADD SWAP1 POP DUP2 DUP2 SUB PUSH0 DUP4 ADD MSTORE PUSH2 0x2231 DUP2 PUSH2 0x21F8 JUMP JUMPDEST SWAP1 POP SWAP2 SWAP1 POP JUMP JUMPDEST PUSH0 PUSH1 0x40 DUP3 ADD SWAP1 POP DUP2 DUP2 SUB PUSH0 DUP4 ADD MSTORE PUSH2 0x2250 DUP2 DUP6 PUSH2 0x1E34 JUMP JUMPDEST SWAP1 POP PUSH2 0x225F PUSH1 0x20 DUP4 ADD DUP5 PUSH2 0xE7D JUMP JUMPDEST SWAP4 SWAP3 POP POP POP JUMP JUMPDEST PUSH32 0x4E487B7100000000000000000000000000000000000000000000000000000000 PUSH0 MSTORE PUSH1 0x51 PUSH1 0x4 MSTORE PUSH1 0x24 PUSH0 REVERT INVALID PUSH1 0x80 PUSH1 0x40 MSTORE CALLVALUE DUP1 ISZERO PUSH1 0xE JUMPI PUSH0 PUSH0 REVERT JUMPDEST POP CALLER PUSH1 0x1 PUSH0 PUSH2 0x100 EXP DUP2 SLOAD DUP2 PUSH20 0xFFFFFFFFFFFFFFFFFFFFFFFFFFFFFFFFFFFFFFFF MUL NOT AND SWAP1 DUP4 PUSH20 0xFFFFFFFFFFFFFFFFFFFFFFFFFFFFFFFFFFFFFFFF AND MUL OR SWAP1 SSTORE POP PUSH2 0x1A3C DUP1 PUSH2 0x5C PUSH0 CODECOPY PUSH0 RETURN INVALID PUSH1 0x80 PUSH1 0x40 MSTORE CALLVALUE DUP1 ISZERO PUSH2 0xF JUMPI PUSH0 PUSH0 REVERT JUMPDEST POP PUSH1 0x4 CALLDATASIZE LT PUSH2 0x4A JUMPI PUSH0 CALLDATALOAD PUSH1 0xE0 SHR DUP1 PUSH4 0x48CBAD6E EQ PUSH2 0x4E JUMPI DUP1 PUSH4 0xBE1C766B EQ PUSH2 0x6C JUMPI DUP1 PUSH4 0xC45A0155 EQ PUSH2 0x8A JUMPI DUP1 PUSH4 0xE2A77A4C EQ PUSH2 0xA8 JUMPI JUMPDEST PUSH0 PUSH0 REVERT JUMPDEST PUSH2 0x56 PUSH2 0xC4 JUMP JUMPDEST PUSH1 0x40 MLOAD PUSH2 0x63 SWAP2 SWAP1 PUSH2 0x1024 JUMP JUMPDEST PUSH1 0x40 MLOAD DUP1 SWAP2 SUB SWAP1 RETURN JUMPDEST PUSH2 0x74 PUSH2 0x926 JUMP JUMPDEST PUSH1 0x40 MLOAD PUSH2 0x81 SWAP2 SWAP1 PUSH2 0x1053 JUMP JUMPDEST PUSH1 0x40 MLOAD DUP1 SWAP2 SUB SWAP1 RETURN JUMPDEST PUSH2 0x92 PUSH2 0x931 JUMP JUMPDEST PUSH1 0x40 MLOAD PUSH2 0x9F SWAP2 SWAP1 PUSH2 0x10AB JUMP JUMPDEST PUSH1 0x40 MLOAD DUP1 SWAP2 SUB SWAP1 RETURN JUMPDEST PUSH2 0xC2 PUSH1 0x4 DUP1 CALLDATASIZE SUB DUP2 ADD SWAP1 PUSH2 0xBD SWAP2 SWAP1 PUSH2 0x10F8 JUMP JUMPDEST PUSH2 0x956 JUMP JUMPDEST STOP JUMPDEST PUSH1 0x60 PUSH0 DUP1 SLOAD DUP1 PUSH1 0x20 MUL PUSH1 0x20 ADD PUSH1 0x40 MLOAD SWAP1 DUP2 ADD PUSH1 0x40 MSTORE DUP1 SWAP3 SWAP2 SWAP1 DUP2 DUP2 MSTORE PUSH1 0x20 ADD PUSH0 SWAP1 JUMPDEST DUP3 DUP3 LT ISZERO PUSH2 0x91D JUMPI DUP4 DUP3 SWAP1 PUSH0 MSTORE PUSH1 0x20 PUSH0 KECCAK256 SWAP1 PUSH1 0x13 MUL ADD PUSH1 0x40 MLOAD DUP1 PUSH1 0x80 ADD PUSH1 0x40 MSTORE SWAP1 DUP2 PUSH0 DUP3 ADD DUP1 SLOAD PUSH2 0x116 SWAP1 PUSH2 0x116C JUMP JUMPDEST DUP1 PUSH1 0x1F ADD PUSH1 0x20 DUP1 SWAP2 DIV MUL PUSH1 0x20 ADD PUSH1 0x40 MLOAD SWAP1 DUP2 ADD PUSH1 0x40 MSTORE DUP1 SWAP3 SWAP2 SWAP1 DUP2 DUP2 MSTORE PUSH1 0x20 ADD DUP3 DUP1 SLOAD PUSH2 0x142 SWAP1 PUSH2 0x116C JUMP JUMPDEST DUP1 ISZERO PUSH2 0x18D JUMPI DUP1 PUSH1 0x1F LT PUSH2 0x164 JUMPI PUSH2 0x100 DUP1 DUP4 SLOAD DIV MUL DUP4 MSTORE SWAP2 PUSH1 0x20 ADD SWAP2 PUSH2 0x18D JUMP JUMPDEST DUP3 ADD SWAP2 SWAP1 PUSH0 MSTORE PUSH1 0x20 PUSH0 KECCAK256 SWAP1 JUMPDEST DUP2 SLOAD DUP2 MSTORE SWAP1 PUSH1 0x1 ADD SWAP1 PUSH1 0x20 ADD DUP1 DUP4 GT PUSH2 0x170 JUMPI DUP3 SWAP1 SUB PUSH1 0x1F AND DUP3 ADD SWAP2 JUMPDEST POP POP POP POP POP DUP2 MSTORE PUSH1 0x20 ADD PUSH1 0x1 DUP3 ADD SLOAD DUP2 MSTORE PUSH1 0x20 ADD PUSH1 0x2 DUP3 ADD DUP1 SLOAD PUSH2 0x1B0 SWAP1 PUSH2 0x116C JUMP JUMPDEST DUP1 PUSH1 0x1F ADD PUSH1 0x20 DUP1 SWAP2 DIV MUL PUSH1 0x20 ADD PUSH1 0x40 MLOAD SWAP1 DUP2 ADD PUSH1 0x40 MSTORE DUP1 SWAP3 SWAP2 SWAP1 DUP2 DUP2 MSTORE PUSH1 0x20 ADD DUP3 DUP1 SLOAD PUSH2 0x1DC SWAP1 PUSH2 0x116C JUMP JUMPDEST DUP1 ISZERO PUSH2 0x227 JUMPI DUP1 PUSH1 0x1F LT PUSH2 0x1FE JUMPI PUSH2 0x100 DUP1 DUP4 SLOAD DIV MUL DUP4 MSTORE SWAP2 PUSH1 0x20 ADD SWAP2 PUSH2 0x227 JUMP JUMPDEST DUP3 ADD SWAP2 SWAP1 PUSH0 MSTORE PUSH1 0x20 PUSH0 KECCAK256 SWAP1 JUMPDEST DUP2 SLOAD DUP2 MSTORE SWAP1 PUSH1 0x1 ADD SWAP1 PUSH1 0x20 ADD DUP1 DUP4 GT PUSH2 0x20A JUMPI DUP3 SWAP1 SUB PUSH1 0x1F AND DUP3 ADD SWAP2 JUMPDEST POP POP POP POP POP DUP2 MSTORE PUSH1 0x20 ADD PUSH1 0x3 DUP3 ADD PUSH1 0x40 MLOAD DUP1 PUSH2 0x220 ADD PUSH1 0x40 MSTORE SWAP1 DUP2 PUSH0 DUP3 ADD PUSH0 SWAP1 SLOAD SWAP1 PUSH2 0x100 EXP SWAP1 DIV PUSH8 0xFFFFFFFFFFFFFFFF AND PUSH8 0xFFFFFFFFFFFFFFFF AND PUSH8 0xFFFFFFFFFFFFFFFF AND DUP2 MSTORE PUSH1 0x20 ADD PUSH0 DUP3 ADD PUSH1 0x8 SWAP1 SLOAD SWAP1 PUSH2 0x100 EXP SWAP1 DIV PUSH8 0xFFFFFFFFFFFFFFFF AND PUSH8 0xFFFFFFFFFFFFFFFF AND PUSH8 0xFFFFFFFFFFFFFFFF AND DUP2 MSTORE PUSH1 0x20 ADD PUSH1 0x1 DUP3 ADD DUP1 SLOAD PUSH2 0x2B2 SWAP1 PUSH2 0x116C JUMP JUMPDEST DUP1 PUSH1 0x1F ADD PUSH1 0x20 DUP1 SWAP2 DIV MUL PUSH1 0x20 ADD PUSH1 0x40 MLOAD SWAP1 DUP2 ADD PUSH1 0x40 MSTORE DUP1 SWAP3 SWAP2 SWAP1 DUP2 DUP2 MSTORE PUSH1 0x20 ADD DUP3 DUP1 SLOAD PUSH2 0x2DE SWAP1 PUSH2 0x116C JUMP JUMPDEST DUP1 ISZERO PUSH2 0x329 JUMPI DUP1 PUSH1 0x1F LT PUSH2 0x300 JUMPI PUSH2 0x100 DUP1 DUP4 SLOAD DIV MUL DUP4 MSTORE SWAP2 PUSH1 0x20 ADD SWAP2 PUSH2 0x329 JUMP JUMPDEST DUP3 ADD SWAP2 SWAP1 PUSH0 MSTORE PUSH1 0x20 PUSH0 KECCAK256 SWAP1 JUMPDEST DUP2 SLOAD DUP2 MSTORE SWAP1 PUSH1 0x1 ADD SWAP1 PUSH1 0x20 ADD DUP1 DUP4 GT PUSH2 0x30C JUMPI DUP3 SWAP1 SUB PUSH1 0x1F AND DUP3 ADD SWAP2 JUMPDEST POP POP POP POP POP DUP2 MSTORE PUSH1 0x20 ADD PUSH1 0x2 DUP3 ADD DUP1 SLOAD PUSH2 0x342 SWAP1 PUSH2 0x116C JUMP JUMPDEST DUP1 PUSH1 0x1F ADD PUSH1 0x20 DUP1 SWAP2 DIV MUL PUSH1 0x20 ADD PUSH1 0x40 MLOAD SWAP1 DUP2 ADD PUSH1 0x40 MSTORE DUP1 SWAP3 SWAP2 SWAP1 DUP2 DUP2 MSTORE PUSH1 0x20 ADD DUP3 DUP1 SLOAD PUSH2 0x36E SWAP1 PUSH2 0x116C JUMP JUMPDEST DUP1 ISZERO PUSH2 0x3B9 JUMPI DUP1 PUSH1 0x1F LT PUSH2 0x390 JUMPI PUSH2 0x100 DUP1 DUP4 SLOAD DIV MUL DUP4 MSTORE SWAP2 PUSH1 0x20 ADD SWAP2 PUSH2 0x3B9 JUMP JUMPDEST DUP3 ADD SWAP2 SWAP1 PUSH0 MSTORE PUSH1 0x20 PUSH0 KECCAK256 SWAP1 JUMPDEST DUP2 SLOAD DUP2 MSTORE SWAP1 PUSH1 0x1 ADD SWAP1 PUSH1 0x20 ADD DUP1 DUP4 GT PUSH2 0x39C JUMPI DUP3 SWAP1 SUB PUSH1 0x1F AND DUP3 ADD SWAP2 JUMPDEST POP POP POP POP POP DUP2 MSTORE PUSH1 0x20 ADD PUSH1 0x3 DUP3 ADD SLOAD DUP2 MSTORE PUSH1 0x20 ADD PUSH1 0x4 DUP3 ADD SLOAD DUP2 MSTORE PUSH1 0x20 ADD PUSH1 0x5 DUP3 ADD DUP1 SLOAD PUSH2 0x3E6 SWAP1 PUSH2 0x116C JUMP JUMPDEST DUP1 PUSH1 0x1F ADD PUSH1 0x20 DUP1 SWAP2 DIV MUL PUSH1 0x20 ADD PUSH1 0x40 MLOAD SWAP1 DUP2 ADD PUSH1 0x40 MSTORE DUP1 SWAP3 SWAP2 SWAP1 DUP2 DUP2 MSTORE PUSH1 0x20 ADD DUP3 DUP1 SLOAD PUSH2 0x412 SWAP1 PUSH2 0x116C JUMP JUMPDEST DUP1 ISZERO PUSH2 0x45D JUMPI DUP1 PUSH1 0x1F LT PUSH2 0x434 JUMPI PUSH2 0x100 DUP1 DUP4 SLOAD DIV MUL DUP4 MSTORE SWAP2 PUSH1 0x20 ADD SWAP2 PUSH2 0x45D JUMP JUMPDEST DUP3 ADD SWAP2 SWAP1 PUSH0 MSTORE PUSH1 0x20 PUSH0 KECCAK256 SWAP1 JUMPDEST DUP2 SLOAD DUP2 MSTORE SWAP1 PUSH1 0x1 ADD SWAP1 PUSH1 0x20 ADD DUP1 DUP4 GT PUSH2 0x440 JUMPI DUP3 SWAP1 SUB PUSH1 0x1F AND DUP3 ADD SWAP2 JUMPDEST POP POP POP POP POP DUP2 MSTORE PUSH1 0x20 ADD PUSH1 0x6 DUP3 ADD DUP1 SLOAD PUSH2 0x476 SWAP1 PUSH2 0x116C JUMP JUMPDEST DUP1 PUSH1 0x1F ADD PUSH1 0x20 DUP1 SWAP2 DIV MUL PUSH1 0x20 ADD PUSH1 0x40 MLOAD SWAP1 DUP2 ADD PUSH1 0x40 MSTORE DUP1 SWAP3 SWAP2 SWAP1 DUP2 DUP2 MSTORE PUSH1 0x20 ADD DUP3 DUP1 SLOAD PUSH2 0x4A2 SWAP1 PUSH2 0x116C JUMP JUMPDEST DUP1 ISZERO PUSH2 0x4ED JUMPI DUP1 PUSH1 0x1F LT PUSH2 0x4C4 JUMPI PUSH2 0x100 DUP1 DUP4 SLOAD DIV MUL DUP4 MSTORE SWAP2 PUSH1 0x20 ADD SWAP2 PUSH2 0x4ED JUMP JUMPDEST DUP3 ADD SWAP2 SWAP1 PUSH0 MSTORE PUSH1 0x20 PUSH0 KECCAK256 SWAP1 JUMPDEST DUP2 SLOAD DUP2 MSTORE SWAP1 PUSH1 0x1 ADD SWAP1 PUSH1 0x20 ADD DUP1 DUP4 GT PUSH2 0x4D0 JUMPI DUP3 SWAP1 SUB PUSH1 0x1F AND DUP3 ADD SWAP2 JUMPDEST POP POP POP POP POP DUP2 MSTORE PUSH1 0x20 ADD PUSH1 0x7 DUP3 ADD DUP1 SLOAD PUSH2 0x506 SWAP1 PUSH2 0x116C JUMP JUMPDEST DUP1 PUSH1 0x1F ADD PUSH1 0x20 DUP1 SWAP2 DIV MUL PUSH1 0x20 ADD PUSH1 0x40 MLOAD SWAP1 DUP2 ADD PUSH1 0x40 MSTORE DUP1 SWAP3 SWAP2 SWAP1 DUP2 DUP2 MSTORE PUSH1 0x20 ADD DUP3 DUP1 SLOAD PUSH2 0x532 SWAP1 PUSH2 0x116C JUMP JUMPDEST DUP1 ISZERO PUSH2 0x57D JUMPI DUP1 PUSH1 0x1F LT PUSH2 0x554 JUMPI PUSH2 0x100 DUP1 DUP4 SLOAD DIV MUL DUP4 MSTORE SWAP2 PUSH1 0x20 ADD SWAP2 PUSH2 0x57D JUMP JUMPDEST DUP3 ADD SWAP2 SWAP1 PUSH0 MSTORE PUSH1 0x20 PUSH0 KECCAK256 SWAP1 JUMPDEST DUP2 SLOAD DUP2 MSTORE SWAP1 PUSH1 0x1 ADD SWAP1 PUSH1 0x20 ADD DUP1 DUP4 GT PUSH2 0x560 JUMPI DUP3 SWAP1 SUB PUSH1 0x1F AND DUP3 ADD SWAP2 JUMPDEST POP POP POP POP POP DUP2 MSTORE PUSH1 0x20 ADD PUSH1 0x8 DUP3 ADD DUP1 SLOAD PUSH2 0x596 SWAP1 PUSH2 0x116C JUMP JUMPDEST DUP1 PUSH1 0x1F ADD PUSH1 0x20 DUP1 SWAP2 DIV MUL PUSH1 0x20 ADD PUSH1 0x40 MLOAD SWAP1 DUP2 ADD PUSH1 0x40 MSTORE DUP1 SWAP3 SWAP2 SWAP1 DUP2 DUP2 MSTORE PUSH1 0x20 ADD DUP3 DUP1 SLOAD PUSH2 0x5C2 SWAP1 PUSH2 0x116C JUMP JUMPDEST DUP1 ISZERO PUSH2 0x60D JUMPI DUP1 PUSH1 0x1F LT PUSH2 0x5E4 JUMPI PUSH2 0x100 DUP1 DUP4 SLOAD DIV MUL DUP4 MSTORE SWAP2 PUSH1 0x20 ADD SWAP2 PUSH2 0x60D JUMP JUMPDEST DUP3 ADD SWAP2 SWAP1 PUSH0 MSTORE PUSH1 0x20 PUSH0 KECCAK256 SWAP1 JUMPDEST DUP2 SLOAD DUP2 MSTORE SWAP1 PUSH1 0x1 ADD SWAP1 PUSH1 0x20 ADD DUP1 DUP4 GT PUSH2 0x5F0 JUMPI DUP3 SWAP1 SUB PUSH1 0x1F AND DUP3 ADD SWAP2 JUMPDEST POP POP POP POP POP DUP2 MSTORE PUSH1 0x20 ADD PUSH1 0x9 DUP3 ADD DUP1 SLOAD PUSH2 0x626 SWAP1 PUSH2 0x116C JUMP JUMPDEST DUP1 PUSH1 0x1F ADD PUSH1 0x20 DUP1 SWAP2 DIV MUL PUSH1 0x20 ADD PUSH1 0x40 MLOAD SWAP1 DUP2 ADD PUSH1 0x40 MSTORE DUP1 SWAP3 SWAP2 SWAP1 DUP2 DUP2 MSTORE PUSH1 0x20 ADD DUP3 DUP1 SLOAD PUSH2 0x652 SWAP1 PUSH2 0x116C JUMP JUMPDEST DUP1 ISZERO PUSH2 0x69D JUMPI DUP1 PUSH1 0x1F LT PUSH2 0x674 JUMPI PUSH2 0x100 DUP1 DUP4 SLOAD DIV MUL DUP4 MSTORE SWAP2 PUSH1 0x20 ADD SWAP2 PUSH2 0x69D JUMP JUMPDEST DUP3 ADD SWAP2 SWAP1 PUSH0 MSTORE PUSH1 0x20 PUSH0 KECCAK256 SWAP1 JUMPDEST DUP2 SLOAD DUP2 MSTORE SWAP1 PUSH1 0x1 ADD SWAP1 PUSH1 0x20 ADD DUP1 DUP4 GT PUSH2 0x680 JUMPI DUP3 SWAP1 SUB PUSH1 0x1F AND DUP3 ADD SWAP2 JUMPDEST POP POP POP POP POP DUP2 MSTORE PUSH1 0x20 ADD PUSH1 0xA DUP3 ADD SLOAD DUP2 MSTORE PUSH1 0x20 ADD PUSH1 0xB DUP3 ADD PUSH0 SWAP1 SLOAD SWAP1 PUSH2 0x100 EXP SWAP1 DIV PUSH1 0xFF AND ISZERO ISZERO ISZERO ISZERO DUP2 MSTORE PUSH1 0x20 ADD PUSH1 0xC DUP3 ADD DUP1 SLOAD PUSH2 0x6DA SWAP1 PUSH2 0x116C JUMP JUMPDEST DUP1 PUSH1 0x1F ADD PUSH1 0x20 DUP1 SWAP2 DIV MUL PUSH1 0x20 ADD PUSH1 0x40 MLOAD SWAP1 DUP2 ADD PUSH1 0x40 MSTORE DUP1 SWAP3 SWAP2 SWAP1 DUP2 DUP2 MSTORE PUSH1 0x20 ADD DUP3 DUP1 SLOAD PUSH2 0x706 SWAP1 PUSH2 0x116C JUMP JUMPDEST DUP1 ISZERO PUSH2 0x751 JUMPI DUP1 PUSH1 0x1F LT PUSH2 0x728 JUMPI PUSH2 0x100 DUP1 DUP4 SLOAD DIV MUL DUP4 MSTORE SWAP2 PUSH1 0x20 ADD SWAP2 PUSH2 0x751 JUMP JUMPDEST DUP3 ADD SWAP2 SWAP1 PUSH0 MSTORE PUSH1 0x20 PUSH0 KECCAK256 SWAP1 JUMPDEST DUP2 SLOAD DUP2 MSTORE SWAP1 PUSH1 0x1 ADD SWAP1 PUSH1 0x20 ADD DUP1 DUP4 GT PUSH2 0x734 JUMPI DUP3 SWAP1 SUB PUSH1 0x1F AND DUP3 ADD SWAP2 JUMPDEST POP POP POP POP POP DUP2 MSTORE PUSH1 0x20 ADD PUSH1 0xD DUP3 ADD DUP1 SLOAD PUSH2 0x76A SWAP1 PUSH2 0x116C JUMP JUMPDEST DUP1 PUSH1 0x1F ADD PUSH1 0x20 DUP1 SWAP2 DIV MUL PUSH1 0x20 ADD PUSH1 0x40 MLOAD SWAP1 DUP2 ADD PUSH1 0x40 MSTORE DUP1 SWAP3 SWAP2 SWAP1 DUP2 DUP2 MSTORE PUSH1 0x20 ADD DUP3 DUP1 SLOAD PUSH2 0x796 SWAP1 PUSH2 0x116C JUMP JUMPDEST DUP1 ISZERO PUSH2 0x7E1 JUMPI DUP1 PUSH1 0x1F LT PUSH2 0x7B8 JUMPI PUSH2 0x100 DUP1 DUP4 SLOAD DIV MUL DUP4 MSTORE SWAP2 PUSH1 0x20 ADD SWAP2 PUSH2 0x7E1 JUMP JUMPDEST DUP3 ADD SWAP2 SWAP1 PUSH0 MSTORE PUSH1 0x20 PUSH0 KECCAK256 SWAP1 JUMPDEST DUP2 SLOAD DUP2 MSTORE SWAP1 PUSH1 0x1 ADD SWAP1 PUSH1 0x20 ADD DUP1 DUP4 GT PUSH2 0x7C4 JUMPI DUP3 SWAP1 SUB PUSH1 0x1F AND DUP3 ADD SWAP2 JUMPDEST POP POP POP POP POP DUP2 MSTORE PUSH1 0x20 ADD PUSH1 0xE DUP3 ADD DUP1 SLOAD PUSH2 0x7FA SWAP1 PUSH2 0x116C JUMP JUMPDEST DUP1 PUSH1 0x1F ADD PUSH1 0x20 DUP1 SWAP2 DIV MUL PUSH1 0x20 ADD PUSH1 0x40 MLOAD SWAP1 DUP2 ADD PUSH1 0x40 MSTORE DUP1 SWAP3 SWAP2 SWAP1 DUP2 DUP2 MSTORE PUSH1 0x20 ADD DUP3 DUP1 SLOAD PUSH2 0x826 SWAP1 PUSH2 0x116C JUMP JUMPDEST DUP1 ISZERO PUSH2 0x871 JUMPI DUP1 PUSH1 0x1F LT PUSH2 0x848 JUMPI PUSH2 0x100 DUP1 DUP4 SLOAD DIV MUL DUP4 MSTORE SWAP2 PUSH1 0x20 ADD SWAP2 PUSH2 0x871 JUMP JUMPDEST DUP3 ADD SWAP2 SWAP1 PUSH0 MSTORE PUSH1 0x20 PUSH0 KECCAK256 SWAP1 JUMPDEST DUP2 SLOAD DUP2 MSTORE SWAP1 PUSH1 0x1 ADD SWAP1 PUSH1 0x20 ADD DUP1 DUP4 GT PUSH2 0x854 JUMPI DUP3 SWAP1 SUB PUSH1 0x1F AND DUP3 ADD SWAP2 JUMPDEST POP POP POP POP POP DUP2 MSTORE PUSH1 0x20 ADD PUSH1 0xF DUP3 ADD DUP1 SLOAD PUSH2 0x88A SWAP1 PUSH2 0x116C JUMP JUMPDEST DUP1 PUSH1 0x1F ADD PUSH1 0x20 DUP1 SWAP2 DIV MUL PUSH1 0x20 ADD PUSH1 0x40 MLOAD SWAP1 DUP2 ADD PUSH1 0x40 MSTORE DUP1 SWAP3 SWAP2 SWAP1 DUP2 DUP2 MSTORE PUSH1 0x20 ADD DUP3 DUP1 SLOAD PUSH2 0x8B6 SWAP1 PUSH2 0x116C JUMP JUMPDEST DUP1 ISZERO PUSH2 0x901 JUMPI DUP1 PUSH1 0x1F LT PUSH2 0x8D8 JUMPI PUSH2 0x100 DUP1 DUP4 SLOAD DIV MUL DUP4 MSTORE SWAP2 PUSH1 0x20 ADD SWAP2 PUSH2 0x901 JUMP JUMPDEST DUP3 ADD SWAP2 SWAP1 PUSH0 MSTORE PUSH1 0x20 PUSH0 KECCAK256 SWAP1 JUMPDEST DUP2 SLOAD DUP2 MSTORE SWAP1 PUSH1 0x1 ADD SWAP1 PUSH1 0x20 ADD DUP1 DUP4 GT PUSH2 0x8E4 JUMPI DUP3 SWAP1 SUB PUSH1 0x1F AND DUP3 ADD SWAP2 JUMPDEST POP POP POP POP POP DUP2 MSTORE POP POP DUP2 MSTORE POP POP DUP2 MSTORE PUSH1 0x20 ADD SWAP1 PUSH1 0x1 ADD SWAP1 PUSH2 0xE6 JUMP JUMPDEST POP POP POP POP SWAP1 POP SWAP1 JUMP JUMPDEST PUSH0 PUSH0 DUP1 SLOAD SWAP1 POP SWAP1 POP SWAP1 JUMP JUMPDEST PUSH1 0x1 PUSH0 SWAP1 SLOAD SWAP1 PUSH2 0x100 EXP SWAP1 DIV PUSH20 0xFFFFFFFFFFFFFFFFFFFFFFFFFFFFFFFFFFFFFFFF AND DUP2 JUMP JUMPDEST PUSH0 PUSH2 0x3E8 TIMESTAMP PUSH2 0x965 SWAP2 SWAP1 PUSH2 0x11C9 JUMP JUMPDEST SWAP1 POP PUSH0 PUSH1 0x40 MLOAD DUP1 PUSH1 0x80 ADD PUSH1 0x40 MSTORE DUP1 PUSH1 0x40 MLOAD DUP1 PUSH1 0x40 ADD PUSH1 0x40 MSTORE DUP1 PUSH1 0x5 DUP2 MSTORE PUSH1 0x20 ADD PUSH32 0x6B6C696E65000000000000000000000000000000000000000000000000000000 DUP2 MSTORE POP DUP2 MSTORE PUSH1 0x20 ADD DUP4 DUP2 MSTORE PUSH1 0x20 ADD DUP5 DUP1 PUSH1 0x40 ADD SWAP1 PUSH2 0x9C4 SWAP2 SWAP1 PUSH2 0x1216 JUMP JUMPDEST DUP1 DUP1 PUSH1 0x1F ADD PUSH1 0x20 DUP1 SWAP2 DIV MUL PUSH1 0x20 ADD PUSH1 0x40 MLOAD SWAP1 DUP2 ADD PUSH1 0x40 MSTORE DUP1 SWAP4 SWAP3 SWAP2 SWAP1 DUP2 DUP2 MSTORE PUSH1 0x20 ADD DUP4 DUP4 DUP1 DUP3 DUP5 CALLDATACOPY PUSH0 DUP2 DUP5 ADD MSTORE PUSH1 0x1F NOT PUSH1 0x1F DUP3 ADD AND SWAP1 POP DUP1 DUP4 ADD SWAP3 POP POP POP POP POP POP POP DUP2 MSTORE PUSH1 0x20 ADD DUP5 PUSH2 0xA15 SWAP1 PUSH2 0x16EB JUMP JUMPDEST DUP2 MSTORE POP SWAP1 POP PUSH0 DUP2 SWAP1 DUP1 PUSH1 0x1 DUP2 SLOAD ADD DUP1 DUP3 SSTORE DUP1 SWAP2 POP POP PUSH1 0x1 SWAP1 SUB SWAP1 PUSH0 MSTORE PUSH1 0x20 PUSH0 KECCAK256 SWAP1 PUSH1 0x13 MUL ADD PUSH0 SWAP1 SWAP2 SWAP1 SWAP2 SWAP1 SWAP2 POP PUSH0 DUP3 ADD MLOAD DUP2 PUSH0 ADD SWAP1 DUP2 PUSH2 0xA55 SWAP2 SWAP1 PUSH2 0x189D JUMP JUMPDEST POP PUSH1 0x20 DUP3 ADD MLOAD DUP2 PUSH1 0x1 ADD SSTORE PUSH1 0x40 DUP3 ADD MLOAD DUP2 PUSH1 0x2 ADD SWAP1 DUP2 PUSH2 0xA75 SWAP2 SWAP1 PUSH2 0x189D JUMP JUMPDEST POP PUSH1 0x60 DUP3 ADD MLOAD DUP2 PUSH1 0x3 ADD PUSH0 DUP3 ADD MLOAD DUP2 PUSH0 ADD PUSH0 PUSH2 0x100 EXP DUP2 SLOAD DUP2 PUSH8 0xFFFFFFFFFFFFFFFF MUL NOT AND SWAP1 DUP4 PUSH8 0xFFFFFFFFFFFFFFFF AND MUL OR SWAP1 SSTORE POP PUSH1 0x20 DUP3 ADD MLOAD DUP2 PUSH0 ADD PUSH1 0x8 PUSH2 0x100 EXP DUP2 SLOAD DUP2 PUSH8 0xFFFFFFFFFFFFFFFF MUL NOT AND SWAP1 DUP4 PUSH8 0xFFFFFFFFFFFFFFFF AND MUL OR SWAP1 SSTORE POP PUSH1 0x40 DUP3 ADD MLOAD DUP2 PUSH1 0x1 ADD SWAP1 DUP2 PUSH2 0xAEE SWAP2 SWAP1 PUSH2 0x189D JUMP JUMPDEST POP PUSH1 0x60 DUP3 ADD MLOAD DUP2 PUSH1 0x2 ADD SWAP1 DUP2 PUSH2 0xB04 SWAP2 SWAP1 PUSH2 0x189D JUMP JUMPDEST POP PUSH1 0x80 DUP3 ADD MLOAD DUP2 PUSH1 0x3 ADD SSTORE PUSH1 0xA0 DUP3 ADD MLOAD DUP2 PUSH1 0x4 ADD SSTORE PUSH1 0xC0 DUP3 ADD MLOAD DUP2 PUSH1 0x5 ADD SWAP1 DUP2 PUSH2 0xB2E SWAP2 SWAP1 PUSH2 0x189D JUMP JUMPDEST POP PUSH1 0xE0 DUP3 ADD MLOAD DUP2 PUSH1 0x6 ADD SWAP1 DUP2 PUSH2 0xB44 SWAP2 SWAP1 PUSH2 0x189D JUMP JUMPDEST POP PUSH2 0x100 DUP3 ADD MLOAD DUP2 PUSH1 0x7 ADD SWAP1 DUP2 PUSH2 0xB5B SWAP2 SWAP1 PUSH2 0x189D JUMP JUMPDEST POP PUSH2 0x120 DUP3 ADD MLOAD DUP2 PUSH1 0x8 ADD SWAP1 DUP2 PUSH2 0xB72 SWAP2 SWAP1 PUSH2 0x189D JUMP JUMPDEST POP PUSH2 0x140 DUP3 ADD MLOAD DUP2 PUSH1 0x9 ADD SWAP1 DUP2 PUSH2 0xB89 SWAP2 SWAP1 PUSH2 0x189D JUMP JUMPDEST POP PUSH2 0x160 DUP3 ADD MLOAD DUP2 PUSH1 0xA ADD SSTORE PUSH2 0x180 DUP3 ADD MLOAD DUP2 PUSH1 0xB ADD PUSH0 PUSH2 0x100 EXP DUP2 SLOAD DUP2 PUSH1 0xFF MUL NOT AND SWAP1 DUP4 ISZERO ISZERO MUL OR SWAP1 SSTORE POP PUSH2 0x1A0 DUP3 ADD MLOAD DUP2 PUSH1 0xC ADD SWAP1 DUP2 PUSH2 0xBCB SWAP2 SWAP1 PUSH2 0x189D JUMP JUMPDEST POP PUSH2 0x1C0 DUP3 ADD MLOAD DUP2 PUSH1 0xD ADD SWAP1 DUP2 PUSH2 0xBE2 SWAP2 SWAP1 PUSH2 0x189D JUMP JUMPDEST POP PUSH2 0x1E0 DUP3 ADD MLOAD DUP2 PUSH1 0xE ADD SWAP1 DUP2 PUSH2 0xBF9 SWAP2 SWAP1 PUSH2 0x189D JUMP JUMPDEST POP PUSH2 0x200 DUP3 ADD MLOAD DUP2 PUSH1 0xF ADD SWAP1 DUP2 PUSH2 0xC10 SWAP2 SWAP1 PUSH2 0x189D JUMP JUMPDEST POP POP POP POP POP PUSH32 0x87BE993750FD9F870BC535D97609DF048E07430C47F26712536434958094F873 DUP3 DUP5 DUP1 PUSH1 0x40 ADD SWAP1 PUSH2 0xC47 SWAP2 SWAP1 PUSH2 0x1216 JUMP JUMPDEST DUP7 DUP1 PUSH1 0xC0 ADD SWAP1 PUSH2 0xC57 SWAP2 SWAP1 PUSH2 0x1216 JUMP JUMPDEST DUP9 DUP1 PUSH1 0xE0 ADD SWAP1 PUSH2 0xC67 SWAP2 SWAP1 PUSH2 0x1216 JUMP JUMPDEST PUSH1 0x40 MLOAD PUSH2 0xC7A SWAP8 SWAP7 SWAP6 SWAP5 SWAP4 SWAP3 SWAP2 SWAP1 PUSH2 0x19A8 JUMP JUMPDEST PUSH1 0x40 MLOAD DUP1 SWAP2 SUB SWAP1 LOG1 POP POP POP JUMP JUMPDEST PUSH0 DUP2 MLOAD SWAP1 POP SWAP2 SWAP1 POP JUMP JUMPDEST PUSH0 DUP3 DUP3 MSTORE PUSH1 0x20 DUP3 ADD SWAP1 POP SWAP3 SWAP2 POP POP JUMP JUMPDEST PUSH0 DUP2 SWAP1 POP PUSH1 0x20 DUP3 ADD SWAP1 POP SWAP2 SWAP1 POP JUMP JUMPDEST PUSH0 DUP2 MLOAD SWAP1 POP SWAP2 SWAP1 POP JUMP JUMPDEST PUSH0 DUP3 DUP3 MSTORE PUSH1 0x20 DUP3 ADD SWAP1 POP SWAP3 SWAP2 POP POP JUMP JUMPDEST DUP3 DUP2 DUP4 MCOPY PUSH0 DUP4 DUP4 ADD MSTORE POP POP POP JUMP JUMPDEST PUSH0 PUSH1 0x1F NOT PUSH1 0x1F DUP4 ADD AND SWAP1 POP SWAP2 SWAP1 POP JUMP JUMPDEST PUSH0 PUSH2 0xCF2 DUP3 PUSH2 0xCB0 JUMP JUMPDEST PUSH2 0xCFC DUP2 DUP6 PUSH2 0xCBA JUMP JUMPDEST SWAP4 POP PUSH2 0xD0C DUP2 DUP6 PUSH1 0x20 DUP7 ADD PUSH2 0xCCA JUMP JUMPDEST PUSH2 0xD15 DUP2 PUSH2 0xCD8 JUMP JUMPDEST DUP5 ADD SWAP2 POP POP SWAP3 SWAP2 POP POP JUMP JUMPDEST PUSH0 DUP2 SWAP1 POP SWAP2 SWAP1 POP JUMP JUMPDEST PUSH2 0xD32 DUP2 PUSH2 0xD20 JUMP JUMPDEST DUP3 MSTORE POP POP JUMP JUMPDEST PUSH0 PUSH8 0xFFFFFFFFFFFFFFFF DUP3 AND SWAP1 POP SWAP2 SWAP1 POP JUMP JUMPDEST PUSH2 0xD54 DUP2 PUSH2 0xD38 JUMP JUMPDEST DUP3 MSTORE POP POP JUMP JUMPDEST PUSH0 DUP2 ISZERO ISZERO SWAP1 POP SWAP2 SWAP1 POP JUMP JUMPDEST PUSH2 0xD6E DUP2 PUSH2 0xD5A JUMP JUMPDEST DUP3 MSTORE POP POP JUMP JUMPDEST PUSH0 PUSH2 0x220 DUP4 ADD PUSH0 DUP4 ADD MLOAD PUSH2 0xD8A PUSH0 DUP7 ADD DUP3 PUSH2 0xD4B JUMP JUMPDEST POP PUSH1 0x20 DUP4 ADD MLOAD PUSH2 0xD9D PUSH1 0x20 DUP7 ADD DUP3 PUSH2 0xD4B JUMP JUMPDEST POP PUSH1 0x40 DUP4 ADD MLOAD DUP5 DUP3 SUB PUSH1 0x40 DUP7 ADD MSTORE PUSH2 0xDB5 DUP3 DUP3 PUSH2 0xCE8 JUMP JUMPDEST SWAP2 POP POP PUSH1 0x60 DUP4 ADD MLOAD DUP5 DUP3 SUB PUSH1 0x60 DUP7 ADD MSTORE PUSH2 0xDCF DUP3 DUP3 PUSH2 0xCE8 JUMP JUMPDEST SWAP2 POP POP PUSH1 0x80 DUP4 ADD MLOAD PUSH2 0xDE4 PUSH1 0x80 DUP7 ADD DUP3 PUSH2 0xD29 JUMP JUMPDEST POP PUSH1 0xA0 DUP4 ADD MLOAD PUSH2 0xDF7 PUSH1 0xA0 DUP7 ADD DUP3 PUSH2 0xD29 JUMP JUMPDEST POP PUSH1 0xC0 DUP4 ADD MLOAD DUP5 DUP3 SUB PUSH1 0xC0 DUP7 ADD MSTORE PUSH2 0xE0F DUP3 DUP3 PUSH2 0xCE8 JUMP JUMPDEST SWAP2 POP POP PUSH1 0xE0 DUP4 ADD MLOAD DUP5 DUP3 SUB PUSH1 0xE0 DUP7 ADD MSTORE PUSH2 0xE29 DUP3 DUP3 PUSH2 0xCE8 JUMP JUMPDEST SWAP2 POP POP PUSH2 0x100 DUP4 ADD MLOAD DUP5 DUP3 SUB PUSH2 0x100 DUP7 ADD MSTORE PUSH2 0xE45 DUP3 DUP3 PUSH2 0xCE8 JUMP JUMPDEST SWAP2 POP POP PUSH2 0x120 DUP4 ADD MLOAD DUP5 DUP3 SUB PUSH2 0x120 DUP7 ADD MSTORE PUSH2 0xE61 DUP3 DUP3 PUSH2 0xCE8 JUMP JUMPDEST SWAP2 POP POP PUSH2 0x140 DUP4 ADD MLOAD DUP5 DUP3 SUB PUSH2 0x140 DUP7 ADD MSTORE PUSH2 0xE7D DUP3 DUP3 PUSH2 0xCE8 JUMP JUMPDEST SWAP2 POP POP PUSH2 0x160 DUP4 ADD MLOAD PUSH2 0xE94 PUSH2 0x160 DUP7 ADD DUP3 PUSH2 0xD29 JUMP JUMPDEST POP PUSH2 0x180 DUP4 ADD MLOAD PUSH2 0xEA9 PUSH2 0x180 DUP7 ADD DUP3 PUSH2 0xD65 JUMP JUMPDEST POP PUSH2 0x1A0 DUP4 ADD MLOAD DUP5 DUP3 SUB PUSH2 0x1A0 DUP7 ADD MSTORE PUSH2 0xEC3 DUP3 DUP3 PUSH2 0xCE8 JUMP JUMPDEST SWAP2 POP POP PUSH2 0x1C0 DUP4 ADD MLOAD DUP5 DUP3 SUB PUSH2 0x1C0 DUP7 ADD MSTORE PUSH2 0xEDF DUP3 DUP3 PUSH2 0xCE8 JUMP JUMPDEST SWAP2 POP POP PUSH2 0x1E0 DUP4 ADD MLOAD DUP5 DUP3 SUB PUSH2 0x1E0 DUP7 ADD MSTORE PUSH2 0xEFB DUP3 DUP3 PUSH2 0xCE8 JUMP JUMPDEST SWAP2 POP POP PUSH2 0x200 DUP4 ADD MLOAD DUP5 DUP3 SUB PUSH2 0x200 DUP7 ADD MSTORE PUSH2 0xF17 DUP3 DUP3 PUSH2 0xCE8 JUMP JUMPDEST SWAP2 POP POP DUP1 SWAP2 POP POP SWAP3 SWAP2 POP POP JUMP JUMPDEST PUSH0 PUSH1 0x80 DUP4 ADD PUSH0 DUP4 ADD MLOAD DUP5 DUP3 SUB PUSH0 DUP7 ADD MSTORE PUSH2 0xF3E DUP3 DUP3 PUSH2 0xCE8 JUMP JUMPDEST SWAP2 POP POP PUSH1 0x20 DUP4 ADD MLOAD PUSH2 0xF53 PUSH1 0x20 DUP7 ADD DUP3 PUSH2 0xD29 JUMP JUMPDEST POP PUSH1 0x40 DUP4 ADD MLOAD DUP5 DUP3 SUB PUSH1 0x40 DUP7 ADD MSTORE PUSH2 0xF6B DUP3 DUP3 PUSH2 0xCE8 JUMP JUMPDEST SWAP2 POP POP PUSH1 0x60 DUP4 ADD MLOAD DUP5 DUP3 SUB PUSH1 0x60 DUP7 ADD MSTORE PUSH2 0xF85 DUP3 DUP3 PUSH2 0xD74 JUMP JUMPDEST SWAP2 POP POP DUP1 SWAP2 POP POP SWAP3 SWAP2 POP POP JUMP JUMPDEST PUSH0 PUSH2 0xF9D DUP4 DUP4 PUSH2 0xF24 JUMP JUMPDEST SWAP1 POP SWAP3 SWAP2 POP POP JUMP JUMPDEST PUSH0 PUSH1 0x20 DUP3 ADD SWAP1 POP SWAP2 SWAP1 POP JUMP JUMPDEST PUSH0 PUSH2 0xFBB DUP3 PUSH2 0xC87 JUMP JUMPDEST PUSH2 0xFC5 DUP2 DUP6 PUSH2 0xC91 JUMP JUMPDEST SWAP4 POP DUP4 PUSH1 0x20 DUP3 MUL DUP6 ADD PUSH2 0xFD7 DUP6 PUSH2 0xCA1 JUMP JUMPDEST DUP1 PUSH0 JUMPDEST DUP6 DUP2 LT ISZERO PUSH2 0x1012 JUMPI DUP5 DUP5 SUB DUP10 MSTORE DUP2 MLOAD PUSH2 0xFF3 DUP6 DUP3 PUSH2 0xF92 JUMP JUMPDEST SWAP5 POP PUSH2 0xFFE DUP4 PUSH2 0xFA5 JUMP JUMPDEST SWAP3 POP PUSH1 0x20 DUP11 ADD SWAP10 POP POP PUSH1 0x1 DUP2 ADD SWAP1 POP PUSH2 0xFDA JUMP JUMPDEST POP DUP3 SWAP8 POP DUP8 SWAP6 POP POP POP POP POP POP SWAP3 SWAP2 POP POP JUMP JUMPDEST PUSH0 PUSH1 0x20 DUP3 ADD SWAP1 POP DUP2 DUP2 SUB PUSH0 DUP4 ADD MSTORE PUSH2 0x103C DUP2 DUP5 PUSH2 0xFB1 JUMP JUMPDEST SWAP1 POP SWAP3 SWAP2 POP POP JUMP JUMPDEST PUSH2 0x104D DUP2 PUSH2 0xD20 JUMP JUMPDEST DUP3 MSTORE POP POP JUMP JUMPDEST PUSH0 PUSH1 0x20 DUP3 ADD SWAP1 POP PUSH2 0x1066 PUSH0 DUP4 ADD DUP5 PUSH2 0x1044 JUMP JUMPDEST SWAP3 SWAP2 POP POP JUMP JUMPDEST PUSH0 PUSH20 0xFFFFFFFFFFFFFFFFFFFFFFFFFFFFFFFFFFFFFFFF DUP3 AND SWAP1 POP SWAP2 SWAP1 POP JUMP JUMPDEST PUSH0 PUSH2 0x1095 DUP3 PUSH2 0x106C JUMP JUMPDEST SWAP1 POP SWAP2 SWAP1 POP JUMP JUMPDEST PUSH2 0x10A5 DUP2 PUSH2 0x108B JUMP JUMPDEST DUP3 MSTORE POP POP JUMP JUMPDEST PUSH0 PUSH1 0x20 DUP3 ADD SWAP1 POP PUSH2 0x10BE PUSH0 DUP4 ADD DUP5 PUSH2 0x109C JUMP JUMPDEST SWAP3 SWAP2 POP POP JUMP JUMPDEST PUSH0 PUSH1 0x40 MLOAD SWAP1 POP SWAP1 JUMP JUMPDEST PUSH0 PUSH0 REVERT JUMPDEST PUSH0 PUSH0 REVERT JUMPDEST PUSH0 PUSH0 REVERT JUMPDEST PUSH0 PUSH2 0x220 DUP3 DUP5 SUB SLT ISZERO PUSH2 0x10EF JUMPI PUSH2 0x10EE PUSH2 0x10D5 JUMP JUMPDEST JUMPDEST DUP2 SWAP1 POP SWAP3 SWAP2 POP POP JUMP JUMPDEST PUSH0 PUSH1 0x20 DUP3 DUP5 SUB SLT ISZERO PUSH2 0x110D JUMPI PUSH2 0x110C PUSH2 0x10CD JUMP JUMPDEST JUMPDEST PUSH0 DUP3 ADD CALLDATALOAD PUSH8 0xFFFFFFFFFFFFFFFF DUP2 GT ISZERO PUSH2 0x112A JUMPI PUSH2 0x1129 PUSH2 0x10D1 JUMP JUMPDEST JUMPDEST PUSH2 0x1136 DUP5 DUP3 DUP6 ADD PUSH2 0x10D9 JUMP JUMPDEST SWAP2 POP POP SWAP3 SWAP2 POP POP JUMP JUMPDEST PUSH32 0x4E487B7100000000000000000000000000000000000000000000000000000000 PUSH0 MSTORE PUSH1 0x22 PUSH1 0x4 MSTORE PUSH1 0x24 PUSH0 REVERT JUMPDEST PUSH0 PUSH1 0x2 DUP3 DIV SWAP1 POP PUSH1 0x1 DUP3 AND DUP1 PUSH2 0x1183 JUMPI PUSH1 0x7F DUP3 AND SWAP2 POP JUMPDEST PUSH1 0x20 DUP3 LT DUP2 SUB PUSH2 0x1196 JUMPI PUSH2 0x1195 PUSH2 0x113F JUMP JUMPDEST JUMPDEST POP SWAP2 SWAP1 POP JUMP JUMPDEST PUSH32 0x4E487B7100000000000000000000000000000000000000000000000000000000 PUSH0 MSTORE PUSH1 0x11 PUSH1 0x4 MSTORE PUSH1 0x24 PUSH0 REVERT JUMPDEST PUSH0 PUSH2 0x11D3 DUP3 PUSH2 0xD20 JUMP JUMPDEST SWAP2 POP PUSH2 0x11DE DUP4 PUSH2 0xD20 JUMP JUMPDEST SWAP3 POP DUP3 DUP3 MUL PUSH2 0x11EC DUP2 PUSH2 0xD20 JUMP JUMPDEST SWAP2 POP DUP3 DUP3 DIV DUP5 EQ DUP4 ISZERO OR PUSH2 0x1203 JUMPI PUSH2 0x1202 PUSH2 0x119C JUMP JUMPDEST JUMPDEST POP SWAP3 SWAP2 POP POP JUMP JUMPDEST PUSH0 PUSH0 REVERT JUMPDEST PUSH0 PUSH0 REVERT JUMPDEST PUSH0 PUSH0 REVERT JUMPDEST PUSH0 PUSH0 DUP4 CALLDATALOAD PUSH1 0x1 PUSH1 0x20 SUB DUP5 CALLDATASIZE SUB SUB DUP2 SLT PUSH2 0x1232 JUMPI PUSH2 0x1231 PUSH2 0x120A JUMP JUMPDEST JUMPDEST DUP1 DUP5 ADD SWAP3 POP DUP3 CALLDATALOAD SWAP2 POP PUSH8 0xFFFFFFFFFFFFFFFF DUP3 GT ISZERO PUSH2 0x1254 JUMPI PUSH2 0x1253 PUSH2 0x120E JUMP JUMPDEST JUMPDEST PUSH1 0x20 DUP4 ADD SWAP3 POP PUSH1 0x1 DUP3 MUL CALLDATASIZE SUB DUP4 SGT ISZERO PUSH2 0x1270 JUMPI PUSH2 0x126F PUSH2 0x1212 JUMP JUMPDEST JUMPDEST POP SWAP3 POP SWAP3 SWAP1 POP JUMP JUMPDEST PUSH0 PUSH0 REVERT JUMPDEST PUSH32 0x4E487B7100000000000000000000000000000000000000000000000000000000 PUSH0 MSTORE PUSH1 0x41 PUSH1 0x4 MSTORE PUSH1 0x24 PUSH0 REVERT JUMPDEST PUSH2 0x12B2 DUP3 PUSH2 0xCD8 JUMP JUMPDEST DUP2 ADD DUP2 DUP2 LT PUSH8 0xFFFFFFFFFFFFFFFF DUP3 GT OR ISZERO PUSH2 0x12D1 JUMPI PUSH2 0x12D0 PUSH2 0x127C JUMP JUMPDEST JUMPDEST DUP1 PUSH1 0x40 MSTORE POP POP POP JUMP JUMPDEST PUSH0 PUSH2 0x12E3 PUSH2 0x10C4 JUMP JUMPDEST SWAP1 POP PUSH2 0x12EF DUP3 DUP3 PUSH2 0x12A9 JUMP JUMPDEST SWAP2 SWAP1 POP JUMP JUMPDEST PUSH0 PUSH0 REVERT JUMPDEST PUSH2 0x1301 DUP2 PUSH2 0xD38 JUMP JUMPDEST DUP2 EQ PUSH2 0x130B JUMPI PUSH0 PUSH0 REVERT JUMPDEST POP JUMP JUMPDEST PUSH0 DUP2 CALLDATALOAD SWAP1 POP PUSH2 0x131C DUP2 PUSH2 0x12F8 JUMP JUMPDEST SWAP3 SWAP2 POP POP JUMP JUMPDEST PUSH0 PUSH0 REVERT JUMPDEST PUSH0 PUSH0 REVERT JUMPDEST PUSH0 PUSH8 0xFFFFFFFFFFFFFFFF DUP3 GT ISZERO PUSH2 0x1344 JUMPI PUSH2 0x1343 PUSH2 0x127C JUMP JUMPDEST JUMPDEST PUSH2 0x134D DUP3 PUSH2 0xCD8 JUMP JUMPDEST SWAP1 POP PUSH1 0x20 DUP2 ADD SWAP1 POP SWAP2 SWAP1 POP JUMP JUMPDEST DUP3 DUP2 DUP4 CALLDATACOPY PUSH0 DUP4 DUP4 ADD MSTORE POP POP POP JUMP JUMPDEST PUSH0 PUSH2 0x137A PUSH2 0x1375 DUP5 PUSH2 0x132A JUMP JUMPDEST PUSH2 0x12DA JUMP JUMPDEST SWAP1 POP DUP3 DUP2 MSTORE PUSH1 0x20 DUP2 ADD DUP5 DUP5 DUP5 ADD GT ISZERO PUSH2 0x1396 JUMPI PUSH2 0x1395 PUSH2 0x1326 JUMP JUMPDEST JUMPDEST PUSH2 0x13A1 DUP5 DUP3 DUP6 PUSH2 0x135A JUMP JUMPDEST POP SWAP4 SWAP3 POP POP POP JUMP JUMPDEST PUSH0 DUP3 PUSH1 0x1F DUP4 ADD SLT PUSH2 0x13BD JUMPI PUSH2 0x13BC PUSH2 0x1322 JUMP JUMPDEST JUMPDEST DUP2 CALLDATALOAD PUSH2 0x13CD DUP5 DUP3 PUSH1 0x20 DUP7 ADD PUSH2 0x1368 JUMP JUMPDEST SWAP2 POP POP SWAP3 SWAP2 POP POP JUMP JUMPDEST PUSH2 0x13DF DUP2 PUSH2 0xD20 JUMP JUMPDEST DUP2 EQ PUSH2 0x13E9 JUMPI PUSH0 PUSH0 REVERT JUMPDEST POP JUMP JUMPDEST PUSH0 DUP2 CALLDATALOAD SWAP1 POP PUSH2 0x13FA DUP2 PUSH2 0x13D6 JUMP JUMPDEST SWAP3 SWAP2 POP POP JUMP JUMPDEST PUSH2 0x1409 DUP2 PUSH2 0xD5A JUMP JUMPDEST DUP2 EQ PUSH2 0x1413 JUMPI PUSH0 PUSH0 REVERT JUMPDEST POP JUMP JUMPDEST PUSH0 DUP2 CALLDATALOAD SWAP1 POP PUSH2 0x1424 DUP2 PUSH2 0x1400 JUMP JUMPDEST SWAP3 SWAP2 POP POP JUMP JUMPDEST PUSH0 PUSH2 0x220 DUP3 DUP5 SUB SLT ISZERO PUSH2 0x1440 JUMPI PUSH2 0x143F PUSH2 0x1278 JUMP JUMPDEST JUMPDEST PUSH2 0x144B PUSH2 0x220 PUSH2 0x12DA JUMP JUMPDEST SWAP1 POP PUSH0 PUSH2 0x145A DUP5 DUP3 DUP6 ADD PUSH2 0x130E JUMP JUMPDEST PUSH0 DUP4 ADD MSTORE POP PUSH1 0x20 PUSH2 0x146D DUP5 DUP3 DUP6 ADD PUSH2 0x130E JUMP JUMPDEST PUSH1 0x20 DUP4 ADD MSTORE POP PUSH1 0x40 DUP3 ADD CALLDATALOAD PUSH8 0xFFFFFFFFFFFFFFFF DUP2 GT ISZERO PUSH2 0x1491 JUMPI PUSH2 0x1490 PUSH2 0x12F4 JUMP JUMPDEST JUMPDEST PUSH2 0x149D DUP5 DUP3 DUP6 ADD PUSH2 0x13A9 JUMP JUMPDEST PUSH1 0x40 DUP4 ADD MSTORE POP PUSH1 0x60 DUP3 ADD CALLDATALOAD PUSH8 0xFFFFFFFFFFFFFFFF DUP2 GT ISZERO PUSH2 0x14C1 JUMPI PUSH2 0x14C0 PUSH2 0x12F4 JUMP JUMPDEST JUMPDEST PUSH2 0x14CD DUP5 DUP3 DUP6 ADD PUSH2 0x13A9 JUMP JUMPDEST PUSH1 0x60 DUP4 ADD MSTORE POP PUSH1 0x80 PUSH2 0x14E1 DUP5 DUP3 DUP6 ADD PUSH2 0x13EC JUMP JUMPDEST PUSH1 0x80 DUP4 ADD MSTORE POP PUSH1 0xA0 PUSH2 0x14F5 DUP5 DUP3 DUP6 ADD PUSH2 0x13EC JUMP JUMPDEST PUSH1 0xA0 DUP4 ADD MSTORE POP PUSH1 0xC0 DUP3 ADD CALLDATALOAD PUSH8 0xFFFFFFFFFFFFFFFF DUP2 GT ISZERO PUSH2 0x1519 JUMPI PUSH2 0x1518 PUSH2 0x12F4 JUMP JUMPDEST JUMPDEST PUSH2 0x1525 DUP5 DUP3 DUP6 ADD PUSH2 0x13A9 JUMP JUMPDEST PUSH1 0xC0 DUP4 ADD MSTORE POP PUSH1 0xE0 DUP3 ADD CALLDATALOAD PUSH8 0xFFFFFFFFFFFFFFFF DUP2 GT ISZERO PUSH2 0x1549 JUMPI PUSH2 0x1548 PUSH2 0x12F4 JUMP JUMPDEST JUMPDEST PUSH2 0x1555 DUP5 DUP3 DUP6 ADD PUSH2 0x13A9 JUMP JUMPDEST PUSH1 0xE0 DUP4 ADD MSTORE POP PUSH2 0x100 DUP3 ADD CALLDATALOAD PUSH8 0xFFFFFFFFFFFFFFFF DUP2 GT ISZERO PUSH2 0x157A JUMPI PUSH2 0x1579 PUSH2 0x12F4 JUMP JUMPDEST JUMPDEST PUSH2 0x1586 DUP5 DUP3 DUP6 ADD PUSH2 0x13A9 JUMP JUMPDEST PUSH2 0x100 DUP4 ADD MSTORE POP PUSH2 0x120 DUP3 ADD CALLDATALOAD PUSH8 0xFFFFFFFFFFFFFFFF DUP2 GT ISZERO PUSH2 0x15AC JUMPI PUSH2 0x15AB PUSH2 0x12F4 JUMP JUMPDEST JUMPDEST PUSH2 0x15B8 DUP5 DUP3 DUP6 ADD PUSH2 0x13A9 JUMP JUMPDEST PUSH2 0x120 DUP4 ADD MSTORE POP PUSH2 0x140 DUP3 ADD CALLDATALOAD PUSH8 0xFFFFFFFFFFFFFFFF DUP2 GT ISZERO PUSH2 0x15DE JUMPI PUSH2 0x15DD PUSH2 0x12F4 JUMP JUMPDEST JUMPDEST PUSH2 0x15EA DUP5 DUP3 DUP6 ADD PUSH2 0x13A9 JUMP JUMPDEST PUSH2 0x140 DUP4 ADD MSTORE POP PUSH2 0x160 PUSH2 0x1600 DUP5 DUP3 DUP6 ADD PUSH2 0x13EC JUMP JUMPDEST PUSH2 0x160 DUP4 ADD MSTORE POP PUSH2 0x180 PUSH2 0x1616 DUP5 DUP3 DUP6 ADD PUSH2 0x1416 JUMP JUMPDEST PUSH2 0x180 DUP4 ADD MSTORE POP PUSH2 0x1A0 DUP3 ADD CALLDATALOAD PUSH8 0xFFFFFFFFFFFFFFFF DUP2 GT ISZERO PUSH2 0x163C JUMPI PUSH2 0x163B PUSH2 0x12F4 JUMP JUMPDEST JUMPDEST PUSH2 0x1648 DUP5 DUP3 DUP6 ADD PUSH2 0x13A9 JUMP JUMPDEST PUSH2 0x1A0 DUP4 ADD MSTORE POP PUSH2 0x1C0 DUP3 ADD CALLDATALOAD PUSH8 0xFFFFFFFFFFFFFFFF DUP2 GT ISZERO PUSH2 0x166E JUMPI PUSH2 0x166D PUSH2 0x12F4 JUMP JUMPDEST JUMPDEST PUSH2 0x167A DUP5 DUP3 DUP6 ADD PUSH2 0x13A9 JUMP JUMPDEST PUSH2 0x1C0 DUP4 ADD MSTORE POP PUSH2 0x1E0 DUP3 ADD CALLDATALOAD PUSH8 0xFFFFFFFFFFFFFFFF DUP2 GT ISZERO PUSH2 0x16A0 JUMPI PUSH2 0x169F PUSH2 0x12F4 JUMP JUMPDEST JUMPDEST PUSH2 0x16AC DUP5 DUP3 DUP6 ADD PUSH2 0x13A9 JUMP JUMPDEST PUSH2 0x1E0 DUP4 ADD MSTORE POP PUSH2 0x200 DUP3 ADD CALLDATALOAD PUSH8 0xFFFFFFFFFFFFFFFF DUP2 GT ISZERO PUSH2 0x16D2 JUMPI PUSH2 0x16D1 PUSH2 0x12F4 JUMP JUMPDEST JUMPDEST PUSH2 0x16DE DUP5 DUP3 DUP6 ADD PUSH2 0x13A9 JUMP JUMPDEST PUSH2 0x200 DUP4 ADD MSTORE POP SWAP3 SWAP2 POP POP JUMP JUMPDEST PUSH0 PUSH2 0x16F6 CALLDATASIZE DUP4 PUSH2 0x142A JUMP JUMPDEST SWAP1 POP SWAP2 SWAP1 POP JUMP JUMPDEST PUSH0 DUP2 SWAP1 POP DUP2 PUSH0 MSTORE PUSH1 0x20 PUSH0 KECCAK256 SWAP1 POP SWAP2 SWAP1 POP JUMP JUMPDEST PUSH0 PUSH1 0x20 PUSH1 0x1F DUP4 ADD DIV SWAP1 POP SWAP2 SWAP1 POP JUMP JUMPDEST PUSH0 DUP3 DUP3 SHL SWAP1 POP SWAP3 SWAP2 POP POP JUMP JUMPDEST PUSH0 PUSH1 0x8 DUP4 MUL PUSH2 0x1759 PUSH32 0xFFFFFFFFFFFFFFFFFFFFFFFFFFFFFFFFFFFFFFFFFFFFFFFFFFFFFFFFFFFFFFFF DUP3 PUSH2 0x171E JUMP JUMPDEST PUSH2 0x1763 DUP7 DUP4 PUSH2 0x171E JUMP JUMPDEST SWAP6 POP DUP1 NOT DUP5 AND SWAP4 POP DUP1 DUP7 AND DUP5 OR SWAP3 POP POP POP SWAP4 SWAP3 POP POP POP JUMP JUMPDEST PUSH0 DUP2 SWAP1 POP SWAP2 SWAP1 POP JUMP JUMPDEST PUSH0 PUSH2 0x179E PUSH2 0x1799 PUSH2 0x1794 DUP5 PUSH2 0xD20 JUMP JUMPDEST PUSH2 0x177B JUMP JUMPDEST PUSH2 0xD20 JUMP JUMPDEST SWAP1 POP SWAP2 SWAP1 POP JUMP JUMPDEST PUSH0 DUP2 SWAP1 POP SWAP2 SWAP1 POP JUMP JUMPDEST PUSH2 0x17B7 DUP4 PUSH2 0x1784 JUMP JUMPDEST PUSH2 0x17CB PUSH2 0x17C3 DUP3 PUSH2 0x17A5 JUMP JUMPDEST DUP5 DUP5 SLOAD PUSH2 0x172A JUMP JUMPDEST DUP3 SSTORE POP POP POP POP JUMP JUMPDEST PUSH0 PUSH0 SWAP1 POP SWAP1 JUMP JUMPDEST PUSH2 0x17E2 PUSH2 0x17D3 JUMP JUMPDEST PUSH2 0x17ED DUP2 DUP5 DUP5 PUSH2 0x17AE JUMP JUMPDEST POP POP POP JUMP JUMPDEST JUMPDEST DUP2 DUP2 LT ISZERO PUSH2 0x1810 JUMPI PUSH2 0x1805 PUSH0 DUP3 PUSH2 0x17DA JUMP JUMPDEST PUSH1 0x1 DUP2 ADD SWAP1 POP PUSH2 0x17F3 JUMP JUMPDEST POP POP JUMP JUMPDEST PUSH1 0x1F DUP3 GT ISZERO PUSH2 0x1855 JUMPI PUSH2 0x1826 DUP2 PUSH2 0x16FD JUMP JUMPDEST PUSH2 0x182F DUP5 PUSH2 0x170F JUMP JUMPDEST DUP2 ADD PUSH1 0x20 DUP6 LT ISZERO PUSH2 0x183E JUMPI DUP2 SWAP1 POP JUMPDEST PUSH2 0x1852 PUSH2 0x184A DUP6 PUSH2 0x170F JUMP JUMPDEST DUP4 ADD DUP3 PUSH2 0x17F2 JUMP JUMPDEST POP POP JUMPDEST POP POP POP JUMP JUMPDEST PUSH0 DUP3 DUP3 SHR SWAP1 POP SWAP3 SWAP2 POP POP JUMP JUMPDEST PUSH0 PUSH2 0x1875 PUSH0 NOT DUP5 PUSH1 0x8 MUL PUSH2 0x185A JUMP JUMPDEST NOT DUP1 DUP4 AND SWAP2 POP POP SWAP3 SWAP2 POP POP JUMP JUMPDEST PUSH0 PUSH2 0x188D DUP4 DUP4 PUSH2 0x1866 JUMP JUMPDEST SWAP2 POP DUP3 PUSH1 0x2 MUL DUP3 OR SWAP1 POP SWAP3 SWAP2 POP POP JUMP JUMPDEST PUSH2 0x18A6 DUP3 PUSH2 0xCB0 JUMP JUMPDEST PUSH8 0xFFFFFFFFFFFFFFFF DUP2 GT ISZERO PUSH2 0x18BF JUMPI PUSH2 0x18BE PUSH2 0x127C JUMP JUMPDEST JUMPDEST PUSH2 0x18C9 DUP3 SLOAD PUSH2 0x116C JUMP JUMPDEST PUSH2 0x18D4 DUP3 DUP3 DUP6 PUSH2 0x1814 JUMP JUMPDEST PUSH0 PUSH1 0x20 SWAP1 POP PUSH1 0x1F DUP4 GT PUSH1 0x1 DUP2 EQ PUSH2 0x1905 JUMPI PUSH0 DUP5 ISZERO PUSH2 0x18F3 JUMPI DUP3 DUP8 ADD MLOAD SWAP1 POP JUMPDEST PUSH2 0x18FD DUP6 DUP3 PUSH2 0x1882 JUMP JUMPDEST DUP7 SSTORE POP PUSH2 0x1964 JUMP JUMPDEST PUSH1 0x1F NOT DUP5 AND PUSH2 0x1913 DUP7 PUSH2 0x16FD JUMP JUMPDEST PUSH0 JUMPDEST DUP3 DUP2 LT ISZERO PUSH2 0x193A JUMPI DUP5 DUP10 ADD MLOAD DUP3 SSTORE PUSH1 0x1 DUP3 ADD SWAP2 POP PUSH1 0x20 DUP6 ADD SWAP5 POP PUSH1 0x20 DUP2 ADD SWAP1 POP PUSH2 0x1915 JUMP JUMPDEST DUP7 DUP4 LT ISZERO PUSH2 0x1957 JUMPI DUP5 DUP10 ADD MLOAD PUSH2 0x1953 PUSH1 0x1F DUP10 AND DUP3 PUSH2 0x1866 JUMP JUMPDEST DUP4 SSTORE POP JUMPDEST PUSH1 0x1 PUSH1 0x2 DUP9 MUL ADD DUP9 SSTORE POP POP POP JUMPDEST POP POP POP POP POP POP JUMP JUMPDEST PUSH0 DUP3 DUP3 MSTORE PUSH1 0x20 DUP3 ADD SWAP1 POP SWAP3 SWAP2 POP POP JUMP JUMPDEST PUSH0 PUSH2 0x1987 DUP4 DUP6 PUSH2 0x196C JUMP JUMPDEST SWAP4 POP PUSH2 0x1994 DUP4 DUP6 DUP5 PUSH2 0x135A JUMP JUMPDEST PUSH2 0x199D DUP4 PUSH2 0xCD8 JUMP JUMPDEST DUP5 ADD SWAP1 POP SWAP4 SWAP3 POP POP POP JUMP JUMPDEST PUSH0 PUSH1 0x80 DUP3 ADD SWAP1 POP PUSH2 0x19BB PUSH0 DUP4 ADD DUP11 PUSH2 0x1044 JUMP JUMPDEST DUP2 DUP2 SUB PUSH1 0x20 DUP4 ADD MSTORE PUSH2 0x19CE DUP2 DUP9 DUP11 PUSH2 0x197C JUMP JUMPDEST SWAP1 POP DUP2 DUP2 SUB PUSH1 0x40 DUP4 ADD MSTORE PUSH2 0x19E3 DUP2 DUP7 DUP9 PUSH2 0x197C JUMP JUMPDEST SWAP1 POP DUP2 DUP2 SUB PUSH1 0x60 DUP4 ADD MSTORE PUSH2 0x19F8 DUP2 DUP5 DUP7 PUSH2 0x197C JUMP JUMPDEST SWAP1 POP SWAP9 SWAP8 POP POP POP POP POP POP POP POP JUMP INVALID LOG2 PUSH5 0x6970667358 0x22 SLT KECCAK256 0x2B RETURNDATASIZE SAR EXTDELEGATECALL SDIV DUP1 0xB1 0xBA CHAINID PUSH31 0x88C2444A423153A1625E60110DCAB7B1348FEF58BF0A64736F6C634300081E STOP CALLER LOG2 PUSH5 0x6970667358 0x22 SLT KECCAK256 0xD4 0xCE 0xCC PUSH23 0xF766959BCD7DD9F63560EEAD588006EB2750565CBD1EC9 KECCAK256 DUP4 TLOAD TSTORE 0xB0 PUSH5 0x736F6C6343 STOP ADDMOD 0x1E STOP CALLER "
		},
		"gasEstimates": {
			"creation": {
				"codeDepositCost": "3142600",
				"executionCost": "3473",
				"totalCost": "3146073"
			},
			"external": {
				"addKline((uint64,uint64,string,string,uint256,uint256,string,string,string,string,string,uint256,bool,string,string,string,string),uint64)": "infinite",
				"getAllklineInTime(string,string,uint64)": "infinite",
				"getLengthKline(string,string,uint64)": "infinite",
				"getTimeKey(uint8,uint64)": "infinite",
				"parseInterval(string)": "infinite",
				"storages(bytes32,uint8,uint64)": "3277"
			}
		},
		"methodIdentifiers": {
			"addKline((uint64,uint64,string,string,uint256,uint256,string,string,string,string,string,uint256,bool,string,string,string,string),uint64)": "6a78b280",
			"getAllklineInTime(string,string,uint64)": "41356339",
			"getLengthKline(string,string,uint64)": "256d106e",
			"getTimeKey(uint8,uint64)": "8d412ad2",
			"parseInterval(string)": "93faa992",
			"storages(bytes32,uint8,uint64)": "5b3cb9d4"
		}
	},
	"abi": [
		{
			"anonymous": false,
			"inputs": [
				{
					"indexed": false,
					"internalType": "uint256",
					"name": "key",
					"type": "uint256"
				},
				{
					"indexed": false,
					"internalType": "address",
					"name": "contractAddress",
					"type": "address"
				}
			],
			"name": "KlineContractCreated",
			"type": "event"
		},
		{
			"anonymous": false,
			"inputs": [
				{
					"indexed": false,
					"internalType": "uint64",
					"name": "t",
					"type": "uint64"
				},
				{
					"indexed": false,
					"internalType": "uint256",
					"name": "T",
					"type": "uint256"
				},
				{
					"indexed": false,
					"internalType": "bool",
					"name": "isClose",
					"type": "bool"
				}
			],
			"name": "KlineCreated",
			"type": "event"
		},
		{
			"anonymous": false,
			"inputs": [
				{
					"indexed": false,
					"internalType": "string",
					"name": "symbol",
					"type": "string"
				},
				{
					"indexed": false,
					"internalType": "string",
					"name": "interval",
					"type": "string"
				},
				{
					"indexed": false,
					"internalType": "uint64",
					"name": "timeKey",
					"type": "uint64"
				},
				{
					"indexed": false,
					"internalType": "address",
					"name": "storageAddress",
					"type": "address"
				}
			],
			"name": "ShardCreated",
			"type": "event"
		},
		{
			"inputs": [
				{
					"components": [
						{
							"internalType": "uint64",
							"name": "t",
							"type": "uint64"
						},
						{
							"internalType": "uint64",
							"name": "T",
							"type": "uint64"
						},
						{
							"internalType": "string",
							"name": "s",
							"type": "string"
						},
						{
							"internalType": "string",
							"name": "i",
							"type": "string"
						},
						{
							"internalType": "uint256",
							"name": "f",
							"type": "uint256"
						},
						{
							"internalType": "uint256",
							"name": "L",
							"type": "uint256"
						},
						{
							"internalType": "string",
							"name": "o",
							"type": "string"
						},
						{
							"internalType": "string",
							"name": "c",
							"type": "string"
						},
						{
							"internalType": "string",
							"name": "h",
							"type": "string"
						},
						{
							"internalType": "string",
							"name": "l",
							"type": "string"
						},
						{
							"internalType": "string",
							"name": "v",
							"type": "string"
						},
						{
							"internalType": "uint256",
							"name": "n",
							"type": "uint256"
						},
						{
							"internalType": "bool",
							"name": "x",
							"type": "bool"
						},
						{
							"internalType": "string",
							"name": "q",
							"type": "string"
						},
						{
							"internalType": "string",
							"name": "V",
							"type": "string"
						},
						{
							"internalType": "string",
							"name": "Q",
							"type": "string"
						},
						{
							"internalType": "string",
							"name": "B",
							"type": "string"
						}
					],
					"internalType": "struct KlineRecord",
					"name": "record",
					"type": "tuple"
				},
				{
					"internalType": "uint64",
					"name": "timestamp",
					"type": "uint64"
				}
			],
			"name": "addKline",
			"outputs": [],
			"stateMutability": "nonpayable",
			"type": "function"
		},
		{
			"inputs": [
				{
					"internalType": "string",
					"name": "_symbol",
					"type": "string"
				},
				{
					"internalType": "string",
					"name": "_interval",
					"type": "string"
				},
				{
					"internalType": "uint64",
					"name": "timestime",
					"type": "uint64"
				}
			],
			"name": "getAllklineInTime",
			"outputs": [
				{
					"components": [
						{
							"internalType": "string",
							"name": "e",
							"type": "string"
						},
						{
							"internalType": "uint256",
							"name": "E",
							"type": "uint256"
						},
						{
							"internalType": "string",
							"name": "s",
							"type": "string"
						},
						{
							"components": [
								{
									"internalType": "uint64",
									"name": "t",
									"type": "uint64"
								},
								{
									"internalType": "uint64",
									"name": "T",
									"type": "uint64"
								},
								{
									"internalType": "string",
									"name": "s",
									"type": "string"
								},
								{
									"internalType": "string",
									"name": "i",
									"type": "string"
								},
								{
									"internalType": "uint256",
									"name": "f",
									"type": "uint256"
								},
								{
									"internalType": "uint256",
									"name": "L",
									"type": "uint256"
								},
								{
									"internalType": "string",
									"name": "o",
									"type": "string"
								},
								{
									"internalType": "string",
									"name": "c",
									"type": "string"
								},
								{
									"internalType": "string",
									"name": "h",
									"type": "string"
								},
								{
									"internalType": "string",
									"name": "l",
									"type": "string"
								},
								{
									"internalType": "string",
									"name": "v",
									"type": "string"
								},
								{
									"internalType": "uint256",
									"name": "n",
									"type": "uint256"
								},
								{
									"internalType": "bool",
									"name": "x",
									"type": "bool"
								},
								{
									"internalType": "string",
									"name": "q",
									"type": "string"
								},
								{
									"internalType": "string",
									"name": "V",
									"type": "string"
								},
								{
									"internalType": "string",
									"name": "Q",
									"type": "string"
								},
								{
									"internalType": "string",
									"name": "B",
									"type": "string"
								}
							],
							"internalType": "struct KlineRecord",
							"name": "k",
							"type": "tuple"
						}
					],
					"internalType": "struct KlineResponse[]",
					"name": "",
					"type": "tuple[]"
				}
			],
			"stateMutability": "view",
			"type": "function"
		},
		{
			"inputs": [
				{
					"internalType": "string",
					"name": "_symbol",
					"type": "string"
				},
				{
					"internalType": "string",
					"name": "_interval",
					"type": "string"
				},
				{
					"internalType": "uint64",
					"name": "timestime",
					"type": "uint64"
				}
			],
			"name": "getLengthKline",
			"outputs": [
				{
					"internalType": "uint256",
					"name": "",
					"type": "uint256"
				}
			],
			"stateMutability": "view",
			"type": "function"
		},
		{
			"inputs": [
				{
					"internalType": "enum Interval",
					"name": "",
					"type": "uint8"
				},
				{
					"internalType": "uint64",
					"name": "timestamp",
					"type": "uint64"
				}
			],
			"name": "getTimeKey",
			"outputs": [
				{
					"internalType": "uint64",
					"name": "",
					"type": "uint64"
				}
			],
			"stateMutability": "pure",
			"type": "function"
		},
		{
			"inputs": [
				{
					"internalType": "string",
					"name": "s",
					"type": "string"
				}
			],
			"name": "parseInterval",
			"outputs": [
				{
					"internalType": "enum Interval",
					"name": "",
					"type": "uint8"
				}
			],
			"stateMutability": "pure",
			"type": "function"
		},
		{
			"inputs": [
				{
					"internalType": "bytes32",
					"name": "",
					"type": "bytes32"
				},
				{
					"internalType": "enum Interval",
					"name": "",
					"type": "uint8"
				},
				{
					"internalType": "uint64",
					"name": "",
					"type": "uint64"
				}
			],
			"name": "storages",
			"outputs": [
				{
					"internalType": "address",
					"name": "",
					"type": "address"
				}
			],
			"stateMutability": "view",
			"type": "function"
		}
	]
}