{
	"data": {
		"bytecode": {
			"linkReferences": {},
			"object": "6080604052348015600e575f5ffd5b50613e658061001c5f395ff3fe608060405234801561000f575f5ffd5b506004361061007b575f3560e01c80635b3cb9d4116100595780635b3cb9d4146100fd5780636a78b2801461012d5780638d412ad21461014957806393faa992146101795761007b565b806319ff1d211461007f578063256d106e1461009d57806341356339146100cd575b5f5ffd5b6100876101a9565b6040516100949190610db6565b60405180910390f35b6100b760048036038101906100b29190610f50565b6101e6565b6040516100c49190610ff0565b60405180910390f35b6100e760048036038101906100e29190610f50565b61039b565b6040516100f49190611362565b60405180910390f35b610117600480360381019061011291906113d8565b610554565b6040516101249190611467565b60405180910390f35b6101476004803603810190610142919061179d565b61059b565b005b610163600480360381019061015e91906117f7565b6108b2565b6040516101709190611844565b60405180910390f35b610193600480360381019061018e919061185d565b6108d5565b6040516101a09190611917565b60405180910390f35b60606040518060400160405280600581526020017f68656c6c6f000000000000000000000000000000000000000000000000000000815250905090565b5f5f6101f1846108d5565b90505f85604051602001610205919061196a565b6040516020818303038152906040528051906020012090505f61022883866108b2565b90505f5f5f8481526020019081526020015f205f85600f81111561024f5761024e6118a4565b5b600f811115610261576102606118a4565b5b81526020019081526020015f205f8367ffffffffffffffff1667ffffffffffffffff1681526020019081526020015f205f9054906101000a900473ffffffffffffffffffffffffffffffffffffffff1690505f73ffffffffffffffffffffffffffffffffffffffff168173ffffffffffffffffffffffffffffffffffffffff1603610321576040517f08c379a0000000000000000000000000000000000000000000000000000000008152600401610318906119ca565b60405180910390fd5b8073ffffffffffffffffffffffffffffffffffffffff1663be1c766b6040518163ffffffff1660e01b8152600401602060405180830381865afa15801561036a573d5f5f3e3d5ffd5b505050506040513d601f19601f8201168201806040525081019061038e91906119fc565b9450505050509392505050565b60605f6103a7846108d5565b90505f856040516020016103bb919061196a565b6040516020818303038152906040528051906020012090505f6103de83866108b2565b90505f5f5f8481526020019081526020015f205f85600f811115610405576104046118a4565b5b600f811115610417576104166118a4565b5b81526020019081526020015f205f8367ffffffffffffffff1667ffffffffffffffff1681526020019081526020015f205f9054906101000a900473ffffffffffffffffffffffffffffffffffffffff1690505f73ffffffffffffffffffffffffffffffffffffffff168173ffffffffffffffffffffffffffffffffffffffff16036104d7576040517f08c379a00000000000000000000000000000000000000000000000000000000081526004016104ce906119ca565b60405180910390fd5b8073ffffffffffffffffffffffffffffffffffffffff166348cbad6e6040518163ffffffff1660e01b81526004015f60405180830381865afa15801561051f573d5f5f3e3d5ffd5b505050506040513d5f823e3d601f19601f820116820180604052508101906105479190611f29565b9450505050509392505050565b5f602052825f5260405f20602052815f5260405f20602052805f5260405f205f92509250509054906101000a900473ffffffffffffffffffffffffffffffffffffffff1681565b5f6105a983606001516108d5565b90505f83604001516040516020016105c1919061196a565b6040516020818303038152906040528051906020012090505f6105e483856108b2565b90505f5f5f8481526020019081526020015f205f85600f81111561060b5761060a6118a4565b5b600f81111561061d5761061c6118a4565b5b81526020019081526020015f205f8367ffffffffffffffff1667ffffffffffffffff1681526020019081526020015f205f9054906101000a900473ffffffffffffffffffffffffffffffffffffffff1690505f73ffffffffffffffffffffffffffffffffffffffff168173ffffffffffffffffffffffffffffffffffffffff16036107fd576106eb6040518060400160405280601581526020017f4372656174696e67206e657720736861726420617400000000000000000000008152508367ffffffffffffffff16610c4f565b6040516106f790610d2f565b604051809103905ff080158015610710573d5f5f3e3d5ffd5b509050805f5f8581526020019081526020015f205f86600f811115610738576107376118a4565b5b600f81111561074a576107496118a4565b5b81526020019081526020015f205f8467ffffffffffffffff1667ffffffffffffffff1681526020019081526020015f205f6101000a81548173ffffffffffffffffffffffffffffffffffffffff021916908373ffffffffffffffffffffffffffffffffffffffff1602179055507f2a9e82be7bc20784dcc707f4814ca404ac4a94db66450718f7733b160fb62d868660400151876060015184846040516107f49493929190611f70565b60405180910390a15b8073ffffffffffffffffffffffffffffffffffffffff1663e2a77a4c876040518263ffffffff1660e01b81526004016108369190612171565b5f604051808303815f87803b15801561084d575f5ffd5b505af115801561085f573d5f5f3e3d5ffd5b505050507f87e8b8309759ad52af1ac44b43236a412e35355e803ce31234b6a2ea6b296ccf865f015187602001518861018001516040516108a2939291906121d9565b60405180910390a1505050505050565b5f6236ee8080836108c39190612268565b6108cd9190612298565b905092915050565b5f5f826040516020016108e8919061196a565b6040516020818303038152906040528051906020012090507f6c9308eeeb72aac61c6ee2086645ec6cf6638d86d97af7b81bcf4073f3b95dbc8103610930575f915050610c4a565b7f523a5c8a0f83a86997a616b324ae897d2fb6b3f5f68b3969331c12e0f00f9f258103610961576001915050610c4a565b7f2a3ff2dfa7bd33b0e77d014065236a2f104b389b776645fddb9e6a09eea014418103610992576002915050610c4a565b7ffca740c51a7536a1ff8f65314e26b24cee265d7626ad2e39318898f3d501ac2281036109c3576003915050610c4a565b7f53cad56a766a794bdc4fd49b262cd08fadf5c823f208fbf3f4efb377c206eaaa81036109f4576004915050610c4a565b7fe99007fd2e286840683bfbac2c1ea22a3b3c1592d603a9ae9aee29cf77e941a78103610a25576005915050610c4a565b7f1125479f824fc31d0ce674b130e57a9dcfdf2d344ca1ef3fc8bf5bd50f9fcca98103610a56576006915050610c4a565b7fa50f424f123435e4689c6436ce338980297ca65f2ee6b69a216f0561ee6cf4008103610a87576007915050610c4a565b7f9a433cc5a6aee766b1bce0a7dc72ab7b4fd031108e0c5afea91382f1b1955fc98103610ab8576008915050610c4a565b7fa0b83cfa5501e126ac29f6bf7a07bd17e2d97916947eed361748e8e0ab0aba4d8103610ae9576009915050610c4a565b7fe21ccd2715134877c589435a9c98deb14540fdf9e902afebf2163fe393e9c0738103610b1a57600a915050610c4a565b7f11108661a127316f8f74dc39a66520c8ec16719ed867ee768af67729ba3ec1d28103610b4b57600b915050610c4a565b7f7b2e5637de8d5670bd5be523fbccc1dfef88f0767eb2abf5ac4a81da61ae20028103610b7c57600c915050610c4a565b7f1cef0646e7fe7cb478d3a93d2e07774697c9239d0ee8b4294b768c91af329e668103610bad57600d915050610c4a565b7f7cd5ba658b5dff64585bfcb0df7983749825e2292a4ff6daf96207e6eb100fe78103610bde57600e915050610c4a565b7fa390d73d5fd5e6a577d394328e26ce85589c6d8c382fba9150fb136bbbf31ff78103610c0f57600f915050610c4a565b6040517f08c379a0000000000000000000000000000000000000000000000000000000008152600401610c419061231e565b60405180910390fd5b919050565b610ce78282604051602401610c6592919061233c565b6040516020818303038152906040527fb60e72cc000000000000000000000000000000000000000000000000000000007bffffffffffffffffffffffffffffffffffffffffffffffffffffffff19166020820180517bffffffffffffffffffffffffffffffffffffffffffffffffffffffff8381831617835250505050610ceb565b5050565b610d0281610cfa610d05610d24565b63ffffffff16565b50565b5f6a636f6e736f6c652e6c6f6790505f5f835160208501845afa505050565b610d3c819050919050565b611a988061239883390190565b610d4461236a565b565b5f81519050919050565b5f82825260208201905092915050565b8281835e5f83830152505050565b5f601f19601f8301169050919050565b5f610d8882610d46565b610d928185610d50565b9350610da2818560208601610d60565b610dab81610d6e565b840191505092915050565b5f6020820190508181035f830152610dce8184610d7e565b905092915050565b5f604051905090565b5f5ffd5b5f5ffd5b5f5ffd5b5f5ffd5b7f4e487b71000000000000000000000000000000000000000000000000000000005f52604160045260245ffd5b610e2582610d6e565b810181811067ffffffffffffffff82111715610e4457610e43610def565b5b80604052505050565b5f610e56610dd6565b9050610e628282610e1c565b919050565b5f67ffffffffffffffff821115610e8157610e80610def565b5b610e8a82610d6e565b9050602081019050919050565b828183375f83830152505050565b5f610eb7610eb284610e67565b610e4d565b905082815260208101848484011115610ed357610ed2610deb565b5b610ede848285610e97565b509392505050565b5f82601f830112610efa57610ef9610de7565b5b8135610f0a848260208601610ea5565b91505092915050565b5f67ffffffffffffffff82169050919050565b610f2f81610f13565b8114610f39575f5ffd5b50565b5f81359050610f4a81610f26565b92915050565b5f5f5f60608486031215610f6757610f66610ddf565b5b5f84013567ffffffffffffffff811115610f8457610f83610de3565b5b610f9086828701610ee6565b935050602084013567ffffffffffffffff811115610fb157610fb0610de3565b5b610fbd86828701610ee6565b9250506040610fce86828701610f3c565b9150509250925092565b5f819050919050565b610fea81610fd8565b82525050565b5f6020820190506110035f830184610fe1565b92915050565b5f81519050919050565b5f82825260208201905092915050565b5f819050602082019050919050565b5f82825260208201905092915050565b5f61104c82610d46565b6110568185611032565b9350611066818560208601610d60565b61106f81610d6e565b840191505092915050565b61108381610fd8565b82525050565b61109281610f13565b82525050565b5f8115159050919050565b6110ac81611098565b82525050565b5f61022083015f8301516110c85f860182611089565b5060208301516110db6020860182611089565b50604083015184820360408601526110f38282611042565b9150506060830151848203606086015261110d8282611042565b9150506080830151611122608086018261107a565b5060a083015161113560a086018261107a565b5060c083015184820360c086015261114d8282611042565b91505060e083015184820360e08601526111678282611042565b9150506101008301518482036101008601526111838282611042565b91505061012083015184820361012086015261119f8282611042565b9150506101408301518482036101408601526111bb8282611042565b9150506101608301516111d261016086018261107a565b506101808301516111e76101808601826110a3565b506101a08301518482036101a08601526112018282611042565b9150506101c08301518482036101c086015261121d8282611042565b9150506101e08301518482036101e08601526112398282611042565b9150506102008301518482036102008601526112558282611042565b9150508091505092915050565b5f608083015f8301518482035f86015261127c8282611042565b9150506020830151611291602086018261107a565b50604083015184820360408601526112a98282611042565b915050606083015184820360608601526112c382826110b2565b9150508091505092915050565b5f6112db8383611262565b905092915050565b5f602082019050919050565b5f6112f982611009565b6113038185611013565b93508360208202850161131585611023565b805f5b85811015611350578484038952815161133185826112d0565b945061133c836112e3565b925060208a01995050600181019050611318565b50829750879550505050505092915050565b5f6020820190508181035f83015261137a81846112ef565b905092915050565b5f819050919050565b61139481611382565b811461139e575f5ffd5b50565b5f813590506113af8161138b565b92915050565b601081106113c1575f5ffd5b50565b5f813590506113d2816113b5565b92915050565b5f5f5f606084860312156113ef576113ee610ddf565b5b5f6113fc868287016113a1565b935050602061140d868287016113c4565b925050604061141e86828701610f3c565b9150509250925092565b5f73ffffffffffffffffffffffffffffffffffffffff82169050919050565b5f61145182611428565b9050919050565b61146181611447565b82525050565b5f60208201905061147a5f830184611458565b92915050565b5f5ffd5b5f5ffd5b61149181610fd8565b811461149b575f5ffd5b50565b5f813590506114ac81611488565b92915050565b6114bb81611098565b81146114c5575f5ffd5b50565b5f813590506114d6816114b2565b92915050565b5f61022082840312156114f2576114f1611480565b5b6114fd610220610e4d565b90505f61150c84828501610f3c565b5f83015250602061151f84828501610f3c565b602083015250604082013567ffffffffffffffff81111561154357611542611484565b5b61154f84828501610ee6565b604083015250606082013567ffffffffffffffff81111561157357611572611484565b5b61157f84828501610ee6565b60608301525060806115938482850161149e565b60808301525060a06115a78482850161149e565b60a08301525060c082013567ffffffffffffffff8111156115cb576115ca611484565b5b6115d784828501610ee6565b60c08301525060e082013567ffffffffffffffff8111156115fb576115fa611484565b5b61160784828501610ee6565b60e08301525061010082013567ffffffffffffffff81111561162c5761162b611484565b5b61163884828501610ee6565b6101008301525061012082013567ffffffffffffffff81111561165e5761165d611484565b5b61166a84828501610ee6565b6101208301525061014082013567ffffffffffffffff8111156116905761168f611484565b5b61169c84828501610ee6565b610140830152506101606116b28482850161149e565b610160830152506101806116c8848285016114c8565b610180830152506101a082013567ffffffffffffffff8111156116ee576116ed611484565b5b6116fa84828501610ee6565b6101a0830152506101c082013567ffffffffffffffff8111156117205761171f611484565b5b61172c84828501610ee6565b6101c0830152506101e082013567ffffffffffffffff81111561175257611751611484565b5b61175e84828501610ee6565b6101e08301525061020082013567ffffffffffffffff81111561178457611783611484565b5b61179084828501610ee6565b6102008301525092915050565b5f5f604083850312156117b3576117b2610ddf565b5b5f83013567ffffffffffffffff8111156117d0576117cf610de3565b5b6117dc858286016114dc565b92505060206117ed85828601610f3c565b9150509250929050565b5f5f6040838503121561180d5761180c610ddf565b5b5f61181a858286016113c4565b925050602061182b85828601610f3c565b9150509250929050565b61183e81610f13565b82525050565b5f6020820190506118575f830184611835565b92915050565b5f6020828403121561187257611871610ddf565b5b5f82013567ffffffffffffffff81111561188f5761188e610de3565b5b61189b84828501610ee6565b91505092915050565b7f4e487b71000000000000000000000000000000000000000000000000000000005f52602160045260245ffd5b601081106118e2576118e16118a4565b5b50565b5f8190506118f2826118d1565b919050565b5f611901826118e5565b9050919050565b611911816118f7565b82525050565b5f60208201905061192a5f830184611908565b92915050565b5f81905092915050565b5f61194482610d46565b61194e8185611930565b935061195e818560208601610d60565b80840191505092915050565b5f611975828461193a565b915081905092915050565b7f41646472657373206973206e6f7420666f756e640000000000000000000000005f82015250565b5f6119b4601483610d50565b91506119bf82611980565b602082019050919050565b5f6020820190508181035f8301526119e1816119a8565b9050919050565b5f815190506119f681611488565b92915050565b5f60208284031215611a1157611a10610ddf565b5b5f611a1e848285016119e8565b91505092915050565b5f67ffffffffffffffff821115611a4157611a40610def565b5b602082029050602081019050919050565b5f5ffd5b5f611a68611a6384610e67565b610e4d565b905082815260208101848484011115611a8457611a83610deb565b5b611a8f848285610d60565b509392505050565b5f82601f830112611aab57611aaa610de7565b5b8151611abb848260208601611a56565b91505092915050565b5f81519050611ad281610f26565b92915050565b5f81519050611ae6816114b2565b92915050565b5f6102208284031215611b0257611b01611480565b5b611b0d610220610e4d565b90505f611b1c84828501611ac4565b5f830152506020611b2f84828501611ac4565b602083015250604082015167ffffffffffffffff811115611b5357611b52611484565b5b611b5f84828501611a97565b604083015250606082015167ffffffffffffffff811115611b8357611b82611484565b5b611b8f84828501611a97565b6060830152506080611ba3848285016119e8565b60808301525060a0611bb7848285016119e8565b60a08301525060c082015167ffffffffffffffff811115611bdb57611bda611484565b5b611be784828501611a97565b60c08301525060e082015167ffffffffffffffff811115611c0b57611c0a611484565b5b611c1784828501611a97565b60e08301525061010082015167ffffffffffffffff811115611c3c57611c3b611484565b5b611c4884828501611a97565b6101008301525061012082015167ffffffffffffffff811115611c6e57611c6d611484565b5b611c7a84828501611a97565b6101208301525061014082015167ffffffffffffffff811115611ca057611c9f611484565b5b611cac84828501611a97565b61014083015250610160611cc2848285016119e8565b61016083015250610180611cd884828501611ad8565b610180830152506101a082015167ffffffffffffffff811115611cfe57611cfd611484565b5b611d0a84828501611a97565b6101a0830152506101c082015167ffffffffffffffff811115611d3057611d2f611484565b5b611d3c84828501611a97565b6101c0830152506101e082015167ffffffffffffffff811115611d6257611d61611484565b5b611d6e84828501611a97565b6101e08301525061020082015167ffffffffffffffff811115611d9457611d93611484565b5b611da084828501611a97565b6102008301525092915050565b5f60808284031215611dc257611dc1611480565b5b611dcc6080610e4d565b90505f82015167ffffffffffffffff811115611deb57611dea611484565b5b611df784828501611a97565b5f830152506020611e0a848285016119e8565b602083015250604082015167ffffffffffffffff811115611e2e57611e2d611484565b5b611e3a84828501611a97565b604083015250606082015167ffffffffffffffff811115611e5e57611e5d611484565b5b611e6a84828501611aec565b60608301525092915050565b5f611e88611e8384611a27565b610e4d565b90508083825260208201905060208402830185811115611eab57611eaa611a52565b5b835b81811015611ef257805167ffffffffffffffff811115611ed057611ecf610de7565b5b808601611edd8982611dad565b85526020850194505050602081019050611ead565b5050509392505050565b5f82601f830112611f1057611f0f610de7565b5b8151611f20848260208601611e76565b91505092915050565b5f60208284031215611f3e57611f3d610ddf565b5b5f82015167ffffffffffffffff811115611f5b57611f5a610de3565b5b611f6784828501611efc565b91505092915050565b5f6080820190508181035f830152611f888187610d7e565b90508181036020830152611f9c8186610d7e565b9050611fab6040830185611835565b611fb86060830184611458565b95945050505050565b5f61022083015f830151611fd75f860182611089565b506020830151611fea6020860182611089565b50604083015184820360408601526120028282611042565b9150506060830151848203606086015261201c8282611042565b9150506080830151612031608086018261107a565b5060a083015161204460a086018261107a565b5060c083015184820360c086015261205c8282611042565b91505060e083015184820360e08601526120768282611042565b9150506101008301518482036101008601526120928282611042565b9150506101208301518482036101208601526120ae8282611042565b9150506101408301518482036101408601526120ca8282611042565b9150506101608301516120e161016086018261107a565b506101808301516120f66101808601826110a3565b506101a08301518482036101a08601526121108282611042565b9150506101c08301518482036101c086015261212c8282611042565b9150506101e08301518482036101e08601526121488282611042565b9150506102008301518482036102008601526121648282611042565b9150508091505092915050565b5f6020820190508181035f8301526121898184611fc1565b905092915050565b5f819050919050565b5f6121b46121af6121aa84610f13565b612191565b610fd8565b9050919050565b6121c48161219a565b82525050565b6121d381611098565b82525050565b5f6060820190506121ec5f830186611835565b6121f960208301856121bb565b61220660408301846121ca565b949350505050565b7f4e487b71000000000000000000000000000000000000000000000000000000005f52601260045260245ffd5b7f4e487b71000000000000000000000000000000000000000000000000000000005f52601160045260245ffd5b5f61227282610f13565b915061227d83610f13565b92508261228d5761228c61220e565b5b828204905092915050565b5f6122a282610f13565b91506122ad83610f13565b92508282026122bb81610f13565b91508082146122cd576122cc61223b565b5b5092915050565b7f496e76616c696420696e74657276616c20737472696e670000000000000000005f82015250565b5f612308601783610d50565b9150612313826122d4565b602082019050919050565b5f6020820190508181035f830152612335816122fc565b9050919050565b5f6040820190508181035f8301526123548185610d7e565b90506123636020830184610fe1565b9392505050565b7f4e487b71000000000000000000000000000000000000000000000000000000005f52605160045260245ffdfe6080604052348015600e575f5ffd5b503360015f6101000a81548173ffffffffffffffffffffffffffffffffffffffff021916908373ffffffffffffffffffffffffffffffffffffffff160217905550611a3c8061005c5f395ff3fe608060405234801561000f575f5ffd5b506004361061004a575f3560e01c806348cbad6e1461004e578063be1c766b1461006c578063c45a01551461008a578063e2a77a4c146100a8575b5f5ffd5b6100566100c4565b6040516100639190611024565b60405180910390f35b610074610926565b6040516100819190611053565b60405180910390f35b610092610931565b60405161009f91906110ab565b60405180910390f35b6100c260048036038101906100bd91906110f8565b610956565b005b60605f805480602002602001604051908101604052809291908181526020015f905b8282101561091d578382905f5260205f2090601302016040518060800160405290815f820180546101169061116c565b80601f01602080910402602001604051908101604052809291908181526020018280546101429061116c565b801561018d5780601f106101645761010080835404028352916020019161018d565b820191905f5260205f20905b81548152906001019060200180831161017057829003601f168201915b50505050508152602001600182015481526020016002820180546101b09061116c565b80601f01602080910402602001604051908101604052809291908181526020018280546101dc9061116c565b80156102275780601f106101fe57610100808354040283529160200191610227565b820191905f5260205f20905b81548152906001019060200180831161020a57829003601f168201915b5050505050815260200160038201604051806102200160405290815f82015f9054906101000a900467ffffffffffffffff1667ffffffffffffffff1667ffffffffffffffff1681526020015f820160089054906101000a900467ffffffffffffffff1667ffffffffffffffff1667ffffffffffffffff1681526020016001820180546102b29061116c565b80601f01602080910402602001604051908101604052809291908181526020018280546102de9061116c565b80156103295780601f1061030057610100808354040283529160200191610329565b820191905f5260205f20905b81548152906001019060200180831161030c57829003601f168201915b505050505081526020016002820180546103429061116c565b80601f016020809104026020016040519081016040528092919081815260200182805461036e9061116c565b80156103b95780601f10610390576101008083540402835291602001916103b9565b820191905f5260205f20905b81548152906001019060200180831161039c57829003601f168201915b5050505050815260200160038201548152602001600482015481526020016005820180546103e69061116c565b80601f01602080910402602001604051908101604052809291908181526020018280546104129061116c565b801561045d5780601f106104345761010080835404028352916020019161045d565b820191905f5260205f20905b81548152906001019060200180831161044057829003601f168201915b505050505081526020016006820180546104769061116c565b80601f01602080910402602001604051908101604052809291908181526020018280546104a29061116c565b80156104ed5780601f106104c4576101008083540402835291602001916104ed565b820191905f5260205f20905b8154815290600101906020018083116104d057829003601f168201915b505050505081526020016007820180546105069061116c565b80601f01602080910402602001604051908101604052809291908181526020018280546105329061116c565b801561057d5780601f106105545761010080835404028352916020019161057d565b820191905f5260205f20905b81548152906001019060200180831161056057829003601f168201915b505050505081526020016008820180546105969061116c565b80601f01602080910402602001604051908101604052809291908181526020018280546105c29061116c565b801561060d5780601f106105e45761010080835404028352916020019161060d565b820191905f5260205f20905b8154815290600101906020018083116105f057829003601f168201915b505050505081526020016009820180546106269061116c565b80601f01602080910402602001604051908101604052809291908181526020018280546106529061116c565b801561069d5780601f106106745761010080835404028352916020019161069d565b820191905f5260205f20905b81548152906001019060200180831161068057829003601f168201915b50505050508152602001600a8201548152602001600b82015f9054906101000a900460ff16151515158152602001600c820180546106da9061116c565b80601f01602080910402602001604051908101604052809291908181526020018280546107069061116c565b80156107515780601f1061072857610100808354040283529160200191610751565b820191905f5260205f20905b81548152906001019060200180831161073457829003601f168201915b50505050508152602001600d8201805461076a9061116c565b80601f01602080910402602001604051908101604052809291908181526020018280546107969061116c565b80156107e15780601f106107b8576101008083540402835291602001916107e1565b820191905f5260205f20905b8154815290600101906020018083116107c457829003601f168201915b50505050508152602001600e820180546107fa9061116c565b80601f01602080910402602001604051908101604052809291908181526020018280546108269061116c565b80156108715780601f1061084857610100808354040283529160200191610871565b820191905f5260205f20905b81548152906001019060200180831161085457829003601f168201915b50505050508152602001600f8201805461088a9061116c565b80601f01602080910402602001604051908101604052809291908181526020018280546108b69061116c565b80156109015780601f106108d857610100808354040283529160200191610901565b820191905f5260205f20905b8154815290600101906020018083116108e457829003601f168201915b50505050508152505081525050815260200190600101906100e6565b50505050905090565b5f5f80549050905090565b60015f9054906101000a900473ffffffffffffffffffffffffffffffffffffffff1681565b5f6103e84261096591906111c9565b90505f60405180608001604052806040518060400160405280600581526020017f6b6c696e6500000000000000000000000000000000000000000000000000000081525081526020018381526020018480604001906109c49190611216565b8080601f0160208091040260200160405190810160405280939291908181526020018383808284375f81840152601f19601f82011690508083019250505050505050815260200184610a15906116eb565b81525090505f81908060018154018082558091505060019003905f5260205f2090601302015f909190919091505f820151815f019081610a55919061189d565b50602082015181600101556040820151816002019081610a75919061189d565b506060820151816003015f820151815f015f6101000a81548167ffffffffffffffff021916908367ffffffffffffffff1602179055506020820151815f0160086101000a81548167ffffffffffffffff021916908367ffffffffffffffff1602179055506040820151816001019081610aee919061189d565b506060820151816002019081610b04919061189d565b506080820151816003015560a0820151816004015560c0820151816005019081610b2e919061189d565b5060e0820151816006019081610b44919061189d565b50610100820151816007019081610b5b919061189d565b50610120820151816008019081610b72919061189d565b50610140820151816009019081610b89919061189d565b5061016082015181600a015561018082015181600b015f6101000a81548160ff0219169083151502179055506101a082015181600c019081610bcb919061189d565b506101c082015181600d019081610be2919061189d565b506101e082015181600e019081610bf9919061189d565b5061020082015181600f019081610c10919061189d565b50505050507f87be993750fd9f870bc535d97609df048e07430c47f26712536434958094f87382848060400190610c479190611216565b868060c00190610c579190611216565b888060e00190610c679190611216565b604051610c7a97969594939291906119a8565b60405180910390a1505050565b5f81519050919050565b5f82825260208201905092915050565b5f819050602082019050919050565b5f81519050919050565b5f82825260208201905092915050565b8281835e5f83830152505050565b5f601f19601f8301169050919050565b5f610cf282610cb0565b610cfc8185610cba565b9350610d0c818560208601610cca565b610d1581610cd8565b840191505092915050565b5f819050919050565b610d3281610d20565b82525050565b5f67ffffffffffffffff82169050919050565b610d5481610d38565b82525050565b5f8115159050919050565b610d6e81610d5a565b82525050565b5f61022083015f830151610d8a5f860182610d4b565b506020830151610d9d6020860182610d4b565b5060408301518482036040860152610db58282610ce8565b91505060608301518482036060860152610dcf8282610ce8565b9150506080830151610de46080860182610d29565b5060a0830151610df760a0860182610d29565b5060c083015184820360c0860152610e0f8282610ce8565b91505060e083015184820360e0860152610e298282610ce8565b915050610100830151848203610100860152610e458282610ce8565b915050610120830151848203610120860152610e618282610ce8565b915050610140830151848203610140860152610e7d8282610ce8565b915050610160830151610e94610160860182610d29565b50610180830151610ea9610180860182610d65565b506101a08301518482036101a0860152610ec38282610ce8565b9150506101c08301518482036101c0860152610edf8282610ce8565b9150506101e08301518482036101e0860152610efb8282610ce8565b915050610200830151848203610200860152610f178282610ce8565b9150508091505092915050565b5f608083015f8301518482035f860152610f3e8282610ce8565b9150506020830151610f536020860182610d29565b5060408301518482036040860152610f6b8282610ce8565b91505060608301518482036060860152610f858282610d74565b9150508091505092915050565b5f610f9d8383610f24565b905092915050565b5f602082019050919050565b5f610fbb82610c87565b610fc58185610c91565b935083602082028501610fd785610ca1565b805f5b858110156110125784840389528151610ff38582610f92565b9450610ffe83610fa5565b925060208a01995050600181019050610fda565b50829750879550505050505092915050565b5f6020820190508181035f83015261103c8184610fb1565b905092915050565b61104d81610d20565b82525050565b5f6020820190506110665f830184611044565b92915050565b5f73ffffffffffffffffffffffffffffffffffffffff82169050919050565b5f6110958261106c565b9050919050565b6110a58161108b565b82525050565b5f6020820190506110be5f83018461109c565b92915050565b5f604051905090565b5f5ffd5b5f5ffd5b5f5ffd5b5f61022082840312156110ef576110ee6110d5565b5b81905092915050565b5f6020828403121561110d5761110c6110cd565b5b5f82013567ffffffffffffffff81111561112a576111296110d1565b5b611136848285016110d9565b91505092915050565b7f4e487b71000000000000000000000000000000000000000000000000000000005f52602260045260245ffd5b5f600282049050600182168061118357607f821691505b6020821081036111965761119561113f565b5b50919050565b7f4e487b71000000000000000000000000000000000000000000000000000000005f52601160045260245ffd5b5f6111d382610d20565b91506111de83610d20565b92508282026111ec81610d20565b915082820484148315176112035761120261119c565b5b5092915050565b5f5ffd5b5f5ffd5b5f5ffd5b5f5f833560016020038436030381126112325761123161120a565b5b80840192508235915067ffffffffffffffff8211156112545761125361120e565b5b6020830192506001820236038313156112705761126f611212565b5b509250929050565b5f5ffd5b7f4e487b71000000000000000000000000000000000000000000000000000000005f52604160045260245ffd5b6112b282610cd8565b810181811067ffffffffffffffff821117156112d1576112d061127c565b5b80604052505050565b5f6112e36110c4565b90506112ef82826112a9565b919050565b5f5ffd5b61130181610d38565b811461130b575f5ffd5b50565b5f8135905061131c816112f8565b92915050565b5f5ffd5b5f5ffd5b5f67ffffffffffffffff8211156113445761134361127c565b5b61134d82610cd8565b9050602081019050919050565b828183375f83830152505050565b5f61137a6113758461132a565b6112da565b90508281526020810184848401111561139657611395611326565b5b6113a184828561135a565b509392505050565b5f82601f8301126113bd576113bc611322565b5b81356113cd848260208601611368565b91505092915050565b6113df81610d20565b81146113e9575f5ffd5b50565b5f813590506113fa816113d6565b92915050565b61140981610d5a565b8114611413575f5ffd5b50565b5f8135905061142481611400565b92915050565b5f61022082840312156114405761143f611278565b5b61144b6102206112da565b90505f61145a8482850161130e565b5f83015250602061146d8482850161130e565b602083015250604082013567ffffffffffffffff811115611491576114906112f4565b5b61149d848285016113a9565b604083015250606082013567ffffffffffffffff8111156114c1576114c06112f4565b5b6114cd848285016113a9565b60608301525060806114e1848285016113ec565b60808301525060a06114f5848285016113ec565b60a08301525060c082013567ffffffffffffffff811115611519576115186112f4565b5b611525848285016113a9565b60c08301525060e082013567ffffffffffffffff811115611549576115486112f4565b5b611555848285016113a9565b60e08301525061010082013567ffffffffffffffff81111561157a576115796112f4565b5b611586848285016113a9565b6101008301525061012082013567ffffffffffffffff8111156115ac576115ab6112f4565b5b6115b8848285016113a9565b6101208301525061014082013567ffffffffffffffff8111156115de576115dd6112f4565b5b6115ea848285016113a9565b61014083015250610160611600848285016113ec565b6101608301525061018061161684828501611416565b610180830152506101a082013567ffffffffffffffff81111561163c5761163b6112f4565b5b611648848285016113a9565b6101a0830152506101c082013567ffffffffffffffff81111561166e5761166d6112f4565b5b61167a848285016113a9565b6101c0830152506101e082013567ffffffffffffffff8111156116a05761169f6112f4565b5b6116ac848285016113a9565b6101e08301525061020082013567ffffffffffffffff8111156116d2576116d16112f4565b5b6116de848285016113a9565b6102008301525092915050565b5f6116f6368361142a565b9050919050565b5f819050815f5260205f209050919050565b5f6020601f8301049050919050565b5f82821b905092915050565b5f600883026117597fffffffffffffffffffffffffffffffffffffffffffffffffffffffffffffffff8261171e565b611763868361171e565b95508019841693508086168417925050509392505050565b5f819050919050565b5f61179e61179961179484610d20565b61177b565b610d20565b9050919050565b5f819050919050565b6117b783611784565b6117cb6117c3826117a5565b84845461172a565b825550505050565b5f5f905090565b6117e26117d3565b6117ed8184846117ae565b505050565b5b81811015611810576118055f826117da565b6001810190506117f3565b5050565b601f82111561185557611826816116fd565b61182f8461170f565b8101602085101561183e578190505b61185261184a8561170f565b8301826117f2565b50505b505050565b5f82821c905092915050565b5f6118755f198460080261185a565b1980831691505092915050565b5f61188d8383611866565b9150826002028217905092915050565b6118a682610cb0565b67ffffffffffffffff8111156118bf576118be61127c565b5b6118c9825461116c565b6118d4828285611814565b5f60209050601f831160018114611905575f84156118f3578287015190505b6118fd8582611882565b865550611964565b601f198416611913866116fd565b5f5b8281101561193a57848901518255600182019150602085019450602081019050611915565b868310156119575784890151611953601f891682611866565b8355505b6001600288020188555050505b505050505050565b5f82825260208201905092915050565b5f611987838561196c565b935061199483858461135a565b61199d83610cd8565b840190509392505050565b5f6080820190506119bb5f83018a611044565b81810360208301526119ce81888a61197c565b905081810360408301526119e381868861197c565b905081810360608301526119f881848661197c565b90509897505050505050505056fea26469706673582212202b3d1df90580b1ba467e88c2444a423153a1625e60110dcab7b1348fef58bf0a64736f6c634300081e0033a264697066735822122092af46db48acf485efe435f6f35d1364dad9181723b0b1450bf1652d1ba50e7264736f6c634300081e0033",
			"opcodes": "PUSH1 0x80 PUSH1 0x40 MSTORE CALLVALUE DUP1 ISZERO PUSH1 0xE JUMPI PUSH0 PUSH0 REVERT JUMPDEST POP PUSH2 0x3E65 DUP1 PUSH2 0x1C PUSH0 CODECOPY PUSH0 RETURN INVALID PUSH1 0x80 PUSH1 0x40 MSTORE CALLVALUE DUP1 ISZERO PUSH2 0xF JUMPI PUSH0 PUSH0 REVERT JUMPDEST POP PUSH1 0x4 CALLDATASIZE LT PUSH2 0x7B JUMPI PUSH0 CALLDATALOAD PUSH1 0xE0 SHR DUP1 PUSH4 0x5B3CB9D4 GT PUSH2 0x59 JUMPI DUP1 PUSH4 0x5B3CB9D4 EQ PUSH2 0xFD JUMPI DUP1 PUSH4 0x6A78B280 EQ PUSH2 0x12D JUMPI DUP1 PUSH4 0x8D412AD2 EQ PUSH2 0x149 JUMPI DUP1 PUSH4 0x93FAA992 EQ PUSH2 0x179 JUMPI PUSH2 0x7B JUMP JUMPDEST DUP1 PUSH4 0x19FF1D21 EQ PUSH2 0x7F JUMPI DUP1 PUSH4 0x256D106E EQ PUSH2 0x9D JUMPI DUP1 PUSH4 0x41356339 EQ PUSH2 0xCD JUMPI JUMPDEST PUSH0 PUSH0 REVERT JUMPDEST PUSH2 0x87 PUSH2 0x1A9 JUMP JUMPDEST PUSH1 0x40 MLOAD PUSH2 0x94 SWAP2 SWAP1 PUSH2 0xDB6 JUMP JUMPDEST PUSH1 0x40 MLOAD DUP1 SWAP2 SUB SWAP1 RETURN JUMPDEST PUSH2 0xB7 PUSH1 0x4 DUP1 CALLDATASIZE SUB DUP2 ADD SWAP1 PUSH2 0xB2 SWAP2 SWAP1 PUSH2 0xF50 JUMP JUMPDEST PUSH2 0x1E6 JUMP JUMPDEST PUSH1 0x40 MLOAD PUSH2 0xC4 SWAP2 SWAP1 PUSH2 0xFF0 JUMP JUMPDEST PUSH1 0x40 MLOAD DUP1 SWAP2 SUB SWAP1 RETURN JUMPDEST PUSH2 0xE7 PUSH1 0x4 DUP1 CALLDATASIZE SUB DUP2 ADD SWAP1 PUSH2 0xE2 SWAP2 SWAP1 PUSH2 0xF50 JUMP JUMPDEST PUSH2 0x39B JUMP JUMPDEST PUSH1 0x40 MLOAD PUSH2 0xF4 SWAP2 SWAP1 PUSH2 0x1362 JUMP JUMPDEST PUSH1 0x40 MLOAD DUP1 SWAP2 SUB SWAP1 RETURN JUMPDEST PUSH2 0x117 PUSH1 0x4 DUP1 CALLDATASIZE SUB DUP2 ADD SWAP1 PUSH2 0x112 SWAP2 SWAP1 PUSH2 0x13D8 JUMP JUMPDEST PUSH2 0x554 JUMP JUMPDEST PUSH1 0x40 MLOAD PUSH2 0x124 SWAP2 SWAP1 PUSH2 0x1467 JUMP JUMPDEST PUSH1 0x40 MLOAD DUP1 SWAP2 SUB SWAP1 RETURN JUMPDEST PUSH2 0x147 PUSH1 0x4 DUP1 CALLDATASIZE SUB DUP2 ADD SWAP1 PUSH2 0x142 SWAP2 SWAP1 PUSH2 0x179D JUMP JUMPDEST PUSH2 0x59B JUMP JUMPDEST STOP JUMPDEST PUSH2 0x163 PUSH1 0x4 DUP1 CALLDATASIZE SUB DUP2 ADD SWAP1 PUSH2 0x15E SWAP2 SWAP1 PUSH2 0x17F7 JUMP JUMPDEST PUSH2 0x8B2 JUMP JUMPDEST PUSH1 0x40 MLOAD PUSH2 0x170 SWAP2 SWAP1 PUSH2 0x1844 JUMP JUMPDEST PUSH1 0x40 MLOAD DUP1 SWAP2 SUB SWAP1 RETURN JUMPDEST PUSH2 0x193 PUSH1 0x4 DUP1 CALLDATASIZE SUB DUP2 ADD SWAP1 PUSH2 0x18E SWAP2 SWAP1 PUSH2 0x185D JUMP JUMPDEST PUSH2 0x8D5 JUMP JUMPDEST PUSH1 0x40 MLOAD PUSH2 0x1A0 SWAP2 SWAP1 PUSH2 0x1917 JUMP JUMPDEST PUSH1 0x40 MLOAD DUP1 SWAP2 SUB SWAP1 RETURN JUMPDEST PUSH1 0x60 PUSH1 0x40 MLOAD DUP1 PUSH1 0x40 ADD PUSH1 0x40 MSTORE DUP1 PUSH1 0x5 DUP2 MSTORE PUSH1 0x20 ADD PUSH32 0x68656C6C6F000000000000000000000000000000000000000000000000000000 DUP2 MSTORE POP SWAP1 POP SWAP1 JUMP JUMPDEST PUSH0 PUSH0 PUSH2 0x1F1 DUP5 PUSH2 0x8D5 JUMP JUMPDEST SWAP1 POP PUSH0 DUP6 PUSH1 0x40 MLOAD PUSH1 0x20 ADD PUSH2 0x205 SWAP2 SWAP1 PUSH2 0x196A JUMP JUMPDEST PUSH1 0x40 MLOAD PUSH1 0x20 DUP2 DUP4 SUB SUB DUP2 MSTORE SWAP1 PUSH1 0x40 MSTORE DUP1 MLOAD SWAP1 PUSH1 0x20 ADD KECCAK256 SWAP1 POP PUSH0 PUSH2 0x228 DUP4 DUP7 PUSH2 0x8B2 JUMP JUMPDEST SWAP1 POP PUSH0 PUSH0 PUSH0 DUP5 DUP2 MSTORE PUSH1 0x20 ADD SWAP1 DUP2 MSTORE PUSH1 0x20 ADD PUSH0 KECCAK256 PUSH0 DUP6 PUSH1 0xF DUP2 GT ISZERO PUSH2 0x24F JUMPI PUSH2 0x24E PUSH2 0x18A4 JUMP JUMPDEST JUMPDEST PUSH1 0xF DUP2 GT ISZERO PUSH2 0x261 JUMPI PUSH2 0x260 PUSH2 0x18A4 JUMP JUMPDEST JUMPDEST DUP2 MSTORE PUSH1 0x20 ADD SWAP1 DUP2 MSTORE PUSH1 0x20 ADD PUSH0 KECCAK256 PUSH0 DUP4 PUSH8 0xFFFFFFFFFFFFFFFF AND PUSH8 0xFFFFFFFFFFFFFFFF AND DUP2 MSTORE PUSH1 0x20 ADD SWAP1 DUP2 MSTORE PUSH1 0x20 ADD PUSH0 KECCAK256 PUSH0 SWAP1 SLOAD SWAP1 PUSH2 0x100 EXP SWAP1 DIV PUSH20 0xFFFFFFFFFFFFFFFFFFFFFFFFFFFFFFFFFFFFFFFF AND SWAP1 POP PUSH0 PUSH20 0xFFFFFFFFFFFFFFFFFFFFFFFFFFFFFFFFFFFFFFFF AND DUP2 PUSH20 0xFFFFFFFFFFFFFFFFFFFFFFFFFFFFFFFFFFFFFFFF AND SUB PUSH2 0x321 JUMPI PUSH1 0x40 MLOAD PUSH32 0x8C379A000000000000000000000000000000000000000000000000000000000 DUP2 MSTORE PUSH1 0x4 ADD PUSH2 0x318 SWAP1 PUSH2 0x19CA JUMP JUMPDEST PUSH1 0x40 MLOAD DUP1 SWAP2 SUB SWAP1 REVERT JUMPDEST DUP1 PUSH20 0xFFFFFFFFFFFFFFFFFFFFFFFFFFFFFFFFFFFFFFFF AND PUSH4 0xBE1C766B PUSH1 0x40 MLOAD DUP2 PUSH4 0xFFFFFFFF AND PUSH1 0xE0 SHL DUP2 MSTORE PUSH1 0x4 ADD PUSH1 0x20 PUSH1 0x40 MLOAD DUP1 DUP4 SUB DUP2 DUP7 GAS STATICCALL ISZERO DUP1 ISZERO PUSH2 0x36A JUMPI RETURNDATASIZE PUSH0 PUSH0 RETURNDATACOPY RETURNDATASIZE PUSH0 REVERT JUMPDEST POP POP POP POP PUSH1 0x40 MLOAD RETURNDATASIZE PUSH1 0x1F NOT PUSH1 0x1F DUP3 ADD AND DUP3 ADD DUP1 PUSH1 0x40 MSTORE POP DUP2 ADD SWAP1 PUSH2 0x38E SWAP2 SWAP1 PUSH2 0x19FC JUMP JUMPDEST SWAP5 POP POP POP POP POP SWAP4 SWAP3 POP POP POP JUMP JUMPDEST PUSH1 0x60 PUSH0 PUSH2 0x3A7 DUP5 PUSH2 0x8D5 JUMP JUMPDEST SWAP1 POP PUSH0 DUP6 PUSH1 0x40 MLOAD PUSH1 0x20 ADD PUSH2 0x3BB SWAP2 SWAP1 PUSH2 0x196A JUMP JUMPDEST PUSH1 0x40 MLOAD PUSH1 0x20 DUP2 DUP4 SUB SUB DUP2 MSTORE SWAP1 PUSH1 0x40 MSTORE DUP1 MLOAD SWAP1 PUSH1 0x20 ADD KECCAK256 SWAP1 POP PUSH0 PUSH2 0x3DE DUP4 DUP7 PUSH2 0x8B2 JUMP JUMPDEST SWAP1 POP PUSH0 PUSH0 PUSH0 DUP5 DUP2 MSTORE PUSH1 0x20 ADD SWAP1 DUP2 MSTORE PUSH1 0x20 ADD PUSH0 KECCAK256 PUSH0 DUP6 PUSH1 0xF DUP2 GT ISZERO PUSH2 0x405 JUMPI PUSH2 0x404 PUSH2 0x18A4 JUMP JUMPDEST JUMPDEST PUSH1 0xF DUP2 GT ISZERO PUSH2 0x417 JUMPI PUSH2 0x416 PUSH2 0x18A4 JUMP JUMPDEST JUMPDEST DUP2 MSTORE PUSH1 0x20 ADD SWAP1 DUP2 MSTORE PUSH1 0x20 ADD PUSH0 KECCAK256 PUSH0 DUP4 PUSH8 0xFFFFFFFFFFFFFFFF AND PUSH8 0xFFFFFFFFFFFFFFFF AND DUP2 MSTORE PUSH1 0x20 ADD SWAP1 DUP2 MSTORE PUSH1 0x20 ADD PUSH0 KECCAK256 PUSH0 SWAP1 SLOAD SWAP1 PUSH2 0x100 EXP SWAP1 DIV PUSH20 0xFFFFFFFFFFFFFFFFFFFFFFFFFFFFFFFFFFFFFFFF AND SWAP1 POP PUSH0 PUSH20 0xFFFFFFFFFFFFFFFFFFFFFFFFFFFFFFFFFFFFFFFF AND DUP2 PUSH20 0xFFFFFFFFFFFFFFFFFFFFFFFFFFFFFFFFFFFFFFFF AND SUB PUSH2 0x4D7 JUMPI PUSH1 0x40 MLOAD PUSH32 0x8C379A000000000000000000000000000000000000000000000000000000000 DUP2 MSTORE PUSH1 0x4 ADD PUSH2 0x4CE SWAP1 PUSH2 0x19CA JUMP JUMPDEST PUSH1 0x40 MLOAD DUP1 SWAP2 SUB SWAP1 REVERT JUMPDEST DUP1 PUSH20 0xFFFFFFFFFFFFFFFFFFFFFFFFFFFFFFFFFFFFFFFF AND PUSH4 0x48CBAD6E PUSH1 0x40 MLOAD DUP2 PUSH4 0xFFFFFFFF AND PUSH1 0xE0 SHL DUP2 MSTORE PUSH1 0x4 ADD PUSH0 PUSH1 0x40 MLOAD DUP1 DUP4 SUB DUP2 DUP7 GAS STATICCALL ISZERO DUP1 ISZERO PUSH2 0x51F JUMPI RETURNDATASIZE PUSH0 PUSH0 RETURNDATACOPY RETURNDATASIZE PUSH0 REVERT JUMPDEST POP POP POP POP PUSH1 0x40 MLOAD RETURNDATASIZE PUSH0 DUP3 RETURNDATACOPY RETURNDATASIZE PUSH1 0x1F NOT PUSH1 0x1F DUP3 ADD AND DUP3 ADD DUP1 PUSH1 0x40 MSTORE POP DUP2 ADD SWAP1 PUSH2 0x547 SWAP2 SWAP1 PUSH2 0x1F29 JUMP JUMPDEST SWAP5 POP POP POP POP POP SWAP4 SWAP3 POP POP POP JUMP JUMPDEST PUSH0 PUSH1 0x20 MSTORE DUP3 PUSH0 MSTORE PUSH1 0x40 PUSH0 KECCAK256 PUSH1 0x20 MSTORE DUP2 PUSH0 MSTORE PUSH1 0x40 PUSH0 KECCAK256 PUSH1 0x20 MSTORE DUP1 PUSH0 MSTORE PUSH1 0x40 PUSH0 KECCAK256 PUSH0 SWAP3 POP SWAP3 POP POP SWAP1 SLOAD SWAP1 PUSH2 0x100 EXP SWAP1 DIV PUSH20 0xFFFFFFFFFFFFFFFFFFFFFFFFFFFFFFFFFFFFFFFF AND DUP2 JUMP JUMPDEST PUSH0 PUSH2 0x5A9 DUP4 PUSH1 0x60 ADD MLOAD PUSH2 0x8D5 JUMP JUMPDEST SWAP1 POP PUSH0 DUP4 PUSH1 0x40 ADD MLOAD PUSH1 0x40 MLOAD PUSH1 0x20 ADD PUSH2 0x5C1 SWAP2 SWAP1 PUSH2 0x196A JUMP JUMPDEST PUSH1 0x40 MLOAD PUSH1 0x20 DUP2 DUP4 SUB SUB DUP2 MSTORE SWAP1 PUSH1 0x40 MSTORE DUP1 MLOAD SWAP1 PUSH1 0x20 ADD KECCAK256 SWAP1 POP PUSH0 PUSH2 0x5E4 DUP4 DUP6 PUSH2 0x8B2 JUMP JUMPDEST SWAP1 POP PUSH0 PUSH0 PUSH0 DUP5 DUP2 MSTORE PUSH1 0x20 ADD SWAP1 DUP2 MSTORE PUSH1 0x20 ADD PUSH0 KECCAK256 PUSH0 DUP6 PUSH1 0xF DUP2 GT ISZERO PUSH2 0x60B JUMPI PUSH2 0x60A PUSH2 0x18A4 JUMP JUMPDEST JUMPDEST PUSH1 0xF DUP2 GT ISZERO PUSH2 0x61D JUMPI PUSH2 0x61C PUSH2 0x18A4 JUMP JUMPDEST JUMPDEST DUP2 MSTORE PUSH1 0x20 ADD SWAP1 DUP2 MSTORE PUSH1 0x20 ADD PUSH0 KECCAK256 PUSH0 DUP4 PUSH8 0xFFFFFFFFFFFFFFFF AND PUSH8 0xFFFFFFFFFFFFFFFF AND DUP2 MSTORE PUSH1 0x20 ADD SWAP1 DUP2 MSTORE PUSH1 0x20 ADD PUSH0 KECCAK256 PUSH0 SWAP1 SLOAD SWAP1 PUSH2 0x100 EXP SWAP1 DIV PUSH20 0xFFFFFFFFFFFFFFFFFFFFFFFFFFFFFFFFFFFFFFFF AND SWAP1 POP PUSH0 PUSH20 0xFFFFFFFFFFFFFFFFFFFFFFFFFFFFFFFFFFFFFFFF AND DUP2 PUSH20 0xFFFFFFFFFFFFFFFFFFFFFFFFFFFFFFFFFFFFFFFF AND SUB PUSH2 0x7FD JUMPI PUSH2 0x6EB PUSH1 0x40 MLOAD DUP1 PUSH1 0x40 ADD PUSH1 0x40 MSTORE DUP1 PUSH1 0x15 DUP2 MSTORE PUSH1 0x20 ADD PUSH32 0x4372656174696E67206E65772073686172642061740000000000000000000000 DUP2 MSTORE POP DUP4 PUSH8 0xFFFFFFFFFFFFFFFF AND PUSH2 0xC4F JUMP JUMPDEST PUSH1 0x40 MLOAD PUSH2 0x6F7 SWAP1 PUSH2 0xD2F JUMP JUMPDEST PUSH1 0x40 MLOAD DUP1 SWAP2 SUB SWAP1 PUSH0 CREATE DUP1 ISZERO DUP1 ISZERO PUSH2 0x710 JUMPI RETURNDATASIZE PUSH0 PUSH0 RETURNDATACOPY RETURNDATASIZE PUSH0 REVERT JUMPDEST POP SWAP1 POP DUP1 PUSH0 PUSH0 DUP6 DUP2 MSTORE PUSH1 0x20 ADD SWAP1 DUP2 MSTORE PUSH1 0x20 ADD PUSH0 KECCAK256 PUSH0 DUP7 PUSH1 0xF DUP2 GT ISZERO PUSH2 0x738 JUMPI PUSH2 0x737 PUSH2 0x18A4 JUMP JUMPDEST JUMPDEST PUSH1 0xF DUP2 GT ISZERO PUSH2 0x74A JUMPI PUSH2 0x749 PUSH2 0x18A4 JUMP JUMPDEST JUMPDEST DUP2 MSTORE PUSH1 0x20 ADD SWAP1 DUP2 MSTORE PUSH1 0x20 ADD PUSH0 KECCAK256 PUSH0 DUP5 PUSH8 0xFFFFFFFFFFFFFFFF AND PUSH8 0xFFFFFFFFFFFFFFFF AND DUP2 MSTORE PUSH1 0x20 ADD SWAP1 DUP2 MSTORE PUSH1 0x20 ADD PUSH0 KECCAK256 PUSH0 PUSH2 0x100 EXP DUP2 SLOAD DUP2 PUSH20 0xFFFFFFFFFFFFFFFFFFFFFFFFFFFFFFFFFFFFFFFF MUL NOT AND SWAP1 DUP4 PUSH20 0xFFFFFFFFFFFFFFFFFFFFFFFFFFFFFFFFFFFFFFFF AND MUL OR SWAP1 SSTORE POP PUSH32 0x2A9E82BE7BC20784DCC707F4814CA404AC4A94DB66450718F7733B160FB62D86 DUP7 PUSH1 0x40 ADD MLOAD DUP8 PUSH1 0x60 ADD MLOAD DUP5 DUP5 PUSH1 0x40 MLOAD PUSH2 0x7F4 SWAP5 SWAP4 SWAP3 SWAP2 SWAP1 PUSH2 0x1F70 JUMP JUMPDEST PUSH1 0x40 MLOAD DUP1 SWAP2 SUB SWAP1 LOG1 JUMPDEST DUP1 PUSH20 0xFFFFFFFFFFFFFFFFFFFFFFFFFFFFFFFFFFFFFFFF AND PUSH4 0xE2A77A4C DUP8 PUSH1 0x40 MLOAD DUP3 PUSH4 0xFFFFFFFF AND PUSH1 0xE0 SHL DUP2 MSTORE PUSH1 0x4 ADD PUSH2 0x836 SWAP2 SWAP1 PUSH2 0x2171 JUMP JUMPDEST PUSH0 PUSH1 0x40 MLOAD DUP1 DUP4 SUB DUP2 PUSH0 DUP8 DUP1 EXTCODESIZE ISZERO DUP1 ISZERO PUSH2 0x84D JUMPI PUSH0 PUSH0 REVERT JUMPDEST POP GAS CALL ISZERO DUP1 ISZERO PUSH2 0x85F JUMPI RETURNDATASIZE PUSH0 PUSH0 RETURNDATACOPY RETURNDATASIZE PUSH0 REVERT JUMPDEST POP POP POP POP PUSH32 0x87E8B8309759AD52AF1AC44B43236A412E35355E803CE31234B6A2EA6B296CCF DUP7 PUSH0 ADD MLOAD DUP8 PUSH1 0x20 ADD MLOAD DUP9 PUSH2 0x180 ADD MLOAD PUSH1 0x40 MLOAD PUSH2 0x8A2 SWAP4 SWAP3 SWAP2 SWAP1 PUSH2 0x21D9 JUMP JUMPDEST PUSH1 0x40 MLOAD DUP1 SWAP2 SUB SWAP1 LOG1 POP POP POP POP POP POP JUMP JUMPDEST PUSH0 PUSH3 0x36EE80 DUP1 DUP4 PUSH2 0x8C3 SWAP2 SWAP1 PUSH2 0x2268 JUMP JUMPDEST PUSH2 0x8CD SWAP2 SWAP1 PUSH2 0x2298 JUMP JUMPDEST SWAP1 POP SWAP3 SWAP2 POP POP JUMP JUMPDEST PUSH0 PUSH0 DUP3 PUSH1 0x40 MLOAD PUSH1 0x20 ADD PUSH2 0x8E8 SWAP2 SWAP1 PUSH2 0x196A JUMP JUMPDEST PUSH1 0x40 MLOAD PUSH1 0x20 DUP2 DUP4 SUB SUB DUP2 MSTORE SWAP1 PUSH1 0x40 MSTORE DUP1 MLOAD SWAP1 PUSH1 0x20 ADD KECCAK256 SWAP1 POP PUSH32 0x6C9308EEEB72AAC61C6EE2086645EC6CF6638D86D97AF7B81BCF4073F3B95DBC DUP2 SUB PUSH2 0x930 JUMPI PUSH0 SWAP2 POP POP PUSH2 0xC4A JUMP JUMPDEST PUSH32 0x523A5C8A0F83A86997A616B324AE897D2FB6B3F5F68B3969331C12E0F00F9F25 DUP2 SUB PUSH2 0x961 JUMPI PUSH1 0x1 SWAP2 POP POP PUSH2 0xC4A JUMP JUMPDEST PUSH32 0x2A3FF2DFA7BD33B0E77D014065236A2F104B389B776645FDDB9E6A09EEA01441 DUP2 SUB PUSH2 0x992 JUMPI PUSH1 0x2 SWAP2 POP POP PUSH2 0xC4A JUMP JUMPDEST PUSH32 0xFCA740C51A7536A1FF8F65314E26B24CEE265D7626AD2E39318898F3D501AC22 DUP2 SUB PUSH2 0x9C3 JUMPI PUSH1 0x3 SWAP2 POP POP PUSH2 0xC4A JUMP JUMPDEST PUSH32 0x53CAD56A766A794BDC4FD49B262CD08FADF5C823F208FBF3F4EFB377C206EAAA DUP2 SUB PUSH2 0x9F4 JUMPI PUSH1 0x4 SWAP2 POP POP PUSH2 0xC4A JUMP JUMPDEST PUSH32 0xE99007FD2E286840683BFBAC2C1EA22A3B3C1592D603A9AE9AEE29CF77E941A7 DUP2 SUB PUSH2 0xA25 JUMPI PUSH1 0x5 SWAP2 POP POP PUSH2 0xC4A JUMP JUMPDEST PUSH32 0x1125479F824FC31D0CE674B130E57A9DCFDF2D344CA1EF3FC8BF5BD50F9FCCA9 DUP2 SUB PUSH2 0xA56 JUMPI PUSH1 0x6 SWAP2 POP POP PUSH2 0xC4A JUMP JUMPDEST PUSH32 0xA50F424F123435E4689C6436CE338980297CA65F2EE6B69A216F0561EE6CF400 DUP2 SUB PUSH2 0xA87 JUMPI PUSH1 0x7 SWAP2 POP POP PUSH2 0xC4A JUMP JUMPDEST PUSH32 0x9A433CC5A6AEE766B1BCE0A7DC72AB7B4FD031108E0C5AFEA91382F1B1955FC9 DUP2 SUB PUSH2 0xAB8 JUMPI PUSH1 0x8 SWAP2 POP POP PUSH2 0xC4A JUMP JUMPDEST PUSH32 0xA0B83CFA5501E126AC29F6BF7A07BD17E2D97916947EED361748E8E0AB0ABA4D DUP2 SUB PUSH2 0xAE9 JUMPI PUSH1 0x9 SWAP2 POP POP PUSH2 0xC4A JUMP JUMPDEST PUSH32 0xE21CCD2715134877C589435A9C98DEB14540FDF9E902AFEBF2163FE393E9C073 DUP2 SUB PUSH2 0xB1A JUMPI PUSH1 0xA SWAP2 POP POP PUSH2 0xC4A JUMP JUMPDEST PUSH32 0x11108661A127316F8F74DC39A66520C8EC16719ED867EE768AF67729BA3EC1D2 DUP2 SUB PUSH2 0xB4B JUMPI PUSH1 0xB SWAP2 POP POP PUSH2 0xC4A JUMP JUMPDEST PUSH32 0x7B2E5637DE8D5670BD5BE523FBCCC1DFEF88F0767EB2ABF5AC4A81DA61AE2002 DUP2 SUB PUSH2 0xB7C JUMPI PUSH1 0xC SWAP2 POP POP PUSH2 0xC4A JUMP JUMPDEST PUSH32 0x1CEF0646E7FE7CB478D3A93D2E07774697C9239D0EE8B4294B768C91AF329E66 DUP2 SUB PUSH2 0xBAD JUMPI PUSH1 0xD SWAP2 POP POP PUSH2 0xC4A JUMP JUMPDEST PUSH32 0x7CD5BA658B5DFF64585BFCB0DF7983749825E2292A4FF6DAF96207E6EB100FE7 DUP2 SUB PUSH2 0xBDE JUMPI PUSH1 0xE SWAP2 POP POP PUSH2 0xC4A JUMP JUMPDEST PUSH32 0xA390D73D5FD5E6A577D394328E26CE85589C6D8C382FBA9150FB136BBBF31FF7 DUP2 SUB PUSH2 0xC0F JUMPI PUSH1 0xF SWAP2 POP POP PUSH2 0xC4A JUMP JUMPDEST PUSH1 0x40 MLOAD PUSH32 0x8C379A000000000000000000000000000000000000000000000000000000000 DUP2 MSTORE PUSH1 0x4 ADD PUSH2 0xC41 SWAP1 PUSH2 0x231E JUMP JUMPDEST PUSH1 0x40 MLOAD DUP1 SWAP2 SUB SWAP1 REVERT JUMPDEST SWAP2 SWAP1 POP JUMP JUMPDEST PUSH2 0xCE7 DUP3 DUP3 PUSH1 0x40 MLOAD PUSH1 0x24 ADD PUSH2 0xC65 SWAP3 SWAP2 SWAP1 PUSH2 0x233C JUMP JUMPDEST PUSH1 0x40 MLOAD PUSH1 0x20 DUP2 DUP4 SUB SUB DUP2 MSTORE SWAP1 PUSH1 0x40 MSTORE PUSH32 0xB60E72CC00000000000000000000000000000000000000000000000000000000 PUSH28 0xFFFFFFFFFFFFFFFFFFFFFFFFFFFFFFFFFFFFFFFFFFFFFFFFFFFFFFFF NOT AND PUSH1 0x20 DUP3 ADD DUP1 MLOAD PUSH28 0xFFFFFFFFFFFFFFFFFFFFFFFFFFFFFFFFFFFFFFFFFFFFFFFFFFFFFFFF DUP4 DUP2 DUP4 AND OR DUP4 MSTORE POP POP POP POP PUSH2 0xCEB JUMP JUMPDEST POP POP JUMP JUMPDEST PUSH2 0xD02 DUP2 PUSH2 0xCFA PUSH2 0xD05 PUSH2 0xD24 JUMP JUMPDEST PUSH4 0xFFFFFFFF AND JUMP JUMPDEST POP JUMP JUMPDEST PUSH0 PUSH11 0x636F6E736F6C652E6C6F67 SWAP1 POP PUSH0 PUSH0 DUP4 MLOAD PUSH1 0x20 DUP6 ADD DUP5 GAS STATICCALL POP POP POP JUMP JUMPDEST PUSH2 0xD3C DUP2 SWAP1 POP SWAP2 SWAP1 POP JUMP JUMPDEST PUSH2 0x1A98 DUP1 PUSH2 0x2398 DUP4 CODECOPY ADD SWAP1 JUMP JUMPDEST PUSH2 0xD44 PUSH2 0x236A JUMP JUMPDEST JUMP JUMPDEST PUSH0 DUP2 MLOAD SWAP1 POP SWAP2 SWAP1 POP JUMP JUMPDEST PUSH0 DUP3 DUP3 MSTORE PUSH1 0x20 DUP3 ADD SWAP1 POP SWAP3 SWAP2 POP POP JUMP JUMPDEST DUP3 DUP2 DUP4 MCOPY PUSH0 DUP4 DUP4 ADD MSTORE POP POP POP JUMP JUMPDEST PUSH0 PUSH1 0x1F NOT PUSH1 0x1F DUP4 ADD AND SWAP1 POP SWAP2 SWAP1 POP JUMP JUMPDEST PUSH0 PUSH2 0xD88 DUP3 PUSH2 0xD46 JUMP JUMPDEST PUSH2 0xD92 DUP2 DUP6 PUSH2 0xD50 JUMP JUMPDEST SWAP4 POP PUSH2 0xDA2 DUP2 DUP6 PUSH1 0x20 DUP7 ADD PUSH2 0xD60 JUMP JUMPDEST PUSH2 0xDAB DUP2 PUSH2 0xD6E JUMP JUMPDEST DUP5 ADD SWAP2 POP POP SWAP3 SWAP2 POP POP JUMP JUMPDEST PUSH0 PUSH1 0x20 DUP3 ADD SWAP1 POP DUP2 DUP2 SUB PUSH0 DUP4 ADD MSTORE PUSH2 0xDCE DUP2 DUP5 PUSH2 0xD7E JUMP JUMPDEST SWAP1 POP SWAP3 SWAP2 POP POP JUMP JUMPDEST PUSH0 PUSH1 0x40 MLOAD SWAP1 POP SWAP1 JUMP JUMPDEST PUSH0 PUSH0 REVERT JUMPDEST PUSH0 PUSH0 REVERT JUMPDEST PUSH0 PUSH0 REVERT JUMPDEST PUSH0 PUSH0 REVERT JUMPDEST PUSH32 0x4E487B7100000000000000000000000000000000000000000000000000000000 PUSH0 MSTORE PUSH1 0x41 PUSH1 0x4 MSTORE PUSH1 0x24 PUSH0 REVERT JUMPDEST PUSH2 0xE25 DUP3 PUSH2 0xD6E JUMP JUMPDEST DUP2 ADD DUP2 DUP2 LT PUSH8 0xFFFFFFFFFFFFFFFF DUP3 GT OR ISZERO PUSH2 0xE44 JUMPI PUSH2 0xE43 PUSH2 0xDEF JUMP JUMPDEST JUMPDEST DUP1 PUSH1 0x40 MSTORE POP POP POP JUMP JUMPDEST PUSH0 PUSH2 0xE56 PUSH2 0xDD6 JUMP JUMPDEST SWAP1 POP PUSH2 0xE62 DUP3 DUP3 PUSH2 0xE1C JUMP JUMPDEST SWAP2 SWAP1 POP JUMP JUMPDEST PUSH0 PUSH8 0xFFFFFFFFFFFFFFFF DUP3 GT ISZERO PUSH2 0xE81 JUMPI PUSH2 0xE80 PUSH2 0xDEF JUMP JUMPDEST JUMPDEST PUSH2 0xE8A DUP3 PUSH2 0xD6E JUMP JUMPDEST SWAP1 POP PUSH1 0x20 DUP2 ADD SWAP1 POP SWAP2 SWAP1 POP JUMP JUMPDEST DUP3 DUP2 DUP4 CALLDATACOPY PUSH0 DUP4 DUP4 ADD MSTORE POP POP POP JUMP JUMPDEST PUSH0 PUSH2 0xEB7 PUSH2 0xEB2 DUP5 PUSH2 0xE67 JUMP JUMPDEST PUSH2 0xE4D JUMP JUMPDEST SWAP1 POP DUP3 DUP2 MSTORE PUSH1 0x20 DUP2 ADD DUP5 DUP5 DUP5 ADD GT ISZERO PUSH2 0xED3 JUMPI PUSH2 0xED2 PUSH2 0xDEB JUMP JUMPDEST JUMPDEST PUSH2 0xEDE DUP5 DUP3 DUP6 PUSH2 0xE97 JUMP JUMPDEST POP SWAP4 SWAP3 POP POP POP JUMP JUMPDEST PUSH0 DUP3 PUSH1 0x1F DUP4 ADD SLT PUSH2 0xEFA JUMPI PUSH2 0xEF9 PUSH2 0xDE7 JUMP JUMPDEST JUMPDEST DUP2 CALLDATALOAD PUSH2 0xF0A DUP5 DUP3 PUSH1 0x20 DUP7 ADD PUSH2 0xEA5 JUMP JUMPDEST SWAP2 POP POP SWAP3 SWAP2 POP POP JUMP JUMPDEST PUSH0 PUSH8 0xFFFFFFFFFFFFFFFF DUP3 AND SWAP1 POP SWAP2 SWAP1 POP JUMP JUMPDEST PUSH2 0xF2F DUP2 PUSH2 0xF13 JUMP JUMPDEST DUP2 EQ PUSH2 0xF39 JUMPI PUSH0 PUSH0 REVERT JUMPDEST POP JUMP JUMPDEST PUSH0 DUP2 CALLDATALOAD SWAP1 POP PUSH2 0xF4A DUP2 PUSH2 0xF26 JUMP JUMPDEST SWAP3 SWAP2 POP POP JUMP JUMPDEST PUSH0 PUSH0 PUSH0 PUSH1 0x60 DUP5 DUP7 SUB SLT ISZERO PUSH2 0xF67 JUMPI PUSH2 0xF66 PUSH2 0xDDF JUMP JUMPDEST JUMPDEST PUSH0 DUP5 ADD CALLDATALOAD PUSH8 0xFFFFFFFFFFFFFFFF DUP2 GT ISZERO PUSH2 0xF84 JUMPI PUSH2 0xF83 PUSH2 0xDE3 JUMP JUMPDEST JUMPDEST PUSH2 0xF90 DUP7 DUP3 DUP8 ADD PUSH2 0xEE6 JUMP JUMPDEST SWAP4 POP POP PUSH1 0x20 DUP5 ADD CALLDATALOAD PUSH8 0xFFFFFFFFFFFFFFFF DUP2 GT ISZERO PUSH2 0xFB1 JUMPI PUSH2 0xFB0 PUSH2 0xDE3 JUMP JUMPDEST JUMPDEST PUSH2 0xFBD DUP7 DUP3 DUP8 ADD PUSH2 0xEE6 JUMP JUMPDEST SWAP3 POP POP PUSH1 0x40 PUSH2 0xFCE DUP7 DUP3 DUP8 ADD PUSH2 0xF3C JUMP JUMPDEST SWAP2 POP POP SWAP3 POP SWAP3 POP SWAP3 JUMP JUMPDEST PUSH0 DUP2 SWAP1 POP SWAP2 SWAP1 POP JUMP JUMPDEST PUSH2 0xFEA DUP2 PUSH2 0xFD8 JUMP JUMPDEST DUP3 MSTORE POP POP JUMP JUMPDEST PUSH0 PUSH1 0x20 DUP3 ADD SWAP1 POP PUSH2 0x1003 PUSH0 DUP4 ADD DUP5 PUSH2 0xFE1 JUMP JUMPDEST SWAP3 SWAP2 POP POP JUMP JUMPDEST PUSH0 DUP2 MLOAD SWAP1 POP SWAP2 SWAP1 POP JUMP JUMPDEST PUSH0 DUP3 DUP3 MSTORE PUSH1 0x20 DUP3 ADD SWAP1 POP SWAP3 SWAP2 POP POP JUMP JUMPDEST PUSH0 DUP2 SWAP1 POP PUSH1 0x20 DUP3 ADD SWAP1 POP SWAP2 SWAP1 POP JUMP JUMPDEST PUSH0 DUP3 DUP3 MSTORE PUSH1 0x20 DUP3 ADD SWAP1 POP SWAP3 SWAP2 POP POP JUMP JUMPDEST PUSH0 PUSH2 0x104C DUP3 PUSH2 0xD46 JUMP JUMPDEST PUSH2 0x1056 DUP2 DUP6 PUSH2 0x1032 JUMP JUMPDEST SWAP4 POP PUSH2 0x1066 DUP2 DUP6 PUSH1 0x20 DUP7 ADD PUSH2 0xD60 JUMP JUMPDEST PUSH2 0x106F DUP2 PUSH2 0xD6E JUMP JUMPDEST DUP5 ADD SWAP2 POP POP SWAP3 SWAP2 POP POP JUMP JUMPDEST PUSH2 0x1083 DUP2 PUSH2 0xFD8 JUMP JUMPDEST DUP3 MSTORE POP POP JUMP JUMPDEST PUSH2 0x1092 DUP2 PUSH2 0xF13 JUMP JUMPDEST DUP3 MSTORE POP POP JUMP JUMPDEST PUSH0 DUP2 ISZERO ISZERO SWAP1 POP SWAP2 SWAP1 POP JUMP JUMPDEST PUSH2 0x10AC DUP2 PUSH2 0x1098 JUMP JUMPDEST DUP3 MSTORE POP POP JUMP JUMPDEST PUSH0 PUSH2 0x220 DUP4 ADD PUSH0 DUP4 ADD MLOAD PUSH2 0x10C8 PUSH0 DUP7 ADD DUP3 PUSH2 0x1089 JUMP JUMPDEST POP PUSH1 0x20 DUP4 ADD MLOAD PUSH2 0x10DB PUSH1 0x20 DUP7 ADD DUP3 PUSH2 0x1089 JUMP JUMPDEST POP PUSH1 0x40 DUP4 ADD MLOAD DUP5 DUP3 SUB PUSH1 0x40 DUP7 ADD MSTORE PUSH2 0x10F3 DUP3 DUP3 PUSH2 0x1042 JUMP JUMPDEST SWAP2 POP POP PUSH1 0x60 DUP4 ADD MLOAD DUP5 DUP3 SUB PUSH1 0x60 DUP7 ADD MSTORE PUSH2 0x110D DUP3 DUP3 PUSH2 0x1042 JUMP JUMPDEST SWAP2 POP POP PUSH1 0x80 DUP4 ADD MLOAD PUSH2 0x1122 PUSH1 0x80 DUP7 ADD DUP3 PUSH2 0x107A JUMP JUMPDEST POP PUSH1 0xA0 DUP4 ADD MLOAD PUSH2 0x1135 PUSH1 0xA0 DUP7 ADD DUP3 PUSH2 0x107A JUMP JUMPDEST POP PUSH1 0xC0 DUP4 ADD MLOAD DUP5 DUP3 SUB PUSH1 0xC0 DUP7 ADD MSTORE PUSH2 0x114D DUP3 DUP3 PUSH2 0x1042 JUMP JUMPDEST SWAP2 POP POP PUSH1 0xE0 DUP4 ADD MLOAD DUP5 DUP3 SUB PUSH1 0xE0 DUP7 ADD MSTORE PUSH2 0x1167 DUP3 DUP3 PUSH2 0x1042 JUMP JUMPDEST SWAP2 POP POP PUSH2 0x100 DUP4 ADD MLOAD DUP5 DUP3 SUB PUSH2 0x100 DUP7 ADD MSTORE PUSH2 0x1183 DUP3 DUP3 PUSH2 0x1042 JUMP JUMPDEST SWAP2 POP POP PUSH2 0x120 DUP4 ADD MLOAD DUP5 DUP3 SUB PUSH2 0x120 DUP7 ADD MSTORE PUSH2 0x119F DUP3 DUP3 PUSH2 0x1042 JUMP JUMPDEST SWAP2 POP POP PUSH2 0x140 DUP4 ADD MLOAD DUP5 DUP3 SUB PUSH2 0x140 DUP7 ADD MSTORE PUSH2 0x11BB DUP3 DUP3 PUSH2 0x1042 JUMP JUMPDEST SWAP2 POP POP PUSH2 0x160 DUP4 ADD MLOAD PUSH2 0x11D2 PUSH2 0x160 DUP7 ADD DUP3 PUSH2 0x107A JUMP JUMPDEST POP PUSH2 0x180 DUP4 ADD MLOAD PUSH2 0x11E7 PUSH2 0x180 DUP7 ADD DUP3 PUSH2 0x10A3 JUMP JUMPDEST POP PUSH2 0x1A0 DUP4 ADD MLOAD DUP5 DUP3 SUB PUSH2 0x1A0 DUP7 ADD MSTORE PUSH2 0x1201 DUP3 DUP3 PUSH2 0x1042 JUMP JUMPDEST SWAP2 POP POP PUSH2 0x1C0 DUP4 ADD MLOAD DUP5 DUP3 SUB PUSH2 0x1C0 DUP7 ADD MSTORE PUSH2 0x121D DUP3 DUP3 PUSH2 0x1042 JUMP JUMPDEST SWAP2 POP POP PUSH2 0x1E0 DUP4 ADD MLOAD DUP5 DUP3 SUB PUSH2 0x1E0 DUP7 ADD MSTORE PUSH2 0x1239 DUP3 DUP3 PUSH2 0x1042 JUMP JUMPDEST SWAP2 POP POP PUSH2 0x200 DUP4 ADD MLOAD DUP5 DUP3 SUB PUSH2 0x200 DUP7 ADD MSTORE PUSH2 0x1255 DUP3 DUP3 PUSH2 0x1042 JUMP JUMPDEST SWAP2 POP POP DUP1 SWAP2 POP POP SWAP3 SWAP2 POP POP JUMP JUMPDEST PUSH0 PUSH1 0x80 DUP4 ADD PUSH0 DUP4 ADD MLOAD DUP5 DUP3 SUB PUSH0 DUP7 ADD MSTORE PUSH2 0x127C DUP3 DUP3 PUSH2 0x1042 JUMP JUMPDEST SWAP2 POP POP PUSH1 0x20 DUP4 ADD MLOAD PUSH2 0x1291 PUSH1 0x20 DUP7 ADD DUP3 PUSH2 0x107A JUMP JUMPDEST POP PUSH1 0x40 DUP4 ADD MLOAD DUP5 DUP3 SUB PUSH1 0x40 DUP7 ADD MSTORE PUSH2 0x12A9 DUP3 DUP3 PUSH2 0x1042 JUMP JUMPDEST SWAP2 POP POP PUSH1 0x60 DUP4 ADD MLOAD DUP5 DUP3 SUB PUSH1 0x60 DUP7 ADD MSTORE PUSH2 0x12C3 DUP3 DUP3 PUSH2 0x10B2 JUMP JUMPDEST SWAP2 POP POP DUP1 SWAP2 POP POP SWAP3 SWAP2 POP POP JUMP JUMPDEST PUSH0 PUSH2 0x12DB DUP4 DUP4 PUSH2 0x1262 JUMP JUMPDEST SWAP1 POP SWAP3 SWAP2 POP POP JUMP JUMPDEST PUSH0 PUSH1 0x20 DUP3 ADD SWAP1 POP SWAP2 SWAP1 POP JUMP JUMPDEST PUSH0 PUSH2 0x12F9 DUP3 PUSH2 0x1009 JUMP JUMPDEST PUSH2 0x1303 DUP2 DUP6 PUSH2 0x1013 JUMP JUMPDEST SWAP4 POP DUP4 PUSH1 0x20 DUP3 MUL DUP6 ADD PUSH2 0x1315 DUP6 PUSH2 0x1023 JUMP JUMPDEST DUP1 PUSH0 JUMPDEST DUP6 DUP2 LT ISZERO PUSH2 0x1350 JUMPI DUP5 DUP5 SUB DUP10 MSTORE DUP2 MLOAD PUSH2 0x1331 DUP6 DUP3 PUSH2 0x12D0 JUMP JUMPDEST SWAP5 POP PUSH2 0x133C DUP4 PUSH2 0x12E3 JUMP JUMPDEST SWAP3 POP PUSH1 0x20 DUP11 ADD SWAP10 POP POP PUSH1 0x1 DUP2 ADD SWAP1 POP PUSH2 0x1318 JUMP JUMPDEST POP DUP3 SWAP8 POP DUP8 SWAP6 POP POP POP POP POP POP SWAP3 SWAP2 POP POP JUMP JUMPDEST PUSH0 PUSH1 0x20 DUP3 ADD SWAP1 POP DUP2 DUP2 SUB PUSH0 DUP4 ADD MSTORE PUSH2 0x137A DUP2 DUP5 PUSH2 0x12EF JUMP JUMPDEST SWAP1 POP SWAP3 SWAP2 POP POP JUMP JUMPDEST PUSH0 DUP2 SWAP1 POP SWAP2 SWAP1 POP JUMP JUMPDEST PUSH2 0x1394 DUP2 PUSH2 0x1382 JUMP JUMPDEST DUP2 EQ PUSH2 0x139E JUMPI PUSH0 PUSH0 REVERT JUMPDEST POP JUMP JUMPDEST PUSH0 DUP2 CALLDATALOAD SWAP1 POP PUSH2 0x13AF DUP2 PUSH2 0x138B JUMP JUMPDEST SWAP3 SWAP2 POP POP JUMP JUMPDEST PUSH1 0x10 DUP2 LT PUSH2 0x13C1 JUMPI PUSH0 PUSH0 REVERT JUMPDEST POP JUMP JUMPDEST PUSH0 DUP2 CALLDATALOAD SWAP1 POP PUSH2 0x13D2 DUP2 PUSH2 0x13B5 JUMP JUMPDEST SWAP3 SWAP2 POP POP JUMP JUMPDEST PUSH0 PUSH0 PUSH0 PUSH1 0x60 DUP5 DUP7 SUB SLT ISZERO PUSH2 0x13EF JUMPI PUSH2 0x13EE PUSH2 0xDDF JUMP JUMPDEST JUMPDEST PUSH0 PUSH2 0x13FC DUP7 DUP3 DUP8 ADD PUSH2 0x13A1 JUMP JUMPDEST SWAP4 POP POP PUSH1 0x20 PUSH2 0x140D DUP7 DUP3 DUP8 ADD PUSH2 0x13C4 JUMP JUMPDEST SWAP3 POP POP PUSH1 0x40 PUSH2 0x141E DUP7 DUP3 DUP8 ADD PUSH2 0xF3C JUMP JUMPDEST SWAP2 POP POP SWAP3 POP SWAP3 POP SWAP3 JUMP JUMPDEST PUSH0 PUSH20 0xFFFFFFFFFFFFFFFFFFFFFFFFFFFFFFFFFFFFFFFF DUP3 AND SWAP1 POP SWAP2 SWAP1 POP JUMP JUMPDEST PUSH0 PUSH2 0x1451 DUP3 PUSH2 0x1428 JUMP JUMPDEST SWAP1 POP SWAP2 SWAP1 POP JUMP JUMPDEST PUSH2 0x1461 DUP2 PUSH2 0x1447 JUMP JUMPDEST DUP3 MSTORE POP POP JUMP JUMPDEST PUSH0 PUSH1 0x20 DUP3 ADD SWAP1 POP PUSH2 0x147A PUSH0 DUP4 ADD DUP5 PUSH2 0x1458 JUMP JUMPDEST SWAP3 SWAP2 POP POP JUMP JUMPDEST PUSH0 PUSH0 REVERT JUMPDEST PUSH0 PUSH0 REVERT JUMPDEST PUSH2 0x1491 DUP2 PUSH2 0xFD8 JUMP JUMPDEST DUP2 EQ PUSH2 0x149B JUMPI PUSH0 PUSH0 REVERT JUMPDEST POP JUMP JUMPDEST PUSH0 DUP2 CALLDATALOAD SWAP1 POP PUSH2 0x14AC DUP2 PUSH2 0x1488 JUMP JUMPDEST SWAP3 SWAP2 POP POP JUMP JUMPDEST PUSH2 0x14BB DUP2 PUSH2 0x1098 JUMP JUMPDEST DUP2 EQ PUSH2 0x14C5 JUMPI PUSH0 PUSH0 REVERT JUMPDEST POP JUMP JUMPDEST PUSH0 DUP2 CALLDATALOAD SWAP1 POP PUSH2 0x14D6 DUP2 PUSH2 0x14B2 JUMP JUMPDEST SWAP3 SWAP2 POP POP JUMP JUMPDEST PUSH0 PUSH2 0x220 DUP3 DUP5 SUB SLT ISZERO PUSH2 0x14F2 JUMPI PUSH2 0x14F1 PUSH2 0x1480 JUMP JUMPDEST JUMPDEST PUSH2 0x14FD PUSH2 0x220 PUSH2 0xE4D JUMP JUMPDEST SWAP1 POP PUSH0 PUSH2 0x150C DUP5 DUP3 DUP6 ADD PUSH2 0xF3C JUMP JUMPDEST PUSH0 DUP4 ADD MSTORE POP PUSH1 0x20 PUSH2 0x151F DUP5 DUP3 DUP6 ADD PUSH2 0xF3C JUMP JUMPDEST PUSH1 0x20 DUP4 ADD MSTORE POP PUSH1 0x40 DUP3 ADD CALLDATALOAD PUSH8 0xFFFFFFFFFFFFFFFF DUP2 GT ISZERO PUSH2 0x1543 JUMPI PUSH2 0x1542 PUSH2 0x1484 JUMP JUMPDEST JUMPDEST PUSH2 0x154F DUP5 DUP3 DUP6 ADD PUSH2 0xEE6 JUMP JUMPDEST PUSH1 0x40 DUP4 ADD MSTORE POP PUSH1 0x60 DUP3 ADD CALLDATALOAD PUSH8 0xFFFFFFFFFFFFFFFF DUP2 GT ISZERO PUSH2 0x1573 JUMPI PUSH2 0x1572 PUSH2 0x1484 JUMP JUMPDEST JUMPDEST PUSH2 0x157F DUP5 DUP3 DUP6 ADD PUSH2 0xEE6 JUMP JUMPDEST PUSH1 0x60 DUP4 ADD MSTORE POP PUSH1 0x80 PUSH2 0x1593 DUP5 DUP3 DUP6 ADD PUSH2 0x149E JUMP JUMPDEST PUSH1 0x80 DUP4 ADD MSTORE POP PUSH1 0xA0 PUSH2 0x15A7 DUP5 DUP3 DUP6 ADD PUSH2 0x149E JUMP JUMPDEST PUSH1 0xA0 DUP4 ADD MSTORE POP PUSH1 0xC0 DUP3 ADD CALLDATALOAD PUSH8 0xFFFFFFFFFFFFFFFF DUP2 GT ISZERO PUSH2 0x15CB JUMPI PUSH2 0x15CA PUSH2 0x1484 JUMP JUMPDEST JUMPDEST PUSH2 0x15D7 DUP5 DUP3 DUP6 ADD PUSH2 0xEE6 JUMP JUMPDEST PUSH1 0xC0 DUP4 ADD MSTORE POP PUSH1 0xE0 DUP3 ADD CALLDATALOAD PUSH8 0xFFFFFFFFFFFFFFFF DUP2 GT ISZERO PUSH2 0x15FB JUMPI PUSH2 0x15FA PUSH2 0x1484 JUMP JUMPDEST JUMPDEST PUSH2 0x1607 DUP5 DUP3 DUP6 ADD PUSH2 0xEE6 JUMP JUMPDEST PUSH1 0xE0 DUP4 ADD MSTORE POP PUSH2 0x100 DUP3 ADD CALLDATALOAD PUSH8 0xFFFFFFFFFFFFFFFF DUP2 GT ISZERO PUSH2 0x162C JUMPI PUSH2 0x162B PUSH2 0x1484 JUMP JUMPDEST JUMPDEST PUSH2 0x1638 DUP5 DUP3 DUP6 ADD PUSH2 0xEE6 JUMP JUMPDEST PUSH2 0x100 DUP4 ADD MSTORE POP PUSH2 0x120 DUP3 ADD CALLDATALOAD PUSH8 0xFFFFFFFFFFFFFFFF DUP2 GT ISZERO PUSH2 0x165E JUMPI PUSH2 0x165D PUSH2 0x1484 JUMP JUMPDEST JUMPDEST PUSH2 0x166A DUP5 DUP3 DUP6 ADD PUSH2 0xEE6 JUMP JUMPDEST PUSH2 0x120 DUP4 ADD MSTORE POP PUSH2 0x140 DUP3 ADD CALLDATALOAD PUSH8 0xFFFFFFFFFFFFFFFF DUP2 GT ISZERO PUSH2 0x1690 JUMPI PUSH2 0x168F PUSH2 0x1484 JUMP JUMPDEST JUMPDEST PUSH2 0x169C DUP5 DUP3 DUP6 ADD PUSH2 0xEE6 JUMP JUMPDEST PUSH2 0x140 DUP4 ADD MSTORE POP PUSH2 0x160 PUSH2 0x16B2 DUP5 DUP3 DUP6 ADD PUSH2 0x149E JUMP JUMPDEST PUSH2 0x160 DUP4 ADD MSTORE POP PUSH2 0x180 PUSH2 0x16C8 DUP5 DUP3 DUP6 ADD PUSH2 0x14C8 JUMP JUMPDEST PUSH2 0x180 DUP4 ADD MSTORE POP PUSH2 0x1A0 DUP3 ADD CALLDATALOAD PUSH8 0xFFFFFFFFFFFFFFFF DUP2 GT ISZERO PUSH2 0x16EE JUMPI PUSH2 0x16ED PUSH2 0x1484 JUMP JUMPDEST JUMPDEST PUSH2 0x16FA DUP5 DUP3 DUP6 ADD PUSH2 0xEE6 JUMP JUMPDEST PUSH2 0x1A0 DUP4 ADD MSTORE POP PUSH2 0x1C0 DUP3 ADD CALLDATALOAD PUSH8 0xFFFFFFFFFFFFFFFF DUP2 GT ISZERO PUSH2 0x1720 JUMPI PUSH2 0x171F PUSH2 0x1484 JUMP JUMPDEST JUMPDEST PUSH2 0x172C DUP5 DUP3 DUP6 ADD PUSH2 0xEE6 JUMP JUMPDEST PUSH2 0x1C0 DUP4 ADD MSTORE POP PUSH2 0x1E0 DUP3 ADD CALLDATALOAD PUSH8 0xFFFFFFFFFFFFFFFF DUP2 GT ISZERO PUSH2 0x1752 JUMPI PUSH2 0x1751 PUSH2 0x1484 JUMP JUMPDEST JUMPDEST PUSH2 0x175E DUP5 DUP3 DUP6 ADD PUSH2 0xEE6 JUMP JUMPDEST PUSH2 0x1E0 DUP4 ADD MSTORE POP PUSH2 0x200 DUP3 ADD CALLDATALOAD PUSH8 0xFFFFFFFFFFFFFFFF DUP2 GT ISZERO PUSH2 0x1784 JUMPI PUSH2 0x1783 PUSH2 0x1484 JUMP JUMPDEST JUMPDEST PUSH2 0x1790 DUP5 DUP3 DUP6 ADD PUSH2 0xEE6 JUMP JUMPDEST PUSH2 0x200 DUP4 ADD MSTORE POP SWAP3 SWAP2 POP POP JUMP JUMPDEST PUSH0 PUSH0 PUSH1 0x40 DUP4 DUP6 SUB SLT ISZERO PUSH2 0x17B3 JUMPI PUSH2 0x17B2 PUSH2 0xDDF JUMP JUMPDEST JUMPDEST PUSH0 DUP4 ADD CALLDATALOAD PUSH8 0xFFFFFFFFFFFFFFFF DUP2 GT ISZERO PUSH2 0x17D0 JUMPI PUSH2 0x17CF PUSH2 0xDE3 JUMP JUMPDEST JUMPDEST PUSH2 0x17DC DUP6 DUP3 DUP7 ADD PUSH2 0x14DC JUMP JUMPDEST SWAP3 POP POP PUSH1 0x20 PUSH2 0x17ED DUP6 DUP3 DUP7 ADD PUSH2 0xF3C JUMP JUMPDEST SWAP2 POP POP SWAP3 POP SWAP3 SWAP1 POP JUMP JUMPDEST PUSH0 PUSH0 PUSH1 0x40 DUP4 DUP6 SUB SLT ISZERO PUSH2 0x180D JUMPI PUSH2 0x180C PUSH2 0xDDF JUMP JUMPDEST JUMPDEST PUSH0 PUSH2 0x181A DUP6 DUP3 DUP7 ADD PUSH2 0x13C4 JUMP JUMPDEST SWAP3 POP POP PUSH1 0x20 PUSH2 0x182B DUP6 DUP3 DUP7 ADD PUSH2 0xF3C JUMP JUMPDEST SWAP2 POP POP SWAP3 POP SWAP3 SWAP1 POP JUMP JUMPDEST PUSH2 0x183E DUP2 PUSH2 0xF13 JUMP JUMPDEST DUP3 MSTORE POP POP JUMP JUMPDEST PUSH0 PUSH1 0x20 DUP3 ADD SWAP1 POP PUSH2 0x1857 PUSH0 DUP4 ADD DUP5 PUSH2 0x1835 JUMP JUMPDEST SWAP3 SWAP2 POP POP JUMP JUMPDEST PUSH0 PUSH1 0x20 DUP3 DUP5 SUB SLT ISZERO PUSH2 0x1872 JUMPI PUSH2 0x1871 PUSH2 0xDDF JUMP JUMPDEST JUMPDEST PUSH0 DUP3 ADD CALLDATALOAD PUSH8 0xFFFFFFFFFFFFFFFF DUP2 GT ISZERO PUSH2 0x188F JUMPI PUSH2 0x188E PUSH2 0xDE3 JUMP JUMPDEST JUMPDEST PUSH2 0x189B DUP5 DUP3 DUP6 ADD PUSH2 0xEE6 JUMP JUMPDEST SWAP2 POP POP SWAP3 SWAP2 POP POP JUMP JUMPDEST PUSH32 0x4E487B7100000000000000000000000000000000000000000000000000000000 PUSH0 MSTORE PUSH1 0x21 PUSH1 0x4 MSTORE PUSH1 0x24 PUSH0 REVERT JUMPDEST PUSH1 0x10 DUP2 LT PUSH2 0x18E2 JUMPI PUSH2 0x18E1 PUSH2 0x18A4 JUMP JUMPDEST JUMPDEST POP JUMP JUMPDEST PUSH0 DUP2 SWAP1 POP PUSH2 0x18F2 DUP3 PUSH2 0x18D1 JUMP JUMPDEST SWAP2 SWAP1 POP JUMP JUMPDEST PUSH0 PUSH2 0x1901 DUP3 PUSH2 0x18E5 JUMP JUMPDEST SWAP1 POP SWAP2 SWAP1 POP JUMP JUMPDEST PUSH2 0x1911 DUP2 PUSH2 0x18F7 JUMP JUMPDEST DUP3 MSTORE POP POP JUMP JUMPDEST PUSH0 PUSH1 0x20 DUP3 ADD SWAP1 POP PUSH2 0x192A PUSH0 DUP4 ADD DUP5 PUSH2 0x1908 JUMP JUMPDEST SWAP3 SWAP2 POP POP JUMP JUMPDEST PUSH0 DUP2 SWAP1 POP SWAP3 SWAP2 POP POP JUMP JUMPDEST PUSH0 PUSH2 0x1944 DUP3 PUSH2 0xD46 JUMP JUMPDEST PUSH2 0x194E DUP2 DUP6 PUSH2 0x1930 JUMP JUMPDEST SWAP4 POP PUSH2 0x195E DUP2 DUP6 PUSH1 0x20 DUP7 ADD PUSH2 0xD60 JUMP JUMPDEST DUP1 DUP5 ADD SWAP2 POP POP SWAP3 SWAP2 POP POP JUMP JUMPDEST PUSH0 PUSH2 0x1975 DUP3 DUP5 PUSH2 0x193A JUMP JUMPDEST SWAP2 POP DUP2 SWAP1 POP SWAP3 SWAP2 POP POP JUMP JUMPDEST PUSH32 0x41646472657373206973206E6F7420666F756E64000000000000000000000000 PUSH0 DUP3 ADD MSTORE POP JUMP JUMPDEST PUSH0 PUSH2 0x19B4 PUSH1 0x14 DUP4 PUSH2 0xD50 JUMP JUMPDEST SWAP2 POP PUSH2 0x19BF DUP3 PUSH2 0x1980 JUMP JUMPDEST PUSH1 0x20 DUP3 ADD SWAP1 POP SWAP2 SWAP1 POP JUMP JUMPDEST PUSH0 PUSH1 0x20 DUP3 ADD SWAP1 POP DUP2 DUP2 SUB PUSH0 DUP4 ADD MSTORE PUSH2 0x19E1 DUP2 PUSH2 0x19A8 JUMP JUMPDEST SWAP1 POP SWAP2 SWAP1 POP JUMP JUMPDEST PUSH0 DUP2 MLOAD SWAP1 POP PUSH2 0x19F6 DUP2 PUSH2 0x1488 JUMP JUMPDEST SWAP3 SWAP2 POP POP JUMP JUMPDEST PUSH0 PUSH1 0x20 DUP3 DUP5 SUB SLT ISZERO PUSH2 0x1A11 JUMPI PUSH2 0x1A10 PUSH2 0xDDF JUMP JUMPDEST JUMPDEST PUSH0 PUSH2 0x1A1E DUP5 DUP3 DUP6 ADD PUSH2 0x19E8 JUMP JUMPDEST SWAP2 POP POP SWAP3 SWAP2 POP POP JUMP JUMPDEST PUSH0 PUSH8 0xFFFFFFFFFFFFFFFF DUP3 GT ISZERO PUSH2 0x1A41 JUMPI PUSH2 0x1A40 PUSH2 0xDEF JUMP JUMPDEST JUMPDEST PUSH1 0x20 DUP3 MUL SWAP1 POP PUSH1 0x20 DUP2 ADD SWAP1 POP SWAP2 SWAP1 POP JUMP JUMPDEST PUSH0 PUSH0 REVERT JUMPDEST PUSH0 PUSH2 0x1A68 PUSH2 0x1A63 DUP5 PUSH2 0xE67 JUMP JUMPDEST PUSH2 0xE4D JUMP JUMPDEST SWAP1 POP DUP3 DUP2 MSTORE PUSH1 0x20 DUP2 ADD DUP5 DUP5 DUP5 ADD GT ISZERO PUSH2 0x1A84 JUMPI PUSH2 0x1A83 PUSH2 0xDEB JUMP JUMPDEST JUMPDEST PUSH2 0x1A8F DUP5 DUP3 DUP6 PUSH2 0xD60 JUMP JUMPDEST POP SWAP4 SWAP3 POP POP POP JUMP JUMPDEST PUSH0 DUP3 PUSH1 0x1F DUP4 ADD SLT PUSH2 0x1AAB JUMPI PUSH2 0x1AAA PUSH2 0xDE7 JUMP JUMPDEST JUMPDEST DUP2 MLOAD PUSH2 0x1ABB DUP5 DUP3 PUSH1 0x20 DUP7 ADD PUSH2 0x1A56 JUMP JUMPDEST SWAP2 POP POP SWAP3 SWAP2 POP POP JUMP JUMPDEST PUSH0 DUP2 MLOAD SWAP1 POP PUSH2 0x1AD2 DUP2 PUSH2 0xF26 JUMP JUMPDEST SWAP3 SWAP2 POP POP JUMP JUMPDEST PUSH0 DUP2 MLOAD SWAP1 POP PUSH2 0x1AE6 DUP2 PUSH2 0x14B2 JUMP JUMPDEST SWAP3 SWAP2 POP POP JUMP JUMPDEST PUSH0 PUSH2 0x220 DUP3 DUP5 SUB SLT ISZERO PUSH2 0x1B02 JUMPI PUSH2 0x1B01 PUSH2 0x1480 JUMP JUMPDEST JUMPDEST PUSH2 0x1B0D PUSH2 0x220 PUSH2 0xE4D JUMP JUMPDEST SWAP1 POP PUSH0 PUSH2 0x1B1C DUP5 DUP3 DUP6 ADD PUSH2 0x1AC4 JUMP JUMPDEST PUSH0 DUP4 ADD MSTORE POP PUSH1 0x20 PUSH2 0x1B2F DUP5 DUP3 DUP6 ADD PUSH2 0x1AC4 JUMP JUMPDEST PUSH1 0x20 DUP4 ADD MSTORE POP PUSH1 0x40 DUP3 ADD MLOAD PUSH8 0xFFFFFFFFFFFFFFFF DUP2 GT ISZERO PUSH2 0x1B53 JUMPI PUSH2 0x1B52 PUSH2 0x1484 JUMP JUMPDEST JUMPDEST PUSH2 0x1B5F DUP5 DUP3 DUP6 ADD PUSH2 0x1A97 JUMP JUMPDEST PUSH1 0x40 DUP4 ADD MSTORE POP PUSH1 0x60 DUP3 ADD MLOAD PUSH8 0xFFFFFFFFFFFFFFFF DUP2 GT ISZERO PUSH2 0x1B83 JUMPI PUSH2 0x1B82 PUSH2 0x1484 JUMP JUMPDEST JUMPDEST PUSH2 0x1B8F DUP5 DUP3 DUP6 ADD PUSH2 0x1A97 JUMP JUMPDEST PUSH1 0x60 DUP4 ADD MSTORE POP PUSH1 0x80 PUSH2 0x1BA3 DUP5 DUP3 DUP6 ADD PUSH2 0x19E8 JUMP JUMPDEST PUSH1 0x80 DUP4 ADD MSTORE POP PUSH1 0xA0 PUSH2 0x1BB7 DUP5 DUP3 DUP6 ADD PUSH2 0x19E8 JUMP JUMPDEST PUSH1 0xA0 DUP4 ADD MSTORE POP PUSH1 0xC0 DUP3 ADD MLOAD PUSH8 0xFFFFFFFFFFFFFFFF DUP2 GT ISZERO PUSH2 0x1BDB JUMPI PUSH2 0x1BDA PUSH2 0x1484 JUMP JUMPDEST JUMPDEST PUSH2 0x1BE7 DUP5 DUP3 DUP6 ADD PUSH2 0x1A97 JUMP JUMPDEST PUSH1 0xC0 DUP4 ADD MSTORE POP PUSH1 0xE0 DUP3 ADD MLOAD PUSH8 0xFFFFFFFFFFFFFFFF DUP2 GT ISZERO PUSH2 0x1C0B JUMPI PUSH2 0x1C0A PUSH2 0x1484 JUMP JUMPDEST JUMPDEST PUSH2 0x1C17 DUP5 DUP3 DUP6 ADD PUSH2 0x1A97 JUMP JUMPDEST PUSH1 0xE0 DUP4 ADD MSTORE POP PUSH2 0x100 DUP3 ADD MLOAD PUSH8 0xFFFFFFFFFFFFFFFF DUP2 GT ISZERO PUSH2 0x1C3C JUMPI PUSH2 0x1C3B PUSH2 0x1484 JUMP JUMPDEST JUMPDEST PUSH2 0x1C48 DUP5 DUP3 DUP6 ADD PUSH2 0x1A97 JUMP JUMPDEST PUSH2 0x100 DUP4 ADD MSTORE POP PUSH2 0x120 DUP3 ADD MLOAD PUSH8 0xFFFFFFFFFFFFFFFF DUP2 GT ISZERO PUSH2 0x1C6E JUMPI PUSH2 0x1C6D PUSH2 0x1484 JUMP JUMPDEST JUMPDEST PUSH2 0x1C7A DUP5 DUP3 DUP6 ADD PUSH2 0x1A97 JUMP JUMPDEST PUSH2 0x120 DUP4 ADD MSTORE POP PUSH2 0x140 DUP3 ADD MLOAD PUSH8 0xFFFFFFFFFFFFFFFF DUP2 GT ISZERO PUSH2 0x1CA0 JUMPI PUSH2 0x1C9F PUSH2 0x1484 JUMP JUMPDEST JUMPDEST PUSH2 0x1CAC DUP5 DUP3 DUP6 ADD PUSH2 0x1A97 JUMP JUMPDEST PUSH2 0x140 DUP4 ADD MSTORE POP PUSH2 0x160 PUSH2 0x1CC2 DUP5 DUP3 DUP6 ADD PUSH2 0x19E8 JUMP JUMPDEST PUSH2 0x160 DUP4 ADD MSTORE POP PUSH2 0x180 PUSH2 0x1CD8 DUP5 DUP3 DUP6 ADD PUSH2 0x1AD8 JUMP JUMPDEST PUSH2 0x180 DUP4 ADD MSTORE POP PUSH2 0x1A0 DUP3 ADD MLOAD PUSH8 0xFFFFFFFFFFFFFFFF DUP2 GT ISZERO PUSH2 0x1CFE JUMPI PUSH2 0x1CFD PUSH2 0x1484 JUMP JUMPDEST JUMPDEST PUSH2 0x1D0A DUP5 DUP3 DUP6 ADD PUSH2 0x1A97 JUMP JUMPDEST PUSH2 0x1A0 DUP4 ADD MSTORE POP PUSH2 0x1C0 DUP3 ADD MLOAD PUSH8 0xFFFFFFFFFFFFFFFF DUP2 GT ISZERO PUSH2 0x1D30 JUMPI PUSH2 0x1D2F PUSH2 0x1484 JUMP JUMPDEST JUMPDEST PUSH2 0x1D3C DUP5 DUP3 DUP6 ADD PUSH2 0x1A97 JUMP JUMPDEST PUSH2 0x1C0 DUP4 ADD MSTORE POP PUSH2 0x1E0 DUP3 ADD MLOAD PUSH8 0xFFFFFFFFFFFFFFFF DUP2 GT ISZERO PUSH2 0x1D62 JUMPI PUSH2 0x1D61 PUSH2 0x1484 JUMP JUMPDEST JUMPDEST PUSH2 0x1D6E DUP5 DUP3 DUP6 ADD PUSH2 0x1A97 JUMP JUMPDEST PUSH2 0x1E0 DUP4 ADD MSTORE POP PUSH2 0x200 DUP3 ADD MLOAD PUSH8 0xFFFFFFFFFFFFFFFF DUP2 GT ISZERO PUSH2 0x1D94 JUMPI PUSH2 0x1D93 PUSH2 0x1484 JUMP JUMPDEST JUMPDEST PUSH2 0x1DA0 DUP5 DUP3 DUP6 ADD PUSH2 0x1A97 JUMP JUMPDEST PUSH2 0x200 DUP4 ADD MSTORE POP SWAP3 SWAP2 POP POP JUMP JUMPDEST PUSH0 PUSH1 0x80 DUP3 DUP5 SUB SLT ISZERO PUSH2 0x1DC2 JUMPI PUSH2 0x1DC1 PUSH2 0x1480 JUMP JUMPDEST JUMPDEST PUSH2 0x1DCC PUSH1 0x80 PUSH2 0xE4D JUMP JUMPDEST SWAP1 POP PUSH0 DUP3 ADD MLOAD PUSH8 0xFFFFFFFFFFFFFFFF DUP2 GT ISZERO PUSH2 0x1DEB JUMPI PUSH2 0x1DEA PUSH2 0x1484 JUMP JUMPDEST JUMPDEST PUSH2 0x1DF7 DUP5 DUP3 DUP6 ADD PUSH2 0x1A97 JUMP JUMPDEST PUSH0 DUP4 ADD MSTORE POP PUSH1 0x20 PUSH2 0x1E0A DUP5 DUP3 DUP6 ADD PUSH2 0x19E8 JUMP JUMPDEST PUSH1 0x20 DUP4 ADD MSTORE POP PUSH1 0x40 DUP3 ADD MLOAD PUSH8 0xFFFFFFFFFFFFFFFF DUP2 GT ISZERO PUSH2 0x1E2E JUMPI PUSH2 0x1E2D PUSH2 0x1484 JUMP JUMPDEST JUMPDEST PUSH2 0x1E3A DUP5 DUP3 DUP6 ADD PUSH2 0x1A97 JUMP JUMPDEST PUSH1 0x40 DUP4 ADD MSTORE POP PUSH1 0x60 DUP3 ADD MLOAD PUSH8 0xFFFFFFFFFFFFFFFF DUP2 GT ISZERO PUSH2 0x1E5E JUMPI PUSH2 0x1E5D PUSH2 0x1484 JUMP JUMPDEST JUMPDEST PUSH2 0x1E6A DUP5 DUP3 DUP6 ADD PUSH2 0x1AEC JUMP JUMPDEST PUSH1 0x60 DUP4 ADD MSTORE POP SWAP3 SWAP2 POP POP JUMP JUMPDEST PUSH0 PUSH2 0x1E88 PUSH2 0x1E83 DUP5 PUSH2 0x1A27 JUMP JUMPDEST PUSH2 0xE4D JUMP JUMPDEST SWAP1 POP DUP1 DUP4 DUP3 MSTORE PUSH1 0x20 DUP3 ADD SWAP1 POP PUSH1 0x20 DUP5 MUL DUP4 ADD DUP6 DUP2 GT ISZERO PUSH2 0x1EAB JUMPI PUSH2 0x1EAA PUSH2 0x1A52 JUMP JUMPDEST JUMPDEST DUP4 JUMPDEST DUP2 DUP2 LT ISZERO PUSH2 0x1EF2 JUMPI DUP1 MLOAD PUSH8 0xFFFFFFFFFFFFFFFF DUP2 GT ISZERO PUSH2 0x1ED0 JUMPI PUSH2 0x1ECF PUSH2 0xDE7 JUMP JUMPDEST JUMPDEST DUP1 DUP7 ADD PUSH2 0x1EDD DUP10 DUP3 PUSH2 0x1DAD JUMP JUMPDEST DUP6 MSTORE PUSH1 0x20 DUP6 ADD SWAP5 POP POP POP PUSH1 0x20 DUP2 ADD SWAP1 POP PUSH2 0x1EAD JUMP JUMPDEST POP POP POP SWAP4 SWAP3 POP POP POP JUMP JUMPDEST PUSH0 DUP3 PUSH1 0x1F DUP4 ADD SLT PUSH2 0x1F10 JUMPI PUSH2 0x1F0F PUSH2 0xDE7 JUMP JUMPDEST JUMPDEST DUP2 MLOAD PUSH2 0x1F20 DUP5 DUP3 PUSH1 0x20 DUP7 ADD PUSH2 0x1E76 JUMP JUMPDEST SWAP2 POP POP SWAP3 SWAP2 POP POP JUMP JUMPDEST PUSH0 PUSH1 0x20 DUP3 DUP5 SUB SLT ISZERO PUSH2 0x1F3E JUMPI PUSH2 0x1F3D PUSH2 0xDDF JUMP JUMPDEST JUMPDEST PUSH0 DUP3 ADD MLOAD PUSH8 0xFFFFFFFFFFFFFFFF DUP2 GT ISZERO PUSH2 0x1F5B JUMPI PUSH2 0x1F5A PUSH2 0xDE3 JUMP JUMPDEST JUMPDEST PUSH2 0x1F67 DUP5 DUP3 DUP6 ADD PUSH2 0x1EFC JUMP JUMPDEST SWAP2 POP POP SWAP3 SWAP2 POP POP JUMP JUMPDEST PUSH0 PUSH1 0x80 DUP3 ADD SWAP1 POP DUP2 DUP2 SUB PUSH0 DUP4 ADD MSTORE PUSH2 0x1F88 DUP2 DUP8 PUSH2 0xD7E JUMP JUMPDEST SWAP1 POP DUP2 DUP2 SUB PUSH1 0x20 DUP4 ADD MSTORE PUSH2 0x1F9C DUP2 DUP7 PUSH2 0xD7E JUMP JUMPDEST SWAP1 POP PUSH2 0x1FAB PUSH1 0x40 DUP4 ADD DUP6 PUSH2 0x1835 JUMP JUMPDEST PUSH2 0x1FB8 PUSH1 0x60 DUP4 ADD DUP5 PUSH2 0x1458 JUMP JUMPDEST SWAP6 SWAP5 POP POP POP POP POP JUMP JUMPDEST PUSH0 PUSH2 0x220 DUP4 ADD PUSH0 DUP4 ADD MLOAD PUSH2 0x1FD7 PUSH0 DUP7 ADD DUP3 PUSH2 0x1089 JUMP JUMPDEST POP PUSH1 0x20 DUP4 ADD MLOAD PUSH2 0x1FEA PUSH1 0x20 DUP7 ADD DUP3 PUSH2 0x1089 JUMP JUMPDEST POP PUSH1 0x40 DUP4 ADD MLOAD DUP5 DUP3 SUB PUSH1 0x40 DUP7 ADD MSTORE PUSH2 0x2002 DUP3 DUP3 PUSH2 0x1042 JUMP JUMPDEST SWAP2 POP POP PUSH1 0x60 DUP4 ADD MLOAD DUP5 DUP3 SUB PUSH1 0x60 DUP7 ADD MSTORE PUSH2 0x201C DUP3 DUP3 PUSH2 0x1042 JUMP JUMPDEST SWAP2 POP POP PUSH1 0x80 DUP4 ADD MLOAD PUSH2 0x2031 PUSH1 0x80 DUP7 ADD DUP3 PUSH2 0x107A JUMP JUMPDEST POP PUSH1 0xA0 DUP4 ADD MLOAD PUSH2 0x2044 PUSH1 0xA0 DUP7 ADD DUP3 PUSH2 0x107A JUMP JUMPDEST POP PUSH1 0xC0 DUP4 ADD MLOAD DUP5 DUP3 SUB PUSH1 0xC0 DUP7 ADD MSTORE PUSH2 0x205C DUP3 DUP3 PUSH2 0x1042 JUMP JUMPDEST SWAP2 POP POP PUSH1 0xE0 DUP4 ADD MLOAD DUP5 DUP3 SUB PUSH1 0xE0 DUP7 ADD MSTORE PUSH2 0x2076 DUP3 DUP3 PUSH2 0x1042 JUMP JUMPDEST SWAP2 POP POP PUSH2 0x100 DUP4 ADD MLOAD DUP5 DUP3 SUB PUSH2 0x100 DUP7 ADD MSTORE PUSH2 0x2092 DUP3 DUP3 PUSH2 0x1042 JUMP JUMPDEST SWAP2 POP POP PUSH2 0x120 DUP4 ADD MLOAD DUP5 DUP3 SUB PUSH2 0x120 DUP7 ADD MSTORE PUSH2 0x20AE DUP3 DUP3 PUSH2 0x1042 JUMP JUMPDEST SWAP2 POP POP PUSH2 0x140 DUP4 ADD MLOAD DUP5 DUP3 SUB PUSH2 0x140 DUP7 ADD MSTORE PUSH2 0x20CA DUP3 DUP3 PUSH2 0x1042 JUMP JUMPDEST SWAP2 POP POP PUSH2 0x160 DUP4 ADD MLOAD PUSH2 0x20E1 PUSH2 0x160 DUP7 ADD DUP3 PUSH2 0x107A JUMP JUMPDEST POP PUSH2 0x180 DUP4 ADD MLOAD PUSH2 0x20F6 PUSH2 0x180 DUP7 ADD DUP3 PUSH2 0x10A3 JUMP JUMPDEST POP PUSH2 0x1A0 DUP4 ADD MLOAD DUP5 DUP3 SUB PUSH2 0x1A0 DUP7 ADD MSTORE PUSH2 0x2110 DUP3 DUP3 PUSH2 0x1042 JUMP JUMPDEST SWAP2 POP POP PUSH2 0x1C0 DUP4 ADD MLOAD DUP5 DUP3 SUB PUSH2 0x1C0 DUP7 ADD MSTORE PUSH2 0x212C DUP3 DUP3 PUSH2 0x1042 JUMP JUMPDEST SWAP2 POP POP PUSH2 0x1E0 DUP4 ADD MLOAD DUP5 DUP3 SUB PUSH2 0x1E0 DUP7 ADD MSTORE PUSH2 0x2148 DUP3 DUP3 PUSH2 0x1042 JUMP JUMPDEST SWAP2 POP POP PUSH2 0x200 DUP4 ADD MLOAD DUP5 DUP3 SUB PUSH2 0x200 DUP7 ADD MSTORE PUSH2 0x2164 DUP3 DUP3 PUSH2 0x1042 JUMP JUMPDEST SWAP2 POP POP DUP1 SWAP2 POP POP SWAP3 SWAP2 POP POP JUMP JUMPDEST PUSH0 PUSH1 0x20 DUP3 ADD SWAP1 POP DUP2 DUP2 SUB PUSH0 DUP4 ADD MSTORE PUSH2 0x2189 DUP2 DUP5 PUSH2 0x1FC1 JUMP JUMPDEST SWAP1 POP SWAP3 SWAP2 POP POP JUMP JUMPDEST PUSH0 DUP2 SWAP1 POP SWAP2 SWAP1 POP JUMP JUMPDEST PUSH0 PUSH2 0x21B4 PUSH2 0x21AF PUSH2 0x21AA DUP5 PUSH2 0xF13 JUMP JUMPDEST PUSH2 0x2191 JUMP JUMPDEST PUSH2 0xFD8 JUMP JUMPDEST SWAP1 POP SWAP2 SWAP1 POP JUMP JUMPDEST PUSH2 0x21C4 DUP2 PUSH2 0x219A JUMP JUMPDEST DUP3 MSTORE POP POP JUMP JUMPDEST PUSH2 0x21D3 DUP2 PUSH2 0x1098 JUMP JUMPDEST DUP3 MSTORE POP POP JUMP JUMPDEST PUSH0 PUSH1 0x60 DUP3 ADD SWAP1 POP PUSH2 0x21EC PUSH0 DUP4 ADD DUP7 PUSH2 0x1835 JUMP JUMPDEST PUSH2 0x21F9 PUSH1 0x20 DUP4 ADD DUP6 PUSH2 0x21BB JUMP JUMPDEST PUSH2 0x2206 PUSH1 0x40 DUP4 ADD DUP5 PUSH2 0x21CA JUMP JUMPDEST SWAP5 SWAP4 POP POP POP POP JUMP JUMPDEST PUSH32 0x4E487B7100000000000000000000000000000000000000000000000000000000 PUSH0 MSTORE PUSH1 0x12 PUSH1 0x4 MSTORE PUSH1 0x24 PUSH0 REVERT JUMPDEST PUSH32 0x4E487B7100000000000000000000000000000000000000000000000000000000 PUSH0 MSTORE PUSH1 0x11 PUSH1 0x4 MSTORE PUSH1 0x24 PUSH0 REVERT JUMPDEST PUSH0 PUSH2 0x2272 DUP3 PUSH2 0xF13 JUMP JUMPDEST SWAP2 POP PUSH2 0x227D DUP4 PUSH2 0xF13 JUMP JUMPDEST SWAP3 POP DUP3 PUSH2 0x228D JUMPI PUSH2 0x228C PUSH2 0x220E JUMP JUMPDEST JUMPDEST DUP3 DUP3 DIV SWAP1 POP SWAP3 SWAP2 POP POP JUMP JUMPDEST PUSH0 PUSH2 0x22A2 DUP3 PUSH2 0xF13 JUMP JUMPDEST SWAP2 POP PUSH2 0x22AD DUP4 PUSH2 0xF13 JUMP JUMPDEST SWAP3 POP DUP3 DUP3 MUL PUSH2 0x22BB DUP2 PUSH2 0xF13 JUMP JUMPDEST SWAP2 POP DUP1 DUP3 EQ PUSH2 0x22CD JUMPI PUSH2 0x22CC PUSH2 0x223B JUMP JUMPDEST JUMPDEST POP SWAP3 SWAP2 POP POP JUMP JUMPDEST PUSH32 0x496E76616C696420696E74657276616C20737472696E67000000000000000000 PUSH0 DUP3 ADD MSTORE POP JUMP JUMPDEST PUSH0 PUSH2 0x2308 PUSH1 0x17 DUP4 PUSH2 0xD50 JUMP JUMPDEST SWAP2 POP PUSH2 0x2313 DUP3 PUSH2 0x22D4 JUMP JUMPDEST PUSH1 0x20 DUP3 ADD SWAP1 POP SWAP2 SWAP1 POP JUMP JUMPDEST PUSH0 PUSH1 0x20 DUP3 ADD SWAP1 POP DUP2 DUP2 SUB PUSH0 DUP4 ADD MSTORE PUSH2 0x2335 DUP2 PUSH2 0x22FC JUMP JUMPDEST SWAP1 POP SWAP2 SWAP1 POP JUMP JUMPDEST PUSH0 PUSH1 0x40 DUP3 ADD SWAP1 POP DUP2 DUP2 SUB PUSH0 DUP4 ADD MSTORE PUSH2 0x2354 DUP2 DUP6 PUSH2 0xD7E JUMP JUMPDEST SWAP1 POP PUSH2 0x2363 PUSH1 0x20 DUP4 ADD DUP5 PUSH2 0xFE1 JUMP JUMPDEST SWAP4 SWAP3 POP POP POP JUMP JUMPDEST PUSH32 0x4E487B7100000000000000000000000000000000000000000000000000000000 PUSH0 MSTORE PUSH1 0x51 PUSH1 0x4 MSTORE PUSH1 0x24 PUSH0 REVERT INVALID PUSH1 0x80 PUSH1 0x40 MSTORE CALLVALUE DUP1 ISZERO PUSH1 0xE JUMPI PUSH0 PUSH0 REVERT JUMPDEST POP CALLER PUSH1 0x1 PUSH0 PUSH2 0x100 EXP DUP2 SLOAD DUP2 PUSH20 0xFFFFFFFFFFFFFFFFFFFFFFFFFFFFFFFFFFFFFFFF MUL NOT AND SWAP1 DUP4 PUSH20 0xFFFFFFFFFFFFFFFFFFFFFFFFFFFFFFFFFFFFFFFF AND MUL OR SWAP1 SSTORE POP PUSH2 0x1A3C DUP1 PUSH2 0x5C PUSH0 CODECOPY PUSH0 RETURN INVALID PUSH1 0x80 PUSH1 0x40 MSTORE CALLVALUE DUP1 ISZERO PUSH2 0xF JUMPI PUSH0 PUSH0 REVERT JUMPDEST POP PUSH1 0x4 CALLDATASIZE LT PUSH2 0x4A JUMPI PUSH0 CALLDATALOAD PUSH1 0xE0 SHR DUP1 PUSH4 0x48CBAD6E EQ PUSH2 0x4E JUMPI DUP1 PUSH4 0xBE1C766B EQ PUSH2 0x6C JUMPI DUP1 PUSH4 0xC45A0155 EQ PUSH2 0x8A JUMPI DUP1 PUSH4 0xE2A77A4C EQ PUSH2 0xA8 JUMPI JUMPDEST PUSH0 PUSH0 REVERT JUMPDEST PUSH2 0x56 PUSH2 0xC4 JUMP JUMPDEST PUSH1 0x40 MLOAD PUSH2 0x63 SWAP2 SWAP1 PUSH2 0x1024 JUMP JUMPDEST PUSH1 0x40 MLOAD DUP1 SWAP2 SUB SWAP1 RETURN JUMPDEST PUSH2 0x74 PUSH2 0x926 JUMP JUMPDEST PUSH1 0x40 MLOAD PUSH2 0x81 SWAP2 SWAP1 PUSH2 0x1053 JUMP JUMPDEST PUSH1 0x40 MLOAD DUP1 SWAP2 SUB SWAP1 RETURN JUMPDEST PUSH2 0x92 PUSH2 0x931 JUMP JUMPDEST PUSH1 0x40 MLOAD PUSH2 0x9F SWAP2 SWAP1 PUSH2 0x10AB JUMP JUMPDEST PUSH1 0x40 MLOAD DUP1 SWAP2 SUB SWAP1 RETURN JUMPDEST PUSH2 0xC2 PUSH1 0x4 DUP1 CALLDATASIZE SUB DUP2 ADD SWAP1 PUSH2 0xBD SWAP2 SWAP1 PUSH2 0x10F8 JUMP JUMPDEST PUSH2 0x956 JUMP JUMPDEST STOP JUMPDEST PUSH1 0x60 PUSH0 DUP1 SLOAD DUP1 PUSH1 0x20 MUL PUSH1 0x20 ADD PUSH1 0x40 MLOAD SWAP1 DUP2 ADD PUSH1 0x40 MSTORE DUP1 SWAP3 SWAP2 SWAP1 DUP2 DUP2 MSTORE PUSH1 0x20 ADD PUSH0 SWAP1 JUMPDEST DUP3 DUP3 LT ISZERO PUSH2 0x91D JUMPI DUP4 DUP3 SWAP1 PUSH0 MSTORE PUSH1 0x20 PUSH0 KECCAK256 SWAP1 PUSH1 0x13 MUL ADD PUSH1 0x40 MLOAD DUP1 PUSH1 0x80 ADD PUSH1 0x40 MSTORE SWAP1 DUP2 PUSH0 DUP3 ADD DUP1 SLOAD PUSH2 0x116 SWAP1 PUSH2 0x116C JUMP JUMPDEST DUP1 PUSH1 0x1F ADD PUSH1 0x20 DUP1 SWAP2 DIV MUL PUSH1 0x20 ADD PUSH1 0x40 MLOAD SWAP1 DUP2 ADD PUSH1 0x40 MSTORE DUP1 SWAP3 SWAP2 SWAP1 DUP2 DUP2 MSTORE PUSH1 0x20 ADD DUP3 DUP1 SLOAD PUSH2 0x142 SWAP1 PUSH2 0x116C JUMP JUMPDEST DUP1 ISZERO PUSH2 0x18D JUMPI DUP1 PUSH1 0x1F LT PUSH2 0x164 JUMPI PUSH2 0x100 DUP1 DUP4 SLOAD DIV MUL DUP4 MSTORE SWAP2 PUSH1 0x20 ADD SWAP2 PUSH2 0x18D JUMP JUMPDEST DUP3 ADD SWAP2 SWAP1 PUSH0 MSTORE PUSH1 0x20 PUSH0 KECCAK256 SWAP1 JUMPDEST DUP2 SLOAD DUP2 MSTORE SWAP1 PUSH1 0x1 ADD SWAP1 PUSH1 0x20 ADD DUP1 DUP4 GT PUSH2 0x170 JUMPI DUP3 SWAP1 SUB PUSH1 0x1F AND DUP3 ADD SWAP2 JUMPDEST POP POP POP POP POP DUP2 MSTORE PUSH1 0x20 ADD PUSH1 0x1 DUP3 ADD SLOAD DUP2 MSTORE PUSH1 0x20 ADD PUSH1 0x2 DUP3 ADD DUP1 SLOAD PUSH2 0x1B0 SWAP1 PUSH2 0x116C JUMP JUMPDEST DUP1 PUSH1 0x1F ADD PUSH1 0x20 DUP1 SWAP2 DIV MUL PUSH1 0x20 ADD PUSH1 0x40 MLOAD SWAP1 DUP2 ADD PUSH1 0x40 MSTORE DUP1 SWAP3 SWAP2 SWAP1 DUP2 DUP2 MSTORE PUSH1 0x20 ADD DUP3 DUP1 SLOAD PUSH2 0x1DC SWAP1 PUSH2 0x116C JUMP JUMPDEST DUP1 ISZERO PUSH2 0x227 JUMPI DUP1 PUSH1 0x1F LT PUSH2 0x1FE JUMPI PUSH2 0x100 DUP1 DUP4 SLOAD DIV MUL DUP4 MSTORE SWAP2 PUSH1 0x20 ADD SWAP2 PUSH2 0x227 JUMP JUMPDEST DUP3 ADD SWAP2 SWAP1 PUSH0 MSTORE PUSH1 0x20 PUSH0 KECCAK256 SWAP1 JUMPDEST DUP2 SLOAD DUP2 MSTORE SWAP1 PUSH1 0x1 ADD SWAP1 PUSH1 0x20 ADD DUP1 DUP4 GT PUSH2 0x20A JUMPI DUP3 SWAP1 SUB PUSH1 0x1F AND DUP3 ADD SWAP2 JUMPDEST POP POP POP POP POP DUP2 MSTORE PUSH1 0x20 ADD PUSH1 0x3 DUP3 ADD PUSH1 0x40 MLOAD DUP1 PUSH2 0x220 ADD PUSH1 0x40 MSTORE SWAP1 DUP2 PUSH0 DUP3 ADD PUSH0 SWAP1 SLOAD SWAP1 PUSH2 0x100 EXP SWAP1 DIV PUSH8 0xFFFFFFFFFFFFFFFF AND PUSH8 0xFFFFFFFFFFFFFFFF AND PUSH8 0xFFFFFFFFFFFFFFFF AND DUP2 MSTORE PUSH1 0x20 ADD PUSH0 DUP3 ADD PUSH1 0x8 SWAP1 SLOAD SWAP1 PUSH2 0x100 EXP SWAP1 DIV PUSH8 0xFFFFFFFFFFFFFFFF AND PUSH8 0xFFFFFFFFFFFFFFFF AND PUSH8 0xFFFFFFFFFFFFFFFF AND DUP2 MSTORE PUSH1 0x20 ADD PUSH1 0x1 DUP3 ADD DUP1 SLOAD PUSH2 0x2B2 SWAP1 PUSH2 0x116C JUMP JUMPDEST DUP1 PUSH1 0x1F ADD PUSH1 0x20 DUP1 SWAP2 DIV MUL PUSH1 0x20 ADD PUSH1 0x40 MLOAD SWAP1 DUP2 ADD PUSH1 0x40 MSTORE DUP1 SWAP3 SWAP2 SWAP1 DUP2 DUP2 MSTORE PUSH1 0x20 ADD DUP3 DUP1 SLOAD PUSH2 0x2DE SWAP1 PUSH2 0x116C JUMP JUMPDEST DUP1 ISZERO PUSH2 0x329 JUMPI DUP1 PUSH1 0x1F LT PUSH2 0x300 JUMPI PUSH2 0x100 DUP1 DUP4 SLOAD DIV MUL DUP4 MSTORE SWAP2 PUSH1 0x20 ADD SWAP2 PUSH2 0x329 JUMP JUMPDEST DUP3 ADD SWAP2 SWAP1 PUSH0 MSTORE PUSH1 0x20 PUSH0 KECCAK256 SWAP1 JUMPDEST DUP2 SLOAD DUP2 MSTORE SWAP1 PUSH1 0x1 ADD SWAP1 PUSH1 0x20 ADD DUP1 DUP4 GT PUSH2 0x30C JUMPI DUP3 SWAP1 SUB PUSH1 0x1F AND DUP3 ADD SWAP2 JUMPDEST POP POP POP POP POP DUP2 MSTORE PUSH1 0x20 ADD PUSH1 0x2 DUP3 ADD DUP1 SLOAD PUSH2 0x342 SWAP1 PUSH2 0x116C JUMP JUMPDEST DUP1 PUSH1 0x1F ADD PUSH1 0x20 DUP1 SWAP2 DIV MUL PUSH1 0x20 ADD PUSH1 0x40 MLOAD SWAP1 DUP2 ADD PUSH1 0x40 MSTORE DUP1 SWAP3 SWAP2 SWAP1 DUP2 DUP2 MSTORE PUSH1 0x20 ADD DUP3 DUP1 SLOAD PUSH2 0x36E SWAP1 PUSH2 0x116C JUMP JUMPDEST DUP1 ISZERO PUSH2 0x3B9 JUMPI DUP1 PUSH1 0x1F LT PUSH2 0x390 JUMPI PUSH2 0x100 DUP1 DUP4 SLOAD DIV MUL DUP4 MSTORE SWAP2 PUSH1 0x20 ADD SWAP2 PUSH2 0x3B9 JUMP JUMPDEST DUP3 ADD SWAP2 SWAP1 PUSH0 MSTORE PUSH1 0x20 PUSH0 KECCAK256 SWAP1 JUMPDEST DUP2 SLOAD DUP2 MSTORE SWAP1 PUSH1 0x1 ADD SWAP1 PUSH1 0x20 ADD DUP1 DUP4 GT PUSH2 0x39C JUMPI DUP3 SWAP1 SUB PUSH1 0x1F AND DUP3 ADD SWAP2 JUMPDEST POP POP POP POP POP DUP2 MSTORE PUSH1 0x20 ADD PUSH1 0x3 DUP3 ADD SLOAD DUP2 MSTORE PUSH1 0x20 ADD PUSH1 0x4 DUP3 ADD SLOAD DUP2 MSTORE PUSH1 0x20 ADD PUSH1 0x5 DUP3 ADD DUP1 SLOAD PUSH2 0x3E6 SWAP1 PUSH2 0x116C JUMP JUMPDEST DUP1 PUSH1 0x1F ADD PUSH1 0x20 DUP1 SWAP2 DIV MUL PUSH1 0x20 ADD PUSH1 0x40 MLOAD SWAP1 DUP2 ADD PUSH1 0x40 MSTORE DUP1 SWAP3 SWAP2 SWAP1 DUP2 DUP2 MSTORE PUSH1 0x20 ADD DUP3 DUP1 SLOAD PUSH2 0x412 SWAP1 PUSH2 0x116C JUMP JUMPDEST DUP1 ISZERO PUSH2 0x45D JUMPI DUP1 PUSH1 0x1F LT PUSH2 0x434 JUMPI PUSH2 0x100 DUP1 DUP4 SLOAD DIV MUL DUP4 MSTORE SWAP2 PUSH1 0x20 ADD SWAP2 PUSH2 0x45D JUMP JUMPDEST DUP3 ADD SWAP2 SWAP1 PUSH0 MSTORE PUSH1 0x20 PUSH0 KECCAK256 SWAP1 JUMPDEST DUP2 SLOAD DUP2 MSTORE SWAP1 PUSH1 0x1 ADD SWAP1 PUSH1 0x20 ADD DUP1 DUP4 GT PUSH2 0x440 JUMPI DUP3 SWAP1 SUB PUSH1 0x1F AND DUP3 ADD SWAP2 JUMPDEST POP POP POP POP POP DUP2 MSTORE PUSH1 0x20 ADD PUSH1 0x6 DUP3 ADD DUP1 SLOAD PUSH2 0x476 SWAP1 PUSH2 0x116C JUMP JUMPDEST DUP1 PUSH1 0x1F ADD PUSH1 0x20 DUP1 SWAP2 DIV MUL PUSH1 0x20 ADD PUSH1 0x40 MLOAD SWAP1 DUP2 ADD PUSH1 0x40 MSTORE DUP1 SWAP3 SWAP2 SWAP1 DUP2 DUP2 MSTORE PUSH1 0x20 ADD DUP3 DUP1 SLOAD PUSH2 0x4A2 SWAP1 PUSH2 0x116C JUMP JUMPDEST DUP1 ISZERO PUSH2 0x4ED JUMPI DUP1 PUSH1 0x1F LT PUSH2 0x4C4 JUMPI PUSH2 0x100 DUP1 DUP4 SLOAD DIV MUL DUP4 MSTORE SWAP2 PUSH1 0x20 ADD SWAP2 PUSH2 0x4ED JUMP JUMPDEST DUP3 ADD SWAP2 SWAP1 PUSH0 MSTORE PUSH1 0x20 PUSH0 KECCAK256 SWAP1 JUMPDEST DUP2 SLOAD DUP2 MSTORE SWAP1 PUSH1 0x1 ADD SWAP1 PUSH1 0x20 ADD DUP1 DUP4 GT PUSH2 0x4D0 JUMPI DUP3 SWAP1 SUB PUSH1 0x1F AND DUP3 ADD SWAP2 JUMPDEST POP POP POP POP POP DUP2 MSTORE PUSH1 0x20 ADD PUSH1 0x7 DUP3 ADD DUP1 SLOAD PUSH2 0x506 SWAP1 PUSH2 0x116C JUMP JUMPDEST DUP1 PUSH1 0x1F ADD PUSH1 0x20 DUP1 SWAP2 DIV MUL PUSH1 0x20 ADD PUSH1 0x40 MLOAD SWAP1 DUP2 ADD PUSH1 0x40 MSTORE DUP1 SWAP3 SWAP2 SWAP1 DUP2 DUP2 MSTORE PUSH1 0x20 ADD DUP3 DUP1 SLOAD PUSH2 0x532 SWAP1 PUSH2 0x116C JUMP JUMPDEST DUP1 ISZERO PUSH2 0x57D JUMPI DUP1 PUSH1 0x1F LT PUSH2 0x554 JUMPI PUSH2 0x100 DUP1 DUP4 SLOAD DIV MUL DUP4 MSTORE SWAP2 PUSH1 0x20 ADD SWAP2 PUSH2 0x57D JUMP JUMPDEST DUP3 ADD SWAP2 SWAP1 PUSH0 MSTORE PUSH1 0x20 PUSH0 KECCAK256 SWAP1 JUMPDEST DUP2 SLOAD DUP2 MSTORE SWAP1 PUSH1 0x1 ADD SWAP1 PUSH1 0x20 ADD DUP1 DUP4 GT PUSH2 0x560 JUMPI DUP3 SWAP1 SUB PUSH1 0x1F AND DUP3 ADD SWAP2 JUMPDEST POP POP POP POP POP DUP2 MSTORE PUSH1 0x20 ADD PUSH1 0x8 DUP3 ADD DUP1 SLOAD PUSH2 0x596 SWAP1 PUSH2 0x116C JUMP JUMPDEST DUP1 PUSH1 0x1F ADD PUSH1 0x20 DUP1 SWAP2 DIV MUL PUSH1 0x20 ADD PUSH1 0x40 MLOAD SWAP1 DUP2 ADD PUSH1 0x40 MSTORE DUP1 SWAP3 SWAP2 SWAP1 DUP2 DUP2 MSTORE PUSH1 0x20 ADD DUP3 DUP1 SLOAD PUSH2 0x5C2 SWAP1 PUSH2 0x116C JUMP JUMPDEST DUP1 ISZERO PUSH2 0x60D JUMPI DUP1 PUSH1 0x1F LT PUSH2 0x5E4 JUMPI PUSH2 0x100 DUP1 DUP4 SLOAD DIV MUL DUP4 MSTORE SWAP2 PUSH1 0x20 ADD SWAP2 PUSH2 0x60D JUMP JUMPDEST DUP3 ADD SWAP2 SWAP1 PUSH0 MSTORE PUSH1 0x20 PUSH0 KECCAK256 SWAP1 JUMPDEST DUP2 SLOAD DUP2 MSTORE SWAP1 PUSH1 0x1 ADD SWAP1 PUSH1 0x20 ADD DUP1 DUP4 GT PUSH2 0x5F0 JUMPI DUP3 SWAP1 SUB PUSH1 0x1F AND DUP3 ADD SWAP2 JUMPDEST POP POP POP POP POP DUP2 MSTORE PUSH1 0x20 ADD PUSH1 0x9 DUP3 ADD DUP1 SLOAD PUSH2 0x626 SWAP1 PUSH2 0x116C JUMP JUMPDEST DUP1 PUSH1 0x1F ADD PUSH1 0x20 DUP1 SWAP2 DIV MUL PUSH1 0x20 ADD PUSH1 0x40 MLOAD SWAP1 DUP2 ADD PUSH1 0x40 MSTORE DUP1 SWAP3 SWAP2 SWAP1 DUP2 DUP2 MSTORE PUSH1 0x20 ADD DUP3 DUP1 SLOAD PUSH2 0x652 SWAP1 PUSH2 0x116C JUMP JUMPDEST DUP1 ISZERO PUSH2 0x69D JUMPI DUP1 PUSH1 0x1F LT PUSH2 0x674 JUMPI PUSH2 0x100 DUP1 DUP4 SLOAD DIV MUL DUP4 MSTORE SWAP2 PUSH1 0x20 ADD SWAP2 PUSH2 0x69D JUMP JUMPDEST DUP3 ADD SWAP2 SWAP1 PUSH0 MSTORE PUSH1 0x20 PUSH0 KECCAK256 SWAP1 JUMPDEST DUP2 SLOAD DUP2 MSTORE SWAP1 PUSH1 0x1 ADD SWAP1 PUSH1 0x20 ADD DUP1 DUP4 GT PUSH2 0x680 JUMPI DUP3 SWAP1 SUB PUSH1 0x1F AND DUP3 ADD SWAP2 JUMPDEST POP POP POP POP POP DUP2 MSTORE PUSH1 0x20 ADD PUSH1 0xA DUP3 ADD SLOAD DUP2 MSTORE PUSH1 0x20 ADD PUSH1 0xB DUP3 ADD PUSH0 SWAP1 SLOAD SWAP1 PUSH2 0x100 EXP SWAP1 DIV PUSH1 0xFF AND ISZERO ISZERO ISZERO ISZERO DUP2 MSTORE PUSH1 0x20 ADD PUSH1 0xC DUP3 ADD DUP1 SLOAD PUSH2 0x6DA SWAP1 PUSH2 0x116C JUMP JUMPDEST DUP1 PUSH1 0x1F ADD PUSH1 0x20 DUP1 SWAP2 DIV MUL PUSH1 0x20 ADD PUSH1 0x40 MLOAD SWAP1 DUP2 ADD PUSH1 0x40 MSTORE DUP1 SWAP3 SWAP2 SWAP1 DUP2 DUP2 MSTORE PUSH1 0x20 ADD DUP3 DUP1 SLOAD PUSH2 0x706 SWAP1 PUSH2 0x116C JUMP JUMPDEST DUP1 ISZERO PUSH2 0x751 JUMPI DUP1 PUSH1 0x1F LT PUSH2 0x728 JUMPI PUSH2 0x100 DUP1 DUP4 SLOAD DIV MUL DUP4 MSTORE SWAP2 PUSH1 0x20 ADD SWAP2 PUSH2 0x751 JUMP JUMPDEST DUP3 ADD SWAP2 SWAP1 PUSH0 MSTORE PUSH1 0x20 PUSH0 KECCAK256 SWAP1 JUMPDEST DUP2 SLOAD DUP2 MSTORE SWAP1 PUSH1 0x1 ADD SWAP1 PUSH1 0x20 ADD DUP1 DUP4 GT PUSH2 0x734 JUMPI DUP3 SWAP1 SUB PUSH1 0x1F AND DUP3 ADD SWAP2 JUMPDEST POP POP POP POP POP DUP2 MSTORE PUSH1 0x20 ADD PUSH1 0xD DUP3 ADD DUP1 SLOAD PUSH2 0x76A SWAP1 PUSH2 0x116C JUMP JUMPDEST DUP1 PUSH1 0x1F ADD PUSH1 0x20 DUP1 SWAP2 DIV MUL PUSH1 0x20 ADD PUSH1 0x40 MLOAD SWAP1 DUP2 ADD PUSH1 0x40 MSTORE DUP1 SWAP3 SWAP2 SWAP1 DUP2 DUP2 MSTORE PUSH1 0x20 ADD DUP3 DUP1 SLOAD PUSH2 0x796 SWAP1 PUSH2 0x116C JUMP JUMPDEST DUP1 ISZERO PUSH2 0x7E1 JUMPI DUP1 PUSH1 0x1F LT PUSH2 0x7B8 JUMPI PUSH2 0x100 DUP1 DUP4 SLOAD DIV MUL DUP4 MSTORE SWAP2 PUSH1 0x20 ADD SWAP2 PUSH2 0x7E1 JUMP JUMPDEST DUP3 ADD SWAP2 SWAP1 PUSH0 MSTORE PUSH1 0x20 PUSH0 KECCAK256 SWAP1 JUMPDEST DUP2 SLOAD DUP2 MSTORE SWAP1 PUSH1 0x1 ADD SWAP1 PUSH1 0x20 ADD DUP1 DUP4 GT PUSH2 0x7C4 JUMPI DUP3 SWAP1 SUB PUSH1 0x1F AND DUP3 ADD SWAP2 JUMPDEST POP POP POP POP POP DUP2 MSTORE PUSH1 0x20 ADD PUSH1 0xE DUP3 ADD DUP1 SLOAD PUSH2 0x7FA SWAP1 PUSH2 0x116C JUMP JUMPDEST DUP1 PUSH1 0x1F ADD PUSH1 0x20 DUP1 SWAP2 DIV MUL PUSH1 0x20 ADD PUSH1 0x40 MLOAD SWAP1 DUP2 ADD PUSH1 0x40 MSTORE DUP1 SWAP3 SWAP2 SWAP1 DUP2 DUP2 MSTORE PUSH1 0x20 ADD DUP3 DUP1 SLOAD PUSH2 0x826 SWAP1 PUSH2 0x116C JUMP JUMPDEST DUP1 ISZERO PUSH2 0x871 JUMPI DUP1 PUSH1 0x1F LT PUSH2 0x848 JUMPI PUSH2 0x100 DUP1 DUP4 SLOAD DIV MUL DUP4 MSTORE SWAP2 PUSH1 0x20 ADD SWAP2 PUSH2 0x871 JUMP JUMPDEST DUP3 ADD SWAP2 SWAP1 PUSH0 MSTORE PUSH1 0x20 PUSH0 KECCAK256 SWAP1 JUMPDEST DUP2 SLOAD DUP2 MSTORE SWAP1 PUSH1 0x1 ADD SWAP1 PUSH1 0x20 ADD DUP1 DUP4 GT PUSH2 0x854 JUMPI DUP3 SWAP1 SUB PUSH1 0x1F AND DUP3 ADD SWAP2 JUMPDEST POP POP POP POP POP DUP2 MSTORE PUSH1 0x20 ADD PUSH1 0xF DUP3 ADD DUP1 SLOAD PUSH2 0x88A SWAP1 PUSH2 0x116C JUMP JUMPDEST DUP1 PUSH1 0x1F ADD PUSH1 0x20 DUP1 SWAP2 DIV MUL PUSH1 0x20 ADD PUSH1 0x40 MLOAD SWAP1 DUP2 ADD PUSH1 0x40 MSTORE DUP1 SWAP3 SWAP2 SWAP1 DUP2 DUP2 MSTORE PUSH1 0x20 ADD DUP3 DUP1 SLOAD PUSH2 0x8B6 SWAP1 PUSH2 0x116C JUMP JUMPDEST DUP1 ISZERO PUSH2 0x901 JUMPI DUP1 PUSH1 0x1F LT PUSH2 0x8D8 JUMPI PUSH2 0x100 DUP1 DUP4 SLOAD DIV MUL DUP4 MSTORE SWAP2 PUSH1 0x20 ADD SWAP2 PUSH2 0x901 JUMP JUMPDEST DUP3 ADD SWAP2 SWAP1 PUSH0 MSTORE PUSH1 0x20 PUSH0 KECCAK256 SWAP1 JUMPDEST DUP2 SLOAD DUP2 MSTORE SWAP1 PUSH1 0x1 ADD SWAP1 PUSH1 0x20 ADD DUP1 DUP4 GT PUSH2 0x8E4 JUMPI DUP3 SWAP1 SUB PUSH1 0x1F AND DUP3 ADD SWAP2 JUMPDEST POP POP POP POP POP DUP2 MSTORE POP POP DUP2 MSTORE POP POP DUP2 MSTORE PUSH1 0x20 ADD SWAP1 PUSH1 0x1 ADD SWAP1 PUSH2 0xE6 JUMP JUMPDEST POP POP POP POP SWAP1 POP SWAP1 JUMP JUMPDEST PUSH0 PUSH0 DUP1 SLOAD SWAP1 POP SWAP1 POP SWAP1 JUMP JUMPDEST PUSH1 0x1 PUSH0 SWAP1 SLOAD SWAP1 PUSH2 0x100 EXP SWAP1 DIV PUSH20 0xFFFFFFFFFFFFFFFFFFFFFFFFFFFFFFFFFFFFFFFF AND DUP2 JUMP JUMPDEST PUSH0 PUSH2 0x3E8 TIMESTAMP PUSH2 0x965 SWAP2 SWAP1 PUSH2 0x11C9 JUMP JUMPDEST SWAP1 POP PUSH0 PUSH1 0x40 MLOAD DUP1 PUSH1 0x80 ADD PUSH1 0x40 MSTORE DUP1 PUSH1 0x40 MLOAD DUP1 PUSH1 0x40 ADD PUSH1 0x40 MSTORE DUP1 PUSH1 0x5 DUP2 MSTORE PUSH1 0x20 ADD PUSH32 0x6B6C696E65000000000000000000000000000000000000000000000000000000 DUP2 MSTORE POP DUP2 MSTORE PUSH1 0x20 ADD DUP4 DUP2 MSTORE PUSH1 0x20 ADD DUP5 DUP1 PUSH1 0x40 ADD SWAP1 PUSH2 0x9C4 SWAP2 SWAP1 PUSH2 0x1216 JUMP JUMPDEST DUP1 DUP1 PUSH1 0x1F ADD PUSH1 0x20 DUP1 SWAP2 DIV MUL PUSH1 0x20 ADD PUSH1 0x40 MLOAD SWAP1 DUP2 ADD PUSH1 0x40 MSTORE DUP1 SWAP4 SWAP3 SWAP2 SWAP1 DUP2 DUP2 MSTORE PUSH1 0x20 ADD DUP4 DUP4 DUP1 DUP3 DUP5 CALLDATACOPY PUSH0 DUP2 DUP5 ADD MSTORE PUSH1 0x1F NOT PUSH1 0x1F DUP3 ADD AND SWAP1 POP DUP1 DUP4 ADD SWAP3 POP POP POP POP POP POP POP DUP2 MSTORE PUSH1 0x20 ADD DUP5 PUSH2 0xA15 SWAP1 PUSH2 0x16EB JUMP JUMPDEST DUP2 MSTORE POP SWAP1 POP PUSH0 DUP2 SWAP1 DUP1 PUSH1 0x1 DUP2 SLOAD ADD DUP1 DUP3 SSTORE DUP1 SWAP2 POP POP PUSH1 0x1 SWAP1 SUB SWAP1 PUSH0 MSTORE PUSH1 0x20 PUSH0 KECCAK256 SWAP1 PUSH1 0x13 MUL ADD PUSH0 SWAP1 SWAP2 SWAP1 SWAP2 SWAP1 SWAP2 POP PUSH0 DUP3 ADD MLOAD DUP2 PUSH0 ADD SWAP1 DUP2 PUSH2 0xA55 SWAP2 SWAP1 PUSH2 0x189D JUMP JUMPDEST POP PUSH1 0x20 DUP3 ADD MLOAD DUP2 PUSH1 0x1 ADD SSTORE PUSH1 0x40 DUP3 ADD MLOAD DUP2 PUSH1 0x2 ADD SWAP1 DUP2 PUSH2 0xA75 SWAP2 SWAP1 PUSH2 0x189D JUMP JUMPDEST POP PUSH1 0x60 DUP3 ADD MLOAD DUP2 PUSH1 0x3 ADD PUSH0 DUP3 ADD MLOAD DUP2 PUSH0 ADD PUSH0 PUSH2 0x100 EXP DUP2 SLOAD DUP2 PUSH8 0xFFFFFFFFFFFFFFFF MUL NOT AND SWAP1 DUP4 PUSH8 0xFFFFFFFFFFFFFFFF AND MUL OR SWAP1 SSTORE POP PUSH1 0x20 DUP3 ADD MLOAD DUP2 PUSH0 ADD PUSH1 0x8 PUSH2 0x100 EXP DUP2 SLOAD DUP2 PUSH8 0xFFFFFFFFFFFFFFFF MUL NOT AND SWAP1 DUP4 PUSH8 0xFFFFFFFFFFFFFFFF AND MUL OR SWAP1 SSTORE POP PUSH1 0x40 DUP3 ADD MLOAD DUP2 PUSH1 0x1 ADD SWAP1 DUP2 PUSH2 0xAEE SWAP2 SWAP1 PUSH2 0x189D JUMP JUMPDEST POP PUSH1 0x60 DUP3 ADD MLOAD DUP2 PUSH1 0x2 ADD SWAP1 DUP2 PUSH2 0xB04 SWAP2 SWAP1 PUSH2 0x189D JUMP JUMPDEST POP PUSH1 0x80 DUP3 ADD MLOAD DUP2 PUSH1 0x3 ADD SSTORE PUSH1 0xA0 DUP3 ADD MLOAD DUP2 PUSH1 0x4 ADD SSTORE PUSH1 0xC0 DUP3 ADD MLOAD DUP2 PUSH1 0x5 ADD SWAP1 DUP2 PUSH2 0xB2E SWAP2 SWAP1 PUSH2 0x189D JUMP JUMPDEST POP PUSH1 0xE0 DUP3 ADD MLOAD DUP2 PUSH1 0x6 ADD SWAP1 DUP2 PUSH2 0xB44 SWAP2 SWAP1 PUSH2 0x189D JUMP JUMPDEST POP PUSH2 0x100 DUP3 ADD MLOAD DUP2 PUSH1 0x7 ADD SWAP1 DUP2 PUSH2 0xB5B SWAP2 SWAP1 PUSH2 0x189D JUMP JUMPDEST POP PUSH2 0x120 DUP3 ADD MLOAD DUP2 PUSH1 0x8 ADD SWAP1 DUP2 PUSH2 0xB72 SWAP2 SWAP1 PUSH2 0x189D JUMP JUMPDEST POP PUSH2 0x140 DUP3 ADD MLOAD DUP2 PUSH1 0x9 ADD SWAP1 DUP2 PUSH2 0xB89 SWAP2 SWAP1 PUSH2 0x189D JUMP JUMPDEST POP PUSH2 0x160 DUP3 ADD MLOAD DUP2 PUSH1 0xA ADD SSTORE PUSH2 0x180 DUP3 ADD MLOAD DUP2 PUSH1 0xB ADD PUSH0 PUSH2 0x100 EXP DUP2 SLOAD DUP2 PUSH1 0xFF MUL NOT AND SWAP1 DUP4 ISZERO ISZERO MUL OR SWAP1 SSTORE POP PUSH2 0x1A0 DUP3 ADD MLOAD DUP2 PUSH1 0xC ADD SWAP1 DUP2 PUSH2 0xBCB SWAP2 SWAP1 PUSH2 0x189D JUMP JUMPDEST POP PUSH2 0x1C0 DUP3 ADD MLOAD DUP2 PUSH1 0xD ADD SWAP1 DUP2 PUSH2 0xBE2 SWAP2 SWAP1 PUSH2 0x189D JUMP JUMPDEST POP PUSH2 0x1E0 DUP3 ADD MLOAD DUP2 PUSH1 0xE ADD SWAP1 DUP2 PUSH2 0xBF9 SWAP2 SWAP1 PUSH2 0x189D JUMP JUMPDEST POP PUSH2 0x200 DUP3 ADD MLOAD DUP2 PUSH1 0xF ADD SWAP1 DUP2 PUSH2 0xC10 SWAP2 SWAP1 PUSH2 0x189D JUMP JUMPDEST POP POP POP POP POP PUSH32 0x87BE993750FD9F870BC535D97609DF048E07430C47F26712536434958094F873 DUP3 DUP5 DUP1 PUSH1 0x40 ADD SWAP1 PUSH2 0xC47 SWAP2 SWAP1 PUSH2 0x1216 JUMP JUMPDEST DUP7 DUP1 PUSH1 0xC0 ADD SWAP1 PUSH2 0xC57 SWAP2 SWAP1 PUSH2 0x1216 JUMP JUMPDEST DUP9 DUP1 PUSH1 0xE0 ADD SWAP1 PUSH2 0xC67 SWAP2 SWAP1 PUSH2 0x1216 JUMP JUMPDEST PUSH1 0x40 MLOAD PUSH2 0xC7A SWAP8 SWAP7 SWAP6 SWAP5 SWAP4 SWAP3 SWAP2 SWAP1 PUSH2 0x19A8 JUMP JUMPDEST PUSH1 0x40 MLOAD DUP1 SWAP2 SUB SWAP1 LOG1 POP POP POP JUMP JUMPDEST PUSH0 DUP2 MLOAD SWAP1 POP SWAP2 SWAP1 POP JUMP JUMPDEST PUSH0 DUP3 DUP3 MSTORE PUSH1 0x20 DUP3 ADD SWAP1 POP SWAP3 SWAP2 POP POP JUMP JUMPDEST PUSH0 DUP2 SWAP1 POP PUSH1 0x20 DUP3 ADD SWAP1 POP SWAP2 SWAP1 POP JUMP JUMPDEST PUSH0 DUP2 MLOAD SWAP1 POP SWAP2 SWAP1 POP JUMP JUMPDEST PUSH0 DUP3 DUP3 MSTORE PUSH1 0x20 DUP3 ADD SWAP1 POP SWAP3 SWAP2 POP POP JUMP JUMPDEST DUP3 DUP2 DUP4 MCOPY PUSH0 DUP4 DUP4 ADD MSTORE POP POP POP JUMP JUMPDEST PUSH0 PUSH1 0x1F NOT PUSH1 0x1F DUP4 ADD AND SWAP1 POP SWAP2 SWAP1 POP JUMP JUMPDEST PUSH0 PUSH2 0xCF2 DUP3 PUSH2 0xCB0 JUMP JUMPDEST PUSH2 0xCFC DUP2 DUP6 PUSH2 0xCBA JUMP JUMPDEST SWAP4 POP PUSH2 0xD0C DUP2 DUP6 PUSH1 0x20 DUP7 ADD PUSH2 0xCCA JUMP JUMPDEST PUSH2 0xD15 DUP2 PUSH2 0xCD8 JUMP JUMPDEST DUP5 ADD SWAP2 POP POP SWAP3 SWAP2 POP POP JUMP JUMPDEST PUSH0 DUP2 SWAP1 POP SWAP2 SWAP1 POP JUMP JUMPDEST PUSH2 0xD32 DUP2 PUSH2 0xD20 JUMP JUMPDEST DUP3 MSTORE POP POP JUMP JUMPDEST PUSH0 PUSH8 0xFFFFFFFFFFFFFFFF DUP3 AND SWAP1 POP SWAP2 SWAP1 POP JUMP JUMPDEST PUSH2 0xD54 DUP2 PUSH2 0xD38 JUMP JUMPDEST DUP3 MSTORE POP POP JUMP JUMPDEST PUSH0 DUP2 ISZERO ISZERO SWAP1 POP SWAP2 SWAP1 POP JUMP JUMPDEST PUSH2 0xD6E DUP2 PUSH2 0xD5A JUMP JUMPDEST DUP3 MSTORE POP POP JUMP JUMPDEST PUSH0 PUSH2 0x220 DUP4 ADD PUSH0 DUP4 ADD MLOAD PUSH2 0xD8A PUSH0 DUP7 ADD DUP3 PUSH2 0xD4B JUMP JUMPDEST POP PUSH1 0x20 DUP4 ADD MLOAD PUSH2 0xD9D PUSH1 0x20 DUP7 ADD DUP3 PUSH2 0xD4B JUMP JUMPDEST POP PUSH1 0x40 DUP4 ADD MLOAD DUP5 DUP3 SUB PUSH1 0x40 DUP7 ADD MSTORE PUSH2 0xDB5 DUP3 DUP3 PUSH2 0xCE8 JUMP JUMPDEST SWAP2 POP POP PUSH1 0x60 DUP4 ADD MLOAD DUP5 DUP3 SUB PUSH1 0x60 DUP7 ADD MSTORE PUSH2 0xDCF DUP3 DUP3 PUSH2 0xCE8 JUMP JUMPDEST SWAP2 POP POP PUSH1 0x80 DUP4 ADD MLOAD PUSH2 0xDE4 PUSH1 0x80 DUP7 ADD DUP3 PUSH2 0xD29 JUMP JUMPDEST POP PUSH1 0xA0 DUP4 ADD MLOAD PUSH2 0xDF7 PUSH1 0xA0 DUP7 ADD DUP3 PUSH2 0xD29 JUMP JUMPDEST POP PUSH1 0xC0 DUP4 ADD MLOAD DUP5 DUP3 SUB PUSH1 0xC0 DUP7 ADD MSTORE PUSH2 0xE0F DUP3 DUP3 PUSH2 0xCE8 JUMP JUMPDEST SWAP2 POP POP PUSH1 0xE0 DUP4 ADD MLOAD DUP5 DUP3 SUB PUSH1 0xE0 DUP7 ADD MSTORE PUSH2 0xE29 DUP3 DUP3 PUSH2 0xCE8 JUMP JUMPDEST SWAP2 POP POP PUSH2 0x100 DUP4 ADD MLOAD DUP5 DUP3 SUB PUSH2 0x100 DUP7 ADD MSTORE PUSH2 0xE45 DUP3 DUP3 PUSH2 0xCE8 JUMP JUMPDEST SWAP2 POP POP PUSH2 0x120 DUP4 ADD MLOAD DUP5 DUP3 SUB PUSH2 0x120 DUP7 ADD MSTORE PUSH2 0xE61 DUP3 DUP3 PUSH2 0xCE8 JUMP JUMPDEST SWAP2 POP POP PUSH2 0x140 DUP4 ADD MLOAD DUP5 DUP3 SUB PUSH2 0x140 DUP7 ADD MSTORE PUSH2 0xE7D DUP3 DUP3 PUSH2 0xCE8 JUMP JUMPDEST SWAP2 POP POP PUSH2 0x160 DUP4 ADD MLOAD PUSH2 0xE94 PUSH2 0x160 DUP7 ADD DUP3 PUSH2 0xD29 JUMP JUMPDEST POP PUSH2 0x180 DUP4 ADD MLOAD PUSH2 0xEA9 PUSH2 0x180 DUP7 ADD DUP3 PUSH2 0xD65 JUMP JUMPDEST POP PUSH2 0x1A0 DUP4 ADD MLOAD DUP5 DUP3 SUB PUSH2 0x1A0 DUP7 ADD MSTORE PUSH2 0xEC3 DUP3 DUP3 PUSH2 0xCE8 JUMP JUMPDEST SWAP2 POP POP PUSH2 0x1C0 DUP4 ADD MLOAD DUP5 DUP3 SUB PUSH2 0x1C0 DUP7 ADD MSTORE PUSH2 0xEDF DUP3 DUP3 PUSH2 0xCE8 JUMP JUMPDEST SWAP2 POP POP PUSH2 0x1E0 DUP4 ADD MLOAD DUP5 DUP3 SUB PUSH2 0x1E0 DUP7 ADD MSTORE PUSH2 0xEFB DUP3 DUP3 PUSH2 0xCE8 JUMP JUMPDEST SWAP2 POP POP PUSH2 0x200 DUP4 ADD MLOAD DUP5 DUP3 SUB PUSH2 0x200 DUP7 ADD MSTORE PUSH2 0xF17 DUP3 DUP3 PUSH2 0xCE8 JUMP JUMPDEST SWAP2 POP POP DUP1 SWAP2 POP POP SWAP3 SWAP2 POP POP JUMP JUMPDEST PUSH0 PUSH1 0x80 DUP4 ADD PUSH0 DUP4 ADD MLOAD DUP5 DUP3 SUB PUSH0 DUP7 ADD MSTORE PUSH2 0xF3E DUP3 DUP3 PUSH2 0xCE8 JUMP JUMPDEST SWAP2 POP POP PUSH1 0x20 DUP4 ADD MLOAD PUSH2 0xF53 PUSH1 0x20 DUP7 ADD DUP3 PUSH2 0xD29 JUMP JUMPDEST POP PUSH1 0x40 DUP4 ADD MLOAD DUP5 DUP3 SUB PUSH1 0x40 DUP7 ADD MSTORE PUSH2 0xF6B DUP3 DUP3 PUSH2 0xCE8 JUMP JUMPDEST SWAP2 POP POP PUSH1 0x60 DUP4 ADD MLOAD DUP5 DUP3 SUB PUSH1 0x60 DUP7 ADD MSTORE PUSH2 0xF85 DUP3 DUP3 PUSH2 0xD74 JUMP JUMPDEST SWAP2 POP POP DUP1 SWAP2 POP POP SWAP3 SWAP2 POP POP JUMP JUMPDEST PUSH0 PUSH2 0xF9D DUP4 DUP4 PUSH2 0xF24 JUMP JUMPDEST SWAP1 POP SWAP3 SWAP2 POP POP JUMP JUMPDEST PUSH0 PUSH1 0x20 DUP3 ADD SWAP1 POP SWAP2 SWAP1 POP JUMP JUMPDEST PUSH0 PUSH2 0xFBB DUP3 PUSH2 0xC87 JUMP JUMPDEST PUSH2 0xFC5 DUP2 DUP6 PUSH2 0xC91 JUMP JUMPDEST SWAP4 POP DUP4 PUSH1 0x20 DUP3 MUL DUP6 ADD PUSH2 0xFD7 DUP6 PUSH2 0xCA1 JUMP JUMPDEST DUP1 PUSH0 JUMPDEST DUP6 DUP2 LT ISZERO PUSH2 0x1012 JUMPI DUP5 DUP5 SUB DUP10 MSTORE DUP2 MLOAD PUSH2 0xFF3 DUP6 DUP3 PUSH2 0xF92 JUMP JUMPDEST SWAP5 POP PUSH2 0xFFE DUP4 PUSH2 0xFA5 JUMP JUMPDEST SWAP3 POP PUSH1 0x20 DUP11 ADD SWAP10 POP POP PUSH1 0x1 DUP2 ADD SWAP1 POP PUSH2 0xFDA JUMP JUMPDEST POP DUP3 SWAP8 POP DUP8 SWAP6 POP POP POP POP POP POP SWAP3 SWAP2 POP POP JUMP JUMPDEST PUSH0 PUSH1 0x20 DUP3 ADD SWAP1 POP DUP2 DUP2 SUB PUSH0 DUP4 ADD MSTORE PUSH2 0x103C DUP2 DUP5 PUSH2 0xFB1 JUMP JUMPDEST SWAP1 POP SWAP3 SWAP2 POP POP JUMP JUMPDEST PUSH2 0x104D DUP2 PUSH2 0xD20 JUMP JUMPDEST DUP3 MSTORE POP POP JUMP JUMPDEST PUSH0 PUSH1 0x20 DUP3 ADD SWAP1 POP PUSH2 0x1066 PUSH0 DUP4 ADD DUP5 PUSH2 0x1044 JUMP JUMPDEST SWAP3 SWAP2 POP POP JUMP JUMPDEST PUSH0 PUSH20 0xFFFFFFFFFFFFFFFFFFFFFFFFFFFFFFFFFFFFFFFF DUP3 AND SWAP1 POP SWAP2 SWAP1 POP JUMP JUMPDEST PUSH0 PUSH2 0x1095 DUP3 PUSH2 0x106C JUMP JUMPDEST SWAP1 POP SWAP2 SWAP1 POP JUMP JUMPDEST PUSH2 0x10A5 DUP2 PUSH2 0x108B JUMP JUMPDEST DUP3 MSTORE POP POP JUMP JUMPDEST PUSH0 PUSH1 0x20 DUP3 ADD SWAP1 POP PUSH2 0x10BE PUSH0 DUP4 ADD DUP5 PUSH2 0x109C JUMP JUMPDEST SWAP3 SWAP2 POP POP JUMP JUMPDEST PUSH0 PUSH1 0x40 MLOAD SWAP1 POP SWAP1 JUMP JUMPDEST PUSH0 PUSH0 REVERT JUMPDEST PUSH0 PUSH0 REVERT JUMPDEST PUSH0 PUSH0 REVERT JUMPDEST PUSH0 PUSH2 0x220 DUP3 DUP5 SUB SLT ISZERO PUSH2 0x10EF JUMPI PUSH2 0x10EE PUSH2 0x10D5 JUMP JUMPDEST JUMPDEST DUP2 SWAP1 POP SWAP3 SWAP2 POP POP JUMP JUMPDEST PUSH0 PUSH1 0x20 DUP3 DUP5 SUB SLT ISZERO PUSH2 0x110D JUMPI PUSH2 0x110C PUSH2 0x10CD JUMP JUMPDEST JUMPDEST PUSH0 DUP3 ADD CALLDATALOAD PUSH8 0xFFFFFFFFFFFFFFFF DUP2 GT ISZERO PUSH2 0x112A JUMPI PUSH2 0x1129 PUSH2 0x10D1 JUMP JUMPDEST JUMPDEST PUSH2 0x1136 DUP5 DUP3 DUP6 ADD PUSH2 0x10D9 JUMP JUMPDEST SWAP2 POP POP SWAP3 SWAP2 POP POP JUMP JUMPDEST PUSH32 0x4E487B7100000000000000000000000000000000000000000000000000000000 PUSH0 MSTORE PUSH1 0x22 PUSH1 0x4 MSTORE PUSH1 0x24 PUSH0 REVERT JUMPDEST PUSH0 PUSH1 0x2 DUP3 DIV SWAP1 POP PUSH1 0x1 DUP3 AND DUP1 PUSH2 0x1183 JUMPI PUSH1 0x7F DUP3 AND SWAP2 POP JUMPDEST PUSH1 0x20 DUP3 LT DUP2 SUB PUSH2 0x1196 JUMPI PUSH2 0x1195 PUSH2 0x113F JUMP JUMPDEST JUMPDEST POP SWAP2 SWAP1 POP JUMP JUMPDEST PUSH32 0x4E487B7100000000000000000000000000000000000000000000000000000000 PUSH0 MSTORE PUSH1 0x11 PUSH1 0x4 MSTORE PUSH1 0x24 PUSH0 REVERT JUMPDEST PUSH0 PUSH2 0x11D3 DUP3 PUSH2 0xD20 JUMP JUMPDEST SWAP2 POP PUSH2 0x11DE DUP4 PUSH2 0xD20 JUMP JUMPDEST SWAP3 POP DUP3 DUP3 MUL PUSH2 0x11EC DUP2 PUSH2 0xD20 JUMP JUMPDEST SWAP2 POP DUP3 DUP3 DIV DUP5 EQ DUP4 ISZERO OR PUSH2 0x1203 JUMPI PUSH2 0x1202 PUSH2 0x119C JUMP JUMPDEST JUMPDEST POP SWAP3 SWAP2 POP POP JUMP JUMPDEST PUSH0 PUSH0 REVERT JUMPDEST PUSH0 PUSH0 REVERT JUMPDEST PUSH0 PUSH0 REVERT JUMPDEST PUSH0 PUSH0 DUP4 CALLDATALOAD PUSH1 0x1 PUSH1 0x20 SUB DUP5 CALLDATASIZE SUB SUB DUP2 SLT PUSH2 0x1232 JUMPI PUSH2 0x1231 PUSH2 0x120A JUMP JUMPDEST JUMPDEST DUP1 DUP5 ADD SWAP3 POP DUP3 CALLDATALOAD SWAP2 POP PUSH8 0xFFFFFFFFFFFFFFFF DUP3 GT ISZERO PUSH2 0x1254 JUMPI PUSH2 0x1253 PUSH2 0x120E JUMP JUMPDEST JUMPDEST PUSH1 0x20 DUP4 ADD SWAP3 POP PUSH1 0x1 DUP3 MUL CALLDATASIZE SUB DUP4 SGT ISZERO PUSH2 0x1270 JUMPI PUSH2 0x126F PUSH2 0x1212 JUMP JUMPDEST JUMPDEST POP SWAP3 POP SWAP3 SWAP1 POP JUMP JUMPDEST PUSH0 PUSH0 REVERT JUMPDEST PUSH32 0x4E487B7100000000000000000000000000000000000000000000000000000000 PUSH0 MSTORE PUSH1 0x41 PUSH1 0x4 MSTORE PUSH1 0x24 PUSH0 REVERT JUMPDEST PUSH2 0x12B2 DUP3 PUSH2 0xCD8 JUMP JUMPDEST DUP2 ADD DUP2 DUP2 LT PUSH8 0xFFFFFFFFFFFFFFFF DUP3 GT OR ISZERO PUSH2 0x12D1 JUMPI PUSH2 0x12D0 PUSH2 0x127C JUMP JUMPDEST JUMPDEST DUP1 PUSH1 0x40 MSTORE POP POP POP JUMP JUMPDEST PUSH0 PUSH2 0x12E3 PUSH2 0x10C4 JUMP JUMPDEST SWAP1 POP PUSH2 0x12EF DUP3 DUP3 PUSH2 0x12A9 JUMP JUMPDEST SWAP2 SWAP1 POP JUMP JUMPDEST PUSH0 PUSH0 REVERT JUMPDEST PUSH2 0x1301 DUP2 PUSH2 0xD38 JUMP JUMPDEST DUP2 EQ PUSH2 0x130B JUMPI PUSH0 PUSH0 REVERT JUMPDEST POP JUMP JUMPDEST PUSH0 DUP2 CALLDATALOAD SWAP1 POP PUSH2 0x131C DUP2 PUSH2 0x12F8 JUMP JUMPDEST SWAP3 SWAP2 POP POP JUMP JUMPDEST PUSH0 PUSH0 REVERT JUMPDEST PUSH0 PUSH0 REVERT JUMPDEST PUSH0 PUSH8 0xFFFFFFFFFFFFFFFF DUP3 GT ISZERO PUSH2 0x1344 JUMPI PUSH2 0x1343 PUSH2 0x127C JUMP JUMPDEST JUMPDEST PUSH2 0x134D DUP3 PUSH2 0xCD8 JUMP JUMPDEST SWAP1 POP PUSH1 0x20 DUP2 ADD SWAP1 POP SWAP2 SWAP1 POP JUMP JUMPDEST DUP3 DUP2 DUP4 CALLDATACOPY PUSH0 DUP4 DUP4 ADD MSTORE POP POP POP JUMP JUMPDEST PUSH0 PUSH2 0x137A PUSH2 0x1375 DUP5 PUSH2 0x132A JUMP JUMPDEST PUSH2 0x12DA JUMP JUMPDEST SWAP1 POP DUP3 DUP2 MSTORE PUSH1 0x20 DUP2 ADD DUP5 DUP5 DUP5 ADD GT ISZERO PUSH2 0x1396 JUMPI PUSH2 0x1395 PUSH2 0x1326 JUMP JUMPDEST JUMPDEST PUSH2 0x13A1 DUP5 DUP3 DUP6 PUSH2 0x135A JUMP JUMPDEST POP SWAP4 SWAP3 POP POP POP JUMP JUMPDEST PUSH0 DUP3 PUSH1 0x1F DUP4 ADD SLT PUSH2 0x13BD JUMPI PUSH2 0x13BC PUSH2 0x1322 JUMP JUMPDEST JUMPDEST DUP2 CALLDATALOAD PUSH2 0x13CD DUP5 DUP3 PUSH1 0x20 DUP7 ADD PUSH2 0x1368 JUMP JUMPDEST SWAP2 POP POP SWAP3 SWAP2 POP POP JUMP JUMPDEST PUSH2 0x13DF DUP2 PUSH2 0xD20 JUMP JUMPDEST DUP2 EQ PUSH2 0x13E9 JUMPI PUSH0 PUSH0 REVERT JUMPDEST POP JUMP JUMPDEST PUSH0 DUP2 CALLDATALOAD SWAP1 POP PUSH2 0x13FA DUP2 PUSH2 0x13D6 JUMP JUMPDEST SWAP3 SWAP2 POP POP JUMP JUMPDEST PUSH2 0x1409 DUP2 PUSH2 0xD5A JUMP JUMPDEST DUP2 EQ PUSH2 0x1413 JUMPI PUSH0 PUSH0 REVERT JUMPDEST POP JUMP JUMPDEST PUSH0 DUP2 CALLDATALOAD SWAP1 POP PUSH2 0x1424 DUP2 PUSH2 0x1400 JUMP JUMPDEST SWAP3 SWAP2 POP POP JUMP JUMPDEST PUSH0 PUSH2 0x220 DUP3 DUP5 SUB SLT ISZERO PUSH2 0x1440 JUMPI PUSH2 0x143F PUSH2 0x1278 JUMP JUMPDEST JUMPDEST PUSH2 0x144B PUSH2 0x220 PUSH2 0x12DA JUMP JUMPDEST SWAP1 POP PUSH0 PUSH2 0x145A DUP5 DUP3 DUP6 ADD PUSH2 0x130E JUMP JUMPDEST PUSH0 DUP4 ADD MSTORE POP PUSH1 0x20 PUSH2 0x146D DUP5 DUP3 DUP6 ADD PUSH2 0x130E JUMP JUMPDEST PUSH1 0x20 DUP4 ADD MSTORE POP PUSH1 0x40 DUP3 ADD CALLDATALOAD PUSH8 0xFFFFFFFFFFFFFFFF DUP2 GT ISZERO PUSH2 0x1491 JUMPI PUSH2 0x1490 PUSH2 0x12F4 JUMP JUMPDEST JUMPDEST PUSH2 0x149D DUP5 DUP3 DUP6 ADD PUSH2 0x13A9 JUMP JUMPDEST PUSH1 0x40 DUP4 ADD MSTORE POP PUSH1 0x60 DUP3 ADD CALLDATALOAD PUSH8 0xFFFFFFFFFFFFFFFF DUP2 GT ISZERO PUSH2 0x14C1 JUMPI PUSH2 0x14C0 PUSH2 0x12F4 JUMP JUMPDEST JUMPDEST PUSH2 0x14CD DUP5 DUP3 DUP6 ADD PUSH2 0x13A9 JUMP JUMPDEST PUSH1 0x60 DUP4 ADD MSTORE POP PUSH1 0x80 PUSH2 0x14E1 DUP5 DUP3 DUP6 ADD PUSH2 0x13EC JUMP JUMPDEST PUSH1 0x80 DUP4 ADD MSTORE POP PUSH1 0xA0 PUSH2 0x14F5 DUP5 DUP3 DUP6 ADD PUSH2 0x13EC JUMP JUMPDEST PUSH1 0xA0 DUP4 ADD MSTORE POP PUSH1 0xC0 DUP3 ADD CALLDATALOAD PUSH8 0xFFFFFFFFFFFFFFFF DUP2 GT ISZERO PUSH2 0x1519 JUMPI PUSH2 0x1518 PUSH2 0x12F4 JUMP JUMPDEST JUMPDEST PUSH2 0x1525 DUP5 DUP3 DUP6 ADD PUSH2 0x13A9 JUMP JUMPDEST PUSH1 0xC0 DUP4 ADD MSTORE POP PUSH1 0xE0 DUP3 ADD CALLDATALOAD PUSH8 0xFFFFFFFFFFFFFFFF DUP2 GT ISZERO PUSH2 0x1549 JUMPI PUSH2 0x1548 PUSH2 0x12F4 JUMP JUMPDEST JUMPDEST PUSH2 0x1555 DUP5 DUP3 DUP6 ADD PUSH2 0x13A9 JUMP JUMPDEST PUSH1 0xE0 DUP4 ADD MSTORE POP PUSH2 0x100 DUP3 ADD CALLDATALOAD PUSH8 0xFFFFFFFFFFFFFFFF DUP2 GT ISZERO PUSH2 0x157A JUMPI PUSH2 0x1579 PUSH2 0x12F4 JUMP JUMPDEST JUMPDEST PUSH2 0x1586 DUP5 DUP3 DUP6 ADD PUSH2 0x13A9 JUMP JUMPDEST PUSH2 0x100 DUP4 ADD MSTORE POP PUSH2 0x120 DUP3 ADD CALLDATALOAD PUSH8 0xFFFFFFFFFFFFFFFF DUP2 GT ISZERO PUSH2 0x15AC JUMPI PUSH2 0x15AB PUSH2 0x12F4 JUMP JUMPDEST JUMPDEST PUSH2 0x15B8 DUP5 DUP3 DUP6 ADD PUSH2 0x13A9 JUMP JUMPDEST PUSH2 0x120 DUP4 ADD MSTORE POP PUSH2 0x140 DUP3 ADD CALLDATALOAD PUSH8 0xFFFFFFFFFFFFFFFF DUP2 GT ISZERO PUSH2 0x15DE JUMPI PUSH2 0x15DD PUSH2 0x12F4 JUMP JUMPDEST JUMPDEST PUSH2 0x15EA DUP5 DUP3 DUP6 ADD PUSH2 0x13A9 JUMP JUMPDEST PUSH2 0x140 DUP4 ADD MSTORE POP PUSH2 0x160 PUSH2 0x1600 DUP5 DUP3 DUP6 ADD PUSH2 0x13EC JUMP JUMPDEST PUSH2 0x160 DUP4 ADD MSTORE POP PUSH2 0x180 PUSH2 0x1616 DUP5 DUP3 DUP6 ADD PUSH2 0x1416 JUMP JUMPDEST PUSH2 0x180 DUP4 ADD MSTORE POP PUSH2 0x1A0 DUP3 ADD CALLDATALOAD PUSH8 0xFFFFFFFFFFFFFFFF DUP2 GT ISZERO PUSH2 0x163C JUMPI PUSH2 0x163B PUSH2 0x12F4 JUMP JUMPDEST JUMPDEST PUSH2 0x1648 DUP5 DUP3 DUP6 ADD PUSH2 0x13A9 JUMP JUMPDEST PUSH2 0x1A0 DUP4 ADD MSTORE POP PUSH2 0x1C0 DUP3 ADD CALLDATALOAD PUSH8 0xFFFFFFFFFFFFFFFF DUP2 GT ISZERO PUSH2 0x166E JUMPI PUSH2 0x166D PUSH2 0x12F4 JUMP JUMPDEST JUMPDEST PUSH2 0x167A DUP5 DUP3 DUP6 ADD PUSH2 0x13A9 JUMP JUMPDEST PUSH2 0x1C0 DUP4 ADD MSTORE POP PUSH2 0x1E0 DUP3 ADD CALLDATALOAD PUSH8 0xFFFFFFFFFFFFFFFF DUP2 GT ISZERO PUSH2 0x16A0 JUMPI PUSH2 0x169F PUSH2 0x12F4 JUMP JUMPDEST JUMPDEST PUSH2 0x16AC DUP5 DUP3 DUP6 ADD PUSH2 0x13A9 JUMP JUMPDEST PUSH2 0x1E0 DUP4 ADD MSTORE POP PUSH2 0x200 DUP3 ADD CALLDATALOAD PUSH8 0xFFFFFFFFFFFFFFFF DUP2 GT ISZERO PUSH2 0x16D2 JUMPI PUSH2 0x16D1 PUSH2 0x12F4 JUMP JUMPDEST JUMPDEST PUSH2 0x16DE DUP5 DUP3 DUP6 ADD PUSH2 0x13A9 JUMP JUMPDEST PUSH2 0x200 DUP4 ADD MSTORE POP SWAP3 SWAP2 POP POP JUMP JUMPDEST PUSH0 PUSH2 0x16F6 CALLDATASIZE DUP4 PUSH2 0x142A JUMP JUMPDEST SWAP1 POP SWAP2 SWAP1 POP JUMP JUMPDEST PUSH0 DUP2 SWAP1 POP DUP2 PUSH0 MSTORE PUSH1 0x20 PUSH0 KECCAK256 SWAP1 POP SWAP2 SWAP1 POP JUMP JUMPDEST PUSH0 PUSH1 0x20 PUSH1 0x1F DUP4 ADD DIV SWAP1 POP SWAP2 SWAP1 POP JUMP JUMPDEST PUSH0 DUP3 DUP3 SHL SWAP1 POP SWAP3 SWAP2 POP POP JUMP JUMPDEST PUSH0 PUSH1 0x8 DUP4 MUL PUSH2 0x1759 PUSH32 0xFFFFFFFFFFFFFFFFFFFFFFFFFFFFFFFFFFFFFFFFFFFFFFFFFFFFFFFFFFFFFFFF DUP3 PUSH2 0x171E JUMP JUMPDEST PUSH2 0x1763 DUP7 DUP4 PUSH2 0x171E JUMP JUMPDEST SWAP6 POP DUP1 NOT DUP5 AND SWAP4 POP DUP1 DUP7 AND DUP5 OR SWAP3 POP POP POP SWAP4 SWAP3 POP POP POP JUMP JUMPDEST PUSH0 DUP2 SWAP1 POP SWAP2 SWAP1 POP JUMP JUMPDEST PUSH0 PUSH2 0x179E PUSH2 0x1799 PUSH2 0x1794 DUP5 PUSH2 0xD20 JUMP JUMPDEST PUSH2 0x177B JUMP JUMPDEST PUSH2 0xD20 JUMP JUMPDEST SWAP1 POP SWAP2 SWAP1 POP JUMP JUMPDEST PUSH0 DUP2 SWAP1 POP SWAP2 SWAP1 POP JUMP JUMPDEST PUSH2 0x17B7 DUP4 PUSH2 0x1784 JUMP JUMPDEST PUSH2 0x17CB PUSH2 0x17C3 DUP3 PUSH2 0x17A5 JUMP JUMPDEST DUP5 DUP5 SLOAD PUSH2 0x172A JUMP JUMPDEST DUP3 SSTORE POP POP POP POP JUMP JUMPDEST PUSH0 PUSH0 SWAP1 POP SWAP1 JUMP JUMPDEST PUSH2 0x17E2 PUSH2 0x17D3 JUMP JUMPDEST PUSH2 0x17ED DUP2 DUP5 DUP5 PUSH2 0x17AE JUMP JUMPDEST POP POP POP JUMP JUMPDEST JUMPDEST DUP2 DUP2 LT ISZERO PUSH2 0x1810 JUMPI PUSH2 0x1805 PUSH0 DUP3 PUSH2 0x17DA JUMP JUMPDEST PUSH1 0x1 DUP2 ADD SWAP1 POP PUSH2 0x17F3 JUMP JUMPDEST POP POP JUMP JUMPDEST PUSH1 0x1F DUP3 GT ISZERO PUSH2 0x1855 JUMPI PUSH2 0x1826 DUP2 PUSH2 0x16FD JUMP JUMPDEST PUSH2 0x182F DUP5 PUSH2 0x170F JUMP JUMPDEST DUP2 ADD PUSH1 0x20 DUP6 LT ISZERO PUSH2 0x183E JUMPI DUP2 SWAP1 POP JUMPDEST PUSH2 0x1852 PUSH2 0x184A DUP6 PUSH2 0x170F JUMP JUMPDEST DUP4 ADD DUP3 PUSH2 0x17F2 JUMP JUMPDEST POP POP JUMPDEST POP POP POP JUMP JUMPDEST PUSH0 DUP3 DUP3 SHR SWAP1 POP SWAP3 SWAP2 POP POP JUMP JUMPDEST PUSH0 PUSH2 0x1875 PUSH0 NOT DUP5 PUSH1 0x8 MUL PUSH2 0x185A JUMP JUMPDEST NOT DUP1 DUP4 AND SWAP2 POP POP SWAP3 SWAP2 POP POP JUMP JUMPDEST PUSH0 PUSH2 0x188D DUP4 DUP4 PUSH2 0x1866 JUMP JUMPDEST SWAP2 POP DUP3 PUSH1 0x2 MUL DUP3 OR SWAP1 POP SWAP3 SWAP2 POP POP JUMP JUMPDEST PUSH2 0x18A6 DUP3 PUSH2 0xCB0 JUMP JUMPDEST PUSH8 0xFFFFFFFFFFFFFFFF DUP2 GT ISZERO PUSH2 0x18BF JUMPI PUSH2 0x18BE PUSH2 0x127C JUMP JUMPDEST JUMPDEST PUSH2 0x18C9 DUP3 SLOAD PUSH2 0x116C JUMP JUMPDEST PUSH2 0x18D4 DUP3 DUP3 DUP6 PUSH2 0x1814 JUMP JUMPDEST PUSH0 PUSH1 0x20 SWAP1 POP PUSH1 0x1F DUP4 GT PUSH1 0x1 DUP2 EQ PUSH2 0x1905 JUMPI PUSH0 DUP5 ISZERO PUSH2 0x18F3 JUMPI DUP3 DUP8 ADD MLOAD SWAP1 POP JUMPDEST PUSH2 0x18FD DUP6 DUP3 PUSH2 0x1882 JUMP JUMPDEST DUP7 SSTORE POP PUSH2 0x1964 JUMP JUMPDEST PUSH1 0x1F NOT DUP5 AND PUSH2 0x1913 DUP7 PUSH2 0x16FD JUMP JUMPDEST PUSH0 JUMPDEST DUP3 DUP2 LT ISZERO PUSH2 0x193A JUMPI DUP5 DUP10 ADD MLOAD DUP3 SSTORE PUSH1 0x1 DUP3 ADD SWAP2 POP PUSH1 0x20 DUP6 ADD SWAP5 POP PUSH1 0x20 DUP2 ADD SWAP1 POP PUSH2 0x1915 JUMP JUMPDEST DUP7 DUP4 LT ISZERO PUSH2 0x1957 JUMPI DUP5 DUP10 ADD MLOAD PUSH2 0x1953 PUSH1 0x1F DUP10 AND DUP3 PUSH2 0x1866 JUMP JUMPDEST DUP4 SSTORE POP JUMPDEST PUSH1 0x1 PUSH1 0x2 DUP9 MUL ADD DUP9 SSTORE POP POP POP JUMPDEST POP POP POP POP POP POP JUMP JUMPDEST PUSH0 DUP3 DUP3 MSTORE PUSH1 0x20 DUP3 ADD SWAP1 POP SWAP3 SWAP2 POP POP JUMP JUMPDEST PUSH0 PUSH2 0x1987 DUP4 DUP6 PUSH2 0x196C JUMP JUMPDEST SWAP4 POP PUSH2 0x1994 DUP4 DUP6 DUP5 PUSH2 0x135A JUMP JUMPDEST PUSH2 0x199D DUP4 PUSH2 0xCD8 JUMP JUMPDEST DUP5 ADD SWAP1 POP SWAP4 SWAP3 POP POP POP JUMP JUMPDEST PUSH0 PUSH1 0x80 DUP3 ADD SWAP1 POP PUSH2 0x19BB PUSH0 DUP4 ADD DUP11 PUSH2 0x1044 JUMP JUMPDEST DUP2 DUP2 SUB PUSH1 0x20 DUP4 ADD MSTORE PUSH2 0x19CE DUP2 DUP9 DUP11 PUSH2 0x197C JUMP JUMPDEST SWAP1 POP DUP2 DUP2 SUB PUSH1 0x40 DUP4 ADD MSTORE PUSH2 0x19E3 DUP2 DUP7 DUP9 PUSH2 0x197C JUMP JUMPDEST SWAP1 POP DUP2 DUP2 SUB PUSH1 0x60 DUP4 ADD MSTORE PUSH2 0x19F8 DUP2 DUP5 DUP7 PUSH2 0x197C JUMP JUMPDEST SWAP1 POP SWAP9 SWAP8 POP POP POP POP POP POP POP POP JUMP INVALID LOG2 PUSH5 0x6970667358 0x22 SLT KECCAK256 0x2B RETURNDATASIZE SAR EXTDELEGATECALL SDIV DUP1 0xB1 0xBA CHAINID PUSH31 0x88C2444A423153A1625E60110DCAB7B1348FEF58BF0A64736F6C634300081E STOP CALLER LOG2 PUSH5 0x6970667358 0x22 SLT KECCAK256 SWAP3 0xAF CHAINID 0xDB BASEFEE 0xAC DELEGATECALL DUP6 0xEF RETF CALLDATALOAD 0xF6 RETURN TSTORE SGT PUSH5 0xDAD9181723 0xB0 0xB1 GASLIMIT SIGNEXTEND CALL PUSH6 0x2D1BA50E7264 PUSH20 0x6F6C634300081E00330000000000000000000000 "
		},
		"gasEstimates": {
			"creation": {
				"codeDepositCost": "3194600",
				"executionCost": "3537",
				"totalCost": "3198137"
			},
			"external": {
				"addKline((uint64,uint64,string,string,uint256,uint256,string,string,string,string,string,uint256,bool,string,string,string,string),uint64)": "infinite",
				"getAllklineInTime(string,string,uint64)": "infinite",
				"getLengthKline(string,string,uint64)": "infinite",
				"getTimeKey(uint8,uint64)": "infinite",
				"hello()": "infinite",
				"parseInterval(string)": "infinite",
				"storages(bytes32,uint8,uint64)": "3255"
			}
		},
		"methodIdentifiers": {
			"addKline((uint64,uint64,string,string,uint256,uint256,string,string,string,string,string,uint256,bool,string,string,string,string),uint64)": "6a78b280",
			"getAllklineInTime(string,string,uint64)": "41356339",
			"getLengthKline(string,string,uint64)": "256d106e",
			"getTimeKey(uint8,uint64)": "8d412ad2",
			"hello()": "19ff1d21",
			"parseInterval(string)": "93faa992",
			"storages(bytes32,uint8,uint64)": "5b3cb9d4"
		}
	},
	"abi": [
		{
			"anonymous": false,
			"inputs": [
				{
					"indexed": false,
					"internalType": "uint256",
					"name": "key",
					"type": "uint256"
				},
				{
					"indexed": false,
					"internalType": "address",
					"name": "contractAddress",
					"type": "address"
				}
			],
			"name": "KlineContractCreated",
			"type": "event"
		},
		{
			"anonymous": false,
			"inputs": [
				{
					"indexed": false,
					"internalType": "uint64",
					"name": "t",
					"type": "uint64"
				},
				{
					"indexed": false,
					"internalType": "uint256",
					"name": "T",
					"type": "uint256"
				},
				{
					"indexed": false,
					"internalType": "bool",
					"name": "isClose",
					"type": "bool"
				}
			],
			"name": "KlineCreated",
			"type": "event"
		},
		{
			"anonymous": false,
			"inputs": [
				{
					"indexed": false,
					"internalType": "string",
					"name": "symbol",
					"type": "string"
				},
				{
					"indexed": false,
					"internalType": "string",
					"name": "interval",
					"type": "string"
				},
				{
					"indexed": false,
					"internalType": "uint64",
					"name": "timeKey",
					"type": "uint64"
				},
				{
					"indexed": false,
					"internalType": "address",
					"name": "storageAddress",
					"type": "address"
				}
			],
			"name": "ShardCreated",
			"type": "event"
		},
		{
			"inputs": [
				{
					"components": [
						{
							"internalType": "uint64",
							"name": "t",
							"type": "uint64"
						},
						{
							"internalType": "uint64",
							"name": "T",
							"type": "uint64"
						},
						{
							"internalType": "string",
							"name": "s",
							"type": "string"
						},
						{
							"internalType": "string",
							"name": "i",
							"type": "string"
						},
						{
							"internalType": "uint256",
							"name": "f",
							"type": "uint256"
						},
						{
							"internalType": "uint256",
							"name": "L",
							"type": "uint256"
						},
						{
							"internalType": "string",
							"name": "o",
							"type": "string"
						},
						{
							"internalType": "string",
							"name": "c",
							"type": "string"
						},
						{
							"internalType": "string",
							"name": "h",
							"type": "string"
						},
						{
							"internalType": "string",
							"name": "l",
							"type": "string"
						},
						{
							"internalType": "string",
							"name": "v",
							"type": "string"
						},
						{
							"internalType": "uint256",
							"name": "n",
							"type": "uint256"
						},
						{
							"internalType": "bool",
							"name": "x",
							"type": "bool"
						},
						{
							"internalType": "string",
							"name": "q",
							"type": "string"
						},
						{
							"internalType": "string",
							"name": "V",
							"type": "string"
						},
						{
							"internalType": "string",
							"name": "Q",
							"type": "string"
						},
						{
							"internalType": "string",
							"name": "B",
							"type": "string"
						}
					],
					"internalType": "struct KlineRecord",
					"name": "record",
					"type": "tuple"
				},
				{
					"internalType": "uint64",
					"name": "timestamp",
					"type": "uint64"
				}
			],
			"name": "addKline",
			"outputs": [],
			"stateMutability": "nonpayable",
			"type": "function"
		},
		{
			"inputs": [
				{
					"internalType": "string",
					"name": "_symbol",
					"type": "string"
				},
				{
					"internalType": "string",
					"name": "_interval",
					"type": "string"
				},
				{
					"internalType": "uint64",
					"name": "timestime",
					"type": "uint64"
				}
			],
			"name": "getAllklineInTime",
			"outputs": [
				{
					"components": [
						{
							"internalType": "string",
							"name": "e",
							"type": "string"
						},
						{
							"internalType": "uint256",
							"name": "E",
							"type": "uint256"
						},
						{
							"internalType": "string",
							"name": "s",
							"type": "string"
						},
						{
							"components": [
								{
									"internalType": "uint64",
									"name": "t",
									"type": "uint64"
								},
								{
									"internalType": "uint64",
									"name": "T",
									"type": "uint64"
								},
								{
									"internalType": "string",
									"name": "s",
									"type": "string"
								},
								{
									"internalType": "string",
									"name": "i",
									"type": "string"
								},
								{
									"internalType": "uint256",
									"name": "f",
									"type": "uint256"
								},
								{
									"internalType": "uint256",
									"name": "L",
									"type": "uint256"
								},
								{
									"internalType": "string",
									"name": "o",
									"type": "string"
								},
								{
									"internalType": "string",
									"name": "c",
									"type": "string"
								},
								{
									"internalType": "string",
									"name": "h",
									"type": "string"
								},
								{
									"internalType": "string",
									"name": "l",
									"type": "string"
								},
								{
									"internalType": "string",
									"name": "v",
									"type": "string"
								},
								{
									"internalType": "uint256",
									"name": "n",
									"type": "uint256"
								},
								{
									"internalType": "bool",
									"name": "x",
									"type": "bool"
								},
								{
									"internalType": "string",
									"name": "q",
									"type": "string"
								},
								{
									"internalType": "string",
									"name": "V",
									"type": "string"
								},
								{
									"internalType": "string",
									"name": "Q",
									"type": "string"
								},
								{
									"internalType": "string",
									"name": "B",
									"type": "string"
								}
							],
							"internalType": "struct KlineRecord",
							"name": "k",
							"type": "tuple"
						}
					],
					"internalType": "struct KlineResponse[]",
					"name": "",
					"type": "tuple[]"
				}
			],
			"stateMutability": "view",
			"type": "function"
		},
		{
			"inputs": [
				{
					"internalType": "string",
					"name": "_symbol",
					"type": "string"
				},
				{
					"internalType": "string",
					"name": "_interval",
					"type": "string"
				},
				{
					"internalType": "uint64",
					"name": "timestime",
					"type": "uint64"
				}
			],
			"name": "getLengthKline",
			"outputs": [
				{
					"internalType": "uint256",
					"name": "",
					"type": "uint256"
				}
			],
			"stateMutability": "view",
			"type": "function"
		},
		{
			"inputs": [
				{
					"internalType": "enum Interval",
					"name": "",
					"type": "uint8"
				},
				{
					"internalType": "uint64",
					"name": "timestamp",
					"type": "uint64"
				}
			],
			"name": "getTimeKey",
			"outputs": [
				{
					"internalType": "uint64",
					"name": "",
					"type": "uint64"
				}
			],
			"stateMutability": "pure",
			"type": "function"
		},
		{
			"inputs": [],
			"name": "hello",
			"outputs": [
				{
					"internalType": "string",
					"name": "",
					"type": "string"
				}
			],
			"stateMutability": "pure",
			"type": "function"
		},
		{
			"inputs": [
				{
					"internalType": "string",
					"name": "s",
					"type": "string"
				}
			],
			"name": "parseInterval",
			"outputs": [
				{
					"internalType": "enum Interval",
					"name": "",
					"type": "uint8"
				}
			],
			"stateMutability": "pure",
			"type": "function"
		},
		{
			"inputs": [
				{
					"internalType": "bytes32",
					"name": "",
					"type": "bytes32"
				},
				{
					"internalType": "enum Interval",
					"name": "",
					"type": "uint8"
				},
				{
					"internalType": "uint64",
					"name": "",
					"type": "uint64"
				}
			],
			"name": "storages",
			"outputs": [
				{
					"internalType": "address",
					"name": "",
					"type": "address"
				}
			],
			"stateMutability": "view",
			"type": "function"
		}
	]
}