{
	"contracts/manager/Candel_1s/Candel_1s.sol": {
		"CandleManager": {
			"abi": [
				{
					"anonymous": false,
					"inputs": [
						{
							"indexed": false,
							"internalType": "uint256",
							"name": "timestamp",
							"type": "uint256"
						},
						{
							"indexed": false,
							"internalType": "string",
							"name": "symbol",
							"type": "string"
						},
						{
							"indexed": false,
							"internalType": "uint256",
							"name": "open",
							"type": "uint256"
						},
						{
							"indexed": false,
							"internalType": "uint256",
							"name": "close",
							"type": "uint256"
						}
					],
					"name": "AddCandleRecord",
					"type": "event"
				},
				{
					"inputs": [],
					"name": "getAllCandle",
					"outputs": [
						{
							"components": [
								{
									"internalType": "string",
									"name": "e",
									"type": "string"
								},
								{
									"internalType": "uint256",
									"name": "E",
									"type": "uint256"
								},
								{
									"internalType": "string",
									"name": "s",
									"type": "string"
								},
								{
									"components": [
										{
											"internalType": "uint256",
											"name": "t",
											"type": "uint256"
										},
										{
											"internalType": "uint256",
											"name": "T",
											"type": "uint256"
										},
										{
											"internalType": "string",
											"name": "s",
											"type": "string"
										},
										{
											"internalType": "string",
											"name": "i",
											"type": "string"
										},
										{
											"internalType": "uint256",
											"name": "f",
											"type": "uint256"
										},
										{
											"internalType": "uint256",
											"name": "L",
											"type": "uint256"
										},
										{
											"internalType": "uint256",
											"name": "o",
											"type": "uint256"
										},
										{
											"internalType": "uint256",
											"name": "c",
											"type": "uint256"
										},
										{
											"internalType": "uint256",
											"name": "h",
											"type": "uint256"
										},
										{
											"internalType": "uint256",
											"name": "l",
											"type": "uint256"
										},
										{
											"internalType": "uint256",
											"name": "v",
											"type": "uint256"
										},
										{
											"internalType": "uint256",
											"name": "n",
											"type": "uint256"
										},
										{
											"internalType": "bool",
											"name": "x",
											"type": "bool"
										},
										{
											"internalType": "uint256",
											"name": "q",
											"type": "uint256"
										},
										{
											"internalType": "uint256",
											"name": "V",
											"type": "uint256"
										},
										{
											"internalType": "uint256",
											"name": "Q",
											"type": "uint256"
										},
										{
											"internalType": "string",
											"name": "B",
											"type": "string"
										}
									],
									"internalType": "struct CandleRecord",
									"name": "k",
									"type": "tuple"
								}
							],
							"internalType": "struct CandleResponse[]",
							"name": "",
							"type": "tuple[]"
						}
					],
					"stateMutability": "view",
					"type": "function"
				},
				{
					"inputs": [
						{
							"internalType": "uint256",
							"name": "timestamp",
							"type": "uint256"
						}
					],
					"name": "getCandle",
					"outputs": [
						{
							"components": [
								{
									"internalType": "string",
									"name": "e",
									"type": "string"
								},
								{
									"internalType": "uint256",
									"name": "E",
									"type": "uint256"
								},
								{
									"internalType": "string",
									"name": "s",
									"type": "string"
								},
								{
									"components": [
										{
											"internalType": "uint256",
											"name": "t",
											"type": "uint256"
										},
										{
											"internalType": "uint256",
											"name": "T",
											"type": "uint256"
										},
										{
											"internalType": "string",
											"name": "s",
											"type": "string"
										},
										{
											"internalType": "string",
											"name": "i",
											"type": "string"
										},
										{
											"internalType": "uint256",
											"name": "f",
											"type": "uint256"
										},
										{
											"internalType": "uint256",
											"name": "L",
											"type": "uint256"
										},
										{
											"internalType": "uint256",
											"name": "o",
											"type": "uint256"
										},
										{
											"internalType": "uint256",
											"name": "c",
											"type": "uint256"
										},
										{
											"internalType": "uint256",
											"name": "h",
											"type": "uint256"
										},
										{
											"internalType": "uint256",
											"name": "l",
											"type": "uint256"
										},
										{
											"internalType": "uint256",
											"name": "v",
											"type": "uint256"
										},
										{
											"internalType": "uint256",
											"name": "n",
											"type": "uint256"
										},
										{
											"internalType": "bool",
											"name": "x",
											"type": "bool"
										},
										{
											"internalType": "uint256",
											"name": "q",
											"type": "uint256"
										},
										{
											"internalType": "uint256",
											"name": "V",
											"type": "uint256"
										},
										{
											"internalType": "uint256",
											"name": "Q",
											"type": "uint256"
										},
										{
											"internalType": "string",
											"name": "B",
											"type": "string"
										}
									],
									"internalType": "struct CandleRecord",
									"name": "k",
									"type": "tuple"
								}
							],
							"internalType": "struct CandleResponse",
							"name": "",
							"type": "tuple"
						}
					],
					"stateMutability": "view",
					"type": "function"
				},
				{
					"inputs": [],
					"name": "getLastKline",
					"outputs": [
						{
							"components": [
								{
									"internalType": "string",
									"name": "e",
									"type": "string"
								},
								{
									"internalType": "uint256",
									"name": "E",
									"type": "uint256"
								},
								{
									"internalType": "string",
									"name": "s",
									"type": "string"
								},
								{
									"components": [
										{
											"internalType": "uint256",
											"name": "t",
											"type": "uint256"
										},
										{
											"internalType": "uint256",
											"name": "T",
											"type": "uint256"
										},
										{
											"internalType": "string",
											"name": "s",
											"type": "string"
										},
										{
											"internalType": "string",
											"name": "i",
											"type": "string"
										},
										{
											"internalType": "uint256",
											"name": "f",
											"type": "uint256"
										},
										{
											"internalType": "uint256",
											"name": "L",
											"type": "uint256"
										},
										{
											"internalType": "uint256",
											"name": "o",
											"type": "uint256"
										},
										{
											"internalType": "uint256",
											"name": "c",
											"type": "uint256"
										},
										{
											"internalType": "uint256",
											"name": "h",
											"type": "uint256"
										},
										{
											"internalType": "uint256",
											"name": "l",
											"type": "uint256"
										},
										{
											"internalType": "uint256",
											"name": "v",
											"type": "uint256"
										},
										{
											"internalType": "uint256",
											"name": "n",
											"type": "uint256"
										},
										{
											"internalType": "bool",
											"name": "x",
											"type": "bool"
										},
										{
											"internalType": "uint256",
											"name": "q",
											"type": "uint256"
										},
										{
											"internalType": "uint256",
											"name": "V",
											"type": "uint256"
										},
										{
											"internalType": "uint256",
											"name": "Q",
											"type": "uint256"
										},
										{
											"internalType": "string",
											"name": "B",
											"type": "string"
										}
									],
									"internalType": "struct CandleRecord",
									"name": "k",
									"type": "tuple"
								}
							],
							"internalType": "struct CandleResponse",
							"name": "",
							"type": "tuple"
						}
					],
					"stateMutability": "view",
					"type": "function"
				},
				{
					"inputs": [],
					"name": "getLength",
					"outputs": [
						{
							"internalType": "uint256",
							"name": "",
							"type": "uint256"
						}
					],
					"stateMutability": "view",
					"type": "function"
				},
				{
					"inputs": [
						{
							"components": [
								{
									"internalType": "uint256",
									"name": "t",
									"type": "uint256"
								},
								{
									"internalType": "uint256",
									"name": "T",
									"type": "uint256"
								},
								{
									"internalType": "string",
									"name": "s",
									"type": "string"
								},
								{
									"internalType": "string",
									"name": "i",
									"type": "string"
								},
								{
									"internalType": "uint256",
									"name": "f",
									"type": "uint256"
								},
								{
									"internalType": "uint256",
									"name": "L",
									"type": "uint256"
								},
								{
									"internalType": "uint256",
									"name": "o",
									"type": "uint256"
								},
								{
									"internalType": "uint256",
									"name": "c",
									"type": "uint256"
								},
								{
									"internalType": "uint256",
									"name": "h",
									"type": "uint256"
								},
								{
									"internalType": "uint256",
									"name": "l",
									"type": "uint256"
								},
								{
									"internalType": "uint256",
									"name": "v",
									"type": "uint256"
								},
								{
									"internalType": "uint256",
									"name": "n",
									"type": "uint256"
								},
								{
									"internalType": "bool",
									"name": "x",
									"type": "bool"
								},
								{
									"internalType": "uint256",
									"name": "q",
									"type": "uint256"
								},
								{
									"internalType": "uint256",
									"name": "V",
									"type": "uint256"
								},
								{
									"internalType": "uint256",
									"name": "Q",
									"type": "uint256"
								},
								{
									"internalType": "string",
									"name": "B",
									"type": "string"
								}
							],
							"internalType": "struct CandleRecord",
							"name": "kline",
							"type": "tuple"
						}
					],
					"name": "recordCandle",
					"outputs": [],
					"stateMutability": "nonpayable",
					"type": "function"
				}
			],
			"devdoc": {
				"kind": "dev",
				"methods": {},
				"version": 1
			},
			"evm": {
				"assembly": "    /* \"contracts/manager/Candel_1s/Candel_1s.sol\":103:3619  contract CandleManager is ICandleManager {... */\n  mstore(0x40, 0x80)\n  callvalue\n  dup1\n  iszero\n  tag_1\n  jumpi\n  revert(0x00, 0x00)\ntag_1:\n  pop\n  dataSize(sub_0)\n  dup1\n  dataOffset(sub_0)\n  0x00\n  codecopy\n  0x00\n  return\nstop\n\nsub_0: assembly {\n        /* \"contracts/manager/Candel_1s/Candel_1s.sol\":103:3619  contract CandleManager is ICandleManager {... */\n      mstore(0x40, 0x80)\n      callvalue\n      dup1\n      iszero\n      tag_1\n      jumpi\n      revert(0x00, 0x00)\n    tag_1:\n      pop\n      jumpi(tag_2, lt(calldatasize, 0x04))\n      shr(0xe0, calldataload(0x00))\n      dup1\n      0x8d5ce2bc\n      eq\n      tag_3\n      jumpi\n      dup1\n      0xa00a5424\n      eq\n      tag_4\n      jumpi\n      dup1\n      0xbe1c766b\n      eq\n      tag_5\n      jumpi\n      dup1\n      0xc80da6cf\n      eq\n      tag_6\n      jumpi\n      dup1\n      0xedd0bf6a\n      eq\n      tag_7\n      jumpi\n    tag_2:\n      revert(0x00, 0x00)\n        /* \"contracts/manager/Candel_1s/Candel_1s.sol\":1599:1977  function getAllCandle()... */\n    tag_3:\n      tag_8\n      tag_9\n      jump\t// in\n    tag_8:\n      mload(0x40)\n      tag_10\n      swap2\n      swap1\n      tag_11\n      jump\t// in\n    tag_10:\n      mload(0x40)\n      dup1\n      swap2\n      sub\n      swap1\n      return\n        /* \"contracts/manager/Candel_1s/Candel_1s.sol\":1119:1289  function getCandle(uint256 timestamp)... */\n    tag_4:\n      tag_12\n      tag_13\n      calldatasize\n      0x04\n      tag_14\n      jump\t// in\n    tag_13:\n      tag_15\n      jump\t// in\n    tag_12:\n      mload(0x40)\n      tag_10\n      swap2\n      swap1\n      tag_17\n      jump\t// in\n        /* \"contracts/manager/Candel_1s/Candel_1s.sol\":1983:2078  function getLength() public view returns (uint256) {... */\n    tag_5:\n        /* \"contracts/manager/Candel_1s/Candel_1s.sol\":2051:2064  timestampList */\n      0x01\n        /* \"contracts/manager/Candel_1s/Candel_1s.sol\":2051:2071  timestampList.length */\n      sload\n        /* \"contracts/manager/Candel_1s/Candel_1s.sol\":1983:2078  function getLength() public view returns (uint256) {... */\n      mload(0x40)\n        /* \"#utility.yul\":4000:4025   */\n      swap1\n      dup2\n      mstore\n        /* \"#utility.yul\":3988:3990   */\n      0x20\n        /* \"#utility.yul\":3973:3991   */\n      add\n        /* \"contracts/manager/Candel_1s/Candel_1s.sol\":1983:2078  function getLength() public view returns (uint256) {... */\n      tag_10\n        /* \"#utility.yul\":3854:4031   */\n      jump\n        /* \"contracts/manager/Candel_1s/Candel_1s.sol\":358:1113  function recordCandle(CandleRecord calldata kline) external override {... */\n    tag_6:\n      tag_22\n      tag_23\n      calldatasize\n      0x04\n      tag_24\n      jump\t// in\n    tag_23:\n      tag_25\n      jump\t// in\n    tag_22:\n      stop\n        /* \"contracts/manager/Candel_1s/Candel_1s.sol\":1295:1593  function getLastKline()... */\n    tag_7:\n      tag_12\n      tag_27\n      jump\t// in\n        /* \"contracts/manager/Candel_1s/Candel_1s.sol\":1599:1977  function getAllCandle()... */\n    tag_9:\n        /* \"contracts/manager/Candel_1s/Candel_1s.sol\":1794:1807  timestampList */\n      0x01\n        /* \"contracts/manager/Candel_1s/Candel_1s.sol\":1794:1814  timestampList.length */\n      sload\n        /* \"contracts/manager/Candel_1s/Candel_1s.sol\":1687:1710  CandleResponse[] memory */\n      0x60\n      swap1\n        /* \"contracts/manager/Candel_1s/Candel_1s.sol\":1726:1757  CandleResponse[] memory candles */\n      0x00\n      swap1\n        /* \"contracts/manager/Candel_1s/Candel_1s.sol\":1760:1824  new CandleResponse[](... */\n      0xffffffffffffffff\n      dup2\n      gt\n      iszero\n      tag_31\n      jumpi\n      tag_31\n      tag_32\n      jump\t// in\n    tag_31:\n      mload(0x40)\n      swap1\n      dup1\n      dup3\n      mstore\n      dup1\n      0x20\n      mul\n      0x20\n      add\n      dup3\n      add\n      0x40\n      mstore\n      dup1\n      iszero\n      tag_33\n      jumpi\n      dup2\n      0x20\n      add\n    tag_34:\n      tag_35\n      tag_36\n      jump\t// in\n    tag_35:\n      dup2\n      mstore\n      0x20\n      add\n      swap1\n      0x01\n      swap1\n      sub\n      swap1\n      dup2\n      tag_34\n      jumpi\n      swap1\n      pop\n    tag_33:\n      pop\n        /* \"contracts/manager/Candel_1s/Candel_1s.sol\":1726:1824  CandleResponse[] memory candles = new CandleResponse[](... */\n      swap1\n      pop\n        /* \"contracts/manager/Candel_1s/Candel_1s.sol\":1839:1848  uint256 i */\n      0x00\n        /* \"contracts/manager/Candel_1s/Candel_1s.sol\":1834:1947  for (uint256 i = 0; i < timestampList.length; i++) {... */\n    tag_37:\n        /* \"contracts/manager/Candel_1s/Candel_1s.sol\":1858:1871  timestampList */\n      0x01\n        /* \"contracts/manager/Candel_1s/Candel_1s.sol\":1858:1878  timestampList.length */\n      sload\n        /* \"contracts/manager/Candel_1s/Candel_1s.sol\":1854:1878  i < timestampList.length */\n      dup2\n      lt\n        /* \"contracts/manager/Candel_1s/Candel_1s.sol\":1834:1947  for (uint256 i = 0; i < timestampList.length; i++) {... */\n      iszero\n      tag_38\n      jumpi\n        /* \"contracts/manager/Candel_1s/Candel_1s.sol\":1912:1918  klines */\n      0x00\n        /* \"contracts/manager/Candel_1s/Candel_1s.sol\":1912:1936  klines[timestampList[i]] */\n      0x00\n        /* \"contracts/manager/Candel_1s/Candel_1s.sol\":1919:1932  timestampList */\n      0x01\n        /* \"contracts/manager/Candel_1s/Candel_1s.sol\":1933:1934  i */\n      dup4\n        /* \"contracts/manager/Candel_1s/Candel_1s.sol\":1919:1935  timestampList[i] */\n      dup2\n      sload\n      dup2\n      lt\n      tag_41\n      jumpi\n      tag_41\n      tag_42\n      jump\t// in\n    tag_41:\n      swap1\n      0x00\n      mstore\n      keccak256(0x00, 0x20)\n      add\n      sload\n        /* \"contracts/manager/Candel_1s/Candel_1s.sol\":1912:1936  klines[timestampList[i]] */\n      dup2\n      mstore\n      0x20\n      add\n      swap1\n      dup2\n      mstore\n      0x20\n      add\n      0x00\n      keccak256\n        /* \"contracts/manager/Candel_1s/Candel_1s.sol\":1899:1936  candles[i] = klines[timestampList[i]] */\n      mload(0x40)\n      dup1\n      0x80\n      add\n      0x40\n      mstore\n      swap1\n      dup2\n      0x00\n      dup3\n      add\n      dup1\n      sload\n      tag_44\n      swap1\n      tag_45\n      jump\t// in\n    tag_44:\n      dup1\n      0x1f\n      add\n      0x20\n      dup1\n      swap2\n      div\n      mul\n      0x20\n      add\n      mload(0x40)\n      swap1\n      dup2\n      add\n      0x40\n      mstore\n      dup1\n      swap3\n      swap2\n      swap1\n      dup2\n      dup2\n      mstore\n      0x20\n      add\n      dup3\n      dup1\n      sload\n      tag_46\n      swap1\n      tag_45\n      jump\t// in\n    tag_46:\n      dup1\n      iszero\n      tag_47\n      jumpi\n      dup1\n      0x1f\n      lt\n      tag_48\n      jumpi\n      0x0100\n      dup1\n      dup4\n      sload\n      div\n      mul\n      dup4\n      mstore\n      swap2\n      0x20\n      add\n      swap2\n      jump(tag_47)\n    tag_48:\n      dup3\n      add\n      swap2\n      swap1\n      0x00\n      mstore\n      keccak256(0x00, 0x20)\n      swap1\n    tag_49:\n      dup2\n      sload\n      dup2\n      mstore\n      swap1\n      0x01\n      add\n      swap1\n      0x20\n      add\n      dup1\n      dup4\n      gt\n      tag_49\n      jumpi\n      dup3\n      swap1\n      sub\n      0x1f\n      and\n      dup3\n      add\n      swap2\n    tag_47:\n      pop\n      pop\n      pop\n      pop\n      pop\n      dup2\n      mstore\n      0x20\n      add\n      0x01\n      dup3\n      add\n      sload\n      dup2\n      mstore\n      0x20\n      add\n      0x02\n      dup3\n      add\n      dup1\n      sload\n      tag_50\n      swap1\n      tag_45\n      jump\t// in\n    tag_50:\n      dup1\n      0x1f\n      add\n      0x20\n      dup1\n      swap2\n      div\n      mul\n      0x20\n      add\n      mload(0x40)\n      swap1\n      dup2\n      add\n      0x40\n      mstore\n      dup1\n      swap3\n      swap2\n      swap1\n      dup2\n      dup2\n      mstore\n      0x20\n      add\n      dup3\n      dup1\n      sload\n      tag_51\n      swap1\n      tag_45\n      jump\t// in\n    tag_51:\n      dup1\n      iszero\n      tag_52\n      jumpi\n      dup1\n      0x1f\n      lt\n      tag_53\n      jumpi\n      0x0100\n      dup1\n      dup4\n      sload\n      div\n      mul\n      dup4\n      mstore\n      swap2\n      0x20\n      add\n      swap2\n      jump(tag_52)\n    tag_53:\n      dup3\n      add\n      swap2\n      swap1\n      0x00\n      mstore\n      keccak256(0x00, 0x20)\n      swap1\n    tag_54:\n      dup2\n      sload\n      dup2\n      mstore\n      swap1\n      0x01\n      add\n      swap1\n      0x20\n      add\n      dup1\n      dup4\n      gt\n      tag_54\n      jumpi\n      dup3\n      swap1\n      sub\n      0x1f\n      and\n      dup3\n      add\n      swap2\n    tag_52:\n      pop\n      pop\n      pop\n      pop\n      pop\n      dup2\n      mstore\n      0x20\n      add\n      0x03\n      dup3\n      add\n      mload(0x40)\n      dup1\n      0x0220\n      add\n      0x40\n      mstore\n      swap1\n      dup2\n      0x00\n      dup3\n      add\n      sload\n      dup2\n      mstore\n      0x20\n      add\n      0x01\n      dup3\n      add\n      sload\n      dup2\n      mstore\n      0x20\n      add\n      0x02\n      dup3\n      add\n      dup1\n      sload\n      tag_55\n      swap1\n      tag_45\n      jump\t// in\n    tag_55:\n      dup1\n      0x1f\n      add\n      0x20\n      dup1\n      swap2\n      div\n      mul\n      0x20\n      add\n      mload(0x40)\n      swap1\n      dup2\n      add\n      0x40\n      mstore\n      dup1\n      swap3\n      swap2\n      swap1\n      dup2\n      dup2\n      mstore\n      0x20\n      add\n      dup3\n      dup1\n      sload\n      tag_56\n      swap1\n      tag_45\n      jump\t// in\n    tag_56:\n      dup1\n      iszero\n      tag_57\n      jumpi\n      dup1\n      0x1f\n      lt\n      tag_58\n      jumpi\n      0x0100\n      dup1\n      dup4\n      sload\n      div\n      mul\n      dup4\n      mstore\n      swap2\n      0x20\n      add\n      swap2\n      jump(tag_57)\n    tag_58:\n      dup3\n      add\n      swap2\n      swap1\n      0x00\n      mstore\n      keccak256(0x00, 0x20)\n      swap1\n    tag_59:\n      dup2\n      sload\n      dup2\n      mstore\n      swap1\n      0x01\n      add\n      swap1\n      0x20\n      add\n      dup1\n      dup4\n      gt\n      tag_59\n      jumpi\n      dup3\n      swap1\n      sub\n      0x1f\n      and\n      dup3\n      add\n      swap2\n    tag_57:\n      pop\n      pop\n      pop\n      pop\n      pop\n      dup2\n      mstore\n      0x20\n      add\n      0x03\n      dup3\n      add\n      dup1\n      sload\n      tag_60\n      swap1\n      tag_45\n      jump\t// in\n    tag_60:\n      dup1\n      0x1f\n      add\n      0x20\n      dup1\n      swap2\n      div\n      mul\n      0x20\n      add\n      mload(0x40)\n      swap1\n      dup2\n      add\n      0x40\n      mstore\n      dup1\n      swap3\n      swap2\n      swap1\n      dup2\n      dup2\n      mstore\n      0x20\n      add\n      dup3\n      dup1\n      sload\n      tag_61\n      swap1\n      tag_45\n      jump\t// in\n    tag_61:\n      dup1\n      iszero\n      tag_62\n      jumpi\n      dup1\n      0x1f\n      lt\n      tag_63\n      jumpi\n      0x0100\n      dup1\n      dup4\n      sload\n      div\n      mul\n      dup4\n      mstore\n      swap2\n      0x20\n      add\n      swap2\n      jump(tag_62)\n    tag_63:\n      dup3\n      add\n      swap2\n      swap1\n      0x00\n      mstore\n      keccak256(0x00, 0x20)\n      swap1\n    tag_64:\n      dup2\n      sload\n      dup2\n      mstore\n      swap1\n      0x01\n      add\n      swap1\n      0x20\n      add\n      dup1\n      dup4\n      gt\n      tag_64\n      jumpi\n      dup3\n      swap1\n      sub\n      0x1f\n      and\n      dup3\n      add\n      swap2\n    tag_62:\n      pop\n      pop\n      pop\n      swap2\n      dup4\n      mstore\n      pop\n      pop\n      0x04\n      dup3\n      add\n      sload\n      0x20\n      dup3\n      add\n      mstore\n      0x05\n      dup3\n      add\n      sload\n      0x40\n      dup3\n      add\n      mstore\n      0x06\n      dup3\n      add\n      sload\n      0x60\n      dup3\n      add\n      mstore\n      0x07\n      dup3\n      add\n      sload\n      0x80\n      dup3\n      add\n      mstore\n      0x08\n      dup3\n      add\n      sload\n      0xa0\n      dup3\n      add\n      mstore\n      0x09\n      dup3\n      add\n      sload\n      0xc0\n      dup3\n      add\n      mstore\n      0x0a\n      dup3\n      add\n      sload\n      0xe0\n      dup3\n      add\n      mstore\n      0x0b\n      dup3\n      add\n      sload\n      0x0100\n      dup3\n      add\n      mstore\n      0x0c\n      dup3\n      add\n      sload\n      0xff\n      and\n      iszero\n      iszero\n      0x0120\n      dup3\n      add\n      mstore\n      0x0d\n      dup3\n      add\n      sload\n      0x0140\n      dup3\n      add\n      mstore\n      0x0e\n      dup3\n      add\n      sload\n      0x0160\n      dup3\n      add\n      mstore\n      0x0f\n      dup3\n      add\n      sload\n      0x0180\n      dup3\n      add\n      mstore\n      0x10\n      dup3\n      add\n      dup1\n      sload\n      0x01a0\n      swap1\n      swap3\n      add\n      swap2\n      tag_65\n      swap1\n      tag_45\n      jump\t// in\n    tag_65:\n      dup1\n      0x1f\n      add\n      0x20\n      dup1\n      swap2\n      div\n      mul\n      0x20\n      add\n      mload(0x40)\n      swap1\n      dup2\n      add\n      0x40\n      mstore\n      dup1\n      swap3\n      swap2\n      swap1\n      dup2\n      dup2\n      mstore\n      0x20\n      add\n      dup3\n      dup1\n      sload\n      tag_66\n      swap1\n      tag_45\n      jump\t// in\n    tag_66:\n      dup1\n      iszero\n      tag_67\n      jumpi\n      dup1\n      0x1f\n      lt\n      tag_68\n      jumpi\n      0x0100\n      dup1\n      dup4\n      sload\n      div\n      mul\n      dup4\n      mstore\n      swap2\n      0x20\n      add\n      swap2\n      jump(tag_67)\n    tag_68:\n      dup3\n      add\n      swap2\n      swap1\n      0x00\n      mstore\n      keccak256(0x00, 0x20)\n      swap1\n    tag_69:\n      dup2\n      sload\n      dup2\n      mstore\n      swap1\n      0x01\n      add\n      swap1\n      0x20\n      add\n      dup1\n      dup4\n      gt\n      tag_69\n      jumpi\n      dup3\n      swap1\n      sub\n      0x1f\n      and\n      dup3\n      add\n      swap2\n    tag_67:\n      pop\n      pop\n      pop\n      pop\n      pop\n      dup2\n      mstore\n      pop\n      pop\n      dup2\n      mstore\n      pop\n      pop\n        /* \"contracts/manager/Candel_1s/Candel_1s.sol\":1899:1906  candles */\n      dup3\n        /* \"contracts/manager/Candel_1s/Candel_1s.sol\":1907:1908  i */\n      dup3\n        /* \"contracts/manager/Candel_1s/Candel_1s.sol\":1899:1909  candles[i] */\n      dup2\n      mload\n      dup2\n      lt\n      tag_71\n      jumpi\n      tag_71\n      tag_42\n      jump\t// in\n    tag_71:\n      0x20\n      swap1\n      dup2\n      mul\n      swap2\n      swap1\n      swap2\n      add\n      add\n        /* \"contracts/manager/Candel_1s/Candel_1s.sol\":1899:1936  candles[i] = klines[timestampList[i]] */\n      mstore\n        /* \"contracts/manager/Candel_1s/Candel_1s.sol\":1880:1883  i++ */\n      0x01\n      add\n        /* \"contracts/manager/Candel_1s/Candel_1s.sol\":1834:1947  for (uint256 i = 0; i < timestampList.length; i++) {... */\n      jump(tag_37)\n    tag_38:\n      pop\n        /* \"contracts/manager/Candel_1s/Candel_1s.sol\":1963:1970  candles */\n      swap2\n        /* \"contracts/manager/Candel_1s/Candel_1s.sol\":1599:1977  function getAllCandle()... */\n      swap1\n      pop\n      jump\t// out\n        /* \"contracts/manager/Candel_1s/Candel_1s.sol\":1119:1289  function getCandle(uint256 timestamp)... */\n    tag_15:\n        /* \"contracts/manager/Candel_1s/Candel_1s.sol\":1221:1242  CandleResponse memory */\n      tag_72\n      tag_36\n      jump\t// in\n    tag_72:\n        /* \"contracts/manager/Candel_1s/Candel_1s.sol\":1265:1271  klines */\n      0x00\n        /* \"contracts/manager/Candel_1s/Candel_1s.sol\":1265:1282  klines[timestamp] */\n      dup3\n      dup2\n      mstore\n      0x20\n      dup2\n      swap1\n      mstore\n      0x40\n      swap1\n      dup2\n      swap1\n      keccak256\n        /* \"contracts/manager/Candel_1s/Candel_1s.sol\":1258:1282  return klines[timestamp] */\n      dup2\n      mload\n      0x80\n      dup2\n      add\n      swap1\n      swap3\n      mstore\n      dup1\n      sload\n      dup3\n      swap1\n        /* \"contracts/manager/Candel_1s/Candel_1s.sol\":1265:1282  klines[timestamp] */\n      dup3\n      swap1\n        /* \"contracts/manager/Candel_1s/Candel_1s.sol\":1258:1282  return klines[timestamp] */\n      tag_74\n      swap1\n      tag_45\n      jump\t// in\n    tag_74:\n      dup1\n      0x1f\n      add\n      0x20\n      dup1\n      swap2\n      div\n      mul\n      0x20\n      add\n      mload(0x40)\n      swap1\n      dup2\n      add\n      0x40\n      mstore\n      dup1\n      swap3\n      swap2\n      swap1\n      dup2\n      dup2\n      mstore\n      0x20\n      add\n      dup3\n      dup1\n      sload\n      tag_75\n      swap1\n      tag_45\n      jump\t// in\n    tag_75:\n      dup1\n      iszero\n      tag_76\n      jumpi\n      dup1\n      0x1f\n      lt\n      tag_77\n      jumpi\n      0x0100\n      dup1\n      dup4\n      sload\n      div\n      mul\n      dup4\n      mstore\n      swap2\n      0x20\n      add\n      swap2\n      jump(tag_76)\n    tag_77:\n      dup3\n      add\n      swap2\n      swap1\n      0x00\n      mstore\n      keccak256(0x00, 0x20)\n      swap1\n    tag_78:\n      dup2\n      sload\n      dup2\n      mstore\n      swap1\n      0x01\n      add\n      swap1\n      0x20\n      add\n      dup1\n      dup4\n      gt\n      tag_78\n      jumpi\n      dup3\n      swap1\n      sub\n      0x1f\n      and\n      dup3\n      add\n      swap2\n    tag_76:\n      pop\n      pop\n      pop\n      pop\n      pop\n      dup2\n      mstore\n      0x20\n      add\n      0x01\n      dup3\n      add\n      sload\n      dup2\n      mstore\n      0x20\n      add\n      0x02\n      dup3\n      add\n      dup1\n      sload\n      tag_79\n      swap1\n      tag_45\n      jump\t// in\n    tag_79:\n      dup1\n      0x1f\n      add\n      0x20\n      dup1\n      swap2\n      div\n      mul\n      0x20\n      add\n      mload(0x40)\n      swap1\n      dup2\n      add\n      0x40\n      mstore\n      dup1\n      swap3\n      swap2\n      swap1\n      dup2\n      dup2\n      mstore\n      0x20\n      add\n      dup3\n      dup1\n      sload\n      tag_80\n      swap1\n      tag_45\n      jump\t// in\n    tag_80:\n      dup1\n      iszero\n      tag_81\n      jumpi\n      dup1\n      0x1f\n      lt\n      tag_82\n      jumpi\n      0x0100\n      dup1\n      dup4\n      sload\n      div\n      mul\n      dup4\n      mstore\n      swap2\n      0x20\n      add\n      swap2\n      jump(tag_81)\n    tag_82:\n      dup3\n      add\n      swap2\n      swap1\n      0x00\n      mstore\n      keccak256(0x00, 0x20)\n      swap1\n    tag_83:\n      dup2\n      sload\n      dup2\n      mstore\n      swap1\n      0x01\n      add\n      swap1\n      0x20\n      add\n      dup1\n      dup4\n      gt\n      tag_83\n      jumpi\n      dup3\n      swap1\n      sub\n      0x1f\n      and\n      dup3\n      add\n      swap2\n    tag_81:\n      pop\n      pop\n      pop\n      pop\n      pop\n      dup2\n      mstore\n      0x20\n      add\n      0x03\n      dup3\n      add\n      mload(0x40)\n      dup1\n      0x0220\n      add\n      0x40\n      mstore\n      swap1\n      dup2\n      0x00\n      dup3\n      add\n      sload\n      dup2\n      mstore\n      0x20\n      add\n      0x01\n      dup3\n      add\n      sload\n      dup2\n      mstore\n      0x20\n      add\n      0x02\n      dup3\n      add\n      dup1\n      sload\n      tag_84\n      swap1\n      tag_45\n      jump\t// in\n    tag_84:\n      dup1\n      0x1f\n      add\n      0x20\n      dup1\n      swap2\n      div\n      mul\n      0x20\n      add\n      mload(0x40)\n      swap1\n      dup2\n      add\n      0x40\n      mstore\n      dup1\n      swap3\n      swap2\n      swap1\n      dup2\n      dup2\n      mstore\n      0x20\n      add\n      dup3\n      dup1\n      sload\n      tag_85\n      swap1\n      tag_45\n      jump\t// in\n    tag_85:\n      dup1\n      iszero\n      tag_86\n      jumpi\n      dup1\n      0x1f\n      lt\n      tag_87\n      jumpi\n      0x0100\n      dup1\n      dup4\n      sload\n      div\n      mul\n      dup4\n      mstore\n      swap2\n      0x20\n      add\n      swap2\n      jump(tag_86)\n    tag_87:\n      dup3\n      add\n      swap2\n      swap1\n      0x00\n      mstore\n      keccak256(0x00, 0x20)\n      swap1\n    tag_88:\n      dup2\n      sload\n      dup2\n      mstore\n      swap1\n      0x01\n      add\n      swap1\n      0x20\n      add\n      dup1\n      dup4\n      gt\n      tag_88\n      jumpi\n      dup3\n      swap1\n      sub\n      0x1f\n      and\n      dup3\n      add\n      swap2\n    tag_86:\n      pop\n      pop\n      pop\n      pop\n      pop\n      dup2\n      mstore\n      0x20\n      add\n      0x03\n      dup3\n      add\n      dup1\n      sload\n      tag_89\n      swap1\n      tag_45\n      jump\t// in\n    tag_89:\n      dup1\n      0x1f\n      add\n      0x20\n      dup1\n      swap2\n      div\n      mul\n      0x20\n      add\n      mload(0x40)\n      swap1\n      dup2\n      add\n      0x40\n      mstore\n      dup1\n      swap3\n      swap2\n      swap1\n      dup2\n      dup2\n      mstore\n      0x20\n      add\n      dup3\n      dup1\n      sload\n      tag_90\n      swap1\n      tag_45\n      jump\t// in\n    tag_90:\n      dup1\n      iszero\n      tag_91\n      jumpi\n      dup1\n      0x1f\n      lt\n      tag_92\n      jumpi\n      0x0100\n      dup1\n      dup4\n      sload\n      div\n      mul\n      dup4\n      mstore\n      swap2\n      0x20\n      add\n      swap2\n      jump(tag_91)\n    tag_92:\n      dup3\n      add\n      swap2\n      swap1\n      0x00\n      mstore\n      keccak256(0x00, 0x20)\n      swap1\n    tag_93:\n      dup2\n      sload\n      dup2\n      mstore\n      swap1\n      0x01\n      add\n      swap1\n      0x20\n      add\n      dup1\n      dup4\n      gt\n      tag_93\n      jumpi\n      dup3\n      swap1\n      sub\n      0x1f\n      and\n      dup3\n      add\n      swap2\n    tag_91:\n      pop\n      pop\n      pop\n      swap2\n      dup4\n      mstore\n      pop\n      pop\n      0x04\n      dup3\n      add\n      sload\n      0x20\n      dup3\n      add\n      mstore\n      0x05\n      dup3\n      add\n      sload\n      0x40\n      dup3\n      add\n      mstore\n      0x06\n      dup3\n      add\n      sload\n      0x60\n      dup3\n      add\n      mstore\n      0x07\n      dup3\n      add\n      sload\n      0x80\n      dup3\n      add\n      mstore\n      0x08\n      dup3\n      add\n      sload\n      0xa0\n      dup3\n      add\n      mstore\n      0x09\n      dup3\n      add\n      sload\n      0xc0\n      dup3\n      add\n      mstore\n      0x0a\n      dup3\n      add\n      sload\n      0xe0\n      dup3\n      add\n      mstore\n      0x0b\n      dup3\n      add\n      sload\n      0x0100\n      dup3\n      add\n      mstore\n      0x0c\n      dup3\n      add\n      sload\n      0xff\n      and\n      iszero\n      iszero\n      0x0120\n      dup3\n      add\n      mstore\n      0x0d\n      dup3\n      add\n      sload\n      0x0140\n      dup3\n      add\n      mstore\n      0x0e\n      dup3\n      add\n      sload\n      0x0160\n      dup3\n      add\n      mstore\n      0x0f\n      dup3\n      add\n      sload\n      0x0180\n      dup3\n      add\n      mstore\n      0x10\n      dup3\n      add\n      dup1\n      sload\n      0x01a0\n      swap1\n      swap3\n      add\n      swap2\n      tag_94\n      swap1\n      tag_45\n      jump\t// in\n    tag_94:\n      dup1\n      0x1f\n      add\n      0x20\n      dup1\n      swap2\n      div\n      mul\n      0x20\n      add\n      mload(0x40)\n      swap1\n      dup2\n      add\n      0x40\n      mstore\n      dup1\n      swap3\n      swap2\n      swap1\n      dup2\n      dup2\n      mstore\n      0x20\n      add\n      dup3\n      dup1\n      sload\n      tag_95\n      swap1\n      tag_45\n      jump\t// in\n    tag_95:\n      dup1\n      iszero\n      tag_96\n      jumpi\n      dup1\n      0x1f\n      lt\n      tag_97\n      jumpi\n      0x0100\n      dup1\n      dup4\n      sload\n      div\n      mul\n      dup4\n      mstore\n      swap2\n      0x20\n      add\n      swap2\n      jump(tag_96)\n    tag_97:\n      dup3\n      add\n      swap2\n      swap1\n      0x00\n      mstore\n      keccak256(0x00, 0x20)\n      swap1\n    tag_98:\n      dup2\n      sload\n      dup2\n      mstore\n      swap1\n      0x01\n      add\n      swap1\n      0x20\n      add\n      dup1\n      dup4\n      gt\n      tag_98\n      jumpi\n      dup3\n      swap1\n      sub\n      0x1f\n      and\n      dup3\n      add\n      swap2\n    tag_96:\n      pop\n      pop\n      pop\n      swap2\n      swap1\n      swap3\n      mstore\n      pop\n      pop\n      pop\n      swap1\n      mstore\n      pop\n      swap3\n        /* \"contracts/manager/Candel_1s/Candel_1s.sol\":1119:1289  function getCandle(uint256 timestamp)... */\n      swap2\n      pop\n      pop\n      jump\t// out\n        /* \"contracts/manager/Candel_1s/Candel_1s.sol\":358:1113  function recordCandle(CandleRecord calldata kline) external override {... */\n    tag_25:\n        /* \"contracts/manager/Candel_1s/Candel_1s.sol\":445:452  kline.t */\n      dup1\n      calldataload\n        /* \"contracts/manager/Candel_1s/Candel_1s.sol\":445:456  kline.t > 0 */\n      iszero\n      dup1\n      iszero\n      swap1\n        /* \"contracts/manager/Candel_1s/Candel_1s.sol\":445:477  kline.t > 0 && kline.T > kline.t */\n      tag_101\n      jumpi\n      pop\n        /* \"contracts/manager/Candel_1s/Candel_1s.sol\":470:477  kline.t */\n      dup1\n      calldataload\n        /* \"contracts/manager/Candel_1s/Candel_1s.sol\":460:467  kline.T */\n      0x20\n      dup3\n      add\n      calldataload\n        /* \"contracts/manager/Candel_1s/Candel_1s.sol\":460:477  kline.T > kline.t */\n      gt\n        /* \"contracts/manager/Candel_1s/Candel_1s.sol\":445:477  kline.t > 0 && kline.T > kline.t */\n    tag_101:\n        /* \"contracts/manager/Candel_1s/Candel_1s.sol\":437:500  require(kline.t > 0 && kline.T > kline.t, \"Invalid time range\") */\n      tag_102\n      jumpi\n      mload(0x40)\n      shl(0xe5, 0x461bcd)\n      dup2\n      mstore\n        /* \"#utility.yul\":5283:5285   */\n      0x20\n        /* \"contracts/manager/Candel_1s/Candel_1s.sol\":437:500  require(kline.t > 0 && kline.T > kline.t, \"Invalid time range\") */\n      0x04\n      dup3\n      add\n        /* \"#utility.yul\":5265:5286   */\n      mstore\n        /* \"#utility.yul\":5322:5324   */\n      0x12\n        /* \"#utility.yul\":5302:5320   */\n      0x24\n      dup3\n      add\n        /* \"#utility.yul\":5295:5325   */\n      mstore\n      shl(0x70, 0x496e76616c69642074696d652072616e6765)\n        /* \"#utility.yul\":5341:5359   */\n      0x44\n      dup3\n      add\n        /* \"#utility.yul\":5334:5382   */\n      mstore\n        /* \"#utility.yul\":5399:5417   */\n      0x64\n      add\n        /* \"contracts/manager/Candel_1s/Candel_1s.sol\":437:500  require(kline.t > 0 && kline.T > kline.t, \"Invalid time range\") */\n    tag_103:\n      mload(0x40)\n      dup1\n      swap2\n      sub\n      swap1\n      revert\n    tag_102:\n        /* \"contracts/manager/Candel_1s/Candel_1s.sol\":542:543  0 */\n      0x00\n        /* \"contracts/manager/Candel_1s/Candel_1s.sol\":524:531  kline.s */\n      tag_105\n      0x40\n      dup4\n      add\n        /* \"contracts/manager/Candel_1s/Candel_1s.sol\":524:529  kline */\n      dup4\n        /* \"contracts/manager/Candel_1s/Candel_1s.sol\":524:531  kline.s */\n      tag_106\n      jump\t// in\n    tag_105:\n        /* \"contracts/manager/Candel_1s/Candel_1s.sol\":518:539  bytes(kline.s).length */\n      swap1\n      pop\n        /* \"contracts/manager/Candel_1s/Candel_1s.sol\":518:543  bytes(kline.s).length > 0 */\n      gt\n        /* \"contracts/manager/Candel_1s/Candel_1s.sol\":510:566  require(bytes(kline.s).length > 0, \"Symbol is required\") */\n      tag_107\n      jumpi\n      mload(0x40)\n      shl(0xe5, 0x461bcd)\n      dup2\n      mstore\n        /* \"#utility.yul\":6157:6159   */\n      0x20\n        /* \"contracts/manager/Candel_1s/Candel_1s.sol\":510:566  require(bytes(kline.s).length > 0, \"Symbol is required\") */\n      0x04\n      dup3\n      add\n        /* \"#utility.yul\":6139:6160   */\n      mstore\n        /* \"#utility.yul\":6196:6198   */\n      0x12\n        /* \"#utility.yul\":6176:6194   */\n      0x24\n      dup3\n      add\n        /* \"#utility.yul\":6169:6199   */\n      mstore\n      shl(0x72, 0x14de5b589bdb081a5cc81c995c5d5a5c9959)\n        /* \"#utility.yul\":6215:6233   */\n      0x44\n      dup3\n      add\n        /* \"#utility.yul\":6208:6256   */\n      mstore\n        /* \"#utility.yul\":6273:6291   */\n      0x64\n      add\n        /* \"contracts/manager/Candel_1s/Candel_1s.sol\":510:566  require(bytes(kline.s).length > 0, \"Symbol is required\") */\n      tag_103\n        /* \"#utility.yul\":5955:6297   */\n      jump\n        /* \"contracts/manager/Candel_1s/Candel_1s.sol\":510:566  require(bytes(kline.s).length > 0, \"Symbol is required\") */\n    tag_107:\n        /* \"contracts/manager/Candel_1s/Candel_1s.sol\":720:912  CandleResponse({... */\n      0x40\n      dup1\n      mload\n      0xc0\n      dup2\n      add\n      dup3\n      mstore\n      0x05\n      0x80\n      dup3\n      add\n      swap1\n      dup2\n      mstore\n      shl(0xd8, 0x6b6c696e65)\n      0xa0\n      dup4\n      add\n      mstore\n      dup2\n      mstore\n        /* \"contracts/manager/Candel_1s/Candel_1s.sol\":804:819  block.timestamp */\n      timestamp\n        /* \"contracts/manager/Candel_1s/Candel_1s.sol\":720:912  CandleResponse({... */\n      0x20\n      dup3\n      add\n      mstore\n        /* \"contracts/manager/Candel_1s/Candel_1s.sol\":597:604  kline.t */\n      dup3\n      calldataload\n      swap2\n        /* \"contracts/manager/Candel_1s/Candel_1s.sol\":577:594  uint256 timestamp */\n      0x00\n      swap2\n        /* \"contracts/manager/Candel_1s/Candel_1s.sol\":720:912  CandleResponse({... */\n      swap1\n      dup2\n      dup2\n      add\n      swap1\n        /* \"contracts/manager/Candel_1s/Candel_1s.sol\":862:869  kline.s */\n      tag_110\n      swap1\n      dup7\n      add\n        /* \"contracts/manager/Candel_1s/Candel_1s.sol\":597:602  kline */\n      dup7\n        /* \"contracts/manager/Candel_1s/Candel_1s.sol\":862:869  kline.s */\n      tag_106\n      jump\t// in\n    tag_110:\n        /* \"contracts/manager/Candel_1s/Candel_1s.sol\":720:912  CandleResponse({... */\n      dup1\n      dup1\n      0x1f\n      add\n      0x20\n      dup1\n      swap2\n      div\n      mul\n      0x20\n      add\n      mload(0x40)\n      swap1\n      dup2\n      add\n      0x40\n      mstore\n      dup1\n      swap4\n      swap3\n      swap2\n      swap1\n      dup2\n      dup2\n      mstore\n      0x20\n      add\n      dup4\n      dup4\n      dup1\n      dup3\n      dup5\n      calldatacopy\n      0x00\n      swap3\n      add\n      swap2\n      swap1\n      swap2\n      mstore\n      pop\n      pop\n      pop\n      swap1\n      dup3\n      mstore\n      pop\n      0x20\n      add\n      tag_111\n        /* \"contracts/manager/Candel_1s/Candel_1s.sol\":896:901  kline */\n      dup6\n        /* \"contracts/manager/Candel_1s/Candel_1s.sol\":720:912  CandleResponse({... */\n      tag_112\n      jump\t// in\n    tag_111:\n      swap1\n      mstore\n        /* \"contracts/manager/Candel_1s/Candel_1s.sol\":923:929  klines */\n      0x00\n        /* \"contracts/manager/Candel_1s/Candel_1s.sol\":923:940  klines[timestamp] */\n      dup4\n      dup2\n      mstore\n      0x20\n      dup2\n      swap1\n      mstore\n      0x40\n      swap1\n      keccak256\n        /* \"contracts/manager/Candel_1s/Candel_1s.sol\":923:957  klines[timestamp] = candleResponse */\n      dup2\n      mload\n        /* \"contracts/manager/Candel_1s/Candel_1s.sol\":681:912  CandleResponse memory candleResponse = CandleResponse({... */\n      swap2\n      swap3\n      pop\n      dup3\n      swap2\n        /* \"contracts/manager/Candel_1s/Candel_1s.sol\":923:940  klines[timestamp] */\n      dup2\n      swap1\n        /* \"contracts/manager/Candel_1s/Candel_1s.sol\":923:957  klines[timestamp] = candleResponse */\n      tag_113\n      swap1\n        /* \"contracts/manager/Candel_1s/Candel_1s.sol\":923:940  klines[timestamp] */\n      dup3\n        /* \"contracts/manager/Candel_1s/Candel_1s.sol\":923:957  klines[timestamp] = candleResponse */\n      tag_114\n      jump\t// in\n    tag_113:\n      pop\n      0x20\n      dup3\n      add\n      mload\n      0x01\n      dup3\n      add\n      sstore\n      0x40\n      dup3\n      add\n      mload\n      0x02\n      dup3\n      add\n      swap1\n      tag_115\n      swap1\n      dup3\n      tag_114\n      jump\t// in\n    tag_115:\n      pop\n      0x60\n      dup3\n      add\n      mload\n      dup1\n      mload\n      0x03\n      dup4\n      add\n      swap1\n      dup2\n      sstore\n      0x20\n      dup3\n      add\n      mload\n      0x04\n      dup5\n      add\n      sstore\n      0x40\n      dup3\n      add\n      mload\n      0x05\n      dup5\n      add\n      swap1\n      tag_116\n      swap1\n      dup3\n      tag_114\n      jump\t// in\n    tag_116:\n      pop\n      0x60\n      dup3\n      add\n      mload\n      0x03\n      dup3\n      add\n      swap1\n      tag_117\n      swap1\n      dup3\n      tag_114\n      jump\t// in\n    tag_117:\n      pop\n      0x80\n      dup3\n      add\n      mload\n      0x04\n      dup3\n      add\n      sstore\n      0xa0\n      dup3\n      add\n      mload\n      0x05\n      dup3\n      add\n      sstore\n      0xc0\n      dup3\n      add\n      mload\n      0x06\n      dup3\n      add\n      sstore\n      0xe0\n      dup3\n      add\n      mload\n      0x07\n      dup3\n      add\n      sstore\n      0x0100\n      dup3\n      add\n      mload\n      0x08\n      dup3\n      add\n      sstore\n      0x0120\n      dup3\n      add\n      mload\n      0x09\n      dup3\n      add\n      sstore\n      0x0140\n      dup3\n      add\n      mload\n      0x0a\n      dup3\n      add\n      sstore\n      0x0160\n      dup3\n      add\n      mload\n      0x0b\n      dup3\n      add\n      sstore\n      0x0180\n      dup3\n      add\n      mload\n      0x0c\n      dup3\n      add\n      dup1\n      sload\n      not(0xff)\n      and\n      swap2\n      iszero\n      iszero\n      swap2\n      swap1\n      swap2\n      or\n      swap1\n      sstore\n      0x01a0\n      dup3\n      add\n      mload\n      0x0d\n      dup3\n      add\n      sstore\n      0x01c0\n      dup3\n      add\n      mload\n      0x0e\n      dup3\n      add\n      sstore\n      0x01e0\n      dup3\n      add\n      mload\n      0x0f\n      dup3\n      add\n      sstore\n      0x0200\n      dup3\n      add\n      mload\n      0x10\n      dup3\n      add\n      swap1\n      tag_118\n      swap1\n      dup3\n      tag_114\n      jump\t// in\n    tag_118:\n      pop\n      pop\n        /* \"contracts/manager/Candel_1s/Candel_1s.sol\":967:980  timestampList */\n      0x01\n        /* \"contracts/manager/Candel_1s/Candel_1s.sol\":967:996  timestampList.push(timestamp) */\n      dup1\n      sload\n      dup1\n      dup3\n      add\n      dup3\n      sstore\n      0x00\n      swap2\n      swap1\n      swap2\n      mstore\n      0xb10e2d527612073b26eecdfd717e6a320cf44b4afac2b0732d9fcbe2b7fa0cf6\n      add\n      dup6\n      swap1\n      sstore\n      pop\n        /* \"contracts/manager/Candel_1s/Candel_1s.sol\":1053:1106  AddCandleRecord(timestamp, kline.s, kline.o, kline.c) */\n      0x457e71e233bfca657f83107e4d22cc35169beda85c2b16268c89ed23a9d2d086\n      swap2\n      pop\n        /* \"contracts/manager/Candel_1s/Candel_1s.sol\":986:995  timestamp */\n      dup4\n      swap1\n      pop\n        /* \"contracts/manager/Candel_1s/Candel_1s.sol\":1080:1087  kline.s */\n      tag_120\n      0x40\n      dup7\n      add\n        /* \"contracts/manager/Candel_1s/Candel_1s.sol\":1080:1085  kline */\n      dup7\n        /* \"contracts/manager/Candel_1s/Candel_1s.sol\":1080:1087  kline.s */\n      tag_106\n      jump\t// in\n    tag_120:\n        /* \"contracts/manager/Candel_1s/Candel_1s.sol\":1089:1094  kline */\n      dup7\n        /* \"contracts/manager/Candel_1s/Candel_1s.sol\":1089:1096  kline.o */\n      0xc0\n      add\n      calldataload\n        /* \"contracts/manager/Candel_1s/Candel_1s.sol\":1098:1103  kline */\n      dup8\n        /* \"contracts/manager/Candel_1s/Candel_1s.sol\":1098:1105  kline.c */\n      0xe0\n      add\n      calldataload\n        /* \"contracts/manager/Candel_1s/Candel_1s.sol\":1053:1106  AddCandleRecord(timestamp, kline.s, kline.o, kline.c) */\n      mload(0x40)\n      tag_121\n      swap6\n      swap5\n      swap4\n      swap3\n      swap2\n      swap1\n      tag_122\n      jump\t// in\n    tag_121:\n      mload(0x40)\n      dup1\n      swap2\n      sub\n      swap1\n      log1\n        /* \"contracts/manager/Candel_1s/Candel_1s.sol\":427:1113  {... */\n      pop\n      pop\n        /* \"contracts/manager/Candel_1s/Candel_1s.sol\":358:1113  function recordCandle(CandleRecord calldata kline) external override {... */\n      pop\n      jump\t// out\n        /* \"contracts/manager/Candel_1s/Candel_1s.sol\":1295:1593  function getLastKline()... */\n    tag_27:\n        /* \"contracts/manager/Candel_1s/Candel_1s.sol\":1383:1404  CandleResponse memory */\n      tag_123\n      tag_36\n      jump\t// in\n    tag_123:\n        /* \"contracts/manager/Candel_1s/Candel_1s.sol\":1428:1441  timestampList */\n      0x01\n        /* \"contracts/manager/Candel_1s/Candel_1s.sol\":1428:1448  timestampList.length */\n      sload\n        /* \"contracts/manager/Candel_1s/Candel_1s.sol\":1420:1475  require(timestampList.length > 0, \"No klines recorded\") */\n      tag_125\n      jumpi\n      mload(0x40)\n      shl(0xe5, 0x461bcd)\n      dup2\n      mstore\n        /* \"#utility.yul\":12876:12878   */\n      0x20\n        /* \"contracts/manager/Candel_1s/Candel_1s.sol\":1420:1475  require(timestampList.length > 0, \"No klines recorded\") */\n      0x04\n      dup3\n      add\n        /* \"#utility.yul\":12858:12879   */\n      mstore\n        /* \"#utility.yul\":12915:12917   */\n      0x12\n        /* \"#utility.yul\":12895:12913   */\n      0x24\n      dup3\n      add\n        /* \"#utility.yul\":12888:12918   */\n      mstore\n      shl(0x72, 0x139bc81adb1a5b995cc81c9958dbdc991959)\n        /* \"#utility.yul\":12934:12952   */\n      0x44\n      dup3\n      add\n        /* \"#utility.yul\":12927:12975   */\n      mstore\n        /* \"#utility.yul\":12992:13010   */\n      0x64\n      add\n        /* \"contracts/manager/Candel_1s/Candel_1s.sol\":1420:1475  require(timestampList.length > 0, \"No klines recorded\") */\n      tag_103\n        /* \"#utility.yul\":12674:13016   */\n      jump\n        /* \"contracts/manager/Candel_1s/Candel_1s.sol\":1420:1475  require(timestampList.length > 0, \"No klines recorded\") */\n    tag_125:\n        /* \"contracts/manager/Candel_1s/Candel_1s.sol\":1509:1522  timestampList */\n      0x01\n        /* \"contracts/manager/Candel_1s/Candel_1s.sol\":1523:1543  timestampList.length */\n      dup1\n      sload\n        /* \"contracts/manager/Candel_1s/Candel_1s.sol\":1485:1506  uint256 lastTimestamp */\n      0x00\n      swap2\n        /* \"contracts/manager/Candel_1s/Candel_1s.sol\":1509:1522  timestampList */\n      swap1\n        /* \"contracts/manager/Candel_1s/Candel_1s.sol\":1523:1547  timestampList.length - 1 */\n      tag_128\n      swap1\n        /* \"contracts/manager/Candel_1s/Candel_1s.sol\":1509:1522  timestampList */\n      dup3\n      swap1\n        /* \"contracts/manager/Candel_1s/Candel_1s.sol\":1523:1547  timestampList.length - 1 */\n      tag_129\n      jump\t// in\n    tag_128:\n        /* \"contracts/manager/Candel_1s/Candel_1s.sol\":1509:1548  timestampList[timestampList.length - 1] */\n      dup2\n      sload\n      dup2\n      lt\n      tag_131\n      jumpi\n      tag_131\n      tag_42\n      jump\t// in\n    tag_131:\n      swap1\n      0x00\n      mstore\n      keccak256(0x00, 0x20)\n      add\n      sload\n        /* \"contracts/manager/Candel_1s/Candel_1s.sol\":1485:1548  uint256 lastTimestamp = timestampList[timestampList.length - 1] */\n      swap1\n      pop\n        /* \"contracts/manager/Candel_1s/Candel_1s.sol\":1565:1571  klines */\n      0x00\n        /* \"contracts/manager/Candel_1s/Candel_1s.sol\":1565:1586  klines[lastTimestamp] */\n      0x00\n        /* \"contracts/manager/Candel_1s/Candel_1s.sol\":1572:1585  lastTimestamp */\n      dup3\n        /* \"contracts/manager/Candel_1s/Candel_1s.sol\":1565:1586  klines[lastTimestamp] */\n      dup2\n      mstore\n      0x20\n      add\n      swap1\n      dup2\n      mstore\n      0x20\n      add\n      0x00\n      keccak256\n        /* \"contracts/manager/Candel_1s/Candel_1s.sol\":1558:1586  return klines[lastTimestamp] */\n      mload(0x40)\n      dup1\n      0x80\n      add\n      0x40\n      mstore\n      swap1\n      dup2\n      0x00\n      dup3\n      add\n      dup1\n      sload\n      tag_133\n      swap1\n      tag_45\n      jump\t// in\n    tag_133:\n      dup1\n      0x1f\n      add\n      0x20\n      dup1\n      swap2\n      div\n      mul\n      0x20\n      add\n      mload(0x40)\n      swap1\n      dup2\n      add\n      0x40\n      mstore\n      dup1\n      swap3\n      swap2\n      swap1\n      dup2\n      dup2\n      mstore\n      0x20\n      add\n      dup3\n      dup1\n      sload\n      tag_134\n      swap1\n      tag_45\n      jump\t// in\n    tag_134:\n      dup1\n      iszero\n      tag_135\n      jumpi\n      dup1\n      0x1f\n      lt\n      tag_136\n      jumpi\n      0x0100\n      dup1\n      dup4\n      sload\n      div\n      mul\n      dup4\n      mstore\n      swap2\n      0x20\n      add\n      swap2\n      jump(tag_135)\n    tag_136:\n      dup3\n      add\n      swap2\n      swap1\n      0x00\n      mstore\n      keccak256(0x00, 0x20)\n      swap1\n    tag_137:\n      dup2\n      sload\n      dup2\n      mstore\n      swap1\n      0x01\n      add\n      swap1\n      0x20\n      add\n      dup1\n      dup4\n      gt\n      tag_137\n      jumpi\n      dup3\n      swap1\n      sub\n      0x1f\n      and\n      dup3\n      add\n      swap2\n    tag_135:\n      pop\n      pop\n      pop\n      pop\n      pop\n      dup2\n      mstore\n      0x20\n      add\n      0x01\n      dup3\n      add\n      sload\n      dup2\n      mstore\n      0x20\n      add\n      0x02\n      dup3\n      add\n      dup1\n      sload\n      tag_138\n      swap1\n      tag_45\n      jump\t// in\n    tag_138:\n      dup1\n      0x1f\n      add\n      0x20\n      dup1\n      swap2\n      div\n      mul\n      0x20\n      add\n      mload(0x40)\n      swap1\n      dup2\n      add\n      0x40\n      mstore\n      dup1\n      swap3\n      swap2\n      swap1\n      dup2\n      dup2\n      mstore\n      0x20\n      add\n      dup3\n      dup1\n      sload\n      tag_139\n      swap1\n      tag_45\n      jump\t// in\n    tag_139:\n      dup1\n      iszero\n      tag_140\n      jumpi\n      dup1\n      0x1f\n      lt\n      tag_141\n      jumpi\n      0x0100\n      dup1\n      dup4\n      sload\n      div\n      mul\n      dup4\n      mstore\n      swap2\n      0x20\n      add\n      swap2\n      jump(tag_140)\n    tag_141:\n      dup3\n      add\n      swap2\n      swap1\n      0x00\n      mstore\n      keccak256(0x00, 0x20)\n      swap1\n    tag_142:\n      dup2\n      sload\n      dup2\n      mstore\n      swap1\n      0x01\n      add\n      swap1\n      0x20\n      add\n      dup1\n      dup4\n      gt\n      tag_142\n      jumpi\n      dup3\n      swap1\n      sub\n      0x1f\n      and\n      dup3\n      add\n      swap2\n    tag_140:\n      pop\n      pop\n      pop\n      pop\n      pop\n      dup2\n      mstore\n      0x20\n      add\n      0x03\n      dup3\n      add\n      mload(0x40)\n      dup1\n      0x0220\n      add\n      0x40\n      mstore\n      swap1\n      dup2\n      0x00\n      dup3\n      add\n      sload\n      dup2\n      mstore\n      0x20\n      add\n      0x01\n      dup3\n      add\n      sload\n      dup2\n      mstore\n      0x20\n      add\n      0x02\n      dup3\n      add\n      dup1\n      sload\n      tag_143\n      swap1\n      tag_45\n      jump\t// in\n    tag_143:\n      dup1\n      0x1f\n      add\n      0x20\n      dup1\n      swap2\n      div\n      mul\n      0x20\n      add\n      mload(0x40)\n      swap1\n      dup2\n      add\n      0x40\n      mstore\n      dup1\n      swap3\n      swap2\n      swap1\n      dup2\n      dup2\n      mstore\n      0x20\n      add\n      dup3\n      dup1\n      sload\n      tag_144\n      swap1\n      tag_45\n      jump\t// in\n    tag_144:\n      dup1\n      iszero\n      tag_145\n      jumpi\n      dup1\n      0x1f\n      lt\n      tag_146\n      jumpi\n      0x0100\n      dup1\n      dup4\n      sload\n      div\n      mul\n      dup4\n      mstore\n      swap2\n      0x20\n      add\n      swap2\n      jump(tag_145)\n    tag_146:\n      dup3\n      add\n      swap2\n      swap1\n      0x00\n      mstore\n      keccak256(0x00, 0x20)\n      swap1\n    tag_147:\n      dup2\n      sload\n      dup2\n      mstore\n      swap1\n      0x01\n      add\n      swap1\n      0x20\n      add\n      dup1\n      dup4\n      gt\n      tag_147\n      jumpi\n      dup3\n      swap1\n      sub\n      0x1f\n      and\n      dup3\n      add\n      swap2\n    tag_145:\n      pop\n      pop\n      pop\n      pop\n      pop\n      dup2\n      mstore\n      0x20\n      add\n      0x03\n      dup3\n      add\n      dup1\n      sload\n      tag_148\n      swap1\n      tag_45\n      jump\t// in\n    tag_148:\n      dup1\n      0x1f\n      add\n      0x20\n      dup1\n      swap2\n      div\n      mul\n      0x20\n      add\n      mload(0x40)\n      swap1\n      dup2\n      add\n      0x40\n      mstore\n      dup1\n      swap3\n      swap2\n      swap1\n      dup2\n      dup2\n      mstore\n      0x20\n      add\n      dup3\n      dup1\n      sload\n      tag_149\n      swap1\n      tag_45\n      jump\t// in\n    tag_149:\n      dup1\n      iszero\n      tag_150\n      jumpi\n      dup1\n      0x1f\n      lt\n      tag_151\n      jumpi\n      0x0100\n      dup1\n      dup4\n      sload\n      div\n      mul\n      dup4\n      mstore\n      swap2\n      0x20\n      add\n      swap2\n      jump(tag_150)\n    tag_151:\n      dup3\n      add\n      swap2\n      swap1\n      0x00\n      mstore\n      keccak256(0x00, 0x20)\n      swap1\n    tag_152:\n      dup2\n      sload\n      dup2\n      mstore\n      swap1\n      0x01\n      add\n      swap1\n      0x20\n      add\n      dup1\n      dup4\n      gt\n      tag_152\n      jumpi\n      dup3\n      swap1\n      sub\n      0x1f\n      and\n      dup3\n      add\n      swap2\n    tag_150:\n      pop\n      pop\n      pop\n      swap2\n      dup4\n      mstore\n      pop\n      pop\n      0x04\n      dup3\n      add\n      sload\n      0x20\n      dup3\n      add\n      mstore\n      0x05\n      dup3\n      add\n      sload\n      0x40\n      dup3\n      add\n      mstore\n      0x06\n      dup3\n      add\n      sload\n      0x60\n      dup3\n      add\n      mstore\n      0x07\n      dup3\n      add\n      sload\n      0x80\n      dup3\n      add\n      mstore\n      0x08\n      dup3\n      add\n      sload\n      0xa0\n      dup3\n      add\n      mstore\n      0x09\n      dup3\n      add\n      sload\n      0xc0\n      dup3\n      add\n      mstore\n      0x0a\n      dup3\n      add\n      sload\n      0xe0\n      dup3\n      add\n      mstore\n      0x0b\n      dup3\n      add\n      sload\n      0x0100\n      dup3\n      add\n      mstore\n      0x0c\n      dup3\n      add\n      sload\n      0xff\n      and\n      iszero\n      iszero\n      0x0120\n      dup3\n      add\n      mstore\n      0x0d\n      dup3\n      add\n      sload\n      0x0140\n      dup3\n      add\n      mstore\n      0x0e\n      dup3\n      add\n      sload\n      0x0160\n      dup3\n      add\n      mstore\n      0x0f\n      dup3\n      add\n      sload\n      0x0180\n      dup3\n      add\n      mstore\n      0x10\n      dup3\n      add\n      dup1\n      sload\n      0x01a0\n      swap1\n      swap3\n      add\n      swap2\n      tag_153\n      swap1\n      tag_45\n      jump\t// in\n    tag_153:\n      dup1\n      0x1f\n      add\n      0x20\n      dup1\n      swap2\n      div\n      mul\n      0x20\n      add\n      mload(0x40)\n      swap1\n      dup2\n      add\n      0x40\n      mstore\n      dup1\n      swap3\n      swap2\n      swap1\n      dup2\n      dup2\n      mstore\n      0x20\n      add\n      dup3\n      dup1\n      sload\n      tag_154\n      swap1\n      tag_45\n      jump\t// in\n    tag_154:\n      dup1\n      iszero\n      tag_155\n      jumpi\n      dup1\n      0x1f\n      lt\n      tag_156\n      jumpi\n      0x0100\n      dup1\n      dup4\n      sload\n      div\n      mul\n      dup4\n      mstore\n      swap2\n      0x20\n      add\n      swap2\n      jump(tag_155)\n    tag_156:\n      dup3\n      add\n      swap2\n      swap1\n      0x00\n      mstore\n      keccak256(0x00, 0x20)\n      swap1\n    tag_157:\n      dup2\n      sload\n      dup2\n      mstore\n      swap1\n      0x01\n      add\n      swap1\n      0x20\n      add\n      dup1\n      dup4\n      gt\n      tag_157\n      jumpi\n      dup3\n      swap1\n      sub\n      0x1f\n      and\n      dup3\n      add\n      swap2\n    tag_155:\n      pop\n      pop\n      pop\n      pop\n      pop\n      dup2\n      mstore\n      pop\n      pop\n      dup2\n      mstore\n      pop\n      pop\n      swap2\n      pop\n      pop\n        /* \"contracts/manager/Candel_1s/Candel_1s.sol\":1295:1593  function getLastKline()... */\n      swap1\n      jump\t// out\n    tag_36:\n      mload(0x40)\n      dup1\n      0x80\n      add\n      0x40\n      mstore\n      dup1\n      0x60\n      dup2\n      mstore\n      0x20\n      add\n      0x00\n      dup2\n      mstore\n      0x20\n      add\n      0x60\n      dup2\n      mstore\n      0x20\n      add\n      tag_158\n      mload(0x40)\n      dup1\n      0x0220\n      add\n      0x40\n      mstore\n      dup1\n      0x00\n      dup2\n      mstore\n      0x20\n      add\n      0x00\n      dup2\n      mstore\n      0x20\n      add\n      0x60\n      dup2\n      mstore\n      0x20\n      add\n      0x60\n      dup2\n      mstore\n      0x20\n      add\n      0x00\n      dup2\n      mstore\n      0x20\n      add\n      0x00\n      dup2\n      mstore\n      0x20\n      add\n      0x00\n      dup2\n      mstore\n      0x20\n      add\n      0x00\n      dup2\n      mstore\n      0x20\n      add\n      0x00\n      dup2\n      mstore\n      0x20\n      add\n      0x00\n      dup2\n      mstore\n      0x20\n      add\n      0x00\n      dup2\n      mstore\n      0x20\n      add\n      0x00\n      dup2\n      mstore\n      0x20\n      add\n      iszero(iszero(0x00))\n      dup2\n      mstore\n      0x20\n      add\n      0x00\n      dup2\n      mstore\n      0x20\n      add\n      0x00\n      dup2\n      mstore\n      0x20\n      add\n      0x00\n      dup2\n      mstore\n      0x20\n      add\n      0x60\n      dup2\n      mstore\n      pop\n      swap1\n      jump\n    tag_158:\n      swap1\n      mstore\n      swap1\n      jump\t// out\n        /* \"#utility.yul\":14:303   */\n    tag_160:\n        /* \"#utility.yul\":56:59   */\n      0x00\n        /* \"#utility.yul\":94:99   */\n      dup2\n        /* \"#utility.yul\":88:100   */\n      mload\n        /* \"#utility.yul\":121:127   */\n      dup1\n        /* \"#utility.yul\":116:119   */\n      dup5\n        /* \"#utility.yul\":109:128   */\n      mstore\n        /* \"#utility.yul\":177:183   */\n      dup1\n        /* \"#utility.yul\":170:174   */\n      0x20\n        /* \"#utility.yul\":163:168   */\n      dup5\n        /* \"#utility.yul\":159:175   */\n      add\n        /* \"#utility.yul\":152:156   */\n      0x20\n        /* \"#utility.yul\":147:150   */\n      dup7\n        /* \"#utility.yul\":143:157   */\n      add\n        /* \"#utility.yul\":137:184   */\n      mcopy\n        /* \"#utility.yul\":229:230   */\n      0x00\n        /* \"#utility.yul\":222:226   */\n      0x20\n        /* \"#utility.yul\":213:219   */\n      dup3\n        /* \"#utility.yul\":208:211   */\n      dup7\n        /* \"#utility.yul\":204:220   */\n      add\n        /* \"#utility.yul\":200:227   */\n      add\n        /* \"#utility.yul\":193:231   */\n      mstore\n        /* \"#utility.yul\":292:296   */\n      0x20\n        /* \"#utility.yul\":285:287   */\n      0x1f\n        /* \"#utility.yul\":281:288   */\n      not\n        /* \"#utility.yul\":276:278   */\n      0x1f\n        /* \"#utility.yul\":268:274   */\n      dup4\n        /* \"#utility.yul\":264:279   */\n      add\n        /* \"#utility.yul\":260:289   */\n      and\n        /* \"#utility.yul\":255:258   */\n      dup6\n        /* \"#utility.yul\":251:290   */\n      add\n        /* \"#utility.yul\":247:297   */\n      add\n        /* \"#utility.yul\":240:297   */\n      swap2\n      pop\n      pop\n        /* \"#utility.yul\":14:303   */\n      swap3\n      swap2\n      pop\n      pop\n      jump\t// out\n        /* \"#utility.yul\":404:2492   */\n    tag_162:\n        /* \"#utility.yul\":461:464   */\n      0x00\n        /* \"#utility.yul\":505:510   */\n      dup2\n        /* \"#utility.yul\":499:511   */\n      mload\n        /* \"#utility.yul\":532:536   */\n      0x80\n        /* \"#utility.yul\":527:530   */\n      dup5\n        /* \"#utility.yul\":520:537   */\n      mstore\n        /* \"#utility.yul\":558:605   */\n      tag_173\n        /* \"#utility.yul\":599:603   */\n      0x80\n        /* \"#utility.yul\":594:597   */\n      dup6\n        /* \"#utility.yul\":590:604   */\n      add\n        /* \"#utility.yul\":576:588   */\n      dup3\n        /* \"#utility.yul\":558:605   */\n      tag_160\n      jump\t// in\n    tag_173:\n        /* \"#utility.yul\":546:605   */\n      swap1\n      pop\n        /* \"#utility.yul\":654:658   */\n      0x20\n        /* \"#utility.yul\":647:652   */\n      dup4\n        /* \"#utility.yul\":643:659   */\n      add\n        /* \"#utility.yul\":637:660   */\n      mload\n        /* \"#utility.yul\":630:634   */\n      0x20\n        /* \"#utility.yul\":625:628   */\n      dup6\n        /* \"#utility.yul\":621:635   */\n      add\n        /* \"#utility.yul\":614:661   */\n      mstore\n        /* \"#utility.yul\":709:713   */\n      0x40\n        /* \"#utility.yul\":702:707   */\n      dup4\n        /* \"#utility.yul\":698:714   */\n      add\n        /* \"#utility.yul\":692:715   */\n      mload\n        /* \"#utility.yul\":757:760   */\n      dup5\n        /* \"#utility.yul\":751:755   */\n      dup3\n        /* \"#utility.yul\":747:761   */\n      sub\n        /* \"#utility.yul\":740:744   */\n      0x40\n        /* \"#utility.yul\":735:738   */\n      dup7\n        /* \"#utility.yul\":731:745   */\n      add\n        /* \"#utility.yul\":724:762   */\n      mstore\n        /* \"#utility.yul\":785:824   */\n      tag_174\n        /* \"#utility.yul\":819:823   */\n      dup3\n        /* \"#utility.yul\":803:817   */\n      dup3\n        /* \"#utility.yul\":785:824   */\n      tag_160\n      jump\t// in\n    tag_174:\n        /* \"#utility.yul\":771:824   */\n      swap2\n      pop\n      pop\n        /* \"#utility.yul\":872:876   */\n      0x60\n        /* \"#utility.yul\":865:870   */\n      dup4\n        /* \"#utility.yul\":861:877   */\n      add\n        /* \"#utility.yul\":855:878   */\n      mload\n        /* \"#utility.yul\":922:925   */\n      dup5\n        /* \"#utility.yul\":914:920   */\n      dup3\n        /* \"#utility.yul\":910:926   */\n      sub\n        /* \"#utility.yul\":903:907   */\n      0x60\n        /* \"#utility.yul\":898:901   */\n      dup7\n        /* \"#utility.yul\":894:908   */\n      add\n        /* \"#utility.yul\":887:927   */\n      mstore\n        /* \"#utility.yul\":957:971   */\n      dup1\n        /* \"#utility.yul\":951:972   */\n      mload\n        /* \"#utility.yul\":943:949   */\n      dup3\n        /* \"#utility.yul\":936:973   */\n      mstore\n        /* \"#utility.yul\":1034:1038   */\n      0x20\n        /* \"#utility.yul\":1018:1032   */\n      dup2\n        /* \"#utility.yul\":1014:1039   */\n      add\n        /* \"#utility.yul\":1008:1040   */\n      mload\n        /* \"#utility.yul\":1001:1005   */\n      0x20\n        /* \"#utility.yul\":993:999   */\n      dup4\n        /* \"#utility.yul\":989:1006   */\n      add\n        /* \"#utility.yul\":982:1041   */\n      mstore\n        /* \"#utility.yul\":1098:1102   */\n      0x40\n        /* \"#utility.yul\":1082:1096   */\n      dup2\n        /* \"#utility.yul\":1078:1103   */\n      add\n        /* \"#utility.yul\":1072:1104   */\n      mload\n        /* \"#utility.yul\":1139:1145   */\n      0x0220\n        /* \"#utility.yul\":1132:1136   */\n      0x40\n        /* \"#utility.yul\":1124:1130   */\n      dup5\n        /* \"#utility.yul\":1120:1137   */\n      add\n        /* \"#utility.yul\":1113:1146   */\n      mstore\n        /* \"#utility.yul\":1169:1223   */\n      tag_175\n        /* \"#utility.yul\":1215:1221   */\n      0x0220\n        /* \"#utility.yul\":1207:1213   */\n      dup5\n        /* \"#utility.yul\":1203:1222   */\n      add\n        /* \"#utility.yul\":1187:1201   */\n      dup3\n        /* \"#utility.yul\":1169:1223   */\n      tag_160\n      jump\t// in\n    tag_175:\n        /* \"#utility.yul\":1155:1223   */\n      swap1\n      pop\n        /* \"#utility.yul\":1280:1284   */\n      0x60\n        /* \"#utility.yul\":1264:1278   */\n      dup3\n        /* \"#utility.yul\":1260:1285   */\n      add\n        /* \"#utility.yul\":1254:1286   */\n      mload\n        /* \"#utility.yul\":1333:1339   */\n      dup4\n        /* \"#utility.yul\":1325:1331   */\n      dup3\n        /* \"#utility.yul\":1321:1340   */\n      sub\n        /* \"#utility.yul\":1314:1318   */\n      0x60\n        /* \"#utility.yul\":1306:1312   */\n      dup6\n        /* \"#utility.yul\":1302:1319   */\n      add\n        /* \"#utility.yul\":1295:1341   */\n      mstore\n        /* \"#utility.yul\":1364:1405   */\n      tag_176\n        /* \"#utility.yul\":1398:1404   */\n      dup3\n        /* \"#utility.yul\":1382:1396   */\n      dup3\n        /* \"#utility.yul\":1364:1405   */\n      tag_160\n      jump\t// in\n    tag_176:\n        /* \"#utility.yul\":1350:1405   */\n      swap2\n      pop\n      pop\n        /* \"#utility.yul\":1466:1470   */\n      0x80\n        /* \"#utility.yul\":1450:1464   */\n      dup3\n        /* \"#utility.yul\":1446:1471   */\n      add\n        /* \"#utility.yul\":1440:1472   */\n      mload\n        /* \"#utility.yul\":1433:1437   */\n      0x80\n        /* \"#utility.yul\":1425:1431   */\n      dup5\n        /* \"#utility.yul\":1421:1438   */\n      add\n        /* \"#utility.yul\":1414:1473   */\n      mstore\n        /* \"#utility.yul\":1534:1538   */\n      0xa0\n        /* \"#utility.yul\":1518:1532   */\n      dup3\n        /* \"#utility.yul\":1514:1539   */\n      add\n        /* \"#utility.yul\":1508:1540   */\n      mload\n        /* \"#utility.yul\":1501:1505   */\n      0xa0\n        /* \"#utility.yul\":1493:1499   */\n      dup5\n        /* \"#utility.yul\":1489:1506   */\n      add\n        /* \"#utility.yul\":1482:1541   */\n      mstore\n        /* \"#utility.yul\":1602:1606   */\n      0xc0\n        /* \"#utility.yul\":1586:1600   */\n      dup3\n        /* \"#utility.yul\":1582:1607   */\n      add\n        /* \"#utility.yul\":1576:1608   */\n      mload\n        /* \"#utility.yul\":1569:1573   */\n      0xc0\n        /* \"#utility.yul\":1561:1567   */\n      dup5\n        /* \"#utility.yul\":1557:1574   */\n      add\n        /* \"#utility.yul\":1550:1609   */\n      mstore\n        /* \"#utility.yul\":1670:1674   */\n      0xe0\n        /* \"#utility.yul\":1654:1668   */\n      dup3\n        /* \"#utility.yul\":1650:1675   */\n      add\n        /* \"#utility.yul\":1644:1676   */\n      mload\n        /* \"#utility.yul\":1637:1641   */\n      0xe0\n        /* \"#utility.yul\":1629:1635   */\n      dup5\n        /* \"#utility.yul\":1625:1642   */\n      add\n        /* \"#utility.yul\":1618:1677   */\n      mstore\n        /* \"#utility.yul\":1740:1746   */\n      0x0100\n        /* \"#utility.yul\":1724:1738   */\n      dup3\n        /* \"#utility.yul\":1720:1747   */\n      add\n        /* \"#utility.yul\":1714:1748   */\n      mload\n        /* \"#utility.yul\":1705:1711   */\n      0x0100\n        /* \"#utility.yul\":1697:1703   */\n      dup5\n        /* \"#utility.yul\":1693:1712   */\n      add\n        /* \"#utility.yul\":1686:1749   */\n      mstore\n        /* \"#utility.yul\":1812:1818   */\n      0x0120\n        /* \"#utility.yul\":1796:1810   */\n      dup3\n        /* \"#utility.yul\":1792:1819   */\n      add\n        /* \"#utility.yul\":1786:1820   */\n      mload\n        /* \"#utility.yul\":1777:1783   */\n      0x0120\n        /* \"#utility.yul\":1769:1775   */\n      dup5\n        /* \"#utility.yul\":1765:1784   */\n      add\n        /* \"#utility.yul\":1758:1821   */\n      mstore\n        /* \"#utility.yul\":1884:1890   */\n      0x0140\n        /* \"#utility.yul\":1868:1882   */\n      dup3\n        /* \"#utility.yul\":1864:1891   */\n      add\n        /* \"#utility.yul\":1858:1892   */\n      mload\n        /* \"#utility.yul\":1849:1855   */\n      0x0140\n        /* \"#utility.yul\":1841:1847   */\n      dup5\n        /* \"#utility.yul\":1837:1856   */\n      add\n        /* \"#utility.yul\":1830:1893   */\n      mstore\n        /* \"#utility.yul\":1956:1962   */\n      0x0160\n        /* \"#utility.yul\":1940:1954   */\n      dup3\n        /* \"#utility.yul\":1936:1963   */\n      add\n        /* \"#utility.yul\":1930:1964   */\n      mload\n        /* \"#utility.yul\":1921:1927   */\n      0x0160\n        /* \"#utility.yul\":1913:1919   */\n      dup5\n        /* \"#utility.yul\":1909:1928   */\n      add\n        /* \"#utility.yul\":1902:1965   */\n      mstore\n        /* \"#utility.yul\":2022:2028   */\n      0x0180\n        /* \"#utility.yul\":2006:2020   */\n      dup3\n        /* \"#utility.yul\":2002:2029   */\n      add\n        /* \"#utility.yul\":1996:2030   */\n      mload\n        /* \"#utility.yul\":2039:2091   */\n      tag_177\n        /* \"#utility.yul\":2083:2089   */\n      0x0180\n        /* \"#utility.yul\":2075:2081   */\n      dup6\n        /* \"#utility.yul\":2071:2090   */\n      add\n        /* \"#utility.yul\":2055:2069   */\n      dup3\n        /* \"#utility.yul\":378:391   */\n      iszero\n        /* \"#utility.yul\":371:392   */\n      iszero\n        /* \"#utility.yul\":359:393   */\n      swap1\n      mstore\n        /* \"#utility.yul\":308:399   */\n      jump\n        /* \"#utility.yul\":2039:2091   */\n    tag_177:\n      pop\n        /* \"#utility.yul\":2154:2160   */\n      0x01a0\n        /* \"#utility.yul\":2138:2152   */\n      dup3\n        /* \"#utility.yul\":2134:2161   */\n      add\n        /* \"#utility.yul\":2128:2162   */\n      mload\n        /* \"#utility.yul\":2119:2125   */\n      0x01a0\n        /* \"#utility.yul\":2111:2117   */\n      dup5\n        /* \"#utility.yul\":2107:2126   */\n      add\n        /* \"#utility.yul\":2100:2163   */\n      mstore\n        /* \"#utility.yul\":2226:2232   */\n      0x01c0\n        /* \"#utility.yul\":2210:2224   */\n      dup3\n        /* \"#utility.yul\":2206:2233   */\n      add\n        /* \"#utility.yul\":2200:2234   */\n      mload\n        /* \"#utility.yul\":2191:2197   */\n      0x01c0\n        /* \"#utility.yul\":2183:2189   */\n      dup5\n        /* \"#utility.yul\":2179:2198   */\n      add\n        /* \"#utility.yul\":2172:2235   */\n      mstore\n        /* \"#utility.yul\":2298:2304   */\n      0x01e0\n        /* \"#utility.yul\":2282:2296   */\n      dup3\n        /* \"#utility.yul\":2278:2305   */\n      add\n        /* \"#utility.yul\":2272:2306   */\n      mload\n        /* \"#utility.yul\":2263:2269   */\n      0x01e0\n        /* \"#utility.yul\":2255:2261   */\n      dup5\n        /* \"#utility.yul\":2251:2270   */\n      add\n        /* \"#utility.yul\":2244:2307   */\n      mstore\n        /* \"#utility.yul\":2364:2370   */\n      0x0200\n        /* \"#utility.yul\":2348:2362   */\n      dup3\n        /* \"#utility.yul\":2344:2371   */\n      add\n        /* \"#utility.yul\":2338:2372   */\n      mload\n        /* \"#utility.yul\":2316:2372   */\n      swap2\n      pop\n        /* \"#utility.yul\":2421:2427   */\n      dup3\n        /* \"#utility.yul\":2413:2419   */\n      dup2\n        /* \"#utility.yul\":2409:2428   */\n      sub\n        /* \"#utility.yul\":2400:2406   */\n      0x0200\n        /* \"#utility.yul\":2392:2398   */\n      dup5\n        /* \"#utility.yul\":2388:2407   */\n      add\n        /* \"#utility.yul\":2381:2429   */\n      mstore\n        /* \"#utility.yul\":2445:2486   */\n      tag_178\n        /* \"#utility.yul\":2479:2485   */\n      dup2\n        /* \"#utility.yul\":2463:2477   */\n      dup4\n        /* \"#utility.yul\":2445:2486   */\n      tag_160\n      jump\t// in\n    tag_178:\n        /* \"#utility.yul\":2438:2486   */\n      swap7\n        /* \"#utility.yul\":404:2492   */\n      swap6\n      pop\n      pop\n      pop\n      pop\n      pop\n      pop\n      jump\t// out\n        /* \"#utility.yul\":2497:3336   */\n    tag_11:\n        /* \"#utility.yul\":2701:2705   */\n      0x00\n        /* \"#utility.yul\":2749:2751   */\n      0x20\n        /* \"#utility.yul\":2738:2747   */\n      dup3\n        /* \"#utility.yul\":2734:2752   */\n      add\n        /* \"#utility.yul\":2779:2781   */\n      0x20\n        /* \"#utility.yul\":2768:2777   */\n      dup4\n        /* \"#utility.yul\":2761:2782   */\n      mstore\n        /* \"#utility.yul\":2802:2808   */\n      dup1\n        /* \"#utility.yul\":2837:2843   */\n      dup5\n        /* \"#utility.yul\":2831:2844   */\n      mload\n        /* \"#utility.yul\":2868:2874   */\n      dup1\n        /* \"#utility.yul\":2860:2866   */\n      dup4\n        /* \"#utility.yul\":2853:2875   */\n      mstore\n        /* \"#utility.yul\":2906:2908   */\n      0x40\n        /* \"#utility.yul\":2895:2904   */\n      dup6\n        /* \"#utility.yul\":2891:2909   */\n      add\n        /* \"#utility.yul\":2884:2909   */\n      swap2\n      pop\n        /* \"#utility.yul\":2968:2970   */\n      0x40\n        /* \"#utility.yul\":2958:2964   */\n      dup2\n        /* \"#utility.yul\":2955:2956   */\n      0x05\n        /* \"#utility.yul\":2951:2965   */\n      shl\n        /* \"#utility.yul\":2940:2949   */\n      dup7\n        /* \"#utility.yul\":2936:2966   */\n      add\n        /* \"#utility.yul\":2932:2971   */\n      add\n        /* \"#utility.yul\":2918:2971   */\n      swap3\n      pop\n        /* \"#utility.yul\":3006:3008   */\n      0x20\n        /* \"#utility.yul\":2998:3004   */\n      dup7\n        /* \"#utility.yul\":2994:3009   */\n      add\n        /* \"#utility.yul\":3027:3028   */\n      0x00\n        /* \"#utility.yul\":3037:3307   */\n    tag_180:\n        /* \"#utility.yul\":3051:3057   */\n      dup3\n        /* \"#utility.yul\":3048:3049   */\n      dup2\n        /* \"#utility.yul\":3045:3058   */\n      lt\n        /* \"#utility.yul\":3037:3307   */\n      iszero\n      tag_182\n      jumpi\n        /* \"#utility.yul\":3144:3146   */\n      0x3f\n        /* \"#utility.yul\":3140:3147   */\n      not\n        /* \"#utility.yul\":3128:3137   */\n      dup8\n        /* \"#utility.yul\":3120:3126   */\n      dup7\n        /* \"#utility.yul\":3116:3138   */\n      sub\n        /* \"#utility.yul\":3112:3148   */\n      add\n        /* \"#utility.yul\":3107:3110   */\n      dup5\n        /* \"#utility.yul\":3100:3149   */\n      mstore\n        /* \"#utility.yul\":3172:3227   */\n      tag_183\n        /* \"#utility.yul\":3220:3226   */\n      dup6\n        /* \"#utility.yul\":3211:3217   */\n      dup4\n        /* \"#utility.yul\":3205:3218   */\n      mload\n        /* \"#utility.yul\":3172:3227   */\n      tag_162\n      jump\t// in\n    tag_183:\n        /* \"#utility.yul\":3162:3227   */\n      swap5\n      pop\n        /* \"#utility.yul\":3262:3264   */\n      0x20\n        /* \"#utility.yul\":3285:3297   */\n      swap4\n      dup5\n      add\n      swap4\n        /* \"#utility.yul\":3250:3265   */\n      swap2\n      swap1\n      swap2\n      add\n      swap1\n        /* \"#utility.yul\":3073:3074   */\n      0x01\n        /* \"#utility.yul\":3066:3075   */\n      add\n        /* \"#utility.yul\":3037:3307   */\n      jump(tag_180)\n    tag_182:\n      pop\n        /* \"#utility.yul\":3324:3330   */\n      swap3\n      swap7\n        /* \"#utility.yul\":2497:3336   */\n      swap6\n      pop\n      pop\n      pop\n      pop\n      pop\n      pop\n      jump\t// out\n        /* \"#utility.yul\":3341:3567   */\n    tag_14:\n        /* \"#utility.yul\":3400:3406   */\n      0x00\n        /* \"#utility.yul\":3453:3455   */\n      0x20\n        /* \"#utility.yul\":3441:3450   */\n      dup3\n        /* \"#utility.yul\":3432:3439   */\n      dup5\n        /* \"#utility.yul\":3428:3451   */\n      sub\n        /* \"#utility.yul\":3424:3456   */\n      slt\n        /* \"#utility.yul\":3421:3473   */\n      iszero\n      tag_185\n      jumpi\n        /* \"#utility.yul\":3469:3470   */\n      0x00\n        /* \"#utility.yul\":3466:3467   */\n      0x00\n        /* \"#utility.yul\":3459:3471   */\n      revert\n        /* \"#utility.yul\":3421:3473   */\n    tag_185:\n      pop\n        /* \"#utility.yul\":3514:3537   */\n      calldataload\n      swap2\n        /* \"#utility.yul\":3341:3567   */\n      swap1\n      pop\n      jump\t// out\n        /* \"#utility.yul\":3572:3849   */\n    tag_17:\n        /* \"#utility.yul\":3763:3765   */\n      0x20\n        /* \"#utility.yul\":3752:3761   */\n      dup2\n        /* \"#utility.yul\":3745:3766   */\n      mstore\n        /* \"#utility.yul\":3726:3730   */\n      0x00\n        /* \"#utility.yul\":3783:3843   */\n      tag_187\n        /* \"#utility.yul\":3839:3841   */\n      0x20\n        /* \"#utility.yul\":3828:3837   */\n      dup4\n        /* \"#utility.yul\":3824:3842   */\n      add\n        /* \"#utility.yul\":3816:3822   */\n      dup5\n        /* \"#utility.yul\":3783:3843   */\n      tag_162\n      jump\t// in\n    tag_187:\n        /* \"#utility.yul\":3775:3843   */\n      swap4\n        /* \"#utility.yul\":3572:3849   */\n      swap3\n      pop\n      pop\n      pop\n      jump\t// out\n        /* \"#utility.yul\":4036:4427   */\n    tag_24:\n        /* \"#utility.yul\":4126:4132   */\n      0x00\n        /* \"#utility.yul\":4179:4181   */\n      0x20\n        /* \"#utility.yul\":4167:4176   */\n      dup3\n        /* \"#utility.yul\":4158:4165   */\n      dup5\n        /* \"#utility.yul\":4154:4177   */\n      sub\n        /* \"#utility.yul\":4150:4182   */\n      slt\n        /* \"#utility.yul\":4147:4199   */\n      iszero\n      tag_190\n      jumpi\n        /* \"#utility.yul\":4195:4196   */\n      0x00\n        /* \"#utility.yul\":4192:4193   */\n      0x00\n        /* \"#utility.yul\":4185:4197   */\n      revert\n        /* \"#utility.yul\":4147:4199   */\n    tag_190:\n        /* \"#utility.yul\":4235:4244   */\n      dup2\n        /* \"#utility.yul\":4222:4245   */\n      calldataload\n        /* \"#utility.yul\":4268:4286   */\n      0xffffffffffffffff\n        /* \"#utility.yul\":4260:4266   */\n      dup2\n        /* \"#utility.yul\":4257:4287   */\n      gt\n        /* \"#utility.yul\":4254:4304   */\n      iszero\n      tag_191\n      jumpi\n        /* \"#utility.yul\":4300:4301   */\n      0x00\n        /* \"#utility.yul\":4297:4298   */\n      0x00\n        /* \"#utility.yul\":4290:4302   */\n      revert\n        /* \"#utility.yul\":4254:4304   */\n    tag_191:\n        /* \"#utility.yul\":4323:4345   */\n      dup3\n      add\n        /* \"#utility.yul\":4379:4382   */\n      0x0220\n        /* \"#utility.yul\":4361:4377   */\n      dup2\n      dup6\n      sub\n        /* \"#utility.yul\":4357:4383   */\n      slt\n        /* \"#utility.yul\":4354:4400   */\n      iszero\n      tag_187\n      jumpi\n        /* \"#utility.yul\":4396:4397   */\n      0x00\n        /* \"#utility.yul\":4393:4394   */\n      0x00\n        /* \"#utility.yul\":4386:4398   */\n      revert\n        /* \"#utility.yul\":4432:4559   */\n    tag_32:\n        /* \"#utility.yul\":4493:4503   */\n      0x4e487b71\n        /* \"#utility.yul\":4488:4491   */\n      0xe0\n        /* \"#utility.yul\":4484:4504   */\n      shl\n        /* \"#utility.yul\":4481:4482   */\n      0x00\n        /* \"#utility.yul\":4474:4505   */\n      mstore\n        /* \"#utility.yul\":4524:4528   */\n      0x41\n        /* \"#utility.yul\":4521:4522   */\n      0x04\n        /* \"#utility.yul\":4514:4529   */\n      mstore\n        /* \"#utility.yul\":4548:4552   */\n      0x24\n        /* \"#utility.yul\":4545:4546   */\n      0x00\n        /* \"#utility.yul\":4538:4553   */\n      revert\n        /* \"#utility.yul\":4564:4691   */\n    tag_42:\n        /* \"#utility.yul\":4625:4635   */\n      0x4e487b71\n        /* \"#utility.yul\":4620:4623   */\n      0xe0\n        /* \"#utility.yul\":4616:4636   */\n      shl\n        /* \"#utility.yul\":4613:4614   */\n      0x00\n        /* \"#utility.yul\":4606:4637   */\n      mstore\n        /* \"#utility.yul\":4656:4660   */\n      0x32\n        /* \"#utility.yul\":4653:4654   */\n      0x04\n        /* \"#utility.yul\":4646:4661   */\n      mstore\n        /* \"#utility.yul\":4680:4684   */\n      0x24\n        /* \"#utility.yul\":4677:4678   */\n      0x00\n        /* \"#utility.yul\":4670:4685   */\n      revert\n        /* \"#utility.yul\":4696:5076   */\n    tag_45:\n        /* \"#utility.yul\":4775:4776   */\n      0x01\n        /* \"#utility.yul\":4771:4783   */\n      dup2\n      dup2\n      shr\n      swap1\n        /* \"#utility.yul\":4818:4830   */\n      dup3\n      and\n      dup1\n        /* \"#utility.yul\":4839:4900   */\n      tag_196\n      jumpi\n        /* \"#utility.yul\":4893:4897   */\n      0x7f\n        /* \"#utility.yul\":4885:4891   */\n      dup3\n        /* \"#utility.yul\":4881:4898   */\n      and\n        /* \"#utility.yul\":4871:4898   */\n      swap2\n      pop\n        /* \"#utility.yul\":4839:4900   */\n    tag_196:\n        /* \"#utility.yul\":4946:4948   */\n      0x20\n        /* \"#utility.yul\":4938:4944   */\n      dup3\n        /* \"#utility.yul\":4935:4949   */\n      lt\n        /* \"#utility.yul\":4915:4933   */\n      dup2\n        /* \"#utility.yul\":4912:4950   */\n      sub\n        /* \"#utility.yul\":4909:5070   */\n      tag_38\n      jumpi\n        /* \"#utility.yul\":4992:5002   */\n      0x4e487b71\n        /* \"#utility.yul\":4987:4990   */\n      0xe0\n        /* \"#utility.yul\":4983:5003   */\n      shl\n        /* \"#utility.yul\":4980:4981   */\n      0x00\n        /* \"#utility.yul\":4973:5004   */\n      mstore\n        /* \"#utility.yul\":5027:5031   */\n      0x22\n        /* \"#utility.yul\":5024:5025   */\n      0x04\n        /* \"#utility.yul\":5017:5032   */\n      mstore\n        /* \"#utility.yul\":5055:5059   */\n      0x24\n        /* \"#utility.yul\":5052:5053   */\n      0x00\n        /* \"#utility.yul\":5045:5060   */\n      revert\n        /* \"#utility.yul\":5428:5950   */\n    tag_106:\n        /* \"#utility.yul\":5506:5510   */\n      0x00\n        /* \"#utility.yul\":5512:5518   */\n      0x00\n        /* \"#utility.yul\":5572:5583   */\n      dup4\n        /* \"#utility.yul\":5559:5584   */\n      calldataload\n        /* \"#utility.yul\":5666:5668   */\n      0x1e\n        /* \"#utility.yul\":5662:5669   */\n      not\n        /* \"#utility.yul\":5651:5659   */\n      dup5\n        /* \"#utility.yul\":5635:5649   */\n      calldatasize\n        /* \"#utility.yul\":5631:5660   */\n      sub\n        /* \"#utility.yul\":5627:5670   */\n      add\n        /* \"#utility.yul\":5607:5625   */\n      dup2\n        /* \"#utility.yul\":5603:5671   */\n      slt\n        /* \"#utility.yul\":5593:5689   */\n      tag_200\n      jumpi\n        /* \"#utility.yul\":5685:5686   */\n      0x00\n        /* \"#utility.yul\":5682:5683   */\n      0x00\n        /* \"#utility.yul\":5675:5687   */\n      revert\n        /* \"#utility.yul\":5593:5689   */\n    tag_200:\n        /* \"#utility.yul\":5712:5745   */\n      dup4\n      add\n        /* \"#utility.yul\":5764:5784   */\n      dup1\n      calldataload\n      swap2\n      pop\n        /* \"#utility.yul\":5807:5825   */\n      0xffffffffffffffff\n        /* \"#utility.yul\":5796:5826   */\n      dup3\n      gt\n        /* \"#utility.yul\":5793:5843   */\n      iszero\n      tag_201\n      jumpi\n        /* \"#utility.yul\":5839:5840   */\n      0x00\n        /* \"#utility.yul\":5836:5837   */\n      0x00\n        /* \"#utility.yul\":5829:5841   */\n      revert\n        /* \"#utility.yul\":5793:5843   */\n    tag_201:\n        /* \"#utility.yul\":5872:5876   */\n      0x20\n        /* \"#utility.yul\":5860:5877   */\n      add\n      swap2\n      pop\n        /* \"#utility.yul\":5903:5917   */\n      calldatasize\n        /* \"#utility.yul\":5899:5926   */\n      dup2\n      swap1\n      sub\n        /* \"#utility.yul\":5889:5927   */\n      dup3\n      sgt\n        /* \"#utility.yul\":5886:5944   */\n      iszero\n      tag_202\n      jumpi\n        /* \"#utility.yul\":5940:5941   */\n      0x00\n        /* \"#utility.yul\":5937:5938   */\n      0x00\n        /* \"#utility.yul\":5930:5942   */\n      revert\n        /* \"#utility.yul\":5886:5944   */\n    tag_202:\n        /* \"#utility.yul\":5428:5950   */\n      swap3\n      pop\n      swap3\n      swap1\n      pop\n      jump\t// out\n        /* \"#utility.yul\":6302:6552   */\n    tag_163:\n        /* \"#utility.yul\":6369:6371   */\n      0x40\n        /* \"#utility.yul\":6363:6372   */\n      mload\n        /* \"#utility.yul\":6411:6417   */\n      0x0220\n        /* \"#utility.yul\":6399:6418   */\n      dup2\n      add\n        /* \"#utility.yul\":6448:6466   */\n      0xffffffffffffffff\n        /* \"#utility.yul\":6433:6467   */\n      dup2\n      gt\n        /* \"#utility.yul\":6469:6491   */\n      dup3\n      dup3\n      lt\n        /* \"#utility.yul\":6430:6492   */\n      or\n        /* \"#utility.yul\":6427:6515   */\n      iszero\n      tag_206\n      jumpi\n        /* \"#utility.yul\":6495:6513   */\n      tag_206\n      tag_32\n      jump\t// in\n    tag_206:\n        /* \"#utility.yul\":6531:6533   */\n      0x40\n        /* \"#utility.yul\":6524:6546   */\n      mstore\n        /* \"#utility.yul\":6302:6552   */\n      swap1\n      jump\t// out\n        /* \"#utility.yul\":6557:7303   */\n    tag_164:\n        /* \"#utility.yul\":6600:6605   */\n      0x00\n        /* \"#utility.yul\":6653:6656   */\n      dup3\n        /* \"#utility.yul\":6646:6650   */\n      0x1f\n        /* \"#utility.yul\":6638:6644   */\n      dup4\n        /* \"#utility.yul\":6634:6651   */\n      add\n        /* \"#utility.yul\":6630:6657   */\n      slt\n        /* \"#utility.yul\":6620:6675   */\n      tag_208\n      jumpi\n        /* \"#utility.yul\":6671:6672   */\n      0x00\n        /* \"#utility.yul\":6668:6669   */\n      0x00\n        /* \"#utility.yul\":6661:6673   */\n      revert\n        /* \"#utility.yul\":6620:6675   */\n    tag_208:\n        /* \"#utility.yul\":6711:6717   */\n      dup2\n        /* \"#utility.yul\":6698:6718   */\n      calldataload\n        /* \"#utility.yul\":6741:6759   */\n      0xffffffffffffffff\n        /* \"#utility.yul\":6733:6739   */\n      dup2\n        /* \"#utility.yul\":6730:6760   */\n      gt\n        /* \"#utility.yul\":6727:6783   */\n      iszero\n      tag_210\n      jumpi\n        /* \"#utility.yul\":6763:6781   */\n      tag_210\n      tag_32\n      jump\t// in\n    tag_210:\n        /* \"#utility.yul\":6832:6834   */\n      0x40\n        /* \"#utility.yul\":6826:6835   */\n      mload\n        /* \"#utility.yul\":6924:6926   */\n      0x1f\n        /* \"#utility.yul\":6886:6903   */\n      dup3\n      add\n      not(0x1f)\n        /* \"#utility.yul\":6882:6913   */\n      swap1\n      dup2\n      and\n        /* \"#utility.yul\":6915:6917   */\n      0x3f\n        /* \"#utility.yul\":6878:6918   */\n      add\n        /* \"#utility.yul\":6874:6928   */\n      and\n        /* \"#utility.yul\":6862:6929   */\n      dup2\n      add\n        /* \"#utility.yul\":6959:6977   */\n      0xffffffffffffffff\n        /* \"#utility.yul\":6944:6978   */\n      dup2\n      gt\n        /* \"#utility.yul\":6980:7002   */\n      dup3\n      dup3\n      lt\n        /* \"#utility.yul\":6941:7003   */\n      or\n        /* \"#utility.yul\":6938:7026   */\n      iszero\n      tag_212\n      jumpi\n        /* \"#utility.yul\":7006:7024   */\n      tag_212\n      tag_32\n      jump\t// in\n    tag_212:\n        /* \"#utility.yul\":7042:7044   */\n      0x40\n        /* \"#utility.yul\":7035:7057   */\n      mstore\n        /* \"#utility.yul\":7066:7088   */\n      dup2\n      dup2\n      mstore\n        /* \"#utility.yul\":7107:7126   */\n      dup4\n      dup3\n      add\n        /* \"#utility.yul\":7128:7132   */\n      0x20\n        /* \"#utility.yul\":7103:7133   */\n      add\n        /* \"#utility.yul\":7100:7139   */\n      dup6\n      lt\n        /* \"#utility.yul\":7097:7156   */\n      iszero\n      tag_213\n      jumpi\n        /* \"#utility.yul\":7152:7153   */\n      0x00\n        /* \"#utility.yul\":7149:7150   */\n      0x00\n        /* \"#utility.yul\":7142:7154   */\n      revert\n        /* \"#utility.yul\":7097:7156   */\n    tag_213:\n        /* \"#utility.yul\":7216:7222   */\n      dup2\n        /* \"#utility.yul\":7209:7213   */\n      0x20\n        /* \"#utility.yul\":7201:7207   */\n      dup6\n        /* \"#utility.yul\":7197:7214   */\n      add\n        /* \"#utility.yul\":7190:7194   */\n      0x20\n        /* \"#utility.yul\":7182:7188   */\n      dup4\n        /* \"#utility.yul\":7178:7195   */\n      add\n        /* \"#utility.yul\":7165:7223   */\n      calldatacopy\n        /* \"#utility.yul\":7271:7272   */\n      0x00\n        /* \"#utility.yul\":7243:7262   */\n      swap2\n      dup2\n      add\n        /* \"#utility.yul\":7264:7268   */\n      0x20\n        /* \"#utility.yul\":7239:7269   */\n      add\n        /* \"#utility.yul\":7232:7273   */\n      swap2\n      swap1\n      swap2\n      mstore\n        /* \"#utility.yul\":7247:7253   */\n      swap4\n        /* \"#utility.yul\":6557:7303   */\n      swap3\n      pop\n      pop\n      pop\n      jump\t// out\n        /* \"#utility.yul\":7308:7468   */\n    tag_165:\n        /* \"#utility.yul\":7373:7393   */\n      dup1\n      calldataload\n        /* \"#utility.yul\":7429:7442   */\n      dup1\n      iszero\n        /* \"#utility.yul\":7422:7443   */\n      iszero\n        /* \"#utility.yul\":7412:7444   */\n      dup2\n      eq\n        /* \"#utility.yul\":7402:7462   */\n      tag_215\n      jumpi\n        /* \"#utility.yul\":7458:7459   */\n      0x00\n        /* \"#utility.yul\":7455:7456   */\n      0x00\n        /* \"#utility.yul\":7448:7460   */\n      revert\n        /* \"#utility.yul\":7402:7462   */\n    tag_215:\n        /* \"#utility.yul\":7308:7468   */\n      swap2\n      swap1\n      pop\n      jump\t// out\n        /* \"#utility.yul\":7473:9932   */\n    tag_112:\n        /* \"#utility.yul\":7583:7592   */\n      0x00\n        /* \"#utility.yul\":7642:7648   */\n      0x0220\n        /* \"#utility.yul\":7634:7639   */\n      dup3\n        /* \"#utility.yul\":7618:7632   */\n      calldatasize\n        /* \"#utility.yul\":7614:7640   */\n      sub\n        /* \"#utility.yul\":7610:7649   */\n      slt\n        /* \"#utility.yul\":7607:7666   */\n      iszero\n      tag_217\n      jumpi\n        /* \"#utility.yul\":7662:7663   */\n      0x00\n        /* \"#utility.yul\":7659:7660   */\n      0x00\n        /* \"#utility.yul\":7652:7664   */\n      revert\n        /* \"#utility.yul\":7607:7666   */\n    tag_217:\n        /* \"#utility.yul\":7690:7707   */\n      tag_218\n      tag_163\n      jump\t// in\n    tag_218:\n        /* \"#utility.yul\":7752:7771   */\n      dup3\n      calldataload\n        /* \"#utility.yul\":7780:7804   */\n      dup2\n      mstore\n        /* \"#utility.yul\":7873:7875   */\n      0x20\n        /* \"#utility.yul\":7862:7876   */\n      dup1\n      dup5\n      add\n        /* \"#utility.yul\":7849:7877   */\n      calldataload\n        /* \"#utility.yul\":7893:7909   */\n      swap1\n      dup3\n      add\n        /* \"#utility.yul\":7886:7919   */\n      mstore\n        /* \"#utility.yul\":7966:7968   */\n      0x40\n        /* \"#utility.yul\":7955:7969   */\n      dup4\n      add\n        /* \"#utility.yul\":7942:7970   */\n      calldataload\n        /* \"#utility.yul\":7993:8011   */\n      0xffffffffffffffff\n        /* \"#utility.yul\":7982:8012   */\n      dup2\n      gt\n        /* \"#utility.yul\":7979:8029   */\n      iszero\n      tag_219\n      jumpi\n        /* \"#utility.yul\":8025:8026   */\n      0x00\n        /* \"#utility.yul\":8022:8023   */\n      0x00\n        /* \"#utility.yul\":8015:8027   */\n      revert\n        /* \"#utility.yul\":7979:8029   */\n    tag_219:\n        /* \"#utility.yul\":8063:8116   */\n      tag_220\n        /* \"#utility.yul\":8101:8115   */\n      calldatasize\n        /* \"#utility.yul\":8092:8098   */\n      dup3\n        /* \"#utility.yul\":8085:8090   */\n      dup7\n        /* \"#utility.yul\":8081:8099   */\n      add\n        /* \"#utility.yul\":8063:8116   */\n      tag_164\n      jump\t// in\n    tag_220:\n        /* \"#utility.yul\":8058:8060   */\n      0x40\n        /* \"#utility.yul\":8049:8056   */\n      dup4\n        /* \"#utility.yul\":8045:8061   */\n      add\n        /* \"#utility.yul\":8038:8117   */\n      mstore\n      pop\n        /* \"#utility.yul\":8166:8168   */\n      0x60\n        /* \"#utility.yul\":8159:8164   */\n      dup4\n        /* \"#utility.yul\":8155:8169   */\n      add\n        /* \"#utility.yul\":8142:8170   */\n      calldataload\n        /* \"#utility.yul\":8195:8213   */\n      0xffffffffffffffff\n        /* \"#utility.yul\":8185:8193   */\n      dup2\n        /* \"#utility.yul\":8182:8214   */\n      gt\n        /* \"#utility.yul\":8179:8231   */\n      iszero\n      tag_221\n      jumpi\n        /* \"#utility.yul\":8227:8228   */\n      0x00\n        /* \"#utility.yul\":8224:8225   */\n      0x00\n        /* \"#utility.yul\":8217:8229   */\n      revert\n        /* \"#utility.yul\":8179:8231   */\n    tag_221:\n        /* \"#utility.yul\":8265:8320   */\n      tag_222\n        /* \"#utility.yul\":8305:8319   */\n      calldatasize\n        /* \"#utility.yul\":8294:8302   */\n      dup3\n        /* \"#utility.yul\":8287:8292   */\n      dup7\n        /* \"#utility.yul\":8283:8303   */\n      add\n        /* \"#utility.yul\":8265:8320   */\n      tag_164\n      jump\t// in\n    tag_222:\n        /* \"#utility.yul\":8260:8262   */\n      0x60\n        /* \"#utility.yul\":8247:8263   */\n      dup4\n      add\n        /* \"#utility.yul\":8240:8321   */\n      mstore\n      pop\n        /* \"#utility.yul\":8390:8393   */\n      0x80\n        /* \"#utility.yul\":8379:8394   */\n      dup4\n      dup2\n      add\n        /* \"#utility.yul\":8366:8395   */\n      calldataload\n        /* \"#utility.yul\":8411:8428   */\n      swap1\n      dup3\n      add\n        /* \"#utility.yul\":8404:8438   */\n      mstore\n        /* \"#utility.yul\":8507:8510   */\n      0xa0\n        /* \"#utility.yul\":8496:8511   */\n      dup1\n      dup5\n      add\n        /* \"#utility.yul\":8483:8512   */\n      calldataload\n        /* \"#utility.yul\":8528:8545   */\n      swap1\n      dup3\n      add\n        /* \"#utility.yul\":8521:8555   */\n      mstore\n        /* \"#utility.yul\":8624:8627   */\n      0xc0\n        /* \"#utility.yul\":8613:8628   */\n      dup1\n      dup5\n      add\n        /* \"#utility.yul\":8600:8629   */\n      calldataload\n        /* \"#utility.yul\":8645:8662   */\n      swap1\n      dup3\n      add\n        /* \"#utility.yul\":8638:8672   */\n      mstore\n        /* \"#utility.yul\":8741:8744   */\n      0xe0\n        /* \"#utility.yul\":8730:8745   */\n      dup1\n      dup5\n      add\n        /* \"#utility.yul\":8717:8746   */\n      calldataload\n        /* \"#utility.yul\":8762:8779   */\n      swap1\n      dup3\n      add\n        /* \"#utility.yul\":8755:8789   */\n      mstore\n        /* \"#utility.yul\":8858:8861   */\n      0x0100\n        /* \"#utility.yul\":8847:8862   */\n      dup1\n      dup5\n      add\n        /* \"#utility.yul\":8834:8863   */\n      calldataload\n        /* \"#utility.yul\":8879:8896   */\n      swap1\n      dup3\n      add\n        /* \"#utility.yul\":8872:8906   */\n      mstore\n        /* \"#utility.yul\":8975:8978   */\n      0x0120\n        /* \"#utility.yul\":8964:8979   */\n      dup1\n      dup5\n      add\n        /* \"#utility.yul\":8951:8980   */\n      calldataload\n        /* \"#utility.yul\":8996:9013   */\n      swap1\n      dup3\n      add\n        /* \"#utility.yul\":8989:9023   */\n      mstore\n        /* \"#utility.yul\":9094:9097   */\n      0x0140\n        /* \"#utility.yul\":9083:9098   */\n      dup1\n      dup5\n      add\n        /* \"#utility.yul\":9070:9099   */\n      calldataload\n        /* \"#utility.yul\":9115:9132   */\n      swap1\n      dup3\n      add\n        /* \"#utility.yul\":9108:9143   */\n      mstore\n        /* \"#utility.yul\":9214:9217   */\n      0x0160\n        /* \"#utility.yul\":9203:9218   */\n      dup1\n      dup5\n      add\n        /* \"#utility.yul\":9190:9219   */\n      calldataload\n        /* \"#utility.yul\":9235:9252   */\n      swap1\n      dup3\n      add\n        /* \"#utility.yul\":9228:9263   */\n      mstore\n        /* \"#utility.yul\":9298:9330   */\n      tag_223\n        /* \"#utility.yul\":9325:9328   */\n      0x0180\n        /* \"#utility.yul\":9314:9329   */\n      dup5\n      add\n        /* \"#utility.yul\":9298:9330   */\n      tag_165\n      jump\t// in\n    tag_223:\n        /* \"#utility.yul\":9292:9295   */\n      0x0180\n        /* \"#utility.yul\":9279:9296   */\n      dup3\n      add\n        /* \"#utility.yul\":9272:9331   */\n      mstore\n        /* \"#utility.yul\":9402:9405   */\n      0x01a0\n        /* \"#utility.yul\":9391:9406   */\n      dup4\n      dup2\n      add\n        /* \"#utility.yul\":9378:9407   */\n      calldataload\n        /* \"#utility.yul\":9423:9440   */\n      swap1\n      dup3\n      add\n        /* \"#utility.yul\":9416:9451   */\n      mstore\n        /* \"#utility.yul\":9522:9525   */\n      0x01c0\n        /* \"#utility.yul\":9511:9526   */\n      dup1\n      dup5\n      add\n        /* \"#utility.yul\":9498:9527   */\n      calldataload\n        /* \"#utility.yul\":9543:9560   */\n      swap1\n      dup3\n      add\n        /* \"#utility.yul\":9536:9571   */\n      mstore\n        /* \"#utility.yul\":9642:9645   */\n      0x01e0\n        /* \"#utility.yul\":9631:9646   */\n      dup1\n      dup5\n      add\n        /* \"#utility.yul\":9618:9647   */\n      calldataload\n        /* \"#utility.yul\":9663:9680   */\n      swap1\n      dup3\n      add\n        /* \"#utility.yul\":9656:9691   */\n      mstore\n        /* \"#utility.yul\":9740:9743   */\n      0x0200\n        /* \"#utility.yul\":9729:9744   */\n      dup4\n      add\n        /* \"#utility.yul\":9716:9745   */\n      calldataload\n        /* \"#utility.yul\":9770:9788   */\n      0xffffffffffffffff\n        /* \"#utility.yul\":9757:9789   */\n      dup2\n      gt\n        /* \"#utility.yul\":9754:9806   */\n      iszero\n      tag_224\n      jumpi\n        /* \"#utility.yul\":9802:9803   */\n      0x00\n        /* \"#utility.yul\":9799:9800   */\n      0x00\n        /* \"#utility.yul\":9792:9804   */\n      revert\n        /* \"#utility.yul\":9754:9806   */\n    tag_224:\n        /* \"#utility.yul\":9841:9896   */\n      tag_225\n        /* \"#utility.yul\":9881:9895   */\n      calldatasize\n        /* \"#utility.yul\":9870:9878   */\n      dup3\n        /* \"#utility.yul\":9863:9868   */\n      dup7\n        /* \"#utility.yul\":9859:9879   */\n      add\n        /* \"#utility.yul\":9841:9896   */\n      tag_164\n      jump\t// in\n    tag_225:\n        /* \"#utility.yul\":9835:9838   */\n      0x0200\n        /* \"#utility.yul\":9822:9839   */\n      dup4\n      add\n        /* \"#utility.yul\":9815:9897   */\n      mstore\n      pop\n        /* \"#utility.yul\":9826:9833   */\n      swap3\n        /* \"#utility.yul\":7473:9932   */\n      swap2\n      pop\n      pop\n      jump\t// out\n        /* \"#utility.yul\":10063:10581   */\n    tag_167:\n        /* \"#utility.yul\":10165:10167   */\n      0x1f\n        /* \"#utility.yul\":10160:10163   */\n      dup3\n        /* \"#utility.yul\":10157:10168   */\n      gt\n        /* \"#utility.yul\":10154:10575   */\n      iszero\n      tag_228\n      jumpi\n        /* \"#utility.yul\":10201:10206   */\n      dup1\n        /* \"#utility.yul\":10198:10199   */\n      0x00\n        /* \"#utility.yul\":10191:10207   */\n      mstore\n        /* \"#utility.yul\":10245:10249   */\n      0x20\n        /* \"#utility.yul\":10242:10243   */\n      0x00\n        /* \"#utility.yul\":10232:10250   */\n      keccak256\n        /* \"#utility.yul\":10315:10317   */\n      0x1f\n        /* \"#utility.yul\":10303:10313   */\n      dup5\n        /* \"#utility.yul\":10299:10318   */\n      add\n        /* \"#utility.yul\":10296:10297   */\n      0x05\n        /* \"#utility.yul\":10292:10319   */\n      shr\n        /* \"#utility.yul\":10286:10290   */\n      dup2\n        /* \"#utility.yul\":10282:10320   */\n      add\n        /* \"#utility.yul\":10351:10355   */\n      0x20\n        /* \"#utility.yul\":10339:10349   */\n      dup6\n        /* \"#utility.yul\":10336:10356   */\n      lt\n        /* \"#utility.yul\":10333:10380   */\n      iszero\n      tag_229\n      jumpi\n      pop\n        /* \"#utility.yul\":10374:10378   */\n      dup1\n        /* \"#utility.yul\":10333:10380   */\n    tag_229:\n        /* \"#utility.yul\":10429:10431   */\n      0x1f\n        /* \"#utility.yul\":10424:10427   */\n      dup5\n        /* \"#utility.yul\":10420:10432   */\n      add\n        /* \"#utility.yul\":10417:10418   */\n      0x05\n        /* \"#utility.yul\":10413:10433   */\n      shr\n        /* \"#utility.yul\":10407:10411   */\n      dup3\n        /* \"#utility.yul\":10403:10434   */\n      add\n        /* \"#utility.yul\":10393:10434   */\n      swap2\n      pop\n        /* \"#utility.yul\":10484:10565   */\n    tag_230:\n        /* \"#utility.yul\":10502:10504   */\n      dup2\n        /* \"#utility.yul\":10495:10500   */\n      dup2\n        /* \"#utility.yul\":10492:10505   */\n      lt\n        /* \"#utility.yul\":10484:10565   */\n      iszero\n      tag_232\n      jumpi\n        /* \"#utility.yul\":10561:10562   */\n      0x00\n        /* \"#utility.yul\":10547:10563   */\n      dup2\n      sstore\n        /* \"#utility.yul\":10528:10529   */\n      0x01\n        /* \"#utility.yul\":10517:10530   */\n      add\n        /* \"#utility.yul\":10484:10565   */\n      jump(tag_230)\n    tag_232:\n        /* \"#utility.yul\":10488:10491   */\n      pop\n      pop\n        /* \"#utility.yul\":10154:10575   */\n    tag_228:\n        /* \"#utility.yul\":10063:10581   */\n      pop\n      pop\n      pop\n      jump\t// out\n        /* \"#utility.yul\":10757:12056   */\n    tag_114:\n        /* \"#utility.yul\":10883:10886   */\n      dup2\n        /* \"#utility.yul\":10877:10887   */\n      mload\n        /* \"#utility.yul\":10910:10928   */\n      0xffffffffffffffff\n        /* \"#utility.yul\":10902:10908   */\n      dup2\n        /* \"#utility.yul\":10899:10929   */\n      gt\n        /* \"#utility.yul\":10896:10952   */\n      iszero\n      tag_236\n      jumpi\n        /* \"#utility.yul\":10932:10950   */\n      tag_236\n      tag_32\n      jump\t// in\n    tag_236:\n        /* \"#utility.yul\":10961:11058   */\n      tag_237\n        /* \"#utility.yul\":11051:11057   */\n      dup2\n        /* \"#utility.yul\":11011:11049   */\n      tag_238\n        /* \"#utility.yul\":11043:11047   */\n      dup5\n        /* \"#utility.yul\":11037:11048   */\n      sload\n        /* \"#utility.yul\":11011:11049   */\n      tag_45\n      jump\t// in\n    tag_238:\n        /* \"#utility.yul\":11005:11009   */\n      dup5\n        /* \"#utility.yul\":10961:11058   */\n      tag_167\n      jump\t// in\n    tag_237:\n        /* \"#utility.yul\":11107:11111   */\n      0x20\n        /* \"#utility.yul\":11138:11140   */\n      0x1f\n        /* \"#utility.yul\":11127:11141   */\n      dup3\n      gt\n        /* \"#utility.yul\":11155:11156   */\n      0x01\n        /* \"#utility.yul\":11150:11799   */\n      dup2\n      eq\n      tag_240\n      jumpi\n        /* \"#utility.yul\":11843:11844   */\n      0x00\n        /* \"#utility.yul\":11860:11866   */\n      dup4\n        /* \"#utility.yul\":11857:11946   */\n      iszero\n      tag_241\n      jumpi\n      pop\n        /* \"#utility.yul\":11912:11931   */\n      dup5\n      dup3\n      add\n        /* \"#utility.yul\":11906:11932   */\n      mload\n        /* \"#utility.yul\":11857:11946   */\n    tag_241:\n      not(0x00)\n        /* \"#utility.yul\":10714:10715   */\n      0x03\n        /* \"#utility.yul\":10710:10721   */\n      dup6\n      swap1\n      shl\n        /* \"#utility.yul\":10706:10730   */\n      shr\n        /* \"#utility.yul\":10702:10731   */\n      not\n        /* \"#utility.yul\":10692:10732   */\n      and\n        /* \"#utility.yul\":10738:10739   */\n      0x01\n        /* \"#utility.yul\":10734:10745   */\n      dup5\n      swap1\n      shl\n        /* \"#utility.yul\":10689:10746   */\n      or\n        /* \"#utility.yul\":11959:12040   */\n      dup5\n      sstore\n        /* \"#utility.yul\":11120:12050   */\n      jump(tag_232)\n        /* \"#utility.yul\":11150:11799   */\n    tag_240:\n        /* \"#utility.yul\":10010:10011   */\n      0x00\n        /* \"#utility.yul\":10003:10017   */\n      dup5\n      dup2\n      mstore\n        /* \"#utility.yul\":10047:10051   */\n      0x20\n        /* \"#utility.yul\":10034:10052   */\n      dup2\n      keccak256\n      not(0x1f)\n        /* \"#utility.yul\":11186:11206   */\n      dup6\n      and\n      swap2\n        /* \"#utility.yul\":11304:11526   */\n    tag_244:\n        /* \"#utility.yul\":11318:11325   */\n      dup3\n        /* \"#utility.yul\":11315:11316   */\n      dup2\n        /* \"#utility.yul\":11312:11326   */\n      lt\n        /* \"#utility.yul\":11304:11526   */\n      iszero\n      tag_246\n      jumpi\n        /* \"#utility.yul\":11400:11419   */\n      dup8\n      dup6\n      add\n        /* \"#utility.yul\":11394:11420   */\n      mload\n        /* \"#utility.yul\":11379:11421   */\n      dup3\n      sstore\n        /* \"#utility.yul\":11507:11511   */\n      0x20\n        /* \"#utility.yul\":11492:11512   */\n      swap5\n      dup6\n      add\n      swap5\n        /* \"#utility.yul\":11460:11461   */\n      0x01\n        /* \"#utility.yul\":11448:11462   */\n      swap1\n      swap3\n      add\n      swap2\n        /* \"#utility.yul\":11334:11346   */\n      add\n        /* \"#utility.yul\":11304:11526   */\n      jump(tag_244)\n    tag_246:\n        /* \"#utility.yul\":11308:11311   */\n      pop\n        /* \"#utility.yul\":11554:11560   */\n      dup5\n        /* \"#utility.yul\":11545:11552   */\n      dup3\n        /* \"#utility.yul\":11542:11561   */\n      lt\n        /* \"#utility.yul\":11539:11740   */\n      iszero\n      tag_247\n      jumpi\n        /* \"#utility.yul\":11615:11634   */\n      dup7\n      dup5\n      add\n        /* \"#utility.yul\":11609:11635   */\n      mload\n      not(0x00)\n        /* \"#utility.yul\":11698:11699   */\n      0x03\n        /* \"#utility.yul\":11694:11708   */\n      dup8\n      swap1\n      shl\n        /* \"#utility.yul\":11710:11713   */\n      0xf8\n        /* \"#utility.yul\":11690:11714   */\n      and\n        /* \"#utility.yul\":11686:11723   */\n      shr\n        /* \"#utility.yul\":11682:11724   */\n      not\n        /* \"#utility.yul\":11667:11725   */\n      and\n        /* \"#utility.yul\":11652:11726   */\n      dup2\n      sstore\n        /* \"#utility.yul\":11539:11740   */\n    tag_247:\n      pop\n      pop\n      pop\n      pop\n        /* \"#utility.yul\":11786:11787   */\n      0x01\n        /* \"#utility.yul\":11770:11784   */\n      swap1\n      dup2\n      shl\n        /* \"#utility.yul\":11766:11788   */\n      add\n        /* \"#utility.yul\":11753:11789   */\n      swap1\n      sstore\n      pop\n        /* \"#utility.yul\":10757:12056   */\n      jump\t// out\n        /* \"#utility.yul\":12061:12669   */\n    tag_122:\n        /* \"#utility.yul\":12304:12310   */\n      dup6\n        /* \"#utility.yul\":12293:12302   */\n      dup2\n        /* \"#utility.yul\":12286:12311   */\n      mstore\n        /* \"#utility.yul\":12347:12350   */\n      0x80\n        /* \"#utility.yul\":12342:12344   */\n      0x20\n        /* \"#utility.yul\":12331:12340   */\n      dup3\n        /* \"#utility.yul\":12327:12345   */\n      add\n        /* \"#utility.yul\":12320:12351   */\n      mstore\n        /* \"#utility.yul\":12388:12394   */\n      dup4\n        /* \"#utility.yul\":12382:12385   */\n      0x80\n        /* \"#utility.yul\":12371:12380   */\n      dup3\n        /* \"#utility.yul\":12367:12386   */\n      add\n        /* \"#utility.yul\":12360:12395   */\n      mstore\n        /* \"#utility.yul\":12446:12452   */\n      dup4\n        /* \"#utility.yul\":12438:12444   */\n      dup6\n        /* \"#utility.yul\":12432:12435   */\n      0xa0\n        /* \"#utility.yul\":12421:12430   */\n      dup4\n        /* \"#utility.yul\":12417:12436   */\n      add\n        /* \"#utility.yul\":12404:12453   */\n      calldatacopy\n        /* \"#utility.yul\":12503:12504   */\n      0x00\n        /* \"#utility.yul\":12497:12500   */\n      0xa0\n        /* \"#utility.yul\":12488:12494   */\n      dup6\n        /* \"#utility.yul\":12477:12486   */\n      dup4\n        /* \"#utility.yul\":12473:12495   */\n      add\n        /* \"#utility.yul\":12469:12501   */\n      add\n        /* \"#utility.yul\":12462:12505   */\n      mstore\n        /* \"#utility.yul\":12267:12271   */\n      0x00\n        /* \"#utility.yul\":12573:12576   */\n      0xa0\n        /* \"#utility.yul\":12566:12568   */\n      0x1f\n        /* \"#utility.yul\":12562:12569   */\n      not\n        /* \"#utility.yul\":12557:12559   */\n      0x1f\n        /* \"#utility.yul\":12549:12555   */\n      dup8\n        /* \"#utility.yul\":12545:12560   */\n      add\n        /* \"#utility.yul\":12541:12570   */\n      and\n        /* \"#utility.yul\":12530:12539   */\n      dup4\n        /* \"#utility.yul\":12526:12571   */\n      add\n        /* \"#utility.yul\":12522:12577   */\n      add\n        /* \"#utility.yul\":12514:12577   */\n      swap1\n      pop\n        /* \"#utility.yul\":12613:12619   */\n      dup4\n        /* \"#utility.yul\":12608:12610   */\n      0x40\n        /* \"#utility.yul\":12597:12606   */\n      dup4\n        /* \"#utility.yul\":12593:12611   */\n      add\n        /* \"#utility.yul\":12586:12620   */\n      mstore\n        /* \"#utility.yul\":12656:12662   */\n      dup3\n        /* \"#utility.yul\":12651:12653   */\n      0x60\n        /* \"#utility.yul\":12640:12649   */\n      dup4\n        /* \"#utility.yul\":12636:12654   */\n      add\n        /* \"#utility.yul\":12629:12663   */\n      mstore\n        /* \"#utility.yul\":12061:12669   */\n      swap7\n      swap6\n      pop\n      pop\n      pop\n      pop\n      pop\n      pop\n      jump\t// out\n        /* \"#utility.yul\":13021:13246   */\n    tag_129:\n        /* \"#utility.yul\":13088:13097   */\n      dup2\n      dup2\n      sub\n        /* \"#utility.yul\":13109:13120   */\n      dup2\n      dup2\n      gt\n        /* \"#utility.yul\":13106:13240   */\n      iszero\n      tag_251\n      jumpi\n        /* \"#utility.yul\":13162:13172   */\n      0x4e487b71\n        /* \"#utility.yul\":13157:13160   */\n      0xe0\n        /* \"#utility.yul\":13153:13173   */\n      shl\n        /* \"#utility.yul\":13150:13151   */\n      0x00\n        /* \"#utility.yul\":13143:13174   */\n      mstore\n        /* \"#utility.yul\":13197:13201   */\n      0x11\n        /* \"#utility.yul\":13194:13195   */\n      0x04\n        /* \"#utility.yul\":13187:13202   */\n      mstore\n        /* \"#utility.yul\":13225:13229   */\n      0x24\n        /* \"#utility.yul\":13222:13223   */\n      0x00\n        /* \"#utility.yul\":13215:13230   */\n      revert\n        /* \"#utility.yul\":13106:13240   */\n    tag_251:\n        /* \"#utility.yul\":13021:13246   */\n      swap3\n      swap2\n      pop\n      pop\n      jump\t// out\n\n    auxdata: 0xa2646970667358221220caba922caa39c5ecf07aaf7458b5d75a487e357e790dfed831ceae828e7b65f764736f6c634300081e0033\n}\n",
				"bytecode": {
					"linkReferences": {},
					"object": "6080604052348015600e575f5ffd5b506116f28061001c5f395ff3fe608060405234801561000f575f5ffd5b5060043610610055575f3560e01c80638d5ce2bc14610059578063a00a542414610077578063be1c766b14610097578063c80da6cf146100a8578063edd0bf6a146100bd575b5f5ffd5b6100616100c5565b60405161006e91906111db565b60405180910390f35b61008a61008536600461123e565b610516565b60405161006e9190611255565b60015460405190815260200161006e565b6100bb6100b636600461126e565b6108c4565b005b61008a610ba9565b6001546060905f9067ffffffffffffffff8111156100e5576100e56112a6565b60405190808252806020026020018201604052801561011e57816020015b61010b610fcb565b8152602001906001900390816101035790505b5090505f5b600154811015610510575f5f60018381548110610142576101426112ba565b905f5260205f20015481526020019081526020015f206040518060800160405290815f82018054610172906112ce565b80601f016020809104026020016040519081016040528092919081815260200182805461019e906112ce565b80156101e95780601f106101c0576101008083540402835291602001916101e9565b820191905f5260205f20905b8154815290600101906020018083116101cc57829003601f168201915b505050505081526020016001820154815260200160028201805461020c906112ce565b80601f0160208091040260200160405190810160405280929190818152602001828054610238906112ce565b80156102835780601f1061025a57610100808354040283529160200191610283565b820191905f5260205f20905b81548152906001019060200180831161026657829003601f168201915b5050505050815260200160038201604051806102200160405290815f8201548152602001600182015481526020016002820180546102c0906112ce565b80601f01602080910402602001604051908101604052809291908181526020018280546102ec906112ce565b80156103375780601f1061030e57610100808354040283529160200191610337565b820191905f5260205f20905b81548152906001019060200180831161031a57829003601f168201915b50505050508152602001600382018054610350906112ce565b80601f016020809104026020016040519081016040528092919081815260200182805461037c906112ce565b80156103c75780601f1061039e576101008083540402835291602001916103c7565b820191905f5260205f20905b8154815290600101906020018083116103aa57829003601f168201915b505050918352505060048201546020820152600582015460408201526006820154606082015260078201546080820152600882015460a0820152600982015460c0820152600a82015460e0820152600b820154610100820152600c82015460ff161515610120820152600d820154610140820152600e820154610160820152600f8201546101808201526010820180546101a090920191610467906112ce565b80601f0160208091040260200160405190810160405280929190818152602001828054610493906112ce565b80156104de5780601f106104b5576101008083540402835291602001916104de565b820191905f5260205f20905b8154815290600101906020018083116104c157829003601f168201915b505050505081525050815250508282815181106104fd576104fd6112ba565b6020908102919091010152600101610123565b50919050565b61051e610fcb565b5f8281526020819052604090819020815160808101909252805482908290610545906112ce565b80601f0160208091040260200160405190810160405280929190818152602001828054610571906112ce565b80156105bc5780601f10610593576101008083540402835291602001916105bc565b820191905f5260205f20905b81548152906001019060200180831161059f57829003601f168201915b50505050508152602001600182015481526020016002820180546105df906112ce565b80601f016020809104026020016040519081016040528092919081815260200182805461060b906112ce565b80156106565780601f1061062d57610100808354040283529160200191610656565b820191905f5260205f20905b81548152906001019060200180831161063957829003601f168201915b5050505050815260200160038201604051806102200160405290815f820154815260200160018201548152602001600282018054610693906112ce565b80601f01602080910402602001604051908101604052809291908181526020018280546106bf906112ce565b801561070a5780601f106106e15761010080835404028352916020019161070a565b820191905f5260205f20905b8154815290600101906020018083116106ed57829003601f168201915b50505050508152602001600382018054610723906112ce565b80601f016020809104026020016040519081016040528092919081815260200182805461074f906112ce565b801561079a5780601f106107715761010080835404028352916020019161079a565b820191905f5260205f20905b81548152906001019060200180831161077d57829003601f168201915b505050918352505060048201546020820152600582015460408201526006820154606082015260078201546080820152600882015460a0820152600982015460c0820152600a82015460e0820152600b820154610100820152600c82015460ff161515610120820152600d820154610140820152600e820154610160820152600f8201546101808201526010820180546101a09092019161083a906112ce565b80601f0160208091040260200160405190810160405280929190818152602001828054610866906112ce565b80156108b15780601f10610888576101008083540402835291602001916108b1565b820191905f5260205f20905b81548152906001019060200180831161089457829003601f168201915b5050509190925250505090525092915050565b8035158015906108d8575080356020820135115b61091e5760405162461bcd60e51b8152602060048201526012602482015271496e76616c69642074696d652072616e676560701b60448201526064015b60405180910390fd5b5f61092c6040830183611300565b9050116109705760405162461bcd60e51b815260206004820152601260248201527114de5b589bdb081a5cc81c995c5d5a5c995960721b6044820152606401610915565b6040805160c081018252600560808201908152646b6c696e6560d81b60a083015281524260208201528235915f9190818101906109af90860186611300565b8080601f0160208091040260200160405190810160405280939291908181526020018383808284375f920191909152505050908252506020016109f185611413565b90525f838152602081905260409020815191925082918190610a139082611597565b506020820151600182015560408201516002820190610a329082611597565b5060608201518051600383019081556020820151600484015560408201516005840190610a5f9082611597565b5060608201516003820190610a749082611597565b506080820151600482015560a0820151600582015560c0820151600682015560e0820151600782015561010082015160088201556101208201516009820155610140820151600a820155610160820151600b820155610180820151600c8201805460ff19169115159190911790556101a0820151600d8201556101c0820151600e8201556101e0820151600f8201556102008201516010820190610b189082611597565b50506001805480820182555f919091527fb10e2d527612073b26eecdfd717e6a320cf44b4afac2b0732d9fcbe2b7fa0cf601859055507f457e71e233bfca657f83107e4d22cc35169beda85c2b16268c89ed23a9d2d0869150839050610b816040860186611300565b8660c001358760e00135604051610b9c959493929190611652565b60405180910390a1505050565b610bb1610fcb565b600154610bf55760405162461bcd60e51b8152602060048201526012602482015271139bc81adb1a5b995cc81c9958dbdc99195960721b6044820152606401610915565b600180545f9190610c07908290611697565b81548110610c1757610c176112ba565b905f5260205f20015490505f5f8281526020019081526020015f206040518060800160405290815f82018054610c4c906112ce565b80601f0160208091040260200160405190810160405280929190818152602001828054610c78906112ce565b8015610cc35780601f10610c9a57610100808354040283529160200191610cc3565b820191905f5260205f20905b815481529060010190602001808311610ca657829003601f168201915b5050505050815260200160018201548152602001600282018054610ce6906112ce565b80601f0160208091040260200160405190810160405280929190818152602001828054610d12906112ce565b8015610d5d5780601f10610d3457610100808354040283529160200191610d5d565b820191905f5260205f20905b815481529060010190602001808311610d4057829003601f168201915b5050505050815260200160038201604051806102200160405290815f820154815260200160018201548152602001600282018054610d9a906112ce565b80601f0160208091040260200160405190810160405280929190818152602001828054610dc6906112ce565b8015610e115780601f10610de857610100808354040283529160200191610e11565b820191905f5260205f20905b815481529060010190602001808311610df457829003601f168201915b50505050508152602001600382018054610e2a906112ce565b80601f0160208091040260200160405190810160405280929190818152602001828054610e56906112ce565b8015610ea15780601f10610e7857610100808354040283529160200191610ea1565b820191905f5260205f20905b815481529060010190602001808311610e8457829003601f168201915b505050918352505060048201546020820152600582015460408201526006820154606082015260078201546080820152600882015460a0820152600982015460c0820152600a82015460e0820152600b820154610100820152600c82015460ff161515610120820152600d820154610140820152600e820154610160820152600f8201546101808201526010820180546101a090920191610f41906112ce565b80601f0160208091040260200160405190810160405280929190818152602001828054610f6d906112ce565b8015610fb85780601f10610f8f57610100808354040283529160200191610fb8565b820191905f5260205f20905b815481529060010190602001808311610f9b57829003601f168201915b5050505050815250508152505091505090565b6040518060800160405280606081526020015f8152602001606081526020016110656040518061022001604052805f81526020015f815260200160608152602001606081526020015f81526020015f81526020015f81526020015f81526020015f81526020015f81526020015f81526020015f81526020015f151581526020015f81526020015f81526020015f8152602001606081525090565b905290565b5f81518084528060208401602086015e5f602082860101526020601f19601f83011685010191505092915050565b5f8151608084526110ac608085018261106a565b905060208301516020850152604083015184820360408601526110cf828261106a565b9150506060830151848203606086015280518252602081015160208301526040810151610220604084015261110861022084018261106a565b905060608201518382036060850152611121828261106a565b9150506080820151608084015260a082015160a084015260c082015160c084015260e082015160e084015261010082015161010084015261012082015161012084015261014082015161014084015261016082015161016084015261018082015161119161018085018215159052565b506101a08201516101a08401526101c08201516101c08401526101e08201516101e084015261020082015191508281036102008401526111d1818361106a565b9695505050505050565b5f602082016020835280845180835260408501915060408160051b8601019250602086015f5b8281101561123257603f1987860301845261121d858351611098565b94506020938401939190910190600101611201565b50929695505050505050565b5f6020828403121561124e575f5ffd5b5035919050565b602081525f6112676020830184611098565b9392505050565b5f6020828403121561127e575f5ffd5b813567ffffffffffffffff811115611294575f5ffd5b82016102208185031215611267575f5ffd5b634e487b7160e01b5f52604160045260245ffd5b634e487b7160e01b5f52603260045260245ffd5b600181811c908216806112e257607f821691505b60208210810361051057634e487b7160e01b5f52602260045260245ffd5b5f5f8335601e19843603018112611315575f5ffd5b83018035915067ffffffffffffffff82111561132f575f5ffd5b602001915036819003821315611343575f5ffd5b9250929050565b604051610220810167ffffffffffffffff8111828210171561136e5761136e6112a6565b60405290565b5f82601f830112611383575f5ffd5b813567ffffffffffffffff81111561139d5761139d6112a6565b604051601f8201601f19908116603f0116810167ffffffffffffffff811182821017156113cc576113cc6112a6565b6040528181528382016020018510156113e3575f5ffd5b816020850160208301375f918101602001919091529392505050565b8035801515811461140e575f5ffd5b919050565b5f6102208236031215611424575f5ffd5b61142c61134a565b8235815260208084013590820152604083013567ffffffffffffffff811115611453575f5ffd5b61145f36828601611374565b604083015250606083013567ffffffffffffffff81111561147e575f5ffd5b61148a36828601611374565b6060830152506080838101359082015260a0808401359082015260c0808401359082015260e0808401359082015261010080840135908201526101208084013590820152610140808401359082015261016080840135908201526114f161018084016113ff565b6101808201526101a083810135908201526101c080840135908201526101e0808401359082015261020083013567ffffffffffffffff811115611532575f5ffd5b61153e36828601611374565b6102008301525092915050565b601f82111561159257805f5260205f20601f840160051c810160208510156115705750805b601f840160051c820191505b8181101561158f575f815560010161157c565b50505b505050565b815167ffffffffffffffff8111156115b1576115b16112a6565b6115c5816115bf84546112ce565b8461154b565b6020601f8211600181146115f7575f83156115e05750848201515b5f19600385901b1c1916600184901b17845561158f565b5f84815260208120601f198516915b828110156116265787850151825560209485019460019092019101611606565b508482101561164357868401515f19600387901b60f8161c191681555b50505050600190811b01905550565b85815260806020820152836080820152838560a08301375f60a085830101525f60a0601f19601f87011683010190508360408301528260608301529695505050505050565b818103818111156116b657634e487b7160e01b5f52601160045260245ffd5b9291505056fea2646970667358221220caba922caa39c5ecf07aaf7458b5d75a487e357e790dfed831ceae828e7b65f764736f6c634300081e0033",
					"opcodes": "PUSH1 0x80 PUSH1 0x40 MSTORE CALLVALUE DUP1 ISZERO PUSH1 0xE JUMPI PUSH0 PUSH0 REVERT JUMPDEST POP PUSH2 0x16F2 DUP1 PUSH2 0x1C PUSH0 CODECOPY PUSH0 RETURN INVALID PUSH1 0x80 PUSH1 0x40 MSTORE CALLVALUE DUP1 ISZERO PUSH2 0xF JUMPI PUSH0 PUSH0 REVERT JUMPDEST POP PUSH1 0x4 CALLDATASIZE LT PUSH2 0x55 JUMPI PUSH0 CALLDATALOAD PUSH1 0xE0 SHR DUP1 PUSH4 0x8D5CE2BC EQ PUSH2 0x59 JUMPI DUP1 PUSH4 0xA00A5424 EQ PUSH2 0x77 JUMPI DUP1 PUSH4 0xBE1C766B EQ PUSH2 0x97 JUMPI DUP1 PUSH4 0xC80DA6CF EQ PUSH2 0xA8 JUMPI DUP1 PUSH4 0xEDD0BF6A EQ PUSH2 0xBD JUMPI JUMPDEST PUSH0 PUSH0 REVERT JUMPDEST PUSH2 0x61 PUSH2 0xC5 JUMP JUMPDEST PUSH1 0x40 MLOAD PUSH2 0x6E SWAP2 SWAP1 PUSH2 0x11DB JUMP JUMPDEST PUSH1 0x40 MLOAD DUP1 SWAP2 SUB SWAP1 RETURN JUMPDEST PUSH2 0x8A PUSH2 0x85 CALLDATASIZE PUSH1 0x4 PUSH2 0x123E JUMP JUMPDEST PUSH2 0x516 JUMP JUMPDEST PUSH1 0x40 MLOAD PUSH2 0x6E SWAP2 SWAP1 PUSH2 0x1255 JUMP JUMPDEST PUSH1 0x1 SLOAD PUSH1 0x40 MLOAD SWAP1 DUP2 MSTORE PUSH1 0x20 ADD PUSH2 0x6E JUMP JUMPDEST PUSH2 0xBB PUSH2 0xB6 CALLDATASIZE PUSH1 0x4 PUSH2 0x126E JUMP JUMPDEST PUSH2 0x8C4 JUMP JUMPDEST STOP JUMPDEST PUSH2 0x8A PUSH2 0xBA9 JUMP JUMPDEST PUSH1 0x1 SLOAD PUSH1 0x60 SWAP1 PUSH0 SWAP1 PUSH8 0xFFFFFFFFFFFFFFFF DUP2 GT ISZERO PUSH2 0xE5 JUMPI PUSH2 0xE5 PUSH2 0x12A6 JUMP JUMPDEST PUSH1 0x40 MLOAD SWAP1 DUP1 DUP3 MSTORE DUP1 PUSH1 0x20 MUL PUSH1 0x20 ADD DUP3 ADD PUSH1 0x40 MSTORE DUP1 ISZERO PUSH2 0x11E JUMPI DUP2 PUSH1 0x20 ADD JUMPDEST PUSH2 0x10B PUSH2 0xFCB JUMP JUMPDEST DUP2 MSTORE PUSH1 0x20 ADD SWAP1 PUSH1 0x1 SWAP1 SUB SWAP1 DUP2 PUSH2 0x103 JUMPI SWAP1 POP JUMPDEST POP SWAP1 POP PUSH0 JUMPDEST PUSH1 0x1 SLOAD DUP2 LT ISZERO PUSH2 0x510 JUMPI PUSH0 PUSH0 PUSH1 0x1 DUP4 DUP2 SLOAD DUP2 LT PUSH2 0x142 JUMPI PUSH2 0x142 PUSH2 0x12BA JUMP JUMPDEST SWAP1 PUSH0 MSTORE PUSH1 0x20 PUSH0 KECCAK256 ADD SLOAD DUP2 MSTORE PUSH1 0x20 ADD SWAP1 DUP2 MSTORE PUSH1 0x20 ADD PUSH0 KECCAK256 PUSH1 0x40 MLOAD DUP1 PUSH1 0x80 ADD PUSH1 0x40 MSTORE SWAP1 DUP2 PUSH0 DUP3 ADD DUP1 SLOAD PUSH2 0x172 SWAP1 PUSH2 0x12CE JUMP JUMPDEST DUP1 PUSH1 0x1F ADD PUSH1 0x20 DUP1 SWAP2 DIV MUL PUSH1 0x20 ADD PUSH1 0x40 MLOAD SWAP1 DUP2 ADD PUSH1 0x40 MSTORE DUP1 SWAP3 SWAP2 SWAP1 DUP2 DUP2 MSTORE PUSH1 0x20 ADD DUP3 DUP1 SLOAD PUSH2 0x19E SWAP1 PUSH2 0x12CE JUMP JUMPDEST DUP1 ISZERO PUSH2 0x1E9 JUMPI DUP1 PUSH1 0x1F LT PUSH2 0x1C0 JUMPI PUSH2 0x100 DUP1 DUP4 SLOAD DIV MUL DUP4 MSTORE SWAP2 PUSH1 0x20 ADD SWAP2 PUSH2 0x1E9 JUMP JUMPDEST DUP3 ADD SWAP2 SWAP1 PUSH0 MSTORE PUSH1 0x20 PUSH0 KECCAK256 SWAP1 JUMPDEST DUP2 SLOAD DUP2 MSTORE SWAP1 PUSH1 0x1 ADD SWAP1 PUSH1 0x20 ADD DUP1 DUP4 GT PUSH2 0x1CC JUMPI DUP3 SWAP1 SUB PUSH1 0x1F AND DUP3 ADD SWAP2 JUMPDEST POP POP POP POP POP DUP2 MSTORE PUSH1 0x20 ADD PUSH1 0x1 DUP3 ADD SLOAD DUP2 MSTORE PUSH1 0x20 ADD PUSH1 0x2 DUP3 ADD DUP1 SLOAD PUSH2 0x20C SWAP1 PUSH2 0x12CE JUMP JUMPDEST DUP1 PUSH1 0x1F ADD PUSH1 0x20 DUP1 SWAP2 DIV MUL PUSH1 0x20 ADD PUSH1 0x40 MLOAD SWAP1 DUP2 ADD PUSH1 0x40 MSTORE DUP1 SWAP3 SWAP2 SWAP1 DUP2 DUP2 MSTORE PUSH1 0x20 ADD DUP3 DUP1 SLOAD PUSH2 0x238 SWAP1 PUSH2 0x12CE JUMP JUMPDEST DUP1 ISZERO PUSH2 0x283 JUMPI DUP1 PUSH1 0x1F LT PUSH2 0x25A JUMPI PUSH2 0x100 DUP1 DUP4 SLOAD DIV MUL DUP4 MSTORE SWAP2 PUSH1 0x20 ADD SWAP2 PUSH2 0x283 JUMP JUMPDEST DUP3 ADD SWAP2 SWAP1 PUSH0 MSTORE PUSH1 0x20 PUSH0 KECCAK256 SWAP1 JUMPDEST DUP2 SLOAD DUP2 MSTORE SWAP1 PUSH1 0x1 ADD SWAP1 PUSH1 0x20 ADD DUP1 DUP4 GT PUSH2 0x266 JUMPI DUP3 SWAP1 SUB PUSH1 0x1F AND DUP3 ADD SWAP2 JUMPDEST POP POP POP POP POP DUP2 MSTORE PUSH1 0x20 ADD PUSH1 0x3 DUP3 ADD PUSH1 0x40 MLOAD DUP1 PUSH2 0x220 ADD PUSH1 0x40 MSTORE SWAP1 DUP2 PUSH0 DUP3 ADD SLOAD DUP2 MSTORE PUSH1 0x20 ADD PUSH1 0x1 DUP3 ADD SLOAD DUP2 MSTORE PUSH1 0x20 ADD PUSH1 0x2 DUP3 ADD DUP1 SLOAD PUSH2 0x2C0 SWAP1 PUSH2 0x12CE JUMP JUMPDEST DUP1 PUSH1 0x1F ADD PUSH1 0x20 DUP1 SWAP2 DIV MUL PUSH1 0x20 ADD PUSH1 0x40 MLOAD SWAP1 DUP2 ADD PUSH1 0x40 MSTORE DUP1 SWAP3 SWAP2 SWAP1 DUP2 DUP2 MSTORE PUSH1 0x20 ADD DUP3 DUP1 SLOAD PUSH2 0x2EC SWAP1 PUSH2 0x12CE JUMP JUMPDEST DUP1 ISZERO PUSH2 0x337 JUMPI DUP1 PUSH1 0x1F LT PUSH2 0x30E JUMPI PUSH2 0x100 DUP1 DUP4 SLOAD DIV MUL DUP4 MSTORE SWAP2 PUSH1 0x20 ADD SWAP2 PUSH2 0x337 JUMP JUMPDEST DUP3 ADD SWAP2 SWAP1 PUSH0 MSTORE PUSH1 0x20 PUSH0 KECCAK256 SWAP1 JUMPDEST DUP2 SLOAD DUP2 MSTORE SWAP1 PUSH1 0x1 ADD SWAP1 PUSH1 0x20 ADD DUP1 DUP4 GT PUSH2 0x31A JUMPI DUP3 SWAP1 SUB PUSH1 0x1F AND DUP3 ADD SWAP2 JUMPDEST POP POP POP POP POP DUP2 MSTORE PUSH1 0x20 ADD PUSH1 0x3 DUP3 ADD DUP1 SLOAD PUSH2 0x350 SWAP1 PUSH2 0x12CE JUMP JUMPDEST DUP1 PUSH1 0x1F ADD PUSH1 0x20 DUP1 SWAP2 DIV MUL PUSH1 0x20 ADD PUSH1 0x40 MLOAD SWAP1 DUP2 ADD PUSH1 0x40 MSTORE DUP1 SWAP3 SWAP2 SWAP1 DUP2 DUP2 MSTORE PUSH1 0x20 ADD DUP3 DUP1 SLOAD PUSH2 0x37C SWAP1 PUSH2 0x12CE JUMP JUMPDEST DUP1 ISZERO PUSH2 0x3C7 JUMPI DUP1 PUSH1 0x1F LT PUSH2 0x39E JUMPI PUSH2 0x100 DUP1 DUP4 SLOAD DIV MUL DUP4 MSTORE SWAP2 PUSH1 0x20 ADD SWAP2 PUSH2 0x3C7 JUMP JUMPDEST DUP3 ADD SWAP2 SWAP1 PUSH0 MSTORE PUSH1 0x20 PUSH0 KECCAK256 SWAP1 JUMPDEST DUP2 SLOAD DUP2 MSTORE SWAP1 PUSH1 0x1 ADD SWAP1 PUSH1 0x20 ADD DUP1 DUP4 GT PUSH2 0x3AA JUMPI DUP3 SWAP1 SUB PUSH1 0x1F AND DUP3 ADD SWAP2 JUMPDEST POP POP POP SWAP2 DUP4 MSTORE POP POP PUSH1 0x4 DUP3 ADD SLOAD PUSH1 0x20 DUP3 ADD MSTORE PUSH1 0x5 DUP3 ADD SLOAD PUSH1 0x40 DUP3 ADD MSTORE PUSH1 0x6 DUP3 ADD SLOAD PUSH1 0x60 DUP3 ADD MSTORE PUSH1 0x7 DUP3 ADD SLOAD PUSH1 0x80 DUP3 ADD MSTORE PUSH1 0x8 DUP3 ADD SLOAD PUSH1 0xA0 DUP3 ADD MSTORE PUSH1 0x9 DUP3 ADD SLOAD PUSH1 0xC0 DUP3 ADD MSTORE PUSH1 0xA DUP3 ADD SLOAD PUSH1 0xE0 DUP3 ADD MSTORE PUSH1 0xB DUP3 ADD SLOAD PUSH2 0x100 DUP3 ADD MSTORE PUSH1 0xC DUP3 ADD SLOAD PUSH1 0xFF AND ISZERO ISZERO PUSH2 0x120 DUP3 ADD MSTORE PUSH1 0xD DUP3 ADD SLOAD PUSH2 0x140 DUP3 ADD MSTORE PUSH1 0xE DUP3 ADD SLOAD PUSH2 0x160 DUP3 ADD MSTORE PUSH1 0xF DUP3 ADD SLOAD PUSH2 0x180 DUP3 ADD MSTORE PUSH1 0x10 DUP3 ADD DUP1 SLOAD PUSH2 0x1A0 SWAP1 SWAP3 ADD SWAP2 PUSH2 0x467 SWAP1 PUSH2 0x12CE JUMP JUMPDEST DUP1 PUSH1 0x1F ADD PUSH1 0x20 DUP1 SWAP2 DIV MUL PUSH1 0x20 ADD PUSH1 0x40 MLOAD SWAP1 DUP2 ADD PUSH1 0x40 MSTORE DUP1 SWAP3 SWAP2 SWAP1 DUP2 DUP2 MSTORE PUSH1 0x20 ADD DUP3 DUP1 SLOAD PUSH2 0x493 SWAP1 PUSH2 0x12CE JUMP JUMPDEST DUP1 ISZERO PUSH2 0x4DE JUMPI DUP1 PUSH1 0x1F LT PUSH2 0x4B5 JUMPI PUSH2 0x100 DUP1 DUP4 SLOAD DIV MUL DUP4 MSTORE SWAP2 PUSH1 0x20 ADD SWAP2 PUSH2 0x4DE JUMP JUMPDEST DUP3 ADD SWAP2 SWAP1 PUSH0 MSTORE PUSH1 0x20 PUSH0 KECCAK256 SWAP1 JUMPDEST DUP2 SLOAD DUP2 MSTORE SWAP1 PUSH1 0x1 ADD SWAP1 PUSH1 0x20 ADD DUP1 DUP4 GT PUSH2 0x4C1 JUMPI DUP3 SWAP1 SUB PUSH1 0x1F AND DUP3 ADD SWAP2 JUMPDEST POP POP POP POP POP DUP2 MSTORE POP POP DUP2 MSTORE POP POP DUP3 DUP3 DUP2 MLOAD DUP2 LT PUSH2 0x4FD JUMPI PUSH2 0x4FD PUSH2 0x12BA JUMP JUMPDEST PUSH1 0x20 SWAP1 DUP2 MUL SWAP2 SWAP1 SWAP2 ADD ADD MSTORE PUSH1 0x1 ADD PUSH2 0x123 JUMP JUMPDEST POP SWAP2 SWAP1 POP JUMP JUMPDEST PUSH2 0x51E PUSH2 0xFCB JUMP JUMPDEST PUSH0 DUP3 DUP2 MSTORE PUSH1 0x20 DUP2 SWAP1 MSTORE PUSH1 0x40 SWAP1 DUP2 SWAP1 KECCAK256 DUP2 MLOAD PUSH1 0x80 DUP2 ADD SWAP1 SWAP3 MSTORE DUP1 SLOAD DUP3 SWAP1 DUP3 SWAP1 PUSH2 0x545 SWAP1 PUSH2 0x12CE JUMP JUMPDEST DUP1 PUSH1 0x1F ADD PUSH1 0x20 DUP1 SWAP2 DIV MUL PUSH1 0x20 ADD PUSH1 0x40 MLOAD SWAP1 DUP2 ADD PUSH1 0x40 MSTORE DUP1 SWAP3 SWAP2 SWAP1 DUP2 DUP2 MSTORE PUSH1 0x20 ADD DUP3 DUP1 SLOAD PUSH2 0x571 SWAP1 PUSH2 0x12CE JUMP JUMPDEST DUP1 ISZERO PUSH2 0x5BC JUMPI DUP1 PUSH1 0x1F LT PUSH2 0x593 JUMPI PUSH2 0x100 DUP1 DUP4 SLOAD DIV MUL DUP4 MSTORE SWAP2 PUSH1 0x20 ADD SWAP2 PUSH2 0x5BC JUMP JUMPDEST DUP3 ADD SWAP2 SWAP1 PUSH0 MSTORE PUSH1 0x20 PUSH0 KECCAK256 SWAP1 JUMPDEST DUP2 SLOAD DUP2 MSTORE SWAP1 PUSH1 0x1 ADD SWAP1 PUSH1 0x20 ADD DUP1 DUP4 GT PUSH2 0x59F JUMPI DUP3 SWAP1 SUB PUSH1 0x1F AND DUP3 ADD SWAP2 JUMPDEST POP POP POP POP POP DUP2 MSTORE PUSH1 0x20 ADD PUSH1 0x1 DUP3 ADD SLOAD DUP2 MSTORE PUSH1 0x20 ADD PUSH1 0x2 DUP3 ADD DUP1 SLOAD PUSH2 0x5DF SWAP1 PUSH2 0x12CE JUMP JUMPDEST DUP1 PUSH1 0x1F ADD PUSH1 0x20 DUP1 SWAP2 DIV MUL PUSH1 0x20 ADD PUSH1 0x40 MLOAD SWAP1 DUP2 ADD PUSH1 0x40 MSTORE DUP1 SWAP3 SWAP2 SWAP1 DUP2 DUP2 MSTORE PUSH1 0x20 ADD DUP3 DUP1 SLOAD PUSH2 0x60B SWAP1 PUSH2 0x12CE JUMP JUMPDEST DUP1 ISZERO PUSH2 0x656 JUMPI DUP1 PUSH1 0x1F LT PUSH2 0x62D JUMPI PUSH2 0x100 DUP1 DUP4 SLOAD DIV MUL DUP4 MSTORE SWAP2 PUSH1 0x20 ADD SWAP2 PUSH2 0x656 JUMP JUMPDEST DUP3 ADD SWAP2 SWAP1 PUSH0 MSTORE PUSH1 0x20 PUSH0 KECCAK256 SWAP1 JUMPDEST DUP2 SLOAD DUP2 MSTORE SWAP1 PUSH1 0x1 ADD SWAP1 PUSH1 0x20 ADD DUP1 DUP4 GT PUSH2 0x639 JUMPI DUP3 SWAP1 SUB PUSH1 0x1F AND DUP3 ADD SWAP2 JUMPDEST POP POP POP POP POP DUP2 MSTORE PUSH1 0x20 ADD PUSH1 0x3 DUP3 ADD PUSH1 0x40 MLOAD DUP1 PUSH2 0x220 ADD PUSH1 0x40 MSTORE SWAP1 DUP2 PUSH0 DUP3 ADD SLOAD DUP2 MSTORE PUSH1 0x20 ADD PUSH1 0x1 DUP3 ADD SLOAD DUP2 MSTORE PUSH1 0x20 ADD PUSH1 0x2 DUP3 ADD DUP1 SLOAD PUSH2 0x693 SWAP1 PUSH2 0x12CE JUMP JUMPDEST DUP1 PUSH1 0x1F ADD PUSH1 0x20 DUP1 SWAP2 DIV MUL PUSH1 0x20 ADD PUSH1 0x40 MLOAD SWAP1 DUP2 ADD PUSH1 0x40 MSTORE DUP1 SWAP3 SWAP2 SWAP1 DUP2 DUP2 MSTORE PUSH1 0x20 ADD DUP3 DUP1 SLOAD PUSH2 0x6BF SWAP1 PUSH2 0x12CE JUMP JUMPDEST DUP1 ISZERO PUSH2 0x70A JUMPI DUP1 PUSH1 0x1F LT PUSH2 0x6E1 JUMPI PUSH2 0x100 DUP1 DUP4 SLOAD DIV MUL DUP4 MSTORE SWAP2 PUSH1 0x20 ADD SWAP2 PUSH2 0x70A JUMP JUMPDEST DUP3 ADD SWAP2 SWAP1 PUSH0 MSTORE PUSH1 0x20 PUSH0 KECCAK256 SWAP1 JUMPDEST DUP2 SLOAD DUP2 MSTORE SWAP1 PUSH1 0x1 ADD SWAP1 PUSH1 0x20 ADD DUP1 DUP4 GT PUSH2 0x6ED JUMPI DUP3 SWAP1 SUB PUSH1 0x1F AND DUP3 ADD SWAP2 JUMPDEST POP POP POP POP POP DUP2 MSTORE PUSH1 0x20 ADD PUSH1 0x3 DUP3 ADD DUP1 SLOAD PUSH2 0x723 SWAP1 PUSH2 0x12CE JUMP JUMPDEST DUP1 PUSH1 0x1F ADD PUSH1 0x20 DUP1 SWAP2 DIV MUL PUSH1 0x20 ADD PUSH1 0x40 MLOAD SWAP1 DUP2 ADD PUSH1 0x40 MSTORE DUP1 SWAP3 SWAP2 SWAP1 DUP2 DUP2 MSTORE PUSH1 0x20 ADD DUP3 DUP1 SLOAD PUSH2 0x74F SWAP1 PUSH2 0x12CE JUMP JUMPDEST DUP1 ISZERO PUSH2 0x79A JUMPI DUP1 PUSH1 0x1F LT PUSH2 0x771 JUMPI PUSH2 0x100 DUP1 DUP4 SLOAD DIV MUL DUP4 MSTORE SWAP2 PUSH1 0x20 ADD SWAP2 PUSH2 0x79A JUMP JUMPDEST DUP3 ADD SWAP2 SWAP1 PUSH0 MSTORE PUSH1 0x20 PUSH0 KECCAK256 SWAP1 JUMPDEST DUP2 SLOAD DUP2 MSTORE SWAP1 PUSH1 0x1 ADD SWAP1 PUSH1 0x20 ADD DUP1 DUP4 GT PUSH2 0x77D JUMPI DUP3 SWAP1 SUB PUSH1 0x1F AND DUP3 ADD SWAP2 JUMPDEST POP POP POP SWAP2 DUP4 MSTORE POP POP PUSH1 0x4 DUP3 ADD SLOAD PUSH1 0x20 DUP3 ADD MSTORE PUSH1 0x5 DUP3 ADD SLOAD PUSH1 0x40 DUP3 ADD MSTORE PUSH1 0x6 DUP3 ADD SLOAD PUSH1 0x60 DUP3 ADD MSTORE PUSH1 0x7 DUP3 ADD SLOAD PUSH1 0x80 DUP3 ADD MSTORE PUSH1 0x8 DUP3 ADD SLOAD PUSH1 0xA0 DUP3 ADD MSTORE PUSH1 0x9 DUP3 ADD SLOAD PUSH1 0xC0 DUP3 ADD MSTORE PUSH1 0xA DUP3 ADD SLOAD PUSH1 0xE0 DUP3 ADD MSTORE PUSH1 0xB DUP3 ADD SLOAD PUSH2 0x100 DUP3 ADD MSTORE PUSH1 0xC DUP3 ADD SLOAD PUSH1 0xFF AND ISZERO ISZERO PUSH2 0x120 DUP3 ADD MSTORE PUSH1 0xD DUP3 ADD SLOAD PUSH2 0x140 DUP3 ADD MSTORE PUSH1 0xE DUP3 ADD SLOAD PUSH2 0x160 DUP3 ADD MSTORE PUSH1 0xF DUP3 ADD SLOAD PUSH2 0x180 DUP3 ADD MSTORE PUSH1 0x10 DUP3 ADD DUP1 SLOAD PUSH2 0x1A0 SWAP1 SWAP3 ADD SWAP2 PUSH2 0x83A SWAP1 PUSH2 0x12CE JUMP JUMPDEST DUP1 PUSH1 0x1F ADD PUSH1 0x20 DUP1 SWAP2 DIV MUL PUSH1 0x20 ADD PUSH1 0x40 MLOAD SWAP1 DUP2 ADD PUSH1 0x40 MSTORE DUP1 SWAP3 SWAP2 SWAP1 DUP2 DUP2 MSTORE PUSH1 0x20 ADD DUP3 DUP1 SLOAD PUSH2 0x866 SWAP1 PUSH2 0x12CE JUMP JUMPDEST DUP1 ISZERO PUSH2 0x8B1 JUMPI DUP1 PUSH1 0x1F LT PUSH2 0x888 JUMPI PUSH2 0x100 DUP1 DUP4 SLOAD DIV MUL DUP4 MSTORE SWAP2 PUSH1 0x20 ADD SWAP2 PUSH2 0x8B1 JUMP JUMPDEST DUP3 ADD SWAP2 SWAP1 PUSH0 MSTORE PUSH1 0x20 PUSH0 KECCAK256 SWAP1 JUMPDEST DUP2 SLOAD DUP2 MSTORE SWAP1 PUSH1 0x1 ADD SWAP1 PUSH1 0x20 ADD DUP1 DUP4 GT PUSH2 0x894 JUMPI DUP3 SWAP1 SUB PUSH1 0x1F AND DUP3 ADD SWAP2 JUMPDEST POP POP POP SWAP2 SWAP1 SWAP3 MSTORE POP POP POP SWAP1 MSTORE POP SWAP3 SWAP2 POP POP JUMP JUMPDEST DUP1 CALLDATALOAD ISZERO DUP1 ISZERO SWAP1 PUSH2 0x8D8 JUMPI POP DUP1 CALLDATALOAD PUSH1 0x20 DUP3 ADD CALLDATALOAD GT JUMPDEST PUSH2 0x91E JUMPI PUSH1 0x40 MLOAD PUSH3 0x461BCD PUSH1 0xE5 SHL DUP2 MSTORE PUSH1 0x20 PUSH1 0x4 DUP3 ADD MSTORE PUSH1 0x12 PUSH1 0x24 DUP3 ADD MSTORE PUSH18 0x496E76616C69642074696D652072616E6765 PUSH1 0x70 SHL PUSH1 0x44 DUP3 ADD MSTORE PUSH1 0x64 ADD JUMPDEST PUSH1 0x40 MLOAD DUP1 SWAP2 SUB SWAP1 REVERT JUMPDEST PUSH0 PUSH2 0x92C PUSH1 0x40 DUP4 ADD DUP4 PUSH2 0x1300 JUMP JUMPDEST SWAP1 POP GT PUSH2 0x970 JUMPI PUSH1 0x40 MLOAD PUSH3 0x461BCD PUSH1 0xE5 SHL DUP2 MSTORE PUSH1 0x20 PUSH1 0x4 DUP3 ADD MSTORE PUSH1 0x12 PUSH1 0x24 DUP3 ADD MSTORE PUSH18 0x14DE5B589BDB081A5CC81C995C5D5A5C9959 PUSH1 0x72 SHL PUSH1 0x44 DUP3 ADD MSTORE PUSH1 0x64 ADD PUSH2 0x915 JUMP JUMPDEST PUSH1 0x40 DUP1 MLOAD PUSH1 0xC0 DUP2 ADD DUP3 MSTORE PUSH1 0x5 PUSH1 0x80 DUP3 ADD SWAP1 DUP2 MSTORE PUSH5 0x6B6C696E65 PUSH1 0xD8 SHL PUSH1 0xA0 DUP4 ADD MSTORE DUP2 MSTORE TIMESTAMP PUSH1 0x20 DUP3 ADD MSTORE DUP3 CALLDATALOAD SWAP2 PUSH0 SWAP2 SWAP1 DUP2 DUP2 ADD SWAP1 PUSH2 0x9AF SWAP1 DUP7 ADD DUP7 PUSH2 0x1300 JUMP JUMPDEST DUP1 DUP1 PUSH1 0x1F ADD PUSH1 0x20 DUP1 SWAP2 DIV MUL PUSH1 0x20 ADD PUSH1 0x40 MLOAD SWAP1 DUP2 ADD PUSH1 0x40 MSTORE DUP1 SWAP4 SWAP3 SWAP2 SWAP1 DUP2 DUP2 MSTORE PUSH1 0x20 ADD DUP4 DUP4 DUP1 DUP3 DUP5 CALLDATACOPY PUSH0 SWAP3 ADD SWAP2 SWAP1 SWAP2 MSTORE POP POP POP SWAP1 DUP3 MSTORE POP PUSH1 0x20 ADD PUSH2 0x9F1 DUP6 PUSH2 0x1413 JUMP JUMPDEST SWAP1 MSTORE PUSH0 DUP4 DUP2 MSTORE PUSH1 0x20 DUP2 SWAP1 MSTORE PUSH1 0x40 SWAP1 KECCAK256 DUP2 MLOAD SWAP2 SWAP3 POP DUP3 SWAP2 DUP2 SWAP1 PUSH2 0xA13 SWAP1 DUP3 PUSH2 0x1597 JUMP JUMPDEST POP PUSH1 0x20 DUP3 ADD MLOAD PUSH1 0x1 DUP3 ADD SSTORE PUSH1 0x40 DUP3 ADD MLOAD PUSH1 0x2 DUP3 ADD SWAP1 PUSH2 0xA32 SWAP1 DUP3 PUSH2 0x1597 JUMP JUMPDEST POP PUSH1 0x60 DUP3 ADD MLOAD DUP1 MLOAD PUSH1 0x3 DUP4 ADD SWAP1 DUP2 SSTORE PUSH1 0x20 DUP3 ADD MLOAD PUSH1 0x4 DUP5 ADD SSTORE PUSH1 0x40 DUP3 ADD MLOAD PUSH1 0x5 DUP5 ADD SWAP1 PUSH2 0xA5F SWAP1 DUP3 PUSH2 0x1597 JUMP JUMPDEST POP PUSH1 0x60 DUP3 ADD MLOAD PUSH1 0x3 DUP3 ADD SWAP1 PUSH2 0xA74 SWAP1 DUP3 PUSH2 0x1597 JUMP JUMPDEST POP PUSH1 0x80 DUP3 ADD MLOAD PUSH1 0x4 DUP3 ADD SSTORE PUSH1 0xA0 DUP3 ADD MLOAD PUSH1 0x5 DUP3 ADD SSTORE PUSH1 0xC0 DUP3 ADD MLOAD PUSH1 0x6 DUP3 ADD SSTORE PUSH1 0xE0 DUP3 ADD MLOAD PUSH1 0x7 DUP3 ADD SSTORE PUSH2 0x100 DUP3 ADD MLOAD PUSH1 0x8 DUP3 ADD SSTORE PUSH2 0x120 DUP3 ADD MLOAD PUSH1 0x9 DUP3 ADD SSTORE PUSH2 0x140 DUP3 ADD MLOAD PUSH1 0xA DUP3 ADD SSTORE PUSH2 0x160 DUP3 ADD MLOAD PUSH1 0xB DUP3 ADD SSTORE PUSH2 0x180 DUP3 ADD MLOAD PUSH1 0xC DUP3 ADD DUP1 SLOAD PUSH1 0xFF NOT AND SWAP2 ISZERO ISZERO SWAP2 SWAP1 SWAP2 OR SWAP1 SSTORE PUSH2 0x1A0 DUP3 ADD MLOAD PUSH1 0xD DUP3 ADD SSTORE PUSH2 0x1C0 DUP3 ADD MLOAD PUSH1 0xE DUP3 ADD SSTORE PUSH2 0x1E0 DUP3 ADD MLOAD PUSH1 0xF DUP3 ADD SSTORE PUSH2 0x200 DUP3 ADD MLOAD PUSH1 0x10 DUP3 ADD SWAP1 PUSH2 0xB18 SWAP1 DUP3 PUSH2 0x1597 JUMP JUMPDEST POP POP PUSH1 0x1 DUP1 SLOAD DUP1 DUP3 ADD DUP3 SSTORE PUSH0 SWAP2 SWAP1 SWAP2 MSTORE PUSH32 0xB10E2D527612073B26EECDFD717E6A320CF44B4AFAC2B0732D9FCBE2B7FA0CF6 ADD DUP6 SWAP1 SSTORE POP PUSH32 0x457E71E233BFCA657F83107E4D22CC35169BEDA85C2B16268C89ED23A9D2D086 SWAP2 POP DUP4 SWAP1 POP PUSH2 0xB81 PUSH1 0x40 DUP7 ADD DUP7 PUSH2 0x1300 JUMP JUMPDEST DUP7 PUSH1 0xC0 ADD CALLDATALOAD DUP8 PUSH1 0xE0 ADD CALLDATALOAD PUSH1 0x40 MLOAD PUSH2 0xB9C SWAP6 SWAP5 SWAP4 SWAP3 SWAP2 SWAP1 PUSH2 0x1652 JUMP JUMPDEST PUSH1 0x40 MLOAD DUP1 SWAP2 SUB SWAP1 LOG1 POP POP POP JUMP JUMPDEST PUSH2 0xBB1 PUSH2 0xFCB JUMP JUMPDEST PUSH1 0x1 SLOAD PUSH2 0xBF5 JUMPI PUSH1 0x40 MLOAD PUSH3 0x461BCD PUSH1 0xE5 SHL DUP2 MSTORE PUSH1 0x20 PUSH1 0x4 DUP3 ADD MSTORE PUSH1 0x12 PUSH1 0x24 DUP3 ADD MSTORE PUSH18 0x139BC81ADB1A5B995CC81C9958DBDC991959 PUSH1 0x72 SHL PUSH1 0x44 DUP3 ADD MSTORE PUSH1 0x64 ADD PUSH2 0x915 JUMP JUMPDEST PUSH1 0x1 DUP1 SLOAD PUSH0 SWAP2 SWAP1 PUSH2 0xC07 SWAP1 DUP3 SWAP1 PUSH2 0x1697 JUMP JUMPDEST DUP2 SLOAD DUP2 LT PUSH2 0xC17 JUMPI PUSH2 0xC17 PUSH2 0x12BA JUMP JUMPDEST SWAP1 PUSH0 MSTORE PUSH1 0x20 PUSH0 KECCAK256 ADD SLOAD SWAP1 POP PUSH0 PUSH0 DUP3 DUP2 MSTORE PUSH1 0x20 ADD SWAP1 DUP2 MSTORE PUSH1 0x20 ADD PUSH0 KECCAK256 PUSH1 0x40 MLOAD DUP1 PUSH1 0x80 ADD PUSH1 0x40 MSTORE SWAP1 DUP2 PUSH0 DUP3 ADD DUP1 SLOAD PUSH2 0xC4C SWAP1 PUSH2 0x12CE JUMP JUMPDEST DUP1 PUSH1 0x1F ADD PUSH1 0x20 DUP1 SWAP2 DIV MUL PUSH1 0x20 ADD PUSH1 0x40 MLOAD SWAP1 DUP2 ADD PUSH1 0x40 MSTORE DUP1 SWAP3 SWAP2 SWAP1 DUP2 DUP2 MSTORE PUSH1 0x20 ADD DUP3 DUP1 SLOAD PUSH2 0xC78 SWAP1 PUSH2 0x12CE JUMP JUMPDEST DUP1 ISZERO PUSH2 0xCC3 JUMPI DUP1 PUSH1 0x1F LT PUSH2 0xC9A JUMPI PUSH2 0x100 DUP1 DUP4 SLOAD DIV MUL DUP4 MSTORE SWAP2 PUSH1 0x20 ADD SWAP2 PUSH2 0xCC3 JUMP JUMPDEST DUP3 ADD SWAP2 SWAP1 PUSH0 MSTORE PUSH1 0x20 PUSH0 KECCAK256 SWAP1 JUMPDEST DUP2 SLOAD DUP2 MSTORE SWAP1 PUSH1 0x1 ADD SWAP1 PUSH1 0x20 ADD DUP1 DUP4 GT PUSH2 0xCA6 JUMPI DUP3 SWAP1 SUB PUSH1 0x1F AND DUP3 ADD SWAP2 JUMPDEST POP POP POP POP POP DUP2 MSTORE PUSH1 0x20 ADD PUSH1 0x1 DUP3 ADD SLOAD DUP2 MSTORE PUSH1 0x20 ADD PUSH1 0x2 DUP3 ADD DUP1 SLOAD PUSH2 0xCE6 SWAP1 PUSH2 0x12CE JUMP JUMPDEST DUP1 PUSH1 0x1F ADD PUSH1 0x20 DUP1 SWAP2 DIV MUL PUSH1 0x20 ADD PUSH1 0x40 MLOAD SWAP1 DUP2 ADD PUSH1 0x40 MSTORE DUP1 SWAP3 SWAP2 SWAP1 DUP2 DUP2 MSTORE PUSH1 0x20 ADD DUP3 DUP1 SLOAD PUSH2 0xD12 SWAP1 PUSH2 0x12CE JUMP JUMPDEST DUP1 ISZERO PUSH2 0xD5D JUMPI DUP1 PUSH1 0x1F LT PUSH2 0xD34 JUMPI PUSH2 0x100 DUP1 DUP4 SLOAD DIV MUL DUP4 MSTORE SWAP2 PUSH1 0x20 ADD SWAP2 PUSH2 0xD5D JUMP JUMPDEST DUP3 ADD SWAP2 SWAP1 PUSH0 MSTORE PUSH1 0x20 PUSH0 KECCAK256 SWAP1 JUMPDEST DUP2 SLOAD DUP2 MSTORE SWAP1 PUSH1 0x1 ADD SWAP1 PUSH1 0x20 ADD DUP1 DUP4 GT PUSH2 0xD40 JUMPI DUP3 SWAP1 SUB PUSH1 0x1F AND DUP3 ADD SWAP2 JUMPDEST POP POP POP POP POP DUP2 MSTORE PUSH1 0x20 ADD PUSH1 0x3 DUP3 ADD PUSH1 0x40 MLOAD DUP1 PUSH2 0x220 ADD PUSH1 0x40 MSTORE SWAP1 DUP2 PUSH0 DUP3 ADD SLOAD DUP2 MSTORE PUSH1 0x20 ADD PUSH1 0x1 DUP3 ADD SLOAD DUP2 MSTORE PUSH1 0x20 ADD PUSH1 0x2 DUP3 ADD DUP1 SLOAD PUSH2 0xD9A SWAP1 PUSH2 0x12CE JUMP JUMPDEST DUP1 PUSH1 0x1F ADD PUSH1 0x20 DUP1 SWAP2 DIV MUL PUSH1 0x20 ADD PUSH1 0x40 MLOAD SWAP1 DUP2 ADD PUSH1 0x40 MSTORE DUP1 SWAP3 SWAP2 SWAP1 DUP2 DUP2 MSTORE PUSH1 0x20 ADD DUP3 DUP1 SLOAD PUSH2 0xDC6 SWAP1 PUSH2 0x12CE JUMP JUMPDEST DUP1 ISZERO PUSH2 0xE11 JUMPI DUP1 PUSH1 0x1F LT PUSH2 0xDE8 JUMPI PUSH2 0x100 DUP1 DUP4 SLOAD DIV MUL DUP4 MSTORE SWAP2 PUSH1 0x20 ADD SWAP2 PUSH2 0xE11 JUMP JUMPDEST DUP3 ADD SWAP2 SWAP1 PUSH0 MSTORE PUSH1 0x20 PUSH0 KECCAK256 SWAP1 JUMPDEST DUP2 SLOAD DUP2 MSTORE SWAP1 PUSH1 0x1 ADD SWAP1 PUSH1 0x20 ADD DUP1 DUP4 GT PUSH2 0xDF4 JUMPI DUP3 SWAP1 SUB PUSH1 0x1F AND DUP3 ADD SWAP2 JUMPDEST POP POP POP POP POP DUP2 MSTORE PUSH1 0x20 ADD PUSH1 0x3 DUP3 ADD DUP1 SLOAD PUSH2 0xE2A SWAP1 PUSH2 0x12CE JUMP JUMPDEST DUP1 PUSH1 0x1F ADD PUSH1 0x20 DUP1 SWAP2 DIV MUL PUSH1 0x20 ADD PUSH1 0x40 MLOAD SWAP1 DUP2 ADD PUSH1 0x40 MSTORE DUP1 SWAP3 SWAP2 SWAP1 DUP2 DUP2 MSTORE PUSH1 0x20 ADD DUP3 DUP1 SLOAD PUSH2 0xE56 SWAP1 PUSH2 0x12CE JUMP JUMPDEST DUP1 ISZERO PUSH2 0xEA1 JUMPI DUP1 PUSH1 0x1F LT PUSH2 0xE78 JUMPI PUSH2 0x100 DUP1 DUP4 SLOAD DIV MUL DUP4 MSTORE SWAP2 PUSH1 0x20 ADD SWAP2 PUSH2 0xEA1 JUMP JUMPDEST DUP3 ADD SWAP2 SWAP1 PUSH0 MSTORE PUSH1 0x20 PUSH0 KECCAK256 SWAP1 JUMPDEST DUP2 SLOAD DUP2 MSTORE SWAP1 PUSH1 0x1 ADD SWAP1 PUSH1 0x20 ADD DUP1 DUP4 GT PUSH2 0xE84 JUMPI DUP3 SWAP1 SUB PUSH1 0x1F AND DUP3 ADD SWAP2 JUMPDEST POP POP POP SWAP2 DUP4 MSTORE POP POP PUSH1 0x4 DUP3 ADD SLOAD PUSH1 0x20 DUP3 ADD MSTORE PUSH1 0x5 DUP3 ADD SLOAD PUSH1 0x40 DUP3 ADD MSTORE PUSH1 0x6 DUP3 ADD SLOAD PUSH1 0x60 DUP3 ADD MSTORE PUSH1 0x7 DUP3 ADD SLOAD PUSH1 0x80 DUP3 ADD MSTORE PUSH1 0x8 DUP3 ADD SLOAD PUSH1 0xA0 DUP3 ADD MSTORE PUSH1 0x9 DUP3 ADD SLOAD PUSH1 0xC0 DUP3 ADD MSTORE PUSH1 0xA DUP3 ADD SLOAD PUSH1 0xE0 DUP3 ADD MSTORE PUSH1 0xB DUP3 ADD SLOAD PUSH2 0x100 DUP3 ADD MSTORE PUSH1 0xC DUP3 ADD SLOAD PUSH1 0xFF AND ISZERO ISZERO PUSH2 0x120 DUP3 ADD MSTORE PUSH1 0xD DUP3 ADD SLOAD PUSH2 0x140 DUP3 ADD MSTORE PUSH1 0xE DUP3 ADD SLOAD PUSH2 0x160 DUP3 ADD MSTORE PUSH1 0xF DUP3 ADD SLOAD PUSH2 0x180 DUP3 ADD MSTORE PUSH1 0x10 DUP3 ADD DUP1 SLOAD PUSH2 0x1A0 SWAP1 SWAP3 ADD SWAP2 PUSH2 0xF41 SWAP1 PUSH2 0x12CE JUMP JUMPDEST DUP1 PUSH1 0x1F ADD PUSH1 0x20 DUP1 SWAP2 DIV MUL PUSH1 0x20 ADD PUSH1 0x40 MLOAD SWAP1 DUP2 ADD PUSH1 0x40 MSTORE DUP1 SWAP3 SWAP2 SWAP1 DUP2 DUP2 MSTORE PUSH1 0x20 ADD DUP3 DUP1 SLOAD PUSH2 0xF6D SWAP1 PUSH2 0x12CE JUMP JUMPDEST DUP1 ISZERO PUSH2 0xFB8 JUMPI DUP1 PUSH1 0x1F LT PUSH2 0xF8F JUMPI PUSH2 0x100 DUP1 DUP4 SLOAD DIV MUL DUP4 MSTORE SWAP2 PUSH1 0x20 ADD SWAP2 PUSH2 0xFB8 JUMP JUMPDEST DUP3 ADD SWAP2 SWAP1 PUSH0 MSTORE PUSH1 0x20 PUSH0 KECCAK256 SWAP1 JUMPDEST DUP2 SLOAD DUP2 MSTORE SWAP1 PUSH1 0x1 ADD SWAP1 PUSH1 0x20 ADD DUP1 DUP4 GT PUSH2 0xF9B JUMPI DUP3 SWAP1 SUB PUSH1 0x1F AND DUP3 ADD SWAP2 JUMPDEST POP POP POP POP POP DUP2 MSTORE POP POP DUP2 MSTORE POP POP SWAP2 POP POP SWAP1 JUMP JUMPDEST PUSH1 0x40 MLOAD DUP1 PUSH1 0x80 ADD PUSH1 0x40 MSTORE DUP1 PUSH1 0x60 DUP2 MSTORE PUSH1 0x20 ADD PUSH0 DUP2 MSTORE PUSH1 0x20 ADD PUSH1 0x60 DUP2 MSTORE PUSH1 0x20 ADD PUSH2 0x1065 PUSH1 0x40 MLOAD DUP1 PUSH2 0x220 ADD PUSH1 0x40 MSTORE DUP1 PUSH0 DUP2 MSTORE PUSH1 0x20 ADD PUSH0 DUP2 MSTORE PUSH1 0x20 ADD PUSH1 0x60 DUP2 MSTORE PUSH1 0x20 ADD PUSH1 0x60 DUP2 MSTORE PUSH1 0x20 ADD PUSH0 DUP2 MSTORE PUSH1 0x20 ADD PUSH0 DUP2 MSTORE PUSH1 0x20 ADD PUSH0 DUP2 MSTORE PUSH1 0x20 ADD PUSH0 DUP2 MSTORE PUSH1 0x20 ADD PUSH0 DUP2 MSTORE PUSH1 0x20 ADD PUSH0 DUP2 MSTORE PUSH1 0x20 ADD PUSH0 DUP2 MSTORE PUSH1 0x20 ADD PUSH0 DUP2 MSTORE PUSH1 0x20 ADD PUSH0 ISZERO ISZERO DUP2 MSTORE PUSH1 0x20 ADD PUSH0 DUP2 MSTORE PUSH1 0x20 ADD PUSH0 DUP2 MSTORE PUSH1 0x20 ADD PUSH0 DUP2 MSTORE PUSH1 0x20 ADD PUSH1 0x60 DUP2 MSTORE POP SWAP1 JUMP JUMPDEST SWAP1 MSTORE SWAP1 JUMP JUMPDEST PUSH0 DUP2 MLOAD DUP1 DUP5 MSTORE DUP1 PUSH1 0x20 DUP5 ADD PUSH1 0x20 DUP7 ADD MCOPY PUSH0 PUSH1 0x20 DUP3 DUP7 ADD ADD MSTORE PUSH1 0x20 PUSH1 0x1F NOT PUSH1 0x1F DUP4 ADD AND DUP6 ADD ADD SWAP2 POP POP SWAP3 SWAP2 POP POP JUMP JUMPDEST PUSH0 DUP2 MLOAD PUSH1 0x80 DUP5 MSTORE PUSH2 0x10AC PUSH1 0x80 DUP6 ADD DUP3 PUSH2 0x106A JUMP JUMPDEST SWAP1 POP PUSH1 0x20 DUP4 ADD MLOAD PUSH1 0x20 DUP6 ADD MSTORE PUSH1 0x40 DUP4 ADD MLOAD DUP5 DUP3 SUB PUSH1 0x40 DUP7 ADD MSTORE PUSH2 0x10CF DUP3 DUP3 PUSH2 0x106A JUMP JUMPDEST SWAP2 POP POP PUSH1 0x60 DUP4 ADD MLOAD DUP5 DUP3 SUB PUSH1 0x60 DUP7 ADD MSTORE DUP1 MLOAD DUP3 MSTORE PUSH1 0x20 DUP2 ADD MLOAD PUSH1 0x20 DUP4 ADD MSTORE PUSH1 0x40 DUP2 ADD MLOAD PUSH2 0x220 PUSH1 0x40 DUP5 ADD MSTORE PUSH2 0x1108 PUSH2 0x220 DUP5 ADD DUP3 PUSH2 0x106A JUMP JUMPDEST SWAP1 POP PUSH1 0x60 DUP3 ADD MLOAD DUP4 DUP3 SUB PUSH1 0x60 DUP6 ADD MSTORE PUSH2 0x1121 DUP3 DUP3 PUSH2 0x106A JUMP JUMPDEST SWAP2 POP POP PUSH1 0x80 DUP3 ADD MLOAD PUSH1 0x80 DUP5 ADD MSTORE PUSH1 0xA0 DUP3 ADD MLOAD PUSH1 0xA0 DUP5 ADD MSTORE PUSH1 0xC0 DUP3 ADD MLOAD PUSH1 0xC0 DUP5 ADD MSTORE PUSH1 0xE0 DUP3 ADD MLOAD PUSH1 0xE0 DUP5 ADD MSTORE PUSH2 0x100 DUP3 ADD MLOAD PUSH2 0x100 DUP5 ADD MSTORE PUSH2 0x120 DUP3 ADD MLOAD PUSH2 0x120 DUP5 ADD MSTORE PUSH2 0x140 DUP3 ADD MLOAD PUSH2 0x140 DUP5 ADD MSTORE PUSH2 0x160 DUP3 ADD MLOAD PUSH2 0x160 DUP5 ADD MSTORE PUSH2 0x180 DUP3 ADD MLOAD PUSH2 0x1191 PUSH2 0x180 DUP6 ADD DUP3 ISZERO ISZERO SWAP1 MSTORE JUMP JUMPDEST POP PUSH2 0x1A0 DUP3 ADD MLOAD PUSH2 0x1A0 DUP5 ADD MSTORE PUSH2 0x1C0 DUP3 ADD MLOAD PUSH2 0x1C0 DUP5 ADD MSTORE PUSH2 0x1E0 DUP3 ADD MLOAD PUSH2 0x1E0 DUP5 ADD MSTORE PUSH2 0x200 DUP3 ADD MLOAD SWAP2 POP DUP3 DUP2 SUB PUSH2 0x200 DUP5 ADD MSTORE PUSH2 0x11D1 DUP2 DUP4 PUSH2 0x106A JUMP JUMPDEST SWAP7 SWAP6 POP POP POP POP POP POP JUMP JUMPDEST PUSH0 PUSH1 0x20 DUP3 ADD PUSH1 0x20 DUP4 MSTORE DUP1 DUP5 MLOAD DUP1 DUP4 MSTORE PUSH1 0x40 DUP6 ADD SWAP2 POP PUSH1 0x40 DUP2 PUSH1 0x5 SHL DUP7 ADD ADD SWAP3 POP PUSH1 0x20 DUP7 ADD PUSH0 JUMPDEST DUP3 DUP2 LT ISZERO PUSH2 0x1232 JUMPI PUSH1 0x3F NOT DUP8 DUP7 SUB ADD DUP5 MSTORE PUSH2 0x121D DUP6 DUP4 MLOAD PUSH2 0x1098 JUMP JUMPDEST SWAP5 POP PUSH1 0x20 SWAP4 DUP5 ADD SWAP4 SWAP2 SWAP1 SWAP2 ADD SWAP1 PUSH1 0x1 ADD PUSH2 0x1201 JUMP JUMPDEST POP SWAP3 SWAP7 SWAP6 POP POP POP POP POP POP JUMP JUMPDEST PUSH0 PUSH1 0x20 DUP3 DUP5 SUB SLT ISZERO PUSH2 0x124E JUMPI PUSH0 PUSH0 REVERT JUMPDEST POP CALLDATALOAD SWAP2 SWAP1 POP JUMP JUMPDEST PUSH1 0x20 DUP2 MSTORE PUSH0 PUSH2 0x1267 PUSH1 0x20 DUP4 ADD DUP5 PUSH2 0x1098 JUMP JUMPDEST SWAP4 SWAP3 POP POP POP JUMP JUMPDEST PUSH0 PUSH1 0x20 DUP3 DUP5 SUB SLT ISZERO PUSH2 0x127E JUMPI PUSH0 PUSH0 REVERT JUMPDEST DUP2 CALLDATALOAD PUSH8 0xFFFFFFFFFFFFFFFF DUP2 GT ISZERO PUSH2 0x1294 JUMPI PUSH0 PUSH0 REVERT JUMPDEST DUP3 ADD PUSH2 0x220 DUP2 DUP6 SUB SLT ISZERO PUSH2 0x1267 JUMPI PUSH0 PUSH0 REVERT JUMPDEST PUSH4 0x4E487B71 PUSH1 0xE0 SHL PUSH0 MSTORE PUSH1 0x41 PUSH1 0x4 MSTORE PUSH1 0x24 PUSH0 REVERT JUMPDEST PUSH4 0x4E487B71 PUSH1 0xE0 SHL PUSH0 MSTORE PUSH1 0x32 PUSH1 0x4 MSTORE PUSH1 0x24 PUSH0 REVERT JUMPDEST PUSH1 0x1 DUP2 DUP2 SHR SWAP1 DUP3 AND DUP1 PUSH2 0x12E2 JUMPI PUSH1 0x7F DUP3 AND SWAP2 POP JUMPDEST PUSH1 0x20 DUP3 LT DUP2 SUB PUSH2 0x510 JUMPI PUSH4 0x4E487B71 PUSH1 0xE0 SHL PUSH0 MSTORE PUSH1 0x22 PUSH1 0x4 MSTORE PUSH1 0x24 PUSH0 REVERT JUMPDEST PUSH0 PUSH0 DUP4 CALLDATALOAD PUSH1 0x1E NOT DUP5 CALLDATASIZE SUB ADD DUP2 SLT PUSH2 0x1315 JUMPI PUSH0 PUSH0 REVERT JUMPDEST DUP4 ADD DUP1 CALLDATALOAD SWAP2 POP PUSH8 0xFFFFFFFFFFFFFFFF DUP3 GT ISZERO PUSH2 0x132F JUMPI PUSH0 PUSH0 REVERT JUMPDEST PUSH1 0x20 ADD SWAP2 POP CALLDATASIZE DUP2 SWAP1 SUB DUP3 SGT ISZERO PUSH2 0x1343 JUMPI PUSH0 PUSH0 REVERT JUMPDEST SWAP3 POP SWAP3 SWAP1 POP JUMP JUMPDEST PUSH1 0x40 MLOAD PUSH2 0x220 DUP2 ADD PUSH8 0xFFFFFFFFFFFFFFFF DUP2 GT DUP3 DUP3 LT OR ISZERO PUSH2 0x136E JUMPI PUSH2 0x136E PUSH2 0x12A6 JUMP JUMPDEST PUSH1 0x40 MSTORE SWAP1 JUMP JUMPDEST PUSH0 DUP3 PUSH1 0x1F DUP4 ADD SLT PUSH2 0x1383 JUMPI PUSH0 PUSH0 REVERT JUMPDEST DUP2 CALLDATALOAD PUSH8 0xFFFFFFFFFFFFFFFF DUP2 GT ISZERO PUSH2 0x139D JUMPI PUSH2 0x139D PUSH2 0x12A6 JUMP JUMPDEST PUSH1 0x40 MLOAD PUSH1 0x1F DUP3 ADD PUSH1 0x1F NOT SWAP1 DUP2 AND PUSH1 0x3F ADD AND DUP2 ADD PUSH8 0xFFFFFFFFFFFFFFFF DUP2 GT DUP3 DUP3 LT OR ISZERO PUSH2 0x13CC JUMPI PUSH2 0x13CC PUSH2 0x12A6 JUMP JUMPDEST PUSH1 0x40 MSTORE DUP2 DUP2 MSTORE DUP4 DUP3 ADD PUSH1 0x20 ADD DUP6 LT ISZERO PUSH2 0x13E3 JUMPI PUSH0 PUSH0 REVERT JUMPDEST DUP2 PUSH1 0x20 DUP6 ADD PUSH1 0x20 DUP4 ADD CALLDATACOPY PUSH0 SWAP2 DUP2 ADD PUSH1 0x20 ADD SWAP2 SWAP1 SWAP2 MSTORE SWAP4 SWAP3 POP POP POP JUMP JUMPDEST DUP1 CALLDATALOAD DUP1 ISZERO ISZERO DUP2 EQ PUSH2 0x140E JUMPI PUSH0 PUSH0 REVERT JUMPDEST SWAP2 SWAP1 POP JUMP JUMPDEST PUSH0 PUSH2 0x220 DUP3 CALLDATASIZE SUB SLT ISZERO PUSH2 0x1424 JUMPI PUSH0 PUSH0 REVERT JUMPDEST PUSH2 0x142C PUSH2 0x134A JUMP JUMPDEST DUP3 CALLDATALOAD DUP2 MSTORE PUSH1 0x20 DUP1 DUP5 ADD CALLDATALOAD SWAP1 DUP3 ADD MSTORE PUSH1 0x40 DUP4 ADD CALLDATALOAD PUSH8 0xFFFFFFFFFFFFFFFF DUP2 GT ISZERO PUSH2 0x1453 JUMPI PUSH0 PUSH0 REVERT JUMPDEST PUSH2 0x145F CALLDATASIZE DUP3 DUP7 ADD PUSH2 0x1374 JUMP JUMPDEST PUSH1 0x40 DUP4 ADD MSTORE POP PUSH1 0x60 DUP4 ADD CALLDATALOAD PUSH8 0xFFFFFFFFFFFFFFFF DUP2 GT ISZERO PUSH2 0x147E JUMPI PUSH0 PUSH0 REVERT JUMPDEST PUSH2 0x148A CALLDATASIZE DUP3 DUP7 ADD PUSH2 0x1374 JUMP JUMPDEST PUSH1 0x60 DUP4 ADD MSTORE POP PUSH1 0x80 DUP4 DUP2 ADD CALLDATALOAD SWAP1 DUP3 ADD MSTORE PUSH1 0xA0 DUP1 DUP5 ADD CALLDATALOAD SWAP1 DUP3 ADD MSTORE PUSH1 0xC0 DUP1 DUP5 ADD CALLDATALOAD SWAP1 DUP3 ADD MSTORE PUSH1 0xE0 DUP1 DUP5 ADD CALLDATALOAD SWAP1 DUP3 ADD MSTORE PUSH2 0x100 DUP1 DUP5 ADD CALLDATALOAD SWAP1 DUP3 ADD MSTORE PUSH2 0x120 DUP1 DUP5 ADD CALLDATALOAD SWAP1 DUP3 ADD MSTORE PUSH2 0x140 DUP1 DUP5 ADD CALLDATALOAD SWAP1 DUP3 ADD MSTORE PUSH2 0x160 DUP1 DUP5 ADD CALLDATALOAD SWAP1 DUP3 ADD MSTORE PUSH2 0x14F1 PUSH2 0x180 DUP5 ADD PUSH2 0x13FF JUMP JUMPDEST PUSH2 0x180 DUP3 ADD MSTORE PUSH2 0x1A0 DUP4 DUP2 ADD CALLDATALOAD SWAP1 DUP3 ADD MSTORE PUSH2 0x1C0 DUP1 DUP5 ADD CALLDATALOAD SWAP1 DUP3 ADD MSTORE PUSH2 0x1E0 DUP1 DUP5 ADD CALLDATALOAD SWAP1 DUP3 ADD MSTORE PUSH2 0x200 DUP4 ADD CALLDATALOAD PUSH8 0xFFFFFFFFFFFFFFFF DUP2 GT ISZERO PUSH2 0x1532 JUMPI PUSH0 PUSH0 REVERT JUMPDEST PUSH2 0x153E CALLDATASIZE DUP3 DUP7 ADD PUSH2 0x1374 JUMP JUMPDEST PUSH2 0x200 DUP4 ADD MSTORE POP SWAP3 SWAP2 POP POP JUMP JUMPDEST PUSH1 0x1F DUP3 GT ISZERO PUSH2 0x1592 JUMPI DUP1 PUSH0 MSTORE PUSH1 0x20 PUSH0 KECCAK256 PUSH1 0x1F DUP5 ADD PUSH1 0x5 SHR DUP2 ADD PUSH1 0x20 DUP6 LT ISZERO PUSH2 0x1570 JUMPI POP DUP1 JUMPDEST PUSH1 0x1F DUP5 ADD PUSH1 0x5 SHR DUP3 ADD SWAP2 POP JUMPDEST DUP2 DUP2 LT ISZERO PUSH2 0x158F JUMPI PUSH0 DUP2 SSTORE PUSH1 0x1 ADD PUSH2 0x157C JUMP JUMPDEST POP POP JUMPDEST POP POP POP JUMP JUMPDEST DUP2 MLOAD PUSH8 0xFFFFFFFFFFFFFFFF DUP2 GT ISZERO PUSH2 0x15B1 JUMPI PUSH2 0x15B1 PUSH2 0x12A6 JUMP JUMPDEST PUSH2 0x15C5 DUP2 PUSH2 0x15BF DUP5 SLOAD PUSH2 0x12CE JUMP JUMPDEST DUP5 PUSH2 0x154B JUMP JUMPDEST PUSH1 0x20 PUSH1 0x1F DUP3 GT PUSH1 0x1 DUP2 EQ PUSH2 0x15F7 JUMPI PUSH0 DUP4 ISZERO PUSH2 0x15E0 JUMPI POP DUP5 DUP3 ADD MLOAD JUMPDEST PUSH0 NOT PUSH1 0x3 DUP6 SWAP1 SHL SHR NOT AND PUSH1 0x1 DUP5 SWAP1 SHL OR DUP5 SSTORE PUSH2 0x158F JUMP JUMPDEST PUSH0 DUP5 DUP2 MSTORE PUSH1 0x20 DUP2 KECCAK256 PUSH1 0x1F NOT DUP6 AND SWAP2 JUMPDEST DUP3 DUP2 LT ISZERO PUSH2 0x1626 JUMPI DUP8 DUP6 ADD MLOAD DUP3 SSTORE PUSH1 0x20 SWAP5 DUP6 ADD SWAP5 PUSH1 0x1 SWAP1 SWAP3 ADD SWAP2 ADD PUSH2 0x1606 JUMP JUMPDEST POP DUP5 DUP3 LT ISZERO PUSH2 0x1643 JUMPI DUP7 DUP5 ADD MLOAD PUSH0 NOT PUSH1 0x3 DUP8 SWAP1 SHL PUSH1 0xF8 AND SHR NOT AND DUP2 SSTORE JUMPDEST POP POP POP POP PUSH1 0x1 SWAP1 DUP2 SHL ADD SWAP1 SSTORE POP JUMP JUMPDEST DUP6 DUP2 MSTORE PUSH1 0x80 PUSH1 0x20 DUP3 ADD MSTORE DUP4 PUSH1 0x80 DUP3 ADD MSTORE DUP4 DUP6 PUSH1 0xA0 DUP4 ADD CALLDATACOPY PUSH0 PUSH1 0xA0 DUP6 DUP4 ADD ADD MSTORE PUSH0 PUSH1 0xA0 PUSH1 0x1F NOT PUSH1 0x1F DUP8 ADD AND DUP4 ADD ADD SWAP1 POP DUP4 PUSH1 0x40 DUP4 ADD MSTORE DUP3 PUSH1 0x60 DUP4 ADD MSTORE SWAP7 SWAP6 POP POP POP POP POP POP JUMP JUMPDEST DUP2 DUP2 SUB DUP2 DUP2 GT ISZERO PUSH2 0x16B6 JUMPI PUSH4 0x4E487B71 PUSH1 0xE0 SHL PUSH0 MSTORE PUSH1 0x11 PUSH1 0x4 MSTORE PUSH1 0x24 PUSH0 REVERT JUMPDEST SWAP3 SWAP2 POP POP JUMP INVALID LOG2 PUSH5 0x6970667358 0x22 SLT KECCAK256 0xCA 0xBA SWAP3 0x2C 0xAA CODECOPY 0xC5 EOFCREATE 0xF0 PUSH27 0xAF7458B5D75A487E357E790DFED831CEAE828E7B65F764736F6C63 NUMBER STOP ADDMOD 0x1E STOP CALLER "
				},
				"gasEstimates": {
					"creation": {
						"codeDepositCost": "1174800",
						"executionCost": "1219",
						"totalCost": "1176019"
					},
					"external": {
						"getAllCandle()": "infinite",
						"getCandle(uint256)": "infinite",
						"getLastKline()": "infinite",
						"getLength()": "2301",
						"recordCandle((uint256,uint256,string,string,uint256,uint256,uint256,uint256,uint256,uint256,uint256,uint256,bool,uint256,uint256,uint256,string))": "infinite"
					}
				},
				"methodIdentifiers": {
					"getAllCandle()": "8d5ce2bc",
					"getCandle(uint256)": "a00a5424",
					"getLastKline()": "edd0bf6a",
					"getLength()": "be1c766b",
					"recordCandle((uint256,uint256,string,string,uint256,uint256,uint256,uint256,uint256,uint256,uint256,uint256,bool,uint256,uint256,uint256,string))": "c80da6cf"
				}
			},
			"storageLayout": {
				"storage": [
					{
						"astId": 50,
						"contract": "contracts/manager/Candel_1s/Candel_1s.sol:CandleManager",
						"label": "klines",
						"offset": 0,
						"slot": "0",
						"type": "t_mapping(t_uint256,t_struct(CandleResponse)273_storage)"
					},
					{
						"astId": 53,
						"contract": "contracts/manager/Candel_1s/Candel_1s.sol:CandleManager",
						"label": "timestampList",
						"offset": 0,
						"slot": "1",
						"type": "t_array(t_uint256)dyn_storage"
					}
				],
				"types": {
					"t_array(t_uint256)dyn_storage": {
						"base": "t_uint256",
						"encoding": "dynamic_array",
						"label": "uint256[]",
						"numberOfBytes": "32"
					},
					"t_bool": {
						"encoding": "inplace",
						"label": "bool",
						"numberOfBytes": "1"
					},
					"t_mapping(t_uint256,t_struct(CandleResponse)273_storage)": {
						"encoding": "mapping",
						"key": "t_uint256",
						"label": "mapping(uint256 => struct CandleResponse)",
						"numberOfBytes": "32",
						"value": "t_struct(CandleResponse)273_storage"
					},
					"t_string_storage": {
						"encoding": "bytes",
						"label": "string",
						"numberOfBytes": "32"
					},
					"t_struct(CandleRecord)263_storage": {
						"encoding": "inplace",
						"label": "struct CandleRecord",
						"members": [
							{
								"astId": 230,
								"contract": "contracts/manager/Candel_1s/Candel_1s.sol:CandleManager",
								"label": "t",
								"offset": 0,
								"slot": "0",
								"type": "t_uint256"
							},
							{
								"astId": 232,
								"contract": "contracts/manager/Candel_1s/Candel_1s.sol:CandleManager",
								"label": "T",
								"offset": 0,
								"slot": "1",
								"type": "t_uint256"
							},
							{
								"astId": 234,
								"contract": "contracts/manager/Candel_1s/Candel_1s.sol:CandleManager",
								"label": "s",
								"offset": 0,
								"slot": "2",
								"type": "t_string_storage"
							},
							{
								"astId": 236,
								"contract": "contracts/manager/Candel_1s/Candel_1s.sol:CandleManager",
								"label": "i",
								"offset": 0,
								"slot": "3",
								"type": "t_string_storage"
							},
							{
								"astId": 238,
								"contract": "contracts/manager/Candel_1s/Candel_1s.sol:CandleManager",
								"label": "f",
								"offset": 0,
								"slot": "4",
								"type": "t_uint256"
							},
							{
								"astId": 240,
								"contract": "contracts/manager/Candel_1s/Candel_1s.sol:CandleManager",
								"label": "L",
								"offset": 0,
								"slot": "5",
								"type": "t_uint256"
							},
							{
								"astId": 242,
								"contract": "contracts/manager/Candel_1s/Candel_1s.sol:CandleManager",
								"label": "o",
								"offset": 0,
								"slot": "6",
								"type": "t_uint256"
							},
							{
								"astId": 244,
								"contract": "contracts/manager/Candel_1s/Candel_1s.sol:CandleManager",
								"label": "c",
								"offset": 0,
								"slot": "7",
								"type": "t_uint256"
							},
							{
								"astId": 246,
								"contract": "contracts/manager/Candel_1s/Candel_1s.sol:CandleManager",
								"label": "h",
								"offset": 0,
								"slot": "8",
								"type": "t_uint256"
							},
							{
								"astId": 248,
								"contract": "contracts/manager/Candel_1s/Candel_1s.sol:CandleManager",
								"label": "l",
								"offset": 0,
								"slot": "9",
								"type": "t_uint256"
							},
							{
								"astId": 250,
								"contract": "contracts/manager/Candel_1s/Candel_1s.sol:CandleManager",
								"label": "v",
								"offset": 0,
								"slot": "10",
								"type": "t_uint256"
							},
							{
								"astId": 252,
								"contract": "contracts/manager/Candel_1s/Candel_1s.sol:CandleManager",
								"label": "n",
								"offset": 0,
								"slot": "11",
								"type": "t_uint256"
							},
							{
								"astId": 254,
								"contract": "contracts/manager/Candel_1s/Candel_1s.sol:CandleManager",
								"label": "x",
								"offset": 0,
								"slot": "12",
								"type": "t_bool"
							},
							{
								"astId": 256,
								"contract": "contracts/manager/Candel_1s/Candel_1s.sol:CandleManager",
								"label": "q",
								"offset": 0,
								"slot": "13",
								"type": "t_uint256"
							},
							{
								"astId": 258,
								"contract": "contracts/manager/Candel_1s/Candel_1s.sol:CandleManager",
								"label": "V",
								"offset": 0,
								"slot": "14",
								"type": "t_uint256"
							},
							{
								"astId": 260,
								"contract": "contracts/manager/Candel_1s/Candel_1s.sol:CandleManager",
								"label": "Q",
								"offset": 0,
								"slot": "15",
								"type": "t_uint256"
							},
							{
								"astId": 262,
								"contract": "contracts/manager/Candel_1s/Candel_1s.sol:CandleManager",
								"label": "B",
								"offset": 0,
								"slot": "16",
								"type": "t_string_storage"
							}
						],
						"numberOfBytes": "544"
					},
					"t_struct(CandleResponse)273_storage": {
						"encoding": "inplace",
						"label": "struct CandleResponse",
						"members": [
							{
								"astId": 265,
								"contract": "contracts/manager/Candel_1s/Candel_1s.sol:CandleManager",
								"label": "e",
								"offset": 0,
								"slot": "0",
								"type": "t_string_storage"
							},
							{
								"astId": 267,
								"contract": "contracts/manager/Candel_1s/Candel_1s.sol:CandleManager",
								"label": "E",
								"offset": 0,
								"slot": "1",
								"type": "t_uint256"
							},
							{
								"astId": 269,
								"contract": "contracts/manager/Candel_1s/Candel_1s.sol:CandleManager",
								"label": "s",
								"offset": 0,
								"slot": "2",
								"type": "t_string_storage"
							},
							{
								"astId": 272,
								"contract": "contracts/manager/Candel_1s/Candel_1s.sol:CandleManager",
								"label": "k",
								"offset": 0,
								"slot": "3",
								"type": "t_struct(CandleRecord)263_storage"
							}
						],
						"numberOfBytes": "640"
					},
					"t_uint256": {
						"encoding": "inplace",
						"label": "uint256",
						"numberOfBytes": "32"
					}
				}
			},
			"userdoc": {
				"kind": "user",
				"methods": {},
				"version": 1
			}
		}
	}
}