{
	"contracts/manager/Candel_1s/Kandel_1s_Manager.sol": {
		"Kandle_1s_Manager": {
			"abi": [
				{
					"anonymous": false,
					"inputs": [
						{
							"indexed": false,
							"internalType": "uint256",
							"name": "timestamp",
							"type": "uint256"
						},
						{
							"indexed": false,
							"internalType": "string",
							"name": "symbol",
							"type": "string"
						},
						{
							"indexed": false,
							"internalType": "string",
							"name": "open",
							"type": "string"
						},
						{
							"indexed": false,
							"internalType": "string",
							"name": "close",
							"type": "string"
						}
					],
					"name": "AddKlineRecord",
					"type": "event"
				},
				{
					"inputs": [],
					"name": "INTERVAL_1S",
					"outputs": [
						{
							"internalType": "string",
							"name": "",
							"type": "string"
						}
					],
					"stateMutability": "view",
					"type": "function"
				},
				{
					"inputs": [],
					"name": "getAllKline",
					"outputs": [
						{
							"components": [
								{
									"internalType": "string",
									"name": "e",
									"type": "string"
								},
								{
									"internalType": "uint256",
									"name": "E",
									"type": "uint256"
								},
								{
									"internalType": "string",
									"name": "s",
									"type": "string"
								},
								{
									"components": [
										{
											"internalType": "uint256",
											"name": "t",
											"type": "uint256"
										},
										{
											"internalType": "uint256",
											"name": "T",
											"type": "uint256"
										},
										{
											"internalType": "string",
											"name": "s",
											"type": "string"
										},
										{
											"internalType": "string",
											"name": "i",
											"type": "string"
										},
										{
											"internalType": "uint256",
											"name": "f",
											"type": "uint256"
										},
										{
											"internalType": "uint256",
											"name": "L",
											"type": "uint256"
										},
										{
											"internalType": "string",
											"name": "o",
											"type": "string"
										},
										{
											"internalType": "string",
											"name": "c",
											"type": "string"
										},
										{
											"internalType": "string",
											"name": "h",
											"type": "string"
										},
										{
											"internalType": "string",
											"name": "l",
											"type": "string"
										},
										{
											"internalType": "string",
											"name": "v",
											"type": "string"
										},
										{
											"internalType": "uint256",
											"name": "n",
											"type": "uint256"
										},
										{
											"internalType": "bool",
											"name": "x",
											"type": "bool"
										},
										{
											"internalType": "string",
											"name": "q",
											"type": "string"
										},
										{
											"internalType": "string",
											"name": "V",
											"type": "string"
										},
										{
											"internalType": "string",
											"name": "Q",
											"type": "string"
										},
										{
											"internalType": "string",
											"name": "B",
											"type": "string"
										}
									],
									"internalType": "struct KlineRecord",
									"name": "k",
									"type": "tuple"
								}
							],
							"internalType": "struct KlineResponse[]",
							"name": "",
							"type": "tuple[]"
						}
					],
					"stateMutability": "view",
					"type": "function"
				},
				{
					"inputs": [
						{
							"internalType": "uint256",
							"name": "timestamp",
							"type": "uint256"
						}
					],
					"name": "getKline",
					"outputs": [
						{
							"components": [
								{
									"internalType": "string",
									"name": "e",
									"type": "string"
								},
								{
									"internalType": "uint256",
									"name": "E",
									"type": "uint256"
								},
								{
									"internalType": "string",
									"name": "s",
									"type": "string"
								},
								{
									"components": [
										{
											"internalType": "uint256",
											"name": "t",
											"type": "uint256"
										},
										{
											"internalType": "uint256",
											"name": "T",
											"type": "uint256"
										},
										{
											"internalType": "string",
											"name": "s",
											"type": "string"
										},
										{
											"internalType": "string",
											"name": "i",
											"type": "string"
										},
										{
											"internalType": "uint256",
											"name": "f",
											"type": "uint256"
										},
										{
											"internalType": "uint256",
											"name": "L",
											"type": "uint256"
										},
										{
											"internalType": "string",
											"name": "o",
											"type": "string"
										},
										{
											"internalType": "string",
											"name": "c",
											"type": "string"
										},
										{
											"internalType": "string",
											"name": "h",
											"type": "string"
										},
										{
											"internalType": "string",
											"name": "l",
											"type": "string"
										},
										{
											"internalType": "string",
											"name": "v",
											"type": "string"
										},
										{
											"internalType": "uint256",
											"name": "n",
											"type": "uint256"
										},
										{
											"internalType": "bool",
											"name": "x",
											"type": "bool"
										},
										{
											"internalType": "string",
											"name": "q",
											"type": "string"
										},
										{
											"internalType": "string",
											"name": "V",
											"type": "string"
										},
										{
											"internalType": "string",
											"name": "Q",
											"type": "string"
										},
										{
											"internalType": "string",
											"name": "B",
											"type": "string"
										}
									],
									"internalType": "struct KlineRecord",
									"name": "k",
									"type": "tuple"
								}
							],
							"internalType": "struct KlineResponse",
							"name": "",
							"type": "tuple"
						}
					],
					"stateMutability": "view",
					"type": "function"
				},
				{
					"inputs": [
						{
							"internalType": "uint256",
							"name": "fromTimestamp",
							"type": "uint256"
						}
					],
					"name": "getKlineFrom",
					"outputs": [
						{
							"components": [
								{
									"internalType": "string",
									"name": "e",
									"type": "string"
								},
								{
									"internalType": "uint256",
									"name": "E",
									"type": "uint256"
								},
								{
									"internalType": "string",
									"name": "s",
									"type": "string"
								},
								{
									"components": [
										{
											"internalType": "uint256",
											"name": "t",
											"type": "uint256"
										},
										{
											"internalType": "uint256",
											"name": "T",
											"type": "uint256"
										},
										{
											"internalType": "string",
											"name": "s",
											"type": "string"
										},
										{
											"internalType": "string",
											"name": "i",
											"type": "string"
										},
										{
											"internalType": "uint256",
											"name": "f",
											"type": "uint256"
										},
										{
											"internalType": "uint256",
											"name": "L",
											"type": "uint256"
										},
										{
											"internalType": "string",
											"name": "o",
											"type": "string"
										},
										{
											"internalType": "string",
											"name": "c",
											"type": "string"
										},
										{
											"internalType": "string",
											"name": "h",
											"type": "string"
										},
										{
											"internalType": "string",
											"name": "l",
											"type": "string"
										},
										{
											"internalType": "string",
											"name": "v",
											"type": "string"
										},
										{
											"internalType": "uint256",
											"name": "n",
											"type": "uint256"
										},
										{
											"internalType": "bool",
											"name": "x",
											"type": "bool"
										},
										{
											"internalType": "string",
											"name": "q",
											"type": "string"
										},
										{
											"internalType": "string",
											"name": "V",
											"type": "string"
										},
										{
											"internalType": "string",
											"name": "Q",
											"type": "string"
										},
										{
											"internalType": "string",
											"name": "B",
											"type": "string"
										}
									],
									"internalType": "struct KlineRecord",
									"name": "k",
									"type": "tuple"
								}
							],
							"internalType": "struct KlineResponse[]",
							"name": "",
							"type": "tuple[]"
						}
					],
					"stateMutability": "view",
					"type": "function"
				},
				{
					"inputs": [],
					"name": "getLength",
					"outputs": [
						{
							"internalType": "uint256",
							"name": "",
							"type": "uint256"
						}
					],
					"stateMutability": "view",
					"type": "function"
				},
				{
					"inputs": [
						{
							"components": [
								{
									"internalType": "uint256",
									"name": "t",
									"type": "uint256"
								},
								{
									"internalType": "uint256",
									"name": "T",
									"type": "uint256"
								},
								{
									"internalType": "string",
									"name": "s",
									"type": "string"
								},
								{
									"internalType": "string",
									"name": "i",
									"type": "string"
								},
								{
									"internalType": "uint256",
									"name": "f",
									"type": "uint256"
								},
								{
									"internalType": "uint256",
									"name": "L",
									"type": "uint256"
								},
								{
									"internalType": "string",
									"name": "o",
									"type": "string"
								},
								{
									"internalType": "string",
									"name": "c",
									"type": "string"
								},
								{
									"internalType": "string",
									"name": "h",
									"type": "string"
								},
								{
									"internalType": "string",
									"name": "l",
									"type": "string"
								},
								{
									"internalType": "string",
									"name": "v",
									"type": "string"
								},
								{
									"internalType": "uint256",
									"name": "n",
									"type": "uint256"
								},
								{
									"internalType": "bool",
									"name": "x",
									"type": "bool"
								},
								{
									"internalType": "string",
									"name": "q",
									"type": "string"
								},
								{
									"internalType": "string",
									"name": "V",
									"type": "string"
								},
								{
									"internalType": "string",
									"name": "Q",
									"type": "string"
								},
								{
									"internalType": "string",
									"name": "B",
									"type": "string"
								}
							],
							"internalType": "struct KlineRecord",
							"name": "kline",
							"type": "tuple"
						}
					],
					"name": "recordKline",
					"outputs": [],
					"stateMutability": "nonpayable",
					"type": "function"
				}
			],
			"devdoc": {
				"kind": "dev",
				"methods": {},
				"version": 1
			},
			"evm": {
				"assembly": "    /* \"contracts/manager/Candel_1s/Kandel_1s_Manager.sol\":102:2608  contract Kandle_1s_Manager is IKlineManager {... */\n  mstore(0x40, 0x80)\n  callvalue\n  dup1\n  iszero\n  tag_1\n  jumpi\n  revert(0x00, 0x00)\ntag_1:\n  pop\n  dataSize(sub_0)\n  dup1\n  dataOffset(sub_0)\n  0x00\n  codecopy\n  0x00\n  return\nstop\n\nsub_0: assembly {\n        /* \"contracts/manager/Candel_1s/Kandel_1s_Manager.sol\":102:2608  contract Kandle_1s_Manager is IKlineManager {... */\n      mstore(0x40, 0x80)\n      callvalue\n      dup1\n      iszero\n      tag_1\n      jumpi\n      revert(0x00, 0x00)\n    tag_1:\n      pop\n      jumpi(tag_2, lt(calldatasize, 0x04))\n      shr(0xe0, calldataload(0x00))\n      dup1\n      0x48cbad6e\n      eq\n      tag_3\n      jumpi\n      dup1\n      0x50222387\n      eq\n      tag_4\n      jumpi\n      dup1\n      0x5d0345c7\n      eq\n      tag_5\n      jumpi\n      dup1\n      0xa8006d35\n      eq\n      tag_6\n      jumpi\n      dup1\n      0xbe1c766b\n      eq\n      tag_7\n      jumpi\n      dup1\n      0xf2523a9d\n      eq\n      tag_8\n      jumpi\n    tag_2:\n      revert(0x00, 0x00)\n        /* \"contracts/manager/Candel_1s/Kandel_1s_Manager.sol\":1336:1708  function getAllKline()... */\n    tag_3:\n      tag_9\n      tag_10\n      jump\t// in\n    tag_9:\n      mload(0x40)\n      tag_11\n      swap2\n      swap1\n      tag_12\n      jump\t// in\n    tag_11:\n      mload(0x40)\n      dup1\n      swap2\n      sub\n      swap1\n      return\n        /* \"contracts/manager/Candel_1s/Kandel_1s_Manager.sol\":1161:1330  function getKline(uint256 timestamp)... */\n    tag_4:\n      tag_13\n      tag_14\n      calldatasize\n      0x04\n      tag_15\n      jump\t// in\n    tag_14:\n      tag_16\n      jump\t// in\n    tag_13:\n      mload(0x40)\n      tag_11\n      swap2\n      swap1\n      tag_18\n      jump\t// in\n        /* \"contracts/manager/Candel_1s/Kandel_1s_Manager.sol\":152:193  string public constant INTERVAL_1S = \"1s\" */\n    tag_5:\n      tag_19\n      mload(0x40)\n      dup1\n      0x40\n      add\n      0x40\n      mstore\n      dup1\n      0x02\n      dup2\n      mstore\n      0x20\n      add\n      shl(0xf0, 0x3173)\n      dup2\n      mstore\n      pop\n      dup2\n      jump\n    tag_19:\n      mload(0x40)\n      tag_11\n      swap2\n      swap1\n      tag_22\n      jump\t// in\n        /* \"contracts/manager/Candel_1s/Kandel_1s_Manager.sol\":1815:2606  function getKlineFrom(uint256 fromTimestamp)... */\n    tag_6:\n      tag_9\n      tag_24\n      calldatasize\n      0x04\n      tag_15\n      jump\t// in\n    tag_24:\n      tag_25\n      jump\t// in\n        /* \"contracts/manager/Candel_1s/Kandel_1s_Manager.sol\":1714:1809  function getLength() public view returns (uint256) {... */\n    tag_7:\n        /* \"contracts/manager/Candel_1s/Kandel_1s_Manager.sol\":1782:1795  timestampList */\n      0x01\n        /* \"contracts/manager/Candel_1s/Kandel_1s_Manager.sol\":1782:1802  timestampList.length */\n      sload\n        /* \"contracts/manager/Candel_1s/Kandel_1s_Manager.sol\":1714:1809  function getLength() public view returns (uint256) {... */\n      mload(0x40)\n        /* \"#utility.yul\":5146:5171   */\n      swap1\n      dup2\n      mstore\n        /* \"#utility.yul\":5134:5136   */\n      0x20\n        /* \"#utility.yul\":5119:5137   */\n      add\n        /* \"contracts/manager/Candel_1s/Kandel_1s_Manager.sol\":1714:1809  function getLength() public view returns (uint256) {... */\n      tag_11\n        /* \"#utility.yul\":5000:5177   */\n      jump\n        /* \"contracts/manager/Candel_1s/Kandel_1s_Manager.sol\":406:1155  function recordKline(KlineRecord calldata kline) external override {... */\n    tag_8:\n      tag_31\n      tag_32\n      calldatasize\n      0x04\n      tag_33\n      jump\t// in\n    tag_32:\n      tag_34\n      jump\t// in\n    tag_31:\n      stop\n        /* \"contracts/manager/Candel_1s/Kandel_1s_Manager.sol\":1336:1708  function getAllKline()... */\n    tag_10:\n        /* \"contracts/manager/Candel_1s/Kandel_1s_Manager.sol\":1526:1539  timestampList */\n      0x01\n        /* \"contracts/manager/Candel_1s/Kandel_1s_Manager.sol\":1526:1546  timestampList.length */\n      sload\n        /* \"contracts/manager/Candel_1s/Kandel_1s_Manager.sol\":1423:1445  KlineResponse[] memory */\n      0x60\n      swap1\n        /* \"contracts/manager/Candel_1s/Kandel_1s_Manager.sol\":1461:1490  KlineResponse[] memory reslut */\n      0x00\n      swap1\n      sub(shl(0x40, 0x01), 0x01)\n        /* \"contracts/manager/Candel_1s/Kandel_1s_Manager.sol\":1493:1556  new KlineResponse[](... */\n      dup2\n      gt\n      iszero\n      tag_37\n      jumpi\n      tag_37\n      tag_38\n      jump\t// in\n    tag_37:\n      mload(0x40)\n      swap1\n      dup1\n      dup3\n      mstore\n      dup1\n      0x20\n      mul\n      0x20\n      add\n      dup3\n      add\n      0x40\n      mstore\n      dup1\n      iszero\n      tag_39\n      jumpi\n      dup2\n      0x20\n      add\n    tag_40:\n      tag_41\n      tag_42\n      jump\t// in\n    tag_41:\n      dup2\n      mstore\n      0x20\n      add\n      swap1\n      0x01\n      swap1\n      sub\n      swap1\n      dup2\n      tag_40\n      jumpi\n      swap1\n      pop\n    tag_39:\n      pop\n        /* \"contracts/manager/Candel_1s/Kandel_1s_Manager.sol\":1461:1556  KlineResponse[] memory reslut = new KlineResponse[](... */\n      swap1\n      pop\n        /* \"contracts/manager/Candel_1s/Kandel_1s_Manager.sol\":1571:1580  uint256 i */\n      0x00\n        /* \"contracts/manager/Candel_1s/Kandel_1s_Manager.sol\":1566:1679  for (uint256 i = 0; i < timestampList.length; i++) {... */\n    tag_43:\n        /* \"contracts/manager/Candel_1s/Kandel_1s_Manager.sol\":1590:1603  timestampList */\n      0x01\n        /* \"contracts/manager/Candel_1s/Kandel_1s_Manager.sol\":1590:1610  timestampList.length */\n      sload\n        /* \"contracts/manager/Candel_1s/Kandel_1s_Manager.sol\":1586:1610  i < timestampList.length */\n      dup2\n      lt\n        /* \"contracts/manager/Candel_1s/Kandel_1s_Manager.sol\":1566:1679  for (uint256 i = 0; i < timestampList.length; i++) {... */\n      iszero\n      tag_44\n      jumpi\n        /* \"contracts/manager/Candel_1s/Kandel_1s_Manager.sol\":1643:1650  candles */\n      0x00\n        /* \"contracts/manager/Candel_1s/Kandel_1s_Manager.sol\":1643:1668  candles[timestampList[i]] */\n      0x00\n        /* \"contracts/manager/Candel_1s/Kandel_1s_Manager.sol\":1651:1664  timestampList */\n      0x01\n        /* \"contracts/manager/Candel_1s/Kandel_1s_Manager.sol\":1665:1666  i */\n      dup4\n        /* \"contracts/manager/Candel_1s/Kandel_1s_Manager.sol\":1651:1667  timestampList[i] */\n      dup2\n      sload\n      dup2\n      lt\n      tag_47\n      jumpi\n      tag_47\n      tag_48\n      jump\t// in\n    tag_47:\n      swap1\n      0x00\n      mstore\n      keccak256(0x00, 0x20)\n      add\n      sload\n        /* \"contracts/manager/Candel_1s/Kandel_1s_Manager.sol\":1643:1668  candles[timestampList[i]] */\n      dup2\n      mstore\n      0x20\n      add\n      swap1\n      dup2\n      mstore\n      0x20\n      add\n      0x00\n      keccak256\n        /* \"contracts/manager/Candel_1s/Kandel_1s_Manager.sol\":1631:1668  reslut[i] = candles[timestampList[i]] */\n      mload(0x40)\n      dup1\n      0x80\n      add\n      0x40\n      mstore\n      swap1\n      dup2\n      0x00\n      dup3\n      add\n      dup1\n      sload\n      tag_50\n      swap1\n      tag_51\n      jump\t// in\n    tag_50:\n      dup1\n      0x1f\n      add\n      0x20\n      dup1\n      swap2\n      div\n      mul\n      0x20\n      add\n      mload(0x40)\n      swap1\n      dup2\n      add\n      0x40\n      mstore\n      dup1\n      swap3\n      swap2\n      swap1\n      dup2\n      dup2\n      mstore\n      0x20\n      add\n      dup3\n      dup1\n      sload\n      tag_52\n      swap1\n      tag_51\n      jump\t// in\n    tag_52:\n      dup1\n      iszero\n      tag_53\n      jumpi\n      dup1\n      0x1f\n      lt\n      tag_54\n      jumpi\n      0x0100\n      dup1\n      dup4\n      sload\n      div\n      mul\n      dup4\n      mstore\n      swap2\n      0x20\n      add\n      swap2\n      jump(tag_53)\n    tag_54:\n      dup3\n      add\n      swap2\n      swap1\n      0x00\n      mstore\n      keccak256(0x00, 0x20)\n      swap1\n    tag_55:\n      dup2\n      sload\n      dup2\n      mstore\n      swap1\n      0x01\n      add\n      swap1\n      0x20\n      add\n      dup1\n      dup4\n      gt\n      tag_55\n      jumpi\n      dup3\n      swap1\n      sub\n      0x1f\n      and\n      dup3\n      add\n      swap2\n    tag_53:\n      pop\n      pop\n      pop\n      pop\n      pop\n      dup2\n      mstore\n      0x20\n      add\n      0x01\n      dup3\n      add\n      sload\n      dup2\n      mstore\n      0x20\n      add\n      0x02\n      dup3\n      add\n      dup1\n      sload\n      tag_56\n      swap1\n      tag_51\n      jump\t// in\n    tag_56:\n      dup1\n      0x1f\n      add\n      0x20\n      dup1\n      swap2\n      div\n      mul\n      0x20\n      add\n      mload(0x40)\n      swap1\n      dup2\n      add\n      0x40\n      mstore\n      dup1\n      swap3\n      swap2\n      swap1\n      dup2\n      dup2\n      mstore\n      0x20\n      add\n      dup3\n      dup1\n      sload\n      tag_57\n      swap1\n      tag_51\n      jump\t// in\n    tag_57:\n      dup1\n      iszero\n      tag_58\n      jumpi\n      dup1\n      0x1f\n      lt\n      tag_59\n      jumpi\n      0x0100\n      dup1\n      dup4\n      sload\n      div\n      mul\n      dup4\n      mstore\n      swap2\n      0x20\n      add\n      swap2\n      jump(tag_58)\n    tag_59:\n      dup3\n      add\n      swap2\n      swap1\n      0x00\n      mstore\n      keccak256(0x00, 0x20)\n      swap1\n    tag_60:\n      dup2\n      sload\n      dup2\n      mstore\n      swap1\n      0x01\n      add\n      swap1\n      0x20\n      add\n      dup1\n      dup4\n      gt\n      tag_60\n      jumpi\n      dup3\n      swap1\n      sub\n      0x1f\n      and\n      dup3\n      add\n      swap2\n    tag_58:\n      pop\n      pop\n      pop\n      pop\n      pop\n      dup2\n      mstore\n      0x20\n      add\n      0x03\n      dup3\n      add\n      mload(0x40)\n      dup1\n      0x0220\n      add\n      0x40\n      mstore\n      swap1\n      dup2\n      0x00\n      dup3\n      add\n      sload\n      dup2\n      mstore\n      0x20\n      add\n      0x01\n      dup3\n      add\n      sload\n      dup2\n      mstore\n      0x20\n      add\n      0x02\n      dup3\n      add\n      dup1\n      sload\n      tag_61\n      swap1\n      tag_51\n      jump\t// in\n    tag_61:\n      dup1\n      0x1f\n      add\n      0x20\n      dup1\n      swap2\n      div\n      mul\n      0x20\n      add\n      mload(0x40)\n      swap1\n      dup2\n      add\n      0x40\n      mstore\n      dup1\n      swap3\n      swap2\n      swap1\n      dup2\n      dup2\n      mstore\n      0x20\n      add\n      dup3\n      dup1\n      sload\n      tag_62\n      swap1\n      tag_51\n      jump\t// in\n    tag_62:\n      dup1\n      iszero\n      tag_63\n      jumpi\n      dup1\n      0x1f\n      lt\n      tag_64\n      jumpi\n      0x0100\n      dup1\n      dup4\n      sload\n      div\n      mul\n      dup4\n      mstore\n      swap2\n      0x20\n      add\n      swap2\n      jump(tag_63)\n    tag_64:\n      dup3\n      add\n      swap2\n      swap1\n      0x00\n      mstore\n      keccak256(0x00, 0x20)\n      swap1\n    tag_65:\n      dup2\n      sload\n      dup2\n      mstore\n      swap1\n      0x01\n      add\n      swap1\n      0x20\n      add\n      dup1\n      dup4\n      gt\n      tag_65\n      jumpi\n      dup3\n      swap1\n      sub\n      0x1f\n      and\n      dup3\n      add\n      swap2\n    tag_63:\n      pop\n      pop\n      pop\n      pop\n      pop\n      dup2\n      mstore\n      0x20\n      add\n      0x03\n      dup3\n      add\n      dup1\n      sload\n      tag_66\n      swap1\n      tag_51\n      jump\t// in\n    tag_66:\n      dup1\n      0x1f\n      add\n      0x20\n      dup1\n      swap2\n      div\n      mul\n      0x20\n      add\n      mload(0x40)\n      swap1\n      dup2\n      add\n      0x40\n      mstore\n      dup1\n      swap3\n      swap2\n      swap1\n      dup2\n      dup2\n      mstore\n      0x20\n      add\n      dup3\n      dup1\n      sload\n      tag_67\n      swap1\n      tag_51\n      jump\t// in\n    tag_67:\n      dup1\n      iszero\n      tag_68\n      jumpi\n      dup1\n      0x1f\n      lt\n      tag_69\n      jumpi\n      0x0100\n      dup1\n      dup4\n      sload\n      div\n      mul\n      dup4\n      mstore\n      swap2\n      0x20\n      add\n      swap2\n      jump(tag_68)\n    tag_69:\n      dup3\n      add\n      swap2\n      swap1\n      0x00\n      mstore\n      keccak256(0x00, 0x20)\n      swap1\n    tag_70:\n      dup2\n      sload\n      dup2\n      mstore\n      swap1\n      0x01\n      add\n      swap1\n      0x20\n      add\n      dup1\n      dup4\n      gt\n      tag_70\n      jumpi\n      dup3\n      swap1\n      sub\n      0x1f\n      and\n      dup3\n      add\n      swap2\n    tag_68:\n      pop\n      pop\n      pop\n      pop\n      pop\n      dup2\n      mstore\n      0x20\n      add\n      0x04\n      dup3\n      add\n      sload\n      dup2\n      mstore\n      0x20\n      add\n      0x05\n      dup3\n      add\n      sload\n      dup2\n      mstore\n      0x20\n      add\n      0x06\n      dup3\n      add\n      dup1\n      sload\n      tag_71\n      swap1\n      tag_51\n      jump\t// in\n    tag_71:\n      dup1\n      0x1f\n      add\n      0x20\n      dup1\n      swap2\n      div\n      mul\n      0x20\n      add\n      mload(0x40)\n      swap1\n      dup2\n      add\n      0x40\n      mstore\n      dup1\n      swap3\n      swap2\n      swap1\n      dup2\n      dup2\n      mstore\n      0x20\n      add\n      dup3\n      dup1\n      sload\n      tag_72\n      swap1\n      tag_51\n      jump\t// in\n    tag_72:\n      dup1\n      iszero\n      tag_73\n      jumpi\n      dup1\n      0x1f\n      lt\n      tag_74\n      jumpi\n      0x0100\n      dup1\n      dup4\n      sload\n      div\n      mul\n      dup4\n      mstore\n      swap2\n      0x20\n      add\n      swap2\n      jump(tag_73)\n    tag_74:\n      dup3\n      add\n      swap2\n      swap1\n      0x00\n      mstore\n      keccak256(0x00, 0x20)\n      swap1\n    tag_75:\n      dup2\n      sload\n      dup2\n      mstore\n      swap1\n      0x01\n      add\n      swap1\n      0x20\n      add\n      dup1\n      dup4\n      gt\n      tag_75\n      jumpi\n      dup3\n      swap1\n      sub\n      0x1f\n      and\n      dup3\n      add\n      swap2\n    tag_73:\n      pop\n      pop\n      pop\n      pop\n      pop\n      dup2\n      mstore\n      0x20\n      add\n      0x07\n      dup3\n      add\n      dup1\n      sload\n      tag_76\n      swap1\n      tag_51\n      jump\t// in\n    tag_76:\n      dup1\n      0x1f\n      add\n      0x20\n      dup1\n      swap2\n      div\n      mul\n      0x20\n      add\n      mload(0x40)\n      swap1\n      dup2\n      add\n      0x40\n      mstore\n      dup1\n      swap3\n      swap2\n      swap1\n      dup2\n      dup2\n      mstore\n      0x20\n      add\n      dup3\n      dup1\n      sload\n      tag_77\n      swap1\n      tag_51\n      jump\t// in\n    tag_77:\n      dup1\n      iszero\n      tag_78\n      jumpi\n      dup1\n      0x1f\n      lt\n      tag_79\n      jumpi\n      0x0100\n      dup1\n      dup4\n      sload\n      div\n      mul\n      dup4\n      mstore\n      swap2\n      0x20\n      add\n      swap2\n      jump(tag_78)\n    tag_79:\n      dup3\n      add\n      swap2\n      swap1\n      0x00\n      mstore\n      keccak256(0x00, 0x20)\n      swap1\n    tag_80:\n      dup2\n      sload\n      dup2\n      mstore\n      swap1\n      0x01\n      add\n      swap1\n      0x20\n      add\n      dup1\n      dup4\n      gt\n      tag_80\n      jumpi\n      dup3\n      swap1\n      sub\n      0x1f\n      and\n      dup3\n      add\n      swap2\n    tag_78:\n      pop\n      pop\n      pop\n      pop\n      pop\n      dup2\n      mstore\n      0x20\n      add\n      0x08\n      dup3\n      add\n      dup1\n      sload\n      tag_81\n      swap1\n      tag_51\n      jump\t// in\n    tag_81:\n      dup1\n      0x1f\n      add\n      0x20\n      dup1\n      swap2\n      div\n      mul\n      0x20\n      add\n      mload(0x40)\n      swap1\n      dup2\n      add\n      0x40\n      mstore\n      dup1\n      swap3\n      swap2\n      swap1\n      dup2\n      dup2\n      mstore\n      0x20\n      add\n      dup3\n      dup1\n      sload\n      tag_82\n      swap1\n      tag_51\n      jump\t// in\n    tag_82:\n      dup1\n      iszero\n      tag_83\n      jumpi\n      dup1\n      0x1f\n      lt\n      tag_84\n      jumpi\n      0x0100\n      dup1\n      dup4\n      sload\n      div\n      mul\n      dup4\n      mstore\n      swap2\n      0x20\n      add\n      swap2\n      jump(tag_83)\n    tag_84:\n      dup3\n      add\n      swap2\n      swap1\n      0x00\n      mstore\n      keccak256(0x00, 0x20)\n      swap1\n    tag_85:\n      dup2\n      sload\n      dup2\n      mstore\n      swap1\n      0x01\n      add\n      swap1\n      0x20\n      add\n      dup1\n      dup4\n      gt\n      tag_85\n      jumpi\n      dup3\n      swap1\n      sub\n      0x1f\n      and\n      dup3\n      add\n      swap2\n    tag_83:\n      pop\n      pop\n      pop\n      pop\n      pop\n      dup2\n      mstore\n      0x20\n      add\n      0x09\n      dup3\n      add\n      dup1\n      sload\n      tag_86\n      swap1\n      tag_51\n      jump\t// in\n    tag_86:\n      dup1\n      0x1f\n      add\n      0x20\n      dup1\n      swap2\n      div\n      mul\n      0x20\n      add\n      mload(0x40)\n      swap1\n      dup2\n      add\n      0x40\n      mstore\n      dup1\n      swap3\n      swap2\n      swap1\n      dup2\n      dup2\n      mstore\n      0x20\n      add\n      dup3\n      dup1\n      sload\n      tag_87\n      swap1\n      tag_51\n      jump\t// in\n    tag_87:\n      dup1\n      iszero\n      tag_88\n      jumpi\n      dup1\n      0x1f\n      lt\n      tag_89\n      jumpi\n      0x0100\n      dup1\n      dup4\n      sload\n      div\n      mul\n      dup4\n      mstore\n      swap2\n      0x20\n      add\n      swap2\n      jump(tag_88)\n    tag_89:\n      dup3\n      add\n      swap2\n      swap1\n      0x00\n      mstore\n      keccak256(0x00, 0x20)\n      swap1\n    tag_90:\n      dup2\n      sload\n      dup2\n      mstore\n      swap1\n      0x01\n      add\n      swap1\n      0x20\n      add\n      dup1\n      dup4\n      gt\n      tag_90\n      jumpi\n      dup3\n      swap1\n      sub\n      0x1f\n      and\n      dup3\n      add\n      swap2\n    tag_88:\n      pop\n      pop\n      pop\n      pop\n      pop\n      dup2\n      mstore\n      0x20\n      add\n      0x0a\n      dup3\n      add\n      dup1\n      sload\n      tag_91\n      swap1\n      tag_51\n      jump\t// in\n    tag_91:\n      dup1\n      0x1f\n      add\n      0x20\n      dup1\n      swap2\n      div\n      mul\n      0x20\n      add\n      mload(0x40)\n      swap1\n      dup2\n      add\n      0x40\n      mstore\n      dup1\n      swap3\n      swap2\n      swap1\n      dup2\n      dup2\n      mstore\n      0x20\n      add\n      dup3\n      dup1\n      sload\n      tag_92\n      swap1\n      tag_51\n      jump\t// in\n    tag_92:\n      dup1\n      iszero\n      tag_93\n      jumpi\n      dup1\n      0x1f\n      lt\n      tag_94\n      jumpi\n      0x0100\n      dup1\n      dup4\n      sload\n      div\n      mul\n      dup4\n      mstore\n      swap2\n      0x20\n      add\n      swap2\n      jump(tag_93)\n    tag_94:\n      dup3\n      add\n      swap2\n      swap1\n      0x00\n      mstore\n      keccak256(0x00, 0x20)\n      swap1\n    tag_95:\n      dup2\n      sload\n      dup2\n      mstore\n      swap1\n      0x01\n      add\n      swap1\n      0x20\n      add\n      dup1\n      dup4\n      gt\n      tag_95\n      jumpi\n      dup3\n      swap1\n      sub\n      0x1f\n      and\n      dup3\n      add\n      swap2\n    tag_93:\n      pop\n      pop\n      pop\n      swap2\n      dup4\n      mstore\n      pop\n      pop\n      0x0b\n      dup3\n      add\n      sload\n      0x20\n      dup3\n      add\n      mstore\n      0x0c\n      dup3\n      add\n      sload\n      0xff\n      and\n      iszero\n      iszero\n      0x40\n      dup3\n      add\n      mstore\n      0x0d\n      dup3\n      add\n      dup1\n      sload\n      0x60\n      swap1\n      swap3\n      add\n      swap2\n      tag_96\n      swap1\n      tag_51\n      jump\t// in\n    tag_96:\n      dup1\n      0x1f\n      add\n      0x20\n      dup1\n      swap2\n      div\n      mul\n      0x20\n      add\n      mload(0x40)\n      swap1\n      dup2\n      add\n      0x40\n      mstore\n      dup1\n      swap3\n      swap2\n      swap1\n      dup2\n      dup2\n      mstore\n      0x20\n      add\n      dup3\n      dup1\n      sload\n      tag_97\n      swap1\n      tag_51\n      jump\t// in\n    tag_97:\n      dup1\n      iszero\n      tag_98\n      jumpi\n      dup1\n      0x1f\n      lt\n      tag_99\n      jumpi\n      0x0100\n      dup1\n      dup4\n      sload\n      div\n      mul\n      dup4\n      mstore\n      swap2\n      0x20\n      add\n      swap2\n      jump(tag_98)\n    tag_99:\n      dup3\n      add\n      swap2\n      swap1\n      0x00\n      mstore\n      keccak256(0x00, 0x20)\n      swap1\n    tag_100:\n      dup2\n      sload\n      dup2\n      mstore\n      swap1\n      0x01\n      add\n      swap1\n      0x20\n      add\n      dup1\n      dup4\n      gt\n      tag_100\n      jumpi\n      dup3\n      swap1\n      sub\n      0x1f\n      and\n      dup3\n      add\n      swap2\n    tag_98:\n      pop\n      pop\n      pop\n      pop\n      pop\n      dup2\n      mstore\n      0x20\n      add\n      0x0e\n      dup3\n      add\n      dup1\n      sload\n      tag_101\n      swap1\n      tag_51\n      jump\t// in\n    tag_101:\n      dup1\n      0x1f\n      add\n      0x20\n      dup1\n      swap2\n      div\n      mul\n      0x20\n      add\n      mload(0x40)\n      swap1\n      dup2\n      add\n      0x40\n      mstore\n      dup1\n      swap3\n      swap2\n      swap1\n      dup2\n      dup2\n      mstore\n      0x20\n      add\n      dup3\n      dup1\n      sload\n      tag_102\n      swap1\n      tag_51\n      jump\t// in\n    tag_102:\n      dup1\n      iszero\n      tag_103\n      jumpi\n      dup1\n      0x1f\n      lt\n      tag_104\n      jumpi\n      0x0100\n      dup1\n      dup4\n      sload\n      div\n      mul\n      dup4\n      mstore\n      swap2\n      0x20\n      add\n      swap2\n      jump(tag_103)\n    tag_104:\n      dup3\n      add\n      swap2\n      swap1\n      0x00\n      mstore\n      keccak256(0x00, 0x20)\n      swap1\n    tag_105:\n      dup2\n      sload\n      dup2\n      mstore\n      swap1\n      0x01\n      add\n      swap1\n      0x20\n      add\n      dup1\n      dup4\n      gt\n      tag_105\n      jumpi\n      dup3\n      swap1\n      sub\n      0x1f\n      and\n      dup3\n      add\n      swap2\n    tag_103:\n      pop\n      pop\n      pop\n      pop\n      pop\n      dup2\n      mstore\n      0x20\n      add\n      0x0f\n      dup3\n      add\n      dup1\n      sload\n      tag_106\n      swap1\n      tag_51\n      jump\t// in\n    tag_106:\n      dup1\n      0x1f\n      add\n      0x20\n      dup1\n      swap2\n      div\n      mul\n      0x20\n      add\n      mload(0x40)\n      swap1\n      dup2\n      add\n      0x40\n      mstore\n      dup1\n      swap3\n      swap2\n      swap1\n      dup2\n      dup2\n      mstore\n      0x20\n      add\n      dup3\n      dup1\n      sload\n      tag_107\n      swap1\n      tag_51\n      jump\t// in\n    tag_107:\n      dup1\n      iszero\n      tag_108\n      jumpi\n      dup1\n      0x1f\n      lt\n      tag_109\n      jumpi\n      0x0100\n      dup1\n      dup4\n      sload\n      div\n      mul\n      dup4\n      mstore\n      swap2\n      0x20\n      add\n      swap2\n      jump(tag_108)\n    tag_109:\n      dup3\n      add\n      swap2\n      swap1\n      0x00\n      mstore\n      keccak256(0x00, 0x20)\n      swap1\n    tag_110:\n      dup2\n      sload\n      dup2\n      mstore\n      swap1\n      0x01\n      add\n      swap1\n      0x20\n      add\n      dup1\n      dup4\n      gt\n      tag_110\n      jumpi\n      dup3\n      swap1\n      sub\n      0x1f\n      and\n      dup3\n      add\n      swap2\n    tag_108:\n      pop\n      pop\n      pop\n      pop\n      pop\n      dup2\n      mstore\n      0x20\n      add\n      0x10\n      dup3\n      add\n      dup1\n      sload\n      tag_111\n      swap1\n      tag_51\n      jump\t// in\n    tag_111:\n      dup1\n      0x1f\n      add\n      0x20\n      dup1\n      swap2\n      div\n      mul\n      0x20\n      add\n      mload(0x40)\n      swap1\n      dup2\n      add\n      0x40\n      mstore\n      dup1\n      swap3\n      swap2\n      swap1\n      dup2\n      dup2\n      mstore\n      0x20\n      add\n      dup3\n      dup1\n      sload\n      tag_112\n      swap1\n      tag_51\n      jump\t// in\n    tag_112:\n      dup1\n      iszero\n      tag_113\n      jumpi\n      dup1\n      0x1f\n      lt\n      tag_114\n      jumpi\n      0x0100\n      dup1\n      dup4\n      sload\n      div\n      mul\n      dup4\n      mstore\n      swap2\n      0x20\n      add\n      swap2\n      jump(tag_113)\n    tag_114:\n      dup3\n      add\n      swap2\n      swap1\n      0x00\n      mstore\n      keccak256(0x00, 0x20)\n      swap1\n    tag_115:\n      dup2\n      sload\n      dup2\n      mstore\n      swap1\n      0x01\n      add\n      swap1\n      0x20\n      add\n      dup1\n      dup4\n      gt\n      tag_115\n      jumpi\n      dup3\n      swap1\n      sub\n      0x1f\n      and\n      dup3\n      add\n      swap2\n    tag_113:\n      pop\n      pop\n      pop\n      pop\n      pop\n      dup2\n      mstore\n      pop\n      pop\n      dup2\n      mstore\n      pop\n      pop\n        /* \"contracts/manager/Candel_1s/Kandel_1s_Manager.sol\":1631:1637  reslut */\n      dup3\n        /* \"contracts/manager/Candel_1s/Kandel_1s_Manager.sol\":1638:1639  i */\n      dup3\n        /* \"contracts/manager/Candel_1s/Kandel_1s_Manager.sol\":1631:1640  reslut[i] */\n      dup2\n      mload\n      dup2\n      lt\n      tag_117\n      jumpi\n      tag_117\n      tag_48\n      jump\t// in\n    tag_117:\n      0x20\n      swap1\n      dup2\n      mul\n      swap2\n      swap1\n      swap2\n      add\n      add\n        /* \"contracts/manager/Candel_1s/Kandel_1s_Manager.sol\":1631:1668  reslut[i] = candles[timestampList[i]] */\n      mstore\n        /* \"contracts/manager/Candel_1s/Kandel_1s_Manager.sol\":1612:1615  i++ */\n      0x01\n      add\n        /* \"contracts/manager/Candel_1s/Kandel_1s_Manager.sol\":1566:1679  for (uint256 i = 0; i < timestampList.length; i++) {... */\n      jump(tag_43)\n    tag_44:\n      pop\n        /* \"contracts/manager/Candel_1s/Kandel_1s_Manager.sol\":1695:1701  reslut */\n      swap2\n        /* \"contracts/manager/Candel_1s/Kandel_1s_Manager.sol\":1336:1708  function getAllKline()... */\n      swap1\n      pop\n      jump\t// out\n        /* \"contracts/manager/Candel_1s/Kandel_1s_Manager.sol\":1161:1330  function getKline(uint256 timestamp)... */\n    tag_16:\n        /* \"contracts/manager/Candel_1s/Kandel_1s_Manager.sol\":1262:1282  KlineResponse memory */\n      tag_118\n      tag_42\n      jump\t// in\n    tag_118:\n        /* \"contracts/manager/Candel_1s/Kandel_1s_Manager.sol\":1305:1312  candles */\n      0x00\n        /* \"contracts/manager/Candel_1s/Kandel_1s_Manager.sol\":1305:1323  candles[timestamp] */\n      dup3\n      dup2\n      mstore\n      0x20\n      dup2\n      swap1\n      mstore\n      0x40\n      swap1\n      dup2\n      swap1\n      keccak256\n        /* \"contracts/manager/Candel_1s/Kandel_1s_Manager.sol\":1298:1323  return candles[timestamp] */\n      dup2\n      mload\n      0x80\n      dup2\n      add\n      swap1\n      swap3\n      mstore\n      dup1\n      sload\n      dup3\n      swap1\n        /* \"contracts/manager/Candel_1s/Kandel_1s_Manager.sol\":1305:1323  candles[timestamp] */\n      dup3\n      swap1\n        /* \"contracts/manager/Candel_1s/Kandel_1s_Manager.sol\":1298:1323  return candles[timestamp] */\n      tag_120\n      swap1\n      tag_51\n      jump\t// in\n    tag_120:\n      dup1\n      0x1f\n      add\n      0x20\n      dup1\n      swap2\n      div\n      mul\n      0x20\n      add\n      mload(0x40)\n      swap1\n      dup2\n      add\n      0x40\n      mstore\n      dup1\n      swap3\n      swap2\n      swap1\n      dup2\n      dup2\n      mstore\n      0x20\n      add\n      dup3\n      dup1\n      sload\n      tag_121\n      swap1\n      tag_51\n      jump\t// in\n    tag_121:\n      dup1\n      iszero\n      tag_122\n      jumpi\n      dup1\n      0x1f\n      lt\n      tag_123\n      jumpi\n      0x0100\n      dup1\n      dup4\n      sload\n      div\n      mul\n      dup4\n      mstore\n      swap2\n      0x20\n      add\n      swap2\n      jump(tag_122)\n    tag_123:\n      dup3\n      add\n      swap2\n      swap1\n      0x00\n      mstore\n      keccak256(0x00, 0x20)\n      swap1\n    tag_124:\n      dup2\n      sload\n      dup2\n      mstore\n      swap1\n      0x01\n      add\n      swap1\n      0x20\n      add\n      dup1\n      dup4\n      gt\n      tag_124\n      jumpi\n      dup3\n      swap1\n      sub\n      0x1f\n      and\n      dup3\n      add\n      swap2\n    tag_122:\n      pop\n      pop\n      pop\n      pop\n      pop\n      dup2\n      mstore\n      0x20\n      add\n      0x01\n      dup3\n      add\n      sload\n      dup2\n      mstore\n      0x20\n      add\n      0x02\n      dup3\n      add\n      dup1\n      sload\n      tag_125\n      swap1\n      tag_51\n      jump\t// in\n    tag_125:\n      dup1\n      0x1f\n      add\n      0x20\n      dup1\n      swap2\n      div\n      mul\n      0x20\n      add\n      mload(0x40)\n      swap1\n      dup2\n      add\n      0x40\n      mstore\n      dup1\n      swap3\n      swap2\n      swap1\n      dup2\n      dup2\n      mstore\n      0x20\n      add\n      dup3\n      dup1\n      sload\n      tag_126\n      swap1\n      tag_51\n      jump\t// in\n    tag_126:\n      dup1\n      iszero\n      tag_127\n      jumpi\n      dup1\n      0x1f\n      lt\n      tag_128\n      jumpi\n      0x0100\n      dup1\n      dup4\n      sload\n      div\n      mul\n      dup4\n      mstore\n      swap2\n      0x20\n      add\n      swap2\n      jump(tag_127)\n    tag_128:\n      dup3\n      add\n      swap2\n      swap1\n      0x00\n      mstore\n      keccak256(0x00, 0x20)\n      swap1\n    tag_129:\n      dup2\n      sload\n      dup2\n      mstore\n      swap1\n      0x01\n      add\n      swap1\n      0x20\n      add\n      dup1\n      dup4\n      gt\n      tag_129\n      jumpi\n      dup3\n      swap1\n      sub\n      0x1f\n      and\n      dup3\n      add\n      swap2\n    tag_127:\n      pop\n      pop\n      pop\n      pop\n      pop\n      dup2\n      mstore\n      0x20\n      add\n      0x03\n      dup3\n      add\n      mload(0x40)\n      dup1\n      0x0220\n      add\n      0x40\n      mstore\n      swap1\n      dup2\n      0x00\n      dup3\n      add\n      sload\n      dup2\n      mstore\n      0x20\n      add\n      0x01\n      dup3\n      add\n      sload\n      dup2\n      mstore\n      0x20\n      add\n      0x02\n      dup3\n      add\n      dup1\n      sload\n      tag_130\n      swap1\n      tag_51\n      jump\t// in\n    tag_130:\n      dup1\n      0x1f\n      add\n      0x20\n      dup1\n      swap2\n      div\n      mul\n      0x20\n      add\n      mload(0x40)\n      swap1\n      dup2\n      add\n      0x40\n      mstore\n      dup1\n      swap3\n      swap2\n      swap1\n      dup2\n      dup2\n      mstore\n      0x20\n      add\n      dup3\n      dup1\n      sload\n      tag_131\n      swap1\n      tag_51\n      jump\t// in\n    tag_131:\n      dup1\n      iszero\n      tag_132\n      jumpi\n      dup1\n      0x1f\n      lt\n      tag_133\n      jumpi\n      0x0100\n      dup1\n      dup4\n      sload\n      div\n      mul\n      dup4\n      mstore\n      swap2\n      0x20\n      add\n      swap2\n      jump(tag_132)\n    tag_133:\n      dup3\n      add\n      swap2\n      swap1\n      0x00\n      mstore\n      keccak256(0x00, 0x20)\n      swap1\n    tag_134:\n      dup2\n      sload\n      dup2\n      mstore\n      swap1\n      0x01\n      add\n      swap1\n      0x20\n      add\n      dup1\n      dup4\n      gt\n      tag_134\n      jumpi\n      dup3\n      swap1\n      sub\n      0x1f\n      and\n      dup3\n      add\n      swap2\n    tag_132:\n      pop\n      pop\n      pop\n      pop\n      pop\n      dup2\n      mstore\n      0x20\n      add\n      0x03\n      dup3\n      add\n      dup1\n      sload\n      tag_135\n      swap1\n      tag_51\n      jump\t// in\n    tag_135:\n      dup1\n      0x1f\n      add\n      0x20\n      dup1\n      swap2\n      div\n      mul\n      0x20\n      add\n      mload(0x40)\n      swap1\n      dup2\n      add\n      0x40\n      mstore\n      dup1\n      swap3\n      swap2\n      swap1\n      dup2\n      dup2\n      mstore\n      0x20\n      add\n      dup3\n      dup1\n      sload\n      tag_136\n      swap1\n      tag_51\n      jump\t// in\n    tag_136:\n      dup1\n      iszero\n      tag_137\n      jumpi\n      dup1\n      0x1f\n      lt\n      tag_138\n      jumpi\n      0x0100\n      dup1\n      dup4\n      sload\n      div\n      mul\n      dup4\n      mstore\n      swap2\n      0x20\n      add\n      swap2\n      jump(tag_137)\n    tag_138:\n      dup3\n      add\n      swap2\n      swap1\n      0x00\n      mstore\n      keccak256(0x00, 0x20)\n      swap1\n    tag_139:\n      dup2\n      sload\n      dup2\n      mstore\n      swap1\n      0x01\n      add\n      swap1\n      0x20\n      add\n      dup1\n      dup4\n      gt\n      tag_139\n      jumpi\n      dup3\n      swap1\n      sub\n      0x1f\n      and\n      dup3\n      add\n      swap2\n    tag_137:\n      pop\n      pop\n      pop\n      pop\n      pop\n      dup2\n      mstore\n      0x20\n      add\n      0x04\n      dup3\n      add\n      sload\n      dup2\n      mstore\n      0x20\n      add\n      0x05\n      dup3\n      add\n      sload\n      dup2\n      mstore\n      0x20\n      add\n      0x06\n      dup3\n      add\n      dup1\n      sload\n      tag_140\n      swap1\n      tag_51\n      jump\t// in\n    tag_140:\n      dup1\n      0x1f\n      add\n      0x20\n      dup1\n      swap2\n      div\n      mul\n      0x20\n      add\n      mload(0x40)\n      swap1\n      dup2\n      add\n      0x40\n      mstore\n      dup1\n      swap3\n      swap2\n      swap1\n      dup2\n      dup2\n      mstore\n      0x20\n      add\n      dup3\n      dup1\n      sload\n      tag_141\n      swap1\n      tag_51\n      jump\t// in\n    tag_141:\n      dup1\n      iszero\n      tag_142\n      jumpi\n      dup1\n      0x1f\n      lt\n      tag_143\n      jumpi\n      0x0100\n      dup1\n      dup4\n      sload\n      div\n      mul\n      dup4\n      mstore\n      swap2\n      0x20\n      add\n      swap2\n      jump(tag_142)\n    tag_143:\n      dup3\n      add\n      swap2\n      swap1\n      0x00\n      mstore\n      keccak256(0x00, 0x20)\n      swap1\n    tag_144:\n      dup2\n      sload\n      dup2\n      mstore\n      swap1\n      0x01\n      add\n      swap1\n      0x20\n      add\n      dup1\n      dup4\n      gt\n      tag_144\n      jumpi\n      dup3\n      swap1\n      sub\n      0x1f\n      and\n      dup3\n      add\n      swap2\n    tag_142:\n      pop\n      pop\n      pop\n      pop\n      pop\n      dup2\n      mstore\n      0x20\n      add\n      0x07\n      dup3\n      add\n      dup1\n      sload\n      tag_145\n      swap1\n      tag_51\n      jump\t// in\n    tag_145:\n      dup1\n      0x1f\n      add\n      0x20\n      dup1\n      swap2\n      div\n      mul\n      0x20\n      add\n      mload(0x40)\n      swap1\n      dup2\n      add\n      0x40\n      mstore\n      dup1\n      swap3\n      swap2\n      swap1\n      dup2\n      dup2\n      mstore\n      0x20\n      add\n      dup3\n      dup1\n      sload\n      tag_146\n      swap1\n      tag_51\n      jump\t// in\n    tag_146:\n      dup1\n      iszero\n      tag_147\n      jumpi\n      dup1\n      0x1f\n      lt\n      tag_148\n      jumpi\n      0x0100\n      dup1\n      dup4\n      sload\n      div\n      mul\n      dup4\n      mstore\n      swap2\n      0x20\n      add\n      swap2\n      jump(tag_147)\n    tag_148:\n      dup3\n      add\n      swap2\n      swap1\n      0x00\n      mstore\n      keccak256(0x00, 0x20)\n      swap1\n    tag_149:\n      dup2\n      sload\n      dup2\n      mstore\n      swap1\n      0x01\n      add\n      swap1\n      0x20\n      add\n      dup1\n      dup4\n      gt\n      tag_149\n      jumpi\n      dup3\n      swap1\n      sub\n      0x1f\n      and\n      dup3\n      add\n      swap2\n    tag_147:\n      pop\n      pop\n      pop\n      pop\n      pop\n      dup2\n      mstore\n      0x20\n      add\n      0x08\n      dup3\n      add\n      dup1\n      sload\n      tag_150\n      swap1\n      tag_51\n      jump\t// in\n    tag_150:\n      dup1\n      0x1f\n      add\n      0x20\n      dup1\n      swap2\n      div\n      mul\n      0x20\n      add\n      mload(0x40)\n      swap1\n      dup2\n      add\n      0x40\n      mstore\n      dup1\n      swap3\n      swap2\n      swap1\n      dup2\n      dup2\n      mstore\n      0x20\n      add\n      dup3\n      dup1\n      sload\n      tag_151\n      swap1\n      tag_51\n      jump\t// in\n    tag_151:\n      dup1\n      iszero\n      tag_152\n      jumpi\n      dup1\n      0x1f\n      lt\n      tag_153\n      jumpi\n      0x0100\n      dup1\n      dup4\n      sload\n      div\n      mul\n      dup4\n      mstore\n      swap2\n      0x20\n      add\n      swap2\n      jump(tag_152)\n    tag_153:\n      dup3\n      add\n      swap2\n      swap1\n      0x00\n      mstore\n      keccak256(0x00, 0x20)\n      swap1\n    tag_154:\n      dup2\n      sload\n      dup2\n      mstore\n      swap1\n      0x01\n      add\n      swap1\n      0x20\n      add\n      dup1\n      dup4\n      gt\n      tag_154\n      jumpi\n      dup3\n      swap1\n      sub\n      0x1f\n      and\n      dup3\n      add\n      swap2\n    tag_152:\n      pop\n      pop\n      pop\n      pop\n      pop\n      dup2\n      mstore\n      0x20\n      add\n      0x09\n      dup3\n      add\n      dup1\n      sload\n      tag_155\n      swap1\n      tag_51\n      jump\t// in\n    tag_155:\n      dup1\n      0x1f\n      add\n      0x20\n      dup1\n      swap2\n      div\n      mul\n      0x20\n      add\n      mload(0x40)\n      swap1\n      dup2\n      add\n      0x40\n      mstore\n      dup1\n      swap3\n      swap2\n      swap1\n      dup2\n      dup2\n      mstore\n      0x20\n      add\n      dup3\n      dup1\n      sload\n      tag_156\n      swap1\n      tag_51\n      jump\t// in\n    tag_156:\n      dup1\n      iszero\n      tag_157\n      jumpi\n      dup1\n      0x1f\n      lt\n      tag_158\n      jumpi\n      0x0100\n      dup1\n      dup4\n      sload\n      div\n      mul\n      dup4\n      mstore\n      swap2\n      0x20\n      add\n      swap2\n      jump(tag_157)\n    tag_158:\n      dup3\n      add\n      swap2\n      swap1\n      0x00\n      mstore\n      keccak256(0x00, 0x20)\n      swap1\n    tag_159:\n      dup2\n      sload\n      dup2\n      mstore\n      swap1\n      0x01\n      add\n      swap1\n      0x20\n      add\n      dup1\n      dup4\n      gt\n      tag_159\n      jumpi\n      dup3\n      swap1\n      sub\n      0x1f\n      and\n      dup3\n      add\n      swap2\n    tag_157:\n      pop\n      pop\n      pop\n      pop\n      pop\n      dup2\n      mstore\n      0x20\n      add\n      0x0a\n      dup3\n      add\n      dup1\n      sload\n      tag_160\n      swap1\n      tag_51\n      jump\t// in\n    tag_160:\n      dup1\n      0x1f\n      add\n      0x20\n      dup1\n      swap2\n      div\n      mul\n      0x20\n      add\n      mload(0x40)\n      swap1\n      dup2\n      add\n      0x40\n      mstore\n      dup1\n      swap3\n      swap2\n      swap1\n      dup2\n      dup2\n      mstore\n      0x20\n      add\n      dup3\n      dup1\n      sload\n      tag_161\n      swap1\n      tag_51\n      jump\t// in\n    tag_161:\n      dup1\n      iszero\n      tag_162\n      jumpi\n      dup1\n      0x1f\n      lt\n      tag_163\n      jumpi\n      0x0100\n      dup1\n      dup4\n      sload\n      div\n      mul\n      dup4\n      mstore\n      swap2\n      0x20\n      add\n      swap2\n      jump(tag_162)\n    tag_163:\n      dup3\n      add\n      swap2\n      swap1\n      0x00\n      mstore\n      keccak256(0x00, 0x20)\n      swap1\n    tag_164:\n      dup2\n      sload\n      dup2\n      mstore\n      swap1\n      0x01\n      add\n      swap1\n      0x20\n      add\n      dup1\n      dup4\n      gt\n      tag_164\n      jumpi\n      dup3\n      swap1\n      sub\n      0x1f\n      and\n      dup3\n      add\n      swap2\n    tag_162:\n      pop\n      pop\n      pop\n      swap2\n      dup4\n      mstore\n      pop\n      pop\n      0x0b\n      dup3\n      add\n      sload\n      0x20\n      dup3\n      add\n      mstore\n      0x0c\n      dup3\n      add\n      sload\n      0xff\n      and\n      iszero\n      iszero\n      0x40\n      dup3\n      add\n      mstore\n      0x0d\n      dup3\n      add\n      dup1\n      sload\n      0x60\n      swap1\n      swap3\n      add\n      swap2\n      tag_165\n      swap1\n      tag_51\n      jump\t// in\n    tag_165:\n      dup1\n      0x1f\n      add\n      0x20\n      dup1\n      swap2\n      div\n      mul\n      0x20\n      add\n      mload(0x40)\n      swap1\n      dup2\n      add\n      0x40\n      mstore\n      dup1\n      swap3\n      swap2\n      swap1\n      dup2\n      dup2\n      mstore\n      0x20\n      add\n      dup3\n      dup1\n      sload\n      tag_166\n      swap1\n      tag_51\n      jump\t// in\n    tag_166:\n      dup1\n      iszero\n      tag_167\n      jumpi\n      dup1\n      0x1f\n      lt\n      tag_168\n      jumpi\n      0x0100\n      dup1\n      dup4\n      sload\n      div\n      mul\n      dup4\n      mstore\n      swap2\n      0x20\n      add\n      swap2\n      jump(tag_167)\n    tag_168:\n      dup3\n      add\n      swap2\n      swap1\n      0x00\n      mstore\n      keccak256(0x00, 0x20)\n      swap1\n    tag_169:\n      dup2\n      sload\n      dup2\n      mstore\n      swap1\n      0x01\n      add\n      swap1\n      0x20\n      add\n      dup1\n      dup4\n      gt\n      tag_169\n      jumpi\n      dup3\n      swap1\n      sub\n      0x1f\n      and\n      dup3\n      add\n      swap2\n    tag_167:\n      pop\n      pop\n      pop\n      pop\n      pop\n      dup2\n      mstore\n      0x20\n      add\n      0x0e\n      dup3\n      add\n      dup1\n      sload\n      tag_170\n      swap1\n      tag_51\n      jump\t// in\n    tag_170:\n      dup1\n      0x1f\n      add\n      0x20\n      dup1\n      swap2\n      div\n      mul\n      0x20\n      add\n      mload(0x40)\n      swap1\n      dup2\n      add\n      0x40\n      mstore\n      dup1\n      swap3\n      swap2\n      swap1\n      dup2\n      dup2\n      mstore\n      0x20\n      add\n      dup3\n      dup1\n      sload\n      tag_171\n      swap1\n      tag_51\n      jump\t// in\n    tag_171:\n      dup1\n      iszero\n      tag_172\n      jumpi\n      dup1\n      0x1f\n      lt\n      tag_173\n      jumpi\n      0x0100\n      dup1\n      dup4\n      sload\n      div\n      mul\n      dup4\n      mstore\n      swap2\n      0x20\n      add\n      swap2\n      jump(tag_172)\n    tag_173:\n      dup3\n      add\n      swap2\n      swap1\n      0x00\n      mstore\n      keccak256(0x00, 0x20)\n      swap1\n    tag_174:\n      dup2\n      sload\n      dup2\n      mstore\n      swap1\n      0x01\n      add\n      swap1\n      0x20\n      add\n      dup1\n      dup4\n      gt\n      tag_174\n      jumpi\n      dup3\n      swap1\n      sub\n      0x1f\n      and\n      dup3\n      add\n      swap2\n    tag_172:\n      pop\n      pop\n      pop\n      pop\n      pop\n      dup2\n      mstore\n      0x20\n      add\n      0x0f\n      dup3\n      add\n      dup1\n      sload\n      tag_175\n      swap1\n      tag_51\n      jump\t// in\n    tag_175:\n      dup1\n      0x1f\n      add\n      0x20\n      dup1\n      swap2\n      div\n      mul\n      0x20\n      add\n      mload(0x40)\n      swap1\n      dup2\n      add\n      0x40\n      mstore\n      dup1\n      swap3\n      swap2\n      swap1\n      dup2\n      dup2\n      mstore\n      0x20\n      add\n      dup3\n      dup1\n      sload\n      tag_176\n      swap1\n      tag_51\n      jump\t// in\n    tag_176:\n      dup1\n      iszero\n      tag_177\n      jumpi\n      dup1\n      0x1f\n      lt\n      tag_178\n      jumpi\n      0x0100\n      dup1\n      dup4\n      sload\n      div\n      mul\n      dup4\n      mstore\n      swap2\n      0x20\n      add\n      swap2\n      jump(tag_177)\n    tag_178:\n      dup3\n      add\n      swap2\n      swap1\n      0x00\n      mstore\n      keccak256(0x00, 0x20)\n      swap1\n    tag_179:\n      dup2\n      sload\n      dup2\n      mstore\n      swap1\n      0x01\n      add\n      swap1\n      0x20\n      add\n      dup1\n      dup4\n      gt\n      tag_179\n      jumpi\n      dup3\n      swap1\n      sub\n      0x1f\n      and\n      dup3\n      add\n      swap2\n    tag_177:\n      pop\n      pop\n      pop\n      pop\n      pop\n      dup2\n      mstore\n      0x20\n      add\n      0x10\n      dup3\n      add\n      dup1\n      sload\n      tag_180\n      swap1\n      tag_51\n      jump\t// in\n    tag_180:\n      dup1\n      0x1f\n      add\n      0x20\n      dup1\n      swap2\n      div\n      mul\n      0x20\n      add\n      mload(0x40)\n      swap1\n      dup2\n      add\n      0x40\n      mstore\n      dup1\n      swap3\n      swap2\n      swap1\n      dup2\n      dup2\n      mstore\n      0x20\n      add\n      dup3\n      dup1\n      sload\n      tag_181\n      swap1\n      tag_51\n      jump\t// in\n    tag_181:\n      dup1\n      iszero\n      tag_182\n      jumpi\n      dup1\n      0x1f\n      lt\n      tag_183\n      jumpi\n      0x0100\n      dup1\n      dup4\n      sload\n      div\n      mul\n      dup4\n      mstore\n      swap2\n      0x20\n      add\n      swap2\n      jump(tag_182)\n    tag_183:\n      dup3\n      add\n      swap2\n      swap1\n      0x00\n      mstore\n      keccak256(0x00, 0x20)\n      swap1\n    tag_184:\n      dup2\n      sload\n      dup2\n      mstore\n      swap1\n      0x01\n      add\n      swap1\n      0x20\n      add\n      dup1\n      dup4\n      gt\n      tag_184\n      jumpi\n      dup3\n      swap1\n      sub\n      0x1f\n      and\n      dup3\n      add\n      swap2\n    tag_182:\n      pop\n      pop\n      pop\n      swap2\n      swap1\n      swap3\n      mstore\n      pop\n      pop\n      pop\n      swap1\n      mstore\n      pop\n      swap3\n        /* \"contracts/manager/Candel_1s/Kandel_1s_Manager.sol\":1161:1330  function getKline(uint256 timestamp)... */\n      swap2\n      pop\n      pop\n      jump\t// out\n        /* \"contracts/manager/Candel_1s/Kandel_1s_Manager.sol\":1815:2606  function getKlineFrom(uint256 fromTimestamp)... */\n    tag_25:\n        /* \"contracts/manager/Candel_1s/Kandel_1s_Manager.sol\":1907:1929  KlineResponse[] memory */\n      0x60\n        /* \"contracts/manager/Candel_1s/Kandel_1s_Manager.sol\":1945:1958  uint256 count */\n      0x00\n        /* \"contracts/manager/Candel_1s/Kandel_1s_Manager.sol\":1994:2009  block.timestamp */\n      timestamp\n        /* \"contracts/manager/Candel_1s/Kandel_1s_Manager.sol\":1945:1958  uint256 count */\n      dup2\n        /* \"contracts/manager/Candel_1s/Kandel_1s_Manager.sol\":2019:2223  for (uint256 i = 0; i < timestampList.length; i++) {... */\n    tag_186:\n        /* \"contracts/manager/Candel_1s/Kandel_1s_Manager.sol\":2043:2056  timestampList */\n      0x01\n        /* \"contracts/manager/Candel_1s/Kandel_1s_Manager.sol\":2043:2063  timestampList.length */\n      sload\n        /* \"contracts/manager/Candel_1s/Kandel_1s_Manager.sol\":2039:2063  i < timestampList.length */\n      dup2\n      lt\n        /* \"contracts/manager/Candel_1s/Kandel_1s_Manager.sol\":2019:2223  for (uint256 i = 0; i < timestampList.length; i++) {... */\n      iszero\n      tag_187\n      jumpi\n        /* \"contracts/manager/Candel_1s/Kandel_1s_Manager.sol\":2084:2094  uint256 ts */\n      0x00\n        /* \"contracts/manager/Candel_1s/Kandel_1s_Manager.sol\":2097:2110  timestampList */\n      0x01\n        /* \"contracts/manager/Candel_1s/Kandel_1s_Manager.sol\":2111:2112  i */\n      dup3\n        /* \"contracts/manager/Candel_1s/Kandel_1s_Manager.sol\":2097:2113  timestampList[i] */\n      dup2\n      sload\n      dup2\n      lt\n      tag_190\n      jumpi\n      tag_190\n      tag_48\n      jump\t// in\n    tag_190:\n      swap1\n      0x00\n      mstore\n      keccak256(0x00, 0x20)\n      add\n      sload\n        /* \"contracts/manager/Candel_1s/Kandel_1s_Manager.sol\":2084:2113  uint256 ts = timestampList[i] */\n      swap1\n      pop\n        /* \"contracts/manager/Candel_1s/Kandel_1s_Manager.sol\":2137:2150  fromTimestamp */\n      dup6\n        /* \"contracts/manager/Candel_1s/Kandel_1s_Manager.sol\":2131:2133  ts */\n      dup2\n        /* \"contracts/manager/Candel_1s/Kandel_1s_Manager.sol\":2131:2150  ts >= fromTimestamp */\n      lt\n      iszero\n        /* \"contracts/manager/Candel_1s/Kandel_1s_Manager.sol\":2131:2171  ts >= fromTimestamp && ts <= currentTime */\n      dup1\n      iszero\n      tag_192\n      jumpi\n      pop\n        /* \"contracts/manager/Candel_1s/Kandel_1s_Manager.sol\":2160:2171  currentTime */\n      dup3\n        /* \"contracts/manager/Candel_1s/Kandel_1s_Manager.sol\":2154:2156  ts */\n      dup2\n        /* \"contracts/manager/Candel_1s/Kandel_1s_Manager.sol\":2154:2171  ts <= currentTime */\n      gt\n      iszero\n        /* \"contracts/manager/Candel_1s/Kandel_1s_Manager.sol\":2131:2171  ts >= fromTimestamp && ts <= currentTime */\n    tag_192:\n        /* \"contracts/manager/Candel_1s/Kandel_1s_Manager.sol\":2127:2213  if (ts >= fromTimestamp && ts <= currentTime) {... */\n      iszero\n      tag_193\n      jumpi\n        /* \"contracts/manager/Candel_1s/Kandel_1s_Manager.sol\":2191:2198  count++ */\n      dup4\n      tag_194\n      dup2\n      tag_195\n      jump\t// in\n    tag_194:\n      swap5\n      pop\n      pop\n        /* \"contracts/manager/Candel_1s/Kandel_1s_Manager.sol\":2127:2213  if (ts >= fromTimestamp && ts <= currentTime) {... */\n    tag_193:\n      pop\n        /* \"contracts/manager/Candel_1s/Kandel_1s_Manager.sol\":2065:2068  i++ */\n      0x01\n      add\n        /* \"contracts/manager/Candel_1s/Kandel_1s_Manager.sol\":2019:2223  for (uint256 i = 0; i < timestampList.length; i++) {... */\n      jump(tag_186)\n    tag_187:\n      pop\n        /* \"contracts/manager/Candel_1s/Kandel_1s_Manager.sol\":2232:2261  KlineResponse[] memory result */\n      0x00\n        /* \"contracts/manager/Candel_1s/Kandel_1s_Manager.sol\":2284:2289  count */\n      dup3\n      sub(shl(0x40, 0x01), 0x01)\n        /* \"contracts/manager/Candel_1s/Kandel_1s_Manager.sol\":2264:2290  new KlineResponse[](count) */\n      dup2\n      gt\n      iszero\n      tag_197\n      jumpi\n      tag_197\n      tag_38\n      jump\t// in\n    tag_197:\n      mload(0x40)\n      swap1\n      dup1\n      dup3\n      mstore\n      dup1\n      0x20\n      mul\n      0x20\n      add\n      dup3\n      add\n      0x40\n      mstore\n      dup1\n      iszero\n      tag_198\n      jumpi\n      dup2\n      0x20\n      add\n    tag_199:\n      tag_200\n      tag_42\n      jump\t// in\n    tag_200:\n      dup2\n      mstore\n      0x20\n      add\n      swap1\n      0x01\n      swap1\n      sub\n      swap1\n      dup2\n      tag_199\n      jumpi\n      swap1\n      pop\n    tag_198:\n      pop\n        /* \"contracts/manager/Candel_1s/Kandel_1s_Manager.sol\":2232:2290  KlineResponse[] memory result = new KlineResponse[](count) */\n      swap1\n      pop\n        /* \"contracts/manager/Candel_1s/Kandel_1s_Manager.sol\":2300:2313  uint256 index */\n      0x00\n      dup1\n        /* \"contracts/manager/Candel_1s/Kandel_1s_Manager.sol\":2328:2577  for (uint256 i = 0; i < timestampList.length; i++) {... */\n    tag_201:\n        /* \"contracts/manager/Candel_1s/Kandel_1s_Manager.sol\":2352:2365  timestampList */\n      0x01\n        /* \"contracts/manager/Candel_1s/Kandel_1s_Manager.sol\":2352:2372  timestampList.length */\n      sload\n        /* \"contracts/manager/Candel_1s/Kandel_1s_Manager.sol\":2348:2372  i < timestampList.length */\n      dup2\n      lt\n        /* \"contracts/manager/Candel_1s/Kandel_1s_Manager.sol\":2328:2577  for (uint256 i = 0; i < timestampList.length; i++) {... */\n      iszero\n      tag_202\n      jumpi\n        /* \"contracts/manager/Candel_1s/Kandel_1s_Manager.sol\":2393:2403  uint256 ts */\n      0x00\n        /* \"contracts/manager/Candel_1s/Kandel_1s_Manager.sol\":2406:2419  timestampList */\n      0x01\n        /* \"contracts/manager/Candel_1s/Kandel_1s_Manager.sol\":2420:2421  i */\n      dup3\n        /* \"contracts/manager/Candel_1s/Kandel_1s_Manager.sol\":2406:2422  timestampList[i] */\n      dup2\n      sload\n      dup2\n      lt\n      tag_205\n      jumpi\n      tag_205\n      tag_48\n      jump\t// in\n    tag_205:\n      swap1\n      0x00\n      mstore\n      keccak256(0x00, 0x20)\n      add\n      sload\n        /* \"contracts/manager/Candel_1s/Kandel_1s_Manager.sol\":2393:2422  uint256 ts = timestampList[i] */\n      swap1\n      pop\n        /* \"contracts/manager/Candel_1s/Kandel_1s_Manager.sol\":2446:2459  fromTimestamp */\n      dup8\n        /* \"contracts/manager/Candel_1s/Kandel_1s_Manager.sol\":2440:2442  ts */\n      dup2\n        /* \"contracts/manager/Candel_1s/Kandel_1s_Manager.sol\":2440:2459  ts >= fromTimestamp */\n      lt\n      iszero\n        /* \"contracts/manager/Candel_1s/Kandel_1s_Manager.sol\":2440:2480  ts >= fromTimestamp && ts <= currentTime */\n      dup1\n      iszero\n      tag_207\n      jumpi\n      pop\n        /* \"contracts/manager/Candel_1s/Kandel_1s_Manager.sol\":2469:2480  currentTime */\n      dup5\n        /* \"contracts/manager/Candel_1s/Kandel_1s_Manager.sol\":2463:2465  ts */\n      dup2\n        /* \"contracts/manager/Candel_1s/Kandel_1s_Manager.sol\":2463:2480  ts <= currentTime */\n      gt\n      iszero\n        /* \"contracts/manager/Candel_1s/Kandel_1s_Manager.sol\":2440:2480  ts >= fromTimestamp && ts <= currentTime */\n    tag_207:\n        /* \"contracts/manager/Candel_1s/Kandel_1s_Manager.sol\":2436:2567  if (ts >= fromTimestamp && ts <= currentTime) {... */\n      iszero\n      tag_208\n      jumpi\n        /* \"contracts/manager/Candel_1s/Kandel_1s_Manager.sol\":2516:2523  candles */\n      0x00\n        /* \"contracts/manager/Candel_1s/Kandel_1s_Manager.sol\":2516:2527  candles[ts] */\n      dup2\n      dup2\n      mstore\n      0x20\n      dup2\n      swap1\n      mstore\n      0x40\n      swap1\n      dup2\n      swap1\n      keccak256\n        /* \"contracts/manager/Candel_1s/Kandel_1s_Manager.sol\":2500:2527  result[index] = candles[ts] */\n      dup2\n      mload\n      0x80\n      dup2\n      add\n      swap1\n      swap3\n      mstore\n      dup1\n      sload\n      dup3\n      swap1\n        /* \"contracts/manager/Candel_1s/Kandel_1s_Manager.sol\":2516:2527  candles[ts] */\n      dup3\n      swap1\n        /* \"contracts/manager/Candel_1s/Kandel_1s_Manager.sol\":2500:2527  result[index] = candles[ts] */\n      tag_209\n      swap1\n      tag_51\n      jump\t// in\n    tag_209:\n      dup1\n      0x1f\n      add\n      0x20\n      dup1\n      swap2\n      div\n      mul\n      0x20\n      add\n      mload(0x40)\n      swap1\n      dup2\n      add\n      0x40\n      mstore\n      dup1\n      swap3\n      swap2\n      swap1\n      dup2\n      dup2\n      mstore\n      0x20\n      add\n      dup3\n      dup1\n      sload\n      tag_210\n      swap1\n      tag_51\n      jump\t// in\n    tag_210:\n      dup1\n      iszero\n      tag_211\n      jumpi\n      dup1\n      0x1f\n      lt\n      tag_212\n      jumpi\n      0x0100\n      dup1\n      dup4\n      sload\n      div\n      mul\n      dup4\n      mstore\n      swap2\n      0x20\n      add\n      swap2\n      jump(tag_211)\n    tag_212:\n      dup3\n      add\n      swap2\n      swap1\n      0x00\n      mstore\n      keccak256(0x00, 0x20)\n      swap1\n    tag_213:\n      dup2\n      sload\n      dup2\n      mstore\n      swap1\n      0x01\n      add\n      swap1\n      0x20\n      add\n      dup1\n      dup4\n      gt\n      tag_213\n      jumpi\n      dup3\n      swap1\n      sub\n      0x1f\n      and\n      dup3\n      add\n      swap2\n    tag_211:\n      pop\n      pop\n      pop\n      pop\n      pop\n      dup2\n      mstore\n      0x20\n      add\n      0x01\n      dup3\n      add\n      sload\n      dup2\n      mstore\n      0x20\n      add\n      0x02\n      dup3\n      add\n      dup1\n      sload\n      tag_214\n      swap1\n      tag_51\n      jump\t// in\n    tag_214:\n      dup1\n      0x1f\n      add\n      0x20\n      dup1\n      swap2\n      div\n      mul\n      0x20\n      add\n      mload(0x40)\n      swap1\n      dup2\n      add\n      0x40\n      mstore\n      dup1\n      swap3\n      swap2\n      swap1\n      dup2\n      dup2\n      mstore\n      0x20\n      add\n      dup3\n      dup1\n      sload\n      tag_215\n      swap1\n      tag_51\n      jump\t// in\n    tag_215:\n      dup1\n      iszero\n      tag_216\n      jumpi\n      dup1\n      0x1f\n      lt\n      tag_217\n      jumpi\n      0x0100\n      dup1\n      dup4\n      sload\n      div\n      mul\n      dup4\n      mstore\n      swap2\n      0x20\n      add\n      swap2\n      jump(tag_216)\n    tag_217:\n      dup3\n      add\n      swap2\n      swap1\n      0x00\n      mstore\n      keccak256(0x00, 0x20)\n      swap1\n    tag_218:\n      dup2\n      sload\n      dup2\n      mstore\n      swap1\n      0x01\n      add\n      swap1\n      0x20\n      add\n      dup1\n      dup4\n      gt\n      tag_218\n      jumpi\n      dup3\n      swap1\n      sub\n      0x1f\n      and\n      dup3\n      add\n      swap2\n    tag_216:\n      pop\n      pop\n      pop\n      pop\n      pop\n      dup2\n      mstore\n      0x20\n      add\n      0x03\n      dup3\n      add\n      mload(0x40)\n      dup1\n      0x0220\n      add\n      0x40\n      mstore\n      swap1\n      dup2\n      0x00\n      dup3\n      add\n      sload\n      dup2\n      mstore\n      0x20\n      add\n      0x01\n      dup3\n      add\n      sload\n      dup2\n      mstore\n      0x20\n      add\n      0x02\n      dup3\n      add\n      dup1\n      sload\n      tag_219\n      swap1\n      tag_51\n      jump\t// in\n    tag_219:\n      dup1\n      0x1f\n      add\n      0x20\n      dup1\n      swap2\n      div\n      mul\n      0x20\n      add\n      mload(0x40)\n      swap1\n      dup2\n      add\n      0x40\n      mstore\n      dup1\n      swap3\n      swap2\n      swap1\n      dup2\n      dup2\n      mstore\n      0x20\n      add\n      dup3\n      dup1\n      sload\n      tag_220\n      swap1\n      tag_51\n      jump\t// in\n    tag_220:\n      dup1\n      iszero\n      tag_221\n      jumpi\n      dup1\n      0x1f\n      lt\n      tag_222\n      jumpi\n      0x0100\n      dup1\n      dup4\n      sload\n      div\n      mul\n      dup4\n      mstore\n      swap2\n      0x20\n      add\n      swap2\n      jump(tag_221)\n    tag_222:\n      dup3\n      add\n      swap2\n      swap1\n      0x00\n      mstore\n      keccak256(0x00, 0x20)\n      swap1\n    tag_223:\n      dup2\n      sload\n      dup2\n      mstore\n      swap1\n      0x01\n      add\n      swap1\n      0x20\n      add\n      dup1\n      dup4\n      gt\n      tag_223\n      jumpi\n      dup3\n      swap1\n      sub\n      0x1f\n      and\n      dup3\n      add\n      swap2\n    tag_221:\n      pop\n      pop\n      pop\n      pop\n      pop\n      dup2\n      mstore\n      0x20\n      add\n      0x03\n      dup3\n      add\n      dup1\n      sload\n      tag_224\n      swap1\n      tag_51\n      jump\t// in\n    tag_224:\n      dup1\n      0x1f\n      add\n      0x20\n      dup1\n      swap2\n      div\n      mul\n      0x20\n      add\n      mload(0x40)\n      swap1\n      dup2\n      add\n      0x40\n      mstore\n      dup1\n      swap3\n      swap2\n      swap1\n      dup2\n      dup2\n      mstore\n      0x20\n      add\n      dup3\n      dup1\n      sload\n      tag_225\n      swap1\n      tag_51\n      jump\t// in\n    tag_225:\n      dup1\n      iszero\n      tag_226\n      jumpi\n      dup1\n      0x1f\n      lt\n      tag_227\n      jumpi\n      0x0100\n      dup1\n      dup4\n      sload\n      div\n      mul\n      dup4\n      mstore\n      swap2\n      0x20\n      add\n      swap2\n      jump(tag_226)\n    tag_227:\n      dup3\n      add\n      swap2\n      swap1\n      0x00\n      mstore\n      keccak256(0x00, 0x20)\n      swap1\n    tag_228:\n      dup2\n      sload\n      dup2\n      mstore\n      swap1\n      0x01\n      add\n      swap1\n      0x20\n      add\n      dup1\n      dup4\n      gt\n      tag_228\n      jumpi\n      dup3\n      swap1\n      sub\n      0x1f\n      and\n      dup3\n      add\n      swap2\n    tag_226:\n      pop\n      pop\n      pop\n      pop\n      pop\n      dup2\n      mstore\n      0x20\n      add\n      0x04\n      dup3\n      add\n      sload\n      dup2\n      mstore\n      0x20\n      add\n      0x05\n      dup3\n      add\n      sload\n      dup2\n      mstore\n      0x20\n      add\n      0x06\n      dup3\n      add\n      dup1\n      sload\n      tag_229\n      swap1\n      tag_51\n      jump\t// in\n    tag_229:\n      dup1\n      0x1f\n      add\n      0x20\n      dup1\n      swap2\n      div\n      mul\n      0x20\n      add\n      mload(0x40)\n      swap1\n      dup2\n      add\n      0x40\n      mstore\n      dup1\n      swap3\n      swap2\n      swap1\n      dup2\n      dup2\n      mstore\n      0x20\n      add\n      dup3\n      dup1\n      sload\n      tag_230\n      swap1\n      tag_51\n      jump\t// in\n    tag_230:\n      dup1\n      iszero\n      tag_231\n      jumpi\n      dup1\n      0x1f\n      lt\n      tag_232\n      jumpi\n      0x0100\n      dup1\n      dup4\n      sload\n      div\n      mul\n      dup4\n      mstore\n      swap2\n      0x20\n      add\n      swap2\n      jump(tag_231)\n    tag_232:\n      dup3\n      add\n      swap2\n      swap1\n      0x00\n      mstore\n      keccak256(0x00, 0x20)\n      swap1\n    tag_233:\n      dup2\n      sload\n      dup2\n      mstore\n      swap1\n      0x01\n      add\n      swap1\n      0x20\n      add\n      dup1\n      dup4\n      gt\n      tag_233\n      jumpi\n      dup3\n      swap1\n      sub\n      0x1f\n      and\n      dup3\n      add\n      swap2\n    tag_231:\n      pop\n      pop\n      pop\n      pop\n      pop\n      dup2\n      mstore\n      0x20\n      add\n      0x07\n      dup3\n      add\n      dup1\n      sload\n      tag_234\n      swap1\n      tag_51\n      jump\t// in\n    tag_234:\n      dup1\n      0x1f\n      add\n      0x20\n      dup1\n      swap2\n      div\n      mul\n      0x20\n      add\n      mload(0x40)\n      swap1\n      dup2\n      add\n      0x40\n      mstore\n      dup1\n      swap3\n      swap2\n      swap1\n      dup2\n      dup2\n      mstore\n      0x20\n      add\n      dup3\n      dup1\n      sload\n      tag_235\n      swap1\n      tag_51\n      jump\t// in\n    tag_235:\n      dup1\n      iszero\n      tag_236\n      jumpi\n      dup1\n      0x1f\n      lt\n      tag_237\n      jumpi\n      0x0100\n      dup1\n      dup4\n      sload\n      div\n      mul\n      dup4\n      mstore\n      swap2\n      0x20\n      add\n      swap2\n      jump(tag_236)\n    tag_237:\n      dup3\n      add\n      swap2\n      swap1\n      0x00\n      mstore\n      keccak256(0x00, 0x20)\n      swap1\n    tag_238:\n      dup2\n      sload\n      dup2\n      mstore\n      swap1\n      0x01\n      add\n      swap1\n      0x20\n      add\n      dup1\n      dup4\n      gt\n      tag_238\n      jumpi\n      dup3\n      swap1\n      sub\n      0x1f\n      and\n      dup3\n      add\n      swap2\n    tag_236:\n      pop\n      pop\n      pop\n      pop\n      pop\n      dup2\n      mstore\n      0x20\n      add\n      0x08\n      dup3\n      add\n      dup1\n      sload\n      tag_239\n      swap1\n      tag_51\n      jump\t// in\n    tag_239:\n      dup1\n      0x1f\n      add\n      0x20\n      dup1\n      swap2\n      div\n      mul\n      0x20\n      add\n      mload(0x40)\n      swap1\n      dup2\n      add\n      0x40\n      mstore\n      dup1\n      swap3\n      swap2\n      swap1\n      dup2\n      dup2\n      mstore\n      0x20\n      add\n      dup3\n      dup1\n      sload\n      tag_240\n      swap1\n      tag_51\n      jump\t// in\n    tag_240:\n      dup1\n      iszero\n      tag_241\n      jumpi\n      dup1\n      0x1f\n      lt\n      tag_242\n      jumpi\n      0x0100\n      dup1\n      dup4\n      sload\n      div\n      mul\n      dup4\n      mstore\n      swap2\n      0x20\n      add\n      swap2\n      jump(tag_241)\n    tag_242:\n      dup3\n      add\n      swap2\n      swap1\n      0x00\n      mstore\n      keccak256(0x00, 0x20)\n      swap1\n    tag_243:\n      dup2\n      sload\n      dup2\n      mstore\n      swap1\n      0x01\n      add\n      swap1\n      0x20\n      add\n      dup1\n      dup4\n      gt\n      tag_243\n      jumpi\n      dup3\n      swap1\n      sub\n      0x1f\n      and\n      dup3\n      add\n      swap2\n    tag_241:\n      pop\n      pop\n      pop\n      pop\n      pop\n      dup2\n      mstore\n      0x20\n      add\n      0x09\n      dup3\n      add\n      dup1\n      sload\n      tag_244\n      swap1\n      tag_51\n      jump\t// in\n    tag_244:\n      dup1\n      0x1f\n      add\n      0x20\n      dup1\n      swap2\n      div\n      mul\n      0x20\n      add\n      mload(0x40)\n      swap1\n      dup2\n      add\n      0x40\n      mstore\n      dup1\n      swap3\n      swap2\n      swap1\n      dup2\n      dup2\n      mstore\n      0x20\n      add\n      dup3\n      dup1\n      sload\n      tag_245\n      swap1\n      tag_51\n      jump\t// in\n    tag_245:\n      dup1\n      iszero\n      tag_246\n      jumpi\n      dup1\n      0x1f\n      lt\n      tag_247\n      jumpi\n      0x0100\n      dup1\n      dup4\n      sload\n      div\n      mul\n      dup4\n      mstore\n      swap2\n      0x20\n      add\n      swap2\n      jump(tag_246)\n    tag_247:\n      dup3\n      add\n      swap2\n      swap1\n      0x00\n      mstore\n      keccak256(0x00, 0x20)\n      swap1\n    tag_248:\n      dup2\n      sload\n      dup2\n      mstore\n      swap1\n      0x01\n      add\n      swap1\n      0x20\n      add\n      dup1\n      dup4\n      gt\n      tag_248\n      jumpi\n      dup3\n      swap1\n      sub\n      0x1f\n      and\n      dup3\n      add\n      swap2\n    tag_246:\n      pop\n      pop\n      pop\n      pop\n      pop\n      dup2\n      mstore\n      0x20\n      add\n      0x0a\n      dup3\n      add\n      dup1\n      sload\n      tag_249\n      swap1\n      tag_51\n      jump\t// in\n    tag_249:\n      dup1\n      0x1f\n      add\n      0x20\n      dup1\n      swap2\n      div\n      mul\n      0x20\n      add\n      mload(0x40)\n      swap1\n      dup2\n      add\n      0x40\n      mstore\n      dup1\n      swap3\n      swap2\n      swap1\n      dup2\n      dup2\n      mstore\n      0x20\n      add\n      dup3\n      dup1\n      sload\n      tag_250\n      swap1\n      tag_51\n      jump\t// in\n    tag_250:\n      dup1\n      iszero\n      tag_251\n      jumpi\n      dup1\n      0x1f\n      lt\n      tag_252\n      jumpi\n      0x0100\n      dup1\n      dup4\n      sload\n      div\n      mul\n      dup4\n      mstore\n      swap2\n      0x20\n      add\n      swap2\n      jump(tag_251)\n    tag_252:\n      dup3\n      add\n      swap2\n      swap1\n      0x00\n      mstore\n      keccak256(0x00, 0x20)\n      swap1\n    tag_253:\n      dup2\n      sload\n      dup2\n      mstore\n      swap1\n      0x01\n      add\n      swap1\n      0x20\n      add\n      dup1\n      dup4\n      gt\n      tag_253\n      jumpi\n      dup3\n      swap1\n      sub\n      0x1f\n      and\n      dup3\n      add\n      swap2\n    tag_251:\n      pop\n      pop\n      pop\n      swap2\n      dup4\n      mstore\n      pop\n      pop\n      0x0b\n      dup3\n      add\n      sload\n      0x20\n      dup3\n      add\n      mstore\n      0x0c\n      dup3\n      add\n      sload\n      0xff\n      and\n      iszero\n      iszero\n      0x40\n      dup3\n      add\n      mstore\n      0x0d\n      dup3\n      add\n      dup1\n      sload\n      0x60\n      swap1\n      swap3\n      add\n      swap2\n      tag_254\n      swap1\n      tag_51\n      jump\t// in\n    tag_254:\n      dup1\n      0x1f\n      add\n      0x20\n      dup1\n      swap2\n      div\n      mul\n      0x20\n      add\n      mload(0x40)\n      swap1\n      dup2\n      add\n      0x40\n      mstore\n      dup1\n      swap3\n      swap2\n      swap1\n      dup2\n      dup2\n      mstore\n      0x20\n      add\n      dup3\n      dup1\n      sload\n      tag_255\n      swap1\n      tag_51\n      jump\t// in\n    tag_255:\n      dup1\n      iszero\n      tag_256\n      jumpi\n      dup1\n      0x1f\n      lt\n      tag_257\n      jumpi\n      0x0100\n      dup1\n      dup4\n      sload\n      div\n      mul\n      dup4\n      mstore\n      swap2\n      0x20\n      add\n      swap2\n      jump(tag_256)\n    tag_257:\n      dup3\n      add\n      swap2\n      swap1\n      0x00\n      mstore\n      keccak256(0x00, 0x20)\n      swap1\n    tag_258:\n      dup2\n      sload\n      dup2\n      mstore\n      swap1\n      0x01\n      add\n      swap1\n      0x20\n      add\n      dup1\n      dup4\n      gt\n      tag_258\n      jumpi\n      dup3\n      swap1\n      sub\n      0x1f\n      and\n      dup3\n      add\n      swap2\n    tag_256:\n      pop\n      pop\n      pop\n      pop\n      pop\n      dup2\n      mstore\n      0x20\n      add\n      0x0e\n      dup3\n      add\n      dup1\n      sload\n      tag_259\n      swap1\n      tag_51\n      jump\t// in\n    tag_259:\n      dup1\n      0x1f\n      add\n      0x20\n      dup1\n      swap2\n      div\n      mul\n      0x20\n      add\n      mload(0x40)\n      swap1\n      dup2\n      add\n      0x40\n      mstore\n      dup1\n      swap3\n      swap2\n      swap1\n      dup2\n      dup2\n      mstore\n      0x20\n      add\n      dup3\n      dup1\n      sload\n      tag_260\n      swap1\n      tag_51\n      jump\t// in\n    tag_260:\n      dup1\n      iszero\n      tag_261\n      jumpi\n      dup1\n      0x1f\n      lt\n      tag_262\n      jumpi\n      0x0100\n      dup1\n      dup4\n      sload\n      div\n      mul\n      dup4\n      mstore\n      swap2\n      0x20\n      add\n      swap2\n      jump(tag_261)\n    tag_262:\n      dup3\n      add\n      swap2\n      swap1\n      0x00\n      mstore\n      keccak256(0x00, 0x20)\n      swap1\n    tag_263:\n      dup2\n      sload\n      dup2\n      mstore\n      swap1\n      0x01\n      add\n      swap1\n      0x20\n      add\n      dup1\n      dup4\n      gt\n      tag_263\n      jumpi\n      dup3\n      swap1\n      sub\n      0x1f\n      and\n      dup3\n      add\n      swap2\n    tag_261:\n      pop\n      pop\n      pop\n      pop\n      pop\n      dup2\n      mstore\n      0x20\n      add\n      0x0f\n      dup3\n      add\n      dup1\n      sload\n      tag_264\n      swap1\n      tag_51\n      jump\t// in\n    tag_264:\n      dup1\n      0x1f\n      add\n      0x20\n      dup1\n      swap2\n      div\n      mul\n      0x20\n      add\n      mload(0x40)\n      swap1\n      dup2\n      add\n      0x40\n      mstore\n      dup1\n      swap3\n      swap2\n      swap1\n      dup2\n      dup2\n      mstore\n      0x20\n      add\n      dup3\n      dup1\n      sload\n      tag_265\n      swap1\n      tag_51\n      jump\t// in\n    tag_265:\n      dup1\n      iszero\n      tag_266\n      jumpi\n      dup1\n      0x1f\n      lt\n      tag_267\n      jumpi\n      0x0100\n      dup1\n      dup4\n      sload\n      div\n      mul\n      dup4\n      mstore\n      swap2\n      0x20\n      add\n      swap2\n      jump(tag_266)\n    tag_267:\n      dup3\n      add\n      swap2\n      swap1\n      0x00\n      mstore\n      keccak256(0x00, 0x20)\n      swap1\n    tag_268:\n      dup2\n      sload\n      dup2\n      mstore\n      swap1\n      0x01\n      add\n      swap1\n      0x20\n      add\n      dup1\n      dup4\n      gt\n      tag_268\n      jumpi\n      dup3\n      swap1\n      sub\n      0x1f\n      and\n      dup3\n      add\n      swap2\n    tag_266:\n      pop\n      pop\n      pop\n      pop\n      pop\n      dup2\n      mstore\n      0x20\n      add\n      0x10\n      dup3\n      add\n      dup1\n      sload\n      tag_269\n      swap1\n      tag_51\n      jump\t// in\n    tag_269:\n      dup1\n      0x1f\n      add\n      0x20\n      dup1\n      swap2\n      div\n      mul\n      0x20\n      add\n      mload(0x40)\n      swap1\n      dup2\n      add\n      0x40\n      mstore\n      dup1\n      swap3\n      swap2\n      swap1\n      dup2\n      dup2\n      mstore\n      0x20\n      add\n      dup3\n      dup1\n      sload\n      tag_270\n      swap1\n      tag_51\n      jump\t// in\n    tag_270:\n      dup1\n      iszero\n      tag_271\n      jumpi\n      dup1\n      0x1f\n      lt\n      tag_272\n      jumpi\n      0x0100\n      dup1\n      dup4\n      sload\n      div\n      mul\n      dup4\n      mstore\n      swap2\n      0x20\n      add\n      swap2\n      jump(tag_271)\n    tag_272:\n      dup3\n      add\n      swap2\n      swap1\n      0x00\n      mstore\n      keccak256(0x00, 0x20)\n      swap1\n    tag_273:\n      dup2\n      sload\n      dup2\n      mstore\n      swap1\n      0x01\n      add\n      swap1\n      0x20\n      add\n      dup1\n      dup4\n      gt\n      tag_273\n      jumpi\n      dup3\n      swap1\n      sub\n      0x1f\n      and\n      dup3\n      add\n      swap2\n    tag_271:\n      pop\n      pop\n      pop\n      pop\n      pop\n      dup2\n      mstore\n      pop\n      pop\n      dup2\n      mstore\n      pop\n      pop\n        /* \"contracts/manager/Candel_1s/Kandel_1s_Manager.sol\":2500:2506  result */\n      dup5\n        /* \"contracts/manager/Candel_1s/Kandel_1s_Manager.sol\":2507:2512  index */\n      dup5\n        /* \"contracts/manager/Candel_1s/Kandel_1s_Manager.sol\":2500:2513  result[index] */\n      dup2\n      mload\n      dup2\n      lt\n      tag_275\n      jumpi\n      tag_275\n      tag_48\n      jump\t// in\n    tag_275:\n      0x20\n      mul\n      0x20\n      add\n      add\n        /* \"contracts/manager/Candel_1s/Kandel_1s_Manager.sol\":2500:2527  result[index] = candles[ts] */\n      dup2\n      swap1\n      mstore\n      pop\n        /* \"contracts/manager/Candel_1s/Kandel_1s_Manager.sol\":2545:2552  index++ */\n      dup3\n      dup1\n      tag_276\n      swap1\n      tag_195\n      jump\t// in\n    tag_276:\n      swap4\n      pop\n      pop\n        /* \"contracts/manager/Candel_1s/Kandel_1s_Manager.sol\":2436:2567  if (ts >= fromTimestamp && ts <= currentTime) {... */\n    tag_208:\n      pop\n        /* \"contracts/manager/Candel_1s/Kandel_1s_Manager.sol\":2374:2377  i++ */\n      0x01\n      add\n        /* \"contracts/manager/Candel_1s/Kandel_1s_Manager.sol\":2328:2577  for (uint256 i = 0; i < timestampList.length; i++) {... */\n      jump(tag_201)\n    tag_202:\n      pop\n        /* \"contracts/manager/Candel_1s/Kandel_1s_Manager.sol\":2593:2599  result */\n      swap1\n      swap6\n        /* \"contracts/manager/Candel_1s/Kandel_1s_Manager.sol\":1815:2606  function getKlineFrom(uint256 fromTimestamp)... */\n      swap5\n      pop\n      pop\n      pop\n      pop\n      pop\n      jump\t// out\n        /* \"contracts/manager/Candel_1s/Kandel_1s_Manager.sol\":406:1155  function recordKline(KlineRecord calldata kline) external override {... */\n    tag_34:\n        /* \"contracts/manager/Candel_1s/Kandel_1s_Manager.sol\":536:547  INTERVAL_1S */\n      0x40\n      dup1\n      mload\n      dup1\n      dup3\n      add\n      swap1\n      swap2\n      mstore\n      0x02\n      dup2\n      mstore\n      shl(0xf0, 0x3173)\n      0x20\n      swap1\n      swap2\n      add\n      mstore\n        /* \"contracts/manager/Candel_1s/Kandel_1s_Manager.sol\":520:549  keccak256(bytes(INTERVAL_1S)) */\n      0x6c9308eeeb72aac61c6ee2086645ec6cf6638d86d97af7b81bcf4073f3b95dbc\n        /* \"contracts/manager/Candel_1s/Kandel_1s_Manager.sol\":507:514  kline.i */\n      tag_279\n      0x60\n      dup4\n      add\n        /* \"contracts/manager/Candel_1s/Kandel_1s_Manager.sol\":507:512  kline */\n      dup4\n        /* \"contracts/manager/Candel_1s/Kandel_1s_Manager.sol\":507:514  kline.i */\n      tag_280\n      jump\t// in\n    tag_279:\n        /* \"contracts/manager/Candel_1s/Kandel_1s_Manager.sol\":491:516  keccak256(bytes(kline.i)) */\n      mload(0x40)\n      tag_281\n      swap3\n      swap2\n      swap1\n      tag_282\n      jump\t// in\n    tag_281:\n      mload(0x40)\n      dup1\n      swap2\n      sub\n      swap1\n      keccak256\n        /* \"contracts/manager/Candel_1s/Kandel_1s_Manager.sol\":491:549  keccak256(bytes(kline.i)) == keccak256(bytes(INTERVAL_1S)) */\n      eq\n        /* \"contracts/manager/Candel_1s/Kandel_1s_Manager.sol\":483:573  require(keccak256(bytes(kline.i)) == keccak256(bytes(INTERVAL_1S)), \"Interval must be 1s\") */\n      tag_283\n      jumpi\n      mload(0x40)\n      shl(0xe5, 0x461bcd)\n      dup2\n      mstore\n        /* \"#utility.yul\":7468:7470   */\n      0x20\n        /* \"contracts/manager/Candel_1s/Kandel_1s_Manager.sol\":483:573  require(keccak256(bytes(kline.i)) == keccak256(bytes(INTERVAL_1S)), \"Interval must be 1s\") */\n      0x04\n      dup3\n      add\n        /* \"#utility.yul\":7450:7471   */\n      mstore\n        /* \"#utility.yul\":7507:7509   */\n      0x13\n        /* \"#utility.yul\":7487:7505   */\n      0x24\n      dup3\n      add\n        /* \"#utility.yul\":7480:7510   */\n      mstore\n      shl(0x68, 0x496e74657276616c206d757374206265203173)\n        /* \"#utility.yul\":7526:7544   */\n      0x44\n      dup3\n      add\n        /* \"#utility.yul\":7519:7568   */\n      mstore\n        /* \"#utility.yul\":7585:7603   */\n      0x64\n      add\n        /* \"contracts/manager/Candel_1s/Kandel_1s_Manager.sol\":483:573  require(keccak256(bytes(kline.i)) == keccak256(bytes(INTERVAL_1S)), \"Interval must be 1s\") */\n      mload(0x40)\n      dup1\n      swap2\n      sub\n      swap1\n      revert\n    tag_283:\n        /* \"contracts/manager/Candel_1s/Kandel_1s_Manager.sol\":765:952  KlineResponse({... */\n      0x40\n      dup1\n      mload\n      0xc0\n      dup2\n      add\n      dup3\n      mstore\n      0x05\n      0x80\n      dup3\n      add\n      swap1\n      dup2\n      mstore\n      shl(0xd8, 0x6b6c696e65)\n      0xa0\n      dup4\n      add\n      mstore\n      dup2\n      mstore\n        /* \"contracts/manager/Candel_1s/Kandel_1s_Manager.sol\":703:718  block.timestamp */\n      timestamp\n        /* \"contracts/manager/Candel_1s/Kandel_1s_Manager.sol\":765:952  KlineResponse({... */\n      0x20\n      dup3\n      add\n      dup2\n      swap1\n      mstore\n        /* \"contracts/manager/Candel_1s/Kandel_1s_Manager.sol\":603:610  kline.t */\n      dup4\n      calldataload\n      swap3\n        /* \"contracts/manager/Candel_1s/Kandel_1s_Manager.sol\":703:718  block.timestamp */\n      swap1\n      swap2\n        /* \"contracts/manager/Candel_1s/Kandel_1s_Manager.sol\":583:600  uint256 timestamp */\n      0x00\n      swap2\n        /* \"contracts/manager/Candel_1s/Kandel_1s_Manager.sol\":765:952  KlineResponse({... */\n      dup2\n      dup2\n      add\n      swap1\n        /* \"contracts/manager/Candel_1s/Kandel_1s_Manager.sol\":902:909  kline.s */\n      tag_286\n      swap1\n      dup8\n      add\n        /* \"contracts/manager/Candel_1s/Kandel_1s_Manager.sol\":603:608  kline */\n      dup8\n        /* \"contracts/manager/Candel_1s/Kandel_1s_Manager.sol\":902:909  kline.s */\n      tag_280\n      jump\t// in\n    tag_286:\n        /* \"contracts/manager/Candel_1s/Kandel_1s_Manager.sol\":765:952  KlineResponse({... */\n      dup1\n      dup1\n      0x1f\n      add\n      0x20\n      dup1\n      swap2\n      div\n      mul\n      0x20\n      add\n      mload(0x40)\n      swap1\n      dup2\n      add\n      0x40\n      mstore\n      dup1\n      swap4\n      swap3\n      swap2\n      swap1\n      dup2\n      dup2\n      mstore\n      0x20\n      add\n      dup4\n      dup4\n      dup1\n      dup3\n      dup5\n      calldatacopy\n      0x00\n      swap3\n      add\n      swap2\n      swap1\n      swap2\n      mstore\n      pop\n      pop\n      pop\n      swap1\n      dup3\n      mstore\n      pop\n      0x20\n      add\n      tag_287\n        /* \"contracts/manager/Candel_1s/Kandel_1s_Manager.sol\":936:941  kline */\n      dup7\n        /* \"contracts/manager/Candel_1s/Kandel_1s_Manager.sol\":765:952  KlineResponse({... */\n      tag_288\n      jump\t// in\n    tag_287:\n      swap1\n      mstore\n        /* \"contracts/manager/Candel_1s/Kandel_1s_Manager.sol\":963:970  candles */\n      0x00\n        /* \"contracts/manager/Candel_1s/Kandel_1s_Manager.sol\":963:983  candles[currentTime] */\n      dup4\n      dup2\n      mstore\n      0x20\n      dup2\n      swap1\n      mstore\n      0x40\n      swap1\n      keccak256\n        /* \"contracts/manager/Candel_1s/Kandel_1s_Manager.sol\":963:999  candles[currentTime] = klineResponse */\n      dup2\n      mload\n        /* \"contracts/manager/Candel_1s/Kandel_1s_Manager.sol\":728:952  KlineResponse memory klineResponse = KlineResponse({... */\n      swap2\n      swap3\n      pop\n      dup3\n      swap2\n        /* \"contracts/manager/Candel_1s/Kandel_1s_Manager.sol\":963:983  candles[currentTime] */\n      dup2\n      swap1\n        /* \"contracts/manager/Candel_1s/Kandel_1s_Manager.sol\":963:999  candles[currentTime] = klineResponse */\n      tag_289\n      swap1\n        /* \"contracts/manager/Candel_1s/Kandel_1s_Manager.sol\":963:983  candles[currentTime] */\n      dup3\n        /* \"contracts/manager/Candel_1s/Kandel_1s_Manager.sol\":963:999  candles[currentTime] = klineResponse */\n      tag_290\n      jump\t// in\n    tag_289:\n      pop\n      0x20\n      dup3\n      add\n      mload\n      0x01\n      dup3\n      add\n      sstore\n      0x40\n      dup3\n      add\n      mload\n      0x02\n      dup3\n      add\n      swap1\n      tag_291\n      swap1\n      dup3\n      tag_290\n      jump\t// in\n    tag_291:\n      pop\n      0x60\n      dup3\n      add\n      mload\n      dup1\n      mload\n      0x03\n      dup4\n      add\n      swap1\n      dup2\n      sstore\n      0x20\n      dup3\n      add\n      mload\n      0x04\n      dup5\n      add\n      sstore\n      0x40\n      dup3\n      add\n      mload\n      0x05\n      dup5\n      add\n      swap1\n      tag_292\n      swap1\n      dup3\n      tag_290\n      jump\t// in\n    tag_292:\n      pop\n      0x60\n      dup3\n      add\n      mload\n      0x03\n      dup3\n      add\n      swap1\n      tag_293\n      swap1\n      dup3\n      tag_290\n      jump\t// in\n    tag_293:\n      pop\n      0x80\n      dup3\n      add\n      mload\n      0x04\n      dup3\n      add\n      sstore\n      0xa0\n      dup3\n      add\n      mload\n      0x05\n      dup3\n      add\n      sstore\n      0xc0\n      dup3\n      add\n      mload\n      0x06\n      dup3\n      add\n      swap1\n      tag_294\n      swap1\n      dup3\n      tag_290\n      jump\t// in\n    tag_294:\n      pop\n      0xe0\n      dup3\n      add\n      mload\n      0x07\n      dup3\n      add\n      swap1\n      tag_295\n      swap1\n      dup3\n      tag_290\n      jump\t// in\n    tag_295:\n      pop\n      0x0100\n      dup3\n      add\n      mload\n      0x08\n      dup3\n      add\n      swap1\n      tag_296\n      swap1\n      dup3\n      tag_290\n      jump\t// in\n    tag_296:\n      pop\n      0x0120\n      dup3\n      add\n      mload\n      0x09\n      dup3\n      add\n      swap1\n      tag_297\n      swap1\n      dup3\n      tag_290\n      jump\t// in\n    tag_297:\n      pop\n      0x0140\n      dup3\n      add\n      mload\n      0x0a\n      dup3\n      add\n      swap1\n      tag_298\n      swap1\n      dup3\n      tag_290\n      jump\t// in\n    tag_298:\n      pop\n      0x0160\n      dup3\n      add\n      mload\n      0x0b\n      dup3\n      add\n      sstore\n      0x0180\n      dup3\n      add\n      mload\n      0x0c\n      dup3\n      add\n      dup1\n      sload\n      not(0xff)\n      and\n      swap2\n      iszero\n      iszero\n      swap2\n      swap1\n      swap2\n      or\n      swap1\n      sstore\n      0x01a0\n      dup3\n      add\n      mload\n      0x0d\n      dup3\n      add\n      swap1\n      tag_299\n      swap1\n      dup3\n      tag_290\n      jump\t// in\n    tag_299:\n      pop\n      0x01c0\n      dup3\n      add\n      mload\n      0x0e\n      dup3\n      add\n      swap1\n      tag_300\n      swap1\n      dup3\n      tag_290\n      jump\t// in\n    tag_300:\n      pop\n      0x01e0\n      dup3\n      add\n      mload\n      0x0f\n      dup3\n      add\n      swap1\n      tag_301\n      swap1\n      dup3\n      tag_290\n      jump\t// in\n    tag_301:\n      pop\n      0x0200\n      dup3\n      add\n      mload\n      0x10\n      dup3\n      add\n      swap1\n      tag_302\n      swap1\n      dup3\n      tag_290\n      jump\t// in\n    tag_302:\n      pop\n      pop\n        /* \"contracts/manager/Candel_1s/Kandel_1s_Manager.sol\":1009:1022  timestampList */\n      0x01\n        /* \"contracts/manager/Candel_1s/Kandel_1s_Manager.sol\":1009:1040  timestampList.push(currentTime) */\n      dup1\n      sload\n      dup1\n      dup3\n      add\n      dup3\n      sstore\n      0x00\n      swap2\n      swap1\n      swap2\n      mstore\n      0xb10e2d527612073b26eecdfd717e6a320cf44b4afac2b0732d9fcbe2b7fa0cf6\n      add\n      dup6\n      swap1\n      sstore\n      pop\n        /* \"contracts/manager/Candel_1s/Kandel_1s_Manager.sol\":1096:1148  AddKlineRecord(timestamp, kline.s, kline.o, kline.c) */\n      0x87be993750fd9f870bc535d97609df048e07430c47f26712536434958094f873\n      swap2\n      pop\n        /* \"contracts/manager/Candel_1s/Kandel_1s_Manager.sol\":1111:1120  timestamp */\n      dup5\n      swap1\n      pop\n        /* \"contracts/manager/Candel_1s/Kandel_1s_Manager.sol\":1122:1129  kline.s */\n      tag_304\n      0x40\n      dup8\n      add\n        /* \"contracts/manager/Candel_1s/Kandel_1s_Manager.sol\":1122:1127  kline */\n      dup8\n        /* \"contracts/manager/Candel_1s/Kandel_1s_Manager.sol\":1122:1129  kline.s */\n      tag_280\n      jump\t// in\n    tag_304:\n        /* \"contracts/manager/Candel_1s/Kandel_1s_Manager.sol\":1131:1138  kline.o */\n      tag_305\n      0xc0\n      dup10\n      add\n        /* \"contracts/manager/Candel_1s/Kandel_1s_Manager.sol\":1131:1136  kline */\n      dup10\n        /* \"contracts/manager/Candel_1s/Kandel_1s_Manager.sol\":1131:1138  kline.o */\n      tag_280\n      jump\t// in\n    tag_305:\n        /* \"contracts/manager/Candel_1s/Kandel_1s_Manager.sol\":1140:1147  kline.c */\n      tag_306\n      0xe0\n      dup12\n      add\n        /* \"contracts/manager/Candel_1s/Kandel_1s_Manager.sol\":1140:1145  kline */\n      dup12\n        /* \"contracts/manager/Candel_1s/Kandel_1s_Manager.sol\":1140:1147  kline.c */\n      tag_280\n      jump\t// in\n    tag_306:\n        /* \"contracts/manager/Candel_1s/Kandel_1s_Manager.sol\":1096:1148  AddKlineRecord(timestamp, kline.s, kline.o, kline.c) */\n      mload(0x40)\n      tag_307\n      swap8\n      swap7\n      swap6\n      swap5\n      swap4\n      swap3\n      swap2\n      swap1\n      tag_308\n      jump\t// in\n    tag_307:\n      mload(0x40)\n      dup1\n      swap2\n      sub\n      swap1\n      log1\n        /* \"contracts/manager/Candel_1s/Kandel_1s_Manager.sol\":473:1155  {... */\n      pop\n      pop\n      pop\n        /* \"contracts/manager/Candel_1s/Kandel_1s_Manager.sol\":406:1155  function recordKline(KlineRecord calldata kline) external override {... */\n      pop\n      jump\t// out\n    tag_42:\n      mload(0x40)\n      dup1\n      0x80\n      add\n      0x40\n      mstore\n      dup1\n      0x60\n      dup2\n      mstore\n      0x20\n      add\n      0x00\n      dup2\n      mstore\n      0x20\n      add\n      0x60\n      dup2\n      mstore\n      0x20\n      add\n      tag_309\n      mload(0x40)\n      dup1\n      0x0220\n      add\n      0x40\n      mstore\n      dup1\n      0x00\n      dup2\n      mstore\n      0x20\n      add\n      0x00\n      dup2\n      mstore\n      0x20\n      add\n      0x60\n      dup2\n      mstore\n      0x20\n      add\n      0x60\n      dup2\n      mstore\n      0x20\n      add\n      0x00\n      dup2\n      mstore\n      0x20\n      add\n      0x00\n      dup2\n      mstore\n      0x20\n      add\n      0x60\n      dup2\n      mstore\n      0x20\n      add\n      0x60\n      dup2\n      mstore\n      0x20\n      add\n      0x60\n      dup2\n      mstore\n      0x20\n      add\n      0x60\n      dup2\n      mstore\n      0x20\n      add\n      0x60\n      dup2\n      mstore\n      0x20\n      add\n      0x00\n      dup2\n      mstore\n      0x20\n      add\n      iszero(iszero(0x00))\n      dup2\n      mstore\n      0x20\n      add\n      0x60\n      dup2\n      mstore\n      0x20\n      add\n      0x60\n      dup2\n      mstore\n      0x20\n      add\n      0x60\n      dup2\n      mstore\n      0x20\n      add\n      0x60\n      dup2\n      mstore\n      pop\n      swap1\n      jump\n    tag_309:\n      swap1\n      mstore\n      swap1\n      jump\t// out\n        /* \"#utility.yul\":14:303   */\n    tag_311:\n        /* \"#utility.yul\":56:59   */\n      0x00\n        /* \"#utility.yul\":94:99   */\n      dup2\n        /* \"#utility.yul\":88:100   */\n      mload\n        /* \"#utility.yul\":121:127   */\n      dup1\n        /* \"#utility.yul\":116:119   */\n      dup5\n        /* \"#utility.yul\":109:128   */\n      mstore\n        /* \"#utility.yul\":177:183   */\n      dup1\n        /* \"#utility.yul\":170:174   */\n      0x20\n        /* \"#utility.yul\":163:168   */\n      dup5\n        /* \"#utility.yul\":159:175   */\n      add\n        /* \"#utility.yul\":152:156   */\n      0x20\n        /* \"#utility.yul\":147:150   */\n      dup7\n        /* \"#utility.yul\":143:157   */\n      add\n        /* \"#utility.yul\":137:184   */\n      mcopy\n        /* \"#utility.yul\":229:230   */\n      0x00\n        /* \"#utility.yul\":222:226   */\n      0x20\n        /* \"#utility.yul\":213:219   */\n      dup3\n        /* \"#utility.yul\":208:211   */\n      dup7\n        /* \"#utility.yul\":204:220   */\n      add\n        /* \"#utility.yul\":200:227   */\n      add\n        /* \"#utility.yul\":193:231   */\n      mstore\n        /* \"#utility.yul\":292:296   */\n      0x20\n        /* \"#utility.yul\":285:287   */\n      0x1f\n        /* \"#utility.yul\":281:288   */\n      not\n        /* \"#utility.yul\":276:278   */\n      0x1f\n        /* \"#utility.yul\":268:274   */\n      dup4\n        /* \"#utility.yul\":264:279   */\n      add\n        /* \"#utility.yul\":260:289   */\n      and\n        /* \"#utility.yul\":255:258   */\n      dup6\n        /* \"#utility.yul\":251:290   */\n      add\n        /* \"#utility.yul\":247:297   */\n      add\n        /* \"#utility.yul\":240:297   */\n      swap2\n      pop\n      pop\n        /* \"#utility.yul\":14:303   */\n      swap3\n      swap2\n      pop\n      pop\n      jump\t// out\n        /* \"#utility.yul\":404:3419   */\n    tag_313:\n        /* \"#utility.yul\":460:463   */\n      0x00\n        /* \"#utility.yul\":504:509   */\n      dup2\n        /* \"#utility.yul\":498:510   */\n      mload\n        /* \"#utility.yul\":531:535   */\n      0x80\n        /* \"#utility.yul\":526:529   */\n      dup5\n        /* \"#utility.yul\":519:536   */\n      mstore\n        /* \"#utility.yul\":557:604   */\n      tag_325\n        /* \"#utility.yul\":598:602   */\n      0x80\n        /* \"#utility.yul\":593:596   */\n      dup6\n        /* \"#utility.yul\":589:603   */\n      add\n        /* \"#utility.yul\":575:587   */\n      dup3\n        /* \"#utility.yul\":557:604   */\n      tag_311\n      jump\t// in\n    tag_325:\n        /* \"#utility.yul\":545:604   */\n      swap1\n      pop\n        /* \"#utility.yul\":653:657   */\n      0x20\n        /* \"#utility.yul\":646:651   */\n      dup4\n        /* \"#utility.yul\":642:658   */\n      add\n        /* \"#utility.yul\":636:659   */\n      mload\n        /* \"#utility.yul\":629:633   */\n      0x20\n        /* \"#utility.yul\":624:627   */\n      dup6\n        /* \"#utility.yul\":620:634   */\n      add\n        /* \"#utility.yul\":613:660   */\n      mstore\n        /* \"#utility.yul\":708:712   */\n      0x40\n        /* \"#utility.yul\":701:706   */\n      dup4\n        /* \"#utility.yul\":697:713   */\n      add\n        /* \"#utility.yul\":691:714   */\n      mload\n        /* \"#utility.yul\":756:759   */\n      dup5\n        /* \"#utility.yul\":750:754   */\n      dup3\n        /* \"#utility.yul\":746:760   */\n      sub\n        /* \"#utility.yul\":739:743   */\n      0x40\n        /* \"#utility.yul\":734:737   */\n      dup7\n        /* \"#utility.yul\":730:744   */\n      add\n        /* \"#utility.yul\":723:761   */\n      mstore\n        /* \"#utility.yul\":784:823   */\n      tag_326\n        /* \"#utility.yul\":818:822   */\n      dup3\n        /* \"#utility.yul\":802:816   */\n      dup3\n        /* \"#utility.yul\":784:823   */\n      tag_311\n      jump\t// in\n    tag_326:\n        /* \"#utility.yul\":770:823   */\n      swap2\n      pop\n      pop\n        /* \"#utility.yul\":871:875   */\n      0x60\n        /* \"#utility.yul\":864:869   */\n      dup4\n        /* \"#utility.yul\":860:876   */\n      add\n        /* \"#utility.yul\":854:877   */\n      mload\n        /* \"#utility.yul\":921:924   */\n      dup5\n        /* \"#utility.yul\":913:919   */\n      dup3\n        /* \"#utility.yul\":909:925   */\n      sub\n        /* \"#utility.yul\":902:906   */\n      0x60\n        /* \"#utility.yul\":897:900   */\n      dup7\n        /* \"#utility.yul\":893:907   */\n      add\n        /* \"#utility.yul\":886:926   */\n      mstore\n        /* \"#utility.yul\":956:970   */\n      dup1\n        /* \"#utility.yul\":950:971   */\n      mload\n        /* \"#utility.yul\":942:948   */\n      dup3\n        /* \"#utility.yul\":935:972   */\n      mstore\n        /* \"#utility.yul\":1033:1037   */\n      0x20\n        /* \"#utility.yul\":1017:1031   */\n      dup2\n        /* \"#utility.yul\":1013:1038   */\n      add\n        /* \"#utility.yul\":1007:1039   */\n      mload\n        /* \"#utility.yul\":1000:1004   */\n      0x20\n        /* \"#utility.yul\":992:998   */\n      dup4\n        /* \"#utility.yul\":988:1005   */\n      add\n        /* \"#utility.yul\":981:1040   */\n      mstore\n        /* \"#utility.yul\":1097:1101   */\n      0x40\n        /* \"#utility.yul\":1081:1095   */\n      dup2\n        /* \"#utility.yul\":1077:1102   */\n      add\n        /* \"#utility.yul\":1071:1103   */\n      mload\n        /* \"#utility.yul\":1138:1144   */\n      0x0220\n        /* \"#utility.yul\":1131:1135   */\n      0x40\n        /* \"#utility.yul\":1123:1129   */\n      dup5\n        /* \"#utility.yul\":1119:1136   */\n      add\n        /* \"#utility.yul\":1112:1145   */\n      mstore\n        /* \"#utility.yul\":1168:1222   */\n      tag_327\n        /* \"#utility.yul\":1214:1220   */\n      0x0220\n        /* \"#utility.yul\":1206:1212   */\n      dup5\n        /* \"#utility.yul\":1202:1221   */\n      add\n        /* \"#utility.yul\":1186:1200   */\n      dup3\n        /* \"#utility.yul\":1168:1222   */\n      tag_311\n      jump\t// in\n    tag_327:\n        /* \"#utility.yul\":1154:1222   */\n      swap1\n      pop\n        /* \"#utility.yul\":1279:1283   */\n      0x60\n        /* \"#utility.yul\":1263:1277   */\n      dup3\n        /* \"#utility.yul\":1259:1284   */\n      add\n        /* \"#utility.yul\":1253:1285   */\n      mload\n        /* \"#utility.yul\":1332:1338   */\n      dup4\n        /* \"#utility.yul\":1324:1330   */\n      dup3\n        /* \"#utility.yul\":1320:1339   */\n      sub\n        /* \"#utility.yul\":1313:1317   */\n      0x60\n        /* \"#utility.yul\":1305:1311   */\n      dup6\n        /* \"#utility.yul\":1301:1318   */\n      add\n        /* \"#utility.yul\":1294:1340   */\n      mstore\n        /* \"#utility.yul\":1363:1404   */\n      tag_328\n        /* \"#utility.yul\":1397:1403   */\n      dup3\n        /* \"#utility.yul\":1381:1395   */\n      dup3\n        /* \"#utility.yul\":1363:1404   */\n      tag_311\n      jump\t// in\n    tag_328:\n        /* \"#utility.yul\":1349:1404   */\n      swap2\n      pop\n      pop\n        /* \"#utility.yul\":1465:1469   */\n      0x80\n        /* \"#utility.yul\":1449:1463   */\n      dup3\n        /* \"#utility.yul\":1445:1470   */\n      add\n        /* \"#utility.yul\":1439:1471   */\n      mload\n        /* \"#utility.yul\":1432:1436   */\n      0x80\n        /* \"#utility.yul\":1424:1430   */\n      dup5\n        /* \"#utility.yul\":1420:1437   */\n      add\n        /* \"#utility.yul\":1413:1472   */\n      mstore\n        /* \"#utility.yul\":1533:1537   */\n      0xa0\n        /* \"#utility.yul\":1517:1531   */\n      dup3\n        /* \"#utility.yul\":1513:1538   */\n      add\n        /* \"#utility.yul\":1507:1539   */\n      mload\n        /* \"#utility.yul\":1500:1504   */\n      0xa0\n        /* \"#utility.yul\":1492:1498   */\n      dup5\n        /* \"#utility.yul\":1488:1505   */\n      add\n        /* \"#utility.yul\":1481:1540   */\n      mstore\n        /* \"#utility.yul\":1597:1601   */\n      0xc0\n        /* \"#utility.yul\":1581:1595   */\n      dup3\n        /* \"#utility.yul\":1577:1602   */\n      add\n        /* \"#utility.yul\":1571:1603   */\n      mload\n        /* \"#utility.yul\":1650:1656   */\n      dup4\n        /* \"#utility.yul\":1642:1648   */\n      dup3\n        /* \"#utility.yul\":1638:1657   */\n      sub\n        /* \"#utility.yul\":1631:1635   */\n      0xc0\n        /* \"#utility.yul\":1623:1629   */\n      dup6\n        /* \"#utility.yul\":1619:1636   */\n      add\n        /* \"#utility.yul\":1612:1658   */\n      mstore\n        /* \"#utility.yul\":1681:1722   */\n      tag_329\n        /* \"#utility.yul\":1715:1721   */\n      dup3\n        /* \"#utility.yul\":1699:1713   */\n      dup3\n        /* \"#utility.yul\":1681:1722   */\n      tag_311\n      jump\t// in\n    tag_329:\n        /* \"#utility.yul\":1667:1722   */\n      swap2\n      pop\n      pop\n        /* \"#utility.yul\":1779:1783   */\n      0xe0\n        /* \"#utility.yul\":1763:1777   */\n      dup3\n        /* \"#utility.yul\":1759:1784   */\n      add\n        /* \"#utility.yul\":1753:1785   */\n      mload\n        /* \"#utility.yul\":1832:1838   */\n      dup4\n        /* \"#utility.yul\":1824:1830   */\n      dup3\n        /* \"#utility.yul\":1820:1839   */\n      sub\n        /* \"#utility.yul\":1813:1817   */\n      0xe0\n        /* \"#utility.yul\":1805:1811   */\n      dup6\n        /* \"#utility.yul\":1801:1818   */\n      add\n        /* \"#utility.yul\":1794:1840   */\n      mstore\n        /* \"#utility.yul\":1863:1904   */\n      tag_330\n        /* \"#utility.yul\":1897:1903   */\n      dup3\n        /* \"#utility.yul\":1881:1895   */\n      dup3\n        /* \"#utility.yul\":1863:1904   */\n      tag_311\n      jump\t// in\n    tag_330:\n        /* \"#utility.yul\":1849:1904   */\n      swap2\n      pop\n      pop\n        /* \"#utility.yul\":1961:1967   */\n      0x0100\n        /* \"#utility.yul\":1945:1959   */\n      dup3\n        /* \"#utility.yul\":1941:1968   */\n      add\n        /* \"#utility.yul\":1935:1969   */\n      mload\n        /* \"#utility.yul\":2018:2024   */\n      dup4\n        /* \"#utility.yul\":2010:2016   */\n      dup3\n        /* \"#utility.yul\":2006:2025   */\n      sub\n        /* \"#utility.yul\":1997:2003   */\n      0x0100\n        /* \"#utility.yul\":1989:1995   */\n      dup6\n        /* \"#utility.yul\":1985:2004   */\n      add\n        /* \"#utility.yul\":1978:2026   */\n      mstore\n        /* \"#utility.yul\":2049:2090   */\n      tag_331\n        /* \"#utility.yul\":2083:2089   */\n      dup3\n        /* \"#utility.yul\":2067:2081   */\n      dup3\n        /* \"#utility.yul\":2049:2090   */\n      tag_311\n      jump\t// in\n    tag_331:\n        /* \"#utility.yul\":2035:2090   */\n      swap2\n      pop\n      pop\n        /* \"#utility.yul\":2147:2153   */\n      0x0120\n        /* \"#utility.yul\":2131:2145   */\n      dup3\n        /* \"#utility.yul\":2127:2154   */\n      add\n        /* \"#utility.yul\":2121:2155   */\n      mload\n        /* \"#utility.yul\":2204:2210   */\n      dup4\n        /* \"#utility.yul\":2196:2202   */\n      dup3\n        /* \"#utility.yul\":2192:2211   */\n      sub\n        /* \"#utility.yul\":2183:2189   */\n      0x0120\n        /* \"#utility.yul\":2175:2181   */\n      dup6\n        /* \"#utility.yul\":2171:2190   */\n      add\n        /* \"#utility.yul\":2164:2212   */\n      mstore\n        /* \"#utility.yul\":2235:2276   */\n      tag_332\n        /* \"#utility.yul\":2269:2275   */\n      dup3\n        /* \"#utility.yul\":2253:2267   */\n      dup3\n        /* \"#utility.yul\":2235:2276   */\n      tag_311\n      jump\t// in\n    tag_332:\n        /* \"#utility.yul\":2221:2276   */\n      swap2\n      pop\n      pop\n        /* \"#utility.yul\":2333:2339   */\n      0x0140\n        /* \"#utility.yul\":2317:2331   */\n      dup3\n        /* \"#utility.yul\":2313:2340   */\n      add\n        /* \"#utility.yul\":2307:2341   */\n      mload\n        /* \"#utility.yul\":2390:2396   */\n      dup4\n        /* \"#utility.yul\":2382:2388   */\n      dup3\n        /* \"#utility.yul\":2378:2397   */\n      sub\n        /* \"#utility.yul\":2369:2375   */\n      0x0140\n        /* \"#utility.yul\":2361:2367   */\n      dup6\n        /* \"#utility.yul\":2357:2376   */\n      add\n        /* \"#utility.yul\":2350:2398   */\n      mstore\n        /* \"#utility.yul\":2421:2462   */\n      tag_333\n        /* \"#utility.yul\":2455:2461   */\n      dup3\n        /* \"#utility.yul\":2439:2453   */\n      dup3\n        /* \"#utility.yul\":2421:2462   */\n      tag_311\n      jump\t// in\n    tag_333:\n        /* \"#utility.yul\":2407:2462   */\n      swap2\n      pop\n      pop\n        /* \"#utility.yul\":2525:2531   */\n      0x0160\n        /* \"#utility.yul\":2509:2523   */\n      dup3\n        /* \"#utility.yul\":2505:2532   */\n      add\n        /* \"#utility.yul\":2499:2533   */\n      mload\n        /* \"#utility.yul\":2490:2496   */\n      0x0160\n        /* \"#utility.yul\":2482:2488   */\n      dup5\n        /* \"#utility.yul\":2478:2497   */\n      add\n        /* \"#utility.yul\":2471:2534   */\n      mstore\n        /* \"#utility.yul\":2592:2598   */\n      0x0180\n        /* \"#utility.yul\":2576:2590   */\n      dup3\n        /* \"#utility.yul\":2572:2599   */\n      add\n        /* \"#utility.yul\":2566:2600   */\n      mload\n        /* \"#utility.yul\":2609:2662   */\n      tag_334\n        /* \"#utility.yul\":2654:2660   */\n      0x0180\n        /* \"#utility.yul\":2646:2652   */\n      dup6\n        /* \"#utility.yul\":2642:2661   */\n      add\n        /* \"#utility.yul\":2625:2640   */\n      dup3\n        /* \"#utility.yul\":378:391   */\n      iszero\n        /* \"#utility.yul\":371:392   */\n      iszero\n        /* \"#utility.yul\":359:393   */\n      swap1\n      mstore\n        /* \"#utility.yul\":308:399   */\n      jump\n        /* \"#utility.yul\":2609:2662   */\n    tag_334:\n      pop\n        /* \"#utility.yul\":2720:2726   */\n      0x01a0\n        /* \"#utility.yul\":2704:2718   */\n      dup3\n        /* \"#utility.yul\":2700:2727   */\n      add\n        /* \"#utility.yul\":2694:2728   */\n      mload\n        /* \"#utility.yul\":2777:2783   */\n      dup4\n        /* \"#utility.yul\":2769:2775   */\n      dup3\n        /* \"#utility.yul\":2765:2784   */\n      sub\n        /* \"#utility.yul\":2756:2762   */\n      0x01a0\n        /* \"#utility.yul\":2748:2754   */\n      dup6\n        /* \"#utility.yul\":2744:2763   */\n      add\n        /* \"#utility.yul\":2737:2785   */\n      mstore\n        /* \"#utility.yul\":2808:2850   */\n      tag_335\n        /* \"#utility.yul\":2843:2849   */\n      dup3\n        /* \"#utility.yul\":2826:2841   */\n      dup3\n        /* \"#utility.yul\":2808:2850   */\n      tag_311\n      jump\t// in\n    tag_335:\n        /* \"#utility.yul\":2794:2850   */\n      swap2\n      pop\n      pop\n        /* \"#utility.yul\":2908:2914   */\n      0x01c0\n        /* \"#utility.yul\":2892:2906   */\n      dup3\n        /* \"#utility.yul\":2888:2915   */\n      add\n        /* \"#utility.yul\":2882:2916   */\n      mload\n        /* \"#utility.yul\":2965:2971   */\n      dup4\n        /* \"#utility.yul\":2957:2963   */\n      dup3\n        /* \"#utility.yul\":2953:2972   */\n      sub\n        /* \"#utility.yul\":2944:2950   */\n      0x01c0\n        /* \"#utility.yul\":2936:2942   */\n      dup6\n        /* \"#utility.yul\":2932:2951   */\n      add\n        /* \"#utility.yul\":2925:2973   */\n      mstore\n        /* \"#utility.yul\":2997:3039   */\n      tag_336\n        /* \"#utility.yul\":3032:3038   */\n      dup3\n        /* \"#utility.yul\":3015:3030   */\n      dup3\n        /* \"#utility.yul\":2997:3039   */\n      tag_311\n      jump\t// in\n    tag_336:\n        /* \"#utility.yul\":2982:3039   */\n      swap2\n      pop\n      pop\n        /* \"#utility.yul\":3097:3103   */\n      0x01e0\n        /* \"#utility.yul\":3081:3095   */\n      dup3\n        /* \"#utility.yul\":3077:3104   */\n      add\n        /* \"#utility.yul\":3071:3105   */\n      mload\n        /* \"#utility.yul\":3155:3161   */\n      dup4\n        /* \"#utility.yul\":3146:3153   */\n      dup3\n        /* \"#utility.yul\":3142:3162   */\n      sub\n        /* \"#utility.yul\":3133:3139   */\n      0x01e0\n        /* \"#utility.yul\":3125:3131   */\n      dup6\n        /* \"#utility.yul\":3121:3140   */\n      add\n        /* \"#utility.yul\":3114:3163   */\n      mstore\n        /* \"#utility.yul\":3187:3230   */\n      tag_337\n        /* \"#utility.yul\":3222:3229   */\n      dup3\n        /* \"#utility.yul\":3205:3220   */\n      dup3\n        /* \"#utility.yul\":3187:3230   */\n      tag_311\n      jump\t// in\n    tag_337:\n        /* \"#utility.yul\":3172:3230   */\n      swap2\n      pop\n      pop\n        /* \"#utility.yul\":3288:3294   */\n      0x0200\n        /* \"#utility.yul\":3272:3286   */\n      dup3\n        /* \"#utility.yul\":3268:3295   */\n      add\n        /* \"#utility.yul\":3262:3296   */\n      mload\n        /* \"#utility.yul\":3239:3296   */\n      swap2\n      pop\n        /* \"#utility.yul\":3346:3352   */\n      dup3\n        /* \"#utility.yul\":3337:3344   */\n      dup2\n        /* \"#utility.yul\":3333:3353   */\n      sub\n        /* \"#utility.yul\":3324:3330   */\n      0x0200\n        /* \"#utility.yul\":3316:3322   */\n      dup5\n        /* \"#utility.yul\":3312:3331   */\n      add\n        /* \"#utility.yul\":3305:3354   */\n      mstore\n        /* \"#utility.yul\":3370:3413   */\n      tag_338\n        /* \"#utility.yul\":3405:3412   */\n      dup2\n        /* \"#utility.yul\":3388:3403   */\n      dup4\n        /* \"#utility.yul\":3370:3413   */\n      tag_311\n      jump\t// in\n    tag_338:\n        /* \"#utility.yul\":3363:3413   */\n      swap7\n        /* \"#utility.yul\":404:3419   */\n      swap6\n      pop\n      pop\n      pop\n      pop\n      pop\n      pop\n      jump\t// out\n        /* \"#utility.yul\":3424:4260   */\n    tag_12:\n        /* \"#utility.yul\":3626:3630   */\n      0x00\n        /* \"#utility.yul\":3674:3676   */\n      0x20\n        /* \"#utility.yul\":3663:3672   */\n      dup3\n        /* \"#utility.yul\":3659:3677   */\n      add\n        /* \"#utility.yul\":3704:3706   */\n      0x20\n        /* \"#utility.yul\":3693:3702   */\n      dup4\n        /* \"#utility.yul\":3686:3707   */\n      mstore\n        /* \"#utility.yul\":3727:3733   */\n      dup1\n        /* \"#utility.yul\":3762:3768   */\n      dup5\n        /* \"#utility.yul\":3756:3769   */\n      mload\n        /* \"#utility.yul\":3793:3799   */\n      dup1\n        /* \"#utility.yul\":3785:3791   */\n      dup4\n        /* \"#utility.yul\":3778:3800   */\n      mstore\n        /* \"#utility.yul\":3831:3833   */\n      0x40\n        /* \"#utility.yul\":3820:3829   */\n      dup6\n        /* \"#utility.yul\":3816:3834   */\n      add\n        /* \"#utility.yul\":3809:3834   */\n      swap2\n      pop\n        /* \"#utility.yul\":3893:3895   */\n      0x40\n        /* \"#utility.yul\":3883:3889   */\n      dup2\n        /* \"#utility.yul\":3880:3881   */\n      0x05\n        /* \"#utility.yul\":3876:3890   */\n      shl\n        /* \"#utility.yul\":3865:3874   */\n      dup7\n        /* \"#utility.yul\":3861:3891   */\n      add\n        /* \"#utility.yul\":3857:3896   */\n      add\n        /* \"#utility.yul\":3843:3896   */\n      swap3\n      pop\n        /* \"#utility.yul\":3931:3933   */\n      0x20\n        /* \"#utility.yul\":3923:3929   */\n      dup7\n        /* \"#utility.yul\":3919:3934   */\n      add\n        /* \"#utility.yul\":3952:3953   */\n      0x00\n        /* \"#utility.yul\":3962:4231   */\n    tag_340:\n        /* \"#utility.yul\":3976:3982   */\n      dup3\n        /* \"#utility.yul\":3973:3974   */\n      dup2\n        /* \"#utility.yul\":3970:3983   */\n      lt\n        /* \"#utility.yul\":3962:4231   */\n      iszero\n      tag_342\n      jumpi\n        /* \"#utility.yul\":4069:4071   */\n      0x3f\n        /* \"#utility.yul\":4065:4072   */\n      not\n        /* \"#utility.yul\":4053:4062   */\n      dup8\n        /* \"#utility.yul\":4045:4051   */\n      dup7\n        /* \"#utility.yul\":4041:4063   */\n      sub\n        /* \"#utility.yul\":4037:4073   */\n      add\n        /* \"#utility.yul\":4032:4035   */\n      dup5\n        /* \"#utility.yul\":4025:4074   */\n      mstore\n        /* \"#utility.yul\":4097:4151   */\n      tag_343\n        /* \"#utility.yul\":4144:4150   */\n      dup6\n        /* \"#utility.yul\":4135:4141   */\n      dup4\n        /* \"#utility.yul\":4129:4142   */\n      mload\n        /* \"#utility.yul\":4097:4151   */\n      tag_313\n      jump\t// in\n    tag_343:\n        /* \"#utility.yul\":4087:4151   */\n      swap5\n      pop\n        /* \"#utility.yul\":4186:4188   */\n      0x20\n        /* \"#utility.yul\":4209:4221   */\n      swap4\n      dup5\n      add\n      swap4\n        /* \"#utility.yul\":4174:4189   */\n      swap2\n      swap1\n      swap2\n      add\n      swap1\n        /* \"#utility.yul\":3998:3999   */\n      0x01\n        /* \"#utility.yul\":3991:4000   */\n      add\n        /* \"#utility.yul\":3962:4231   */\n      jump(tag_340)\n    tag_342:\n      pop\n        /* \"#utility.yul\":4248:4254   */\n      swap3\n      swap7\n        /* \"#utility.yul\":3424:4260   */\n      swap6\n      pop\n      pop\n      pop\n      pop\n      pop\n      pop\n      jump\t// out\n        /* \"#utility.yul\":4265:4491   */\n    tag_15:\n        /* \"#utility.yul\":4324:4330   */\n      0x00\n        /* \"#utility.yul\":4377:4379   */\n      0x20\n        /* \"#utility.yul\":4365:4374   */\n      dup3\n        /* \"#utility.yul\":4356:4363   */\n      dup5\n        /* \"#utility.yul\":4352:4375   */\n      sub\n        /* \"#utility.yul\":4348:4380   */\n      slt\n        /* \"#utility.yul\":4345:4397   */\n      iszero\n      tag_345\n      jumpi\n        /* \"#utility.yul\":4393:4394   */\n      0x00\n        /* \"#utility.yul\":4390:4391   */\n      0x00\n        /* \"#utility.yul\":4383:4395   */\n      revert\n        /* \"#utility.yul\":4345:4397   */\n    tag_345:\n      pop\n        /* \"#utility.yul\":4438:4461   */\n      calldataload\n      swap2\n        /* \"#utility.yul\":4265:4491   */\n      swap1\n      pop\n      jump\t// out\n        /* \"#utility.yul\":4496:4770   */\n    tag_18:\n        /* \"#utility.yul\":4685:4687   */\n      0x20\n        /* \"#utility.yul\":4674:4683   */\n      dup2\n        /* \"#utility.yul\":4667:4688   */\n      mstore\n        /* \"#utility.yul\":4648:4652   */\n      0x00\n        /* \"#utility.yul\":4705:4764   */\n      tag_347\n        /* \"#utility.yul\":4760:4762   */\n      0x20\n        /* \"#utility.yul\":4749:4758   */\n      dup4\n        /* \"#utility.yul\":4745:4763   */\n      add\n        /* \"#utility.yul\":4737:4743   */\n      dup5\n        /* \"#utility.yul\":4705:4764   */\n      tag_313\n      jump\t// in\n    tag_347:\n        /* \"#utility.yul\":4697:4764   */\n      swap4\n        /* \"#utility.yul\":4496:4770   */\n      swap3\n      pop\n      pop\n      pop\n      jump\t// out\n        /* \"#utility.yul\":4775:4995   */\n    tag_22:\n        /* \"#utility.yul\":4924:4926   */\n      0x20\n        /* \"#utility.yul\":4913:4922   */\n      dup2\n        /* \"#utility.yul\":4906:4927   */\n      mstore\n        /* \"#utility.yul\":4887:4891   */\n      0x00\n        /* \"#utility.yul\":4944:4989   */\n      tag_347\n        /* \"#utility.yul\":4985:4987   */\n      0x20\n        /* \"#utility.yul\":4974:4983   */\n      dup4\n        /* \"#utility.yul\":4970:4988   */\n      add\n        /* \"#utility.yul\":4962:4968   */\n      dup5\n        /* \"#utility.yul\":4944:4989   */\n      tag_311\n      jump\t// in\n        /* \"#utility.yul\":5182:5572   */\n    tag_33:\n        /* \"#utility.yul\":5271:5277   */\n      0x00\n        /* \"#utility.yul\":5324:5326   */\n      0x20\n        /* \"#utility.yul\":5312:5321   */\n      dup3\n        /* \"#utility.yul\":5303:5310   */\n      dup5\n        /* \"#utility.yul\":5299:5322   */\n      sub\n        /* \"#utility.yul\":5295:5327   */\n      slt\n        /* \"#utility.yul\":5292:5344   */\n      iszero\n      tag_352\n      jumpi\n        /* \"#utility.yul\":5340:5341   */\n      0x00\n        /* \"#utility.yul\":5337:5338   */\n      0x00\n        /* \"#utility.yul\":5330:5342   */\n      revert\n        /* \"#utility.yul\":5292:5344   */\n    tag_352:\n        /* \"#utility.yul\":5380:5389   */\n      dup2\n        /* \"#utility.yul\":5367:5390   */\n      calldataload\n      sub(shl(0x40, 0x01), 0x01)\n        /* \"#utility.yul\":5405:5411   */\n      dup2\n        /* \"#utility.yul\":5402:5432   */\n      gt\n        /* \"#utility.yul\":5399:5449   */\n      iszero\n      tag_353\n      jumpi\n        /* \"#utility.yul\":5445:5446   */\n      0x00\n        /* \"#utility.yul\":5442:5443   */\n      0x00\n        /* \"#utility.yul\":5435:5447   */\n      revert\n        /* \"#utility.yul\":5399:5449   */\n    tag_353:\n        /* \"#utility.yul\":5468:5490   */\n      dup3\n      add\n        /* \"#utility.yul\":5524:5527   */\n      0x0220\n        /* \"#utility.yul\":5506:5522   */\n      dup2\n      dup6\n      sub\n        /* \"#utility.yul\":5502:5528   */\n      slt\n        /* \"#utility.yul\":5499:5545   */\n      iszero\n      tag_347\n      jumpi\n        /* \"#utility.yul\":5541:5542   */\n      0x00\n        /* \"#utility.yul\":5538:5539   */\n      0x00\n        /* \"#utility.yul\":5531:5543   */\n      revert\n        /* \"#utility.yul\":5577:5704   */\n    tag_38:\n        /* \"#utility.yul\":5638:5648   */\n      0x4e487b71\n        /* \"#utility.yul\":5633:5636   */\n      0xe0\n        /* \"#utility.yul\":5629:5649   */\n      shl\n        /* \"#utility.yul\":5626:5627   */\n      0x00\n        /* \"#utility.yul\":5619:5650   */\n      mstore\n        /* \"#utility.yul\":5669:5673   */\n      0x41\n        /* \"#utility.yul\":5666:5667   */\n      0x04\n        /* \"#utility.yul\":5659:5674   */\n      mstore\n        /* \"#utility.yul\":5693:5697   */\n      0x24\n        /* \"#utility.yul\":5690:5691   */\n      0x00\n        /* \"#utility.yul\":5683:5698   */\n      revert\n        /* \"#utility.yul\":5709:5836   */\n    tag_48:\n        /* \"#utility.yul\":5770:5780   */\n      0x4e487b71\n        /* \"#utility.yul\":5765:5768   */\n      0xe0\n        /* \"#utility.yul\":5761:5781   */\n      shl\n        /* \"#utility.yul\":5758:5759   */\n      0x00\n        /* \"#utility.yul\":5751:5782   */\n      mstore\n        /* \"#utility.yul\":5801:5805   */\n      0x32\n        /* \"#utility.yul\":5798:5799   */\n      0x04\n        /* \"#utility.yul\":5791:5806   */\n      mstore\n        /* \"#utility.yul\":5825:5829   */\n      0x24\n        /* \"#utility.yul\":5822:5823   */\n      0x00\n        /* \"#utility.yul\":5815:5830   */\n      revert\n        /* \"#utility.yul\":5841:6221   */\n    tag_51:\n        /* \"#utility.yul\":5920:5921   */\n      0x01\n        /* \"#utility.yul\":5916:5928   */\n      dup2\n      dup2\n      shr\n      swap1\n        /* \"#utility.yul\":5963:5975   */\n      dup3\n      and\n      dup1\n        /* \"#utility.yul\":5984:6045   */\n      tag_358\n      jumpi\n        /* \"#utility.yul\":6038:6042   */\n      0x7f\n        /* \"#utility.yul\":6030:6036   */\n      dup3\n        /* \"#utility.yul\":6026:6043   */\n      and\n        /* \"#utility.yul\":6016:6043   */\n      swap2\n      pop\n        /* \"#utility.yul\":5984:6045   */\n    tag_358:\n        /* \"#utility.yul\":6091:6093   */\n      0x20\n        /* \"#utility.yul\":6083:6089   */\n      dup3\n        /* \"#utility.yul\":6080:6094   */\n      lt\n        /* \"#utility.yul\":6060:6078   */\n      dup2\n        /* \"#utility.yul\":6057:6095   */\n      sub\n        /* \"#utility.yul\":6054:6215   */\n      tag_44\n      jumpi\n        /* \"#utility.yul\":6137:6147   */\n      0x4e487b71\n        /* \"#utility.yul\":6132:6135   */\n      0xe0\n        /* \"#utility.yul\":6128:6148   */\n      shl\n        /* \"#utility.yul\":6125:6126   */\n      0x00\n        /* \"#utility.yul\":6118:6149   */\n      mstore\n        /* \"#utility.yul\":6172:6176   */\n      0x22\n        /* \"#utility.yul\":6169:6170   */\n      0x04\n        /* \"#utility.yul\":6162:6177   */\n      mstore\n        /* \"#utility.yul\":6200:6204   */\n      0x24\n        /* \"#utility.yul\":6197:6198   */\n      0x00\n        /* \"#utility.yul\":6190:6205   */\n      revert\n        /* \"#utility.yul\":6226:6458   */\n    tag_195:\n        /* \"#utility.yul\":6265:6268   */\n      0x00\n        /* \"#utility.yul\":6286:6303   */\n      0x01\n      dup3\n      add\n        /* \"#utility.yul\":6283:6423   */\n      tag_361\n      jumpi\n        /* \"#utility.yul\":6345:6355   */\n      0x4e487b71\n        /* \"#utility.yul\":6340:6343   */\n      0xe0\n        /* \"#utility.yul\":6336:6356   */\n      shl\n        /* \"#utility.yul\":6333:6334   */\n      0x00\n        /* \"#utility.yul\":6326:6357   */\n      mstore\n        /* \"#utility.yul\":6380:6384   */\n      0x11\n        /* \"#utility.yul\":6377:6378   */\n      0x04\n        /* \"#utility.yul\":6370:6385   */\n      mstore\n        /* \"#utility.yul\":6408:6412   */\n      0x24\n        /* \"#utility.yul\":6405:6406   */\n      0x00\n        /* \"#utility.yul\":6398:6413   */\n      revert\n        /* \"#utility.yul\":6283:6423   */\n    tag_361:\n      pop\n        /* \"#utility.yul\":6450:6451   */\n      0x01\n        /* \"#utility.yul\":6439:6452   */\n      add\n      swap1\n        /* \"#utility.yul\":6226:6458   */\n      jump\t// out\n        /* \"#utility.yul\":6463:6985   */\n    tag_280:\n        /* \"#utility.yul\":6541:6545   */\n      0x00\n        /* \"#utility.yul\":6547:6553   */\n      0x00\n        /* \"#utility.yul\":6607:6618   */\n      dup4\n        /* \"#utility.yul\":6594:6619   */\n      calldataload\n        /* \"#utility.yul\":6701:6703   */\n      0x1e\n        /* \"#utility.yul\":6697:6704   */\n      not\n        /* \"#utility.yul\":6686:6694   */\n      dup5\n        /* \"#utility.yul\":6670:6684   */\n      calldatasize\n        /* \"#utility.yul\":6666:6695   */\n      sub\n        /* \"#utility.yul\":6662:6705   */\n      add\n        /* \"#utility.yul\":6642:6660   */\n      dup2\n        /* \"#utility.yul\":6638:6706   */\n      slt\n        /* \"#utility.yul\":6628:6724   */\n      tag_363\n      jumpi\n        /* \"#utility.yul\":6720:6721   */\n      0x00\n        /* \"#utility.yul\":6717:6718   */\n      0x00\n        /* \"#utility.yul\":6710:6722   */\n      revert\n        /* \"#utility.yul\":6628:6724   */\n    tag_363:\n        /* \"#utility.yul\":6747:6780   */\n      dup4\n      add\n        /* \"#utility.yul\":6799:6819   */\n      dup1\n      calldataload\n      swap2\n      pop\n      sub(shl(0x40, 0x01), 0x01)\n        /* \"#utility.yul\":6831:6861   */\n      dup3\n      gt\n        /* \"#utility.yul\":6828:6878   */\n      iszero\n      tag_364\n      jumpi\n        /* \"#utility.yul\":6874:6875   */\n      0x00\n        /* \"#utility.yul\":6871:6872   */\n      0x00\n        /* \"#utility.yul\":6864:6876   */\n      revert\n        /* \"#utility.yul\":6828:6878   */\n    tag_364:\n        /* \"#utility.yul\":6907:6911   */\n      0x20\n        /* \"#utility.yul\":6895:6912   */\n      add\n      swap2\n      pop\n        /* \"#utility.yul\":6938:6952   */\n      calldatasize\n        /* \"#utility.yul\":6934:6961   */\n      dup2\n      swap1\n      sub\n        /* \"#utility.yul\":6924:6962   */\n      dup3\n      sgt\n        /* \"#utility.yul\":6921:6979   */\n      iszero\n      tag_365\n      jumpi\n        /* \"#utility.yul\":6975:6976   */\n      0x00\n        /* \"#utility.yul\":6972:6973   */\n      0x00\n        /* \"#utility.yul\":6965:6977   */\n      revert\n        /* \"#utility.yul\":6921:6979   */\n    tag_365:\n        /* \"#utility.yul\":6463:6985   */\n      swap3\n      pop\n      swap3\n      swap1\n      pop\n      jump\t// out\n        /* \"#utility.yul\":6990:7261   */\n    tag_282:\n        /* \"#utility.yul\":7173:7179   */\n      dup2\n        /* \"#utility.yul\":7165:7171   */\n      dup4\n        /* \"#utility.yul\":7160:7163   */\n      dup3\n        /* \"#utility.yul\":7147:7180   */\n      calldatacopy\n        /* \"#utility.yul\":7129:7132   */\n      0x00\n        /* \"#utility.yul\":7199:7215   */\n      swap2\n      add\n        /* \"#utility.yul\":7224:7237   */\n      swap1\n      dup2\n      mstore\n        /* \"#utility.yul\":7199:7215   */\n      swap2\n        /* \"#utility.yul\":6990:7261   */\n      swap1\n      pop\n      jump\t// out\n        /* \"#utility.yul\":7614:7864   */\n    tag_314:\n        /* \"#utility.yul\":7681:7683   */\n      0x40\n        /* \"#utility.yul\":7675:7684   */\n      mload\n        /* \"#utility.yul\":7723:7729   */\n      0x0220\n        /* \"#utility.yul\":7711:7730   */\n      dup2\n      add\n      sub(shl(0x40, 0x01), 0x01)\n        /* \"#utility.yul\":7745:7779   */\n      dup2\n      gt\n        /* \"#utility.yul\":7781:7803   */\n      dup3\n      dup3\n      lt\n        /* \"#utility.yul\":7742:7804   */\n      or\n        /* \"#utility.yul\":7739:7827   */\n      iszero\n      tag_370\n      jumpi\n        /* \"#utility.yul\":7807:7825   */\n      tag_370\n      tag_38\n      jump\t// in\n    tag_370:\n        /* \"#utility.yul\":7843:7845   */\n      0x40\n        /* \"#utility.yul\":7836:7858   */\n      mstore\n        /* \"#utility.yul\":7614:7864   */\n      swap1\n      jump\t// out\n        /* \"#utility.yul\":7869:8615   */\n    tag_315:\n        /* \"#utility.yul\":7912:7917   */\n      0x00\n        /* \"#utility.yul\":7965:7968   */\n      dup3\n        /* \"#utility.yul\":7958:7962   */\n      0x1f\n        /* \"#utility.yul\":7950:7956   */\n      dup4\n        /* \"#utility.yul\":7946:7963   */\n      add\n        /* \"#utility.yul\":7942:7969   */\n      slt\n        /* \"#utility.yul\":7932:7987   */\n      tag_372\n      jumpi\n        /* \"#utility.yul\":7983:7984   */\n      0x00\n        /* \"#utility.yul\":7980:7981   */\n      0x00\n        /* \"#utility.yul\":7973:7985   */\n      revert\n        /* \"#utility.yul\":7932:7987   */\n    tag_372:\n        /* \"#utility.yul\":8023:8029   */\n      dup2\n        /* \"#utility.yul\":8010:8030   */\n      calldataload\n      sub(shl(0x40, 0x01), 0x01)\n        /* \"#utility.yul\":8045:8051   */\n      dup2\n        /* \"#utility.yul\":8042:8072   */\n      gt\n        /* \"#utility.yul\":8039:8095   */\n      iszero\n      tag_374\n      jumpi\n        /* \"#utility.yul\":8075:8093   */\n      tag_374\n      tag_38\n      jump\t// in\n    tag_374:\n        /* \"#utility.yul\":8144:8146   */\n      0x40\n        /* \"#utility.yul\":8138:8147   */\n      mload\n        /* \"#utility.yul\":8236:8238   */\n      0x1f\n        /* \"#utility.yul\":8198:8215   */\n      dup3\n      add\n      not(0x1f)\n        /* \"#utility.yul\":8194:8225   */\n      swap1\n      dup2\n      and\n        /* \"#utility.yul\":8227:8229   */\n      0x3f\n        /* \"#utility.yul\":8190:8230   */\n      add\n        /* \"#utility.yul\":8186:8240   */\n      and\n        /* \"#utility.yul\":8174:8241   */\n      dup2\n      add\n      sub(shl(0x40, 0x01), 0x01)\n        /* \"#utility.yul\":8256:8290   */\n      dup2\n      gt\n        /* \"#utility.yul\":8292:8314   */\n      dup3\n      dup3\n      lt\n        /* \"#utility.yul\":8253:8315   */\n      or\n        /* \"#utility.yul\":8250:8338   */\n      iszero\n      tag_376\n      jumpi\n        /* \"#utility.yul\":8318:8336   */\n      tag_376\n      tag_38\n      jump\t// in\n    tag_376:\n        /* \"#utility.yul\":8354:8356   */\n      0x40\n        /* \"#utility.yul\":8347:8369   */\n      mstore\n        /* \"#utility.yul\":8378:8400   */\n      dup2\n      dup2\n      mstore\n        /* \"#utility.yul\":8419:8438   */\n      dup4\n      dup3\n      add\n        /* \"#utility.yul\":8440:8444   */\n      0x20\n        /* \"#utility.yul\":8415:8445   */\n      add\n        /* \"#utility.yul\":8412:8451   */\n      dup6\n      lt\n        /* \"#utility.yul\":8409:8468   */\n      iszero\n      tag_377\n      jumpi\n        /* \"#utility.yul\":8464:8465   */\n      0x00\n        /* \"#utility.yul\":8461:8462   */\n      0x00\n        /* \"#utility.yul\":8454:8466   */\n      revert\n        /* \"#utility.yul\":8409:8468   */\n    tag_377:\n        /* \"#utility.yul\":8528:8534   */\n      dup2\n        /* \"#utility.yul\":8521:8525   */\n      0x20\n        /* \"#utility.yul\":8513:8519   */\n      dup6\n        /* \"#utility.yul\":8509:8526   */\n      add\n        /* \"#utility.yul\":8502:8506   */\n      0x20\n        /* \"#utility.yul\":8494:8500   */\n      dup4\n        /* \"#utility.yul\":8490:8507   */\n      add\n        /* \"#utility.yul\":8477:8535   */\n      calldatacopy\n        /* \"#utility.yul\":8583:8584   */\n      0x00\n        /* \"#utility.yul\":8555:8574   */\n      swap2\n      dup2\n      add\n        /* \"#utility.yul\":8576:8580   */\n      0x20\n        /* \"#utility.yul\":8551:8581   */\n      add\n        /* \"#utility.yul\":8544:8585   */\n      swap2\n      swap1\n      swap2\n      mstore\n        /* \"#utility.yul\":8559:8565   */\n      swap4\n        /* \"#utility.yul\":7869:8615   */\n      swap3\n      pop\n      pop\n      pop\n      jump\t// out\n        /* \"#utility.yul\":8620:8780   */\n    tag_316:\n        /* \"#utility.yul\":8685:8705   */\n      dup1\n      calldataload\n        /* \"#utility.yul\":8741:8754   */\n      dup1\n      iszero\n        /* \"#utility.yul\":8734:8755   */\n      iszero\n        /* \"#utility.yul\":8724:8756   */\n      dup2\n      eq\n        /* \"#utility.yul\":8714:8774   */\n      tag_379\n      jumpi\n        /* \"#utility.yul\":8770:8771   */\n      0x00\n        /* \"#utility.yul\":8767:8768   */\n      0x00\n        /* \"#utility.yul\":8760:8772   */\n      revert\n        /* \"#utility.yul\":8714:8774   */\n    tag_379:\n        /* \"#utility.yul\":8620:8780   */\n      swap2\n      swap1\n      pop\n      jump\t// out\n        /* \"#utility.yul\":8785:11942   */\n    tag_288:\n        /* \"#utility.yul\":8893:8902   */\n      0x00\n        /* \"#utility.yul\":8952:8958   */\n      0x0220\n        /* \"#utility.yul\":8944:8949   */\n      dup3\n        /* \"#utility.yul\":8928:8942   */\n      calldatasize\n        /* \"#utility.yul\":8924:8950   */\n      sub\n        /* \"#utility.yul\":8920:8959   */\n      slt\n        /* \"#utility.yul\":8917:8976   */\n      iszero\n      tag_381\n      jumpi\n        /* \"#utility.yul\":8972:8973   */\n      0x00\n        /* \"#utility.yul\":8969:8970   */\n      0x00\n        /* \"#utility.yul\":8962:8974   */\n      revert\n        /* \"#utility.yul\":8917:8976   */\n    tag_381:\n        /* \"#utility.yul\":9000:9017   */\n      tag_382\n      tag_314\n      jump\t// in\n    tag_382:\n        /* \"#utility.yul\":9062:9081   */\n      dup3\n      calldataload\n        /* \"#utility.yul\":9090:9114   */\n      dup2\n      mstore\n        /* \"#utility.yul\":9183:9185   */\n      0x20\n        /* \"#utility.yul\":9172:9186   */\n      dup1\n      dup5\n      add\n        /* \"#utility.yul\":9159:9187   */\n      calldataload\n        /* \"#utility.yul\":9203:9219   */\n      swap1\n      dup3\n      add\n        /* \"#utility.yul\":9196:9229   */\n      mstore\n        /* \"#utility.yul\":9276:9278   */\n      0x40\n        /* \"#utility.yul\":9265:9279   */\n      dup4\n      add\n        /* \"#utility.yul\":9252:9280   */\n      calldataload\n      sub(shl(0x40, 0x01), 0x01)\n        /* \"#utility.yul\":9292:9322   */\n      dup2\n      gt\n        /* \"#utility.yul\":9289:9339   */\n      iszero\n      tag_383\n      jumpi\n        /* \"#utility.yul\":9335:9336   */\n      0x00\n        /* \"#utility.yul\":9332:9333   */\n      0x00\n        /* \"#utility.yul\":9325:9337   */\n      revert\n        /* \"#utility.yul\":9289:9339   */\n    tag_383:\n        /* \"#utility.yul\":9373:9426   */\n      tag_384\n        /* \"#utility.yul\":9411:9425   */\n      calldatasize\n        /* \"#utility.yul\":9402:9408   */\n      dup3\n        /* \"#utility.yul\":9395:9400   */\n      dup7\n        /* \"#utility.yul\":9391:9409   */\n      add\n        /* \"#utility.yul\":9373:9426   */\n      tag_315\n      jump\t// in\n    tag_384:\n        /* \"#utility.yul\":9368:9370   */\n      0x40\n        /* \"#utility.yul\":9359:9366   */\n      dup4\n        /* \"#utility.yul\":9355:9371   */\n      add\n        /* \"#utility.yul\":9348:9427   */\n      mstore\n      pop\n        /* \"#utility.yul\":9476:9478   */\n      0x60\n        /* \"#utility.yul\":9469:9474   */\n      dup4\n        /* \"#utility.yul\":9465:9479   */\n      add\n        /* \"#utility.yul\":9452:9480   */\n      calldataload\n      sub(shl(0x40, 0x01), 0x01)\n        /* \"#utility.yul\":9495:9503   */\n      dup2\n        /* \"#utility.yul\":9492:9524   */\n      gt\n        /* \"#utility.yul\":9489:9541   */\n      iszero\n      tag_385\n      jumpi\n        /* \"#utility.yul\":9537:9538   */\n      0x00\n        /* \"#utility.yul\":9534:9535   */\n      0x00\n        /* \"#utility.yul\":9527:9539   */\n      revert\n        /* \"#utility.yul\":9489:9541   */\n    tag_385:\n        /* \"#utility.yul\":9575:9630   */\n      tag_386\n        /* \"#utility.yul\":9615:9629   */\n      calldatasize\n        /* \"#utility.yul\":9604:9612   */\n      dup3\n        /* \"#utility.yul\":9597:9602   */\n      dup7\n        /* \"#utility.yul\":9593:9613   */\n      add\n        /* \"#utility.yul\":9575:9630   */\n      tag_315\n      jump\t// in\n    tag_386:\n        /* \"#utility.yul\":9570:9572   */\n      0x60\n        /* \"#utility.yul\":9557:9573   */\n      dup4\n      add\n        /* \"#utility.yul\":9550:9631   */\n      mstore\n      pop\n        /* \"#utility.yul\":9700:9703   */\n      0x80\n        /* \"#utility.yul\":9689:9704   */\n      dup4\n      dup2\n      add\n        /* \"#utility.yul\":9676:9705   */\n      calldataload\n        /* \"#utility.yul\":9721:9738   */\n      swap1\n      dup3\n      add\n        /* \"#utility.yul\":9714:9748   */\n      mstore\n        /* \"#utility.yul\":9817:9820   */\n      0xa0\n        /* \"#utility.yul\":9806:9821   */\n      dup1\n      dup5\n      add\n        /* \"#utility.yul\":9793:9822   */\n      calldataload\n        /* \"#utility.yul\":9838:9855   */\n      swap1\n      dup3\n      add\n        /* \"#utility.yul\":9831:9865   */\n      mstore\n        /* \"#utility.yul\":9914:9917   */\n      0xc0\n        /* \"#utility.yul\":9903:9918   */\n      dup4\n      add\n        /* \"#utility.yul\":9890:9919   */\n      calldataload\n      sub(shl(0x40, 0x01), 0x01)\n        /* \"#utility.yul\":9931:9963   */\n      dup2\n      gt\n        /* \"#utility.yul\":9928:9980   */\n      iszero\n      tag_387\n      jumpi\n        /* \"#utility.yul\":9976:9977   */\n      0x00\n        /* \"#utility.yul\":9973:9974   */\n      0x00\n        /* \"#utility.yul\":9966:9978   */\n      revert\n        /* \"#utility.yul\":9928:9980   */\n    tag_387:\n        /* \"#utility.yul\":10015:10070   */\n      tag_388\n        /* \"#utility.yul\":10055:10069   */\n      calldatasize\n        /* \"#utility.yul\":10044:10052   */\n      dup3\n        /* \"#utility.yul\":10037:10042   */\n      dup7\n        /* \"#utility.yul\":10033:10053   */\n      add\n        /* \"#utility.yul\":10015:10070   */\n      tag_315\n      jump\t// in\n    tag_388:\n        /* \"#utility.yul\":10009:10012   */\n      0xc0\n        /* \"#utility.yul\":10000:10007   */\n      dup4\n        /* \"#utility.yul\":9996:10013   */\n      add\n        /* \"#utility.yul\":9989:10071   */\n      mstore\n      pop\n        /* \"#utility.yul\":10120:10123   */\n      0xe0\n        /* \"#utility.yul\":10113:10118   */\n      dup4\n        /* \"#utility.yul\":10109:10124   */\n      add\n        /* \"#utility.yul\":10096:10125   */\n      calldataload\n      sub(shl(0x40, 0x01), 0x01)\n        /* \"#utility.yul\":10140:10148   */\n      dup2\n        /* \"#utility.yul\":10137:10169   */\n      gt\n        /* \"#utility.yul\":10134:10186   */\n      iszero\n      tag_389\n      jumpi\n        /* \"#utility.yul\":10182:10183   */\n      0x00\n        /* \"#utility.yul\":10179:10180   */\n      0x00\n        /* \"#utility.yul\":10172:10184   */\n      revert\n        /* \"#utility.yul\":10134:10186   */\n    tag_389:\n        /* \"#utility.yul\":10221:10276   */\n      tag_390\n        /* \"#utility.yul\":10261:10275   */\n      calldatasize\n        /* \"#utility.yul\":10250:10258   */\n      dup3\n        /* \"#utility.yul\":10243:10248   */\n      dup7\n        /* \"#utility.yul\":10239:10259   */\n      add\n        /* \"#utility.yul\":10221:10276   */\n      tag_315\n      jump\t// in\n    tag_390:\n        /* \"#utility.yul\":10215:10218   */\n      0xe0\n        /* \"#utility.yul\":10206:10213   */\n      dup4\n        /* \"#utility.yul\":10202:10219   */\n      add\n        /* \"#utility.yul\":10195:10277   */\n      mstore\n      pop\n        /* \"#utility.yul\":10326:10329   */\n      0x0100\n        /* \"#utility.yul\":10319:10324   */\n      dup4\n        /* \"#utility.yul\":10315:10330   */\n      add\n        /* \"#utility.yul\":10302:10331   */\n      calldataload\n      sub(shl(0x40, 0x01), 0x01)\n        /* \"#utility.yul\":10346:10354   */\n      dup2\n        /* \"#utility.yul\":10343:10375   */\n      gt\n        /* \"#utility.yul\":10340:10392   */\n      iszero\n      tag_391\n      jumpi\n        /* \"#utility.yul\":10388:10389   */\n      0x00\n        /* \"#utility.yul\":10385:10386   */\n      0x00\n        /* \"#utility.yul\":10378:10390   */\n      revert\n        /* \"#utility.yul\":10340:10392   */\n    tag_391:\n        /* \"#utility.yul\":10427:10482   */\n      tag_392\n        /* \"#utility.yul\":10467:10481   */\n      calldatasize\n        /* \"#utility.yul\":10456:10464   */\n      dup3\n        /* \"#utility.yul\":10449:10454   */\n      dup7\n        /* \"#utility.yul\":10445:10465   */\n      add\n        /* \"#utility.yul\":10427:10482   */\n      tag_315\n      jump\t// in\n    tag_392:\n        /* \"#utility.yul\":10421:10424   */\n      0x0100\n        /* \"#utility.yul\":10412:10419   */\n      dup4\n        /* \"#utility.yul\":10408:10425   */\n      add\n        /* \"#utility.yul\":10401:10483   */\n      mstore\n      pop\n        /* \"#utility.yul\":10532:10535   */\n      0x0120\n        /* \"#utility.yul\":10525:10530   */\n      dup4\n        /* \"#utility.yul\":10521:10536   */\n      add\n        /* \"#utility.yul\":10508:10537   */\n      calldataload\n      sub(shl(0x40, 0x01), 0x01)\n        /* \"#utility.yul\":10552:10560   */\n      dup2\n        /* \"#utility.yul\":10549:10581   */\n      gt\n        /* \"#utility.yul\":10546:10598   */\n      iszero\n      tag_393\n      jumpi\n        /* \"#utility.yul\":10594:10595   */\n      0x00\n        /* \"#utility.yul\":10591:10592   */\n      0x00\n        /* \"#utility.yul\":10584:10596   */\n      revert\n        /* \"#utility.yul\":10546:10598   */\n    tag_393:\n        /* \"#utility.yul\":10633:10688   */\n      tag_394\n        /* \"#utility.yul\":10673:10687   */\n      calldatasize\n        /* \"#utility.yul\":10662:10670   */\n      dup3\n        /* \"#utility.yul\":10655:10660   */\n      dup7\n        /* \"#utility.yul\":10651:10671   */\n      add\n        /* \"#utility.yul\":10633:10688   */\n      tag_315\n      jump\t// in\n    tag_394:\n        /* \"#utility.yul\":10627:10630   */\n      0x0120\n        /* \"#utility.yul\":10618:10625   */\n      dup4\n        /* \"#utility.yul\":10614:10631   */\n      add\n        /* \"#utility.yul\":10607:10689   */\n      mstore\n      pop\n        /* \"#utility.yul\":10738:10741   */\n      0x0140\n        /* \"#utility.yul\":10731:10736   */\n      dup4\n        /* \"#utility.yul\":10727:10742   */\n      add\n        /* \"#utility.yul\":10714:10743   */\n      calldataload\n      sub(shl(0x40, 0x01), 0x01)\n        /* \"#utility.yul\":10758:10766   */\n      dup2\n        /* \"#utility.yul\":10755:10787   */\n      gt\n        /* \"#utility.yul\":10752:10804   */\n      iszero\n      tag_395\n      jumpi\n        /* \"#utility.yul\":10800:10801   */\n      0x00\n        /* \"#utility.yul\":10797:10798   */\n      0x00\n        /* \"#utility.yul\":10790:10802   */\n      revert\n        /* \"#utility.yul\":10752:10804   */\n    tag_395:\n        /* \"#utility.yul\":10839:10894   */\n      tag_396\n        /* \"#utility.yul\":10879:10893   */\n      calldatasize\n        /* \"#utility.yul\":10868:10876   */\n      dup3\n        /* \"#utility.yul\":10861:10866   */\n      dup7\n        /* \"#utility.yul\":10857:10877   */\n      add\n        /* \"#utility.yul\":10839:10894   */\n      tag_315\n      jump\t// in\n    tag_396:\n        /* \"#utility.yul\":10833:10836   */\n      0x0140\n        /* \"#utility.yul\":10820:10837   */\n      dup4\n      add\n        /* \"#utility.yul\":10813:10895   */\n      mstore\n      pop\n        /* \"#utility.yul\":10964:10967   */\n      0x0160\n        /* \"#utility.yul\":10953:10968   */\n      dup4\n      dup2\n      add\n        /* \"#utility.yul\":10940:10969   */\n      calldataload\n        /* \"#utility.yul\":10985:11002   */\n      swap1\n      dup3\n      add\n        /* \"#utility.yul\":10978:11012   */\n      mstore\n        /* \"#utility.yul\":11047:11079   */\n      tag_397\n        /* \"#utility.yul\":11074:11077   */\n      0x0180\n        /* \"#utility.yul\":11063:11078   */\n      dup5\n      add\n        /* \"#utility.yul\":11047:11079   */\n      tag_316\n      jump\t// in\n    tag_397:\n        /* \"#utility.yul\":11041:11044   */\n      0x0180\n        /* \"#utility.yul\":11032:11039   */\n      dup3\n        /* \"#utility.yul\":11028:11045   */\n      add\n        /* \"#utility.yul\":11021:11080   */\n      mstore\n        /* \"#utility.yul\":11129:11132   */\n      0x01a0\n        /* \"#utility.yul\":11122:11127   */\n      dup4\n        /* \"#utility.yul\":11118:11133   */\n      add\n        /* \"#utility.yul\":11105:11134   */\n      calldataload\n      sub(shl(0x40, 0x01), 0x01)\n        /* \"#utility.yul\":11149:11157   */\n      dup2\n        /* \"#utility.yul\":11146:11178   */\n      gt\n        /* \"#utility.yul\":11143:11195   */\n      iszero\n      tag_398\n      jumpi\n        /* \"#utility.yul\":11191:11192   */\n      0x00\n        /* \"#utility.yul\":11188:11189   */\n      0x00\n        /* \"#utility.yul\":11181:11193   */\n      revert\n        /* \"#utility.yul\":11143:11195   */\n    tag_398:\n        /* \"#utility.yul\":11230:11285   */\n      tag_399\n        /* \"#utility.yul\":11270:11284   */\n      calldatasize\n        /* \"#utility.yul\":11259:11267   */\n      dup3\n        /* \"#utility.yul\":11252:11257   */\n      dup7\n        /* \"#utility.yul\":11248:11268   */\n      add\n        /* \"#utility.yul\":11230:11285   */\n      tag_315\n      jump\t// in\n    tag_399:\n        /* \"#utility.yul\":11224:11227   */\n      0x01a0\n        /* \"#utility.yul\":11215:11222   */\n      dup4\n        /* \"#utility.yul\":11211:11228   */\n      add\n        /* \"#utility.yul\":11204:11286   */\n      mstore\n      pop\n        /* \"#utility.yul\":11335:11338   */\n      0x01c0\n        /* \"#utility.yul\":11328:11333   */\n      dup4\n        /* \"#utility.yul\":11324:11339   */\n      add\n        /* \"#utility.yul\":11311:11340   */\n      calldataload\n      sub(shl(0x40, 0x01), 0x01)\n        /* \"#utility.yul\":11355:11363   */\n      dup2\n        /* \"#utility.yul\":11352:11384   */\n      gt\n        /* \"#utility.yul\":11349:11401   */\n      iszero\n      tag_400\n      jumpi\n        /* \"#utility.yul\":11397:11398   */\n      0x00\n        /* \"#utility.yul\":11394:11395   */\n      0x00\n        /* \"#utility.yul\":11387:11399   */\n      revert\n        /* \"#utility.yul\":11349:11401   */\n    tag_400:\n        /* \"#utility.yul\":11436:11491   */\n      tag_401\n        /* \"#utility.yul\":11476:11490   */\n      calldatasize\n        /* \"#utility.yul\":11465:11473   */\n      dup3\n        /* \"#utility.yul\":11458:11463   */\n      dup7\n        /* \"#utility.yul\":11454:11474   */\n      add\n        /* \"#utility.yul\":11436:11491   */\n      tag_315\n      jump\t// in\n    tag_401:\n        /* \"#utility.yul\":11430:11433   */\n      0x01c0\n        /* \"#utility.yul\":11421:11428   */\n      dup4\n        /* \"#utility.yul\":11417:11434   */\n      add\n        /* \"#utility.yul\":11410:11492   */\n      mstore\n      pop\n        /* \"#utility.yul\":11541:11544   */\n      0x01e0\n        /* \"#utility.yul\":11534:11539   */\n      dup4\n        /* \"#utility.yul\":11530:11545   */\n      add\n        /* \"#utility.yul\":11517:11546   */\n      calldataload\n      sub(shl(0x40, 0x01), 0x01)\n        /* \"#utility.yul\":11561:11569   */\n      dup2\n        /* \"#utility.yul\":11558:11590   */\n      gt\n        /* \"#utility.yul\":11555:11607   */\n      iszero\n      tag_402\n      jumpi\n        /* \"#utility.yul\":11603:11604   */\n      0x00\n        /* \"#utility.yul\":11600:11601   */\n      0x00\n        /* \"#utility.yul\":11593:11605   */\n      revert\n        /* \"#utility.yul\":11555:11607   */\n    tag_402:\n        /* \"#utility.yul\":11642:11697   */\n      tag_403\n        /* \"#utility.yul\":11682:11696   */\n      calldatasize\n        /* \"#utility.yul\":11671:11679   */\n      dup3\n        /* \"#utility.yul\":11664:11669   */\n      dup7\n        /* \"#utility.yul\":11660:11680   */\n      add\n        /* \"#utility.yul\":11642:11697   */\n      tag_315\n      jump\t// in\n    tag_403:\n        /* \"#utility.yul\":11636:11639   */\n      0x01e0\n        /* \"#utility.yul\":11627:11634   */\n      dup4\n        /* \"#utility.yul\":11623:11640   */\n      add\n        /* \"#utility.yul\":11616:11698   */\n      mstore\n      pop\n        /* \"#utility.yul\":11748:11751   */\n      0x0200\n        /* \"#utility.yul\":11741:11746   */\n      dup4\n        /* \"#utility.yul\":11737:11752   */\n      add\n        /* \"#utility.yul\":11724:11753   */\n      calldataload\n      sub(shl(0x40, 0x01), 0x01)\n        /* \"#utility.yul\":11768:11777   */\n      dup2\n        /* \"#utility.yul\":11765:11798   */\n      gt\n        /* \"#utility.yul\":11762:11815   */\n      iszero\n      tag_404\n      jumpi\n        /* \"#utility.yul\":11811:11812   */\n      0x00\n        /* \"#utility.yul\":11808:11809   */\n      0x00\n        /* \"#utility.yul\":11801:11813   */\n      revert\n        /* \"#utility.yul\":11762:11815   */\n    tag_404:\n        /* \"#utility.yul\":11850:11906   */\n      tag_405\n        /* \"#utility.yul\":11891:11905   */\n      calldatasize\n        /* \"#utility.yul\":11879:11888   */\n      dup3\n        /* \"#utility.yul\":11872:11877   */\n      dup7\n        /* \"#utility.yul\":11868:11889   */\n      add\n        /* \"#utility.yul\":11850:11906   */\n      tag_315\n      jump\t// in\n    tag_405:\n        /* \"#utility.yul\":11844:11847   */\n      0x0200\n        /* \"#utility.yul\":11831:11848   */\n      dup4\n      add\n        /* \"#utility.yul\":11824:11907   */\n      mstore\n      pop\n        /* \"#utility.yul\":11835:11842   */\n      swap3\n        /* \"#utility.yul\":8785:11942   */\n      swap2\n      pop\n      pop\n      jump\t// out\n        /* \"#utility.yul\":12073:12591   */\n    tag_318:\n        /* \"#utility.yul\":12175:12177   */\n      0x1f\n        /* \"#utility.yul\":12170:12173   */\n      dup3\n        /* \"#utility.yul\":12167:12178   */\n      gt\n        /* \"#utility.yul\":12164:12585   */\n      iszero\n      tag_408\n      jumpi\n        /* \"#utility.yul\":12211:12216   */\n      dup1\n        /* \"#utility.yul\":12208:12209   */\n      0x00\n        /* \"#utility.yul\":12201:12217   */\n      mstore\n        /* \"#utility.yul\":12255:12259   */\n      0x20\n        /* \"#utility.yul\":12252:12253   */\n      0x00\n        /* \"#utility.yul\":12242:12260   */\n      keccak256\n        /* \"#utility.yul\":12325:12327   */\n      0x1f\n        /* \"#utility.yul\":12313:12323   */\n      dup5\n        /* \"#utility.yul\":12309:12328   */\n      add\n        /* \"#utility.yul\":12306:12307   */\n      0x05\n        /* \"#utility.yul\":12302:12329   */\n      shr\n        /* \"#utility.yul\":12296:12300   */\n      dup2\n        /* \"#utility.yul\":12292:12330   */\n      add\n        /* \"#utility.yul\":12361:12365   */\n      0x20\n        /* \"#utility.yul\":12349:12359   */\n      dup6\n        /* \"#utility.yul\":12346:12366   */\n      lt\n        /* \"#utility.yul\":12343:12390   */\n      iszero\n      tag_409\n      jumpi\n      pop\n        /* \"#utility.yul\":12384:12388   */\n      dup1\n        /* \"#utility.yul\":12343:12390   */\n    tag_409:\n        /* \"#utility.yul\":12439:12441   */\n      0x1f\n        /* \"#utility.yul\":12434:12437   */\n      dup5\n        /* \"#utility.yul\":12430:12442   */\n      add\n        /* \"#utility.yul\":12427:12428   */\n      0x05\n        /* \"#utility.yul\":12423:12443   */\n      shr\n        /* \"#utility.yul\":12417:12421   */\n      dup3\n        /* \"#utility.yul\":12413:12444   */\n      add\n        /* \"#utility.yul\":12403:12444   */\n      swap2\n      pop\n        /* \"#utility.yul\":12494:12575   */\n    tag_410:\n        /* \"#utility.yul\":12512:12514   */\n      dup2\n        /* \"#utility.yul\":12505:12510   */\n      dup2\n        /* \"#utility.yul\":12502:12515   */\n      lt\n        /* \"#utility.yul\":12494:12575   */\n      iszero\n      tag_412\n      jumpi\n        /* \"#utility.yul\":12571:12572   */\n      0x00\n        /* \"#utility.yul\":12557:12573   */\n      dup2\n      sstore\n        /* \"#utility.yul\":12538:12539   */\n      0x01\n        /* \"#utility.yul\":12527:12540   */\n      add\n        /* \"#utility.yul\":12494:12575   */\n      jump(tag_410)\n    tag_412:\n        /* \"#utility.yul\":12498:12501   */\n      pop\n      pop\n        /* \"#utility.yul\":12164:12585   */\n    tag_408:\n        /* \"#utility.yul\":12073:12591   */\n      pop\n      pop\n      pop\n      jump\t// out\n        /* \"#utility.yul\":12767:14066   */\n    tag_290:\n        /* \"#utility.yul\":12893:12896   */\n      dup2\n        /* \"#utility.yul\":12887:12897   */\n      mload\n      sub(shl(0x40, 0x01), 0x01)\n        /* \"#utility.yul\":12912:12918   */\n      dup2\n        /* \"#utility.yul\":12909:12939   */\n      gt\n        /* \"#utility.yul\":12906:12962   */\n      iszero\n      tag_416\n      jumpi\n        /* \"#utility.yul\":12942:12960   */\n      tag_416\n      tag_38\n      jump\t// in\n    tag_416:\n        /* \"#utility.yul\":12971:13068   */\n      tag_417\n        /* \"#utility.yul\":13061:13067   */\n      dup2\n        /* \"#utility.yul\":13021:13059   */\n      tag_418\n        /* \"#utility.yul\":13053:13057   */\n      dup5\n        /* \"#utility.yul\":13047:13058   */\n      sload\n        /* \"#utility.yul\":13021:13059   */\n      tag_51\n      jump\t// in\n    tag_418:\n        /* \"#utility.yul\":13015:13019   */\n      dup5\n        /* \"#utility.yul\":12971:13068   */\n      tag_318\n      jump\t// in\n    tag_417:\n        /* \"#utility.yul\":13117:13121   */\n      0x20\n        /* \"#utility.yul\":13148:13150   */\n      0x1f\n        /* \"#utility.yul\":13137:13151   */\n      dup3\n      gt\n        /* \"#utility.yul\":13165:13166   */\n      0x01\n        /* \"#utility.yul\":13160:13809   */\n      dup2\n      eq\n      tag_420\n      jumpi\n        /* \"#utility.yul\":13853:13854   */\n      0x00\n        /* \"#utility.yul\":13870:13876   */\n      dup4\n        /* \"#utility.yul\":13867:13956   */\n      iszero\n      tag_421\n      jumpi\n      pop\n        /* \"#utility.yul\":13922:13941   */\n      dup5\n      dup3\n      add\n        /* \"#utility.yul\":13916:13942   */\n      mload\n        /* \"#utility.yul\":13867:13956   */\n    tag_421:\n      not(0x00)\n        /* \"#utility.yul\":12724:12725   */\n      0x03\n        /* \"#utility.yul\":12720:12731   */\n      dup6\n      swap1\n      shl\n        /* \"#utility.yul\":12716:12740   */\n      shr\n        /* \"#utility.yul\":12712:12741   */\n      not\n        /* \"#utility.yul\":12702:12742   */\n      and\n        /* \"#utility.yul\":12748:12749   */\n      0x01\n        /* \"#utility.yul\":12744:12755   */\n      dup5\n      swap1\n      shl\n        /* \"#utility.yul\":12699:12756   */\n      or\n        /* \"#utility.yul\":13969:14050   */\n      dup5\n      sstore\n        /* \"#utility.yul\":13130:14060   */\n      jump(tag_412)\n        /* \"#utility.yul\":13160:13809   */\n    tag_420:\n        /* \"#utility.yul\":12020:12021   */\n      0x00\n        /* \"#utility.yul\":12013:12027   */\n      dup5\n      dup2\n      mstore\n        /* \"#utility.yul\":12057:12061   */\n      0x20\n        /* \"#utility.yul\":12044:12062   */\n      dup2\n      keccak256\n      not(0x1f)\n        /* \"#utility.yul\":13196:13216   */\n      dup6\n      and\n      swap2\n        /* \"#utility.yul\":13314:13536   */\n    tag_424:\n        /* \"#utility.yul\":13328:13335   */\n      dup3\n        /* \"#utility.yul\":13325:13326   */\n      dup2\n        /* \"#utility.yul\":13322:13336   */\n      lt\n        /* \"#utility.yul\":13314:13536   */\n      iszero\n      tag_426\n      jumpi\n        /* \"#utility.yul\":13410:13429   */\n      dup8\n      dup6\n      add\n        /* \"#utility.yul\":13404:13430   */\n      mload\n        /* \"#utility.yul\":13389:13431   */\n      dup3\n      sstore\n        /* \"#utility.yul\":13517:13521   */\n      0x20\n        /* \"#utility.yul\":13502:13522   */\n      swap5\n      dup6\n      add\n      swap5\n        /* \"#utility.yul\":13470:13471   */\n      0x01\n        /* \"#utility.yul\":13458:13472   */\n      swap1\n      swap3\n      add\n      swap2\n        /* \"#utility.yul\":13344:13356   */\n      add\n        /* \"#utility.yul\":13314:13536   */\n      jump(tag_424)\n    tag_426:\n        /* \"#utility.yul\":13318:13321   */\n      pop\n        /* \"#utility.yul\":13564:13570   */\n      dup5\n        /* \"#utility.yul\":13555:13562   */\n      dup3\n        /* \"#utility.yul\":13552:13571   */\n      lt\n        /* \"#utility.yul\":13549:13750   */\n      iszero\n      tag_427\n      jumpi\n        /* \"#utility.yul\":13625:13644   */\n      dup7\n      dup5\n      add\n        /* \"#utility.yul\":13619:13645   */\n      mload\n      not(0x00)\n        /* \"#utility.yul\":13708:13709   */\n      0x03\n        /* \"#utility.yul\":13704:13718   */\n      dup8\n      swap1\n      shl\n        /* \"#utility.yul\":13720:13723   */\n      0xf8\n        /* \"#utility.yul\":13700:13724   */\n      and\n        /* \"#utility.yul\":13696:13733   */\n      shr\n        /* \"#utility.yul\":13692:13734   */\n      not\n        /* \"#utility.yul\":13677:13735   */\n      and\n        /* \"#utility.yul\":13662:13736   */\n      dup2\n      sstore\n        /* \"#utility.yul\":13549:13750   */\n    tag_427:\n      pop\n      pop\n      pop\n      pop\n        /* \"#utility.yul\":13796:13797   */\n      0x01\n        /* \"#utility.yul\":13780:13794   */\n      swap1\n      dup2\n      shl\n        /* \"#utility.yul\":13776:13798   */\n      add\n        /* \"#utility.yul\":13763:13799   */\n      swap1\n      sstore\n      pop\n        /* \"#utility.yul\":12767:14066   */\n      jump\t// out\n        /* \"#utility.yul\":14071:14338   */\n    tag_320:\n        /* \"#utility.yul\":14160:14166   */\n      dup2\n        /* \"#utility.yul\":14155:14158   */\n      dup4\n        /* \"#utility.yul\":14148:14167   */\n      mstore\n        /* \"#utility.yul\":14212:14218   */\n      dup2\n        /* \"#utility.yul\":14205:14210   */\n      dup2\n        /* \"#utility.yul\":14198:14202   */\n      0x20\n        /* \"#utility.yul\":14193:14196   */\n      dup6\n        /* \"#utility.yul\":14189:14203   */\n      add\n        /* \"#utility.yul\":14176:14219   */\n      calldatacopy\n      pop\n        /* \"#utility.yul\":14264:14265   */\n      0x00\n        /* \"#utility.yul\":14239:14255   */\n      dup3\n      dup3\n      add\n        /* \"#utility.yul\":14257:14261   */\n      0x20\n        /* \"#utility.yul\":14235:14262   */\n      swap1\n      dup2\n      add\n        /* \"#utility.yul\":14228:14266   */\n      swap2\n      swap1\n      swap2\n      mstore\n        /* \"#utility.yul\":14320:14322   */\n      0x1f\n        /* \"#utility.yul\":14299:14314   */\n      swap1\n      swap2\n      add\n      not(0x1f)\n        /* \"#utility.yul\":14295:14324   */\n      and\n        /* \"#utility.yul\":14286:14325   */\n      swap1\n      swap2\n      add\n        /* \"#utility.yul\":14282:14332   */\n      add\n      swap1\n        /* \"#utility.yul\":14071:14338   */\n      jump\t// out\n        /* \"#utility.yul\":14343:15043   */\n    tag_308:\n        /* \"#utility.yul\":14646:14652   */\n      dup8\n        /* \"#utility.yul\":14635:14644   */\n      dup2\n        /* \"#utility.yul\":14628:14653   */\n      mstore\n        /* \"#utility.yul\":14689:14692   */\n      0x80\n        /* \"#utility.yul\":14684:14686   */\n      0x20\n        /* \"#utility.yul\":14673:14682   */\n      dup3\n        /* \"#utility.yul\":14669:14687   */\n      add\n        /* \"#utility.yul\":14662:14693   */\n      mstore\n        /* \"#utility.yul\":14609:14613   */\n      0x00\n        /* \"#utility.yul\":14716:14779   */\n      tag_430\n        /* \"#utility.yul\":14774:14777   */\n      0x80\n        /* \"#utility.yul\":14763:14772   */\n      dup4\n        /* \"#utility.yul\":14759:14778   */\n      add\n        /* \"#utility.yul\":14751:14757   */\n      dup9\n        /* \"#utility.yul\":14743:14749   */\n      dup11\n        /* \"#utility.yul\":14716:14779   */\n      tag_320\n      jump\t// in\n    tag_430:\n        /* \"#utility.yul\":14827:14836   */\n      dup3\n        /* \"#utility.yul\":14819:14825   */\n      dup2\n        /* \"#utility.yul\":14815:14837   */\n      sub\n        /* \"#utility.yul\":14810:14812   */\n      0x40\n        /* \"#utility.yul\":14799:14808   */\n      dup5\n        /* \"#utility.yul\":14795:14813   */\n      add\n        /* \"#utility.yul\":14788:14838   */\n      mstore\n        /* \"#utility.yul\":14861:14911   */\n      tag_431\n        /* \"#utility.yul\":14904:14910   */\n      dup2\n        /* \"#utility.yul\":14896:14902   */\n      dup8\n        /* \"#utility.yul\":14888:14894   */\n      dup10\n        /* \"#utility.yul\":14861:14911   */\n      tag_320\n      jump\t// in\n    tag_431:\n        /* \"#utility.yul\":14847:14911   */\n      swap1\n      pop\n        /* \"#utility.yul\":14959:14968   */\n      dup3\n        /* \"#utility.yul\":14951:14957   */\n      dup2\n        /* \"#utility.yul\":14947:14969   */\n      sub\n        /* \"#utility.yul\":14942:14944   */\n      0x60\n        /* \"#utility.yul\":14931:14940   */\n      dup5\n        /* \"#utility.yul\":14927:14945   */\n      add\n        /* \"#utility.yul\":14920:14970   */\n      mstore\n        /* \"#utility.yul\":14987:15037   */\n      tag_432\n        /* \"#utility.yul\":15030:15036   */\n      dup2\n        /* \"#utility.yul\":15022:15028   */\n      dup6\n        /* \"#utility.yul\":15014:15020   */\n      dup8\n        /* \"#utility.yul\":14987:15037   */\n      tag_320\n      jump\t// in\n    tag_432:\n        /* \"#utility.yul\":14979:15037   */\n      swap11\n        /* \"#utility.yul\":14343:15043   */\n      swap10\n      pop\n      pop\n      pop\n      pop\n      pop\n      pop\n      pop\n      pop\n      pop\n      pop\n      jump\t// out\n\n    auxdata: 0xa2646970667358221220a3421bbfd6cfe747ea201b991e836a88335216fcde548f485cd6c29dea66debc64736f6c634300081e0033\n}\n",
				"bytecode": {
					"linkReferences": {},
					"object": "6080604052348015600e575f5ffd5b506126a18061001c5f395ff3fe608060405234801561000f575f5ffd5b5060043610610060575f3560e01c806348cbad6e1461006457806350222387146100825780635d0345c7146100a2578063a8006d35146100d0578063be1c766b146100e3578063f2523a9d146100f4575b5f5ffd5b61006c610109565b604051610079919061203b565b60405180910390f35b61009561009036600461209e565b610983565b60405161007991906120b5565b6100c360405180604001604052806002815260200161317360f01b81525081565b60405161007991906120ce565b61006c6100de36600461209e565b61115b565b600154604051908152602001610079565b6101076101023660046120e0565b611a57565b005b6001546060905f906001600160401b0381111561012857610128612117565b60405190808252806020026020018201604052801561016157816020015b61014e611da3565b8152602001906001900390816101465790505b5090505f5b60015481101561097d575f5f600183815481106101855761018561212b565b905f5260205f20015481526020019081526020015f206040518060800160405290815f820180546101b59061213f565b80601f01602080910402602001604051908101604052809291908181526020018280546101e19061213f565b801561022c5780601f106102035761010080835404028352916020019161022c565b820191905f5260205f20905b81548152906001019060200180831161020f57829003601f168201915b505050505081526020016001820154815260200160028201805461024f9061213f565b80601f016020809104026020016040519081016040528092919081815260200182805461027b9061213f565b80156102c65780601f1061029d576101008083540402835291602001916102c6565b820191905f5260205f20905b8154815290600101906020018083116102a957829003601f168201915b5050505050815260200160038201604051806102200160405290815f8201548152602001600182015481526020016002820180546103039061213f565b80601f016020809104026020016040519081016040528092919081815260200182805461032f9061213f565b801561037a5780601f106103515761010080835404028352916020019161037a565b820191905f5260205f20905b81548152906001019060200180831161035d57829003601f168201915b505050505081526020016003820180546103939061213f565b80601f01602080910402602001604051908101604052809291908181526020018280546103bf9061213f565b801561040a5780601f106103e15761010080835404028352916020019161040a565b820191905f5260205f20905b8154815290600101906020018083116103ed57829003601f168201915b5050505050815260200160048201548152602001600582015481526020016006820180546104379061213f565b80601f01602080910402602001604051908101604052809291908181526020018280546104639061213f565b80156104ae5780601f10610485576101008083540402835291602001916104ae565b820191905f5260205f20905b81548152906001019060200180831161049157829003601f168201915b505050505081526020016007820180546104c79061213f565b80601f01602080910402602001604051908101604052809291908181526020018280546104f39061213f565b801561053e5780601f106105155761010080835404028352916020019161053e565b820191905f5260205f20905b81548152906001019060200180831161052157829003601f168201915b505050505081526020016008820180546105579061213f565b80601f01602080910402602001604051908101604052809291908181526020018280546105839061213f565b80156105ce5780601f106105a5576101008083540402835291602001916105ce565b820191905f5260205f20905b8154815290600101906020018083116105b157829003601f168201915b505050505081526020016009820180546105e79061213f565b80601f01602080910402602001604051908101604052809291908181526020018280546106139061213f565b801561065e5780601f106106355761010080835404028352916020019161065e565b820191905f5260205f20905b81548152906001019060200180831161064157829003601f168201915b50505050508152602001600a820180546106779061213f565b80601f01602080910402602001604051908101604052809291908181526020018280546106a39061213f565b80156106ee5780601f106106c5576101008083540402835291602001916106ee565b820191905f5260205f20905b8154815290600101906020018083116106d157829003601f168201915b5050509183525050600b8201546020820152600c82015460ff1615156040820152600d820180546060909201916107249061213f565b80601f01602080910402602001604051908101604052809291908181526020018280546107509061213f565b801561079b5780601f106107725761010080835404028352916020019161079b565b820191905f5260205f20905b81548152906001019060200180831161077e57829003601f168201915b50505050508152602001600e820180546107b49061213f565b80601f01602080910402602001604051908101604052809291908181526020018280546107e09061213f565b801561082b5780601f106108025761010080835404028352916020019161082b565b820191905f5260205f20905b81548152906001019060200180831161080e57829003601f168201915b50505050508152602001600f820180546108449061213f565b80601f01602080910402602001604051908101604052809291908181526020018280546108709061213f565b80156108bb5780601f10610892576101008083540402835291602001916108bb565b820191905f5260205f20905b81548152906001019060200180831161089e57829003601f168201915b505050505081526020016010820180546108d49061213f565b80601f01602080910402602001604051908101604052809291908181526020018280546109009061213f565b801561094b5780601f106109225761010080835404028352916020019161094b565b820191905f5260205f20905b81548152906001019060200180831161092e57829003601f168201915b5050505050815250508152505082828151811061096a5761096a61212b565b6020908102919091010152600101610166565b50919050565b61098b611da3565b5f82815260208190526040908190208151608081019092528054829082906109b29061213f565b80601f01602080910402602001604051908101604052809291908181526020018280546109de9061213f565b8015610a295780601f10610a0057610100808354040283529160200191610a29565b820191905f5260205f20905b815481529060010190602001808311610a0c57829003601f168201915b5050505050815260200160018201548152602001600282018054610a4c9061213f565b80601f0160208091040260200160405190810160405280929190818152602001828054610a789061213f565b8015610ac35780601f10610a9a57610100808354040283529160200191610ac3565b820191905f5260205f20905b815481529060010190602001808311610aa657829003601f168201915b5050505050815260200160038201604051806102200160405290815f820154815260200160018201548152602001600282018054610b009061213f565b80601f0160208091040260200160405190810160405280929190818152602001828054610b2c9061213f565b8015610b775780601f10610b4e57610100808354040283529160200191610b77565b820191905f5260205f20905b815481529060010190602001808311610b5a57829003601f168201915b50505050508152602001600382018054610b909061213f565b80601f0160208091040260200160405190810160405280929190818152602001828054610bbc9061213f565b8015610c075780601f10610bde57610100808354040283529160200191610c07565b820191905f5260205f20905b815481529060010190602001808311610bea57829003601f168201915b505050505081526020016004820154815260200160058201548152602001600682018054610c349061213f565b80601f0160208091040260200160405190810160405280929190818152602001828054610c609061213f565b8015610cab5780601f10610c8257610100808354040283529160200191610cab565b820191905f5260205f20905b815481529060010190602001808311610c8e57829003601f168201915b50505050508152602001600782018054610cc49061213f565b80601f0160208091040260200160405190810160405280929190818152602001828054610cf09061213f565b8015610d3b5780601f10610d1257610100808354040283529160200191610d3b565b820191905f5260205f20905b815481529060010190602001808311610d1e57829003601f168201915b50505050508152602001600882018054610d549061213f565b80601f0160208091040260200160405190810160405280929190818152602001828054610d809061213f565b8015610dcb5780601f10610da257610100808354040283529160200191610dcb565b820191905f5260205f20905b815481529060010190602001808311610dae57829003601f168201915b50505050508152602001600982018054610de49061213f565b80601f0160208091040260200160405190810160405280929190818152602001828054610e109061213f565b8015610e5b5780601f10610e3257610100808354040283529160200191610e5b565b820191905f5260205f20905b815481529060010190602001808311610e3e57829003601f168201915b50505050508152602001600a82018054610e749061213f565b80601f0160208091040260200160405190810160405280929190818152602001828054610ea09061213f565b8015610eeb5780601f10610ec257610100808354040283529160200191610eeb565b820191905f5260205f20905b815481529060010190602001808311610ece57829003601f168201915b5050509183525050600b8201546020820152600c82015460ff1615156040820152600d82018054606090920191610f219061213f565b80601f0160208091040260200160405190810160405280929190818152602001828054610f4d9061213f565b8015610f985780601f10610f6f57610100808354040283529160200191610f98565b820191905f5260205f20905b815481529060010190602001808311610f7b57829003601f168201915b50505050508152602001600e82018054610fb19061213f565b80601f0160208091040260200160405190810160405280929190818152602001828054610fdd9061213f565b80156110285780601f10610fff57610100808354040283529160200191611028565b820191905f5260205f20905b81548152906001019060200180831161100b57829003601f168201915b50505050508152602001600f820180546110419061213f565b80601f016020809104026020016040519081016040528092919081815260200182805461106d9061213f565b80156110b85780601f1061108f576101008083540402835291602001916110b8565b820191905f5260205f20905b81548152906001019060200180831161109b57829003601f168201915b505050505081526020016010820180546110d19061213f565b80601f01602080910402602001604051908101604052809291908181526020018280546110fd9061213f565b80156111485780601f1061111f57610100808354040283529160200191611148565b820191905f5260205f20905b81548152906001019060200180831161112b57829003601f168201915b5050509190925250505090525092915050565b60605f42815b6001548110156111b6575f6001828154811061117f5761117f61212b565b905f5260205f200154905085811015801561119a5750828111155b156111ad57836111a981612171565b9450505b50600101611161565b505f826001600160401b038111156111d0576111d0612117565b60405190808252806020026020018201604052801561120957816020015b6111f6611da3565b8152602001906001900390816111ee5790505b5090505f805b600154811015611a4c575f6001828154811061122d5761122d61212b565b905f5260205f20015490508781101580156112485750848111155b15611a43575f81815260208190526040908190208151608081019092528054829082906112749061213f565b80601f01602080910402602001604051908101604052809291908181526020018280546112a09061213f565b80156112eb5780601f106112c2576101008083540402835291602001916112eb565b820191905f5260205f20905b8154815290600101906020018083116112ce57829003601f168201915b505050505081526020016001820154815260200160028201805461130e9061213f565b80601f016020809104026020016040519081016040528092919081815260200182805461133a9061213f565b80156113855780601f1061135c57610100808354040283529160200191611385565b820191905f5260205f20905b81548152906001019060200180831161136857829003601f168201915b5050505050815260200160038201604051806102200160405290815f8201548152602001600182015481526020016002820180546113c29061213f565b80601f01602080910402602001604051908101604052809291908181526020018280546113ee9061213f565b80156114395780601f1061141057610100808354040283529160200191611439565b820191905f5260205f20905b81548152906001019060200180831161141c57829003601f168201915b505050505081526020016003820180546114529061213f565b80601f016020809104026020016040519081016040528092919081815260200182805461147e9061213f565b80156114c95780601f106114a0576101008083540402835291602001916114c9565b820191905f5260205f20905b8154815290600101906020018083116114ac57829003601f168201915b5050505050815260200160048201548152602001600582015481526020016006820180546114f69061213f565b80601f01602080910402602001604051908101604052809291908181526020018280546115229061213f565b801561156d5780601f106115445761010080835404028352916020019161156d565b820191905f5260205f20905b81548152906001019060200180831161155057829003601f168201915b505050505081526020016007820180546115869061213f565b80601f01602080910402602001604051908101604052809291908181526020018280546115b29061213f565b80156115fd5780601f106115d4576101008083540402835291602001916115fd565b820191905f5260205f20905b8154815290600101906020018083116115e057829003601f168201915b505050505081526020016008820180546116169061213f565b80601f01602080910402602001604051908101604052809291908181526020018280546116429061213f565b801561168d5780601f106116645761010080835404028352916020019161168d565b820191905f5260205f20905b81548152906001019060200180831161167057829003601f168201915b505050505081526020016009820180546116a69061213f565b80601f01602080910402602001604051908101604052809291908181526020018280546116d29061213f565b801561171d5780601f106116f45761010080835404028352916020019161171d565b820191905f5260205f20905b81548152906001019060200180831161170057829003601f168201915b50505050508152602001600a820180546117369061213f565b80601f01602080910402602001604051908101604052809291908181526020018280546117629061213f565b80156117ad5780601f10611784576101008083540402835291602001916117ad565b820191905f5260205f20905b81548152906001019060200180831161179057829003601f168201915b5050509183525050600b8201546020820152600c82015460ff1615156040820152600d820180546060909201916117e39061213f565b80601f016020809104026020016040519081016040528092919081815260200182805461180f9061213f565b801561185a5780601f106118315761010080835404028352916020019161185a565b820191905f5260205f20905b81548152906001019060200180831161183d57829003601f168201915b50505050508152602001600e820180546118739061213f565b80601f016020809104026020016040519081016040528092919081815260200182805461189f9061213f565b80156118ea5780601f106118c1576101008083540402835291602001916118ea565b820191905f5260205f20905b8154815290600101906020018083116118cd57829003601f168201915b50505050508152602001600f820180546119039061213f565b80601f016020809104026020016040519081016040528092919081815260200182805461192f9061213f565b801561197a5780601f106119515761010080835404028352916020019161197a565b820191905f5260205f20905b81548152906001019060200180831161195d57829003601f168201915b505050505081526020016010820180546119939061213f565b80601f01602080910402602001604051908101604052809291908181526020018280546119bf9061213f565b8015611a0a5780601f106119e157610100808354040283529160200191611a0a565b820191905f5260205f20905b8154815290600101906020018083116119ed57829003601f168201915b50505050508152505081525050848481518110611a2957611a2961212b565b60200260200101819052508280611a3f90612171565b9350505b5060010161120f565b509095945050505050565b604080518082019091526002815261317360f01b6020909101527f6c9308eeeb72aac61c6ee2086645ec6cf6638d86d97af7b81bcf4073f3b95dbc611a9f6060830183612195565b604051611aad9291906121de565b604051809103902014611afc5760405162461bcd60e51b8152602060048201526013602482015272496e74657276616c206d75737420626520317360681b604482015260640160405180910390fd5b6040805160c081018252600560808201908152646b6c696e6560d81b60a08301528152426020820181905283359290915f9181810190611b3e90870187612195565b8080601f0160208091040260200160405190810160405280939291908181526020018383808284375f92019190915250505090825250602001611b80866122b3565b90525f838152602081905260409020815191925082918190611ba2908261253a565b506020820151600182015560408201516002820190611bc1908261253a565b5060608201518051600383019081556020820151600484015560408201516005840190611bee908261253a565b5060608201516003820190611c03908261253a565b506080820151600482015560a0820151600582015560c08201516006820190611c2c908261253a565b5060e08201516007820190611c41908261253a565b506101008201516008820190611c57908261253a565b506101208201516009820190611c6d908261253a565b50610140820151600a820190611c83908261253a565b50610160820151600b820155610180820151600c8201805460ff19169115159190911790556101a0820151600d820190611cbd908261253a565b506101c0820151600e820190611cd3908261253a565b506101e0820151600f820190611ce9908261253a565b506102008201516010820190611cff908261253a565b50506001805480820182555f919091527fb10e2d527612073b26eecdfd717e6a320cf44b4afac2b0732d9fcbe2b7fa0cf601859055507f87be993750fd9f870bc535d97609df048e07430c47f26712536434958094f8739150849050611d686040870187612195565b611d7560c0890189612195565b611d8260e08b018b612195565b604051611d95979695949392919061261c565b60405180910390a150505050565b6040518060800160405280606081526020015f815260200160608152602001611e456040518061022001604052805f81526020015f815260200160608152602001606081526020015f81526020015f815260200160608152602001606081526020016060815260200160608152602001606081526020015f81526020015f15158152602001606081526020016060815260200160608152602001606081525090565b905290565b5f81518084528060208401602086015e5f602082860101526020601f19601f83011685010191505092915050565b5f815160808452611e8c6080850182611e4a565b90506020830151602085015260408301518482036040860152611eaf8282611e4a565b91505060608301518482036060860152805182526020810151602083015260408101516102206040840152611ee8610220840182611e4a565b905060608201518382036060850152611f018282611e4a565b9150506080820151608084015260a082015160a084015260c082015183820360c0850152611f2f8282611e4a565b91505060e082015183820360e0850152611f498282611e4a565b915050610100820151838203610100850152611f658282611e4a565b915050610120820151838203610120850152611f818282611e4a565b915050610140820151838203610140850152611f9d8282611e4a565b915050610160820151610160840152610180820151611fc161018085018215159052565b506101a08201518382036101a0850152611fdb8282611e4a565b9150506101c08201518382036101c0850152611ff78282611e4a565b9150506101e08201518382036101e08501526120138282611e4a565b91505061020082015191508281036102008401526120318183611e4a565b9695505050505050565b5f602082016020835280845180835260408501915060408160051b8601019250602086015f5b8281101561209257603f1987860301845261207d858351611e78565b94506020938401939190910190600101612061565b50929695505050505050565b5f602082840312156120ae575f5ffd5b5035919050565b602081525f6120c76020830184611e78565b9392505050565b602081525f6120c76020830184611e4a565b5f602082840312156120f0575f5ffd5b81356001600160401b03811115612105575f5ffd5b820161022081850312156120c7575f5ffd5b634e487b7160e01b5f52604160045260245ffd5b634e487b7160e01b5f52603260045260245ffd5b600181811c9082168061215357607f821691505b60208210810361097d57634e487b7160e01b5f52602260045260245ffd5b5f6001820161218e57634e487b7160e01b5f52601160045260245ffd5b5060010190565b5f5f8335601e198436030181126121aa575f5ffd5b8301803591506001600160401b038211156121c3575f5ffd5b6020019150368190038213156121d7575f5ffd5b9250929050565b818382375f9101908152919050565b60405161022081016001600160401b038111828210171561221057612210612117565b60405290565b5f82601f830112612225575f5ffd5b81356001600160401b0381111561223e5761223e612117565b604051601f8201601f19908116603f011681016001600160401b038111828210171561226c5761226c612117565b604052818152838201602001851015612283575f5ffd5b816020850160208301375f918101602001919091529392505050565b803580151581146122ae575f5ffd5b919050565b5f61022082360312156122c4575f5ffd5b6122cc6121ed565b823581526020808401359082015260408301356001600160401b038111156122f2575f5ffd5b6122fe36828601612216565b60408301525060608301356001600160401b0381111561231c575f5ffd5b61232836828601612216565b6060830152506080838101359082015260a0808401359082015260c08301356001600160401b0381111561235a575f5ffd5b61236636828601612216565b60c08301525060e08301356001600160401b03811115612384575f5ffd5b61239036828601612216565b60e0830152506101008301356001600160401b038111156123af575f5ffd5b6123bb36828601612216565b610100830152506101208301356001600160401b038111156123db575f5ffd5b6123e736828601612216565b610120830152506101408301356001600160401b03811115612407575f5ffd5b61241336828601612216565b610140830152506101608381013590820152612432610180840161229f565b6101808201526101a08301356001600160401b03811115612451575f5ffd5b61245d36828601612216565b6101a0830152506101c08301356001600160401b0381111561247d575f5ffd5b61248936828601612216565b6101c0830152506101e08301356001600160401b038111156124a9575f5ffd5b6124b536828601612216565b6101e0830152506102008301356001600160401b038111156124d5575f5ffd5b6124e136828601612216565b6102008301525092915050565b601f82111561253557805f5260205f20601f840160051c810160208510156125135750805b601f840160051c820191505b81811015612532575f815560010161251f565b50505b505050565b81516001600160401b0381111561255357612553612117565b61256781612561845461213f565b846124ee565b6020601f821160018114612599575f83156125825750848201515b5f19600385901b1c1916600184901b178455612532565b5f84815260208120601f198516915b828110156125c857878501518255602094850194600190920191016125a8565b50848210156125e557868401515f19600387901b60f8161c191681555b50505050600190811b01905550565b81835281816020850137505f828201602090810191909152601f909101601f19169091010190565b878152608060208201525f61263560808301888a6125f4565b82810360408401526126488187896125f4565b9050828103606084015261265d8185876125f4565b9a995050505050505050505056fea2646970667358221220a3421bbfd6cfe747ea201b991e836a88335216fcde548f485cd6c29dea66debc64736f6c634300081e0033",
					"opcodes": "PUSH1 0x80 PUSH1 0x40 MSTORE CALLVALUE DUP1 ISZERO PUSH1 0xE JUMPI PUSH0 PUSH0 REVERT JUMPDEST POP PUSH2 0x26A1 DUP1 PUSH2 0x1C PUSH0 CODECOPY PUSH0 RETURN INVALID PUSH1 0x80 PUSH1 0x40 MSTORE CALLVALUE DUP1 ISZERO PUSH2 0xF JUMPI PUSH0 PUSH0 REVERT JUMPDEST POP PUSH1 0x4 CALLDATASIZE LT PUSH2 0x60 JUMPI PUSH0 CALLDATALOAD PUSH1 0xE0 SHR DUP1 PUSH4 0x48CBAD6E EQ PUSH2 0x64 JUMPI DUP1 PUSH4 0x50222387 EQ PUSH2 0x82 JUMPI DUP1 PUSH4 0x5D0345C7 EQ PUSH2 0xA2 JUMPI DUP1 PUSH4 0xA8006D35 EQ PUSH2 0xD0 JUMPI DUP1 PUSH4 0xBE1C766B EQ PUSH2 0xE3 JUMPI DUP1 PUSH4 0xF2523A9D EQ PUSH2 0xF4 JUMPI JUMPDEST PUSH0 PUSH0 REVERT JUMPDEST PUSH2 0x6C PUSH2 0x109 JUMP JUMPDEST PUSH1 0x40 MLOAD PUSH2 0x79 SWAP2 SWAP1 PUSH2 0x203B JUMP JUMPDEST PUSH1 0x40 MLOAD DUP1 SWAP2 SUB SWAP1 RETURN JUMPDEST PUSH2 0x95 PUSH2 0x90 CALLDATASIZE PUSH1 0x4 PUSH2 0x209E JUMP JUMPDEST PUSH2 0x983 JUMP JUMPDEST PUSH1 0x40 MLOAD PUSH2 0x79 SWAP2 SWAP1 PUSH2 0x20B5 JUMP JUMPDEST PUSH2 0xC3 PUSH1 0x40 MLOAD DUP1 PUSH1 0x40 ADD PUSH1 0x40 MSTORE DUP1 PUSH1 0x2 DUP2 MSTORE PUSH1 0x20 ADD PUSH2 0x3173 PUSH1 0xF0 SHL DUP2 MSTORE POP DUP2 JUMP JUMPDEST PUSH1 0x40 MLOAD PUSH2 0x79 SWAP2 SWAP1 PUSH2 0x20CE JUMP JUMPDEST PUSH2 0x6C PUSH2 0xDE CALLDATASIZE PUSH1 0x4 PUSH2 0x209E JUMP JUMPDEST PUSH2 0x115B JUMP JUMPDEST PUSH1 0x1 SLOAD PUSH1 0x40 MLOAD SWAP1 DUP2 MSTORE PUSH1 0x20 ADD PUSH2 0x79 JUMP JUMPDEST PUSH2 0x107 PUSH2 0x102 CALLDATASIZE PUSH1 0x4 PUSH2 0x20E0 JUMP JUMPDEST PUSH2 0x1A57 JUMP JUMPDEST STOP JUMPDEST PUSH1 0x1 SLOAD PUSH1 0x60 SWAP1 PUSH0 SWAP1 PUSH1 0x1 PUSH1 0x1 PUSH1 0x40 SHL SUB DUP2 GT ISZERO PUSH2 0x128 JUMPI PUSH2 0x128 PUSH2 0x2117 JUMP JUMPDEST PUSH1 0x40 MLOAD SWAP1 DUP1 DUP3 MSTORE DUP1 PUSH1 0x20 MUL PUSH1 0x20 ADD DUP3 ADD PUSH1 0x40 MSTORE DUP1 ISZERO PUSH2 0x161 JUMPI DUP2 PUSH1 0x20 ADD JUMPDEST PUSH2 0x14E PUSH2 0x1DA3 JUMP JUMPDEST DUP2 MSTORE PUSH1 0x20 ADD SWAP1 PUSH1 0x1 SWAP1 SUB SWAP1 DUP2 PUSH2 0x146 JUMPI SWAP1 POP JUMPDEST POP SWAP1 POP PUSH0 JUMPDEST PUSH1 0x1 SLOAD DUP2 LT ISZERO PUSH2 0x97D JUMPI PUSH0 PUSH0 PUSH1 0x1 DUP4 DUP2 SLOAD DUP2 LT PUSH2 0x185 JUMPI PUSH2 0x185 PUSH2 0x212B JUMP JUMPDEST SWAP1 PUSH0 MSTORE PUSH1 0x20 PUSH0 KECCAK256 ADD SLOAD DUP2 MSTORE PUSH1 0x20 ADD SWAP1 DUP2 MSTORE PUSH1 0x20 ADD PUSH0 KECCAK256 PUSH1 0x40 MLOAD DUP1 PUSH1 0x80 ADD PUSH1 0x40 MSTORE SWAP1 DUP2 PUSH0 DUP3 ADD DUP1 SLOAD PUSH2 0x1B5 SWAP1 PUSH2 0x213F JUMP JUMPDEST DUP1 PUSH1 0x1F ADD PUSH1 0x20 DUP1 SWAP2 DIV MUL PUSH1 0x20 ADD PUSH1 0x40 MLOAD SWAP1 DUP2 ADD PUSH1 0x40 MSTORE DUP1 SWAP3 SWAP2 SWAP1 DUP2 DUP2 MSTORE PUSH1 0x20 ADD DUP3 DUP1 SLOAD PUSH2 0x1E1 SWAP1 PUSH2 0x213F JUMP JUMPDEST DUP1 ISZERO PUSH2 0x22C JUMPI DUP1 PUSH1 0x1F LT PUSH2 0x203 JUMPI PUSH2 0x100 DUP1 DUP4 SLOAD DIV MUL DUP4 MSTORE SWAP2 PUSH1 0x20 ADD SWAP2 PUSH2 0x22C JUMP JUMPDEST DUP3 ADD SWAP2 SWAP1 PUSH0 MSTORE PUSH1 0x20 PUSH0 KECCAK256 SWAP1 JUMPDEST DUP2 SLOAD DUP2 MSTORE SWAP1 PUSH1 0x1 ADD SWAP1 PUSH1 0x20 ADD DUP1 DUP4 GT PUSH2 0x20F JUMPI DUP3 SWAP1 SUB PUSH1 0x1F AND DUP3 ADD SWAP2 JUMPDEST POP POP POP POP POP DUP2 MSTORE PUSH1 0x20 ADD PUSH1 0x1 DUP3 ADD SLOAD DUP2 MSTORE PUSH1 0x20 ADD PUSH1 0x2 DUP3 ADD DUP1 SLOAD PUSH2 0x24F SWAP1 PUSH2 0x213F JUMP JUMPDEST DUP1 PUSH1 0x1F ADD PUSH1 0x20 DUP1 SWAP2 DIV MUL PUSH1 0x20 ADD PUSH1 0x40 MLOAD SWAP1 DUP2 ADD PUSH1 0x40 MSTORE DUP1 SWAP3 SWAP2 SWAP1 DUP2 DUP2 MSTORE PUSH1 0x20 ADD DUP3 DUP1 SLOAD PUSH2 0x27B SWAP1 PUSH2 0x213F JUMP JUMPDEST DUP1 ISZERO PUSH2 0x2C6 JUMPI DUP1 PUSH1 0x1F LT PUSH2 0x29D JUMPI PUSH2 0x100 DUP1 DUP4 SLOAD DIV MUL DUP4 MSTORE SWAP2 PUSH1 0x20 ADD SWAP2 PUSH2 0x2C6 JUMP JUMPDEST DUP3 ADD SWAP2 SWAP1 PUSH0 MSTORE PUSH1 0x20 PUSH0 KECCAK256 SWAP1 JUMPDEST DUP2 SLOAD DUP2 MSTORE SWAP1 PUSH1 0x1 ADD SWAP1 PUSH1 0x20 ADD DUP1 DUP4 GT PUSH2 0x2A9 JUMPI DUP3 SWAP1 SUB PUSH1 0x1F AND DUP3 ADD SWAP2 JUMPDEST POP POP POP POP POP DUP2 MSTORE PUSH1 0x20 ADD PUSH1 0x3 DUP3 ADD PUSH1 0x40 MLOAD DUP1 PUSH2 0x220 ADD PUSH1 0x40 MSTORE SWAP1 DUP2 PUSH0 DUP3 ADD SLOAD DUP2 MSTORE PUSH1 0x20 ADD PUSH1 0x1 DUP3 ADD SLOAD DUP2 MSTORE PUSH1 0x20 ADD PUSH1 0x2 DUP3 ADD DUP1 SLOAD PUSH2 0x303 SWAP1 PUSH2 0x213F JUMP JUMPDEST DUP1 PUSH1 0x1F ADD PUSH1 0x20 DUP1 SWAP2 DIV MUL PUSH1 0x20 ADD PUSH1 0x40 MLOAD SWAP1 DUP2 ADD PUSH1 0x40 MSTORE DUP1 SWAP3 SWAP2 SWAP1 DUP2 DUP2 MSTORE PUSH1 0x20 ADD DUP3 DUP1 SLOAD PUSH2 0x32F SWAP1 PUSH2 0x213F JUMP JUMPDEST DUP1 ISZERO PUSH2 0x37A JUMPI DUP1 PUSH1 0x1F LT PUSH2 0x351 JUMPI PUSH2 0x100 DUP1 DUP4 SLOAD DIV MUL DUP4 MSTORE SWAP2 PUSH1 0x20 ADD SWAP2 PUSH2 0x37A JUMP JUMPDEST DUP3 ADD SWAP2 SWAP1 PUSH0 MSTORE PUSH1 0x20 PUSH0 KECCAK256 SWAP1 JUMPDEST DUP2 SLOAD DUP2 MSTORE SWAP1 PUSH1 0x1 ADD SWAP1 PUSH1 0x20 ADD DUP1 DUP4 GT PUSH2 0x35D JUMPI DUP3 SWAP1 SUB PUSH1 0x1F AND DUP3 ADD SWAP2 JUMPDEST POP POP POP POP POP DUP2 MSTORE PUSH1 0x20 ADD PUSH1 0x3 DUP3 ADD DUP1 SLOAD PUSH2 0x393 SWAP1 PUSH2 0x213F JUMP JUMPDEST DUP1 PUSH1 0x1F ADD PUSH1 0x20 DUP1 SWAP2 DIV MUL PUSH1 0x20 ADD PUSH1 0x40 MLOAD SWAP1 DUP2 ADD PUSH1 0x40 MSTORE DUP1 SWAP3 SWAP2 SWAP1 DUP2 DUP2 MSTORE PUSH1 0x20 ADD DUP3 DUP1 SLOAD PUSH2 0x3BF SWAP1 PUSH2 0x213F JUMP JUMPDEST DUP1 ISZERO PUSH2 0x40A JUMPI DUP1 PUSH1 0x1F LT PUSH2 0x3E1 JUMPI PUSH2 0x100 DUP1 DUP4 SLOAD DIV MUL DUP4 MSTORE SWAP2 PUSH1 0x20 ADD SWAP2 PUSH2 0x40A JUMP JUMPDEST DUP3 ADD SWAP2 SWAP1 PUSH0 MSTORE PUSH1 0x20 PUSH0 KECCAK256 SWAP1 JUMPDEST DUP2 SLOAD DUP2 MSTORE SWAP1 PUSH1 0x1 ADD SWAP1 PUSH1 0x20 ADD DUP1 DUP4 GT PUSH2 0x3ED JUMPI DUP3 SWAP1 SUB PUSH1 0x1F AND DUP3 ADD SWAP2 JUMPDEST POP POP POP POP POP DUP2 MSTORE PUSH1 0x20 ADD PUSH1 0x4 DUP3 ADD SLOAD DUP2 MSTORE PUSH1 0x20 ADD PUSH1 0x5 DUP3 ADD SLOAD DUP2 MSTORE PUSH1 0x20 ADD PUSH1 0x6 DUP3 ADD DUP1 SLOAD PUSH2 0x437 SWAP1 PUSH2 0x213F JUMP JUMPDEST DUP1 PUSH1 0x1F ADD PUSH1 0x20 DUP1 SWAP2 DIV MUL PUSH1 0x20 ADD PUSH1 0x40 MLOAD SWAP1 DUP2 ADD PUSH1 0x40 MSTORE DUP1 SWAP3 SWAP2 SWAP1 DUP2 DUP2 MSTORE PUSH1 0x20 ADD DUP3 DUP1 SLOAD PUSH2 0x463 SWAP1 PUSH2 0x213F JUMP JUMPDEST DUP1 ISZERO PUSH2 0x4AE JUMPI DUP1 PUSH1 0x1F LT PUSH2 0x485 JUMPI PUSH2 0x100 DUP1 DUP4 SLOAD DIV MUL DUP4 MSTORE SWAP2 PUSH1 0x20 ADD SWAP2 PUSH2 0x4AE JUMP JUMPDEST DUP3 ADD SWAP2 SWAP1 PUSH0 MSTORE PUSH1 0x20 PUSH0 KECCAK256 SWAP1 JUMPDEST DUP2 SLOAD DUP2 MSTORE SWAP1 PUSH1 0x1 ADD SWAP1 PUSH1 0x20 ADD DUP1 DUP4 GT PUSH2 0x491 JUMPI DUP3 SWAP1 SUB PUSH1 0x1F AND DUP3 ADD SWAP2 JUMPDEST POP POP POP POP POP DUP2 MSTORE PUSH1 0x20 ADD PUSH1 0x7 DUP3 ADD DUP1 SLOAD PUSH2 0x4C7 SWAP1 PUSH2 0x213F JUMP JUMPDEST DUP1 PUSH1 0x1F ADD PUSH1 0x20 DUP1 SWAP2 DIV MUL PUSH1 0x20 ADD PUSH1 0x40 MLOAD SWAP1 DUP2 ADD PUSH1 0x40 MSTORE DUP1 SWAP3 SWAP2 SWAP1 DUP2 DUP2 MSTORE PUSH1 0x20 ADD DUP3 DUP1 SLOAD PUSH2 0x4F3 SWAP1 PUSH2 0x213F JUMP JUMPDEST DUP1 ISZERO PUSH2 0x53E JUMPI DUP1 PUSH1 0x1F LT PUSH2 0x515 JUMPI PUSH2 0x100 DUP1 DUP4 SLOAD DIV MUL DUP4 MSTORE SWAP2 PUSH1 0x20 ADD SWAP2 PUSH2 0x53E JUMP JUMPDEST DUP3 ADD SWAP2 SWAP1 PUSH0 MSTORE PUSH1 0x20 PUSH0 KECCAK256 SWAP1 JUMPDEST DUP2 SLOAD DUP2 MSTORE SWAP1 PUSH1 0x1 ADD SWAP1 PUSH1 0x20 ADD DUP1 DUP4 GT PUSH2 0x521 JUMPI DUP3 SWAP1 SUB PUSH1 0x1F AND DUP3 ADD SWAP2 JUMPDEST POP POP POP POP POP DUP2 MSTORE PUSH1 0x20 ADD PUSH1 0x8 DUP3 ADD DUP1 SLOAD PUSH2 0x557 SWAP1 PUSH2 0x213F JUMP JUMPDEST DUP1 PUSH1 0x1F ADD PUSH1 0x20 DUP1 SWAP2 DIV MUL PUSH1 0x20 ADD PUSH1 0x40 MLOAD SWAP1 DUP2 ADD PUSH1 0x40 MSTORE DUP1 SWAP3 SWAP2 SWAP1 DUP2 DUP2 MSTORE PUSH1 0x20 ADD DUP3 DUP1 SLOAD PUSH2 0x583 SWAP1 PUSH2 0x213F JUMP JUMPDEST DUP1 ISZERO PUSH2 0x5CE JUMPI DUP1 PUSH1 0x1F LT PUSH2 0x5A5 JUMPI PUSH2 0x100 DUP1 DUP4 SLOAD DIV MUL DUP4 MSTORE SWAP2 PUSH1 0x20 ADD SWAP2 PUSH2 0x5CE JUMP JUMPDEST DUP3 ADD SWAP2 SWAP1 PUSH0 MSTORE PUSH1 0x20 PUSH0 KECCAK256 SWAP1 JUMPDEST DUP2 SLOAD DUP2 MSTORE SWAP1 PUSH1 0x1 ADD SWAP1 PUSH1 0x20 ADD DUP1 DUP4 GT PUSH2 0x5B1 JUMPI DUP3 SWAP1 SUB PUSH1 0x1F AND DUP3 ADD SWAP2 JUMPDEST POP POP POP POP POP DUP2 MSTORE PUSH1 0x20 ADD PUSH1 0x9 DUP3 ADD DUP1 SLOAD PUSH2 0x5E7 SWAP1 PUSH2 0x213F JUMP JUMPDEST DUP1 PUSH1 0x1F ADD PUSH1 0x20 DUP1 SWAP2 DIV MUL PUSH1 0x20 ADD PUSH1 0x40 MLOAD SWAP1 DUP2 ADD PUSH1 0x40 MSTORE DUP1 SWAP3 SWAP2 SWAP1 DUP2 DUP2 MSTORE PUSH1 0x20 ADD DUP3 DUP1 SLOAD PUSH2 0x613 SWAP1 PUSH2 0x213F JUMP JUMPDEST DUP1 ISZERO PUSH2 0x65E JUMPI DUP1 PUSH1 0x1F LT PUSH2 0x635 JUMPI PUSH2 0x100 DUP1 DUP4 SLOAD DIV MUL DUP4 MSTORE SWAP2 PUSH1 0x20 ADD SWAP2 PUSH2 0x65E JUMP JUMPDEST DUP3 ADD SWAP2 SWAP1 PUSH0 MSTORE PUSH1 0x20 PUSH0 KECCAK256 SWAP1 JUMPDEST DUP2 SLOAD DUP2 MSTORE SWAP1 PUSH1 0x1 ADD SWAP1 PUSH1 0x20 ADD DUP1 DUP4 GT PUSH2 0x641 JUMPI DUP3 SWAP1 SUB PUSH1 0x1F AND DUP3 ADD SWAP2 JUMPDEST POP POP POP POP POP DUP2 MSTORE PUSH1 0x20 ADD PUSH1 0xA DUP3 ADD DUP1 SLOAD PUSH2 0x677 SWAP1 PUSH2 0x213F JUMP JUMPDEST DUP1 PUSH1 0x1F ADD PUSH1 0x20 DUP1 SWAP2 DIV MUL PUSH1 0x20 ADD PUSH1 0x40 MLOAD SWAP1 DUP2 ADD PUSH1 0x40 MSTORE DUP1 SWAP3 SWAP2 SWAP1 DUP2 DUP2 MSTORE PUSH1 0x20 ADD DUP3 DUP1 SLOAD PUSH2 0x6A3 SWAP1 PUSH2 0x213F JUMP JUMPDEST DUP1 ISZERO PUSH2 0x6EE JUMPI DUP1 PUSH1 0x1F LT PUSH2 0x6C5 JUMPI PUSH2 0x100 DUP1 DUP4 SLOAD DIV MUL DUP4 MSTORE SWAP2 PUSH1 0x20 ADD SWAP2 PUSH2 0x6EE JUMP JUMPDEST DUP3 ADD SWAP2 SWAP1 PUSH0 MSTORE PUSH1 0x20 PUSH0 KECCAK256 SWAP1 JUMPDEST DUP2 SLOAD DUP2 MSTORE SWAP1 PUSH1 0x1 ADD SWAP1 PUSH1 0x20 ADD DUP1 DUP4 GT PUSH2 0x6D1 JUMPI DUP3 SWAP1 SUB PUSH1 0x1F AND DUP3 ADD SWAP2 JUMPDEST POP POP POP SWAP2 DUP4 MSTORE POP POP PUSH1 0xB DUP3 ADD SLOAD PUSH1 0x20 DUP3 ADD MSTORE PUSH1 0xC DUP3 ADD SLOAD PUSH1 0xFF AND ISZERO ISZERO PUSH1 0x40 DUP3 ADD MSTORE PUSH1 0xD DUP3 ADD DUP1 SLOAD PUSH1 0x60 SWAP1 SWAP3 ADD SWAP2 PUSH2 0x724 SWAP1 PUSH2 0x213F JUMP JUMPDEST DUP1 PUSH1 0x1F ADD PUSH1 0x20 DUP1 SWAP2 DIV MUL PUSH1 0x20 ADD PUSH1 0x40 MLOAD SWAP1 DUP2 ADD PUSH1 0x40 MSTORE DUP1 SWAP3 SWAP2 SWAP1 DUP2 DUP2 MSTORE PUSH1 0x20 ADD DUP3 DUP1 SLOAD PUSH2 0x750 SWAP1 PUSH2 0x213F JUMP JUMPDEST DUP1 ISZERO PUSH2 0x79B JUMPI DUP1 PUSH1 0x1F LT PUSH2 0x772 JUMPI PUSH2 0x100 DUP1 DUP4 SLOAD DIV MUL DUP4 MSTORE SWAP2 PUSH1 0x20 ADD SWAP2 PUSH2 0x79B JUMP JUMPDEST DUP3 ADD SWAP2 SWAP1 PUSH0 MSTORE PUSH1 0x20 PUSH0 KECCAK256 SWAP1 JUMPDEST DUP2 SLOAD DUP2 MSTORE SWAP1 PUSH1 0x1 ADD SWAP1 PUSH1 0x20 ADD DUP1 DUP4 GT PUSH2 0x77E JUMPI DUP3 SWAP1 SUB PUSH1 0x1F AND DUP3 ADD SWAP2 JUMPDEST POP POP POP POP POP DUP2 MSTORE PUSH1 0x20 ADD PUSH1 0xE DUP3 ADD DUP1 SLOAD PUSH2 0x7B4 SWAP1 PUSH2 0x213F JUMP JUMPDEST DUP1 PUSH1 0x1F ADD PUSH1 0x20 DUP1 SWAP2 DIV MUL PUSH1 0x20 ADD PUSH1 0x40 MLOAD SWAP1 DUP2 ADD PUSH1 0x40 MSTORE DUP1 SWAP3 SWAP2 SWAP1 DUP2 DUP2 MSTORE PUSH1 0x20 ADD DUP3 DUP1 SLOAD PUSH2 0x7E0 SWAP1 PUSH2 0x213F JUMP JUMPDEST DUP1 ISZERO PUSH2 0x82B JUMPI DUP1 PUSH1 0x1F LT PUSH2 0x802 JUMPI PUSH2 0x100 DUP1 DUP4 SLOAD DIV MUL DUP4 MSTORE SWAP2 PUSH1 0x20 ADD SWAP2 PUSH2 0x82B JUMP JUMPDEST DUP3 ADD SWAP2 SWAP1 PUSH0 MSTORE PUSH1 0x20 PUSH0 KECCAK256 SWAP1 JUMPDEST DUP2 SLOAD DUP2 MSTORE SWAP1 PUSH1 0x1 ADD SWAP1 PUSH1 0x20 ADD DUP1 DUP4 GT PUSH2 0x80E JUMPI DUP3 SWAP1 SUB PUSH1 0x1F AND DUP3 ADD SWAP2 JUMPDEST POP POP POP POP POP DUP2 MSTORE PUSH1 0x20 ADD PUSH1 0xF DUP3 ADD DUP1 SLOAD PUSH2 0x844 SWAP1 PUSH2 0x213F JUMP JUMPDEST DUP1 PUSH1 0x1F ADD PUSH1 0x20 DUP1 SWAP2 DIV MUL PUSH1 0x20 ADD PUSH1 0x40 MLOAD SWAP1 DUP2 ADD PUSH1 0x40 MSTORE DUP1 SWAP3 SWAP2 SWAP1 DUP2 DUP2 MSTORE PUSH1 0x20 ADD DUP3 DUP1 SLOAD PUSH2 0x870 SWAP1 PUSH2 0x213F JUMP JUMPDEST DUP1 ISZERO PUSH2 0x8BB JUMPI DUP1 PUSH1 0x1F LT PUSH2 0x892 JUMPI PUSH2 0x100 DUP1 DUP4 SLOAD DIV MUL DUP4 MSTORE SWAP2 PUSH1 0x20 ADD SWAP2 PUSH2 0x8BB JUMP JUMPDEST DUP3 ADD SWAP2 SWAP1 PUSH0 MSTORE PUSH1 0x20 PUSH0 KECCAK256 SWAP1 JUMPDEST DUP2 SLOAD DUP2 MSTORE SWAP1 PUSH1 0x1 ADD SWAP1 PUSH1 0x20 ADD DUP1 DUP4 GT PUSH2 0x89E JUMPI DUP3 SWAP1 SUB PUSH1 0x1F AND DUP3 ADD SWAP2 JUMPDEST POP POP POP POP POP DUP2 MSTORE PUSH1 0x20 ADD PUSH1 0x10 DUP3 ADD DUP1 SLOAD PUSH2 0x8D4 SWAP1 PUSH2 0x213F JUMP JUMPDEST DUP1 PUSH1 0x1F ADD PUSH1 0x20 DUP1 SWAP2 DIV MUL PUSH1 0x20 ADD PUSH1 0x40 MLOAD SWAP1 DUP2 ADD PUSH1 0x40 MSTORE DUP1 SWAP3 SWAP2 SWAP1 DUP2 DUP2 MSTORE PUSH1 0x20 ADD DUP3 DUP1 SLOAD PUSH2 0x900 SWAP1 PUSH2 0x213F JUMP JUMPDEST DUP1 ISZERO PUSH2 0x94B JUMPI DUP1 PUSH1 0x1F LT PUSH2 0x922 JUMPI PUSH2 0x100 DUP1 DUP4 SLOAD DIV MUL DUP4 MSTORE SWAP2 PUSH1 0x20 ADD SWAP2 PUSH2 0x94B JUMP JUMPDEST DUP3 ADD SWAP2 SWAP1 PUSH0 MSTORE PUSH1 0x20 PUSH0 KECCAK256 SWAP1 JUMPDEST DUP2 SLOAD DUP2 MSTORE SWAP1 PUSH1 0x1 ADD SWAP1 PUSH1 0x20 ADD DUP1 DUP4 GT PUSH2 0x92E JUMPI DUP3 SWAP1 SUB PUSH1 0x1F AND DUP3 ADD SWAP2 JUMPDEST POP POP POP POP POP DUP2 MSTORE POP POP DUP2 MSTORE POP POP DUP3 DUP3 DUP2 MLOAD DUP2 LT PUSH2 0x96A JUMPI PUSH2 0x96A PUSH2 0x212B JUMP JUMPDEST PUSH1 0x20 SWAP1 DUP2 MUL SWAP2 SWAP1 SWAP2 ADD ADD MSTORE PUSH1 0x1 ADD PUSH2 0x166 JUMP JUMPDEST POP SWAP2 SWAP1 POP JUMP JUMPDEST PUSH2 0x98B PUSH2 0x1DA3 JUMP JUMPDEST PUSH0 DUP3 DUP2 MSTORE PUSH1 0x20 DUP2 SWAP1 MSTORE PUSH1 0x40 SWAP1 DUP2 SWAP1 KECCAK256 DUP2 MLOAD PUSH1 0x80 DUP2 ADD SWAP1 SWAP3 MSTORE DUP1 SLOAD DUP3 SWAP1 DUP3 SWAP1 PUSH2 0x9B2 SWAP1 PUSH2 0x213F JUMP JUMPDEST DUP1 PUSH1 0x1F ADD PUSH1 0x20 DUP1 SWAP2 DIV MUL PUSH1 0x20 ADD PUSH1 0x40 MLOAD SWAP1 DUP2 ADD PUSH1 0x40 MSTORE DUP1 SWAP3 SWAP2 SWAP1 DUP2 DUP2 MSTORE PUSH1 0x20 ADD DUP3 DUP1 SLOAD PUSH2 0x9DE SWAP1 PUSH2 0x213F JUMP JUMPDEST DUP1 ISZERO PUSH2 0xA29 JUMPI DUP1 PUSH1 0x1F LT PUSH2 0xA00 JUMPI PUSH2 0x100 DUP1 DUP4 SLOAD DIV MUL DUP4 MSTORE SWAP2 PUSH1 0x20 ADD SWAP2 PUSH2 0xA29 JUMP JUMPDEST DUP3 ADD SWAP2 SWAP1 PUSH0 MSTORE PUSH1 0x20 PUSH0 KECCAK256 SWAP1 JUMPDEST DUP2 SLOAD DUP2 MSTORE SWAP1 PUSH1 0x1 ADD SWAP1 PUSH1 0x20 ADD DUP1 DUP4 GT PUSH2 0xA0C JUMPI DUP3 SWAP1 SUB PUSH1 0x1F AND DUP3 ADD SWAP2 JUMPDEST POP POP POP POP POP DUP2 MSTORE PUSH1 0x20 ADD PUSH1 0x1 DUP3 ADD SLOAD DUP2 MSTORE PUSH1 0x20 ADD PUSH1 0x2 DUP3 ADD DUP1 SLOAD PUSH2 0xA4C SWAP1 PUSH2 0x213F JUMP JUMPDEST DUP1 PUSH1 0x1F ADD PUSH1 0x20 DUP1 SWAP2 DIV MUL PUSH1 0x20 ADD PUSH1 0x40 MLOAD SWAP1 DUP2 ADD PUSH1 0x40 MSTORE DUP1 SWAP3 SWAP2 SWAP1 DUP2 DUP2 MSTORE PUSH1 0x20 ADD DUP3 DUP1 SLOAD PUSH2 0xA78 SWAP1 PUSH2 0x213F JUMP JUMPDEST DUP1 ISZERO PUSH2 0xAC3 JUMPI DUP1 PUSH1 0x1F LT PUSH2 0xA9A JUMPI PUSH2 0x100 DUP1 DUP4 SLOAD DIV MUL DUP4 MSTORE SWAP2 PUSH1 0x20 ADD SWAP2 PUSH2 0xAC3 JUMP JUMPDEST DUP3 ADD SWAP2 SWAP1 PUSH0 MSTORE PUSH1 0x20 PUSH0 KECCAK256 SWAP1 JUMPDEST DUP2 SLOAD DUP2 MSTORE SWAP1 PUSH1 0x1 ADD SWAP1 PUSH1 0x20 ADD DUP1 DUP4 GT PUSH2 0xAA6 JUMPI DUP3 SWAP1 SUB PUSH1 0x1F AND DUP3 ADD SWAP2 JUMPDEST POP POP POP POP POP DUP2 MSTORE PUSH1 0x20 ADD PUSH1 0x3 DUP3 ADD PUSH1 0x40 MLOAD DUP1 PUSH2 0x220 ADD PUSH1 0x40 MSTORE SWAP1 DUP2 PUSH0 DUP3 ADD SLOAD DUP2 MSTORE PUSH1 0x20 ADD PUSH1 0x1 DUP3 ADD SLOAD DUP2 MSTORE PUSH1 0x20 ADD PUSH1 0x2 DUP3 ADD DUP1 SLOAD PUSH2 0xB00 SWAP1 PUSH2 0x213F JUMP JUMPDEST DUP1 PUSH1 0x1F ADD PUSH1 0x20 DUP1 SWAP2 DIV MUL PUSH1 0x20 ADD PUSH1 0x40 MLOAD SWAP1 DUP2 ADD PUSH1 0x40 MSTORE DUP1 SWAP3 SWAP2 SWAP1 DUP2 DUP2 MSTORE PUSH1 0x20 ADD DUP3 DUP1 SLOAD PUSH2 0xB2C SWAP1 PUSH2 0x213F JUMP JUMPDEST DUP1 ISZERO PUSH2 0xB77 JUMPI DUP1 PUSH1 0x1F LT PUSH2 0xB4E JUMPI PUSH2 0x100 DUP1 DUP4 SLOAD DIV MUL DUP4 MSTORE SWAP2 PUSH1 0x20 ADD SWAP2 PUSH2 0xB77 JUMP JUMPDEST DUP3 ADD SWAP2 SWAP1 PUSH0 MSTORE PUSH1 0x20 PUSH0 KECCAK256 SWAP1 JUMPDEST DUP2 SLOAD DUP2 MSTORE SWAP1 PUSH1 0x1 ADD SWAP1 PUSH1 0x20 ADD DUP1 DUP4 GT PUSH2 0xB5A JUMPI DUP3 SWAP1 SUB PUSH1 0x1F AND DUP3 ADD SWAP2 JUMPDEST POP POP POP POP POP DUP2 MSTORE PUSH1 0x20 ADD PUSH1 0x3 DUP3 ADD DUP1 SLOAD PUSH2 0xB90 SWAP1 PUSH2 0x213F JUMP JUMPDEST DUP1 PUSH1 0x1F ADD PUSH1 0x20 DUP1 SWAP2 DIV MUL PUSH1 0x20 ADD PUSH1 0x40 MLOAD SWAP1 DUP2 ADD PUSH1 0x40 MSTORE DUP1 SWAP3 SWAP2 SWAP1 DUP2 DUP2 MSTORE PUSH1 0x20 ADD DUP3 DUP1 SLOAD PUSH2 0xBBC SWAP1 PUSH2 0x213F JUMP JUMPDEST DUP1 ISZERO PUSH2 0xC07 JUMPI DUP1 PUSH1 0x1F LT PUSH2 0xBDE JUMPI PUSH2 0x100 DUP1 DUP4 SLOAD DIV MUL DUP4 MSTORE SWAP2 PUSH1 0x20 ADD SWAP2 PUSH2 0xC07 JUMP JUMPDEST DUP3 ADD SWAP2 SWAP1 PUSH0 MSTORE PUSH1 0x20 PUSH0 KECCAK256 SWAP1 JUMPDEST DUP2 SLOAD DUP2 MSTORE SWAP1 PUSH1 0x1 ADD SWAP1 PUSH1 0x20 ADD DUP1 DUP4 GT PUSH2 0xBEA JUMPI DUP3 SWAP1 SUB PUSH1 0x1F AND DUP3 ADD SWAP2 JUMPDEST POP POP POP POP POP DUP2 MSTORE PUSH1 0x20 ADD PUSH1 0x4 DUP3 ADD SLOAD DUP2 MSTORE PUSH1 0x20 ADD PUSH1 0x5 DUP3 ADD SLOAD DUP2 MSTORE PUSH1 0x20 ADD PUSH1 0x6 DUP3 ADD DUP1 SLOAD PUSH2 0xC34 SWAP1 PUSH2 0x213F JUMP JUMPDEST DUP1 PUSH1 0x1F ADD PUSH1 0x20 DUP1 SWAP2 DIV MUL PUSH1 0x20 ADD PUSH1 0x40 MLOAD SWAP1 DUP2 ADD PUSH1 0x40 MSTORE DUP1 SWAP3 SWAP2 SWAP1 DUP2 DUP2 MSTORE PUSH1 0x20 ADD DUP3 DUP1 SLOAD PUSH2 0xC60 SWAP1 PUSH2 0x213F JUMP JUMPDEST DUP1 ISZERO PUSH2 0xCAB JUMPI DUP1 PUSH1 0x1F LT PUSH2 0xC82 JUMPI PUSH2 0x100 DUP1 DUP4 SLOAD DIV MUL DUP4 MSTORE SWAP2 PUSH1 0x20 ADD SWAP2 PUSH2 0xCAB JUMP JUMPDEST DUP3 ADD SWAP2 SWAP1 PUSH0 MSTORE PUSH1 0x20 PUSH0 KECCAK256 SWAP1 JUMPDEST DUP2 SLOAD DUP2 MSTORE SWAP1 PUSH1 0x1 ADD SWAP1 PUSH1 0x20 ADD DUP1 DUP4 GT PUSH2 0xC8E JUMPI DUP3 SWAP1 SUB PUSH1 0x1F AND DUP3 ADD SWAP2 JUMPDEST POP POP POP POP POP DUP2 MSTORE PUSH1 0x20 ADD PUSH1 0x7 DUP3 ADD DUP1 SLOAD PUSH2 0xCC4 SWAP1 PUSH2 0x213F JUMP JUMPDEST DUP1 PUSH1 0x1F ADD PUSH1 0x20 DUP1 SWAP2 DIV MUL PUSH1 0x20 ADD PUSH1 0x40 MLOAD SWAP1 DUP2 ADD PUSH1 0x40 MSTORE DUP1 SWAP3 SWAP2 SWAP1 DUP2 DUP2 MSTORE PUSH1 0x20 ADD DUP3 DUP1 SLOAD PUSH2 0xCF0 SWAP1 PUSH2 0x213F JUMP JUMPDEST DUP1 ISZERO PUSH2 0xD3B JUMPI DUP1 PUSH1 0x1F LT PUSH2 0xD12 JUMPI PUSH2 0x100 DUP1 DUP4 SLOAD DIV MUL DUP4 MSTORE SWAP2 PUSH1 0x20 ADD SWAP2 PUSH2 0xD3B JUMP JUMPDEST DUP3 ADD SWAP2 SWAP1 PUSH0 MSTORE PUSH1 0x20 PUSH0 KECCAK256 SWAP1 JUMPDEST DUP2 SLOAD DUP2 MSTORE SWAP1 PUSH1 0x1 ADD SWAP1 PUSH1 0x20 ADD DUP1 DUP4 GT PUSH2 0xD1E JUMPI DUP3 SWAP1 SUB PUSH1 0x1F AND DUP3 ADD SWAP2 JUMPDEST POP POP POP POP POP DUP2 MSTORE PUSH1 0x20 ADD PUSH1 0x8 DUP3 ADD DUP1 SLOAD PUSH2 0xD54 SWAP1 PUSH2 0x213F JUMP JUMPDEST DUP1 PUSH1 0x1F ADD PUSH1 0x20 DUP1 SWAP2 DIV MUL PUSH1 0x20 ADD PUSH1 0x40 MLOAD SWAP1 DUP2 ADD PUSH1 0x40 MSTORE DUP1 SWAP3 SWAP2 SWAP1 DUP2 DUP2 MSTORE PUSH1 0x20 ADD DUP3 DUP1 SLOAD PUSH2 0xD80 SWAP1 PUSH2 0x213F JUMP JUMPDEST DUP1 ISZERO PUSH2 0xDCB JUMPI DUP1 PUSH1 0x1F LT PUSH2 0xDA2 JUMPI PUSH2 0x100 DUP1 DUP4 SLOAD DIV MUL DUP4 MSTORE SWAP2 PUSH1 0x20 ADD SWAP2 PUSH2 0xDCB JUMP JUMPDEST DUP3 ADD SWAP2 SWAP1 PUSH0 MSTORE PUSH1 0x20 PUSH0 KECCAK256 SWAP1 JUMPDEST DUP2 SLOAD DUP2 MSTORE SWAP1 PUSH1 0x1 ADD SWAP1 PUSH1 0x20 ADD DUP1 DUP4 GT PUSH2 0xDAE JUMPI DUP3 SWAP1 SUB PUSH1 0x1F AND DUP3 ADD SWAP2 JUMPDEST POP POP POP POP POP DUP2 MSTORE PUSH1 0x20 ADD PUSH1 0x9 DUP3 ADD DUP1 SLOAD PUSH2 0xDE4 SWAP1 PUSH2 0x213F JUMP JUMPDEST DUP1 PUSH1 0x1F ADD PUSH1 0x20 DUP1 SWAP2 DIV MUL PUSH1 0x20 ADD PUSH1 0x40 MLOAD SWAP1 DUP2 ADD PUSH1 0x40 MSTORE DUP1 SWAP3 SWAP2 SWAP1 DUP2 DUP2 MSTORE PUSH1 0x20 ADD DUP3 DUP1 SLOAD PUSH2 0xE10 SWAP1 PUSH2 0x213F JUMP JUMPDEST DUP1 ISZERO PUSH2 0xE5B JUMPI DUP1 PUSH1 0x1F LT PUSH2 0xE32 JUMPI PUSH2 0x100 DUP1 DUP4 SLOAD DIV MUL DUP4 MSTORE SWAP2 PUSH1 0x20 ADD SWAP2 PUSH2 0xE5B JUMP JUMPDEST DUP3 ADD SWAP2 SWAP1 PUSH0 MSTORE PUSH1 0x20 PUSH0 KECCAK256 SWAP1 JUMPDEST DUP2 SLOAD DUP2 MSTORE SWAP1 PUSH1 0x1 ADD SWAP1 PUSH1 0x20 ADD DUP1 DUP4 GT PUSH2 0xE3E JUMPI DUP3 SWAP1 SUB PUSH1 0x1F AND DUP3 ADD SWAP2 JUMPDEST POP POP POP POP POP DUP2 MSTORE PUSH1 0x20 ADD PUSH1 0xA DUP3 ADD DUP1 SLOAD PUSH2 0xE74 SWAP1 PUSH2 0x213F JUMP JUMPDEST DUP1 PUSH1 0x1F ADD PUSH1 0x20 DUP1 SWAP2 DIV MUL PUSH1 0x20 ADD PUSH1 0x40 MLOAD SWAP1 DUP2 ADD PUSH1 0x40 MSTORE DUP1 SWAP3 SWAP2 SWAP1 DUP2 DUP2 MSTORE PUSH1 0x20 ADD DUP3 DUP1 SLOAD PUSH2 0xEA0 SWAP1 PUSH2 0x213F JUMP JUMPDEST DUP1 ISZERO PUSH2 0xEEB JUMPI DUP1 PUSH1 0x1F LT PUSH2 0xEC2 JUMPI PUSH2 0x100 DUP1 DUP4 SLOAD DIV MUL DUP4 MSTORE SWAP2 PUSH1 0x20 ADD SWAP2 PUSH2 0xEEB JUMP JUMPDEST DUP3 ADD SWAP2 SWAP1 PUSH0 MSTORE PUSH1 0x20 PUSH0 KECCAK256 SWAP1 JUMPDEST DUP2 SLOAD DUP2 MSTORE SWAP1 PUSH1 0x1 ADD SWAP1 PUSH1 0x20 ADD DUP1 DUP4 GT PUSH2 0xECE JUMPI DUP3 SWAP1 SUB PUSH1 0x1F AND DUP3 ADD SWAP2 JUMPDEST POP POP POP SWAP2 DUP4 MSTORE POP POP PUSH1 0xB DUP3 ADD SLOAD PUSH1 0x20 DUP3 ADD MSTORE PUSH1 0xC DUP3 ADD SLOAD PUSH1 0xFF AND ISZERO ISZERO PUSH1 0x40 DUP3 ADD MSTORE PUSH1 0xD DUP3 ADD DUP1 SLOAD PUSH1 0x60 SWAP1 SWAP3 ADD SWAP2 PUSH2 0xF21 SWAP1 PUSH2 0x213F JUMP JUMPDEST DUP1 PUSH1 0x1F ADD PUSH1 0x20 DUP1 SWAP2 DIV MUL PUSH1 0x20 ADD PUSH1 0x40 MLOAD SWAP1 DUP2 ADD PUSH1 0x40 MSTORE DUP1 SWAP3 SWAP2 SWAP1 DUP2 DUP2 MSTORE PUSH1 0x20 ADD DUP3 DUP1 SLOAD PUSH2 0xF4D SWAP1 PUSH2 0x213F JUMP JUMPDEST DUP1 ISZERO PUSH2 0xF98 JUMPI DUP1 PUSH1 0x1F LT PUSH2 0xF6F JUMPI PUSH2 0x100 DUP1 DUP4 SLOAD DIV MUL DUP4 MSTORE SWAP2 PUSH1 0x20 ADD SWAP2 PUSH2 0xF98 JUMP JUMPDEST DUP3 ADD SWAP2 SWAP1 PUSH0 MSTORE PUSH1 0x20 PUSH0 KECCAK256 SWAP1 JUMPDEST DUP2 SLOAD DUP2 MSTORE SWAP1 PUSH1 0x1 ADD SWAP1 PUSH1 0x20 ADD DUP1 DUP4 GT PUSH2 0xF7B JUMPI DUP3 SWAP1 SUB PUSH1 0x1F AND DUP3 ADD SWAP2 JUMPDEST POP POP POP POP POP DUP2 MSTORE PUSH1 0x20 ADD PUSH1 0xE DUP3 ADD DUP1 SLOAD PUSH2 0xFB1 SWAP1 PUSH2 0x213F JUMP JUMPDEST DUP1 PUSH1 0x1F ADD PUSH1 0x20 DUP1 SWAP2 DIV MUL PUSH1 0x20 ADD PUSH1 0x40 MLOAD SWAP1 DUP2 ADD PUSH1 0x40 MSTORE DUP1 SWAP3 SWAP2 SWAP1 DUP2 DUP2 MSTORE PUSH1 0x20 ADD DUP3 DUP1 SLOAD PUSH2 0xFDD SWAP1 PUSH2 0x213F JUMP JUMPDEST DUP1 ISZERO PUSH2 0x1028 JUMPI DUP1 PUSH1 0x1F LT PUSH2 0xFFF JUMPI PUSH2 0x100 DUP1 DUP4 SLOAD DIV MUL DUP4 MSTORE SWAP2 PUSH1 0x20 ADD SWAP2 PUSH2 0x1028 JUMP JUMPDEST DUP3 ADD SWAP2 SWAP1 PUSH0 MSTORE PUSH1 0x20 PUSH0 KECCAK256 SWAP1 JUMPDEST DUP2 SLOAD DUP2 MSTORE SWAP1 PUSH1 0x1 ADD SWAP1 PUSH1 0x20 ADD DUP1 DUP4 GT PUSH2 0x100B JUMPI DUP3 SWAP1 SUB PUSH1 0x1F AND DUP3 ADD SWAP2 JUMPDEST POP POP POP POP POP DUP2 MSTORE PUSH1 0x20 ADD PUSH1 0xF DUP3 ADD DUP1 SLOAD PUSH2 0x1041 SWAP1 PUSH2 0x213F JUMP JUMPDEST DUP1 PUSH1 0x1F ADD PUSH1 0x20 DUP1 SWAP2 DIV MUL PUSH1 0x20 ADD PUSH1 0x40 MLOAD SWAP1 DUP2 ADD PUSH1 0x40 MSTORE DUP1 SWAP3 SWAP2 SWAP1 DUP2 DUP2 MSTORE PUSH1 0x20 ADD DUP3 DUP1 SLOAD PUSH2 0x106D SWAP1 PUSH2 0x213F JUMP JUMPDEST DUP1 ISZERO PUSH2 0x10B8 JUMPI DUP1 PUSH1 0x1F LT PUSH2 0x108F JUMPI PUSH2 0x100 DUP1 DUP4 SLOAD DIV MUL DUP4 MSTORE SWAP2 PUSH1 0x20 ADD SWAP2 PUSH2 0x10B8 JUMP JUMPDEST DUP3 ADD SWAP2 SWAP1 PUSH0 MSTORE PUSH1 0x20 PUSH0 KECCAK256 SWAP1 JUMPDEST DUP2 SLOAD DUP2 MSTORE SWAP1 PUSH1 0x1 ADD SWAP1 PUSH1 0x20 ADD DUP1 DUP4 GT PUSH2 0x109B JUMPI DUP3 SWAP1 SUB PUSH1 0x1F AND DUP3 ADD SWAP2 JUMPDEST POP POP POP POP POP DUP2 MSTORE PUSH1 0x20 ADD PUSH1 0x10 DUP3 ADD DUP1 SLOAD PUSH2 0x10D1 SWAP1 PUSH2 0x213F JUMP JUMPDEST DUP1 PUSH1 0x1F ADD PUSH1 0x20 DUP1 SWAP2 DIV MUL PUSH1 0x20 ADD PUSH1 0x40 MLOAD SWAP1 DUP2 ADD PUSH1 0x40 MSTORE DUP1 SWAP3 SWAP2 SWAP1 DUP2 DUP2 MSTORE PUSH1 0x20 ADD DUP3 DUP1 SLOAD PUSH2 0x10FD SWAP1 PUSH2 0x213F JUMP JUMPDEST DUP1 ISZERO PUSH2 0x1148 JUMPI DUP1 PUSH1 0x1F LT PUSH2 0x111F JUMPI PUSH2 0x100 DUP1 DUP4 SLOAD DIV MUL DUP4 MSTORE SWAP2 PUSH1 0x20 ADD SWAP2 PUSH2 0x1148 JUMP JUMPDEST DUP3 ADD SWAP2 SWAP1 PUSH0 MSTORE PUSH1 0x20 PUSH0 KECCAK256 SWAP1 JUMPDEST DUP2 SLOAD DUP2 MSTORE SWAP1 PUSH1 0x1 ADD SWAP1 PUSH1 0x20 ADD DUP1 DUP4 GT PUSH2 0x112B JUMPI DUP3 SWAP1 SUB PUSH1 0x1F AND DUP3 ADD SWAP2 JUMPDEST POP POP POP SWAP2 SWAP1 SWAP3 MSTORE POP POP POP SWAP1 MSTORE POP SWAP3 SWAP2 POP POP JUMP JUMPDEST PUSH1 0x60 PUSH0 TIMESTAMP DUP2 JUMPDEST PUSH1 0x1 SLOAD DUP2 LT ISZERO PUSH2 0x11B6 JUMPI PUSH0 PUSH1 0x1 DUP3 DUP2 SLOAD DUP2 LT PUSH2 0x117F JUMPI PUSH2 0x117F PUSH2 0x212B JUMP JUMPDEST SWAP1 PUSH0 MSTORE PUSH1 0x20 PUSH0 KECCAK256 ADD SLOAD SWAP1 POP DUP6 DUP2 LT ISZERO DUP1 ISZERO PUSH2 0x119A JUMPI POP DUP3 DUP2 GT ISZERO JUMPDEST ISZERO PUSH2 0x11AD JUMPI DUP4 PUSH2 0x11A9 DUP2 PUSH2 0x2171 JUMP JUMPDEST SWAP5 POP POP JUMPDEST POP PUSH1 0x1 ADD PUSH2 0x1161 JUMP JUMPDEST POP PUSH0 DUP3 PUSH1 0x1 PUSH1 0x1 PUSH1 0x40 SHL SUB DUP2 GT ISZERO PUSH2 0x11D0 JUMPI PUSH2 0x11D0 PUSH2 0x2117 JUMP JUMPDEST PUSH1 0x40 MLOAD SWAP1 DUP1 DUP3 MSTORE DUP1 PUSH1 0x20 MUL PUSH1 0x20 ADD DUP3 ADD PUSH1 0x40 MSTORE DUP1 ISZERO PUSH2 0x1209 JUMPI DUP2 PUSH1 0x20 ADD JUMPDEST PUSH2 0x11F6 PUSH2 0x1DA3 JUMP JUMPDEST DUP2 MSTORE PUSH1 0x20 ADD SWAP1 PUSH1 0x1 SWAP1 SUB SWAP1 DUP2 PUSH2 0x11EE JUMPI SWAP1 POP JUMPDEST POP SWAP1 POP PUSH0 DUP1 JUMPDEST PUSH1 0x1 SLOAD DUP2 LT ISZERO PUSH2 0x1A4C JUMPI PUSH0 PUSH1 0x1 DUP3 DUP2 SLOAD DUP2 LT PUSH2 0x122D JUMPI PUSH2 0x122D PUSH2 0x212B JUMP JUMPDEST SWAP1 PUSH0 MSTORE PUSH1 0x20 PUSH0 KECCAK256 ADD SLOAD SWAP1 POP DUP8 DUP2 LT ISZERO DUP1 ISZERO PUSH2 0x1248 JUMPI POP DUP5 DUP2 GT ISZERO JUMPDEST ISZERO PUSH2 0x1A43 JUMPI PUSH0 DUP2 DUP2 MSTORE PUSH1 0x20 DUP2 SWAP1 MSTORE PUSH1 0x40 SWAP1 DUP2 SWAP1 KECCAK256 DUP2 MLOAD PUSH1 0x80 DUP2 ADD SWAP1 SWAP3 MSTORE DUP1 SLOAD DUP3 SWAP1 DUP3 SWAP1 PUSH2 0x1274 SWAP1 PUSH2 0x213F JUMP JUMPDEST DUP1 PUSH1 0x1F ADD PUSH1 0x20 DUP1 SWAP2 DIV MUL PUSH1 0x20 ADD PUSH1 0x40 MLOAD SWAP1 DUP2 ADD PUSH1 0x40 MSTORE DUP1 SWAP3 SWAP2 SWAP1 DUP2 DUP2 MSTORE PUSH1 0x20 ADD DUP3 DUP1 SLOAD PUSH2 0x12A0 SWAP1 PUSH2 0x213F JUMP JUMPDEST DUP1 ISZERO PUSH2 0x12EB JUMPI DUP1 PUSH1 0x1F LT PUSH2 0x12C2 JUMPI PUSH2 0x100 DUP1 DUP4 SLOAD DIV MUL DUP4 MSTORE SWAP2 PUSH1 0x20 ADD SWAP2 PUSH2 0x12EB JUMP JUMPDEST DUP3 ADD SWAP2 SWAP1 PUSH0 MSTORE PUSH1 0x20 PUSH0 KECCAK256 SWAP1 JUMPDEST DUP2 SLOAD DUP2 MSTORE SWAP1 PUSH1 0x1 ADD SWAP1 PUSH1 0x20 ADD DUP1 DUP4 GT PUSH2 0x12CE JUMPI DUP3 SWAP1 SUB PUSH1 0x1F AND DUP3 ADD SWAP2 JUMPDEST POP POP POP POP POP DUP2 MSTORE PUSH1 0x20 ADD PUSH1 0x1 DUP3 ADD SLOAD DUP2 MSTORE PUSH1 0x20 ADD PUSH1 0x2 DUP3 ADD DUP1 SLOAD PUSH2 0x130E SWAP1 PUSH2 0x213F JUMP JUMPDEST DUP1 PUSH1 0x1F ADD PUSH1 0x20 DUP1 SWAP2 DIV MUL PUSH1 0x20 ADD PUSH1 0x40 MLOAD SWAP1 DUP2 ADD PUSH1 0x40 MSTORE DUP1 SWAP3 SWAP2 SWAP1 DUP2 DUP2 MSTORE PUSH1 0x20 ADD DUP3 DUP1 SLOAD PUSH2 0x133A SWAP1 PUSH2 0x213F JUMP JUMPDEST DUP1 ISZERO PUSH2 0x1385 JUMPI DUP1 PUSH1 0x1F LT PUSH2 0x135C JUMPI PUSH2 0x100 DUP1 DUP4 SLOAD DIV MUL DUP4 MSTORE SWAP2 PUSH1 0x20 ADD SWAP2 PUSH2 0x1385 JUMP JUMPDEST DUP3 ADD SWAP2 SWAP1 PUSH0 MSTORE PUSH1 0x20 PUSH0 KECCAK256 SWAP1 JUMPDEST DUP2 SLOAD DUP2 MSTORE SWAP1 PUSH1 0x1 ADD SWAP1 PUSH1 0x20 ADD DUP1 DUP4 GT PUSH2 0x1368 JUMPI DUP3 SWAP1 SUB PUSH1 0x1F AND DUP3 ADD SWAP2 JUMPDEST POP POP POP POP POP DUP2 MSTORE PUSH1 0x20 ADD PUSH1 0x3 DUP3 ADD PUSH1 0x40 MLOAD DUP1 PUSH2 0x220 ADD PUSH1 0x40 MSTORE SWAP1 DUP2 PUSH0 DUP3 ADD SLOAD DUP2 MSTORE PUSH1 0x20 ADD PUSH1 0x1 DUP3 ADD SLOAD DUP2 MSTORE PUSH1 0x20 ADD PUSH1 0x2 DUP3 ADD DUP1 SLOAD PUSH2 0x13C2 SWAP1 PUSH2 0x213F JUMP JUMPDEST DUP1 PUSH1 0x1F ADD PUSH1 0x20 DUP1 SWAP2 DIV MUL PUSH1 0x20 ADD PUSH1 0x40 MLOAD SWAP1 DUP2 ADD PUSH1 0x40 MSTORE DUP1 SWAP3 SWAP2 SWAP1 DUP2 DUP2 MSTORE PUSH1 0x20 ADD DUP3 DUP1 SLOAD PUSH2 0x13EE SWAP1 PUSH2 0x213F JUMP JUMPDEST DUP1 ISZERO PUSH2 0x1439 JUMPI DUP1 PUSH1 0x1F LT PUSH2 0x1410 JUMPI PUSH2 0x100 DUP1 DUP4 SLOAD DIV MUL DUP4 MSTORE SWAP2 PUSH1 0x20 ADD SWAP2 PUSH2 0x1439 JUMP JUMPDEST DUP3 ADD SWAP2 SWAP1 PUSH0 MSTORE PUSH1 0x20 PUSH0 KECCAK256 SWAP1 JUMPDEST DUP2 SLOAD DUP2 MSTORE SWAP1 PUSH1 0x1 ADD SWAP1 PUSH1 0x20 ADD DUP1 DUP4 GT PUSH2 0x141C JUMPI DUP3 SWAP1 SUB PUSH1 0x1F AND DUP3 ADD SWAP2 JUMPDEST POP POP POP POP POP DUP2 MSTORE PUSH1 0x20 ADD PUSH1 0x3 DUP3 ADD DUP1 SLOAD PUSH2 0x1452 SWAP1 PUSH2 0x213F JUMP JUMPDEST DUP1 PUSH1 0x1F ADD PUSH1 0x20 DUP1 SWAP2 DIV MUL PUSH1 0x20 ADD PUSH1 0x40 MLOAD SWAP1 DUP2 ADD PUSH1 0x40 MSTORE DUP1 SWAP3 SWAP2 SWAP1 DUP2 DUP2 MSTORE PUSH1 0x20 ADD DUP3 DUP1 SLOAD PUSH2 0x147E SWAP1 PUSH2 0x213F JUMP JUMPDEST DUP1 ISZERO PUSH2 0x14C9 JUMPI DUP1 PUSH1 0x1F LT PUSH2 0x14A0 JUMPI PUSH2 0x100 DUP1 DUP4 SLOAD DIV MUL DUP4 MSTORE SWAP2 PUSH1 0x20 ADD SWAP2 PUSH2 0x14C9 JUMP JUMPDEST DUP3 ADD SWAP2 SWAP1 PUSH0 MSTORE PUSH1 0x20 PUSH0 KECCAK256 SWAP1 JUMPDEST DUP2 SLOAD DUP2 MSTORE SWAP1 PUSH1 0x1 ADD SWAP1 PUSH1 0x20 ADD DUP1 DUP4 GT PUSH2 0x14AC JUMPI DUP3 SWAP1 SUB PUSH1 0x1F AND DUP3 ADD SWAP2 JUMPDEST POP POP POP POP POP DUP2 MSTORE PUSH1 0x20 ADD PUSH1 0x4 DUP3 ADD SLOAD DUP2 MSTORE PUSH1 0x20 ADD PUSH1 0x5 DUP3 ADD SLOAD DUP2 MSTORE PUSH1 0x20 ADD PUSH1 0x6 DUP3 ADD DUP1 SLOAD PUSH2 0x14F6 SWAP1 PUSH2 0x213F JUMP JUMPDEST DUP1 PUSH1 0x1F ADD PUSH1 0x20 DUP1 SWAP2 DIV MUL PUSH1 0x20 ADD PUSH1 0x40 MLOAD SWAP1 DUP2 ADD PUSH1 0x40 MSTORE DUP1 SWAP3 SWAP2 SWAP1 DUP2 DUP2 MSTORE PUSH1 0x20 ADD DUP3 DUP1 SLOAD PUSH2 0x1522 SWAP1 PUSH2 0x213F JUMP JUMPDEST DUP1 ISZERO PUSH2 0x156D JUMPI DUP1 PUSH1 0x1F LT PUSH2 0x1544 JUMPI PUSH2 0x100 DUP1 DUP4 SLOAD DIV MUL DUP4 MSTORE SWAP2 PUSH1 0x20 ADD SWAP2 PUSH2 0x156D JUMP JUMPDEST DUP3 ADD SWAP2 SWAP1 PUSH0 MSTORE PUSH1 0x20 PUSH0 KECCAK256 SWAP1 JUMPDEST DUP2 SLOAD DUP2 MSTORE SWAP1 PUSH1 0x1 ADD SWAP1 PUSH1 0x20 ADD DUP1 DUP4 GT PUSH2 0x1550 JUMPI DUP3 SWAP1 SUB PUSH1 0x1F AND DUP3 ADD SWAP2 JUMPDEST POP POP POP POP POP DUP2 MSTORE PUSH1 0x20 ADD PUSH1 0x7 DUP3 ADD DUP1 SLOAD PUSH2 0x1586 SWAP1 PUSH2 0x213F JUMP JUMPDEST DUP1 PUSH1 0x1F ADD PUSH1 0x20 DUP1 SWAP2 DIV MUL PUSH1 0x20 ADD PUSH1 0x40 MLOAD SWAP1 DUP2 ADD PUSH1 0x40 MSTORE DUP1 SWAP3 SWAP2 SWAP1 DUP2 DUP2 MSTORE PUSH1 0x20 ADD DUP3 DUP1 SLOAD PUSH2 0x15B2 SWAP1 PUSH2 0x213F JUMP JUMPDEST DUP1 ISZERO PUSH2 0x15FD JUMPI DUP1 PUSH1 0x1F LT PUSH2 0x15D4 JUMPI PUSH2 0x100 DUP1 DUP4 SLOAD DIV MUL DUP4 MSTORE SWAP2 PUSH1 0x20 ADD SWAP2 PUSH2 0x15FD JUMP JUMPDEST DUP3 ADD SWAP2 SWAP1 PUSH0 MSTORE PUSH1 0x20 PUSH0 KECCAK256 SWAP1 JUMPDEST DUP2 SLOAD DUP2 MSTORE SWAP1 PUSH1 0x1 ADD SWAP1 PUSH1 0x20 ADD DUP1 DUP4 GT PUSH2 0x15E0 JUMPI DUP3 SWAP1 SUB PUSH1 0x1F AND DUP3 ADD SWAP2 JUMPDEST POP POP POP POP POP DUP2 MSTORE PUSH1 0x20 ADD PUSH1 0x8 DUP3 ADD DUP1 SLOAD PUSH2 0x1616 SWAP1 PUSH2 0x213F JUMP JUMPDEST DUP1 PUSH1 0x1F ADD PUSH1 0x20 DUP1 SWAP2 DIV MUL PUSH1 0x20 ADD PUSH1 0x40 MLOAD SWAP1 DUP2 ADD PUSH1 0x40 MSTORE DUP1 SWAP3 SWAP2 SWAP1 DUP2 DUP2 MSTORE PUSH1 0x20 ADD DUP3 DUP1 SLOAD PUSH2 0x1642 SWAP1 PUSH2 0x213F JUMP JUMPDEST DUP1 ISZERO PUSH2 0x168D JUMPI DUP1 PUSH1 0x1F LT PUSH2 0x1664 JUMPI PUSH2 0x100 DUP1 DUP4 SLOAD DIV MUL DUP4 MSTORE SWAP2 PUSH1 0x20 ADD SWAP2 PUSH2 0x168D JUMP JUMPDEST DUP3 ADD SWAP2 SWAP1 PUSH0 MSTORE PUSH1 0x20 PUSH0 KECCAK256 SWAP1 JUMPDEST DUP2 SLOAD DUP2 MSTORE SWAP1 PUSH1 0x1 ADD SWAP1 PUSH1 0x20 ADD DUP1 DUP4 GT PUSH2 0x1670 JUMPI DUP3 SWAP1 SUB PUSH1 0x1F AND DUP3 ADD SWAP2 JUMPDEST POP POP POP POP POP DUP2 MSTORE PUSH1 0x20 ADD PUSH1 0x9 DUP3 ADD DUP1 SLOAD PUSH2 0x16A6 SWAP1 PUSH2 0x213F JUMP JUMPDEST DUP1 PUSH1 0x1F ADD PUSH1 0x20 DUP1 SWAP2 DIV MUL PUSH1 0x20 ADD PUSH1 0x40 MLOAD SWAP1 DUP2 ADD PUSH1 0x40 MSTORE DUP1 SWAP3 SWAP2 SWAP1 DUP2 DUP2 MSTORE PUSH1 0x20 ADD DUP3 DUP1 SLOAD PUSH2 0x16D2 SWAP1 PUSH2 0x213F JUMP JUMPDEST DUP1 ISZERO PUSH2 0x171D JUMPI DUP1 PUSH1 0x1F LT PUSH2 0x16F4 JUMPI PUSH2 0x100 DUP1 DUP4 SLOAD DIV MUL DUP4 MSTORE SWAP2 PUSH1 0x20 ADD SWAP2 PUSH2 0x171D JUMP JUMPDEST DUP3 ADD SWAP2 SWAP1 PUSH0 MSTORE PUSH1 0x20 PUSH0 KECCAK256 SWAP1 JUMPDEST DUP2 SLOAD DUP2 MSTORE SWAP1 PUSH1 0x1 ADD SWAP1 PUSH1 0x20 ADD DUP1 DUP4 GT PUSH2 0x1700 JUMPI DUP3 SWAP1 SUB PUSH1 0x1F AND DUP3 ADD SWAP2 JUMPDEST POP POP POP POP POP DUP2 MSTORE PUSH1 0x20 ADD PUSH1 0xA DUP3 ADD DUP1 SLOAD PUSH2 0x1736 SWAP1 PUSH2 0x213F JUMP JUMPDEST DUP1 PUSH1 0x1F ADD PUSH1 0x20 DUP1 SWAP2 DIV MUL PUSH1 0x20 ADD PUSH1 0x40 MLOAD SWAP1 DUP2 ADD PUSH1 0x40 MSTORE DUP1 SWAP3 SWAP2 SWAP1 DUP2 DUP2 MSTORE PUSH1 0x20 ADD DUP3 DUP1 SLOAD PUSH2 0x1762 SWAP1 PUSH2 0x213F JUMP JUMPDEST DUP1 ISZERO PUSH2 0x17AD JUMPI DUP1 PUSH1 0x1F LT PUSH2 0x1784 JUMPI PUSH2 0x100 DUP1 DUP4 SLOAD DIV MUL DUP4 MSTORE SWAP2 PUSH1 0x20 ADD SWAP2 PUSH2 0x17AD JUMP JUMPDEST DUP3 ADD SWAP2 SWAP1 PUSH0 MSTORE PUSH1 0x20 PUSH0 KECCAK256 SWAP1 JUMPDEST DUP2 SLOAD DUP2 MSTORE SWAP1 PUSH1 0x1 ADD SWAP1 PUSH1 0x20 ADD DUP1 DUP4 GT PUSH2 0x1790 JUMPI DUP3 SWAP1 SUB PUSH1 0x1F AND DUP3 ADD SWAP2 JUMPDEST POP POP POP SWAP2 DUP4 MSTORE POP POP PUSH1 0xB DUP3 ADD SLOAD PUSH1 0x20 DUP3 ADD MSTORE PUSH1 0xC DUP3 ADD SLOAD PUSH1 0xFF AND ISZERO ISZERO PUSH1 0x40 DUP3 ADD MSTORE PUSH1 0xD DUP3 ADD DUP1 SLOAD PUSH1 0x60 SWAP1 SWAP3 ADD SWAP2 PUSH2 0x17E3 SWAP1 PUSH2 0x213F JUMP JUMPDEST DUP1 PUSH1 0x1F ADD PUSH1 0x20 DUP1 SWAP2 DIV MUL PUSH1 0x20 ADD PUSH1 0x40 MLOAD SWAP1 DUP2 ADD PUSH1 0x40 MSTORE DUP1 SWAP3 SWAP2 SWAP1 DUP2 DUP2 MSTORE PUSH1 0x20 ADD DUP3 DUP1 SLOAD PUSH2 0x180F SWAP1 PUSH2 0x213F JUMP JUMPDEST DUP1 ISZERO PUSH2 0x185A JUMPI DUP1 PUSH1 0x1F LT PUSH2 0x1831 JUMPI PUSH2 0x100 DUP1 DUP4 SLOAD DIV MUL DUP4 MSTORE SWAP2 PUSH1 0x20 ADD SWAP2 PUSH2 0x185A JUMP JUMPDEST DUP3 ADD SWAP2 SWAP1 PUSH0 MSTORE PUSH1 0x20 PUSH0 KECCAK256 SWAP1 JUMPDEST DUP2 SLOAD DUP2 MSTORE SWAP1 PUSH1 0x1 ADD SWAP1 PUSH1 0x20 ADD DUP1 DUP4 GT PUSH2 0x183D JUMPI DUP3 SWAP1 SUB PUSH1 0x1F AND DUP3 ADD SWAP2 JUMPDEST POP POP POP POP POP DUP2 MSTORE PUSH1 0x20 ADD PUSH1 0xE DUP3 ADD DUP1 SLOAD PUSH2 0x1873 SWAP1 PUSH2 0x213F JUMP JUMPDEST DUP1 PUSH1 0x1F ADD PUSH1 0x20 DUP1 SWAP2 DIV MUL PUSH1 0x20 ADD PUSH1 0x40 MLOAD SWAP1 DUP2 ADD PUSH1 0x40 MSTORE DUP1 SWAP3 SWAP2 SWAP1 DUP2 DUP2 MSTORE PUSH1 0x20 ADD DUP3 DUP1 SLOAD PUSH2 0x189F SWAP1 PUSH2 0x213F JUMP JUMPDEST DUP1 ISZERO PUSH2 0x18EA JUMPI DUP1 PUSH1 0x1F LT PUSH2 0x18C1 JUMPI PUSH2 0x100 DUP1 DUP4 SLOAD DIV MUL DUP4 MSTORE SWAP2 PUSH1 0x20 ADD SWAP2 PUSH2 0x18EA JUMP JUMPDEST DUP3 ADD SWAP2 SWAP1 PUSH0 MSTORE PUSH1 0x20 PUSH0 KECCAK256 SWAP1 JUMPDEST DUP2 SLOAD DUP2 MSTORE SWAP1 PUSH1 0x1 ADD SWAP1 PUSH1 0x20 ADD DUP1 DUP4 GT PUSH2 0x18CD JUMPI DUP3 SWAP1 SUB PUSH1 0x1F AND DUP3 ADD SWAP2 JUMPDEST POP POP POP POP POP DUP2 MSTORE PUSH1 0x20 ADD PUSH1 0xF DUP3 ADD DUP1 SLOAD PUSH2 0x1903 SWAP1 PUSH2 0x213F JUMP JUMPDEST DUP1 PUSH1 0x1F ADD PUSH1 0x20 DUP1 SWAP2 DIV MUL PUSH1 0x20 ADD PUSH1 0x40 MLOAD SWAP1 DUP2 ADD PUSH1 0x40 MSTORE DUP1 SWAP3 SWAP2 SWAP1 DUP2 DUP2 MSTORE PUSH1 0x20 ADD DUP3 DUP1 SLOAD PUSH2 0x192F SWAP1 PUSH2 0x213F JUMP JUMPDEST DUP1 ISZERO PUSH2 0x197A JUMPI DUP1 PUSH1 0x1F LT PUSH2 0x1951 JUMPI PUSH2 0x100 DUP1 DUP4 SLOAD DIV MUL DUP4 MSTORE SWAP2 PUSH1 0x20 ADD SWAP2 PUSH2 0x197A JUMP JUMPDEST DUP3 ADD SWAP2 SWAP1 PUSH0 MSTORE PUSH1 0x20 PUSH0 KECCAK256 SWAP1 JUMPDEST DUP2 SLOAD DUP2 MSTORE SWAP1 PUSH1 0x1 ADD SWAP1 PUSH1 0x20 ADD DUP1 DUP4 GT PUSH2 0x195D JUMPI DUP3 SWAP1 SUB PUSH1 0x1F AND DUP3 ADD SWAP2 JUMPDEST POP POP POP POP POP DUP2 MSTORE PUSH1 0x20 ADD PUSH1 0x10 DUP3 ADD DUP1 SLOAD PUSH2 0x1993 SWAP1 PUSH2 0x213F JUMP JUMPDEST DUP1 PUSH1 0x1F ADD PUSH1 0x20 DUP1 SWAP2 DIV MUL PUSH1 0x20 ADD PUSH1 0x40 MLOAD SWAP1 DUP2 ADD PUSH1 0x40 MSTORE DUP1 SWAP3 SWAP2 SWAP1 DUP2 DUP2 MSTORE PUSH1 0x20 ADD DUP3 DUP1 SLOAD PUSH2 0x19BF SWAP1 PUSH2 0x213F JUMP JUMPDEST DUP1 ISZERO PUSH2 0x1A0A JUMPI DUP1 PUSH1 0x1F LT PUSH2 0x19E1 JUMPI PUSH2 0x100 DUP1 DUP4 SLOAD DIV MUL DUP4 MSTORE SWAP2 PUSH1 0x20 ADD SWAP2 PUSH2 0x1A0A JUMP JUMPDEST DUP3 ADD SWAP2 SWAP1 PUSH0 MSTORE PUSH1 0x20 PUSH0 KECCAK256 SWAP1 JUMPDEST DUP2 SLOAD DUP2 MSTORE SWAP1 PUSH1 0x1 ADD SWAP1 PUSH1 0x20 ADD DUP1 DUP4 GT PUSH2 0x19ED JUMPI DUP3 SWAP1 SUB PUSH1 0x1F AND DUP3 ADD SWAP2 JUMPDEST POP POP POP POP POP DUP2 MSTORE POP POP DUP2 MSTORE POP POP DUP5 DUP5 DUP2 MLOAD DUP2 LT PUSH2 0x1A29 JUMPI PUSH2 0x1A29 PUSH2 0x212B JUMP JUMPDEST PUSH1 0x20 MUL PUSH1 0x20 ADD ADD DUP2 SWAP1 MSTORE POP DUP3 DUP1 PUSH2 0x1A3F SWAP1 PUSH2 0x2171 JUMP JUMPDEST SWAP4 POP POP JUMPDEST POP PUSH1 0x1 ADD PUSH2 0x120F JUMP JUMPDEST POP SWAP1 SWAP6 SWAP5 POP POP POP POP POP JUMP JUMPDEST PUSH1 0x40 DUP1 MLOAD DUP1 DUP3 ADD SWAP1 SWAP2 MSTORE PUSH1 0x2 DUP2 MSTORE PUSH2 0x3173 PUSH1 0xF0 SHL PUSH1 0x20 SWAP1 SWAP2 ADD MSTORE PUSH32 0x6C9308EEEB72AAC61C6EE2086645EC6CF6638D86D97AF7B81BCF4073F3B95DBC PUSH2 0x1A9F PUSH1 0x60 DUP4 ADD DUP4 PUSH2 0x2195 JUMP JUMPDEST PUSH1 0x40 MLOAD PUSH2 0x1AAD SWAP3 SWAP2 SWAP1 PUSH2 0x21DE JUMP JUMPDEST PUSH1 0x40 MLOAD DUP1 SWAP2 SUB SWAP1 KECCAK256 EQ PUSH2 0x1AFC JUMPI PUSH1 0x40 MLOAD PUSH3 0x461BCD PUSH1 0xE5 SHL DUP2 MSTORE PUSH1 0x20 PUSH1 0x4 DUP3 ADD MSTORE PUSH1 0x13 PUSH1 0x24 DUP3 ADD MSTORE PUSH19 0x496E74657276616C206D757374206265203173 PUSH1 0x68 SHL PUSH1 0x44 DUP3 ADD MSTORE PUSH1 0x64 ADD PUSH1 0x40 MLOAD DUP1 SWAP2 SUB SWAP1 REVERT JUMPDEST PUSH1 0x40 DUP1 MLOAD PUSH1 0xC0 DUP2 ADD DUP3 MSTORE PUSH1 0x5 PUSH1 0x80 DUP3 ADD SWAP1 DUP2 MSTORE PUSH5 0x6B6C696E65 PUSH1 0xD8 SHL PUSH1 0xA0 DUP4 ADD MSTORE DUP2 MSTORE TIMESTAMP PUSH1 0x20 DUP3 ADD DUP2 SWAP1 MSTORE DUP4 CALLDATALOAD SWAP3 SWAP1 SWAP2 PUSH0 SWAP2 DUP2 DUP2 ADD SWAP1 PUSH2 0x1B3E SWAP1 DUP8 ADD DUP8 PUSH2 0x2195 JUMP JUMPDEST DUP1 DUP1 PUSH1 0x1F ADD PUSH1 0x20 DUP1 SWAP2 DIV MUL PUSH1 0x20 ADD PUSH1 0x40 MLOAD SWAP1 DUP2 ADD PUSH1 0x40 MSTORE DUP1 SWAP4 SWAP3 SWAP2 SWAP1 DUP2 DUP2 MSTORE PUSH1 0x20 ADD DUP4 DUP4 DUP1 DUP3 DUP5 CALLDATACOPY PUSH0 SWAP3 ADD SWAP2 SWAP1 SWAP2 MSTORE POP POP POP SWAP1 DUP3 MSTORE POP PUSH1 0x20 ADD PUSH2 0x1B80 DUP7 PUSH2 0x22B3 JUMP JUMPDEST SWAP1 MSTORE PUSH0 DUP4 DUP2 MSTORE PUSH1 0x20 DUP2 SWAP1 MSTORE PUSH1 0x40 SWAP1 KECCAK256 DUP2 MLOAD SWAP2 SWAP3 POP DUP3 SWAP2 DUP2 SWAP1 PUSH2 0x1BA2 SWAP1 DUP3 PUSH2 0x253A JUMP JUMPDEST POP PUSH1 0x20 DUP3 ADD MLOAD PUSH1 0x1 DUP3 ADD SSTORE PUSH1 0x40 DUP3 ADD MLOAD PUSH1 0x2 DUP3 ADD SWAP1 PUSH2 0x1BC1 SWAP1 DUP3 PUSH2 0x253A JUMP JUMPDEST POP PUSH1 0x60 DUP3 ADD MLOAD DUP1 MLOAD PUSH1 0x3 DUP4 ADD SWAP1 DUP2 SSTORE PUSH1 0x20 DUP3 ADD MLOAD PUSH1 0x4 DUP5 ADD SSTORE PUSH1 0x40 DUP3 ADD MLOAD PUSH1 0x5 DUP5 ADD SWAP1 PUSH2 0x1BEE SWAP1 DUP3 PUSH2 0x253A JUMP JUMPDEST POP PUSH1 0x60 DUP3 ADD MLOAD PUSH1 0x3 DUP3 ADD SWAP1 PUSH2 0x1C03 SWAP1 DUP3 PUSH2 0x253A JUMP JUMPDEST POP PUSH1 0x80 DUP3 ADD MLOAD PUSH1 0x4 DUP3 ADD SSTORE PUSH1 0xA0 DUP3 ADD MLOAD PUSH1 0x5 DUP3 ADD SSTORE PUSH1 0xC0 DUP3 ADD MLOAD PUSH1 0x6 DUP3 ADD SWAP1 PUSH2 0x1C2C SWAP1 DUP3 PUSH2 0x253A JUMP JUMPDEST POP PUSH1 0xE0 DUP3 ADD MLOAD PUSH1 0x7 DUP3 ADD SWAP1 PUSH2 0x1C41 SWAP1 DUP3 PUSH2 0x253A JUMP JUMPDEST POP PUSH2 0x100 DUP3 ADD MLOAD PUSH1 0x8 DUP3 ADD SWAP1 PUSH2 0x1C57 SWAP1 DUP3 PUSH2 0x253A JUMP JUMPDEST POP PUSH2 0x120 DUP3 ADD MLOAD PUSH1 0x9 DUP3 ADD SWAP1 PUSH2 0x1C6D SWAP1 DUP3 PUSH2 0x253A JUMP JUMPDEST POP PUSH2 0x140 DUP3 ADD MLOAD PUSH1 0xA DUP3 ADD SWAP1 PUSH2 0x1C83 SWAP1 DUP3 PUSH2 0x253A JUMP JUMPDEST POP PUSH2 0x160 DUP3 ADD MLOAD PUSH1 0xB DUP3 ADD SSTORE PUSH2 0x180 DUP3 ADD MLOAD PUSH1 0xC DUP3 ADD DUP1 SLOAD PUSH1 0xFF NOT AND SWAP2 ISZERO ISZERO SWAP2 SWAP1 SWAP2 OR SWAP1 SSTORE PUSH2 0x1A0 DUP3 ADD MLOAD PUSH1 0xD DUP3 ADD SWAP1 PUSH2 0x1CBD SWAP1 DUP3 PUSH2 0x253A JUMP JUMPDEST POP PUSH2 0x1C0 DUP3 ADD MLOAD PUSH1 0xE DUP3 ADD SWAP1 PUSH2 0x1CD3 SWAP1 DUP3 PUSH2 0x253A JUMP JUMPDEST POP PUSH2 0x1E0 DUP3 ADD MLOAD PUSH1 0xF DUP3 ADD SWAP1 PUSH2 0x1CE9 SWAP1 DUP3 PUSH2 0x253A JUMP JUMPDEST POP PUSH2 0x200 DUP3 ADD MLOAD PUSH1 0x10 DUP3 ADD SWAP1 PUSH2 0x1CFF SWAP1 DUP3 PUSH2 0x253A JUMP JUMPDEST POP POP PUSH1 0x1 DUP1 SLOAD DUP1 DUP3 ADD DUP3 SSTORE PUSH0 SWAP2 SWAP1 SWAP2 MSTORE PUSH32 0xB10E2D527612073B26EECDFD717E6A320CF44B4AFAC2B0732D9FCBE2B7FA0CF6 ADD DUP6 SWAP1 SSTORE POP PUSH32 0x87BE993750FD9F870BC535D97609DF048E07430C47F26712536434958094F873 SWAP2 POP DUP5 SWAP1 POP PUSH2 0x1D68 PUSH1 0x40 DUP8 ADD DUP8 PUSH2 0x2195 JUMP JUMPDEST PUSH2 0x1D75 PUSH1 0xC0 DUP10 ADD DUP10 PUSH2 0x2195 JUMP JUMPDEST PUSH2 0x1D82 PUSH1 0xE0 DUP12 ADD DUP12 PUSH2 0x2195 JUMP JUMPDEST PUSH1 0x40 MLOAD PUSH2 0x1D95 SWAP8 SWAP7 SWAP6 SWAP5 SWAP4 SWAP3 SWAP2 SWAP1 PUSH2 0x261C JUMP JUMPDEST PUSH1 0x40 MLOAD DUP1 SWAP2 SUB SWAP1 LOG1 POP POP POP POP JUMP JUMPDEST PUSH1 0x40 MLOAD DUP1 PUSH1 0x80 ADD PUSH1 0x40 MSTORE DUP1 PUSH1 0x60 DUP2 MSTORE PUSH1 0x20 ADD PUSH0 DUP2 MSTORE PUSH1 0x20 ADD PUSH1 0x60 DUP2 MSTORE PUSH1 0x20 ADD PUSH2 0x1E45 PUSH1 0x40 MLOAD DUP1 PUSH2 0x220 ADD PUSH1 0x40 MSTORE DUP1 PUSH0 DUP2 MSTORE PUSH1 0x20 ADD PUSH0 DUP2 MSTORE PUSH1 0x20 ADD PUSH1 0x60 DUP2 MSTORE PUSH1 0x20 ADD PUSH1 0x60 DUP2 MSTORE PUSH1 0x20 ADD PUSH0 DUP2 MSTORE PUSH1 0x20 ADD PUSH0 DUP2 MSTORE PUSH1 0x20 ADD PUSH1 0x60 DUP2 MSTORE PUSH1 0x20 ADD PUSH1 0x60 DUP2 MSTORE PUSH1 0x20 ADD PUSH1 0x60 DUP2 MSTORE PUSH1 0x20 ADD PUSH1 0x60 DUP2 MSTORE PUSH1 0x20 ADD PUSH1 0x60 DUP2 MSTORE PUSH1 0x20 ADD PUSH0 DUP2 MSTORE PUSH1 0x20 ADD PUSH0 ISZERO ISZERO DUP2 MSTORE PUSH1 0x20 ADD PUSH1 0x60 DUP2 MSTORE PUSH1 0x20 ADD PUSH1 0x60 DUP2 MSTORE PUSH1 0x20 ADD PUSH1 0x60 DUP2 MSTORE PUSH1 0x20 ADD PUSH1 0x60 DUP2 MSTORE POP SWAP1 JUMP JUMPDEST SWAP1 MSTORE SWAP1 JUMP JUMPDEST PUSH0 DUP2 MLOAD DUP1 DUP5 MSTORE DUP1 PUSH1 0x20 DUP5 ADD PUSH1 0x20 DUP7 ADD MCOPY PUSH0 PUSH1 0x20 DUP3 DUP7 ADD ADD MSTORE PUSH1 0x20 PUSH1 0x1F NOT PUSH1 0x1F DUP4 ADD AND DUP6 ADD ADD SWAP2 POP POP SWAP3 SWAP2 POP POP JUMP JUMPDEST PUSH0 DUP2 MLOAD PUSH1 0x80 DUP5 MSTORE PUSH2 0x1E8C PUSH1 0x80 DUP6 ADD DUP3 PUSH2 0x1E4A JUMP JUMPDEST SWAP1 POP PUSH1 0x20 DUP4 ADD MLOAD PUSH1 0x20 DUP6 ADD MSTORE PUSH1 0x40 DUP4 ADD MLOAD DUP5 DUP3 SUB PUSH1 0x40 DUP7 ADD MSTORE PUSH2 0x1EAF DUP3 DUP3 PUSH2 0x1E4A JUMP JUMPDEST SWAP2 POP POP PUSH1 0x60 DUP4 ADD MLOAD DUP5 DUP3 SUB PUSH1 0x60 DUP7 ADD MSTORE DUP1 MLOAD DUP3 MSTORE PUSH1 0x20 DUP2 ADD MLOAD PUSH1 0x20 DUP4 ADD MSTORE PUSH1 0x40 DUP2 ADD MLOAD PUSH2 0x220 PUSH1 0x40 DUP5 ADD MSTORE PUSH2 0x1EE8 PUSH2 0x220 DUP5 ADD DUP3 PUSH2 0x1E4A JUMP JUMPDEST SWAP1 POP PUSH1 0x60 DUP3 ADD MLOAD DUP4 DUP3 SUB PUSH1 0x60 DUP6 ADD MSTORE PUSH2 0x1F01 DUP3 DUP3 PUSH2 0x1E4A JUMP JUMPDEST SWAP2 POP POP PUSH1 0x80 DUP3 ADD MLOAD PUSH1 0x80 DUP5 ADD MSTORE PUSH1 0xA0 DUP3 ADD MLOAD PUSH1 0xA0 DUP5 ADD MSTORE PUSH1 0xC0 DUP3 ADD MLOAD DUP4 DUP3 SUB PUSH1 0xC0 DUP6 ADD MSTORE PUSH2 0x1F2F DUP3 DUP3 PUSH2 0x1E4A JUMP JUMPDEST SWAP2 POP POP PUSH1 0xE0 DUP3 ADD MLOAD DUP4 DUP3 SUB PUSH1 0xE0 DUP6 ADD MSTORE PUSH2 0x1F49 DUP3 DUP3 PUSH2 0x1E4A JUMP JUMPDEST SWAP2 POP POP PUSH2 0x100 DUP3 ADD MLOAD DUP4 DUP3 SUB PUSH2 0x100 DUP6 ADD MSTORE PUSH2 0x1F65 DUP3 DUP3 PUSH2 0x1E4A JUMP JUMPDEST SWAP2 POP POP PUSH2 0x120 DUP3 ADD MLOAD DUP4 DUP3 SUB PUSH2 0x120 DUP6 ADD MSTORE PUSH2 0x1F81 DUP3 DUP3 PUSH2 0x1E4A JUMP JUMPDEST SWAP2 POP POP PUSH2 0x140 DUP3 ADD MLOAD DUP4 DUP3 SUB PUSH2 0x140 DUP6 ADD MSTORE PUSH2 0x1F9D DUP3 DUP3 PUSH2 0x1E4A JUMP JUMPDEST SWAP2 POP POP PUSH2 0x160 DUP3 ADD MLOAD PUSH2 0x160 DUP5 ADD MSTORE PUSH2 0x180 DUP3 ADD MLOAD PUSH2 0x1FC1 PUSH2 0x180 DUP6 ADD DUP3 ISZERO ISZERO SWAP1 MSTORE JUMP JUMPDEST POP PUSH2 0x1A0 DUP3 ADD MLOAD DUP4 DUP3 SUB PUSH2 0x1A0 DUP6 ADD MSTORE PUSH2 0x1FDB DUP3 DUP3 PUSH2 0x1E4A JUMP JUMPDEST SWAP2 POP POP PUSH2 0x1C0 DUP3 ADD MLOAD DUP4 DUP3 SUB PUSH2 0x1C0 DUP6 ADD MSTORE PUSH2 0x1FF7 DUP3 DUP3 PUSH2 0x1E4A JUMP JUMPDEST SWAP2 POP POP PUSH2 0x1E0 DUP3 ADD MLOAD DUP4 DUP3 SUB PUSH2 0x1E0 DUP6 ADD MSTORE PUSH2 0x2013 DUP3 DUP3 PUSH2 0x1E4A JUMP JUMPDEST SWAP2 POP POP PUSH2 0x200 DUP3 ADD MLOAD SWAP2 POP DUP3 DUP2 SUB PUSH2 0x200 DUP5 ADD MSTORE PUSH2 0x2031 DUP2 DUP4 PUSH2 0x1E4A JUMP JUMPDEST SWAP7 SWAP6 POP POP POP POP POP POP JUMP JUMPDEST PUSH0 PUSH1 0x20 DUP3 ADD PUSH1 0x20 DUP4 MSTORE DUP1 DUP5 MLOAD DUP1 DUP4 MSTORE PUSH1 0x40 DUP6 ADD SWAP2 POP PUSH1 0x40 DUP2 PUSH1 0x5 SHL DUP7 ADD ADD SWAP3 POP PUSH1 0x20 DUP7 ADD PUSH0 JUMPDEST DUP3 DUP2 LT ISZERO PUSH2 0x2092 JUMPI PUSH1 0x3F NOT DUP8 DUP7 SUB ADD DUP5 MSTORE PUSH2 0x207D DUP6 DUP4 MLOAD PUSH2 0x1E78 JUMP JUMPDEST SWAP5 POP PUSH1 0x20 SWAP4 DUP5 ADD SWAP4 SWAP2 SWAP1 SWAP2 ADD SWAP1 PUSH1 0x1 ADD PUSH2 0x2061 JUMP JUMPDEST POP SWAP3 SWAP7 SWAP6 POP POP POP POP POP POP JUMP JUMPDEST PUSH0 PUSH1 0x20 DUP3 DUP5 SUB SLT ISZERO PUSH2 0x20AE JUMPI PUSH0 PUSH0 REVERT JUMPDEST POP CALLDATALOAD SWAP2 SWAP1 POP JUMP JUMPDEST PUSH1 0x20 DUP2 MSTORE PUSH0 PUSH2 0x20C7 PUSH1 0x20 DUP4 ADD DUP5 PUSH2 0x1E78 JUMP JUMPDEST SWAP4 SWAP3 POP POP POP JUMP JUMPDEST PUSH1 0x20 DUP2 MSTORE PUSH0 PUSH2 0x20C7 PUSH1 0x20 DUP4 ADD DUP5 PUSH2 0x1E4A JUMP JUMPDEST PUSH0 PUSH1 0x20 DUP3 DUP5 SUB SLT ISZERO PUSH2 0x20F0 JUMPI PUSH0 PUSH0 REVERT JUMPDEST DUP2 CALLDATALOAD PUSH1 0x1 PUSH1 0x1 PUSH1 0x40 SHL SUB DUP2 GT ISZERO PUSH2 0x2105 JUMPI PUSH0 PUSH0 REVERT JUMPDEST DUP3 ADD PUSH2 0x220 DUP2 DUP6 SUB SLT ISZERO PUSH2 0x20C7 JUMPI PUSH0 PUSH0 REVERT JUMPDEST PUSH4 0x4E487B71 PUSH1 0xE0 SHL PUSH0 MSTORE PUSH1 0x41 PUSH1 0x4 MSTORE PUSH1 0x24 PUSH0 REVERT JUMPDEST PUSH4 0x4E487B71 PUSH1 0xE0 SHL PUSH0 MSTORE PUSH1 0x32 PUSH1 0x4 MSTORE PUSH1 0x24 PUSH0 REVERT JUMPDEST PUSH1 0x1 DUP2 DUP2 SHR SWAP1 DUP3 AND DUP1 PUSH2 0x2153 JUMPI PUSH1 0x7F DUP3 AND SWAP2 POP JUMPDEST PUSH1 0x20 DUP3 LT DUP2 SUB PUSH2 0x97D JUMPI PUSH4 0x4E487B71 PUSH1 0xE0 SHL PUSH0 MSTORE PUSH1 0x22 PUSH1 0x4 MSTORE PUSH1 0x24 PUSH0 REVERT JUMPDEST PUSH0 PUSH1 0x1 DUP3 ADD PUSH2 0x218E JUMPI PUSH4 0x4E487B71 PUSH1 0xE0 SHL PUSH0 MSTORE PUSH1 0x11 PUSH1 0x4 MSTORE PUSH1 0x24 PUSH0 REVERT JUMPDEST POP PUSH1 0x1 ADD SWAP1 JUMP JUMPDEST PUSH0 PUSH0 DUP4 CALLDATALOAD PUSH1 0x1E NOT DUP5 CALLDATASIZE SUB ADD DUP2 SLT PUSH2 0x21AA JUMPI PUSH0 PUSH0 REVERT JUMPDEST DUP4 ADD DUP1 CALLDATALOAD SWAP2 POP PUSH1 0x1 PUSH1 0x1 PUSH1 0x40 SHL SUB DUP3 GT ISZERO PUSH2 0x21C3 JUMPI PUSH0 PUSH0 REVERT JUMPDEST PUSH1 0x20 ADD SWAP2 POP CALLDATASIZE DUP2 SWAP1 SUB DUP3 SGT ISZERO PUSH2 0x21D7 JUMPI PUSH0 PUSH0 REVERT JUMPDEST SWAP3 POP SWAP3 SWAP1 POP JUMP JUMPDEST DUP2 DUP4 DUP3 CALLDATACOPY PUSH0 SWAP2 ADD SWAP1 DUP2 MSTORE SWAP2 SWAP1 POP JUMP JUMPDEST PUSH1 0x40 MLOAD PUSH2 0x220 DUP2 ADD PUSH1 0x1 PUSH1 0x1 PUSH1 0x40 SHL SUB DUP2 GT DUP3 DUP3 LT OR ISZERO PUSH2 0x2210 JUMPI PUSH2 0x2210 PUSH2 0x2117 JUMP JUMPDEST PUSH1 0x40 MSTORE SWAP1 JUMP JUMPDEST PUSH0 DUP3 PUSH1 0x1F DUP4 ADD SLT PUSH2 0x2225 JUMPI PUSH0 PUSH0 REVERT JUMPDEST DUP2 CALLDATALOAD PUSH1 0x1 PUSH1 0x1 PUSH1 0x40 SHL SUB DUP2 GT ISZERO PUSH2 0x223E JUMPI PUSH2 0x223E PUSH2 0x2117 JUMP JUMPDEST PUSH1 0x40 MLOAD PUSH1 0x1F DUP3 ADD PUSH1 0x1F NOT SWAP1 DUP2 AND PUSH1 0x3F ADD AND DUP2 ADD PUSH1 0x1 PUSH1 0x1 PUSH1 0x40 SHL SUB DUP2 GT DUP3 DUP3 LT OR ISZERO PUSH2 0x226C JUMPI PUSH2 0x226C PUSH2 0x2117 JUMP JUMPDEST PUSH1 0x40 MSTORE DUP2 DUP2 MSTORE DUP4 DUP3 ADD PUSH1 0x20 ADD DUP6 LT ISZERO PUSH2 0x2283 JUMPI PUSH0 PUSH0 REVERT JUMPDEST DUP2 PUSH1 0x20 DUP6 ADD PUSH1 0x20 DUP4 ADD CALLDATACOPY PUSH0 SWAP2 DUP2 ADD PUSH1 0x20 ADD SWAP2 SWAP1 SWAP2 MSTORE SWAP4 SWAP3 POP POP POP JUMP JUMPDEST DUP1 CALLDATALOAD DUP1 ISZERO ISZERO DUP2 EQ PUSH2 0x22AE JUMPI PUSH0 PUSH0 REVERT JUMPDEST SWAP2 SWAP1 POP JUMP JUMPDEST PUSH0 PUSH2 0x220 DUP3 CALLDATASIZE SUB SLT ISZERO PUSH2 0x22C4 JUMPI PUSH0 PUSH0 REVERT JUMPDEST PUSH2 0x22CC PUSH2 0x21ED JUMP JUMPDEST DUP3 CALLDATALOAD DUP2 MSTORE PUSH1 0x20 DUP1 DUP5 ADD CALLDATALOAD SWAP1 DUP3 ADD MSTORE PUSH1 0x40 DUP4 ADD CALLDATALOAD PUSH1 0x1 PUSH1 0x1 PUSH1 0x40 SHL SUB DUP2 GT ISZERO PUSH2 0x22F2 JUMPI PUSH0 PUSH0 REVERT JUMPDEST PUSH2 0x22FE CALLDATASIZE DUP3 DUP7 ADD PUSH2 0x2216 JUMP JUMPDEST PUSH1 0x40 DUP4 ADD MSTORE POP PUSH1 0x60 DUP4 ADD CALLDATALOAD PUSH1 0x1 PUSH1 0x1 PUSH1 0x40 SHL SUB DUP2 GT ISZERO PUSH2 0x231C JUMPI PUSH0 PUSH0 REVERT JUMPDEST PUSH2 0x2328 CALLDATASIZE DUP3 DUP7 ADD PUSH2 0x2216 JUMP JUMPDEST PUSH1 0x60 DUP4 ADD MSTORE POP PUSH1 0x80 DUP4 DUP2 ADD CALLDATALOAD SWAP1 DUP3 ADD MSTORE PUSH1 0xA0 DUP1 DUP5 ADD CALLDATALOAD SWAP1 DUP3 ADD MSTORE PUSH1 0xC0 DUP4 ADD CALLDATALOAD PUSH1 0x1 PUSH1 0x1 PUSH1 0x40 SHL SUB DUP2 GT ISZERO PUSH2 0x235A JUMPI PUSH0 PUSH0 REVERT JUMPDEST PUSH2 0x2366 CALLDATASIZE DUP3 DUP7 ADD PUSH2 0x2216 JUMP JUMPDEST PUSH1 0xC0 DUP4 ADD MSTORE POP PUSH1 0xE0 DUP4 ADD CALLDATALOAD PUSH1 0x1 PUSH1 0x1 PUSH1 0x40 SHL SUB DUP2 GT ISZERO PUSH2 0x2384 JUMPI PUSH0 PUSH0 REVERT JUMPDEST PUSH2 0x2390 CALLDATASIZE DUP3 DUP7 ADD PUSH2 0x2216 JUMP JUMPDEST PUSH1 0xE0 DUP4 ADD MSTORE POP PUSH2 0x100 DUP4 ADD CALLDATALOAD PUSH1 0x1 PUSH1 0x1 PUSH1 0x40 SHL SUB DUP2 GT ISZERO PUSH2 0x23AF JUMPI PUSH0 PUSH0 REVERT JUMPDEST PUSH2 0x23BB CALLDATASIZE DUP3 DUP7 ADD PUSH2 0x2216 JUMP JUMPDEST PUSH2 0x100 DUP4 ADD MSTORE POP PUSH2 0x120 DUP4 ADD CALLDATALOAD PUSH1 0x1 PUSH1 0x1 PUSH1 0x40 SHL SUB DUP2 GT ISZERO PUSH2 0x23DB JUMPI PUSH0 PUSH0 REVERT JUMPDEST PUSH2 0x23E7 CALLDATASIZE DUP3 DUP7 ADD PUSH2 0x2216 JUMP JUMPDEST PUSH2 0x120 DUP4 ADD MSTORE POP PUSH2 0x140 DUP4 ADD CALLDATALOAD PUSH1 0x1 PUSH1 0x1 PUSH1 0x40 SHL SUB DUP2 GT ISZERO PUSH2 0x2407 JUMPI PUSH0 PUSH0 REVERT JUMPDEST PUSH2 0x2413 CALLDATASIZE DUP3 DUP7 ADD PUSH2 0x2216 JUMP JUMPDEST PUSH2 0x140 DUP4 ADD MSTORE POP PUSH2 0x160 DUP4 DUP2 ADD CALLDATALOAD SWAP1 DUP3 ADD MSTORE PUSH2 0x2432 PUSH2 0x180 DUP5 ADD PUSH2 0x229F JUMP JUMPDEST PUSH2 0x180 DUP3 ADD MSTORE PUSH2 0x1A0 DUP4 ADD CALLDATALOAD PUSH1 0x1 PUSH1 0x1 PUSH1 0x40 SHL SUB DUP2 GT ISZERO PUSH2 0x2451 JUMPI PUSH0 PUSH0 REVERT JUMPDEST PUSH2 0x245D CALLDATASIZE DUP3 DUP7 ADD PUSH2 0x2216 JUMP JUMPDEST PUSH2 0x1A0 DUP4 ADD MSTORE POP PUSH2 0x1C0 DUP4 ADD CALLDATALOAD PUSH1 0x1 PUSH1 0x1 PUSH1 0x40 SHL SUB DUP2 GT ISZERO PUSH2 0x247D JUMPI PUSH0 PUSH0 REVERT JUMPDEST PUSH2 0x2489 CALLDATASIZE DUP3 DUP7 ADD PUSH2 0x2216 JUMP JUMPDEST PUSH2 0x1C0 DUP4 ADD MSTORE POP PUSH2 0x1E0 DUP4 ADD CALLDATALOAD PUSH1 0x1 PUSH1 0x1 PUSH1 0x40 SHL SUB DUP2 GT ISZERO PUSH2 0x24A9 JUMPI PUSH0 PUSH0 REVERT JUMPDEST PUSH2 0x24B5 CALLDATASIZE DUP3 DUP7 ADD PUSH2 0x2216 JUMP JUMPDEST PUSH2 0x1E0 DUP4 ADD MSTORE POP PUSH2 0x200 DUP4 ADD CALLDATALOAD PUSH1 0x1 PUSH1 0x1 PUSH1 0x40 SHL SUB DUP2 GT ISZERO PUSH2 0x24D5 JUMPI PUSH0 PUSH0 REVERT JUMPDEST PUSH2 0x24E1 CALLDATASIZE DUP3 DUP7 ADD PUSH2 0x2216 JUMP JUMPDEST PUSH2 0x200 DUP4 ADD MSTORE POP SWAP3 SWAP2 POP POP JUMP JUMPDEST PUSH1 0x1F DUP3 GT ISZERO PUSH2 0x2535 JUMPI DUP1 PUSH0 MSTORE PUSH1 0x20 PUSH0 KECCAK256 PUSH1 0x1F DUP5 ADD PUSH1 0x5 SHR DUP2 ADD PUSH1 0x20 DUP6 LT ISZERO PUSH2 0x2513 JUMPI POP DUP1 JUMPDEST PUSH1 0x1F DUP5 ADD PUSH1 0x5 SHR DUP3 ADD SWAP2 POP JUMPDEST DUP2 DUP2 LT ISZERO PUSH2 0x2532 JUMPI PUSH0 DUP2 SSTORE PUSH1 0x1 ADD PUSH2 0x251F JUMP JUMPDEST POP POP JUMPDEST POP POP POP JUMP JUMPDEST DUP2 MLOAD PUSH1 0x1 PUSH1 0x1 PUSH1 0x40 SHL SUB DUP2 GT ISZERO PUSH2 0x2553 JUMPI PUSH2 0x2553 PUSH2 0x2117 JUMP JUMPDEST PUSH2 0x2567 DUP2 PUSH2 0x2561 DUP5 SLOAD PUSH2 0x213F JUMP JUMPDEST DUP5 PUSH2 0x24EE JUMP JUMPDEST PUSH1 0x20 PUSH1 0x1F DUP3 GT PUSH1 0x1 DUP2 EQ PUSH2 0x2599 JUMPI PUSH0 DUP4 ISZERO PUSH2 0x2582 JUMPI POP DUP5 DUP3 ADD MLOAD JUMPDEST PUSH0 NOT PUSH1 0x3 DUP6 SWAP1 SHL SHR NOT AND PUSH1 0x1 DUP5 SWAP1 SHL OR DUP5 SSTORE PUSH2 0x2532 JUMP JUMPDEST PUSH0 DUP5 DUP2 MSTORE PUSH1 0x20 DUP2 KECCAK256 PUSH1 0x1F NOT DUP6 AND SWAP2 JUMPDEST DUP3 DUP2 LT ISZERO PUSH2 0x25C8 JUMPI DUP8 DUP6 ADD MLOAD DUP3 SSTORE PUSH1 0x20 SWAP5 DUP6 ADD SWAP5 PUSH1 0x1 SWAP1 SWAP3 ADD SWAP2 ADD PUSH2 0x25A8 JUMP JUMPDEST POP DUP5 DUP3 LT ISZERO PUSH2 0x25E5 JUMPI DUP7 DUP5 ADD MLOAD PUSH0 NOT PUSH1 0x3 DUP8 SWAP1 SHL PUSH1 0xF8 AND SHR NOT AND DUP2 SSTORE JUMPDEST POP POP POP POP PUSH1 0x1 SWAP1 DUP2 SHL ADD SWAP1 SSTORE POP JUMP JUMPDEST DUP2 DUP4 MSTORE DUP2 DUP2 PUSH1 0x20 DUP6 ADD CALLDATACOPY POP PUSH0 DUP3 DUP3 ADD PUSH1 0x20 SWAP1 DUP2 ADD SWAP2 SWAP1 SWAP2 MSTORE PUSH1 0x1F SWAP1 SWAP2 ADD PUSH1 0x1F NOT AND SWAP1 SWAP2 ADD ADD SWAP1 JUMP JUMPDEST DUP8 DUP2 MSTORE PUSH1 0x80 PUSH1 0x20 DUP3 ADD MSTORE PUSH0 PUSH2 0x2635 PUSH1 0x80 DUP4 ADD DUP9 DUP11 PUSH2 0x25F4 JUMP JUMPDEST DUP3 DUP2 SUB PUSH1 0x40 DUP5 ADD MSTORE PUSH2 0x2648 DUP2 DUP8 DUP10 PUSH2 0x25F4 JUMP JUMPDEST SWAP1 POP DUP3 DUP2 SUB PUSH1 0x60 DUP5 ADD MSTORE PUSH2 0x265D DUP2 DUP6 DUP8 PUSH2 0x25F4 JUMP JUMPDEST SWAP11 SWAP10 POP POP POP POP POP POP POP POP POP POP JUMP INVALID LOG2 PUSH5 0x6970667358 0x22 SLT KECCAK256 LOG3 TIMESTAMP SHL 0xBF 0xD6 0xCF SWAPN 0x47 0xEA KECCAK256 SHL SWAP10 0x1E DUP4 PUSH11 0x88335216FCDE548F485CD6 0xC2 SWAP14 0xEA PUSH7 0xDEBC64736F6C63 NUMBER STOP ADDMOD 0x1E STOP CALLER "
				},
				"gasEstimates": {
					"creation": {
						"codeDepositCost": "1977800",
						"executionCost": "2096",
						"totalCost": "1979896"
					},
					"external": {
						"INTERVAL_1S()": "infinite",
						"getAllKline()": "infinite",
						"getKline(uint256)": "infinite",
						"getKlineFrom(uint256)": "infinite",
						"getLength()": "2345",
						"recordKline((uint256,uint256,string,string,uint256,uint256,string,string,string,string,string,uint256,bool,string,string,string,string))": "infinite"
					}
				},
				"methodIdentifiers": {
					"INTERVAL_1S()": "5d0345c7",
					"getAllKline()": "48cbad6e",
					"getKline(uint256)": "50222387",
					"getKlineFrom(uint256)": "a8006d35",
					"getLength()": "be1c766b",
					"recordKline((uint256,uint256,string,string,uint256,uint256,string,string,string,string,string,uint256,bool,string,string,string,string))": "f2523a9d"
				}
			},
			"storageLayout": {
				"storage": [
					{
						"astId": 61,
						"contract": "contracts/manager/Candel_1s/Kandel_1s_Manager.sol:Kandle_1s_Manager",
						"label": "candles",
						"offset": 0,
						"slot": "0",
						"type": "t_mapping(t_uint256,t_struct(KlineResponse)358_storage)"
					},
					{
						"astId": 64,
						"contract": "contracts/manager/Candel_1s/Kandel_1s_Manager.sol:Kandle_1s_Manager",
						"label": "timestampList",
						"offset": 0,
						"slot": "1",
						"type": "t_array(t_uint256)dyn_storage"
					}
				],
				"types": {
					"t_array(t_uint256)dyn_storage": {
						"base": "t_uint256",
						"encoding": "dynamic_array",
						"label": "uint256[]",
						"numberOfBytes": "32"
					},
					"t_bool": {
						"encoding": "inplace",
						"label": "bool",
						"numberOfBytes": "1"
					},
					"t_mapping(t_uint256,t_struct(KlineResponse)358_storage)": {
						"encoding": "mapping",
						"key": "t_uint256",
						"label": "mapping(uint256 => struct KlineResponse)",
						"numberOfBytes": "32",
						"value": "t_struct(KlineResponse)358_storage"
					},
					"t_string_storage": {
						"encoding": "bytes",
						"label": "string",
						"numberOfBytes": "32"
					},
					"t_struct(KlineRecord)348_storage": {
						"encoding": "inplace",
						"label": "struct KlineRecord",
						"members": [
							{
								"astId": 315,
								"contract": "contracts/manager/Candel_1s/Kandel_1s_Manager.sol:Kandle_1s_Manager",
								"label": "t",
								"offset": 0,
								"slot": "0",
								"type": "t_uint256"
							},
							{
								"astId": 317,
								"contract": "contracts/manager/Candel_1s/Kandel_1s_Manager.sol:Kandle_1s_Manager",
								"label": "T",
								"offset": 0,
								"slot": "1",
								"type": "t_uint256"
							},
							{
								"astId": 319,
								"contract": "contracts/manager/Candel_1s/Kandel_1s_Manager.sol:Kandle_1s_Manager",
								"label": "s",
								"offset": 0,
								"slot": "2",
								"type": "t_string_storage"
							},
							{
								"astId": 321,
								"contract": "contracts/manager/Candel_1s/Kandel_1s_Manager.sol:Kandle_1s_Manager",
								"label": "i",
								"offset": 0,
								"slot": "3",
								"type": "t_string_storage"
							},
							{
								"astId": 323,
								"contract": "contracts/manager/Candel_1s/Kandel_1s_Manager.sol:Kandle_1s_Manager",
								"label": "f",
								"offset": 0,
								"slot": "4",
								"type": "t_uint256"
							},
							{
								"astId": 325,
								"contract": "contracts/manager/Candel_1s/Kandel_1s_Manager.sol:Kandle_1s_Manager",
								"label": "L",
								"offset": 0,
								"slot": "5",
								"type": "t_uint256"
							},
							{
								"astId": 327,
								"contract": "contracts/manager/Candel_1s/Kandel_1s_Manager.sol:Kandle_1s_Manager",
								"label": "o",
								"offset": 0,
								"slot": "6",
								"type": "t_string_storage"
							},
							{
								"astId": 329,
								"contract": "contracts/manager/Candel_1s/Kandel_1s_Manager.sol:Kandle_1s_Manager",
								"label": "c",
								"offset": 0,
								"slot": "7",
								"type": "t_string_storage"
							},
							{
								"astId": 331,
								"contract": "contracts/manager/Candel_1s/Kandel_1s_Manager.sol:Kandle_1s_Manager",
								"label": "h",
								"offset": 0,
								"slot": "8",
								"type": "t_string_storage"
							},
							{
								"astId": 333,
								"contract": "contracts/manager/Candel_1s/Kandel_1s_Manager.sol:Kandle_1s_Manager",
								"label": "l",
								"offset": 0,
								"slot": "9",
								"type": "t_string_storage"
							},
							{
								"astId": 335,
								"contract": "contracts/manager/Candel_1s/Kandel_1s_Manager.sol:Kandle_1s_Manager",
								"label": "v",
								"offset": 0,
								"slot": "10",
								"type": "t_string_storage"
							},
							{
								"astId": 337,
								"contract": "contracts/manager/Candel_1s/Kandel_1s_Manager.sol:Kandle_1s_Manager",
								"label": "n",
								"offset": 0,
								"slot": "11",
								"type": "t_uint256"
							},
							{
								"astId": 339,
								"contract": "contracts/manager/Candel_1s/Kandel_1s_Manager.sol:Kandle_1s_Manager",
								"label": "x",
								"offset": 0,
								"slot": "12",
								"type": "t_bool"
							},
							{
								"astId": 341,
								"contract": "contracts/manager/Candel_1s/Kandel_1s_Manager.sol:Kandle_1s_Manager",
								"label": "q",
								"offset": 0,
								"slot": "13",
								"type": "t_string_storage"
							},
							{
								"astId": 343,
								"contract": "contracts/manager/Candel_1s/Kandel_1s_Manager.sol:Kandle_1s_Manager",
								"label": "V",
								"offset": 0,
								"slot": "14",
								"type": "t_string_storage"
							},
							{
								"astId": 345,
								"contract": "contracts/manager/Candel_1s/Kandel_1s_Manager.sol:Kandle_1s_Manager",
								"label": "Q",
								"offset": 0,
								"slot": "15",
								"type": "t_string_storage"
							},
							{
								"astId": 347,
								"contract": "contracts/manager/Candel_1s/Kandel_1s_Manager.sol:Kandle_1s_Manager",
								"label": "B",
								"offset": 0,
								"slot": "16",
								"type": "t_string_storage"
							}
						],
						"numberOfBytes": "544"
					},
					"t_struct(KlineResponse)358_storage": {
						"encoding": "inplace",
						"label": "struct KlineResponse",
						"members": [
							{
								"astId": 350,
								"contract": "contracts/manager/Candel_1s/Kandel_1s_Manager.sol:Kandle_1s_Manager",
								"label": "e",
								"offset": 0,
								"slot": "0",
								"type": "t_string_storage"
							},
							{
								"astId": 352,
								"contract": "contracts/manager/Candel_1s/Kandel_1s_Manager.sol:Kandle_1s_Manager",
								"label": "E",
								"offset": 0,
								"slot": "1",
								"type": "t_uint256"
							},
							{
								"astId": 354,
								"contract": "contracts/manager/Candel_1s/Kandel_1s_Manager.sol:Kandle_1s_Manager",
								"label": "s",
								"offset": 0,
								"slot": "2",
								"type": "t_string_storage"
							},
							{
								"astId": 357,
								"contract": "contracts/manager/Candel_1s/Kandel_1s_Manager.sol:Kandle_1s_Manager",
								"label": "k",
								"offset": 0,
								"slot": "3",
								"type": "t_struct(KlineRecord)348_storage"
							}
						],
						"numberOfBytes": "640"
					},
					"t_uint256": {
						"encoding": "inplace",
						"label": "uint256",
						"numberOfBytes": "32"
					}
				}
			},
			"userdoc": {
				"kind": "user",
				"methods": {},
				"version": 1
			}
		}
	}
}