{
	"contracts/manager/Candel_1s/Candel_1s_Manager.sol": {
		"Candle_1s_Manager": {
			"abi": [
				{
					"anonymous": false,
					"inputs": [
						{
							"indexed": false,
							"internalType": "uint256",
							"name": "timestamp",
							"type": "uint256"
						},
						{
							"indexed": false,
							"internalType": "string",
							"name": "symbol",
							"type": "string"
						},
						{
							"indexed": false,
							"internalType": "string",
							"name": "open",
							"type": "string"
						},
						{
							"indexed": false,
							"internalType": "string",
							"name": "close",
							"type": "string"
						}
					],
					"name": "AddCandleRecord",
					"type": "event"
				},
				{
					"inputs": [],
					"name": "INTERVAL_1S",
					"outputs": [
						{
							"internalType": "string",
							"name": "",
							"type": "string"
						}
					],
					"stateMutability": "view",
					"type": "function"
				},
				{
					"inputs": [],
					"name": "getAllCandle",
					"outputs": [
						{
							"components": [
								{
									"internalType": "string",
									"name": "e",
									"type": "string"
								},
								{
									"internalType": "uint256",
									"name": "E",
									"type": "uint256"
								},
								{
									"internalType": "string",
									"name": "s",
									"type": "string"
								},
								{
									"components": [
										{
											"internalType": "uint256",
											"name": "t",
											"type": "uint256"
										},
										{
											"internalType": "uint256",
											"name": "T",
											"type": "uint256"
										},
										{
											"internalType": "string",
											"name": "s",
											"type": "string"
										},
										{
											"internalType": "string",
											"name": "i",
											"type": "string"
										},
										{
											"internalType": "uint256",
											"name": "f",
											"type": "uint256"
										},
										{
											"internalType": "uint256",
											"name": "L",
											"type": "uint256"
										},
										{
											"internalType": "string",
											"name": "o",
											"type": "string"
										},
										{
											"internalType": "string",
											"name": "c",
											"type": "string"
										},
										{
											"internalType": "string",
											"name": "h",
											"type": "string"
										},
										{
											"internalType": "string",
											"name": "l",
											"type": "string"
										},
										{
											"internalType": "string",
											"name": "v",
											"type": "string"
										},
										{
											"internalType": "uint256",
											"name": "n",
											"type": "uint256"
										},
										{
											"internalType": "bool",
											"name": "x",
											"type": "bool"
										},
										{
											"internalType": "string",
											"name": "q",
											"type": "string"
										},
										{
											"internalType": "string",
											"name": "V",
											"type": "string"
										},
										{
											"internalType": "string",
											"name": "Q",
											"type": "string"
										},
										{
											"internalType": "string",
											"name": "B",
											"type": "string"
										}
									],
									"internalType": "struct CandleRecord",
									"name": "k",
									"type": "tuple"
								}
							],
							"internalType": "struct CandleResponse[]",
							"name": "",
							"type": "tuple[]"
						}
					],
					"stateMutability": "view",
					"type": "function"
				},
				{
					"inputs": [
						{
							"internalType": "uint256",
							"name": "timestamp",
							"type": "uint256"
						}
					],
					"name": "getCandle",
					"outputs": [
						{
							"components": [
								{
									"internalType": "string",
									"name": "e",
									"type": "string"
								},
								{
									"internalType": "uint256",
									"name": "E",
									"type": "uint256"
								},
								{
									"internalType": "string",
									"name": "s",
									"type": "string"
								},
								{
									"components": [
										{
											"internalType": "uint256",
											"name": "t",
											"type": "uint256"
										},
										{
											"internalType": "uint256",
											"name": "T",
											"type": "uint256"
										},
										{
											"internalType": "string",
											"name": "s",
											"type": "string"
										},
										{
											"internalType": "string",
											"name": "i",
											"type": "string"
										},
										{
											"internalType": "uint256",
											"name": "f",
											"type": "uint256"
										},
										{
											"internalType": "uint256",
											"name": "L",
											"type": "uint256"
										},
										{
											"internalType": "string",
											"name": "o",
											"type": "string"
										},
										{
											"internalType": "string",
											"name": "c",
											"type": "string"
										},
										{
											"internalType": "string",
											"name": "h",
											"type": "string"
										},
										{
											"internalType": "string",
											"name": "l",
											"type": "string"
										},
										{
											"internalType": "string",
											"name": "v",
											"type": "string"
										},
										{
											"internalType": "uint256",
											"name": "n",
											"type": "uint256"
										},
										{
											"internalType": "bool",
											"name": "x",
											"type": "bool"
										},
										{
											"internalType": "string",
											"name": "q",
											"type": "string"
										},
										{
											"internalType": "string",
											"name": "V",
											"type": "string"
										},
										{
											"internalType": "string",
											"name": "Q",
											"type": "string"
										},
										{
											"internalType": "string",
											"name": "B",
											"type": "string"
										}
									],
									"internalType": "struct CandleRecord",
									"name": "k",
									"type": "tuple"
								}
							],
							"internalType": "struct CandleResponse",
							"name": "",
							"type": "tuple"
						}
					],
					"stateMutability": "view",
					"type": "function"
				},
				{
					"inputs": [
						{
							"internalType": "uint256",
							"name": "fromTimestamp",
							"type": "uint256"
						}
					],
					"name": "getCandleFrom",
					"outputs": [
						{
							"components": [
								{
									"internalType": "string",
									"name": "e",
									"type": "string"
								},
								{
									"internalType": "uint256",
									"name": "E",
									"type": "uint256"
								},
								{
									"internalType": "string",
									"name": "s",
									"type": "string"
								},
								{
									"components": [
										{
											"internalType": "uint256",
											"name": "t",
											"type": "uint256"
										},
										{
											"internalType": "uint256",
											"name": "T",
											"type": "uint256"
										},
										{
											"internalType": "string",
											"name": "s",
											"type": "string"
										},
										{
											"internalType": "string",
											"name": "i",
											"type": "string"
										},
										{
											"internalType": "uint256",
											"name": "f",
											"type": "uint256"
										},
										{
											"internalType": "uint256",
											"name": "L",
											"type": "uint256"
										},
										{
											"internalType": "string",
											"name": "o",
											"type": "string"
										},
										{
											"internalType": "string",
											"name": "c",
											"type": "string"
										},
										{
											"internalType": "string",
											"name": "h",
											"type": "string"
										},
										{
											"internalType": "string",
											"name": "l",
											"type": "string"
										},
										{
											"internalType": "string",
											"name": "v",
											"type": "string"
										},
										{
											"internalType": "uint256",
											"name": "n",
											"type": "uint256"
										},
										{
											"internalType": "bool",
											"name": "x",
											"type": "bool"
										},
										{
											"internalType": "string",
											"name": "q",
											"type": "string"
										},
										{
											"internalType": "string",
											"name": "V",
											"type": "string"
										},
										{
											"internalType": "string",
											"name": "Q",
											"type": "string"
										},
										{
											"internalType": "string",
											"name": "B",
											"type": "string"
										}
									],
									"internalType": "struct CandleRecord",
									"name": "k",
									"type": "tuple"
								}
							],
							"internalType": "struct CandleResponse[]",
							"name": "",
							"type": "tuple[]"
						}
					],
					"stateMutability": "view",
					"type": "function"
				},
				{
					"inputs": [
						{
							"internalType": "uint256",
							"name": "fromTimestamp",
							"type": "uint256"
						},
						{
							"internalType": "uint256",
							"name": "toTimestamp",
							"type": "uint256"
						}
					],
					"name": "getCandleInRange",
					"outputs": [
						{
							"components": [
								{
									"internalType": "string",
									"name": "e",
									"type": "string"
								},
								{
									"internalType": "uint256",
									"name": "E",
									"type": "uint256"
								},
								{
									"internalType": "string",
									"name": "s",
									"type": "string"
								},
								{
									"components": [
										{
											"internalType": "uint256",
											"name": "t",
											"type": "uint256"
										},
										{
											"internalType": "uint256",
											"name": "T",
											"type": "uint256"
										},
										{
											"internalType": "string",
											"name": "s",
											"type": "string"
										},
										{
											"internalType": "string",
											"name": "i",
											"type": "string"
										},
										{
											"internalType": "uint256",
											"name": "f",
											"type": "uint256"
										},
										{
											"internalType": "uint256",
											"name": "L",
											"type": "uint256"
										},
										{
											"internalType": "string",
											"name": "o",
											"type": "string"
										},
										{
											"internalType": "string",
											"name": "c",
											"type": "string"
										},
										{
											"internalType": "string",
											"name": "h",
											"type": "string"
										},
										{
											"internalType": "string",
											"name": "l",
											"type": "string"
										},
										{
											"internalType": "string",
											"name": "v",
											"type": "string"
										},
										{
											"internalType": "uint256",
											"name": "n",
											"type": "uint256"
										},
										{
											"internalType": "bool",
											"name": "x",
											"type": "bool"
										},
										{
											"internalType": "string",
											"name": "q",
											"type": "string"
										},
										{
											"internalType": "string",
											"name": "V",
											"type": "string"
										},
										{
											"internalType": "string",
											"name": "Q",
											"type": "string"
										},
										{
											"internalType": "string",
											"name": "B",
											"type": "string"
										}
									],
									"internalType": "struct CandleRecord",
									"name": "k",
									"type": "tuple"
								}
							],
							"internalType": "struct CandleResponse[]",
							"name": "",
							"type": "tuple[]"
						}
					],
					"stateMutability": "view",
					"type": "function"
				},
				{
					"inputs": [],
					"name": "getLastKline",
					"outputs": [
						{
							"components": [
								{
									"internalType": "string",
									"name": "e",
									"type": "string"
								},
								{
									"internalType": "uint256",
									"name": "E",
									"type": "uint256"
								},
								{
									"internalType": "string",
									"name": "s",
									"type": "string"
								},
								{
									"components": [
										{
											"internalType": "uint256",
											"name": "t",
											"type": "uint256"
										},
										{
											"internalType": "uint256",
											"name": "T",
											"type": "uint256"
										},
										{
											"internalType": "string",
											"name": "s",
											"type": "string"
										},
										{
											"internalType": "string",
											"name": "i",
											"type": "string"
										},
										{
											"internalType": "uint256",
											"name": "f",
											"type": "uint256"
										},
										{
											"internalType": "uint256",
											"name": "L",
											"type": "uint256"
										},
										{
											"internalType": "string",
											"name": "o",
											"type": "string"
										},
										{
											"internalType": "string",
											"name": "c",
											"type": "string"
										},
										{
											"internalType": "string",
											"name": "h",
											"type": "string"
										},
										{
											"internalType": "string",
											"name": "l",
											"type": "string"
										},
										{
											"internalType": "string",
											"name": "v",
											"type": "string"
										},
										{
											"internalType": "uint256",
											"name": "n",
											"type": "uint256"
										},
										{
											"internalType": "bool",
											"name": "x",
											"type": "bool"
										},
										{
											"internalType": "string",
											"name": "q",
											"type": "string"
										},
										{
											"internalType": "string",
											"name": "V",
											"type": "string"
										},
										{
											"internalType": "string",
											"name": "Q",
											"type": "string"
										},
										{
											"internalType": "string",
											"name": "B",
											"type": "string"
										}
									],
									"internalType": "struct CandleRecord",
									"name": "k",
									"type": "tuple"
								}
							],
							"internalType": "struct CandleResponse",
							"name": "",
							"type": "tuple"
						}
					],
					"stateMutability": "view",
					"type": "function"
				},
				{
					"inputs": [],
					"name": "getLength",
					"outputs": [
						{
							"internalType": "uint256",
							"name": "",
							"type": "uint256"
						}
					],
					"stateMutability": "view",
					"type": "function"
				},
				{
					"inputs": [
						{
							"components": [
								{
									"internalType": "uint256",
									"name": "t",
									"type": "uint256"
								},
								{
									"internalType": "uint256",
									"name": "T",
									"type": "uint256"
								},
								{
									"internalType": "string",
									"name": "s",
									"type": "string"
								},
								{
									"internalType": "string",
									"name": "i",
									"type": "string"
								},
								{
									"internalType": "uint256",
									"name": "f",
									"type": "uint256"
								},
								{
									"internalType": "uint256",
									"name": "L",
									"type": "uint256"
								},
								{
									"internalType": "string",
									"name": "o",
									"type": "string"
								},
								{
									"internalType": "string",
									"name": "c",
									"type": "string"
								},
								{
									"internalType": "string",
									"name": "h",
									"type": "string"
								},
								{
									"internalType": "string",
									"name": "l",
									"type": "string"
								},
								{
									"internalType": "string",
									"name": "v",
									"type": "string"
								},
								{
									"internalType": "uint256",
									"name": "n",
									"type": "uint256"
								},
								{
									"internalType": "bool",
									"name": "x",
									"type": "bool"
								},
								{
									"internalType": "string",
									"name": "q",
									"type": "string"
								},
								{
									"internalType": "string",
									"name": "V",
									"type": "string"
								},
								{
									"internalType": "string",
									"name": "Q",
									"type": "string"
								},
								{
									"internalType": "string",
									"name": "B",
									"type": "string"
								}
							],
							"internalType": "struct CandleRecord",
							"name": "kline",
							"type": "tuple"
						}
					],
					"name": "recordCandle",
					"outputs": [],
					"stateMutability": "nonpayable",
					"type": "function"
				}
			],
			"devdoc": {
				"kind": "dev",
				"methods": {},
				"version": 1
			},
			"evm": {
				"assembly": "    /* \"contracts/manager/Candel_1s/Candel_1s_Manager.sol\":103:3822  contract Candle_1s_Manager is ICandleManager {... */\n  mstore(0x40, 0x80)\n  callvalue\n  dup1\n  iszero\n  tag_1\n  jumpi\n  revert(0x00, 0x00)\ntag_1:\n  pop\n  dataSize(sub_0)\n  dup1\n  dataOffset(sub_0)\n  0x00\n  codecopy\n  0x00\n  return\nstop\n\nsub_0: assembly {\n        /* \"contracts/manager/Candel_1s/Candel_1s_Manager.sol\":103:3822  contract Candle_1s_Manager is ICandleManager {... */\n      mstore(0x40, 0x80)\n      callvalue\n      dup1\n      iszero\n      tag_1\n      jumpi\n      revert(0x00, 0x00)\n    tag_1:\n      pop\n      jumpi(tag_2, lt(calldatasize, 0x04))\n      shr(0xe0, calldataload(0x00))\n      dup1\n      0xbe1c766b\n      gt\n      tag_11\n      jumpi\n      dup1\n      0xbe1c766b\n      eq\n      tag_7\n      jumpi\n      dup1\n      0xc42de988\n      eq\n      tag_8\n      jumpi\n      dup1\n      0xda0bb97b\n      eq\n      tag_9\n      jumpi\n      dup1\n      0xedd0bf6a\n      eq\n      tag_10\n      jumpi\n      revert(0x00, 0x00)\n    tag_11:\n      dup1\n      0x5d0345c7\n      eq\n      tag_3\n      jumpi\n      dup1\n      0x7b806be4\n      eq\n      tag_4\n      jumpi\n      dup1\n      0x8d5ce2bc\n      eq\n      tag_5\n      jumpi\n      dup1\n      0xa00a5424\n      eq\n      tag_6\n      jumpi\n    tag_2:\n      revert(0x00, 0x00)\n        /* \"contracts/manager/Candel_1s/Candel_1s_Manager.sol\":154:195  string public constant INTERVAL_1S = \"1s\" */\n    tag_3:\n      tag_12\n      mload(0x40)\n      dup1\n      0x40\n      add\n      0x40\n      mstore\n      dup1\n      0x02\n      dup2\n      mstore\n      0x20\n      add\n      shl(0xf0, 0x3173)\n      dup2\n      mstore\n      pop\n      dup2\n      jump\n    tag_12:\n      mload(0x40)\n      tag_14\n      swap2\n      swap1\n      tag_15\n      jump\t// in\n    tag_14:\n      mload(0x40)\n      dup1\n      swap2\n      sub\n      swap1\n      return\n        /* \"contracts/manager/Candel_1s/Candel_1s_Manager.sol\":409:1167  function recordCandle(CandleRecord calldata kline) external override {... */\n    tag_4:\n      tag_16\n      tag_17\n      calldatasize\n      0x04\n      tag_18\n      jump\t// in\n    tag_17:\n      tag_19\n      jump\t// in\n    tag_16:\n      stop\n        /* \"contracts/manager/Candel_1s/Candel_1s_Manager.sol\":1656:2032  function getAllCandle()... */\n    tag_5:\n      tag_20\n      tag_21\n      jump\t// in\n    tag_20:\n      mload(0x40)\n      tag_14\n      swap2\n      swap1\n      tag_23\n      jump\t// in\n        /* \"contracts/manager/Candel_1s/Candel_1s_Manager.sol\":1173:1344  function getCandle(uint256 timestamp)... */\n    tag_6:\n      tag_24\n      tag_25\n      calldatasize\n      0x04\n      tag_26\n      jump\t// in\n    tag_25:\n      tag_27\n      jump\t// in\n    tag_24:\n      mload(0x40)\n      tag_14\n      swap2\n      swap1\n      tag_29\n      jump\t// in\n        /* \"contracts/manager/Candel_1s/Candel_1s_Manager.sol\":2038:2133  function getLength() public view returns (uint256) {... */\n    tag_7:\n        /* \"contracts/manager/Candel_1s/Candel_1s_Manager.sol\":2106:2119  timestampList */\n      0x01\n        /* \"contracts/manager/Candel_1s/Candel_1s_Manager.sol\":2106:2126  timestampList.length */\n      sload\n        /* \"contracts/manager/Candel_1s/Candel_1s_Manager.sol\":2038:2133  function getLength() public view returns (uint256) {... */\n      mload(0x40)\n        /* \"#utility.yul\":5549:5574   */\n      swap1\n      dup2\n      mstore\n        /* \"#utility.yul\":5537:5539   */\n      0x20\n        /* \"#utility.yul\":5522:5540   */\n      add\n        /* \"contracts/manager/Candel_1s/Candel_1s_Manager.sol\":2038:2133  function getLength() public view returns (uint256) {... */\n      tag_14\n        /* \"#utility.yul\":5403:5580   */\n      jump\n        /* \"contracts/manager/Candel_1s/Candel_1s_Manager.sol\":3025:3820  function getCandleFrom(uint256 fromTimestamp)... */\n    tag_8:\n      tag_20\n      tag_35\n      calldatasize\n      0x04\n      tag_26\n      jump\t// in\n    tag_35:\n      tag_36\n      jump\t// in\n        /* \"contracts/manager/Candel_1s/Candel_1s_Manager.sol\":2139:3019  function getCandleInRange(uint256 fromTimestamp, uint256 toTimestamp)... */\n    tag_9:\n      tag_20\n      tag_39\n      calldatasize\n      0x04\n      tag_40\n      jump\t// in\n    tag_39:\n      tag_41\n      jump\t// in\n        /* \"contracts/manager/Candel_1s/Candel_1s_Manager.sol\":1350:1650  function getLastKline()... */\n    tag_10:\n      tag_24\n      tag_44\n      jump\t// in\n        /* \"contracts/manager/Candel_1s/Candel_1s_Manager.sol\":409:1167  function recordCandle(CandleRecord calldata kline) external override {... */\n    tag_19:\n        /* \"contracts/manager/Candel_1s/Candel_1s_Manager.sol\":541:552  INTERVAL_1S */\n      0x40\n      dup1\n      mload\n      dup1\n      dup3\n      add\n      swap1\n      swap2\n      mstore\n      0x02\n      dup2\n      mstore\n      shl(0xf0, 0x3173)\n      0x20\n      swap1\n      swap2\n      add\n      mstore\n        /* \"contracts/manager/Candel_1s/Candel_1s_Manager.sol\":525:554  keccak256(bytes(INTERVAL_1S)) */\n      0x6c9308eeeb72aac61c6ee2086645ec6cf6638d86d97af7b81bcf4073f3b95dbc\n        /* \"contracts/manager/Candel_1s/Candel_1s_Manager.sol\":512:519  kline.i */\n      tag_47\n      0x60\n      dup4\n      add\n        /* \"contracts/manager/Candel_1s/Candel_1s_Manager.sol\":512:517  kline */\n      dup4\n        /* \"contracts/manager/Candel_1s/Candel_1s_Manager.sol\":512:519  kline.i */\n      tag_48\n      jump\t// in\n    tag_47:\n        /* \"contracts/manager/Candel_1s/Candel_1s_Manager.sol\":496:521  keccak256(bytes(kline.i)) */\n      mload(0x40)\n      tag_49\n      swap3\n      swap2\n      swap1\n      tag_50\n      jump\t// in\n    tag_49:\n      mload(0x40)\n      dup1\n      swap2\n      sub\n      swap1\n      keccak256\n        /* \"contracts/manager/Candel_1s/Candel_1s_Manager.sol\":496:554  keccak256(bytes(kline.i)) == keccak256(bytes(INTERVAL_1S)) */\n      eq\n        /* \"contracts/manager/Candel_1s/Candel_1s_Manager.sol\":488:578  require(keccak256(bytes(kline.i)) == keccak256(bytes(INTERVAL_1S)), \"Interval must be 1s\") */\n      tag_51\n      jumpi\n      mload(0x40)\n      shl(0xe5, 0x461bcd)\n      dup2\n      mstore\n        /* \"#utility.yul\":6941:6943   */\n      0x20\n        /* \"contracts/manager/Candel_1s/Candel_1s_Manager.sol\":488:578  require(keccak256(bytes(kline.i)) == keccak256(bytes(INTERVAL_1S)), \"Interval must be 1s\") */\n      0x04\n      dup3\n      add\n        /* \"#utility.yul\":6923:6944   */\n      mstore\n        /* \"#utility.yul\":6980:6982   */\n      0x13\n        /* \"#utility.yul\":6960:6978   */\n      0x24\n      dup3\n      add\n        /* \"#utility.yul\":6953:6983   */\n      mstore\n      shl(0x68, 0x496e74657276616c206d757374206265203173)\n        /* \"#utility.yul\":6999:7017   */\n      0x44\n      dup3\n      add\n        /* \"#utility.yul\":6992:7041   */\n      mstore\n        /* \"#utility.yul\":7058:7076   */\n      0x64\n      add\n        /* \"contracts/manager/Candel_1s/Candel_1s_Manager.sol\":488:578  require(keccak256(bytes(kline.i)) == keccak256(bytes(INTERVAL_1S)), \"Interval must be 1s\") */\n    tag_52:\n      mload(0x40)\n      dup1\n      swap2\n      sub\n      swap1\n      revert\n    tag_51:\n        /* \"contracts/manager/Candel_1s/Candel_1s_Manager.sol\":773:961  CandleResponse({... */\n      0x40\n      dup1\n      mload\n      0xc0\n      dup2\n      add\n      dup3\n      mstore\n      0x05\n      0x80\n      dup3\n      add\n      swap1\n      dup2\n      mstore\n      shl(0xd8, 0x6b6c696e65)\n      0xa0\n      dup4\n      add\n      mstore\n      dup2\n      mstore\n        /* \"contracts/manager/Candel_1s/Candel_1s_Manager.sol\":709:724  block.timestamp */\n      timestamp\n        /* \"contracts/manager/Candel_1s/Candel_1s_Manager.sol\":773:961  CandleResponse({... */\n      0x20\n      dup3\n      add\n      dup2\n      swap1\n      mstore\n        /* \"contracts/manager/Candel_1s/Candel_1s_Manager.sol\":608:615  kline.t */\n      dup4\n      calldataload\n      swap3\n        /* \"contracts/manager/Candel_1s/Candel_1s_Manager.sol\":709:724  block.timestamp */\n      swap1\n      swap2\n        /* \"contracts/manager/Candel_1s/Candel_1s_Manager.sol\":588:605  uint256 timestamp */\n      0x00\n      swap2\n        /* \"contracts/manager/Candel_1s/Candel_1s_Manager.sol\":773:961  CandleResponse({... */\n      dup2\n      dup2\n      add\n      swap1\n        /* \"contracts/manager/Candel_1s/Candel_1s_Manager.sol\":911:918  kline.s */\n      tag_54\n      swap1\n      dup8\n      add\n        /* \"contracts/manager/Candel_1s/Candel_1s_Manager.sol\":608:613  kline */\n      dup8\n        /* \"contracts/manager/Candel_1s/Candel_1s_Manager.sol\":911:918  kline.s */\n      tag_48\n      jump\t// in\n    tag_54:\n        /* \"contracts/manager/Candel_1s/Candel_1s_Manager.sol\":773:961  CandleResponse({... */\n      dup1\n      dup1\n      0x1f\n      add\n      0x20\n      dup1\n      swap2\n      div\n      mul\n      0x20\n      add\n      mload(0x40)\n      swap1\n      dup2\n      add\n      0x40\n      mstore\n      dup1\n      swap4\n      swap3\n      swap2\n      swap1\n      dup2\n      dup2\n      mstore\n      0x20\n      add\n      dup4\n      dup4\n      dup1\n      dup3\n      dup5\n      calldatacopy\n      0x00\n      swap3\n      add\n      swap2\n      swap1\n      swap2\n      mstore\n      pop\n      pop\n      pop\n      swap1\n      dup3\n      mstore\n      pop\n      0x20\n      add\n      tag_55\n        /* \"contracts/manager/Candel_1s/Candel_1s_Manager.sol\":945:950  kline */\n      dup7\n        /* \"contracts/manager/Candel_1s/Candel_1s_Manager.sol\":773:961  CandleResponse({... */\n      tag_56\n      jump\t// in\n    tag_55:\n      swap1\n      mstore\n        /* \"contracts/manager/Candel_1s/Candel_1s_Manager.sol\":972:979  candles */\n      0x00\n        /* \"contracts/manager/Candel_1s/Candel_1s_Manager.sol\":972:992  candles[currentTime] */\n      dup4\n      dup2\n      mstore\n      0x20\n      dup2\n      swap1\n      mstore\n      0x40\n      swap1\n      keccak256\n        /* \"contracts/manager/Candel_1s/Candel_1s_Manager.sol\":972:1009  candles[currentTime] = candleResponse */\n      dup2\n      mload\n        /* \"contracts/manager/Candel_1s/Candel_1s_Manager.sol\":734:961  CandleResponse memory candleResponse = CandleResponse({... */\n      swap2\n      swap3\n      pop\n      dup3\n      swap2\n        /* \"contracts/manager/Candel_1s/Candel_1s_Manager.sol\":972:992  candles[currentTime] */\n      dup2\n      swap1\n        /* \"contracts/manager/Candel_1s/Candel_1s_Manager.sol\":972:1009  candles[currentTime] = candleResponse */\n      tag_57\n      swap1\n        /* \"contracts/manager/Candel_1s/Candel_1s_Manager.sol\":972:992  candles[currentTime] */\n      dup3\n        /* \"contracts/manager/Candel_1s/Candel_1s_Manager.sol\":972:1009  candles[currentTime] = candleResponse */\n      tag_58\n      jump\t// in\n    tag_57:\n      pop\n      0x20\n      dup3\n      add\n      mload\n      0x01\n      dup3\n      add\n      sstore\n      0x40\n      dup3\n      add\n      mload\n      0x02\n      dup3\n      add\n      swap1\n      tag_59\n      swap1\n      dup3\n      tag_58\n      jump\t// in\n    tag_59:\n      pop\n      0x60\n      dup3\n      add\n      mload\n      dup1\n      mload\n      0x03\n      dup4\n      add\n      swap1\n      dup2\n      sstore\n      0x20\n      dup3\n      add\n      mload\n      0x04\n      dup5\n      add\n      sstore\n      0x40\n      dup3\n      add\n      mload\n      0x05\n      dup5\n      add\n      swap1\n      tag_60\n      swap1\n      dup3\n      tag_58\n      jump\t// in\n    tag_60:\n      pop\n      0x60\n      dup3\n      add\n      mload\n      0x03\n      dup3\n      add\n      swap1\n      tag_61\n      swap1\n      dup3\n      tag_58\n      jump\t// in\n    tag_61:\n      pop\n      0x80\n      dup3\n      add\n      mload\n      0x04\n      dup3\n      add\n      sstore\n      0xa0\n      dup3\n      add\n      mload\n      0x05\n      dup3\n      add\n      sstore\n      0xc0\n      dup3\n      add\n      mload\n      0x06\n      dup3\n      add\n      swap1\n      tag_62\n      swap1\n      dup3\n      tag_58\n      jump\t// in\n    tag_62:\n      pop\n      0xe0\n      dup3\n      add\n      mload\n      0x07\n      dup3\n      add\n      swap1\n      tag_63\n      swap1\n      dup3\n      tag_58\n      jump\t// in\n    tag_63:\n      pop\n      0x0100\n      dup3\n      add\n      mload\n      0x08\n      dup3\n      add\n      swap1\n      tag_64\n      swap1\n      dup3\n      tag_58\n      jump\t// in\n    tag_64:\n      pop\n      0x0120\n      dup3\n      add\n      mload\n      0x09\n      dup3\n      add\n      swap1\n      tag_65\n      swap1\n      dup3\n      tag_58\n      jump\t// in\n    tag_65:\n      pop\n      0x0140\n      dup3\n      add\n      mload\n      0x0a\n      dup3\n      add\n      swap1\n      tag_66\n      swap1\n      dup3\n      tag_58\n      jump\t// in\n    tag_66:\n      pop\n      0x0160\n      dup3\n      add\n      mload\n      0x0b\n      dup3\n      add\n      sstore\n      0x0180\n      dup3\n      add\n      mload\n      0x0c\n      dup3\n      add\n      dup1\n      sload\n      not(0xff)\n      and\n      swap2\n      iszero\n      iszero\n      swap2\n      swap1\n      swap2\n      or\n      swap1\n      sstore\n      0x01a0\n      dup3\n      add\n      mload\n      0x0d\n      dup3\n      add\n      swap1\n      tag_67\n      swap1\n      dup3\n      tag_58\n      jump\t// in\n    tag_67:\n      pop\n      0x01c0\n      dup3\n      add\n      mload\n      0x0e\n      dup3\n      add\n      swap1\n      tag_68\n      swap1\n      dup3\n      tag_58\n      jump\t// in\n    tag_68:\n      pop\n      0x01e0\n      dup3\n      add\n      mload\n      0x0f\n      dup3\n      add\n      swap1\n      tag_69\n      swap1\n      dup3\n      tag_58\n      jump\t// in\n    tag_69:\n      pop\n      0x0200\n      dup3\n      add\n      mload\n      0x10\n      dup3\n      add\n      swap1\n      tag_70\n      swap1\n      dup3\n      tag_58\n      jump\t// in\n    tag_70:\n      pop\n      pop\n        /* \"contracts/manager/Candel_1s/Candel_1s_Manager.sol\":1019:1032  timestampList */\n      0x01\n        /* \"contracts/manager/Candel_1s/Candel_1s_Manager.sol\":1019:1050  timestampList.push(currentTime) */\n      dup1\n      sload\n      dup1\n      dup3\n      add\n      dup3\n      sstore\n      0x00\n      swap2\n      swap1\n      swap2\n      mstore\n      0xb10e2d527612073b26eecdfd717e6a320cf44b4afac2b0732d9fcbe2b7fa0cf6\n      add\n      dup6\n      swap1\n      sstore\n      pop\n        /* \"contracts/manager/Candel_1s/Candel_1s_Manager.sol\":1107:1160  AddCandleRecord(timestamp, kline.s, kline.o, kline.c) */\n      0x33a64ffb8963f59747c8a1fb70ad84aa1b711886dde549fbc2d077e2e001d9a4\n      swap2\n      pop\n        /* \"contracts/manager/Candel_1s/Candel_1s_Manager.sol\":1123:1132  timestamp */\n      dup5\n      swap1\n      pop\n        /* \"contracts/manager/Candel_1s/Candel_1s_Manager.sol\":1134:1141  kline.s */\n      tag_72\n      0x40\n      dup8\n      add\n        /* \"contracts/manager/Candel_1s/Candel_1s_Manager.sol\":1134:1139  kline */\n      dup8\n        /* \"contracts/manager/Candel_1s/Candel_1s_Manager.sol\":1134:1141  kline.s */\n      tag_48\n      jump\t// in\n    tag_72:\n        /* \"contracts/manager/Candel_1s/Candel_1s_Manager.sol\":1143:1150  kline.o */\n      tag_73\n      0xc0\n      dup10\n      add\n        /* \"contracts/manager/Candel_1s/Candel_1s_Manager.sol\":1143:1148  kline */\n      dup10\n        /* \"contracts/manager/Candel_1s/Candel_1s_Manager.sol\":1143:1150  kline.o */\n      tag_48\n      jump\t// in\n    tag_73:\n        /* \"contracts/manager/Candel_1s/Candel_1s_Manager.sol\":1152:1159  kline.c */\n      tag_74\n      0xe0\n      dup12\n      add\n        /* \"contracts/manager/Candel_1s/Candel_1s_Manager.sol\":1152:1157  kline */\n      dup12\n        /* \"contracts/manager/Candel_1s/Candel_1s_Manager.sol\":1152:1159  kline.c */\n      tag_48\n      jump\t// in\n    tag_74:\n        /* \"contracts/manager/Candel_1s/Candel_1s_Manager.sol\":1107:1160  AddCandleRecord(timestamp, kline.s, kline.o, kline.c) */\n      mload(0x40)\n      tag_75\n      swap8\n      swap7\n      swap6\n      swap5\n      swap4\n      swap3\n      swap2\n      swap1\n      tag_76\n      jump\t// in\n    tag_75:\n      mload(0x40)\n      dup1\n      swap2\n      sub\n      swap1\n      log1\n        /* \"contracts/manager/Candel_1s/Candel_1s_Manager.sol\":478:1167  {... */\n      pop\n      pop\n      pop\n        /* \"contracts/manager/Candel_1s/Candel_1s_Manager.sol\":409:1167  function recordCandle(CandleRecord calldata kline) external override {... */\n      pop\n      jump\t// out\n        /* \"contracts/manager/Candel_1s/Candel_1s_Manager.sol\":1656:2032  function getAllCandle()... */\n    tag_21:\n        /* \"contracts/manager/Candel_1s/Candel_1s_Manager.sol\":1850:1863  timestampList */\n      0x01\n        /* \"contracts/manager/Candel_1s/Candel_1s_Manager.sol\":1850:1870  timestampList.length */\n      sload\n        /* \"contracts/manager/Candel_1s/Candel_1s_Manager.sol\":1744:1767  CandleResponse[] memory */\n      0x60\n      swap1\n        /* \"contracts/manager/Candel_1s/Candel_1s_Manager.sol\":1783:1813  CandleResponse[] memory reslut */\n      0x00\n      swap1\n      sub(shl(0x40, 0x01), 0x01)\n        /* \"contracts/manager/Candel_1s/Candel_1s_Manager.sol\":1816:1880  new CandleResponse[](... */\n      dup2\n      gt\n      iszero\n      tag_79\n      jumpi\n      tag_79\n      tag_80\n      jump\t// in\n    tag_79:\n      mload(0x40)\n      swap1\n      dup1\n      dup3\n      mstore\n      dup1\n      0x20\n      mul\n      0x20\n      add\n      dup3\n      add\n      0x40\n      mstore\n      dup1\n      iszero\n      tag_81\n      jumpi\n      dup2\n      0x20\n      add\n    tag_82:\n      tag_83\n      tag_84\n      jump\t// in\n    tag_83:\n      dup2\n      mstore\n      0x20\n      add\n      swap1\n      0x01\n      swap1\n      sub\n      swap1\n      dup2\n      tag_82\n      jumpi\n      swap1\n      pop\n    tag_81:\n      pop\n        /* \"contracts/manager/Candel_1s/Candel_1s_Manager.sol\":1783:1880  CandleResponse[] memory reslut = new CandleResponse[](... */\n      swap1\n      pop\n        /* \"contracts/manager/Candel_1s/Candel_1s_Manager.sol\":1895:1904  uint256 i */\n      0x00\n        /* \"contracts/manager/Candel_1s/Candel_1s_Manager.sol\":1890:2003  for (uint256 i = 0; i < timestampList.length; i++) {... */\n    tag_85:\n        /* \"contracts/manager/Candel_1s/Candel_1s_Manager.sol\":1914:1927  timestampList */\n      0x01\n        /* \"contracts/manager/Candel_1s/Candel_1s_Manager.sol\":1914:1934  timestampList.length */\n      sload\n        /* \"contracts/manager/Candel_1s/Candel_1s_Manager.sol\":1910:1934  i < timestampList.length */\n      dup2\n      lt\n        /* \"contracts/manager/Candel_1s/Candel_1s_Manager.sol\":1890:2003  for (uint256 i = 0; i < timestampList.length; i++) {... */\n      iszero\n      tag_86\n      jumpi\n        /* \"contracts/manager/Candel_1s/Candel_1s_Manager.sol\":1967:1974  candles */\n      0x00\n        /* \"contracts/manager/Candel_1s/Candel_1s_Manager.sol\":1967:1992  candles[timestampList[i]] */\n      0x00\n        /* \"contracts/manager/Candel_1s/Candel_1s_Manager.sol\":1975:1988  timestampList */\n      0x01\n        /* \"contracts/manager/Candel_1s/Candel_1s_Manager.sol\":1989:1990  i */\n      dup4\n        /* \"contracts/manager/Candel_1s/Candel_1s_Manager.sol\":1975:1991  timestampList[i] */\n      dup2\n      sload\n      dup2\n      lt\n      tag_89\n      jumpi\n      tag_89\n      tag_90\n      jump\t// in\n    tag_89:\n      swap1\n      0x00\n      mstore\n      keccak256(0x00, 0x20)\n      add\n      sload\n        /* \"contracts/manager/Candel_1s/Candel_1s_Manager.sol\":1967:1992  candles[timestampList[i]] */\n      dup2\n      mstore\n      0x20\n      add\n      swap1\n      dup2\n      mstore\n      0x20\n      add\n      0x00\n      keccak256\n        /* \"contracts/manager/Candel_1s/Candel_1s_Manager.sol\":1955:1992  reslut[i] = candles[timestampList[i]] */\n      mload(0x40)\n      dup1\n      0x80\n      add\n      0x40\n      mstore\n      swap1\n      dup2\n      0x00\n      dup3\n      add\n      dup1\n      sload\n      tag_92\n      swap1\n      tag_93\n      jump\t// in\n    tag_92:\n      dup1\n      0x1f\n      add\n      0x20\n      dup1\n      swap2\n      div\n      mul\n      0x20\n      add\n      mload(0x40)\n      swap1\n      dup2\n      add\n      0x40\n      mstore\n      dup1\n      swap3\n      swap2\n      swap1\n      dup2\n      dup2\n      mstore\n      0x20\n      add\n      dup3\n      dup1\n      sload\n      tag_94\n      swap1\n      tag_93\n      jump\t// in\n    tag_94:\n      dup1\n      iszero\n      tag_95\n      jumpi\n      dup1\n      0x1f\n      lt\n      tag_96\n      jumpi\n      0x0100\n      dup1\n      dup4\n      sload\n      div\n      mul\n      dup4\n      mstore\n      swap2\n      0x20\n      add\n      swap2\n      jump(tag_95)\n    tag_96:\n      dup3\n      add\n      swap2\n      swap1\n      0x00\n      mstore\n      keccak256(0x00, 0x20)\n      swap1\n    tag_97:\n      dup2\n      sload\n      dup2\n      mstore\n      swap1\n      0x01\n      add\n      swap1\n      0x20\n      add\n      dup1\n      dup4\n      gt\n      tag_97\n      jumpi\n      dup3\n      swap1\n      sub\n      0x1f\n      and\n      dup3\n      add\n      swap2\n    tag_95:\n      pop\n      pop\n      pop\n      pop\n      pop\n      dup2\n      mstore\n      0x20\n      add\n      0x01\n      dup3\n      add\n      sload\n      dup2\n      mstore\n      0x20\n      add\n      0x02\n      dup3\n      add\n      dup1\n      sload\n      tag_98\n      swap1\n      tag_93\n      jump\t// in\n    tag_98:\n      dup1\n      0x1f\n      add\n      0x20\n      dup1\n      swap2\n      div\n      mul\n      0x20\n      add\n      mload(0x40)\n      swap1\n      dup2\n      add\n      0x40\n      mstore\n      dup1\n      swap3\n      swap2\n      swap1\n      dup2\n      dup2\n      mstore\n      0x20\n      add\n      dup3\n      dup1\n      sload\n      tag_99\n      swap1\n      tag_93\n      jump\t// in\n    tag_99:\n      dup1\n      iszero\n      tag_100\n      jumpi\n      dup1\n      0x1f\n      lt\n      tag_101\n      jumpi\n      0x0100\n      dup1\n      dup4\n      sload\n      div\n      mul\n      dup4\n      mstore\n      swap2\n      0x20\n      add\n      swap2\n      jump(tag_100)\n    tag_101:\n      dup3\n      add\n      swap2\n      swap1\n      0x00\n      mstore\n      keccak256(0x00, 0x20)\n      swap1\n    tag_102:\n      dup2\n      sload\n      dup2\n      mstore\n      swap1\n      0x01\n      add\n      swap1\n      0x20\n      add\n      dup1\n      dup4\n      gt\n      tag_102\n      jumpi\n      dup3\n      swap1\n      sub\n      0x1f\n      and\n      dup3\n      add\n      swap2\n    tag_100:\n      pop\n      pop\n      pop\n      pop\n      pop\n      dup2\n      mstore\n      0x20\n      add\n      0x03\n      dup3\n      add\n      mload(0x40)\n      dup1\n      0x0220\n      add\n      0x40\n      mstore\n      swap1\n      dup2\n      0x00\n      dup3\n      add\n      sload\n      dup2\n      mstore\n      0x20\n      add\n      0x01\n      dup3\n      add\n      sload\n      dup2\n      mstore\n      0x20\n      add\n      0x02\n      dup3\n      add\n      dup1\n      sload\n      tag_103\n      swap1\n      tag_93\n      jump\t// in\n    tag_103:\n      dup1\n      0x1f\n      add\n      0x20\n      dup1\n      swap2\n      div\n      mul\n      0x20\n      add\n      mload(0x40)\n      swap1\n      dup2\n      add\n      0x40\n      mstore\n      dup1\n      swap3\n      swap2\n      swap1\n      dup2\n      dup2\n      mstore\n      0x20\n      add\n      dup3\n      dup1\n      sload\n      tag_104\n      swap1\n      tag_93\n      jump\t// in\n    tag_104:\n      dup1\n      iszero\n      tag_105\n      jumpi\n      dup1\n      0x1f\n      lt\n      tag_106\n      jumpi\n      0x0100\n      dup1\n      dup4\n      sload\n      div\n      mul\n      dup4\n      mstore\n      swap2\n      0x20\n      add\n      swap2\n      jump(tag_105)\n    tag_106:\n      dup3\n      add\n      swap2\n      swap1\n      0x00\n      mstore\n      keccak256(0x00, 0x20)\n      swap1\n    tag_107:\n      dup2\n      sload\n      dup2\n      mstore\n      swap1\n      0x01\n      add\n      swap1\n      0x20\n      add\n      dup1\n      dup4\n      gt\n      tag_107\n      jumpi\n      dup3\n      swap1\n      sub\n      0x1f\n      and\n      dup3\n      add\n      swap2\n    tag_105:\n      pop\n      pop\n      pop\n      pop\n      pop\n      dup2\n      mstore\n      0x20\n      add\n      0x03\n      dup3\n      add\n      dup1\n      sload\n      tag_108\n      swap1\n      tag_93\n      jump\t// in\n    tag_108:\n      dup1\n      0x1f\n      add\n      0x20\n      dup1\n      swap2\n      div\n      mul\n      0x20\n      add\n      mload(0x40)\n      swap1\n      dup2\n      add\n      0x40\n      mstore\n      dup1\n      swap3\n      swap2\n      swap1\n      dup2\n      dup2\n      mstore\n      0x20\n      add\n      dup3\n      dup1\n      sload\n      tag_109\n      swap1\n      tag_93\n      jump\t// in\n    tag_109:\n      dup1\n      iszero\n      tag_110\n      jumpi\n      dup1\n      0x1f\n      lt\n      tag_111\n      jumpi\n      0x0100\n      dup1\n      dup4\n      sload\n      div\n      mul\n      dup4\n      mstore\n      swap2\n      0x20\n      add\n      swap2\n      jump(tag_110)\n    tag_111:\n      dup3\n      add\n      swap2\n      swap1\n      0x00\n      mstore\n      keccak256(0x00, 0x20)\n      swap1\n    tag_112:\n      dup2\n      sload\n      dup2\n      mstore\n      swap1\n      0x01\n      add\n      swap1\n      0x20\n      add\n      dup1\n      dup4\n      gt\n      tag_112\n      jumpi\n      dup3\n      swap1\n      sub\n      0x1f\n      and\n      dup3\n      add\n      swap2\n    tag_110:\n      pop\n      pop\n      pop\n      pop\n      pop\n      dup2\n      mstore\n      0x20\n      add\n      0x04\n      dup3\n      add\n      sload\n      dup2\n      mstore\n      0x20\n      add\n      0x05\n      dup3\n      add\n      sload\n      dup2\n      mstore\n      0x20\n      add\n      0x06\n      dup3\n      add\n      dup1\n      sload\n      tag_113\n      swap1\n      tag_93\n      jump\t// in\n    tag_113:\n      dup1\n      0x1f\n      add\n      0x20\n      dup1\n      swap2\n      div\n      mul\n      0x20\n      add\n      mload(0x40)\n      swap1\n      dup2\n      add\n      0x40\n      mstore\n      dup1\n      swap3\n      swap2\n      swap1\n      dup2\n      dup2\n      mstore\n      0x20\n      add\n      dup3\n      dup1\n      sload\n      tag_114\n      swap1\n      tag_93\n      jump\t// in\n    tag_114:\n      dup1\n      iszero\n      tag_115\n      jumpi\n      dup1\n      0x1f\n      lt\n      tag_116\n      jumpi\n      0x0100\n      dup1\n      dup4\n      sload\n      div\n      mul\n      dup4\n      mstore\n      swap2\n      0x20\n      add\n      swap2\n      jump(tag_115)\n    tag_116:\n      dup3\n      add\n      swap2\n      swap1\n      0x00\n      mstore\n      keccak256(0x00, 0x20)\n      swap1\n    tag_117:\n      dup2\n      sload\n      dup2\n      mstore\n      swap1\n      0x01\n      add\n      swap1\n      0x20\n      add\n      dup1\n      dup4\n      gt\n      tag_117\n      jumpi\n      dup3\n      swap1\n      sub\n      0x1f\n      and\n      dup3\n      add\n      swap2\n    tag_115:\n      pop\n      pop\n      pop\n      pop\n      pop\n      dup2\n      mstore\n      0x20\n      add\n      0x07\n      dup3\n      add\n      dup1\n      sload\n      tag_118\n      swap1\n      tag_93\n      jump\t// in\n    tag_118:\n      dup1\n      0x1f\n      add\n      0x20\n      dup1\n      swap2\n      div\n      mul\n      0x20\n      add\n      mload(0x40)\n      swap1\n      dup2\n      add\n      0x40\n      mstore\n      dup1\n      swap3\n      swap2\n      swap1\n      dup2\n      dup2\n      mstore\n      0x20\n      add\n      dup3\n      dup1\n      sload\n      tag_119\n      swap1\n      tag_93\n      jump\t// in\n    tag_119:\n      dup1\n      iszero\n      tag_120\n      jumpi\n      dup1\n      0x1f\n      lt\n      tag_121\n      jumpi\n      0x0100\n      dup1\n      dup4\n      sload\n      div\n      mul\n      dup4\n      mstore\n      swap2\n      0x20\n      add\n      swap2\n      jump(tag_120)\n    tag_121:\n      dup3\n      add\n      swap2\n      swap1\n      0x00\n      mstore\n      keccak256(0x00, 0x20)\n      swap1\n    tag_122:\n      dup2\n      sload\n      dup2\n      mstore\n      swap1\n      0x01\n      add\n      swap1\n      0x20\n      add\n      dup1\n      dup4\n      gt\n      tag_122\n      jumpi\n      dup3\n      swap1\n      sub\n      0x1f\n      and\n      dup3\n      add\n      swap2\n    tag_120:\n      pop\n      pop\n      pop\n      pop\n      pop\n      dup2\n      mstore\n      0x20\n      add\n      0x08\n      dup3\n      add\n      dup1\n      sload\n      tag_123\n      swap1\n      tag_93\n      jump\t// in\n    tag_123:\n      dup1\n      0x1f\n      add\n      0x20\n      dup1\n      swap2\n      div\n      mul\n      0x20\n      add\n      mload(0x40)\n      swap1\n      dup2\n      add\n      0x40\n      mstore\n      dup1\n      swap3\n      swap2\n      swap1\n      dup2\n      dup2\n      mstore\n      0x20\n      add\n      dup3\n      dup1\n      sload\n      tag_124\n      swap1\n      tag_93\n      jump\t// in\n    tag_124:\n      dup1\n      iszero\n      tag_125\n      jumpi\n      dup1\n      0x1f\n      lt\n      tag_126\n      jumpi\n      0x0100\n      dup1\n      dup4\n      sload\n      div\n      mul\n      dup4\n      mstore\n      swap2\n      0x20\n      add\n      swap2\n      jump(tag_125)\n    tag_126:\n      dup3\n      add\n      swap2\n      swap1\n      0x00\n      mstore\n      keccak256(0x00, 0x20)\n      swap1\n    tag_127:\n      dup2\n      sload\n      dup2\n      mstore\n      swap1\n      0x01\n      add\n      swap1\n      0x20\n      add\n      dup1\n      dup4\n      gt\n      tag_127\n      jumpi\n      dup3\n      swap1\n      sub\n      0x1f\n      and\n      dup3\n      add\n      swap2\n    tag_125:\n      pop\n      pop\n      pop\n      pop\n      pop\n      dup2\n      mstore\n      0x20\n      add\n      0x09\n      dup3\n      add\n      dup1\n      sload\n      tag_128\n      swap1\n      tag_93\n      jump\t// in\n    tag_128:\n      dup1\n      0x1f\n      add\n      0x20\n      dup1\n      swap2\n      div\n      mul\n      0x20\n      add\n      mload(0x40)\n      swap1\n      dup2\n      add\n      0x40\n      mstore\n      dup1\n      swap3\n      swap2\n      swap1\n      dup2\n      dup2\n      mstore\n      0x20\n      add\n      dup3\n      dup1\n      sload\n      tag_129\n      swap1\n      tag_93\n      jump\t// in\n    tag_129:\n      dup1\n      iszero\n      tag_130\n      jumpi\n      dup1\n      0x1f\n      lt\n      tag_131\n      jumpi\n      0x0100\n      dup1\n      dup4\n      sload\n      div\n      mul\n      dup4\n      mstore\n      swap2\n      0x20\n      add\n      swap2\n      jump(tag_130)\n    tag_131:\n      dup3\n      add\n      swap2\n      swap1\n      0x00\n      mstore\n      keccak256(0x00, 0x20)\n      swap1\n    tag_132:\n      dup2\n      sload\n      dup2\n      mstore\n      swap1\n      0x01\n      add\n      swap1\n      0x20\n      add\n      dup1\n      dup4\n      gt\n      tag_132\n      jumpi\n      dup3\n      swap1\n      sub\n      0x1f\n      and\n      dup3\n      add\n      swap2\n    tag_130:\n      pop\n      pop\n      pop\n      pop\n      pop\n      dup2\n      mstore\n      0x20\n      add\n      0x0a\n      dup3\n      add\n      dup1\n      sload\n      tag_133\n      swap1\n      tag_93\n      jump\t// in\n    tag_133:\n      dup1\n      0x1f\n      add\n      0x20\n      dup1\n      swap2\n      div\n      mul\n      0x20\n      add\n      mload(0x40)\n      swap1\n      dup2\n      add\n      0x40\n      mstore\n      dup1\n      swap3\n      swap2\n      swap1\n      dup2\n      dup2\n      mstore\n      0x20\n      add\n      dup3\n      dup1\n      sload\n      tag_134\n      swap1\n      tag_93\n      jump\t// in\n    tag_134:\n      dup1\n      iszero\n      tag_135\n      jumpi\n      dup1\n      0x1f\n      lt\n      tag_136\n      jumpi\n      0x0100\n      dup1\n      dup4\n      sload\n      div\n      mul\n      dup4\n      mstore\n      swap2\n      0x20\n      add\n      swap2\n      jump(tag_135)\n    tag_136:\n      dup3\n      add\n      swap2\n      swap1\n      0x00\n      mstore\n      keccak256(0x00, 0x20)\n      swap1\n    tag_137:\n      dup2\n      sload\n      dup2\n      mstore\n      swap1\n      0x01\n      add\n      swap1\n      0x20\n      add\n      dup1\n      dup4\n      gt\n      tag_137\n      jumpi\n      dup3\n      swap1\n      sub\n      0x1f\n      and\n      dup3\n      add\n      swap2\n    tag_135:\n      pop\n      pop\n      pop\n      swap2\n      dup4\n      mstore\n      pop\n      pop\n      0x0b\n      dup3\n      add\n      sload\n      0x20\n      dup3\n      add\n      mstore\n      0x0c\n      dup3\n      add\n      sload\n      0xff\n      and\n      iszero\n      iszero\n      0x40\n      dup3\n      add\n      mstore\n      0x0d\n      dup3\n      add\n      dup1\n      sload\n      0x60\n      swap1\n      swap3\n      add\n      swap2\n      tag_138\n      swap1\n      tag_93\n      jump\t// in\n    tag_138:\n      dup1\n      0x1f\n      add\n      0x20\n      dup1\n      swap2\n      div\n      mul\n      0x20\n      add\n      mload(0x40)\n      swap1\n      dup2\n      add\n      0x40\n      mstore\n      dup1\n      swap3\n      swap2\n      swap1\n      dup2\n      dup2\n      mstore\n      0x20\n      add\n      dup3\n      dup1\n      sload\n      tag_139\n      swap1\n      tag_93\n      jump\t// in\n    tag_139:\n      dup1\n      iszero\n      tag_140\n      jumpi\n      dup1\n      0x1f\n      lt\n      tag_141\n      jumpi\n      0x0100\n      dup1\n      dup4\n      sload\n      div\n      mul\n      dup4\n      mstore\n      swap2\n      0x20\n      add\n      swap2\n      jump(tag_140)\n    tag_141:\n      dup3\n      add\n      swap2\n      swap1\n      0x00\n      mstore\n      keccak256(0x00, 0x20)\n      swap1\n    tag_142:\n      dup2\n      sload\n      dup2\n      mstore\n      swap1\n      0x01\n      add\n      swap1\n      0x20\n      add\n      dup1\n      dup4\n      gt\n      tag_142\n      jumpi\n      dup3\n      swap1\n      sub\n      0x1f\n      and\n      dup3\n      add\n      swap2\n    tag_140:\n      pop\n      pop\n      pop\n      pop\n      pop\n      dup2\n      mstore\n      0x20\n      add\n      0x0e\n      dup3\n      add\n      dup1\n      sload\n      tag_143\n      swap1\n      tag_93\n      jump\t// in\n    tag_143:\n      dup1\n      0x1f\n      add\n      0x20\n      dup1\n      swap2\n      div\n      mul\n      0x20\n      add\n      mload(0x40)\n      swap1\n      dup2\n      add\n      0x40\n      mstore\n      dup1\n      swap3\n      swap2\n      swap1\n      dup2\n      dup2\n      mstore\n      0x20\n      add\n      dup3\n      dup1\n      sload\n      tag_144\n      swap1\n      tag_93\n      jump\t// in\n    tag_144:\n      dup1\n      iszero\n      tag_145\n      jumpi\n      dup1\n      0x1f\n      lt\n      tag_146\n      jumpi\n      0x0100\n      dup1\n      dup4\n      sload\n      div\n      mul\n      dup4\n      mstore\n      swap2\n      0x20\n      add\n      swap2\n      jump(tag_145)\n    tag_146:\n      dup3\n      add\n      swap2\n      swap1\n      0x00\n      mstore\n      keccak256(0x00, 0x20)\n      swap1\n    tag_147:\n      dup2\n      sload\n      dup2\n      mstore\n      swap1\n      0x01\n      add\n      swap1\n      0x20\n      add\n      dup1\n      dup4\n      gt\n      tag_147\n      jumpi\n      dup3\n      swap1\n      sub\n      0x1f\n      and\n      dup3\n      add\n      swap2\n    tag_145:\n      pop\n      pop\n      pop\n      pop\n      pop\n      dup2\n      mstore\n      0x20\n      add\n      0x0f\n      dup3\n      add\n      dup1\n      sload\n      tag_148\n      swap1\n      tag_93\n      jump\t// in\n    tag_148:\n      dup1\n      0x1f\n      add\n      0x20\n      dup1\n      swap2\n      div\n      mul\n      0x20\n      add\n      mload(0x40)\n      swap1\n      dup2\n      add\n      0x40\n      mstore\n      dup1\n      swap3\n      swap2\n      swap1\n      dup2\n      dup2\n      mstore\n      0x20\n      add\n      dup3\n      dup1\n      sload\n      tag_149\n      swap1\n      tag_93\n      jump\t// in\n    tag_149:\n      dup1\n      iszero\n      tag_150\n      jumpi\n      dup1\n      0x1f\n      lt\n      tag_151\n      jumpi\n      0x0100\n      dup1\n      dup4\n      sload\n      div\n      mul\n      dup4\n      mstore\n      swap2\n      0x20\n      add\n      swap2\n      jump(tag_150)\n    tag_151:\n      dup3\n      add\n      swap2\n      swap1\n      0x00\n      mstore\n      keccak256(0x00, 0x20)\n      swap1\n    tag_152:\n      dup2\n      sload\n      dup2\n      mstore\n      swap1\n      0x01\n      add\n      swap1\n      0x20\n      add\n      dup1\n      dup4\n      gt\n      tag_152\n      jumpi\n      dup3\n      swap1\n      sub\n      0x1f\n      and\n      dup3\n      add\n      swap2\n    tag_150:\n      pop\n      pop\n      pop\n      pop\n      pop\n      dup2\n      mstore\n      0x20\n      add\n      0x10\n      dup3\n      add\n      dup1\n      sload\n      tag_153\n      swap1\n      tag_93\n      jump\t// in\n    tag_153:\n      dup1\n      0x1f\n      add\n      0x20\n      dup1\n      swap2\n      div\n      mul\n      0x20\n      add\n      mload(0x40)\n      swap1\n      dup2\n      add\n      0x40\n      mstore\n      dup1\n      swap3\n      swap2\n      swap1\n      dup2\n      dup2\n      mstore\n      0x20\n      add\n      dup3\n      dup1\n      sload\n      tag_154\n      swap1\n      tag_93\n      jump\t// in\n    tag_154:\n      dup1\n      iszero\n      tag_155\n      jumpi\n      dup1\n      0x1f\n      lt\n      tag_156\n      jumpi\n      0x0100\n      dup1\n      dup4\n      sload\n      div\n      mul\n      dup4\n      mstore\n      swap2\n      0x20\n      add\n      swap2\n      jump(tag_155)\n    tag_156:\n      dup3\n      add\n      swap2\n      swap1\n      0x00\n      mstore\n      keccak256(0x00, 0x20)\n      swap1\n    tag_157:\n      dup2\n      sload\n      dup2\n      mstore\n      swap1\n      0x01\n      add\n      swap1\n      0x20\n      add\n      dup1\n      dup4\n      gt\n      tag_157\n      jumpi\n      dup3\n      swap1\n      sub\n      0x1f\n      and\n      dup3\n      add\n      swap2\n    tag_155:\n      pop\n      pop\n      pop\n      pop\n      pop\n      dup2\n      mstore\n      pop\n      pop\n      dup2\n      mstore\n      pop\n      pop\n        /* \"contracts/manager/Candel_1s/Candel_1s_Manager.sol\":1955:1961  reslut */\n      dup3\n        /* \"contracts/manager/Candel_1s/Candel_1s_Manager.sol\":1962:1963  i */\n      dup3\n        /* \"contracts/manager/Candel_1s/Candel_1s_Manager.sol\":1955:1964  reslut[i] */\n      dup2\n      mload\n      dup2\n      lt\n      tag_159\n      jumpi\n      tag_159\n      tag_90\n      jump\t// in\n    tag_159:\n      0x20\n      swap1\n      dup2\n      mul\n      swap2\n      swap1\n      swap2\n      add\n      add\n        /* \"contracts/manager/Candel_1s/Candel_1s_Manager.sol\":1955:1992  reslut[i] = candles[timestampList[i]] */\n      mstore\n        /* \"contracts/manager/Candel_1s/Candel_1s_Manager.sol\":1936:1939  i++ */\n      0x01\n      add\n        /* \"contracts/manager/Candel_1s/Candel_1s_Manager.sol\":1890:2003  for (uint256 i = 0; i < timestampList.length; i++) {... */\n      jump(tag_85)\n    tag_86:\n      pop\n        /* \"contracts/manager/Candel_1s/Candel_1s_Manager.sol\":2019:2025  reslut */\n      swap2\n        /* \"contracts/manager/Candel_1s/Candel_1s_Manager.sol\":1656:2032  function getAllCandle()... */\n      swap1\n      pop\n      jump\t// out\n        /* \"contracts/manager/Candel_1s/Candel_1s_Manager.sol\":1173:1344  function getCandle(uint256 timestamp)... */\n    tag_27:\n        /* \"contracts/manager/Candel_1s/Candel_1s_Manager.sol\":1275:1296  CandleResponse memory */\n      tag_160\n      tag_84\n      jump\t// in\n    tag_160:\n        /* \"contracts/manager/Candel_1s/Candel_1s_Manager.sol\":1319:1326  candles */\n      0x00\n        /* \"contracts/manager/Candel_1s/Candel_1s_Manager.sol\":1319:1337  candles[timestamp] */\n      dup3\n      dup2\n      mstore\n      0x20\n      dup2\n      swap1\n      mstore\n      0x40\n      swap1\n      dup2\n      swap1\n      keccak256\n        /* \"contracts/manager/Candel_1s/Candel_1s_Manager.sol\":1312:1337  return candles[timestamp] */\n      dup2\n      mload\n      0x80\n      dup2\n      add\n      swap1\n      swap3\n      mstore\n      dup1\n      sload\n      dup3\n      swap1\n        /* \"contracts/manager/Candel_1s/Candel_1s_Manager.sol\":1319:1337  candles[timestamp] */\n      dup3\n      swap1\n        /* \"contracts/manager/Candel_1s/Candel_1s_Manager.sol\":1312:1337  return candles[timestamp] */\n      tag_162\n      swap1\n      tag_93\n      jump\t// in\n    tag_162:\n      dup1\n      0x1f\n      add\n      0x20\n      dup1\n      swap2\n      div\n      mul\n      0x20\n      add\n      mload(0x40)\n      swap1\n      dup2\n      add\n      0x40\n      mstore\n      dup1\n      swap3\n      swap2\n      swap1\n      dup2\n      dup2\n      mstore\n      0x20\n      add\n      dup3\n      dup1\n      sload\n      tag_163\n      swap1\n      tag_93\n      jump\t// in\n    tag_163:\n      dup1\n      iszero\n      tag_164\n      jumpi\n      dup1\n      0x1f\n      lt\n      tag_165\n      jumpi\n      0x0100\n      dup1\n      dup4\n      sload\n      div\n      mul\n      dup4\n      mstore\n      swap2\n      0x20\n      add\n      swap2\n      jump(tag_164)\n    tag_165:\n      dup3\n      add\n      swap2\n      swap1\n      0x00\n      mstore\n      keccak256(0x00, 0x20)\n      swap1\n    tag_166:\n      dup2\n      sload\n      dup2\n      mstore\n      swap1\n      0x01\n      add\n      swap1\n      0x20\n      add\n      dup1\n      dup4\n      gt\n      tag_166\n      jumpi\n      dup3\n      swap1\n      sub\n      0x1f\n      and\n      dup3\n      add\n      swap2\n    tag_164:\n      pop\n      pop\n      pop\n      pop\n      pop\n      dup2\n      mstore\n      0x20\n      add\n      0x01\n      dup3\n      add\n      sload\n      dup2\n      mstore\n      0x20\n      add\n      0x02\n      dup3\n      add\n      dup1\n      sload\n      tag_167\n      swap1\n      tag_93\n      jump\t// in\n    tag_167:\n      dup1\n      0x1f\n      add\n      0x20\n      dup1\n      swap2\n      div\n      mul\n      0x20\n      add\n      mload(0x40)\n      swap1\n      dup2\n      add\n      0x40\n      mstore\n      dup1\n      swap3\n      swap2\n      swap1\n      dup2\n      dup2\n      mstore\n      0x20\n      add\n      dup3\n      dup1\n      sload\n      tag_168\n      swap1\n      tag_93\n      jump\t// in\n    tag_168:\n      dup1\n      iszero\n      tag_169\n      jumpi\n      dup1\n      0x1f\n      lt\n      tag_170\n      jumpi\n      0x0100\n      dup1\n      dup4\n      sload\n      div\n      mul\n      dup4\n      mstore\n      swap2\n      0x20\n      add\n      swap2\n      jump(tag_169)\n    tag_170:\n      dup3\n      add\n      swap2\n      swap1\n      0x00\n      mstore\n      keccak256(0x00, 0x20)\n      swap1\n    tag_171:\n      dup2\n      sload\n      dup2\n      mstore\n      swap1\n      0x01\n      add\n      swap1\n      0x20\n      add\n      dup1\n      dup4\n      gt\n      tag_171\n      jumpi\n      dup3\n      swap1\n      sub\n      0x1f\n      and\n      dup3\n      add\n      swap2\n    tag_169:\n      pop\n      pop\n      pop\n      pop\n      pop\n      dup2\n      mstore\n      0x20\n      add\n      0x03\n      dup3\n      add\n      mload(0x40)\n      dup1\n      0x0220\n      add\n      0x40\n      mstore\n      swap1\n      dup2\n      0x00\n      dup3\n      add\n      sload\n      dup2\n      mstore\n      0x20\n      add\n      0x01\n      dup3\n      add\n      sload\n      dup2\n      mstore\n      0x20\n      add\n      0x02\n      dup3\n      add\n      dup1\n      sload\n      tag_172\n      swap1\n      tag_93\n      jump\t// in\n    tag_172:\n      dup1\n      0x1f\n      add\n      0x20\n      dup1\n      swap2\n      div\n      mul\n      0x20\n      add\n      mload(0x40)\n      swap1\n      dup2\n      add\n      0x40\n      mstore\n      dup1\n      swap3\n      swap2\n      swap1\n      dup2\n      dup2\n      mstore\n      0x20\n      add\n      dup3\n      dup1\n      sload\n      tag_173\n      swap1\n      tag_93\n      jump\t// in\n    tag_173:\n      dup1\n      iszero\n      tag_174\n      jumpi\n      dup1\n      0x1f\n      lt\n      tag_175\n      jumpi\n      0x0100\n      dup1\n      dup4\n      sload\n      div\n      mul\n      dup4\n      mstore\n      swap2\n      0x20\n      add\n      swap2\n      jump(tag_174)\n    tag_175:\n      dup3\n      add\n      swap2\n      swap1\n      0x00\n      mstore\n      keccak256(0x00, 0x20)\n      swap1\n    tag_176:\n      dup2\n      sload\n      dup2\n      mstore\n      swap1\n      0x01\n      add\n      swap1\n      0x20\n      add\n      dup1\n      dup4\n      gt\n      tag_176\n      jumpi\n      dup3\n      swap1\n      sub\n      0x1f\n      and\n      dup3\n      add\n      swap2\n    tag_174:\n      pop\n      pop\n      pop\n      pop\n      pop\n      dup2\n      mstore\n      0x20\n      add\n      0x03\n      dup3\n      add\n      dup1\n      sload\n      tag_177\n      swap1\n      tag_93\n      jump\t// in\n    tag_177:\n      dup1\n      0x1f\n      add\n      0x20\n      dup1\n      swap2\n      div\n      mul\n      0x20\n      add\n      mload(0x40)\n      swap1\n      dup2\n      add\n      0x40\n      mstore\n      dup1\n      swap3\n      swap2\n      swap1\n      dup2\n      dup2\n      mstore\n      0x20\n      add\n      dup3\n      dup1\n      sload\n      tag_178\n      swap1\n      tag_93\n      jump\t// in\n    tag_178:\n      dup1\n      iszero\n      tag_179\n      jumpi\n      dup1\n      0x1f\n      lt\n      tag_180\n      jumpi\n      0x0100\n      dup1\n      dup4\n      sload\n      div\n      mul\n      dup4\n      mstore\n      swap2\n      0x20\n      add\n      swap2\n      jump(tag_179)\n    tag_180:\n      dup3\n      add\n      swap2\n      swap1\n      0x00\n      mstore\n      keccak256(0x00, 0x20)\n      swap1\n    tag_181:\n      dup2\n      sload\n      dup2\n      mstore\n      swap1\n      0x01\n      add\n      swap1\n      0x20\n      add\n      dup1\n      dup4\n      gt\n      tag_181\n      jumpi\n      dup3\n      swap1\n      sub\n      0x1f\n      and\n      dup3\n      add\n      swap2\n    tag_179:\n      pop\n      pop\n      pop\n      pop\n      pop\n      dup2\n      mstore\n      0x20\n      add\n      0x04\n      dup3\n      add\n      sload\n      dup2\n      mstore\n      0x20\n      add\n      0x05\n      dup3\n      add\n      sload\n      dup2\n      mstore\n      0x20\n      add\n      0x06\n      dup3\n      add\n      dup1\n      sload\n      tag_182\n      swap1\n      tag_93\n      jump\t// in\n    tag_182:\n      dup1\n      0x1f\n      add\n      0x20\n      dup1\n      swap2\n      div\n      mul\n      0x20\n      add\n      mload(0x40)\n      swap1\n      dup2\n      add\n      0x40\n      mstore\n      dup1\n      swap3\n      swap2\n      swap1\n      dup2\n      dup2\n      mstore\n      0x20\n      add\n      dup3\n      dup1\n      sload\n      tag_183\n      swap1\n      tag_93\n      jump\t// in\n    tag_183:\n      dup1\n      iszero\n      tag_184\n      jumpi\n      dup1\n      0x1f\n      lt\n      tag_185\n      jumpi\n      0x0100\n      dup1\n      dup4\n      sload\n      div\n      mul\n      dup4\n      mstore\n      swap2\n      0x20\n      add\n      swap2\n      jump(tag_184)\n    tag_185:\n      dup3\n      add\n      swap2\n      swap1\n      0x00\n      mstore\n      keccak256(0x00, 0x20)\n      swap1\n    tag_186:\n      dup2\n      sload\n      dup2\n      mstore\n      swap1\n      0x01\n      add\n      swap1\n      0x20\n      add\n      dup1\n      dup4\n      gt\n      tag_186\n      jumpi\n      dup3\n      swap1\n      sub\n      0x1f\n      and\n      dup3\n      add\n      swap2\n    tag_184:\n      pop\n      pop\n      pop\n      pop\n      pop\n      dup2\n      mstore\n      0x20\n      add\n      0x07\n      dup3\n      add\n      dup1\n      sload\n      tag_187\n      swap1\n      tag_93\n      jump\t// in\n    tag_187:\n      dup1\n      0x1f\n      add\n      0x20\n      dup1\n      swap2\n      div\n      mul\n      0x20\n      add\n      mload(0x40)\n      swap1\n      dup2\n      add\n      0x40\n      mstore\n      dup1\n      swap3\n      swap2\n      swap1\n      dup2\n      dup2\n      mstore\n      0x20\n      add\n      dup3\n      dup1\n      sload\n      tag_188\n      swap1\n      tag_93\n      jump\t// in\n    tag_188:\n      dup1\n      iszero\n      tag_189\n      jumpi\n      dup1\n      0x1f\n      lt\n      tag_190\n      jumpi\n      0x0100\n      dup1\n      dup4\n      sload\n      div\n      mul\n      dup4\n      mstore\n      swap2\n      0x20\n      add\n      swap2\n      jump(tag_189)\n    tag_190:\n      dup3\n      add\n      swap2\n      swap1\n      0x00\n      mstore\n      keccak256(0x00, 0x20)\n      swap1\n    tag_191:\n      dup2\n      sload\n      dup2\n      mstore\n      swap1\n      0x01\n      add\n      swap1\n      0x20\n      add\n      dup1\n      dup4\n      gt\n      tag_191\n      jumpi\n      dup3\n      swap1\n      sub\n      0x1f\n      and\n      dup3\n      add\n      swap2\n    tag_189:\n      pop\n      pop\n      pop\n      pop\n      pop\n      dup2\n      mstore\n      0x20\n      add\n      0x08\n      dup3\n      add\n      dup1\n      sload\n      tag_192\n      swap1\n      tag_93\n      jump\t// in\n    tag_192:\n      dup1\n      0x1f\n      add\n      0x20\n      dup1\n      swap2\n      div\n      mul\n      0x20\n      add\n      mload(0x40)\n      swap1\n      dup2\n      add\n      0x40\n      mstore\n      dup1\n      swap3\n      swap2\n      swap1\n      dup2\n      dup2\n      mstore\n      0x20\n      add\n      dup3\n      dup1\n      sload\n      tag_193\n      swap1\n      tag_93\n      jump\t// in\n    tag_193:\n      dup1\n      iszero\n      tag_194\n      jumpi\n      dup1\n      0x1f\n      lt\n      tag_195\n      jumpi\n      0x0100\n      dup1\n      dup4\n      sload\n      div\n      mul\n      dup4\n      mstore\n      swap2\n      0x20\n      add\n      swap2\n      jump(tag_194)\n    tag_195:\n      dup3\n      add\n      swap2\n      swap1\n      0x00\n      mstore\n      keccak256(0x00, 0x20)\n      swap1\n    tag_196:\n      dup2\n      sload\n      dup2\n      mstore\n      swap1\n      0x01\n      add\n      swap1\n      0x20\n      add\n      dup1\n      dup4\n      gt\n      tag_196\n      jumpi\n      dup3\n      swap1\n      sub\n      0x1f\n      and\n      dup3\n      add\n      swap2\n    tag_194:\n      pop\n      pop\n      pop\n      pop\n      pop\n      dup2\n      mstore\n      0x20\n      add\n      0x09\n      dup3\n      add\n      dup1\n      sload\n      tag_197\n      swap1\n      tag_93\n      jump\t// in\n    tag_197:\n      dup1\n      0x1f\n      add\n      0x20\n      dup1\n      swap2\n      div\n      mul\n      0x20\n      add\n      mload(0x40)\n      swap1\n      dup2\n      add\n      0x40\n      mstore\n      dup1\n      swap3\n      swap2\n      swap1\n      dup2\n      dup2\n      mstore\n      0x20\n      add\n      dup3\n      dup1\n      sload\n      tag_198\n      swap1\n      tag_93\n      jump\t// in\n    tag_198:\n      dup1\n      iszero\n      tag_199\n      jumpi\n      dup1\n      0x1f\n      lt\n      tag_200\n      jumpi\n      0x0100\n      dup1\n      dup4\n      sload\n      div\n      mul\n      dup4\n      mstore\n      swap2\n      0x20\n      add\n      swap2\n      jump(tag_199)\n    tag_200:\n      dup3\n      add\n      swap2\n      swap1\n      0x00\n      mstore\n      keccak256(0x00, 0x20)\n      swap1\n    tag_201:\n      dup2\n      sload\n      dup2\n      mstore\n      swap1\n      0x01\n      add\n      swap1\n      0x20\n      add\n      dup1\n      dup4\n      gt\n      tag_201\n      jumpi\n      dup3\n      swap1\n      sub\n      0x1f\n      and\n      dup3\n      add\n      swap2\n    tag_199:\n      pop\n      pop\n      pop\n      pop\n      pop\n      dup2\n      mstore\n      0x20\n      add\n      0x0a\n      dup3\n      add\n      dup1\n      sload\n      tag_202\n      swap1\n      tag_93\n      jump\t// in\n    tag_202:\n      dup1\n      0x1f\n      add\n      0x20\n      dup1\n      swap2\n      div\n      mul\n      0x20\n      add\n      mload(0x40)\n      swap1\n      dup2\n      add\n      0x40\n      mstore\n      dup1\n      swap3\n      swap2\n      swap1\n      dup2\n      dup2\n      mstore\n      0x20\n      add\n      dup3\n      dup1\n      sload\n      tag_203\n      swap1\n      tag_93\n      jump\t// in\n    tag_203:\n      dup1\n      iszero\n      tag_204\n      jumpi\n      dup1\n      0x1f\n      lt\n      tag_205\n      jumpi\n      0x0100\n      dup1\n      dup4\n      sload\n      div\n      mul\n      dup4\n      mstore\n      swap2\n      0x20\n      add\n      swap2\n      jump(tag_204)\n    tag_205:\n      dup3\n      add\n      swap2\n      swap1\n      0x00\n      mstore\n      keccak256(0x00, 0x20)\n      swap1\n    tag_206:\n      dup2\n      sload\n      dup2\n      mstore\n      swap1\n      0x01\n      add\n      swap1\n      0x20\n      add\n      dup1\n      dup4\n      gt\n      tag_206\n      jumpi\n      dup3\n      swap1\n      sub\n      0x1f\n      and\n      dup3\n      add\n      swap2\n    tag_204:\n      pop\n      pop\n      pop\n      swap2\n      dup4\n      mstore\n      pop\n      pop\n      0x0b\n      dup3\n      add\n      sload\n      0x20\n      dup3\n      add\n      mstore\n      0x0c\n      dup3\n      add\n      sload\n      0xff\n      and\n      iszero\n      iszero\n      0x40\n      dup3\n      add\n      mstore\n      0x0d\n      dup3\n      add\n      dup1\n      sload\n      0x60\n      swap1\n      swap3\n      add\n      swap2\n      tag_207\n      swap1\n      tag_93\n      jump\t// in\n    tag_207:\n      dup1\n      0x1f\n      add\n      0x20\n      dup1\n      swap2\n      div\n      mul\n      0x20\n      add\n      mload(0x40)\n      swap1\n      dup2\n      add\n      0x40\n      mstore\n      dup1\n      swap3\n      swap2\n      swap1\n      dup2\n      dup2\n      mstore\n      0x20\n      add\n      dup3\n      dup1\n      sload\n      tag_208\n      swap1\n      tag_93\n      jump\t// in\n    tag_208:\n      dup1\n      iszero\n      tag_209\n      jumpi\n      dup1\n      0x1f\n      lt\n      tag_210\n      jumpi\n      0x0100\n      dup1\n      dup4\n      sload\n      div\n      mul\n      dup4\n      mstore\n      swap2\n      0x20\n      add\n      swap2\n      jump(tag_209)\n    tag_210:\n      dup3\n      add\n      swap2\n      swap1\n      0x00\n      mstore\n      keccak256(0x00, 0x20)\n      swap1\n    tag_211:\n      dup2\n      sload\n      dup2\n      mstore\n      swap1\n      0x01\n      add\n      swap1\n      0x20\n      add\n      dup1\n      dup4\n      gt\n      tag_211\n      jumpi\n      dup3\n      swap1\n      sub\n      0x1f\n      and\n      dup3\n      add\n      swap2\n    tag_209:\n      pop\n      pop\n      pop\n      pop\n      pop\n      dup2\n      mstore\n      0x20\n      add\n      0x0e\n      dup3\n      add\n      dup1\n      sload\n      tag_212\n      swap1\n      tag_93\n      jump\t// in\n    tag_212:\n      dup1\n      0x1f\n      add\n      0x20\n      dup1\n      swap2\n      div\n      mul\n      0x20\n      add\n      mload(0x40)\n      swap1\n      dup2\n      add\n      0x40\n      mstore\n      dup1\n      swap3\n      swap2\n      swap1\n      dup2\n      dup2\n      mstore\n      0x20\n      add\n      dup3\n      dup1\n      sload\n      tag_213\n      swap1\n      tag_93\n      jump\t// in\n    tag_213:\n      dup1\n      iszero\n      tag_214\n      jumpi\n      dup1\n      0x1f\n      lt\n      tag_215\n      jumpi\n      0x0100\n      dup1\n      dup4\n      sload\n      div\n      mul\n      dup4\n      mstore\n      swap2\n      0x20\n      add\n      swap2\n      jump(tag_214)\n    tag_215:\n      dup3\n      add\n      swap2\n      swap1\n      0x00\n      mstore\n      keccak256(0x00, 0x20)\n      swap1\n    tag_216:\n      dup2\n      sload\n      dup2\n      mstore\n      swap1\n      0x01\n      add\n      swap1\n      0x20\n      add\n      dup1\n      dup4\n      gt\n      tag_216\n      jumpi\n      dup3\n      swap1\n      sub\n      0x1f\n      and\n      dup3\n      add\n      swap2\n    tag_214:\n      pop\n      pop\n      pop\n      pop\n      pop\n      dup2\n      mstore\n      0x20\n      add\n      0x0f\n      dup3\n      add\n      dup1\n      sload\n      tag_217\n      swap1\n      tag_93\n      jump\t// in\n    tag_217:\n      dup1\n      0x1f\n      add\n      0x20\n      dup1\n      swap2\n      div\n      mul\n      0x20\n      add\n      mload(0x40)\n      swap1\n      dup2\n      add\n      0x40\n      mstore\n      dup1\n      swap3\n      swap2\n      swap1\n      dup2\n      dup2\n      mstore\n      0x20\n      add\n      dup3\n      dup1\n      sload\n      tag_218\n      swap1\n      tag_93\n      jump\t// in\n    tag_218:\n      dup1\n      iszero\n      tag_219\n      jumpi\n      dup1\n      0x1f\n      lt\n      tag_220\n      jumpi\n      0x0100\n      dup1\n      dup4\n      sload\n      div\n      mul\n      dup4\n      mstore\n      swap2\n      0x20\n      add\n      swap2\n      jump(tag_219)\n    tag_220:\n      dup3\n      add\n      swap2\n      swap1\n      0x00\n      mstore\n      keccak256(0x00, 0x20)\n      swap1\n    tag_221:\n      dup2\n      sload\n      dup2\n      mstore\n      swap1\n      0x01\n      add\n      swap1\n      0x20\n      add\n      dup1\n      dup4\n      gt\n      tag_221\n      jumpi\n      dup3\n      swap1\n      sub\n      0x1f\n      and\n      dup3\n      add\n      swap2\n    tag_219:\n      pop\n      pop\n      pop\n      pop\n      pop\n      dup2\n      mstore\n      0x20\n      add\n      0x10\n      dup3\n      add\n      dup1\n      sload\n      tag_222\n      swap1\n      tag_93\n      jump\t// in\n    tag_222:\n      dup1\n      0x1f\n      add\n      0x20\n      dup1\n      swap2\n      div\n      mul\n      0x20\n      add\n      mload(0x40)\n      swap1\n      dup2\n      add\n      0x40\n      mstore\n      dup1\n      swap3\n      swap2\n      swap1\n      dup2\n      dup2\n      mstore\n      0x20\n      add\n      dup3\n      dup1\n      sload\n      tag_223\n      swap1\n      tag_93\n      jump\t// in\n    tag_223:\n      dup1\n      iszero\n      tag_224\n      jumpi\n      dup1\n      0x1f\n      lt\n      tag_225\n      jumpi\n      0x0100\n      dup1\n      dup4\n      sload\n      div\n      mul\n      dup4\n      mstore\n      swap2\n      0x20\n      add\n      swap2\n      jump(tag_224)\n    tag_225:\n      dup3\n      add\n      swap2\n      swap1\n      0x00\n      mstore\n      keccak256(0x00, 0x20)\n      swap1\n    tag_226:\n      dup2\n      sload\n      dup2\n      mstore\n      swap1\n      0x01\n      add\n      swap1\n      0x20\n      add\n      dup1\n      dup4\n      gt\n      tag_226\n      jumpi\n      dup3\n      swap1\n      sub\n      0x1f\n      and\n      dup3\n      add\n      swap2\n    tag_224:\n      pop\n      pop\n      pop\n      swap2\n      swap1\n      swap3\n      mstore\n      pop\n      pop\n      pop\n      swap1\n      mstore\n      pop\n      swap3\n        /* \"contracts/manager/Candel_1s/Candel_1s_Manager.sol\":1173:1344  function getCandle(uint256 timestamp)... */\n      swap2\n      pop\n      pop\n      jump\t// out\n        /* \"contracts/manager/Candel_1s/Candel_1s_Manager.sol\":3025:3820  function getCandleFrom(uint256 fromTimestamp)... */\n    tag_36:\n        /* \"contracts/manager/Candel_1s/Candel_1s_Manager.sol\":3118:3141  CandleResponse[] memory */\n      0x60\n        /* \"contracts/manager/Candel_1s/Candel_1s_Manager.sol\":3157:3170  uint256 count */\n      0x00\n        /* \"contracts/manager/Candel_1s/Candel_1s_Manager.sol\":3206:3221  block.timestamp */\n      timestamp\n        /* \"contracts/manager/Candel_1s/Candel_1s_Manager.sol\":3157:3170  uint256 count */\n      dup2\n        /* \"contracts/manager/Candel_1s/Candel_1s_Manager.sol\":3231:3435  for (uint256 i = 0; i < timestampList.length; i++) {... */\n    tag_229:\n        /* \"contracts/manager/Candel_1s/Candel_1s_Manager.sol\":3255:3268  timestampList */\n      0x01\n        /* \"contracts/manager/Candel_1s/Candel_1s_Manager.sol\":3255:3275  timestampList.length */\n      sload\n        /* \"contracts/manager/Candel_1s/Candel_1s_Manager.sol\":3251:3275  i < timestampList.length */\n      dup2\n      lt\n        /* \"contracts/manager/Candel_1s/Candel_1s_Manager.sol\":3231:3435  for (uint256 i = 0; i < timestampList.length; i++) {... */\n      iszero\n      tag_230\n      jumpi\n        /* \"contracts/manager/Candel_1s/Candel_1s_Manager.sol\":3296:3306  uint256 ts */\n      0x00\n        /* \"contracts/manager/Candel_1s/Candel_1s_Manager.sol\":3309:3322  timestampList */\n      0x01\n        /* \"contracts/manager/Candel_1s/Candel_1s_Manager.sol\":3323:3324  i */\n      dup3\n        /* \"contracts/manager/Candel_1s/Candel_1s_Manager.sol\":3309:3325  timestampList[i] */\n      dup2\n      sload\n      dup2\n      lt\n      tag_233\n      jumpi\n      tag_233\n      tag_90\n      jump\t// in\n    tag_233:\n      swap1\n      0x00\n      mstore\n      keccak256(0x00, 0x20)\n      add\n      sload\n        /* \"contracts/manager/Candel_1s/Candel_1s_Manager.sol\":3296:3325  uint256 ts = timestampList[i] */\n      swap1\n      pop\n        /* \"contracts/manager/Candel_1s/Candel_1s_Manager.sol\":3349:3362  fromTimestamp */\n      dup6\n        /* \"contracts/manager/Candel_1s/Candel_1s_Manager.sol\":3343:3345  ts */\n      dup2\n        /* \"contracts/manager/Candel_1s/Candel_1s_Manager.sol\":3343:3362  ts >= fromTimestamp */\n      lt\n      iszero\n        /* \"contracts/manager/Candel_1s/Candel_1s_Manager.sol\":3343:3383  ts >= fromTimestamp && ts <= currentTime */\n      dup1\n      iszero\n      tag_235\n      jumpi\n      pop\n        /* \"contracts/manager/Candel_1s/Candel_1s_Manager.sol\":3372:3383  currentTime */\n      dup3\n        /* \"contracts/manager/Candel_1s/Candel_1s_Manager.sol\":3366:3368  ts */\n      dup2\n        /* \"contracts/manager/Candel_1s/Candel_1s_Manager.sol\":3366:3383  ts <= currentTime */\n      gt\n      iszero\n        /* \"contracts/manager/Candel_1s/Candel_1s_Manager.sol\":3343:3383  ts >= fromTimestamp && ts <= currentTime */\n    tag_235:\n        /* \"contracts/manager/Candel_1s/Candel_1s_Manager.sol\":3339:3425  if (ts >= fromTimestamp && ts <= currentTime) {... */\n      iszero\n      tag_236\n      jumpi\n        /* \"contracts/manager/Candel_1s/Candel_1s_Manager.sol\":3403:3410  count++ */\n      dup4\n      tag_237\n      dup2\n      tag_238\n      jump\t// in\n    tag_237:\n      swap5\n      pop\n      pop\n        /* \"contracts/manager/Candel_1s/Candel_1s_Manager.sol\":3339:3425  if (ts >= fromTimestamp && ts <= currentTime) {... */\n    tag_236:\n      pop\n        /* \"contracts/manager/Candel_1s/Candel_1s_Manager.sol\":3277:3280  i++ */\n      0x01\n      add\n        /* \"contracts/manager/Candel_1s/Candel_1s_Manager.sol\":3231:3435  for (uint256 i = 0; i < timestampList.length; i++) {... */\n      jump(tag_229)\n    tag_230:\n      pop\n        /* \"contracts/manager/Candel_1s/Candel_1s_Manager.sol\":3444:3474  CandleResponse[] memory result */\n      0x00\n        /* \"contracts/manager/Candel_1s/Candel_1s_Manager.sol\":3498:3503  count */\n      dup3\n      sub(shl(0x40, 0x01), 0x01)\n        /* \"contracts/manager/Candel_1s/Candel_1s_Manager.sol\":3477:3504  new CandleResponse[](count) */\n      dup2\n      gt\n      iszero\n      tag_240\n      jumpi\n      tag_240\n      tag_80\n      jump\t// in\n    tag_240:\n      mload(0x40)\n      swap1\n      dup1\n      dup3\n      mstore\n      dup1\n      0x20\n      mul\n      0x20\n      add\n      dup3\n      add\n      0x40\n      mstore\n      dup1\n      iszero\n      tag_241\n      jumpi\n      dup2\n      0x20\n      add\n    tag_242:\n      tag_243\n      tag_84\n      jump\t// in\n    tag_243:\n      dup2\n      mstore\n      0x20\n      add\n      swap1\n      0x01\n      swap1\n      sub\n      swap1\n      dup2\n      tag_242\n      jumpi\n      swap1\n      pop\n    tag_241:\n      pop\n        /* \"contracts/manager/Candel_1s/Candel_1s_Manager.sol\":3444:3504  CandleResponse[] memory result = new CandleResponse[](count) */\n      swap1\n      pop\n        /* \"contracts/manager/Candel_1s/Candel_1s_Manager.sol\":3514:3527  uint256 index */\n      0x00\n      dup1\n        /* \"contracts/manager/Candel_1s/Candel_1s_Manager.sol\":3542:3791  for (uint256 i = 0; i < timestampList.length; i++) {... */\n    tag_244:\n        /* \"contracts/manager/Candel_1s/Candel_1s_Manager.sol\":3566:3579  timestampList */\n      0x01\n        /* \"contracts/manager/Candel_1s/Candel_1s_Manager.sol\":3566:3586  timestampList.length */\n      sload\n        /* \"contracts/manager/Candel_1s/Candel_1s_Manager.sol\":3562:3586  i < timestampList.length */\n      dup2\n      lt\n        /* \"contracts/manager/Candel_1s/Candel_1s_Manager.sol\":3542:3791  for (uint256 i = 0; i < timestampList.length; i++) {... */\n      iszero\n      tag_245\n      jumpi\n        /* \"contracts/manager/Candel_1s/Candel_1s_Manager.sol\":3607:3617  uint256 ts */\n      0x00\n        /* \"contracts/manager/Candel_1s/Candel_1s_Manager.sol\":3620:3633  timestampList */\n      0x01\n        /* \"contracts/manager/Candel_1s/Candel_1s_Manager.sol\":3634:3635  i */\n      dup3\n        /* \"contracts/manager/Candel_1s/Candel_1s_Manager.sol\":3620:3636  timestampList[i] */\n      dup2\n      sload\n      dup2\n      lt\n      tag_248\n      jumpi\n      tag_248\n      tag_90\n      jump\t// in\n    tag_248:\n      swap1\n      0x00\n      mstore\n      keccak256(0x00, 0x20)\n      add\n      sload\n        /* \"contracts/manager/Candel_1s/Candel_1s_Manager.sol\":3607:3636  uint256 ts = timestampList[i] */\n      swap1\n      pop\n        /* \"contracts/manager/Candel_1s/Candel_1s_Manager.sol\":3660:3673  fromTimestamp */\n      dup8\n        /* \"contracts/manager/Candel_1s/Candel_1s_Manager.sol\":3654:3656  ts */\n      dup2\n        /* \"contracts/manager/Candel_1s/Candel_1s_Manager.sol\":3654:3673  ts >= fromTimestamp */\n      lt\n      iszero\n        /* \"contracts/manager/Candel_1s/Candel_1s_Manager.sol\":3654:3694  ts >= fromTimestamp && ts <= currentTime */\n      dup1\n      iszero\n      tag_250\n      jumpi\n      pop\n        /* \"contracts/manager/Candel_1s/Candel_1s_Manager.sol\":3683:3694  currentTime */\n      dup5\n        /* \"contracts/manager/Candel_1s/Candel_1s_Manager.sol\":3677:3679  ts */\n      dup2\n        /* \"contracts/manager/Candel_1s/Candel_1s_Manager.sol\":3677:3694  ts <= currentTime */\n      gt\n      iszero\n        /* \"contracts/manager/Candel_1s/Candel_1s_Manager.sol\":3654:3694  ts >= fromTimestamp && ts <= currentTime */\n    tag_250:\n        /* \"contracts/manager/Candel_1s/Candel_1s_Manager.sol\":3650:3781  if (ts >= fromTimestamp && ts <= currentTime) {... */\n      iszero\n      tag_251\n      jumpi\n        /* \"contracts/manager/Candel_1s/Candel_1s_Manager.sol\":3730:3737  candles */\n      0x00\n        /* \"contracts/manager/Candel_1s/Candel_1s_Manager.sol\":3730:3741  candles[ts] */\n      dup2\n      dup2\n      mstore\n      0x20\n      dup2\n      swap1\n      mstore\n      0x40\n      swap1\n      dup2\n      swap1\n      keccak256\n        /* \"contracts/manager/Candel_1s/Candel_1s_Manager.sol\":3714:3741  result[index] = candles[ts] */\n      dup2\n      mload\n      0x80\n      dup2\n      add\n      swap1\n      swap3\n      mstore\n      dup1\n      sload\n      dup3\n      swap1\n        /* \"contracts/manager/Candel_1s/Candel_1s_Manager.sol\":3730:3741  candles[ts] */\n      dup3\n      swap1\n        /* \"contracts/manager/Candel_1s/Candel_1s_Manager.sol\":3714:3741  result[index] = candles[ts] */\n      tag_252\n      swap1\n      tag_93\n      jump\t// in\n    tag_252:\n      dup1\n      0x1f\n      add\n      0x20\n      dup1\n      swap2\n      div\n      mul\n      0x20\n      add\n      mload(0x40)\n      swap1\n      dup2\n      add\n      0x40\n      mstore\n      dup1\n      swap3\n      swap2\n      swap1\n      dup2\n      dup2\n      mstore\n      0x20\n      add\n      dup3\n      dup1\n      sload\n      tag_253\n      swap1\n      tag_93\n      jump\t// in\n    tag_253:\n      dup1\n      iszero\n      tag_254\n      jumpi\n      dup1\n      0x1f\n      lt\n      tag_255\n      jumpi\n      0x0100\n      dup1\n      dup4\n      sload\n      div\n      mul\n      dup4\n      mstore\n      swap2\n      0x20\n      add\n      swap2\n      jump(tag_254)\n    tag_255:\n      dup3\n      add\n      swap2\n      swap1\n      0x00\n      mstore\n      keccak256(0x00, 0x20)\n      swap1\n    tag_256:\n      dup2\n      sload\n      dup2\n      mstore\n      swap1\n      0x01\n      add\n      swap1\n      0x20\n      add\n      dup1\n      dup4\n      gt\n      tag_256\n      jumpi\n      dup3\n      swap1\n      sub\n      0x1f\n      and\n      dup3\n      add\n      swap2\n    tag_254:\n      pop\n      pop\n      pop\n      pop\n      pop\n      dup2\n      mstore\n      0x20\n      add\n      0x01\n      dup3\n      add\n      sload\n      dup2\n      mstore\n      0x20\n      add\n      0x02\n      dup3\n      add\n      dup1\n      sload\n      tag_257\n      swap1\n      tag_93\n      jump\t// in\n    tag_257:\n      dup1\n      0x1f\n      add\n      0x20\n      dup1\n      swap2\n      div\n      mul\n      0x20\n      add\n      mload(0x40)\n      swap1\n      dup2\n      add\n      0x40\n      mstore\n      dup1\n      swap3\n      swap2\n      swap1\n      dup2\n      dup2\n      mstore\n      0x20\n      add\n      dup3\n      dup1\n      sload\n      tag_258\n      swap1\n      tag_93\n      jump\t// in\n    tag_258:\n      dup1\n      iszero\n      tag_259\n      jumpi\n      dup1\n      0x1f\n      lt\n      tag_260\n      jumpi\n      0x0100\n      dup1\n      dup4\n      sload\n      div\n      mul\n      dup4\n      mstore\n      swap2\n      0x20\n      add\n      swap2\n      jump(tag_259)\n    tag_260:\n      dup3\n      add\n      swap2\n      swap1\n      0x00\n      mstore\n      keccak256(0x00, 0x20)\n      swap1\n    tag_261:\n      dup2\n      sload\n      dup2\n      mstore\n      swap1\n      0x01\n      add\n      swap1\n      0x20\n      add\n      dup1\n      dup4\n      gt\n      tag_261\n      jumpi\n      dup3\n      swap1\n      sub\n      0x1f\n      and\n      dup3\n      add\n      swap2\n    tag_259:\n      pop\n      pop\n      pop\n      pop\n      pop\n      dup2\n      mstore\n      0x20\n      add\n      0x03\n      dup3\n      add\n      mload(0x40)\n      dup1\n      0x0220\n      add\n      0x40\n      mstore\n      swap1\n      dup2\n      0x00\n      dup3\n      add\n      sload\n      dup2\n      mstore\n      0x20\n      add\n      0x01\n      dup3\n      add\n      sload\n      dup2\n      mstore\n      0x20\n      add\n      0x02\n      dup3\n      add\n      dup1\n      sload\n      tag_262\n      swap1\n      tag_93\n      jump\t// in\n    tag_262:\n      dup1\n      0x1f\n      add\n      0x20\n      dup1\n      swap2\n      div\n      mul\n      0x20\n      add\n      mload(0x40)\n      swap1\n      dup2\n      add\n      0x40\n      mstore\n      dup1\n      swap3\n      swap2\n      swap1\n      dup2\n      dup2\n      mstore\n      0x20\n      add\n      dup3\n      dup1\n      sload\n      tag_263\n      swap1\n      tag_93\n      jump\t// in\n    tag_263:\n      dup1\n      iszero\n      tag_264\n      jumpi\n      dup1\n      0x1f\n      lt\n      tag_265\n      jumpi\n      0x0100\n      dup1\n      dup4\n      sload\n      div\n      mul\n      dup4\n      mstore\n      swap2\n      0x20\n      add\n      swap2\n      jump(tag_264)\n    tag_265:\n      dup3\n      add\n      swap2\n      swap1\n      0x00\n      mstore\n      keccak256(0x00, 0x20)\n      swap1\n    tag_266:\n      dup2\n      sload\n      dup2\n      mstore\n      swap1\n      0x01\n      add\n      swap1\n      0x20\n      add\n      dup1\n      dup4\n      gt\n      tag_266\n      jumpi\n      dup3\n      swap1\n      sub\n      0x1f\n      and\n      dup3\n      add\n      swap2\n    tag_264:\n      pop\n      pop\n      pop\n      pop\n      pop\n      dup2\n      mstore\n      0x20\n      add\n      0x03\n      dup3\n      add\n      dup1\n      sload\n      tag_267\n      swap1\n      tag_93\n      jump\t// in\n    tag_267:\n      dup1\n      0x1f\n      add\n      0x20\n      dup1\n      swap2\n      div\n      mul\n      0x20\n      add\n      mload(0x40)\n      swap1\n      dup2\n      add\n      0x40\n      mstore\n      dup1\n      swap3\n      swap2\n      swap1\n      dup2\n      dup2\n      mstore\n      0x20\n      add\n      dup3\n      dup1\n      sload\n      tag_268\n      swap1\n      tag_93\n      jump\t// in\n    tag_268:\n      dup1\n      iszero\n      tag_269\n      jumpi\n      dup1\n      0x1f\n      lt\n      tag_270\n      jumpi\n      0x0100\n      dup1\n      dup4\n      sload\n      div\n      mul\n      dup4\n      mstore\n      swap2\n      0x20\n      add\n      swap2\n      jump(tag_269)\n    tag_270:\n      dup3\n      add\n      swap2\n      swap1\n      0x00\n      mstore\n      keccak256(0x00, 0x20)\n      swap1\n    tag_271:\n      dup2\n      sload\n      dup2\n      mstore\n      swap1\n      0x01\n      add\n      swap1\n      0x20\n      add\n      dup1\n      dup4\n      gt\n      tag_271\n      jumpi\n      dup3\n      swap1\n      sub\n      0x1f\n      and\n      dup3\n      add\n      swap2\n    tag_269:\n      pop\n      pop\n      pop\n      pop\n      pop\n      dup2\n      mstore\n      0x20\n      add\n      0x04\n      dup3\n      add\n      sload\n      dup2\n      mstore\n      0x20\n      add\n      0x05\n      dup3\n      add\n      sload\n      dup2\n      mstore\n      0x20\n      add\n      0x06\n      dup3\n      add\n      dup1\n      sload\n      tag_272\n      swap1\n      tag_93\n      jump\t// in\n    tag_272:\n      dup1\n      0x1f\n      add\n      0x20\n      dup1\n      swap2\n      div\n      mul\n      0x20\n      add\n      mload(0x40)\n      swap1\n      dup2\n      add\n      0x40\n      mstore\n      dup1\n      swap3\n      swap2\n      swap1\n      dup2\n      dup2\n      mstore\n      0x20\n      add\n      dup3\n      dup1\n      sload\n      tag_273\n      swap1\n      tag_93\n      jump\t// in\n    tag_273:\n      dup1\n      iszero\n      tag_274\n      jumpi\n      dup1\n      0x1f\n      lt\n      tag_275\n      jumpi\n      0x0100\n      dup1\n      dup4\n      sload\n      div\n      mul\n      dup4\n      mstore\n      swap2\n      0x20\n      add\n      swap2\n      jump(tag_274)\n    tag_275:\n      dup3\n      add\n      swap2\n      swap1\n      0x00\n      mstore\n      keccak256(0x00, 0x20)\n      swap1\n    tag_276:\n      dup2\n      sload\n      dup2\n      mstore\n      swap1\n      0x01\n      add\n      swap1\n      0x20\n      add\n      dup1\n      dup4\n      gt\n      tag_276\n      jumpi\n      dup3\n      swap1\n      sub\n      0x1f\n      and\n      dup3\n      add\n      swap2\n    tag_274:\n      pop\n      pop\n      pop\n      pop\n      pop\n      dup2\n      mstore\n      0x20\n      add\n      0x07\n      dup3\n      add\n      dup1\n      sload\n      tag_277\n      swap1\n      tag_93\n      jump\t// in\n    tag_277:\n      dup1\n      0x1f\n      add\n      0x20\n      dup1\n      swap2\n      div\n      mul\n      0x20\n      add\n      mload(0x40)\n      swap1\n      dup2\n      add\n      0x40\n      mstore\n      dup1\n      swap3\n      swap2\n      swap1\n      dup2\n      dup2\n      mstore\n      0x20\n      add\n      dup3\n      dup1\n      sload\n      tag_278\n      swap1\n      tag_93\n      jump\t// in\n    tag_278:\n      dup1\n      iszero\n      tag_279\n      jumpi\n      dup1\n      0x1f\n      lt\n      tag_280\n      jumpi\n      0x0100\n      dup1\n      dup4\n      sload\n      div\n      mul\n      dup4\n      mstore\n      swap2\n      0x20\n      add\n      swap2\n      jump(tag_279)\n    tag_280:\n      dup3\n      add\n      swap2\n      swap1\n      0x00\n      mstore\n      keccak256(0x00, 0x20)\n      swap1\n    tag_281:\n      dup2\n      sload\n      dup2\n      mstore\n      swap1\n      0x01\n      add\n      swap1\n      0x20\n      add\n      dup1\n      dup4\n      gt\n      tag_281\n      jumpi\n      dup3\n      swap1\n      sub\n      0x1f\n      and\n      dup3\n      add\n      swap2\n    tag_279:\n      pop\n      pop\n      pop\n      pop\n      pop\n      dup2\n      mstore\n      0x20\n      add\n      0x08\n      dup3\n      add\n      dup1\n      sload\n      tag_282\n      swap1\n      tag_93\n      jump\t// in\n    tag_282:\n      dup1\n      0x1f\n      add\n      0x20\n      dup1\n      swap2\n      div\n      mul\n      0x20\n      add\n      mload(0x40)\n      swap1\n      dup2\n      add\n      0x40\n      mstore\n      dup1\n      swap3\n      swap2\n      swap1\n      dup2\n      dup2\n      mstore\n      0x20\n      add\n      dup3\n      dup1\n      sload\n      tag_283\n      swap1\n      tag_93\n      jump\t// in\n    tag_283:\n      dup1\n      iszero\n      tag_284\n      jumpi\n      dup1\n      0x1f\n      lt\n      tag_285\n      jumpi\n      0x0100\n      dup1\n      dup4\n      sload\n      div\n      mul\n      dup4\n      mstore\n      swap2\n      0x20\n      add\n      swap2\n      jump(tag_284)\n    tag_285:\n      dup3\n      add\n      swap2\n      swap1\n      0x00\n      mstore\n      keccak256(0x00, 0x20)\n      swap1\n    tag_286:\n      dup2\n      sload\n      dup2\n      mstore\n      swap1\n      0x01\n      add\n      swap1\n      0x20\n      add\n      dup1\n      dup4\n      gt\n      tag_286\n      jumpi\n      dup3\n      swap1\n      sub\n      0x1f\n      and\n      dup3\n      add\n      swap2\n    tag_284:\n      pop\n      pop\n      pop\n      pop\n      pop\n      dup2\n      mstore\n      0x20\n      add\n      0x09\n      dup3\n      add\n      dup1\n      sload\n      tag_287\n      swap1\n      tag_93\n      jump\t// in\n    tag_287:\n      dup1\n      0x1f\n      add\n      0x20\n      dup1\n      swap2\n      div\n      mul\n      0x20\n      add\n      mload(0x40)\n      swap1\n      dup2\n      add\n      0x40\n      mstore\n      dup1\n      swap3\n      swap2\n      swap1\n      dup2\n      dup2\n      mstore\n      0x20\n      add\n      dup3\n      dup1\n      sload\n      tag_288\n      swap1\n      tag_93\n      jump\t// in\n    tag_288:\n      dup1\n      iszero\n      tag_289\n      jumpi\n      dup1\n      0x1f\n      lt\n      tag_290\n      jumpi\n      0x0100\n      dup1\n      dup4\n      sload\n      div\n      mul\n      dup4\n      mstore\n      swap2\n      0x20\n      add\n      swap2\n      jump(tag_289)\n    tag_290:\n      dup3\n      add\n      swap2\n      swap1\n      0x00\n      mstore\n      keccak256(0x00, 0x20)\n      swap1\n    tag_291:\n      dup2\n      sload\n      dup2\n      mstore\n      swap1\n      0x01\n      add\n      swap1\n      0x20\n      add\n      dup1\n      dup4\n      gt\n      tag_291\n      jumpi\n      dup3\n      swap1\n      sub\n      0x1f\n      and\n      dup3\n      add\n      swap2\n    tag_289:\n      pop\n      pop\n      pop\n      pop\n      pop\n      dup2\n      mstore\n      0x20\n      add\n      0x0a\n      dup3\n      add\n      dup1\n      sload\n      tag_292\n      swap1\n      tag_93\n      jump\t// in\n    tag_292:\n      dup1\n      0x1f\n      add\n      0x20\n      dup1\n      swap2\n      div\n      mul\n      0x20\n      add\n      mload(0x40)\n      swap1\n      dup2\n      add\n      0x40\n      mstore\n      dup1\n      swap3\n      swap2\n      swap1\n      dup2\n      dup2\n      mstore\n      0x20\n      add\n      dup3\n      dup1\n      sload\n      tag_293\n      swap1\n      tag_93\n      jump\t// in\n    tag_293:\n      dup1\n      iszero\n      tag_294\n      jumpi\n      dup1\n      0x1f\n      lt\n      tag_295\n      jumpi\n      0x0100\n      dup1\n      dup4\n      sload\n      div\n      mul\n      dup4\n      mstore\n      swap2\n      0x20\n      add\n      swap2\n      jump(tag_294)\n    tag_295:\n      dup3\n      add\n      swap2\n      swap1\n      0x00\n      mstore\n      keccak256(0x00, 0x20)\n      swap1\n    tag_296:\n      dup2\n      sload\n      dup2\n      mstore\n      swap1\n      0x01\n      add\n      swap1\n      0x20\n      add\n      dup1\n      dup4\n      gt\n      tag_296\n      jumpi\n      dup3\n      swap1\n      sub\n      0x1f\n      and\n      dup3\n      add\n      swap2\n    tag_294:\n      pop\n      pop\n      pop\n      swap2\n      dup4\n      mstore\n      pop\n      pop\n      0x0b\n      dup3\n      add\n      sload\n      0x20\n      dup3\n      add\n      mstore\n      0x0c\n      dup3\n      add\n      sload\n      0xff\n      and\n      iszero\n      iszero\n      0x40\n      dup3\n      add\n      mstore\n      0x0d\n      dup3\n      add\n      dup1\n      sload\n      0x60\n      swap1\n      swap3\n      add\n      swap2\n      tag_297\n      swap1\n      tag_93\n      jump\t// in\n    tag_297:\n      dup1\n      0x1f\n      add\n      0x20\n      dup1\n      swap2\n      div\n      mul\n      0x20\n      add\n      mload(0x40)\n      swap1\n      dup2\n      add\n      0x40\n      mstore\n      dup1\n      swap3\n      swap2\n      swap1\n      dup2\n      dup2\n      mstore\n      0x20\n      add\n      dup3\n      dup1\n      sload\n      tag_298\n      swap1\n      tag_93\n      jump\t// in\n    tag_298:\n      dup1\n      iszero\n      tag_299\n      jumpi\n      dup1\n      0x1f\n      lt\n      tag_300\n      jumpi\n      0x0100\n      dup1\n      dup4\n      sload\n      div\n      mul\n      dup4\n      mstore\n      swap2\n      0x20\n      add\n      swap2\n      jump(tag_299)\n    tag_300:\n      dup3\n      add\n      swap2\n      swap1\n      0x00\n      mstore\n      keccak256(0x00, 0x20)\n      swap1\n    tag_301:\n      dup2\n      sload\n      dup2\n      mstore\n      swap1\n      0x01\n      add\n      swap1\n      0x20\n      add\n      dup1\n      dup4\n      gt\n      tag_301\n      jumpi\n      dup3\n      swap1\n      sub\n      0x1f\n      and\n      dup3\n      add\n      swap2\n    tag_299:\n      pop\n      pop\n      pop\n      pop\n      pop\n      dup2\n      mstore\n      0x20\n      add\n      0x0e\n      dup3\n      add\n      dup1\n      sload\n      tag_302\n      swap1\n      tag_93\n      jump\t// in\n    tag_302:\n      dup1\n      0x1f\n      add\n      0x20\n      dup1\n      swap2\n      div\n      mul\n      0x20\n      add\n      mload(0x40)\n      swap1\n      dup2\n      add\n      0x40\n      mstore\n      dup1\n      swap3\n      swap2\n      swap1\n      dup2\n      dup2\n      mstore\n      0x20\n      add\n      dup3\n      dup1\n      sload\n      tag_303\n      swap1\n      tag_93\n      jump\t// in\n    tag_303:\n      dup1\n      iszero\n      tag_304\n      jumpi\n      dup1\n      0x1f\n      lt\n      tag_305\n      jumpi\n      0x0100\n      dup1\n      dup4\n      sload\n      div\n      mul\n      dup4\n      mstore\n      swap2\n      0x20\n      add\n      swap2\n      jump(tag_304)\n    tag_305:\n      dup3\n      add\n      swap2\n      swap1\n      0x00\n      mstore\n      keccak256(0x00, 0x20)\n      swap1\n    tag_306:\n      dup2\n      sload\n      dup2\n      mstore\n      swap1\n      0x01\n      add\n      swap1\n      0x20\n      add\n      dup1\n      dup4\n      gt\n      tag_306\n      jumpi\n      dup3\n      swap1\n      sub\n      0x1f\n      and\n      dup3\n      add\n      swap2\n    tag_304:\n      pop\n      pop\n      pop\n      pop\n      pop\n      dup2\n      mstore\n      0x20\n      add\n      0x0f\n      dup3\n      add\n      dup1\n      sload\n      tag_307\n      swap1\n      tag_93\n      jump\t// in\n    tag_307:\n      dup1\n      0x1f\n      add\n      0x20\n      dup1\n      swap2\n      div\n      mul\n      0x20\n      add\n      mload(0x40)\n      swap1\n      dup2\n      add\n      0x40\n      mstore\n      dup1\n      swap3\n      swap2\n      swap1\n      dup2\n      dup2\n      mstore\n      0x20\n      add\n      dup3\n      dup1\n      sload\n      tag_308\n      swap1\n      tag_93\n      jump\t// in\n    tag_308:\n      dup1\n      iszero\n      tag_309\n      jumpi\n      dup1\n      0x1f\n      lt\n      tag_310\n      jumpi\n      0x0100\n      dup1\n      dup4\n      sload\n      div\n      mul\n      dup4\n      mstore\n      swap2\n      0x20\n      add\n      swap2\n      jump(tag_309)\n    tag_310:\n      dup3\n      add\n      swap2\n      swap1\n      0x00\n      mstore\n      keccak256(0x00, 0x20)\n      swap1\n    tag_311:\n      dup2\n      sload\n      dup2\n      mstore\n      swap1\n      0x01\n      add\n      swap1\n      0x20\n      add\n      dup1\n      dup4\n      gt\n      tag_311\n      jumpi\n      dup3\n      swap1\n      sub\n      0x1f\n      and\n      dup3\n      add\n      swap2\n    tag_309:\n      pop\n      pop\n      pop\n      pop\n      pop\n      dup2\n      mstore\n      0x20\n      add\n      0x10\n      dup3\n      add\n      dup1\n      sload\n      tag_312\n      swap1\n      tag_93\n      jump\t// in\n    tag_312:\n      dup1\n      0x1f\n      add\n      0x20\n      dup1\n      swap2\n      div\n      mul\n      0x20\n      add\n      mload(0x40)\n      swap1\n      dup2\n      add\n      0x40\n      mstore\n      dup1\n      swap3\n      swap2\n      swap1\n      dup2\n      dup2\n      mstore\n      0x20\n      add\n      dup3\n      dup1\n      sload\n      tag_313\n      swap1\n      tag_93\n      jump\t// in\n    tag_313:\n      dup1\n      iszero\n      tag_314\n      jumpi\n      dup1\n      0x1f\n      lt\n      tag_315\n      jumpi\n      0x0100\n      dup1\n      dup4\n      sload\n      div\n      mul\n      dup4\n      mstore\n      swap2\n      0x20\n      add\n      swap2\n      jump(tag_314)\n    tag_315:\n      dup3\n      add\n      swap2\n      swap1\n      0x00\n      mstore\n      keccak256(0x00, 0x20)\n      swap1\n    tag_316:\n      dup2\n      sload\n      dup2\n      mstore\n      swap1\n      0x01\n      add\n      swap1\n      0x20\n      add\n      dup1\n      dup4\n      gt\n      tag_316\n      jumpi\n      dup3\n      swap1\n      sub\n      0x1f\n      and\n      dup3\n      add\n      swap2\n    tag_314:\n      pop\n      pop\n      pop\n      pop\n      pop\n      dup2\n      mstore\n      pop\n      pop\n      dup2\n      mstore\n      pop\n      pop\n        /* \"contracts/manager/Candel_1s/Candel_1s_Manager.sol\":3714:3720  result */\n      dup5\n        /* \"contracts/manager/Candel_1s/Candel_1s_Manager.sol\":3721:3726  index */\n      dup5\n        /* \"contracts/manager/Candel_1s/Candel_1s_Manager.sol\":3714:3727  result[index] */\n      dup2\n      mload\n      dup2\n      lt\n      tag_318\n      jumpi\n      tag_318\n      tag_90\n      jump\t// in\n    tag_318:\n      0x20\n      mul\n      0x20\n      add\n      add\n        /* \"contracts/manager/Candel_1s/Candel_1s_Manager.sol\":3714:3741  result[index] = candles[ts] */\n      dup2\n      swap1\n      mstore\n      pop\n        /* \"contracts/manager/Candel_1s/Candel_1s_Manager.sol\":3759:3766  index++ */\n      dup3\n      dup1\n      tag_319\n      swap1\n      tag_238\n      jump\t// in\n    tag_319:\n      swap4\n      pop\n      pop\n        /* \"contracts/manager/Candel_1s/Candel_1s_Manager.sol\":3650:3781  if (ts >= fromTimestamp && ts <= currentTime) {... */\n    tag_251:\n      pop\n        /* \"contracts/manager/Candel_1s/Candel_1s_Manager.sol\":3588:3591  i++ */\n      0x01\n      add\n        /* \"contracts/manager/Candel_1s/Candel_1s_Manager.sol\":3542:3791  for (uint256 i = 0; i < timestampList.length; i++) {... */\n      jump(tag_244)\n    tag_245:\n      pop\n        /* \"contracts/manager/Candel_1s/Candel_1s_Manager.sol\":3807:3813  result */\n      swap1\n      swap6\n        /* \"contracts/manager/Candel_1s/Candel_1s_Manager.sol\":3025:3820  function getCandleFrom(uint256 fromTimestamp)... */\n      swap5\n      pop\n      pop\n      pop\n      pop\n      pop\n      jump\t// out\n        /* \"contracts/manager/Candel_1s/Candel_1s_Manager.sol\":2139:3019  function getCandleInRange(uint256 fromTimestamp, uint256 toTimestamp)... */\n    tag_41:\n        /* \"contracts/manager/Candel_1s/Candel_1s_Manager.sol\":2256:2279  CandleResponse[] memory */\n      0x60\n        /* \"contracts/manager/Candel_1s/Candel_1s_Manager.sol\":2319:2330  toTimestamp */\n      dup2\n        /* \"contracts/manager/Candel_1s/Candel_1s_Manager.sol\":2303:2316  fromTimestamp */\n      dup4\n        /* \"contracts/manager/Candel_1s/Candel_1s_Manager.sol\":2303:2330  fromTimestamp < toTimestamp */\n      lt\n        /* \"contracts/manager/Candel_1s/Candel_1s_Manager.sol\":2295:2348  require(fromTimestamp < toTimestamp, \"Invalid range\") */\n      tag_321\n      jumpi\n      mload(0x40)\n      shl(0xe5, 0x461bcd)\n      dup2\n      mstore\n        /* \"#utility.yul\":15646:15648   */\n      0x20\n        /* \"contracts/manager/Candel_1s/Candel_1s_Manager.sol\":2295:2348  require(fromTimestamp < toTimestamp, \"Invalid range\") */\n      0x04\n      dup3\n      add\n        /* \"#utility.yul\":15628:15649   */\n      mstore\n        /* \"#utility.yul\":15685:15687   */\n      0x0d\n        /* \"#utility.yul\":15665:15683   */\n      0x24\n      dup3\n      add\n        /* \"#utility.yul\":15658:15688   */\n      mstore\n      shl(0x98, 0x496e76616c69642072616e6765)\n        /* \"#utility.yul\":15704:15722   */\n      0x44\n      dup3\n      add\n        /* \"#utility.yul\":15697:15740   */\n      mstore\n        /* \"#utility.yul\":15757:15775   */\n      0x64\n      add\n        /* \"contracts/manager/Candel_1s/Candel_1s_Manager.sol\":2295:2348  require(fromTimestamp < toTimestamp, \"Invalid range\") */\n      tag_52\n        /* \"#utility.yul\":15444:15781   */\n      jump\n        /* \"contracts/manager/Candel_1s/Candel_1s_Manager.sol\":2295:2348  require(fromTimestamp < toTimestamp, \"Invalid range\") */\n    tag_321:\n        /* \"contracts/manager/Candel_1s/Candel_1s_Manager.sol\":2402:2415  uint256 count */\n      0x00\n      dup1\n        /* \"contracts/manager/Candel_1s/Candel_1s_Manager.sol\":2429:2633  for (uint256 i = 0; i < timestampList.length; i++) {... */\n    tag_324:\n        /* \"contracts/manager/Candel_1s/Candel_1s_Manager.sol\":2453:2466  timestampList */\n      0x01\n        /* \"contracts/manager/Candel_1s/Candel_1s_Manager.sol\":2453:2473  timestampList.length */\n      sload\n        /* \"contracts/manager/Candel_1s/Candel_1s_Manager.sol\":2449:2473  i < timestampList.length */\n      dup2\n      lt\n        /* \"contracts/manager/Candel_1s/Candel_1s_Manager.sol\":2429:2633  for (uint256 i = 0; i < timestampList.length; i++) {... */\n      iszero\n      tag_325\n      jumpi\n        /* \"contracts/manager/Candel_1s/Candel_1s_Manager.sol\":2494:2504  uint256 ts */\n      0x00\n        /* \"contracts/manager/Candel_1s/Candel_1s_Manager.sol\":2507:2520  timestampList */\n      0x01\n        /* \"contracts/manager/Candel_1s/Candel_1s_Manager.sol\":2521:2522  i */\n      dup3\n        /* \"contracts/manager/Candel_1s/Candel_1s_Manager.sol\":2507:2523  timestampList[i] */\n      dup2\n      sload\n      dup2\n      lt\n      tag_328\n      jumpi\n      tag_328\n      tag_90\n      jump\t// in\n    tag_328:\n      swap1\n      0x00\n      mstore\n      keccak256(0x00, 0x20)\n      add\n      sload\n        /* \"contracts/manager/Candel_1s/Candel_1s_Manager.sol\":2494:2523  uint256 ts = timestampList[i] */\n      swap1\n      pop\n        /* \"contracts/manager/Candel_1s/Candel_1s_Manager.sol\":2547:2560  fromTimestamp */\n      dup6\n        /* \"contracts/manager/Candel_1s/Candel_1s_Manager.sol\":2541:2543  ts */\n      dup2\n        /* \"contracts/manager/Candel_1s/Candel_1s_Manager.sol\":2541:2560  ts >= fromTimestamp */\n      lt\n      iszero\n        /* \"contracts/manager/Candel_1s/Candel_1s_Manager.sol\":2541:2581  ts >= fromTimestamp && ts <= toTimestamp */\n      dup1\n      iszero\n      tag_330\n      jumpi\n      pop\n        /* \"contracts/manager/Candel_1s/Candel_1s_Manager.sol\":2570:2581  toTimestamp */\n      dup5\n        /* \"contracts/manager/Candel_1s/Candel_1s_Manager.sol\":2564:2566  ts */\n      dup2\n        /* \"contracts/manager/Candel_1s/Candel_1s_Manager.sol\":2564:2581  ts <= toTimestamp */\n      gt\n      iszero\n        /* \"contracts/manager/Candel_1s/Candel_1s_Manager.sol\":2541:2581  ts >= fromTimestamp && ts <= toTimestamp */\n    tag_330:\n        /* \"contracts/manager/Candel_1s/Candel_1s_Manager.sol\":2537:2623  if (ts >= fromTimestamp && ts <= toTimestamp) {... */\n      iszero\n      tag_331\n      jumpi\n        /* \"contracts/manager/Candel_1s/Candel_1s_Manager.sol\":2601:2608  count++ */\n      dup3\n      tag_332\n      dup2\n      tag_238\n      jump\t// in\n    tag_332:\n      swap4\n      pop\n      pop\n        /* \"contracts/manager/Candel_1s/Candel_1s_Manager.sol\":2537:2623  if (ts >= fromTimestamp && ts <= toTimestamp) {... */\n    tag_331:\n      pop\n        /* \"contracts/manager/Candel_1s/Candel_1s_Manager.sol\":2475:2478  i++ */\n      0x01\n      add\n        /* \"contracts/manager/Candel_1s/Candel_1s_Manager.sol\":2429:2633  for (uint256 i = 0; i < timestampList.length; i++) {... */\n      jump(tag_324)\n    tag_325:\n      pop\n        /* \"contracts/manager/Candel_1s/Candel_1s_Manager.sol\":2643:2673  CandleResponse[] memory result */\n      0x00\n        /* \"contracts/manager/Candel_1s/Candel_1s_Manager.sol\":2697:2702  count */\n      dup2\n      sub(shl(0x40, 0x01), 0x01)\n        /* \"contracts/manager/Candel_1s/Candel_1s_Manager.sol\":2676:2703  new CandleResponse[](count) */\n      dup2\n      gt\n      iszero\n      tag_334\n      jumpi\n      tag_334\n      tag_80\n      jump\t// in\n    tag_334:\n      mload(0x40)\n      swap1\n      dup1\n      dup3\n      mstore\n      dup1\n      0x20\n      mul\n      0x20\n      add\n      dup3\n      add\n      0x40\n      mstore\n      dup1\n      iszero\n      tag_335\n      jumpi\n      dup2\n      0x20\n      add\n    tag_336:\n      tag_337\n      tag_84\n      jump\t// in\n    tag_337:\n      dup2\n      mstore\n      0x20\n      add\n      swap1\n      0x01\n      swap1\n      sub\n      swap1\n      dup2\n      tag_336\n      jumpi\n      swap1\n      pop\n    tag_335:\n      pop\n        /* \"contracts/manager/Candel_1s/Candel_1s_Manager.sol\":2643:2703  CandleResponse[] memory result = new CandleResponse[](count) */\n      swap1\n      pop\n        /* \"contracts/manager/Candel_1s/Candel_1s_Manager.sol\":2713:2726  uint256 index */\n      0x00\n      dup1\n        /* \"contracts/manager/Candel_1s/Candel_1s_Manager.sol\":2741:2990  for (uint256 i = 0; i < timestampList.length; i++) {... */\n    tag_338:\n        /* \"contracts/manager/Candel_1s/Candel_1s_Manager.sol\":2765:2778  timestampList */\n      0x01\n        /* \"contracts/manager/Candel_1s/Candel_1s_Manager.sol\":2765:2785  timestampList.length */\n      sload\n        /* \"contracts/manager/Candel_1s/Candel_1s_Manager.sol\":2761:2785  i < timestampList.length */\n      dup2\n      lt\n        /* \"contracts/manager/Candel_1s/Candel_1s_Manager.sol\":2741:2990  for (uint256 i = 0; i < timestampList.length; i++) {... */\n      iszero\n      tag_339\n      jumpi\n        /* \"contracts/manager/Candel_1s/Candel_1s_Manager.sol\":2806:2816  uint256 ts */\n      0x00\n        /* \"contracts/manager/Candel_1s/Candel_1s_Manager.sol\":2819:2832  timestampList */\n      0x01\n        /* \"contracts/manager/Candel_1s/Candel_1s_Manager.sol\":2833:2834  i */\n      dup3\n        /* \"contracts/manager/Candel_1s/Candel_1s_Manager.sol\":2819:2835  timestampList[i] */\n      dup2\n      sload\n      dup2\n      lt\n      tag_342\n      jumpi\n      tag_342\n      tag_90\n      jump\t// in\n    tag_342:\n      swap1\n      0x00\n      mstore\n      keccak256(0x00, 0x20)\n      add\n      sload\n        /* \"contracts/manager/Candel_1s/Candel_1s_Manager.sol\":2806:2835  uint256 ts = timestampList[i] */\n      swap1\n      pop\n        /* \"contracts/manager/Candel_1s/Candel_1s_Manager.sol\":2859:2872  fromTimestamp */\n      dup8\n        /* \"contracts/manager/Candel_1s/Candel_1s_Manager.sol\":2853:2855  ts */\n      dup2\n        /* \"contracts/manager/Candel_1s/Candel_1s_Manager.sol\":2853:2872  ts >= fromTimestamp */\n      lt\n      iszero\n        /* \"contracts/manager/Candel_1s/Candel_1s_Manager.sol\":2853:2893  ts >= fromTimestamp && ts <= toTimestamp */\n      dup1\n      iszero\n      tag_344\n      jumpi\n      pop\n        /* \"contracts/manager/Candel_1s/Candel_1s_Manager.sol\":2882:2893  toTimestamp */\n      dup7\n        /* \"contracts/manager/Candel_1s/Candel_1s_Manager.sol\":2876:2878  ts */\n      dup2\n        /* \"contracts/manager/Candel_1s/Candel_1s_Manager.sol\":2876:2893  ts <= toTimestamp */\n      gt\n      iszero\n        /* \"contracts/manager/Candel_1s/Candel_1s_Manager.sol\":2853:2893  ts >= fromTimestamp && ts <= toTimestamp */\n    tag_344:\n        /* \"contracts/manager/Candel_1s/Candel_1s_Manager.sol\":2849:2980  if (ts >= fromTimestamp && ts <= toTimestamp) {... */\n      iszero\n      tag_345\n      jumpi\n        /* \"contracts/manager/Candel_1s/Candel_1s_Manager.sol\":2929:2936  candles */\n      0x00\n        /* \"contracts/manager/Candel_1s/Candel_1s_Manager.sol\":2929:2940  candles[ts] */\n      dup2\n      dup2\n      mstore\n      0x20\n      dup2\n      swap1\n      mstore\n      0x40\n      swap1\n      dup2\n      swap1\n      keccak256\n        /* \"contracts/manager/Candel_1s/Candel_1s_Manager.sol\":2913:2940  result[index] = candles[ts] */\n      dup2\n      mload\n      0x80\n      dup2\n      add\n      swap1\n      swap3\n      mstore\n      dup1\n      sload\n      dup3\n      swap1\n        /* \"contracts/manager/Candel_1s/Candel_1s_Manager.sol\":2929:2940  candles[ts] */\n      dup3\n      swap1\n        /* \"contracts/manager/Candel_1s/Candel_1s_Manager.sol\":2913:2940  result[index] = candles[ts] */\n      tag_346\n      swap1\n      tag_93\n      jump\t// in\n    tag_346:\n      dup1\n      0x1f\n      add\n      0x20\n      dup1\n      swap2\n      div\n      mul\n      0x20\n      add\n      mload(0x40)\n      swap1\n      dup2\n      add\n      0x40\n      mstore\n      dup1\n      swap3\n      swap2\n      swap1\n      dup2\n      dup2\n      mstore\n      0x20\n      add\n      dup3\n      dup1\n      sload\n      tag_347\n      swap1\n      tag_93\n      jump\t// in\n    tag_347:\n      dup1\n      iszero\n      tag_348\n      jumpi\n      dup1\n      0x1f\n      lt\n      tag_349\n      jumpi\n      0x0100\n      dup1\n      dup4\n      sload\n      div\n      mul\n      dup4\n      mstore\n      swap2\n      0x20\n      add\n      swap2\n      jump(tag_348)\n    tag_349:\n      dup3\n      add\n      swap2\n      swap1\n      0x00\n      mstore\n      keccak256(0x00, 0x20)\n      swap1\n    tag_350:\n      dup2\n      sload\n      dup2\n      mstore\n      swap1\n      0x01\n      add\n      swap1\n      0x20\n      add\n      dup1\n      dup4\n      gt\n      tag_350\n      jumpi\n      dup3\n      swap1\n      sub\n      0x1f\n      and\n      dup3\n      add\n      swap2\n    tag_348:\n      pop\n      pop\n      pop\n      pop\n      pop\n      dup2\n      mstore\n      0x20\n      add\n      0x01\n      dup3\n      add\n      sload\n      dup2\n      mstore\n      0x20\n      add\n      0x02\n      dup3\n      add\n      dup1\n      sload\n      tag_351\n      swap1\n      tag_93\n      jump\t// in\n    tag_351:\n      dup1\n      0x1f\n      add\n      0x20\n      dup1\n      swap2\n      div\n      mul\n      0x20\n      add\n      mload(0x40)\n      swap1\n      dup2\n      add\n      0x40\n      mstore\n      dup1\n      swap3\n      swap2\n      swap1\n      dup2\n      dup2\n      mstore\n      0x20\n      add\n      dup3\n      dup1\n      sload\n      tag_352\n      swap1\n      tag_93\n      jump\t// in\n    tag_352:\n      dup1\n      iszero\n      tag_353\n      jumpi\n      dup1\n      0x1f\n      lt\n      tag_354\n      jumpi\n      0x0100\n      dup1\n      dup4\n      sload\n      div\n      mul\n      dup4\n      mstore\n      swap2\n      0x20\n      add\n      swap2\n      jump(tag_353)\n    tag_354:\n      dup3\n      add\n      swap2\n      swap1\n      0x00\n      mstore\n      keccak256(0x00, 0x20)\n      swap1\n    tag_355:\n      dup2\n      sload\n      dup2\n      mstore\n      swap1\n      0x01\n      add\n      swap1\n      0x20\n      add\n      dup1\n      dup4\n      gt\n      tag_355\n      jumpi\n      dup3\n      swap1\n      sub\n      0x1f\n      and\n      dup3\n      add\n      swap2\n    tag_353:\n      pop\n      pop\n      pop\n      pop\n      pop\n      dup2\n      mstore\n      0x20\n      add\n      0x03\n      dup3\n      add\n      mload(0x40)\n      dup1\n      0x0220\n      add\n      0x40\n      mstore\n      swap1\n      dup2\n      0x00\n      dup3\n      add\n      sload\n      dup2\n      mstore\n      0x20\n      add\n      0x01\n      dup3\n      add\n      sload\n      dup2\n      mstore\n      0x20\n      add\n      0x02\n      dup3\n      add\n      dup1\n      sload\n      tag_356\n      swap1\n      tag_93\n      jump\t// in\n    tag_356:\n      dup1\n      0x1f\n      add\n      0x20\n      dup1\n      swap2\n      div\n      mul\n      0x20\n      add\n      mload(0x40)\n      swap1\n      dup2\n      add\n      0x40\n      mstore\n      dup1\n      swap3\n      swap2\n      swap1\n      dup2\n      dup2\n      mstore\n      0x20\n      add\n      dup3\n      dup1\n      sload\n      tag_357\n      swap1\n      tag_93\n      jump\t// in\n    tag_357:\n      dup1\n      iszero\n      tag_358\n      jumpi\n      dup1\n      0x1f\n      lt\n      tag_359\n      jumpi\n      0x0100\n      dup1\n      dup4\n      sload\n      div\n      mul\n      dup4\n      mstore\n      swap2\n      0x20\n      add\n      swap2\n      jump(tag_358)\n    tag_359:\n      dup3\n      add\n      swap2\n      swap1\n      0x00\n      mstore\n      keccak256(0x00, 0x20)\n      swap1\n    tag_360:\n      dup2\n      sload\n      dup2\n      mstore\n      swap1\n      0x01\n      add\n      swap1\n      0x20\n      add\n      dup1\n      dup4\n      gt\n      tag_360\n      jumpi\n      dup3\n      swap1\n      sub\n      0x1f\n      and\n      dup3\n      add\n      swap2\n    tag_358:\n      pop\n      pop\n      pop\n      pop\n      pop\n      dup2\n      mstore\n      0x20\n      add\n      0x03\n      dup3\n      add\n      dup1\n      sload\n      tag_361\n      swap1\n      tag_93\n      jump\t// in\n    tag_361:\n      dup1\n      0x1f\n      add\n      0x20\n      dup1\n      swap2\n      div\n      mul\n      0x20\n      add\n      mload(0x40)\n      swap1\n      dup2\n      add\n      0x40\n      mstore\n      dup1\n      swap3\n      swap2\n      swap1\n      dup2\n      dup2\n      mstore\n      0x20\n      add\n      dup3\n      dup1\n      sload\n      tag_362\n      swap1\n      tag_93\n      jump\t// in\n    tag_362:\n      dup1\n      iszero\n      tag_363\n      jumpi\n      dup1\n      0x1f\n      lt\n      tag_364\n      jumpi\n      0x0100\n      dup1\n      dup4\n      sload\n      div\n      mul\n      dup4\n      mstore\n      swap2\n      0x20\n      add\n      swap2\n      jump(tag_363)\n    tag_364:\n      dup3\n      add\n      swap2\n      swap1\n      0x00\n      mstore\n      keccak256(0x00, 0x20)\n      swap1\n    tag_365:\n      dup2\n      sload\n      dup2\n      mstore\n      swap1\n      0x01\n      add\n      swap1\n      0x20\n      add\n      dup1\n      dup4\n      gt\n      tag_365\n      jumpi\n      dup3\n      swap1\n      sub\n      0x1f\n      and\n      dup3\n      add\n      swap2\n    tag_363:\n      pop\n      pop\n      pop\n      pop\n      pop\n      dup2\n      mstore\n      0x20\n      add\n      0x04\n      dup3\n      add\n      sload\n      dup2\n      mstore\n      0x20\n      add\n      0x05\n      dup3\n      add\n      sload\n      dup2\n      mstore\n      0x20\n      add\n      0x06\n      dup3\n      add\n      dup1\n      sload\n      tag_366\n      swap1\n      tag_93\n      jump\t// in\n    tag_366:\n      dup1\n      0x1f\n      add\n      0x20\n      dup1\n      swap2\n      div\n      mul\n      0x20\n      add\n      mload(0x40)\n      swap1\n      dup2\n      add\n      0x40\n      mstore\n      dup1\n      swap3\n      swap2\n      swap1\n      dup2\n      dup2\n      mstore\n      0x20\n      add\n      dup3\n      dup1\n      sload\n      tag_367\n      swap1\n      tag_93\n      jump\t// in\n    tag_367:\n      dup1\n      iszero\n      tag_368\n      jumpi\n      dup1\n      0x1f\n      lt\n      tag_369\n      jumpi\n      0x0100\n      dup1\n      dup4\n      sload\n      div\n      mul\n      dup4\n      mstore\n      swap2\n      0x20\n      add\n      swap2\n      jump(tag_368)\n    tag_369:\n      dup3\n      add\n      swap2\n      swap1\n      0x00\n      mstore\n      keccak256(0x00, 0x20)\n      swap1\n    tag_370:\n      dup2\n      sload\n      dup2\n      mstore\n      swap1\n      0x01\n      add\n      swap1\n      0x20\n      add\n      dup1\n      dup4\n      gt\n      tag_370\n      jumpi\n      dup3\n      swap1\n      sub\n      0x1f\n      and\n      dup3\n      add\n      swap2\n    tag_368:\n      pop\n      pop\n      pop\n      pop\n      pop\n      dup2\n      mstore\n      0x20\n      add\n      0x07\n      dup3\n      add\n      dup1\n      sload\n      tag_371\n      swap1\n      tag_93\n      jump\t// in\n    tag_371:\n      dup1\n      0x1f\n      add\n      0x20\n      dup1\n      swap2\n      div\n      mul\n      0x20\n      add\n      mload(0x40)\n      swap1\n      dup2\n      add\n      0x40\n      mstore\n      dup1\n      swap3\n      swap2\n      swap1\n      dup2\n      dup2\n      mstore\n      0x20\n      add\n      dup3\n      dup1\n      sload\n      tag_372\n      swap1\n      tag_93\n      jump\t// in\n    tag_372:\n      dup1\n      iszero\n      tag_373\n      jumpi\n      dup1\n      0x1f\n      lt\n      tag_374\n      jumpi\n      0x0100\n      dup1\n      dup4\n      sload\n      div\n      mul\n      dup4\n      mstore\n      swap2\n      0x20\n      add\n      swap2\n      jump(tag_373)\n    tag_374:\n      dup3\n      add\n      swap2\n      swap1\n      0x00\n      mstore\n      keccak256(0x00, 0x20)\n      swap1\n    tag_375:\n      dup2\n      sload\n      dup2\n      mstore\n      swap1\n      0x01\n      add\n      swap1\n      0x20\n      add\n      dup1\n      dup4\n      gt\n      tag_375\n      jumpi\n      dup3\n      swap1\n      sub\n      0x1f\n      and\n      dup3\n      add\n      swap2\n    tag_373:\n      pop\n      pop\n      pop\n      pop\n      pop\n      dup2\n      mstore\n      0x20\n      add\n      0x08\n      dup3\n      add\n      dup1\n      sload\n      tag_376\n      swap1\n      tag_93\n      jump\t// in\n    tag_376:\n      dup1\n      0x1f\n      add\n      0x20\n      dup1\n      swap2\n      div\n      mul\n      0x20\n      add\n      mload(0x40)\n      swap1\n      dup2\n      add\n      0x40\n      mstore\n      dup1\n      swap3\n      swap2\n      swap1\n      dup2\n      dup2\n      mstore\n      0x20\n      add\n      dup3\n      dup1\n      sload\n      tag_377\n      swap1\n      tag_93\n      jump\t// in\n    tag_377:\n      dup1\n      iszero\n      tag_378\n      jumpi\n      dup1\n      0x1f\n      lt\n      tag_379\n      jumpi\n      0x0100\n      dup1\n      dup4\n      sload\n      div\n      mul\n      dup4\n      mstore\n      swap2\n      0x20\n      add\n      swap2\n      jump(tag_378)\n    tag_379:\n      dup3\n      add\n      swap2\n      swap1\n      0x00\n      mstore\n      keccak256(0x00, 0x20)\n      swap1\n    tag_380:\n      dup2\n      sload\n      dup2\n      mstore\n      swap1\n      0x01\n      add\n      swap1\n      0x20\n      add\n      dup1\n      dup4\n      gt\n      tag_380\n      jumpi\n      dup3\n      swap1\n      sub\n      0x1f\n      and\n      dup3\n      add\n      swap2\n    tag_378:\n      pop\n      pop\n      pop\n      pop\n      pop\n      dup2\n      mstore\n      0x20\n      add\n      0x09\n      dup3\n      add\n      dup1\n      sload\n      tag_381\n      swap1\n      tag_93\n      jump\t// in\n    tag_381:\n      dup1\n      0x1f\n      add\n      0x20\n      dup1\n      swap2\n      div\n      mul\n      0x20\n      add\n      mload(0x40)\n      swap1\n      dup2\n      add\n      0x40\n      mstore\n      dup1\n      swap3\n      swap2\n      swap1\n      dup2\n      dup2\n      mstore\n      0x20\n      add\n      dup3\n      dup1\n      sload\n      tag_382\n      swap1\n      tag_93\n      jump\t// in\n    tag_382:\n      dup1\n      iszero\n      tag_383\n      jumpi\n      dup1\n      0x1f\n      lt\n      tag_384\n      jumpi\n      0x0100\n      dup1\n      dup4\n      sload\n      div\n      mul\n      dup4\n      mstore\n      swap2\n      0x20\n      add\n      swap2\n      jump(tag_383)\n    tag_384:\n      dup3\n      add\n      swap2\n      swap1\n      0x00\n      mstore\n      keccak256(0x00, 0x20)\n      swap1\n    tag_385:\n      dup2\n      sload\n      dup2\n      mstore\n      swap1\n      0x01\n      add\n      swap1\n      0x20\n      add\n      dup1\n      dup4\n      gt\n      tag_385\n      jumpi\n      dup3\n      swap1\n      sub\n      0x1f\n      and\n      dup3\n      add\n      swap2\n    tag_383:\n      pop\n      pop\n      pop\n      pop\n      pop\n      dup2\n      mstore\n      0x20\n      add\n      0x0a\n      dup3\n      add\n      dup1\n      sload\n      tag_386\n      swap1\n      tag_93\n      jump\t// in\n    tag_386:\n      dup1\n      0x1f\n      add\n      0x20\n      dup1\n      swap2\n      div\n      mul\n      0x20\n      add\n      mload(0x40)\n      swap1\n      dup2\n      add\n      0x40\n      mstore\n      dup1\n      swap3\n      swap2\n      swap1\n      dup2\n      dup2\n      mstore\n      0x20\n      add\n      dup3\n      dup1\n      sload\n      tag_387\n      swap1\n      tag_93\n      jump\t// in\n    tag_387:\n      dup1\n      iszero\n      tag_388\n      jumpi\n      dup1\n      0x1f\n      lt\n      tag_389\n      jumpi\n      0x0100\n      dup1\n      dup4\n      sload\n      div\n      mul\n      dup4\n      mstore\n      swap2\n      0x20\n      add\n      swap2\n      jump(tag_388)\n    tag_389:\n      dup3\n      add\n      swap2\n      swap1\n      0x00\n      mstore\n      keccak256(0x00, 0x20)\n      swap1\n    tag_390:\n      dup2\n      sload\n      dup2\n      mstore\n      swap1\n      0x01\n      add\n      swap1\n      0x20\n      add\n      dup1\n      dup4\n      gt\n      tag_390\n      jumpi\n      dup3\n      swap1\n      sub\n      0x1f\n      and\n      dup3\n      add\n      swap2\n    tag_388:\n      pop\n      pop\n      pop\n      swap2\n      dup4\n      mstore\n      pop\n      pop\n      0x0b\n      dup3\n      add\n      sload\n      0x20\n      dup3\n      add\n      mstore\n      0x0c\n      dup3\n      add\n      sload\n      0xff\n      and\n      iszero\n      iszero\n      0x40\n      dup3\n      add\n      mstore\n      0x0d\n      dup3\n      add\n      dup1\n      sload\n      0x60\n      swap1\n      swap3\n      add\n      swap2\n      tag_391\n      swap1\n      tag_93\n      jump\t// in\n    tag_391:\n      dup1\n      0x1f\n      add\n      0x20\n      dup1\n      swap2\n      div\n      mul\n      0x20\n      add\n      mload(0x40)\n      swap1\n      dup2\n      add\n      0x40\n      mstore\n      dup1\n      swap3\n      swap2\n      swap1\n      dup2\n      dup2\n      mstore\n      0x20\n      add\n      dup3\n      dup1\n      sload\n      tag_392\n      swap1\n      tag_93\n      jump\t// in\n    tag_392:\n      dup1\n      iszero\n      tag_393\n      jumpi\n      dup1\n      0x1f\n      lt\n      tag_394\n      jumpi\n      0x0100\n      dup1\n      dup4\n      sload\n      div\n      mul\n      dup4\n      mstore\n      swap2\n      0x20\n      add\n      swap2\n      jump(tag_393)\n    tag_394:\n      dup3\n      add\n      swap2\n      swap1\n      0x00\n      mstore\n      keccak256(0x00, 0x20)\n      swap1\n    tag_395:\n      dup2\n      sload\n      dup2\n      mstore\n      swap1\n      0x01\n      add\n      swap1\n      0x20\n      add\n      dup1\n      dup4\n      gt\n      tag_395\n      jumpi\n      dup3\n      swap1\n      sub\n      0x1f\n      and\n      dup3\n      add\n      swap2\n    tag_393:\n      pop\n      pop\n      pop\n      pop\n      pop\n      dup2\n      mstore\n      0x20\n      add\n      0x0e\n      dup3\n      add\n      dup1\n      sload\n      tag_396\n      swap1\n      tag_93\n      jump\t// in\n    tag_396:\n      dup1\n      0x1f\n      add\n      0x20\n      dup1\n      swap2\n      div\n      mul\n      0x20\n      add\n      mload(0x40)\n      swap1\n      dup2\n      add\n      0x40\n      mstore\n      dup1\n      swap3\n      swap2\n      swap1\n      dup2\n      dup2\n      mstore\n      0x20\n      add\n      dup3\n      dup1\n      sload\n      tag_397\n      swap1\n      tag_93\n      jump\t// in\n    tag_397:\n      dup1\n      iszero\n      tag_398\n      jumpi\n      dup1\n      0x1f\n      lt\n      tag_399\n      jumpi\n      0x0100\n      dup1\n      dup4\n      sload\n      div\n      mul\n      dup4\n      mstore\n      swap2\n      0x20\n      add\n      swap2\n      jump(tag_398)\n    tag_399:\n      dup3\n      add\n      swap2\n      swap1\n      0x00\n      mstore\n      keccak256(0x00, 0x20)\n      swap1\n    tag_400:\n      dup2\n      sload\n      dup2\n      mstore\n      swap1\n      0x01\n      add\n      swap1\n      0x20\n      add\n      dup1\n      dup4\n      gt\n      tag_400\n      jumpi\n      dup3\n      swap1\n      sub\n      0x1f\n      and\n      dup3\n      add\n      swap2\n    tag_398:\n      pop\n      pop\n      pop\n      pop\n      pop\n      dup2\n      mstore\n      0x20\n      add\n      0x0f\n      dup3\n      add\n      dup1\n      sload\n      tag_401\n      swap1\n      tag_93\n      jump\t// in\n    tag_401:\n      dup1\n      0x1f\n      add\n      0x20\n      dup1\n      swap2\n      div\n      mul\n      0x20\n      add\n      mload(0x40)\n      swap1\n      dup2\n      add\n      0x40\n      mstore\n      dup1\n      swap3\n      swap2\n      swap1\n      dup2\n      dup2\n      mstore\n      0x20\n      add\n      dup3\n      dup1\n      sload\n      tag_402\n      swap1\n      tag_93\n      jump\t// in\n    tag_402:\n      dup1\n      iszero\n      tag_403\n      jumpi\n      dup1\n      0x1f\n      lt\n      tag_404\n      jumpi\n      0x0100\n      dup1\n      dup4\n      sload\n      div\n      mul\n      dup4\n      mstore\n      swap2\n      0x20\n      add\n      swap2\n      jump(tag_403)\n    tag_404:\n      dup3\n      add\n      swap2\n      swap1\n      0x00\n      mstore\n      keccak256(0x00, 0x20)\n      swap1\n    tag_405:\n      dup2\n      sload\n      dup2\n      mstore\n      swap1\n      0x01\n      add\n      swap1\n      0x20\n      add\n      dup1\n      dup4\n      gt\n      tag_405\n      jumpi\n      dup3\n      swap1\n      sub\n      0x1f\n      and\n      dup3\n      add\n      swap2\n    tag_403:\n      pop\n      pop\n      pop\n      pop\n      pop\n      dup2\n      mstore\n      0x20\n      add\n      0x10\n      dup3\n      add\n      dup1\n      sload\n      tag_406\n      swap1\n      tag_93\n      jump\t// in\n    tag_406:\n      dup1\n      0x1f\n      add\n      0x20\n      dup1\n      swap2\n      div\n      mul\n      0x20\n      add\n      mload(0x40)\n      swap1\n      dup2\n      add\n      0x40\n      mstore\n      dup1\n      swap3\n      swap2\n      swap1\n      dup2\n      dup2\n      mstore\n      0x20\n      add\n      dup3\n      dup1\n      sload\n      tag_407\n      swap1\n      tag_93\n      jump\t// in\n    tag_407:\n      dup1\n      iszero\n      tag_408\n      jumpi\n      dup1\n      0x1f\n      lt\n      tag_409\n      jumpi\n      0x0100\n      dup1\n      dup4\n      sload\n      div\n      mul\n      dup4\n      mstore\n      swap2\n      0x20\n      add\n      swap2\n      jump(tag_408)\n    tag_409:\n      dup3\n      add\n      swap2\n      swap1\n      0x00\n      mstore\n      keccak256(0x00, 0x20)\n      swap1\n    tag_410:\n      dup2\n      sload\n      dup2\n      mstore\n      swap1\n      0x01\n      add\n      swap1\n      0x20\n      add\n      dup1\n      dup4\n      gt\n      tag_410\n      jumpi\n      dup3\n      swap1\n      sub\n      0x1f\n      and\n      dup3\n      add\n      swap2\n    tag_408:\n      pop\n      pop\n      pop\n      pop\n      pop\n      dup2\n      mstore\n      pop\n      pop\n      dup2\n      mstore\n      pop\n      pop\n        /* \"contracts/manager/Candel_1s/Candel_1s_Manager.sol\":2913:2919  result */\n      dup5\n        /* \"contracts/manager/Candel_1s/Candel_1s_Manager.sol\":2920:2925  index */\n      dup5\n        /* \"contracts/manager/Candel_1s/Candel_1s_Manager.sol\":2913:2926  result[index] */\n      dup2\n      mload\n      dup2\n      lt\n      tag_412\n      jumpi\n      tag_412\n      tag_90\n      jump\t// in\n    tag_412:\n      0x20\n      mul\n      0x20\n      add\n      add\n        /* \"contracts/manager/Candel_1s/Candel_1s_Manager.sol\":2913:2940  result[index] = candles[ts] */\n      dup2\n      swap1\n      mstore\n      pop\n        /* \"contracts/manager/Candel_1s/Candel_1s_Manager.sol\":2958:2965  index++ */\n      dup3\n      dup1\n      tag_413\n      swap1\n      tag_238\n      jump\t// in\n    tag_413:\n      swap4\n      pop\n      pop\n        /* \"contracts/manager/Candel_1s/Candel_1s_Manager.sol\":2849:2980  if (ts >= fromTimestamp && ts <= toTimestamp) {... */\n    tag_345:\n      pop\n        /* \"contracts/manager/Candel_1s/Candel_1s_Manager.sol\":2787:2790  i++ */\n      0x01\n      add\n        /* \"contracts/manager/Candel_1s/Candel_1s_Manager.sol\":2741:2990  for (uint256 i = 0; i < timestampList.length; i++) {... */\n      jump(tag_338)\n    tag_339:\n      pop\n        /* \"contracts/manager/Candel_1s/Candel_1s_Manager.sol\":3006:3012  result */\n      swap1\n      swap3\n      pop\n      pop\n      pop\n        /* \"contracts/manager/Candel_1s/Candel_1s_Manager.sol\":2139:3019  function getCandleInRange(uint256 fromTimestamp, uint256 toTimestamp)... */\n    tag_320:\n      swap3\n      swap2\n      pop\n      pop\n      jump\t// out\n        /* \"contracts/manager/Candel_1s/Candel_1s_Manager.sol\":1350:1650  function getLastKline()... */\n    tag_44:\n        /* \"contracts/manager/Candel_1s/Candel_1s_Manager.sol\":1438:1459  CandleResponse memory */\n      tag_414\n      tag_84\n      jump\t// in\n    tag_414:\n        /* \"contracts/manager/Candel_1s/Candel_1s_Manager.sol\":1483:1496  timestampList */\n      0x01\n        /* \"contracts/manager/Candel_1s/Candel_1s_Manager.sol\":1483:1503  timestampList.length */\n      sload\n        /* \"contracts/manager/Candel_1s/Candel_1s_Manager.sol\":1475:1531  require(timestampList.length > 0, \"No candles recorded\") */\n      tag_416\n      jumpi\n      mload(0x40)\n      shl(0xe5, 0x461bcd)\n      dup2\n      mstore\n        /* \"#utility.yul\":15988:15990   */\n      0x20\n        /* \"contracts/manager/Candel_1s/Candel_1s_Manager.sol\":1475:1531  require(timestampList.length > 0, \"No candles recorded\") */\n      0x04\n      dup3\n      add\n        /* \"#utility.yul\":15970:15991   */\n      mstore\n        /* \"#utility.yul\":16027:16029   */\n      0x13\n        /* \"#utility.yul\":16007:16025   */\n      0x24\n      dup3\n      add\n        /* \"#utility.yul\":16000:16030   */\n      mstore\n      shl(0x6a, 0x139bc818d85b991b195cc81c9958dbdc991959)\n        /* \"#utility.yul\":16046:16064   */\n      0x44\n      dup3\n      add\n        /* \"#utility.yul\":16039:16088   */\n      mstore\n        /* \"#utility.yul\":16105:16123   */\n      0x64\n      add\n        /* \"contracts/manager/Candel_1s/Candel_1s_Manager.sol\":1475:1531  require(timestampList.length > 0, \"No candles recorded\") */\n      tag_52\n        /* \"#utility.yul\":15786:16129   */\n      jump\n        /* \"contracts/manager/Candel_1s/Candel_1s_Manager.sol\":1475:1531  require(timestampList.length > 0, \"No candles recorded\") */\n    tag_416:\n        /* \"contracts/manager/Candel_1s/Candel_1s_Manager.sol\":1565:1578  timestampList */\n      0x01\n        /* \"contracts/manager/Candel_1s/Candel_1s_Manager.sol\":1579:1599  timestampList.length */\n      dup1\n      sload\n        /* \"contracts/manager/Candel_1s/Candel_1s_Manager.sol\":1541:1562  uint256 lastTimestamp */\n      0x00\n      swap2\n        /* \"contracts/manager/Candel_1s/Candel_1s_Manager.sol\":1565:1578  timestampList */\n      swap1\n        /* \"contracts/manager/Candel_1s/Candel_1s_Manager.sol\":1579:1603  timestampList.length - 1 */\n      tag_419\n      swap1\n        /* \"contracts/manager/Candel_1s/Candel_1s_Manager.sol\":1565:1578  timestampList */\n      dup3\n      swap1\n        /* \"contracts/manager/Candel_1s/Candel_1s_Manager.sol\":1579:1603  timestampList.length - 1 */\n      tag_420\n      jump\t// in\n    tag_419:\n        /* \"contracts/manager/Candel_1s/Candel_1s_Manager.sol\":1565:1604  timestampList[timestampList.length - 1] */\n      dup2\n      sload\n      dup2\n      lt\n      tag_422\n      jumpi\n      tag_422\n      tag_90\n      jump\t// in\n    tag_422:\n      swap1\n      0x00\n      mstore\n      keccak256(0x00, 0x20)\n      add\n      sload\n        /* \"contracts/manager/Candel_1s/Candel_1s_Manager.sol\":1541:1604  uint256 lastTimestamp = timestampList[timestampList.length - 1] */\n      swap1\n      pop\n        /* \"contracts/manager/Candel_1s/Candel_1s_Manager.sol\":1621:1628  candles */\n      0x00\n        /* \"contracts/manager/Candel_1s/Candel_1s_Manager.sol\":1621:1643  candles[lastTimestamp] */\n      0x00\n        /* \"contracts/manager/Candel_1s/Candel_1s_Manager.sol\":1629:1642  lastTimestamp */\n      dup3\n        /* \"contracts/manager/Candel_1s/Candel_1s_Manager.sol\":1621:1643  candles[lastTimestamp] */\n      dup2\n      mstore\n      0x20\n      add\n      swap1\n      dup2\n      mstore\n      0x20\n      add\n      0x00\n      keccak256\n        /* \"contracts/manager/Candel_1s/Candel_1s_Manager.sol\":1614:1643  return candles[lastTimestamp] */\n      mload(0x40)\n      dup1\n      0x80\n      add\n      0x40\n      mstore\n      swap1\n      dup2\n      0x00\n      dup3\n      add\n      dup1\n      sload\n      tag_424\n      swap1\n      tag_93\n      jump\t// in\n    tag_424:\n      dup1\n      0x1f\n      add\n      0x20\n      dup1\n      swap2\n      div\n      mul\n      0x20\n      add\n      mload(0x40)\n      swap1\n      dup2\n      add\n      0x40\n      mstore\n      dup1\n      swap3\n      swap2\n      swap1\n      dup2\n      dup2\n      mstore\n      0x20\n      add\n      dup3\n      dup1\n      sload\n      tag_425\n      swap1\n      tag_93\n      jump\t// in\n    tag_425:\n      dup1\n      iszero\n      tag_426\n      jumpi\n      dup1\n      0x1f\n      lt\n      tag_427\n      jumpi\n      0x0100\n      dup1\n      dup4\n      sload\n      div\n      mul\n      dup4\n      mstore\n      swap2\n      0x20\n      add\n      swap2\n      jump(tag_426)\n    tag_427:\n      dup3\n      add\n      swap2\n      swap1\n      0x00\n      mstore\n      keccak256(0x00, 0x20)\n      swap1\n    tag_428:\n      dup2\n      sload\n      dup2\n      mstore\n      swap1\n      0x01\n      add\n      swap1\n      0x20\n      add\n      dup1\n      dup4\n      gt\n      tag_428\n      jumpi\n      dup3\n      swap1\n      sub\n      0x1f\n      and\n      dup3\n      add\n      swap2\n    tag_426:\n      pop\n      pop\n      pop\n      pop\n      pop\n      dup2\n      mstore\n      0x20\n      add\n      0x01\n      dup3\n      add\n      sload\n      dup2\n      mstore\n      0x20\n      add\n      0x02\n      dup3\n      add\n      dup1\n      sload\n      tag_429\n      swap1\n      tag_93\n      jump\t// in\n    tag_429:\n      dup1\n      0x1f\n      add\n      0x20\n      dup1\n      swap2\n      div\n      mul\n      0x20\n      add\n      mload(0x40)\n      swap1\n      dup2\n      add\n      0x40\n      mstore\n      dup1\n      swap3\n      swap2\n      swap1\n      dup2\n      dup2\n      mstore\n      0x20\n      add\n      dup3\n      dup1\n      sload\n      tag_430\n      swap1\n      tag_93\n      jump\t// in\n    tag_430:\n      dup1\n      iszero\n      tag_431\n      jumpi\n      dup1\n      0x1f\n      lt\n      tag_432\n      jumpi\n      0x0100\n      dup1\n      dup4\n      sload\n      div\n      mul\n      dup4\n      mstore\n      swap2\n      0x20\n      add\n      swap2\n      jump(tag_431)\n    tag_432:\n      dup3\n      add\n      swap2\n      swap1\n      0x00\n      mstore\n      keccak256(0x00, 0x20)\n      swap1\n    tag_433:\n      dup2\n      sload\n      dup2\n      mstore\n      swap1\n      0x01\n      add\n      swap1\n      0x20\n      add\n      dup1\n      dup4\n      gt\n      tag_433\n      jumpi\n      dup3\n      swap1\n      sub\n      0x1f\n      and\n      dup3\n      add\n      swap2\n    tag_431:\n      pop\n      pop\n      pop\n      pop\n      pop\n      dup2\n      mstore\n      0x20\n      add\n      0x03\n      dup3\n      add\n      mload(0x40)\n      dup1\n      0x0220\n      add\n      0x40\n      mstore\n      swap1\n      dup2\n      0x00\n      dup3\n      add\n      sload\n      dup2\n      mstore\n      0x20\n      add\n      0x01\n      dup3\n      add\n      sload\n      dup2\n      mstore\n      0x20\n      add\n      0x02\n      dup3\n      add\n      dup1\n      sload\n      tag_434\n      swap1\n      tag_93\n      jump\t// in\n    tag_434:\n      dup1\n      0x1f\n      add\n      0x20\n      dup1\n      swap2\n      div\n      mul\n      0x20\n      add\n      mload(0x40)\n      swap1\n      dup2\n      add\n      0x40\n      mstore\n      dup1\n      swap3\n      swap2\n      swap1\n      dup2\n      dup2\n      mstore\n      0x20\n      add\n      dup3\n      dup1\n      sload\n      tag_435\n      swap1\n      tag_93\n      jump\t// in\n    tag_435:\n      dup1\n      iszero\n      tag_436\n      jumpi\n      dup1\n      0x1f\n      lt\n      tag_437\n      jumpi\n      0x0100\n      dup1\n      dup4\n      sload\n      div\n      mul\n      dup4\n      mstore\n      swap2\n      0x20\n      add\n      swap2\n      jump(tag_436)\n    tag_437:\n      dup3\n      add\n      swap2\n      swap1\n      0x00\n      mstore\n      keccak256(0x00, 0x20)\n      swap1\n    tag_438:\n      dup2\n      sload\n      dup2\n      mstore\n      swap1\n      0x01\n      add\n      swap1\n      0x20\n      add\n      dup1\n      dup4\n      gt\n      tag_438\n      jumpi\n      dup3\n      swap1\n      sub\n      0x1f\n      and\n      dup3\n      add\n      swap2\n    tag_436:\n      pop\n      pop\n      pop\n      pop\n      pop\n      dup2\n      mstore\n      0x20\n      add\n      0x03\n      dup3\n      add\n      dup1\n      sload\n      tag_439\n      swap1\n      tag_93\n      jump\t// in\n    tag_439:\n      dup1\n      0x1f\n      add\n      0x20\n      dup1\n      swap2\n      div\n      mul\n      0x20\n      add\n      mload(0x40)\n      swap1\n      dup2\n      add\n      0x40\n      mstore\n      dup1\n      swap3\n      swap2\n      swap1\n      dup2\n      dup2\n      mstore\n      0x20\n      add\n      dup3\n      dup1\n      sload\n      tag_440\n      swap1\n      tag_93\n      jump\t// in\n    tag_440:\n      dup1\n      iszero\n      tag_441\n      jumpi\n      dup1\n      0x1f\n      lt\n      tag_442\n      jumpi\n      0x0100\n      dup1\n      dup4\n      sload\n      div\n      mul\n      dup4\n      mstore\n      swap2\n      0x20\n      add\n      swap2\n      jump(tag_441)\n    tag_442:\n      dup3\n      add\n      swap2\n      swap1\n      0x00\n      mstore\n      keccak256(0x00, 0x20)\n      swap1\n    tag_443:\n      dup2\n      sload\n      dup2\n      mstore\n      swap1\n      0x01\n      add\n      swap1\n      0x20\n      add\n      dup1\n      dup4\n      gt\n      tag_443\n      jumpi\n      dup3\n      swap1\n      sub\n      0x1f\n      and\n      dup3\n      add\n      swap2\n    tag_441:\n      pop\n      pop\n      pop\n      pop\n      pop\n      dup2\n      mstore\n      0x20\n      add\n      0x04\n      dup3\n      add\n      sload\n      dup2\n      mstore\n      0x20\n      add\n      0x05\n      dup3\n      add\n      sload\n      dup2\n      mstore\n      0x20\n      add\n      0x06\n      dup3\n      add\n      dup1\n      sload\n      tag_444\n      swap1\n      tag_93\n      jump\t// in\n    tag_444:\n      dup1\n      0x1f\n      add\n      0x20\n      dup1\n      swap2\n      div\n      mul\n      0x20\n      add\n      mload(0x40)\n      swap1\n      dup2\n      add\n      0x40\n      mstore\n      dup1\n      swap3\n      swap2\n      swap1\n      dup2\n      dup2\n      mstore\n      0x20\n      add\n      dup3\n      dup1\n      sload\n      tag_445\n      swap1\n      tag_93\n      jump\t// in\n    tag_445:\n      dup1\n      iszero\n      tag_446\n      jumpi\n      dup1\n      0x1f\n      lt\n      tag_447\n      jumpi\n      0x0100\n      dup1\n      dup4\n      sload\n      div\n      mul\n      dup4\n      mstore\n      swap2\n      0x20\n      add\n      swap2\n      jump(tag_446)\n    tag_447:\n      dup3\n      add\n      swap2\n      swap1\n      0x00\n      mstore\n      keccak256(0x00, 0x20)\n      swap1\n    tag_448:\n      dup2\n      sload\n      dup2\n      mstore\n      swap1\n      0x01\n      add\n      swap1\n      0x20\n      add\n      dup1\n      dup4\n      gt\n      tag_448\n      jumpi\n      dup3\n      swap1\n      sub\n      0x1f\n      and\n      dup3\n      add\n      swap2\n    tag_446:\n      pop\n      pop\n      pop\n      pop\n      pop\n      dup2\n      mstore\n      0x20\n      add\n      0x07\n      dup3\n      add\n      dup1\n      sload\n      tag_449\n      swap1\n      tag_93\n      jump\t// in\n    tag_449:\n      dup1\n      0x1f\n      add\n      0x20\n      dup1\n      swap2\n      div\n      mul\n      0x20\n      add\n      mload(0x40)\n      swap1\n      dup2\n      add\n      0x40\n      mstore\n      dup1\n      swap3\n      swap2\n      swap1\n      dup2\n      dup2\n      mstore\n      0x20\n      add\n      dup3\n      dup1\n      sload\n      tag_450\n      swap1\n      tag_93\n      jump\t// in\n    tag_450:\n      dup1\n      iszero\n      tag_451\n      jumpi\n      dup1\n      0x1f\n      lt\n      tag_452\n      jumpi\n      0x0100\n      dup1\n      dup4\n      sload\n      div\n      mul\n      dup4\n      mstore\n      swap2\n      0x20\n      add\n      swap2\n      jump(tag_451)\n    tag_452:\n      dup3\n      add\n      swap2\n      swap1\n      0x00\n      mstore\n      keccak256(0x00, 0x20)\n      swap1\n    tag_453:\n      dup2\n      sload\n      dup2\n      mstore\n      swap1\n      0x01\n      add\n      swap1\n      0x20\n      add\n      dup1\n      dup4\n      gt\n      tag_453\n      jumpi\n      dup3\n      swap1\n      sub\n      0x1f\n      and\n      dup3\n      add\n      swap2\n    tag_451:\n      pop\n      pop\n      pop\n      pop\n      pop\n      dup2\n      mstore\n      0x20\n      add\n      0x08\n      dup3\n      add\n      dup1\n      sload\n      tag_454\n      swap1\n      tag_93\n      jump\t// in\n    tag_454:\n      dup1\n      0x1f\n      add\n      0x20\n      dup1\n      swap2\n      div\n      mul\n      0x20\n      add\n      mload(0x40)\n      swap1\n      dup2\n      add\n      0x40\n      mstore\n      dup1\n      swap3\n      swap2\n      swap1\n      dup2\n      dup2\n      mstore\n      0x20\n      add\n      dup3\n      dup1\n      sload\n      tag_455\n      swap1\n      tag_93\n      jump\t// in\n    tag_455:\n      dup1\n      iszero\n      tag_456\n      jumpi\n      dup1\n      0x1f\n      lt\n      tag_457\n      jumpi\n      0x0100\n      dup1\n      dup4\n      sload\n      div\n      mul\n      dup4\n      mstore\n      swap2\n      0x20\n      add\n      swap2\n      jump(tag_456)\n    tag_457:\n      dup3\n      add\n      swap2\n      swap1\n      0x00\n      mstore\n      keccak256(0x00, 0x20)\n      swap1\n    tag_458:\n      dup2\n      sload\n      dup2\n      mstore\n      swap1\n      0x01\n      add\n      swap1\n      0x20\n      add\n      dup1\n      dup4\n      gt\n      tag_458\n      jumpi\n      dup3\n      swap1\n      sub\n      0x1f\n      and\n      dup3\n      add\n      swap2\n    tag_456:\n      pop\n      pop\n      pop\n      pop\n      pop\n      dup2\n      mstore\n      0x20\n      add\n      0x09\n      dup3\n      add\n      dup1\n      sload\n      tag_459\n      swap1\n      tag_93\n      jump\t// in\n    tag_459:\n      dup1\n      0x1f\n      add\n      0x20\n      dup1\n      swap2\n      div\n      mul\n      0x20\n      add\n      mload(0x40)\n      swap1\n      dup2\n      add\n      0x40\n      mstore\n      dup1\n      swap3\n      swap2\n      swap1\n      dup2\n      dup2\n      mstore\n      0x20\n      add\n      dup3\n      dup1\n      sload\n      tag_460\n      swap1\n      tag_93\n      jump\t// in\n    tag_460:\n      dup1\n      iszero\n      tag_461\n      jumpi\n      dup1\n      0x1f\n      lt\n      tag_462\n      jumpi\n      0x0100\n      dup1\n      dup4\n      sload\n      div\n      mul\n      dup4\n      mstore\n      swap2\n      0x20\n      add\n      swap2\n      jump(tag_461)\n    tag_462:\n      dup3\n      add\n      swap2\n      swap1\n      0x00\n      mstore\n      keccak256(0x00, 0x20)\n      swap1\n    tag_463:\n      dup2\n      sload\n      dup2\n      mstore\n      swap1\n      0x01\n      add\n      swap1\n      0x20\n      add\n      dup1\n      dup4\n      gt\n      tag_463\n      jumpi\n      dup3\n      swap1\n      sub\n      0x1f\n      and\n      dup3\n      add\n      swap2\n    tag_461:\n      pop\n      pop\n      pop\n      pop\n      pop\n      dup2\n      mstore\n      0x20\n      add\n      0x0a\n      dup3\n      add\n      dup1\n      sload\n      tag_464\n      swap1\n      tag_93\n      jump\t// in\n    tag_464:\n      dup1\n      0x1f\n      add\n      0x20\n      dup1\n      swap2\n      div\n      mul\n      0x20\n      add\n      mload(0x40)\n      swap1\n      dup2\n      add\n      0x40\n      mstore\n      dup1\n      swap3\n      swap2\n      swap1\n      dup2\n      dup2\n      mstore\n      0x20\n      add\n      dup3\n      dup1\n      sload\n      tag_465\n      swap1\n      tag_93\n      jump\t// in\n    tag_465:\n      dup1\n      iszero\n      tag_466\n      jumpi\n      dup1\n      0x1f\n      lt\n      tag_467\n      jumpi\n      0x0100\n      dup1\n      dup4\n      sload\n      div\n      mul\n      dup4\n      mstore\n      swap2\n      0x20\n      add\n      swap2\n      jump(tag_466)\n    tag_467:\n      dup3\n      add\n      swap2\n      swap1\n      0x00\n      mstore\n      keccak256(0x00, 0x20)\n      swap1\n    tag_468:\n      dup2\n      sload\n      dup2\n      mstore\n      swap1\n      0x01\n      add\n      swap1\n      0x20\n      add\n      dup1\n      dup4\n      gt\n      tag_468\n      jumpi\n      dup3\n      swap1\n      sub\n      0x1f\n      and\n      dup3\n      add\n      swap2\n    tag_466:\n      pop\n      pop\n      pop\n      swap2\n      dup4\n      mstore\n      pop\n      pop\n      0x0b\n      dup3\n      add\n      sload\n      0x20\n      dup3\n      add\n      mstore\n      0x0c\n      dup3\n      add\n      sload\n      0xff\n      and\n      iszero\n      iszero\n      0x40\n      dup3\n      add\n      mstore\n      0x0d\n      dup3\n      add\n      dup1\n      sload\n      0x60\n      swap1\n      swap3\n      add\n      swap2\n      tag_469\n      swap1\n      tag_93\n      jump\t// in\n    tag_469:\n      dup1\n      0x1f\n      add\n      0x20\n      dup1\n      swap2\n      div\n      mul\n      0x20\n      add\n      mload(0x40)\n      swap1\n      dup2\n      add\n      0x40\n      mstore\n      dup1\n      swap3\n      swap2\n      swap1\n      dup2\n      dup2\n      mstore\n      0x20\n      add\n      dup3\n      dup1\n      sload\n      tag_470\n      swap1\n      tag_93\n      jump\t// in\n    tag_470:\n      dup1\n      iszero\n      tag_471\n      jumpi\n      dup1\n      0x1f\n      lt\n      tag_472\n      jumpi\n      0x0100\n      dup1\n      dup4\n      sload\n      div\n      mul\n      dup4\n      mstore\n      swap2\n      0x20\n      add\n      swap2\n      jump(tag_471)\n    tag_472:\n      dup3\n      add\n      swap2\n      swap1\n      0x00\n      mstore\n      keccak256(0x00, 0x20)\n      swap1\n    tag_473:\n      dup2\n      sload\n      dup2\n      mstore\n      swap1\n      0x01\n      add\n      swap1\n      0x20\n      add\n      dup1\n      dup4\n      gt\n      tag_473\n      jumpi\n      dup3\n      swap1\n      sub\n      0x1f\n      and\n      dup3\n      add\n      swap2\n    tag_471:\n      pop\n      pop\n      pop\n      pop\n      pop\n      dup2\n      mstore\n      0x20\n      add\n      0x0e\n      dup3\n      add\n      dup1\n      sload\n      tag_474\n      swap1\n      tag_93\n      jump\t// in\n    tag_474:\n      dup1\n      0x1f\n      add\n      0x20\n      dup1\n      swap2\n      div\n      mul\n      0x20\n      add\n      mload(0x40)\n      swap1\n      dup2\n      add\n      0x40\n      mstore\n      dup1\n      swap3\n      swap2\n      swap1\n      dup2\n      dup2\n      mstore\n      0x20\n      add\n      dup3\n      dup1\n      sload\n      tag_475\n      swap1\n      tag_93\n      jump\t// in\n    tag_475:\n      dup1\n      iszero\n      tag_476\n      jumpi\n      dup1\n      0x1f\n      lt\n      tag_477\n      jumpi\n      0x0100\n      dup1\n      dup4\n      sload\n      div\n      mul\n      dup4\n      mstore\n      swap2\n      0x20\n      add\n      swap2\n      jump(tag_476)\n    tag_477:\n      dup3\n      add\n      swap2\n      swap1\n      0x00\n      mstore\n      keccak256(0x00, 0x20)\n      swap1\n    tag_478:\n      dup2\n      sload\n      dup2\n      mstore\n      swap1\n      0x01\n      add\n      swap1\n      0x20\n      add\n      dup1\n      dup4\n      gt\n      tag_478\n      jumpi\n      dup3\n      swap1\n      sub\n      0x1f\n      and\n      dup3\n      add\n      swap2\n    tag_476:\n      pop\n      pop\n      pop\n      pop\n      pop\n      dup2\n      mstore\n      0x20\n      add\n      0x0f\n      dup3\n      add\n      dup1\n      sload\n      tag_479\n      swap1\n      tag_93\n      jump\t// in\n    tag_479:\n      dup1\n      0x1f\n      add\n      0x20\n      dup1\n      swap2\n      div\n      mul\n      0x20\n      add\n      mload(0x40)\n      swap1\n      dup2\n      add\n      0x40\n      mstore\n      dup1\n      swap3\n      swap2\n      swap1\n      dup2\n      dup2\n      mstore\n      0x20\n      add\n      dup3\n      dup1\n      sload\n      tag_480\n      swap1\n      tag_93\n      jump\t// in\n    tag_480:\n      dup1\n      iszero\n      tag_481\n      jumpi\n      dup1\n      0x1f\n      lt\n      tag_482\n      jumpi\n      0x0100\n      dup1\n      dup4\n      sload\n      div\n      mul\n      dup4\n      mstore\n      swap2\n      0x20\n      add\n      swap2\n      jump(tag_481)\n    tag_482:\n      dup3\n      add\n      swap2\n      swap1\n      0x00\n      mstore\n      keccak256(0x00, 0x20)\n      swap1\n    tag_483:\n      dup2\n      sload\n      dup2\n      mstore\n      swap1\n      0x01\n      add\n      swap1\n      0x20\n      add\n      dup1\n      dup4\n      gt\n      tag_483\n      jumpi\n      dup3\n      swap1\n      sub\n      0x1f\n      and\n      dup3\n      add\n      swap2\n    tag_481:\n      pop\n      pop\n      pop\n      pop\n      pop\n      dup2\n      mstore\n      0x20\n      add\n      0x10\n      dup3\n      add\n      dup1\n      sload\n      tag_484\n      swap1\n      tag_93\n      jump\t// in\n    tag_484:\n      dup1\n      0x1f\n      add\n      0x20\n      dup1\n      swap2\n      div\n      mul\n      0x20\n      add\n      mload(0x40)\n      swap1\n      dup2\n      add\n      0x40\n      mstore\n      dup1\n      swap3\n      swap2\n      swap1\n      dup2\n      dup2\n      mstore\n      0x20\n      add\n      dup3\n      dup1\n      sload\n      tag_485\n      swap1\n      tag_93\n      jump\t// in\n    tag_485:\n      dup1\n      iszero\n      tag_486\n      jumpi\n      dup1\n      0x1f\n      lt\n      tag_487\n      jumpi\n      0x0100\n      dup1\n      dup4\n      sload\n      div\n      mul\n      dup4\n      mstore\n      swap2\n      0x20\n      add\n      swap2\n      jump(tag_486)\n    tag_487:\n      dup3\n      add\n      swap2\n      swap1\n      0x00\n      mstore\n      keccak256(0x00, 0x20)\n      swap1\n    tag_488:\n      dup2\n      sload\n      dup2\n      mstore\n      swap1\n      0x01\n      add\n      swap1\n      0x20\n      add\n      dup1\n      dup4\n      gt\n      tag_488\n      jumpi\n      dup3\n      swap1\n      sub\n      0x1f\n      and\n      dup3\n      add\n      swap2\n    tag_486:\n      pop\n      pop\n      pop\n      pop\n      pop\n      dup2\n      mstore\n      pop\n      pop\n      dup2\n      mstore\n      pop\n      pop\n      swap2\n      pop\n      pop\n        /* \"contracts/manager/Candel_1s/Candel_1s_Manager.sol\":1350:1650  function getLastKline()... */\n      swap1\n      jump\t// out\n    tag_84:\n      mload(0x40)\n      dup1\n      0x80\n      add\n      0x40\n      mstore\n      dup1\n      0x60\n      dup2\n      mstore\n      0x20\n      add\n      0x00\n      dup2\n      mstore\n      0x20\n      add\n      0x60\n      dup2\n      mstore\n      0x20\n      add\n      tag_489\n      mload(0x40)\n      dup1\n      0x0220\n      add\n      0x40\n      mstore\n      dup1\n      0x00\n      dup2\n      mstore\n      0x20\n      add\n      0x00\n      dup2\n      mstore\n      0x20\n      add\n      0x60\n      dup2\n      mstore\n      0x20\n      add\n      0x60\n      dup2\n      mstore\n      0x20\n      add\n      0x00\n      dup2\n      mstore\n      0x20\n      add\n      0x00\n      dup2\n      mstore\n      0x20\n      add\n      0x60\n      dup2\n      mstore\n      0x20\n      add\n      0x60\n      dup2\n      mstore\n      0x20\n      add\n      0x60\n      dup2\n      mstore\n      0x20\n      add\n      0x60\n      dup2\n      mstore\n      0x20\n      add\n      0x60\n      dup2\n      mstore\n      0x20\n      add\n      0x00\n      dup2\n      mstore\n      0x20\n      add\n      iszero(iszero(0x00))\n      dup2\n      mstore\n      0x20\n      add\n      0x60\n      dup2\n      mstore\n      0x20\n      add\n      0x60\n      dup2\n      mstore\n      0x20\n      add\n      0x60\n      dup2\n      mstore\n      0x20\n      add\n      0x60\n      dup2\n      mstore\n      pop\n      swap1\n      jump\n    tag_489:\n      swap1\n      mstore\n      swap1\n      jump\t// out\n        /* \"#utility.yul\":14:303   */\n    tag_491:\n        /* \"#utility.yul\":56:59   */\n      0x00\n        /* \"#utility.yul\":94:99   */\n      dup2\n        /* \"#utility.yul\":88:100   */\n      mload\n        /* \"#utility.yul\":121:127   */\n      dup1\n        /* \"#utility.yul\":116:119   */\n      dup5\n        /* \"#utility.yul\":109:128   */\n      mstore\n        /* \"#utility.yul\":177:183   */\n      dup1\n        /* \"#utility.yul\":170:174   */\n      0x20\n        /* \"#utility.yul\":163:168   */\n      dup5\n        /* \"#utility.yul\":159:175   */\n      add\n        /* \"#utility.yul\":152:156   */\n      0x20\n        /* \"#utility.yul\":147:150   */\n      dup7\n        /* \"#utility.yul\":143:157   */\n      add\n        /* \"#utility.yul\":137:184   */\n      mcopy\n        /* \"#utility.yul\":229:230   */\n      0x00\n        /* \"#utility.yul\":222:226   */\n      0x20\n        /* \"#utility.yul\":213:219   */\n      dup3\n        /* \"#utility.yul\":208:211   */\n      dup7\n        /* \"#utility.yul\":204:220   */\n      add\n        /* \"#utility.yul\":200:227   */\n      add\n        /* \"#utility.yul\":193:231   */\n      mstore\n        /* \"#utility.yul\":292:296   */\n      0x20\n        /* \"#utility.yul\":285:287   */\n      0x1f\n        /* \"#utility.yul\":281:288   */\n      not\n        /* \"#utility.yul\":276:278   */\n      0x1f\n        /* \"#utility.yul\":268:274   */\n      dup4\n        /* \"#utility.yul\":264:279   */\n      add\n        /* \"#utility.yul\":260:289   */\n      and\n        /* \"#utility.yul\":255:258   */\n      dup6\n        /* \"#utility.yul\":251:290   */\n      add\n        /* \"#utility.yul\":247:297   */\n      add\n        /* \"#utility.yul\":240:297   */\n      swap2\n      pop\n      pop\n        /* \"#utility.yul\":14:303   */\n      swap3\n      swap2\n      pop\n      pop\n      jump\t// out\n        /* \"#utility.yul\":308:528   */\n    tag_15:\n        /* \"#utility.yul\":457:459   */\n      0x20\n        /* \"#utility.yul\":446:455   */\n      dup2\n        /* \"#utility.yul\":439:460   */\n      mstore\n        /* \"#utility.yul\":420:424   */\n      0x00\n        /* \"#utility.yul\":477:522   */\n      tag_505\n        /* \"#utility.yul\":518:520   */\n      0x20\n        /* \"#utility.yul\":507:516   */\n      dup4\n        /* \"#utility.yul\":503:521   */\n      add\n        /* \"#utility.yul\":495:501   */\n      dup5\n        /* \"#utility.yul\":477:522   */\n      tag_491\n      jump\t// in\n    tag_505:\n        /* \"#utility.yul\":469:522   */\n      swap4\n        /* \"#utility.yul\":308:528   */\n      swap3\n      pop\n      pop\n      pop\n      jump\t// out\n        /* \"#utility.yul\":533:924   */\n    tag_18:\n        /* \"#utility.yul\":623:629   */\n      0x00\n        /* \"#utility.yul\":676:678   */\n      0x20\n        /* \"#utility.yul\":664:673   */\n      dup3\n        /* \"#utility.yul\":655:662   */\n      dup5\n        /* \"#utility.yul\":651:674   */\n      sub\n        /* \"#utility.yul\":647:679   */\n      slt\n        /* \"#utility.yul\":644:696   */\n      iszero\n      tag_507\n      jumpi\n        /* \"#utility.yul\":692:693   */\n      0x00\n        /* \"#utility.yul\":689:690   */\n      0x00\n        /* \"#utility.yul\":682:694   */\n      revert\n        /* \"#utility.yul\":644:696   */\n    tag_507:\n        /* \"#utility.yul\":732:741   */\n      dup2\n        /* \"#utility.yul\":719:742   */\n      calldataload\n      sub(shl(0x40, 0x01), 0x01)\n        /* \"#utility.yul\":757:763   */\n      dup2\n        /* \"#utility.yul\":754:784   */\n      gt\n        /* \"#utility.yul\":751:801   */\n      iszero\n      tag_508\n      jumpi\n        /* \"#utility.yul\":797:798   */\n      0x00\n        /* \"#utility.yul\":794:795   */\n      0x00\n        /* \"#utility.yul\":787:799   */\n      revert\n        /* \"#utility.yul\":751:801   */\n    tag_508:\n        /* \"#utility.yul\":820:842   */\n      dup3\n      add\n        /* \"#utility.yul\":876:879   */\n      0x0220\n        /* \"#utility.yul\":858:874   */\n      dup2\n      dup6\n      sub\n        /* \"#utility.yul\":854:880   */\n      slt\n        /* \"#utility.yul\":851:897   */\n      iszero\n      tag_505\n      jumpi\n        /* \"#utility.yul\":893:894   */\n      0x00\n        /* \"#utility.yul\":890:891   */\n      0x00\n        /* \"#utility.yul\":883:895   */\n      revert\n        /* \"#utility.yul\":1025:4041   */\n    tag_493:\n        /* \"#utility.yul\":1082:1085   */\n      0x00\n        /* \"#utility.yul\":1126:1131   */\n      dup2\n        /* \"#utility.yul\":1120:1132   */\n      mload\n        /* \"#utility.yul\":1153:1157   */\n      0x80\n        /* \"#utility.yul\":1148:1151   */\n      dup5\n        /* \"#utility.yul\":1141:1158   */\n      mstore\n        /* \"#utility.yul\":1179:1226   */\n      tag_512\n        /* \"#utility.yul\":1220:1224   */\n      0x80\n        /* \"#utility.yul\":1215:1218   */\n      dup6\n        /* \"#utility.yul\":1211:1225   */\n      add\n        /* \"#utility.yul\":1197:1209   */\n      dup3\n        /* \"#utility.yul\":1179:1226   */\n      tag_491\n      jump\t// in\n    tag_512:\n        /* \"#utility.yul\":1167:1226   */\n      swap1\n      pop\n        /* \"#utility.yul\":1275:1279   */\n      0x20\n        /* \"#utility.yul\":1268:1273   */\n      dup4\n        /* \"#utility.yul\":1264:1280   */\n      add\n        /* \"#utility.yul\":1258:1281   */\n      mload\n        /* \"#utility.yul\":1251:1255   */\n      0x20\n        /* \"#utility.yul\":1246:1249   */\n      dup6\n        /* \"#utility.yul\":1242:1256   */\n      add\n        /* \"#utility.yul\":1235:1282   */\n      mstore\n        /* \"#utility.yul\":1330:1334   */\n      0x40\n        /* \"#utility.yul\":1323:1328   */\n      dup4\n        /* \"#utility.yul\":1319:1335   */\n      add\n        /* \"#utility.yul\":1313:1336   */\n      mload\n        /* \"#utility.yul\":1378:1381   */\n      dup5\n        /* \"#utility.yul\":1372:1376   */\n      dup3\n        /* \"#utility.yul\":1368:1382   */\n      sub\n        /* \"#utility.yul\":1361:1365   */\n      0x40\n        /* \"#utility.yul\":1356:1359   */\n      dup7\n        /* \"#utility.yul\":1352:1366   */\n      add\n        /* \"#utility.yul\":1345:1383   */\n      mstore\n        /* \"#utility.yul\":1406:1445   */\n      tag_513\n        /* \"#utility.yul\":1440:1444   */\n      dup3\n        /* \"#utility.yul\":1424:1438   */\n      dup3\n        /* \"#utility.yul\":1406:1445   */\n      tag_491\n      jump\t// in\n    tag_513:\n        /* \"#utility.yul\":1392:1445   */\n      swap2\n      pop\n      pop\n        /* \"#utility.yul\":1493:1497   */\n      0x60\n        /* \"#utility.yul\":1486:1491   */\n      dup4\n        /* \"#utility.yul\":1482:1498   */\n      add\n        /* \"#utility.yul\":1476:1499   */\n      mload\n        /* \"#utility.yul\":1543:1546   */\n      dup5\n        /* \"#utility.yul\":1535:1541   */\n      dup3\n        /* \"#utility.yul\":1531:1547   */\n      sub\n        /* \"#utility.yul\":1524:1528   */\n      0x60\n        /* \"#utility.yul\":1519:1522   */\n      dup7\n        /* \"#utility.yul\":1515:1529   */\n      add\n        /* \"#utility.yul\":1508:1548   */\n      mstore\n        /* \"#utility.yul\":1578:1592   */\n      dup1\n        /* \"#utility.yul\":1572:1593   */\n      mload\n        /* \"#utility.yul\":1564:1570   */\n      dup3\n        /* \"#utility.yul\":1557:1594   */\n      mstore\n        /* \"#utility.yul\":1655:1659   */\n      0x20\n        /* \"#utility.yul\":1639:1653   */\n      dup2\n        /* \"#utility.yul\":1635:1660   */\n      add\n        /* \"#utility.yul\":1629:1661   */\n      mload\n        /* \"#utility.yul\":1622:1626   */\n      0x20\n        /* \"#utility.yul\":1614:1620   */\n      dup4\n        /* \"#utility.yul\":1610:1627   */\n      add\n        /* \"#utility.yul\":1603:1662   */\n      mstore\n        /* \"#utility.yul\":1719:1723   */\n      0x40\n        /* \"#utility.yul\":1703:1717   */\n      dup2\n        /* \"#utility.yul\":1699:1724   */\n      add\n        /* \"#utility.yul\":1693:1725   */\n      mload\n        /* \"#utility.yul\":1760:1766   */\n      0x0220\n        /* \"#utility.yul\":1753:1757   */\n      0x40\n        /* \"#utility.yul\":1745:1751   */\n      dup5\n        /* \"#utility.yul\":1741:1758   */\n      add\n        /* \"#utility.yul\":1734:1767   */\n      mstore\n        /* \"#utility.yul\":1790:1844   */\n      tag_514\n        /* \"#utility.yul\":1836:1842   */\n      0x0220\n        /* \"#utility.yul\":1828:1834   */\n      dup5\n        /* \"#utility.yul\":1824:1843   */\n      add\n        /* \"#utility.yul\":1808:1822   */\n      dup3\n        /* \"#utility.yul\":1790:1844   */\n      tag_491\n      jump\t// in\n    tag_514:\n        /* \"#utility.yul\":1776:1844   */\n      swap1\n      pop\n        /* \"#utility.yul\":1901:1905   */\n      0x60\n        /* \"#utility.yul\":1885:1899   */\n      dup3\n        /* \"#utility.yul\":1881:1906   */\n      add\n        /* \"#utility.yul\":1875:1907   */\n      mload\n        /* \"#utility.yul\":1954:1960   */\n      dup4\n        /* \"#utility.yul\":1946:1952   */\n      dup3\n        /* \"#utility.yul\":1942:1961   */\n      sub\n        /* \"#utility.yul\":1935:1939   */\n      0x60\n        /* \"#utility.yul\":1927:1933   */\n      dup6\n        /* \"#utility.yul\":1923:1940   */\n      add\n        /* \"#utility.yul\":1916:1962   */\n      mstore\n        /* \"#utility.yul\":1985:2026   */\n      tag_515\n        /* \"#utility.yul\":2019:2025   */\n      dup3\n        /* \"#utility.yul\":2003:2017   */\n      dup3\n        /* \"#utility.yul\":1985:2026   */\n      tag_491\n      jump\t// in\n    tag_515:\n        /* \"#utility.yul\":1971:2026   */\n      swap2\n      pop\n      pop\n        /* \"#utility.yul\":2087:2091   */\n      0x80\n        /* \"#utility.yul\":2071:2085   */\n      dup3\n        /* \"#utility.yul\":2067:2092   */\n      add\n        /* \"#utility.yul\":2061:2093   */\n      mload\n        /* \"#utility.yul\":2054:2058   */\n      0x80\n        /* \"#utility.yul\":2046:2052   */\n      dup5\n        /* \"#utility.yul\":2042:2059   */\n      add\n        /* \"#utility.yul\":2035:2094   */\n      mstore\n        /* \"#utility.yul\":2155:2159   */\n      0xa0\n        /* \"#utility.yul\":2139:2153   */\n      dup3\n        /* \"#utility.yul\":2135:2160   */\n      add\n        /* \"#utility.yul\":2129:2161   */\n      mload\n        /* \"#utility.yul\":2122:2126   */\n      0xa0\n        /* \"#utility.yul\":2114:2120   */\n      dup5\n        /* \"#utility.yul\":2110:2127   */\n      add\n        /* \"#utility.yul\":2103:2162   */\n      mstore\n        /* \"#utility.yul\":2219:2223   */\n      0xc0\n        /* \"#utility.yul\":2203:2217   */\n      dup3\n        /* \"#utility.yul\":2199:2224   */\n      add\n        /* \"#utility.yul\":2193:2225   */\n      mload\n        /* \"#utility.yul\":2272:2278   */\n      dup4\n        /* \"#utility.yul\":2264:2270   */\n      dup3\n        /* \"#utility.yul\":2260:2279   */\n      sub\n        /* \"#utility.yul\":2253:2257   */\n      0xc0\n        /* \"#utility.yul\":2245:2251   */\n      dup6\n        /* \"#utility.yul\":2241:2258   */\n      add\n        /* \"#utility.yul\":2234:2280   */\n      mstore\n        /* \"#utility.yul\":2303:2344   */\n      tag_516\n        /* \"#utility.yul\":2337:2343   */\n      dup3\n        /* \"#utility.yul\":2321:2335   */\n      dup3\n        /* \"#utility.yul\":2303:2344   */\n      tag_491\n      jump\t// in\n    tag_516:\n        /* \"#utility.yul\":2289:2344   */\n      swap2\n      pop\n      pop\n        /* \"#utility.yul\":2401:2405   */\n      0xe0\n        /* \"#utility.yul\":2385:2399   */\n      dup3\n        /* \"#utility.yul\":2381:2406   */\n      add\n        /* \"#utility.yul\":2375:2407   */\n      mload\n        /* \"#utility.yul\":2454:2460   */\n      dup4\n        /* \"#utility.yul\":2446:2452   */\n      dup3\n        /* \"#utility.yul\":2442:2461   */\n      sub\n        /* \"#utility.yul\":2435:2439   */\n      0xe0\n        /* \"#utility.yul\":2427:2433   */\n      dup6\n        /* \"#utility.yul\":2423:2440   */\n      add\n        /* \"#utility.yul\":2416:2462   */\n      mstore\n        /* \"#utility.yul\":2485:2526   */\n      tag_517\n        /* \"#utility.yul\":2519:2525   */\n      dup3\n        /* \"#utility.yul\":2503:2517   */\n      dup3\n        /* \"#utility.yul\":2485:2526   */\n      tag_491\n      jump\t// in\n    tag_517:\n        /* \"#utility.yul\":2471:2526   */\n      swap2\n      pop\n      pop\n        /* \"#utility.yul\":2583:2589   */\n      0x0100\n        /* \"#utility.yul\":2567:2581   */\n      dup3\n        /* \"#utility.yul\":2563:2590   */\n      add\n        /* \"#utility.yul\":2557:2591   */\n      mload\n        /* \"#utility.yul\":2640:2646   */\n      dup4\n        /* \"#utility.yul\":2632:2638   */\n      dup3\n        /* \"#utility.yul\":2628:2647   */\n      sub\n        /* \"#utility.yul\":2619:2625   */\n      0x0100\n        /* \"#utility.yul\":2611:2617   */\n      dup6\n        /* \"#utility.yul\":2607:2626   */\n      add\n        /* \"#utility.yul\":2600:2648   */\n      mstore\n        /* \"#utility.yul\":2671:2712   */\n      tag_518\n        /* \"#utility.yul\":2705:2711   */\n      dup3\n        /* \"#utility.yul\":2689:2703   */\n      dup3\n        /* \"#utility.yul\":2671:2712   */\n      tag_491\n      jump\t// in\n    tag_518:\n        /* \"#utility.yul\":2657:2712   */\n      swap2\n      pop\n      pop\n        /* \"#utility.yul\":2769:2775   */\n      0x0120\n        /* \"#utility.yul\":2753:2767   */\n      dup3\n        /* \"#utility.yul\":2749:2776   */\n      add\n        /* \"#utility.yul\":2743:2777   */\n      mload\n        /* \"#utility.yul\":2826:2832   */\n      dup4\n        /* \"#utility.yul\":2818:2824   */\n      dup3\n        /* \"#utility.yul\":2814:2833   */\n      sub\n        /* \"#utility.yul\":2805:2811   */\n      0x0120\n        /* \"#utility.yul\":2797:2803   */\n      dup6\n        /* \"#utility.yul\":2793:2812   */\n      add\n        /* \"#utility.yul\":2786:2834   */\n      mstore\n        /* \"#utility.yul\":2857:2898   */\n      tag_519\n        /* \"#utility.yul\":2891:2897   */\n      dup3\n        /* \"#utility.yul\":2875:2889   */\n      dup3\n        /* \"#utility.yul\":2857:2898   */\n      tag_491\n      jump\t// in\n    tag_519:\n        /* \"#utility.yul\":2843:2898   */\n      swap2\n      pop\n      pop\n        /* \"#utility.yul\":2955:2961   */\n      0x0140\n        /* \"#utility.yul\":2939:2953   */\n      dup3\n        /* \"#utility.yul\":2935:2962   */\n      add\n        /* \"#utility.yul\":2929:2963   */\n      mload\n        /* \"#utility.yul\":3012:3018   */\n      dup4\n        /* \"#utility.yul\":3004:3010   */\n      dup3\n        /* \"#utility.yul\":3000:3019   */\n      sub\n        /* \"#utility.yul\":2991:2997   */\n      0x0140\n        /* \"#utility.yul\":2983:2989   */\n      dup6\n        /* \"#utility.yul\":2979:2998   */\n      add\n        /* \"#utility.yul\":2972:3020   */\n      mstore\n        /* \"#utility.yul\":3043:3084   */\n      tag_520\n        /* \"#utility.yul\":3077:3083   */\n      dup3\n        /* \"#utility.yul\":3061:3075   */\n      dup3\n        /* \"#utility.yul\":3043:3084   */\n      tag_491\n      jump\t// in\n    tag_520:\n        /* \"#utility.yul\":3029:3084   */\n      swap2\n      pop\n      pop\n        /* \"#utility.yul\":3147:3153   */\n      0x0160\n        /* \"#utility.yul\":3131:3145   */\n      dup3\n        /* \"#utility.yul\":3127:3154   */\n      add\n        /* \"#utility.yul\":3121:3155   */\n      mload\n        /* \"#utility.yul\":3112:3118   */\n      0x0160\n        /* \"#utility.yul\":3104:3110   */\n      dup5\n        /* \"#utility.yul\":3100:3119   */\n      add\n        /* \"#utility.yul\":3093:3156   */\n      mstore\n        /* \"#utility.yul\":3214:3220   */\n      0x0180\n        /* \"#utility.yul\":3198:3212   */\n      dup3\n        /* \"#utility.yul\":3194:3221   */\n      add\n        /* \"#utility.yul\":3188:3222   */\n      mload\n        /* \"#utility.yul\":3231:3284   */\n      tag_521\n        /* \"#utility.yul\":3276:3282   */\n      0x0180\n        /* \"#utility.yul\":3268:3274   */\n      dup6\n        /* \"#utility.yul\":3264:3283   */\n      add\n        /* \"#utility.yul\":3247:3262   */\n      dup3\n        /* \"#utility.yul\":999:1012   */\n      iszero\n        /* \"#utility.yul\":992:1013   */\n      iszero\n        /* \"#utility.yul\":980:1014   */\n      swap1\n      mstore\n        /* \"#utility.yul\":929:1020   */\n      jump\n        /* \"#utility.yul\":3231:3284   */\n    tag_521:\n      pop\n        /* \"#utility.yul\":3342:3348   */\n      0x01a0\n        /* \"#utility.yul\":3326:3340   */\n      dup3\n        /* \"#utility.yul\":3322:3349   */\n      add\n        /* \"#utility.yul\":3316:3350   */\n      mload\n        /* \"#utility.yul\":3399:3405   */\n      dup4\n        /* \"#utility.yul\":3391:3397   */\n      dup3\n        /* \"#utility.yul\":3387:3406   */\n      sub\n        /* \"#utility.yul\":3378:3384   */\n      0x01a0\n        /* \"#utility.yul\":3370:3376   */\n      dup6\n        /* \"#utility.yul\":3366:3385   */\n      add\n        /* \"#utility.yul\":3359:3407   */\n      mstore\n        /* \"#utility.yul\":3430:3472   */\n      tag_522\n        /* \"#utility.yul\":3465:3471   */\n      dup3\n        /* \"#utility.yul\":3448:3463   */\n      dup3\n        /* \"#utility.yul\":3430:3472   */\n      tag_491\n      jump\t// in\n    tag_522:\n        /* \"#utility.yul\":3416:3472   */\n      swap2\n      pop\n      pop\n        /* \"#utility.yul\":3530:3536   */\n      0x01c0\n        /* \"#utility.yul\":3514:3528   */\n      dup3\n        /* \"#utility.yul\":3510:3537   */\n      add\n        /* \"#utility.yul\":3504:3538   */\n      mload\n        /* \"#utility.yul\":3587:3593   */\n      dup4\n        /* \"#utility.yul\":3579:3585   */\n      dup3\n        /* \"#utility.yul\":3575:3594   */\n      sub\n        /* \"#utility.yul\":3566:3572   */\n      0x01c0\n        /* \"#utility.yul\":3558:3564   */\n      dup6\n        /* \"#utility.yul\":3554:3573   */\n      add\n        /* \"#utility.yul\":3547:3595   */\n      mstore\n        /* \"#utility.yul\":3619:3661   */\n      tag_523\n        /* \"#utility.yul\":3654:3660   */\n      dup3\n        /* \"#utility.yul\":3637:3652   */\n      dup3\n        /* \"#utility.yul\":3619:3661   */\n      tag_491\n      jump\t// in\n    tag_523:\n        /* \"#utility.yul\":3604:3661   */\n      swap2\n      pop\n      pop\n        /* \"#utility.yul\":3719:3725   */\n      0x01e0\n        /* \"#utility.yul\":3703:3717   */\n      dup3\n        /* \"#utility.yul\":3699:3726   */\n      add\n        /* \"#utility.yul\":3693:3727   */\n      mload\n        /* \"#utility.yul\":3777:3783   */\n      dup4\n        /* \"#utility.yul\":3768:3775   */\n      dup3\n        /* \"#utility.yul\":3764:3784   */\n      sub\n        /* \"#utility.yul\":3755:3761   */\n      0x01e0\n        /* \"#utility.yul\":3747:3753   */\n      dup6\n        /* \"#utility.yul\":3743:3762   */\n      add\n        /* \"#utility.yul\":3736:3785   */\n      mstore\n        /* \"#utility.yul\":3809:3852   */\n      tag_524\n        /* \"#utility.yul\":3844:3851   */\n      dup3\n        /* \"#utility.yul\":3827:3842   */\n      dup3\n        /* \"#utility.yul\":3809:3852   */\n      tag_491\n      jump\t// in\n    tag_524:\n        /* \"#utility.yul\":3794:3852   */\n      swap2\n      pop\n      pop\n        /* \"#utility.yul\":3910:3916   */\n      0x0200\n        /* \"#utility.yul\":3894:3908   */\n      dup3\n        /* \"#utility.yul\":3890:3917   */\n      add\n        /* \"#utility.yul\":3884:3918   */\n      mload\n        /* \"#utility.yul\":3861:3918   */\n      swap2\n      pop\n        /* \"#utility.yul\":3968:3974   */\n      dup3\n        /* \"#utility.yul\":3959:3966   */\n      dup2\n        /* \"#utility.yul\":3955:3975   */\n      sub\n        /* \"#utility.yul\":3946:3952   */\n      0x0200\n        /* \"#utility.yul\":3938:3944   */\n      dup5\n        /* \"#utility.yul\":3934:3953   */\n      add\n        /* \"#utility.yul\":3927:3976   */\n      mstore\n        /* \"#utility.yul\":3992:4035   */\n      tag_525\n        /* \"#utility.yul\":4027:4034   */\n      dup2\n        /* \"#utility.yul\":4010:4025   */\n      dup4\n        /* \"#utility.yul\":3992:4035   */\n      tag_491\n      jump\t// in\n    tag_525:\n        /* \"#utility.yul\":3985:4035   */\n      swap7\n        /* \"#utility.yul\":1025:4041   */\n      swap6\n      pop\n      pop\n      pop\n      pop\n      pop\n      pop\n      jump\t// out\n        /* \"#utility.yul\":4046:4885   */\n    tag_23:\n        /* \"#utility.yul\":4250:4254   */\n      0x00\n        /* \"#utility.yul\":4298:4300   */\n      0x20\n        /* \"#utility.yul\":4287:4296   */\n      dup3\n        /* \"#utility.yul\":4283:4301   */\n      add\n        /* \"#utility.yul\":4328:4330   */\n      0x20\n        /* \"#utility.yul\":4317:4326   */\n      dup4\n        /* \"#utility.yul\":4310:4331   */\n      mstore\n        /* \"#utility.yul\":4351:4357   */\n      dup1\n        /* \"#utility.yul\":4386:4392   */\n      dup5\n        /* \"#utility.yul\":4380:4393   */\n      mload\n        /* \"#utility.yul\":4417:4423   */\n      dup1\n        /* \"#utility.yul\":4409:4415   */\n      dup4\n        /* \"#utility.yul\":4402:4424   */\n      mstore\n        /* \"#utility.yul\":4455:4457   */\n      0x40\n        /* \"#utility.yul\":4444:4453   */\n      dup6\n        /* \"#utility.yul\":4440:4458   */\n      add\n        /* \"#utility.yul\":4433:4458   */\n      swap2\n      pop\n        /* \"#utility.yul\":4517:4519   */\n      0x40\n        /* \"#utility.yul\":4507:4513   */\n      dup2\n        /* \"#utility.yul\":4504:4505   */\n      0x05\n        /* \"#utility.yul\":4500:4514   */\n      shl\n        /* \"#utility.yul\":4489:4498   */\n      dup7\n        /* \"#utility.yul\":4485:4515   */\n      add\n        /* \"#utility.yul\":4481:4520   */\n      add\n        /* \"#utility.yul\":4467:4520   */\n      swap3\n      pop\n        /* \"#utility.yul\":4555:4557   */\n      0x20\n        /* \"#utility.yul\":4547:4553   */\n      dup7\n        /* \"#utility.yul\":4543:4558   */\n      add\n        /* \"#utility.yul\":4576:4577   */\n      0x00\n        /* \"#utility.yul\":4586:4856   */\n    tag_527:\n        /* \"#utility.yul\":4600:4606   */\n      dup3\n        /* \"#utility.yul\":4597:4598   */\n      dup2\n        /* \"#utility.yul\":4594:4607   */\n      lt\n        /* \"#utility.yul\":4586:4856   */\n      iszero\n      tag_529\n      jumpi\n        /* \"#utility.yul\":4693:4695   */\n      0x3f\n        /* \"#utility.yul\":4689:4696   */\n      not\n        /* \"#utility.yul\":4677:4686   */\n      dup8\n        /* \"#utility.yul\":4669:4675   */\n      dup7\n        /* \"#utility.yul\":4665:4687   */\n      sub\n        /* \"#utility.yul\":4661:4697   */\n      add\n        /* \"#utility.yul\":4656:4659   */\n      dup5\n        /* \"#utility.yul\":4649:4698   */\n      mstore\n        /* \"#utility.yul\":4721:4776   */\n      tag_530\n        /* \"#utility.yul\":4769:4775   */\n      dup6\n        /* \"#utility.yul\":4760:4766   */\n      dup4\n        /* \"#utility.yul\":4754:4767   */\n      mload\n        /* \"#utility.yul\":4721:4776   */\n      tag_493\n      jump\t// in\n    tag_530:\n        /* \"#utility.yul\":4711:4776   */\n      swap5\n      pop\n        /* \"#utility.yul\":4811:4813   */\n      0x20\n        /* \"#utility.yul\":4834:4846   */\n      swap4\n      dup5\n      add\n      swap4\n        /* \"#utility.yul\":4799:4814   */\n      swap2\n      swap1\n      swap2\n      add\n      swap1\n        /* \"#utility.yul\":4622:4623   */\n      0x01\n        /* \"#utility.yul\":4615:4624   */\n      add\n        /* \"#utility.yul\":4586:4856   */\n      jump(tag_527)\n    tag_529:\n      pop\n        /* \"#utility.yul\":4873:4879   */\n      swap3\n      swap7\n        /* \"#utility.yul\":4046:4885   */\n      swap6\n      pop\n      pop\n      pop\n      pop\n      pop\n      pop\n      jump\t// out\n        /* \"#utility.yul\":4890:5116   */\n    tag_26:\n        /* \"#utility.yul\":4949:4955   */\n      0x00\n        /* \"#utility.yul\":5002:5004   */\n      0x20\n        /* \"#utility.yul\":4990:4999   */\n      dup3\n        /* \"#utility.yul\":4981:4988   */\n      dup5\n        /* \"#utility.yul\":4977:5000   */\n      sub\n        /* \"#utility.yul\":4973:5005   */\n      slt\n        /* \"#utility.yul\":4970:5022   */\n      iszero\n      tag_532\n      jumpi\n        /* \"#utility.yul\":5018:5019   */\n      0x00\n        /* \"#utility.yul\":5015:5016   */\n      0x00\n        /* \"#utility.yul\":5008:5020   */\n      revert\n        /* \"#utility.yul\":4970:5022   */\n    tag_532:\n      pop\n        /* \"#utility.yul\":5063:5086   */\n      calldataload\n      swap2\n        /* \"#utility.yul\":4890:5116   */\n      swap1\n      pop\n      jump\t// out\n        /* \"#utility.yul\":5121:5398   */\n    tag_29:\n        /* \"#utility.yul\":5312:5314   */\n      0x20\n        /* \"#utility.yul\":5301:5310   */\n      dup2\n        /* \"#utility.yul\":5294:5315   */\n      mstore\n        /* \"#utility.yul\":5275:5279   */\n      0x00\n        /* \"#utility.yul\":5332:5392   */\n      tag_505\n        /* \"#utility.yul\":5388:5390   */\n      0x20\n        /* \"#utility.yul\":5377:5386   */\n      dup4\n        /* \"#utility.yul\":5373:5391   */\n      add\n        /* \"#utility.yul\":5365:5371   */\n      dup5\n        /* \"#utility.yul\":5332:5392   */\n      tag_493\n      jump\t// in\n        /* \"#utility.yul\":5585:5931   */\n    tag_40:\n        /* \"#utility.yul\":5653:5659   */\n      0x00\n        /* \"#utility.yul\":5661:5667   */\n      0x00\n        /* \"#utility.yul\":5714:5716   */\n      0x40\n        /* \"#utility.yul\":5702:5711   */\n      dup4\n        /* \"#utility.yul\":5693:5700   */\n      dup6\n        /* \"#utility.yul\":5689:5712   */\n      sub\n        /* \"#utility.yul\":5685:5717   */\n      slt\n        /* \"#utility.yul\":5682:5734   */\n      iszero\n      tag_537\n      jumpi\n        /* \"#utility.yul\":5730:5731   */\n      0x00\n        /* \"#utility.yul\":5727:5728   */\n      0x00\n        /* \"#utility.yul\":5720:5732   */\n      revert\n        /* \"#utility.yul\":5682:5734   */\n    tag_537:\n      pop\n      pop\n        /* \"#utility.yul\":5775:5798   */\n      dup1\n      calldataload\n      swap3\n        /* \"#utility.yul\":5895:5897   */\n      0x20\n        /* \"#utility.yul\":5880:5898   */\n      swap1\n      swap2\n      add\n        /* \"#utility.yul\":5867:5899   */\n      calldataload\n      swap2\n      pop\n        /* \"#utility.yul\":5585:5931   */\n      jump\t// out\n        /* \"#utility.yul\":5936:6458   */\n    tag_48:\n        /* \"#utility.yul\":6014:6018   */\n      0x00\n        /* \"#utility.yul\":6020:6026   */\n      0x00\n        /* \"#utility.yul\":6080:6091   */\n      dup4\n        /* \"#utility.yul\":6067:6092   */\n      calldataload\n        /* \"#utility.yul\":6174:6176   */\n      0x1e\n        /* \"#utility.yul\":6170:6177   */\n      not\n        /* \"#utility.yul\":6159:6167   */\n      dup5\n        /* \"#utility.yul\":6143:6157   */\n      calldatasize\n        /* \"#utility.yul\":6139:6168   */\n      sub\n        /* \"#utility.yul\":6135:6178   */\n      add\n        /* \"#utility.yul\":6115:6133   */\n      dup2\n        /* \"#utility.yul\":6111:6179   */\n      slt\n        /* \"#utility.yul\":6101:6197   */\n      tag_539\n      jumpi\n        /* \"#utility.yul\":6193:6194   */\n      0x00\n        /* \"#utility.yul\":6190:6191   */\n      0x00\n        /* \"#utility.yul\":6183:6195   */\n      revert\n        /* \"#utility.yul\":6101:6197   */\n    tag_539:\n        /* \"#utility.yul\":6220:6253   */\n      dup4\n      add\n        /* \"#utility.yul\":6272:6292   */\n      dup1\n      calldataload\n      swap2\n      pop\n      sub(shl(0x40, 0x01), 0x01)\n        /* \"#utility.yul\":6304:6334   */\n      dup3\n      gt\n        /* \"#utility.yul\":6301:6351   */\n      iszero\n      tag_540\n      jumpi\n        /* \"#utility.yul\":6347:6348   */\n      0x00\n        /* \"#utility.yul\":6344:6345   */\n      0x00\n        /* \"#utility.yul\":6337:6349   */\n      revert\n        /* \"#utility.yul\":6301:6351   */\n    tag_540:\n        /* \"#utility.yul\":6380:6384   */\n      0x20\n        /* \"#utility.yul\":6368:6385   */\n      add\n      swap2\n      pop\n        /* \"#utility.yul\":6411:6425   */\n      calldatasize\n        /* \"#utility.yul\":6407:6434   */\n      dup2\n      swap1\n      sub\n        /* \"#utility.yul\":6397:6435   */\n      dup3\n      sgt\n        /* \"#utility.yul\":6394:6452   */\n      iszero\n      tag_541\n      jumpi\n        /* \"#utility.yul\":6448:6449   */\n      0x00\n        /* \"#utility.yul\":6445:6446   */\n      0x00\n        /* \"#utility.yul\":6438:6450   */\n      revert\n        /* \"#utility.yul\":6394:6452   */\n    tag_541:\n        /* \"#utility.yul\":5936:6458   */\n      swap3\n      pop\n      swap3\n      swap1\n      pop\n      jump\t// out\n        /* \"#utility.yul\":6463:6734   */\n    tag_50:\n        /* \"#utility.yul\":6646:6652   */\n      dup2\n        /* \"#utility.yul\":6638:6644   */\n      dup4\n        /* \"#utility.yul\":6633:6636   */\n      dup3\n        /* \"#utility.yul\":6620:6653   */\n      calldatacopy\n        /* \"#utility.yul\":6602:6605   */\n      0x00\n        /* \"#utility.yul\":6672:6688   */\n      swap2\n      add\n        /* \"#utility.yul\":6697:6710   */\n      swap1\n      dup2\n      mstore\n        /* \"#utility.yul\":6672:6688   */\n      swap2\n        /* \"#utility.yul\":6463:6734   */\n      swap1\n      pop\n      jump\t// out\n        /* \"#utility.yul\":7087:7214   */\n    tag_80:\n        /* \"#utility.yul\":7148:7158   */\n      0x4e487b71\n        /* \"#utility.yul\":7143:7146   */\n      0xe0\n        /* \"#utility.yul\":7139:7159   */\n      shl\n        /* \"#utility.yul\":7136:7137   */\n      0x00\n        /* \"#utility.yul\":7129:7160   */\n      mstore\n        /* \"#utility.yul\":7179:7183   */\n      0x41\n        /* \"#utility.yul\":7176:7177   */\n      0x04\n        /* \"#utility.yul\":7169:7184   */\n      mstore\n        /* \"#utility.yul\":7203:7207   */\n      0x24\n        /* \"#utility.yul\":7200:7201   */\n      0x00\n        /* \"#utility.yul\":7193:7208   */\n      revert\n        /* \"#utility.yul\":7219:7469   */\n    tag_494:\n        /* \"#utility.yul\":7286:7288   */\n      0x40\n        /* \"#utility.yul\":7280:7289   */\n      mload\n        /* \"#utility.yul\":7328:7334   */\n      0x0220\n        /* \"#utility.yul\":7316:7335   */\n      dup2\n      add\n      sub(shl(0x40, 0x01), 0x01)\n        /* \"#utility.yul\":7350:7384   */\n      dup2\n      gt\n        /* \"#utility.yul\":7386:7408   */\n      dup3\n      dup3\n      lt\n        /* \"#utility.yul\":7347:7409   */\n      or\n        /* \"#utility.yul\":7344:7432   */\n      iszero\n      tag_547\n      jumpi\n        /* \"#utility.yul\":7412:7430   */\n      tag_547\n      tag_80\n      jump\t// in\n    tag_547:\n        /* \"#utility.yul\":7448:7450   */\n      0x40\n        /* \"#utility.yul\":7441:7463   */\n      mstore\n        /* \"#utility.yul\":7219:7469   */\n      swap1\n      jump\t// out\n        /* \"#utility.yul\":7474:8220   */\n    tag_495:\n        /* \"#utility.yul\":7517:7522   */\n      0x00\n        /* \"#utility.yul\":7570:7573   */\n      dup3\n        /* \"#utility.yul\":7563:7567   */\n      0x1f\n        /* \"#utility.yul\":7555:7561   */\n      dup4\n        /* \"#utility.yul\":7551:7568   */\n      add\n        /* \"#utility.yul\":7547:7574   */\n      slt\n        /* \"#utility.yul\":7537:7592   */\n      tag_549\n      jumpi\n        /* \"#utility.yul\":7588:7589   */\n      0x00\n        /* \"#utility.yul\":7585:7586   */\n      0x00\n        /* \"#utility.yul\":7578:7590   */\n      revert\n        /* \"#utility.yul\":7537:7592   */\n    tag_549:\n        /* \"#utility.yul\":7628:7634   */\n      dup2\n        /* \"#utility.yul\":7615:7635   */\n      calldataload\n      sub(shl(0x40, 0x01), 0x01)\n        /* \"#utility.yul\":7650:7656   */\n      dup2\n        /* \"#utility.yul\":7647:7677   */\n      gt\n        /* \"#utility.yul\":7644:7700   */\n      iszero\n      tag_551\n      jumpi\n        /* \"#utility.yul\":7680:7698   */\n      tag_551\n      tag_80\n      jump\t// in\n    tag_551:\n        /* \"#utility.yul\":7749:7751   */\n      0x40\n        /* \"#utility.yul\":7743:7752   */\n      mload\n        /* \"#utility.yul\":7841:7843   */\n      0x1f\n        /* \"#utility.yul\":7803:7820   */\n      dup3\n      add\n      not(0x1f)\n        /* \"#utility.yul\":7799:7830   */\n      swap1\n      dup2\n      and\n        /* \"#utility.yul\":7832:7834   */\n      0x3f\n        /* \"#utility.yul\":7795:7835   */\n      add\n        /* \"#utility.yul\":7791:7845   */\n      and\n        /* \"#utility.yul\":7779:7846   */\n      dup2\n      add\n      sub(shl(0x40, 0x01), 0x01)\n        /* \"#utility.yul\":7861:7895   */\n      dup2\n      gt\n        /* \"#utility.yul\":7897:7919   */\n      dup3\n      dup3\n      lt\n        /* \"#utility.yul\":7858:7920   */\n      or\n        /* \"#utility.yul\":7855:7943   */\n      iszero\n      tag_553\n      jumpi\n        /* \"#utility.yul\":7923:7941   */\n      tag_553\n      tag_80\n      jump\t// in\n    tag_553:\n        /* \"#utility.yul\":7959:7961   */\n      0x40\n        /* \"#utility.yul\":7952:7974   */\n      mstore\n        /* \"#utility.yul\":7983:8005   */\n      dup2\n      dup2\n      mstore\n        /* \"#utility.yul\":8024:8043   */\n      dup4\n      dup3\n      add\n        /* \"#utility.yul\":8045:8049   */\n      0x20\n        /* \"#utility.yul\":8020:8050   */\n      add\n        /* \"#utility.yul\":8017:8056   */\n      dup6\n      lt\n        /* \"#utility.yul\":8014:8073   */\n      iszero\n      tag_554\n      jumpi\n        /* \"#utility.yul\":8069:8070   */\n      0x00\n        /* \"#utility.yul\":8066:8067   */\n      0x00\n        /* \"#utility.yul\":8059:8071   */\n      revert\n        /* \"#utility.yul\":8014:8073   */\n    tag_554:\n        /* \"#utility.yul\":8133:8139   */\n      dup2\n        /* \"#utility.yul\":8126:8130   */\n      0x20\n        /* \"#utility.yul\":8118:8124   */\n      dup6\n        /* \"#utility.yul\":8114:8131   */\n      add\n        /* \"#utility.yul\":8107:8111   */\n      0x20\n        /* \"#utility.yul\":8099:8105   */\n      dup4\n        /* \"#utility.yul\":8095:8112   */\n      add\n        /* \"#utility.yul\":8082:8140   */\n      calldatacopy\n        /* \"#utility.yul\":8188:8189   */\n      0x00\n        /* \"#utility.yul\":8160:8179   */\n      swap2\n      dup2\n      add\n        /* \"#utility.yul\":8181:8185   */\n      0x20\n        /* \"#utility.yul\":8156:8186   */\n      add\n        /* \"#utility.yul\":8149:8190   */\n      swap2\n      swap1\n      swap2\n      mstore\n        /* \"#utility.yul\":8164:8170   */\n      swap4\n        /* \"#utility.yul\":7474:8220   */\n      swap3\n      pop\n      pop\n      pop\n      jump\t// out\n        /* \"#utility.yul\":8225:8385   */\n    tag_496:\n        /* \"#utility.yul\":8290:8310   */\n      dup1\n      calldataload\n        /* \"#utility.yul\":8346:8359   */\n      dup1\n      iszero\n        /* \"#utility.yul\":8339:8360   */\n      iszero\n        /* \"#utility.yul\":8329:8361   */\n      dup2\n      eq\n        /* \"#utility.yul\":8319:8379   */\n      tag_556\n      jumpi\n        /* \"#utility.yul\":8375:8376   */\n      0x00\n        /* \"#utility.yul\":8372:8373   */\n      0x00\n        /* \"#utility.yul\":8365:8377   */\n      revert\n        /* \"#utility.yul\":8319:8379   */\n    tag_556:\n        /* \"#utility.yul\":8225:8385   */\n      swap2\n      swap1\n      pop\n      jump\t// out\n        /* \"#utility.yul\":8390:11549   */\n    tag_56:\n        /* \"#utility.yul\":8500:8509   */\n      0x00\n        /* \"#utility.yul\":8559:8565   */\n      0x0220\n        /* \"#utility.yul\":8551:8556   */\n      dup3\n        /* \"#utility.yul\":8535:8549   */\n      calldatasize\n        /* \"#utility.yul\":8531:8557   */\n      sub\n        /* \"#utility.yul\":8527:8566   */\n      slt\n        /* \"#utility.yul\":8524:8583   */\n      iszero\n      tag_558\n      jumpi\n        /* \"#utility.yul\":8579:8580   */\n      0x00\n        /* \"#utility.yul\":8576:8577   */\n      0x00\n        /* \"#utility.yul\":8569:8581   */\n      revert\n        /* \"#utility.yul\":8524:8583   */\n    tag_558:\n        /* \"#utility.yul\":8607:8624   */\n      tag_559\n      tag_494\n      jump\t// in\n    tag_559:\n        /* \"#utility.yul\":8669:8688   */\n      dup3\n      calldataload\n        /* \"#utility.yul\":8697:8721   */\n      dup2\n      mstore\n        /* \"#utility.yul\":8790:8792   */\n      0x20\n        /* \"#utility.yul\":8779:8793   */\n      dup1\n      dup5\n      add\n        /* \"#utility.yul\":8766:8794   */\n      calldataload\n        /* \"#utility.yul\":8810:8826   */\n      swap1\n      dup3\n      add\n        /* \"#utility.yul\":8803:8836   */\n      mstore\n        /* \"#utility.yul\":8883:8885   */\n      0x40\n        /* \"#utility.yul\":8872:8886   */\n      dup4\n      add\n        /* \"#utility.yul\":8859:8887   */\n      calldataload\n      sub(shl(0x40, 0x01), 0x01)\n        /* \"#utility.yul\":8899:8929   */\n      dup2\n      gt\n        /* \"#utility.yul\":8896:8946   */\n      iszero\n      tag_560\n      jumpi\n        /* \"#utility.yul\":8942:8943   */\n      0x00\n        /* \"#utility.yul\":8939:8940   */\n      0x00\n        /* \"#utility.yul\":8932:8944   */\n      revert\n        /* \"#utility.yul\":8896:8946   */\n    tag_560:\n        /* \"#utility.yul\":8980:9033   */\n      tag_561\n        /* \"#utility.yul\":9018:9032   */\n      calldatasize\n        /* \"#utility.yul\":9009:9015   */\n      dup3\n        /* \"#utility.yul\":9002:9007   */\n      dup7\n        /* \"#utility.yul\":8998:9016   */\n      add\n        /* \"#utility.yul\":8980:9033   */\n      tag_495\n      jump\t// in\n    tag_561:\n        /* \"#utility.yul\":8975:8977   */\n      0x40\n        /* \"#utility.yul\":8966:8973   */\n      dup4\n        /* \"#utility.yul\":8962:8978   */\n      add\n        /* \"#utility.yul\":8955:9034   */\n      mstore\n      pop\n        /* \"#utility.yul\":9083:9085   */\n      0x60\n        /* \"#utility.yul\":9076:9081   */\n      dup4\n        /* \"#utility.yul\":9072:9086   */\n      add\n        /* \"#utility.yul\":9059:9087   */\n      calldataload\n      sub(shl(0x40, 0x01), 0x01)\n        /* \"#utility.yul\":9102:9110   */\n      dup2\n        /* \"#utility.yul\":9099:9131   */\n      gt\n        /* \"#utility.yul\":9096:9148   */\n      iszero\n      tag_562\n      jumpi\n        /* \"#utility.yul\":9144:9145   */\n      0x00\n        /* \"#utility.yul\":9141:9142   */\n      0x00\n        /* \"#utility.yul\":9134:9146   */\n      revert\n        /* \"#utility.yul\":9096:9148   */\n    tag_562:\n        /* \"#utility.yul\":9182:9237   */\n      tag_563\n        /* \"#utility.yul\":9222:9236   */\n      calldatasize\n        /* \"#utility.yul\":9211:9219   */\n      dup3\n        /* \"#utility.yul\":9204:9209   */\n      dup7\n        /* \"#utility.yul\":9200:9220   */\n      add\n        /* \"#utility.yul\":9182:9237   */\n      tag_495\n      jump\t// in\n    tag_563:\n        /* \"#utility.yul\":9177:9179   */\n      0x60\n        /* \"#utility.yul\":9164:9180   */\n      dup4\n      add\n        /* \"#utility.yul\":9157:9238   */\n      mstore\n      pop\n        /* \"#utility.yul\":9307:9310   */\n      0x80\n        /* \"#utility.yul\":9296:9311   */\n      dup4\n      dup2\n      add\n        /* \"#utility.yul\":9283:9312   */\n      calldataload\n        /* \"#utility.yul\":9328:9345   */\n      swap1\n      dup3\n      add\n        /* \"#utility.yul\":9321:9355   */\n      mstore\n        /* \"#utility.yul\":9424:9427   */\n      0xa0\n        /* \"#utility.yul\":9413:9428   */\n      dup1\n      dup5\n      add\n        /* \"#utility.yul\":9400:9429   */\n      calldataload\n        /* \"#utility.yul\":9445:9462   */\n      swap1\n      dup3\n      add\n        /* \"#utility.yul\":9438:9472   */\n      mstore\n        /* \"#utility.yul\":9521:9524   */\n      0xc0\n        /* \"#utility.yul\":9510:9525   */\n      dup4\n      add\n        /* \"#utility.yul\":9497:9526   */\n      calldataload\n      sub(shl(0x40, 0x01), 0x01)\n        /* \"#utility.yul\":9538:9570   */\n      dup2\n      gt\n        /* \"#utility.yul\":9535:9587   */\n      iszero\n      tag_564\n      jumpi\n        /* \"#utility.yul\":9583:9584   */\n      0x00\n        /* \"#utility.yul\":9580:9581   */\n      0x00\n        /* \"#utility.yul\":9573:9585   */\n      revert\n        /* \"#utility.yul\":9535:9587   */\n    tag_564:\n        /* \"#utility.yul\":9622:9677   */\n      tag_565\n        /* \"#utility.yul\":9662:9676   */\n      calldatasize\n        /* \"#utility.yul\":9651:9659   */\n      dup3\n        /* \"#utility.yul\":9644:9649   */\n      dup7\n        /* \"#utility.yul\":9640:9660   */\n      add\n        /* \"#utility.yul\":9622:9677   */\n      tag_495\n      jump\t// in\n    tag_565:\n        /* \"#utility.yul\":9616:9619   */\n      0xc0\n        /* \"#utility.yul\":9607:9614   */\n      dup4\n        /* \"#utility.yul\":9603:9620   */\n      add\n        /* \"#utility.yul\":9596:9678   */\n      mstore\n      pop\n        /* \"#utility.yul\":9727:9730   */\n      0xe0\n        /* \"#utility.yul\":9720:9725   */\n      dup4\n        /* \"#utility.yul\":9716:9731   */\n      add\n        /* \"#utility.yul\":9703:9732   */\n      calldataload\n      sub(shl(0x40, 0x01), 0x01)\n        /* \"#utility.yul\":9747:9755   */\n      dup2\n        /* \"#utility.yul\":9744:9776   */\n      gt\n        /* \"#utility.yul\":9741:9793   */\n      iszero\n      tag_566\n      jumpi\n        /* \"#utility.yul\":9789:9790   */\n      0x00\n        /* \"#utility.yul\":9786:9787   */\n      0x00\n        /* \"#utility.yul\":9779:9791   */\n      revert\n        /* \"#utility.yul\":9741:9793   */\n    tag_566:\n        /* \"#utility.yul\":9828:9883   */\n      tag_567\n        /* \"#utility.yul\":9868:9882   */\n      calldatasize\n        /* \"#utility.yul\":9857:9865   */\n      dup3\n        /* \"#utility.yul\":9850:9855   */\n      dup7\n        /* \"#utility.yul\":9846:9866   */\n      add\n        /* \"#utility.yul\":9828:9883   */\n      tag_495\n      jump\t// in\n    tag_567:\n        /* \"#utility.yul\":9822:9825   */\n      0xe0\n        /* \"#utility.yul\":9813:9820   */\n      dup4\n        /* \"#utility.yul\":9809:9826   */\n      add\n        /* \"#utility.yul\":9802:9884   */\n      mstore\n      pop\n        /* \"#utility.yul\":9933:9936   */\n      0x0100\n        /* \"#utility.yul\":9926:9931   */\n      dup4\n        /* \"#utility.yul\":9922:9937   */\n      add\n        /* \"#utility.yul\":9909:9938   */\n      calldataload\n      sub(shl(0x40, 0x01), 0x01)\n        /* \"#utility.yul\":9953:9961   */\n      dup2\n        /* \"#utility.yul\":9950:9982   */\n      gt\n        /* \"#utility.yul\":9947:9999   */\n      iszero\n      tag_568\n      jumpi\n        /* \"#utility.yul\":9995:9996   */\n      0x00\n        /* \"#utility.yul\":9992:9993   */\n      0x00\n        /* \"#utility.yul\":9985:9997   */\n      revert\n        /* \"#utility.yul\":9947:9999   */\n    tag_568:\n        /* \"#utility.yul\":10034:10089   */\n      tag_569\n        /* \"#utility.yul\":10074:10088   */\n      calldatasize\n        /* \"#utility.yul\":10063:10071   */\n      dup3\n        /* \"#utility.yul\":10056:10061   */\n      dup7\n        /* \"#utility.yul\":10052:10072   */\n      add\n        /* \"#utility.yul\":10034:10089   */\n      tag_495\n      jump\t// in\n    tag_569:\n        /* \"#utility.yul\":10028:10031   */\n      0x0100\n        /* \"#utility.yul\":10019:10026   */\n      dup4\n        /* \"#utility.yul\":10015:10032   */\n      add\n        /* \"#utility.yul\":10008:10090   */\n      mstore\n      pop\n        /* \"#utility.yul\":10139:10142   */\n      0x0120\n        /* \"#utility.yul\":10132:10137   */\n      dup4\n        /* \"#utility.yul\":10128:10143   */\n      add\n        /* \"#utility.yul\":10115:10144   */\n      calldataload\n      sub(shl(0x40, 0x01), 0x01)\n        /* \"#utility.yul\":10159:10167   */\n      dup2\n        /* \"#utility.yul\":10156:10188   */\n      gt\n        /* \"#utility.yul\":10153:10205   */\n      iszero\n      tag_570\n      jumpi\n        /* \"#utility.yul\":10201:10202   */\n      0x00\n        /* \"#utility.yul\":10198:10199   */\n      0x00\n        /* \"#utility.yul\":10191:10203   */\n      revert\n        /* \"#utility.yul\":10153:10205   */\n    tag_570:\n        /* \"#utility.yul\":10240:10295   */\n      tag_571\n        /* \"#utility.yul\":10280:10294   */\n      calldatasize\n        /* \"#utility.yul\":10269:10277   */\n      dup3\n        /* \"#utility.yul\":10262:10267   */\n      dup7\n        /* \"#utility.yul\":10258:10278   */\n      add\n        /* \"#utility.yul\":10240:10295   */\n      tag_495\n      jump\t// in\n    tag_571:\n        /* \"#utility.yul\":10234:10237   */\n      0x0120\n        /* \"#utility.yul\":10225:10232   */\n      dup4\n        /* \"#utility.yul\":10221:10238   */\n      add\n        /* \"#utility.yul\":10214:10296   */\n      mstore\n      pop\n        /* \"#utility.yul\":10345:10348   */\n      0x0140\n        /* \"#utility.yul\":10338:10343   */\n      dup4\n        /* \"#utility.yul\":10334:10349   */\n      add\n        /* \"#utility.yul\":10321:10350   */\n      calldataload\n      sub(shl(0x40, 0x01), 0x01)\n        /* \"#utility.yul\":10365:10373   */\n      dup2\n        /* \"#utility.yul\":10362:10394   */\n      gt\n        /* \"#utility.yul\":10359:10411   */\n      iszero\n      tag_572\n      jumpi\n        /* \"#utility.yul\":10407:10408   */\n      0x00\n        /* \"#utility.yul\":10404:10405   */\n      0x00\n        /* \"#utility.yul\":10397:10409   */\n      revert\n        /* \"#utility.yul\":10359:10411   */\n    tag_572:\n        /* \"#utility.yul\":10446:10501   */\n      tag_573\n        /* \"#utility.yul\":10486:10500   */\n      calldatasize\n        /* \"#utility.yul\":10475:10483   */\n      dup3\n        /* \"#utility.yul\":10468:10473   */\n      dup7\n        /* \"#utility.yul\":10464:10484   */\n      add\n        /* \"#utility.yul\":10446:10501   */\n      tag_495\n      jump\t// in\n    tag_573:\n        /* \"#utility.yul\":10440:10443   */\n      0x0140\n        /* \"#utility.yul\":10427:10444   */\n      dup4\n      add\n        /* \"#utility.yul\":10420:10502   */\n      mstore\n      pop\n        /* \"#utility.yul\":10571:10574   */\n      0x0160\n        /* \"#utility.yul\":10560:10575   */\n      dup4\n      dup2\n      add\n        /* \"#utility.yul\":10547:10576   */\n      calldataload\n        /* \"#utility.yul\":10592:10609   */\n      swap1\n      dup3\n      add\n        /* \"#utility.yul\":10585:10619   */\n      mstore\n        /* \"#utility.yul\":10654:10686   */\n      tag_574\n        /* \"#utility.yul\":10681:10684   */\n      0x0180\n        /* \"#utility.yul\":10670:10685   */\n      dup5\n      add\n        /* \"#utility.yul\":10654:10686   */\n      tag_496\n      jump\t// in\n    tag_574:\n        /* \"#utility.yul\":10648:10651   */\n      0x0180\n        /* \"#utility.yul\":10639:10646   */\n      dup3\n        /* \"#utility.yul\":10635:10652   */\n      add\n        /* \"#utility.yul\":10628:10687   */\n      mstore\n        /* \"#utility.yul\":10736:10739   */\n      0x01a0\n        /* \"#utility.yul\":10729:10734   */\n      dup4\n        /* \"#utility.yul\":10725:10740   */\n      add\n        /* \"#utility.yul\":10712:10741   */\n      calldataload\n      sub(shl(0x40, 0x01), 0x01)\n        /* \"#utility.yul\":10756:10764   */\n      dup2\n        /* \"#utility.yul\":10753:10785   */\n      gt\n        /* \"#utility.yul\":10750:10802   */\n      iszero\n      tag_575\n      jumpi\n        /* \"#utility.yul\":10798:10799   */\n      0x00\n        /* \"#utility.yul\":10795:10796   */\n      0x00\n        /* \"#utility.yul\":10788:10800   */\n      revert\n        /* \"#utility.yul\":10750:10802   */\n    tag_575:\n        /* \"#utility.yul\":10837:10892   */\n      tag_576\n        /* \"#utility.yul\":10877:10891   */\n      calldatasize\n        /* \"#utility.yul\":10866:10874   */\n      dup3\n        /* \"#utility.yul\":10859:10864   */\n      dup7\n        /* \"#utility.yul\":10855:10875   */\n      add\n        /* \"#utility.yul\":10837:10892   */\n      tag_495\n      jump\t// in\n    tag_576:\n        /* \"#utility.yul\":10831:10834   */\n      0x01a0\n        /* \"#utility.yul\":10822:10829   */\n      dup4\n        /* \"#utility.yul\":10818:10835   */\n      add\n        /* \"#utility.yul\":10811:10893   */\n      mstore\n      pop\n        /* \"#utility.yul\":10942:10945   */\n      0x01c0\n        /* \"#utility.yul\":10935:10940   */\n      dup4\n        /* \"#utility.yul\":10931:10946   */\n      add\n        /* \"#utility.yul\":10918:10947   */\n      calldataload\n      sub(shl(0x40, 0x01), 0x01)\n        /* \"#utility.yul\":10962:10970   */\n      dup2\n        /* \"#utility.yul\":10959:10991   */\n      gt\n        /* \"#utility.yul\":10956:11008   */\n      iszero\n      tag_577\n      jumpi\n        /* \"#utility.yul\":11004:11005   */\n      0x00\n        /* \"#utility.yul\":11001:11002   */\n      0x00\n        /* \"#utility.yul\":10994:11006   */\n      revert\n        /* \"#utility.yul\":10956:11008   */\n    tag_577:\n        /* \"#utility.yul\":11043:11098   */\n      tag_578\n        /* \"#utility.yul\":11083:11097   */\n      calldatasize\n        /* \"#utility.yul\":11072:11080   */\n      dup3\n        /* \"#utility.yul\":11065:11070   */\n      dup7\n        /* \"#utility.yul\":11061:11081   */\n      add\n        /* \"#utility.yul\":11043:11098   */\n      tag_495\n      jump\t// in\n    tag_578:\n        /* \"#utility.yul\":11037:11040   */\n      0x01c0\n        /* \"#utility.yul\":11028:11035   */\n      dup4\n        /* \"#utility.yul\":11024:11041   */\n      add\n        /* \"#utility.yul\":11017:11099   */\n      mstore\n      pop\n        /* \"#utility.yul\":11148:11151   */\n      0x01e0\n        /* \"#utility.yul\":11141:11146   */\n      dup4\n        /* \"#utility.yul\":11137:11152   */\n      add\n        /* \"#utility.yul\":11124:11153   */\n      calldataload\n      sub(shl(0x40, 0x01), 0x01)\n        /* \"#utility.yul\":11168:11176   */\n      dup2\n        /* \"#utility.yul\":11165:11197   */\n      gt\n        /* \"#utility.yul\":11162:11214   */\n      iszero\n      tag_579\n      jumpi\n        /* \"#utility.yul\":11210:11211   */\n      0x00\n        /* \"#utility.yul\":11207:11208   */\n      0x00\n        /* \"#utility.yul\":11200:11212   */\n      revert\n        /* \"#utility.yul\":11162:11214   */\n    tag_579:\n        /* \"#utility.yul\":11249:11304   */\n      tag_580\n        /* \"#utility.yul\":11289:11303   */\n      calldatasize\n        /* \"#utility.yul\":11278:11286   */\n      dup3\n        /* \"#utility.yul\":11271:11276   */\n      dup7\n        /* \"#utility.yul\":11267:11287   */\n      add\n        /* \"#utility.yul\":11249:11304   */\n      tag_495\n      jump\t// in\n    tag_580:\n        /* \"#utility.yul\":11243:11246   */\n      0x01e0\n        /* \"#utility.yul\":11234:11241   */\n      dup4\n        /* \"#utility.yul\":11230:11247   */\n      add\n        /* \"#utility.yul\":11223:11305   */\n      mstore\n      pop\n        /* \"#utility.yul\":11355:11358   */\n      0x0200\n        /* \"#utility.yul\":11348:11353   */\n      dup4\n        /* \"#utility.yul\":11344:11359   */\n      add\n        /* \"#utility.yul\":11331:11360   */\n      calldataload\n      sub(shl(0x40, 0x01), 0x01)\n        /* \"#utility.yul\":11375:11384   */\n      dup2\n        /* \"#utility.yul\":11372:11405   */\n      gt\n        /* \"#utility.yul\":11369:11422   */\n      iszero\n      tag_581\n      jumpi\n        /* \"#utility.yul\":11418:11419   */\n      0x00\n        /* \"#utility.yul\":11415:11416   */\n      0x00\n        /* \"#utility.yul\":11408:11420   */\n      revert\n        /* \"#utility.yul\":11369:11422   */\n    tag_581:\n        /* \"#utility.yul\":11457:11513   */\n      tag_582\n        /* \"#utility.yul\":11498:11512   */\n      calldatasize\n        /* \"#utility.yul\":11486:11495   */\n      dup3\n        /* \"#utility.yul\":11479:11484   */\n      dup7\n        /* \"#utility.yul\":11475:11496   */\n      add\n        /* \"#utility.yul\":11457:11513   */\n      tag_495\n      jump\t// in\n    tag_582:\n        /* \"#utility.yul\":11451:11454   */\n      0x0200\n        /* \"#utility.yul\":11438:11455   */\n      dup4\n      add\n        /* \"#utility.yul\":11431:11514   */\n      mstore\n      pop\n        /* \"#utility.yul\":11442:11449   */\n      swap3\n        /* \"#utility.yul\":8390:11549   */\n      swap2\n      pop\n      pop\n      jump\t// out\n        /* \"#utility.yul\":11554:11934   */\n    tag_93:\n        /* \"#utility.yul\":11633:11634   */\n      0x01\n        /* \"#utility.yul\":11629:11641   */\n      dup2\n      dup2\n      shr\n      swap1\n        /* \"#utility.yul\":11676:11688   */\n      dup3\n      and\n      dup1\n        /* \"#utility.yul\":11697:11758   */\n      tag_584\n      jumpi\n        /* \"#utility.yul\":11751:11755   */\n      0x7f\n        /* \"#utility.yul\":11743:11749   */\n      dup3\n        /* \"#utility.yul\":11739:11756   */\n      and\n        /* \"#utility.yul\":11729:11756   */\n      swap2\n      pop\n        /* \"#utility.yul\":11697:11758   */\n    tag_584:\n        /* \"#utility.yul\":11804:11806   */\n      0x20\n        /* \"#utility.yul\":11796:11802   */\n      dup3\n        /* \"#utility.yul\":11793:11807   */\n      lt\n        /* \"#utility.yul\":11773:11791   */\n      dup2\n        /* \"#utility.yul\":11770:11808   */\n      sub\n        /* \"#utility.yul\":11767:11928   */\n      tag_86\n      jumpi\n        /* \"#utility.yul\":11850:11860   */\n      0x4e487b71\n        /* \"#utility.yul\":11845:11848   */\n      0xe0\n        /* \"#utility.yul\":11841:11861   */\n      shl\n        /* \"#utility.yul\":11838:11839   */\n      0x00\n        /* \"#utility.yul\":11831:11862   */\n      mstore\n        /* \"#utility.yul\":11885:11889   */\n      0x22\n        /* \"#utility.yul\":11882:11883   */\n      0x04\n        /* \"#utility.yul\":11875:11890   */\n      mstore\n        /* \"#utility.yul\":11913:11917   */\n      0x24\n        /* \"#utility.yul\":11910:11911   */\n      0x00\n        /* \"#utility.yul\":11903:11918   */\n      revert\n        /* \"#utility.yul\":12065:12583   */\n    tag_498:\n        /* \"#utility.yul\":12167:12169   */\n      0x1f\n        /* \"#utility.yul\":12162:12165   */\n      dup3\n        /* \"#utility.yul\":12159:12170   */\n      gt\n        /* \"#utility.yul\":12156:12577   */\n      iszero\n      tag_588\n      jumpi\n        /* \"#utility.yul\":12203:12208   */\n      dup1\n        /* \"#utility.yul\":12200:12201   */\n      0x00\n        /* \"#utility.yul\":12193:12209   */\n      mstore\n        /* \"#utility.yul\":12247:12251   */\n      0x20\n        /* \"#utility.yul\":12244:12245   */\n      0x00\n        /* \"#utility.yul\":12234:12252   */\n      keccak256\n        /* \"#utility.yul\":12317:12319   */\n      0x1f\n        /* \"#utility.yul\":12305:12315   */\n      dup5\n        /* \"#utility.yul\":12301:12320   */\n      add\n        /* \"#utility.yul\":12298:12299   */\n      0x05\n        /* \"#utility.yul\":12294:12321   */\n      shr\n        /* \"#utility.yul\":12288:12292   */\n      dup2\n        /* \"#utility.yul\":12284:12322   */\n      add\n        /* \"#utility.yul\":12353:12357   */\n      0x20\n        /* \"#utility.yul\":12341:12351   */\n      dup6\n        /* \"#utility.yul\":12338:12358   */\n      lt\n        /* \"#utility.yul\":12335:12382   */\n      iszero\n      tag_589\n      jumpi\n      pop\n        /* \"#utility.yul\":12376:12380   */\n      dup1\n        /* \"#utility.yul\":12335:12382   */\n    tag_589:\n        /* \"#utility.yul\":12431:12433   */\n      0x1f\n        /* \"#utility.yul\":12426:12429   */\n      dup5\n        /* \"#utility.yul\":12422:12434   */\n      add\n        /* \"#utility.yul\":12419:12420   */\n      0x05\n        /* \"#utility.yul\":12415:12435   */\n      shr\n        /* \"#utility.yul\":12409:12413   */\n      dup3\n        /* \"#utility.yul\":12405:12436   */\n      add\n        /* \"#utility.yul\":12395:12436   */\n      swap2\n      pop\n        /* \"#utility.yul\":12486:12567   */\n    tag_590:\n        /* \"#utility.yul\":12504:12506   */\n      dup2\n        /* \"#utility.yul\":12497:12502   */\n      dup2\n        /* \"#utility.yul\":12494:12507   */\n      lt\n        /* \"#utility.yul\":12486:12567   */\n      iszero\n      tag_592\n      jumpi\n        /* \"#utility.yul\":12563:12564   */\n      0x00\n        /* \"#utility.yul\":12549:12565   */\n      dup2\n      sstore\n        /* \"#utility.yul\":12530:12531   */\n      0x01\n        /* \"#utility.yul\":12519:12532   */\n      add\n        /* \"#utility.yul\":12486:12567   */\n      jump(tag_590)\n    tag_592:\n        /* \"#utility.yul\":12490:12493   */\n      pop\n      pop\n        /* \"#utility.yul\":12156:12577   */\n    tag_588:\n        /* \"#utility.yul\":12065:12583   */\n      pop\n      pop\n      pop\n      jump\t// out\n        /* \"#utility.yul\":12759:14058   */\n    tag_58:\n        /* \"#utility.yul\":12885:12888   */\n      dup2\n        /* \"#utility.yul\":12879:12889   */\n      mload\n      sub(shl(0x40, 0x01), 0x01)\n        /* \"#utility.yul\":12904:12910   */\n      dup2\n        /* \"#utility.yul\":12901:12931   */\n      gt\n        /* \"#utility.yul\":12898:12954   */\n      iszero\n      tag_596\n      jumpi\n        /* \"#utility.yul\":12934:12952   */\n      tag_596\n      tag_80\n      jump\t// in\n    tag_596:\n        /* \"#utility.yul\":12963:13060   */\n      tag_597\n        /* \"#utility.yul\":13053:13059   */\n      dup2\n        /* \"#utility.yul\":13013:13051   */\n      tag_598\n        /* \"#utility.yul\":13045:13049   */\n      dup5\n        /* \"#utility.yul\":13039:13050   */\n      sload\n        /* \"#utility.yul\":13013:13051   */\n      tag_93\n      jump\t// in\n    tag_598:\n        /* \"#utility.yul\":13007:13011   */\n      dup5\n        /* \"#utility.yul\":12963:13060   */\n      tag_498\n      jump\t// in\n    tag_597:\n        /* \"#utility.yul\":13109:13113   */\n      0x20\n        /* \"#utility.yul\":13140:13142   */\n      0x1f\n        /* \"#utility.yul\":13129:13143   */\n      dup3\n      gt\n        /* \"#utility.yul\":13157:13158   */\n      0x01\n        /* \"#utility.yul\":13152:13801   */\n      dup2\n      eq\n      tag_600\n      jumpi\n        /* \"#utility.yul\":13845:13846   */\n      0x00\n        /* \"#utility.yul\":13862:13868   */\n      dup4\n        /* \"#utility.yul\":13859:13948   */\n      iszero\n      tag_601\n      jumpi\n      pop\n        /* \"#utility.yul\":13914:13933   */\n      dup5\n      dup3\n      add\n        /* \"#utility.yul\":13908:13934   */\n      mload\n        /* \"#utility.yul\":13859:13948   */\n    tag_601:\n      not(0x00)\n        /* \"#utility.yul\":12716:12717   */\n      0x03\n        /* \"#utility.yul\":12712:12723   */\n      dup6\n      swap1\n      shl\n        /* \"#utility.yul\":12708:12732   */\n      shr\n        /* \"#utility.yul\":12704:12733   */\n      not\n        /* \"#utility.yul\":12694:12734   */\n      and\n        /* \"#utility.yul\":12740:12741   */\n      0x01\n        /* \"#utility.yul\":12736:12747   */\n      dup5\n      swap1\n      shl\n        /* \"#utility.yul\":12691:12748   */\n      or\n        /* \"#utility.yul\":13961:14042   */\n      dup5\n      sstore\n        /* \"#utility.yul\":13122:14052   */\n      jump(tag_592)\n        /* \"#utility.yul\":13152:13801   */\n    tag_600:\n        /* \"#utility.yul\":12012:12013   */\n      0x00\n        /* \"#utility.yul\":12005:12019   */\n      dup5\n      dup2\n      mstore\n        /* \"#utility.yul\":12049:12053   */\n      0x20\n        /* \"#utility.yul\":12036:12054   */\n      dup2\n      keccak256\n      not(0x1f)\n        /* \"#utility.yul\":13188:13208   */\n      dup6\n      and\n      swap2\n        /* \"#utility.yul\":13306:13528   */\n    tag_604:\n        /* \"#utility.yul\":13320:13327   */\n      dup3\n        /* \"#utility.yul\":13317:13318   */\n      dup2\n        /* \"#utility.yul\":13314:13328   */\n      lt\n        /* \"#utility.yul\":13306:13528   */\n      iszero\n      tag_606\n      jumpi\n        /* \"#utility.yul\":13402:13421   */\n      dup8\n      dup6\n      add\n        /* \"#utility.yul\":13396:13422   */\n      mload\n        /* \"#utility.yul\":13381:13423   */\n      dup3\n      sstore\n        /* \"#utility.yul\":13509:13513   */\n      0x20\n        /* \"#utility.yul\":13494:13514   */\n      swap5\n      dup6\n      add\n      swap5\n        /* \"#utility.yul\":13462:13463   */\n      0x01\n        /* \"#utility.yul\":13450:13464   */\n      swap1\n      swap3\n      add\n      swap2\n        /* \"#utility.yul\":13336:13348   */\n      add\n        /* \"#utility.yul\":13306:13528   */\n      jump(tag_604)\n    tag_606:\n        /* \"#utility.yul\":13310:13313   */\n      pop\n        /* \"#utility.yul\":13556:13562   */\n      dup5\n        /* \"#utility.yul\":13547:13554   */\n      dup3\n        /* \"#utility.yul\":13544:13563   */\n      lt\n        /* \"#utility.yul\":13541:13742   */\n      iszero\n      tag_607\n      jumpi\n        /* \"#utility.yul\":13617:13636   */\n      dup7\n      dup5\n      add\n        /* \"#utility.yul\":13611:13637   */\n      mload\n      not(0x00)\n        /* \"#utility.yul\":13700:13701   */\n      0x03\n        /* \"#utility.yul\":13696:13710   */\n      dup8\n      swap1\n      shl\n        /* \"#utility.yul\":13712:13715   */\n      0xf8\n        /* \"#utility.yul\":13692:13716   */\n      and\n        /* \"#utility.yul\":13688:13725   */\n      shr\n        /* \"#utility.yul\":13684:13726   */\n      not\n        /* \"#utility.yul\":13669:13727   */\n      and\n        /* \"#utility.yul\":13654:13728   */\n      dup2\n      sstore\n        /* \"#utility.yul\":13541:13742   */\n    tag_607:\n      pop\n      pop\n      pop\n      pop\n        /* \"#utility.yul\":13788:13789   */\n      0x01\n        /* \"#utility.yul\":13772:13786   */\n      swap1\n      dup2\n      shl\n        /* \"#utility.yul\":13768:13790   */\n      add\n        /* \"#utility.yul\":13755:13791   */\n      swap1\n      sstore\n      pop\n        /* \"#utility.yul\":12759:14058   */\n      jump\t// out\n        /* \"#utility.yul\":14063:14330   */\n    tag_500:\n        /* \"#utility.yul\":14152:14158   */\n      dup2\n        /* \"#utility.yul\":14147:14150   */\n      dup4\n        /* \"#utility.yul\":14140:14159   */\n      mstore\n        /* \"#utility.yul\":14204:14210   */\n      dup2\n        /* \"#utility.yul\":14197:14202   */\n      dup2\n        /* \"#utility.yul\":14190:14194   */\n      0x20\n        /* \"#utility.yul\":14185:14188   */\n      dup6\n        /* \"#utility.yul\":14181:14195   */\n      add\n        /* \"#utility.yul\":14168:14211   */\n      calldatacopy\n      pop\n        /* \"#utility.yul\":14256:14257   */\n      0x00\n        /* \"#utility.yul\":14231:14247   */\n      dup3\n      dup3\n      add\n        /* \"#utility.yul\":14249:14253   */\n      0x20\n        /* \"#utility.yul\":14227:14254   */\n      swap1\n      dup2\n      add\n        /* \"#utility.yul\":14220:14258   */\n      swap2\n      swap1\n      swap2\n      mstore\n        /* \"#utility.yul\":14312:14314   */\n      0x1f\n        /* \"#utility.yul\":14291:14306   */\n      swap1\n      swap2\n      add\n      not(0x1f)\n        /* \"#utility.yul\":14287:14316   */\n      and\n        /* \"#utility.yul\":14278:14317   */\n      swap1\n      swap2\n      add\n        /* \"#utility.yul\":14274:14324   */\n      add\n      swap1\n        /* \"#utility.yul\":14063:14330   */\n      jump\t// out\n        /* \"#utility.yul\":14335:15035   */\n    tag_76:\n        /* \"#utility.yul\":14638:14644   */\n      dup8\n        /* \"#utility.yul\":14627:14636   */\n      dup2\n        /* \"#utility.yul\":14620:14645   */\n      mstore\n        /* \"#utility.yul\":14681:14684   */\n      0x80\n        /* \"#utility.yul\":14676:14678   */\n      0x20\n        /* \"#utility.yul\":14665:14674   */\n      dup3\n        /* \"#utility.yul\":14661:14679   */\n      add\n        /* \"#utility.yul\":14654:14685   */\n      mstore\n        /* \"#utility.yul\":14601:14605   */\n      0x00\n        /* \"#utility.yul\":14708:14771   */\n      tag_610\n        /* \"#utility.yul\":14766:14769   */\n      0x80\n        /* \"#utility.yul\":14755:14764   */\n      dup4\n        /* \"#utility.yul\":14751:14770   */\n      add\n        /* \"#utility.yul\":14743:14749   */\n      dup9\n        /* \"#utility.yul\":14735:14741   */\n      dup11\n        /* \"#utility.yul\":14708:14771   */\n      tag_500\n      jump\t// in\n    tag_610:\n        /* \"#utility.yul\":14819:14828   */\n      dup3\n        /* \"#utility.yul\":14811:14817   */\n      dup2\n        /* \"#utility.yul\":14807:14829   */\n      sub\n        /* \"#utility.yul\":14802:14804   */\n      0x40\n        /* \"#utility.yul\":14791:14800   */\n      dup5\n        /* \"#utility.yul\":14787:14805   */\n      add\n        /* \"#utility.yul\":14780:14830   */\n      mstore\n        /* \"#utility.yul\":14853:14903   */\n      tag_611\n        /* \"#utility.yul\":14896:14902   */\n      dup2\n        /* \"#utility.yul\":14888:14894   */\n      dup8\n        /* \"#utility.yul\":14880:14886   */\n      dup10\n        /* \"#utility.yul\":14853:14903   */\n      tag_500\n      jump\t// in\n    tag_611:\n        /* \"#utility.yul\":14839:14903   */\n      swap1\n      pop\n        /* \"#utility.yul\":14951:14960   */\n      dup3\n        /* \"#utility.yul\":14943:14949   */\n      dup2\n        /* \"#utility.yul\":14939:14961   */\n      sub\n        /* \"#utility.yul\":14934:14936   */\n      0x60\n        /* \"#utility.yul\":14923:14932   */\n      dup5\n        /* \"#utility.yul\":14919:14937   */\n      add\n        /* \"#utility.yul\":14912:14962   */\n      mstore\n        /* \"#utility.yul\":14979:15029   */\n      tag_612\n        /* \"#utility.yul\":15022:15028   */\n      dup2\n        /* \"#utility.yul\":15014:15020   */\n      dup6\n        /* \"#utility.yul\":15006:15012   */\n      dup8\n        /* \"#utility.yul\":14979:15029   */\n      tag_500\n      jump\t// in\n    tag_612:\n        /* \"#utility.yul\":14971:15029   */\n      swap11\n        /* \"#utility.yul\":14335:15035   */\n      swap10\n      pop\n      pop\n      pop\n      pop\n      pop\n      pop\n      pop\n      pop\n      pop\n      pop\n      jump\t// out\n        /* \"#utility.yul\":15040:15167   */\n    tag_90:\n        /* \"#utility.yul\":15101:15111   */\n      0x4e487b71\n        /* \"#utility.yul\":15096:15099   */\n      0xe0\n        /* \"#utility.yul\":15092:15112   */\n      shl\n        /* \"#utility.yul\":15089:15090   */\n      0x00\n        /* \"#utility.yul\":15082:15113   */\n      mstore\n        /* \"#utility.yul\":15132:15136   */\n      0x32\n        /* \"#utility.yul\":15129:15130   */\n      0x04\n        /* \"#utility.yul\":15122:15137   */\n      mstore\n        /* \"#utility.yul\":15156:15160   */\n      0x24\n        /* \"#utility.yul\":15153:15154   */\n      0x00\n        /* \"#utility.yul\":15146:15161   */\n      revert\n        /* \"#utility.yul\":15172:15299   */\n    tag_501:\n        /* \"#utility.yul\":15233:15243   */\n      0x4e487b71\n        /* \"#utility.yul\":15228:15231   */\n      0xe0\n        /* \"#utility.yul\":15224:15244   */\n      shl\n        /* \"#utility.yul\":15221:15222   */\n      0x00\n        /* \"#utility.yul\":15214:15245   */\n      mstore\n        /* \"#utility.yul\":15264:15268   */\n      0x11\n        /* \"#utility.yul\":15261:15262   */\n      0x04\n        /* \"#utility.yul\":15254:15269   */\n      mstore\n        /* \"#utility.yul\":15288:15292   */\n      0x24\n        /* \"#utility.yul\":15285:15286   */\n      0x00\n        /* \"#utility.yul\":15278:15293   */\n      revert\n        /* \"#utility.yul\":15304:15439   */\n    tag_238:\n        /* \"#utility.yul\":15343:15346   */\n      0x00\n        /* \"#utility.yul\":15364:15381   */\n      0x01\n      dup3\n      add\n        /* \"#utility.yul\":15361:15404   */\n      tag_617\n      jumpi\n        /* \"#utility.yul\":15384:15402   */\n      tag_617\n      tag_501\n      jump\t// in\n    tag_617:\n      pop\n        /* \"#utility.yul\":15431:15432   */\n      0x01\n        /* \"#utility.yul\":15420:15433   */\n      add\n      swap1\n        /* \"#utility.yul\":15304:15439   */\n      jump\t// out\n        /* \"#utility.yul\":16134:16262   */\n    tag_420:\n        /* \"#utility.yul\":16201:16210   */\n      dup2\n      dup2\n      sub\n        /* \"#utility.yul\":16222:16233   */\n      dup2\n      dup2\n      gt\n        /* \"#utility.yul\":16219:16256   */\n      iszero\n      tag_320\n      jumpi\n        /* \"#utility.yul\":16236:16254   */\n      tag_320\n      tag_501\n      jump\t// in\n\n    auxdata: 0xa264697066735822122041997f214acf92f862b90bb99b3cd2b4aa6c5c2fdec08a32f56a62ec63fbb0f964736f6c634300081e0033\n}\n",
				"bytecode": {
					"linkReferences": {},
					"object": "6080604052348015600e575f5ffd5b506138a68061001c5f395ff3fe608060405234801561000f575f5ffd5b5060043610610085575f3560e01c8063be1c766b11610058578063be1c766b1461010a578063c42de9881461011b578063da0bb97b1461012e578063edd0bf6a14610141575f5ffd5b80635d0345c7146100895780637b806be4146100c05780638d5ce2bc146100d5578063a00a5424146100ea575b5f5ffd5b6100aa60405180604001604052806002815260200161317360f01b81525081565b6040516100b79190613042565b60405180910390f35b6100d36100ce36600461305b565b610149565b005b6100dd610496565b6040516100b79190613255565b6100fd6100f83660046132b8565b610d10565b6040516100b791906132cf565b6001546040519081526020016100b7565b6100dd6101293660046132b8565b6114e8565b6100dd61013c3660046132e1565b611de4565b6100fd612720565b604080518082019091526002815261317360f01b6020909101527f6c9308eeeb72aac61c6ee2086645ec6cf6638d86d97af7b81bcf4073f3b95dbc6101916060830183613301565b60405161019f92919061334a565b6040518091039020146101ef5760405162461bcd60e51b8152602060048201526013602482015272496e74657276616c206d75737420626520317360681b60448201526064015b60405180910390fd5b6040805160c081018252600560808201908152646b6c696e6560d81b60a08301528152426020820181905283359290915f918181019061023190870187613301565b8080601f0160208091040260200160405190810160405280939291908181526020018383808284375f9201919091525050509082525060200161027386613433565b90525f83815260208190526040902081519192508291819061029590826136ec565b5060208201516001820155604082015160028201906102b490826136ec565b50606082015180516003830190815560208201516004840155604082015160058401906102e190826136ec565b50606082015160038201906102f690826136ec565b506080820151600482015560a0820151600582015560c0820151600682019061031f90826136ec565b5060e0820151600782019061033490826136ec565b50610100820151600882019061034a90826136ec565b50610120820151600982019061036090826136ec565b50610140820151600a82019061037690826136ec565b50610160820151600b820155610180820151600c8201805460ff19169115159190911790556101a0820151600d8201906103b090826136ec565b506101c0820151600e8201906103c690826136ec565b506101e0820151600f8201906103dc90826136ec565b5061020082015160108201906103f290826136ec565b50506001805480820182555f919091527fb10e2d527612073b26eecdfd717e6a320cf44b4afac2b0732d9fcbe2b7fa0cf601859055507f33a64ffb8963f59747c8a1fb70ad84aa1b711886dde549fbc2d077e2e001d9a4915084905061045b6040870187613301565b61046860c0890189613301565b61047560e08b018b613301565b60405161048897969594939291906137ce565b60405180910390a150505050565b6001546060905f906001600160401b038111156104b5576104b5613359565b6040519080825280602002602001820160405280156104ee57816020015b6104db612f6d565b8152602001906001900390816104d35790505b5090505f5b600154811015610d0a575f5f600183815481106105125761051261381d565b905f5260205f20015481526020019081526020015f206040518060800160405290815f820180546105429061366e565b80601f016020809104026020016040519081016040528092919081815260200182805461056e9061366e565b80156105b95780601f10610590576101008083540402835291602001916105b9565b820191905f5260205f20905b81548152906001019060200180831161059c57829003601f168201915b50505050508152602001600182015481526020016002820180546105dc9061366e565b80601f01602080910402602001604051908101604052809291908181526020018280546106089061366e565b80156106535780601f1061062a57610100808354040283529160200191610653565b820191905f5260205f20905b81548152906001019060200180831161063657829003601f168201915b5050505050815260200160038201604051806102200160405290815f8201548152602001600182015481526020016002820180546106909061366e565b80601f01602080910402602001604051908101604052809291908181526020018280546106bc9061366e565b80156107075780601f106106de57610100808354040283529160200191610707565b820191905f5260205f20905b8154815290600101906020018083116106ea57829003601f168201915b505050505081526020016003820180546107209061366e565b80601f016020809104026020016040519081016040528092919081815260200182805461074c9061366e565b80156107975780601f1061076e57610100808354040283529160200191610797565b820191905f5260205f20905b81548152906001019060200180831161077a57829003601f168201915b5050505050815260200160048201548152602001600582015481526020016006820180546107c49061366e565b80601f01602080910402602001604051908101604052809291908181526020018280546107f09061366e565b801561083b5780601f106108125761010080835404028352916020019161083b565b820191905f5260205f20905b81548152906001019060200180831161081e57829003601f168201915b505050505081526020016007820180546108549061366e565b80601f01602080910402602001604051908101604052809291908181526020018280546108809061366e565b80156108cb5780601f106108a2576101008083540402835291602001916108cb565b820191905f5260205f20905b8154815290600101906020018083116108ae57829003601f168201915b505050505081526020016008820180546108e49061366e565b80601f01602080910402602001604051908101604052809291908181526020018280546109109061366e565b801561095b5780601f106109325761010080835404028352916020019161095b565b820191905f5260205f20905b81548152906001019060200180831161093e57829003601f168201915b505050505081526020016009820180546109749061366e565b80601f01602080910402602001604051908101604052809291908181526020018280546109a09061366e565b80156109eb5780601f106109c2576101008083540402835291602001916109eb565b820191905f5260205f20905b8154815290600101906020018083116109ce57829003601f168201915b50505050508152602001600a82018054610a049061366e565b80601f0160208091040260200160405190810160405280929190818152602001828054610a309061366e565b8015610a7b5780601f10610a5257610100808354040283529160200191610a7b565b820191905f5260205f20905b815481529060010190602001808311610a5e57829003601f168201915b5050509183525050600b8201546020820152600c82015460ff1615156040820152600d82018054606090920191610ab19061366e565b80601f0160208091040260200160405190810160405280929190818152602001828054610add9061366e565b8015610b285780601f10610aff57610100808354040283529160200191610b28565b820191905f5260205f20905b815481529060010190602001808311610b0b57829003601f168201915b50505050508152602001600e82018054610b419061366e565b80601f0160208091040260200160405190810160405280929190818152602001828054610b6d9061366e565b8015610bb85780601f10610b8f57610100808354040283529160200191610bb8565b820191905f5260205f20905b815481529060010190602001808311610b9b57829003601f168201915b50505050508152602001600f82018054610bd19061366e565b80601f0160208091040260200160405190810160405280929190818152602001828054610bfd9061366e565b8015610c485780601f10610c1f57610100808354040283529160200191610c48565b820191905f5260205f20905b815481529060010190602001808311610c2b57829003601f168201915b50505050508152602001601082018054610c619061366e565b80601f0160208091040260200160405190810160405280929190818152602001828054610c8d9061366e565b8015610cd85780601f10610caf57610100808354040283529160200191610cd8565b820191905f5260205f20905b815481529060010190602001808311610cbb57829003601f168201915b50505050508152505081525050828281518110610cf757610cf761381d565b60209081029190910101526001016104f3565b50919050565b610d18612f6d565b5f8281526020819052604090819020815160808101909252805482908290610d3f9061366e565b80601f0160208091040260200160405190810160405280929190818152602001828054610d6b9061366e565b8015610db65780601f10610d8d57610100808354040283529160200191610db6565b820191905f5260205f20905b815481529060010190602001808311610d9957829003601f168201915b5050505050815260200160018201548152602001600282018054610dd99061366e565b80601f0160208091040260200160405190810160405280929190818152602001828054610e059061366e565b8015610e505780601f10610e2757610100808354040283529160200191610e50565b820191905f5260205f20905b815481529060010190602001808311610e3357829003601f168201915b5050505050815260200160038201604051806102200160405290815f820154815260200160018201548152602001600282018054610e8d9061366e565b80601f0160208091040260200160405190810160405280929190818152602001828054610eb99061366e565b8015610f045780601f10610edb57610100808354040283529160200191610f04565b820191905f5260205f20905b815481529060010190602001808311610ee757829003601f168201915b50505050508152602001600382018054610f1d9061366e565b80601f0160208091040260200160405190810160405280929190818152602001828054610f499061366e565b8015610f945780601f10610f6b57610100808354040283529160200191610f94565b820191905f5260205f20905b815481529060010190602001808311610f7757829003601f168201915b505050505081526020016004820154815260200160058201548152602001600682018054610fc19061366e565b80601f0160208091040260200160405190810160405280929190818152602001828054610fed9061366e565b80156110385780601f1061100f57610100808354040283529160200191611038565b820191905f5260205f20905b81548152906001019060200180831161101b57829003601f168201915b505050505081526020016007820180546110519061366e565b80601f016020809104026020016040519081016040528092919081815260200182805461107d9061366e565b80156110c85780601f1061109f576101008083540402835291602001916110c8565b820191905f5260205f20905b8154815290600101906020018083116110ab57829003601f168201915b505050505081526020016008820180546110e19061366e565b80601f016020809104026020016040519081016040528092919081815260200182805461110d9061366e565b80156111585780601f1061112f57610100808354040283529160200191611158565b820191905f5260205f20905b81548152906001019060200180831161113b57829003601f168201915b505050505081526020016009820180546111719061366e565b80601f016020809104026020016040519081016040528092919081815260200182805461119d9061366e565b80156111e85780601f106111bf576101008083540402835291602001916111e8565b820191905f5260205f20905b8154815290600101906020018083116111cb57829003601f168201915b50505050508152602001600a820180546112019061366e565b80601f016020809104026020016040519081016040528092919081815260200182805461122d9061366e565b80156112785780601f1061124f57610100808354040283529160200191611278565b820191905f5260205f20905b81548152906001019060200180831161125b57829003601f168201915b5050509183525050600b8201546020820152600c82015460ff1615156040820152600d820180546060909201916112ae9061366e565b80601f01602080910402602001604051908101604052809291908181526020018280546112da9061366e565b80156113255780601f106112fc57610100808354040283529160200191611325565b820191905f5260205f20905b81548152906001019060200180831161130857829003601f168201915b50505050508152602001600e8201805461133e9061366e565b80601f016020809104026020016040519081016040528092919081815260200182805461136a9061366e565b80156113b55780601f1061138c576101008083540402835291602001916113b5565b820191905f5260205f20905b81548152906001019060200180831161139857829003601f168201915b50505050508152602001600f820180546113ce9061366e565b80601f01602080910402602001604051908101604052809291908181526020018280546113fa9061366e565b80156114455780601f1061141c57610100808354040283529160200191611445565b820191905f5260205f20905b81548152906001019060200180831161142857829003601f168201915b5050505050815260200160108201805461145e9061366e565b80601f016020809104026020016040519081016040528092919081815260200182805461148a9061366e565b80156114d55780601f106114ac576101008083540402835291602001916114d5565b820191905f5260205f20905b8154815290600101906020018083116114b857829003601f168201915b5050509190925250505090525092915050565b60605f42815b600154811015611543575f6001828154811061150c5761150c61381d565b905f5260205f20015490508581101580156115275750828111155b1561153a578361153681613845565b9450505b506001016114ee565b505f826001600160401b0381111561155d5761155d613359565b60405190808252806020026020018201604052801561159657816020015b611583612f6d565b81526020019060019003908161157b5790505b5090505f805b600154811015611dd9575f600182815481106115ba576115ba61381d565b905f5260205f20015490508781101580156115d55750848111155b15611dd0575f81815260208190526040908190208151608081019092528054829082906116019061366e565b80601f016020809104026020016040519081016040528092919081815260200182805461162d9061366e565b80156116785780601f1061164f57610100808354040283529160200191611678565b820191905f5260205f20905b81548152906001019060200180831161165b57829003601f168201915b505050505081526020016001820154815260200160028201805461169b9061366e565b80601f01602080910402602001604051908101604052809291908181526020018280546116c79061366e565b80156117125780601f106116e957610100808354040283529160200191611712565b820191905f5260205f20905b8154815290600101906020018083116116f557829003601f168201915b5050505050815260200160038201604051806102200160405290815f82015481526020016001820154815260200160028201805461174f9061366e565b80601f016020809104026020016040519081016040528092919081815260200182805461177b9061366e565b80156117c65780601f1061179d576101008083540402835291602001916117c6565b820191905f5260205f20905b8154815290600101906020018083116117a957829003601f168201915b505050505081526020016003820180546117df9061366e565b80601f016020809104026020016040519081016040528092919081815260200182805461180b9061366e565b80156118565780601f1061182d57610100808354040283529160200191611856565b820191905f5260205f20905b81548152906001019060200180831161183957829003601f168201915b5050505050815260200160048201548152602001600582015481526020016006820180546118839061366e565b80601f01602080910402602001604051908101604052809291908181526020018280546118af9061366e565b80156118fa5780601f106118d1576101008083540402835291602001916118fa565b820191905f5260205f20905b8154815290600101906020018083116118dd57829003601f168201915b505050505081526020016007820180546119139061366e565b80601f016020809104026020016040519081016040528092919081815260200182805461193f9061366e565b801561198a5780601f106119615761010080835404028352916020019161198a565b820191905f5260205f20905b81548152906001019060200180831161196d57829003601f168201915b505050505081526020016008820180546119a39061366e565b80601f01602080910402602001604051908101604052809291908181526020018280546119cf9061366e565b8015611a1a5780601f106119f157610100808354040283529160200191611a1a565b820191905f5260205f20905b8154815290600101906020018083116119fd57829003601f168201915b50505050508152602001600982018054611a339061366e565b80601f0160208091040260200160405190810160405280929190818152602001828054611a5f9061366e565b8015611aaa5780601f10611a8157610100808354040283529160200191611aaa565b820191905f5260205f20905b815481529060010190602001808311611a8d57829003601f168201915b50505050508152602001600a82018054611ac39061366e565b80601f0160208091040260200160405190810160405280929190818152602001828054611aef9061366e565b8015611b3a5780601f10611b1157610100808354040283529160200191611b3a565b820191905f5260205f20905b815481529060010190602001808311611b1d57829003601f168201915b5050509183525050600b8201546020820152600c82015460ff1615156040820152600d82018054606090920191611b709061366e565b80601f0160208091040260200160405190810160405280929190818152602001828054611b9c9061366e565b8015611be75780601f10611bbe57610100808354040283529160200191611be7565b820191905f5260205f20905b815481529060010190602001808311611bca57829003601f168201915b50505050508152602001600e82018054611c009061366e565b80601f0160208091040260200160405190810160405280929190818152602001828054611c2c9061366e565b8015611c775780601f10611c4e57610100808354040283529160200191611c77565b820191905f5260205f20905b815481529060010190602001808311611c5a57829003601f168201915b50505050508152602001600f82018054611c909061366e565b80601f0160208091040260200160405190810160405280929190818152602001828054611cbc9061366e565b8015611d075780601f10611cde57610100808354040283529160200191611d07565b820191905f5260205f20905b815481529060010190602001808311611cea57829003601f168201915b50505050508152602001601082018054611d209061366e565b80601f0160208091040260200160405190810160405280929190818152602001828054611d4c9061366e565b8015611d975780601f10611d6e57610100808354040283529160200191611d97565b820191905f5260205f20905b815481529060010190602001808311611d7a57829003601f168201915b50505050508152505081525050848481518110611db657611db661381d565b60200260200101819052508280611dcc90613845565b9350505b5060010161159c565b509095945050505050565b6060818310611e255760405162461bcd60e51b815260206004820152600d60248201526c496e76616c69642072616e676560981b60448201526064016101e6565b5f805b600154811015611e7d575f60018281548110611e4657611e4661381d565b905f5260205f2001549050858110158015611e615750848111155b15611e745782611e7081613845565b9350505b50600101611e28565b505f816001600160401b03811115611e9757611e97613359565b604051908082528060200260200182016040528015611ed057816020015b611ebd612f6d565b815260200190600190039081611eb55790505b5090505f805b600154811015612713575f60018281548110611ef457611ef461381d565b905f5260205f2001549050878110158015611f0f5750868111155b1561270a575f8181526020819052604090819020815160808101909252805482908290611f3b9061366e565b80601f0160208091040260200160405190810160405280929190818152602001828054611f679061366e565b8015611fb25780601f10611f8957610100808354040283529160200191611fb2565b820191905f5260205f20905b815481529060010190602001808311611f9557829003601f168201915b5050505050815260200160018201548152602001600282018054611fd59061366e565b80601f01602080910402602001604051908101604052809291908181526020018280546120019061366e565b801561204c5780601f106120235761010080835404028352916020019161204c565b820191905f5260205f20905b81548152906001019060200180831161202f57829003601f168201915b5050505050815260200160038201604051806102200160405290815f8201548152602001600182015481526020016002820180546120899061366e565b80601f01602080910402602001604051908101604052809291908181526020018280546120b59061366e565b80156121005780601f106120d757610100808354040283529160200191612100565b820191905f5260205f20905b8154815290600101906020018083116120e357829003601f168201915b505050505081526020016003820180546121199061366e565b80601f01602080910402602001604051908101604052809291908181526020018280546121459061366e565b80156121905780601f1061216757610100808354040283529160200191612190565b820191905f5260205f20905b81548152906001019060200180831161217357829003601f168201915b5050505050815260200160048201548152602001600582015481526020016006820180546121bd9061366e565b80601f01602080910402602001604051908101604052809291908181526020018280546121e99061366e565b80156122345780601f1061220b57610100808354040283529160200191612234565b820191905f5260205f20905b81548152906001019060200180831161221757829003601f168201915b5050505050815260200160078201805461224d9061366e565b80601f01602080910402602001604051908101604052809291908181526020018280546122799061366e565b80156122c45780601f1061229b576101008083540402835291602001916122c4565b820191905f5260205f20905b8154815290600101906020018083116122a757829003601f168201915b505050505081526020016008820180546122dd9061366e565b80601f01602080910402602001604051908101604052809291908181526020018280546123099061366e565b80156123545780601f1061232b57610100808354040283529160200191612354565b820191905f5260205f20905b81548152906001019060200180831161233757829003601f168201915b5050505050815260200160098201805461236d9061366e565b80601f01602080910402602001604051908101604052809291908181526020018280546123999061366e565b80156123e45780601f106123bb576101008083540402835291602001916123e4565b820191905f5260205f20905b8154815290600101906020018083116123c757829003601f168201915b50505050508152602001600a820180546123fd9061366e565b80601f01602080910402602001604051908101604052809291908181526020018280546124299061366e565b80156124745780601f1061244b57610100808354040283529160200191612474565b820191905f5260205f20905b81548152906001019060200180831161245757829003601f168201915b5050509183525050600b8201546020820152600c82015460ff1615156040820152600d820180546060909201916124aa9061366e565b80601f01602080910402602001604051908101604052809291908181526020018280546124d69061366e565b80156125215780601f106124f857610100808354040283529160200191612521565b820191905f5260205f20905b81548152906001019060200180831161250457829003601f168201915b50505050508152602001600e8201805461253a9061366e565b80601f01602080910402602001604051908101604052809291908181526020018280546125669061366e565b80156125b15780601f10612588576101008083540402835291602001916125b1565b820191905f5260205f20905b81548152906001019060200180831161259457829003601f168201915b50505050508152602001600f820180546125ca9061366e565b80601f01602080910402602001604051908101604052809291908181526020018280546125f69061366e565b80156126415780601f1061261857610100808354040283529160200191612641565b820191905f5260205f20905b81548152906001019060200180831161262457829003601f168201915b5050505050815260200160108201805461265a9061366e565b80601f01602080910402602001604051908101604052809291908181526020018280546126869061366e565b80156126d15780601f106126a8576101008083540402835291602001916126d1565b820191905f5260205f20905b8154815290600101906020018083116126b457829003601f168201915b505050505081525050815250508484815181106126f0576126f061381d565b6020026020010181905250828061270690613845565b9350505b50600101611ed6565b5090925050505b92915050565b612728612f6d565b60015461276d5760405162461bcd60e51b8152602060048201526013602482015272139bc818d85b991b195cc81c9958dbdc991959606a1b60448201526064016101e6565b600180545f919061277f90829061385d565b8154811061278f5761278f61381d565b905f5260205f20015490505f5f8281526020019081526020015f206040518060800160405290815f820180546127c49061366e565b80601f01602080910402602001604051908101604052809291908181526020018280546127f09061366e565b801561283b5780601f106128125761010080835404028352916020019161283b565b820191905f5260205f20905b81548152906001019060200180831161281e57829003601f168201915b505050505081526020016001820154815260200160028201805461285e9061366e565b80601f016020809104026020016040519081016040528092919081815260200182805461288a9061366e565b80156128d55780601f106128ac576101008083540402835291602001916128d5565b820191905f5260205f20905b8154815290600101906020018083116128b857829003601f168201915b5050505050815260200160038201604051806102200160405290815f8201548152602001600182015481526020016002820180546129129061366e565b80601f016020809104026020016040519081016040528092919081815260200182805461293e9061366e565b80156129895780601f1061296057610100808354040283529160200191612989565b820191905f5260205f20905b81548152906001019060200180831161296c57829003601f168201915b505050505081526020016003820180546129a29061366e565b80601f01602080910402602001604051908101604052809291908181526020018280546129ce9061366e565b8015612a195780601f106129f057610100808354040283529160200191612a19565b820191905f5260205f20905b8154815290600101906020018083116129fc57829003601f168201915b505050505081526020016004820154815260200160058201548152602001600682018054612a469061366e565b80601f0160208091040260200160405190810160405280929190818152602001828054612a729061366e565b8015612abd5780601f10612a9457610100808354040283529160200191612abd565b820191905f5260205f20905b815481529060010190602001808311612aa057829003601f168201915b50505050508152602001600782018054612ad69061366e565b80601f0160208091040260200160405190810160405280929190818152602001828054612b029061366e565b8015612b4d5780601f10612b2457610100808354040283529160200191612b4d565b820191905f5260205f20905b815481529060010190602001808311612b3057829003601f168201915b50505050508152602001600882018054612b669061366e565b80601f0160208091040260200160405190810160405280929190818152602001828054612b929061366e565b8015612bdd5780601f10612bb457610100808354040283529160200191612bdd565b820191905f5260205f20905b815481529060010190602001808311612bc057829003601f168201915b50505050508152602001600982018054612bf69061366e565b80601f0160208091040260200160405190810160405280929190818152602001828054612c229061366e565b8015612c6d5780601f10612c4457610100808354040283529160200191612c6d565b820191905f5260205f20905b815481529060010190602001808311612c5057829003601f168201915b50505050508152602001600a82018054612c869061366e565b80601f0160208091040260200160405190810160405280929190818152602001828054612cb29061366e565b8015612cfd5780601f10612cd457610100808354040283529160200191612cfd565b820191905f5260205f20905b815481529060010190602001808311612ce057829003601f168201915b5050509183525050600b8201546020820152600c82015460ff1615156040820152600d82018054606090920191612d339061366e565b80601f0160208091040260200160405190810160405280929190818152602001828054612d5f9061366e565b8015612daa5780601f10612d8157610100808354040283529160200191612daa565b820191905f5260205f20905b815481529060010190602001808311612d8d57829003601f168201915b50505050508152602001600e82018054612dc39061366e565b80601f0160208091040260200160405190810160405280929190818152602001828054612def9061366e565b8015612e3a5780601f10612e1157610100808354040283529160200191612e3a565b820191905f5260205f20905b815481529060010190602001808311612e1d57829003601f168201915b50505050508152602001600f82018054612e539061366e565b80601f0160208091040260200160405190810160405280929190818152602001828054612e7f9061366e565b8015612eca5780601f10612ea157610100808354040283529160200191612eca565b820191905f5260205f20905b815481529060010190602001808311612ead57829003601f168201915b50505050508152602001601082018054612ee39061366e565b80601f0160208091040260200160405190810160405280929190818152602001828054612f0f9061366e565b8015612f5a5780601f10612f3157610100808354040283529160200191612f5a565b820191905f5260205f20905b815481529060010190602001808311612f3d57829003601f168201915b5050505050815250508152505091505090565b6040518060800160405280606081526020015f81526020016060815260200161300f6040518061022001604052805f81526020015f815260200160608152602001606081526020015f81526020015f815260200160608152602001606081526020016060815260200160608152602001606081526020015f81526020015f15158152602001606081526020016060815260200160608152602001606081525090565b905290565b5f81518084528060208401602086015e5f602082860101526020601f19601f83011685010191505092915050565b602081525f6130546020830184613014565b9392505050565b5f6020828403121561306b575f5ffd5b81356001600160401b03811115613080575f5ffd5b82016102208185031215613054575f5ffd5b5f8151608084526130a66080850182613014565b905060208301516020850152604083015184820360408601526130c98282613014565b91505060608301518482036060860152805182526020810151602083015260408101516102206040840152613102610220840182613014565b90506060820151838203606085015261311b8282613014565b9150506080820151608084015260a082015160a084015260c082015183820360c08501526131498282613014565b91505060e082015183820360e08501526131638282613014565b91505061010082015183820361010085015261317f8282613014565b91505061012082015183820361012085015261319b8282613014565b9150506101408201518382036101408501526131b78282613014565b9150506101608201516101608401526101808201516131db61018085018215159052565b506101a08201518382036101a08501526131f58282613014565b9150506101c08201518382036101c08501526132118282613014565b9150506101e08201518382036101e085015261322d8282613014565b915050610200820151915082810361020084015261324b8183613014565b9695505050505050565b5f602082016020835280845180835260408501915060408160051b8601019250602086015f5b828110156132ac57603f19878603018452613297858351613092565b9450602093840193919091019060010161327b565b50929695505050505050565b5f602082840312156132c8575f5ffd5b5035919050565b602081525f6130546020830184613092565b5f5f604083850312156132f2575f5ffd5b50508035926020909101359150565b5f5f8335601e19843603018112613316575f5ffd5b8301803591506001600160401b0382111561332f575f5ffd5b602001915036819003821315613343575f5ffd5b9250929050565b818382375f9101908152919050565b634e487b7160e01b5f52604160045260245ffd5b60405161022081016001600160401b038111828210171561339057613390613359565b60405290565b5f82601f8301126133a5575f5ffd5b81356001600160401b038111156133be576133be613359565b604051601f8201601f19908116603f011681016001600160401b03811182821017156133ec576133ec613359565b604052818152838201602001851015613403575f5ffd5b816020850160208301375f918101602001919091529392505050565b8035801515811461342e575f5ffd5b919050565b5f6102208236031215613444575f5ffd5b61344c61336d565b823581526020808401359082015260408301356001600160401b03811115613472575f5ffd5b61347e36828601613396565b60408301525060608301356001600160401b0381111561349c575f5ffd5b6134a836828601613396565b6060830152506080838101359082015260a0808401359082015260c08301356001600160401b038111156134da575f5ffd5b6134e636828601613396565b60c08301525060e08301356001600160401b03811115613504575f5ffd5b61351036828601613396565b60e0830152506101008301356001600160401b0381111561352f575f5ffd5b61353b36828601613396565b610100830152506101208301356001600160401b0381111561355b575f5ffd5b61356736828601613396565b610120830152506101408301356001600160401b03811115613587575f5ffd5b61359336828601613396565b6101408301525061016083810135908201526135b2610180840161341f565b6101808201526101a08301356001600160401b038111156135d1575f5ffd5b6135dd36828601613396565b6101a0830152506101c08301356001600160401b038111156135fd575f5ffd5b61360936828601613396565b6101c0830152506101e08301356001600160401b03811115613629575f5ffd5b61363536828601613396565b6101e0830152506102008301356001600160401b03811115613655575f5ffd5b61366136828601613396565b6102008301525092915050565b600181811c9082168061368257607f821691505b602082108103610d0a57634e487b7160e01b5f52602260045260245ffd5b601f8211156136e757805f5260205f20601f840160051c810160208510156136c55750805b601f840160051c820191505b818110156136e4575f81556001016136d1565b50505b505050565b81516001600160401b0381111561370557613705613359565b61371981613713845461366e565b846136a0565b6020601f82116001811461374b575f83156137345750848201515b5f19600385901b1c1916600184901b1784556136e4565b5f84815260208120601f198516915b8281101561377a578785015182556020948501946001909201910161375a565b508482101561379757868401515f19600387901b60f8161c191681555b50505050600190811b01905550565b81835281816020850137505f828201602090810191909152601f909101601f19169091010190565b878152608060208201525f6137e760808301888a6137a6565b82810360408401526137fa8187896137a6565b9050828103606084015261380f8185876137a6565b9a9950505050505050505050565b634e487b7160e01b5f52603260045260245ffd5b634e487b7160e01b5f52601160045260245ffd5b5f6001820161385657613856613831565b5060010190565b8181038181111561271a5761271a61383156fea264697066735822122041997f214acf92f862b90bb99b3cd2b4aa6c5c2fdec08a32f56a62ec63fbb0f964736f6c634300081e0033",
					"opcodes": "PUSH1 0x80 PUSH1 0x40 MSTORE CALLVALUE DUP1 ISZERO PUSH1 0xE JUMPI PUSH0 PUSH0 REVERT JUMPDEST POP PUSH2 0x38A6 DUP1 PUSH2 0x1C PUSH0 CODECOPY PUSH0 RETURN INVALID PUSH1 0x80 PUSH1 0x40 MSTORE CALLVALUE DUP1 ISZERO PUSH2 0xF JUMPI PUSH0 PUSH0 REVERT JUMPDEST POP PUSH1 0x4 CALLDATASIZE LT PUSH2 0x85 JUMPI PUSH0 CALLDATALOAD PUSH1 0xE0 SHR DUP1 PUSH4 0xBE1C766B GT PUSH2 0x58 JUMPI DUP1 PUSH4 0xBE1C766B EQ PUSH2 0x10A JUMPI DUP1 PUSH4 0xC42DE988 EQ PUSH2 0x11B JUMPI DUP1 PUSH4 0xDA0BB97B EQ PUSH2 0x12E JUMPI DUP1 PUSH4 0xEDD0BF6A EQ PUSH2 0x141 JUMPI PUSH0 PUSH0 REVERT JUMPDEST DUP1 PUSH4 0x5D0345C7 EQ PUSH2 0x89 JUMPI DUP1 PUSH4 0x7B806BE4 EQ PUSH2 0xC0 JUMPI DUP1 PUSH4 0x8D5CE2BC EQ PUSH2 0xD5 JUMPI DUP1 PUSH4 0xA00A5424 EQ PUSH2 0xEA JUMPI JUMPDEST PUSH0 PUSH0 REVERT JUMPDEST PUSH2 0xAA PUSH1 0x40 MLOAD DUP1 PUSH1 0x40 ADD PUSH1 0x40 MSTORE DUP1 PUSH1 0x2 DUP2 MSTORE PUSH1 0x20 ADD PUSH2 0x3173 PUSH1 0xF0 SHL DUP2 MSTORE POP DUP2 JUMP JUMPDEST PUSH1 0x40 MLOAD PUSH2 0xB7 SWAP2 SWAP1 PUSH2 0x3042 JUMP JUMPDEST PUSH1 0x40 MLOAD DUP1 SWAP2 SUB SWAP1 RETURN JUMPDEST PUSH2 0xD3 PUSH2 0xCE CALLDATASIZE PUSH1 0x4 PUSH2 0x305B JUMP JUMPDEST PUSH2 0x149 JUMP JUMPDEST STOP JUMPDEST PUSH2 0xDD PUSH2 0x496 JUMP JUMPDEST PUSH1 0x40 MLOAD PUSH2 0xB7 SWAP2 SWAP1 PUSH2 0x3255 JUMP JUMPDEST PUSH2 0xFD PUSH2 0xF8 CALLDATASIZE PUSH1 0x4 PUSH2 0x32B8 JUMP JUMPDEST PUSH2 0xD10 JUMP JUMPDEST PUSH1 0x40 MLOAD PUSH2 0xB7 SWAP2 SWAP1 PUSH2 0x32CF JUMP JUMPDEST PUSH1 0x1 SLOAD PUSH1 0x40 MLOAD SWAP1 DUP2 MSTORE PUSH1 0x20 ADD PUSH2 0xB7 JUMP JUMPDEST PUSH2 0xDD PUSH2 0x129 CALLDATASIZE PUSH1 0x4 PUSH2 0x32B8 JUMP JUMPDEST PUSH2 0x14E8 JUMP JUMPDEST PUSH2 0xDD PUSH2 0x13C CALLDATASIZE PUSH1 0x4 PUSH2 0x32E1 JUMP JUMPDEST PUSH2 0x1DE4 JUMP JUMPDEST PUSH2 0xFD PUSH2 0x2720 JUMP JUMPDEST PUSH1 0x40 DUP1 MLOAD DUP1 DUP3 ADD SWAP1 SWAP2 MSTORE PUSH1 0x2 DUP2 MSTORE PUSH2 0x3173 PUSH1 0xF0 SHL PUSH1 0x20 SWAP1 SWAP2 ADD MSTORE PUSH32 0x6C9308EEEB72AAC61C6EE2086645EC6CF6638D86D97AF7B81BCF4073F3B95DBC PUSH2 0x191 PUSH1 0x60 DUP4 ADD DUP4 PUSH2 0x3301 JUMP JUMPDEST PUSH1 0x40 MLOAD PUSH2 0x19F SWAP3 SWAP2 SWAP1 PUSH2 0x334A JUMP JUMPDEST PUSH1 0x40 MLOAD DUP1 SWAP2 SUB SWAP1 KECCAK256 EQ PUSH2 0x1EF JUMPI PUSH1 0x40 MLOAD PUSH3 0x461BCD PUSH1 0xE5 SHL DUP2 MSTORE PUSH1 0x20 PUSH1 0x4 DUP3 ADD MSTORE PUSH1 0x13 PUSH1 0x24 DUP3 ADD MSTORE PUSH19 0x496E74657276616C206D757374206265203173 PUSH1 0x68 SHL PUSH1 0x44 DUP3 ADD MSTORE PUSH1 0x64 ADD JUMPDEST PUSH1 0x40 MLOAD DUP1 SWAP2 SUB SWAP1 REVERT JUMPDEST PUSH1 0x40 DUP1 MLOAD PUSH1 0xC0 DUP2 ADD DUP3 MSTORE PUSH1 0x5 PUSH1 0x80 DUP3 ADD SWAP1 DUP2 MSTORE PUSH5 0x6B6C696E65 PUSH1 0xD8 SHL PUSH1 0xA0 DUP4 ADD MSTORE DUP2 MSTORE TIMESTAMP PUSH1 0x20 DUP3 ADD DUP2 SWAP1 MSTORE DUP4 CALLDATALOAD SWAP3 SWAP1 SWAP2 PUSH0 SWAP2 DUP2 DUP2 ADD SWAP1 PUSH2 0x231 SWAP1 DUP8 ADD DUP8 PUSH2 0x3301 JUMP JUMPDEST DUP1 DUP1 PUSH1 0x1F ADD PUSH1 0x20 DUP1 SWAP2 DIV MUL PUSH1 0x20 ADD PUSH1 0x40 MLOAD SWAP1 DUP2 ADD PUSH1 0x40 MSTORE DUP1 SWAP4 SWAP3 SWAP2 SWAP1 DUP2 DUP2 MSTORE PUSH1 0x20 ADD DUP4 DUP4 DUP1 DUP3 DUP5 CALLDATACOPY PUSH0 SWAP3 ADD SWAP2 SWAP1 SWAP2 MSTORE POP POP POP SWAP1 DUP3 MSTORE POP PUSH1 0x20 ADD PUSH2 0x273 DUP7 PUSH2 0x3433 JUMP JUMPDEST SWAP1 MSTORE PUSH0 DUP4 DUP2 MSTORE PUSH1 0x20 DUP2 SWAP1 MSTORE PUSH1 0x40 SWAP1 KECCAK256 DUP2 MLOAD SWAP2 SWAP3 POP DUP3 SWAP2 DUP2 SWAP1 PUSH2 0x295 SWAP1 DUP3 PUSH2 0x36EC JUMP JUMPDEST POP PUSH1 0x20 DUP3 ADD MLOAD PUSH1 0x1 DUP3 ADD SSTORE PUSH1 0x40 DUP3 ADD MLOAD PUSH1 0x2 DUP3 ADD SWAP1 PUSH2 0x2B4 SWAP1 DUP3 PUSH2 0x36EC JUMP JUMPDEST POP PUSH1 0x60 DUP3 ADD MLOAD DUP1 MLOAD PUSH1 0x3 DUP4 ADD SWAP1 DUP2 SSTORE PUSH1 0x20 DUP3 ADD MLOAD PUSH1 0x4 DUP5 ADD SSTORE PUSH1 0x40 DUP3 ADD MLOAD PUSH1 0x5 DUP5 ADD SWAP1 PUSH2 0x2E1 SWAP1 DUP3 PUSH2 0x36EC JUMP JUMPDEST POP PUSH1 0x60 DUP3 ADD MLOAD PUSH1 0x3 DUP3 ADD SWAP1 PUSH2 0x2F6 SWAP1 DUP3 PUSH2 0x36EC JUMP JUMPDEST POP PUSH1 0x80 DUP3 ADD MLOAD PUSH1 0x4 DUP3 ADD SSTORE PUSH1 0xA0 DUP3 ADD MLOAD PUSH1 0x5 DUP3 ADD SSTORE PUSH1 0xC0 DUP3 ADD MLOAD PUSH1 0x6 DUP3 ADD SWAP1 PUSH2 0x31F SWAP1 DUP3 PUSH2 0x36EC JUMP JUMPDEST POP PUSH1 0xE0 DUP3 ADD MLOAD PUSH1 0x7 DUP3 ADD SWAP1 PUSH2 0x334 SWAP1 DUP3 PUSH2 0x36EC JUMP JUMPDEST POP PUSH2 0x100 DUP3 ADD MLOAD PUSH1 0x8 DUP3 ADD SWAP1 PUSH2 0x34A SWAP1 DUP3 PUSH2 0x36EC JUMP JUMPDEST POP PUSH2 0x120 DUP3 ADD MLOAD PUSH1 0x9 DUP3 ADD SWAP1 PUSH2 0x360 SWAP1 DUP3 PUSH2 0x36EC JUMP JUMPDEST POP PUSH2 0x140 DUP3 ADD MLOAD PUSH1 0xA DUP3 ADD SWAP1 PUSH2 0x376 SWAP1 DUP3 PUSH2 0x36EC JUMP JUMPDEST POP PUSH2 0x160 DUP3 ADD MLOAD PUSH1 0xB DUP3 ADD SSTORE PUSH2 0x180 DUP3 ADD MLOAD PUSH1 0xC DUP3 ADD DUP1 SLOAD PUSH1 0xFF NOT AND SWAP2 ISZERO ISZERO SWAP2 SWAP1 SWAP2 OR SWAP1 SSTORE PUSH2 0x1A0 DUP3 ADD MLOAD PUSH1 0xD DUP3 ADD SWAP1 PUSH2 0x3B0 SWAP1 DUP3 PUSH2 0x36EC JUMP JUMPDEST POP PUSH2 0x1C0 DUP3 ADD MLOAD PUSH1 0xE DUP3 ADD SWAP1 PUSH2 0x3C6 SWAP1 DUP3 PUSH2 0x36EC JUMP JUMPDEST POP PUSH2 0x1E0 DUP3 ADD MLOAD PUSH1 0xF DUP3 ADD SWAP1 PUSH2 0x3DC SWAP1 DUP3 PUSH2 0x36EC JUMP JUMPDEST POP PUSH2 0x200 DUP3 ADD MLOAD PUSH1 0x10 DUP3 ADD SWAP1 PUSH2 0x3F2 SWAP1 DUP3 PUSH2 0x36EC JUMP JUMPDEST POP POP PUSH1 0x1 DUP1 SLOAD DUP1 DUP3 ADD DUP3 SSTORE PUSH0 SWAP2 SWAP1 SWAP2 MSTORE PUSH32 0xB10E2D527612073B26EECDFD717E6A320CF44B4AFAC2B0732D9FCBE2B7FA0CF6 ADD DUP6 SWAP1 SSTORE POP PUSH32 0x33A64FFB8963F59747C8A1FB70AD84AA1B711886DDE549FBC2D077E2E001D9A4 SWAP2 POP DUP5 SWAP1 POP PUSH2 0x45B PUSH1 0x40 DUP8 ADD DUP8 PUSH2 0x3301 JUMP JUMPDEST PUSH2 0x468 PUSH1 0xC0 DUP10 ADD DUP10 PUSH2 0x3301 JUMP JUMPDEST PUSH2 0x475 PUSH1 0xE0 DUP12 ADD DUP12 PUSH2 0x3301 JUMP JUMPDEST PUSH1 0x40 MLOAD PUSH2 0x488 SWAP8 SWAP7 SWAP6 SWAP5 SWAP4 SWAP3 SWAP2 SWAP1 PUSH2 0x37CE JUMP JUMPDEST PUSH1 0x40 MLOAD DUP1 SWAP2 SUB SWAP1 LOG1 POP POP POP POP JUMP JUMPDEST PUSH1 0x1 SLOAD PUSH1 0x60 SWAP1 PUSH0 SWAP1 PUSH1 0x1 PUSH1 0x1 PUSH1 0x40 SHL SUB DUP2 GT ISZERO PUSH2 0x4B5 JUMPI PUSH2 0x4B5 PUSH2 0x3359 JUMP JUMPDEST PUSH1 0x40 MLOAD SWAP1 DUP1 DUP3 MSTORE DUP1 PUSH1 0x20 MUL PUSH1 0x20 ADD DUP3 ADD PUSH1 0x40 MSTORE DUP1 ISZERO PUSH2 0x4EE JUMPI DUP2 PUSH1 0x20 ADD JUMPDEST PUSH2 0x4DB PUSH2 0x2F6D JUMP JUMPDEST DUP2 MSTORE PUSH1 0x20 ADD SWAP1 PUSH1 0x1 SWAP1 SUB SWAP1 DUP2 PUSH2 0x4D3 JUMPI SWAP1 POP JUMPDEST POP SWAP1 POP PUSH0 JUMPDEST PUSH1 0x1 SLOAD DUP2 LT ISZERO PUSH2 0xD0A JUMPI PUSH0 PUSH0 PUSH1 0x1 DUP4 DUP2 SLOAD DUP2 LT PUSH2 0x512 JUMPI PUSH2 0x512 PUSH2 0x381D JUMP JUMPDEST SWAP1 PUSH0 MSTORE PUSH1 0x20 PUSH0 KECCAK256 ADD SLOAD DUP2 MSTORE PUSH1 0x20 ADD SWAP1 DUP2 MSTORE PUSH1 0x20 ADD PUSH0 KECCAK256 PUSH1 0x40 MLOAD DUP1 PUSH1 0x80 ADD PUSH1 0x40 MSTORE SWAP1 DUP2 PUSH0 DUP3 ADD DUP1 SLOAD PUSH2 0x542 SWAP1 PUSH2 0x366E JUMP JUMPDEST DUP1 PUSH1 0x1F ADD PUSH1 0x20 DUP1 SWAP2 DIV MUL PUSH1 0x20 ADD PUSH1 0x40 MLOAD SWAP1 DUP2 ADD PUSH1 0x40 MSTORE DUP1 SWAP3 SWAP2 SWAP1 DUP2 DUP2 MSTORE PUSH1 0x20 ADD DUP3 DUP1 SLOAD PUSH2 0x56E SWAP1 PUSH2 0x366E JUMP JUMPDEST DUP1 ISZERO PUSH2 0x5B9 JUMPI DUP1 PUSH1 0x1F LT PUSH2 0x590 JUMPI PUSH2 0x100 DUP1 DUP4 SLOAD DIV MUL DUP4 MSTORE SWAP2 PUSH1 0x20 ADD SWAP2 PUSH2 0x5B9 JUMP JUMPDEST DUP3 ADD SWAP2 SWAP1 PUSH0 MSTORE PUSH1 0x20 PUSH0 KECCAK256 SWAP1 JUMPDEST DUP2 SLOAD DUP2 MSTORE SWAP1 PUSH1 0x1 ADD SWAP1 PUSH1 0x20 ADD DUP1 DUP4 GT PUSH2 0x59C JUMPI DUP3 SWAP1 SUB PUSH1 0x1F AND DUP3 ADD SWAP2 JUMPDEST POP POP POP POP POP DUP2 MSTORE PUSH1 0x20 ADD PUSH1 0x1 DUP3 ADD SLOAD DUP2 MSTORE PUSH1 0x20 ADD PUSH1 0x2 DUP3 ADD DUP1 SLOAD PUSH2 0x5DC SWAP1 PUSH2 0x366E JUMP JUMPDEST DUP1 PUSH1 0x1F ADD PUSH1 0x20 DUP1 SWAP2 DIV MUL PUSH1 0x20 ADD PUSH1 0x40 MLOAD SWAP1 DUP2 ADD PUSH1 0x40 MSTORE DUP1 SWAP3 SWAP2 SWAP1 DUP2 DUP2 MSTORE PUSH1 0x20 ADD DUP3 DUP1 SLOAD PUSH2 0x608 SWAP1 PUSH2 0x366E JUMP JUMPDEST DUP1 ISZERO PUSH2 0x653 JUMPI DUP1 PUSH1 0x1F LT PUSH2 0x62A JUMPI PUSH2 0x100 DUP1 DUP4 SLOAD DIV MUL DUP4 MSTORE SWAP2 PUSH1 0x20 ADD SWAP2 PUSH2 0x653 JUMP JUMPDEST DUP3 ADD SWAP2 SWAP1 PUSH0 MSTORE PUSH1 0x20 PUSH0 KECCAK256 SWAP1 JUMPDEST DUP2 SLOAD DUP2 MSTORE SWAP1 PUSH1 0x1 ADD SWAP1 PUSH1 0x20 ADD DUP1 DUP4 GT PUSH2 0x636 JUMPI DUP3 SWAP1 SUB PUSH1 0x1F AND DUP3 ADD SWAP2 JUMPDEST POP POP POP POP POP DUP2 MSTORE PUSH1 0x20 ADD PUSH1 0x3 DUP3 ADD PUSH1 0x40 MLOAD DUP1 PUSH2 0x220 ADD PUSH1 0x40 MSTORE SWAP1 DUP2 PUSH0 DUP3 ADD SLOAD DUP2 MSTORE PUSH1 0x20 ADD PUSH1 0x1 DUP3 ADD SLOAD DUP2 MSTORE PUSH1 0x20 ADD PUSH1 0x2 DUP3 ADD DUP1 SLOAD PUSH2 0x690 SWAP1 PUSH2 0x366E JUMP JUMPDEST DUP1 PUSH1 0x1F ADD PUSH1 0x20 DUP1 SWAP2 DIV MUL PUSH1 0x20 ADD PUSH1 0x40 MLOAD SWAP1 DUP2 ADD PUSH1 0x40 MSTORE DUP1 SWAP3 SWAP2 SWAP1 DUP2 DUP2 MSTORE PUSH1 0x20 ADD DUP3 DUP1 SLOAD PUSH2 0x6BC SWAP1 PUSH2 0x366E JUMP JUMPDEST DUP1 ISZERO PUSH2 0x707 JUMPI DUP1 PUSH1 0x1F LT PUSH2 0x6DE JUMPI PUSH2 0x100 DUP1 DUP4 SLOAD DIV MUL DUP4 MSTORE SWAP2 PUSH1 0x20 ADD SWAP2 PUSH2 0x707 JUMP JUMPDEST DUP3 ADD SWAP2 SWAP1 PUSH0 MSTORE PUSH1 0x20 PUSH0 KECCAK256 SWAP1 JUMPDEST DUP2 SLOAD DUP2 MSTORE SWAP1 PUSH1 0x1 ADD SWAP1 PUSH1 0x20 ADD DUP1 DUP4 GT PUSH2 0x6EA JUMPI DUP3 SWAP1 SUB PUSH1 0x1F AND DUP3 ADD SWAP2 JUMPDEST POP POP POP POP POP DUP2 MSTORE PUSH1 0x20 ADD PUSH1 0x3 DUP3 ADD DUP1 SLOAD PUSH2 0x720 SWAP1 PUSH2 0x366E JUMP JUMPDEST DUP1 PUSH1 0x1F ADD PUSH1 0x20 DUP1 SWAP2 DIV MUL PUSH1 0x20 ADD PUSH1 0x40 MLOAD SWAP1 DUP2 ADD PUSH1 0x40 MSTORE DUP1 SWAP3 SWAP2 SWAP1 DUP2 DUP2 MSTORE PUSH1 0x20 ADD DUP3 DUP1 SLOAD PUSH2 0x74C SWAP1 PUSH2 0x366E JUMP JUMPDEST DUP1 ISZERO PUSH2 0x797 JUMPI DUP1 PUSH1 0x1F LT PUSH2 0x76E JUMPI PUSH2 0x100 DUP1 DUP4 SLOAD DIV MUL DUP4 MSTORE SWAP2 PUSH1 0x20 ADD SWAP2 PUSH2 0x797 JUMP JUMPDEST DUP3 ADD SWAP2 SWAP1 PUSH0 MSTORE PUSH1 0x20 PUSH0 KECCAK256 SWAP1 JUMPDEST DUP2 SLOAD DUP2 MSTORE SWAP1 PUSH1 0x1 ADD SWAP1 PUSH1 0x20 ADD DUP1 DUP4 GT PUSH2 0x77A JUMPI DUP3 SWAP1 SUB PUSH1 0x1F AND DUP3 ADD SWAP2 JUMPDEST POP POP POP POP POP DUP2 MSTORE PUSH1 0x20 ADD PUSH1 0x4 DUP3 ADD SLOAD DUP2 MSTORE PUSH1 0x20 ADD PUSH1 0x5 DUP3 ADD SLOAD DUP2 MSTORE PUSH1 0x20 ADD PUSH1 0x6 DUP3 ADD DUP1 SLOAD PUSH2 0x7C4 SWAP1 PUSH2 0x366E JUMP JUMPDEST DUP1 PUSH1 0x1F ADD PUSH1 0x20 DUP1 SWAP2 DIV MUL PUSH1 0x20 ADD PUSH1 0x40 MLOAD SWAP1 DUP2 ADD PUSH1 0x40 MSTORE DUP1 SWAP3 SWAP2 SWAP1 DUP2 DUP2 MSTORE PUSH1 0x20 ADD DUP3 DUP1 SLOAD PUSH2 0x7F0 SWAP1 PUSH2 0x366E JUMP JUMPDEST DUP1 ISZERO PUSH2 0x83B JUMPI DUP1 PUSH1 0x1F LT PUSH2 0x812 JUMPI PUSH2 0x100 DUP1 DUP4 SLOAD DIV MUL DUP4 MSTORE SWAP2 PUSH1 0x20 ADD SWAP2 PUSH2 0x83B JUMP JUMPDEST DUP3 ADD SWAP2 SWAP1 PUSH0 MSTORE PUSH1 0x20 PUSH0 KECCAK256 SWAP1 JUMPDEST DUP2 SLOAD DUP2 MSTORE SWAP1 PUSH1 0x1 ADD SWAP1 PUSH1 0x20 ADD DUP1 DUP4 GT PUSH2 0x81E JUMPI DUP3 SWAP1 SUB PUSH1 0x1F AND DUP3 ADD SWAP2 JUMPDEST POP POP POP POP POP DUP2 MSTORE PUSH1 0x20 ADD PUSH1 0x7 DUP3 ADD DUP1 SLOAD PUSH2 0x854 SWAP1 PUSH2 0x366E JUMP JUMPDEST DUP1 PUSH1 0x1F ADD PUSH1 0x20 DUP1 SWAP2 DIV MUL PUSH1 0x20 ADD PUSH1 0x40 MLOAD SWAP1 DUP2 ADD PUSH1 0x40 MSTORE DUP1 SWAP3 SWAP2 SWAP1 DUP2 DUP2 MSTORE PUSH1 0x20 ADD DUP3 DUP1 SLOAD PUSH2 0x880 SWAP1 PUSH2 0x366E JUMP JUMPDEST DUP1 ISZERO PUSH2 0x8CB JUMPI DUP1 PUSH1 0x1F LT PUSH2 0x8A2 JUMPI PUSH2 0x100 DUP1 DUP4 SLOAD DIV MUL DUP4 MSTORE SWAP2 PUSH1 0x20 ADD SWAP2 PUSH2 0x8CB JUMP JUMPDEST DUP3 ADD SWAP2 SWAP1 PUSH0 MSTORE PUSH1 0x20 PUSH0 KECCAK256 SWAP1 JUMPDEST DUP2 SLOAD DUP2 MSTORE SWAP1 PUSH1 0x1 ADD SWAP1 PUSH1 0x20 ADD DUP1 DUP4 GT PUSH2 0x8AE JUMPI DUP3 SWAP1 SUB PUSH1 0x1F AND DUP3 ADD SWAP2 JUMPDEST POP POP POP POP POP DUP2 MSTORE PUSH1 0x20 ADD PUSH1 0x8 DUP3 ADD DUP1 SLOAD PUSH2 0x8E4 SWAP1 PUSH2 0x366E JUMP JUMPDEST DUP1 PUSH1 0x1F ADD PUSH1 0x20 DUP1 SWAP2 DIV MUL PUSH1 0x20 ADD PUSH1 0x40 MLOAD SWAP1 DUP2 ADD PUSH1 0x40 MSTORE DUP1 SWAP3 SWAP2 SWAP1 DUP2 DUP2 MSTORE PUSH1 0x20 ADD DUP3 DUP1 SLOAD PUSH2 0x910 SWAP1 PUSH2 0x366E JUMP JUMPDEST DUP1 ISZERO PUSH2 0x95B JUMPI DUP1 PUSH1 0x1F LT PUSH2 0x932 JUMPI PUSH2 0x100 DUP1 DUP4 SLOAD DIV MUL DUP4 MSTORE SWAP2 PUSH1 0x20 ADD SWAP2 PUSH2 0x95B JUMP JUMPDEST DUP3 ADD SWAP2 SWAP1 PUSH0 MSTORE PUSH1 0x20 PUSH0 KECCAK256 SWAP1 JUMPDEST DUP2 SLOAD DUP2 MSTORE SWAP1 PUSH1 0x1 ADD SWAP1 PUSH1 0x20 ADD DUP1 DUP4 GT PUSH2 0x93E JUMPI DUP3 SWAP1 SUB PUSH1 0x1F AND DUP3 ADD SWAP2 JUMPDEST POP POP POP POP POP DUP2 MSTORE PUSH1 0x20 ADD PUSH1 0x9 DUP3 ADD DUP1 SLOAD PUSH2 0x974 SWAP1 PUSH2 0x366E JUMP JUMPDEST DUP1 PUSH1 0x1F ADD PUSH1 0x20 DUP1 SWAP2 DIV MUL PUSH1 0x20 ADD PUSH1 0x40 MLOAD SWAP1 DUP2 ADD PUSH1 0x40 MSTORE DUP1 SWAP3 SWAP2 SWAP1 DUP2 DUP2 MSTORE PUSH1 0x20 ADD DUP3 DUP1 SLOAD PUSH2 0x9A0 SWAP1 PUSH2 0x366E JUMP JUMPDEST DUP1 ISZERO PUSH2 0x9EB JUMPI DUP1 PUSH1 0x1F LT PUSH2 0x9C2 JUMPI PUSH2 0x100 DUP1 DUP4 SLOAD DIV MUL DUP4 MSTORE SWAP2 PUSH1 0x20 ADD SWAP2 PUSH2 0x9EB JUMP JUMPDEST DUP3 ADD SWAP2 SWAP1 PUSH0 MSTORE PUSH1 0x20 PUSH0 KECCAK256 SWAP1 JUMPDEST DUP2 SLOAD DUP2 MSTORE SWAP1 PUSH1 0x1 ADD SWAP1 PUSH1 0x20 ADD DUP1 DUP4 GT PUSH2 0x9CE JUMPI DUP3 SWAP1 SUB PUSH1 0x1F AND DUP3 ADD SWAP2 JUMPDEST POP POP POP POP POP DUP2 MSTORE PUSH1 0x20 ADD PUSH1 0xA DUP3 ADD DUP1 SLOAD PUSH2 0xA04 SWAP1 PUSH2 0x366E JUMP JUMPDEST DUP1 PUSH1 0x1F ADD PUSH1 0x20 DUP1 SWAP2 DIV MUL PUSH1 0x20 ADD PUSH1 0x40 MLOAD SWAP1 DUP2 ADD PUSH1 0x40 MSTORE DUP1 SWAP3 SWAP2 SWAP1 DUP2 DUP2 MSTORE PUSH1 0x20 ADD DUP3 DUP1 SLOAD PUSH2 0xA30 SWAP1 PUSH2 0x366E JUMP JUMPDEST DUP1 ISZERO PUSH2 0xA7B JUMPI DUP1 PUSH1 0x1F LT PUSH2 0xA52 JUMPI PUSH2 0x100 DUP1 DUP4 SLOAD DIV MUL DUP4 MSTORE SWAP2 PUSH1 0x20 ADD SWAP2 PUSH2 0xA7B JUMP JUMPDEST DUP3 ADD SWAP2 SWAP1 PUSH0 MSTORE PUSH1 0x20 PUSH0 KECCAK256 SWAP1 JUMPDEST DUP2 SLOAD DUP2 MSTORE SWAP1 PUSH1 0x1 ADD SWAP1 PUSH1 0x20 ADD DUP1 DUP4 GT PUSH2 0xA5E JUMPI DUP3 SWAP1 SUB PUSH1 0x1F AND DUP3 ADD SWAP2 JUMPDEST POP POP POP SWAP2 DUP4 MSTORE POP POP PUSH1 0xB DUP3 ADD SLOAD PUSH1 0x20 DUP3 ADD MSTORE PUSH1 0xC DUP3 ADD SLOAD PUSH1 0xFF AND ISZERO ISZERO PUSH1 0x40 DUP3 ADD MSTORE PUSH1 0xD DUP3 ADD DUP1 SLOAD PUSH1 0x60 SWAP1 SWAP3 ADD SWAP2 PUSH2 0xAB1 SWAP1 PUSH2 0x366E JUMP JUMPDEST DUP1 PUSH1 0x1F ADD PUSH1 0x20 DUP1 SWAP2 DIV MUL PUSH1 0x20 ADD PUSH1 0x40 MLOAD SWAP1 DUP2 ADD PUSH1 0x40 MSTORE DUP1 SWAP3 SWAP2 SWAP1 DUP2 DUP2 MSTORE PUSH1 0x20 ADD DUP3 DUP1 SLOAD PUSH2 0xADD SWAP1 PUSH2 0x366E JUMP JUMPDEST DUP1 ISZERO PUSH2 0xB28 JUMPI DUP1 PUSH1 0x1F LT PUSH2 0xAFF JUMPI PUSH2 0x100 DUP1 DUP4 SLOAD DIV MUL DUP4 MSTORE SWAP2 PUSH1 0x20 ADD SWAP2 PUSH2 0xB28 JUMP JUMPDEST DUP3 ADD SWAP2 SWAP1 PUSH0 MSTORE PUSH1 0x20 PUSH0 KECCAK256 SWAP1 JUMPDEST DUP2 SLOAD DUP2 MSTORE SWAP1 PUSH1 0x1 ADD SWAP1 PUSH1 0x20 ADD DUP1 DUP4 GT PUSH2 0xB0B JUMPI DUP3 SWAP1 SUB PUSH1 0x1F AND DUP3 ADD SWAP2 JUMPDEST POP POP POP POP POP DUP2 MSTORE PUSH1 0x20 ADD PUSH1 0xE DUP3 ADD DUP1 SLOAD PUSH2 0xB41 SWAP1 PUSH2 0x366E JUMP JUMPDEST DUP1 PUSH1 0x1F ADD PUSH1 0x20 DUP1 SWAP2 DIV MUL PUSH1 0x20 ADD PUSH1 0x40 MLOAD SWAP1 DUP2 ADD PUSH1 0x40 MSTORE DUP1 SWAP3 SWAP2 SWAP1 DUP2 DUP2 MSTORE PUSH1 0x20 ADD DUP3 DUP1 SLOAD PUSH2 0xB6D SWAP1 PUSH2 0x366E JUMP JUMPDEST DUP1 ISZERO PUSH2 0xBB8 JUMPI DUP1 PUSH1 0x1F LT PUSH2 0xB8F JUMPI PUSH2 0x100 DUP1 DUP4 SLOAD DIV MUL DUP4 MSTORE SWAP2 PUSH1 0x20 ADD SWAP2 PUSH2 0xBB8 JUMP JUMPDEST DUP3 ADD SWAP2 SWAP1 PUSH0 MSTORE PUSH1 0x20 PUSH0 KECCAK256 SWAP1 JUMPDEST DUP2 SLOAD DUP2 MSTORE SWAP1 PUSH1 0x1 ADD SWAP1 PUSH1 0x20 ADD DUP1 DUP4 GT PUSH2 0xB9B JUMPI DUP3 SWAP1 SUB PUSH1 0x1F AND DUP3 ADD SWAP2 JUMPDEST POP POP POP POP POP DUP2 MSTORE PUSH1 0x20 ADD PUSH1 0xF DUP3 ADD DUP1 SLOAD PUSH2 0xBD1 SWAP1 PUSH2 0x366E JUMP JUMPDEST DUP1 PUSH1 0x1F ADD PUSH1 0x20 DUP1 SWAP2 DIV MUL PUSH1 0x20 ADD PUSH1 0x40 MLOAD SWAP1 DUP2 ADD PUSH1 0x40 MSTORE DUP1 SWAP3 SWAP2 SWAP1 DUP2 DUP2 MSTORE PUSH1 0x20 ADD DUP3 DUP1 SLOAD PUSH2 0xBFD SWAP1 PUSH2 0x366E JUMP JUMPDEST DUP1 ISZERO PUSH2 0xC48 JUMPI DUP1 PUSH1 0x1F LT PUSH2 0xC1F JUMPI PUSH2 0x100 DUP1 DUP4 SLOAD DIV MUL DUP4 MSTORE SWAP2 PUSH1 0x20 ADD SWAP2 PUSH2 0xC48 JUMP JUMPDEST DUP3 ADD SWAP2 SWAP1 PUSH0 MSTORE PUSH1 0x20 PUSH0 KECCAK256 SWAP1 JUMPDEST DUP2 SLOAD DUP2 MSTORE SWAP1 PUSH1 0x1 ADD SWAP1 PUSH1 0x20 ADD DUP1 DUP4 GT PUSH2 0xC2B JUMPI DUP3 SWAP1 SUB PUSH1 0x1F AND DUP3 ADD SWAP2 JUMPDEST POP POP POP POP POP DUP2 MSTORE PUSH1 0x20 ADD PUSH1 0x10 DUP3 ADD DUP1 SLOAD PUSH2 0xC61 SWAP1 PUSH2 0x366E JUMP JUMPDEST DUP1 PUSH1 0x1F ADD PUSH1 0x20 DUP1 SWAP2 DIV MUL PUSH1 0x20 ADD PUSH1 0x40 MLOAD SWAP1 DUP2 ADD PUSH1 0x40 MSTORE DUP1 SWAP3 SWAP2 SWAP1 DUP2 DUP2 MSTORE PUSH1 0x20 ADD DUP3 DUP1 SLOAD PUSH2 0xC8D SWAP1 PUSH2 0x366E JUMP JUMPDEST DUP1 ISZERO PUSH2 0xCD8 JUMPI DUP1 PUSH1 0x1F LT PUSH2 0xCAF JUMPI PUSH2 0x100 DUP1 DUP4 SLOAD DIV MUL DUP4 MSTORE SWAP2 PUSH1 0x20 ADD SWAP2 PUSH2 0xCD8 JUMP JUMPDEST DUP3 ADD SWAP2 SWAP1 PUSH0 MSTORE PUSH1 0x20 PUSH0 KECCAK256 SWAP1 JUMPDEST DUP2 SLOAD DUP2 MSTORE SWAP1 PUSH1 0x1 ADD SWAP1 PUSH1 0x20 ADD DUP1 DUP4 GT PUSH2 0xCBB JUMPI DUP3 SWAP1 SUB PUSH1 0x1F AND DUP3 ADD SWAP2 JUMPDEST POP POP POP POP POP DUP2 MSTORE POP POP DUP2 MSTORE POP POP DUP3 DUP3 DUP2 MLOAD DUP2 LT PUSH2 0xCF7 JUMPI PUSH2 0xCF7 PUSH2 0x381D JUMP JUMPDEST PUSH1 0x20 SWAP1 DUP2 MUL SWAP2 SWAP1 SWAP2 ADD ADD MSTORE PUSH1 0x1 ADD PUSH2 0x4F3 JUMP JUMPDEST POP SWAP2 SWAP1 POP JUMP JUMPDEST PUSH2 0xD18 PUSH2 0x2F6D JUMP JUMPDEST PUSH0 DUP3 DUP2 MSTORE PUSH1 0x20 DUP2 SWAP1 MSTORE PUSH1 0x40 SWAP1 DUP2 SWAP1 KECCAK256 DUP2 MLOAD PUSH1 0x80 DUP2 ADD SWAP1 SWAP3 MSTORE DUP1 SLOAD DUP3 SWAP1 DUP3 SWAP1 PUSH2 0xD3F SWAP1 PUSH2 0x366E JUMP JUMPDEST DUP1 PUSH1 0x1F ADD PUSH1 0x20 DUP1 SWAP2 DIV MUL PUSH1 0x20 ADD PUSH1 0x40 MLOAD SWAP1 DUP2 ADD PUSH1 0x40 MSTORE DUP1 SWAP3 SWAP2 SWAP1 DUP2 DUP2 MSTORE PUSH1 0x20 ADD DUP3 DUP1 SLOAD PUSH2 0xD6B SWAP1 PUSH2 0x366E JUMP JUMPDEST DUP1 ISZERO PUSH2 0xDB6 JUMPI DUP1 PUSH1 0x1F LT PUSH2 0xD8D JUMPI PUSH2 0x100 DUP1 DUP4 SLOAD DIV MUL DUP4 MSTORE SWAP2 PUSH1 0x20 ADD SWAP2 PUSH2 0xDB6 JUMP JUMPDEST DUP3 ADD SWAP2 SWAP1 PUSH0 MSTORE PUSH1 0x20 PUSH0 KECCAK256 SWAP1 JUMPDEST DUP2 SLOAD DUP2 MSTORE SWAP1 PUSH1 0x1 ADD SWAP1 PUSH1 0x20 ADD DUP1 DUP4 GT PUSH2 0xD99 JUMPI DUP3 SWAP1 SUB PUSH1 0x1F AND DUP3 ADD SWAP2 JUMPDEST POP POP POP POP POP DUP2 MSTORE PUSH1 0x20 ADD PUSH1 0x1 DUP3 ADD SLOAD DUP2 MSTORE PUSH1 0x20 ADD PUSH1 0x2 DUP3 ADD DUP1 SLOAD PUSH2 0xDD9 SWAP1 PUSH2 0x366E JUMP JUMPDEST DUP1 PUSH1 0x1F ADD PUSH1 0x20 DUP1 SWAP2 DIV MUL PUSH1 0x20 ADD PUSH1 0x40 MLOAD SWAP1 DUP2 ADD PUSH1 0x40 MSTORE DUP1 SWAP3 SWAP2 SWAP1 DUP2 DUP2 MSTORE PUSH1 0x20 ADD DUP3 DUP1 SLOAD PUSH2 0xE05 SWAP1 PUSH2 0x366E JUMP JUMPDEST DUP1 ISZERO PUSH2 0xE50 JUMPI DUP1 PUSH1 0x1F LT PUSH2 0xE27 JUMPI PUSH2 0x100 DUP1 DUP4 SLOAD DIV MUL DUP4 MSTORE SWAP2 PUSH1 0x20 ADD SWAP2 PUSH2 0xE50 JUMP JUMPDEST DUP3 ADD SWAP2 SWAP1 PUSH0 MSTORE PUSH1 0x20 PUSH0 KECCAK256 SWAP1 JUMPDEST DUP2 SLOAD DUP2 MSTORE SWAP1 PUSH1 0x1 ADD SWAP1 PUSH1 0x20 ADD DUP1 DUP4 GT PUSH2 0xE33 JUMPI DUP3 SWAP1 SUB PUSH1 0x1F AND DUP3 ADD SWAP2 JUMPDEST POP POP POP POP POP DUP2 MSTORE PUSH1 0x20 ADD PUSH1 0x3 DUP3 ADD PUSH1 0x40 MLOAD DUP1 PUSH2 0x220 ADD PUSH1 0x40 MSTORE SWAP1 DUP2 PUSH0 DUP3 ADD SLOAD DUP2 MSTORE PUSH1 0x20 ADD PUSH1 0x1 DUP3 ADD SLOAD DUP2 MSTORE PUSH1 0x20 ADD PUSH1 0x2 DUP3 ADD DUP1 SLOAD PUSH2 0xE8D SWAP1 PUSH2 0x366E JUMP JUMPDEST DUP1 PUSH1 0x1F ADD PUSH1 0x20 DUP1 SWAP2 DIV MUL PUSH1 0x20 ADD PUSH1 0x40 MLOAD SWAP1 DUP2 ADD PUSH1 0x40 MSTORE DUP1 SWAP3 SWAP2 SWAP1 DUP2 DUP2 MSTORE PUSH1 0x20 ADD DUP3 DUP1 SLOAD PUSH2 0xEB9 SWAP1 PUSH2 0x366E JUMP JUMPDEST DUP1 ISZERO PUSH2 0xF04 JUMPI DUP1 PUSH1 0x1F LT PUSH2 0xEDB JUMPI PUSH2 0x100 DUP1 DUP4 SLOAD DIV MUL DUP4 MSTORE SWAP2 PUSH1 0x20 ADD SWAP2 PUSH2 0xF04 JUMP JUMPDEST DUP3 ADD SWAP2 SWAP1 PUSH0 MSTORE PUSH1 0x20 PUSH0 KECCAK256 SWAP1 JUMPDEST DUP2 SLOAD DUP2 MSTORE SWAP1 PUSH1 0x1 ADD SWAP1 PUSH1 0x20 ADD DUP1 DUP4 GT PUSH2 0xEE7 JUMPI DUP3 SWAP1 SUB PUSH1 0x1F AND DUP3 ADD SWAP2 JUMPDEST POP POP POP POP POP DUP2 MSTORE PUSH1 0x20 ADD PUSH1 0x3 DUP3 ADD DUP1 SLOAD PUSH2 0xF1D SWAP1 PUSH2 0x366E JUMP JUMPDEST DUP1 PUSH1 0x1F ADD PUSH1 0x20 DUP1 SWAP2 DIV MUL PUSH1 0x20 ADD PUSH1 0x40 MLOAD SWAP1 DUP2 ADD PUSH1 0x40 MSTORE DUP1 SWAP3 SWAP2 SWAP1 DUP2 DUP2 MSTORE PUSH1 0x20 ADD DUP3 DUP1 SLOAD PUSH2 0xF49 SWAP1 PUSH2 0x366E JUMP JUMPDEST DUP1 ISZERO PUSH2 0xF94 JUMPI DUP1 PUSH1 0x1F LT PUSH2 0xF6B JUMPI PUSH2 0x100 DUP1 DUP4 SLOAD DIV MUL DUP4 MSTORE SWAP2 PUSH1 0x20 ADD SWAP2 PUSH2 0xF94 JUMP JUMPDEST DUP3 ADD SWAP2 SWAP1 PUSH0 MSTORE PUSH1 0x20 PUSH0 KECCAK256 SWAP1 JUMPDEST DUP2 SLOAD DUP2 MSTORE SWAP1 PUSH1 0x1 ADD SWAP1 PUSH1 0x20 ADD DUP1 DUP4 GT PUSH2 0xF77 JUMPI DUP3 SWAP1 SUB PUSH1 0x1F AND DUP3 ADD SWAP2 JUMPDEST POP POP POP POP POP DUP2 MSTORE PUSH1 0x20 ADD PUSH1 0x4 DUP3 ADD SLOAD DUP2 MSTORE PUSH1 0x20 ADD PUSH1 0x5 DUP3 ADD SLOAD DUP2 MSTORE PUSH1 0x20 ADD PUSH1 0x6 DUP3 ADD DUP1 SLOAD PUSH2 0xFC1 SWAP1 PUSH2 0x366E JUMP JUMPDEST DUP1 PUSH1 0x1F ADD PUSH1 0x20 DUP1 SWAP2 DIV MUL PUSH1 0x20 ADD PUSH1 0x40 MLOAD SWAP1 DUP2 ADD PUSH1 0x40 MSTORE DUP1 SWAP3 SWAP2 SWAP1 DUP2 DUP2 MSTORE PUSH1 0x20 ADD DUP3 DUP1 SLOAD PUSH2 0xFED SWAP1 PUSH2 0x366E JUMP JUMPDEST DUP1 ISZERO PUSH2 0x1038 JUMPI DUP1 PUSH1 0x1F LT PUSH2 0x100F JUMPI PUSH2 0x100 DUP1 DUP4 SLOAD DIV MUL DUP4 MSTORE SWAP2 PUSH1 0x20 ADD SWAP2 PUSH2 0x1038 JUMP JUMPDEST DUP3 ADD SWAP2 SWAP1 PUSH0 MSTORE PUSH1 0x20 PUSH0 KECCAK256 SWAP1 JUMPDEST DUP2 SLOAD DUP2 MSTORE SWAP1 PUSH1 0x1 ADD SWAP1 PUSH1 0x20 ADD DUP1 DUP4 GT PUSH2 0x101B JUMPI DUP3 SWAP1 SUB PUSH1 0x1F AND DUP3 ADD SWAP2 JUMPDEST POP POP POP POP POP DUP2 MSTORE PUSH1 0x20 ADD PUSH1 0x7 DUP3 ADD DUP1 SLOAD PUSH2 0x1051 SWAP1 PUSH2 0x366E JUMP JUMPDEST DUP1 PUSH1 0x1F ADD PUSH1 0x20 DUP1 SWAP2 DIV MUL PUSH1 0x20 ADD PUSH1 0x40 MLOAD SWAP1 DUP2 ADD PUSH1 0x40 MSTORE DUP1 SWAP3 SWAP2 SWAP1 DUP2 DUP2 MSTORE PUSH1 0x20 ADD DUP3 DUP1 SLOAD PUSH2 0x107D SWAP1 PUSH2 0x366E JUMP JUMPDEST DUP1 ISZERO PUSH2 0x10C8 JUMPI DUP1 PUSH1 0x1F LT PUSH2 0x109F JUMPI PUSH2 0x100 DUP1 DUP4 SLOAD DIV MUL DUP4 MSTORE SWAP2 PUSH1 0x20 ADD SWAP2 PUSH2 0x10C8 JUMP JUMPDEST DUP3 ADD SWAP2 SWAP1 PUSH0 MSTORE PUSH1 0x20 PUSH0 KECCAK256 SWAP1 JUMPDEST DUP2 SLOAD DUP2 MSTORE SWAP1 PUSH1 0x1 ADD SWAP1 PUSH1 0x20 ADD DUP1 DUP4 GT PUSH2 0x10AB JUMPI DUP3 SWAP1 SUB PUSH1 0x1F AND DUP3 ADD SWAP2 JUMPDEST POP POP POP POP POP DUP2 MSTORE PUSH1 0x20 ADD PUSH1 0x8 DUP3 ADD DUP1 SLOAD PUSH2 0x10E1 SWAP1 PUSH2 0x366E JUMP JUMPDEST DUP1 PUSH1 0x1F ADD PUSH1 0x20 DUP1 SWAP2 DIV MUL PUSH1 0x20 ADD PUSH1 0x40 MLOAD SWAP1 DUP2 ADD PUSH1 0x40 MSTORE DUP1 SWAP3 SWAP2 SWAP1 DUP2 DUP2 MSTORE PUSH1 0x20 ADD DUP3 DUP1 SLOAD PUSH2 0x110D SWAP1 PUSH2 0x366E JUMP JUMPDEST DUP1 ISZERO PUSH2 0x1158 JUMPI DUP1 PUSH1 0x1F LT PUSH2 0x112F JUMPI PUSH2 0x100 DUP1 DUP4 SLOAD DIV MUL DUP4 MSTORE SWAP2 PUSH1 0x20 ADD SWAP2 PUSH2 0x1158 JUMP JUMPDEST DUP3 ADD SWAP2 SWAP1 PUSH0 MSTORE PUSH1 0x20 PUSH0 KECCAK256 SWAP1 JUMPDEST DUP2 SLOAD DUP2 MSTORE SWAP1 PUSH1 0x1 ADD SWAP1 PUSH1 0x20 ADD DUP1 DUP4 GT PUSH2 0x113B JUMPI DUP3 SWAP1 SUB PUSH1 0x1F AND DUP3 ADD SWAP2 JUMPDEST POP POP POP POP POP DUP2 MSTORE PUSH1 0x20 ADD PUSH1 0x9 DUP3 ADD DUP1 SLOAD PUSH2 0x1171 SWAP1 PUSH2 0x366E JUMP JUMPDEST DUP1 PUSH1 0x1F ADD PUSH1 0x20 DUP1 SWAP2 DIV MUL PUSH1 0x20 ADD PUSH1 0x40 MLOAD SWAP1 DUP2 ADD PUSH1 0x40 MSTORE DUP1 SWAP3 SWAP2 SWAP1 DUP2 DUP2 MSTORE PUSH1 0x20 ADD DUP3 DUP1 SLOAD PUSH2 0x119D SWAP1 PUSH2 0x366E JUMP JUMPDEST DUP1 ISZERO PUSH2 0x11E8 JUMPI DUP1 PUSH1 0x1F LT PUSH2 0x11BF JUMPI PUSH2 0x100 DUP1 DUP4 SLOAD DIV MUL DUP4 MSTORE SWAP2 PUSH1 0x20 ADD SWAP2 PUSH2 0x11E8 JUMP JUMPDEST DUP3 ADD SWAP2 SWAP1 PUSH0 MSTORE PUSH1 0x20 PUSH0 KECCAK256 SWAP1 JUMPDEST DUP2 SLOAD DUP2 MSTORE SWAP1 PUSH1 0x1 ADD SWAP1 PUSH1 0x20 ADD DUP1 DUP4 GT PUSH2 0x11CB JUMPI DUP3 SWAP1 SUB PUSH1 0x1F AND DUP3 ADD SWAP2 JUMPDEST POP POP POP POP POP DUP2 MSTORE PUSH1 0x20 ADD PUSH1 0xA DUP3 ADD DUP1 SLOAD PUSH2 0x1201 SWAP1 PUSH2 0x366E JUMP JUMPDEST DUP1 PUSH1 0x1F ADD PUSH1 0x20 DUP1 SWAP2 DIV MUL PUSH1 0x20 ADD PUSH1 0x40 MLOAD SWAP1 DUP2 ADD PUSH1 0x40 MSTORE DUP1 SWAP3 SWAP2 SWAP1 DUP2 DUP2 MSTORE PUSH1 0x20 ADD DUP3 DUP1 SLOAD PUSH2 0x122D SWAP1 PUSH2 0x366E JUMP JUMPDEST DUP1 ISZERO PUSH2 0x1278 JUMPI DUP1 PUSH1 0x1F LT PUSH2 0x124F JUMPI PUSH2 0x100 DUP1 DUP4 SLOAD DIV MUL DUP4 MSTORE SWAP2 PUSH1 0x20 ADD SWAP2 PUSH2 0x1278 JUMP JUMPDEST DUP3 ADD SWAP2 SWAP1 PUSH0 MSTORE PUSH1 0x20 PUSH0 KECCAK256 SWAP1 JUMPDEST DUP2 SLOAD DUP2 MSTORE SWAP1 PUSH1 0x1 ADD SWAP1 PUSH1 0x20 ADD DUP1 DUP4 GT PUSH2 0x125B JUMPI DUP3 SWAP1 SUB PUSH1 0x1F AND DUP3 ADD SWAP2 JUMPDEST POP POP POP SWAP2 DUP4 MSTORE POP POP PUSH1 0xB DUP3 ADD SLOAD PUSH1 0x20 DUP3 ADD MSTORE PUSH1 0xC DUP3 ADD SLOAD PUSH1 0xFF AND ISZERO ISZERO PUSH1 0x40 DUP3 ADD MSTORE PUSH1 0xD DUP3 ADD DUP1 SLOAD PUSH1 0x60 SWAP1 SWAP3 ADD SWAP2 PUSH2 0x12AE SWAP1 PUSH2 0x366E JUMP JUMPDEST DUP1 PUSH1 0x1F ADD PUSH1 0x20 DUP1 SWAP2 DIV MUL PUSH1 0x20 ADD PUSH1 0x40 MLOAD SWAP1 DUP2 ADD PUSH1 0x40 MSTORE DUP1 SWAP3 SWAP2 SWAP1 DUP2 DUP2 MSTORE PUSH1 0x20 ADD DUP3 DUP1 SLOAD PUSH2 0x12DA SWAP1 PUSH2 0x366E JUMP JUMPDEST DUP1 ISZERO PUSH2 0x1325 JUMPI DUP1 PUSH1 0x1F LT PUSH2 0x12FC JUMPI PUSH2 0x100 DUP1 DUP4 SLOAD DIV MUL DUP4 MSTORE SWAP2 PUSH1 0x20 ADD SWAP2 PUSH2 0x1325 JUMP JUMPDEST DUP3 ADD SWAP2 SWAP1 PUSH0 MSTORE PUSH1 0x20 PUSH0 KECCAK256 SWAP1 JUMPDEST DUP2 SLOAD DUP2 MSTORE SWAP1 PUSH1 0x1 ADD SWAP1 PUSH1 0x20 ADD DUP1 DUP4 GT PUSH2 0x1308 JUMPI DUP3 SWAP1 SUB PUSH1 0x1F AND DUP3 ADD SWAP2 JUMPDEST POP POP POP POP POP DUP2 MSTORE PUSH1 0x20 ADD PUSH1 0xE DUP3 ADD DUP1 SLOAD PUSH2 0x133E SWAP1 PUSH2 0x366E JUMP JUMPDEST DUP1 PUSH1 0x1F ADD PUSH1 0x20 DUP1 SWAP2 DIV MUL PUSH1 0x20 ADD PUSH1 0x40 MLOAD SWAP1 DUP2 ADD PUSH1 0x40 MSTORE DUP1 SWAP3 SWAP2 SWAP1 DUP2 DUP2 MSTORE PUSH1 0x20 ADD DUP3 DUP1 SLOAD PUSH2 0x136A SWAP1 PUSH2 0x366E JUMP JUMPDEST DUP1 ISZERO PUSH2 0x13B5 JUMPI DUP1 PUSH1 0x1F LT PUSH2 0x138C JUMPI PUSH2 0x100 DUP1 DUP4 SLOAD DIV MUL DUP4 MSTORE SWAP2 PUSH1 0x20 ADD SWAP2 PUSH2 0x13B5 JUMP JUMPDEST DUP3 ADD SWAP2 SWAP1 PUSH0 MSTORE PUSH1 0x20 PUSH0 KECCAK256 SWAP1 JUMPDEST DUP2 SLOAD DUP2 MSTORE SWAP1 PUSH1 0x1 ADD SWAP1 PUSH1 0x20 ADD DUP1 DUP4 GT PUSH2 0x1398 JUMPI DUP3 SWAP1 SUB PUSH1 0x1F AND DUP3 ADD SWAP2 JUMPDEST POP POP POP POP POP DUP2 MSTORE PUSH1 0x20 ADD PUSH1 0xF DUP3 ADD DUP1 SLOAD PUSH2 0x13CE SWAP1 PUSH2 0x366E JUMP JUMPDEST DUP1 PUSH1 0x1F ADD PUSH1 0x20 DUP1 SWAP2 DIV MUL PUSH1 0x20 ADD PUSH1 0x40 MLOAD SWAP1 DUP2 ADD PUSH1 0x40 MSTORE DUP1 SWAP3 SWAP2 SWAP1 DUP2 DUP2 MSTORE PUSH1 0x20 ADD DUP3 DUP1 SLOAD PUSH2 0x13FA SWAP1 PUSH2 0x366E JUMP JUMPDEST DUP1 ISZERO PUSH2 0x1445 JUMPI DUP1 PUSH1 0x1F LT PUSH2 0x141C JUMPI PUSH2 0x100 DUP1 DUP4 SLOAD DIV MUL DUP4 MSTORE SWAP2 PUSH1 0x20 ADD SWAP2 PUSH2 0x1445 JUMP JUMPDEST DUP3 ADD SWAP2 SWAP1 PUSH0 MSTORE PUSH1 0x20 PUSH0 KECCAK256 SWAP1 JUMPDEST DUP2 SLOAD DUP2 MSTORE SWAP1 PUSH1 0x1 ADD SWAP1 PUSH1 0x20 ADD DUP1 DUP4 GT PUSH2 0x1428 JUMPI DUP3 SWAP1 SUB PUSH1 0x1F AND DUP3 ADD SWAP2 JUMPDEST POP POP POP POP POP DUP2 MSTORE PUSH1 0x20 ADD PUSH1 0x10 DUP3 ADD DUP1 SLOAD PUSH2 0x145E SWAP1 PUSH2 0x366E JUMP JUMPDEST DUP1 PUSH1 0x1F ADD PUSH1 0x20 DUP1 SWAP2 DIV MUL PUSH1 0x20 ADD PUSH1 0x40 MLOAD SWAP1 DUP2 ADD PUSH1 0x40 MSTORE DUP1 SWAP3 SWAP2 SWAP1 DUP2 DUP2 MSTORE PUSH1 0x20 ADD DUP3 DUP1 SLOAD PUSH2 0x148A SWAP1 PUSH2 0x366E JUMP JUMPDEST DUP1 ISZERO PUSH2 0x14D5 JUMPI DUP1 PUSH1 0x1F LT PUSH2 0x14AC JUMPI PUSH2 0x100 DUP1 DUP4 SLOAD DIV MUL DUP4 MSTORE SWAP2 PUSH1 0x20 ADD SWAP2 PUSH2 0x14D5 JUMP JUMPDEST DUP3 ADD SWAP2 SWAP1 PUSH0 MSTORE PUSH1 0x20 PUSH0 KECCAK256 SWAP1 JUMPDEST DUP2 SLOAD DUP2 MSTORE SWAP1 PUSH1 0x1 ADD SWAP1 PUSH1 0x20 ADD DUP1 DUP4 GT PUSH2 0x14B8 JUMPI DUP3 SWAP1 SUB PUSH1 0x1F AND DUP3 ADD SWAP2 JUMPDEST POP POP POP SWAP2 SWAP1 SWAP3 MSTORE POP POP POP SWAP1 MSTORE POP SWAP3 SWAP2 POP POP JUMP JUMPDEST PUSH1 0x60 PUSH0 TIMESTAMP DUP2 JUMPDEST PUSH1 0x1 SLOAD DUP2 LT ISZERO PUSH2 0x1543 JUMPI PUSH0 PUSH1 0x1 DUP3 DUP2 SLOAD DUP2 LT PUSH2 0x150C JUMPI PUSH2 0x150C PUSH2 0x381D JUMP JUMPDEST SWAP1 PUSH0 MSTORE PUSH1 0x20 PUSH0 KECCAK256 ADD SLOAD SWAP1 POP DUP6 DUP2 LT ISZERO DUP1 ISZERO PUSH2 0x1527 JUMPI POP DUP3 DUP2 GT ISZERO JUMPDEST ISZERO PUSH2 0x153A JUMPI DUP4 PUSH2 0x1536 DUP2 PUSH2 0x3845 JUMP JUMPDEST SWAP5 POP POP JUMPDEST POP PUSH1 0x1 ADD PUSH2 0x14EE JUMP JUMPDEST POP PUSH0 DUP3 PUSH1 0x1 PUSH1 0x1 PUSH1 0x40 SHL SUB DUP2 GT ISZERO PUSH2 0x155D JUMPI PUSH2 0x155D PUSH2 0x3359 JUMP JUMPDEST PUSH1 0x40 MLOAD SWAP1 DUP1 DUP3 MSTORE DUP1 PUSH1 0x20 MUL PUSH1 0x20 ADD DUP3 ADD PUSH1 0x40 MSTORE DUP1 ISZERO PUSH2 0x1596 JUMPI DUP2 PUSH1 0x20 ADD JUMPDEST PUSH2 0x1583 PUSH2 0x2F6D JUMP JUMPDEST DUP2 MSTORE PUSH1 0x20 ADD SWAP1 PUSH1 0x1 SWAP1 SUB SWAP1 DUP2 PUSH2 0x157B JUMPI SWAP1 POP JUMPDEST POP SWAP1 POP PUSH0 DUP1 JUMPDEST PUSH1 0x1 SLOAD DUP2 LT ISZERO PUSH2 0x1DD9 JUMPI PUSH0 PUSH1 0x1 DUP3 DUP2 SLOAD DUP2 LT PUSH2 0x15BA JUMPI PUSH2 0x15BA PUSH2 0x381D JUMP JUMPDEST SWAP1 PUSH0 MSTORE PUSH1 0x20 PUSH0 KECCAK256 ADD SLOAD SWAP1 POP DUP8 DUP2 LT ISZERO DUP1 ISZERO PUSH2 0x15D5 JUMPI POP DUP5 DUP2 GT ISZERO JUMPDEST ISZERO PUSH2 0x1DD0 JUMPI PUSH0 DUP2 DUP2 MSTORE PUSH1 0x20 DUP2 SWAP1 MSTORE PUSH1 0x40 SWAP1 DUP2 SWAP1 KECCAK256 DUP2 MLOAD PUSH1 0x80 DUP2 ADD SWAP1 SWAP3 MSTORE DUP1 SLOAD DUP3 SWAP1 DUP3 SWAP1 PUSH2 0x1601 SWAP1 PUSH2 0x366E JUMP JUMPDEST DUP1 PUSH1 0x1F ADD PUSH1 0x20 DUP1 SWAP2 DIV MUL PUSH1 0x20 ADD PUSH1 0x40 MLOAD SWAP1 DUP2 ADD PUSH1 0x40 MSTORE DUP1 SWAP3 SWAP2 SWAP1 DUP2 DUP2 MSTORE PUSH1 0x20 ADD DUP3 DUP1 SLOAD PUSH2 0x162D SWAP1 PUSH2 0x366E JUMP JUMPDEST DUP1 ISZERO PUSH2 0x1678 JUMPI DUP1 PUSH1 0x1F LT PUSH2 0x164F JUMPI PUSH2 0x100 DUP1 DUP4 SLOAD DIV MUL DUP4 MSTORE SWAP2 PUSH1 0x20 ADD SWAP2 PUSH2 0x1678 JUMP JUMPDEST DUP3 ADD SWAP2 SWAP1 PUSH0 MSTORE PUSH1 0x20 PUSH0 KECCAK256 SWAP1 JUMPDEST DUP2 SLOAD DUP2 MSTORE SWAP1 PUSH1 0x1 ADD SWAP1 PUSH1 0x20 ADD DUP1 DUP4 GT PUSH2 0x165B JUMPI DUP3 SWAP1 SUB PUSH1 0x1F AND DUP3 ADD SWAP2 JUMPDEST POP POP POP POP POP DUP2 MSTORE PUSH1 0x20 ADD PUSH1 0x1 DUP3 ADD SLOAD DUP2 MSTORE PUSH1 0x20 ADD PUSH1 0x2 DUP3 ADD DUP1 SLOAD PUSH2 0x169B SWAP1 PUSH2 0x366E JUMP JUMPDEST DUP1 PUSH1 0x1F ADD PUSH1 0x20 DUP1 SWAP2 DIV MUL PUSH1 0x20 ADD PUSH1 0x40 MLOAD SWAP1 DUP2 ADD PUSH1 0x40 MSTORE DUP1 SWAP3 SWAP2 SWAP1 DUP2 DUP2 MSTORE PUSH1 0x20 ADD DUP3 DUP1 SLOAD PUSH2 0x16C7 SWAP1 PUSH2 0x366E JUMP JUMPDEST DUP1 ISZERO PUSH2 0x1712 JUMPI DUP1 PUSH1 0x1F LT PUSH2 0x16E9 JUMPI PUSH2 0x100 DUP1 DUP4 SLOAD DIV MUL DUP4 MSTORE SWAP2 PUSH1 0x20 ADD SWAP2 PUSH2 0x1712 JUMP JUMPDEST DUP3 ADD SWAP2 SWAP1 PUSH0 MSTORE PUSH1 0x20 PUSH0 KECCAK256 SWAP1 JUMPDEST DUP2 SLOAD DUP2 MSTORE SWAP1 PUSH1 0x1 ADD SWAP1 PUSH1 0x20 ADD DUP1 DUP4 GT PUSH2 0x16F5 JUMPI DUP3 SWAP1 SUB PUSH1 0x1F AND DUP3 ADD SWAP2 JUMPDEST POP POP POP POP POP DUP2 MSTORE PUSH1 0x20 ADD PUSH1 0x3 DUP3 ADD PUSH1 0x40 MLOAD DUP1 PUSH2 0x220 ADD PUSH1 0x40 MSTORE SWAP1 DUP2 PUSH0 DUP3 ADD SLOAD DUP2 MSTORE PUSH1 0x20 ADD PUSH1 0x1 DUP3 ADD SLOAD DUP2 MSTORE PUSH1 0x20 ADD PUSH1 0x2 DUP3 ADD DUP1 SLOAD PUSH2 0x174F SWAP1 PUSH2 0x366E JUMP JUMPDEST DUP1 PUSH1 0x1F ADD PUSH1 0x20 DUP1 SWAP2 DIV MUL PUSH1 0x20 ADD PUSH1 0x40 MLOAD SWAP1 DUP2 ADD PUSH1 0x40 MSTORE DUP1 SWAP3 SWAP2 SWAP1 DUP2 DUP2 MSTORE PUSH1 0x20 ADD DUP3 DUP1 SLOAD PUSH2 0x177B SWAP1 PUSH2 0x366E JUMP JUMPDEST DUP1 ISZERO PUSH2 0x17C6 JUMPI DUP1 PUSH1 0x1F LT PUSH2 0x179D JUMPI PUSH2 0x100 DUP1 DUP4 SLOAD DIV MUL DUP4 MSTORE SWAP2 PUSH1 0x20 ADD SWAP2 PUSH2 0x17C6 JUMP JUMPDEST DUP3 ADD SWAP2 SWAP1 PUSH0 MSTORE PUSH1 0x20 PUSH0 KECCAK256 SWAP1 JUMPDEST DUP2 SLOAD DUP2 MSTORE SWAP1 PUSH1 0x1 ADD SWAP1 PUSH1 0x20 ADD DUP1 DUP4 GT PUSH2 0x17A9 JUMPI DUP3 SWAP1 SUB PUSH1 0x1F AND DUP3 ADD SWAP2 JUMPDEST POP POP POP POP POP DUP2 MSTORE PUSH1 0x20 ADD PUSH1 0x3 DUP3 ADD DUP1 SLOAD PUSH2 0x17DF SWAP1 PUSH2 0x366E JUMP JUMPDEST DUP1 PUSH1 0x1F ADD PUSH1 0x20 DUP1 SWAP2 DIV MUL PUSH1 0x20 ADD PUSH1 0x40 MLOAD SWAP1 DUP2 ADD PUSH1 0x40 MSTORE DUP1 SWAP3 SWAP2 SWAP1 DUP2 DUP2 MSTORE PUSH1 0x20 ADD DUP3 DUP1 SLOAD PUSH2 0x180B SWAP1 PUSH2 0x366E JUMP JUMPDEST DUP1 ISZERO PUSH2 0x1856 JUMPI DUP1 PUSH1 0x1F LT PUSH2 0x182D JUMPI PUSH2 0x100 DUP1 DUP4 SLOAD DIV MUL DUP4 MSTORE SWAP2 PUSH1 0x20 ADD SWAP2 PUSH2 0x1856 JUMP JUMPDEST DUP3 ADD SWAP2 SWAP1 PUSH0 MSTORE PUSH1 0x20 PUSH0 KECCAK256 SWAP1 JUMPDEST DUP2 SLOAD DUP2 MSTORE SWAP1 PUSH1 0x1 ADD SWAP1 PUSH1 0x20 ADD DUP1 DUP4 GT PUSH2 0x1839 JUMPI DUP3 SWAP1 SUB PUSH1 0x1F AND DUP3 ADD SWAP2 JUMPDEST POP POP POP POP POP DUP2 MSTORE PUSH1 0x20 ADD PUSH1 0x4 DUP3 ADD SLOAD DUP2 MSTORE PUSH1 0x20 ADD PUSH1 0x5 DUP3 ADD SLOAD DUP2 MSTORE PUSH1 0x20 ADD PUSH1 0x6 DUP3 ADD DUP1 SLOAD PUSH2 0x1883 SWAP1 PUSH2 0x366E JUMP JUMPDEST DUP1 PUSH1 0x1F ADD PUSH1 0x20 DUP1 SWAP2 DIV MUL PUSH1 0x20 ADD PUSH1 0x40 MLOAD SWAP1 DUP2 ADD PUSH1 0x40 MSTORE DUP1 SWAP3 SWAP2 SWAP1 DUP2 DUP2 MSTORE PUSH1 0x20 ADD DUP3 DUP1 SLOAD PUSH2 0x18AF SWAP1 PUSH2 0x366E JUMP JUMPDEST DUP1 ISZERO PUSH2 0x18FA JUMPI DUP1 PUSH1 0x1F LT PUSH2 0x18D1 JUMPI PUSH2 0x100 DUP1 DUP4 SLOAD DIV MUL DUP4 MSTORE SWAP2 PUSH1 0x20 ADD SWAP2 PUSH2 0x18FA JUMP JUMPDEST DUP3 ADD SWAP2 SWAP1 PUSH0 MSTORE PUSH1 0x20 PUSH0 KECCAK256 SWAP1 JUMPDEST DUP2 SLOAD DUP2 MSTORE SWAP1 PUSH1 0x1 ADD SWAP1 PUSH1 0x20 ADD DUP1 DUP4 GT PUSH2 0x18DD JUMPI DUP3 SWAP1 SUB PUSH1 0x1F AND DUP3 ADD SWAP2 JUMPDEST POP POP POP POP POP DUP2 MSTORE PUSH1 0x20 ADD PUSH1 0x7 DUP3 ADD DUP1 SLOAD PUSH2 0x1913 SWAP1 PUSH2 0x366E JUMP JUMPDEST DUP1 PUSH1 0x1F ADD PUSH1 0x20 DUP1 SWAP2 DIV MUL PUSH1 0x20 ADD PUSH1 0x40 MLOAD SWAP1 DUP2 ADD PUSH1 0x40 MSTORE DUP1 SWAP3 SWAP2 SWAP1 DUP2 DUP2 MSTORE PUSH1 0x20 ADD DUP3 DUP1 SLOAD PUSH2 0x193F SWAP1 PUSH2 0x366E JUMP JUMPDEST DUP1 ISZERO PUSH2 0x198A JUMPI DUP1 PUSH1 0x1F LT PUSH2 0x1961 JUMPI PUSH2 0x100 DUP1 DUP4 SLOAD DIV MUL DUP4 MSTORE SWAP2 PUSH1 0x20 ADD SWAP2 PUSH2 0x198A JUMP JUMPDEST DUP3 ADD SWAP2 SWAP1 PUSH0 MSTORE PUSH1 0x20 PUSH0 KECCAK256 SWAP1 JUMPDEST DUP2 SLOAD DUP2 MSTORE SWAP1 PUSH1 0x1 ADD SWAP1 PUSH1 0x20 ADD DUP1 DUP4 GT PUSH2 0x196D JUMPI DUP3 SWAP1 SUB PUSH1 0x1F AND DUP3 ADD SWAP2 JUMPDEST POP POP POP POP POP DUP2 MSTORE PUSH1 0x20 ADD PUSH1 0x8 DUP3 ADD DUP1 SLOAD PUSH2 0x19A3 SWAP1 PUSH2 0x366E JUMP JUMPDEST DUP1 PUSH1 0x1F ADD PUSH1 0x20 DUP1 SWAP2 DIV MUL PUSH1 0x20 ADD PUSH1 0x40 MLOAD SWAP1 DUP2 ADD PUSH1 0x40 MSTORE DUP1 SWAP3 SWAP2 SWAP1 DUP2 DUP2 MSTORE PUSH1 0x20 ADD DUP3 DUP1 SLOAD PUSH2 0x19CF SWAP1 PUSH2 0x366E JUMP JUMPDEST DUP1 ISZERO PUSH2 0x1A1A JUMPI DUP1 PUSH1 0x1F LT PUSH2 0x19F1 JUMPI PUSH2 0x100 DUP1 DUP4 SLOAD DIV MUL DUP4 MSTORE SWAP2 PUSH1 0x20 ADD SWAP2 PUSH2 0x1A1A JUMP JUMPDEST DUP3 ADD SWAP2 SWAP1 PUSH0 MSTORE PUSH1 0x20 PUSH0 KECCAK256 SWAP1 JUMPDEST DUP2 SLOAD DUP2 MSTORE SWAP1 PUSH1 0x1 ADD SWAP1 PUSH1 0x20 ADD DUP1 DUP4 GT PUSH2 0x19FD JUMPI DUP3 SWAP1 SUB PUSH1 0x1F AND DUP3 ADD SWAP2 JUMPDEST POP POP POP POP POP DUP2 MSTORE PUSH1 0x20 ADD PUSH1 0x9 DUP3 ADD DUP1 SLOAD PUSH2 0x1A33 SWAP1 PUSH2 0x366E JUMP JUMPDEST DUP1 PUSH1 0x1F ADD PUSH1 0x20 DUP1 SWAP2 DIV MUL PUSH1 0x20 ADD PUSH1 0x40 MLOAD SWAP1 DUP2 ADD PUSH1 0x40 MSTORE DUP1 SWAP3 SWAP2 SWAP1 DUP2 DUP2 MSTORE PUSH1 0x20 ADD DUP3 DUP1 SLOAD PUSH2 0x1A5F SWAP1 PUSH2 0x366E JUMP JUMPDEST DUP1 ISZERO PUSH2 0x1AAA JUMPI DUP1 PUSH1 0x1F LT PUSH2 0x1A81 JUMPI PUSH2 0x100 DUP1 DUP4 SLOAD DIV MUL DUP4 MSTORE SWAP2 PUSH1 0x20 ADD SWAP2 PUSH2 0x1AAA JUMP JUMPDEST DUP3 ADD SWAP2 SWAP1 PUSH0 MSTORE PUSH1 0x20 PUSH0 KECCAK256 SWAP1 JUMPDEST DUP2 SLOAD DUP2 MSTORE SWAP1 PUSH1 0x1 ADD SWAP1 PUSH1 0x20 ADD DUP1 DUP4 GT PUSH2 0x1A8D JUMPI DUP3 SWAP1 SUB PUSH1 0x1F AND DUP3 ADD SWAP2 JUMPDEST POP POP POP POP POP DUP2 MSTORE PUSH1 0x20 ADD PUSH1 0xA DUP3 ADD DUP1 SLOAD PUSH2 0x1AC3 SWAP1 PUSH2 0x366E JUMP JUMPDEST DUP1 PUSH1 0x1F ADD PUSH1 0x20 DUP1 SWAP2 DIV MUL PUSH1 0x20 ADD PUSH1 0x40 MLOAD SWAP1 DUP2 ADD PUSH1 0x40 MSTORE DUP1 SWAP3 SWAP2 SWAP1 DUP2 DUP2 MSTORE PUSH1 0x20 ADD DUP3 DUP1 SLOAD PUSH2 0x1AEF SWAP1 PUSH2 0x366E JUMP JUMPDEST DUP1 ISZERO PUSH2 0x1B3A JUMPI DUP1 PUSH1 0x1F LT PUSH2 0x1B11 JUMPI PUSH2 0x100 DUP1 DUP4 SLOAD DIV MUL DUP4 MSTORE SWAP2 PUSH1 0x20 ADD SWAP2 PUSH2 0x1B3A JUMP JUMPDEST DUP3 ADD SWAP2 SWAP1 PUSH0 MSTORE PUSH1 0x20 PUSH0 KECCAK256 SWAP1 JUMPDEST DUP2 SLOAD DUP2 MSTORE SWAP1 PUSH1 0x1 ADD SWAP1 PUSH1 0x20 ADD DUP1 DUP4 GT PUSH2 0x1B1D JUMPI DUP3 SWAP1 SUB PUSH1 0x1F AND DUP3 ADD SWAP2 JUMPDEST POP POP POP SWAP2 DUP4 MSTORE POP POP PUSH1 0xB DUP3 ADD SLOAD PUSH1 0x20 DUP3 ADD MSTORE PUSH1 0xC DUP3 ADD SLOAD PUSH1 0xFF AND ISZERO ISZERO PUSH1 0x40 DUP3 ADD MSTORE PUSH1 0xD DUP3 ADD DUP1 SLOAD PUSH1 0x60 SWAP1 SWAP3 ADD SWAP2 PUSH2 0x1B70 SWAP1 PUSH2 0x366E JUMP JUMPDEST DUP1 PUSH1 0x1F ADD PUSH1 0x20 DUP1 SWAP2 DIV MUL PUSH1 0x20 ADD PUSH1 0x40 MLOAD SWAP1 DUP2 ADD PUSH1 0x40 MSTORE DUP1 SWAP3 SWAP2 SWAP1 DUP2 DUP2 MSTORE PUSH1 0x20 ADD DUP3 DUP1 SLOAD PUSH2 0x1B9C SWAP1 PUSH2 0x366E JUMP JUMPDEST DUP1 ISZERO PUSH2 0x1BE7 JUMPI DUP1 PUSH1 0x1F LT PUSH2 0x1BBE JUMPI PUSH2 0x100 DUP1 DUP4 SLOAD DIV MUL DUP4 MSTORE SWAP2 PUSH1 0x20 ADD SWAP2 PUSH2 0x1BE7 JUMP JUMPDEST DUP3 ADD SWAP2 SWAP1 PUSH0 MSTORE PUSH1 0x20 PUSH0 KECCAK256 SWAP1 JUMPDEST DUP2 SLOAD DUP2 MSTORE SWAP1 PUSH1 0x1 ADD SWAP1 PUSH1 0x20 ADD DUP1 DUP4 GT PUSH2 0x1BCA JUMPI DUP3 SWAP1 SUB PUSH1 0x1F AND DUP3 ADD SWAP2 JUMPDEST POP POP POP POP POP DUP2 MSTORE PUSH1 0x20 ADD PUSH1 0xE DUP3 ADD DUP1 SLOAD PUSH2 0x1C00 SWAP1 PUSH2 0x366E JUMP JUMPDEST DUP1 PUSH1 0x1F ADD PUSH1 0x20 DUP1 SWAP2 DIV MUL PUSH1 0x20 ADD PUSH1 0x40 MLOAD SWAP1 DUP2 ADD PUSH1 0x40 MSTORE DUP1 SWAP3 SWAP2 SWAP1 DUP2 DUP2 MSTORE PUSH1 0x20 ADD DUP3 DUP1 SLOAD PUSH2 0x1C2C SWAP1 PUSH2 0x366E JUMP JUMPDEST DUP1 ISZERO PUSH2 0x1C77 JUMPI DUP1 PUSH1 0x1F LT PUSH2 0x1C4E JUMPI PUSH2 0x100 DUP1 DUP4 SLOAD DIV MUL DUP4 MSTORE SWAP2 PUSH1 0x20 ADD SWAP2 PUSH2 0x1C77 JUMP JUMPDEST DUP3 ADD SWAP2 SWAP1 PUSH0 MSTORE PUSH1 0x20 PUSH0 KECCAK256 SWAP1 JUMPDEST DUP2 SLOAD DUP2 MSTORE SWAP1 PUSH1 0x1 ADD SWAP1 PUSH1 0x20 ADD DUP1 DUP4 GT PUSH2 0x1C5A JUMPI DUP3 SWAP1 SUB PUSH1 0x1F AND DUP3 ADD SWAP2 JUMPDEST POP POP POP POP POP DUP2 MSTORE PUSH1 0x20 ADD PUSH1 0xF DUP3 ADD DUP1 SLOAD PUSH2 0x1C90 SWAP1 PUSH2 0x366E JUMP JUMPDEST DUP1 PUSH1 0x1F ADD PUSH1 0x20 DUP1 SWAP2 DIV MUL PUSH1 0x20 ADD PUSH1 0x40 MLOAD SWAP1 DUP2 ADD PUSH1 0x40 MSTORE DUP1 SWAP3 SWAP2 SWAP1 DUP2 DUP2 MSTORE PUSH1 0x20 ADD DUP3 DUP1 SLOAD PUSH2 0x1CBC SWAP1 PUSH2 0x366E JUMP JUMPDEST DUP1 ISZERO PUSH2 0x1D07 JUMPI DUP1 PUSH1 0x1F LT PUSH2 0x1CDE JUMPI PUSH2 0x100 DUP1 DUP4 SLOAD DIV MUL DUP4 MSTORE SWAP2 PUSH1 0x20 ADD SWAP2 PUSH2 0x1D07 JUMP JUMPDEST DUP3 ADD SWAP2 SWAP1 PUSH0 MSTORE PUSH1 0x20 PUSH0 KECCAK256 SWAP1 JUMPDEST DUP2 SLOAD DUP2 MSTORE SWAP1 PUSH1 0x1 ADD SWAP1 PUSH1 0x20 ADD DUP1 DUP4 GT PUSH2 0x1CEA JUMPI DUP3 SWAP1 SUB PUSH1 0x1F AND DUP3 ADD SWAP2 JUMPDEST POP POP POP POP POP DUP2 MSTORE PUSH1 0x20 ADD PUSH1 0x10 DUP3 ADD DUP1 SLOAD PUSH2 0x1D20 SWAP1 PUSH2 0x366E JUMP JUMPDEST DUP1 PUSH1 0x1F ADD PUSH1 0x20 DUP1 SWAP2 DIV MUL PUSH1 0x20 ADD PUSH1 0x40 MLOAD SWAP1 DUP2 ADD PUSH1 0x40 MSTORE DUP1 SWAP3 SWAP2 SWAP1 DUP2 DUP2 MSTORE PUSH1 0x20 ADD DUP3 DUP1 SLOAD PUSH2 0x1D4C SWAP1 PUSH2 0x366E JUMP JUMPDEST DUP1 ISZERO PUSH2 0x1D97 JUMPI DUP1 PUSH1 0x1F LT PUSH2 0x1D6E JUMPI PUSH2 0x100 DUP1 DUP4 SLOAD DIV MUL DUP4 MSTORE SWAP2 PUSH1 0x20 ADD SWAP2 PUSH2 0x1D97 JUMP JUMPDEST DUP3 ADD SWAP2 SWAP1 PUSH0 MSTORE PUSH1 0x20 PUSH0 KECCAK256 SWAP1 JUMPDEST DUP2 SLOAD DUP2 MSTORE SWAP1 PUSH1 0x1 ADD SWAP1 PUSH1 0x20 ADD DUP1 DUP4 GT PUSH2 0x1D7A JUMPI DUP3 SWAP1 SUB PUSH1 0x1F AND DUP3 ADD SWAP2 JUMPDEST POP POP POP POP POP DUP2 MSTORE POP POP DUP2 MSTORE POP POP DUP5 DUP5 DUP2 MLOAD DUP2 LT PUSH2 0x1DB6 JUMPI PUSH2 0x1DB6 PUSH2 0x381D JUMP JUMPDEST PUSH1 0x20 MUL PUSH1 0x20 ADD ADD DUP2 SWAP1 MSTORE POP DUP3 DUP1 PUSH2 0x1DCC SWAP1 PUSH2 0x3845 JUMP JUMPDEST SWAP4 POP POP JUMPDEST POP PUSH1 0x1 ADD PUSH2 0x159C JUMP JUMPDEST POP SWAP1 SWAP6 SWAP5 POP POP POP POP POP JUMP JUMPDEST PUSH1 0x60 DUP2 DUP4 LT PUSH2 0x1E25 JUMPI PUSH1 0x40 MLOAD PUSH3 0x461BCD PUSH1 0xE5 SHL DUP2 MSTORE PUSH1 0x20 PUSH1 0x4 DUP3 ADD MSTORE PUSH1 0xD PUSH1 0x24 DUP3 ADD MSTORE PUSH13 0x496E76616C69642072616E6765 PUSH1 0x98 SHL PUSH1 0x44 DUP3 ADD MSTORE PUSH1 0x64 ADD PUSH2 0x1E6 JUMP JUMPDEST PUSH0 DUP1 JUMPDEST PUSH1 0x1 SLOAD DUP2 LT ISZERO PUSH2 0x1E7D JUMPI PUSH0 PUSH1 0x1 DUP3 DUP2 SLOAD DUP2 LT PUSH2 0x1E46 JUMPI PUSH2 0x1E46 PUSH2 0x381D JUMP JUMPDEST SWAP1 PUSH0 MSTORE PUSH1 0x20 PUSH0 KECCAK256 ADD SLOAD SWAP1 POP DUP6 DUP2 LT ISZERO DUP1 ISZERO PUSH2 0x1E61 JUMPI POP DUP5 DUP2 GT ISZERO JUMPDEST ISZERO PUSH2 0x1E74 JUMPI DUP3 PUSH2 0x1E70 DUP2 PUSH2 0x3845 JUMP JUMPDEST SWAP4 POP POP JUMPDEST POP PUSH1 0x1 ADD PUSH2 0x1E28 JUMP JUMPDEST POP PUSH0 DUP2 PUSH1 0x1 PUSH1 0x1 PUSH1 0x40 SHL SUB DUP2 GT ISZERO PUSH2 0x1E97 JUMPI PUSH2 0x1E97 PUSH2 0x3359 JUMP JUMPDEST PUSH1 0x40 MLOAD SWAP1 DUP1 DUP3 MSTORE DUP1 PUSH1 0x20 MUL PUSH1 0x20 ADD DUP3 ADD PUSH1 0x40 MSTORE DUP1 ISZERO PUSH2 0x1ED0 JUMPI DUP2 PUSH1 0x20 ADD JUMPDEST PUSH2 0x1EBD PUSH2 0x2F6D JUMP JUMPDEST DUP2 MSTORE PUSH1 0x20 ADD SWAP1 PUSH1 0x1 SWAP1 SUB SWAP1 DUP2 PUSH2 0x1EB5 JUMPI SWAP1 POP JUMPDEST POP SWAP1 POP PUSH0 DUP1 JUMPDEST PUSH1 0x1 SLOAD DUP2 LT ISZERO PUSH2 0x2713 JUMPI PUSH0 PUSH1 0x1 DUP3 DUP2 SLOAD DUP2 LT PUSH2 0x1EF4 JUMPI PUSH2 0x1EF4 PUSH2 0x381D JUMP JUMPDEST SWAP1 PUSH0 MSTORE PUSH1 0x20 PUSH0 KECCAK256 ADD SLOAD SWAP1 POP DUP8 DUP2 LT ISZERO DUP1 ISZERO PUSH2 0x1F0F JUMPI POP DUP7 DUP2 GT ISZERO JUMPDEST ISZERO PUSH2 0x270A JUMPI PUSH0 DUP2 DUP2 MSTORE PUSH1 0x20 DUP2 SWAP1 MSTORE PUSH1 0x40 SWAP1 DUP2 SWAP1 KECCAK256 DUP2 MLOAD PUSH1 0x80 DUP2 ADD SWAP1 SWAP3 MSTORE DUP1 SLOAD DUP3 SWAP1 DUP3 SWAP1 PUSH2 0x1F3B SWAP1 PUSH2 0x366E JUMP JUMPDEST DUP1 PUSH1 0x1F ADD PUSH1 0x20 DUP1 SWAP2 DIV MUL PUSH1 0x20 ADD PUSH1 0x40 MLOAD SWAP1 DUP2 ADD PUSH1 0x40 MSTORE DUP1 SWAP3 SWAP2 SWAP1 DUP2 DUP2 MSTORE PUSH1 0x20 ADD DUP3 DUP1 SLOAD PUSH2 0x1F67 SWAP1 PUSH2 0x366E JUMP JUMPDEST DUP1 ISZERO PUSH2 0x1FB2 JUMPI DUP1 PUSH1 0x1F LT PUSH2 0x1F89 JUMPI PUSH2 0x100 DUP1 DUP4 SLOAD DIV MUL DUP4 MSTORE SWAP2 PUSH1 0x20 ADD SWAP2 PUSH2 0x1FB2 JUMP JUMPDEST DUP3 ADD SWAP2 SWAP1 PUSH0 MSTORE PUSH1 0x20 PUSH0 KECCAK256 SWAP1 JUMPDEST DUP2 SLOAD DUP2 MSTORE SWAP1 PUSH1 0x1 ADD SWAP1 PUSH1 0x20 ADD DUP1 DUP4 GT PUSH2 0x1F95 JUMPI DUP3 SWAP1 SUB PUSH1 0x1F AND DUP3 ADD SWAP2 JUMPDEST POP POP POP POP POP DUP2 MSTORE PUSH1 0x20 ADD PUSH1 0x1 DUP3 ADD SLOAD DUP2 MSTORE PUSH1 0x20 ADD PUSH1 0x2 DUP3 ADD DUP1 SLOAD PUSH2 0x1FD5 SWAP1 PUSH2 0x366E JUMP JUMPDEST DUP1 PUSH1 0x1F ADD PUSH1 0x20 DUP1 SWAP2 DIV MUL PUSH1 0x20 ADD PUSH1 0x40 MLOAD SWAP1 DUP2 ADD PUSH1 0x40 MSTORE DUP1 SWAP3 SWAP2 SWAP1 DUP2 DUP2 MSTORE PUSH1 0x20 ADD DUP3 DUP1 SLOAD PUSH2 0x2001 SWAP1 PUSH2 0x366E JUMP JUMPDEST DUP1 ISZERO PUSH2 0x204C JUMPI DUP1 PUSH1 0x1F LT PUSH2 0x2023 JUMPI PUSH2 0x100 DUP1 DUP4 SLOAD DIV MUL DUP4 MSTORE SWAP2 PUSH1 0x20 ADD SWAP2 PUSH2 0x204C JUMP JUMPDEST DUP3 ADD SWAP2 SWAP1 PUSH0 MSTORE PUSH1 0x20 PUSH0 KECCAK256 SWAP1 JUMPDEST DUP2 SLOAD DUP2 MSTORE SWAP1 PUSH1 0x1 ADD SWAP1 PUSH1 0x20 ADD DUP1 DUP4 GT PUSH2 0x202F JUMPI DUP3 SWAP1 SUB PUSH1 0x1F AND DUP3 ADD SWAP2 JUMPDEST POP POP POP POP POP DUP2 MSTORE PUSH1 0x20 ADD PUSH1 0x3 DUP3 ADD PUSH1 0x40 MLOAD DUP1 PUSH2 0x220 ADD PUSH1 0x40 MSTORE SWAP1 DUP2 PUSH0 DUP3 ADD SLOAD DUP2 MSTORE PUSH1 0x20 ADD PUSH1 0x1 DUP3 ADD SLOAD DUP2 MSTORE PUSH1 0x20 ADD PUSH1 0x2 DUP3 ADD DUP1 SLOAD PUSH2 0x2089 SWAP1 PUSH2 0x366E JUMP JUMPDEST DUP1 PUSH1 0x1F ADD PUSH1 0x20 DUP1 SWAP2 DIV MUL PUSH1 0x20 ADD PUSH1 0x40 MLOAD SWAP1 DUP2 ADD PUSH1 0x40 MSTORE DUP1 SWAP3 SWAP2 SWAP1 DUP2 DUP2 MSTORE PUSH1 0x20 ADD DUP3 DUP1 SLOAD PUSH2 0x20B5 SWAP1 PUSH2 0x366E JUMP JUMPDEST DUP1 ISZERO PUSH2 0x2100 JUMPI DUP1 PUSH1 0x1F LT PUSH2 0x20D7 JUMPI PUSH2 0x100 DUP1 DUP4 SLOAD DIV MUL DUP4 MSTORE SWAP2 PUSH1 0x20 ADD SWAP2 PUSH2 0x2100 JUMP JUMPDEST DUP3 ADD SWAP2 SWAP1 PUSH0 MSTORE PUSH1 0x20 PUSH0 KECCAK256 SWAP1 JUMPDEST DUP2 SLOAD DUP2 MSTORE SWAP1 PUSH1 0x1 ADD SWAP1 PUSH1 0x20 ADD DUP1 DUP4 GT PUSH2 0x20E3 JUMPI DUP3 SWAP1 SUB PUSH1 0x1F AND DUP3 ADD SWAP2 JUMPDEST POP POP POP POP POP DUP2 MSTORE PUSH1 0x20 ADD PUSH1 0x3 DUP3 ADD DUP1 SLOAD PUSH2 0x2119 SWAP1 PUSH2 0x366E JUMP JUMPDEST DUP1 PUSH1 0x1F ADD PUSH1 0x20 DUP1 SWAP2 DIV MUL PUSH1 0x20 ADD PUSH1 0x40 MLOAD SWAP1 DUP2 ADD PUSH1 0x40 MSTORE DUP1 SWAP3 SWAP2 SWAP1 DUP2 DUP2 MSTORE PUSH1 0x20 ADD DUP3 DUP1 SLOAD PUSH2 0x2145 SWAP1 PUSH2 0x366E JUMP JUMPDEST DUP1 ISZERO PUSH2 0x2190 JUMPI DUP1 PUSH1 0x1F LT PUSH2 0x2167 JUMPI PUSH2 0x100 DUP1 DUP4 SLOAD DIV MUL DUP4 MSTORE SWAP2 PUSH1 0x20 ADD SWAP2 PUSH2 0x2190 JUMP JUMPDEST DUP3 ADD SWAP2 SWAP1 PUSH0 MSTORE PUSH1 0x20 PUSH0 KECCAK256 SWAP1 JUMPDEST DUP2 SLOAD DUP2 MSTORE SWAP1 PUSH1 0x1 ADD SWAP1 PUSH1 0x20 ADD DUP1 DUP4 GT PUSH2 0x2173 JUMPI DUP3 SWAP1 SUB PUSH1 0x1F AND DUP3 ADD SWAP2 JUMPDEST POP POP POP POP POP DUP2 MSTORE PUSH1 0x20 ADD PUSH1 0x4 DUP3 ADD SLOAD DUP2 MSTORE PUSH1 0x20 ADD PUSH1 0x5 DUP3 ADD SLOAD DUP2 MSTORE PUSH1 0x20 ADD PUSH1 0x6 DUP3 ADD DUP1 SLOAD PUSH2 0x21BD SWAP1 PUSH2 0x366E JUMP JUMPDEST DUP1 PUSH1 0x1F ADD PUSH1 0x20 DUP1 SWAP2 DIV MUL PUSH1 0x20 ADD PUSH1 0x40 MLOAD SWAP1 DUP2 ADD PUSH1 0x40 MSTORE DUP1 SWAP3 SWAP2 SWAP1 DUP2 DUP2 MSTORE PUSH1 0x20 ADD DUP3 DUP1 SLOAD PUSH2 0x21E9 SWAP1 PUSH2 0x366E JUMP JUMPDEST DUP1 ISZERO PUSH2 0x2234 JUMPI DUP1 PUSH1 0x1F LT PUSH2 0x220B JUMPI PUSH2 0x100 DUP1 DUP4 SLOAD DIV MUL DUP4 MSTORE SWAP2 PUSH1 0x20 ADD SWAP2 PUSH2 0x2234 JUMP JUMPDEST DUP3 ADD SWAP2 SWAP1 PUSH0 MSTORE PUSH1 0x20 PUSH0 KECCAK256 SWAP1 JUMPDEST DUP2 SLOAD DUP2 MSTORE SWAP1 PUSH1 0x1 ADD SWAP1 PUSH1 0x20 ADD DUP1 DUP4 GT PUSH2 0x2217 JUMPI DUP3 SWAP1 SUB PUSH1 0x1F AND DUP3 ADD SWAP2 JUMPDEST POP POP POP POP POP DUP2 MSTORE PUSH1 0x20 ADD PUSH1 0x7 DUP3 ADD DUP1 SLOAD PUSH2 0x224D SWAP1 PUSH2 0x366E JUMP JUMPDEST DUP1 PUSH1 0x1F ADD PUSH1 0x20 DUP1 SWAP2 DIV MUL PUSH1 0x20 ADD PUSH1 0x40 MLOAD SWAP1 DUP2 ADD PUSH1 0x40 MSTORE DUP1 SWAP3 SWAP2 SWAP1 DUP2 DUP2 MSTORE PUSH1 0x20 ADD DUP3 DUP1 SLOAD PUSH2 0x2279 SWAP1 PUSH2 0x366E JUMP JUMPDEST DUP1 ISZERO PUSH2 0x22C4 JUMPI DUP1 PUSH1 0x1F LT PUSH2 0x229B JUMPI PUSH2 0x100 DUP1 DUP4 SLOAD DIV MUL DUP4 MSTORE SWAP2 PUSH1 0x20 ADD SWAP2 PUSH2 0x22C4 JUMP JUMPDEST DUP3 ADD SWAP2 SWAP1 PUSH0 MSTORE PUSH1 0x20 PUSH0 KECCAK256 SWAP1 JUMPDEST DUP2 SLOAD DUP2 MSTORE SWAP1 PUSH1 0x1 ADD SWAP1 PUSH1 0x20 ADD DUP1 DUP4 GT PUSH2 0x22A7 JUMPI DUP3 SWAP1 SUB PUSH1 0x1F AND DUP3 ADD SWAP2 JUMPDEST POP POP POP POP POP DUP2 MSTORE PUSH1 0x20 ADD PUSH1 0x8 DUP3 ADD DUP1 SLOAD PUSH2 0x22DD SWAP1 PUSH2 0x366E JUMP JUMPDEST DUP1 PUSH1 0x1F ADD PUSH1 0x20 DUP1 SWAP2 DIV MUL PUSH1 0x20 ADD PUSH1 0x40 MLOAD SWAP1 DUP2 ADD PUSH1 0x40 MSTORE DUP1 SWAP3 SWAP2 SWAP1 DUP2 DUP2 MSTORE PUSH1 0x20 ADD DUP3 DUP1 SLOAD PUSH2 0x2309 SWAP1 PUSH2 0x366E JUMP JUMPDEST DUP1 ISZERO PUSH2 0x2354 JUMPI DUP1 PUSH1 0x1F LT PUSH2 0x232B JUMPI PUSH2 0x100 DUP1 DUP4 SLOAD DIV MUL DUP4 MSTORE SWAP2 PUSH1 0x20 ADD SWAP2 PUSH2 0x2354 JUMP JUMPDEST DUP3 ADD SWAP2 SWAP1 PUSH0 MSTORE PUSH1 0x20 PUSH0 KECCAK256 SWAP1 JUMPDEST DUP2 SLOAD DUP2 MSTORE SWAP1 PUSH1 0x1 ADD SWAP1 PUSH1 0x20 ADD DUP1 DUP4 GT PUSH2 0x2337 JUMPI DUP3 SWAP1 SUB PUSH1 0x1F AND DUP3 ADD SWAP2 JUMPDEST POP POP POP POP POP DUP2 MSTORE PUSH1 0x20 ADD PUSH1 0x9 DUP3 ADD DUP1 SLOAD PUSH2 0x236D SWAP1 PUSH2 0x366E JUMP JUMPDEST DUP1 PUSH1 0x1F ADD PUSH1 0x20 DUP1 SWAP2 DIV MUL PUSH1 0x20 ADD PUSH1 0x40 MLOAD SWAP1 DUP2 ADD PUSH1 0x40 MSTORE DUP1 SWAP3 SWAP2 SWAP1 DUP2 DUP2 MSTORE PUSH1 0x20 ADD DUP3 DUP1 SLOAD PUSH2 0x2399 SWAP1 PUSH2 0x366E JUMP JUMPDEST DUP1 ISZERO PUSH2 0x23E4 JUMPI DUP1 PUSH1 0x1F LT PUSH2 0x23BB JUMPI PUSH2 0x100 DUP1 DUP4 SLOAD DIV MUL DUP4 MSTORE SWAP2 PUSH1 0x20 ADD SWAP2 PUSH2 0x23E4 JUMP JUMPDEST DUP3 ADD SWAP2 SWAP1 PUSH0 MSTORE PUSH1 0x20 PUSH0 KECCAK256 SWAP1 JUMPDEST DUP2 SLOAD DUP2 MSTORE SWAP1 PUSH1 0x1 ADD SWAP1 PUSH1 0x20 ADD DUP1 DUP4 GT PUSH2 0x23C7 JUMPI DUP3 SWAP1 SUB PUSH1 0x1F AND DUP3 ADD SWAP2 JUMPDEST POP POP POP POP POP DUP2 MSTORE PUSH1 0x20 ADD PUSH1 0xA DUP3 ADD DUP1 SLOAD PUSH2 0x23FD SWAP1 PUSH2 0x366E JUMP JUMPDEST DUP1 PUSH1 0x1F ADD PUSH1 0x20 DUP1 SWAP2 DIV MUL PUSH1 0x20 ADD PUSH1 0x40 MLOAD SWAP1 DUP2 ADD PUSH1 0x40 MSTORE DUP1 SWAP3 SWAP2 SWAP1 DUP2 DUP2 MSTORE PUSH1 0x20 ADD DUP3 DUP1 SLOAD PUSH2 0x2429 SWAP1 PUSH2 0x366E JUMP JUMPDEST DUP1 ISZERO PUSH2 0x2474 JUMPI DUP1 PUSH1 0x1F LT PUSH2 0x244B JUMPI PUSH2 0x100 DUP1 DUP4 SLOAD DIV MUL DUP4 MSTORE SWAP2 PUSH1 0x20 ADD SWAP2 PUSH2 0x2474 JUMP JUMPDEST DUP3 ADD SWAP2 SWAP1 PUSH0 MSTORE PUSH1 0x20 PUSH0 KECCAK256 SWAP1 JUMPDEST DUP2 SLOAD DUP2 MSTORE SWAP1 PUSH1 0x1 ADD SWAP1 PUSH1 0x20 ADD DUP1 DUP4 GT PUSH2 0x2457 JUMPI DUP3 SWAP1 SUB PUSH1 0x1F AND DUP3 ADD SWAP2 JUMPDEST POP POP POP SWAP2 DUP4 MSTORE POP POP PUSH1 0xB DUP3 ADD SLOAD PUSH1 0x20 DUP3 ADD MSTORE PUSH1 0xC DUP3 ADD SLOAD PUSH1 0xFF AND ISZERO ISZERO PUSH1 0x40 DUP3 ADD MSTORE PUSH1 0xD DUP3 ADD DUP1 SLOAD PUSH1 0x60 SWAP1 SWAP3 ADD SWAP2 PUSH2 0x24AA SWAP1 PUSH2 0x366E JUMP JUMPDEST DUP1 PUSH1 0x1F ADD PUSH1 0x20 DUP1 SWAP2 DIV MUL PUSH1 0x20 ADD PUSH1 0x40 MLOAD SWAP1 DUP2 ADD PUSH1 0x40 MSTORE DUP1 SWAP3 SWAP2 SWAP1 DUP2 DUP2 MSTORE PUSH1 0x20 ADD DUP3 DUP1 SLOAD PUSH2 0x24D6 SWAP1 PUSH2 0x366E JUMP JUMPDEST DUP1 ISZERO PUSH2 0x2521 JUMPI DUP1 PUSH1 0x1F LT PUSH2 0x24F8 JUMPI PUSH2 0x100 DUP1 DUP4 SLOAD DIV MUL DUP4 MSTORE SWAP2 PUSH1 0x20 ADD SWAP2 PUSH2 0x2521 JUMP JUMPDEST DUP3 ADD SWAP2 SWAP1 PUSH0 MSTORE PUSH1 0x20 PUSH0 KECCAK256 SWAP1 JUMPDEST DUP2 SLOAD DUP2 MSTORE SWAP1 PUSH1 0x1 ADD SWAP1 PUSH1 0x20 ADD DUP1 DUP4 GT PUSH2 0x2504 JUMPI DUP3 SWAP1 SUB PUSH1 0x1F AND DUP3 ADD SWAP2 JUMPDEST POP POP POP POP POP DUP2 MSTORE PUSH1 0x20 ADD PUSH1 0xE DUP3 ADD DUP1 SLOAD PUSH2 0x253A SWAP1 PUSH2 0x366E JUMP JUMPDEST DUP1 PUSH1 0x1F ADD PUSH1 0x20 DUP1 SWAP2 DIV MUL PUSH1 0x20 ADD PUSH1 0x40 MLOAD SWAP1 DUP2 ADD PUSH1 0x40 MSTORE DUP1 SWAP3 SWAP2 SWAP1 DUP2 DUP2 MSTORE PUSH1 0x20 ADD DUP3 DUP1 SLOAD PUSH2 0x2566 SWAP1 PUSH2 0x366E JUMP JUMPDEST DUP1 ISZERO PUSH2 0x25B1 JUMPI DUP1 PUSH1 0x1F LT PUSH2 0x2588 JUMPI PUSH2 0x100 DUP1 DUP4 SLOAD DIV MUL DUP4 MSTORE SWAP2 PUSH1 0x20 ADD SWAP2 PUSH2 0x25B1 JUMP JUMPDEST DUP3 ADD SWAP2 SWAP1 PUSH0 MSTORE PUSH1 0x20 PUSH0 KECCAK256 SWAP1 JUMPDEST DUP2 SLOAD DUP2 MSTORE SWAP1 PUSH1 0x1 ADD SWAP1 PUSH1 0x20 ADD DUP1 DUP4 GT PUSH2 0x2594 JUMPI DUP3 SWAP1 SUB PUSH1 0x1F AND DUP3 ADD SWAP2 JUMPDEST POP POP POP POP POP DUP2 MSTORE PUSH1 0x20 ADD PUSH1 0xF DUP3 ADD DUP1 SLOAD PUSH2 0x25CA SWAP1 PUSH2 0x366E JUMP JUMPDEST DUP1 PUSH1 0x1F ADD PUSH1 0x20 DUP1 SWAP2 DIV MUL PUSH1 0x20 ADD PUSH1 0x40 MLOAD SWAP1 DUP2 ADD PUSH1 0x40 MSTORE DUP1 SWAP3 SWAP2 SWAP1 DUP2 DUP2 MSTORE PUSH1 0x20 ADD DUP3 DUP1 SLOAD PUSH2 0x25F6 SWAP1 PUSH2 0x366E JUMP JUMPDEST DUP1 ISZERO PUSH2 0x2641 JUMPI DUP1 PUSH1 0x1F LT PUSH2 0x2618 JUMPI PUSH2 0x100 DUP1 DUP4 SLOAD DIV MUL DUP4 MSTORE SWAP2 PUSH1 0x20 ADD SWAP2 PUSH2 0x2641 JUMP JUMPDEST DUP3 ADD SWAP2 SWAP1 PUSH0 MSTORE PUSH1 0x20 PUSH0 KECCAK256 SWAP1 JUMPDEST DUP2 SLOAD DUP2 MSTORE SWAP1 PUSH1 0x1 ADD SWAP1 PUSH1 0x20 ADD DUP1 DUP4 GT PUSH2 0x2624 JUMPI DUP3 SWAP1 SUB PUSH1 0x1F AND DUP3 ADD SWAP2 JUMPDEST POP POP POP POP POP DUP2 MSTORE PUSH1 0x20 ADD PUSH1 0x10 DUP3 ADD DUP1 SLOAD PUSH2 0x265A SWAP1 PUSH2 0x366E JUMP JUMPDEST DUP1 PUSH1 0x1F ADD PUSH1 0x20 DUP1 SWAP2 DIV MUL PUSH1 0x20 ADD PUSH1 0x40 MLOAD SWAP1 DUP2 ADD PUSH1 0x40 MSTORE DUP1 SWAP3 SWAP2 SWAP1 DUP2 DUP2 MSTORE PUSH1 0x20 ADD DUP3 DUP1 SLOAD PUSH2 0x2686 SWAP1 PUSH2 0x366E JUMP JUMPDEST DUP1 ISZERO PUSH2 0x26D1 JUMPI DUP1 PUSH1 0x1F LT PUSH2 0x26A8 JUMPI PUSH2 0x100 DUP1 DUP4 SLOAD DIV MUL DUP4 MSTORE SWAP2 PUSH1 0x20 ADD SWAP2 PUSH2 0x26D1 JUMP JUMPDEST DUP3 ADD SWAP2 SWAP1 PUSH0 MSTORE PUSH1 0x20 PUSH0 KECCAK256 SWAP1 JUMPDEST DUP2 SLOAD DUP2 MSTORE SWAP1 PUSH1 0x1 ADD SWAP1 PUSH1 0x20 ADD DUP1 DUP4 GT PUSH2 0x26B4 JUMPI DUP3 SWAP1 SUB PUSH1 0x1F AND DUP3 ADD SWAP2 JUMPDEST POP POP POP POP POP DUP2 MSTORE POP POP DUP2 MSTORE POP POP DUP5 DUP5 DUP2 MLOAD DUP2 LT PUSH2 0x26F0 JUMPI PUSH2 0x26F0 PUSH2 0x381D JUMP JUMPDEST PUSH1 0x20 MUL PUSH1 0x20 ADD ADD DUP2 SWAP1 MSTORE POP DUP3 DUP1 PUSH2 0x2706 SWAP1 PUSH2 0x3845 JUMP JUMPDEST SWAP4 POP POP JUMPDEST POP PUSH1 0x1 ADD PUSH2 0x1ED6 JUMP JUMPDEST POP SWAP1 SWAP3 POP POP POP JUMPDEST SWAP3 SWAP2 POP POP JUMP JUMPDEST PUSH2 0x2728 PUSH2 0x2F6D JUMP JUMPDEST PUSH1 0x1 SLOAD PUSH2 0x276D JUMPI PUSH1 0x40 MLOAD PUSH3 0x461BCD PUSH1 0xE5 SHL DUP2 MSTORE PUSH1 0x20 PUSH1 0x4 DUP3 ADD MSTORE PUSH1 0x13 PUSH1 0x24 DUP3 ADD MSTORE PUSH19 0x139BC818D85B991B195CC81C9958DBDC991959 PUSH1 0x6A SHL PUSH1 0x44 DUP3 ADD MSTORE PUSH1 0x64 ADD PUSH2 0x1E6 JUMP JUMPDEST PUSH1 0x1 DUP1 SLOAD PUSH0 SWAP2 SWAP1 PUSH2 0x277F SWAP1 DUP3 SWAP1 PUSH2 0x385D JUMP JUMPDEST DUP2 SLOAD DUP2 LT PUSH2 0x278F JUMPI PUSH2 0x278F PUSH2 0x381D JUMP JUMPDEST SWAP1 PUSH0 MSTORE PUSH1 0x20 PUSH0 KECCAK256 ADD SLOAD SWAP1 POP PUSH0 PUSH0 DUP3 DUP2 MSTORE PUSH1 0x20 ADD SWAP1 DUP2 MSTORE PUSH1 0x20 ADD PUSH0 KECCAK256 PUSH1 0x40 MLOAD DUP1 PUSH1 0x80 ADD PUSH1 0x40 MSTORE SWAP1 DUP2 PUSH0 DUP3 ADD DUP1 SLOAD PUSH2 0x27C4 SWAP1 PUSH2 0x366E JUMP JUMPDEST DUP1 PUSH1 0x1F ADD PUSH1 0x20 DUP1 SWAP2 DIV MUL PUSH1 0x20 ADD PUSH1 0x40 MLOAD SWAP1 DUP2 ADD PUSH1 0x40 MSTORE DUP1 SWAP3 SWAP2 SWAP1 DUP2 DUP2 MSTORE PUSH1 0x20 ADD DUP3 DUP1 SLOAD PUSH2 0x27F0 SWAP1 PUSH2 0x366E JUMP JUMPDEST DUP1 ISZERO PUSH2 0x283B JUMPI DUP1 PUSH1 0x1F LT PUSH2 0x2812 JUMPI PUSH2 0x100 DUP1 DUP4 SLOAD DIV MUL DUP4 MSTORE SWAP2 PUSH1 0x20 ADD SWAP2 PUSH2 0x283B JUMP JUMPDEST DUP3 ADD SWAP2 SWAP1 PUSH0 MSTORE PUSH1 0x20 PUSH0 KECCAK256 SWAP1 JUMPDEST DUP2 SLOAD DUP2 MSTORE SWAP1 PUSH1 0x1 ADD SWAP1 PUSH1 0x20 ADD DUP1 DUP4 GT PUSH2 0x281E JUMPI DUP3 SWAP1 SUB PUSH1 0x1F AND DUP3 ADD SWAP2 JUMPDEST POP POP POP POP POP DUP2 MSTORE PUSH1 0x20 ADD PUSH1 0x1 DUP3 ADD SLOAD DUP2 MSTORE PUSH1 0x20 ADD PUSH1 0x2 DUP3 ADD DUP1 SLOAD PUSH2 0x285E SWAP1 PUSH2 0x366E JUMP JUMPDEST DUP1 PUSH1 0x1F ADD PUSH1 0x20 DUP1 SWAP2 DIV MUL PUSH1 0x20 ADD PUSH1 0x40 MLOAD SWAP1 DUP2 ADD PUSH1 0x40 MSTORE DUP1 SWAP3 SWAP2 SWAP1 DUP2 DUP2 MSTORE PUSH1 0x20 ADD DUP3 DUP1 SLOAD PUSH2 0x288A SWAP1 PUSH2 0x366E JUMP JUMPDEST DUP1 ISZERO PUSH2 0x28D5 JUMPI DUP1 PUSH1 0x1F LT PUSH2 0x28AC JUMPI PUSH2 0x100 DUP1 DUP4 SLOAD DIV MUL DUP4 MSTORE SWAP2 PUSH1 0x20 ADD SWAP2 PUSH2 0x28D5 JUMP JUMPDEST DUP3 ADD SWAP2 SWAP1 PUSH0 MSTORE PUSH1 0x20 PUSH0 KECCAK256 SWAP1 JUMPDEST DUP2 SLOAD DUP2 MSTORE SWAP1 PUSH1 0x1 ADD SWAP1 PUSH1 0x20 ADD DUP1 DUP4 GT PUSH2 0x28B8 JUMPI DUP3 SWAP1 SUB PUSH1 0x1F AND DUP3 ADD SWAP2 JUMPDEST POP POP POP POP POP DUP2 MSTORE PUSH1 0x20 ADD PUSH1 0x3 DUP3 ADD PUSH1 0x40 MLOAD DUP1 PUSH2 0x220 ADD PUSH1 0x40 MSTORE SWAP1 DUP2 PUSH0 DUP3 ADD SLOAD DUP2 MSTORE PUSH1 0x20 ADD PUSH1 0x1 DUP3 ADD SLOAD DUP2 MSTORE PUSH1 0x20 ADD PUSH1 0x2 DUP3 ADD DUP1 SLOAD PUSH2 0x2912 SWAP1 PUSH2 0x366E JUMP JUMPDEST DUP1 PUSH1 0x1F ADD PUSH1 0x20 DUP1 SWAP2 DIV MUL PUSH1 0x20 ADD PUSH1 0x40 MLOAD SWAP1 DUP2 ADD PUSH1 0x40 MSTORE DUP1 SWAP3 SWAP2 SWAP1 DUP2 DUP2 MSTORE PUSH1 0x20 ADD DUP3 DUP1 SLOAD PUSH2 0x293E SWAP1 PUSH2 0x366E JUMP JUMPDEST DUP1 ISZERO PUSH2 0x2989 JUMPI DUP1 PUSH1 0x1F LT PUSH2 0x2960 JUMPI PUSH2 0x100 DUP1 DUP4 SLOAD DIV MUL DUP4 MSTORE SWAP2 PUSH1 0x20 ADD SWAP2 PUSH2 0x2989 JUMP JUMPDEST DUP3 ADD SWAP2 SWAP1 PUSH0 MSTORE PUSH1 0x20 PUSH0 KECCAK256 SWAP1 JUMPDEST DUP2 SLOAD DUP2 MSTORE SWAP1 PUSH1 0x1 ADD SWAP1 PUSH1 0x20 ADD DUP1 DUP4 GT PUSH2 0x296C JUMPI DUP3 SWAP1 SUB PUSH1 0x1F AND DUP3 ADD SWAP2 JUMPDEST POP POP POP POP POP DUP2 MSTORE PUSH1 0x20 ADD PUSH1 0x3 DUP3 ADD DUP1 SLOAD PUSH2 0x29A2 SWAP1 PUSH2 0x366E JUMP JUMPDEST DUP1 PUSH1 0x1F ADD PUSH1 0x20 DUP1 SWAP2 DIV MUL PUSH1 0x20 ADD PUSH1 0x40 MLOAD SWAP1 DUP2 ADD PUSH1 0x40 MSTORE DUP1 SWAP3 SWAP2 SWAP1 DUP2 DUP2 MSTORE PUSH1 0x20 ADD DUP3 DUP1 SLOAD PUSH2 0x29CE SWAP1 PUSH2 0x366E JUMP JUMPDEST DUP1 ISZERO PUSH2 0x2A19 JUMPI DUP1 PUSH1 0x1F LT PUSH2 0x29F0 JUMPI PUSH2 0x100 DUP1 DUP4 SLOAD DIV MUL DUP4 MSTORE SWAP2 PUSH1 0x20 ADD SWAP2 PUSH2 0x2A19 JUMP JUMPDEST DUP3 ADD SWAP2 SWAP1 PUSH0 MSTORE PUSH1 0x20 PUSH0 KECCAK256 SWAP1 JUMPDEST DUP2 SLOAD DUP2 MSTORE SWAP1 PUSH1 0x1 ADD SWAP1 PUSH1 0x20 ADD DUP1 DUP4 GT PUSH2 0x29FC JUMPI DUP3 SWAP1 SUB PUSH1 0x1F AND DUP3 ADD SWAP2 JUMPDEST POP POP POP POP POP DUP2 MSTORE PUSH1 0x20 ADD PUSH1 0x4 DUP3 ADD SLOAD DUP2 MSTORE PUSH1 0x20 ADD PUSH1 0x5 DUP3 ADD SLOAD DUP2 MSTORE PUSH1 0x20 ADD PUSH1 0x6 DUP3 ADD DUP1 SLOAD PUSH2 0x2A46 SWAP1 PUSH2 0x366E JUMP JUMPDEST DUP1 PUSH1 0x1F ADD PUSH1 0x20 DUP1 SWAP2 DIV MUL PUSH1 0x20 ADD PUSH1 0x40 MLOAD SWAP1 DUP2 ADD PUSH1 0x40 MSTORE DUP1 SWAP3 SWAP2 SWAP1 DUP2 DUP2 MSTORE PUSH1 0x20 ADD DUP3 DUP1 SLOAD PUSH2 0x2A72 SWAP1 PUSH2 0x366E JUMP JUMPDEST DUP1 ISZERO PUSH2 0x2ABD JUMPI DUP1 PUSH1 0x1F LT PUSH2 0x2A94 JUMPI PUSH2 0x100 DUP1 DUP4 SLOAD DIV MUL DUP4 MSTORE SWAP2 PUSH1 0x20 ADD SWAP2 PUSH2 0x2ABD JUMP JUMPDEST DUP3 ADD SWAP2 SWAP1 PUSH0 MSTORE PUSH1 0x20 PUSH0 KECCAK256 SWAP1 JUMPDEST DUP2 SLOAD DUP2 MSTORE SWAP1 PUSH1 0x1 ADD SWAP1 PUSH1 0x20 ADD DUP1 DUP4 GT PUSH2 0x2AA0 JUMPI DUP3 SWAP1 SUB PUSH1 0x1F AND DUP3 ADD SWAP2 JUMPDEST POP POP POP POP POP DUP2 MSTORE PUSH1 0x20 ADD PUSH1 0x7 DUP3 ADD DUP1 SLOAD PUSH2 0x2AD6 SWAP1 PUSH2 0x366E JUMP JUMPDEST DUP1 PUSH1 0x1F ADD PUSH1 0x20 DUP1 SWAP2 DIV MUL PUSH1 0x20 ADD PUSH1 0x40 MLOAD SWAP1 DUP2 ADD PUSH1 0x40 MSTORE DUP1 SWAP3 SWAP2 SWAP1 DUP2 DUP2 MSTORE PUSH1 0x20 ADD DUP3 DUP1 SLOAD PUSH2 0x2B02 SWAP1 PUSH2 0x366E JUMP JUMPDEST DUP1 ISZERO PUSH2 0x2B4D JUMPI DUP1 PUSH1 0x1F LT PUSH2 0x2B24 JUMPI PUSH2 0x100 DUP1 DUP4 SLOAD DIV MUL DUP4 MSTORE SWAP2 PUSH1 0x20 ADD SWAP2 PUSH2 0x2B4D JUMP JUMPDEST DUP3 ADD SWAP2 SWAP1 PUSH0 MSTORE PUSH1 0x20 PUSH0 KECCAK256 SWAP1 JUMPDEST DUP2 SLOAD DUP2 MSTORE SWAP1 PUSH1 0x1 ADD SWAP1 PUSH1 0x20 ADD DUP1 DUP4 GT PUSH2 0x2B30 JUMPI DUP3 SWAP1 SUB PUSH1 0x1F AND DUP3 ADD SWAP2 JUMPDEST POP POP POP POP POP DUP2 MSTORE PUSH1 0x20 ADD PUSH1 0x8 DUP3 ADD DUP1 SLOAD PUSH2 0x2B66 SWAP1 PUSH2 0x366E JUMP JUMPDEST DUP1 PUSH1 0x1F ADD PUSH1 0x20 DUP1 SWAP2 DIV MUL PUSH1 0x20 ADD PUSH1 0x40 MLOAD SWAP1 DUP2 ADD PUSH1 0x40 MSTORE DUP1 SWAP3 SWAP2 SWAP1 DUP2 DUP2 MSTORE PUSH1 0x20 ADD DUP3 DUP1 SLOAD PUSH2 0x2B92 SWAP1 PUSH2 0x366E JUMP JUMPDEST DUP1 ISZERO PUSH2 0x2BDD JUMPI DUP1 PUSH1 0x1F LT PUSH2 0x2BB4 JUMPI PUSH2 0x100 DUP1 DUP4 SLOAD DIV MUL DUP4 MSTORE SWAP2 PUSH1 0x20 ADD SWAP2 PUSH2 0x2BDD JUMP JUMPDEST DUP3 ADD SWAP2 SWAP1 PUSH0 MSTORE PUSH1 0x20 PUSH0 KECCAK256 SWAP1 JUMPDEST DUP2 SLOAD DUP2 MSTORE SWAP1 PUSH1 0x1 ADD SWAP1 PUSH1 0x20 ADD DUP1 DUP4 GT PUSH2 0x2BC0 JUMPI DUP3 SWAP1 SUB PUSH1 0x1F AND DUP3 ADD SWAP2 JUMPDEST POP POP POP POP POP DUP2 MSTORE PUSH1 0x20 ADD PUSH1 0x9 DUP3 ADD DUP1 SLOAD PUSH2 0x2BF6 SWAP1 PUSH2 0x366E JUMP JUMPDEST DUP1 PUSH1 0x1F ADD PUSH1 0x20 DUP1 SWAP2 DIV MUL PUSH1 0x20 ADD PUSH1 0x40 MLOAD SWAP1 DUP2 ADD PUSH1 0x40 MSTORE DUP1 SWAP3 SWAP2 SWAP1 DUP2 DUP2 MSTORE PUSH1 0x20 ADD DUP3 DUP1 SLOAD PUSH2 0x2C22 SWAP1 PUSH2 0x366E JUMP JUMPDEST DUP1 ISZERO PUSH2 0x2C6D JUMPI DUP1 PUSH1 0x1F LT PUSH2 0x2C44 JUMPI PUSH2 0x100 DUP1 DUP4 SLOAD DIV MUL DUP4 MSTORE SWAP2 PUSH1 0x20 ADD SWAP2 PUSH2 0x2C6D JUMP JUMPDEST DUP3 ADD SWAP2 SWAP1 PUSH0 MSTORE PUSH1 0x20 PUSH0 KECCAK256 SWAP1 JUMPDEST DUP2 SLOAD DUP2 MSTORE SWAP1 PUSH1 0x1 ADD SWAP1 PUSH1 0x20 ADD DUP1 DUP4 GT PUSH2 0x2C50 JUMPI DUP3 SWAP1 SUB PUSH1 0x1F AND DUP3 ADD SWAP2 JUMPDEST POP POP POP POP POP DUP2 MSTORE PUSH1 0x20 ADD PUSH1 0xA DUP3 ADD DUP1 SLOAD PUSH2 0x2C86 SWAP1 PUSH2 0x366E JUMP JUMPDEST DUP1 PUSH1 0x1F ADD PUSH1 0x20 DUP1 SWAP2 DIV MUL PUSH1 0x20 ADD PUSH1 0x40 MLOAD SWAP1 DUP2 ADD PUSH1 0x40 MSTORE DUP1 SWAP3 SWAP2 SWAP1 DUP2 DUP2 MSTORE PUSH1 0x20 ADD DUP3 DUP1 SLOAD PUSH2 0x2CB2 SWAP1 PUSH2 0x366E JUMP JUMPDEST DUP1 ISZERO PUSH2 0x2CFD JUMPI DUP1 PUSH1 0x1F LT PUSH2 0x2CD4 JUMPI PUSH2 0x100 DUP1 DUP4 SLOAD DIV MUL DUP4 MSTORE SWAP2 PUSH1 0x20 ADD SWAP2 PUSH2 0x2CFD JUMP JUMPDEST DUP3 ADD SWAP2 SWAP1 PUSH0 MSTORE PUSH1 0x20 PUSH0 KECCAK256 SWAP1 JUMPDEST DUP2 SLOAD DUP2 MSTORE SWAP1 PUSH1 0x1 ADD SWAP1 PUSH1 0x20 ADD DUP1 DUP4 GT PUSH2 0x2CE0 JUMPI DUP3 SWAP1 SUB PUSH1 0x1F AND DUP3 ADD SWAP2 JUMPDEST POP POP POP SWAP2 DUP4 MSTORE POP POP PUSH1 0xB DUP3 ADD SLOAD PUSH1 0x20 DUP3 ADD MSTORE PUSH1 0xC DUP3 ADD SLOAD PUSH1 0xFF AND ISZERO ISZERO PUSH1 0x40 DUP3 ADD MSTORE PUSH1 0xD DUP3 ADD DUP1 SLOAD PUSH1 0x60 SWAP1 SWAP3 ADD SWAP2 PUSH2 0x2D33 SWAP1 PUSH2 0x366E JUMP JUMPDEST DUP1 PUSH1 0x1F ADD PUSH1 0x20 DUP1 SWAP2 DIV MUL PUSH1 0x20 ADD PUSH1 0x40 MLOAD SWAP1 DUP2 ADD PUSH1 0x40 MSTORE DUP1 SWAP3 SWAP2 SWAP1 DUP2 DUP2 MSTORE PUSH1 0x20 ADD DUP3 DUP1 SLOAD PUSH2 0x2D5F SWAP1 PUSH2 0x366E JUMP JUMPDEST DUP1 ISZERO PUSH2 0x2DAA JUMPI DUP1 PUSH1 0x1F LT PUSH2 0x2D81 JUMPI PUSH2 0x100 DUP1 DUP4 SLOAD DIV MUL DUP4 MSTORE SWAP2 PUSH1 0x20 ADD SWAP2 PUSH2 0x2DAA JUMP JUMPDEST DUP3 ADD SWAP2 SWAP1 PUSH0 MSTORE PUSH1 0x20 PUSH0 KECCAK256 SWAP1 JUMPDEST DUP2 SLOAD DUP2 MSTORE SWAP1 PUSH1 0x1 ADD SWAP1 PUSH1 0x20 ADD DUP1 DUP4 GT PUSH2 0x2D8D JUMPI DUP3 SWAP1 SUB PUSH1 0x1F AND DUP3 ADD SWAP2 JUMPDEST POP POP POP POP POP DUP2 MSTORE PUSH1 0x20 ADD PUSH1 0xE DUP3 ADD DUP1 SLOAD PUSH2 0x2DC3 SWAP1 PUSH2 0x366E JUMP JUMPDEST DUP1 PUSH1 0x1F ADD PUSH1 0x20 DUP1 SWAP2 DIV MUL PUSH1 0x20 ADD PUSH1 0x40 MLOAD SWAP1 DUP2 ADD PUSH1 0x40 MSTORE DUP1 SWAP3 SWAP2 SWAP1 DUP2 DUP2 MSTORE PUSH1 0x20 ADD DUP3 DUP1 SLOAD PUSH2 0x2DEF SWAP1 PUSH2 0x366E JUMP JUMPDEST DUP1 ISZERO PUSH2 0x2E3A JUMPI DUP1 PUSH1 0x1F LT PUSH2 0x2E11 JUMPI PUSH2 0x100 DUP1 DUP4 SLOAD DIV MUL DUP4 MSTORE SWAP2 PUSH1 0x20 ADD SWAP2 PUSH2 0x2E3A JUMP JUMPDEST DUP3 ADD SWAP2 SWAP1 PUSH0 MSTORE PUSH1 0x20 PUSH0 KECCAK256 SWAP1 JUMPDEST DUP2 SLOAD DUP2 MSTORE SWAP1 PUSH1 0x1 ADD SWAP1 PUSH1 0x20 ADD DUP1 DUP4 GT PUSH2 0x2E1D JUMPI DUP3 SWAP1 SUB PUSH1 0x1F AND DUP3 ADD SWAP2 JUMPDEST POP POP POP POP POP DUP2 MSTORE PUSH1 0x20 ADD PUSH1 0xF DUP3 ADD DUP1 SLOAD PUSH2 0x2E53 SWAP1 PUSH2 0x366E JUMP JUMPDEST DUP1 PUSH1 0x1F ADD PUSH1 0x20 DUP1 SWAP2 DIV MUL PUSH1 0x20 ADD PUSH1 0x40 MLOAD SWAP1 DUP2 ADD PUSH1 0x40 MSTORE DUP1 SWAP3 SWAP2 SWAP1 DUP2 DUP2 MSTORE PUSH1 0x20 ADD DUP3 DUP1 SLOAD PUSH2 0x2E7F SWAP1 PUSH2 0x366E JUMP JUMPDEST DUP1 ISZERO PUSH2 0x2ECA JUMPI DUP1 PUSH1 0x1F LT PUSH2 0x2EA1 JUMPI PUSH2 0x100 DUP1 DUP4 SLOAD DIV MUL DUP4 MSTORE SWAP2 PUSH1 0x20 ADD SWAP2 PUSH2 0x2ECA JUMP JUMPDEST DUP3 ADD SWAP2 SWAP1 PUSH0 MSTORE PUSH1 0x20 PUSH0 KECCAK256 SWAP1 JUMPDEST DUP2 SLOAD DUP2 MSTORE SWAP1 PUSH1 0x1 ADD SWAP1 PUSH1 0x20 ADD DUP1 DUP4 GT PUSH2 0x2EAD JUMPI DUP3 SWAP1 SUB PUSH1 0x1F AND DUP3 ADD SWAP2 JUMPDEST POP POP POP POP POP DUP2 MSTORE PUSH1 0x20 ADD PUSH1 0x10 DUP3 ADD DUP1 SLOAD PUSH2 0x2EE3 SWAP1 PUSH2 0x366E JUMP JUMPDEST DUP1 PUSH1 0x1F ADD PUSH1 0x20 DUP1 SWAP2 DIV MUL PUSH1 0x20 ADD PUSH1 0x40 MLOAD SWAP1 DUP2 ADD PUSH1 0x40 MSTORE DUP1 SWAP3 SWAP2 SWAP1 DUP2 DUP2 MSTORE PUSH1 0x20 ADD DUP3 DUP1 SLOAD PUSH2 0x2F0F SWAP1 PUSH2 0x366E JUMP JUMPDEST DUP1 ISZERO PUSH2 0x2F5A JUMPI DUP1 PUSH1 0x1F LT PUSH2 0x2F31 JUMPI PUSH2 0x100 DUP1 DUP4 SLOAD DIV MUL DUP4 MSTORE SWAP2 PUSH1 0x20 ADD SWAP2 PUSH2 0x2F5A JUMP JUMPDEST DUP3 ADD SWAP2 SWAP1 PUSH0 MSTORE PUSH1 0x20 PUSH0 KECCAK256 SWAP1 JUMPDEST DUP2 SLOAD DUP2 MSTORE SWAP1 PUSH1 0x1 ADD SWAP1 PUSH1 0x20 ADD DUP1 DUP4 GT PUSH2 0x2F3D JUMPI DUP3 SWAP1 SUB PUSH1 0x1F AND DUP3 ADD SWAP2 JUMPDEST POP POP POP POP POP DUP2 MSTORE POP POP DUP2 MSTORE POP POP SWAP2 POP POP SWAP1 JUMP JUMPDEST PUSH1 0x40 MLOAD DUP1 PUSH1 0x80 ADD PUSH1 0x40 MSTORE DUP1 PUSH1 0x60 DUP2 MSTORE PUSH1 0x20 ADD PUSH0 DUP2 MSTORE PUSH1 0x20 ADD PUSH1 0x60 DUP2 MSTORE PUSH1 0x20 ADD PUSH2 0x300F PUSH1 0x40 MLOAD DUP1 PUSH2 0x220 ADD PUSH1 0x40 MSTORE DUP1 PUSH0 DUP2 MSTORE PUSH1 0x20 ADD PUSH0 DUP2 MSTORE PUSH1 0x20 ADD PUSH1 0x60 DUP2 MSTORE PUSH1 0x20 ADD PUSH1 0x60 DUP2 MSTORE PUSH1 0x20 ADD PUSH0 DUP2 MSTORE PUSH1 0x20 ADD PUSH0 DUP2 MSTORE PUSH1 0x20 ADD PUSH1 0x60 DUP2 MSTORE PUSH1 0x20 ADD PUSH1 0x60 DUP2 MSTORE PUSH1 0x20 ADD PUSH1 0x60 DUP2 MSTORE PUSH1 0x20 ADD PUSH1 0x60 DUP2 MSTORE PUSH1 0x20 ADD PUSH1 0x60 DUP2 MSTORE PUSH1 0x20 ADD PUSH0 DUP2 MSTORE PUSH1 0x20 ADD PUSH0 ISZERO ISZERO DUP2 MSTORE PUSH1 0x20 ADD PUSH1 0x60 DUP2 MSTORE PUSH1 0x20 ADD PUSH1 0x60 DUP2 MSTORE PUSH1 0x20 ADD PUSH1 0x60 DUP2 MSTORE PUSH1 0x20 ADD PUSH1 0x60 DUP2 MSTORE POP SWAP1 JUMP JUMPDEST SWAP1 MSTORE SWAP1 JUMP JUMPDEST PUSH0 DUP2 MLOAD DUP1 DUP5 MSTORE DUP1 PUSH1 0x20 DUP5 ADD PUSH1 0x20 DUP7 ADD MCOPY PUSH0 PUSH1 0x20 DUP3 DUP7 ADD ADD MSTORE PUSH1 0x20 PUSH1 0x1F NOT PUSH1 0x1F DUP4 ADD AND DUP6 ADD ADD SWAP2 POP POP SWAP3 SWAP2 POP POP JUMP JUMPDEST PUSH1 0x20 DUP2 MSTORE PUSH0 PUSH2 0x3054 PUSH1 0x20 DUP4 ADD DUP5 PUSH2 0x3014 JUMP JUMPDEST SWAP4 SWAP3 POP POP POP JUMP JUMPDEST PUSH0 PUSH1 0x20 DUP3 DUP5 SUB SLT ISZERO PUSH2 0x306B JUMPI PUSH0 PUSH0 REVERT JUMPDEST DUP2 CALLDATALOAD PUSH1 0x1 PUSH1 0x1 PUSH1 0x40 SHL SUB DUP2 GT ISZERO PUSH2 0x3080 JUMPI PUSH0 PUSH0 REVERT JUMPDEST DUP3 ADD PUSH2 0x220 DUP2 DUP6 SUB SLT ISZERO PUSH2 0x3054 JUMPI PUSH0 PUSH0 REVERT JUMPDEST PUSH0 DUP2 MLOAD PUSH1 0x80 DUP5 MSTORE PUSH2 0x30A6 PUSH1 0x80 DUP6 ADD DUP3 PUSH2 0x3014 JUMP JUMPDEST SWAP1 POP PUSH1 0x20 DUP4 ADD MLOAD PUSH1 0x20 DUP6 ADD MSTORE PUSH1 0x40 DUP4 ADD MLOAD DUP5 DUP3 SUB PUSH1 0x40 DUP7 ADD MSTORE PUSH2 0x30C9 DUP3 DUP3 PUSH2 0x3014 JUMP JUMPDEST SWAP2 POP POP PUSH1 0x60 DUP4 ADD MLOAD DUP5 DUP3 SUB PUSH1 0x60 DUP7 ADD MSTORE DUP1 MLOAD DUP3 MSTORE PUSH1 0x20 DUP2 ADD MLOAD PUSH1 0x20 DUP4 ADD MSTORE PUSH1 0x40 DUP2 ADD MLOAD PUSH2 0x220 PUSH1 0x40 DUP5 ADD MSTORE PUSH2 0x3102 PUSH2 0x220 DUP5 ADD DUP3 PUSH2 0x3014 JUMP JUMPDEST SWAP1 POP PUSH1 0x60 DUP3 ADD MLOAD DUP4 DUP3 SUB PUSH1 0x60 DUP6 ADD MSTORE PUSH2 0x311B DUP3 DUP3 PUSH2 0x3014 JUMP JUMPDEST SWAP2 POP POP PUSH1 0x80 DUP3 ADD MLOAD PUSH1 0x80 DUP5 ADD MSTORE PUSH1 0xA0 DUP3 ADD MLOAD PUSH1 0xA0 DUP5 ADD MSTORE PUSH1 0xC0 DUP3 ADD MLOAD DUP4 DUP3 SUB PUSH1 0xC0 DUP6 ADD MSTORE PUSH2 0x3149 DUP3 DUP3 PUSH2 0x3014 JUMP JUMPDEST SWAP2 POP POP PUSH1 0xE0 DUP3 ADD MLOAD DUP4 DUP3 SUB PUSH1 0xE0 DUP6 ADD MSTORE PUSH2 0x3163 DUP3 DUP3 PUSH2 0x3014 JUMP JUMPDEST SWAP2 POP POP PUSH2 0x100 DUP3 ADD MLOAD DUP4 DUP3 SUB PUSH2 0x100 DUP6 ADD MSTORE PUSH2 0x317F DUP3 DUP3 PUSH2 0x3014 JUMP JUMPDEST SWAP2 POP POP PUSH2 0x120 DUP3 ADD MLOAD DUP4 DUP3 SUB PUSH2 0x120 DUP6 ADD MSTORE PUSH2 0x319B DUP3 DUP3 PUSH2 0x3014 JUMP JUMPDEST SWAP2 POP POP PUSH2 0x140 DUP3 ADD MLOAD DUP4 DUP3 SUB PUSH2 0x140 DUP6 ADD MSTORE PUSH2 0x31B7 DUP3 DUP3 PUSH2 0x3014 JUMP JUMPDEST SWAP2 POP POP PUSH2 0x160 DUP3 ADD MLOAD PUSH2 0x160 DUP5 ADD MSTORE PUSH2 0x180 DUP3 ADD MLOAD PUSH2 0x31DB PUSH2 0x180 DUP6 ADD DUP3 ISZERO ISZERO SWAP1 MSTORE JUMP JUMPDEST POP PUSH2 0x1A0 DUP3 ADD MLOAD DUP4 DUP3 SUB PUSH2 0x1A0 DUP6 ADD MSTORE PUSH2 0x31F5 DUP3 DUP3 PUSH2 0x3014 JUMP JUMPDEST SWAP2 POP POP PUSH2 0x1C0 DUP3 ADD MLOAD DUP4 DUP3 SUB PUSH2 0x1C0 DUP6 ADD MSTORE PUSH2 0x3211 DUP3 DUP3 PUSH2 0x3014 JUMP JUMPDEST SWAP2 POP POP PUSH2 0x1E0 DUP3 ADD MLOAD DUP4 DUP3 SUB PUSH2 0x1E0 DUP6 ADD MSTORE PUSH2 0x322D DUP3 DUP3 PUSH2 0x3014 JUMP JUMPDEST SWAP2 POP POP PUSH2 0x200 DUP3 ADD MLOAD SWAP2 POP DUP3 DUP2 SUB PUSH2 0x200 DUP5 ADD MSTORE PUSH2 0x324B DUP2 DUP4 PUSH2 0x3014 JUMP JUMPDEST SWAP7 SWAP6 POP POP POP POP POP POP JUMP JUMPDEST PUSH0 PUSH1 0x20 DUP3 ADD PUSH1 0x20 DUP4 MSTORE DUP1 DUP5 MLOAD DUP1 DUP4 MSTORE PUSH1 0x40 DUP6 ADD SWAP2 POP PUSH1 0x40 DUP2 PUSH1 0x5 SHL DUP7 ADD ADD SWAP3 POP PUSH1 0x20 DUP7 ADD PUSH0 JUMPDEST DUP3 DUP2 LT ISZERO PUSH2 0x32AC JUMPI PUSH1 0x3F NOT DUP8 DUP7 SUB ADD DUP5 MSTORE PUSH2 0x3297 DUP6 DUP4 MLOAD PUSH2 0x3092 JUMP JUMPDEST SWAP5 POP PUSH1 0x20 SWAP4 DUP5 ADD SWAP4 SWAP2 SWAP1 SWAP2 ADD SWAP1 PUSH1 0x1 ADD PUSH2 0x327B JUMP JUMPDEST POP SWAP3 SWAP7 SWAP6 POP POP POP POP POP POP JUMP JUMPDEST PUSH0 PUSH1 0x20 DUP3 DUP5 SUB SLT ISZERO PUSH2 0x32C8 JUMPI PUSH0 PUSH0 REVERT JUMPDEST POP CALLDATALOAD SWAP2 SWAP1 POP JUMP JUMPDEST PUSH1 0x20 DUP2 MSTORE PUSH0 PUSH2 0x3054 PUSH1 0x20 DUP4 ADD DUP5 PUSH2 0x3092 JUMP JUMPDEST PUSH0 PUSH0 PUSH1 0x40 DUP4 DUP6 SUB SLT ISZERO PUSH2 0x32F2 JUMPI PUSH0 PUSH0 REVERT JUMPDEST POP POP DUP1 CALLDATALOAD SWAP3 PUSH1 0x20 SWAP1 SWAP2 ADD CALLDATALOAD SWAP2 POP JUMP JUMPDEST PUSH0 PUSH0 DUP4 CALLDATALOAD PUSH1 0x1E NOT DUP5 CALLDATASIZE SUB ADD DUP2 SLT PUSH2 0x3316 JUMPI PUSH0 PUSH0 REVERT JUMPDEST DUP4 ADD DUP1 CALLDATALOAD SWAP2 POP PUSH1 0x1 PUSH1 0x1 PUSH1 0x40 SHL SUB DUP3 GT ISZERO PUSH2 0x332F JUMPI PUSH0 PUSH0 REVERT JUMPDEST PUSH1 0x20 ADD SWAP2 POP CALLDATASIZE DUP2 SWAP1 SUB DUP3 SGT ISZERO PUSH2 0x3343 JUMPI PUSH0 PUSH0 REVERT JUMPDEST SWAP3 POP SWAP3 SWAP1 POP JUMP JUMPDEST DUP2 DUP4 DUP3 CALLDATACOPY PUSH0 SWAP2 ADD SWAP1 DUP2 MSTORE SWAP2 SWAP1 POP JUMP JUMPDEST PUSH4 0x4E487B71 PUSH1 0xE0 SHL PUSH0 MSTORE PUSH1 0x41 PUSH1 0x4 MSTORE PUSH1 0x24 PUSH0 REVERT JUMPDEST PUSH1 0x40 MLOAD PUSH2 0x220 DUP2 ADD PUSH1 0x1 PUSH1 0x1 PUSH1 0x40 SHL SUB DUP2 GT DUP3 DUP3 LT OR ISZERO PUSH2 0x3390 JUMPI PUSH2 0x3390 PUSH2 0x3359 JUMP JUMPDEST PUSH1 0x40 MSTORE SWAP1 JUMP JUMPDEST PUSH0 DUP3 PUSH1 0x1F DUP4 ADD SLT PUSH2 0x33A5 JUMPI PUSH0 PUSH0 REVERT JUMPDEST DUP2 CALLDATALOAD PUSH1 0x1 PUSH1 0x1 PUSH1 0x40 SHL SUB DUP2 GT ISZERO PUSH2 0x33BE JUMPI PUSH2 0x33BE PUSH2 0x3359 JUMP JUMPDEST PUSH1 0x40 MLOAD PUSH1 0x1F DUP3 ADD PUSH1 0x1F NOT SWAP1 DUP2 AND PUSH1 0x3F ADD AND DUP2 ADD PUSH1 0x1 PUSH1 0x1 PUSH1 0x40 SHL SUB DUP2 GT DUP3 DUP3 LT OR ISZERO PUSH2 0x33EC JUMPI PUSH2 0x33EC PUSH2 0x3359 JUMP JUMPDEST PUSH1 0x40 MSTORE DUP2 DUP2 MSTORE DUP4 DUP3 ADD PUSH1 0x20 ADD DUP6 LT ISZERO PUSH2 0x3403 JUMPI PUSH0 PUSH0 REVERT JUMPDEST DUP2 PUSH1 0x20 DUP6 ADD PUSH1 0x20 DUP4 ADD CALLDATACOPY PUSH0 SWAP2 DUP2 ADD PUSH1 0x20 ADD SWAP2 SWAP1 SWAP2 MSTORE SWAP4 SWAP3 POP POP POP JUMP JUMPDEST DUP1 CALLDATALOAD DUP1 ISZERO ISZERO DUP2 EQ PUSH2 0x342E JUMPI PUSH0 PUSH0 REVERT JUMPDEST SWAP2 SWAP1 POP JUMP JUMPDEST PUSH0 PUSH2 0x220 DUP3 CALLDATASIZE SUB SLT ISZERO PUSH2 0x3444 JUMPI PUSH0 PUSH0 REVERT JUMPDEST PUSH2 0x344C PUSH2 0x336D JUMP JUMPDEST DUP3 CALLDATALOAD DUP2 MSTORE PUSH1 0x20 DUP1 DUP5 ADD CALLDATALOAD SWAP1 DUP3 ADD MSTORE PUSH1 0x40 DUP4 ADD CALLDATALOAD PUSH1 0x1 PUSH1 0x1 PUSH1 0x40 SHL SUB DUP2 GT ISZERO PUSH2 0x3472 JUMPI PUSH0 PUSH0 REVERT JUMPDEST PUSH2 0x347E CALLDATASIZE DUP3 DUP7 ADD PUSH2 0x3396 JUMP JUMPDEST PUSH1 0x40 DUP4 ADD MSTORE POP PUSH1 0x60 DUP4 ADD CALLDATALOAD PUSH1 0x1 PUSH1 0x1 PUSH1 0x40 SHL SUB DUP2 GT ISZERO PUSH2 0x349C JUMPI PUSH0 PUSH0 REVERT JUMPDEST PUSH2 0x34A8 CALLDATASIZE DUP3 DUP7 ADD PUSH2 0x3396 JUMP JUMPDEST PUSH1 0x60 DUP4 ADD MSTORE POP PUSH1 0x80 DUP4 DUP2 ADD CALLDATALOAD SWAP1 DUP3 ADD MSTORE PUSH1 0xA0 DUP1 DUP5 ADD CALLDATALOAD SWAP1 DUP3 ADD MSTORE PUSH1 0xC0 DUP4 ADD CALLDATALOAD PUSH1 0x1 PUSH1 0x1 PUSH1 0x40 SHL SUB DUP2 GT ISZERO PUSH2 0x34DA JUMPI PUSH0 PUSH0 REVERT JUMPDEST PUSH2 0x34E6 CALLDATASIZE DUP3 DUP7 ADD PUSH2 0x3396 JUMP JUMPDEST PUSH1 0xC0 DUP4 ADD MSTORE POP PUSH1 0xE0 DUP4 ADD CALLDATALOAD PUSH1 0x1 PUSH1 0x1 PUSH1 0x40 SHL SUB DUP2 GT ISZERO PUSH2 0x3504 JUMPI PUSH0 PUSH0 REVERT JUMPDEST PUSH2 0x3510 CALLDATASIZE DUP3 DUP7 ADD PUSH2 0x3396 JUMP JUMPDEST PUSH1 0xE0 DUP4 ADD MSTORE POP PUSH2 0x100 DUP4 ADD CALLDATALOAD PUSH1 0x1 PUSH1 0x1 PUSH1 0x40 SHL SUB DUP2 GT ISZERO PUSH2 0x352F JUMPI PUSH0 PUSH0 REVERT JUMPDEST PUSH2 0x353B CALLDATASIZE DUP3 DUP7 ADD PUSH2 0x3396 JUMP JUMPDEST PUSH2 0x100 DUP4 ADD MSTORE POP PUSH2 0x120 DUP4 ADD CALLDATALOAD PUSH1 0x1 PUSH1 0x1 PUSH1 0x40 SHL SUB DUP2 GT ISZERO PUSH2 0x355B JUMPI PUSH0 PUSH0 REVERT JUMPDEST PUSH2 0x3567 CALLDATASIZE DUP3 DUP7 ADD PUSH2 0x3396 JUMP JUMPDEST PUSH2 0x120 DUP4 ADD MSTORE POP PUSH2 0x140 DUP4 ADD CALLDATALOAD PUSH1 0x1 PUSH1 0x1 PUSH1 0x40 SHL SUB DUP2 GT ISZERO PUSH2 0x3587 JUMPI PUSH0 PUSH0 REVERT JUMPDEST PUSH2 0x3593 CALLDATASIZE DUP3 DUP7 ADD PUSH2 0x3396 JUMP JUMPDEST PUSH2 0x140 DUP4 ADD MSTORE POP PUSH2 0x160 DUP4 DUP2 ADD CALLDATALOAD SWAP1 DUP3 ADD MSTORE PUSH2 0x35B2 PUSH2 0x180 DUP5 ADD PUSH2 0x341F JUMP JUMPDEST PUSH2 0x180 DUP3 ADD MSTORE PUSH2 0x1A0 DUP4 ADD CALLDATALOAD PUSH1 0x1 PUSH1 0x1 PUSH1 0x40 SHL SUB DUP2 GT ISZERO PUSH2 0x35D1 JUMPI PUSH0 PUSH0 REVERT JUMPDEST PUSH2 0x35DD CALLDATASIZE DUP3 DUP7 ADD PUSH2 0x3396 JUMP JUMPDEST PUSH2 0x1A0 DUP4 ADD MSTORE POP PUSH2 0x1C0 DUP4 ADD CALLDATALOAD PUSH1 0x1 PUSH1 0x1 PUSH1 0x40 SHL SUB DUP2 GT ISZERO PUSH2 0x35FD JUMPI PUSH0 PUSH0 REVERT JUMPDEST PUSH2 0x3609 CALLDATASIZE DUP3 DUP7 ADD PUSH2 0x3396 JUMP JUMPDEST PUSH2 0x1C0 DUP4 ADD MSTORE POP PUSH2 0x1E0 DUP4 ADD CALLDATALOAD PUSH1 0x1 PUSH1 0x1 PUSH1 0x40 SHL SUB DUP2 GT ISZERO PUSH2 0x3629 JUMPI PUSH0 PUSH0 REVERT JUMPDEST PUSH2 0x3635 CALLDATASIZE DUP3 DUP7 ADD PUSH2 0x3396 JUMP JUMPDEST PUSH2 0x1E0 DUP4 ADD MSTORE POP PUSH2 0x200 DUP4 ADD CALLDATALOAD PUSH1 0x1 PUSH1 0x1 PUSH1 0x40 SHL SUB DUP2 GT ISZERO PUSH2 0x3655 JUMPI PUSH0 PUSH0 REVERT JUMPDEST PUSH2 0x3661 CALLDATASIZE DUP3 DUP7 ADD PUSH2 0x3396 JUMP JUMPDEST PUSH2 0x200 DUP4 ADD MSTORE POP SWAP3 SWAP2 POP POP JUMP JUMPDEST PUSH1 0x1 DUP2 DUP2 SHR SWAP1 DUP3 AND DUP1 PUSH2 0x3682 JUMPI PUSH1 0x7F DUP3 AND SWAP2 POP JUMPDEST PUSH1 0x20 DUP3 LT DUP2 SUB PUSH2 0xD0A JUMPI PUSH4 0x4E487B71 PUSH1 0xE0 SHL PUSH0 MSTORE PUSH1 0x22 PUSH1 0x4 MSTORE PUSH1 0x24 PUSH0 REVERT JUMPDEST PUSH1 0x1F DUP3 GT ISZERO PUSH2 0x36E7 JUMPI DUP1 PUSH0 MSTORE PUSH1 0x20 PUSH0 KECCAK256 PUSH1 0x1F DUP5 ADD PUSH1 0x5 SHR DUP2 ADD PUSH1 0x20 DUP6 LT ISZERO PUSH2 0x36C5 JUMPI POP DUP1 JUMPDEST PUSH1 0x1F DUP5 ADD PUSH1 0x5 SHR DUP3 ADD SWAP2 POP JUMPDEST DUP2 DUP2 LT ISZERO PUSH2 0x36E4 JUMPI PUSH0 DUP2 SSTORE PUSH1 0x1 ADD PUSH2 0x36D1 JUMP JUMPDEST POP POP JUMPDEST POP POP POP JUMP JUMPDEST DUP2 MLOAD PUSH1 0x1 PUSH1 0x1 PUSH1 0x40 SHL SUB DUP2 GT ISZERO PUSH2 0x3705 JUMPI PUSH2 0x3705 PUSH2 0x3359 JUMP JUMPDEST PUSH2 0x3719 DUP2 PUSH2 0x3713 DUP5 SLOAD PUSH2 0x366E JUMP JUMPDEST DUP5 PUSH2 0x36A0 JUMP JUMPDEST PUSH1 0x20 PUSH1 0x1F DUP3 GT PUSH1 0x1 DUP2 EQ PUSH2 0x374B JUMPI PUSH0 DUP4 ISZERO PUSH2 0x3734 JUMPI POP DUP5 DUP3 ADD MLOAD JUMPDEST PUSH0 NOT PUSH1 0x3 DUP6 SWAP1 SHL SHR NOT AND PUSH1 0x1 DUP5 SWAP1 SHL OR DUP5 SSTORE PUSH2 0x36E4 JUMP JUMPDEST PUSH0 DUP5 DUP2 MSTORE PUSH1 0x20 DUP2 KECCAK256 PUSH1 0x1F NOT DUP6 AND SWAP2 JUMPDEST DUP3 DUP2 LT ISZERO PUSH2 0x377A JUMPI DUP8 DUP6 ADD MLOAD DUP3 SSTORE PUSH1 0x20 SWAP5 DUP6 ADD SWAP5 PUSH1 0x1 SWAP1 SWAP3 ADD SWAP2 ADD PUSH2 0x375A JUMP JUMPDEST POP DUP5 DUP3 LT ISZERO PUSH2 0x3797 JUMPI DUP7 DUP5 ADD MLOAD PUSH0 NOT PUSH1 0x3 DUP8 SWAP1 SHL PUSH1 0xF8 AND SHR NOT AND DUP2 SSTORE JUMPDEST POP POP POP POP PUSH1 0x1 SWAP1 DUP2 SHL ADD SWAP1 SSTORE POP JUMP JUMPDEST DUP2 DUP4 MSTORE DUP2 DUP2 PUSH1 0x20 DUP6 ADD CALLDATACOPY POP PUSH0 DUP3 DUP3 ADD PUSH1 0x20 SWAP1 DUP2 ADD SWAP2 SWAP1 SWAP2 MSTORE PUSH1 0x1F SWAP1 SWAP2 ADD PUSH1 0x1F NOT AND SWAP1 SWAP2 ADD ADD SWAP1 JUMP JUMPDEST DUP8 DUP2 MSTORE PUSH1 0x80 PUSH1 0x20 DUP3 ADD MSTORE PUSH0 PUSH2 0x37E7 PUSH1 0x80 DUP4 ADD DUP9 DUP11 PUSH2 0x37A6 JUMP JUMPDEST DUP3 DUP2 SUB PUSH1 0x40 DUP5 ADD MSTORE PUSH2 0x37FA DUP2 DUP8 DUP10 PUSH2 0x37A6 JUMP JUMPDEST SWAP1 POP DUP3 DUP2 SUB PUSH1 0x60 DUP5 ADD MSTORE PUSH2 0x380F DUP2 DUP6 DUP8 PUSH2 0x37A6 JUMP JUMPDEST SWAP11 SWAP10 POP POP POP POP POP POP POP POP POP POP JUMP JUMPDEST PUSH4 0x4E487B71 PUSH1 0xE0 SHL PUSH0 MSTORE PUSH1 0x32 PUSH1 0x4 MSTORE PUSH1 0x24 PUSH0 REVERT JUMPDEST PUSH4 0x4E487B71 PUSH1 0xE0 SHL PUSH0 MSTORE PUSH1 0x11 PUSH1 0x4 MSTORE PUSH1 0x24 PUSH0 REVERT JUMPDEST PUSH0 PUSH1 0x1 DUP3 ADD PUSH2 0x3856 JUMPI PUSH2 0x3856 PUSH2 0x3831 JUMP JUMPDEST POP PUSH1 0x1 ADD SWAP1 JUMP JUMPDEST DUP2 DUP2 SUB DUP2 DUP2 GT ISZERO PUSH2 0x271A JUMPI PUSH2 0x271A PUSH2 0x3831 JUMP INVALID LOG2 PUSH5 0x6970667358 0x22 SLT KECCAK256 COINBASE SWAP10 PUSH32 0x214ACF92F862B90BB99B3CD2B4AA6C5C2FDEC08A32F56A62EC63FBB0F964736F PUSH13 0x634300081E0033000000000000 "
				},
				"gasEstimates": {
					"creation": {
						"codeDepositCost": "2900400",
						"executionCost": "3175",
						"totalCost": "2903575"
					},
					"external": {
						"INTERVAL_1S()": "infinite",
						"getAllCandle()": "infinite",
						"getCandle(uint256)": "infinite",
						"getCandleFrom(uint256)": "infinite",
						"getCandleInRange(uint256,uint256)": "infinite",
						"getLastKline()": "infinite",
						"getLength()": "2279",
						"recordCandle((uint256,uint256,string,string,uint256,uint256,string,string,string,string,string,uint256,bool,string,string,string,string))": "infinite"
					}
				},
				"methodIdentifiers": {
					"INTERVAL_1S()": "5d0345c7",
					"getAllCandle()": "8d5ce2bc",
					"getCandle(uint256)": "a00a5424",
					"getCandleFrom(uint256)": "c42de988",
					"getCandleInRange(uint256,uint256)": "da0bb97b",
					"getLastKline()": "edd0bf6a",
					"getLength()": "be1c766b",
					"recordCandle((uint256,uint256,string,string,uint256,uint256,string,string,string,string,string,uint256,bool,string,string,string,string))": "7b806be4"
				}
			},
			"storageLayout": {
				"storage": [
					{
						"astId": 78,
						"contract": "contracts/manager/Candel_1s/Candel_1s_Manager.sol:Candle_1s_Manager",
						"label": "candles",
						"offset": 0,
						"slot": "0",
						"type": "t_mapping(t_uint256,t_struct(CandleResponse)515_storage)"
					},
					{
						"astId": 81,
						"contract": "contracts/manager/Candel_1s/Candel_1s_Manager.sol:Candle_1s_Manager",
						"label": "timestampList",
						"offset": 0,
						"slot": "1",
						"type": "t_array(t_uint256)dyn_storage"
					}
				],
				"types": {
					"t_array(t_uint256)dyn_storage": {
						"base": "t_uint256",
						"encoding": "dynamic_array",
						"label": "uint256[]",
						"numberOfBytes": "32"
					},
					"t_bool": {
						"encoding": "inplace",
						"label": "bool",
						"numberOfBytes": "1"
					},
					"t_mapping(t_uint256,t_struct(CandleResponse)515_storage)": {
						"encoding": "mapping",
						"key": "t_uint256",
						"label": "mapping(uint256 => struct CandleResponse)",
						"numberOfBytes": "32",
						"value": "t_struct(CandleResponse)515_storage"
					},
					"t_string_storage": {
						"encoding": "bytes",
						"label": "string",
						"numberOfBytes": "32"
					},
					"t_struct(CandleRecord)505_storage": {
						"encoding": "inplace",
						"label": "struct CandleRecord",
						"members": [
							{
								"astId": 472,
								"contract": "contracts/manager/Candel_1s/Candel_1s_Manager.sol:Candle_1s_Manager",
								"label": "t",
								"offset": 0,
								"slot": "0",
								"type": "t_uint256"
							},
							{
								"astId": 474,
								"contract": "contracts/manager/Candel_1s/Candel_1s_Manager.sol:Candle_1s_Manager",
								"label": "T",
								"offset": 0,
								"slot": "1",
								"type": "t_uint256"
							},
							{
								"astId": 476,
								"contract": "contracts/manager/Candel_1s/Candel_1s_Manager.sol:Candle_1s_Manager",
								"label": "s",
								"offset": 0,
								"slot": "2",
								"type": "t_string_storage"
							},
							{
								"astId": 478,
								"contract": "contracts/manager/Candel_1s/Candel_1s_Manager.sol:Candle_1s_Manager",
								"label": "i",
								"offset": 0,
								"slot": "3",
								"type": "t_string_storage"
							},
							{
								"astId": 480,
								"contract": "contracts/manager/Candel_1s/Candel_1s_Manager.sol:Candle_1s_Manager",
								"label": "f",
								"offset": 0,
								"slot": "4",
								"type": "t_uint256"
							},
							{
								"astId": 482,
								"contract": "contracts/manager/Candel_1s/Candel_1s_Manager.sol:Candle_1s_Manager",
								"label": "L",
								"offset": 0,
								"slot": "5",
								"type": "t_uint256"
							},
							{
								"astId": 484,
								"contract": "contracts/manager/Candel_1s/Candel_1s_Manager.sol:Candle_1s_Manager",
								"label": "o",
								"offset": 0,
								"slot": "6",
								"type": "t_string_storage"
							},
							{
								"astId": 486,
								"contract": "contracts/manager/Candel_1s/Candel_1s_Manager.sol:Candle_1s_Manager",
								"label": "c",
								"offset": 0,
								"slot": "7",
								"type": "t_string_storage"
							},
							{
								"astId": 488,
								"contract": "contracts/manager/Candel_1s/Candel_1s_Manager.sol:Candle_1s_Manager",
								"label": "h",
								"offset": 0,
								"slot": "8",
								"type": "t_string_storage"
							},
							{
								"astId": 490,
								"contract": "contracts/manager/Candel_1s/Candel_1s_Manager.sol:Candle_1s_Manager",
								"label": "l",
								"offset": 0,
								"slot": "9",
								"type": "t_string_storage"
							},
							{
								"astId": 492,
								"contract": "contracts/manager/Candel_1s/Candel_1s_Manager.sol:Candle_1s_Manager",
								"label": "v",
								"offset": 0,
								"slot": "10",
								"type": "t_string_storage"
							},
							{
								"astId": 494,
								"contract": "contracts/manager/Candel_1s/Candel_1s_Manager.sol:Candle_1s_Manager",
								"label": "n",
								"offset": 0,
								"slot": "11",
								"type": "t_uint256"
							},
							{
								"astId": 496,
								"contract": "contracts/manager/Candel_1s/Candel_1s_Manager.sol:Candle_1s_Manager",
								"label": "x",
								"offset": 0,
								"slot": "12",
								"type": "t_bool"
							},
							{
								"astId": 498,
								"contract": "contracts/manager/Candel_1s/Candel_1s_Manager.sol:Candle_1s_Manager",
								"label": "q",
								"offset": 0,
								"slot": "13",
								"type": "t_string_storage"
							},
							{
								"astId": 500,
								"contract": "contracts/manager/Candel_1s/Candel_1s_Manager.sol:Candle_1s_Manager",
								"label": "V",
								"offset": 0,
								"slot": "14",
								"type": "t_string_storage"
							},
							{
								"astId": 502,
								"contract": "contracts/manager/Candel_1s/Candel_1s_Manager.sol:Candle_1s_Manager",
								"label": "Q",
								"offset": 0,
								"slot": "15",
								"type": "t_string_storage"
							},
							{
								"astId": 504,
								"contract": "contracts/manager/Candel_1s/Candel_1s_Manager.sol:Candle_1s_Manager",
								"label": "B",
								"offset": 0,
								"slot": "16",
								"type": "t_string_storage"
							}
						],
						"numberOfBytes": "544"
					},
					"t_struct(CandleResponse)515_storage": {
						"encoding": "inplace",
						"label": "struct CandleResponse",
						"members": [
							{
								"astId": 507,
								"contract": "contracts/manager/Candel_1s/Candel_1s_Manager.sol:Candle_1s_Manager",
								"label": "e",
								"offset": 0,
								"slot": "0",
								"type": "t_string_storage"
							},
							{
								"astId": 509,
								"contract": "contracts/manager/Candel_1s/Candel_1s_Manager.sol:Candle_1s_Manager",
								"label": "E",
								"offset": 0,
								"slot": "1",
								"type": "t_uint256"
							},
							{
								"astId": 511,
								"contract": "contracts/manager/Candel_1s/Candel_1s_Manager.sol:Candle_1s_Manager",
								"label": "s",
								"offset": 0,
								"slot": "2",
								"type": "t_string_storage"
							},
							{
								"astId": 514,
								"contract": "contracts/manager/Candel_1s/Candel_1s_Manager.sol:Candle_1s_Manager",
								"label": "k",
								"offset": 0,
								"slot": "3",
								"type": "t_struct(CandleRecord)505_storage"
							}
						],
						"numberOfBytes": "640"
					},
					"t_uint256": {
						"encoding": "inplace",
						"label": "uint256",
						"numberOfBytes": "32"
					}
				}
			},
			"userdoc": {
				"kind": "user",
				"methods": {},
				"version": 1
			}
		}
	}
}