{
	"contracts/manager/Candel_1M/Candel_1M_Manager.sol": {
		"Candle_1M_Manager": {
			"abi": [
				{
					"anonymous": false,
					"inputs": [
						{
							"indexed": false,
							"internalType": "uint256",
							"name": "timestamp",
							"type": "uint256"
						},
						{
							"indexed": false,
							"internalType": "string",
							"name": "symbol",
							"type": "string"
						},
						{
							"indexed": false,
							"internalType": "uint256",
							"name": "open",
							"type": "uint256"
						},
						{
							"indexed": false,
							"internalType": "uint256",
							"name": "close",
							"type": "uint256"
						}
					],
					"name": "AddCandleRecord",
					"type": "event"
				},
				{
					"inputs": [],
					"name": "getAllCandle",
					"outputs": [
						{
							"components": [
								{
									"internalType": "string",
									"name": "e",
									"type": "string"
								},
								{
									"internalType": "uint256",
									"name": "E",
									"type": "uint256"
								},
								{
									"internalType": "string",
									"name": "s",
									"type": "string"
								},
								{
									"components": [
										{
											"internalType": "uint256",
											"name": "t",
											"type": "uint256"
										},
										{
											"internalType": "uint256",
											"name": "T",
											"type": "uint256"
										},
										{
											"internalType": "string",
											"name": "s",
											"type": "string"
										},
										{
											"internalType": "string",
											"name": "i",
											"type": "string"
										},
										{
											"internalType": "uint256",
											"name": "f",
											"type": "uint256"
										},
										{
											"internalType": "uint256",
											"name": "L",
											"type": "uint256"
										},
										{
											"internalType": "uint256",
											"name": "o",
											"type": "uint256"
										},
										{
											"internalType": "uint256",
											"name": "c",
											"type": "uint256"
										},
										{
											"internalType": "uint256",
											"name": "h",
											"type": "uint256"
										},
										{
											"internalType": "uint256",
											"name": "l",
											"type": "uint256"
										},
										{
											"internalType": "uint256",
											"name": "v",
											"type": "uint256"
										},
										{
											"internalType": "uint256",
											"name": "n",
											"type": "uint256"
										},
										{
											"internalType": "bool",
											"name": "x",
											"type": "bool"
										},
										{
											"internalType": "uint256",
											"name": "q",
											"type": "uint256"
										},
										{
											"internalType": "uint256",
											"name": "V",
											"type": "uint256"
										},
										{
											"internalType": "uint256",
											"name": "Q",
											"type": "uint256"
										},
										{
											"internalType": "string",
											"name": "B",
											"type": "string"
										}
									],
									"internalType": "struct CandleRecord",
									"name": "k",
									"type": "tuple"
								}
							],
							"internalType": "struct CandleResponse[]",
							"name": "",
							"type": "tuple[]"
						}
					],
					"stateMutability": "view",
					"type": "function"
				},
				{
					"inputs": [
						{
							"internalType": "uint256",
							"name": "timestamp",
							"type": "uint256"
						}
					],
					"name": "getCandle",
					"outputs": [
						{
							"components": [
								{
									"internalType": "string",
									"name": "e",
									"type": "string"
								},
								{
									"internalType": "uint256",
									"name": "E",
									"type": "uint256"
								},
								{
									"internalType": "string",
									"name": "s",
									"type": "string"
								},
								{
									"components": [
										{
											"internalType": "uint256",
											"name": "t",
											"type": "uint256"
										},
										{
											"internalType": "uint256",
											"name": "T",
											"type": "uint256"
										},
										{
											"internalType": "string",
											"name": "s",
											"type": "string"
										},
										{
											"internalType": "string",
											"name": "i",
											"type": "string"
										},
										{
											"internalType": "uint256",
											"name": "f",
											"type": "uint256"
										},
										{
											"internalType": "uint256",
											"name": "L",
											"type": "uint256"
										},
										{
											"internalType": "uint256",
											"name": "o",
											"type": "uint256"
										},
										{
											"internalType": "uint256",
											"name": "c",
											"type": "uint256"
										},
										{
											"internalType": "uint256",
											"name": "h",
											"type": "uint256"
										},
										{
											"internalType": "uint256",
											"name": "l",
											"type": "uint256"
										},
										{
											"internalType": "uint256",
											"name": "v",
											"type": "uint256"
										},
										{
											"internalType": "uint256",
											"name": "n",
											"type": "uint256"
										},
										{
											"internalType": "bool",
											"name": "x",
											"type": "bool"
										},
										{
											"internalType": "uint256",
											"name": "q",
											"type": "uint256"
										},
										{
											"internalType": "uint256",
											"name": "V",
											"type": "uint256"
										},
										{
											"internalType": "uint256",
											"name": "Q",
											"type": "uint256"
										},
										{
											"internalType": "string",
											"name": "B",
											"type": "string"
										}
									],
									"internalType": "struct CandleRecord",
									"name": "k",
									"type": "tuple"
								}
							],
							"internalType": "struct CandleResponse",
							"name": "",
							"type": "tuple"
						}
					],
					"stateMutability": "view",
					"type": "function"
				},
				{
					"inputs": [],
					"name": "getLastKline",
					"outputs": [
						{
							"components": [
								{
									"internalType": "string",
									"name": "e",
									"type": "string"
								},
								{
									"internalType": "uint256",
									"name": "E",
									"type": "uint256"
								},
								{
									"internalType": "string",
									"name": "s",
									"type": "string"
								},
								{
									"components": [
										{
											"internalType": "uint256",
											"name": "t",
											"type": "uint256"
										},
										{
											"internalType": "uint256",
											"name": "T",
											"type": "uint256"
										},
										{
											"internalType": "string",
											"name": "s",
											"type": "string"
										},
										{
											"internalType": "string",
											"name": "i",
											"type": "string"
										},
										{
											"internalType": "uint256",
											"name": "f",
											"type": "uint256"
										},
										{
											"internalType": "uint256",
											"name": "L",
											"type": "uint256"
										},
										{
											"internalType": "uint256",
											"name": "o",
											"type": "uint256"
										},
										{
											"internalType": "uint256",
											"name": "c",
											"type": "uint256"
										},
										{
											"internalType": "uint256",
											"name": "h",
											"type": "uint256"
										},
										{
											"internalType": "uint256",
											"name": "l",
											"type": "uint256"
										},
										{
											"internalType": "uint256",
											"name": "v",
											"type": "uint256"
										},
										{
											"internalType": "uint256",
											"name": "n",
											"type": "uint256"
										},
										{
											"internalType": "bool",
											"name": "x",
											"type": "bool"
										},
										{
											"internalType": "uint256",
											"name": "q",
											"type": "uint256"
										},
										{
											"internalType": "uint256",
											"name": "V",
											"type": "uint256"
										},
										{
											"internalType": "uint256",
											"name": "Q",
											"type": "uint256"
										},
										{
											"internalType": "string",
											"name": "B",
											"type": "string"
										}
									],
									"internalType": "struct CandleRecord",
									"name": "k",
									"type": "tuple"
								}
							],
							"internalType": "struct CandleResponse",
							"name": "",
							"type": "tuple"
						}
					],
					"stateMutability": "view",
					"type": "function"
				},
				{
					"inputs": [],
					"name": "getLength",
					"outputs": [
						{
							"internalType": "uint256",
							"name": "",
							"type": "uint256"
						}
					],
					"stateMutability": "view",
					"type": "function"
				},
				{
					"inputs": [
						{
							"components": [
								{
									"internalType": "uint256",
									"name": "t",
									"type": "uint256"
								},
								{
									"internalType": "uint256",
									"name": "T",
									"type": "uint256"
								},
								{
									"internalType": "string",
									"name": "s",
									"type": "string"
								},
								{
									"internalType": "string",
									"name": "i",
									"type": "string"
								},
								{
									"internalType": "uint256",
									"name": "f",
									"type": "uint256"
								},
								{
									"internalType": "uint256",
									"name": "L",
									"type": "uint256"
								},
								{
									"internalType": "uint256",
									"name": "o",
									"type": "uint256"
								},
								{
									"internalType": "uint256",
									"name": "c",
									"type": "uint256"
								},
								{
									"internalType": "uint256",
									"name": "h",
									"type": "uint256"
								},
								{
									"internalType": "uint256",
									"name": "l",
									"type": "uint256"
								},
								{
									"internalType": "uint256",
									"name": "v",
									"type": "uint256"
								},
								{
									"internalType": "uint256",
									"name": "n",
									"type": "uint256"
								},
								{
									"internalType": "bool",
									"name": "x",
									"type": "bool"
								},
								{
									"internalType": "uint256",
									"name": "q",
									"type": "uint256"
								},
								{
									"internalType": "uint256",
									"name": "V",
									"type": "uint256"
								},
								{
									"internalType": "uint256",
									"name": "Q",
									"type": "uint256"
								},
								{
									"internalType": "string",
									"name": "B",
									"type": "string"
								}
							],
							"internalType": "struct CandleRecord",
							"name": "kline",
							"type": "tuple"
						}
					],
					"name": "recordCandle",
					"outputs": [],
					"stateMutability": "nonpayable",
					"type": "function"
				}
			],
			"devdoc": {
				"kind": "dev",
				"methods": {},
				"version": 1
			},
			"evm": {
				"assembly": "    /* \"contracts/manager/Candel_1M/Candel_1M_Manager.sol\":108:2157  contract Candle_1M_Manager is ICandleManager {... */\n  mstore(0x40, 0x80)\n  callvalue\n  dup1\n  iszero\n  tag_1\n  jumpi\n  revert(0x00, 0x00)\ntag_1:\n  pop\n  dataSize(sub_0)\n  dup1\n  dataOffset(sub_0)\n  0x00\n  codecopy\n  0x00\n  return\nstop\n\nsub_0: assembly {\n        /* \"contracts/manager/Candel_1M/Candel_1M_Manager.sol\":108:2157  contract Candle_1M_Manager is ICandleManager {... */\n      mstore(0x40, 0x80)\n      callvalue\n      dup1\n      iszero\n      tag_1\n      jumpi\n      revert(0x00, 0x00)\n    tag_1:\n      pop\n      jumpi(tag_2, lt(calldatasize, 0x04))\n      shr(0xe0, calldataload(0x00))\n      dup1\n      0x8d5ce2bc\n      eq\n      tag_3\n      jumpi\n      dup1\n      0xa00a5424\n      eq\n      tag_4\n      jumpi\n      dup1\n      0xbe1c766b\n      eq\n      tag_5\n      jumpi\n      dup1\n      0xc80da6cf\n      eq\n      tag_6\n      jumpi\n      dup1\n      0xedd0bf6a\n      eq\n      tag_7\n      jumpi\n    tag_2:\n      revert(0x00, 0x00)\n        /* \"contracts/manager/Candel_1M/Candel_1M_Manager.sol\":1659:2047  function getAllCandle()... */\n    tag_3:\n      tag_8\n      tag_9\n      jump\t// in\n    tag_8:\n      mload(0x40)\n      tag_10\n      swap2\n      swap1\n      tag_11\n      jump\t// in\n    tag_10:\n      mload(0x40)\n      dup1\n      swap2\n      sub\n      swap1\n      return\n        /* \"contracts/manager/Candel_1M/Candel_1M_Manager.sol\":1156:1334  function getCandle(uint256 timestamp)... */\n    tag_4:\n      tag_12\n      tag_13\n      calldatasize\n      0x04\n      tag_14\n      jump\t// in\n    tag_13:\n      tag_15\n      jump\t// in\n    tag_12:\n      mload(0x40)\n      tag_10\n      swap2\n      swap1\n      tag_17\n      jump\t// in\n        /* \"contracts/manager/Candel_1M/Candel_1M_Manager.sol\":2055:2152  function getLength() public view returns (uint256) {... */\n    tag_5:\n        /* \"contracts/manager/Candel_1M/Candel_1M_Manager.sol\":2124:2137  timestampList */\n      0x01\n        /* \"contracts/manager/Candel_1M/Candel_1M_Manager.sol\":2124:2144  timestampList.length */\n      sload\n        /* \"contracts/manager/Candel_1M/Candel_1M_Manager.sol\":2055:2152  function getLength() public view returns (uint256) {... */\n      mload(0x40)\n        /* \"#utility.yul\":4000:4025   */\n      swap1\n      dup2\n      mstore\n        /* \"#utility.yul\":3988:3990   */\n      0x20\n        /* \"#utility.yul\":3973:3991   */\n      add\n        /* \"contracts/manager/Candel_1M/Candel_1M_Manager.sol\":2055:2152  function getLength() public view returns (uint256) {... */\n      tag_10\n        /* \"#utility.yul\":3854:4031   */\n      jump\n        /* \"contracts/manager/Candel_1M/Candel_1M_Manager.sol\":373:1148  function recordCandle(CandleRecord calldata kline) external override {... */\n    tag_6:\n      tag_22\n      tag_23\n      calldatasize\n      0x04\n      tag_24\n      jump\t// in\n    tag_23:\n      tag_25\n      jump\t// in\n    tag_22:\n      stop\n        /* \"contracts/manager/Candel_1M/Candel_1M_Manager.sol\":1342:1651  function getLastKline()... */\n    tag_7:\n      tag_12\n      tag_27\n      jump\t// in\n        /* \"contracts/manager/Candel_1M/Candel_1M_Manager.sol\":1659:2047  function getAllCandle()... */\n    tag_9:\n        /* \"contracts/manager/Candel_1M/Candel_1M_Manager.sol\":1860:1873  timestampList */\n      0x01\n        /* \"contracts/manager/Candel_1M/Candel_1M_Manager.sol\":1860:1880  timestampList.length */\n      sload\n        /* \"contracts/manager/Candel_1M/Candel_1M_Manager.sol\":1751:1774  CandleResponse[] memory */\n      0x60\n      swap1\n        /* \"contracts/manager/Candel_1M/Candel_1M_Manager.sol\":1792:1822  CandleResponse[] memory result */\n      0x00\n      swap1\n        /* \"contracts/manager/Candel_1M/Candel_1M_Manager.sol\":1825:1891  new CandleResponse[](... */\n      0xffffffffffffffff\n      dup2\n      gt\n      iszero\n      tag_31\n      jumpi\n      tag_31\n      tag_32\n      jump\t// in\n    tag_31:\n      mload(0x40)\n      swap1\n      dup1\n      dup3\n      mstore\n      dup1\n      0x20\n      mul\n      0x20\n      add\n      dup3\n      add\n      0x40\n      mstore\n      dup1\n      iszero\n      tag_33\n      jumpi\n      dup2\n      0x20\n      add\n    tag_34:\n      tag_35\n      tag_36\n      jump\t// in\n    tag_35:\n      dup2\n      mstore\n      0x20\n      add\n      swap1\n      0x01\n      swap1\n      sub\n      swap1\n      dup2\n      tag_34\n      jumpi\n      swap1\n      pop\n    tag_33:\n      pop\n        /* \"contracts/manager/Candel_1M/Candel_1M_Manager.sol\":1792:1891  CandleResponse[] memory result = new CandleResponse[](... */\n      swap1\n      pop\n        /* \"contracts/manager/Candel_1M/Candel_1M_Manager.sol\":1907:1916  uint256 i */\n      0x00\n        /* \"contracts/manager/Candel_1M/Candel_1M_Manager.sol\":1902:2016  for (uint256 i = 0; i < timestampList.length; i++) {... */\n    tag_37:\n        /* \"contracts/manager/Candel_1M/Candel_1M_Manager.sol\":1926:1939  timestampList */\n      0x01\n        /* \"contracts/manager/Candel_1M/Candel_1M_Manager.sol\":1926:1946  timestampList.length */\n      sload\n        /* \"contracts/manager/Candel_1M/Candel_1M_Manager.sol\":1922:1946  i < timestampList.length */\n      dup2\n      lt\n        /* \"contracts/manager/Candel_1M/Candel_1M_Manager.sol\":1902:2016  for (uint256 i = 0; i < timestampList.length; i++) {... */\n      iszero\n      tag_38\n      jumpi\n        /* \"contracts/manager/Candel_1M/Candel_1M_Manager.sol\":1980:1986  result */\n      dup2\n        /* \"contracts/manager/Candel_1M/Candel_1M_Manager.sol\":1987:2000  timestampList */\n      0x01\n        /* \"contracts/manager/Candel_1M/Candel_1M_Manager.sol\":2001:2002  i */\n      dup3\n        /* \"contracts/manager/Candel_1M/Candel_1M_Manager.sol\":1987:2003  timestampList[i] */\n      dup2\n      sload\n      dup2\n      lt\n      tag_41\n      jumpi\n      tag_41\n      tag_42\n      jump\t// in\n    tag_41:\n      swap1\n      0x00\n      mstore\n      keccak256(0x00, 0x20)\n      add\n      sload\n        /* \"contracts/manager/Candel_1M/Candel_1M_Manager.sol\":1980:2004  result[timestampList[i]] */\n      dup2\n      mload\n      dup2\n      lt\n      tag_45\n      jumpi\n      tag_45\n      tag_42\n      jump\t// in\n    tag_45:\n      0x20\n      mul\n      0x20\n      add\n      add\n      mload\n        /* \"contracts/manager/Candel_1M/Candel_1M_Manager.sol\":1968:1974  result */\n      dup3\n        /* \"contracts/manager/Candel_1M/Candel_1M_Manager.sol\":1975:1976  i */\n      dup3\n        /* \"contracts/manager/Candel_1M/Candel_1M_Manager.sol\":1968:1977  result[i] */\n      dup2\n      mload\n      dup2\n      lt\n      tag_47\n      jumpi\n      tag_47\n      tag_42\n      jump\t// in\n    tag_47:\n      0x20\n      swap1\n      dup2\n      mul\n      swap2\n      swap1\n      swap2\n      add\n      add\n        /* \"contracts/manager/Candel_1M/Candel_1M_Manager.sol\":1968:2004  result[i] = result[timestampList[i]] */\n      mstore\n        /* \"contracts/manager/Candel_1M/Candel_1M_Manager.sol\":1948:1951  i++ */\n      0x01\n      add\n        /* \"contracts/manager/Candel_1M/Candel_1M_Manager.sol\":1902:2016  for (uint256 i = 0; i < timestampList.length; i++) {... */\n      jump(tag_37)\n    tag_38:\n      pop\n        /* \"contracts/manager/Candel_1M/Candel_1M_Manager.sol\":2033:2039  result */\n      swap2\n        /* \"contracts/manager/Candel_1M/Candel_1M_Manager.sol\":1659:2047  function getAllCandle()... */\n      swap1\n      pop\n      jump\t// out\n        /* \"contracts/manager/Candel_1M/Candel_1M_Manager.sol\":1156:1334  function getCandle(uint256 timestamp)... */\n    tag_15:\n        /* \"contracts/manager/Candel_1M/Candel_1M_Manager.sol\":1262:1283  CandleResponse memory */\n      tag_48\n      tag_36\n      jump\t// in\n    tag_48:\n        /* \"contracts/manager/Candel_1M/Candel_1M_Manager.sol\":1308:1315  candles */\n      0x00\n        /* \"contracts/manager/Candel_1M/Candel_1M_Manager.sol\":1308:1326  candles[timestamp] */\n      dup3\n      dup2\n      mstore\n      0x20\n      dup2\n      swap1\n      mstore\n      0x40\n      swap1\n      dup2\n      swap1\n      keccak256\n        /* \"contracts/manager/Candel_1M/Candel_1M_Manager.sol\":1301:1326  return candles[timestamp] */\n      dup2\n      mload\n      0x80\n      dup2\n      add\n      swap1\n      swap3\n      mstore\n      dup1\n      sload\n      dup3\n      swap1\n        /* \"contracts/manager/Candel_1M/Candel_1M_Manager.sol\":1308:1326  candles[timestamp] */\n      dup3\n      swap1\n        /* \"contracts/manager/Candel_1M/Candel_1M_Manager.sol\":1301:1326  return candles[timestamp] */\n      tag_50\n      swap1\n      tag_51\n      jump\t// in\n    tag_50:\n      dup1\n      0x1f\n      add\n      0x20\n      dup1\n      swap2\n      div\n      mul\n      0x20\n      add\n      mload(0x40)\n      swap1\n      dup2\n      add\n      0x40\n      mstore\n      dup1\n      swap3\n      swap2\n      swap1\n      dup2\n      dup2\n      mstore\n      0x20\n      add\n      dup3\n      dup1\n      sload\n      tag_52\n      swap1\n      tag_51\n      jump\t// in\n    tag_52:\n      dup1\n      iszero\n      tag_53\n      jumpi\n      dup1\n      0x1f\n      lt\n      tag_54\n      jumpi\n      0x0100\n      dup1\n      dup4\n      sload\n      div\n      mul\n      dup4\n      mstore\n      swap2\n      0x20\n      add\n      swap2\n      jump(tag_53)\n    tag_54:\n      dup3\n      add\n      swap2\n      swap1\n      0x00\n      mstore\n      keccak256(0x00, 0x20)\n      swap1\n    tag_55:\n      dup2\n      sload\n      dup2\n      mstore\n      swap1\n      0x01\n      add\n      swap1\n      0x20\n      add\n      dup1\n      dup4\n      gt\n      tag_55\n      jumpi\n      dup3\n      swap1\n      sub\n      0x1f\n      and\n      dup3\n      add\n      swap2\n    tag_53:\n      pop\n      pop\n      pop\n      pop\n      pop\n      dup2\n      mstore\n      0x20\n      add\n      0x01\n      dup3\n      add\n      sload\n      dup2\n      mstore\n      0x20\n      add\n      0x02\n      dup3\n      add\n      dup1\n      sload\n      tag_56\n      swap1\n      tag_51\n      jump\t// in\n    tag_56:\n      dup1\n      0x1f\n      add\n      0x20\n      dup1\n      swap2\n      div\n      mul\n      0x20\n      add\n      mload(0x40)\n      swap1\n      dup2\n      add\n      0x40\n      mstore\n      dup1\n      swap3\n      swap2\n      swap1\n      dup2\n      dup2\n      mstore\n      0x20\n      add\n      dup3\n      dup1\n      sload\n      tag_57\n      swap1\n      tag_51\n      jump\t// in\n    tag_57:\n      dup1\n      iszero\n      tag_58\n      jumpi\n      dup1\n      0x1f\n      lt\n      tag_59\n      jumpi\n      0x0100\n      dup1\n      dup4\n      sload\n      div\n      mul\n      dup4\n      mstore\n      swap2\n      0x20\n      add\n      swap2\n      jump(tag_58)\n    tag_59:\n      dup3\n      add\n      swap2\n      swap1\n      0x00\n      mstore\n      keccak256(0x00, 0x20)\n      swap1\n    tag_60:\n      dup2\n      sload\n      dup2\n      mstore\n      swap1\n      0x01\n      add\n      swap1\n      0x20\n      add\n      dup1\n      dup4\n      gt\n      tag_60\n      jumpi\n      dup3\n      swap1\n      sub\n      0x1f\n      and\n      dup3\n      add\n      swap2\n    tag_58:\n      pop\n      pop\n      pop\n      pop\n      pop\n      dup2\n      mstore\n      0x20\n      add\n      0x03\n      dup3\n      add\n      mload(0x40)\n      dup1\n      0x0220\n      add\n      0x40\n      mstore\n      swap1\n      dup2\n      0x00\n      dup3\n      add\n      sload\n      dup2\n      mstore\n      0x20\n      add\n      0x01\n      dup3\n      add\n      sload\n      dup2\n      mstore\n      0x20\n      add\n      0x02\n      dup3\n      add\n      dup1\n      sload\n      tag_61\n      swap1\n      tag_51\n      jump\t// in\n    tag_61:\n      dup1\n      0x1f\n      add\n      0x20\n      dup1\n      swap2\n      div\n      mul\n      0x20\n      add\n      mload(0x40)\n      swap1\n      dup2\n      add\n      0x40\n      mstore\n      dup1\n      swap3\n      swap2\n      swap1\n      dup2\n      dup2\n      mstore\n      0x20\n      add\n      dup3\n      dup1\n      sload\n      tag_62\n      swap1\n      tag_51\n      jump\t// in\n    tag_62:\n      dup1\n      iszero\n      tag_63\n      jumpi\n      dup1\n      0x1f\n      lt\n      tag_64\n      jumpi\n      0x0100\n      dup1\n      dup4\n      sload\n      div\n      mul\n      dup4\n      mstore\n      swap2\n      0x20\n      add\n      swap2\n      jump(tag_63)\n    tag_64:\n      dup3\n      add\n      swap2\n      swap1\n      0x00\n      mstore\n      keccak256(0x00, 0x20)\n      swap1\n    tag_65:\n      dup2\n      sload\n      dup2\n      mstore\n      swap1\n      0x01\n      add\n      swap1\n      0x20\n      add\n      dup1\n      dup4\n      gt\n      tag_65\n      jumpi\n      dup3\n      swap1\n      sub\n      0x1f\n      and\n      dup3\n      add\n      swap2\n    tag_63:\n      pop\n      pop\n      pop\n      pop\n      pop\n      dup2\n      mstore\n      0x20\n      add\n      0x03\n      dup3\n      add\n      dup1\n      sload\n      tag_66\n      swap1\n      tag_51\n      jump\t// in\n    tag_66:\n      dup1\n      0x1f\n      add\n      0x20\n      dup1\n      swap2\n      div\n      mul\n      0x20\n      add\n      mload(0x40)\n      swap1\n      dup2\n      add\n      0x40\n      mstore\n      dup1\n      swap3\n      swap2\n      swap1\n      dup2\n      dup2\n      mstore\n      0x20\n      add\n      dup3\n      dup1\n      sload\n      tag_67\n      swap1\n      tag_51\n      jump\t// in\n    tag_67:\n      dup1\n      iszero\n      tag_68\n      jumpi\n      dup1\n      0x1f\n      lt\n      tag_69\n      jumpi\n      0x0100\n      dup1\n      dup4\n      sload\n      div\n      mul\n      dup4\n      mstore\n      swap2\n      0x20\n      add\n      swap2\n      jump(tag_68)\n    tag_69:\n      dup3\n      add\n      swap2\n      swap1\n      0x00\n      mstore\n      keccak256(0x00, 0x20)\n      swap1\n    tag_70:\n      dup2\n      sload\n      dup2\n      mstore\n      swap1\n      0x01\n      add\n      swap1\n      0x20\n      add\n      dup1\n      dup4\n      gt\n      tag_70\n      jumpi\n      dup3\n      swap1\n      sub\n      0x1f\n      and\n      dup3\n      add\n      swap2\n    tag_68:\n      pop\n      pop\n      pop\n      swap2\n      dup4\n      mstore\n      pop\n      pop\n      0x04\n      dup3\n      add\n      sload\n      0x20\n      dup3\n      add\n      mstore\n      0x05\n      dup3\n      add\n      sload\n      0x40\n      dup3\n      add\n      mstore\n      0x06\n      dup3\n      add\n      sload\n      0x60\n      dup3\n      add\n      mstore\n      0x07\n      dup3\n      add\n      sload\n      0x80\n      dup3\n      add\n      mstore\n      0x08\n      dup3\n      add\n      sload\n      0xa0\n      dup3\n      add\n      mstore\n      0x09\n      dup3\n      add\n      sload\n      0xc0\n      dup3\n      add\n      mstore\n      0x0a\n      dup3\n      add\n      sload\n      0xe0\n      dup3\n      add\n      mstore\n      0x0b\n      dup3\n      add\n      sload\n      0x0100\n      dup3\n      add\n      mstore\n      0x0c\n      dup3\n      add\n      sload\n      0xff\n      and\n      iszero\n      iszero\n      0x0120\n      dup3\n      add\n      mstore\n      0x0d\n      dup3\n      add\n      sload\n      0x0140\n      dup3\n      add\n      mstore\n      0x0e\n      dup3\n      add\n      sload\n      0x0160\n      dup3\n      add\n      mstore\n      0x0f\n      dup3\n      add\n      sload\n      0x0180\n      dup3\n      add\n      mstore\n      0x10\n      dup3\n      add\n      dup1\n      sload\n      0x01a0\n      swap1\n      swap3\n      add\n      swap2\n      tag_71\n      swap1\n      tag_51\n      jump\t// in\n    tag_71:\n      dup1\n      0x1f\n      add\n      0x20\n      dup1\n      swap2\n      div\n      mul\n      0x20\n      add\n      mload(0x40)\n      swap1\n      dup2\n      add\n      0x40\n      mstore\n      dup1\n      swap3\n      swap2\n      swap1\n      dup2\n      dup2\n      mstore\n      0x20\n      add\n      dup3\n      dup1\n      sload\n      tag_72\n      swap1\n      tag_51\n      jump\t// in\n    tag_72:\n      dup1\n      iszero\n      tag_73\n      jumpi\n      dup1\n      0x1f\n      lt\n      tag_74\n      jumpi\n      0x0100\n      dup1\n      dup4\n      sload\n      div\n      mul\n      dup4\n      mstore\n      swap2\n      0x20\n      add\n      swap2\n      jump(tag_73)\n    tag_74:\n      dup3\n      add\n      swap2\n      swap1\n      0x00\n      mstore\n      keccak256(0x00, 0x20)\n      swap1\n    tag_75:\n      dup2\n      sload\n      dup2\n      mstore\n      swap1\n      0x01\n      add\n      swap1\n      0x20\n      add\n      dup1\n      dup4\n      gt\n      tag_75\n      jumpi\n      dup3\n      swap1\n      sub\n      0x1f\n      and\n      dup3\n      add\n      swap2\n    tag_73:\n      pop\n      pop\n      pop\n      swap2\n      swap1\n      swap3\n      mstore\n      pop\n      pop\n      pop\n      swap1\n      mstore\n      pop\n      swap3\n        /* \"contracts/manager/Candel_1M/Candel_1M_Manager.sol\":1156:1334  function getCandle(uint256 timestamp)... */\n      swap2\n      pop\n      pop\n      jump\t// out\n        /* \"contracts/manager/Candel_1M/Candel_1M_Manager.sol\":373:1148  function recordCandle(CandleRecord calldata kline) external override {... */\n    tag_25:\n        /* \"contracts/manager/Candel_1M/Candel_1M_Manager.sol\":461:468  kline.t */\n      dup1\n      calldataload\n        /* \"contracts/manager/Candel_1M/Candel_1M_Manager.sol\":461:472  kline.t > 0 */\n      iszero\n      dup1\n      iszero\n      swap1\n        /* \"contracts/manager/Candel_1M/Candel_1M_Manager.sol\":461:493  kline.t > 0 && kline.T > kline.t */\n      tag_78\n      jumpi\n      pop\n        /* \"contracts/manager/Candel_1M/Candel_1M_Manager.sol\":486:493  kline.t */\n      dup1\n      calldataload\n        /* \"contracts/manager/Candel_1M/Candel_1M_Manager.sol\":476:483  kline.T */\n      0x20\n      dup3\n      add\n      calldataload\n        /* \"contracts/manager/Candel_1M/Candel_1M_Manager.sol\":476:493  kline.T > kline.t */\n      gt\n        /* \"contracts/manager/Candel_1M/Candel_1M_Manager.sol\":461:493  kline.t > 0 && kline.T > kline.t */\n    tag_78:\n        /* \"contracts/manager/Candel_1M/Candel_1M_Manager.sol\":453:516  require(kline.t > 0 && kline.T > kline.t, \"Invalid time range\") */\n      tag_79\n      jumpi\n      mload(0x40)\n      shl(0xe5, 0x461bcd)\n      dup2\n      mstore\n        /* \"#utility.yul\":5283:5285   */\n      0x20\n        /* \"contracts/manager/Candel_1M/Candel_1M_Manager.sol\":453:516  require(kline.t > 0 && kline.T > kline.t, \"Invalid time range\") */\n      0x04\n      dup3\n      add\n        /* \"#utility.yul\":5265:5286   */\n      mstore\n        /* \"#utility.yul\":5322:5324   */\n      0x12\n        /* \"#utility.yul\":5302:5320   */\n      0x24\n      dup3\n      add\n        /* \"#utility.yul\":5295:5325   */\n      mstore\n      shl(0x70, 0x496e76616c69642074696d652072616e6765)\n        /* \"#utility.yul\":5341:5359   */\n      0x44\n      dup3\n      add\n        /* \"#utility.yul\":5334:5382   */\n      mstore\n        /* \"#utility.yul\":5399:5417   */\n      0x64\n      add\n        /* \"contracts/manager/Candel_1M/Candel_1M_Manager.sol\":453:516  require(kline.t > 0 && kline.T > kline.t, \"Invalid time range\") */\n    tag_80:\n      mload(0x40)\n      dup1\n      swap2\n      sub\n      swap1\n      revert\n    tag_79:\n        /* \"contracts/manager/Candel_1M/Candel_1M_Manager.sol\":559:560  0 */\n      0x00\n        /* \"contracts/manager/Candel_1M/Candel_1M_Manager.sol\":541:548  kline.s */\n      tag_82\n      0x40\n      dup4\n      add\n        /* \"contracts/manager/Candel_1M/Candel_1M_Manager.sol\":541:546  kline */\n      dup4\n        /* \"contracts/manager/Candel_1M/Candel_1M_Manager.sol\":541:548  kline.s */\n      tag_83\n      jump\t// in\n    tag_82:\n        /* \"contracts/manager/Candel_1M/Candel_1M_Manager.sol\":535:556  bytes(kline.s).length */\n      swap1\n      pop\n        /* \"contracts/manager/Candel_1M/Candel_1M_Manager.sol\":535:560  bytes(kline.s).length > 0 */\n      gt\n        /* \"contracts/manager/Candel_1M/Candel_1M_Manager.sol\":527:583  require(bytes(kline.s).length > 0, \"Symbol is required\") */\n      tag_84\n      jumpi\n      mload(0x40)\n      shl(0xe5, 0x461bcd)\n      dup2\n      mstore\n        /* \"#utility.yul\":6157:6159   */\n      0x20\n        /* \"contracts/manager/Candel_1M/Candel_1M_Manager.sol\":527:583  require(bytes(kline.s).length > 0, \"Symbol is required\") */\n      0x04\n      dup3\n      add\n        /* \"#utility.yul\":6139:6160   */\n      mstore\n        /* \"#utility.yul\":6196:6198   */\n      0x12\n        /* \"#utility.yul\":6176:6194   */\n      0x24\n      dup3\n      add\n        /* \"#utility.yul\":6169:6199   */\n      mstore\n      shl(0x72, 0x14de5b589bdb081a5cc81c995c5d5a5c9959)\n        /* \"#utility.yul\":6215:6233   */\n      0x44\n      dup3\n      add\n        /* \"#utility.yul\":6208:6256   */\n      mstore\n        /* \"#utility.yul\":6273:6291   */\n      0x64\n      add\n        /* \"contracts/manager/Candel_1M/Candel_1M_Manager.sol\":527:583  require(bytes(kline.s).length > 0, \"Symbol is required\") */\n      tag_80\n        /* \"#utility.yul\":5955:6297   */\n      jump\n        /* \"contracts/manager/Candel_1M/Candel_1M_Manager.sol\":527:583  require(bytes(kline.s).length > 0, \"Symbol is required\") */\n    tag_84:\n        /* \"contracts/manager/Candel_1M/Candel_1M_Manager.sol\":742:939  CandleResponse({... */\n      0x40\n      dup1\n      mload\n      0xc0\n      dup2\n      add\n      dup3\n      mstore\n      0x05\n      0x80\n      dup3\n      add\n      swap1\n      dup2\n      mstore\n      shl(0xd8, 0x6b6c696e65)\n      0xa0\n      dup4\n      add\n      mstore\n      dup2\n      mstore\n        /* \"contracts/manager/Candel_1M/Candel_1M_Manager.sol\":828:843  block.timestamp */\n      timestamp\n        /* \"contracts/manager/Candel_1M/Candel_1M_Manager.sol\":742:939  CandleResponse({... */\n      0x20\n      dup3\n      add\n      mstore\n        /* \"contracts/manager/Candel_1M/Candel_1M_Manager.sol\":616:623  kline.t */\n      dup3\n      calldataload\n      swap2\n        /* \"contracts/manager/Candel_1M/Candel_1M_Manager.sol\":596:613  uint256 timestamp */\n      0x00\n      swap2\n        /* \"contracts/manager/Candel_1M/Candel_1M_Manager.sol\":742:939  CandleResponse({... */\n      swap1\n      dup2\n      dup2\n      add\n      swap1\n        /* \"contracts/manager/Candel_1M/Candel_1M_Manager.sol\":887:894  kline.s */\n      tag_87\n      swap1\n      dup7\n      add\n        /* \"contracts/manager/Candel_1M/Candel_1M_Manager.sol\":616:621  kline */\n      dup7\n        /* \"contracts/manager/Candel_1M/Candel_1M_Manager.sol\":887:894  kline.s */\n      tag_83\n      jump\t// in\n    tag_87:\n        /* \"contracts/manager/Candel_1M/Candel_1M_Manager.sol\":742:939  CandleResponse({... */\n      dup1\n      dup1\n      0x1f\n      add\n      0x20\n      dup1\n      swap2\n      div\n      mul\n      0x20\n      add\n      mload(0x40)\n      swap1\n      dup2\n      add\n      0x40\n      mstore\n      dup1\n      swap4\n      swap3\n      swap2\n      swap1\n      dup2\n      dup2\n      mstore\n      0x20\n      add\n      dup4\n      dup4\n      dup1\n      dup3\n      dup5\n      calldatacopy\n      0x00\n      swap3\n      add\n      swap2\n      swap1\n      swap2\n      mstore\n      pop\n      pop\n      pop\n      swap1\n      dup3\n      mstore\n      pop\n      0x20\n      add\n      tag_88\n        /* \"contracts/manager/Candel_1M/Candel_1M_Manager.sol\":922:927  kline */\n      dup6\n        /* \"contracts/manager/Candel_1M/Candel_1M_Manager.sol\":742:939  CandleResponse({... */\n      tag_89\n      jump\t// in\n    tag_88:\n      swap1\n      mstore\n        /* \"contracts/manager/Candel_1M/Candel_1M_Manager.sol\":952:959  candles */\n      0x00\n        /* \"contracts/manager/Candel_1M/Candel_1M_Manager.sol\":952:970  candles[timestamp] */\n      dup4\n      dup2\n      mstore\n      0x20\n      dup2\n      swap1\n      mstore\n      0x40\n      swap1\n      keccak256\n        /* \"contracts/manager/Candel_1M/Candel_1M_Manager.sol\":952:987  candles[timestamp] = candleResponse */\n      dup2\n      mload\n        /* \"contracts/manager/Candel_1M/Candel_1M_Manager.sol\":703:939  CandleResponse memory candleResponse = CandleResponse({... */\n      swap2\n      swap3\n      pop\n      dup3\n      swap2\n        /* \"contracts/manager/Candel_1M/Candel_1M_Manager.sol\":952:970  candles[timestamp] */\n      dup2\n      swap1\n        /* \"contracts/manager/Candel_1M/Candel_1M_Manager.sol\":952:987  candles[timestamp] = candleResponse */\n      tag_90\n      swap1\n        /* \"contracts/manager/Candel_1M/Candel_1M_Manager.sol\":952:970  candles[timestamp] */\n      dup3\n        /* \"contracts/manager/Candel_1M/Candel_1M_Manager.sol\":952:987  candles[timestamp] = candleResponse */\n      tag_91\n      jump\t// in\n    tag_90:\n      pop\n      0x20\n      dup3\n      add\n      mload\n      0x01\n      dup3\n      add\n      sstore\n      0x40\n      dup3\n      add\n      mload\n      0x02\n      dup3\n      add\n      swap1\n      tag_92\n      swap1\n      dup3\n      tag_91\n      jump\t// in\n    tag_92:\n      pop\n      0x60\n      dup3\n      add\n      mload\n      dup1\n      mload\n      0x03\n      dup4\n      add\n      swap1\n      dup2\n      sstore\n      0x20\n      dup3\n      add\n      mload\n      0x04\n      dup5\n      add\n      sstore\n      0x40\n      dup3\n      add\n      mload\n      0x05\n      dup5\n      add\n      swap1\n      tag_93\n      swap1\n      dup3\n      tag_91\n      jump\t// in\n    tag_93:\n      pop\n      0x60\n      dup3\n      add\n      mload\n      0x03\n      dup3\n      add\n      swap1\n      tag_94\n      swap1\n      dup3\n      tag_91\n      jump\t// in\n    tag_94:\n      pop\n      0x80\n      dup3\n      add\n      mload\n      0x04\n      dup3\n      add\n      sstore\n      0xa0\n      dup3\n      add\n      mload\n      0x05\n      dup3\n      add\n      sstore\n      0xc0\n      dup3\n      add\n      mload\n      0x06\n      dup3\n      add\n      sstore\n      0xe0\n      dup3\n      add\n      mload\n      0x07\n      dup3\n      add\n      sstore\n      0x0100\n      dup3\n      add\n      mload\n      0x08\n      dup3\n      add\n      sstore\n      0x0120\n      dup3\n      add\n      mload\n      0x09\n      dup3\n      add\n      sstore\n      0x0140\n      dup3\n      add\n      mload\n      0x0a\n      dup3\n      add\n      sstore\n      0x0160\n      dup3\n      add\n      mload\n      0x0b\n      dup3\n      add\n      sstore\n      0x0180\n      dup3\n      add\n      mload\n      0x0c\n      dup3\n      add\n      dup1\n      sload\n      not(0xff)\n      and\n      swap2\n      iszero\n      iszero\n      swap2\n      swap1\n      swap2\n      or\n      swap1\n      sstore\n      0x01a0\n      dup3\n      add\n      mload\n      0x0d\n      dup3\n      add\n      sstore\n      0x01c0\n      dup3\n      add\n      mload\n      0x0e\n      dup3\n      add\n      sstore\n      0x01e0\n      dup3\n      add\n      mload\n      0x0f\n      dup3\n      add\n      sstore\n      0x0200\n      dup3\n      add\n      mload\n      0x10\n      dup3\n      add\n      swap1\n      tag_95\n      swap1\n      dup3\n      tag_91\n      jump\t// in\n    tag_95:\n      pop\n      pop\n        /* \"contracts/manager/Candel_1M/Candel_1M_Manager.sol\":998:1011  timestampList */\n      0x01\n        /* \"contracts/manager/Candel_1M/Candel_1M_Manager.sol\":998:1027  timestampList.push(timestamp) */\n      dup1\n      sload\n      dup1\n      dup3\n      add\n      dup3\n      sstore\n      0x00\n      swap2\n      swap1\n      swap2\n      mstore\n      0xb10e2d527612073b26eecdfd717e6a320cf44b4afac2b0732d9fcbe2b7fa0cf6\n      add\n      dup6\n      swap1\n      sstore\n      pop\n        /* \"contracts/manager/Candel_1M/Candel_1M_Manager.sol\":1087:1140  AddCandleRecord(timestamp, kline.s, kline.o, kline.c) */\n      0x457e71e233bfca657f83107e4d22cc35169beda85c2b16268c89ed23a9d2d086\n      swap2\n      pop\n        /* \"contracts/manager/Candel_1M/Candel_1M_Manager.sol\":1017:1026  timestamp */\n      dup4\n      swap1\n      pop\n        /* \"contracts/manager/Candel_1M/Candel_1M_Manager.sol\":1114:1121  kline.s */\n      tag_97\n      0x40\n      dup7\n      add\n        /* \"contracts/manager/Candel_1M/Candel_1M_Manager.sol\":1114:1119  kline */\n      dup7\n        /* \"contracts/manager/Candel_1M/Candel_1M_Manager.sol\":1114:1121  kline.s */\n      tag_83\n      jump\t// in\n    tag_97:\n        /* \"contracts/manager/Candel_1M/Candel_1M_Manager.sol\":1123:1128  kline */\n      dup7\n        /* \"contracts/manager/Candel_1M/Candel_1M_Manager.sol\":1123:1130  kline.o */\n      0xc0\n      add\n      calldataload\n        /* \"contracts/manager/Candel_1M/Candel_1M_Manager.sol\":1132:1137  kline */\n      dup8\n        /* \"contracts/manager/Candel_1M/Candel_1M_Manager.sol\":1132:1139  kline.c */\n      0xe0\n      add\n      calldataload\n        /* \"contracts/manager/Candel_1M/Candel_1M_Manager.sol\":1087:1140  AddCandleRecord(timestamp, kline.s, kline.o, kline.c) */\n      mload(0x40)\n      tag_98\n      swap6\n      swap5\n      swap4\n      swap3\n      swap2\n      swap1\n      tag_99\n      jump\t// in\n    tag_98:\n      mload(0x40)\n      dup1\n      swap2\n      sub\n      swap1\n      log1\n        /* \"contracts/manager/Candel_1M/Candel_1M_Manager.sol\":442:1148  {... */\n      pop\n      pop\n        /* \"contracts/manager/Candel_1M/Candel_1M_Manager.sol\":373:1148  function recordCandle(CandleRecord calldata kline) external override {... */\n      pop\n      jump\t// out\n        /* \"contracts/manager/Candel_1M/Candel_1M_Manager.sol\":1342:1651  function getLastKline()... */\n    tag_27:\n        /* \"contracts/manager/Candel_1M/Candel_1M_Manager.sol\":1434:1455  CandleResponse memory */\n      tag_100\n      tag_36\n      jump\t// in\n    tag_100:\n        /* \"contracts/manager/Candel_1M/Candel_1M_Manager.sol\":1481:1494  timestampList */\n      0x01\n        /* \"contracts/manager/Candel_1M/Candel_1M_Manager.sol\":1481:1501  timestampList.length */\n      sload\n        /* \"contracts/manager/Candel_1M/Candel_1M_Manager.sol\":1473:1529  require(timestampList.length > 0, \"No candles recorded\") */\n      tag_102\n      jumpi\n      mload(0x40)\n      shl(0xe5, 0x461bcd)\n      dup2\n      mstore\n        /* \"#utility.yul\":12876:12878   */\n      0x20\n        /* \"contracts/manager/Candel_1M/Candel_1M_Manager.sol\":1473:1529  require(timestampList.length > 0, \"No candles recorded\") */\n      0x04\n      dup3\n      add\n        /* \"#utility.yul\":12858:12879   */\n      mstore\n        /* \"#utility.yul\":12915:12917   */\n      0x13\n        /* \"#utility.yul\":12895:12913   */\n      0x24\n      dup3\n      add\n        /* \"#utility.yul\":12888:12918   */\n      mstore\n      shl(0x6a, 0x139bc818d85b991b195cc81c9958dbdc991959)\n        /* \"#utility.yul\":12934:12952   */\n      0x44\n      dup3\n      add\n        /* \"#utility.yul\":12927:12976   */\n      mstore\n        /* \"#utility.yul\":12993:13011   */\n      0x64\n      add\n        /* \"contracts/manager/Candel_1M/Candel_1M_Manager.sol\":1473:1529  require(timestampList.length > 0, \"No candles recorded\") */\n      tag_80\n        /* \"#utility.yul\":12674:13017   */\n      jump\n        /* \"contracts/manager/Candel_1M/Candel_1M_Manager.sol\":1473:1529  require(timestampList.length > 0, \"No candles recorded\") */\n    tag_102:\n        /* \"contracts/manager/Candel_1M/Candel_1M_Manager.sol\":1564:1577  timestampList */\n      0x01\n        /* \"contracts/manager/Candel_1M/Candel_1M_Manager.sol\":1578:1598  timestampList.length */\n      dup1\n      sload\n        /* \"contracts/manager/Candel_1M/Candel_1M_Manager.sol\":1540:1561  uint256 lastTimestamp */\n      0x00\n      swap2\n        /* \"contracts/manager/Candel_1M/Candel_1M_Manager.sol\":1564:1577  timestampList */\n      swap1\n        /* \"contracts/manager/Candel_1M/Candel_1M_Manager.sol\":1578:1602  timestampList.length - 1 */\n      tag_105\n      swap1\n        /* \"contracts/manager/Candel_1M/Candel_1M_Manager.sol\":1564:1577  timestampList */\n      dup3\n      swap1\n        /* \"contracts/manager/Candel_1M/Candel_1M_Manager.sol\":1578:1602  timestampList.length - 1 */\n      tag_106\n      jump\t// in\n    tag_105:\n        /* \"contracts/manager/Candel_1M/Candel_1M_Manager.sol\":1564:1603  timestampList[timestampList.length - 1] */\n      dup2\n      sload\n      dup2\n      lt\n      tag_108\n      jumpi\n      tag_108\n      tag_42\n      jump\t// in\n    tag_108:\n      swap1\n      0x00\n      mstore\n      keccak256(0x00, 0x20)\n      add\n      sload\n        /* \"contracts/manager/Candel_1M/Candel_1M_Manager.sol\":1540:1603  uint256 lastTimestamp = timestampList[timestampList.length - 1] */\n      swap1\n      pop\n        /* \"contracts/manager/Candel_1M/Candel_1M_Manager.sol\":1621:1628  candles */\n      0x00\n        /* \"contracts/manager/Candel_1M/Candel_1M_Manager.sol\":1621:1643  candles[lastTimestamp] */\n      0x00\n        /* \"contracts/manager/Candel_1M/Candel_1M_Manager.sol\":1629:1642  lastTimestamp */\n      dup3\n        /* \"contracts/manager/Candel_1M/Candel_1M_Manager.sol\":1621:1643  candles[lastTimestamp] */\n      dup2\n      mstore\n      0x20\n      add\n      swap1\n      dup2\n      mstore\n      0x20\n      add\n      0x00\n      keccak256\n        /* \"contracts/manager/Candel_1M/Candel_1M_Manager.sol\":1614:1643  return candles[lastTimestamp] */\n      mload(0x40)\n      dup1\n      0x80\n      add\n      0x40\n      mstore\n      swap1\n      dup2\n      0x00\n      dup3\n      add\n      dup1\n      sload\n      tag_110\n      swap1\n      tag_51\n      jump\t// in\n    tag_110:\n      dup1\n      0x1f\n      add\n      0x20\n      dup1\n      swap2\n      div\n      mul\n      0x20\n      add\n      mload(0x40)\n      swap1\n      dup2\n      add\n      0x40\n      mstore\n      dup1\n      swap3\n      swap2\n      swap1\n      dup2\n      dup2\n      mstore\n      0x20\n      add\n      dup3\n      dup1\n      sload\n      tag_111\n      swap1\n      tag_51\n      jump\t// in\n    tag_111:\n      dup1\n      iszero\n      tag_112\n      jumpi\n      dup1\n      0x1f\n      lt\n      tag_113\n      jumpi\n      0x0100\n      dup1\n      dup4\n      sload\n      div\n      mul\n      dup4\n      mstore\n      swap2\n      0x20\n      add\n      swap2\n      jump(tag_112)\n    tag_113:\n      dup3\n      add\n      swap2\n      swap1\n      0x00\n      mstore\n      keccak256(0x00, 0x20)\n      swap1\n    tag_114:\n      dup2\n      sload\n      dup2\n      mstore\n      swap1\n      0x01\n      add\n      swap1\n      0x20\n      add\n      dup1\n      dup4\n      gt\n      tag_114\n      jumpi\n      dup3\n      swap1\n      sub\n      0x1f\n      and\n      dup3\n      add\n      swap2\n    tag_112:\n      pop\n      pop\n      pop\n      pop\n      pop\n      dup2\n      mstore\n      0x20\n      add\n      0x01\n      dup3\n      add\n      sload\n      dup2\n      mstore\n      0x20\n      add\n      0x02\n      dup3\n      add\n      dup1\n      sload\n      tag_115\n      swap1\n      tag_51\n      jump\t// in\n    tag_115:\n      dup1\n      0x1f\n      add\n      0x20\n      dup1\n      swap2\n      div\n      mul\n      0x20\n      add\n      mload(0x40)\n      swap1\n      dup2\n      add\n      0x40\n      mstore\n      dup1\n      swap3\n      swap2\n      swap1\n      dup2\n      dup2\n      mstore\n      0x20\n      add\n      dup3\n      dup1\n      sload\n      tag_116\n      swap1\n      tag_51\n      jump\t// in\n    tag_116:\n      dup1\n      iszero\n      tag_117\n      jumpi\n      dup1\n      0x1f\n      lt\n      tag_118\n      jumpi\n      0x0100\n      dup1\n      dup4\n      sload\n      div\n      mul\n      dup4\n      mstore\n      swap2\n      0x20\n      add\n      swap2\n      jump(tag_117)\n    tag_118:\n      dup3\n      add\n      swap2\n      swap1\n      0x00\n      mstore\n      keccak256(0x00, 0x20)\n      swap1\n    tag_119:\n      dup2\n      sload\n      dup2\n      mstore\n      swap1\n      0x01\n      add\n      swap1\n      0x20\n      add\n      dup1\n      dup4\n      gt\n      tag_119\n      jumpi\n      dup3\n      swap1\n      sub\n      0x1f\n      and\n      dup3\n      add\n      swap2\n    tag_117:\n      pop\n      pop\n      pop\n      pop\n      pop\n      dup2\n      mstore\n      0x20\n      add\n      0x03\n      dup3\n      add\n      mload(0x40)\n      dup1\n      0x0220\n      add\n      0x40\n      mstore\n      swap1\n      dup2\n      0x00\n      dup3\n      add\n      sload\n      dup2\n      mstore\n      0x20\n      add\n      0x01\n      dup3\n      add\n      sload\n      dup2\n      mstore\n      0x20\n      add\n      0x02\n      dup3\n      add\n      dup1\n      sload\n      tag_120\n      swap1\n      tag_51\n      jump\t// in\n    tag_120:\n      dup1\n      0x1f\n      add\n      0x20\n      dup1\n      swap2\n      div\n      mul\n      0x20\n      add\n      mload(0x40)\n      swap1\n      dup2\n      add\n      0x40\n      mstore\n      dup1\n      swap3\n      swap2\n      swap1\n      dup2\n      dup2\n      mstore\n      0x20\n      add\n      dup3\n      dup1\n      sload\n      tag_121\n      swap1\n      tag_51\n      jump\t// in\n    tag_121:\n      dup1\n      iszero\n      tag_122\n      jumpi\n      dup1\n      0x1f\n      lt\n      tag_123\n      jumpi\n      0x0100\n      dup1\n      dup4\n      sload\n      div\n      mul\n      dup4\n      mstore\n      swap2\n      0x20\n      add\n      swap2\n      jump(tag_122)\n    tag_123:\n      dup3\n      add\n      swap2\n      swap1\n      0x00\n      mstore\n      keccak256(0x00, 0x20)\n      swap1\n    tag_124:\n      dup2\n      sload\n      dup2\n      mstore\n      swap1\n      0x01\n      add\n      swap1\n      0x20\n      add\n      dup1\n      dup4\n      gt\n      tag_124\n      jumpi\n      dup3\n      swap1\n      sub\n      0x1f\n      and\n      dup3\n      add\n      swap2\n    tag_122:\n      pop\n      pop\n      pop\n      pop\n      pop\n      dup2\n      mstore\n      0x20\n      add\n      0x03\n      dup3\n      add\n      dup1\n      sload\n      tag_125\n      swap1\n      tag_51\n      jump\t// in\n    tag_125:\n      dup1\n      0x1f\n      add\n      0x20\n      dup1\n      swap2\n      div\n      mul\n      0x20\n      add\n      mload(0x40)\n      swap1\n      dup2\n      add\n      0x40\n      mstore\n      dup1\n      swap3\n      swap2\n      swap1\n      dup2\n      dup2\n      mstore\n      0x20\n      add\n      dup3\n      dup1\n      sload\n      tag_126\n      swap1\n      tag_51\n      jump\t// in\n    tag_126:\n      dup1\n      iszero\n      tag_127\n      jumpi\n      dup1\n      0x1f\n      lt\n      tag_128\n      jumpi\n      0x0100\n      dup1\n      dup4\n      sload\n      div\n      mul\n      dup4\n      mstore\n      swap2\n      0x20\n      add\n      swap2\n      jump(tag_127)\n    tag_128:\n      dup3\n      add\n      swap2\n      swap1\n      0x00\n      mstore\n      keccak256(0x00, 0x20)\n      swap1\n    tag_129:\n      dup2\n      sload\n      dup2\n      mstore\n      swap1\n      0x01\n      add\n      swap1\n      0x20\n      add\n      dup1\n      dup4\n      gt\n      tag_129\n      jumpi\n      dup3\n      swap1\n      sub\n      0x1f\n      and\n      dup3\n      add\n      swap2\n    tag_127:\n      pop\n      pop\n      pop\n      swap2\n      dup4\n      mstore\n      pop\n      pop\n      0x04\n      dup3\n      add\n      sload\n      0x20\n      dup3\n      add\n      mstore\n      0x05\n      dup3\n      add\n      sload\n      0x40\n      dup3\n      add\n      mstore\n      0x06\n      dup3\n      add\n      sload\n      0x60\n      dup3\n      add\n      mstore\n      0x07\n      dup3\n      add\n      sload\n      0x80\n      dup3\n      add\n      mstore\n      0x08\n      dup3\n      add\n      sload\n      0xa0\n      dup3\n      add\n      mstore\n      0x09\n      dup3\n      add\n      sload\n      0xc0\n      dup3\n      add\n      mstore\n      0x0a\n      dup3\n      add\n      sload\n      0xe0\n      dup3\n      add\n      mstore\n      0x0b\n      dup3\n      add\n      sload\n      0x0100\n      dup3\n      add\n      mstore\n      0x0c\n      dup3\n      add\n      sload\n      0xff\n      and\n      iszero\n      iszero\n      0x0120\n      dup3\n      add\n      mstore\n      0x0d\n      dup3\n      add\n      sload\n      0x0140\n      dup3\n      add\n      mstore\n      0x0e\n      dup3\n      add\n      sload\n      0x0160\n      dup3\n      add\n      mstore\n      0x0f\n      dup3\n      add\n      sload\n      0x0180\n      dup3\n      add\n      mstore\n      0x10\n      dup3\n      add\n      dup1\n      sload\n      0x01a0\n      swap1\n      swap3\n      add\n      swap2\n      tag_130\n      swap1\n      tag_51\n      jump\t// in\n    tag_130:\n      dup1\n      0x1f\n      add\n      0x20\n      dup1\n      swap2\n      div\n      mul\n      0x20\n      add\n      mload(0x40)\n      swap1\n      dup2\n      add\n      0x40\n      mstore\n      dup1\n      swap3\n      swap2\n      swap1\n      dup2\n      dup2\n      mstore\n      0x20\n      add\n      dup3\n      dup1\n      sload\n      tag_131\n      swap1\n      tag_51\n      jump\t// in\n    tag_131:\n      dup1\n      iszero\n      tag_132\n      jumpi\n      dup1\n      0x1f\n      lt\n      tag_133\n      jumpi\n      0x0100\n      dup1\n      dup4\n      sload\n      div\n      mul\n      dup4\n      mstore\n      swap2\n      0x20\n      add\n      swap2\n      jump(tag_132)\n    tag_133:\n      dup3\n      add\n      swap2\n      swap1\n      0x00\n      mstore\n      keccak256(0x00, 0x20)\n      swap1\n    tag_134:\n      dup2\n      sload\n      dup2\n      mstore\n      swap1\n      0x01\n      add\n      swap1\n      0x20\n      add\n      dup1\n      dup4\n      gt\n      tag_134\n      jumpi\n      dup3\n      swap1\n      sub\n      0x1f\n      and\n      dup3\n      add\n      swap2\n    tag_132:\n      pop\n      pop\n      pop\n      pop\n      pop\n      dup2\n      mstore\n      pop\n      pop\n      dup2\n      mstore\n      pop\n      pop\n      swap2\n      pop\n      pop\n        /* \"contracts/manager/Candel_1M/Candel_1M_Manager.sol\":1342:1651  function getLastKline()... */\n      swap1\n      jump\t// out\n    tag_36:\n      mload(0x40)\n      dup1\n      0x80\n      add\n      0x40\n      mstore\n      dup1\n      0x60\n      dup2\n      mstore\n      0x20\n      add\n      0x00\n      dup2\n      mstore\n      0x20\n      add\n      0x60\n      dup2\n      mstore\n      0x20\n      add\n      tag_135\n      mload(0x40)\n      dup1\n      0x0220\n      add\n      0x40\n      mstore\n      dup1\n      0x00\n      dup2\n      mstore\n      0x20\n      add\n      0x00\n      dup2\n      mstore\n      0x20\n      add\n      0x60\n      dup2\n      mstore\n      0x20\n      add\n      0x60\n      dup2\n      mstore\n      0x20\n      add\n      0x00\n      dup2\n      mstore\n      0x20\n      add\n      0x00\n      dup2\n      mstore\n      0x20\n      add\n      0x00\n      dup2\n      mstore\n      0x20\n      add\n      0x00\n      dup2\n      mstore\n      0x20\n      add\n      0x00\n      dup2\n      mstore\n      0x20\n      add\n      0x00\n      dup2\n      mstore\n      0x20\n      add\n      0x00\n      dup2\n      mstore\n      0x20\n      add\n      0x00\n      dup2\n      mstore\n      0x20\n      add\n      iszero(iszero(0x00))\n      dup2\n      mstore\n      0x20\n      add\n      0x00\n      dup2\n      mstore\n      0x20\n      add\n      0x00\n      dup2\n      mstore\n      0x20\n      add\n      0x00\n      dup2\n      mstore\n      0x20\n      add\n      0x60\n      dup2\n      mstore\n      pop\n      swap1\n      jump\n    tag_135:\n      swap1\n      mstore\n      swap1\n      jump\t// out\n        /* \"#utility.yul\":14:303   */\n    tag_137:\n        /* \"#utility.yul\":56:59   */\n      0x00\n        /* \"#utility.yul\":94:99   */\n      dup2\n        /* \"#utility.yul\":88:100   */\n      mload\n        /* \"#utility.yul\":121:127   */\n      dup1\n        /* \"#utility.yul\":116:119   */\n      dup5\n        /* \"#utility.yul\":109:128   */\n      mstore\n        /* \"#utility.yul\":177:183   */\n      dup1\n        /* \"#utility.yul\":170:174   */\n      0x20\n        /* \"#utility.yul\":163:168   */\n      dup5\n        /* \"#utility.yul\":159:175   */\n      add\n        /* \"#utility.yul\":152:156   */\n      0x20\n        /* \"#utility.yul\":147:150   */\n      dup7\n        /* \"#utility.yul\":143:157   */\n      add\n        /* \"#utility.yul\":137:184   */\n      mcopy\n        /* \"#utility.yul\":229:230   */\n      0x00\n        /* \"#utility.yul\":222:226   */\n      0x20\n        /* \"#utility.yul\":213:219   */\n      dup3\n        /* \"#utility.yul\":208:211   */\n      dup7\n        /* \"#utility.yul\":204:220   */\n      add\n        /* \"#utility.yul\":200:227   */\n      add\n        /* \"#utility.yul\":193:231   */\n      mstore\n        /* \"#utility.yul\":292:296   */\n      0x20\n        /* \"#utility.yul\":285:287   */\n      0x1f\n        /* \"#utility.yul\":281:288   */\n      not\n        /* \"#utility.yul\":276:278   */\n      0x1f\n        /* \"#utility.yul\":268:274   */\n      dup4\n        /* \"#utility.yul\":264:279   */\n      add\n        /* \"#utility.yul\":260:289   */\n      and\n        /* \"#utility.yul\":255:258   */\n      dup6\n        /* \"#utility.yul\":251:290   */\n      add\n        /* \"#utility.yul\":247:297   */\n      add\n        /* \"#utility.yul\":240:297   */\n      swap2\n      pop\n      pop\n        /* \"#utility.yul\":14:303   */\n      swap3\n      swap2\n      pop\n      pop\n      jump\t// out\n        /* \"#utility.yul\":404:2492   */\n    tag_139:\n        /* \"#utility.yul\":461:464   */\n      0x00\n        /* \"#utility.yul\":505:510   */\n      dup2\n        /* \"#utility.yul\":499:511   */\n      mload\n        /* \"#utility.yul\":532:536   */\n      0x80\n        /* \"#utility.yul\":527:530   */\n      dup5\n        /* \"#utility.yul\":520:537   */\n      mstore\n        /* \"#utility.yul\":558:605   */\n      tag_150\n        /* \"#utility.yul\":599:603   */\n      0x80\n        /* \"#utility.yul\":594:597   */\n      dup6\n        /* \"#utility.yul\":590:604   */\n      add\n        /* \"#utility.yul\":576:588   */\n      dup3\n        /* \"#utility.yul\":558:605   */\n      tag_137\n      jump\t// in\n    tag_150:\n        /* \"#utility.yul\":546:605   */\n      swap1\n      pop\n        /* \"#utility.yul\":654:658   */\n      0x20\n        /* \"#utility.yul\":647:652   */\n      dup4\n        /* \"#utility.yul\":643:659   */\n      add\n        /* \"#utility.yul\":637:660   */\n      mload\n        /* \"#utility.yul\":630:634   */\n      0x20\n        /* \"#utility.yul\":625:628   */\n      dup6\n        /* \"#utility.yul\":621:635   */\n      add\n        /* \"#utility.yul\":614:661   */\n      mstore\n        /* \"#utility.yul\":709:713   */\n      0x40\n        /* \"#utility.yul\":702:707   */\n      dup4\n        /* \"#utility.yul\":698:714   */\n      add\n        /* \"#utility.yul\":692:715   */\n      mload\n        /* \"#utility.yul\":757:760   */\n      dup5\n        /* \"#utility.yul\":751:755   */\n      dup3\n        /* \"#utility.yul\":747:761   */\n      sub\n        /* \"#utility.yul\":740:744   */\n      0x40\n        /* \"#utility.yul\":735:738   */\n      dup7\n        /* \"#utility.yul\":731:745   */\n      add\n        /* \"#utility.yul\":724:762   */\n      mstore\n        /* \"#utility.yul\":785:824   */\n      tag_151\n        /* \"#utility.yul\":819:823   */\n      dup3\n        /* \"#utility.yul\":803:817   */\n      dup3\n        /* \"#utility.yul\":785:824   */\n      tag_137\n      jump\t// in\n    tag_151:\n        /* \"#utility.yul\":771:824   */\n      swap2\n      pop\n      pop\n        /* \"#utility.yul\":872:876   */\n      0x60\n        /* \"#utility.yul\":865:870   */\n      dup4\n        /* \"#utility.yul\":861:877   */\n      add\n        /* \"#utility.yul\":855:878   */\n      mload\n        /* \"#utility.yul\":922:925   */\n      dup5\n        /* \"#utility.yul\":914:920   */\n      dup3\n        /* \"#utility.yul\":910:926   */\n      sub\n        /* \"#utility.yul\":903:907   */\n      0x60\n        /* \"#utility.yul\":898:901   */\n      dup7\n        /* \"#utility.yul\":894:908   */\n      add\n        /* \"#utility.yul\":887:927   */\n      mstore\n        /* \"#utility.yul\":957:971   */\n      dup1\n        /* \"#utility.yul\":951:972   */\n      mload\n        /* \"#utility.yul\":943:949   */\n      dup3\n        /* \"#utility.yul\":936:973   */\n      mstore\n        /* \"#utility.yul\":1034:1038   */\n      0x20\n        /* \"#utility.yul\":1018:1032   */\n      dup2\n        /* \"#utility.yul\":1014:1039   */\n      add\n        /* \"#utility.yul\":1008:1040   */\n      mload\n        /* \"#utility.yul\":1001:1005   */\n      0x20\n        /* \"#utility.yul\":993:999   */\n      dup4\n        /* \"#utility.yul\":989:1006   */\n      add\n        /* \"#utility.yul\":982:1041   */\n      mstore\n        /* \"#utility.yul\":1098:1102   */\n      0x40\n        /* \"#utility.yul\":1082:1096   */\n      dup2\n        /* \"#utility.yul\":1078:1103   */\n      add\n        /* \"#utility.yul\":1072:1104   */\n      mload\n        /* \"#utility.yul\":1139:1145   */\n      0x0220\n        /* \"#utility.yul\":1132:1136   */\n      0x40\n        /* \"#utility.yul\":1124:1130   */\n      dup5\n        /* \"#utility.yul\":1120:1137   */\n      add\n        /* \"#utility.yul\":1113:1146   */\n      mstore\n        /* \"#utility.yul\":1169:1223   */\n      tag_152\n        /* \"#utility.yul\":1215:1221   */\n      0x0220\n        /* \"#utility.yul\":1207:1213   */\n      dup5\n        /* \"#utility.yul\":1203:1222   */\n      add\n        /* \"#utility.yul\":1187:1201   */\n      dup3\n        /* \"#utility.yul\":1169:1223   */\n      tag_137\n      jump\t// in\n    tag_152:\n        /* \"#utility.yul\":1155:1223   */\n      swap1\n      pop\n        /* \"#utility.yul\":1280:1284   */\n      0x60\n        /* \"#utility.yul\":1264:1278   */\n      dup3\n        /* \"#utility.yul\":1260:1285   */\n      add\n        /* \"#utility.yul\":1254:1286   */\n      mload\n        /* \"#utility.yul\":1333:1339   */\n      dup4\n        /* \"#utility.yul\":1325:1331   */\n      dup3\n        /* \"#utility.yul\":1321:1340   */\n      sub\n        /* \"#utility.yul\":1314:1318   */\n      0x60\n        /* \"#utility.yul\":1306:1312   */\n      dup6\n        /* \"#utility.yul\":1302:1319   */\n      add\n        /* \"#utility.yul\":1295:1341   */\n      mstore\n        /* \"#utility.yul\":1364:1405   */\n      tag_153\n        /* \"#utility.yul\":1398:1404   */\n      dup3\n        /* \"#utility.yul\":1382:1396   */\n      dup3\n        /* \"#utility.yul\":1364:1405   */\n      tag_137\n      jump\t// in\n    tag_153:\n        /* \"#utility.yul\":1350:1405   */\n      swap2\n      pop\n      pop\n        /* \"#utility.yul\":1466:1470   */\n      0x80\n        /* \"#utility.yul\":1450:1464   */\n      dup3\n        /* \"#utility.yul\":1446:1471   */\n      add\n        /* \"#utility.yul\":1440:1472   */\n      mload\n        /* \"#utility.yul\":1433:1437   */\n      0x80\n        /* \"#utility.yul\":1425:1431   */\n      dup5\n        /* \"#utility.yul\":1421:1438   */\n      add\n        /* \"#utility.yul\":1414:1473   */\n      mstore\n        /* \"#utility.yul\":1534:1538   */\n      0xa0\n        /* \"#utility.yul\":1518:1532   */\n      dup3\n        /* \"#utility.yul\":1514:1539   */\n      add\n        /* \"#utility.yul\":1508:1540   */\n      mload\n        /* \"#utility.yul\":1501:1505   */\n      0xa0\n        /* \"#utility.yul\":1493:1499   */\n      dup5\n        /* \"#utility.yul\":1489:1506   */\n      add\n        /* \"#utility.yul\":1482:1541   */\n      mstore\n        /* \"#utility.yul\":1602:1606   */\n      0xc0\n        /* \"#utility.yul\":1586:1600   */\n      dup3\n        /* \"#utility.yul\":1582:1607   */\n      add\n        /* \"#utility.yul\":1576:1608   */\n      mload\n        /* \"#utility.yul\":1569:1573   */\n      0xc0\n        /* \"#utility.yul\":1561:1567   */\n      dup5\n        /* \"#utility.yul\":1557:1574   */\n      add\n        /* \"#utility.yul\":1550:1609   */\n      mstore\n        /* \"#utility.yul\":1670:1674   */\n      0xe0\n        /* \"#utility.yul\":1654:1668   */\n      dup3\n        /* \"#utility.yul\":1650:1675   */\n      add\n        /* \"#utility.yul\":1644:1676   */\n      mload\n        /* \"#utility.yul\":1637:1641   */\n      0xe0\n        /* \"#utility.yul\":1629:1635   */\n      dup5\n        /* \"#utility.yul\":1625:1642   */\n      add\n        /* \"#utility.yul\":1618:1677   */\n      mstore\n        /* \"#utility.yul\":1740:1746   */\n      0x0100\n        /* \"#utility.yul\":1724:1738   */\n      dup3\n        /* \"#utility.yul\":1720:1747   */\n      add\n        /* \"#utility.yul\":1714:1748   */\n      mload\n        /* \"#utility.yul\":1705:1711   */\n      0x0100\n        /* \"#utility.yul\":1697:1703   */\n      dup5\n        /* \"#utility.yul\":1693:1712   */\n      add\n        /* \"#utility.yul\":1686:1749   */\n      mstore\n        /* \"#utility.yul\":1812:1818   */\n      0x0120\n        /* \"#utility.yul\":1796:1810   */\n      dup3\n        /* \"#utility.yul\":1792:1819   */\n      add\n        /* \"#utility.yul\":1786:1820   */\n      mload\n        /* \"#utility.yul\":1777:1783   */\n      0x0120\n        /* \"#utility.yul\":1769:1775   */\n      dup5\n        /* \"#utility.yul\":1765:1784   */\n      add\n        /* \"#utility.yul\":1758:1821   */\n      mstore\n        /* \"#utility.yul\":1884:1890   */\n      0x0140\n        /* \"#utility.yul\":1868:1882   */\n      dup3\n        /* \"#utility.yul\":1864:1891   */\n      add\n        /* \"#utility.yul\":1858:1892   */\n      mload\n        /* \"#utility.yul\":1849:1855   */\n      0x0140\n        /* \"#utility.yul\":1841:1847   */\n      dup5\n        /* \"#utility.yul\":1837:1856   */\n      add\n        /* \"#utility.yul\":1830:1893   */\n      mstore\n        /* \"#utility.yul\":1956:1962   */\n      0x0160\n        /* \"#utility.yul\":1940:1954   */\n      dup3\n        /* \"#utility.yul\":1936:1963   */\n      add\n        /* \"#utility.yul\":1930:1964   */\n      mload\n        /* \"#utility.yul\":1921:1927   */\n      0x0160\n        /* \"#utility.yul\":1913:1919   */\n      dup5\n        /* \"#utility.yul\":1909:1928   */\n      add\n        /* \"#utility.yul\":1902:1965   */\n      mstore\n        /* \"#utility.yul\":2022:2028   */\n      0x0180\n        /* \"#utility.yul\":2006:2020   */\n      dup3\n        /* \"#utility.yul\":2002:2029   */\n      add\n        /* \"#utility.yul\":1996:2030   */\n      mload\n        /* \"#utility.yul\":2039:2091   */\n      tag_154\n        /* \"#utility.yul\":2083:2089   */\n      0x0180\n        /* \"#utility.yul\":2075:2081   */\n      dup6\n        /* \"#utility.yul\":2071:2090   */\n      add\n        /* \"#utility.yul\":2055:2069   */\n      dup3\n        /* \"#utility.yul\":378:391   */\n      iszero\n        /* \"#utility.yul\":371:392   */\n      iszero\n        /* \"#utility.yul\":359:393   */\n      swap1\n      mstore\n        /* \"#utility.yul\":308:399   */\n      jump\n        /* \"#utility.yul\":2039:2091   */\n    tag_154:\n      pop\n        /* \"#utility.yul\":2154:2160   */\n      0x01a0\n        /* \"#utility.yul\":2138:2152   */\n      dup3\n        /* \"#utility.yul\":2134:2161   */\n      add\n        /* \"#utility.yul\":2128:2162   */\n      mload\n        /* \"#utility.yul\":2119:2125   */\n      0x01a0\n        /* \"#utility.yul\":2111:2117   */\n      dup5\n        /* \"#utility.yul\":2107:2126   */\n      add\n        /* \"#utility.yul\":2100:2163   */\n      mstore\n        /* \"#utility.yul\":2226:2232   */\n      0x01c0\n        /* \"#utility.yul\":2210:2224   */\n      dup3\n        /* \"#utility.yul\":2206:2233   */\n      add\n        /* \"#utility.yul\":2200:2234   */\n      mload\n        /* \"#utility.yul\":2191:2197   */\n      0x01c0\n        /* \"#utility.yul\":2183:2189   */\n      dup5\n        /* \"#utility.yul\":2179:2198   */\n      add\n        /* \"#utility.yul\":2172:2235   */\n      mstore\n        /* \"#utility.yul\":2298:2304   */\n      0x01e0\n        /* \"#utility.yul\":2282:2296   */\n      dup3\n        /* \"#utility.yul\":2278:2305   */\n      add\n        /* \"#utility.yul\":2272:2306   */\n      mload\n        /* \"#utility.yul\":2263:2269   */\n      0x01e0\n        /* \"#utility.yul\":2255:2261   */\n      dup5\n        /* \"#utility.yul\":2251:2270   */\n      add\n        /* \"#utility.yul\":2244:2307   */\n      mstore\n        /* \"#utility.yul\":2364:2370   */\n      0x0200\n        /* \"#utility.yul\":2348:2362   */\n      dup3\n        /* \"#utility.yul\":2344:2371   */\n      add\n        /* \"#utility.yul\":2338:2372   */\n      mload\n        /* \"#utility.yul\":2316:2372   */\n      swap2\n      pop\n        /* \"#utility.yul\":2421:2427   */\n      dup3\n        /* \"#utility.yul\":2413:2419   */\n      dup2\n        /* \"#utility.yul\":2409:2428   */\n      sub\n        /* \"#utility.yul\":2400:2406   */\n      0x0200\n        /* \"#utility.yul\":2392:2398   */\n      dup5\n        /* \"#utility.yul\":2388:2407   */\n      add\n        /* \"#utility.yul\":2381:2429   */\n      mstore\n        /* \"#utility.yul\":2445:2486   */\n      tag_155\n        /* \"#utility.yul\":2479:2485   */\n      dup2\n        /* \"#utility.yul\":2463:2477   */\n      dup4\n        /* \"#utility.yul\":2445:2486   */\n      tag_137\n      jump\t// in\n    tag_155:\n        /* \"#utility.yul\":2438:2486   */\n      swap7\n        /* \"#utility.yul\":404:2492   */\n      swap6\n      pop\n      pop\n      pop\n      pop\n      pop\n      pop\n      jump\t// out\n        /* \"#utility.yul\":2497:3336   */\n    tag_11:\n        /* \"#utility.yul\":2701:2705   */\n      0x00\n        /* \"#utility.yul\":2749:2751   */\n      0x20\n        /* \"#utility.yul\":2738:2747   */\n      dup3\n        /* \"#utility.yul\":2734:2752   */\n      add\n        /* \"#utility.yul\":2779:2781   */\n      0x20\n        /* \"#utility.yul\":2768:2777   */\n      dup4\n        /* \"#utility.yul\":2761:2782   */\n      mstore\n        /* \"#utility.yul\":2802:2808   */\n      dup1\n        /* \"#utility.yul\":2837:2843   */\n      dup5\n        /* \"#utility.yul\":2831:2844   */\n      mload\n        /* \"#utility.yul\":2868:2874   */\n      dup1\n        /* \"#utility.yul\":2860:2866   */\n      dup4\n        /* \"#utility.yul\":2853:2875   */\n      mstore\n        /* \"#utility.yul\":2906:2908   */\n      0x40\n        /* \"#utility.yul\":2895:2904   */\n      dup6\n        /* \"#utility.yul\":2891:2909   */\n      add\n        /* \"#utility.yul\":2884:2909   */\n      swap2\n      pop\n        /* \"#utility.yul\":2968:2970   */\n      0x40\n        /* \"#utility.yul\":2958:2964   */\n      dup2\n        /* \"#utility.yul\":2955:2956   */\n      0x05\n        /* \"#utility.yul\":2951:2965   */\n      shl\n        /* \"#utility.yul\":2940:2949   */\n      dup7\n        /* \"#utility.yul\":2936:2966   */\n      add\n        /* \"#utility.yul\":2932:2971   */\n      add\n        /* \"#utility.yul\":2918:2971   */\n      swap3\n      pop\n        /* \"#utility.yul\":3006:3008   */\n      0x20\n        /* \"#utility.yul\":2998:3004   */\n      dup7\n        /* \"#utility.yul\":2994:3009   */\n      add\n        /* \"#utility.yul\":3027:3028   */\n      0x00\n        /* \"#utility.yul\":3037:3307   */\n    tag_157:\n        /* \"#utility.yul\":3051:3057   */\n      dup3\n        /* \"#utility.yul\":3048:3049   */\n      dup2\n        /* \"#utility.yul\":3045:3058   */\n      lt\n        /* \"#utility.yul\":3037:3307   */\n      iszero\n      tag_159\n      jumpi\n        /* \"#utility.yul\":3144:3146   */\n      0x3f\n        /* \"#utility.yul\":3140:3147   */\n      not\n        /* \"#utility.yul\":3128:3137   */\n      dup8\n        /* \"#utility.yul\":3120:3126   */\n      dup7\n        /* \"#utility.yul\":3116:3138   */\n      sub\n        /* \"#utility.yul\":3112:3148   */\n      add\n        /* \"#utility.yul\":3107:3110   */\n      dup5\n        /* \"#utility.yul\":3100:3149   */\n      mstore\n        /* \"#utility.yul\":3172:3227   */\n      tag_160\n        /* \"#utility.yul\":3220:3226   */\n      dup6\n        /* \"#utility.yul\":3211:3217   */\n      dup4\n        /* \"#utility.yul\":3205:3218   */\n      mload\n        /* \"#utility.yul\":3172:3227   */\n      tag_139\n      jump\t// in\n    tag_160:\n        /* \"#utility.yul\":3162:3227   */\n      swap5\n      pop\n        /* \"#utility.yul\":3262:3264   */\n      0x20\n        /* \"#utility.yul\":3285:3297   */\n      swap4\n      dup5\n      add\n      swap4\n        /* \"#utility.yul\":3250:3265   */\n      swap2\n      swap1\n      swap2\n      add\n      swap1\n        /* \"#utility.yul\":3073:3074   */\n      0x01\n        /* \"#utility.yul\":3066:3075   */\n      add\n        /* \"#utility.yul\":3037:3307   */\n      jump(tag_157)\n    tag_159:\n      pop\n        /* \"#utility.yul\":3324:3330   */\n      swap3\n      swap7\n        /* \"#utility.yul\":2497:3336   */\n      swap6\n      pop\n      pop\n      pop\n      pop\n      pop\n      pop\n      jump\t// out\n        /* \"#utility.yul\":3341:3567   */\n    tag_14:\n        /* \"#utility.yul\":3400:3406   */\n      0x00\n        /* \"#utility.yul\":3453:3455   */\n      0x20\n        /* \"#utility.yul\":3441:3450   */\n      dup3\n        /* \"#utility.yul\":3432:3439   */\n      dup5\n        /* \"#utility.yul\":3428:3451   */\n      sub\n        /* \"#utility.yul\":3424:3456   */\n      slt\n        /* \"#utility.yul\":3421:3473   */\n      iszero\n      tag_162\n      jumpi\n        /* \"#utility.yul\":3469:3470   */\n      0x00\n        /* \"#utility.yul\":3466:3467   */\n      0x00\n        /* \"#utility.yul\":3459:3471   */\n      revert\n        /* \"#utility.yul\":3421:3473   */\n    tag_162:\n      pop\n        /* \"#utility.yul\":3514:3537   */\n      calldataload\n      swap2\n        /* \"#utility.yul\":3341:3567   */\n      swap1\n      pop\n      jump\t// out\n        /* \"#utility.yul\":3572:3849   */\n    tag_17:\n        /* \"#utility.yul\":3763:3765   */\n      0x20\n        /* \"#utility.yul\":3752:3761   */\n      dup2\n        /* \"#utility.yul\":3745:3766   */\n      mstore\n        /* \"#utility.yul\":3726:3730   */\n      0x00\n        /* \"#utility.yul\":3783:3843   */\n      tag_164\n        /* \"#utility.yul\":3839:3841   */\n      0x20\n        /* \"#utility.yul\":3828:3837   */\n      dup4\n        /* \"#utility.yul\":3824:3842   */\n      add\n        /* \"#utility.yul\":3816:3822   */\n      dup5\n        /* \"#utility.yul\":3783:3843   */\n      tag_139\n      jump\t// in\n    tag_164:\n        /* \"#utility.yul\":3775:3843   */\n      swap4\n        /* \"#utility.yul\":3572:3849   */\n      swap3\n      pop\n      pop\n      pop\n      jump\t// out\n        /* \"#utility.yul\":4036:4427   */\n    tag_24:\n        /* \"#utility.yul\":4126:4132   */\n      0x00\n        /* \"#utility.yul\":4179:4181   */\n      0x20\n        /* \"#utility.yul\":4167:4176   */\n      dup3\n        /* \"#utility.yul\":4158:4165   */\n      dup5\n        /* \"#utility.yul\":4154:4177   */\n      sub\n        /* \"#utility.yul\":4150:4182   */\n      slt\n        /* \"#utility.yul\":4147:4199   */\n      iszero\n      tag_167\n      jumpi\n        /* \"#utility.yul\":4195:4196   */\n      0x00\n        /* \"#utility.yul\":4192:4193   */\n      0x00\n        /* \"#utility.yul\":4185:4197   */\n      revert\n        /* \"#utility.yul\":4147:4199   */\n    tag_167:\n        /* \"#utility.yul\":4235:4244   */\n      dup2\n        /* \"#utility.yul\":4222:4245   */\n      calldataload\n        /* \"#utility.yul\":4268:4286   */\n      0xffffffffffffffff\n        /* \"#utility.yul\":4260:4266   */\n      dup2\n        /* \"#utility.yul\":4257:4287   */\n      gt\n        /* \"#utility.yul\":4254:4304   */\n      iszero\n      tag_168\n      jumpi\n        /* \"#utility.yul\":4300:4301   */\n      0x00\n        /* \"#utility.yul\":4297:4298   */\n      0x00\n        /* \"#utility.yul\":4290:4302   */\n      revert\n        /* \"#utility.yul\":4254:4304   */\n    tag_168:\n        /* \"#utility.yul\":4323:4345   */\n      dup3\n      add\n        /* \"#utility.yul\":4379:4382   */\n      0x0220\n        /* \"#utility.yul\":4361:4377   */\n      dup2\n      dup6\n      sub\n        /* \"#utility.yul\":4357:4383   */\n      slt\n        /* \"#utility.yul\":4354:4400   */\n      iszero\n      tag_164\n      jumpi\n        /* \"#utility.yul\":4396:4397   */\n      0x00\n        /* \"#utility.yul\":4393:4394   */\n      0x00\n        /* \"#utility.yul\":4386:4398   */\n      revert\n        /* \"#utility.yul\":4432:4559   */\n    tag_32:\n        /* \"#utility.yul\":4493:4503   */\n      0x4e487b71\n        /* \"#utility.yul\":4488:4491   */\n      0xe0\n        /* \"#utility.yul\":4484:4504   */\n      shl\n        /* \"#utility.yul\":4481:4482   */\n      0x00\n        /* \"#utility.yul\":4474:4505   */\n      mstore\n        /* \"#utility.yul\":4524:4528   */\n      0x41\n        /* \"#utility.yul\":4521:4522   */\n      0x04\n        /* \"#utility.yul\":4514:4529   */\n      mstore\n        /* \"#utility.yul\":4548:4552   */\n      0x24\n        /* \"#utility.yul\":4545:4546   */\n      0x00\n        /* \"#utility.yul\":4538:4553   */\n      revert\n        /* \"#utility.yul\":4564:4691   */\n    tag_42:\n        /* \"#utility.yul\":4625:4635   */\n      0x4e487b71\n        /* \"#utility.yul\":4620:4623   */\n      0xe0\n        /* \"#utility.yul\":4616:4636   */\n      shl\n        /* \"#utility.yul\":4613:4614   */\n      0x00\n        /* \"#utility.yul\":4606:4637   */\n      mstore\n        /* \"#utility.yul\":4656:4660   */\n      0x32\n        /* \"#utility.yul\":4653:4654   */\n      0x04\n        /* \"#utility.yul\":4646:4661   */\n      mstore\n        /* \"#utility.yul\":4680:4684   */\n      0x24\n        /* \"#utility.yul\":4677:4678   */\n      0x00\n        /* \"#utility.yul\":4670:4685   */\n      revert\n        /* \"#utility.yul\":4696:5076   */\n    tag_51:\n        /* \"#utility.yul\":4775:4776   */\n      0x01\n        /* \"#utility.yul\":4771:4783   */\n      dup2\n      dup2\n      shr\n      swap1\n        /* \"#utility.yul\":4818:4830   */\n      dup3\n      and\n      dup1\n        /* \"#utility.yul\":4839:4900   */\n      tag_173\n      jumpi\n        /* \"#utility.yul\":4893:4897   */\n      0x7f\n        /* \"#utility.yul\":4885:4891   */\n      dup3\n        /* \"#utility.yul\":4881:4898   */\n      and\n        /* \"#utility.yul\":4871:4898   */\n      swap2\n      pop\n        /* \"#utility.yul\":4839:4900   */\n    tag_173:\n        /* \"#utility.yul\":4946:4948   */\n      0x20\n        /* \"#utility.yul\":4938:4944   */\n      dup3\n        /* \"#utility.yul\":4935:4949   */\n      lt\n        /* \"#utility.yul\":4915:4933   */\n      dup2\n        /* \"#utility.yul\":4912:4950   */\n      sub\n        /* \"#utility.yul\":4909:5070   */\n      tag_38\n      jumpi\n        /* \"#utility.yul\":4992:5002   */\n      0x4e487b71\n        /* \"#utility.yul\":4987:4990   */\n      0xe0\n        /* \"#utility.yul\":4983:5003   */\n      shl\n        /* \"#utility.yul\":4980:4981   */\n      0x00\n        /* \"#utility.yul\":4973:5004   */\n      mstore\n        /* \"#utility.yul\":5027:5031   */\n      0x22\n        /* \"#utility.yul\":5024:5025   */\n      0x04\n        /* \"#utility.yul\":5017:5032   */\n      mstore\n        /* \"#utility.yul\":5055:5059   */\n      0x24\n        /* \"#utility.yul\":5052:5053   */\n      0x00\n        /* \"#utility.yul\":5045:5060   */\n      revert\n        /* \"#utility.yul\":5428:5950   */\n    tag_83:\n        /* \"#utility.yul\":5506:5510   */\n      0x00\n        /* \"#utility.yul\":5512:5518   */\n      0x00\n        /* \"#utility.yul\":5572:5583   */\n      dup4\n        /* \"#utility.yul\":5559:5584   */\n      calldataload\n        /* \"#utility.yul\":5666:5668   */\n      0x1e\n        /* \"#utility.yul\":5662:5669   */\n      not\n        /* \"#utility.yul\":5651:5659   */\n      dup5\n        /* \"#utility.yul\":5635:5649   */\n      calldatasize\n        /* \"#utility.yul\":5631:5660   */\n      sub\n        /* \"#utility.yul\":5627:5670   */\n      add\n        /* \"#utility.yul\":5607:5625   */\n      dup2\n        /* \"#utility.yul\":5603:5671   */\n      slt\n        /* \"#utility.yul\":5593:5689   */\n      tag_177\n      jumpi\n        /* \"#utility.yul\":5685:5686   */\n      0x00\n        /* \"#utility.yul\":5682:5683   */\n      0x00\n        /* \"#utility.yul\":5675:5687   */\n      revert\n        /* \"#utility.yul\":5593:5689   */\n    tag_177:\n        /* \"#utility.yul\":5712:5745   */\n      dup4\n      add\n        /* \"#utility.yul\":5764:5784   */\n      dup1\n      calldataload\n      swap2\n      pop\n        /* \"#utility.yul\":5807:5825   */\n      0xffffffffffffffff\n        /* \"#utility.yul\":5796:5826   */\n      dup3\n      gt\n        /* \"#utility.yul\":5793:5843   */\n      iszero\n      tag_178\n      jumpi\n        /* \"#utility.yul\":5839:5840   */\n      0x00\n        /* \"#utility.yul\":5836:5837   */\n      0x00\n        /* \"#utility.yul\":5829:5841   */\n      revert\n        /* \"#utility.yul\":5793:5843   */\n    tag_178:\n        /* \"#utility.yul\":5872:5876   */\n      0x20\n        /* \"#utility.yul\":5860:5877   */\n      add\n      swap2\n      pop\n        /* \"#utility.yul\":5903:5917   */\n      calldatasize\n        /* \"#utility.yul\":5899:5926   */\n      dup2\n      swap1\n      sub\n        /* \"#utility.yul\":5889:5927   */\n      dup3\n      sgt\n        /* \"#utility.yul\":5886:5944   */\n      iszero\n      tag_179\n      jumpi\n        /* \"#utility.yul\":5940:5941   */\n      0x00\n        /* \"#utility.yul\":5937:5938   */\n      0x00\n        /* \"#utility.yul\":5930:5942   */\n      revert\n        /* \"#utility.yul\":5886:5944   */\n    tag_179:\n        /* \"#utility.yul\":5428:5950   */\n      swap3\n      pop\n      swap3\n      swap1\n      pop\n      jump\t// out\n        /* \"#utility.yul\":6302:6552   */\n    tag_140:\n        /* \"#utility.yul\":6369:6371   */\n      0x40\n        /* \"#utility.yul\":6363:6372   */\n      mload\n        /* \"#utility.yul\":6411:6417   */\n      0x0220\n        /* \"#utility.yul\":6399:6418   */\n      dup2\n      add\n        /* \"#utility.yul\":6448:6466   */\n      0xffffffffffffffff\n        /* \"#utility.yul\":6433:6467   */\n      dup2\n      gt\n        /* \"#utility.yul\":6469:6491   */\n      dup3\n      dup3\n      lt\n        /* \"#utility.yul\":6430:6492   */\n      or\n        /* \"#utility.yul\":6427:6515   */\n      iszero\n      tag_183\n      jumpi\n        /* \"#utility.yul\":6495:6513   */\n      tag_183\n      tag_32\n      jump\t// in\n    tag_183:\n        /* \"#utility.yul\":6531:6533   */\n      0x40\n        /* \"#utility.yul\":6524:6546   */\n      mstore\n        /* \"#utility.yul\":6302:6552   */\n      swap1\n      jump\t// out\n        /* \"#utility.yul\":6557:7303   */\n    tag_141:\n        /* \"#utility.yul\":6600:6605   */\n      0x00\n        /* \"#utility.yul\":6653:6656   */\n      dup3\n        /* \"#utility.yul\":6646:6650   */\n      0x1f\n        /* \"#utility.yul\":6638:6644   */\n      dup4\n        /* \"#utility.yul\":6634:6651   */\n      add\n        /* \"#utility.yul\":6630:6657   */\n      slt\n        /* \"#utility.yul\":6620:6675   */\n      tag_185\n      jumpi\n        /* \"#utility.yul\":6671:6672   */\n      0x00\n        /* \"#utility.yul\":6668:6669   */\n      0x00\n        /* \"#utility.yul\":6661:6673   */\n      revert\n        /* \"#utility.yul\":6620:6675   */\n    tag_185:\n        /* \"#utility.yul\":6711:6717   */\n      dup2\n        /* \"#utility.yul\":6698:6718   */\n      calldataload\n        /* \"#utility.yul\":6741:6759   */\n      0xffffffffffffffff\n        /* \"#utility.yul\":6733:6739   */\n      dup2\n        /* \"#utility.yul\":6730:6760   */\n      gt\n        /* \"#utility.yul\":6727:6783   */\n      iszero\n      tag_187\n      jumpi\n        /* \"#utility.yul\":6763:6781   */\n      tag_187\n      tag_32\n      jump\t// in\n    tag_187:\n        /* \"#utility.yul\":6832:6834   */\n      0x40\n        /* \"#utility.yul\":6826:6835   */\n      mload\n        /* \"#utility.yul\":6924:6926   */\n      0x1f\n        /* \"#utility.yul\":6886:6903   */\n      dup3\n      add\n      not(0x1f)\n        /* \"#utility.yul\":6882:6913   */\n      swap1\n      dup2\n      and\n        /* \"#utility.yul\":6915:6917   */\n      0x3f\n        /* \"#utility.yul\":6878:6918   */\n      add\n        /* \"#utility.yul\":6874:6928   */\n      and\n        /* \"#utility.yul\":6862:6929   */\n      dup2\n      add\n        /* \"#utility.yul\":6959:6977   */\n      0xffffffffffffffff\n        /* \"#utility.yul\":6944:6978   */\n      dup2\n      gt\n        /* \"#utility.yul\":6980:7002   */\n      dup3\n      dup3\n      lt\n        /* \"#utility.yul\":6941:7003   */\n      or\n        /* \"#utility.yul\":6938:7026   */\n      iszero\n      tag_189\n      jumpi\n        /* \"#utility.yul\":7006:7024   */\n      tag_189\n      tag_32\n      jump\t// in\n    tag_189:\n        /* \"#utility.yul\":7042:7044   */\n      0x40\n        /* \"#utility.yul\":7035:7057   */\n      mstore\n        /* \"#utility.yul\":7066:7088   */\n      dup2\n      dup2\n      mstore\n        /* \"#utility.yul\":7107:7126   */\n      dup4\n      dup3\n      add\n        /* \"#utility.yul\":7128:7132   */\n      0x20\n        /* \"#utility.yul\":7103:7133   */\n      add\n        /* \"#utility.yul\":7100:7139   */\n      dup6\n      lt\n        /* \"#utility.yul\":7097:7156   */\n      iszero\n      tag_190\n      jumpi\n        /* \"#utility.yul\":7152:7153   */\n      0x00\n        /* \"#utility.yul\":7149:7150   */\n      0x00\n        /* \"#utility.yul\":7142:7154   */\n      revert\n        /* \"#utility.yul\":7097:7156   */\n    tag_190:\n        /* \"#utility.yul\":7216:7222   */\n      dup2\n        /* \"#utility.yul\":7209:7213   */\n      0x20\n        /* \"#utility.yul\":7201:7207   */\n      dup6\n        /* \"#utility.yul\":7197:7214   */\n      add\n        /* \"#utility.yul\":7190:7194   */\n      0x20\n        /* \"#utility.yul\":7182:7188   */\n      dup4\n        /* \"#utility.yul\":7178:7195   */\n      add\n        /* \"#utility.yul\":7165:7223   */\n      calldatacopy\n        /* \"#utility.yul\":7271:7272   */\n      0x00\n        /* \"#utility.yul\":7243:7262   */\n      swap2\n      dup2\n      add\n        /* \"#utility.yul\":7264:7268   */\n      0x20\n        /* \"#utility.yul\":7239:7269   */\n      add\n        /* \"#utility.yul\":7232:7273   */\n      swap2\n      swap1\n      swap2\n      mstore\n        /* \"#utility.yul\":7247:7253   */\n      swap4\n        /* \"#utility.yul\":6557:7303   */\n      swap3\n      pop\n      pop\n      pop\n      jump\t// out\n        /* \"#utility.yul\":7308:7468   */\n    tag_142:\n        /* \"#utility.yul\":7373:7393   */\n      dup1\n      calldataload\n        /* \"#utility.yul\":7429:7442   */\n      dup1\n      iszero\n        /* \"#utility.yul\":7422:7443   */\n      iszero\n        /* \"#utility.yul\":7412:7444   */\n      dup2\n      eq\n        /* \"#utility.yul\":7402:7462   */\n      tag_192\n      jumpi\n        /* \"#utility.yul\":7458:7459   */\n      0x00\n        /* \"#utility.yul\":7455:7456   */\n      0x00\n        /* \"#utility.yul\":7448:7460   */\n      revert\n        /* \"#utility.yul\":7402:7462   */\n    tag_192:\n        /* \"#utility.yul\":7308:7468   */\n      swap2\n      swap1\n      pop\n      jump\t// out\n        /* \"#utility.yul\":7473:9932   */\n    tag_89:\n        /* \"#utility.yul\":7583:7592   */\n      0x00\n        /* \"#utility.yul\":7642:7648   */\n      0x0220\n        /* \"#utility.yul\":7634:7639   */\n      dup3\n        /* \"#utility.yul\":7618:7632   */\n      calldatasize\n        /* \"#utility.yul\":7614:7640   */\n      sub\n        /* \"#utility.yul\":7610:7649   */\n      slt\n        /* \"#utility.yul\":7607:7666   */\n      iszero\n      tag_194\n      jumpi\n        /* \"#utility.yul\":7662:7663   */\n      0x00\n        /* \"#utility.yul\":7659:7660   */\n      0x00\n        /* \"#utility.yul\":7652:7664   */\n      revert\n        /* \"#utility.yul\":7607:7666   */\n    tag_194:\n        /* \"#utility.yul\":7690:7707   */\n      tag_195\n      tag_140\n      jump\t// in\n    tag_195:\n        /* \"#utility.yul\":7752:7771   */\n      dup3\n      calldataload\n        /* \"#utility.yul\":7780:7804   */\n      dup2\n      mstore\n        /* \"#utility.yul\":7873:7875   */\n      0x20\n        /* \"#utility.yul\":7862:7876   */\n      dup1\n      dup5\n      add\n        /* \"#utility.yul\":7849:7877   */\n      calldataload\n        /* \"#utility.yul\":7893:7909   */\n      swap1\n      dup3\n      add\n        /* \"#utility.yul\":7886:7919   */\n      mstore\n        /* \"#utility.yul\":7966:7968   */\n      0x40\n        /* \"#utility.yul\":7955:7969   */\n      dup4\n      add\n        /* \"#utility.yul\":7942:7970   */\n      calldataload\n        /* \"#utility.yul\":7993:8011   */\n      0xffffffffffffffff\n        /* \"#utility.yul\":7982:8012   */\n      dup2\n      gt\n        /* \"#utility.yul\":7979:8029   */\n      iszero\n      tag_196\n      jumpi\n        /* \"#utility.yul\":8025:8026   */\n      0x00\n        /* \"#utility.yul\":8022:8023   */\n      0x00\n        /* \"#utility.yul\":8015:8027   */\n      revert\n        /* \"#utility.yul\":7979:8029   */\n    tag_196:\n        /* \"#utility.yul\":8063:8116   */\n      tag_197\n        /* \"#utility.yul\":8101:8115   */\n      calldatasize\n        /* \"#utility.yul\":8092:8098   */\n      dup3\n        /* \"#utility.yul\":8085:8090   */\n      dup7\n        /* \"#utility.yul\":8081:8099   */\n      add\n        /* \"#utility.yul\":8063:8116   */\n      tag_141\n      jump\t// in\n    tag_197:\n        /* \"#utility.yul\":8058:8060   */\n      0x40\n        /* \"#utility.yul\":8049:8056   */\n      dup4\n        /* \"#utility.yul\":8045:8061   */\n      add\n        /* \"#utility.yul\":8038:8117   */\n      mstore\n      pop\n        /* \"#utility.yul\":8166:8168   */\n      0x60\n        /* \"#utility.yul\":8159:8164   */\n      dup4\n        /* \"#utility.yul\":8155:8169   */\n      add\n        /* \"#utility.yul\":8142:8170   */\n      calldataload\n        /* \"#utility.yul\":8195:8213   */\n      0xffffffffffffffff\n        /* \"#utility.yul\":8185:8193   */\n      dup2\n        /* \"#utility.yul\":8182:8214   */\n      gt\n        /* \"#utility.yul\":8179:8231   */\n      iszero\n      tag_198\n      jumpi\n        /* \"#utility.yul\":8227:8228   */\n      0x00\n        /* \"#utility.yul\":8224:8225   */\n      0x00\n        /* \"#utility.yul\":8217:8229   */\n      revert\n        /* \"#utility.yul\":8179:8231   */\n    tag_198:\n        /* \"#utility.yul\":8265:8320   */\n      tag_199\n        /* \"#utility.yul\":8305:8319   */\n      calldatasize\n        /* \"#utility.yul\":8294:8302   */\n      dup3\n        /* \"#utility.yul\":8287:8292   */\n      dup7\n        /* \"#utility.yul\":8283:8303   */\n      add\n        /* \"#utility.yul\":8265:8320   */\n      tag_141\n      jump\t// in\n    tag_199:\n        /* \"#utility.yul\":8260:8262   */\n      0x60\n        /* \"#utility.yul\":8247:8263   */\n      dup4\n      add\n        /* \"#utility.yul\":8240:8321   */\n      mstore\n      pop\n        /* \"#utility.yul\":8390:8393   */\n      0x80\n        /* \"#utility.yul\":8379:8394   */\n      dup4\n      dup2\n      add\n        /* \"#utility.yul\":8366:8395   */\n      calldataload\n        /* \"#utility.yul\":8411:8428   */\n      swap1\n      dup3\n      add\n        /* \"#utility.yul\":8404:8438   */\n      mstore\n        /* \"#utility.yul\":8507:8510   */\n      0xa0\n        /* \"#utility.yul\":8496:8511   */\n      dup1\n      dup5\n      add\n        /* \"#utility.yul\":8483:8512   */\n      calldataload\n        /* \"#utility.yul\":8528:8545   */\n      swap1\n      dup3\n      add\n        /* \"#utility.yul\":8521:8555   */\n      mstore\n        /* \"#utility.yul\":8624:8627   */\n      0xc0\n        /* \"#utility.yul\":8613:8628   */\n      dup1\n      dup5\n      add\n        /* \"#utility.yul\":8600:8629   */\n      calldataload\n        /* \"#utility.yul\":8645:8662   */\n      swap1\n      dup3\n      add\n        /* \"#utility.yul\":8638:8672   */\n      mstore\n        /* \"#utility.yul\":8741:8744   */\n      0xe0\n        /* \"#utility.yul\":8730:8745   */\n      dup1\n      dup5\n      add\n        /* \"#utility.yul\":8717:8746   */\n      calldataload\n        /* \"#utility.yul\":8762:8779   */\n      swap1\n      dup3\n      add\n        /* \"#utility.yul\":8755:8789   */\n      mstore\n        /* \"#utility.yul\":8858:8861   */\n      0x0100\n        /* \"#utility.yul\":8847:8862   */\n      dup1\n      dup5\n      add\n        /* \"#utility.yul\":8834:8863   */\n      calldataload\n        /* \"#utility.yul\":8879:8896   */\n      swap1\n      dup3\n      add\n        /* \"#utility.yul\":8872:8906   */\n      mstore\n        /* \"#utility.yul\":8975:8978   */\n      0x0120\n        /* \"#utility.yul\":8964:8979   */\n      dup1\n      dup5\n      add\n        /* \"#utility.yul\":8951:8980   */\n      calldataload\n        /* \"#utility.yul\":8996:9013   */\n      swap1\n      dup3\n      add\n        /* \"#utility.yul\":8989:9023   */\n      mstore\n        /* \"#utility.yul\":9094:9097   */\n      0x0140\n        /* \"#utility.yul\":9083:9098   */\n      dup1\n      dup5\n      add\n        /* \"#utility.yul\":9070:9099   */\n      calldataload\n        /* \"#utility.yul\":9115:9132   */\n      swap1\n      dup3\n      add\n        /* \"#utility.yul\":9108:9143   */\n      mstore\n        /* \"#utility.yul\":9214:9217   */\n      0x0160\n        /* \"#utility.yul\":9203:9218   */\n      dup1\n      dup5\n      add\n        /* \"#utility.yul\":9190:9219   */\n      calldataload\n        /* \"#utility.yul\":9235:9252   */\n      swap1\n      dup3\n      add\n        /* \"#utility.yul\":9228:9263   */\n      mstore\n        /* \"#utility.yul\":9298:9330   */\n      tag_200\n        /* \"#utility.yul\":9325:9328   */\n      0x0180\n        /* \"#utility.yul\":9314:9329   */\n      dup5\n      add\n        /* \"#utility.yul\":9298:9330   */\n      tag_142\n      jump\t// in\n    tag_200:\n        /* \"#utility.yul\":9292:9295   */\n      0x0180\n        /* \"#utility.yul\":9279:9296   */\n      dup3\n      add\n        /* \"#utility.yul\":9272:9331   */\n      mstore\n        /* \"#utility.yul\":9402:9405   */\n      0x01a0\n        /* \"#utility.yul\":9391:9406   */\n      dup4\n      dup2\n      add\n        /* \"#utility.yul\":9378:9407   */\n      calldataload\n        /* \"#utility.yul\":9423:9440   */\n      swap1\n      dup3\n      add\n        /* \"#utility.yul\":9416:9451   */\n      mstore\n        /* \"#utility.yul\":9522:9525   */\n      0x01c0\n        /* \"#utility.yul\":9511:9526   */\n      dup1\n      dup5\n      add\n        /* \"#utility.yul\":9498:9527   */\n      calldataload\n        /* \"#utility.yul\":9543:9560   */\n      swap1\n      dup3\n      add\n        /* \"#utility.yul\":9536:9571   */\n      mstore\n        /* \"#utility.yul\":9642:9645   */\n      0x01e0\n        /* \"#utility.yul\":9631:9646   */\n      dup1\n      dup5\n      add\n        /* \"#utility.yul\":9618:9647   */\n      calldataload\n        /* \"#utility.yul\":9663:9680   */\n      swap1\n      dup3\n      add\n        /* \"#utility.yul\":9656:9691   */\n      mstore\n        /* \"#utility.yul\":9740:9743   */\n      0x0200\n        /* \"#utility.yul\":9729:9744   */\n      dup4\n      add\n        /* \"#utility.yul\":9716:9745   */\n      calldataload\n        /* \"#utility.yul\":9770:9788   */\n      0xffffffffffffffff\n        /* \"#utility.yul\":9757:9789   */\n      dup2\n      gt\n        /* \"#utility.yul\":9754:9806   */\n      iszero\n      tag_201\n      jumpi\n        /* \"#utility.yul\":9802:9803   */\n      0x00\n        /* \"#utility.yul\":9799:9800   */\n      0x00\n        /* \"#utility.yul\":9792:9804   */\n      revert\n        /* \"#utility.yul\":9754:9806   */\n    tag_201:\n        /* \"#utility.yul\":9841:9896   */\n      tag_202\n        /* \"#utility.yul\":9881:9895   */\n      calldatasize\n        /* \"#utility.yul\":9870:9878   */\n      dup3\n        /* \"#utility.yul\":9863:9868   */\n      dup7\n        /* \"#utility.yul\":9859:9879   */\n      add\n        /* \"#utility.yul\":9841:9896   */\n      tag_141\n      jump\t// in\n    tag_202:\n        /* \"#utility.yul\":9835:9838   */\n      0x0200\n        /* \"#utility.yul\":9822:9839   */\n      dup4\n      add\n        /* \"#utility.yul\":9815:9897   */\n      mstore\n      pop\n        /* \"#utility.yul\":9826:9833   */\n      swap3\n        /* \"#utility.yul\":7473:9932   */\n      swap2\n      pop\n      pop\n      jump\t// out\n        /* \"#utility.yul\":10063:10581   */\n    tag_144:\n        /* \"#utility.yul\":10165:10167   */\n      0x1f\n        /* \"#utility.yul\":10160:10163   */\n      dup3\n        /* \"#utility.yul\":10157:10168   */\n      gt\n        /* \"#utility.yul\":10154:10575   */\n      iszero\n      tag_205\n      jumpi\n        /* \"#utility.yul\":10201:10206   */\n      dup1\n        /* \"#utility.yul\":10198:10199   */\n      0x00\n        /* \"#utility.yul\":10191:10207   */\n      mstore\n        /* \"#utility.yul\":10245:10249   */\n      0x20\n        /* \"#utility.yul\":10242:10243   */\n      0x00\n        /* \"#utility.yul\":10232:10250   */\n      keccak256\n        /* \"#utility.yul\":10315:10317   */\n      0x1f\n        /* \"#utility.yul\":10303:10313   */\n      dup5\n        /* \"#utility.yul\":10299:10318   */\n      add\n        /* \"#utility.yul\":10296:10297   */\n      0x05\n        /* \"#utility.yul\":10292:10319   */\n      shr\n        /* \"#utility.yul\":10286:10290   */\n      dup2\n        /* \"#utility.yul\":10282:10320   */\n      add\n        /* \"#utility.yul\":10351:10355   */\n      0x20\n        /* \"#utility.yul\":10339:10349   */\n      dup6\n        /* \"#utility.yul\":10336:10356   */\n      lt\n        /* \"#utility.yul\":10333:10380   */\n      iszero\n      tag_206\n      jumpi\n      pop\n        /* \"#utility.yul\":10374:10378   */\n      dup1\n        /* \"#utility.yul\":10333:10380   */\n    tag_206:\n        /* \"#utility.yul\":10429:10431   */\n      0x1f\n        /* \"#utility.yul\":10424:10427   */\n      dup5\n        /* \"#utility.yul\":10420:10432   */\n      add\n        /* \"#utility.yul\":10417:10418   */\n      0x05\n        /* \"#utility.yul\":10413:10433   */\n      shr\n        /* \"#utility.yul\":10407:10411   */\n      dup3\n        /* \"#utility.yul\":10403:10434   */\n      add\n        /* \"#utility.yul\":10393:10434   */\n      swap2\n      pop\n        /* \"#utility.yul\":10484:10565   */\n    tag_207:\n        /* \"#utility.yul\":10502:10504   */\n      dup2\n        /* \"#utility.yul\":10495:10500   */\n      dup2\n        /* \"#utility.yul\":10492:10505   */\n      lt\n        /* \"#utility.yul\":10484:10565   */\n      iszero\n      tag_209\n      jumpi\n        /* \"#utility.yul\":10561:10562   */\n      0x00\n        /* \"#utility.yul\":10547:10563   */\n      dup2\n      sstore\n        /* \"#utility.yul\":10528:10529   */\n      0x01\n        /* \"#utility.yul\":10517:10530   */\n      add\n        /* \"#utility.yul\":10484:10565   */\n      jump(tag_207)\n    tag_209:\n        /* \"#utility.yul\":10488:10491   */\n      pop\n      pop\n        /* \"#utility.yul\":10154:10575   */\n    tag_205:\n        /* \"#utility.yul\":10063:10581   */\n      pop\n      pop\n      pop\n      jump\t// out\n        /* \"#utility.yul\":10757:12056   */\n    tag_91:\n        /* \"#utility.yul\":10883:10886   */\n      dup2\n        /* \"#utility.yul\":10877:10887   */\n      mload\n        /* \"#utility.yul\":10910:10928   */\n      0xffffffffffffffff\n        /* \"#utility.yul\":10902:10908   */\n      dup2\n        /* \"#utility.yul\":10899:10929   */\n      gt\n        /* \"#utility.yul\":10896:10952   */\n      iszero\n      tag_213\n      jumpi\n        /* \"#utility.yul\":10932:10950   */\n      tag_213\n      tag_32\n      jump\t// in\n    tag_213:\n        /* \"#utility.yul\":10961:11058   */\n      tag_214\n        /* \"#utility.yul\":11051:11057   */\n      dup2\n        /* \"#utility.yul\":11011:11049   */\n      tag_215\n        /* \"#utility.yul\":11043:11047   */\n      dup5\n        /* \"#utility.yul\":11037:11048   */\n      sload\n        /* \"#utility.yul\":11011:11049   */\n      tag_51\n      jump\t// in\n    tag_215:\n        /* \"#utility.yul\":11005:11009   */\n      dup5\n        /* \"#utility.yul\":10961:11058   */\n      tag_144\n      jump\t// in\n    tag_214:\n        /* \"#utility.yul\":11107:11111   */\n      0x20\n        /* \"#utility.yul\":11138:11140   */\n      0x1f\n        /* \"#utility.yul\":11127:11141   */\n      dup3\n      gt\n        /* \"#utility.yul\":11155:11156   */\n      0x01\n        /* \"#utility.yul\":11150:11799   */\n      dup2\n      eq\n      tag_217\n      jumpi\n        /* \"#utility.yul\":11843:11844   */\n      0x00\n        /* \"#utility.yul\":11860:11866   */\n      dup4\n        /* \"#utility.yul\":11857:11946   */\n      iszero\n      tag_218\n      jumpi\n      pop\n        /* \"#utility.yul\":11912:11931   */\n      dup5\n      dup3\n      add\n        /* \"#utility.yul\":11906:11932   */\n      mload\n        /* \"#utility.yul\":11857:11946   */\n    tag_218:\n      not(0x00)\n        /* \"#utility.yul\":10714:10715   */\n      0x03\n        /* \"#utility.yul\":10710:10721   */\n      dup6\n      swap1\n      shl\n        /* \"#utility.yul\":10706:10730   */\n      shr\n        /* \"#utility.yul\":10702:10731   */\n      not\n        /* \"#utility.yul\":10692:10732   */\n      and\n        /* \"#utility.yul\":10738:10739   */\n      0x01\n        /* \"#utility.yul\":10734:10745   */\n      dup5\n      swap1\n      shl\n        /* \"#utility.yul\":10689:10746   */\n      or\n        /* \"#utility.yul\":11959:12040   */\n      dup5\n      sstore\n        /* \"#utility.yul\":11120:12050   */\n      jump(tag_209)\n        /* \"#utility.yul\":11150:11799   */\n    tag_217:\n        /* \"#utility.yul\":10010:10011   */\n      0x00\n        /* \"#utility.yul\":10003:10017   */\n      dup5\n      dup2\n      mstore\n        /* \"#utility.yul\":10047:10051   */\n      0x20\n        /* \"#utility.yul\":10034:10052   */\n      dup2\n      keccak256\n      not(0x1f)\n        /* \"#utility.yul\":11186:11206   */\n      dup6\n      and\n      swap2\n        /* \"#utility.yul\":11304:11526   */\n    tag_221:\n        /* \"#utility.yul\":11318:11325   */\n      dup3\n        /* \"#utility.yul\":11315:11316   */\n      dup2\n        /* \"#utility.yul\":11312:11326   */\n      lt\n        /* \"#utility.yul\":11304:11526   */\n      iszero\n      tag_223\n      jumpi\n        /* \"#utility.yul\":11400:11419   */\n      dup8\n      dup6\n      add\n        /* \"#utility.yul\":11394:11420   */\n      mload\n        /* \"#utility.yul\":11379:11421   */\n      dup3\n      sstore\n        /* \"#utility.yul\":11507:11511   */\n      0x20\n        /* \"#utility.yul\":11492:11512   */\n      swap5\n      dup6\n      add\n      swap5\n        /* \"#utility.yul\":11460:11461   */\n      0x01\n        /* \"#utility.yul\":11448:11462   */\n      swap1\n      swap3\n      add\n      swap2\n        /* \"#utility.yul\":11334:11346   */\n      add\n        /* \"#utility.yul\":11304:11526   */\n      jump(tag_221)\n    tag_223:\n        /* \"#utility.yul\":11308:11311   */\n      pop\n        /* \"#utility.yul\":11554:11560   */\n      dup5\n        /* \"#utility.yul\":11545:11552   */\n      dup3\n        /* \"#utility.yul\":11542:11561   */\n      lt\n        /* \"#utility.yul\":11539:11740   */\n      iszero\n      tag_224\n      jumpi\n        /* \"#utility.yul\":11615:11634   */\n      dup7\n      dup5\n      add\n        /* \"#utility.yul\":11609:11635   */\n      mload\n      not(0x00)\n        /* \"#utility.yul\":11698:11699   */\n      0x03\n        /* \"#utility.yul\":11694:11708   */\n      dup8\n      swap1\n      shl\n        /* \"#utility.yul\":11710:11713   */\n      0xf8\n        /* \"#utility.yul\":11690:11714   */\n      and\n        /* \"#utility.yul\":11686:11723   */\n      shr\n        /* \"#utility.yul\":11682:11724   */\n      not\n        /* \"#utility.yul\":11667:11725   */\n      and\n        /* \"#utility.yul\":11652:11726   */\n      dup2\n      sstore\n        /* \"#utility.yul\":11539:11740   */\n    tag_224:\n      pop\n      pop\n      pop\n      pop\n        /* \"#utility.yul\":11786:11787   */\n      0x01\n        /* \"#utility.yul\":11770:11784   */\n      swap1\n      dup2\n      shl\n        /* \"#utility.yul\":11766:11788   */\n      add\n        /* \"#utility.yul\":11753:11789   */\n      swap1\n      sstore\n      pop\n        /* \"#utility.yul\":10757:12056   */\n      jump\t// out\n        /* \"#utility.yul\":12061:12669   */\n    tag_99:\n        /* \"#utility.yul\":12304:12310   */\n      dup6\n        /* \"#utility.yul\":12293:12302   */\n      dup2\n        /* \"#utility.yul\":12286:12311   */\n      mstore\n        /* \"#utility.yul\":12347:12350   */\n      0x80\n        /* \"#utility.yul\":12342:12344   */\n      0x20\n        /* \"#utility.yul\":12331:12340   */\n      dup3\n        /* \"#utility.yul\":12327:12345   */\n      add\n        /* \"#utility.yul\":12320:12351   */\n      mstore\n        /* \"#utility.yul\":12388:12394   */\n      dup4\n        /* \"#utility.yul\":12382:12385   */\n      0x80\n        /* \"#utility.yul\":12371:12380   */\n      dup3\n        /* \"#utility.yul\":12367:12386   */\n      add\n        /* \"#utility.yul\":12360:12395   */\n      mstore\n        /* \"#utility.yul\":12446:12452   */\n      dup4\n        /* \"#utility.yul\":12438:12444   */\n      dup6\n        /* \"#utility.yul\":12432:12435   */\n      0xa0\n        /* \"#utility.yul\":12421:12430   */\n      dup4\n        /* \"#utility.yul\":12417:12436   */\n      add\n        /* \"#utility.yul\":12404:12453   */\n      calldatacopy\n        /* \"#utility.yul\":12503:12504   */\n      0x00\n        /* \"#utility.yul\":12497:12500   */\n      0xa0\n        /* \"#utility.yul\":12488:12494   */\n      dup6\n        /* \"#utility.yul\":12477:12486   */\n      dup4\n        /* \"#utility.yul\":12473:12495   */\n      add\n        /* \"#utility.yul\":12469:12501   */\n      add\n        /* \"#utility.yul\":12462:12505   */\n      mstore\n        /* \"#utility.yul\":12267:12271   */\n      0x00\n        /* \"#utility.yul\":12573:12576   */\n      0xa0\n        /* \"#utility.yul\":12566:12568   */\n      0x1f\n        /* \"#utility.yul\":12562:12569   */\n      not\n        /* \"#utility.yul\":12557:12559   */\n      0x1f\n        /* \"#utility.yul\":12549:12555   */\n      dup8\n        /* \"#utility.yul\":12545:12560   */\n      add\n        /* \"#utility.yul\":12541:12570   */\n      and\n        /* \"#utility.yul\":12530:12539   */\n      dup4\n        /* \"#utility.yul\":12526:12571   */\n      add\n        /* \"#utility.yul\":12522:12577   */\n      add\n        /* \"#utility.yul\":12514:12577   */\n      swap1\n      pop\n        /* \"#utility.yul\":12613:12619   */\n      dup4\n        /* \"#utility.yul\":12608:12610   */\n      0x40\n        /* \"#utility.yul\":12597:12606   */\n      dup4\n        /* \"#utility.yul\":12593:12611   */\n      add\n        /* \"#utility.yul\":12586:12620   */\n      mstore\n        /* \"#utility.yul\":12656:12662   */\n      dup3\n        /* \"#utility.yul\":12651:12653   */\n      0x60\n        /* \"#utility.yul\":12640:12649   */\n      dup4\n        /* \"#utility.yul\":12636:12654   */\n      add\n        /* \"#utility.yul\":12629:12663   */\n      mstore\n        /* \"#utility.yul\":12061:12669   */\n      swap7\n      swap6\n      pop\n      pop\n      pop\n      pop\n      pop\n      pop\n      jump\t// out\n        /* \"#utility.yul\":13022:13247   */\n    tag_106:\n        /* \"#utility.yul\":13089:13098   */\n      dup2\n      dup2\n      sub\n        /* \"#utility.yul\":13110:13121   */\n      dup2\n      dup2\n      gt\n        /* \"#utility.yul\":13107:13241   */\n      iszero\n      tag_228\n      jumpi\n        /* \"#utility.yul\":13163:13173   */\n      0x4e487b71\n        /* \"#utility.yul\":13158:13161   */\n      0xe0\n        /* \"#utility.yul\":13154:13174   */\n      shl\n        /* \"#utility.yul\":13151:13152   */\n      0x00\n        /* \"#utility.yul\":13144:13175   */\n      mstore\n        /* \"#utility.yul\":13198:13202   */\n      0x11\n        /* \"#utility.yul\":13195:13196   */\n      0x04\n        /* \"#utility.yul\":13188:13203   */\n      mstore\n        /* \"#utility.yul\":13226:13230   */\n      0x24\n        /* \"#utility.yul\":13223:13224   */\n      0x00\n        /* \"#utility.yul\":13216:13231   */\n      revert\n        /* \"#utility.yul\":13107:13241   */\n    tag_228:\n        /* \"#utility.yul\":13022:13247   */\n      swap3\n      swap2\n      pop\n      pop\n      jump\t// out\n\n    auxdata: 0xa264697066735822122071674e066719814a10c1ddfeba4dd2317da6806c14df6e3878c29a6fea97eb5f64736f6c634300081e0033\n}\n",
				"bytecode": {
					"linkReferences": {},
					"object": "6080604052348015600e575f5ffd5b5061136a8061001c5f395ff3fe608060405234801561000f575f5ffd5b5060043610610055575f3560e01c80638d5ce2bc14610059578063a00a542414610077578063be1c766b14610097578063c80da6cf146100a8578063edd0bf6a146100bd575b5f5ffd5b6100616100c5565b60405161006e9190610e53565b60405180910390f35b61008a610085366004610eb6565b61018d565b60405161006e9190610ecd565b60015460405190815260200161006e565b6100bb6100b6366004610ee6565b61053b565b005b61008a610820565b6001546060905f9067ffffffffffffffff8111156100e5576100e5610f1e565b60405190808252806020026020018201604052801561011e57816020015b61010b610c43565b8152602001906001900390816101035790505b5090505f5b60015481101561018757816001828154811061014157610141610f32565b905f5260205f2001548151811061015a5761015a610f32565b602002602001015182828151811061017457610174610f32565b6020908102919091010152600101610123565b50919050565b610195610c43565b5f82815260208190526040908190208151608081019092528054829082906101bc90610f46565b80601f01602080910402602001604051908101604052809291908181526020018280546101e890610f46565b80156102335780601f1061020a57610100808354040283529160200191610233565b820191905f5260205f20905b81548152906001019060200180831161021657829003601f168201915b505050505081526020016001820154815260200160028201805461025690610f46565b80601f016020809104026020016040519081016040528092919081815260200182805461028290610f46565b80156102cd5780601f106102a4576101008083540402835291602001916102cd565b820191905f5260205f20905b8154815290600101906020018083116102b057829003601f168201915b5050505050815260200160038201604051806102200160405290815f82015481526020016001820154815260200160028201805461030a90610f46565b80601f016020809104026020016040519081016040528092919081815260200182805461033690610f46565b80156103815780601f1061035857610100808354040283529160200191610381565b820191905f5260205f20905b81548152906001019060200180831161036457829003601f168201915b5050505050815260200160038201805461039a90610f46565b80601f01602080910402602001604051908101604052809291908181526020018280546103c690610f46565b80156104115780601f106103e857610100808354040283529160200191610411565b820191905f5260205f20905b8154815290600101906020018083116103f457829003601f168201915b505050918352505060048201546020820152600582015460408201526006820154606082015260078201546080820152600882015460a0820152600982015460c0820152600a82015460e0820152600b820154610100820152600c82015460ff161515610120820152600d820154610140820152600e820154610160820152600f8201546101808201526010820180546101a0909201916104b190610f46565b80601f01602080910402602001604051908101604052809291908181526020018280546104dd90610f46565b80156105285780601f106104ff57610100808354040283529160200191610528565b820191905f5260205f20905b81548152906001019060200180831161050b57829003601f168201915b5050509190925250505090525092915050565b80351580159061054f575080356020820135115b6105955760405162461bcd60e51b8152602060048201526012602482015271496e76616c69642074696d652072616e676560701b60448201526064015b60405180910390fd5b5f6105a36040830183610f78565b9050116105e75760405162461bcd60e51b815260206004820152601260248201527114de5b589bdb081a5cc81c995c5d5a5c995960721b604482015260640161058c565b6040805160c081018252600560808201908152646b6c696e6560d81b60a083015281524260208201528235915f91908181019061062690860186610f78565b8080601f0160208091040260200160405190810160405280939291908181526020018383808284375f920191909152505050908252506020016106688561108b565b90525f83815260208190526040902081519192508291819061068a908261120f565b5060208201516001820155604082015160028201906106a9908261120f565b50606082015180516003830190815560208201516004840155604082015160058401906106d6908261120f565b50606082015160038201906106eb908261120f565b506080820151600482015560a0820151600582015560c0820151600682015560e0820151600782015561010082015160088201556101208201516009820155610140820151600a820155610160820151600b820155610180820151600c8201805460ff19169115159190911790556101a0820151600d8201556101c0820151600e8201556101e0820151600f820155610200820151601082019061078f908261120f565b50506001805480820182555f919091527fb10e2d527612073b26eecdfd717e6a320cf44b4afac2b0732d9fcbe2b7fa0cf601859055507f457e71e233bfca657f83107e4d22cc35169beda85c2b16268c89ed23a9d2d08691508390506107f86040860186610f78565b8660c001358760e001356040516108139594939291906112ca565b60405180910390a1505050565b610828610c43565b60015461086d5760405162461bcd60e51b8152602060048201526013602482015272139bc818d85b991b195cc81c9958dbdc991959606a1b604482015260640161058c565b600180545f919061087f90829061130f565b8154811061088f5761088f610f32565b905f5260205f20015490505f5f8281526020019081526020015f206040518060800160405290815f820180546108c490610f46565b80601f01602080910402602001604051908101604052809291908181526020018280546108f090610f46565b801561093b5780601f106109125761010080835404028352916020019161093b565b820191905f5260205f20905b81548152906001019060200180831161091e57829003601f168201915b505050505081526020016001820154815260200160028201805461095e90610f46565b80601f016020809104026020016040519081016040528092919081815260200182805461098a90610f46565b80156109d55780601f106109ac576101008083540402835291602001916109d5565b820191905f5260205f20905b8154815290600101906020018083116109b857829003601f168201915b5050505050815260200160038201604051806102200160405290815f820154815260200160018201548152602001600282018054610a1290610f46565b80601f0160208091040260200160405190810160405280929190818152602001828054610a3e90610f46565b8015610a895780601f10610a6057610100808354040283529160200191610a89565b820191905f5260205f20905b815481529060010190602001808311610a6c57829003601f168201915b50505050508152602001600382018054610aa290610f46565b80601f0160208091040260200160405190810160405280929190818152602001828054610ace90610f46565b8015610b195780601f10610af057610100808354040283529160200191610b19565b820191905f5260205f20905b815481529060010190602001808311610afc57829003601f168201915b505050918352505060048201546020820152600582015460408201526006820154606082015260078201546080820152600882015460a0820152600982015460c0820152600a82015460e0820152600b820154610100820152600c82015460ff161515610120820152600d820154610140820152600e820154610160820152600f8201546101808201526010820180546101a090920191610bb990610f46565b80601f0160208091040260200160405190810160405280929190818152602001828054610be590610f46565b8015610c305780601f10610c0757610100808354040283529160200191610c30565b820191905f5260205f20905b815481529060010190602001808311610c1357829003601f168201915b5050505050815250508152505091505090565b6040518060800160405280606081526020015f815260200160608152602001610cdd6040518061022001604052805f81526020015f815260200160608152602001606081526020015f81526020015f81526020015f81526020015f81526020015f81526020015f81526020015f81526020015f81526020015f151581526020015f81526020015f81526020015f8152602001606081525090565b905290565b5f81518084528060208401602086015e5f602082860101526020601f19601f83011685010191505092915050565b5f815160808452610d246080850182610ce2565b90506020830151602085015260408301518482036040860152610d478282610ce2565b91505060608301518482036060860152805182526020810151602083015260408101516102206040840152610d80610220840182610ce2565b905060608201518382036060850152610d998282610ce2565b9150506080820151608084015260a082015160a084015260c082015160c084015260e082015160e0840152610100820151610100840152610120820151610120840152610140820151610140840152610160820151610160840152610180820151610e0961018085018215159052565b506101a08201516101a08401526101c08201516101c08401526101e08201516101e08401526102008201519150828103610200840152610e498183610ce2565b9695505050505050565b5f602082016020835280845180835260408501915060408160051b8601019250602086015f5b82811015610eaa57603f19878603018452610e95858351610d10565b94506020938401939190910190600101610e79565b50929695505050505050565b5f60208284031215610ec6575f5ffd5b5035919050565b602081525f610edf6020830184610d10565b9392505050565b5f60208284031215610ef6575f5ffd5b813567ffffffffffffffff811115610f0c575f5ffd5b82016102208185031215610edf575f5ffd5b634e487b7160e01b5f52604160045260245ffd5b634e487b7160e01b5f52603260045260245ffd5b600181811c90821680610f5a57607f821691505b60208210810361018757634e487b7160e01b5f52602260045260245ffd5b5f5f8335601e19843603018112610f8d575f5ffd5b83018035915067ffffffffffffffff821115610fa7575f5ffd5b602001915036819003821315610fbb575f5ffd5b9250929050565b604051610220810167ffffffffffffffff81118282101715610fe657610fe6610f1e565b60405290565b5f82601f830112610ffb575f5ffd5b813567ffffffffffffffff81111561101557611015610f1e565b604051601f8201601f19908116603f0116810167ffffffffffffffff8111828210171561104457611044610f1e565b60405281815283820160200185101561105b575f5ffd5b816020850160208301375f918101602001919091529392505050565b80358015158114611086575f5ffd5b919050565b5f610220823603121561109c575f5ffd5b6110a4610fc2565b8235815260208084013590820152604083013567ffffffffffffffff8111156110cb575f5ffd5b6110d736828601610fec565b604083015250606083013567ffffffffffffffff8111156110f6575f5ffd5b61110236828601610fec565b6060830152506080838101359082015260a0808401359082015260c0808401359082015260e0808401359082015261010080840135908201526101208084013590820152610140808401359082015261016080840135908201526111696101808401611077565b6101808201526101a083810135908201526101c080840135908201526101e0808401359082015261020083013567ffffffffffffffff8111156111aa575f5ffd5b6111b636828601610fec565b6102008301525092915050565b601f82111561120a57805f5260205f20601f840160051c810160208510156111e85750805b601f840160051c820191505b81811015611207575f81556001016111f4565b50505b505050565b815167ffffffffffffffff81111561122957611229610f1e565b61123d816112378454610f46565b846111c3565b6020601f82116001811461126f575f83156112585750848201515b5f19600385901b1c1916600184901b178455611207565b5f84815260208120601f198516915b8281101561129e578785015182556020948501946001909201910161127e565b50848210156112bb57868401515f19600387901b60f8161c191681555b50505050600190811b01905550565b85815260806020820152836080820152838560a08301375f60a085830101525f60a0601f19601f87011683010190508360408301528260608301529695505050505050565b8181038181111561132e57634e487b7160e01b5f52601160045260245ffd5b9291505056fea264697066735822122071674e066719814a10c1ddfeba4dd2317da6806c14df6e3878c29a6fea97eb5f64736f6c634300081e0033",
					"opcodes": "PUSH1 0x80 PUSH1 0x40 MSTORE CALLVALUE DUP1 ISZERO PUSH1 0xE JUMPI PUSH0 PUSH0 REVERT JUMPDEST POP PUSH2 0x136A DUP1 PUSH2 0x1C PUSH0 CODECOPY PUSH0 RETURN INVALID PUSH1 0x80 PUSH1 0x40 MSTORE CALLVALUE DUP1 ISZERO PUSH2 0xF JUMPI PUSH0 PUSH0 REVERT JUMPDEST POP PUSH1 0x4 CALLDATASIZE LT PUSH2 0x55 JUMPI PUSH0 CALLDATALOAD PUSH1 0xE0 SHR DUP1 PUSH4 0x8D5CE2BC EQ PUSH2 0x59 JUMPI DUP1 PUSH4 0xA00A5424 EQ PUSH2 0x77 JUMPI DUP1 PUSH4 0xBE1C766B EQ PUSH2 0x97 JUMPI DUP1 PUSH4 0xC80DA6CF EQ PUSH2 0xA8 JUMPI DUP1 PUSH4 0xEDD0BF6A EQ PUSH2 0xBD JUMPI JUMPDEST PUSH0 PUSH0 REVERT JUMPDEST PUSH2 0x61 PUSH2 0xC5 JUMP JUMPDEST PUSH1 0x40 MLOAD PUSH2 0x6E SWAP2 SWAP1 PUSH2 0xE53 JUMP JUMPDEST PUSH1 0x40 MLOAD DUP1 SWAP2 SUB SWAP1 RETURN JUMPDEST PUSH2 0x8A PUSH2 0x85 CALLDATASIZE PUSH1 0x4 PUSH2 0xEB6 JUMP JUMPDEST PUSH2 0x18D JUMP JUMPDEST PUSH1 0x40 MLOAD PUSH2 0x6E SWAP2 SWAP1 PUSH2 0xECD JUMP JUMPDEST PUSH1 0x1 SLOAD PUSH1 0x40 MLOAD SWAP1 DUP2 MSTORE PUSH1 0x20 ADD PUSH2 0x6E JUMP JUMPDEST PUSH2 0xBB PUSH2 0xB6 CALLDATASIZE PUSH1 0x4 PUSH2 0xEE6 JUMP JUMPDEST PUSH2 0x53B JUMP JUMPDEST STOP JUMPDEST PUSH2 0x8A PUSH2 0x820 JUMP JUMPDEST PUSH1 0x1 SLOAD PUSH1 0x60 SWAP1 PUSH0 SWAP1 PUSH8 0xFFFFFFFFFFFFFFFF DUP2 GT ISZERO PUSH2 0xE5 JUMPI PUSH2 0xE5 PUSH2 0xF1E JUMP JUMPDEST PUSH1 0x40 MLOAD SWAP1 DUP1 DUP3 MSTORE DUP1 PUSH1 0x20 MUL PUSH1 0x20 ADD DUP3 ADD PUSH1 0x40 MSTORE DUP1 ISZERO PUSH2 0x11E JUMPI DUP2 PUSH1 0x20 ADD JUMPDEST PUSH2 0x10B PUSH2 0xC43 JUMP JUMPDEST DUP2 MSTORE PUSH1 0x20 ADD SWAP1 PUSH1 0x1 SWAP1 SUB SWAP1 DUP2 PUSH2 0x103 JUMPI SWAP1 POP JUMPDEST POP SWAP1 POP PUSH0 JUMPDEST PUSH1 0x1 SLOAD DUP2 LT ISZERO PUSH2 0x187 JUMPI DUP2 PUSH1 0x1 DUP3 DUP2 SLOAD DUP2 LT PUSH2 0x141 JUMPI PUSH2 0x141 PUSH2 0xF32 JUMP JUMPDEST SWAP1 PUSH0 MSTORE PUSH1 0x20 PUSH0 KECCAK256 ADD SLOAD DUP2 MLOAD DUP2 LT PUSH2 0x15A JUMPI PUSH2 0x15A PUSH2 0xF32 JUMP JUMPDEST PUSH1 0x20 MUL PUSH1 0x20 ADD ADD MLOAD DUP3 DUP3 DUP2 MLOAD DUP2 LT PUSH2 0x174 JUMPI PUSH2 0x174 PUSH2 0xF32 JUMP JUMPDEST PUSH1 0x20 SWAP1 DUP2 MUL SWAP2 SWAP1 SWAP2 ADD ADD MSTORE PUSH1 0x1 ADD PUSH2 0x123 JUMP JUMPDEST POP SWAP2 SWAP1 POP JUMP JUMPDEST PUSH2 0x195 PUSH2 0xC43 JUMP JUMPDEST PUSH0 DUP3 DUP2 MSTORE PUSH1 0x20 DUP2 SWAP1 MSTORE PUSH1 0x40 SWAP1 DUP2 SWAP1 KECCAK256 DUP2 MLOAD PUSH1 0x80 DUP2 ADD SWAP1 SWAP3 MSTORE DUP1 SLOAD DUP3 SWAP1 DUP3 SWAP1 PUSH2 0x1BC SWAP1 PUSH2 0xF46 JUMP JUMPDEST DUP1 PUSH1 0x1F ADD PUSH1 0x20 DUP1 SWAP2 DIV MUL PUSH1 0x20 ADD PUSH1 0x40 MLOAD SWAP1 DUP2 ADD PUSH1 0x40 MSTORE DUP1 SWAP3 SWAP2 SWAP1 DUP2 DUP2 MSTORE PUSH1 0x20 ADD DUP3 DUP1 SLOAD PUSH2 0x1E8 SWAP1 PUSH2 0xF46 JUMP JUMPDEST DUP1 ISZERO PUSH2 0x233 JUMPI DUP1 PUSH1 0x1F LT PUSH2 0x20A JUMPI PUSH2 0x100 DUP1 DUP4 SLOAD DIV MUL DUP4 MSTORE SWAP2 PUSH1 0x20 ADD SWAP2 PUSH2 0x233 JUMP JUMPDEST DUP3 ADD SWAP2 SWAP1 PUSH0 MSTORE PUSH1 0x20 PUSH0 KECCAK256 SWAP1 JUMPDEST DUP2 SLOAD DUP2 MSTORE SWAP1 PUSH1 0x1 ADD SWAP1 PUSH1 0x20 ADD DUP1 DUP4 GT PUSH2 0x216 JUMPI DUP3 SWAP1 SUB PUSH1 0x1F AND DUP3 ADD SWAP2 JUMPDEST POP POP POP POP POP DUP2 MSTORE PUSH1 0x20 ADD PUSH1 0x1 DUP3 ADD SLOAD DUP2 MSTORE PUSH1 0x20 ADD PUSH1 0x2 DUP3 ADD DUP1 SLOAD PUSH2 0x256 SWAP1 PUSH2 0xF46 JUMP JUMPDEST DUP1 PUSH1 0x1F ADD PUSH1 0x20 DUP1 SWAP2 DIV MUL PUSH1 0x20 ADD PUSH1 0x40 MLOAD SWAP1 DUP2 ADD PUSH1 0x40 MSTORE DUP1 SWAP3 SWAP2 SWAP1 DUP2 DUP2 MSTORE PUSH1 0x20 ADD DUP3 DUP1 SLOAD PUSH2 0x282 SWAP1 PUSH2 0xF46 JUMP JUMPDEST DUP1 ISZERO PUSH2 0x2CD JUMPI DUP1 PUSH1 0x1F LT PUSH2 0x2A4 JUMPI PUSH2 0x100 DUP1 DUP4 SLOAD DIV MUL DUP4 MSTORE SWAP2 PUSH1 0x20 ADD SWAP2 PUSH2 0x2CD JUMP JUMPDEST DUP3 ADD SWAP2 SWAP1 PUSH0 MSTORE PUSH1 0x20 PUSH0 KECCAK256 SWAP1 JUMPDEST DUP2 SLOAD DUP2 MSTORE SWAP1 PUSH1 0x1 ADD SWAP1 PUSH1 0x20 ADD DUP1 DUP4 GT PUSH2 0x2B0 JUMPI DUP3 SWAP1 SUB PUSH1 0x1F AND DUP3 ADD SWAP2 JUMPDEST POP POP POP POP POP DUP2 MSTORE PUSH1 0x20 ADD PUSH1 0x3 DUP3 ADD PUSH1 0x40 MLOAD DUP1 PUSH2 0x220 ADD PUSH1 0x40 MSTORE SWAP1 DUP2 PUSH0 DUP3 ADD SLOAD DUP2 MSTORE PUSH1 0x20 ADD PUSH1 0x1 DUP3 ADD SLOAD DUP2 MSTORE PUSH1 0x20 ADD PUSH1 0x2 DUP3 ADD DUP1 SLOAD PUSH2 0x30A SWAP1 PUSH2 0xF46 JUMP JUMPDEST DUP1 PUSH1 0x1F ADD PUSH1 0x20 DUP1 SWAP2 DIV MUL PUSH1 0x20 ADD PUSH1 0x40 MLOAD SWAP1 DUP2 ADD PUSH1 0x40 MSTORE DUP1 SWAP3 SWAP2 SWAP1 DUP2 DUP2 MSTORE PUSH1 0x20 ADD DUP3 DUP1 SLOAD PUSH2 0x336 SWAP1 PUSH2 0xF46 JUMP JUMPDEST DUP1 ISZERO PUSH2 0x381 JUMPI DUP1 PUSH1 0x1F LT PUSH2 0x358 JUMPI PUSH2 0x100 DUP1 DUP4 SLOAD DIV MUL DUP4 MSTORE SWAP2 PUSH1 0x20 ADD SWAP2 PUSH2 0x381 JUMP JUMPDEST DUP3 ADD SWAP2 SWAP1 PUSH0 MSTORE PUSH1 0x20 PUSH0 KECCAK256 SWAP1 JUMPDEST DUP2 SLOAD DUP2 MSTORE SWAP1 PUSH1 0x1 ADD SWAP1 PUSH1 0x20 ADD DUP1 DUP4 GT PUSH2 0x364 JUMPI DUP3 SWAP1 SUB PUSH1 0x1F AND DUP3 ADD SWAP2 JUMPDEST POP POP POP POP POP DUP2 MSTORE PUSH1 0x20 ADD PUSH1 0x3 DUP3 ADD DUP1 SLOAD PUSH2 0x39A SWAP1 PUSH2 0xF46 JUMP JUMPDEST DUP1 PUSH1 0x1F ADD PUSH1 0x20 DUP1 SWAP2 DIV MUL PUSH1 0x20 ADD PUSH1 0x40 MLOAD SWAP1 DUP2 ADD PUSH1 0x40 MSTORE DUP1 SWAP3 SWAP2 SWAP1 DUP2 DUP2 MSTORE PUSH1 0x20 ADD DUP3 DUP1 SLOAD PUSH2 0x3C6 SWAP1 PUSH2 0xF46 JUMP JUMPDEST DUP1 ISZERO PUSH2 0x411 JUMPI DUP1 PUSH1 0x1F LT PUSH2 0x3E8 JUMPI PUSH2 0x100 DUP1 DUP4 SLOAD DIV MUL DUP4 MSTORE SWAP2 PUSH1 0x20 ADD SWAP2 PUSH2 0x411 JUMP JUMPDEST DUP3 ADD SWAP2 SWAP1 PUSH0 MSTORE PUSH1 0x20 PUSH0 KECCAK256 SWAP1 JUMPDEST DUP2 SLOAD DUP2 MSTORE SWAP1 PUSH1 0x1 ADD SWAP1 PUSH1 0x20 ADD DUP1 DUP4 GT PUSH2 0x3F4 JUMPI DUP3 SWAP1 SUB PUSH1 0x1F AND DUP3 ADD SWAP2 JUMPDEST POP POP POP SWAP2 DUP4 MSTORE POP POP PUSH1 0x4 DUP3 ADD SLOAD PUSH1 0x20 DUP3 ADD MSTORE PUSH1 0x5 DUP3 ADD SLOAD PUSH1 0x40 DUP3 ADD MSTORE PUSH1 0x6 DUP3 ADD SLOAD PUSH1 0x60 DUP3 ADD MSTORE PUSH1 0x7 DUP3 ADD SLOAD PUSH1 0x80 DUP3 ADD MSTORE PUSH1 0x8 DUP3 ADD SLOAD PUSH1 0xA0 DUP3 ADD MSTORE PUSH1 0x9 DUP3 ADD SLOAD PUSH1 0xC0 DUP3 ADD MSTORE PUSH1 0xA DUP3 ADD SLOAD PUSH1 0xE0 DUP3 ADD MSTORE PUSH1 0xB DUP3 ADD SLOAD PUSH2 0x100 DUP3 ADD MSTORE PUSH1 0xC DUP3 ADD SLOAD PUSH1 0xFF AND ISZERO ISZERO PUSH2 0x120 DUP3 ADD MSTORE PUSH1 0xD DUP3 ADD SLOAD PUSH2 0x140 DUP3 ADD MSTORE PUSH1 0xE DUP3 ADD SLOAD PUSH2 0x160 DUP3 ADD MSTORE PUSH1 0xF DUP3 ADD SLOAD PUSH2 0x180 DUP3 ADD MSTORE PUSH1 0x10 DUP3 ADD DUP1 SLOAD PUSH2 0x1A0 SWAP1 SWAP3 ADD SWAP2 PUSH2 0x4B1 SWAP1 PUSH2 0xF46 JUMP JUMPDEST DUP1 PUSH1 0x1F ADD PUSH1 0x20 DUP1 SWAP2 DIV MUL PUSH1 0x20 ADD PUSH1 0x40 MLOAD SWAP1 DUP2 ADD PUSH1 0x40 MSTORE DUP1 SWAP3 SWAP2 SWAP1 DUP2 DUP2 MSTORE PUSH1 0x20 ADD DUP3 DUP1 SLOAD PUSH2 0x4DD SWAP1 PUSH2 0xF46 JUMP JUMPDEST DUP1 ISZERO PUSH2 0x528 JUMPI DUP1 PUSH1 0x1F LT PUSH2 0x4FF JUMPI PUSH2 0x100 DUP1 DUP4 SLOAD DIV MUL DUP4 MSTORE SWAP2 PUSH1 0x20 ADD SWAP2 PUSH2 0x528 JUMP JUMPDEST DUP3 ADD SWAP2 SWAP1 PUSH0 MSTORE PUSH1 0x20 PUSH0 KECCAK256 SWAP1 JUMPDEST DUP2 SLOAD DUP2 MSTORE SWAP1 PUSH1 0x1 ADD SWAP1 PUSH1 0x20 ADD DUP1 DUP4 GT PUSH2 0x50B JUMPI DUP3 SWAP1 SUB PUSH1 0x1F AND DUP3 ADD SWAP2 JUMPDEST POP POP POP SWAP2 SWAP1 SWAP3 MSTORE POP POP POP SWAP1 MSTORE POP SWAP3 SWAP2 POP POP JUMP JUMPDEST DUP1 CALLDATALOAD ISZERO DUP1 ISZERO SWAP1 PUSH2 0x54F JUMPI POP DUP1 CALLDATALOAD PUSH1 0x20 DUP3 ADD CALLDATALOAD GT JUMPDEST PUSH2 0x595 JUMPI PUSH1 0x40 MLOAD PUSH3 0x461BCD PUSH1 0xE5 SHL DUP2 MSTORE PUSH1 0x20 PUSH1 0x4 DUP3 ADD MSTORE PUSH1 0x12 PUSH1 0x24 DUP3 ADD MSTORE PUSH18 0x496E76616C69642074696D652072616E6765 PUSH1 0x70 SHL PUSH1 0x44 DUP3 ADD MSTORE PUSH1 0x64 ADD JUMPDEST PUSH1 0x40 MLOAD DUP1 SWAP2 SUB SWAP1 REVERT JUMPDEST PUSH0 PUSH2 0x5A3 PUSH1 0x40 DUP4 ADD DUP4 PUSH2 0xF78 JUMP JUMPDEST SWAP1 POP GT PUSH2 0x5E7 JUMPI PUSH1 0x40 MLOAD PUSH3 0x461BCD PUSH1 0xE5 SHL DUP2 MSTORE PUSH1 0x20 PUSH1 0x4 DUP3 ADD MSTORE PUSH1 0x12 PUSH1 0x24 DUP3 ADD MSTORE PUSH18 0x14DE5B589BDB081A5CC81C995C5D5A5C9959 PUSH1 0x72 SHL PUSH1 0x44 DUP3 ADD MSTORE PUSH1 0x64 ADD PUSH2 0x58C JUMP JUMPDEST PUSH1 0x40 DUP1 MLOAD PUSH1 0xC0 DUP2 ADD DUP3 MSTORE PUSH1 0x5 PUSH1 0x80 DUP3 ADD SWAP1 DUP2 MSTORE PUSH5 0x6B6C696E65 PUSH1 0xD8 SHL PUSH1 0xA0 DUP4 ADD MSTORE DUP2 MSTORE TIMESTAMP PUSH1 0x20 DUP3 ADD MSTORE DUP3 CALLDATALOAD SWAP2 PUSH0 SWAP2 SWAP1 DUP2 DUP2 ADD SWAP1 PUSH2 0x626 SWAP1 DUP7 ADD DUP7 PUSH2 0xF78 JUMP JUMPDEST DUP1 DUP1 PUSH1 0x1F ADD PUSH1 0x20 DUP1 SWAP2 DIV MUL PUSH1 0x20 ADD PUSH1 0x40 MLOAD SWAP1 DUP2 ADD PUSH1 0x40 MSTORE DUP1 SWAP4 SWAP3 SWAP2 SWAP1 DUP2 DUP2 MSTORE PUSH1 0x20 ADD DUP4 DUP4 DUP1 DUP3 DUP5 CALLDATACOPY PUSH0 SWAP3 ADD SWAP2 SWAP1 SWAP2 MSTORE POP POP POP SWAP1 DUP3 MSTORE POP PUSH1 0x20 ADD PUSH2 0x668 DUP6 PUSH2 0x108B JUMP JUMPDEST SWAP1 MSTORE PUSH0 DUP4 DUP2 MSTORE PUSH1 0x20 DUP2 SWAP1 MSTORE PUSH1 0x40 SWAP1 KECCAK256 DUP2 MLOAD SWAP2 SWAP3 POP DUP3 SWAP2 DUP2 SWAP1 PUSH2 0x68A SWAP1 DUP3 PUSH2 0x120F JUMP JUMPDEST POP PUSH1 0x20 DUP3 ADD MLOAD PUSH1 0x1 DUP3 ADD SSTORE PUSH1 0x40 DUP3 ADD MLOAD PUSH1 0x2 DUP3 ADD SWAP1 PUSH2 0x6A9 SWAP1 DUP3 PUSH2 0x120F JUMP JUMPDEST POP PUSH1 0x60 DUP3 ADD MLOAD DUP1 MLOAD PUSH1 0x3 DUP4 ADD SWAP1 DUP2 SSTORE PUSH1 0x20 DUP3 ADD MLOAD PUSH1 0x4 DUP5 ADD SSTORE PUSH1 0x40 DUP3 ADD MLOAD PUSH1 0x5 DUP5 ADD SWAP1 PUSH2 0x6D6 SWAP1 DUP3 PUSH2 0x120F JUMP JUMPDEST POP PUSH1 0x60 DUP3 ADD MLOAD PUSH1 0x3 DUP3 ADD SWAP1 PUSH2 0x6EB SWAP1 DUP3 PUSH2 0x120F JUMP JUMPDEST POP PUSH1 0x80 DUP3 ADD MLOAD PUSH1 0x4 DUP3 ADD SSTORE PUSH1 0xA0 DUP3 ADD MLOAD PUSH1 0x5 DUP3 ADD SSTORE PUSH1 0xC0 DUP3 ADD MLOAD PUSH1 0x6 DUP3 ADD SSTORE PUSH1 0xE0 DUP3 ADD MLOAD PUSH1 0x7 DUP3 ADD SSTORE PUSH2 0x100 DUP3 ADD MLOAD PUSH1 0x8 DUP3 ADD SSTORE PUSH2 0x120 DUP3 ADD MLOAD PUSH1 0x9 DUP3 ADD SSTORE PUSH2 0x140 DUP3 ADD MLOAD PUSH1 0xA DUP3 ADD SSTORE PUSH2 0x160 DUP3 ADD MLOAD PUSH1 0xB DUP3 ADD SSTORE PUSH2 0x180 DUP3 ADD MLOAD PUSH1 0xC DUP3 ADD DUP1 SLOAD PUSH1 0xFF NOT AND SWAP2 ISZERO ISZERO SWAP2 SWAP1 SWAP2 OR SWAP1 SSTORE PUSH2 0x1A0 DUP3 ADD MLOAD PUSH1 0xD DUP3 ADD SSTORE PUSH2 0x1C0 DUP3 ADD MLOAD PUSH1 0xE DUP3 ADD SSTORE PUSH2 0x1E0 DUP3 ADD MLOAD PUSH1 0xF DUP3 ADD SSTORE PUSH2 0x200 DUP3 ADD MLOAD PUSH1 0x10 DUP3 ADD SWAP1 PUSH2 0x78F SWAP1 DUP3 PUSH2 0x120F JUMP JUMPDEST POP POP PUSH1 0x1 DUP1 SLOAD DUP1 DUP3 ADD DUP3 SSTORE PUSH0 SWAP2 SWAP1 SWAP2 MSTORE PUSH32 0xB10E2D527612073B26EECDFD717E6A320CF44B4AFAC2B0732D9FCBE2B7FA0CF6 ADD DUP6 SWAP1 SSTORE POP PUSH32 0x457E71E233BFCA657F83107E4D22CC35169BEDA85C2B16268C89ED23A9D2D086 SWAP2 POP DUP4 SWAP1 POP PUSH2 0x7F8 PUSH1 0x40 DUP7 ADD DUP7 PUSH2 0xF78 JUMP JUMPDEST DUP7 PUSH1 0xC0 ADD CALLDATALOAD DUP8 PUSH1 0xE0 ADD CALLDATALOAD PUSH1 0x40 MLOAD PUSH2 0x813 SWAP6 SWAP5 SWAP4 SWAP3 SWAP2 SWAP1 PUSH2 0x12CA JUMP JUMPDEST PUSH1 0x40 MLOAD DUP1 SWAP2 SUB SWAP1 LOG1 POP POP POP JUMP JUMPDEST PUSH2 0x828 PUSH2 0xC43 JUMP JUMPDEST PUSH1 0x1 SLOAD PUSH2 0x86D JUMPI PUSH1 0x40 MLOAD PUSH3 0x461BCD PUSH1 0xE5 SHL DUP2 MSTORE PUSH1 0x20 PUSH1 0x4 DUP3 ADD MSTORE PUSH1 0x13 PUSH1 0x24 DUP3 ADD MSTORE PUSH19 0x139BC818D85B991B195CC81C9958DBDC991959 PUSH1 0x6A SHL PUSH1 0x44 DUP3 ADD MSTORE PUSH1 0x64 ADD PUSH2 0x58C JUMP JUMPDEST PUSH1 0x1 DUP1 SLOAD PUSH0 SWAP2 SWAP1 PUSH2 0x87F SWAP1 DUP3 SWAP1 PUSH2 0x130F JUMP JUMPDEST DUP2 SLOAD DUP2 LT PUSH2 0x88F JUMPI PUSH2 0x88F PUSH2 0xF32 JUMP JUMPDEST SWAP1 PUSH0 MSTORE PUSH1 0x20 PUSH0 KECCAK256 ADD SLOAD SWAP1 POP PUSH0 PUSH0 DUP3 DUP2 MSTORE PUSH1 0x20 ADD SWAP1 DUP2 MSTORE PUSH1 0x20 ADD PUSH0 KECCAK256 PUSH1 0x40 MLOAD DUP1 PUSH1 0x80 ADD PUSH1 0x40 MSTORE SWAP1 DUP2 PUSH0 DUP3 ADD DUP1 SLOAD PUSH2 0x8C4 SWAP1 PUSH2 0xF46 JUMP JUMPDEST DUP1 PUSH1 0x1F ADD PUSH1 0x20 DUP1 SWAP2 DIV MUL PUSH1 0x20 ADD PUSH1 0x40 MLOAD SWAP1 DUP2 ADD PUSH1 0x40 MSTORE DUP1 SWAP3 SWAP2 SWAP1 DUP2 DUP2 MSTORE PUSH1 0x20 ADD DUP3 DUP1 SLOAD PUSH2 0x8F0 SWAP1 PUSH2 0xF46 JUMP JUMPDEST DUP1 ISZERO PUSH2 0x93B JUMPI DUP1 PUSH1 0x1F LT PUSH2 0x912 JUMPI PUSH2 0x100 DUP1 DUP4 SLOAD DIV MUL DUP4 MSTORE SWAP2 PUSH1 0x20 ADD SWAP2 PUSH2 0x93B JUMP JUMPDEST DUP3 ADD SWAP2 SWAP1 PUSH0 MSTORE PUSH1 0x20 PUSH0 KECCAK256 SWAP1 JUMPDEST DUP2 SLOAD DUP2 MSTORE SWAP1 PUSH1 0x1 ADD SWAP1 PUSH1 0x20 ADD DUP1 DUP4 GT PUSH2 0x91E JUMPI DUP3 SWAP1 SUB PUSH1 0x1F AND DUP3 ADD SWAP2 JUMPDEST POP POP POP POP POP DUP2 MSTORE PUSH1 0x20 ADD PUSH1 0x1 DUP3 ADD SLOAD DUP2 MSTORE PUSH1 0x20 ADD PUSH1 0x2 DUP3 ADD DUP1 SLOAD PUSH2 0x95E SWAP1 PUSH2 0xF46 JUMP JUMPDEST DUP1 PUSH1 0x1F ADD PUSH1 0x20 DUP1 SWAP2 DIV MUL PUSH1 0x20 ADD PUSH1 0x40 MLOAD SWAP1 DUP2 ADD PUSH1 0x40 MSTORE DUP1 SWAP3 SWAP2 SWAP1 DUP2 DUP2 MSTORE PUSH1 0x20 ADD DUP3 DUP1 SLOAD PUSH2 0x98A SWAP1 PUSH2 0xF46 JUMP JUMPDEST DUP1 ISZERO PUSH2 0x9D5 JUMPI DUP1 PUSH1 0x1F LT PUSH2 0x9AC JUMPI PUSH2 0x100 DUP1 DUP4 SLOAD DIV MUL DUP4 MSTORE SWAP2 PUSH1 0x20 ADD SWAP2 PUSH2 0x9D5 JUMP JUMPDEST DUP3 ADD SWAP2 SWAP1 PUSH0 MSTORE PUSH1 0x20 PUSH0 KECCAK256 SWAP1 JUMPDEST DUP2 SLOAD DUP2 MSTORE SWAP1 PUSH1 0x1 ADD SWAP1 PUSH1 0x20 ADD DUP1 DUP4 GT PUSH2 0x9B8 JUMPI DUP3 SWAP1 SUB PUSH1 0x1F AND DUP3 ADD SWAP2 JUMPDEST POP POP POP POP POP DUP2 MSTORE PUSH1 0x20 ADD PUSH1 0x3 DUP3 ADD PUSH1 0x40 MLOAD DUP1 PUSH2 0x220 ADD PUSH1 0x40 MSTORE SWAP1 DUP2 PUSH0 DUP3 ADD SLOAD DUP2 MSTORE PUSH1 0x20 ADD PUSH1 0x1 DUP3 ADD SLOAD DUP2 MSTORE PUSH1 0x20 ADD PUSH1 0x2 DUP3 ADD DUP1 SLOAD PUSH2 0xA12 SWAP1 PUSH2 0xF46 JUMP JUMPDEST DUP1 PUSH1 0x1F ADD PUSH1 0x20 DUP1 SWAP2 DIV MUL PUSH1 0x20 ADD PUSH1 0x40 MLOAD SWAP1 DUP2 ADD PUSH1 0x40 MSTORE DUP1 SWAP3 SWAP2 SWAP1 DUP2 DUP2 MSTORE PUSH1 0x20 ADD DUP3 DUP1 SLOAD PUSH2 0xA3E SWAP1 PUSH2 0xF46 JUMP JUMPDEST DUP1 ISZERO PUSH2 0xA89 JUMPI DUP1 PUSH1 0x1F LT PUSH2 0xA60 JUMPI PUSH2 0x100 DUP1 DUP4 SLOAD DIV MUL DUP4 MSTORE SWAP2 PUSH1 0x20 ADD SWAP2 PUSH2 0xA89 JUMP JUMPDEST DUP3 ADD SWAP2 SWAP1 PUSH0 MSTORE PUSH1 0x20 PUSH0 KECCAK256 SWAP1 JUMPDEST DUP2 SLOAD DUP2 MSTORE SWAP1 PUSH1 0x1 ADD SWAP1 PUSH1 0x20 ADD DUP1 DUP4 GT PUSH2 0xA6C JUMPI DUP3 SWAP1 SUB PUSH1 0x1F AND DUP3 ADD SWAP2 JUMPDEST POP POP POP POP POP DUP2 MSTORE PUSH1 0x20 ADD PUSH1 0x3 DUP3 ADD DUP1 SLOAD PUSH2 0xAA2 SWAP1 PUSH2 0xF46 JUMP JUMPDEST DUP1 PUSH1 0x1F ADD PUSH1 0x20 DUP1 SWAP2 DIV MUL PUSH1 0x20 ADD PUSH1 0x40 MLOAD SWAP1 DUP2 ADD PUSH1 0x40 MSTORE DUP1 SWAP3 SWAP2 SWAP1 DUP2 DUP2 MSTORE PUSH1 0x20 ADD DUP3 DUP1 SLOAD PUSH2 0xACE SWAP1 PUSH2 0xF46 JUMP JUMPDEST DUP1 ISZERO PUSH2 0xB19 JUMPI DUP1 PUSH1 0x1F LT PUSH2 0xAF0 JUMPI PUSH2 0x100 DUP1 DUP4 SLOAD DIV MUL DUP4 MSTORE SWAP2 PUSH1 0x20 ADD SWAP2 PUSH2 0xB19 JUMP JUMPDEST DUP3 ADD SWAP2 SWAP1 PUSH0 MSTORE PUSH1 0x20 PUSH0 KECCAK256 SWAP1 JUMPDEST DUP2 SLOAD DUP2 MSTORE SWAP1 PUSH1 0x1 ADD SWAP1 PUSH1 0x20 ADD DUP1 DUP4 GT PUSH2 0xAFC JUMPI DUP3 SWAP1 SUB PUSH1 0x1F AND DUP3 ADD SWAP2 JUMPDEST POP POP POP SWAP2 DUP4 MSTORE POP POP PUSH1 0x4 DUP3 ADD SLOAD PUSH1 0x20 DUP3 ADD MSTORE PUSH1 0x5 DUP3 ADD SLOAD PUSH1 0x40 DUP3 ADD MSTORE PUSH1 0x6 DUP3 ADD SLOAD PUSH1 0x60 DUP3 ADD MSTORE PUSH1 0x7 DUP3 ADD SLOAD PUSH1 0x80 DUP3 ADD MSTORE PUSH1 0x8 DUP3 ADD SLOAD PUSH1 0xA0 DUP3 ADD MSTORE PUSH1 0x9 DUP3 ADD SLOAD PUSH1 0xC0 DUP3 ADD MSTORE PUSH1 0xA DUP3 ADD SLOAD PUSH1 0xE0 DUP3 ADD MSTORE PUSH1 0xB DUP3 ADD SLOAD PUSH2 0x100 DUP3 ADD MSTORE PUSH1 0xC DUP3 ADD SLOAD PUSH1 0xFF AND ISZERO ISZERO PUSH2 0x120 DUP3 ADD MSTORE PUSH1 0xD DUP3 ADD SLOAD PUSH2 0x140 DUP3 ADD MSTORE PUSH1 0xE DUP3 ADD SLOAD PUSH2 0x160 DUP3 ADD MSTORE PUSH1 0xF DUP3 ADD SLOAD PUSH2 0x180 DUP3 ADD MSTORE PUSH1 0x10 DUP3 ADD DUP1 SLOAD PUSH2 0x1A0 SWAP1 SWAP3 ADD SWAP2 PUSH2 0xBB9 SWAP1 PUSH2 0xF46 JUMP JUMPDEST DUP1 PUSH1 0x1F ADD PUSH1 0x20 DUP1 SWAP2 DIV MUL PUSH1 0x20 ADD PUSH1 0x40 MLOAD SWAP1 DUP2 ADD PUSH1 0x40 MSTORE DUP1 SWAP3 SWAP2 SWAP1 DUP2 DUP2 MSTORE PUSH1 0x20 ADD DUP3 DUP1 SLOAD PUSH2 0xBE5 SWAP1 PUSH2 0xF46 JUMP JUMPDEST DUP1 ISZERO PUSH2 0xC30 JUMPI DUP1 PUSH1 0x1F LT PUSH2 0xC07 JUMPI PUSH2 0x100 DUP1 DUP4 SLOAD DIV MUL DUP4 MSTORE SWAP2 PUSH1 0x20 ADD SWAP2 PUSH2 0xC30 JUMP JUMPDEST DUP3 ADD SWAP2 SWAP1 PUSH0 MSTORE PUSH1 0x20 PUSH0 KECCAK256 SWAP1 JUMPDEST DUP2 SLOAD DUP2 MSTORE SWAP1 PUSH1 0x1 ADD SWAP1 PUSH1 0x20 ADD DUP1 DUP4 GT PUSH2 0xC13 JUMPI DUP3 SWAP1 SUB PUSH1 0x1F AND DUP3 ADD SWAP2 JUMPDEST POP POP POP POP POP DUP2 MSTORE POP POP DUP2 MSTORE POP POP SWAP2 POP POP SWAP1 JUMP JUMPDEST PUSH1 0x40 MLOAD DUP1 PUSH1 0x80 ADD PUSH1 0x40 MSTORE DUP1 PUSH1 0x60 DUP2 MSTORE PUSH1 0x20 ADD PUSH0 DUP2 MSTORE PUSH1 0x20 ADD PUSH1 0x60 DUP2 MSTORE PUSH1 0x20 ADD PUSH2 0xCDD PUSH1 0x40 MLOAD DUP1 PUSH2 0x220 ADD PUSH1 0x40 MSTORE DUP1 PUSH0 DUP2 MSTORE PUSH1 0x20 ADD PUSH0 DUP2 MSTORE PUSH1 0x20 ADD PUSH1 0x60 DUP2 MSTORE PUSH1 0x20 ADD PUSH1 0x60 DUP2 MSTORE PUSH1 0x20 ADD PUSH0 DUP2 MSTORE PUSH1 0x20 ADD PUSH0 DUP2 MSTORE PUSH1 0x20 ADD PUSH0 DUP2 MSTORE PUSH1 0x20 ADD PUSH0 DUP2 MSTORE PUSH1 0x20 ADD PUSH0 DUP2 MSTORE PUSH1 0x20 ADD PUSH0 DUP2 MSTORE PUSH1 0x20 ADD PUSH0 DUP2 MSTORE PUSH1 0x20 ADD PUSH0 DUP2 MSTORE PUSH1 0x20 ADD PUSH0 ISZERO ISZERO DUP2 MSTORE PUSH1 0x20 ADD PUSH0 DUP2 MSTORE PUSH1 0x20 ADD PUSH0 DUP2 MSTORE PUSH1 0x20 ADD PUSH0 DUP2 MSTORE PUSH1 0x20 ADD PUSH1 0x60 DUP2 MSTORE POP SWAP1 JUMP JUMPDEST SWAP1 MSTORE SWAP1 JUMP JUMPDEST PUSH0 DUP2 MLOAD DUP1 DUP5 MSTORE DUP1 PUSH1 0x20 DUP5 ADD PUSH1 0x20 DUP7 ADD MCOPY PUSH0 PUSH1 0x20 DUP3 DUP7 ADD ADD MSTORE PUSH1 0x20 PUSH1 0x1F NOT PUSH1 0x1F DUP4 ADD AND DUP6 ADD ADD SWAP2 POP POP SWAP3 SWAP2 POP POP JUMP JUMPDEST PUSH0 DUP2 MLOAD PUSH1 0x80 DUP5 MSTORE PUSH2 0xD24 PUSH1 0x80 DUP6 ADD DUP3 PUSH2 0xCE2 JUMP JUMPDEST SWAP1 POP PUSH1 0x20 DUP4 ADD MLOAD PUSH1 0x20 DUP6 ADD MSTORE PUSH1 0x40 DUP4 ADD MLOAD DUP5 DUP3 SUB PUSH1 0x40 DUP7 ADD MSTORE PUSH2 0xD47 DUP3 DUP3 PUSH2 0xCE2 JUMP JUMPDEST SWAP2 POP POP PUSH1 0x60 DUP4 ADD MLOAD DUP5 DUP3 SUB PUSH1 0x60 DUP7 ADD MSTORE DUP1 MLOAD DUP3 MSTORE PUSH1 0x20 DUP2 ADD MLOAD PUSH1 0x20 DUP4 ADD MSTORE PUSH1 0x40 DUP2 ADD MLOAD PUSH2 0x220 PUSH1 0x40 DUP5 ADD MSTORE PUSH2 0xD80 PUSH2 0x220 DUP5 ADD DUP3 PUSH2 0xCE2 JUMP JUMPDEST SWAP1 POP PUSH1 0x60 DUP3 ADD MLOAD DUP4 DUP3 SUB PUSH1 0x60 DUP6 ADD MSTORE PUSH2 0xD99 DUP3 DUP3 PUSH2 0xCE2 JUMP JUMPDEST SWAP2 POP POP PUSH1 0x80 DUP3 ADD MLOAD PUSH1 0x80 DUP5 ADD MSTORE PUSH1 0xA0 DUP3 ADD MLOAD PUSH1 0xA0 DUP5 ADD MSTORE PUSH1 0xC0 DUP3 ADD MLOAD PUSH1 0xC0 DUP5 ADD MSTORE PUSH1 0xE0 DUP3 ADD MLOAD PUSH1 0xE0 DUP5 ADD MSTORE PUSH2 0x100 DUP3 ADD MLOAD PUSH2 0x100 DUP5 ADD MSTORE PUSH2 0x120 DUP3 ADD MLOAD PUSH2 0x120 DUP5 ADD MSTORE PUSH2 0x140 DUP3 ADD MLOAD PUSH2 0x140 DUP5 ADD MSTORE PUSH2 0x160 DUP3 ADD MLOAD PUSH2 0x160 DUP5 ADD MSTORE PUSH2 0x180 DUP3 ADD MLOAD PUSH2 0xE09 PUSH2 0x180 DUP6 ADD DUP3 ISZERO ISZERO SWAP1 MSTORE JUMP JUMPDEST POP PUSH2 0x1A0 DUP3 ADD MLOAD PUSH2 0x1A0 DUP5 ADD MSTORE PUSH2 0x1C0 DUP3 ADD MLOAD PUSH2 0x1C0 DUP5 ADD MSTORE PUSH2 0x1E0 DUP3 ADD MLOAD PUSH2 0x1E0 DUP5 ADD MSTORE PUSH2 0x200 DUP3 ADD MLOAD SWAP2 POP DUP3 DUP2 SUB PUSH2 0x200 DUP5 ADD MSTORE PUSH2 0xE49 DUP2 DUP4 PUSH2 0xCE2 JUMP JUMPDEST SWAP7 SWAP6 POP POP POP POP POP POP JUMP JUMPDEST PUSH0 PUSH1 0x20 DUP3 ADD PUSH1 0x20 DUP4 MSTORE DUP1 DUP5 MLOAD DUP1 DUP4 MSTORE PUSH1 0x40 DUP6 ADD SWAP2 POP PUSH1 0x40 DUP2 PUSH1 0x5 SHL DUP7 ADD ADD SWAP3 POP PUSH1 0x20 DUP7 ADD PUSH0 JUMPDEST DUP3 DUP2 LT ISZERO PUSH2 0xEAA JUMPI PUSH1 0x3F NOT DUP8 DUP7 SUB ADD DUP5 MSTORE PUSH2 0xE95 DUP6 DUP4 MLOAD PUSH2 0xD10 JUMP JUMPDEST SWAP5 POP PUSH1 0x20 SWAP4 DUP5 ADD SWAP4 SWAP2 SWAP1 SWAP2 ADD SWAP1 PUSH1 0x1 ADD PUSH2 0xE79 JUMP JUMPDEST POP SWAP3 SWAP7 SWAP6 POP POP POP POP POP POP JUMP JUMPDEST PUSH0 PUSH1 0x20 DUP3 DUP5 SUB SLT ISZERO PUSH2 0xEC6 JUMPI PUSH0 PUSH0 REVERT JUMPDEST POP CALLDATALOAD SWAP2 SWAP1 POP JUMP JUMPDEST PUSH1 0x20 DUP2 MSTORE PUSH0 PUSH2 0xEDF PUSH1 0x20 DUP4 ADD DUP5 PUSH2 0xD10 JUMP JUMPDEST SWAP4 SWAP3 POP POP POP JUMP JUMPDEST PUSH0 PUSH1 0x20 DUP3 DUP5 SUB SLT ISZERO PUSH2 0xEF6 JUMPI PUSH0 PUSH0 REVERT JUMPDEST DUP2 CALLDATALOAD PUSH8 0xFFFFFFFFFFFFFFFF DUP2 GT ISZERO PUSH2 0xF0C JUMPI PUSH0 PUSH0 REVERT JUMPDEST DUP3 ADD PUSH2 0x220 DUP2 DUP6 SUB SLT ISZERO PUSH2 0xEDF JUMPI PUSH0 PUSH0 REVERT JUMPDEST PUSH4 0x4E487B71 PUSH1 0xE0 SHL PUSH0 MSTORE PUSH1 0x41 PUSH1 0x4 MSTORE PUSH1 0x24 PUSH0 REVERT JUMPDEST PUSH4 0x4E487B71 PUSH1 0xE0 SHL PUSH0 MSTORE PUSH1 0x32 PUSH1 0x4 MSTORE PUSH1 0x24 PUSH0 REVERT JUMPDEST PUSH1 0x1 DUP2 DUP2 SHR SWAP1 DUP3 AND DUP1 PUSH2 0xF5A JUMPI PUSH1 0x7F DUP3 AND SWAP2 POP JUMPDEST PUSH1 0x20 DUP3 LT DUP2 SUB PUSH2 0x187 JUMPI PUSH4 0x4E487B71 PUSH1 0xE0 SHL PUSH0 MSTORE PUSH1 0x22 PUSH1 0x4 MSTORE PUSH1 0x24 PUSH0 REVERT JUMPDEST PUSH0 PUSH0 DUP4 CALLDATALOAD PUSH1 0x1E NOT DUP5 CALLDATASIZE SUB ADD DUP2 SLT PUSH2 0xF8D JUMPI PUSH0 PUSH0 REVERT JUMPDEST DUP4 ADD DUP1 CALLDATALOAD SWAP2 POP PUSH8 0xFFFFFFFFFFFFFFFF DUP3 GT ISZERO PUSH2 0xFA7 JUMPI PUSH0 PUSH0 REVERT JUMPDEST PUSH1 0x20 ADD SWAP2 POP CALLDATASIZE DUP2 SWAP1 SUB DUP3 SGT ISZERO PUSH2 0xFBB JUMPI PUSH0 PUSH0 REVERT JUMPDEST SWAP3 POP SWAP3 SWAP1 POP JUMP JUMPDEST PUSH1 0x40 MLOAD PUSH2 0x220 DUP2 ADD PUSH8 0xFFFFFFFFFFFFFFFF DUP2 GT DUP3 DUP3 LT OR ISZERO PUSH2 0xFE6 JUMPI PUSH2 0xFE6 PUSH2 0xF1E JUMP JUMPDEST PUSH1 0x40 MSTORE SWAP1 JUMP JUMPDEST PUSH0 DUP3 PUSH1 0x1F DUP4 ADD SLT PUSH2 0xFFB JUMPI PUSH0 PUSH0 REVERT JUMPDEST DUP2 CALLDATALOAD PUSH8 0xFFFFFFFFFFFFFFFF DUP2 GT ISZERO PUSH2 0x1015 JUMPI PUSH2 0x1015 PUSH2 0xF1E JUMP JUMPDEST PUSH1 0x40 MLOAD PUSH1 0x1F DUP3 ADD PUSH1 0x1F NOT SWAP1 DUP2 AND PUSH1 0x3F ADD AND DUP2 ADD PUSH8 0xFFFFFFFFFFFFFFFF DUP2 GT DUP3 DUP3 LT OR ISZERO PUSH2 0x1044 JUMPI PUSH2 0x1044 PUSH2 0xF1E JUMP JUMPDEST PUSH1 0x40 MSTORE DUP2 DUP2 MSTORE DUP4 DUP3 ADD PUSH1 0x20 ADD DUP6 LT ISZERO PUSH2 0x105B JUMPI PUSH0 PUSH0 REVERT JUMPDEST DUP2 PUSH1 0x20 DUP6 ADD PUSH1 0x20 DUP4 ADD CALLDATACOPY PUSH0 SWAP2 DUP2 ADD PUSH1 0x20 ADD SWAP2 SWAP1 SWAP2 MSTORE SWAP4 SWAP3 POP POP POP JUMP JUMPDEST DUP1 CALLDATALOAD DUP1 ISZERO ISZERO DUP2 EQ PUSH2 0x1086 JUMPI PUSH0 PUSH0 REVERT JUMPDEST SWAP2 SWAP1 POP JUMP JUMPDEST PUSH0 PUSH2 0x220 DUP3 CALLDATASIZE SUB SLT ISZERO PUSH2 0x109C JUMPI PUSH0 PUSH0 REVERT JUMPDEST PUSH2 0x10A4 PUSH2 0xFC2 JUMP JUMPDEST DUP3 CALLDATALOAD DUP2 MSTORE PUSH1 0x20 DUP1 DUP5 ADD CALLDATALOAD SWAP1 DUP3 ADD MSTORE PUSH1 0x40 DUP4 ADD CALLDATALOAD PUSH8 0xFFFFFFFFFFFFFFFF DUP2 GT ISZERO PUSH2 0x10CB JUMPI PUSH0 PUSH0 REVERT JUMPDEST PUSH2 0x10D7 CALLDATASIZE DUP3 DUP7 ADD PUSH2 0xFEC JUMP JUMPDEST PUSH1 0x40 DUP4 ADD MSTORE POP PUSH1 0x60 DUP4 ADD CALLDATALOAD PUSH8 0xFFFFFFFFFFFFFFFF DUP2 GT ISZERO PUSH2 0x10F6 JUMPI PUSH0 PUSH0 REVERT JUMPDEST PUSH2 0x1102 CALLDATASIZE DUP3 DUP7 ADD PUSH2 0xFEC JUMP JUMPDEST PUSH1 0x60 DUP4 ADD MSTORE POP PUSH1 0x80 DUP4 DUP2 ADD CALLDATALOAD SWAP1 DUP3 ADD MSTORE PUSH1 0xA0 DUP1 DUP5 ADD CALLDATALOAD SWAP1 DUP3 ADD MSTORE PUSH1 0xC0 DUP1 DUP5 ADD CALLDATALOAD SWAP1 DUP3 ADD MSTORE PUSH1 0xE0 DUP1 DUP5 ADD CALLDATALOAD SWAP1 DUP3 ADD MSTORE PUSH2 0x100 DUP1 DUP5 ADD CALLDATALOAD SWAP1 DUP3 ADD MSTORE PUSH2 0x120 DUP1 DUP5 ADD CALLDATALOAD SWAP1 DUP3 ADD MSTORE PUSH2 0x140 DUP1 DUP5 ADD CALLDATALOAD SWAP1 DUP3 ADD MSTORE PUSH2 0x160 DUP1 DUP5 ADD CALLDATALOAD SWAP1 DUP3 ADD MSTORE PUSH2 0x1169 PUSH2 0x180 DUP5 ADD PUSH2 0x1077 JUMP JUMPDEST PUSH2 0x180 DUP3 ADD MSTORE PUSH2 0x1A0 DUP4 DUP2 ADD CALLDATALOAD SWAP1 DUP3 ADD MSTORE PUSH2 0x1C0 DUP1 DUP5 ADD CALLDATALOAD SWAP1 DUP3 ADD MSTORE PUSH2 0x1E0 DUP1 DUP5 ADD CALLDATALOAD SWAP1 DUP3 ADD MSTORE PUSH2 0x200 DUP4 ADD CALLDATALOAD PUSH8 0xFFFFFFFFFFFFFFFF DUP2 GT ISZERO PUSH2 0x11AA JUMPI PUSH0 PUSH0 REVERT JUMPDEST PUSH2 0x11B6 CALLDATASIZE DUP3 DUP7 ADD PUSH2 0xFEC JUMP JUMPDEST PUSH2 0x200 DUP4 ADD MSTORE POP SWAP3 SWAP2 POP POP JUMP JUMPDEST PUSH1 0x1F DUP3 GT ISZERO PUSH2 0x120A JUMPI DUP1 PUSH0 MSTORE PUSH1 0x20 PUSH0 KECCAK256 PUSH1 0x1F DUP5 ADD PUSH1 0x5 SHR DUP2 ADD PUSH1 0x20 DUP6 LT ISZERO PUSH2 0x11E8 JUMPI POP DUP1 JUMPDEST PUSH1 0x1F DUP5 ADD PUSH1 0x5 SHR DUP3 ADD SWAP2 POP JUMPDEST DUP2 DUP2 LT ISZERO PUSH2 0x1207 JUMPI PUSH0 DUP2 SSTORE PUSH1 0x1 ADD PUSH2 0x11F4 JUMP JUMPDEST POP POP JUMPDEST POP POP POP JUMP JUMPDEST DUP2 MLOAD PUSH8 0xFFFFFFFFFFFFFFFF DUP2 GT ISZERO PUSH2 0x1229 JUMPI PUSH2 0x1229 PUSH2 0xF1E JUMP JUMPDEST PUSH2 0x123D DUP2 PUSH2 0x1237 DUP5 SLOAD PUSH2 0xF46 JUMP JUMPDEST DUP5 PUSH2 0x11C3 JUMP JUMPDEST PUSH1 0x20 PUSH1 0x1F DUP3 GT PUSH1 0x1 DUP2 EQ PUSH2 0x126F JUMPI PUSH0 DUP4 ISZERO PUSH2 0x1258 JUMPI POP DUP5 DUP3 ADD MLOAD JUMPDEST PUSH0 NOT PUSH1 0x3 DUP6 SWAP1 SHL SHR NOT AND PUSH1 0x1 DUP5 SWAP1 SHL OR DUP5 SSTORE PUSH2 0x1207 JUMP JUMPDEST PUSH0 DUP5 DUP2 MSTORE PUSH1 0x20 DUP2 KECCAK256 PUSH1 0x1F NOT DUP6 AND SWAP2 JUMPDEST DUP3 DUP2 LT ISZERO PUSH2 0x129E JUMPI DUP8 DUP6 ADD MLOAD DUP3 SSTORE PUSH1 0x20 SWAP5 DUP6 ADD SWAP5 PUSH1 0x1 SWAP1 SWAP3 ADD SWAP2 ADD PUSH2 0x127E JUMP JUMPDEST POP DUP5 DUP3 LT ISZERO PUSH2 0x12BB JUMPI DUP7 DUP5 ADD MLOAD PUSH0 NOT PUSH1 0x3 DUP8 SWAP1 SHL PUSH1 0xF8 AND SHR NOT AND DUP2 SSTORE JUMPDEST POP POP POP POP PUSH1 0x1 SWAP1 DUP2 SHL ADD SWAP1 SSTORE POP JUMP JUMPDEST DUP6 DUP2 MSTORE PUSH1 0x80 PUSH1 0x20 DUP3 ADD MSTORE DUP4 PUSH1 0x80 DUP3 ADD MSTORE DUP4 DUP6 PUSH1 0xA0 DUP4 ADD CALLDATACOPY PUSH0 PUSH1 0xA0 DUP6 DUP4 ADD ADD MSTORE PUSH0 PUSH1 0xA0 PUSH1 0x1F NOT PUSH1 0x1F DUP8 ADD AND DUP4 ADD ADD SWAP1 POP DUP4 PUSH1 0x40 DUP4 ADD MSTORE DUP3 PUSH1 0x60 DUP4 ADD MSTORE SWAP7 SWAP6 POP POP POP POP POP POP JUMP JUMPDEST DUP2 DUP2 SUB DUP2 DUP2 GT ISZERO PUSH2 0x132E JUMPI PUSH4 0x4E487B71 PUSH1 0xE0 SHL PUSH0 MSTORE PUSH1 0x11 PUSH1 0x4 MSTORE PUSH1 0x24 PUSH0 REVERT JUMPDEST SWAP3 SWAP2 POP POP JUMP INVALID LOG2 PUSH5 0x6970667358 0x22 SLT KECCAK256 PUSH18 0x674E066719814A10C1DDFEBA4DD2317DA680 PUSH13 0x14DF6E3878C29A6FEA97EB5F64 PUSH20 0x6F6C634300081E00330000000000000000000000 "
				},
				"gasEstimates": {
					"creation": {
						"codeDepositCost": "994000",
						"executionCost": "1032",
						"totalCost": "995032"
					},
					"external": {
						"getAllCandle()": "infinite",
						"getCandle(uint256)": "infinite",
						"getLastKline()": "infinite",
						"getLength()": "2301",
						"recordCandle((uint256,uint256,string,string,uint256,uint256,uint256,uint256,uint256,uint256,uint256,uint256,bool,uint256,uint256,uint256,string))": "infinite"
					}
				},
				"methodIdentifiers": {
					"getAllCandle()": "8d5ce2bc",
					"getCandle(uint256)": "a00a5424",
					"getLastKline()": "edd0bf6a",
					"getLength()": "be1c766b",
					"recordCandle((uint256,uint256,string,string,uint256,uint256,uint256,uint256,uint256,uint256,uint256,uint256,bool,uint256,uint256,uint256,string))": "c80da6cf"
				}
			},
			"storageLayout": {
				"storage": [
					{
						"astId": 50,
						"contract": "contracts/manager/Candel_1M/Candel_1M_Manager.sol:Candle_1M_Manager",
						"label": "candles",
						"offset": 0,
						"slot": "0",
						"type": "t_mapping(t_uint256,t_struct(CandleResponse)273_storage)"
					},
					{
						"astId": 53,
						"contract": "contracts/manager/Candel_1M/Candel_1M_Manager.sol:Candle_1M_Manager",
						"label": "timestampList",
						"offset": 0,
						"slot": "1",
						"type": "t_array(t_uint256)dyn_storage"
					}
				],
				"types": {
					"t_array(t_uint256)dyn_storage": {
						"base": "t_uint256",
						"encoding": "dynamic_array",
						"label": "uint256[]",
						"numberOfBytes": "32"
					},
					"t_bool": {
						"encoding": "inplace",
						"label": "bool",
						"numberOfBytes": "1"
					},
					"t_mapping(t_uint256,t_struct(CandleResponse)273_storage)": {
						"encoding": "mapping",
						"key": "t_uint256",
						"label": "mapping(uint256 => struct CandleResponse)",
						"numberOfBytes": "32",
						"value": "t_struct(CandleResponse)273_storage"
					},
					"t_string_storage": {
						"encoding": "bytes",
						"label": "string",
						"numberOfBytes": "32"
					},
					"t_struct(CandleRecord)263_storage": {
						"encoding": "inplace",
						"label": "struct CandleRecord",
						"members": [
							{
								"astId": 230,
								"contract": "contracts/manager/Candel_1M/Candel_1M_Manager.sol:Candle_1M_Manager",
								"label": "t",
								"offset": 0,
								"slot": "0",
								"type": "t_uint256"
							},
							{
								"astId": 232,
								"contract": "contracts/manager/Candel_1M/Candel_1M_Manager.sol:Candle_1M_Manager",
								"label": "T",
								"offset": 0,
								"slot": "1",
								"type": "t_uint256"
							},
							{
								"astId": 234,
								"contract": "contracts/manager/Candel_1M/Candel_1M_Manager.sol:Candle_1M_Manager",
								"label": "s",
								"offset": 0,
								"slot": "2",
								"type": "t_string_storage"
							},
							{
								"astId": 236,
								"contract": "contracts/manager/Candel_1M/Candel_1M_Manager.sol:Candle_1M_Manager",
								"label": "i",
								"offset": 0,
								"slot": "3",
								"type": "t_string_storage"
							},
							{
								"astId": 238,
								"contract": "contracts/manager/Candel_1M/Candel_1M_Manager.sol:Candle_1M_Manager",
								"label": "f",
								"offset": 0,
								"slot": "4",
								"type": "t_uint256"
							},
							{
								"astId": 240,
								"contract": "contracts/manager/Candel_1M/Candel_1M_Manager.sol:Candle_1M_Manager",
								"label": "L",
								"offset": 0,
								"slot": "5",
								"type": "t_uint256"
							},
							{
								"astId": 242,
								"contract": "contracts/manager/Candel_1M/Candel_1M_Manager.sol:Candle_1M_Manager",
								"label": "o",
								"offset": 0,
								"slot": "6",
								"type": "t_uint256"
							},
							{
								"astId": 244,
								"contract": "contracts/manager/Candel_1M/Candel_1M_Manager.sol:Candle_1M_Manager",
								"label": "c",
								"offset": 0,
								"slot": "7",
								"type": "t_uint256"
							},
							{
								"astId": 246,
								"contract": "contracts/manager/Candel_1M/Candel_1M_Manager.sol:Candle_1M_Manager",
								"label": "h",
								"offset": 0,
								"slot": "8",
								"type": "t_uint256"
							},
							{
								"astId": 248,
								"contract": "contracts/manager/Candel_1M/Candel_1M_Manager.sol:Candle_1M_Manager",
								"label": "l",
								"offset": 0,
								"slot": "9",
								"type": "t_uint256"
							},
							{
								"astId": 250,
								"contract": "contracts/manager/Candel_1M/Candel_1M_Manager.sol:Candle_1M_Manager",
								"label": "v",
								"offset": 0,
								"slot": "10",
								"type": "t_uint256"
							},
							{
								"astId": 252,
								"contract": "contracts/manager/Candel_1M/Candel_1M_Manager.sol:Candle_1M_Manager",
								"label": "n",
								"offset": 0,
								"slot": "11",
								"type": "t_uint256"
							},
							{
								"astId": 254,
								"contract": "contracts/manager/Candel_1M/Candel_1M_Manager.sol:Candle_1M_Manager",
								"label": "x",
								"offset": 0,
								"slot": "12",
								"type": "t_bool"
							},
							{
								"astId": 256,
								"contract": "contracts/manager/Candel_1M/Candel_1M_Manager.sol:Candle_1M_Manager",
								"label": "q",
								"offset": 0,
								"slot": "13",
								"type": "t_uint256"
							},
							{
								"astId": 258,
								"contract": "contracts/manager/Candel_1M/Candel_1M_Manager.sol:Candle_1M_Manager",
								"label": "V",
								"offset": 0,
								"slot": "14",
								"type": "t_uint256"
							},
							{
								"astId": 260,
								"contract": "contracts/manager/Candel_1M/Candel_1M_Manager.sol:Candle_1M_Manager",
								"label": "Q",
								"offset": 0,
								"slot": "15",
								"type": "t_uint256"
							},
							{
								"astId": 262,
								"contract": "contracts/manager/Candel_1M/Candel_1M_Manager.sol:Candle_1M_Manager",
								"label": "B",
								"offset": 0,
								"slot": "16",
								"type": "t_string_storage"
							}
						],
						"numberOfBytes": "544"
					},
					"t_struct(CandleResponse)273_storage": {
						"encoding": "inplace",
						"label": "struct CandleResponse",
						"members": [
							{
								"astId": 265,
								"contract": "contracts/manager/Candel_1M/Candel_1M_Manager.sol:Candle_1M_Manager",
								"label": "e",
								"offset": 0,
								"slot": "0",
								"type": "t_string_storage"
							},
							{
								"astId": 267,
								"contract": "contracts/manager/Candel_1M/Candel_1M_Manager.sol:Candle_1M_Manager",
								"label": "E",
								"offset": 0,
								"slot": "1",
								"type": "t_uint256"
							},
							{
								"astId": 269,
								"contract": "contracts/manager/Candel_1M/Candel_1M_Manager.sol:Candle_1M_Manager",
								"label": "s",
								"offset": 0,
								"slot": "2",
								"type": "t_string_storage"
							},
							{
								"astId": 272,
								"contract": "contracts/manager/Candel_1M/Candel_1M_Manager.sol:Candle_1M_Manager",
								"label": "k",
								"offset": 0,
								"slot": "3",
								"type": "t_struct(CandleRecord)263_storage"
							}
						],
						"numberOfBytes": "640"
					},
					"t_uint256": {
						"encoding": "inplace",
						"label": "uint256",
						"numberOfBytes": "32"
					}
				}
			},
			"userdoc": {
				"kind": "user",
				"methods": {},
				"version": 1
			}
		}
	}
}